{
  "contracts/channel.sol": {
    "channel": {
      "abi": [
        {
          "inputs": [],
          "stateMutability": "nonpayable",
          "type": "constructor"
        },
        {
          "stateMutability": "payable",
          "type": "fallback"
        },
        {
          "inputs": [],
          "name": "S_id",
          "outputs": [
            {
              "internalType": "string",
              "name": "",
              "type": "string"
            }
          ],
          "stateMutability": "view",
          "type": "function"
        },
        {
          "inputs": [],
          "name": "TD",
          "outputs": [
            {
              "internalType": "uint256",
              "name": "",
              "type": "uint256"
            }
          ],
          "stateMutability": "view",
          "type": "function"
        },
        {
          "inputs": [],
          "name": "TR",
          "outputs": [
            {
              "internalType": "uint256",
              "name": "",
              "type": "uint256"
            }
          ],
          "stateMutability": "view",
          "type": "function"
        },
        {
          "inputs": [],
          "name": "T_exp",
          "outputs": [
            {
              "internalType": "uint256",
              "name": "",
              "type": "uint256"
            }
          ],
          "stateMutability": "view",
          "type": "function"
        },
        {
          "inputs": [],
          "name": "W_jc",
          "outputs": [
            {
              "internalType": "bytes32",
              "name": "",
              "type": "bytes32"
            }
          ],
          "stateMutability": "view",
          "type": "function"
        },
        {
          "inputs": [],
          "name": "W_jm",
          "outputs": [
            {
              "internalType": "bytes32",
              "name": "",
              "type": "bytes32"
            }
          ],
          "stateMutability": "view",
          "type": "function"
        },
        {
          "inputs": [],
          "name": "c",
          "outputs": [
            {
              "internalType": "uint256",
              "name": "",
              "type": "uint256"
            }
          ],
          "stateMutability": "view",
          "type": "function"
        },
        {
          "inputs": [],
          "name": "channelClose",
          "outputs": [],
          "stateMutability": "payable",
          "type": "function"
        },
        {
          "inputs": [],
          "name": "customer",
          "outputs": [
            {
              "internalType": "address",
              "name": "",
              "type": "address"
            }
          ],
          "stateMutability": "view",
          "type": "function"
        },
        {
          "inputs": [
            {
              "internalType": "uint256",
              "name": "_c",
              "type": "uint256"
            },
            {
              "internalType": "uint256",
              "name": "_v",
              "type": "uint256"
            },
            {
              "internalType": "address",
              "name": "_customer",
              "type": "address"
            }
          ],
          "name": "initialize",
          "outputs": [],
          "stateMutability": "payable",
          "type": "function"
        },
        {
          "inputs": [],
          "name": "isBase",
          "outputs": [
            {
              "internalType": "bool",
              "name": "",
              "type": "bool"
            }
          ],
          "stateMutability": "view",
          "type": "function"
        },
        {
          "inputs": [],
          "name": "j",
          "outputs": [
            {
              "internalType": "uint256",
              "name": "",
              "type": "uint256"
            }
          ],
          "stateMutability": "view",
          "type": "function"
        },
        {
          "inputs": [
            {
              "internalType": "bytes32",
              "name": "_W_jm",
              "type": "bytes32"
            },
            {
              "internalType": "bytes32",
              "name": "_W_jc",
              "type": "bytes32"
            },
            {
              "internalType": "string",
              "name": "_S_id",
              "type": "string"
            },
            {
              "internalType": "uint256",
              "name": "_c",
              "type": "uint256"
            },
            {
              "internalType": "uint256",
              "name": "_v",
              "type": "uint256"
            },
            {
              "internalType": "uint256",
              "name": "_T_exp",
              "type": "uint256"
            },
            {
              "internalType": "uint256",
              "name": "_TD",
              "type": "uint256"
            },
            {
              "internalType": "uint256",
              "name": "_TR",
              "type": "uint256"
            }
          ],
          "name": "setChannelParams",
          "outputs": [],
          "stateMutability": "nonpayable",
          "type": "function"
        },
        {
          "inputs": [
            {
              "internalType": "bytes",
              "name": "_W_km",
              "type": "bytes"
            },
            {
              "internalType": "bytes",
              "name": "_W_kc",
              "type": "bytes"
            },
            {
              "internalType": "uint256",
              "name": "k",
              "type": "uint256"
            },
            {
              "internalType": "address",
              "name": "newChannelAddress",
              "type": "address"
            }
          ],
          "name": "transferDeposit",
          "outputs": [],
          "stateMutability": "nonpayable",
          "type": "function"
        },
        {
          "inputs": [],
          "name": "v",
          "outputs": [
            {
              "internalType": "uint256",
              "name": "",
              "type": "uint256"
            }
          ],
          "stateMutability": "view",
          "type": "function"
        },
        {
          "stateMutability": "payable",
          "type": "receive"
        }
      ],
      "evm": {
        "bytecode": {
          "linkReferences": {},
          "object": "608060405234801561001057600080fd5b50600a805460ff19166001179055610e778061002d6000396000f3fe6080604052600436106100b95760003560e01c80630482ff76146100c257806324763493146100ca5780632804b2c0146100f557806334133df91461012d5780635e650318146101515780637c2efcba146101675780637f80069a1461017d57806388bf1930146101a75780639c21a9b8146101bd578063a6ab36f2146101d3578063b582ec5f146101e6578063c3da42b8146101fc578063d8befbb614610212578063e8de68cc14610232578063f493e8701461025257005b366100c057005b005b6100c0610268565b3480156100d657600080fd5b506100df6102cc565b6040516100ec9190610c36565b60405180910390f35b34801561010157600080fd5b50600154610115906001600160a01b031681565b6040516001600160a01b0390911681526020016100ec565b34801561013957600080fd5b5061014360095481565b6040519081526020016100ec565b34801561015d57600080fd5b5061014360035481565b34801561017357600080fd5b5061014360065481565b34801561018957600080fd5b50600a546101979060ff1681565b60405190151581526020016100ec565b3480156101b357600080fd5b5061014360025481565b3480156101c957600080fd5b5061014360085481565b6100c06101e1366004610be5565b61035a565b3480156101f257600080fd5b5061014360005481565b34801561020857600080fd5b5061014360055481565b34801561021e57600080fd5b506100c061022d366004610b68565b6103e2565b34801561023e57600080fd5b506100c061024d366004610ad7565b610874565b34801561025e57600080fd5b5061014360075481565b6001546001600160a01b0316331461029b5760405162461bcd60e51b815260040161029290610c8d565b60405180910390fd5b426008546007546102ac9190610ce6565b106102c95760405162461bcd60e51b815260040161029290610c69565b33ff5b600480546102d990610db6565b80601f016020809104026020016040519081016040528092919081815260200182805461030590610db6565b80156103525780601f1061032757610100808354040283529160200191610352565b820191906000526020600020905b81548152906001019060200180831161033557829003601f168201915b505050505081565b600a5460ff161561036a57600080fd5b600180546001600160a01b0319166001600160a01b0383161790556005839055600682905534156103dd5761039f8284610d12565b34146103dd5760405162461bcd60e51b815260206004820152600d60248201526c3130b630b731b29032b93937b960991b6044820152606401610292565b505050565b6008546007546103f29190610ce6565b42106104105760405162461bcd60e51b815260040161029290610c69565b600054821161044a5760405162461bcd60e51b815260206004820152600660248201526535901e1e903560d11b6044820152606401610292565b60008061045686610d48565b9050600061046386610d48565b905060008054866104749190610d31565b90505b80156105715760028360405160200161049291815260200190565b60408051601f19818403018152908290526104ac91610c1a565b602060405180830381855afa1580156104c9573d6000803e3d6000fd5b5050506040513d601f19601f820116820180604052508101906104ec9190610abe565b925060028260405160200161050391815260200190565b60408051601f198184030181529082905261051d91610c1a565b602060405180830381855afa15801561053a573d6000803e3d6000fd5b5050506040513d601f19601f8201168201806040525081019061055d9190610abe565b91508061056981610d9f565b915050610477565b82600254146105b65760405162461bcd60e51b815260206004820152601160248201527015d7dadb481a5cc81a5b98dbdc9c9958dd607a1b6044820152606401610292565b81600354146105fb5760405162461bcd60e51b815260206004820152601160248201527015d7dad8c81a5cc81a5b98dbdc9c9958dd607a1b6044820152606401610292565b610606600287610deb565b6106485760026000548761061a9190610d31565b6106249190610cfe565b6000879055935061063488610d48565b60025561064087610d48565b6003556107bd565b600260016000548861065a9190610d31565b6106649190610d31565b61066e9190610cfe565b935061067b600187610d31565b600090815561068989610d48565b9050600061069689610d48565b905060008054896106a79190610d31565b90505b80156107a4576002836040516020016106c591815260200190565b60408051601f19818403018152908290526106df91610c1a565b602060405180830381855afa1580156106fc573d6000803e3d6000fd5b5050506040513d601f19601f8201168201806040525081019061071f9190610abe565b925060028260405160200161073691815260200190565b60408051601f198184030181529082905261075091610c1a565b602060405180830381855afa15801561076d573d6000803e3d6000fd5b5050506040513d601f19601f820116820180604052508101906107909190610abe565b91508061079c81610d9f565b9150506106aa565b6107af60018a610d31565b600055506002919091556003555b6001600160a01b0385161561082d57846001600160a01b0316600654856107e49190610d12565b604051600081818185875af1925050503d8060008114610820576040519150601f19603f3d011682016040523d82523d6000602084013e610825565b606091505b50505061086a565b60065433906108fc906108409087610d12565b6040518115909202916000818181858888f19350505050158015610868573d6000803e3d6000fd5b505b5050505050505050565b6001546001600160a01b0316331461089e5760405162461bcd60e51b815260040161029290610c8d565b6108a88486610d12565b47146108b357600080fd5b6007541580156108c35750600854155b80156108cf5750600954155b80156108e95750426008546007546108e79190610ce6565b105b806109285750426008546007546109009190610ce6565b108015610928575060095460085460075461091b9190610ce6565b6109259190610ce6565b42105b61093157600080fd5b6000805560028890556003879055855161095290600490602089019061096d565b50600594909455600692909255600755600855600955505050565b82805461097990610db6565b90600052602060002090601f01602090048101928261099b57600085556109e1565b82601f106109b457805160ff19168380011785556109e1565b828001600101855582156109e1579182015b828111156109e15782518255916020019190600101906109c6565b506109ed9291506109f1565b5090565b5b808211156109ed57600081556001016109f2565b60006001600160401b0380841115610a2057610a20610e2b565b604051601f8501601f19908116603f01168101908282118183101715610a4857610a48610e2b565b81604052809350858152868686011115610a6157600080fd5b858560208301376000602087830101525050509392505050565b80356001600160a01b0381168114610a9257600080fd5b919050565b600082601f830112610aa857600080fd5b610ab783833560208501610a06565b9392505050565b600060208284031215610ad057600080fd5b5051919050565b600080600080600080600080610100898b031215610af457600080fd5b883597506020890135965060408901356001600160401b03811115610b1857600080fd5b8901601f81018b13610b2957600080fd5b610b388b823560208401610a06565b989b979a5097986060810135985060808101359760a0820135975060c0820135965060e090910135945092505050565b60008060008060808587031215610b7e57600080fd5b84356001600160401b0380821115610b9557600080fd5b610ba188838901610a97565b95506020870135915080821115610bb757600080fd5b50610bc487828801610a97565b93505060408501359150610bda60608601610a7b565b905092959194509250565b600080600060608486031215610bfa57600080fd5b8335925060208401359150610c1160408501610a7b565b90509250925092565b60008251610c2c818460208701610d6f565b9190910192915050565b6020815260008251806020840152610c55816040850160208701610d6f565b601f01601f19169190910160400192915050565b6020808252600a90820152692a34b6b29032b93937b960b11b604082015260600190565b60208082526039908201527f4f6e6c7920637573746f6d6572206f66207468652064656c6976657279206361604082015278371039b2ba103a34329031b430b73732b6103830b930b6b99760391b606082015260800190565b60008219821115610cf957610cf9610dff565b500190565b600082610d0d57610d0d610e15565b500490565b6000816000190483118215151615610d2c57610d2c610dff565b500290565b600082821015610d4357610d43610dff565b500390565b80516020808301519190811015610d69576000198160200360031b1b821691505b50919050565b60005b83811015610d8a578181015183820152602001610d72565b83811115610d99576000848401525b50505050565b600081610dae57610dae610dff565b506000190190565b600181811c90821680610dca57607f821691505b60208210811415610d6957634e487b7160e01b600052602260045260246000fd5b600082610dfa57610dfa610e15565b500690565b634e487b7160e01b600052601160045260246000fd5b634e487b7160e01b600052601260045260246000fd5b634e487b7160e01b600052604160045260246000fdfea2646970667358221220bd10b48bee5694487117149cc78a5c88b821e13ccd172f4948907738a19c7b3064736f6c63430008070033",
          "opcodes": "PUSH1 0x80 PUSH1 0x40 MSTORE CALLVALUE DUP1 ISZERO PUSH2 0x10 JUMPI PUSH1 0x0 DUP1 REVERT JUMPDEST POP PUSH1 0xA DUP1 SLOAD PUSH1 0xFF NOT AND PUSH1 0x1 OR SWAP1 SSTORE PUSH2 0xE77 DUP1 PUSH2 0x2D PUSH1 0x0 CODECOPY PUSH1 0x0 RETURN INVALID PUSH1 0x80 PUSH1 0x40 MSTORE PUSH1 0x4 CALLDATASIZE LT PUSH2 0xB9 JUMPI PUSH1 0x0 CALLDATALOAD PUSH1 0xE0 SHR DUP1 PUSH4 0x482FF76 EQ PUSH2 0xC2 JUMPI DUP1 PUSH4 0x24763493 EQ PUSH2 0xCA JUMPI DUP1 PUSH4 0x2804B2C0 EQ PUSH2 0xF5 JUMPI DUP1 PUSH4 0x34133DF9 EQ PUSH2 0x12D JUMPI DUP1 PUSH4 0x5E650318 EQ PUSH2 0x151 JUMPI DUP1 PUSH4 0x7C2EFCBA EQ PUSH2 0x167 JUMPI DUP1 PUSH4 0x7F80069A EQ PUSH2 0x17D JUMPI DUP1 PUSH4 0x88BF1930 EQ PUSH2 0x1A7 JUMPI DUP1 PUSH4 0x9C21A9B8 EQ PUSH2 0x1BD JUMPI DUP1 PUSH4 0xA6AB36F2 EQ PUSH2 0x1D3 JUMPI DUP1 PUSH4 0xB582EC5F EQ PUSH2 0x1E6 JUMPI DUP1 PUSH4 0xC3DA42B8 EQ PUSH2 0x1FC JUMPI DUP1 PUSH4 0xD8BEFBB6 EQ PUSH2 0x212 JUMPI DUP1 PUSH4 0xE8DE68CC EQ PUSH2 0x232 JUMPI DUP1 PUSH4 0xF493E870 EQ PUSH2 0x252 JUMPI STOP JUMPDEST CALLDATASIZE PUSH2 0xC0 JUMPI STOP JUMPDEST STOP JUMPDEST PUSH2 0xC0 PUSH2 0x268 JUMP JUMPDEST CALLVALUE DUP1 ISZERO PUSH2 0xD6 JUMPI PUSH1 0x0 DUP1 REVERT JUMPDEST POP PUSH2 0xDF PUSH2 0x2CC JUMP JUMPDEST PUSH1 0x40 MLOAD PUSH2 0xEC SWAP2 SWAP1 PUSH2 0xC36 JUMP JUMPDEST PUSH1 0x40 MLOAD DUP1 SWAP2 SUB SWAP1 RETURN JUMPDEST CALLVALUE DUP1 ISZERO PUSH2 0x101 JUMPI PUSH1 0x0 DUP1 REVERT JUMPDEST POP PUSH1 0x1 SLOAD PUSH2 0x115 SWAP1 PUSH1 0x1 PUSH1 0x1 PUSH1 0xA0 SHL SUB AND DUP2 JUMP JUMPDEST PUSH1 0x40 MLOAD PUSH1 0x1 PUSH1 0x1 PUSH1 0xA0 SHL SUB SWAP1 SWAP2 AND DUP2 MSTORE PUSH1 0x20 ADD PUSH2 0xEC JUMP JUMPDEST CALLVALUE DUP1 ISZERO PUSH2 0x139 JUMPI PUSH1 0x0 DUP1 REVERT JUMPDEST POP PUSH2 0x143 PUSH1 0x9 SLOAD DUP2 JUMP JUMPDEST PUSH1 0x40 MLOAD SWAP1 DUP2 MSTORE PUSH1 0x20 ADD PUSH2 0xEC JUMP JUMPDEST CALLVALUE DUP1 ISZERO PUSH2 0x15D JUMPI PUSH1 0x0 DUP1 REVERT JUMPDEST POP PUSH2 0x143 PUSH1 0x3 SLOAD DUP2 JUMP JUMPDEST CALLVALUE DUP1 ISZERO PUSH2 0x173 JUMPI PUSH1 0x0 DUP1 REVERT JUMPDEST POP PUSH2 0x143 PUSH1 0x6 SLOAD DUP2 JUMP JUMPDEST CALLVALUE DUP1 ISZERO PUSH2 0x189 JUMPI PUSH1 0x0 DUP1 REVERT JUMPDEST POP PUSH1 0xA SLOAD PUSH2 0x197 SWAP1 PUSH1 0xFF AND DUP2 JUMP JUMPDEST PUSH1 0x40 MLOAD SWAP1 ISZERO ISZERO DUP2 MSTORE PUSH1 0x20 ADD PUSH2 0xEC JUMP JUMPDEST CALLVALUE DUP1 ISZERO PUSH2 0x1B3 JUMPI PUSH1 0x0 DUP1 REVERT JUMPDEST POP PUSH2 0x143 PUSH1 0x2 SLOAD DUP2 JUMP JUMPDEST CALLVALUE DUP1 ISZERO PUSH2 0x1C9 JUMPI PUSH1 0x0 DUP1 REVERT JUMPDEST POP PUSH2 0x143 PUSH1 0x8 SLOAD DUP2 JUMP JUMPDEST PUSH2 0xC0 PUSH2 0x1E1 CALLDATASIZE PUSH1 0x4 PUSH2 0xBE5 JUMP JUMPDEST PUSH2 0x35A JUMP JUMPDEST CALLVALUE DUP1 ISZERO PUSH2 0x1F2 JUMPI PUSH1 0x0 DUP1 REVERT JUMPDEST POP PUSH2 0x143 PUSH1 0x0 SLOAD DUP2 JUMP JUMPDEST CALLVALUE DUP1 ISZERO PUSH2 0x208 JUMPI PUSH1 0x0 DUP1 REVERT JUMPDEST POP PUSH2 0x143 PUSH1 0x5 SLOAD DUP2 JUMP JUMPDEST CALLVALUE DUP1 ISZERO PUSH2 0x21E JUMPI PUSH1 0x0 DUP1 REVERT JUMPDEST POP PUSH2 0xC0 PUSH2 0x22D CALLDATASIZE PUSH1 0x4 PUSH2 0xB68 JUMP JUMPDEST PUSH2 0x3E2 JUMP JUMPDEST CALLVALUE DUP1 ISZERO PUSH2 0x23E JUMPI PUSH1 0x0 DUP1 REVERT JUMPDEST POP PUSH2 0xC0 PUSH2 0x24D CALLDATASIZE PUSH1 0x4 PUSH2 0xAD7 JUMP JUMPDEST PUSH2 0x874 JUMP JUMPDEST CALLVALUE DUP1 ISZERO PUSH2 0x25E JUMPI PUSH1 0x0 DUP1 REVERT JUMPDEST POP PUSH2 0x143 PUSH1 0x7 SLOAD DUP2 JUMP JUMPDEST PUSH1 0x1 SLOAD PUSH1 0x1 PUSH1 0x1 PUSH1 0xA0 SHL SUB AND CALLER EQ PUSH2 0x29B JUMPI PUSH1 0x40 MLOAD PUSH3 0x461BCD PUSH1 0xE5 SHL DUP2 MSTORE PUSH1 0x4 ADD PUSH2 0x292 SWAP1 PUSH2 0xC8D JUMP JUMPDEST PUSH1 0x40 MLOAD DUP1 SWAP2 SUB SWAP1 REVERT JUMPDEST TIMESTAMP PUSH1 0x8 SLOAD PUSH1 0x7 SLOAD PUSH2 0x2AC SWAP2 SWAP1 PUSH2 0xCE6 JUMP JUMPDEST LT PUSH2 0x2C9 JUMPI PUSH1 0x40 MLOAD PUSH3 0x461BCD PUSH1 0xE5 SHL DUP2 MSTORE PUSH1 0x4 ADD PUSH2 0x292 SWAP1 PUSH2 0xC69 JUMP JUMPDEST CALLER SELFDESTRUCT JUMPDEST PUSH1 0x4 DUP1 SLOAD PUSH2 0x2D9 SWAP1 PUSH2 0xDB6 JUMP JUMPDEST DUP1 PUSH1 0x1F ADD PUSH1 0x20 DUP1 SWAP2 DIV MUL PUSH1 0x20 ADD PUSH1 0x40 MLOAD SWAP1 DUP2 ADD PUSH1 0x40 MSTORE DUP1 SWAP3 SWAP2 SWAP1 DUP2 DUP2 MSTORE PUSH1 0x20 ADD DUP3 DUP1 SLOAD PUSH2 0x305 SWAP1 PUSH2 0xDB6 JUMP JUMPDEST DUP1 ISZERO PUSH2 0x352 JUMPI DUP1 PUSH1 0x1F LT PUSH2 0x327 JUMPI PUSH2 0x100 DUP1 DUP4 SLOAD DIV MUL DUP4 MSTORE SWAP2 PUSH1 0x20 ADD SWAP2 PUSH2 0x352 JUMP JUMPDEST DUP3 ADD SWAP2 SWAP1 PUSH1 0x0 MSTORE PUSH1 0x20 PUSH1 0x0 KECCAK256 SWAP1 JUMPDEST DUP2 SLOAD DUP2 MSTORE SWAP1 PUSH1 0x1 ADD SWAP1 PUSH1 0x20 ADD DUP1 DUP4 GT PUSH2 0x335 JUMPI DUP3 SWAP1 SUB PUSH1 0x1F AND DUP3 ADD SWAP2 JUMPDEST POP POP POP POP POP DUP2 JUMP JUMPDEST PUSH1 0xA SLOAD PUSH1 0xFF AND ISZERO PUSH2 0x36A JUMPI PUSH1 0x0 DUP1 REVERT JUMPDEST PUSH1 0x1 DUP1 SLOAD PUSH1 0x1 PUSH1 0x1 PUSH1 0xA0 SHL SUB NOT AND PUSH1 0x1 PUSH1 0x1 PUSH1 0xA0 SHL SUB DUP4 AND OR SWAP1 SSTORE PUSH1 0x5 DUP4 SWAP1 SSTORE PUSH1 0x6 DUP3 SWAP1 SSTORE CALLVALUE ISZERO PUSH2 0x3DD JUMPI PUSH2 0x39F DUP3 DUP5 PUSH2 0xD12 JUMP JUMPDEST CALLVALUE EQ PUSH2 0x3DD JUMPI PUSH1 0x40 MLOAD PUSH3 0x461BCD PUSH1 0xE5 SHL DUP2 MSTORE PUSH1 0x20 PUSH1 0x4 DUP3 ADD MSTORE PUSH1 0xD PUSH1 0x24 DUP3 ADD MSTORE PUSH13 0x3130B630B731B29032B93937B9 PUSH1 0x99 SHL PUSH1 0x44 DUP3 ADD MSTORE PUSH1 0x64 ADD PUSH2 0x292 JUMP JUMPDEST POP POP POP JUMP JUMPDEST PUSH1 0x8 SLOAD PUSH1 0x7 SLOAD PUSH2 0x3F2 SWAP2 SWAP1 PUSH2 0xCE6 JUMP JUMPDEST TIMESTAMP LT PUSH2 0x410 JUMPI PUSH1 0x40 MLOAD PUSH3 0x461BCD PUSH1 0xE5 SHL DUP2 MSTORE PUSH1 0x4 ADD PUSH2 0x292 SWAP1 PUSH2 0xC69 JUMP JUMPDEST PUSH1 0x0 SLOAD DUP3 GT PUSH2 0x44A JUMPI PUSH1 0x40 MLOAD PUSH3 0x461BCD PUSH1 0xE5 SHL DUP2 MSTORE PUSH1 0x20 PUSH1 0x4 DUP3 ADD MSTORE PUSH1 0x6 PUSH1 0x24 DUP3 ADD MSTORE PUSH6 0x35901E1E9035 PUSH1 0xD1 SHL PUSH1 0x44 DUP3 ADD MSTORE PUSH1 0x64 ADD PUSH2 0x292 JUMP JUMPDEST PUSH1 0x0 DUP1 PUSH2 0x456 DUP7 PUSH2 0xD48 JUMP JUMPDEST SWAP1 POP PUSH1 0x0 PUSH2 0x463 DUP7 PUSH2 0xD48 JUMP JUMPDEST SWAP1 POP PUSH1 0x0 DUP1 SLOAD DUP7 PUSH2 0x474 SWAP2 SWAP1 PUSH2 0xD31 JUMP JUMPDEST SWAP1 POP JUMPDEST DUP1 ISZERO PUSH2 0x571 JUMPI PUSH1 0x2 DUP4 PUSH1 0x40 MLOAD PUSH1 0x20 ADD PUSH2 0x492 SWAP2 DUP2 MSTORE PUSH1 0x20 ADD SWAP1 JUMP JUMPDEST PUSH1 0x40 DUP1 MLOAD PUSH1 0x1F NOT DUP2 DUP5 SUB ADD DUP2 MSTORE SWAP1 DUP3 SWAP1 MSTORE PUSH2 0x4AC SWAP2 PUSH2 0xC1A JUMP JUMPDEST PUSH1 0x20 PUSH1 0x40 MLOAD DUP1 DUP4 SUB DUP2 DUP6 GAS STATICCALL ISZERO DUP1 ISZERO PUSH2 0x4C9 JUMPI RETURNDATASIZE PUSH1 0x0 DUP1 RETURNDATACOPY RETURNDATASIZE PUSH1 0x0 REVERT JUMPDEST POP POP POP PUSH1 0x40 MLOAD RETURNDATASIZE PUSH1 0x1F NOT PUSH1 0x1F DUP3 ADD AND DUP3 ADD DUP1 PUSH1 0x40 MSTORE POP DUP2 ADD SWAP1 PUSH2 0x4EC SWAP2 SWAP1 PUSH2 0xABE JUMP JUMPDEST SWAP3 POP PUSH1 0x2 DUP3 PUSH1 0x40 MLOAD PUSH1 0x20 ADD PUSH2 0x503 SWAP2 DUP2 MSTORE PUSH1 0x20 ADD SWAP1 JUMP JUMPDEST PUSH1 0x40 DUP1 MLOAD PUSH1 0x1F NOT DUP2 DUP5 SUB ADD DUP2 MSTORE SWAP1 DUP3 SWAP1 MSTORE PUSH2 0x51D SWAP2 PUSH2 0xC1A JUMP JUMPDEST PUSH1 0x20 PUSH1 0x40 MLOAD DUP1 DUP4 SUB DUP2 DUP6 GAS STATICCALL ISZERO DUP1 ISZERO PUSH2 0x53A JUMPI RETURNDATASIZE PUSH1 0x0 DUP1 RETURNDATACOPY RETURNDATASIZE PUSH1 0x0 REVERT JUMPDEST POP POP POP PUSH1 0x40 MLOAD RETURNDATASIZE PUSH1 0x1F NOT PUSH1 0x1F DUP3 ADD AND DUP3 ADD DUP1 PUSH1 0x40 MSTORE POP DUP2 ADD SWAP1 PUSH2 0x55D SWAP2 SWAP1 PUSH2 0xABE JUMP JUMPDEST SWAP2 POP DUP1 PUSH2 0x569 DUP2 PUSH2 0xD9F JUMP JUMPDEST SWAP2 POP POP PUSH2 0x477 JUMP JUMPDEST DUP3 PUSH1 0x2 SLOAD EQ PUSH2 0x5B6 JUMPI PUSH1 0x40 MLOAD PUSH3 0x461BCD PUSH1 0xE5 SHL DUP2 MSTORE PUSH1 0x20 PUSH1 0x4 DUP3 ADD MSTORE PUSH1 0x11 PUSH1 0x24 DUP3 ADD MSTORE PUSH17 0x15D7DADB481A5CC81A5B98DBDC9C9958DD PUSH1 0x7A SHL PUSH1 0x44 DUP3 ADD MSTORE PUSH1 0x64 ADD PUSH2 0x292 JUMP JUMPDEST DUP2 PUSH1 0x3 SLOAD EQ PUSH2 0x5FB JUMPI PUSH1 0x40 MLOAD PUSH3 0x461BCD PUSH1 0xE5 SHL DUP2 MSTORE PUSH1 0x20 PUSH1 0x4 DUP3 ADD MSTORE PUSH1 0x11 PUSH1 0x24 DUP3 ADD MSTORE PUSH17 0x15D7DAD8C81A5CC81A5B98DBDC9C9958DD PUSH1 0x7A SHL PUSH1 0x44 DUP3 ADD MSTORE PUSH1 0x64 ADD PUSH2 0x292 JUMP JUMPDEST PUSH2 0x606 PUSH1 0x2 DUP8 PUSH2 0xDEB JUMP JUMPDEST PUSH2 0x648 JUMPI PUSH1 0x2 PUSH1 0x0 SLOAD DUP8 PUSH2 0x61A SWAP2 SWAP1 PUSH2 0xD31 JUMP JUMPDEST PUSH2 0x624 SWAP2 SWAP1 PUSH2 0xCFE JUMP JUMPDEST PUSH1 0x0 DUP8 SWAP1 SSTORE SWAP4 POP PUSH2 0x634 DUP9 PUSH2 0xD48 JUMP JUMPDEST PUSH1 0x2 SSTORE PUSH2 0x640 DUP8 PUSH2 0xD48 JUMP JUMPDEST PUSH1 0x3 SSTORE PUSH2 0x7BD JUMP JUMPDEST PUSH1 0x2 PUSH1 0x1 PUSH1 0x0 SLOAD DUP9 PUSH2 0x65A SWAP2 SWAP1 PUSH2 0xD31 JUMP JUMPDEST PUSH2 0x664 SWAP2 SWAP1 PUSH2 0xD31 JUMP JUMPDEST PUSH2 0x66E SWAP2 SWAP1 PUSH2 0xCFE JUMP JUMPDEST SWAP4 POP PUSH2 0x67B PUSH1 0x1 DUP8 PUSH2 0xD31 JUMP JUMPDEST PUSH1 0x0 SWAP1 DUP2 SSTORE PUSH2 0x689 DUP10 PUSH2 0xD48 JUMP JUMPDEST SWAP1 POP PUSH1 0x0 PUSH2 0x696 DUP10 PUSH2 0xD48 JUMP JUMPDEST SWAP1 POP PUSH1 0x0 DUP1 SLOAD DUP10 PUSH2 0x6A7 SWAP2 SWAP1 PUSH2 0xD31 JUMP JUMPDEST SWAP1 POP JUMPDEST DUP1 ISZERO PUSH2 0x7A4 JUMPI PUSH1 0x2 DUP4 PUSH1 0x40 MLOAD PUSH1 0x20 ADD PUSH2 0x6C5 SWAP2 DUP2 MSTORE PUSH1 0x20 ADD SWAP1 JUMP JUMPDEST PUSH1 0x40 DUP1 MLOAD PUSH1 0x1F NOT DUP2 DUP5 SUB ADD DUP2 MSTORE SWAP1 DUP3 SWAP1 MSTORE PUSH2 0x6DF SWAP2 PUSH2 0xC1A JUMP JUMPDEST PUSH1 0x20 PUSH1 0x40 MLOAD DUP1 DUP4 SUB DUP2 DUP6 GAS STATICCALL ISZERO DUP1 ISZERO PUSH2 0x6FC JUMPI RETURNDATASIZE PUSH1 0x0 DUP1 RETURNDATACOPY RETURNDATASIZE PUSH1 0x0 REVERT JUMPDEST POP POP POP PUSH1 0x40 MLOAD RETURNDATASIZE PUSH1 0x1F NOT PUSH1 0x1F DUP3 ADD AND DUP3 ADD DUP1 PUSH1 0x40 MSTORE POP DUP2 ADD SWAP1 PUSH2 0x71F SWAP2 SWAP1 PUSH2 0xABE JUMP JUMPDEST SWAP3 POP PUSH1 0x2 DUP3 PUSH1 0x40 MLOAD PUSH1 0x20 ADD PUSH2 0x736 SWAP2 DUP2 MSTORE PUSH1 0x20 ADD SWAP1 JUMP JUMPDEST PUSH1 0x40 DUP1 MLOAD PUSH1 0x1F NOT DUP2 DUP5 SUB ADD DUP2 MSTORE SWAP1 DUP3 SWAP1 MSTORE PUSH2 0x750 SWAP2 PUSH2 0xC1A JUMP JUMPDEST PUSH1 0x20 PUSH1 0x40 MLOAD DUP1 DUP4 SUB DUP2 DUP6 GAS STATICCALL ISZERO DUP1 ISZERO PUSH2 0x76D JUMPI RETURNDATASIZE PUSH1 0x0 DUP1 RETURNDATACOPY RETURNDATASIZE PUSH1 0x0 REVERT JUMPDEST POP POP POP PUSH1 0x40 MLOAD RETURNDATASIZE PUSH1 0x1F NOT PUSH1 0x1F DUP3 ADD AND DUP3 ADD DUP1 PUSH1 0x40 MSTORE POP DUP2 ADD SWAP1 PUSH2 0x790 SWAP2 SWAP1 PUSH2 0xABE JUMP JUMPDEST SWAP2 POP DUP1 PUSH2 0x79C DUP2 PUSH2 0xD9F JUMP JUMPDEST SWAP2 POP POP PUSH2 0x6AA JUMP JUMPDEST PUSH2 0x7AF PUSH1 0x1 DUP11 PUSH2 0xD31 JUMP JUMPDEST PUSH1 0x0 SSTORE POP PUSH1 0x2 SWAP2 SWAP1 SWAP2 SSTORE PUSH1 0x3 SSTORE JUMPDEST PUSH1 0x1 PUSH1 0x1 PUSH1 0xA0 SHL SUB DUP6 AND ISZERO PUSH2 0x82D JUMPI DUP5 PUSH1 0x1 PUSH1 0x1 PUSH1 0xA0 SHL SUB AND PUSH1 0x6 SLOAD DUP6 PUSH2 0x7E4 SWAP2 SWAP1 PUSH2 0xD12 JUMP JUMPDEST PUSH1 0x40 MLOAD PUSH1 0x0 DUP2 DUP2 DUP2 DUP6 DUP8 GAS CALL SWAP3 POP POP POP RETURNDATASIZE DUP1 PUSH1 0x0 DUP2 EQ PUSH2 0x820 JUMPI PUSH1 0x40 MLOAD SWAP2 POP PUSH1 0x1F NOT PUSH1 0x3F RETURNDATASIZE ADD AND DUP3 ADD PUSH1 0x40 MSTORE RETURNDATASIZE DUP3 MSTORE RETURNDATASIZE PUSH1 0x0 PUSH1 0x20 DUP5 ADD RETURNDATACOPY PUSH2 0x825 JUMP JUMPDEST PUSH1 0x60 SWAP2 POP JUMPDEST POP POP POP PUSH2 0x86A JUMP JUMPDEST PUSH1 0x6 SLOAD CALLER SWAP1 PUSH2 0x8FC SWAP1 PUSH2 0x840 SWAP1 DUP8 PUSH2 0xD12 JUMP JUMPDEST PUSH1 0x40 MLOAD DUP2 ISZERO SWAP1 SWAP3 MUL SWAP2 PUSH1 0x0 DUP2 DUP2 DUP2 DUP6 DUP9 DUP9 CALL SWAP4 POP POP POP POP ISZERO DUP1 ISZERO PUSH2 0x868 JUMPI RETURNDATASIZE PUSH1 0x0 DUP1 RETURNDATACOPY RETURNDATASIZE PUSH1 0x0 REVERT JUMPDEST POP JUMPDEST POP POP POP POP POP POP POP POP JUMP JUMPDEST PUSH1 0x1 SLOAD PUSH1 0x1 PUSH1 0x1 PUSH1 0xA0 SHL SUB AND CALLER EQ PUSH2 0x89E JUMPI PUSH1 0x40 MLOAD PUSH3 0x461BCD PUSH1 0xE5 SHL DUP2 MSTORE PUSH1 0x4 ADD PUSH2 0x292 SWAP1 PUSH2 0xC8D JUMP JUMPDEST PUSH2 0x8A8 DUP5 DUP7 PUSH2 0xD12 JUMP JUMPDEST SELFBALANCE EQ PUSH2 0x8B3 JUMPI PUSH1 0x0 DUP1 REVERT JUMPDEST PUSH1 0x7 SLOAD ISZERO DUP1 ISZERO PUSH2 0x8C3 JUMPI POP PUSH1 0x8 SLOAD ISZERO JUMPDEST DUP1 ISZERO PUSH2 0x8CF JUMPI POP PUSH1 0x9 SLOAD ISZERO JUMPDEST DUP1 ISZERO PUSH2 0x8E9 JUMPI POP TIMESTAMP PUSH1 0x8 SLOAD PUSH1 0x7 SLOAD PUSH2 0x8E7 SWAP2 SWAP1 PUSH2 0xCE6 JUMP JUMPDEST LT JUMPDEST DUP1 PUSH2 0x928 JUMPI POP TIMESTAMP PUSH1 0x8 SLOAD PUSH1 0x7 SLOAD PUSH2 0x900 SWAP2 SWAP1 PUSH2 0xCE6 JUMP JUMPDEST LT DUP1 ISZERO PUSH2 0x928 JUMPI POP PUSH1 0x9 SLOAD PUSH1 0x8 SLOAD PUSH1 0x7 SLOAD PUSH2 0x91B SWAP2 SWAP1 PUSH2 0xCE6 JUMP JUMPDEST PUSH2 0x925 SWAP2 SWAP1 PUSH2 0xCE6 JUMP JUMPDEST TIMESTAMP LT JUMPDEST PUSH2 0x931 JUMPI PUSH1 0x0 DUP1 REVERT JUMPDEST PUSH1 0x0 DUP1 SSTORE PUSH1 0x2 DUP9 SWAP1 SSTORE PUSH1 0x3 DUP8 SWAP1 SSTORE DUP6 MLOAD PUSH2 0x952 SWAP1 PUSH1 0x4 SWAP1 PUSH1 0x20 DUP10 ADD SWAP1 PUSH2 0x96D JUMP JUMPDEST POP PUSH1 0x5 SWAP5 SWAP1 SWAP5 SSTORE PUSH1 0x6 SWAP3 SWAP1 SWAP3 SSTORE PUSH1 0x7 SSTORE PUSH1 0x8 SSTORE PUSH1 0x9 SSTORE POP POP POP JUMP JUMPDEST DUP3 DUP1 SLOAD PUSH2 0x979 SWAP1 PUSH2 0xDB6 JUMP JUMPDEST SWAP1 PUSH1 0x0 MSTORE PUSH1 0x20 PUSH1 0x0 KECCAK256 SWAP1 PUSH1 0x1F ADD PUSH1 0x20 SWAP1 DIV DUP2 ADD SWAP3 DUP3 PUSH2 0x99B JUMPI PUSH1 0x0 DUP6 SSTORE PUSH2 0x9E1 JUMP JUMPDEST DUP3 PUSH1 0x1F LT PUSH2 0x9B4 JUMPI DUP1 MLOAD PUSH1 0xFF NOT AND DUP4 DUP1 ADD OR DUP6 SSTORE PUSH2 0x9E1 JUMP JUMPDEST DUP3 DUP1 ADD PUSH1 0x1 ADD DUP6 SSTORE DUP3 ISZERO PUSH2 0x9E1 JUMPI SWAP2 DUP3 ADD JUMPDEST DUP3 DUP2 GT ISZERO PUSH2 0x9E1 JUMPI DUP3 MLOAD DUP3 SSTORE SWAP2 PUSH1 0x20 ADD SWAP2 SWAP1 PUSH1 0x1 ADD SWAP1 PUSH2 0x9C6 JUMP JUMPDEST POP PUSH2 0x9ED SWAP3 SWAP2 POP PUSH2 0x9F1 JUMP JUMPDEST POP SWAP1 JUMP JUMPDEST JUMPDEST DUP1 DUP3 GT ISZERO PUSH2 0x9ED JUMPI PUSH1 0x0 DUP2 SSTORE PUSH1 0x1 ADD PUSH2 0x9F2 JUMP JUMPDEST PUSH1 0x0 PUSH1 0x1 PUSH1 0x1 PUSH1 0x40 SHL SUB DUP1 DUP5 GT ISZERO PUSH2 0xA20 JUMPI PUSH2 0xA20 PUSH2 0xE2B JUMP JUMPDEST PUSH1 0x40 MLOAD PUSH1 0x1F DUP6 ADD PUSH1 0x1F NOT SWAP1 DUP2 AND PUSH1 0x3F ADD AND DUP2 ADD SWAP1 DUP3 DUP3 GT DUP2 DUP4 LT OR ISZERO PUSH2 0xA48 JUMPI PUSH2 0xA48 PUSH2 0xE2B JUMP JUMPDEST DUP2 PUSH1 0x40 MSTORE DUP1 SWAP4 POP DUP6 DUP2 MSTORE DUP7 DUP7 DUP7 ADD GT ISZERO PUSH2 0xA61 JUMPI PUSH1 0x0 DUP1 REVERT JUMPDEST DUP6 DUP6 PUSH1 0x20 DUP4 ADD CALLDATACOPY PUSH1 0x0 PUSH1 0x20 DUP8 DUP4 ADD ADD MSTORE POP POP POP SWAP4 SWAP3 POP POP POP JUMP JUMPDEST DUP1 CALLDATALOAD PUSH1 0x1 PUSH1 0x1 PUSH1 0xA0 SHL SUB DUP2 AND DUP2 EQ PUSH2 0xA92 JUMPI PUSH1 0x0 DUP1 REVERT JUMPDEST SWAP2 SWAP1 POP JUMP JUMPDEST PUSH1 0x0 DUP3 PUSH1 0x1F DUP4 ADD SLT PUSH2 0xAA8 JUMPI PUSH1 0x0 DUP1 REVERT JUMPDEST PUSH2 0xAB7 DUP4 DUP4 CALLDATALOAD PUSH1 0x20 DUP6 ADD PUSH2 0xA06 JUMP JUMPDEST SWAP4 SWAP3 POP POP POP JUMP JUMPDEST PUSH1 0x0 PUSH1 0x20 DUP3 DUP5 SUB SLT ISZERO PUSH2 0xAD0 JUMPI PUSH1 0x0 DUP1 REVERT JUMPDEST POP MLOAD SWAP2 SWAP1 POP JUMP JUMPDEST PUSH1 0x0 DUP1 PUSH1 0x0 DUP1 PUSH1 0x0 DUP1 PUSH1 0x0 DUP1 PUSH2 0x100 DUP10 DUP12 SUB SLT ISZERO PUSH2 0xAF4 JUMPI PUSH1 0x0 DUP1 REVERT JUMPDEST DUP9 CALLDATALOAD SWAP8 POP PUSH1 0x20 DUP10 ADD CALLDATALOAD SWAP7 POP PUSH1 0x40 DUP10 ADD CALLDATALOAD PUSH1 0x1 PUSH1 0x1 PUSH1 0x40 SHL SUB DUP2 GT ISZERO PUSH2 0xB18 JUMPI PUSH1 0x0 DUP1 REVERT JUMPDEST DUP10 ADD PUSH1 0x1F DUP2 ADD DUP12 SGT PUSH2 0xB29 JUMPI PUSH1 0x0 DUP1 REVERT JUMPDEST PUSH2 0xB38 DUP12 DUP3 CALLDATALOAD PUSH1 0x20 DUP5 ADD PUSH2 0xA06 JUMP JUMPDEST SWAP9 SWAP12 SWAP8 SWAP11 POP SWAP8 SWAP9 PUSH1 0x60 DUP2 ADD CALLDATALOAD SWAP9 POP PUSH1 0x80 DUP2 ADD CALLDATALOAD SWAP8 PUSH1 0xA0 DUP3 ADD CALLDATALOAD SWAP8 POP PUSH1 0xC0 DUP3 ADD CALLDATALOAD SWAP7 POP PUSH1 0xE0 SWAP1 SWAP2 ADD CALLDATALOAD SWAP5 POP SWAP3 POP POP POP JUMP JUMPDEST PUSH1 0x0 DUP1 PUSH1 0x0 DUP1 PUSH1 0x80 DUP6 DUP8 SUB SLT ISZERO PUSH2 0xB7E JUMPI PUSH1 0x0 DUP1 REVERT JUMPDEST DUP5 CALLDATALOAD PUSH1 0x1 PUSH1 0x1 PUSH1 0x40 SHL SUB DUP1 DUP3 GT ISZERO PUSH2 0xB95 JUMPI PUSH1 0x0 DUP1 REVERT JUMPDEST PUSH2 0xBA1 DUP9 DUP4 DUP10 ADD PUSH2 0xA97 JUMP JUMPDEST SWAP6 POP PUSH1 0x20 DUP8 ADD CALLDATALOAD SWAP2 POP DUP1 DUP3 GT ISZERO PUSH2 0xBB7 JUMPI PUSH1 0x0 DUP1 REVERT JUMPDEST POP PUSH2 0xBC4 DUP8 DUP3 DUP9 ADD PUSH2 0xA97 JUMP JUMPDEST SWAP4 POP POP PUSH1 0x40 DUP6 ADD CALLDATALOAD SWAP2 POP PUSH2 0xBDA PUSH1 0x60 DUP7 ADD PUSH2 0xA7B JUMP JUMPDEST SWAP1 POP SWAP3 SWAP6 SWAP2 SWAP5 POP SWAP3 POP JUMP JUMPDEST PUSH1 0x0 DUP1 PUSH1 0x0 PUSH1 0x60 DUP5 DUP7 SUB SLT ISZERO PUSH2 0xBFA JUMPI PUSH1 0x0 DUP1 REVERT JUMPDEST DUP4 CALLDATALOAD SWAP3 POP PUSH1 0x20 DUP5 ADD CALLDATALOAD SWAP2 POP PUSH2 0xC11 PUSH1 0x40 DUP6 ADD PUSH2 0xA7B JUMP JUMPDEST SWAP1 POP SWAP3 POP SWAP3 POP SWAP3 JUMP JUMPDEST PUSH1 0x0 DUP3 MLOAD PUSH2 0xC2C DUP2 DUP5 PUSH1 0x20 DUP8 ADD PUSH2 0xD6F JUMP JUMPDEST SWAP2 SWAP1 SWAP2 ADD SWAP3 SWAP2 POP POP JUMP JUMPDEST PUSH1 0x20 DUP2 MSTORE PUSH1 0x0 DUP3 MLOAD DUP1 PUSH1 0x20 DUP5 ADD MSTORE PUSH2 0xC55 DUP2 PUSH1 0x40 DUP6 ADD PUSH1 0x20 DUP8 ADD PUSH2 0xD6F JUMP JUMPDEST PUSH1 0x1F ADD PUSH1 0x1F NOT AND SWAP2 SWAP1 SWAP2 ADD PUSH1 0x40 ADD SWAP3 SWAP2 POP POP JUMP JUMPDEST PUSH1 0x20 DUP1 DUP3 MSTORE PUSH1 0xA SWAP1 DUP3 ADD MSTORE PUSH10 0x2A34B6B29032B93937B9 PUSH1 0xB1 SHL PUSH1 0x40 DUP3 ADD MSTORE PUSH1 0x60 ADD SWAP1 JUMP JUMPDEST PUSH1 0x20 DUP1 DUP3 MSTORE PUSH1 0x39 SWAP1 DUP3 ADD MSTORE PUSH32 0x4F6E6C7920637573746F6D6572206F66207468652064656C6976657279206361 PUSH1 0x40 DUP3 ADD MSTORE PUSH25 0x371039B2BA103A34329031B430B73732B6103830B930B6B997 PUSH1 0x39 SHL PUSH1 0x60 DUP3 ADD MSTORE PUSH1 0x80 ADD SWAP1 JUMP JUMPDEST PUSH1 0x0 DUP3 NOT DUP3 GT ISZERO PUSH2 0xCF9 JUMPI PUSH2 0xCF9 PUSH2 0xDFF JUMP JUMPDEST POP ADD SWAP1 JUMP JUMPDEST PUSH1 0x0 DUP3 PUSH2 0xD0D JUMPI PUSH2 0xD0D PUSH2 0xE15 JUMP JUMPDEST POP DIV SWAP1 JUMP JUMPDEST PUSH1 0x0 DUP2 PUSH1 0x0 NOT DIV DUP4 GT DUP3 ISZERO ISZERO AND ISZERO PUSH2 0xD2C JUMPI PUSH2 0xD2C PUSH2 0xDFF JUMP JUMPDEST POP MUL SWAP1 JUMP JUMPDEST PUSH1 0x0 DUP3 DUP3 LT ISZERO PUSH2 0xD43 JUMPI PUSH2 0xD43 PUSH2 0xDFF JUMP JUMPDEST POP SUB SWAP1 JUMP JUMPDEST DUP1 MLOAD PUSH1 0x20 DUP1 DUP4 ADD MLOAD SWAP2 SWAP1 DUP2 LT ISZERO PUSH2 0xD69 JUMPI PUSH1 0x0 NOT DUP2 PUSH1 0x20 SUB PUSH1 0x3 SHL SHL DUP3 AND SWAP2 POP JUMPDEST POP SWAP2 SWAP1 POP JUMP JUMPDEST PUSH1 0x0 JUMPDEST DUP4 DUP2 LT ISZERO PUSH2 0xD8A JUMPI DUP2 DUP2 ADD MLOAD DUP4 DUP3 ADD MSTORE PUSH1 0x20 ADD PUSH2 0xD72 JUMP JUMPDEST DUP4 DUP2 GT ISZERO PUSH2 0xD99 JUMPI PUSH1 0x0 DUP5 DUP5 ADD MSTORE JUMPDEST POP POP POP POP JUMP JUMPDEST PUSH1 0x0 DUP2 PUSH2 0xDAE JUMPI PUSH2 0xDAE PUSH2 0xDFF JUMP JUMPDEST POP PUSH1 0x0 NOT ADD SWAP1 JUMP JUMPDEST PUSH1 0x1 DUP2 DUP2 SHR SWAP1 DUP3 AND DUP1 PUSH2 0xDCA JUMPI PUSH1 0x7F DUP3 AND SWAP2 POP JUMPDEST PUSH1 0x20 DUP3 LT DUP2 EQ ISZERO PUSH2 0xD69 JUMPI PUSH4 0x4E487B71 PUSH1 0xE0 SHL PUSH1 0x0 MSTORE PUSH1 0x22 PUSH1 0x4 MSTORE PUSH1 0x24 PUSH1 0x0 REVERT JUMPDEST PUSH1 0x0 DUP3 PUSH2 0xDFA JUMPI PUSH2 0xDFA PUSH2 0xE15 JUMP JUMPDEST POP MOD SWAP1 JUMP JUMPDEST PUSH4 0x4E487B71 PUSH1 0xE0 SHL PUSH1 0x0 MSTORE PUSH1 0x11 PUSH1 0x4 MSTORE PUSH1 0x24 PUSH1 0x0 REVERT JUMPDEST PUSH4 0x4E487B71 PUSH1 0xE0 SHL PUSH1 0x0 MSTORE PUSH1 0x12 PUSH1 0x4 MSTORE PUSH1 0x24 PUSH1 0x0 REVERT JUMPDEST PUSH4 0x4E487B71 PUSH1 0xE0 SHL PUSH1 0x0 MSTORE PUSH1 0x41 PUSH1 0x4 MSTORE PUSH1 0x24 PUSH1 0x0 REVERT INVALID LOG2 PUSH5 0x6970667358 0x22 SLT KECCAK256 0xBD LT 0xB4 DUP12 0xEE JUMP SWAP5 BASEFEE PUSH18 0x17149CC78A5C88B821E13CCD172F49489077 CODESIZE LOG1 SWAP13 PUSH28 0x3064736F6C6343000807003300000000000000000000000000000000 "
        },
        "methodIdentifiers": {
          "S_id()": "24763493",
          "TD()": "9c21a9b8",
          "TR()": "34133df9",
          "T_exp()": "f493e870",
          "W_jc()": "5e650318",
          "W_jm()": "88bf1930",
          "c()": "c3da42b8",
          "channelClose()": "0482ff76",
          "customer()": "2804b2c0",
          "initialize(uint256,uint256,address)": "a6ab36f2",
          "isBase()": "7f80069a",
          "j()": "b582ec5f",
          "setChannelParams(bytes32,bytes32,string,uint256,uint256,uint256,uint256,uint256)": "e8de68cc",
          "transferDeposit(bytes,bytes,uint256,address)": "d8befbb6",
          "v()": "7c2efcba"
        }
      }
    }
  }
}