{
  "contracts/channel.sol": {
    "channel": {
      "abi": [
        {
          "inputs": [
            {
              "internalType": "uint256",
              "name": "_c",
              "type": "uint256"
            },
            {
              "internalType": "uint256",
              "name": "_v",
              "type": "uint256"
            },
            {
              "internalType": "address",
              "name": "_customer",
              "type": "address"
            }
          ],
          "stateMutability": "payable",
          "type": "constructor"
        },
        {
          "stateMutability": "payable",
          "type": "fallback"
        },
        {
          "inputs": [],
          "name": "S_id",
          "outputs": [
            {
              "internalType": "string",
              "name": "",
              "type": "string"
            }
          ],
          "stateMutability": "view",
          "type": "function"
        },
        {
          "inputs": [],
          "name": "TD",
          "outputs": [
            {
              "internalType": "uint256",
              "name": "",
              "type": "uint256"
            }
          ],
          "stateMutability": "view",
          "type": "function"
        },
        {
          "inputs": [],
          "name": "TR",
          "outputs": [
            {
              "internalType": "uint256",
              "name": "",
              "type": "uint256"
            }
          ],
          "stateMutability": "view",
          "type": "function"
        },
        {
          "inputs": [],
          "name": "T_exp",
          "outputs": [
            {
              "internalType": "uint256",
              "name": "",
              "type": "uint256"
            }
          ],
          "stateMutability": "view",
          "type": "function"
        },
        {
          "inputs": [],
          "name": "W_jc",
          "outputs": [
            {
              "internalType": "bytes32",
              "name": "",
              "type": "bytes32"
            }
          ],
          "stateMutability": "view",
          "type": "function"
        },
        {
          "inputs": [],
          "name": "W_jm",
          "outputs": [
            {
              "internalType": "bytes32",
              "name": "",
              "type": "bytes32"
            }
          ],
          "stateMutability": "view",
          "type": "function"
        },
        {
          "inputs": [],
          "name": "c",
          "outputs": [
            {
              "internalType": "uint256",
              "name": "",
              "type": "uint256"
            }
          ],
          "stateMutability": "view",
          "type": "function"
        },
        {
          "inputs": [],
          "name": "channelClose",
          "outputs": [],
          "stateMutability": "payable",
          "type": "function"
        },
        {
          "inputs": [],
          "name": "customer",
          "outputs": [
            {
              "internalType": "address",
              "name": "",
              "type": "address"
            }
          ],
          "stateMutability": "view",
          "type": "function"
        },
        {
          "inputs": [],
          "name": "j",
          "outputs": [
            {
              "internalType": "uint256",
              "name": "",
              "type": "uint256"
            }
          ],
          "stateMutability": "view",
          "type": "function"
        },
        {
          "inputs": [
            {
              "internalType": "bytes32",
              "name": "_W_jm",
              "type": "bytes32"
            },
            {
              "internalType": "bytes32",
              "name": "_W_jc",
              "type": "bytes32"
            },
            {
              "internalType": "string",
              "name": "_S_id",
              "type": "string"
            },
            {
              "internalType": "uint256",
              "name": "_c",
              "type": "uint256"
            },
            {
              "internalType": "uint256",
              "name": "_v",
              "type": "uint256"
            },
            {
              "internalType": "uint256",
              "name": "_T_exp",
              "type": "uint256"
            },
            {
              "internalType": "uint256",
              "name": "_TD",
              "type": "uint256"
            },
            {
              "internalType": "uint256",
              "name": "_TR",
              "type": "uint256"
            }
          ],
          "name": "setChannelParams",
          "outputs": [],
          "stateMutability": "nonpayable",
          "type": "function"
        },
        {
          "inputs": [
            {
              "internalType": "bytes",
              "name": "_W_km",
              "type": "bytes"
            },
            {
              "internalType": "bytes",
              "name": "_W_kc",
              "type": "bytes"
            },
            {
              "internalType": "uint256",
              "name": "k",
              "type": "uint256"
            },
            {
              "internalType": "address",
              "name": "newChannelAddress",
              "type": "address"
            }
          ],
          "name": "transferDeposit",
          "outputs": [],
          "stateMutability": "nonpayable",
          "type": "function"
        },
        {
          "inputs": [],
          "name": "v",
          "outputs": [
            {
              "internalType": "uint256",
              "name": "",
              "type": "uint256"
            }
          ],
          "stateMutability": "view",
          "type": "function"
        },
        {
          "stateMutability": "payable",
          "type": "receive"
        }
      ],
      "evm": {
        "bytecode": {
          "linkReferences": {},
          "object": "6080604052604051610e7c380380610e7c833981016040819052610022916100a1565b600180546001600160a01b0319166001600160a01b0383161790556005839055600682905534156100995761005782846100e7565b34146100995760405162461bcd60e51b815260206004820152600d60248201526c3130b630b731b29032b93937b960991b604482015260640160405180910390fd5b505050610114565b6000806000606084860312156100b657600080fd5b83516020850151604086015191945092506001600160a01b03811681146100dc57600080fd5b809150509250925092565b600081600019048311821515161561010f57634e487b7160e01b600052601160045260246000fd5b500290565b610d59806101236000396000f3fe6080604052600436106100a35760003560e01c80630482ff76146100ac57806324763493146100b45780632804b2c0146100df57806334133df9146101175780635e6503181461013b5780637c2efcba1461015157806388bf1930146101675780639c21a9b81461017d578063b582ec5f14610193578063c3da42b8146101a9578063d8befbb6146101bf578063e8de68cc146101df578063f493e870146101ff57005b366100aa57005b005b6100aa610215565b3480156100c057600080fd5b506100c9610279565b6040516100d69190610b18565b60405180910390f35b3480156100eb57600080fd5b506001546100ff906001600160a01b031681565b6040516001600160a01b0390911681526020016100d6565b34801561012357600080fd5b5061012d60095481565b6040519081526020016100d6565b34801561014757600080fd5b5061012d60035481565b34801561015d57600080fd5b5061012d60065481565b34801561017357600080fd5b5061012d60025481565b34801561018957600080fd5b5061012d60085481565b34801561019f57600080fd5b5061012d60005481565b3480156101b557600080fd5b5061012d60055481565b3480156101cb57600080fd5b506100aa6101da366004610a71565b610307565b3480156101eb57600080fd5b506100aa6101fa3660046109e0565b610799565b34801561020b57600080fd5b5061012d60075481565b6001546001600160a01b031633146102485760405162461bcd60e51b815260040161023f90610b6f565b60405180910390fd5b426008546007546102599190610bc8565b106102765760405162461bcd60e51b815260040161023f90610b4b565b33ff5b6004805461028690610c98565b80601f01602080910402602001604051908101604052809291908181526020018280546102b290610c98565b80156102ff5780601f106102d4576101008083540402835291602001916102ff565b820191906000526020600020905b8154815290600101906020018083116102e257829003601f168201915b505050505081565b6008546007546103179190610bc8565b42106103355760405162461bcd60e51b815260040161023f90610b4b565b600054821161036f5760405162461bcd60e51b815260206004820152600660248201526535901e1e903560d11b604482015260640161023f565b60008061037b86610c2a565b9050600061038886610c2a565b905060008054866103999190610c13565b90505b8015610496576002836040516020016103b791815260200190565b60408051601f19818403018152908290526103d191610afc565b602060405180830381855afa1580156103ee573d6000803e3d6000fd5b5050506040513d601f19601f8201168201806040525081019061041191906109c7565b925060028260405160200161042891815260200190565b60408051601f198184030181529082905261044291610afc565b602060405180830381855afa15801561045f573d6000803e3d6000fd5b5050506040513d601f19601f8201168201806040525081019061048291906109c7565b91508061048e81610c81565b91505061039c565b82600254146104db5760405162461bcd60e51b815260206004820152601160248201527015d7dadb481a5cc81a5b98dbdc9c9958dd607a1b604482015260640161023f565b81600354146105205760405162461bcd60e51b815260206004820152601160248201527015d7dad8c81a5cc81a5b98dbdc9c9958dd607a1b604482015260640161023f565b61052b600287610ccd565b61056d5760026000548761053f9190610c13565b6105499190610be0565b6000879055935061055988610c2a565b60025561056587610c2a565b6003556106e2565b600260016000548861057f9190610c13565b6105899190610c13565b6105939190610be0565b93506105a0600187610c13565b60009081556105ae89610c2a565b905060006105bb89610c2a565b905060008054896105cc9190610c13565b90505b80156106c9576002836040516020016105ea91815260200190565b60408051601f198184030181529082905261060491610afc565b602060405180830381855afa158015610621573d6000803e3d6000fd5b5050506040513d601f19601f8201168201806040525081019061064491906109c7565b925060028260405160200161065b91815260200190565b60408051601f198184030181529082905261067591610afc565b602060405180830381855afa158015610692573d6000803e3d6000fd5b5050506040513d601f19601f820116820180604052508101906106b591906109c7565b9150806106c181610c81565b9150506105cf565b6106d460018a610c13565b600055506002919091556003555b6001600160a01b0385161561075257846001600160a01b0316600654856107099190610bf4565b604051600081818185875af1925050503d8060008114610745576040519150601f19603f3d011682016040523d82523d6000602084013e61074a565b606091505b50505061078f565b60065433906108fc906107659087610bf4565b6040518115909202916000818181858888f1935050505015801561078d573d6000803e3d6000fd5b505b5050505050505050565b6001546001600160a01b031633146107c35760405162461bcd60e51b815260040161023f90610b6f565b6107cd8486610bf4565b47146107d857600080fd5b6007541580156107e85750600854155b80156107f45750600954155b801561080e57504260085460075461080c9190610bc8565b105b8061084d5750426008546007546108259190610bc8565b10801561084d57506009546008546007546108409190610bc8565b61084a9190610bc8565b42105b61085657600080fd5b60008055600288905560038790558551610877906004906020890190610892565b50600594909455600692909255600755600855600955505050565b82805461089e90610c98565b90600052602060002090601f0160209004810192826108c05760008555610906565b82601f106108d957805160ff1916838001178555610906565b82800160010185558215610906579182015b828111156109065782518255916020019190600101906108eb565b50610912929150610916565b5090565b5b808211156109125760008155600101610917565b60006001600160401b038084111561094557610945610d0d565b604051601f8501601f19908116603f0116810190828211818310171561096d5761096d610d0d565b8160405280935085815286868601111561098657600080fd5b858560208301376000602087830101525050509392505050565b600082601f8301126109b157600080fd5b6109c08383356020850161092b565b9392505050565b6000602082840312156109d957600080fd5b5051919050565b600080600080600080600080610100898b0312156109fd57600080fd5b883597506020890135965060408901356001600160401b03811115610a2157600080fd5b8901601f81018b13610a3257600080fd5b610a418b82356020840161092b565b989b979a5097986060810135985060808101359760a0820135975060c0820135965060e090910135945092505050565b60008060008060808587031215610a8757600080fd5b84356001600160401b0380821115610a9e57600080fd5b610aaa888389016109a0565b95506020870135915080821115610ac057600080fd5b50610acd878288016109a0565b9350506040850135915060608501356001600160a01b0381168114610af157600080fd5b939692955090935050565b60008251610b0e818460208701610c51565b9190910192915050565b6020815260008251806020840152610b37816040850160208701610c51565b601f01601f19169190910160400192915050565b6020808252600a90820152692a34b6b29032b93937b960b11b604082015260600190565b60208082526039908201527f4f6e6c7920637573746f6d6572206f66207468652064656c6976657279206361604082015278371039b2ba103a34329031b430b73732b6103830b930b6b99760391b606082015260800190565b60008219821115610bdb57610bdb610ce1565b500190565b600082610bef57610bef610cf7565b500490565b6000816000190483118215151615610c0e57610c0e610ce1565b500290565b600082821015610c2557610c25610ce1565b500390565b80516020808301519190811015610c4b576000198160200360031b1b821691505b50919050565b60005b83811015610c6c578181015183820152602001610c54565b83811115610c7b576000848401525b50505050565b600081610c9057610c90610ce1565b506000190190565b600181811c90821680610cac57607f821691505b60208210811415610c4b57634e487b7160e01b600052602260045260246000fd5b600082610cdc57610cdc610cf7565b500690565b634e487b7160e01b600052601160045260246000fd5b634e487b7160e01b600052601260045260246000fd5b634e487b7160e01b600052604160045260246000fdfea2646970667358221220c498315e6ea16ddab05f29ecf23b43e0cf72c9845f4d25890bc0c5f1fae8eee364736f6c63430008070033",
          "opcodes": "PUSH1 0x80 PUSH1 0x40 MSTORE PUSH1 0x40 MLOAD PUSH2 0xE7C CODESIZE SUB DUP1 PUSH2 0xE7C DUP4 CODECOPY DUP2 ADD PUSH1 0x40 DUP2 SWAP1 MSTORE PUSH2 0x22 SWAP2 PUSH2 0xA1 JUMP JUMPDEST PUSH1 0x1 DUP1 SLOAD PUSH1 0x1 PUSH1 0x1 PUSH1 0xA0 SHL SUB NOT AND PUSH1 0x1 PUSH1 0x1 PUSH1 0xA0 SHL SUB DUP4 AND OR SWAP1 SSTORE PUSH1 0x5 DUP4 SWAP1 SSTORE PUSH1 0x6 DUP3 SWAP1 SSTORE CALLVALUE ISZERO PUSH2 0x99 JUMPI PUSH2 0x57 DUP3 DUP5 PUSH2 0xE7 JUMP JUMPDEST CALLVALUE EQ PUSH2 0x99 JUMPI PUSH1 0x40 MLOAD PUSH3 0x461BCD PUSH1 0xE5 SHL DUP2 MSTORE PUSH1 0x20 PUSH1 0x4 DUP3 ADD MSTORE PUSH1 0xD PUSH1 0x24 DUP3 ADD MSTORE PUSH13 0x3130B630B731B29032B93937B9 PUSH1 0x99 SHL PUSH1 0x44 DUP3 ADD MSTORE PUSH1 0x64 ADD PUSH1 0x40 MLOAD DUP1 SWAP2 SUB SWAP1 REVERT JUMPDEST POP POP POP PUSH2 0x114 JUMP JUMPDEST PUSH1 0x0 DUP1 PUSH1 0x0 PUSH1 0x60 DUP5 DUP7 SUB SLT ISZERO PUSH2 0xB6 JUMPI PUSH1 0x0 DUP1 REVERT JUMPDEST DUP4 MLOAD PUSH1 0x20 DUP6 ADD MLOAD PUSH1 0x40 DUP7 ADD MLOAD SWAP2 SWAP5 POP SWAP3 POP PUSH1 0x1 PUSH1 0x1 PUSH1 0xA0 SHL SUB DUP2 AND DUP2 EQ PUSH2 0xDC JUMPI PUSH1 0x0 DUP1 REVERT JUMPDEST DUP1 SWAP2 POP POP SWAP3 POP SWAP3 POP SWAP3 JUMP JUMPDEST PUSH1 0x0 DUP2 PUSH1 0x0 NOT DIV DUP4 GT DUP3 ISZERO ISZERO AND ISZERO PUSH2 0x10F JUMPI PUSH4 0x4E487B71 PUSH1 0xE0 SHL PUSH1 0x0 MSTORE PUSH1 0x11 PUSH1 0x4 MSTORE PUSH1 0x24 PUSH1 0x0 REVERT JUMPDEST POP MUL SWAP1 JUMP JUMPDEST PUSH2 0xD59 DUP1 PUSH2 0x123 PUSH1 0x0 CODECOPY PUSH1 0x0 RETURN INVALID PUSH1 0x80 PUSH1 0x40 MSTORE PUSH1 0x4 CALLDATASIZE LT PUSH2 0xA3 JUMPI PUSH1 0x0 CALLDATALOAD PUSH1 0xE0 SHR DUP1 PUSH4 0x482FF76 EQ PUSH2 0xAC JUMPI DUP1 PUSH4 0x24763493 EQ PUSH2 0xB4 JUMPI DUP1 PUSH4 0x2804B2C0 EQ PUSH2 0xDF JUMPI DUP1 PUSH4 0x34133DF9 EQ PUSH2 0x117 JUMPI DUP1 PUSH4 0x5E650318 EQ PUSH2 0x13B JUMPI DUP1 PUSH4 0x7C2EFCBA EQ PUSH2 0x151 JUMPI DUP1 PUSH4 0x88BF1930 EQ PUSH2 0x167 JUMPI DUP1 PUSH4 0x9C21A9B8 EQ PUSH2 0x17D JUMPI DUP1 PUSH4 0xB582EC5F EQ PUSH2 0x193 JUMPI DUP1 PUSH4 0xC3DA42B8 EQ PUSH2 0x1A9 JUMPI DUP1 PUSH4 0xD8BEFBB6 EQ PUSH2 0x1BF JUMPI DUP1 PUSH4 0xE8DE68CC EQ PUSH2 0x1DF JUMPI DUP1 PUSH4 0xF493E870 EQ PUSH2 0x1FF JUMPI STOP JUMPDEST CALLDATASIZE PUSH2 0xAA JUMPI STOP JUMPDEST STOP JUMPDEST PUSH2 0xAA PUSH2 0x215 JUMP JUMPDEST CALLVALUE DUP1 ISZERO PUSH2 0xC0 JUMPI PUSH1 0x0 DUP1 REVERT JUMPDEST POP PUSH2 0xC9 PUSH2 0x279 JUMP JUMPDEST PUSH1 0x40 MLOAD PUSH2 0xD6 SWAP2 SWAP1 PUSH2 0xB18 JUMP JUMPDEST PUSH1 0x40 MLOAD DUP1 SWAP2 SUB SWAP1 RETURN JUMPDEST CALLVALUE DUP1 ISZERO PUSH2 0xEB JUMPI PUSH1 0x0 DUP1 REVERT JUMPDEST POP PUSH1 0x1 SLOAD PUSH2 0xFF SWAP1 PUSH1 0x1 PUSH1 0x1 PUSH1 0xA0 SHL SUB AND DUP2 JUMP JUMPDEST PUSH1 0x40 MLOAD PUSH1 0x1 PUSH1 0x1 PUSH1 0xA0 SHL SUB SWAP1 SWAP2 AND DUP2 MSTORE PUSH1 0x20 ADD PUSH2 0xD6 JUMP JUMPDEST CALLVALUE DUP1 ISZERO PUSH2 0x123 JUMPI PUSH1 0x0 DUP1 REVERT JUMPDEST POP PUSH2 0x12D PUSH1 0x9 SLOAD DUP2 JUMP JUMPDEST PUSH1 0x40 MLOAD SWAP1 DUP2 MSTORE PUSH1 0x20 ADD PUSH2 0xD6 JUMP JUMPDEST CALLVALUE DUP1 ISZERO PUSH2 0x147 JUMPI PUSH1 0x0 DUP1 REVERT JUMPDEST POP PUSH2 0x12D PUSH1 0x3 SLOAD DUP2 JUMP JUMPDEST CALLVALUE DUP1 ISZERO PUSH2 0x15D JUMPI PUSH1 0x0 DUP1 REVERT JUMPDEST POP PUSH2 0x12D PUSH1 0x6 SLOAD DUP2 JUMP JUMPDEST CALLVALUE DUP1 ISZERO PUSH2 0x173 JUMPI PUSH1 0x0 DUP1 REVERT JUMPDEST POP PUSH2 0x12D PUSH1 0x2 SLOAD DUP2 JUMP JUMPDEST CALLVALUE DUP1 ISZERO PUSH2 0x189 JUMPI PUSH1 0x0 DUP1 REVERT JUMPDEST POP PUSH2 0x12D PUSH1 0x8 SLOAD DUP2 JUMP JUMPDEST CALLVALUE DUP1 ISZERO PUSH2 0x19F JUMPI PUSH1 0x0 DUP1 REVERT JUMPDEST POP PUSH2 0x12D PUSH1 0x0 SLOAD DUP2 JUMP JUMPDEST CALLVALUE DUP1 ISZERO PUSH2 0x1B5 JUMPI PUSH1 0x0 DUP1 REVERT JUMPDEST POP PUSH2 0x12D PUSH1 0x5 SLOAD DUP2 JUMP JUMPDEST CALLVALUE DUP1 ISZERO PUSH2 0x1CB JUMPI PUSH1 0x0 DUP1 REVERT JUMPDEST POP PUSH2 0xAA PUSH2 0x1DA CALLDATASIZE PUSH1 0x4 PUSH2 0xA71 JUMP JUMPDEST PUSH2 0x307 JUMP JUMPDEST CALLVALUE DUP1 ISZERO PUSH2 0x1EB JUMPI PUSH1 0x0 DUP1 REVERT JUMPDEST POP PUSH2 0xAA PUSH2 0x1FA CALLDATASIZE PUSH1 0x4 PUSH2 0x9E0 JUMP JUMPDEST PUSH2 0x799 JUMP JUMPDEST CALLVALUE DUP1 ISZERO PUSH2 0x20B JUMPI PUSH1 0x0 DUP1 REVERT JUMPDEST POP PUSH2 0x12D PUSH1 0x7 SLOAD DUP2 JUMP JUMPDEST PUSH1 0x1 SLOAD PUSH1 0x1 PUSH1 0x1 PUSH1 0xA0 SHL SUB AND CALLER EQ PUSH2 0x248 JUMPI PUSH1 0x40 MLOAD PUSH3 0x461BCD PUSH1 0xE5 SHL DUP2 MSTORE PUSH1 0x4 ADD PUSH2 0x23F SWAP1 PUSH2 0xB6F JUMP JUMPDEST PUSH1 0x40 MLOAD DUP1 SWAP2 SUB SWAP1 REVERT JUMPDEST TIMESTAMP PUSH1 0x8 SLOAD PUSH1 0x7 SLOAD PUSH2 0x259 SWAP2 SWAP1 PUSH2 0xBC8 JUMP JUMPDEST LT PUSH2 0x276 JUMPI PUSH1 0x40 MLOAD PUSH3 0x461BCD PUSH1 0xE5 SHL DUP2 MSTORE PUSH1 0x4 ADD PUSH2 0x23F SWAP1 PUSH2 0xB4B JUMP JUMPDEST CALLER SELFDESTRUCT JUMPDEST PUSH1 0x4 DUP1 SLOAD PUSH2 0x286 SWAP1 PUSH2 0xC98 JUMP JUMPDEST DUP1 PUSH1 0x1F ADD PUSH1 0x20 DUP1 SWAP2 DIV MUL PUSH1 0x20 ADD PUSH1 0x40 MLOAD SWAP1 DUP2 ADD PUSH1 0x40 MSTORE DUP1 SWAP3 SWAP2 SWAP1 DUP2 DUP2 MSTORE PUSH1 0x20 ADD DUP3 DUP1 SLOAD PUSH2 0x2B2 SWAP1 PUSH2 0xC98 JUMP JUMPDEST DUP1 ISZERO PUSH2 0x2FF JUMPI DUP1 PUSH1 0x1F LT PUSH2 0x2D4 JUMPI PUSH2 0x100 DUP1 DUP4 SLOAD DIV MUL DUP4 MSTORE SWAP2 PUSH1 0x20 ADD SWAP2 PUSH2 0x2FF JUMP JUMPDEST DUP3 ADD SWAP2 SWAP1 PUSH1 0x0 MSTORE PUSH1 0x20 PUSH1 0x0 KECCAK256 SWAP1 JUMPDEST DUP2 SLOAD DUP2 MSTORE SWAP1 PUSH1 0x1 ADD SWAP1 PUSH1 0x20 ADD DUP1 DUP4 GT PUSH2 0x2E2 JUMPI DUP3 SWAP1 SUB PUSH1 0x1F AND DUP3 ADD SWAP2 JUMPDEST POP POP POP POP POP DUP2 JUMP JUMPDEST PUSH1 0x8 SLOAD PUSH1 0x7 SLOAD PUSH2 0x317 SWAP2 SWAP1 PUSH2 0xBC8 JUMP JUMPDEST TIMESTAMP LT PUSH2 0x335 JUMPI PUSH1 0x40 MLOAD PUSH3 0x461BCD PUSH1 0xE5 SHL DUP2 MSTORE PUSH1 0x4 ADD PUSH2 0x23F SWAP1 PUSH2 0xB4B JUMP JUMPDEST PUSH1 0x0 SLOAD DUP3 GT PUSH2 0x36F JUMPI PUSH1 0x40 MLOAD PUSH3 0x461BCD PUSH1 0xE5 SHL DUP2 MSTORE PUSH1 0x20 PUSH1 0x4 DUP3 ADD MSTORE PUSH1 0x6 PUSH1 0x24 DUP3 ADD MSTORE PUSH6 0x35901E1E9035 PUSH1 0xD1 SHL PUSH1 0x44 DUP3 ADD MSTORE PUSH1 0x64 ADD PUSH2 0x23F JUMP JUMPDEST PUSH1 0x0 DUP1 PUSH2 0x37B DUP7 PUSH2 0xC2A JUMP JUMPDEST SWAP1 POP PUSH1 0x0 PUSH2 0x388 DUP7 PUSH2 0xC2A JUMP JUMPDEST SWAP1 POP PUSH1 0x0 DUP1 SLOAD DUP7 PUSH2 0x399 SWAP2 SWAP1 PUSH2 0xC13 JUMP JUMPDEST SWAP1 POP JUMPDEST DUP1 ISZERO PUSH2 0x496 JUMPI PUSH1 0x2 DUP4 PUSH1 0x40 MLOAD PUSH1 0x20 ADD PUSH2 0x3B7 SWAP2 DUP2 MSTORE PUSH1 0x20 ADD SWAP1 JUMP JUMPDEST PUSH1 0x40 DUP1 MLOAD PUSH1 0x1F NOT DUP2 DUP5 SUB ADD DUP2 MSTORE SWAP1 DUP3 SWAP1 MSTORE PUSH2 0x3D1 SWAP2 PUSH2 0xAFC JUMP JUMPDEST PUSH1 0x20 PUSH1 0x40 MLOAD DUP1 DUP4 SUB DUP2 DUP6 GAS STATICCALL ISZERO DUP1 ISZERO PUSH2 0x3EE JUMPI RETURNDATASIZE PUSH1 0x0 DUP1 RETURNDATACOPY RETURNDATASIZE PUSH1 0x0 REVERT JUMPDEST POP POP POP PUSH1 0x40 MLOAD RETURNDATASIZE PUSH1 0x1F NOT PUSH1 0x1F DUP3 ADD AND DUP3 ADD DUP1 PUSH1 0x40 MSTORE POP DUP2 ADD SWAP1 PUSH2 0x411 SWAP2 SWAP1 PUSH2 0x9C7 JUMP JUMPDEST SWAP3 POP PUSH1 0x2 DUP3 PUSH1 0x40 MLOAD PUSH1 0x20 ADD PUSH2 0x428 SWAP2 DUP2 MSTORE PUSH1 0x20 ADD SWAP1 JUMP JUMPDEST PUSH1 0x40 DUP1 MLOAD PUSH1 0x1F NOT DUP2 DUP5 SUB ADD DUP2 MSTORE SWAP1 DUP3 SWAP1 MSTORE PUSH2 0x442 SWAP2 PUSH2 0xAFC JUMP JUMPDEST PUSH1 0x20 PUSH1 0x40 MLOAD DUP1 DUP4 SUB DUP2 DUP6 GAS STATICCALL ISZERO DUP1 ISZERO PUSH2 0x45F JUMPI RETURNDATASIZE PUSH1 0x0 DUP1 RETURNDATACOPY RETURNDATASIZE PUSH1 0x0 REVERT JUMPDEST POP POP POP PUSH1 0x40 MLOAD RETURNDATASIZE PUSH1 0x1F NOT PUSH1 0x1F DUP3 ADD AND DUP3 ADD DUP1 PUSH1 0x40 MSTORE POP DUP2 ADD SWAP1 PUSH2 0x482 SWAP2 SWAP1 PUSH2 0x9C7 JUMP JUMPDEST SWAP2 POP DUP1 PUSH2 0x48E DUP2 PUSH2 0xC81 JUMP JUMPDEST SWAP2 POP POP PUSH2 0x39C JUMP JUMPDEST DUP3 PUSH1 0x2 SLOAD EQ PUSH2 0x4DB JUMPI PUSH1 0x40 MLOAD PUSH3 0x461BCD PUSH1 0xE5 SHL DUP2 MSTORE PUSH1 0x20 PUSH1 0x4 DUP3 ADD MSTORE PUSH1 0x11 PUSH1 0x24 DUP3 ADD MSTORE PUSH17 0x15D7DADB481A5CC81A5B98DBDC9C9958DD PUSH1 0x7A SHL PUSH1 0x44 DUP3 ADD MSTORE PUSH1 0x64 ADD PUSH2 0x23F JUMP JUMPDEST DUP2 PUSH1 0x3 SLOAD EQ PUSH2 0x520 JUMPI PUSH1 0x40 MLOAD PUSH3 0x461BCD PUSH1 0xE5 SHL DUP2 MSTORE PUSH1 0x20 PUSH1 0x4 DUP3 ADD MSTORE PUSH1 0x11 PUSH1 0x24 DUP3 ADD MSTORE PUSH17 0x15D7DAD8C81A5CC81A5B98DBDC9C9958DD PUSH1 0x7A SHL PUSH1 0x44 DUP3 ADD MSTORE PUSH1 0x64 ADD PUSH2 0x23F JUMP JUMPDEST PUSH2 0x52B PUSH1 0x2 DUP8 PUSH2 0xCCD JUMP JUMPDEST PUSH2 0x56D JUMPI PUSH1 0x2 PUSH1 0x0 SLOAD DUP8 PUSH2 0x53F SWAP2 SWAP1 PUSH2 0xC13 JUMP JUMPDEST PUSH2 0x549 SWAP2 SWAP1 PUSH2 0xBE0 JUMP JUMPDEST PUSH1 0x0 DUP8 SWAP1 SSTORE SWAP4 POP PUSH2 0x559 DUP9 PUSH2 0xC2A JUMP JUMPDEST PUSH1 0x2 SSTORE PUSH2 0x565 DUP8 PUSH2 0xC2A JUMP JUMPDEST PUSH1 0x3 SSTORE PUSH2 0x6E2 JUMP JUMPDEST PUSH1 0x2 PUSH1 0x1 PUSH1 0x0 SLOAD DUP9 PUSH2 0x57F SWAP2 SWAP1 PUSH2 0xC13 JUMP JUMPDEST PUSH2 0x589 SWAP2 SWAP1 PUSH2 0xC13 JUMP JUMPDEST PUSH2 0x593 SWAP2 SWAP1 PUSH2 0xBE0 JUMP JUMPDEST SWAP4 POP PUSH2 0x5A0 PUSH1 0x1 DUP8 PUSH2 0xC13 JUMP JUMPDEST PUSH1 0x0 SWAP1 DUP2 SSTORE PUSH2 0x5AE DUP10 PUSH2 0xC2A JUMP JUMPDEST SWAP1 POP PUSH1 0x0 PUSH2 0x5BB DUP10 PUSH2 0xC2A JUMP JUMPDEST SWAP1 POP PUSH1 0x0 DUP1 SLOAD DUP10 PUSH2 0x5CC SWAP2 SWAP1 PUSH2 0xC13 JUMP JUMPDEST SWAP1 POP JUMPDEST DUP1 ISZERO PUSH2 0x6C9 JUMPI PUSH1 0x2 DUP4 PUSH1 0x40 MLOAD PUSH1 0x20 ADD PUSH2 0x5EA SWAP2 DUP2 MSTORE PUSH1 0x20 ADD SWAP1 JUMP JUMPDEST PUSH1 0x40 DUP1 MLOAD PUSH1 0x1F NOT DUP2 DUP5 SUB ADD DUP2 MSTORE SWAP1 DUP3 SWAP1 MSTORE PUSH2 0x604 SWAP2 PUSH2 0xAFC JUMP JUMPDEST PUSH1 0x20 PUSH1 0x40 MLOAD DUP1 DUP4 SUB DUP2 DUP6 GAS STATICCALL ISZERO DUP1 ISZERO PUSH2 0x621 JUMPI RETURNDATASIZE PUSH1 0x0 DUP1 RETURNDATACOPY RETURNDATASIZE PUSH1 0x0 REVERT JUMPDEST POP POP POP PUSH1 0x40 MLOAD RETURNDATASIZE PUSH1 0x1F NOT PUSH1 0x1F DUP3 ADD AND DUP3 ADD DUP1 PUSH1 0x40 MSTORE POP DUP2 ADD SWAP1 PUSH2 0x644 SWAP2 SWAP1 PUSH2 0x9C7 JUMP JUMPDEST SWAP3 POP PUSH1 0x2 DUP3 PUSH1 0x40 MLOAD PUSH1 0x20 ADD PUSH2 0x65B SWAP2 DUP2 MSTORE PUSH1 0x20 ADD SWAP1 JUMP JUMPDEST PUSH1 0x40 DUP1 MLOAD PUSH1 0x1F NOT DUP2 DUP5 SUB ADD DUP2 MSTORE SWAP1 DUP3 SWAP1 MSTORE PUSH2 0x675 SWAP2 PUSH2 0xAFC JUMP JUMPDEST PUSH1 0x20 PUSH1 0x40 MLOAD DUP1 DUP4 SUB DUP2 DUP6 GAS STATICCALL ISZERO DUP1 ISZERO PUSH2 0x692 JUMPI RETURNDATASIZE PUSH1 0x0 DUP1 RETURNDATACOPY RETURNDATASIZE PUSH1 0x0 REVERT JUMPDEST POP POP POP PUSH1 0x40 MLOAD RETURNDATASIZE PUSH1 0x1F NOT PUSH1 0x1F DUP3 ADD AND DUP3 ADD DUP1 PUSH1 0x40 MSTORE POP DUP2 ADD SWAP1 PUSH2 0x6B5 SWAP2 SWAP1 PUSH2 0x9C7 JUMP JUMPDEST SWAP2 POP DUP1 PUSH2 0x6C1 DUP2 PUSH2 0xC81 JUMP JUMPDEST SWAP2 POP POP PUSH2 0x5CF JUMP JUMPDEST PUSH2 0x6D4 PUSH1 0x1 DUP11 PUSH2 0xC13 JUMP JUMPDEST PUSH1 0x0 SSTORE POP PUSH1 0x2 SWAP2 SWAP1 SWAP2 SSTORE PUSH1 0x3 SSTORE JUMPDEST PUSH1 0x1 PUSH1 0x1 PUSH1 0xA0 SHL SUB DUP6 AND ISZERO PUSH2 0x752 JUMPI DUP5 PUSH1 0x1 PUSH1 0x1 PUSH1 0xA0 SHL SUB AND PUSH1 0x6 SLOAD DUP6 PUSH2 0x709 SWAP2 SWAP1 PUSH2 0xBF4 JUMP JUMPDEST PUSH1 0x40 MLOAD PUSH1 0x0 DUP2 DUP2 DUP2 DUP6 DUP8 GAS CALL SWAP3 POP POP POP RETURNDATASIZE DUP1 PUSH1 0x0 DUP2 EQ PUSH2 0x745 JUMPI PUSH1 0x40 MLOAD SWAP2 POP PUSH1 0x1F NOT PUSH1 0x3F RETURNDATASIZE ADD AND DUP3 ADD PUSH1 0x40 MSTORE RETURNDATASIZE DUP3 MSTORE RETURNDATASIZE PUSH1 0x0 PUSH1 0x20 DUP5 ADD RETURNDATACOPY PUSH2 0x74A JUMP JUMPDEST PUSH1 0x60 SWAP2 POP JUMPDEST POP POP POP PUSH2 0x78F JUMP JUMPDEST PUSH1 0x6 SLOAD CALLER SWAP1 PUSH2 0x8FC SWAP1 PUSH2 0x765 SWAP1 DUP8 PUSH2 0xBF4 JUMP JUMPDEST PUSH1 0x40 MLOAD DUP2 ISZERO SWAP1 SWAP3 MUL SWAP2 PUSH1 0x0 DUP2 DUP2 DUP2 DUP6 DUP9 DUP9 CALL SWAP4 POP POP POP POP ISZERO DUP1 ISZERO PUSH2 0x78D JUMPI RETURNDATASIZE PUSH1 0x0 DUP1 RETURNDATACOPY RETURNDATASIZE PUSH1 0x0 REVERT JUMPDEST POP JUMPDEST POP POP POP POP POP POP POP POP JUMP JUMPDEST PUSH1 0x1 SLOAD PUSH1 0x1 PUSH1 0x1 PUSH1 0xA0 SHL SUB AND CALLER EQ PUSH2 0x7C3 JUMPI PUSH1 0x40 MLOAD PUSH3 0x461BCD PUSH1 0xE5 SHL DUP2 MSTORE PUSH1 0x4 ADD PUSH2 0x23F SWAP1 PUSH2 0xB6F JUMP JUMPDEST PUSH2 0x7CD DUP5 DUP7 PUSH2 0xBF4 JUMP JUMPDEST SELFBALANCE EQ PUSH2 0x7D8 JUMPI PUSH1 0x0 DUP1 REVERT JUMPDEST PUSH1 0x7 SLOAD ISZERO DUP1 ISZERO PUSH2 0x7E8 JUMPI POP PUSH1 0x8 SLOAD ISZERO JUMPDEST DUP1 ISZERO PUSH2 0x7F4 JUMPI POP PUSH1 0x9 SLOAD ISZERO JUMPDEST DUP1 ISZERO PUSH2 0x80E JUMPI POP TIMESTAMP PUSH1 0x8 SLOAD PUSH1 0x7 SLOAD PUSH2 0x80C SWAP2 SWAP1 PUSH2 0xBC8 JUMP JUMPDEST LT JUMPDEST DUP1 PUSH2 0x84D JUMPI POP TIMESTAMP PUSH1 0x8 SLOAD PUSH1 0x7 SLOAD PUSH2 0x825 SWAP2 SWAP1 PUSH2 0xBC8 JUMP JUMPDEST LT DUP1 ISZERO PUSH2 0x84D JUMPI POP PUSH1 0x9 SLOAD PUSH1 0x8 SLOAD PUSH1 0x7 SLOAD PUSH2 0x840 SWAP2 SWAP1 PUSH2 0xBC8 JUMP JUMPDEST PUSH2 0x84A SWAP2 SWAP1 PUSH2 0xBC8 JUMP JUMPDEST TIMESTAMP LT JUMPDEST PUSH2 0x856 JUMPI PUSH1 0x0 DUP1 REVERT JUMPDEST PUSH1 0x0 DUP1 SSTORE PUSH1 0x2 DUP9 SWAP1 SSTORE PUSH1 0x3 DUP8 SWAP1 SSTORE DUP6 MLOAD PUSH2 0x877 SWAP1 PUSH1 0x4 SWAP1 PUSH1 0x20 DUP10 ADD SWAP1 PUSH2 0x892 JUMP JUMPDEST POP PUSH1 0x5 SWAP5 SWAP1 SWAP5 SSTORE PUSH1 0x6 SWAP3 SWAP1 SWAP3 SSTORE PUSH1 0x7 SSTORE PUSH1 0x8 SSTORE PUSH1 0x9 SSTORE POP POP POP JUMP JUMPDEST DUP3 DUP1 SLOAD PUSH2 0x89E SWAP1 PUSH2 0xC98 JUMP JUMPDEST SWAP1 PUSH1 0x0 MSTORE PUSH1 0x20 PUSH1 0x0 KECCAK256 SWAP1 PUSH1 0x1F ADD PUSH1 0x20 SWAP1 DIV DUP2 ADD SWAP3 DUP3 PUSH2 0x8C0 JUMPI PUSH1 0x0 DUP6 SSTORE PUSH2 0x906 JUMP JUMPDEST DUP3 PUSH1 0x1F LT PUSH2 0x8D9 JUMPI DUP1 MLOAD PUSH1 0xFF NOT AND DUP4 DUP1 ADD OR DUP6 SSTORE PUSH2 0x906 JUMP JUMPDEST DUP3 DUP1 ADD PUSH1 0x1 ADD DUP6 SSTORE DUP3 ISZERO PUSH2 0x906 JUMPI SWAP2 DUP3 ADD JUMPDEST DUP3 DUP2 GT ISZERO PUSH2 0x906 JUMPI DUP3 MLOAD DUP3 SSTORE SWAP2 PUSH1 0x20 ADD SWAP2 SWAP1 PUSH1 0x1 ADD SWAP1 PUSH2 0x8EB JUMP JUMPDEST POP PUSH2 0x912 SWAP3 SWAP2 POP PUSH2 0x916 JUMP JUMPDEST POP SWAP1 JUMP JUMPDEST JUMPDEST DUP1 DUP3 GT ISZERO PUSH2 0x912 JUMPI PUSH1 0x0 DUP2 SSTORE PUSH1 0x1 ADD PUSH2 0x917 JUMP JUMPDEST PUSH1 0x0 PUSH1 0x1 PUSH1 0x1 PUSH1 0x40 SHL SUB DUP1 DUP5 GT ISZERO PUSH2 0x945 JUMPI PUSH2 0x945 PUSH2 0xD0D JUMP JUMPDEST PUSH1 0x40 MLOAD PUSH1 0x1F DUP6 ADD PUSH1 0x1F NOT SWAP1 DUP2 AND PUSH1 0x3F ADD AND DUP2 ADD SWAP1 DUP3 DUP3 GT DUP2 DUP4 LT OR ISZERO PUSH2 0x96D JUMPI PUSH2 0x96D PUSH2 0xD0D JUMP JUMPDEST DUP2 PUSH1 0x40 MSTORE DUP1 SWAP4 POP DUP6 DUP2 MSTORE DUP7 DUP7 DUP7 ADD GT ISZERO PUSH2 0x986 JUMPI PUSH1 0x0 DUP1 REVERT JUMPDEST DUP6 DUP6 PUSH1 0x20 DUP4 ADD CALLDATACOPY PUSH1 0x0 PUSH1 0x20 DUP8 DUP4 ADD ADD MSTORE POP POP POP SWAP4 SWAP3 POP POP POP JUMP JUMPDEST PUSH1 0x0 DUP3 PUSH1 0x1F DUP4 ADD SLT PUSH2 0x9B1 JUMPI PUSH1 0x0 DUP1 REVERT JUMPDEST PUSH2 0x9C0 DUP4 DUP4 CALLDATALOAD PUSH1 0x20 DUP6 ADD PUSH2 0x92B JUMP JUMPDEST SWAP4 SWAP3 POP POP POP JUMP JUMPDEST PUSH1 0x0 PUSH1 0x20 DUP3 DUP5 SUB SLT ISZERO PUSH2 0x9D9 JUMPI PUSH1 0x0 DUP1 REVERT JUMPDEST POP MLOAD SWAP2 SWAP1 POP JUMP JUMPDEST PUSH1 0x0 DUP1 PUSH1 0x0 DUP1 PUSH1 0x0 DUP1 PUSH1 0x0 DUP1 PUSH2 0x100 DUP10 DUP12 SUB SLT ISZERO PUSH2 0x9FD JUMPI PUSH1 0x0 DUP1 REVERT JUMPDEST DUP9 CALLDATALOAD SWAP8 POP PUSH1 0x20 DUP10 ADD CALLDATALOAD SWAP7 POP PUSH1 0x40 DUP10 ADD CALLDATALOAD PUSH1 0x1 PUSH1 0x1 PUSH1 0x40 SHL SUB DUP2 GT ISZERO PUSH2 0xA21 JUMPI PUSH1 0x0 DUP1 REVERT JUMPDEST DUP10 ADD PUSH1 0x1F DUP2 ADD DUP12 SGT PUSH2 0xA32 JUMPI PUSH1 0x0 DUP1 REVERT JUMPDEST PUSH2 0xA41 DUP12 DUP3 CALLDATALOAD PUSH1 0x20 DUP5 ADD PUSH2 0x92B JUMP JUMPDEST SWAP9 SWAP12 SWAP8 SWAP11 POP SWAP8 SWAP9 PUSH1 0x60 DUP2 ADD CALLDATALOAD SWAP9 POP PUSH1 0x80 DUP2 ADD CALLDATALOAD SWAP8 PUSH1 0xA0 DUP3 ADD CALLDATALOAD SWAP8 POP PUSH1 0xC0 DUP3 ADD CALLDATALOAD SWAP7 POP PUSH1 0xE0 SWAP1 SWAP2 ADD CALLDATALOAD SWAP5 POP SWAP3 POP POP POP JUMP JUMPDEST PUSH1 0x0 DUP1 PUSH1 0x0 DUP1 PUSH1 0x80 DUP6 DUP8 SUB SLT ISZERO PUSH2 0xA87 JUMPI PUSH1 0x0 DUP1 REVERT JUMPDEST DUP5 CALLDATALOAD PUSH1 0x1 PUSH1 0x1 PUSH1 0x40 SHL SUB DUP1 DUP3 GT ISZERO PUSH2 0xA9E JUMPI PUSH1 0x0 DUP1 REVERT JUMPDEST PUSH2 0xAAA DUP9 DUP4 DUP10 ADD PUSH2 0x9A0 JUMP JUMPDEST SWAP6 POP PUSH1 0x20 DUP8 ADD CALLDATALOAD SWAP2 POP DUP1 DUP3 GT ISZERO PUSH2 0xAC0 JUMPI PUSH1 0x0 DUP1 REVERT JUMPDEST POP PUSH2 0xACD DUP8 DUP3 DUP9 ADD PUSH2 0x9A0 JUMP JUMPDEST SWAP4 POP POP PUSH1 0x40 DUP6 ADD CALLDATALOAD SWAP2 POP PUSH1 0x60 DUP6 ADD CALLDATALOAD PUSH1 0x1 PUSH1 0x1 PUSH1 0xA0 SHL SUB DUP2 AND DUP2 EQ PUSH2 0xAF1 JUMPI PUSH1 0x0 DUP1 REVERT JUMPDEST SWAP4 SWAP7 SWAP3 SWAP6 POP SWAP1 SWAP4 POP POP JUMP JUMPDEST PUSH1 0x0 DUP3 MLOAD PUSH2 0xB0E DUP2 DUP5 PUSH1 0x20 DUP8 ADD PUSH2 0xC51 JUMP JUMPDEST SWAP2 SWAP1 SWAP2 ADD SWAP3 SWAP2 POP POP JUMP JUMPDEST PUSH1 0x20 DUP2 MSTORE PUSH1 0x0 DUP3 MLOAD DUP1 PUSH1 0x20 DUP5 ADD MSTORE PUSH2 0xB37 DUP2 PUSH1 0x40 DUP6 ADD PUSH1 0x20 DUP8 ADD PUSH2 0xC51 JUMP JUMPDEST PUSH1 0x1F ADD PUSH1 0x1F NOT AND SWAP2 SWAP1 SWAP2 ADD PUSH1 0x40 ADD SWAP3 SWAP2 POP POP JUMP JUMPDEST PUSH1 0x20 DUP1 DUP3 MSTORE PUSH1 0xA SWAP1 DUP3 ADD MSTORE PUSH10 0x2A34B6B29032B93937B9 PUSH1 0xB1 SHL PUSH1 0x40 DUP3 ADD MSTORE PUSH1 0x60 ADD SWAP1 JUMP JUMPDEST PUSH1 0x20 DUP1 DUP3 MSTORE PUSH1 0x39 SWAP1 DUP3 ADD MSTORE PUSH32 0x4F6E6C7920637573746F6D6572206F66207468652064656C6976657279206361 PUSH1 0x40 DUP3 ADD MSTORE PUSH25 0x371039B2BA103A34329031B430B73732B6103830B930B6B997 PUSH1 0x39 SHL PUSH1 0x60 DUP3 ADD MSTORE PUSH1 0x80 ADD SWAP1 JUMP JUMPDEST PUSH1 0x0 DUP3 NOT DUP3 GT ISZERO PUSH2 0xBDB JUMPI PUSH2 0xBDB PUSH2 0xCE1 JUMP JUMPDEST POP ADD SWAP1 JUMP JUMPDEST PUSH1 0x0 DUP3 PUSH2 0xBEF JUMPI PUSH2 0xBEF PUSH2 0xCF7 JUMP JUMPDEST POP DIV SWAP1 JUMP JUMPDEST PUSH1 0x0 DUP2 PUSH1 0x0 NOT DIV DUP4 GT DUP3 ISZERO ISZERO AND ISZERO PUSH2 0xC0E JUMPI PUSH2 0xC0E PUSH2 0xCE1 JUMP JUMPDEST POP MUL SWAP1 JUMP JUMPDEST PUSH1 0x0 DUP3 DUP3 LT ISZERO PUSH2 0xC25 JUMPI PUSH2 0xC25 PUSH2 0xCE1 JUMP JUMPDEST POP SUB SWAP1 JUMP JUMPDEST DUP1 MLOAD PUSH1 0x20 DUP1 DUP4 ADD MLOAD SWAP2 SWAP1 DUP2 LT ISZERO PUSH2 0xC4B JUMPI PUSH1 0x0 NOT DUP2 PUSH1 0x20 SUB PUSH1 0x3 SHL SHL DUP3 AND SWAP2 POP JUMPDEST POP SWAP2 SWAP1 POP JUMP JUMPDEST PUSH1 0x0 JUMPDEST DUP4 DUP2 LT ISZERO PUSH2 0xC6C JUMPI DUP2 DUP2 ADD MLOAD DUP4 DUP3 ADD MSTORE PUSH1 0x20 ADD PUSH2 0xC54 JUMP JUMPDEST DUP4 DUP2 GT ISZERO PUSH2 0xC7B JUMPI PUSH1 0x0 DUP5 DUP5 ADD MSTORE JUMPDEST POP POP POP POP JUMP JUMPDEST PUSH1 0x0 DUP2 PUSH2 0xC90 JUMPI PUSH2 0xC90 PUSH2 0xCE1 JUMP JUMPDEST POP PUSH1 0x0 NOT ADD SWAP1 JUMP JUMPDEST PUSH1 0x1 DUP2 DUP2 SHR SWAP1 DUP3 AND DUP1 PUSH2 0xCAC JUMPI PUSH1 0x7F DUP3 AND SWAP2 POP JUMPDEST PUSH1 0x20 DUP3 LT DUP2 EQ ISZERO PUSH2 0xC4B JUMPI PUSH4 0x4E487B71 PUSH1 0xE0 SHL PUSH1 0x0 MSTORE PUSH1 0x22 PUSH1 0x4 MSTORE PUSH1 0x24 PUSH1 0x0 REVERT JUMPDEST PUSH1 0x0 DUP3 PUSH2 0xCDC JUMPI PUSH2 0xCDC PUSH2 0xCF7 JUMP JUMPDEST POP MOD SWAP1 JUMP JUMPDEST PUSH4 0x4E487B71 PUSH1 0xE0 SHL PUSH1 0x0 MSTORE PUSH1 0x11 PUSH1 0x4 MSTORE PUSH1 0x24 PUSH1 0x0 REVERT JUMPDEST PUSH4 0x4E487B71 PUSH1 0xE0 SHL PUSH1 0x0 MSTORE PUSH1 0x12 PUSH1 0x4 MSTORE PUSH1 0x24 PUSH1 0x0 REVERT JUMPDEST PUSH4 0x4E487B71 PUSH1 0xE0 SHL PUSH1 0x0 MSTORE PUSH1 0x41 PUSH1 0x4 MSTORE PUSH1 0x24 PUSH1 0x0 REVERT INVALID LOG2 PUSH5 0x6970667358 0x22 SLT KECCAK256 0xC4 SWAP9 BALANCE 0x5E PUSH15 0xA16DDAB05F29ECF23B43E0CF72C984 0x5F 0x4D 0x25 DUP10 SIGNEXTEND 0xC0 0xC5 CALL STATICCALL 0xE8 0xEE 0xE3 PUSH5 0x736F6C6343 STOP ADDMOD SMOD STOP CALLER "
        },
        "methodIdentifiers": {
          "S_id()": "24763493",
          "TD()": "9c21a9b8",
          "TR()": "34133df9",
          "T_exp()": "f493e870",
          "W_jc()": "5e650318",
          "W_jm()": "88bf1930",
          "c()": "c3da42b8",
          "channelClose()": "0482ff76",
          "customer()": "2804b2c0",
          "j()": "b582ec5f",
          "setChannelParams(bytes32,bytes32,string,uint256,uint256,uint256,uint256,uint256)": "e8de68cc",
          "transferDeposit(bytes,bytes,uint256,address)": "d8befbb6",
          "v()": "7c2efcba"
        }
      }
    }
  }
}