{
    "contractName": "channel",
    "abi": [
        {
            "inputs": [
                {
                    "internalType": "uint256",
                    "name": "_c",
                    "type": "uint256"
                },
                {
                    "internalType": "uint256",
                    "name": "_v",
                    "type": "uint256"
                },
                {
                    "internalType": "address",
                    "name": "_customer",
                    "type": "address"
                }
            ],
            "stateMutability": "payable",
            "type": "constructor"
        },
        {
            "stateMutability": "payable",
            "type": "fallback"
        },
        {
            "inputs": [],
            "name": "S_id",
            "outputs": [
                {
                    "internalType": "string",
                    "name": "",
                    "type": "string"
                }
            ],
            "stateMutability": "view",
            "type": "function"
        },
        {
            "inputs": [],
            "name": "TD",
            "outputs": [
                {
                    "internalType": "uint256",
                    "name": "",
                    "type": "uint256"
                }
            ],
            "stateMutability": "view",
            "type": "function"
        },
        {
            "inputs": [],
            "name": "TR",
            "outputs": [
                {
                    "internalType": "uint256",
                    "name": "",
                    "type": "uint256"
                }
            ],
            "stateMutability": "view",
            "type": "function"
        },
        {
            "inputs": [],
            "name": "T_exp",
            "outputs": [
                {
                    "internalType": "uint256",
                    "name": "",
                    "type": "uint256"
                }
            ],
            "stateMutability": "view",
            "type": "function"
        },
        {
            "inputs": [],
            "name": "W_jc",
            "outputs": [
                {
                    "internalType": "bytes32",
                    "name": "",
                    "type": "bytes32"
                }
            ],
            "stateMutability": "view",
            "type": "function"
        },
        {
            "inputs": [],
            "name": "W_jm",
            "outputs": [
                {
                    "internalType": "bytes32",
                    "name": "",
                    "type": "bytes32"
                }
            ],
            "stateMutability": "view",
            "type": "function"
        },
        {
            "inputs": [],
            "name": "blocktimestamp",
            "outputs": [
                {
                    "internalType": "uint256",
                    "name": "",
                    "type": "uint256"
                }
            ],
            "stateMutability": "nonpayable",
            "type": "function"
        },
        {
            "inputs": [],
            "name": "c",
            "outputs": [
                {
                    "internalType": "uint256",
                    "name": "",
                    "type": "uint256"
                }
            ],
            "stateMutability": "view",
            "type": "function"
        },
        {
            "inputs": [],
            "name": "channelClose",
            "outputs": [],
            "stateMutability": "payable",
            "type": "function"
        },
        {
            "inputs": [],
            "name": "customer",
            "outputs": [
                {
                    "internalType": "address",
                    "name": "",
                    "type": "address"
                }
            ],
            "stateMutability": "view",
            "type": "function"
        },
        {
            "inputs": [],
            "name": "j",
            "outputs": [
                {
                    "internalType": "uint256",
                    "name": "",
                    "type": "uint256"
                }
            ],
            "stateMutability": "view",
            "type": "function"
        },
        {
            "inputs": [
                {
                    "internalType": "bytes32",
                    "name": "_W_jm",
                    "type": "bytes32"
                },
                {
                    "internalType": "bytes32",
                    "name": "_W_jc",
                    "type": "bytes32"
                },
                {
                    "internalType": "string",
                    "name": "_S_id",
                    "type": "string"
                },
                {
                    "internalType": "uint256",
                    "name": "_c",
                    "type": "uint256"
                },
                {
                    "internalType": "uint256",
                    "name": "_v",
                    "type": "uint256"
                },
                {
                    "internalType": "uint256",
                    "name": "_T_exp",
                    "type": "uint256"
                },
                {
                    "internalType": "uint256",
                    "name": "_TD",
                    "type": "uint256"
                },
                {
                    "internalType": "uint256",
                    "name": "_TR",
                    "type": "uint256"
                }
            ],
            "name": "setChannelParams",
            "outputs": [],
            "stateMutability": "nonpayable",
            "type": "function"
        },
        {
            "inputs": [
                {
                    "internalType": "bytes",
                    "name": "_W_km",
                    "type": "bytes"
                },
                {
                    "internalType": "bytes",
                    "name": "_W_kc",
                    "type": "bytes"
                },
                {
                    "internalType": "uint256",
                    "name": "k",
                    "type": "uint256"
                },
                {
                    "internalType": "address",
                    "name": "newChannelAddress",
                    "type": "address"
                }
            ],
            "name": "transferDeposit",
            "outputs": [],
            "stateMutability": "nonpayable",
            "type": "function"
        },
        {
            "inputs": [],
            "name": "v",
            "outputs": [
                {
                    "internalType": "uint256",
                    "name": "",
                    "type": "uint256"
                }
            ],
            "stateMutability": "view",
            "type": "function"
        },
        {
            "stateMutability": "payable",
            "type": "receive"
        }
    ],
    "bytecode": "6080604052604051610cd4380380610cd48339810160408190526100229161006a565b600180546001600160a01b0319166001600160a01b0383161790556005839055600682905534156100625761005782846100b0565b341461006257600080fd5b5050506100dd565b60008060006060848603121561007f57600080fd5b83516020850151604086015191945092506001600160a01b03811681146100a557600080fd5b809150509250925092565b60008160001904831182151516156100d857634e487b7160e01b600052601160045260246000fd5b500290565b610be8806100ec6000396000f3fe6080604052600436106100e15760003560e01c806388bf19301161007f578063c3da42b811610059578063c3da42b814610204578063d8befbb61461021a578063e8de68cc1461023a578063f493e8701461025a576100ec565b806388bf1930146101c25780639c21a9b8146101d8578063b582ec5f146101ee576100ec565b806334133df9116100bb57806334133df91461015f5780635e650318146101835780637c2efcba146101995780638182a11f146101af576100ec565b80630482ff76146100f257806324763493146100fc5780632804b2c014610127576100ec565b366100ec5747600555005b47600555005b6100fa610270565b005b34801561010857600080fd5b506101116102c1565b60405161011e91906109c7565b60405180910390f35b34801561013357600080fd5b50600154610147906001600160a01b031681565b6040516001600160a01b03909116815260200161011e565b34801561016b57600080fd5b5061017560095481565b60405190815260200161011e565b34801561018f57600080fd5b5061017560035481565b3480156101a557600080fd5b5061017560065481565b3480156101bb57600080fd5b5042610175565b3480156101ce57600080fd5b5061017560025481565b3480156101e457600080fd5b5061017560085481565b3480156101fa57600080fd5b5061017560005481565b34801561021057600080fd5b5061017560055481565b34801561022657600080fd5b506100fa61023536600461091f565b61034f565b34801561024657600080fd5b506100fa61025536600461088d565b6106c3565b34801561026657600080fd5b5061017560075481565b6001546001600160a01b031633146102a35760405162461bcd60e51b815260040161029a906109fa565b60405180910390fd5b426008546007546102b49190610a57565b106102be57600080fd5b33ff5b600480546102ce90610b27565b80601f01602080910402602001604051908101604052809291908181526020018280546102fa90610b27565b80156103475780601f1061031c57610100808354040283529160200191610347565b820191906000526020600020905b81548152906001019060200180831161032a57829003601f168201915b505050505081565b60085460075461035f9190610a57565b421061039a5760405162461bcd60e51b815260206004820152600a6024820152692a34b6b29032b93937b960b11b604482015260640161029a565b60005482116103d45760405162461bcd60e51b815260206004820152600660248201526535901e1e903560d11b604482015260640161029a565b6000806103e086610ab9565b905060006103ed86610ab9565b905060008054866103fe9190610aa2565b90505b80156104fb5760028360405160200161041c91815260200190565b60408051601f1981840301815290829052610436916109ab565b602060405180830381855afa158015610453573d6000803e3d6000fd5b5050506040513d601f19601f820116820180604052508101906104769190610874565b925060028260405160200161048d91815260200190565b60408051601f19818403018152908290526104a7916109ab565b602060405180830381855afa1580156104c4573d6000803e3d6000fd5b5050506040513d601f19601f820116820180604052508101906104e79190610874565b9150806104f381610b10565b915050610401565b82600254146105405760405162461bcd60e51b815260206004820152601160248201527015d7dadb481a5cc81a5b98dbdc9c9958dd607a1b604482015260640161029a565b81600354146105855760405162461bcd60e51b815260206004820152601160248201527015d7dad8c81a5cc81a5b98dbdc9c9958dd607a1b604482015260640161029a565b610590600287610b5c565b6105b5576002600054876105a49190610aa2565b6105ae9190610a6f565b93506105de565b60026001600054886105c79190610aa2565b6105d19190610aa2565b6105db9190610a6f565b93505b6001600160a01b0385161561064e57846001600160a01b0316600654856106059190610a83565b604051600081818185875af1925050503d8060008114610641576040519150601f19603f3d011682016040523d82523d6000602084013e610646565b606091505b50505061068b565b60065433906108fc906106619087610a83565b6040518115909202916000818181858888f19350505050158015610689573d6000803e3d6000fd5b505b836005546106999190610aa2565b60055560008690556106aa88610ab9565b6002556106b687610ab9565b6003555050505050505050565b6001546001600160a01b031633146106ed5760405162461bcd60e51b815260040161029a906109fa565b6106f78486610a83565b471461070257600080fd5b6000805560028890556003879055855161072390600490602089019061073e565b50600594909455600692909255600755600855600955505050565b82805461074a90610b27565b90600052602060002090601f01602090048101928261076c57600085556107b2565b82601f1061078557805160ff19168380011785556107b2565b828001600101855582156107b2579182015b828111156107b2578251825591602001919060010190610797565b506107be9291506107c2565b5090565b5b808211156107be57600081556001016107c3565b600067ffffffffffffffff808411156107f2576107f2610b9c565b604051601f8501601f19908116603f0116810190828211818310171561081a5761081a610b9c565b8160405280935085815286868601111561083357600080fd5b858560208301376000602087830101525050509392505050565b600082601f83011261085e57600080fd5b61086d838335602085016107d7565b9392505050565b60006020828403121561088657600080fd5b5051919050565b600080600080600080600080610100898b0312156108aa57600080fd5b8835975060208901359650604089013567ffffffffffffffff8111156108cf57600080fd5b8901601f81018b136108e057600080fd5b6108ef8b8235602084016107d7565b989b979a5097986060810135985060808101359760a0820135975060c0820135965060e090910135945092505050565b6000806000806080858703121561093557600080fd5b843567ffffffffffffffff8082111561094d57600080fd5b6109598883890161084d565b9550602087013591508082111561096f57600080fd5b5061097c8782880161084d565b9350506040850135915060608501356001600160a01b03811681146109a057600080fd5b939692955090935050565b600082516109bd818460208701610ae0565b9190910192915050565b60208152600082518060208401526109e6816040850160208701610ae0565b601f01601f19169190910160400192915050565b60208082526039908201527f4f6e6c7920637573746f6d6572206f66207468652064656c697665727920636160408201527f6e2073657420746865206368616e6e656c20706172616d732e00000000000000606082015260800190565b60008219821115610a6a57610a6a610b70565b500190565b600082610a7e57610a7e610b86565b500490565b6000816000190483118215151615610a9d57610a9d610b70565b500290565b600082821015610ab457610ab4610b70565b500390565b80516020808301519190811015610ada576000198160200360031b1b821691505b50919050565b60005b83811015610afb578181015183820152602001610ae3565b83811115610b0a576000848401525b50505050565b600081610b1f57610b1f610b70565b506000190190565b600181811c90821680610b3b57607f821691505b60208210811415610ada57634e487b7160e01b600052602260045260246000fd5b600082610b6b57610b6b610b86565b500690565b634e487b7160e01b600052601160045260246000fd5b634e487b7160e01b600052601260045260246000fd5b634e487b7160e01b600052604160045260246000fdfea2646970667358221220a868c6b22155befc5553d9714f7c4cc9e4ef586aef3ca900c6c78ed525dd164a64736f6c63430008050033",
    "sourcePath": "c:/Users/Usuario/Documents/UIB/SECOM/micropagaments/micropayments-channel/contracts/channel.sol",
    "compiler": {
        "name": "solc",
        "version": "0.8.5+commit.a4f2e591"
    },
    "functionHashes": {
        "S_id()": "24763493",
        "TD()": "9c21a9b8",
        "TR()": "34133df9",
        "T_exp()": "f493e870",
        "W_jc()": "5e650318",
        "W_jm()": "88bf1930",
        "blocktimestamp()": "8182a11f",
        "c()": "c3da42b8",
        "channelClose()": "0482ff76",
        "customer()": "2804b2c0",
        "j()": "b582ec5f",
        "setChannelParams(bytes32,bytes32,string,uint256,uint256,uint256,uint256,uint256)": "e8de68cc",
        "transferDeposit(bytes,bytes,uint256,address)": "d8befbb6",
        "v()": "7c2efcba"
    },
    "gasEstimates": {
        "creation": {
            "codeDepositCost": "609600",
            "executionCost": "infinite",
            "totalCost": "infinite"
        },
        "external": {
            "": "22283",
            "S_id()": "infinite",
            "TD()": "2340",
            "TR()": "2318",
            "T_exp()": "2383",
            "W_jc()": "2340",
            "W_jm()": "2318",
            "blocktimestamp()": "280",
            "c()": "2317",
            "channelClose()": "34172",
            "customer()": "2408",
            "j()": "2362",
            "setChannelParams(bytes32,bytes32,string,uint256,uint256,uint256,uint256,uint256)": "infinite",
            "transferDeposit(bytes,bytes,uint256,address)": "infinite",
            "v()": "2362"
        }
    }
}