{
    "contractName": "channel",
    "abi": [
        {
            "inputs": [
                {
                    "internalType": "bytes32",
                    "name": "_W_jm",
                    "type": "bytes32"
                },
                {
                    "internalType": "bytes32",
                    "name": "_W_jc",
                    "type": "bytes32"
                },
                {
                    "internalType": "string",
                    "name": "_S_id",
                    "type": "string"
                },
                {
                    "internalType": "uint256",
                    "name": "_c",
                    "type": "uint256"
                },
                {
                    "internalType": "uint256",
                    "name": "_v",
                    "type": "uint256"
                },
                {
                    "internalType": "uint256",
                    "name": "_T_exp",
                    "type": "uint256"
                },
                {
                    "internalType": "uint256",
                    "name": "_TD",
                    "type": "uint256"
                },
                {
                    "internalType": "uint256",
                    "name": "_TR",
                    "type": "uint256"
                },
                {
                    "internalType": "address",
                    "name": "_costumer",
                    "type": "address"
                }
            ],
            "stateMutability": "payable",
            "type": "constructor"
        },
        {
            "inputs": [],
            "name": "S_id",
            "outputs": [
                {
                    "internalType": "string",
                    "name": "",
                    "type": "string"
                }
            ],
            "stateMutability": "view",
            "type": "function"
        },
        {
            "inputs": [],
            "name": "TD",
            "outputs": [
                {
                    "internalType": "uint256",
                    "name": "",
                    "type": "uint256"
                }
            ],
            "stateMutability": "view",
            "type": "function"
        },
        {
            "inputs": [],
            "name": "TR",
            "outputs": [
                {
                    "internalType": "uint256",
                    "name": "",
                    "type": "uint256"
                }
            ],
            "stateMutability": "view",
            "type": "function"
        },
        {
            "inputs": [],
            "name": "T_exp",
            "outputs": [
                {
                    "internalType": "uint256",
                    "name": "",
                    "type": "uint256"
                }
            ],
            "stateMutability": "view",
            "type": "function"
        },
        {
            "inputs": [],
            "name": "W_jc",
            "outputs": [
                {
                    "internalType": "bytes32",
                    "name": "",
                    "type": "bytes32"
                }
            ],
            "stateMutability": "view",
            "type": "function"
        },
        {
            "inputs": [],
            "name": "W_jm",
            "outputs": [
                {
                    "internalType": "bytes32",
                    "name": "",
                    "type": "bytes32"
                }
            ],
            "stateMutability": "view",
            "type": "function"
        },
        {
            "inputs": [],
            "name": "c",
            "outputs": [
                {
                    "internalType": "uint256",
                    "name": "",
                    "type": "uint256"
                }
            ],
            "stateMutability": "view",
            "type": "function"
        },
        {
            "inputs": [],
            "name": "channelClose",
            "outputs": [],
            "stateMutability": "nonpayable",
            "type": "function"
        },
        {
            "inputs": [],
            "name": "costumer",
            "outputs": [
                {
                    "internalType": "address",
                    "name": "",
                    "type": "address"
                }
            ],
            "stateMutability": "view",
            "type": "function"
        },
        {
            "inputs": [
                {
                    "internalType": "bytes32",
                    "name": "_W_0m",
                    "type": "bytes32"
                },
                {
                    "internalType": "string",
                    "name": "_S_id",
                    "type": "string"
                },
                {
                    "internalType": "uint256",
                    "name": "_T_exp",
                    "type": "uint256"
                },
                {
                    "internalType": "uint256",
                    "name": "_TD",
                    "type": "uint256"
                },
                {
                    "internalType": "uint256",
                    "name": "_TR",
                    "type": "uint256"
                }
            ],
            "name": "merchantChange",
            "outputs": [],
            "stateMutability": "nonpayable",
            "type": "function"
        },
        {
            "inputs": [],
            "name": "start",
            "outputs": [
                {
                    "internalType": "uint256",
                    "name": "",
                    "type": "uint256"
                }
            ],
            "stateMutability": "view",
            "type": "function"
        },
        {
            "inputs": [
                {
                    "internalType": "bytes",
                    "name": "_W_km",
                    "type": "bytes"
                },
                {
                    "internalType": "bytes",
                    "name": "_W_kc",
                    "type": "bytes"
                },
                {
                    "internalType": "uint256",
                    "name": "k",
                    "type": "uint256"
                },
                {
                    "internalType": "address",
                    "name": "newChannelAddress",
                    "type": "address"
                }
            ],
            "name": "transferDeposit",
            "outputs": [],
            "stateMutability": "nonpayable",
            "type": "function"
        },
        {
            "inputs": [],
            "name": "v",
            "outputs": [
                {
                    "internalType": "uint256",
                    "name": "",
                    "type": "uint256"
                }
            ],
            "stateMutability": "view",
            "type": "function"
        }
    ],
    "bytecode": "608060405260405162000e2f38038062000e2f83398101604081905262000026916200014b565b600180546001600160a01b0319166001600160a01b03831617905560008055600289905560038890558651620000649060049060208a019062000088565b5050600594909455600692909255600755600855600955505042600a5550620002d8565b828054620000969062000285565b90600052602060002090601f016020900481019282620000ba576000855562000105565b82601f10620000d557805160ff191683800117855562000105565b8280016001018555821562000105579182015b8281111562000105578251825591602001919060010190620000e8565b506200011392915062000117565b5090565b5b8082111562000113576000815560010162000118565b80516001600160a01b03811681146200014657600080fd5b919050565b60008060008060008060008060006101208a8c0312156200016b57600080fd5b895160208b015160408c0151919a5098506001600160401b03808211156200019257600080fd5b818c0191508c601f830112620001a757600080fd5b815181811115620001bc57620001bc620002c2565b604051601f8201601f19908116603f01168101908382118183101715620001e757620001e7620002c2565b816040528281528f60208487010111156200020157600080fd5b600093505b828410156200022957602084860101516020858301015260208401935062000206565b828411156200023c576000602084830101525b809b50505050505060608a0151955060808a0151945060a08a0151935060c08a0151925060e08a01519150620002766101008b016200012e565b90509295985092959850929598565b600181811c908216806200029a57607f821691505b60208210811415620002bc57634e487b7160e01b600052602260045260246000fd5b50919050565b634e487b7160e01b600052604160045260246000fd5b610b4780620002e86000396000f3fe608060405234801561001057600080fd5b50600436106100cf5760003560e01c806388bf19301161008c578063c3da42b811610066578063c3da42b81461016b578063d8befbb614610174578063dadf65f614610187578063f493e8701461019a57600080fd5b806388bf1930146101505780639c21a9b814610159578063be9a65551461016257600080fd5b80630482ff76146100d457806324763493146100de57806334133df9146100fc5780635e650318146101135780637c2efcba1461011c57806381a4a5f914610125575b600080fd5b6100dc6101a3565b005b6100e6610235565b6040516100f39190610945565b60405180910390f35b61010560095481565b6040519081526020016100f3565b61010560035481565b61010560065481565b600154610138906001600160a01b031681565b6040516001600160a01b0390911681526020016100f3565b61010560025481565b61010560085481565b610105600a5481565b61010560055481565b6100dc61018236600461089d565b6102c3565b6100dc610195366004610827565b610625565b61010560075481565b6001546001600160a01b031633146101d65760405162461bcd60e51b81526004016101cd90610978565b60405180910390fd5b42600854600754600a546101ea91906109d5565b6101f491906109d5565b1080156102295750600954600854600754600a5461021291906109d5565b61021c91906109d5565b61022691906109d5565b42105b61023257600080fd5b33ff5b6004805461024290610a86565b80601f016020809104026020016040519081016040528092919081815260200182805461026e90610a86565b80156102bb5780601f10610290576101008083540402835291602001916102bb565b820191906000526020600020905b81548152906001019060200180831161029e57829003601f168201915b505050505081565b600754600a546102d391906109d5565b4210806103075750426008546007546102ec91906109d5565b1180156103075750600754600a5461030491906109d5565b42115b6103405760405162461bcd60e51b815260206004820152600a6024820152692a34b6b29032b93937b960b11b60448201526064016101cd565b600054821161037a5760405162461bcd60e51b815260206004820152600660248201526535901e1e903560d11b60448201526064016101cd565b60008061038686610a18565b9050600061039386610a18565b905060008054866103a49190610a01565b90505b80156104a1576002836040516020016103c291815260200190565b60408051601f19818403018152908290526103dc91610929565b602060405180830381855afa1580156103f9573d6000803e3d6000fd5b5050506040513d601f19601f8201168201806040525081019061041c919061080e565b925060028260405160200161043391815260200190565b60408051601f198184030181529082905261044d91610929565b602060405180830381855afa15801561046a573d6000803e3d6000fd5b5050506040513d601f19601f8201168201806040525081019061048d919061080e565b91508061049981610a6f565b9150506103a7565b82600254146104e65760405162461bcd60e51b815260206004820152601160248201527015d7dadb481a5cc81a5b98dbdc9c9958dd607a1b60448201526064016101cd565b816003541461052b5760405162461bcd60e51b815260206004820152601160248201527015d7dad8c81a5cc81a5b98dbdc9c9958dd607a1b60448201526064016101cd565b610536600287610abb565b61055b5760026000548761054a9190610a01565b61055491906109ed565b9350610584565b600260016000548861056d9190610a01565b6105779190610a01565b61058191906109ed565b93505b6001600160a01b038516156105cf576040516001600160a01b0386169085156108fc029086906000818181858888f193505050501580156105c9573d6000803e3d6000fd5b506105fe565b604051339085156108fc029086906000818181858888f193505050501580156105fc573d6000803e3d6000fd5b505b600086905561060c88610a18565b60025561061887610a18565b6003555050505050505050565b6001546001600160a01b0316331461064f5760405162461bcd60e51b81526004016101cd90610978565b42600854600754600a5461066391906109d5565b61066d91906109d5565b1080156106a25750600954600854600754600a5461068b91906109d5565b61069591906109d5565b61069f91906109d5565b42105b6106ab57600080fd5b600285905583516106c39060049060208701906106d8565b50600792909255600855600955505042600a55565b8280546106e490610a86565b90600052602060002090601f016020900481019282610706576000855561074c565b82601f1061071f57805160ff191683800117855561074c565b8280016001018555821561074c579182015b8281111561074c578251825591602001919060010190610731565b5061075892915061075c565b5090565b5b80821115610758576000815560010161075d565b600067ffffffffffffffff8084111561078c5761078c610afb565b604051601f8501601f19908116603f011681019082821181831017156107b4576107b4610afb565b816040528093508581528686860111156107cd57600080fd5b858560208301376000602087830101525050509392505050565b600082601f8301126107f857600080fd5b61080783833560208501610771565b9392505050565b60006020828403121561082057600080fd5b5051919050565b600080600080600060a0868803121561083f57600080fd5b85359450602086013567ffffffffffffffff81111561085d57600080fd5b8601601f8101881361086e57600080fd5b61087d88823560208401610771565b959895975050505060408401359360608101359360809091013592509050565b600080600080608085870312156108b357600080fd5b843567ffffffffffffffff808211156108cb57600080fd5b6108d7888389016107e7565b955060208701359150808211156108ed57600080fd5b506108fa878288016107e7565b9350506040850135915060608501356001600160a01b038116811461091e57600080fd5b939692955090935050565b6000825161093b818460208701610a3f565b9190910192915050565b6020815260008251806020840152610964816040850160208701610a3f565b601f01601f19169190910160400192915050565b60208082526039908201527f4f6e6c79206d65726368616e74206f66207468652064656c697665727920636160408201527f6e2073657420746865206368616e6e656c20706172616d732e00000000000000606082015260800190565b600082198211156109e8576109e8610acf565b500190565b6000826109fc576109fc610ae5565b500490565b600082821015610a1357610a13610acf565b500390565b80516020808301519190811015610a39576000198160200360031b1b821691505b50919050565b60005b83811015610a5a578181015183820152602001610a42565b83811115610a69576000848401525b50505050565b600081610a7e57610a7e610acf565b506000190190565b600181811c90821680610a9a57607f821691505b60208210811415610a3957634e487b7160e01b600052602260045260246000fd5b600082610aca57610aca610ae5565b500690565b634e487b7160e01b600052601160045260246000fd5b634e487b7160e01b600052601260045260246000fd5b634e487b7160e01b600052604160045260246000fdfea2646970667358221220a6d96a4ae316d0106db622827426247712ef18f5b4a4df0104670103ba92a49f64736f6c63430008070033",
    "sourcePath": "c:/Users/Usuario/Documents/UIB/SECOM/micropagaments/micropayments-channel/contracts/channel.sol",
    "compiler": {
        "name": "solc",
        "version": "0.8.7+commit.e28d00a7"
    },
    "functionHashes": {
        "S_id()": "24763493",
        "TD()": "9c21a9b8",
        "TR()": "34133df9",
        "T_exp()": "f493e870",
        "W_jc()": "5e650318",
        "W_jm()": "88bf1930",
        "c()": "c3da42b8",
        "channelClose()": "0482ff76",
        "costumer()": "81a4a5f9",
        "merchantChange(bytes32,string,uint256,uint256,uint256)": "dadf65f6",
        "start()": "be9a6555",
        "transferDeposit(bytes,bytes,uint256,address)": "d8befbb6",
        "v()": "7c2efcba"
    },
    "gasEstimates": {
        "creation": {
            "codeDepositCost": "577400",
            "executionCost": "infinite",
            "totalCost": "infinite"
        },
        "external": {
            "S_id()": "infinite",
            "TD()": "2340",
            "TR()": "2340",
            "T_exp()": "2383",
            "W_jc()": "2362",
            "W_jm()": "2318",
            "c()": "2317",
            "channelClose()": "infinite",
            "costumer()": "2451",
            "merchantChange(bytes32,string,uint256,uint256,uint256)": "infinite",
            "start()": "2362",
            "transferDeposit(bytes,bytes,uint256,address)": "infinite",
            "v()": "2384"
        }
    }
}