{
    "contractName": "channel",
    "abi": [
        {
            "inputs": [
                {
                    "internalType": "bytes32",
                    "name": "_W_jm",
                    "type": "bytes32"
                },
                {
                    "internalType": "bytes32",
                    "name": "_W_jc",
                    "type": "bytes32"
                },
                {
                    "internalType": "string",
                    "name": "_S_id",
                    "type": "string"
                },
                {
                    "internalType": "uint256",
                    "name": "_c",
                    "type": "uint256"
                },
                {
                    "internalType": "uint256",
                    "name": "_v",
                    "type": "uint256"
                },
                {
                    "internalType": "uint256",
                    "name": "_T_exp",
                    "type": "uint256"
                },
                {
                    "internalType": "uint256",
                    "name": "_TD",
                    "type": "uint256"
                },
                {
                    "internalType": "uint256",
                    "name": "_TR",
                    "type": "uint256"
                },
                {
                    "internalType": "address",
                    "name": "_costumer",
                    "type": "address"
                }
            ],
            "stateMutability": "payable",
            "type": "constructor"
        },
        {
            "inputs": [],
            "name": "S_id",
            "outputs": [
                {
                    "internalType": "string",
                    "name": "",
                    "type": "string"
                }
            ],
            "stateMutability": "view",
            "type": "function"
        },
        {
            "inputs": [],
            "name": "TD",
            "outputs": [
                {
                    "internalType": "uint256",
                    "name": "",
                    "type": "uint256"
                }
            ],
            "stateMutability": "view",
            "type": "function"
        },
        {
            "inputs": [],
            "name": "TR",
            "outputs": [
                {
                    "internalType": "uint256",
                    "name": "",
                    "type": "uint256"
                }
            ],
            "stateMutability": "view",
            "type": "function"
        },
        {
            "inputs": [],
            "name": "T_exp",
            "outputs": [
                {
                    "internalType": "uint256",
                    "name": "",
                    "type": "uint256"
                }
            ],
            "stateMutability": "view",
            "type": "function"
        },
        {
            "inputs": [],
            "name": "W_jc",
            "outputs": [
                {
                    "internalType": "bytes32",
                    "name": "",
                    "type": "bytes32"
                }
            ],
            "stateMutability": "view",
            "type": "function"
        },
        {
            "inputs": [],
            "name": "W_jm",
            "outputs": [
                {
                    "internalType": "bytes32",
                    "name": "",
                    "type": "bytes32"
                }
            ],
            "stateMutability": "view",
            "type": "function"
        },
        {
            "inputs": [],
            "name": "blocktimestamp",
            "outputs": [
                {
                    "internalType": "uint256",
                    "name": "",
                    "type": "uint256"
                }
            ],
            "stateMutability": "nonpayable",
            "type": "function"
        },
        {
            "inputs": [],
            "name": "c",
            "outputs": [
                {
                    "internalType": "uint256",
                    "name": "",
                    "type": "uint256"
                }
            ],
            "stateMutability": "view",
            "type": "function"
        },
        {
            "inputs": [],
            "name": "channelClose",
            "outputs": [],
            "stateMutability": "payable",
            "type": "function"
        },
        {
            "inputs": [],
            "name": "costumer",
            "outputs": [
                {
                    "internalType": "address",
                    "name": "",
                    "type": "address"
                }
            ],
            "stateMutability": "view",
            "type": "function"
        },
        {
            "inputs": [],
            "name": "j",
            "outputs": [
                {
                    "internalType": "uint256",
                    "name": "",
                    "type": "uint256"
                }
            ],
            "stateMutability": "view",
            "type": "function"
        },
        {
            "inputs": [
                {
                    "internalType": "bytes32",
                    "name": "_W_0m",
                    "type": "bytes32"
                },
                {
                    "internalType": "string",
                    "name": "_S_id",
                    "type": "string"
                },
                {
                    "internalType": "uint256",
                    "name": "_T_exp",
                    "type": "uint256"
                },
                {
                    "internalType": "uint256",
                    "name": "_TD",
                    "type": "uint256"
                },
                {
                    "internalType": "uint256",
                    "name": "_TR",
                    "type": "uint256"
                }
            ],
            "name": "merchantChange",
            "outputs": [],
            "stateMutability": "nonpayable",
            "type": "function"
        },
        {
            "inputs": [],
            "name": "start",
            "outputs": [
                {
                    "internalType": "uint256",
                    "name": "",
                    "type": "uint256"
                }
            ],
            "stateMutability": "view",
            "type": "function"
        },
        {
            "inputs": [
                {
                    "internalType": "bytes",
                    "name": "_W_km",
                    "type": "bytes"
                },
                {
                    "internalType": "bytes",
                    "name": "_W_kc",
                    "type": "bytes"
                },
                {
                    "internalType": "uint256",
                    "name": "k",
                    "type": "uint256"
                },
                {
                    "internalType": "address",
                    "name": "newChannelAddress",
                    "type": "address"
                }
            ],
            "name": "transferDeposit",
            "outputs": [],
            "stateMutability": "nonpayable",
            "type": "function"
        },
        {
            "inputs": [],
            "name": "v",
            "outputs": [
                {
                    "internalType": "uint256",
                    "name": "",
                    "type": "uint256"
                }
            ],
            "stateMutability": "view",
            "type": "function"
        }
    ],
    "bytecode": "608060405260405162000d8638038062000d8683398101604081905262000026916200014b565b600180546001600160a01b0319166001600160a01b03831617905560008055600289905560038890558651620000649060049060208a019062000088565b5050600594909455600692909255600755600855600955505042600a5550620002d8565b828054620000969062000285565b90600052602060002090601f016020900481019282620000ba576000855562000105565b82601f10620000d557805160ff191683800117855562000105565b8280016001018555821562000105579182015b8281111562000105578251825591602001919060010190620000e8565b506200011392915062000117565b5090565b5b8082111562000113576000815560010162000118565b80516001600160a01b03811681146200014657600080fd5b919050565b60008060008060008060008060006101208a8c0312156200016b57600080fd5b895160208b015160408c0151919a5098506001600160401b03808211156200019257600080fd5b818c0191508c601f830112620001a757600080fd5b815181811115620001bc57620001bc620002c2565b604051601f8201601f19908116603f01168101908382118183101715620001e757620001e7620002c2565b816040528281528f60208487010111156200020157600080fd5b600093505b828410156200022957602084860101516020858301015260208401935062000206565b828411156200023c576000602084830101525b809b50505050505060608a0151955060808a0151945060a08a0151935060c08a0151925060e08a01519150620002766101008b016200012e565b90509295985092959850929598565b600181811c908216806200029a57607f821691505b60208210811415620002bc57634e487b7160e01b600052602260045260246000fd5b50919050565b634e487b7160e01b600052604160045260246000fd5b610a9e80620002e86000396000f3fe6080604052600436106100e85760003560e01c806388bf19301161008a578063c3da42b811610059578063c3da42b814610215578063d8befbb61461022b578063dadf65f61461024b578063f493e8701461026b57600080fd5b806388bf1930146101bd5780639c21a9b8146101d3578063b582ec5f146101e9578063be9a6555146101ff57600080fd5b80635e650318116100c65780635e650318146101465780637c2efcba1461015c5780638182a11f1461017257806381a4a5f91461018557600080fd5b80630482ff76146100ed57806324763493146100f757806334133df914610122575b600080fd5b6100f5610281565b005b34801561010357600080fd5b5061010c6102f9565b60405161011991906108da565b60405180910390f35b34801561012e57600080fd5b5061013860095481565b604051908152602001610119565b34801561015257600080fd5b5061013860035481565b34801561016857600080fd5b5061013860065481565b34801561017e57600080fd5b5042610138565b34801561019157600080fd5b506001546101a5906001600160a01b031681565b6040516001600160a01b039091168152602001610119565b3480156101c957600080fd5b5061013860025481565b3480156101df57600080fd5b5061013860085481565b3480156101f557600080fd5b5061013860005481565b34801561020b57600080fd5b50610138600a5481565b34801561022157600080fd5b5061013860055481565b34801561023757600080fd5b506100f5610246366004610832565b610387565b34801561025757600080fd5b506100f56102663660046107bc565b6105d4565b34801561027757600080fd5b5061013860075481565b6001546001600160a01b031633146102b45760405162461bcd60e51b81526004016102ab9061090d565b60405180910390fd5b426008546007546102c5919061096a565b1080156102ed57506009546008546007546102e0919061096a565b6102ea919061096a565b42105b6102f657600080fd5b33ff5b6004805461030690610a07565b80601f016020809104026020016040519081016040528092919081815260200182805461033290610a07565b801561037f5780601f106103545761010080835404028352916020019161037f565b820191906000526020600020905b81548152906001019060200180831161036257829003601f168201915b505050505081565b600754421180156103a657506008546007546103a3919061096a565b42105b6103df5760405162461bcd60e51b815260206004820152600a6024820152692a34b6b29032b93937b960b11b60448201526064016102ab565b60005482116104195760405162461bcd60e51b815260206004820152600660248201526535901e1e903560d11b60448201526064016102ab565b60008061042586610999565b9050600061043286610999565b905060008054866104439190610982565b90505b80156105405760028360405160200161046191815260200190565b60408051601f198184030181529082905261047b916108be565b602060405180830381855afa158015610498573d6000803e3d6000fd5b5050506040513d601f19601f820116820180604052508101906104bb91906107a3565b92506002826040516020016104d291815260200190565b60408051601f19818403018152908290526104ec916108be565b602060405180830381855afa158015610509573d6000803e3d6000fd5b5050506040513d601f19601f8201168201806040525081019061052c91906107a3565b915080610538816109f0565b915050610446565b82600254146105855760405162461bcd60e51b815260206004820152601160248201527015d7dadb481a5cc81a5b98dbdc9c9958dd607a1b60448201526064016102ab565b81600354146105ca5760405162461bcd60e51b815260206004820152601160248201527015d7dad8c81a5cc81a5b98dbdc9c9958dd607a1b60448201526064016102ab565b5050505050505050565b6001546001600160a01b031633146105fe5760405162461bcd60e51b81526004016102ab9061090d565b4260085460075461060f919061096a565b108015610637575060095460085460075461062a919061096a565b610634919061096a565b42105b61064057600080fd5b6002859055835161065890600490602087019061066d565b50600792909255600855600955505042600a55565b82805461067990610a07565b90600052602060002090601f01602090048101928261069b57600085556106e1565b82601f106106b457805160ff19168380011785556106e1565b828001600101855582156106e1579182015b828111156106e15782518255916020019190600101906106c6565b506106ed9291506106f1565b5090565b5b808211156106ed57600081556001016106f2565b600067ffffffffffffffff8084111561072157610721610a52565b604051601f8501601f19908116603f0116810190828211818310171561074957610749610a52565b8160405280935085815286868601111561076257600080fd5b858560208301376000602087830101525050509392505050565b600082601f83011261078d57600080fd5b61079c83833560208501610706565b9392505050565b6000602082840312156107b557600080fd5b5051919050565b600080600080600060a086880312156107d457600080fd5b85359450602086013567ffffffffffffffff8111156107f257600080fd5b8601601f8101881361080357600080fd5b61081288823560208401610706565b959895975050505060408401359360608101359360809091013592509050565b6000806000806080858703121561084857600080fd5b843567ffffffffffffffff8082111561086057600080fd5b61086c8883890161077c565b9550602087013591508082111561088257600080fd5b5061088f8782880161077c565b9350506040850135915060608501356001600160a01b03811681146108b357600080fd5b939692955090935050565b600082516108d08184602087016109c0565b9190910192915050565b60208152600082518060208401526108f98160408501602087016109c0565b601f01601f19169190910160400192915050565b60208082526039908201527f4f6e6c79206d65726368616e74206f66207468652064656c697665727920636160408201527f6e2073657420746865206368616e6e656c20706172616d732e00000000000000606082015260800190565b6000821982111561097d5761097d610a3c565b500190565b60008282101561099457610994610a3c565b500390565b805160208083015191908110156109ba576000198160200360031b1b821691505b50919050565b60005b838110156109db5781810151838201526020016109c3565b838111156109ea576000848401525b50505050565b6000816109ff576109ff610a3c565b506000190190565b600181811c90821680610a1b57607f821691505b602082108114156109ba57634e487b7160e01b600052602260045260246000fd5b634e487b7160e01b600052601160045260246000fd5b634e487b7160e01b600052604160045260246000fdfea264697066735822122018b65e8b473bcf22dbb84960cc414f65faebb6a2cef84117655887de3cc0eb4564736f6c63430008050033",
    "sourcePath": "c:/Users/Usuario/Documents/UIB/SECOM/micropagaments/micropayments-channel/contracts/channel.sol",
    "compiler": {
        "name": "solc",
        "version": "0.8.5+commit.a4f2e591"
    },
    "functionHashes": {
        "S_id()": "24763493",
        "TD()": "9c21a9b8",
        "TR()": "34133df9",
        "T_exp()": "f493e870",
        "W_jc()": "5e650318",
        "W_jm()": "88bf1930",
        "blocktimestamp()": "8182a11f",
        "c()": "c3da42b8",
        "channelClose()": "0482ff76",
        "costumer()": "81a4a5f9",
        "j()": "b582ec5f",
        "merchantChange(bytes32,string,uint256,uint256,uint256)": "dadf65f6",
        "start()": "be9a6555",
        "transferDeposit(bytes,bytes,uint256,address)": "d8befbb6",
        "v()": "7c2efcba"
    },
    "gasEstimates": {
        "creation": {
            "codeDepositCost": "543600",
            "executionCost": "infinite",
            "totalCost": "infinite"
        },
        "external": {
            "S_id()": "infinite",
            "TD()": "2340",
            "TR()": "2363",
            "T_exp()": "2383",
            "W_jc()": "2318",
            "W_jm()": "2318",
            "blocktimestamp()": "258",
            "c()": "2317",
            "channelClose()": "infinite",
            "costumer()": "2429",
            "j()": "2362",
            "merchantChange(bytes32,string,uint256,uint256,uint256)": "infinite",
            "start()": "2384",
            "transferDeposit(bytes,bytes,uint256,address)": "infinite",
            "v()": "2340"
        }
    }
}