{
    "contractName": "channel",
    "abi": [
        {
            "inputs": [
                {
                    "internalType": "uint256",
                    "name": "_c",
                    "type": "uint256"
                },
                {
                    "internalType": "uint256",
                    "name": "_v",
                    "type": "uint256"
                },
                {
                    "internalType": "address",
                    "name": "_customer",
                    "type": "address"
                }
            ],
            "stateMutability": "payable",
            "type": "constructor"
        },
        {
            "stateMutability": "payable",
            "type": "fallback"
        },
        {
            "inputs": [],
            "name": "S_id",
            "outputs": [
                {
                    "internalType": "string",
                    "name": "",
                    "type": "string"
                }
            ],
            "stateMutability": "view",
            "type": "function"
        },
        {
            "inputs": [],
            "name": "TD",
            "outputs": [
                {
                    "internalType": "uint256",
                    "name": "",
                    "type": "uint256"
                }
            ],
            "stateMutability": "view",
            "type": "function"
        },
        {
            "inputs": [],
            "name": "TR",
            "outputs": [
                {
                    "internalType": "uint256",
                    "name": "",
                    "type": "uint256"
                }
            ],
            "stateMutability": "view",
            "type": "function"
        },
        {
            "inputs": [],
            "name": "T_exp",
            "outputs": [
                {
                    "internalType": "uint256",
                    "name": "",
                    "type": "uint256"
                }
            ],
            "stateMutability": "view",
            "type": "function"
        },
        {
            "inputs": [],
            "name": "W_jc",
            "outputs": [
                {
                    "internalType": "bytes32",
                    "name": "",
                    "type": "bytes32"
                }
            ],
            "stateMutability": "view",
            "type": "function"
        },
        {
            "inputs": [],
            "name": "W_jm",
            "outputs": [
                {
                    "internalType": "bytes32",
                    "name": "",
                    "type": "bytes32"
                }
            ],
            "stateMutability": "view",
            "type": "function"
        },
        {
            "inputs": [],
            "name": "blocktimestamp",
            "outputs": [
                {
                    "internalType": "uint256",
                    "name": "",
                    "type": "uint256"
                }
            ],
            "stateMutability": "nonpayable",
            "type": "function"
        },
        {
            "inputs": [],
            "name": "c",
            "outputs": [
                {
                    "internalType": "uint256",
                    "name": "",
                    "type": "uint256"
                }
            ],
            "stateMutability": "view",
            "type": "function"
        },
        {
            "inputs": [],
            "name": "channelClose",
            "outputs": [],
            "stateMutability": "payable",
            "type": "function"
        },
        {
            "inputs": [],
            "name": "customer",
            "outputs": [
                {
                    "internalType": "address",
                    "name": "",
                    "type": "address"
                }
            ],
            "stateMutability": "view",
            "type": "function"
        },
        {
            "inputs": [],
            "name": "j",
            "outputs": [
                {
                    "internalType": "uint256",
                    "name": "",
                    "type": "uint256"
                }
            ],
            "stateMutability": "view",
            "type": "function"
        },
        {
            "inputs": [
                {
                    "internalType": "bytes32",
                    "name": "_W_jm",
                    "type": "bytes32"
                },
                {
                    "internalType": "bytes32",
                    "name": "_W_jc",
                    "type": "bytes32"
                },
                {
                    "internalType": "string",
                    "name": "_S_id",
                    "type": "string"
                },
                {
                    "internalType": "uint256",
                    "name": "_c",
                    "type": "uint256"
                },
                {
                    "internalType": "uint256",
                    "name": "_v",
                    "type": "uint256"
                },
                {
                    "internalType": "uint256",
                    "name": "_T_exp",
                    "type": "uint256"
                },
                {
                    "internalType": "uint256",
                    "name": "_TD",
                    "type": "uint256"
                },
                {
                    "internalType": "uint256",
                    "name": "_TR",
                    "type": "uint256"
                }
            ],
            "name": "setChannelParams",
            "outputs": [],
            "stateMutability": "payable",
            "type": "function"
        },
        {
            "inputs": [],
            "name": "start",
            "outputs": [
                {
                    "internalType": "uint256",
                    "name": "",
                    "type": "uint256"
                }
            ],
            "stateMutability": "view",
            "type": "function"
        },
        {
            "inputs": [
                {
                    "internalType": "bytes",
                    "name": "_W_km",
                    "type": "bytes"
                },
                {
                    "internalType": "bytes",
                    "name": "_W_kc",
                    "type": "bytes"
                },
                {
                    "internalType": "uint256",
                    "name": "k",
                    "type": "uint256"
                },
                {
                    "internalType": "address",
                    "name": "newChannelAddress",
                    "type": "address"
                }
            ],
            "name": "transferDeposit",
            "outputs": [],
            "stateMutability": "nonpayable",
            "type": "function"
        },
        {
            "inputs": [],
            "name": "v",
            "outputs": [
                {
                    "internalType": "uint256",
                    "name": "",
                    "type": "uint256"
                }
            ],
            "stateMutability": "view",
            "type": "function"
        },
        {
            "stateMutability": "payable",
            "type": "receive"
        }
    ],
    "bytecode": "6080604052604051610cf5380380610cf58339810160408190526100229161006a565b600180546001600160a01b0319166001600160a01b0383161790556005839055600682905534156100625761005782846100b0565b341461006257600080fd5b5050506100dd565b60008060006060848603121561007f57600080fd5b83516020850151604086015191945092506001600160a01b03811681146100a557600080fd5b809150509250925092565b60008160001904831182151516156100d857634e487b7160e01b600052601160045260246000fd5b500290565b610c09806100ec6000396000f3fe6080604052600436106100ec5760003560e01c806388bf19301161008a578063c3da42b811610059578063c3da42b814610225578063d8befbb61461023b578063e8de68cc1461025b578063f493e8701461026e576100f7565b806388bf1930146101cd5780639c21a9b8146101e3578063b582ec5f146101f9578063be9a65551461020f576100f7565b806334133df9116100c657806334133df91461016a5780635e6503181461018e5780637c2efcba146101a45780638182a11f146101ba576100f7565b80630482ff76146100fd57806324763493146101075780632804b2c014610132576100f7565b366100f75747600555005b47600555005b610105610284565b005b34801561011357600080fd5b5061011c6102d5565b60405161012991906109e8565b60405180910390f35b34801561013e57600080fd5b50600154610152906001600160a01b031681565b6040516001600160a01b039091168152602001610129565b34801561017657600080fd5b5061018060095481565b604051908152602001610129565b34801561019a57600080fd5b5061018060035481565b3480156101b057600080fd5b5061018060065481565b3480156101c657600080fd5b5042610180565b3480156101d957600080fd5b5061018060025481565b3480156101ef57600080fd5b5061018060085481565b34801561020557600080fd5b5061018060005481565b34801561021b57600080fd5b50610180600a5481565b34801561023157600080fd5b5061018060055481565b34801561024757600080fd5b50610105610256366004610940565b610363565b6101056102693660046108ae565b6106d7565b34801561027a57600080fd5b5061018060075481565b6001546001600160a01b031633146102b75760405162461bcd60e51b81526004016102ae90610a1b565b60405180910390fd5b426008546007546102c89190610a78565b106102d257600080fd5b33ff5b600480546102e290610b48565b80601f016020809104026020016040519081016040528092919081815260200182805461030e90610b48565b801561035b5780601f106103305761010080835404028352916020019161035b565b820191906000526020600020905b81548152906001019060200180831161033e57829003601f168201915b505050505081565b6008546007546103739190610a78565b42106103ae5760405162461bcd60e51b815260206004820152600a6024820152692a34b6b29032b93937b960b11b60448201526064016102ae565b60005482116103e85760405162461bcd60e51b815260206004820152600660248201526535901e1e903560d11b60448201526064016102ae565b6000806103f486610ada565b9050600061040186610ada565b905060008054866104129190610ac3565b90505b801561050f5760028360405160200161043091815260200190565b60408051601f198184030181529082905261044a916109cc565b602060405180830381855afa158015610467573d6000803e3d6000fd5b5050506040513d601f19601f8201168201806040525081019061048a9190610895565b92506002826040516020016104a191815260200190565b60408051601f19818403018152908290526104bb916109cc565b602060405180830381855afa1580156104d8573d6000803e3d6000fd5b5050506040513d601f19601f820116820180604052508101906104fb9190610895565b91508061050781610b31565b915050610415565b82600254146105545760405162461bcd60e51b815260206004820152601160248201527015d7dadb481a5cc81a5b98dbdc9c9958dd607a1b60448201526064016102ae565b81600354146105995760405162461bcd60e51b815260206004820152601160248201527015d7dad8c81a5cc81a5b98dbdc9c9958dd607a1b60448201526064016102ae565b6105a4600287610b7d565b6105c9576002600054876105b89190610ac3565b6105c29190610a90565b93506105f2565b60026001600054886105db9190610ac3565b6105e59190610ac3565b6105ef9190610a90565b93505b6001600160a01b0385161561066257846001600160a01b0316600654856106199190610aa4565b604051600081818185875af1925050503d8060008114610655576040519150601f19603f3d011682016040523d82523d6000602084013e61065a565b606091505b50505061069f565b60065433906108fc906106759087610aa4565b6040518115909202916000818181858888f1935050505015801561069d573d6000803e3d6000fd5b505b836005546106ad9190610ac3565b60055560008690556106be88610ada565b6002556106ca87610ada565b6003555050505050505050565b6001546001600160a01b031633146107015760405162461bcd60e51b81526004016102ae90610a1b565b61070b8486610aa4565b6107153447610a78565b1461071f57600080fd5b6000805560028890556003879055855161074090600490602089019061075f565b5060059490945560069290925542600a55600755600855600955505050565b82805461076b90610b48565b90600052602060002090601f01602090048101928261078d57600085556107d3565b82601f106107a657805160ff19168380011785556107d3565b828001600101855582156107d3579182015b828111156107d35782518255916020019190600101906107b8565b506107df9291506107e3565b5090565b5b808211156107df57600081556001016107e4565b600067ffffffffffffffff8084111561081357610813610bbd565b604051601f8501601f19908116603f0116810190828211818310171561083b5761083b610bbd565b8160405280935085815286868601111561085457600080fd5b858560208301376000602087830101525050509392505050565b600082601f83011261087f57600080fd5b61088e838335602085016107f8565b9392505050565b6000602082840312156108a757600080fd5b5051919050565b600080600080600080600080610100898b0312156108cb57600080fd5b8835975060208901359650604089013567ffffffffffffffff8111156108f057600080fd5b8901601f81018b1361090157600080fd5b6109108b8235602084016107f8565b989b979a5097986060810135985060808101359760a0820135975060c0820135965060e090910135945092505050565b6000806000806080858703121561095657600080fd5b843567ffffffffffffffff8082111561096e57600080fd5b61097a8883890161086e565b9550602087013591508082111561099057600080fd5b5061099d8782880161086e565b9350506040850135915060608501356001600160a01b03811681146109c157600080fd5b939692955090935050565b600082516109de818460208701610b01565b9190910192915050565b6020815260008251806020840152610a07816040850160208701610b01565b601f01601f19169190910160400192915050565b60208082526039908201527f4f6e6c7920637573746f6d6572206f66207468652064656c697665727920636160408201527f6e2073657420746865206368616e6e656c20706172616d732e00000000000000606082015260800190565b60008219821115610a8b57610a8b610b91565b500190565b600082610a9f57610a9f610ba7565b500490565b6000816000190483118215151615610abe57610abe610b91565b500290565b600082821015610ad557610ad5610b91565b500390565b80516020808301519190811015610afb576000198160200360031b1b821691505b50919050565b60005b83811015610b1c578181015183820152602001610b04565b83811115610b2b576000848401525b50505050565b600081610b4057610b40610b91565b506000190190565b600181811c90821680610b5c57607f821691505b60208210811415610afb57634e487b7160e01b600052602260045260246000fd5b600082610b8c57610b8c610ba7565b500690565b634e487b7160e01b600052601160045260246000fd5b634e487b7160e01b600052601260045260246000fd5b634e487b7160e01b600052604160045260246000fdfea26469706673582212205acdd59da3a0008773e5169ec6e0f43fc2eb7d8a8383b4998d9c3dacdba17dfa64736f6c63430008050033",
    "sourcePath": "c:/Users/Usuario/Documents/UIB/SECOM/micropagaments/micropayments-channel/contracts/channel.sol",
    "compiler": {
        "name": "solc",
        "version": "0.8.5+commit.a4f2e591"
    },
    "functionHashes": {
        "S_id()": "24763493",
        "TD()": "9c21a9b8",
        "TR()": "34133df9",
        "T_exp()": "f493e870",
        "W_jc()": "5e650318",
        "W_jm()": "88bf1930",
        "blocktimestamp()": "8182a11f",
        "c()": "c3da42b8",
        "channelClose()": "0482ff76",
        "customer()": "2804b2c0",
        "j()": "b582ec5f",
        "setChannelParams(bytes32,bytes32,string,uint256,uint256,uint256,uint256,uint256)": "e8de68cc",
        "start()": "be9a6555",
        "transferDeposit(bytes,bytes,uint256,address)": "d8befbb6",
        "v()": "7c2efcba"
    },
    "gasEstimates": {
        "creation": {
            "codeDepositCost": "616200",
            "executionCost": "infinite",
            "totalCost": "infinite"
        },
        "external": {
            "": "22283",
            "S_id()": "infinite",
            "TD()": "2340",
            "TR()": "2318",
            "T_exp()": "2383",
            "W_jc()": "2340",
            "W_jm()": "2318",
            "blocktimestamp()": "280",
            "c()": "2317",
            "channelClose()": "34172",
            "customer()": "2408",
            "j()": "2362",
            "setChannelParams(bytes32,bytes32,string,uint256,uint256,uint256,uint256,uint256)": "infinite",
            "start()": "2384",
            "transferDeposit(bytes,bytes,uint256,address)": "infinite",
            "v()": "2362"
        }
    }
}