{
  "abi": [
    {
      "inputs": [
        {
          "internalType": "bytes32",
          "name": "_W_jm",
          "type": "bytes32"
        },
        {
          "internalType": "bytes32",
          "name": "_W_jc",
          "type": "bytes32"
        },
        {
          "internalType": "string",
          "name": "_S_id",
          "type": "string"
        },
        {
          "internalType": "uint256",
          "name": "_c",
          "type": "uint256"
        },
        {
          "internalType": "uint256",
          "name": "_v",
          "type": "uint256"
        },
        {
          "internalType": "uint256",
          "name": "_T_exp",
          "type": "uint256"
        },
        {
          "internalType": "uint256",
          "name": "_TD",
          "type": "uint256"
        },
        {
          "internalType": "uint256",
          "name": "_TR",
          "type": "uint256"
        },
        {
          "internalType": "address",
          "name": "_costumer",
          "type": "address"
        }
      ],
      "stateMutability": "payable",
      "type": "constructor"
    },
    {
      "stateMutability": "payable",
      "type": "fallback"
    },
    {
      "inputs": [],
      "name": "S_id",
      "outputs": [
        {
          "internalType": "string",
          "name": "",
          "type": "string"
        }
      ],
      "stateMutability": "view",
      "type": "function"
    },
    {
      "inputs": [],
      "name": "TD",
      "outputs": [
        {
          "internalType": "uint256",
          "name": "",
          "type": "uint256"
        }
      ],
      "stateMutability": "view",
      "type": "function"
    },
    {
      "inputs": [],
      "name": "TR",
      "outputs": [
        {
          "internalType": "uint256",
          "name": "",
          "type": "uint256"
        }
      ],
      "stateMutability": "view",
      "type": "function"
    },
    {
      "inputs": [],
      "name": "T_exp",
      "outputs": [
        {
          "internalType": "uint256",
          "name": "",
          "type": "uint256"
        }
      ],
      "stateMutability": "view",
      "type": "function"
    },
    {
      "inputs": [],
      "name": "W_jc",
      "outputs": [
        {
          "internalType": "bytes32",
          "name": "",
          "type": "bytes32"
        }
      ],
      "stateMutability": "view",
      "type": "function"
    },
    {
      "inputs": [],
      "name": "W_jm",
      "outputs": [
        {
          "internalType": "bytes32",
          "name": "",
          "type": "bytes32"
        }
      ],
      "stateMutability": "view",
      "type": "function"
    },
    {
      "inputs": [],
      "name": "blocktimestamp",
      "outputs": [
        {
          "internalType": "uint256",
          "name": "",
          "type": "uint256"
        }
      ],
      "stateMutability": "nonpayable",
      "type": "function"
    },
    {
      "inputs": [],
      "name": "c",
      "outputs": [
        {
          "internalType": "uint256",
          "name": "",
          "type": "uint256"
        }
      ],
      "stateMutability": "view",
      "type": "function"
    },
    {
      "inputs": [],
      "name": "channelClose",
      "outputs": [],
      "stateMutability": "payable",
      "type": "function"
    },
    {
      "inputs": [],
      "name": "costumer",
      "outputs": [
        {
          "internalType": "address",
          "name": "",
          "type": "address"
        }
      ],
      "stateMutability": "view",
      "type": "function"
    },
    {
      "inputs": [],
      "name": "j",
      "outputs": [
        {
          "internalType": "uint256",
          "name": "",
          "type": "uint256"
        }
      ],
      "stateMutability": "view",
      "type": "function"
    },
    {
      "inputs": [],
      "name": "start",
      "outputs": [
        {
          "internalType": "uint256",
          "name": "",
          "type": "uint256"
        }
      ],
      "stateMutability": "view",
      "type": "function"
    },
    {
      "inputs": [
        {
          "internalType": "bytes",
          "name": "_W_km",
          "type": "bytes"
        },
        {
          "internalType": "bytes",
          "name": "_W_kc",
          "type": "bytes"
        },
        {
          "internalType": "uint256",
          "name": "k",
          "type": "uint256"
        },
        {
          "internalType": "address",
          "name": "newChannelAddress",
          "type": "address"
        }
      ],
      "name": "transferDeposit",
      "outputs": [],
      "stateMutability": "nonpayable",
      "type": "function"
    },
    {
      "inputs": [],
      "name": "v",
      "outputs": [
        {
          "internalType": "uint256",
          "name": "",
          "type": "uint256"
        }
      ],
      "stateMutability": "view",
      "type": "function"
    },
    {
      "stateMutability": "payable",
      "type": "receive"
    }
  ],
  "devdoc": {
    "kind": "dev",
    "methods": {},
    "version": 1
  },
  "evm": {
    "assembly": "    /* \"channel.sol\":1124:5241  contract channel{... */\n  mstore(0x40, 0x80)\n    /* \"channel.sol\":1740:2191  constructor(bytes32 _W_jm, bytes32 _W_jc, string memory _S_id, uint256 _c, uint256 _v, uint256 _T_exp, uint256 _TD, uint256 _TR, address _costumer) payable {... */\n  mload(0x40)\n  sub(codesize, bytecodeSize)\n  dup1\n  bytecodeSize\n  dup4\n  codecopy\n  dup2\n  dup2\n  add\n  0x40\n  mstore\n  dup2\n  add\n  swap1\n  tag_1\n  swap2\n  swap1\n  tag_2\n  jump\t// in\ntag_1:\n    /* \"channel.sol\":1917:1926  _costumer */\n  dup1\n    /* \"channel.sol\":1906:1914  costumer */\n  0x01\n  0x00\n    /* \"channel.sol\":1906:1926  costumer = _costumer */\n  0x0100\n  exp\n  dup2\n  sload\n  dup2\n  0xffffffffffffffffffffffffffffffffffffffff\n  mul\n  not\n  and\n  swap1\n  dup4\n  0xffffffffffffffffffffffffffffffffffffffff\n  and\n  mul\n  or\n  swap1\n  sstore\n  pop\n    /* \"channel.sol\":1940:1941  0 */\n  0x00\n    /* \"channel.sol\":1936:1937  j */\n  dup1\n    /* \"channel.sol\":1936:1941  j = 0 */\n  dup2\n  swap1\n  sstore\n  pop\n    /* \"channel.sol\":1967:1972  _W_jm */\n  dup9\n    /* \"channel.sol\":1960:1964  W_jm */\n  0x02\n    /* \"channel.sol\":1960:1972  W_jm = _W_jm */\n  dup2\n  swap1\n  sstore\n  pop\n    /* \"channel.sol\":1989:1994  _W_jc */\n  dup8\n    /* \"channel.sol\":1982:1986  W_jc */\n  0x03\n    /* \"channel.sol\":1982:1994  W_jc = _W_jc */\n  dup2\n  swap1\n  sstore\n  pop\n    /* \"channel.sol\":2011:2016  _S_id */\n  dup7\n    /* \"channel.sol\":2004:2008  S_id */\n  0x04\n    /* \"channel.sol\":2004:2016  S_id = _S_id */\n  swap1\n  dup1\n  mload\n  swap1\n  0x20\n  add\n  swap1\n  tag_5\n  swap3\n  swap2\n  swap1\n  tag_6\n  jump\t// in\ntag_5:\n  pop\n    /* \"channel.sol\":2030:2032  _c */\n  dup6\n    /* \"channel.sol\":2026:2027  c */\n  0x05\n    /* \"channel.sol\":2026:2032  c = _c */\n  dup2\n  swap1\n  sstore\n  pop\n    /* \"channel.sol\":2046:2048  _v */\n  dup5\n    /* \"channel.sol\":2042:2043  v */\n  0x06\n    /* \"channel.sol\":2042:2048  v = _v */\n  dup2\n  swap1\n  sstore\n  pop\n    /* \"channel.sol\":2066:2081  block.timestamp */\n  timestamp\n    /* \"channel.sol\":2058:2063  start */\n  0x0a\n    /* \"channel.sol\":2058:2081  start = block.timestamp */\n  dup2\n  swap1\n  sstore\n  pop\n    /* \"channel.sol\":2133:2139  _T_exp */\n  dup4\n    /* \"channel.sol\":2125:2130  T_exp */\n  0x07\n    /* \"channel.sol\":2125:2139  T_exp = _T_exp */\n  dup2\n  swap1\n  sstore\n  pop\n    /* \"channel.sol\":2154:2157  _TD */\n  dup3\n    /* \"channel.sol\":2149:2151  TD */\n  0x08\n    /* \"channel.sol\":2149:2157  TD = _TD */\n  dup2\n  swap1\n  sstore\n  pop\n    /* \"channel.sol\":2172:2175  _TR */\n  dup2\n    /* \"channel.sol\":2167:2169  TR */\n  0x09\n    /* \"channel.sol\":2167:2175  TR = _TR */\n  dup2\n  swap1\n  sstore\n  pop\n    /* \"channel.sol\":1740:2191  constructor(bytes32 _W_jm, bytes32 _W_jc, string memory _S_id, uint256 _c, uint256 _v, uint256 _T_exp, uint256 _TD, uint256 _TR, address _costumer) payable {... */\n  pop\n  pop\n  pop\n  pop\n  pop\n  pop\n  pop\n  pop\n  pop\n    /* \"channel.sol\":1124:5241  contract channel{... */\n  jump(tag_7)\ntag_6:\n  dup3\n  dup1\n  sload\n  tag_8\n  swap1\n  tag_9\n  jump\t// in\ntag_8:\n  swap1\n  0x00\n  mstore\n  keccak256(0x00, 0x20)\n  swap1\n  0x1f\n  add\n  0x20\n  swap1\n  div\n  dup2\n  add\n  swap3\n  dup3\n  tag_11\n  jumpi\n  0x00\n  dup6\n  sstore\n  jump(tag_10)\ntag_11:\n  dup3\n  0x1f\n  lt\n  tag_12\n  jumpi\n  dup1\n  mload\n  not(0xff)\n  and\n  dup4\n  dup1\n  add\n  or\n  dup6\n  sstore\n  jump(tag_10)\ntag_12:\n  dup3\n  dup1\n  add\n  0x01\n  add\n  dup6\n  sstore\n  dup3\n  iszero\n  tag_10\n  jumpi\n  swap2\n  dup3\n  add\ntag_13:\n  dup3\n  dup2\n  gt\n  iszero\n  tag_14\n  jumpi\n  dup3\n  mload\n  dup3\n  sstore\n  swap2\n  0x20\n  add\n  swap2\n  swap1\n  0x01\n  add\n  swap1\n  jump(tag_13)\ntag_14:\ntag_10:\n  pop\n  swap1\n  pop\n  tag_15\n  swap2\n  swap1\n  tag_16\n  jump\t// in\ntag_15:\n  pop\n  swap1\n  jump\t// out\ntag_16:\ntag_17:\n  dup1\n  dup3\n  gt\n  iszero\n  tag_18\n  jumpi\n  0x00\n  dup2\n  0x00\n  swap1\n  sstore\n  pop\n  0x01\n  add\n  jump(tag_17)\ntag_18:\n  pop\n  swap1\n  jump\t// out\n    /* \"#utility.yul\":7:82   */\ntag_19:\n    /* \"#utility.yul\":40:46   */\n  0x00\n    /* \"#utility.yul\":73:75   */\n  0x40\n    /* \"#utility.yul\":67:76   */\n  mload\n    /* \"#utility.yul\":57:76   */\n  swap1\n  pop\n    /* \"#utility.yul\":7:82   */\n  swap1\n  jump\t// out\n    /* \"#utility.yul\":88:205   */\ntag_20:\n    /* \"#utility.yul\":197:198   */\n  0x00\n    /* \"#utility.yul\":194:195   */\n  dup1\n    /* \"#utility.yul\":187:199   */\n  revert\n    /* \"#utility.yul\":211:328   */\ntag_21:\n    /* \"#utility.yul\":320:321   */\n  0x00\n    /* \"#utility.yul\":317:318   */\n  dup1\n    /* \"#utility.yul\":310:322   */\n  revert\n    /* \"#utility.yul\":334:411   */\ntag_22:\n    /* \"#utility.yul\":371:378   */\n  0x00\n    /* \"#utility.yul\":400:405   */\n  dup2\n    /* \"#utility.yul\":389:405   */\n  swap1\n  pop\n    /* \"#utility.yul\":334:411   */\n  swap2\n  swap1\n  pop\n  jump\t// out\n    /* \"#utility.yul\":417:539   */\ntag_23:\n    /* \"#utility.yul\":490:514   */\n  tag_49\n    /* \"#utility.yul\":508:513   */\n  dup2\n    /* \"#utility.yul\":490:514   */\n  tag_22\n  jump\t// in\ntag_49:\n    /* \"#utility.yul\":483:488   */\n  dup2\n    /* \"#utility.yul\":480:515   */\n  eq\n    /* \"#utility.yul\":470:533   */\n  tag_50\n  jumpi\n    /* \"#utility.yul\":529:530   */\n  0x00\n    /* \"#utility.yul\":526:527   */\n  dup1\n    /* \"#utility.yul\":519:531   */\n  revert\n    /* \"#utility.yul\":470:533   */\ntag_50:\n    /* \"#utility.yul\":417:539   */\n  pop\n  jump\t// out\n    /* \"#utility.yul\":545:688   */\ntag_24:\n    /* \"#utility.yul\":602:607   */\n  0x00\n    /* \"#utility.yul\":633:639   */\n  dup2\n    /* \"#utility.yul\":627:640   */\n  mload\n    /* \"#utility.yul\":618:640   */\n  swap1\n  pop\n    /* \"#utility.yul\":649:682   */\n  tag_52\n    /* \"#utility.yul\":676:681   */\n  dup2\n    /* \"#utility.yul\":649:682   */\n  tag_23\n  jump\t// in\ntag_52:\n    /* \"#utility.yul\":545:688   */\n  swap3\n  swap2\n  pop\n  pop\n  jump\t// out\n    /* \"#utility.yul\":694:811   */\ntag_25:\n    /* \"#utility.yul\":803:804   */\n  0x00\n    /* \"#utility.yul\":800:801   */\n  dup1\n    /* \"#utility.yul\":793:805   */\n  revert\n    /* \"#utility.yul\":817:934   */\ntag_26:\n    /* \"#utility.yul\":926:927   */\n  0x00\n    /* \"#utility.yul\":923:924   */\n  dup1\n    /* \"#utility.yul\":916:928   */\n  revert\n    /* \"#utility.yul\":940:1042   */\ntag_27:\n    /* \"#utility.yul\":981:987   */\n  0x00\n    /* \"#utility.yul\":1032:1034   */\n  0x1f\n    /* \"#utility.yul\":1028:1035   */\n  not\n    /* \"#utility.yul\":1023:1025   */\n  0x1f\n    /* \"#utility.yul\":1016:1021   */\n  dup4\n    /* \"#utility.yul\":1012:1026   */\n  add\n    /* \"#utility.yul\":1008:1036   */\n  and\n    /* \"#utility.yul\":998:1036   */\n  swap1\n  pop\n    /* \"#utility.yul\":940:1042   */\n  swap2\n  swap1\n  pop\n  jump\t// out\n    /* \"#utility.yul\":1048:1228   */\ntag_28:\n    /* \"#utility.yul\":1096:1173   */\n  0x4e487b7100000000000000000000000000000000000000000000000000000000\n    /* \"#utility.yul\":1093:1094   */\n  0x00\n    /* \"#utility.yul\":1086:1174   */\n  mstore\n    /* \"#utility.yul\":1193:1197   */\n  0x41\n    /* \"#utility.yul\":1190:1191   */\n  0x04\n    /* \"#utility.yul\":1183:1198   */\n  mstore\n    /* \"#utility.yul\":1217:1221   */\n  0x24\n    /* \"#utility.yul\":1214:1215   */\n  0x00\n    /* \"#utility.yul\":1207:1222   */\n  revert\n    /* \"#utility.yul\":1234:1515   */\ntag_29:\n    /* \"#utility.yul\":1317:1344   */\n  tag_58\n    /* \"#utility.yul\":1339:1343   */\n  dup3\n    /* \"#utility.yul\":1317:1344   */\n  tag_27\n  jump\t// in\ntag_58:\n    /* \"#utility.yul\":1309:1315   */\n  dup2\n    /* \"#utility.yul\":1305:1345   */\n  add\n    /* \"#utility.yul\":1447:1453   */\n  dup2\n    /* \"#utility.yul\":1435:1445   */\n  dup2\n    /* \"#utility.yul\":1432:1454   */\n  lt\n    /* \"#utility.yul\":1411:1429   */\n  0xffffffffffffffff\n    /* \"#utility.yul\":1399:1409   */\n  dup3\n    /* \"#utility.yul\":1396:1430   */\n  gt\n    /* \"#utility.yul\":1393:1455   */\n  or\n    /* \"#utility.yul\":1390:1478   */\n  iszero\n  tag_59\n  jumpi\n    /* \"#utility.yul\":1458:1476   */\n  tag_60\n  tag_28\n  jump\t// in\ntag_60:\n    /* \"#utility.yul\":1390:1478   */\ntag_59:\n    /* \"#utility.yul\":1498:1508   */\n  dup1\n    /* \"#utility.yul\":1494:1496   */\n  0x40\n    /* \"#utility.yul\":1487:1509   */\n  mstore\n    /* \"#utility.yul\":1277:1515   */\n  pop\n    /* \"#utility.yul\":1234:1515   */\n  pop\n  pop\n  jump\t// out\n    /* \"#utility.yul\":1521:1650   */\ntag_30:\n    /* \"#utility.yul\":1555:1561   */\n  0x00\n    /* \"#utility.yul\":1582:1602   */\n  tag_62\n  tag_19\n  jump\t// in\ntag_62:\n    /* \"#utility.yul\":1572:1602   */\n  swap1\n  pop\n    /* \"#utility.yul\":1611:1644   */\n  tag_63\n    /* \"#utility.yul\":1639:1643   */\n  dup3\n    /* \"#utility.yul\":1631:1637   */\n  dup3\n    /* \"#utility.yul\":1611:1644   */\n  tag_29\n  jump\t// in\ntag_63:\n    /* \"#utility.yul\":1521:1650   */\n  swap2\n  swap1\n  pop\n  jump\t// out\n    /* \"#utility.yul\":1656:1964   */\ntag_31:\n    /* \"#utility.yul\":1718:1722   */\n  0x00\n    /* \"#utility.yul\":1808:1826   */\n  0xffffffffffffffff\n    /* \"#utility.yul\":1800:1806   */\n  dup3\n    /* \"#utility.yul\":1797:1827   */\n  gt\n    /* \"#utility.yul\":1794:1850   */\n  iszero\n  tag_65\n  jumpi\n    /* \"#utility.yul\":1830:1848   */\n  tag_66\n  tag_28\n  jump\t// in\ntag_66:\n    /* \"#utility.yul\":1794:1850   */\ntag_65:\n    /* \"#utility.yul\":1868:1897   */\n  tag_67\n    /* \"#utility.yul\":1890:1896   */\n  dup3\n    /* \"#utility.yul\":1868:1897   */\n  tag_27\n  jump\t// in\ntag_67:\n    /* \"#utility.yul\":1860:1897   */\n  swap1\n  pop\n    /* \"#utility.yul\":1952:1956   */\n  0x20\n    /* \"#utility.yul\":1946:1950   */\n  dup2\n    /* \"#utility.yul\":1942:1957   */\n  add\n    /* \"#utility.yul\":1934:1957   */\n  swap1\n  pop\n    /* \"#utility.yul\":1656:1964   */\n  swap2\n  swap1\n  pop\n  jump\t// out\n    /* \"#utility.yul\":1970:2277   */\ntag_32:\n    /* \"#utility.yul\":2038:2039   */\n  0x00\n    /* \"#utility.yul\":2048:2161   */\ntag_69:\n    /* \"#utility.yul\":2062:2068   */\n  dup4\n    /* \"#utility.yul\":2059:2060   */\n  dup2\n    /* \"#utility.yul\":2056:2069   */\n  lt\n    /* \"#utility.yul\":2048:2161   */\n  iszero\n  tag_71\n  jumpi\n    /* \"#utility.yul\":2147:2148   */\n  dup1\n    /* \"#utility.yul\":2142:2145   */\n  dup3\n    /* \"#utility.yul\":2138:2149   */\n  add\n    /* \"#utility.yul\":2132:2150   */\n  mload\n    /* \"#utility.yul\":2128:2129   */\n  dup2\n    /* \"#utility.yul\":2123:2126   */\n  dup5\n    /* \"#utility.yul\":2119:2130   */\n  add\n    /* \"#utility.yul\":2112:2151   */\n  mstore\n    /* \"#utility.yul\":2084:2086   */\n  0x20\n    /* \"#utility.yul\":2081:2082   */\n  dup2\n    /* \"#utility.yul\":2077:2087   */\n  add\n    /* \"#utility.yul\":2072:2087   */\n  swap1\n  pop\n    /* \"#utility.yul\":2048:2161   */\n  jump(tag_69)\ntag_71:\n    /* \"#utility.yul\":2179:2185   */\n  dup4\n    /* \"#utility.yul\":2176:2177   */\n  dup2\n    /* \"#utility.yul\":2173:2186   */\n  gt\n    /* \"#utility.yul\":2170:2271   */\n  iszero\n  tag_72\n  jumpi\n    /* \"#utility.yul\":2259:2260   */\n  0x00\n    /* \"#utility.yul\":2250:2256   */\n  dup5\n    /* \"#utility.yul\":2245:2248   */\n  dup5\n    /* \"#utility.yul\":2241:2257   */\n  add\n    /* \"#utility.yul\":2234:2261   */\n  mstore\n    /* \"#utility.yul\":2170:2271   */\ntag_72:\n    /* \"#utility.yul\":2019:2277   */\n  pop\n    /* \"#utility.yul\":1970:2277   */\n  pop\n  pop\n  pop\n  jump\t// out\n    /* \"#utility.yul\":2283:2704   */\ntag_33:\n    /* \"#utility.yul\":2372:2377   */\n  0x00\n    /* \"#utility.yul\":2397:2463   */\n  tag_74\n    /* \"#utility.yul\":2413:2462   */\n  tag_75\n    /* \"#utility.yul\":2455:2461   */\n  dup5\n    /* \"#utility.yul\":2413:2462   */\n  tag_31\n  jump\t// in\ntag_75:\n    /* \"#utility.yul\":2397:2463   */\n  tag_30\n  jump\t// in\ntag_74:\n    /* \"#utility.yul\":2388:2463   */\n  swap1\n  pop\n    /* \"#utility.yul\":2486:2492   */\n  dup3\n    /* \"#utility.yul\":2479:2484   */\n  dup2\n    /* \"#utility.yul\":2472:2493   */\n  mstore\n    /* \"#utility.yul\":2524:2528   */\n  0x20\n    /* \"#utility.yul\":2517:2522   */\n  dup2\n    /* \"#utility.yul\":2513:2529   */\n  add\n    /* \"#utility.yul\":2562:2565   */\n  dup5\n    /* \"#utility.yul\":2553:2559   */\n  dup5\n    /* \"#utility.yul\":2548:2551   */\n  dup5\n    /* \"#utility.yul\":2544:2560   */\n  add\n    /* \"#utility.yul\":2541:2566   */\n  gt\n    /* \"#utility.yul\":2538:2650   */\n  iszero\n  tag_76\n  jumpi\n    /* \"#utility.yul\":2569:2648   */\n  tag_77\n  tag_26\n  jump\t// in\ntag_77:\n    /* \"#utility.yul\":2538:2650   */\ntag_76:\n    /* \"#utility.yul\":2659:2698   */\n  tag_78\n    /* \"#utility.yul\":2691:2697   */\n  dup5\n    /* \"#utility.yul\":2686:2689   */\n  dup3\n    /* \"#utility.yul\":2681:2684   */\n  dup6\n    /* \"#utility.yul\":2659:2698   */\n  tag_32\n  jump\t// in\ntag_78:\n    /* \"#utility.yul\":2378:2704   */\n  pop\n    /* \"#utility.yul\":2283:2704   */\n  swap4\n  swap3\n  pop\n  pop\n  pop\n  jump\t// out\n    /* \"#utility.yul\":2724:3079   */\ntag_34:\n    /* \"#utility.yul\":2791:2796   */\n  0x00\n    /* \"#utility.yul\":2840:2843   */\n  dup3\n    /* \"#utility.yul\":2833:2837   */\n  0x1f\n    /* \"#utility.yul\":2825:2831   */\n  dup4\n    /* \"#utility.yul\":2821:2838   */\n  add\n    /* \"#utility.yul\":2817:2844   */\n  slt\n    /* \"#utility.yul\":2807:2929   */\n  tag_80\n  jumpi\n    /* \"#utility.yul\":2848:2927   */\n  tag_81\n  tag_25\n  jump\t// in\ntag_81:\n    /* \"#utility.yul\":2807:2929   */\ntag_80:\n    /* \"#utility.yul\":2958:2964   */\n  dup2\n    /* \"#utility.yul\":2952:2965   */\n  mload\n    /* \"#utility.yul\":2983:3073   */\n  tag_82\n    /* \"#utility.yul\":3069:3072   */\n  dup5\n    /* \"#utility.yul\":3061:3067   */\n  dup3\n    /* \"#utility.yul\":3054:3058   */\n  0x20\n    /* \"#utility.yul\":3046:3052   */\n  dup7\n    /* \"#utility.yul\":3042:3059   */\n  add\n    /* \"#utility.yul\":2983:3073   */\n  tag_33\n  jump\t// in\ntag_82:\n    /* \"#utility.yul\":2974:3073   */\n  swap2\n  pop\n    /* \"#utility.yul\":2797:3079   */\n  pop\n    /* \"#utility.yul\":2724:3079   */\n  swap3\n  swap2\n  pop\n  pop\n  jump\t// out\n    /* \"#utility.yul\":3085:3162   */\ntag_35:\n    /* \"#utility.yul\":3122:3129   */\n  0x00\n    /* \"#utility.yul\":3151:3156   */\n  dup2\n    /* \"#utility.yul\":3140:3156   */\n  swap1\n  pop\n    /* \"#utility.yul\":3085:3162   */\n  swap2\n  swap1\n  pop\n  jump\t// out\n    /* \"#utility.yul\":3168:3290   */\ntag_36:\n    /* \"#utility.yul\":3241:3265   */\n  tag_85\n    /* \"#utility.yul\":3259:3264   */\n  dup2\n    /* \"#utility.yul\":3241:3265   */\n  tag_35\n  jump\t// in\ntag_85:\n    /* \"#utility.yul\":3234:3239   */\n  dup2\n    /* \"#utility.yul\":3231:3266   */\n  eq\n    /* \"#utility.yul\":3221:3284   */\n  tag_86\n  jumpi\n    /* \"#utility.yul\":3280:3281   */\n  0x00\n    /* \"#utility.yul\":3277:3278   */\n  dup1\n    /* \"#utility.yul\":3270:3282   */\n  revert\n    /* \"#utility.yul\":3221:3284   */\ntag_86:\n    /* \"#utility.yul\":3168:3290   */\n  pop\n  jump\t// out\n    /* \"#utility.yul\":3296:3439   */\ntag_37:\n    /* \"#utility.yul\":3353:3358   */\n  0x00\n    /* \"#utility.yul\":3384:3390   */\n  dup2\n    /* \"#utility.yul\":3378:3391   */\n  mload\n    /* \"#utility.yul\":3369:3391   */\n  swap1\n  pop\n    /* \"#utility.yul\":3400:3433   */\n  tag_88\n    /* \"#utility.yul\":3427:3432   */\n  dup2\n    /* \"#utility.yul\":3400:3433   */\n  tag_36\n  jump\t// in\ntag_88:\n    /* \"#utility.yul\":3296:3439   */\n  swap3\n  swap2\n  pop\n  pop\n  jump\t// out\n    /* \"#utility.yul\":3445:3571   */\ntag_38:\n    /* \"#utility.yul\":3482:3489   */\n  0x00\n    /* \"#utility.yul\":3522:3564   */\n  0xffffffffffffffffffffffffffffffffffffffff\n    /* \"#utility.yul\":3515:3520   */\n  dup3\n    /* \"#utility.yul\":3511:3565   */\n  and\n    /* \"#utility.yul\":3500:3565   */\n  swap1\n  pop\n    /* \"#utility.yul\":3445:3571   */\n  swap2\n  swap1\n  pop\n  jump\t// out\n    /* \"#utility.yul\":3577:3673   */\ntag_39:\n    /* \"#utility.yul\":3614:3621   */\n  0x00\n    /* \"#utility.yul\":3643:3667   */\n  tag_91\n    /* \"#utility.yul\":3661:3666   */\n  dup3\n    /* \"#utility.yul\":3643:3667   */\n  tag_38\n  jump\t// in\ntag_91:\n    /* \"#utility.yul\":3632:3667   */\n  swap1\n  pop\n    /* \"#utility.yul\":3577:3673   */\n  swap2\n  swap1\n  pop\n  jump\t// out\n    /* \"#utility.yul\":3679:3801   */\ntag_40:\n    /* \"#utility.yul\":3752:3776   */\n  tag_93\n    /* \"#utility.yul\":3770:3775   */\n  dup2\n    /* \"#utility.yul\":3752:3776   */\n  tag_39\n  jump\t// in\ntag_93:\n    /* \"#utility.yul\":3745:3750   */\n  dup2\n    /* \"#utility.yul\":3742:3777   */\n  eq\n    /* \"#utility.yul\":3732:3795   */\n  tag_94\n  jumpi\n    /* \"#utility.yul\":3791:3792   */\n  0x00\n    /* \"#utility.yul\":3788:3789   */\n  dup1\n    /* \"#utility.yul\":3781:3793   */\n  revert\n    /* \"#utility.yul\":3732:3795   */\ntag_94:\n    /* \"#utility.yul\":3679:3801   */\n  pop\n  jump\t// out\n    /* \"#utility.yul\":3807:3950   */\ntag_41:\n    /* \"#utility.yul\":3864:3869   */\n  0x00\n    /* \"#utility.yul\":3895:3901   */\n  dup2\n    /* \"#utility.yul\":3889:3902   */\n  mload\n    /* \"#utility.yul\":3880:3902   */\n  swap1\n  pop\n    /* \"#utility.yul\":3911:3944   */\n  tag_96\n    /* \"#utility.yul\":3938:3943   */\n  dup2\n    /* \"#utility.yul\":3911:3944   */\n  tag_40\n  jump\t// in\ntag_96:\n    /* \"#utility.yul\":3807:3950   */\n  swap3\n  swap2\n  pop\n  pop\n  jump\t// out\n    /* \"#utility.yul\":3956:5734   */\ntag_2:\n    /* \"#utility.yul\":4108:4114   */\n  0x00\n    /* \"#utility.yul\":4116:4122   */\n  dup1\n    /* \"#utility.yul\":4124:4130   */\n  0x00\n    /* \"#utility.yul\":4132:4138   */\n  dup1\n    /* \"#utility.yul\":4140:4146   */\n  0x00\n    /* \"#utility.yul\":4148:4154   */\n  dup1\n    /* \"#utility.yul\":4156:4162   */\n  0x00\n    /* \"#utility.yul\":4164:4170   */\n  dup1\n    /* \"#utility.yul\":4172:4178   */\n  0x00\n    /* \"#utility.yul\":4221:4224   */\n  0x0120\n    /* \"#utility.yul\":4209:4218   */\n  dup11\n    /* \"#utility.yul\":4200:4207   */\n  dup13\n    /* \"#utility.yul\":4196:4219   */\n  sub\n    /* \"#utility.yul\":4192:4225   */\n  slt\n    /* \"#utility.yul\":4189:4309   */\n  iszero\n  tag_98\n  jumpi\n    /* \"#utility.yul\":4228:4307   */\n  tag_99\n  tag_20\n  jump\t// in\ntag_99:\n    /* \"#utility.yul\":4189:4309   */\ntag_98:\n    /* \"#utility.yul\":4348:4349   */\n  0x00\n    /* \"#utility.yul\":4373:4437   */\n  tag_100\n    /* \"#utility.yul\":4429:4436   */\n  dup13\n    /* \"#utility.yul\":4420:4426   */\n  dup3\n    /* \"#utility.yul\":4409:4418   */\n  dup14\n    /* \"#utility.yul\":4405:4427   */\n  add\n    /* \"#utility.yul\":4373:4437   */\n  tag_24\n  jump\t// in\ntag_100:\n    /* \"#utility.yul\":4363:4437   */\n  swap10\n  pop\n    /* \"#utility.yul\":4319:4447   */\n  pop\n    /* \"#utility.yul\":4486:4488   */\n  0x20\n    /* \"#utility.yul\":4512:4576   */\n  tag_101\n    /* \"#utility.yul\":4568:4575   */\n  dup13\n    /* \"#utility.yul\":4559:4565   */\n  dup3\n    /* \"#utility.yul\":4548:4557   */\n  dup14\n    /* \"#utility.yul\":4544:4566   */\n  add\n    /* \"#utility.yul\":4512:4576   */\n  tag_24\n  jump\t// in\ntag_101:\n    /* \"#utility.yul\":4502:4576   */\n  swap9\n  pop\n    /* \"#utility.yul\":4457:4586   */\n  pop\n    /* \"#utility.yul\":4646:4648   */\n  0x40\n    /* \"#utility.yul\":4635:4644   */\n  dup11\n    /* \"#utility.yul\":4631:4649   */\n  add\n    /* \"#utility.yul\":4625:4650   */\n  mload\n    /* \"#utility.yul\":4677:4695   */\n  0xffffffffffffffff\n    /* \"#utility.yul\":4669:4675   */\n  dup2\n    /* \"#utility.yul\":4666:4696   */\n  gt\n    /* \"#utility.yul\":4663:4780   */\n  iszero\n  tag_102\n  jumpi\n    /* \"#utility.yul\":4699:4778   */\n  tag_103\n  tag_21\n  jump\t// in\ntag_103:\n    /* \"#utility.yul\":4663:4780   */\ntag_102:\n    /* \"#utility.yul\":4804:4878   */\n  tag_104\n    /* \"#utility.yul\":4870:4877   */\n  dup13\n    /* \"#utility.yul\":4861:4867   */\n  dup3\n    /* \"#utility.yul\":4850:4859   */\n  dup14\n    /* \"#utility.yul\":4846:4868   */\n  add\n    /* \"#utility.yul\":4804:4878   */\n  tag_34\n  jump\t// in\ntag_104:\n    /* \"#utility.yul\":4794:4878   */\n  swap8\n  pop\n    /* \"#utility.yul\":4596:4888   */\n  pop\n    /* \"#utility.yul\":4927:4929   */\n  0x60\n    /* \"#utility.yul\":4953:5017   */\n  tag_105\n    /* \"#utility.yul\":5009:5016   */\n  dup13\n    /* \"#utility.yul\":5000:5006   */\n  dup3\n    /* \"#utility.yul\":4989:4998   */\n  dup14\n    /* \"#utility.yul\":4985:5007   */\n  add\n    /* \"#utility.yul\":4953:5017   */\n  tag_37\n  jump\t// in\ntag_105:\n    /* \"#utility.yul\":4943:5017   */\n  swap7\n  pop\n    /* \"#utility.yul\":4898:5027   */\n  pop\n    /* \"#utility.yul\":5066:5069   */\n  0x80\n    /* \"#utility.yul\":5093:5157   */\n  tag_106\n    /* \"#utility.yul\":5149:5156   */\n  dup13\n    /* \"#utility.yul\":5140:5146   */\n  dup3\n    /* \"#utility.yul\":5129:5138   */\n  dup14\n    /* \"#utility.yul\":5125:5147   */\n  add\n    /* \"#utility.yul\":5093:5157   */\n  tag_37\n  jump\t// in\ntag_106:\n    /* \"#utility.yul\":5083:5157   */\n  swap6\n  pop\n    /* \"#utility.yul\":5037:5167   */\n  pop\n    /* \"#utility.yul\":5206:5209   */\n  0xa0\n    /* \"#utility.yul\":5233:5297   */\n  tag_107\n    /* \"#utility.yul\":5289:5296   */\n  dup13\n    /* \"#utility.yul\":5280:5286   */\n  dup3\n    /* \"#utility.yul\":5269:5278   */\n  dup14\n    /* \"#utility.yul\":5265:5287   */\n  add\n    /* \"#utility.yul\":5233:5297   */\n  tag_37\n  jump\t// in\ntag_107:\n    /* \"#utility.yul\":5223:5297   */\n  swap5\n  pop\n    /* \"#utility.yul\":5177:5307   */\n  pop\n    /* \"#utility.yul\":5346:5349   */\n  0xc0\n    /* \"#utility.yul\":5373:5437   */\n  tag_108\n    /* \"#utility.yul\":5429:5436   */\n  dup13\n    /* \"#utility.yul\":5420:5426   */\n  dup3\n    /* \"#utility.yul\":5409:5418   */\n  dup14\n    /* \"#utility.yul\":5405:5427   */\n  add\n    /* \"#utility.yul\":5373:5437   */\n  tag_37\n  jump\t// in\ntag_108:\n    /* \"#utility.yul\":5363:5437   */\n  swap4\n  pop\n    /* \"#utility.yul\":5317:5447   */\n  pop\n    /* \"#utility.yul\":5486:5489   */\n  0xe0\n    /* \"#utility.yul\":5513:5577   */\n  tag_109\n    /* \"#utility.yul\":5569:5576   */\n  dup13\n    /* \"#utility.yul\":5560:5566   */\n  dup3\n    /* \"#utility.yul\":5549:5558   */\n  dup14\n    /* \"#utility.yul\":5545:5567   */\n  add\n    /* \"#utility.yul\":5513:5577   */\n  tag_37\n  jump\t// in\ntag_109:\n    /* \"#utility.yul\":5503:5577   */\n  swap3\n  pop\n    /* \"#utility.yul\":5457:5587   */\n  pop\n    /* \"#utility.yul\":5626:5629   */\n  0x0100\n    /* \"#utility.yul\":5653:5717   */\n  tag_110\n    /* \"#utility.yul\":5709:5716   */\n  dup13\n    /* \"#utility.yul\":5700:5706   */\n  dup3\n    /* \"#utility.yul\":5689:5698   */\n  dup14\n    /* \"#utility.yul\":5685:5707   */\n  add\n    /* \"#utility.yul\":5653:5717   */\n  tag_41\n  jump\t// in\ntag_110:\n    /* \"#utility.yul\":5643:5717   */\n  swap2\n  pop\n    /* \"#utility.yul\":5597:5727   */\n  pop\n    /* \"#utility.yul\":3956:5734   */\n  swap3\n  swap6\n  swap9\n  pop\n  swap3\n  swap6\n  swap9\n  pop\n  swap3\n  swap6\n  swap9\n  jump\t// out\n    /* \"#utility.yul\":5740:5920   */\ntag_42:\n    /* \"#utility.yul\":5788:5865   */\n  0x4e487b7100000000000000000000000000000000000000000000000000000000\n    /* \"#utility.yul\":5785:5786   */\n  0x00\n    /* \"#utility.yul\":5778:5866   */\n  mstore\n    /* \"#utility.yul\":5885:5889   */\n  0x22\n    /* \"#utility.yul\":5882:5883   */\n  0x04\n    /* \"#utility.yul\":5875:5890   */\n  mstore\n    /* \"#utility.yul\":5909:5913   */\n  0x24\n    /* \"#utility.yul\":5906:5907   */\n  0x00\n    /* \"#utility.yul\":5899:5914   */\n  revert\n    /* \"#utility.yul\":5926:6246   */\ntag_9:\n    /* \"#utility.yul\":5970:5976   */\n  0x00\n    /* \"#utility.yul\":6007:6008   */\n  0x02\n    /* \"#utility.yul\":6001:6005   */\n  dup3\n    /* \"#utility.yul\":5997:6009   */\n  div\n    /* \"#utility.yul\":5987:6009   */\n  swap1\n  pop\n    /* \"#utility.yul\":6054:6055   */\n  0x01\n    /* \"#utility.yul\":6048:6052   */\n  dup3\n    /* \"#utility.yul\":6044:6056   */\n  and\n    /* \"#utility.yul\":6075:6093   */\n  dup1\n    /* \"#utility.yul\":6065:6146   */\n  tag_113\n  jumpi\n    /* \"#utility.yul\":6131:6135   */\n  0x7f\n    /* \"#utility.yul\":6123:6129   */\n  dup3\n    /* \"#utility.yul\":6119:6136   */\n  and\n    /* \"#utility.yul\":6109:6136   */\n  swap2\n  pop\n    /* \"#utility.yul\":6065:6146   */\ntag_113:\n    /* \"#utility.yul\":6193:6195   */\n  0x20\n    /* \"#utility.yul\":6185:6191   */\n  dup3\n    /* \"#utility.yul\":6182:6196   */\n  lt\n    /* \"#utility.yul\":6162:6180   */\n  dup2\n    /* \"#utility.yul\":6159:6197   */\n  eq\n    /* \"#utility.yul\":6156:6240   */\n  iszero\n  tag_114\n  jumpi\n    /* \"#utility.yul\":6212:6230   */\n  tag_115\n  tag_42\n  jump\t// in\ntag_115:\n    /* \"#utility.yul\":6156:6240   */\ntag_114:\n    /* \"#utility.yul\":5977:6246   */\n  pop\n    /* \"#utility.yul\":5926:6246   */\n  swap2\n  swap1\n  pop\n  jump\t// out\n    /* \"channel.sol\":1124:5241  contract channel{... */\ntag_7:\n  dataSize(sub_0)\n  dup1\n  dataOffset(sub_0)\n  0x00\n  codecopy\n  0x00\n  return\nstop\n\nsub_0: assembly {\n        /* \"channel.sol\":1124:5241  contract channel{... */\n      mstore(0x40, 0x80)\n      jumpi(tag_1, lt(calldatasize, 0x04))\n      shr(0xe0, calldataload(0x00))\n      dup1\n      0x88bf1930\n      gt\n      tag_17\n      jumpi\n      dup1\n      0xbe9a6555\n      gt\n      tag_18\n      jumpi\n      dup1\n      0xbe9a6555\n      eq\n      tag_13\n      jumpi\n      dup1\n      0xc3da42b8\n      eq\n      tag_14\n      jumpi\n      dup1\n      0xd8befbb6\n      eq\n      tag_15\n      jumpi\n      dup1\n      0xf493e870\n      eq\n      tag_16\n      jumpi\n      jump(tag_2)\n    tag_18:\n      dup1\n      0x88bf1930\n      eq\n      tag_10\n      jumpi\n      dup1\n      0x9c21a9b8\n      eq\n      tag_11\n      jumpi\n      dup1\n      0xb582ec5f\n      eq\n      tag_12\n      jumpi\n      jump(tag_2)\n    tag_17:\n      dup1\n      0x5e650318\n      gt\n      tag_19\n      jumpi\n      dup1\n      0x5e650318\n      eq\n      tag_6\n      jumpi\n      dup1\n      0x7c2efcba\n      eq\n      tag_7\n      jumpi\n      dup1\n      0x8182a11f\n      eq\n      tag_8\n      jumpi\n      dup1\n      0x81a4a5f9\n      eq\n      tag_9\n      jumpi\n      jump(tag_2)\n    tag_19:\n      dup1\n      0x0482ff76\n      eq\n      tag_3\n      jumpi\n      dup1\n      0x24763493\n      eq\n      tag_4\n      jumpi\n      dup1\n      0x34133df9\n      eq\n      tag_5\n      jumpi\n      jump(tag_2)\n    tag_1:\n      jumpi(tag_2, calldatasize)\n        /* \"channel.sol\":4925:4946  address(this).balance */\n      selfbalance\n        /* \"channel.sol\":4921:4922  c */\n      0x05\n        /* \"channel.sol\":4921:4946  c = address(this).balance */\n      dup2\n      swap1\n      sstore\n      pop\n        /* \"channel.sol\":1124:5241  contract channel{... */\n      stop\n    tag_2:\n        /* \"channel.sol\":5063:5084  address(this).balance */\n      selfbalance\n        /* \"channel.sol\":5059:5060  c */\n      0x05\n        /* \"channel.sol\":5059:5084  c = address(this).balance */\n      dup2\n      swap1\n      sstore\n      pop\n        /* \"channel.sol\":1124:5241  contract channel{... */\n      stop\n        /* \"channel.sol\":4138:4384  function channelClose() public payable onlyOwner{... */\n    tag_3:\n      tag_24\n      tag_25\n      jump\t// in\n    tag_24:\n      stop\n        /* \"channel.sol\":1274:1292  string public S_id */\n    tag_4:\n      callvalue\n      dup1\n      iszero\n      tag_26\n      jumpi\n      0x00\n      dup1\n      revert\n    tag_26:\n      pop\n      tag_27\n      tag_28\n      jump\t// in\n    tag_27:\n      mload(0x40)\n      tag_29\n      swap2\n      swap1\n      tag_30\n      jump\t// in\n    tag_29:\n      mload(0x40)\n      dup1\n      swap2\n      sub\n      swap1\n      return\n        /* \"channel.sol\":1514:1531  uint256 public TR */\n    tag_5:\n      callvalue\n      dup1\n      iszero\n      tag_31\n      jumpi\n      0x00\n      dup1\n      revert\n    tag_31:\n      pop\n      tag_32\n      tag_33\n      jump\t// in\n    tag_32:\n      mload(0x40)\n      tag_34\n      swap2\n      swap1\n      tag_35\n      jump\t// in\n    tag_34:\n      mload(0x40)\n      dup1\n      swap2\n      sub\n      swap1\n      return\n        /* \"channel.sol\":1248:1267  bytes32 public W_jc */\n    tag_6:\n      callvalue\n      dup1\n      iszero\n      tag_36\n      jumpi\n      0x00\n      dup1\n      revert\n    tag_36:\n      pop\n      tag_37\n      tag_38\n      jump\t// in\n    tag_37:\n      mload(0x40)\n      tag_39\n      swap2\n      swap1\n      tag_40\n      jump\t// in\n    tag_39:\n      mload(0x40)\n      dup1\n      swap2\n      sub\n      swap1\n      return\n        /* \"channel.sol\":1372:1388  uint256 public v */\n    tag_7:\n      callvalue\n      dup1\n      iszero\n      tag_41\n      jumpi\n      0x00\n      dup1\n      revert\n    tag_41:\n      pop\n      tag_42\n      tag_43\n      jump\t// in\n    tag_42:\n      mload(0x40)\n      tag_44\n      swap2\n      swap1\n      tag_35\n      jump\t// in\n    tag_44:\n      mload(0x40)\n      dup1\n      swap2\n      sub\n      swap1\n      return\n        /* \"channel.sol\":2201:2289  function blocktimestamp() public returns(uint256){... */\n    tag_8:\n      callvalue\n      dup1\n      iszero\n      tag_45\n      jumpi\n      0x00\n      dup1\n      revert\n    tag_45:\n      pop\n      tag_46\n      tag_47\n      jump\t// in\n    tag_46:\n      mload(0x40)\n      tag_48\n      swap2\n      swap1\n      tag_35\n      jump\t// in\n    tag_48:\n      mload(0x40)\n      dup1\n      swap2\n      sub\n      swap1\n      return\n        /* \"channel.sol\":1168:1191  address public costumer */\n    tag_9:\n      callvalue\n      dup1\n      iszero\n      tag_49\n      jumpi\n      0x00\n      dup1\n      revert\n    tag_49:\n      pop\n      tag_50\n      tag_51\n      jump\t// in\n    tag_50:\n      mload(0x40)\n      tag_52\n      swap2\n      swap1\n      tag_53\n      jump\t// in\n    tag_52:\n      mload(0x40)\n      dup1\n      swap2\n      sub\n      swap1\n      return\n        /* \"channel.sol\":1223:1242  bytes32 public W_jm */\n    tag_10:\n      callvalue\n      dup1\n      iszero\n      tag_54\n      jumpi\n      0x00\n      dup1\n      revert\n    tag_54:\n      pop\n      tag_55\n      tag_56\n      jump\t// in\n    tag_55:\n      mload(0x40)\n      tag_57\n      swap2\n      swap1\n      tag_40\n      jump\t// in\n    tag_57:\n      mload(0x40)\n      dup1\n      swap2\n      sub\n      swap1\n      return\n        /* \"channel.sol\":1469:1486  uint256 public TD */\n    tag_11:\n      callvalue\n      dup1\n      iszero\n      tag_58\n      jumpi\n      0x00\n      dup1\n      revert\n    tag_58:\n      pop\n      tag_59\n      tag_60\n      jump\t// in\n    tag_59:\n      mload(0x40)\n      tag_61\n      swap2\n      swap1\n      tag_35\n      jump\t// in\n    tag_61:\n      mload(0x40)\n      dup1\n      swap2\n      sub\n      swap1\n      return\n        /* \"channel.sol\":1146:1162  uint256 public j */\n    tag_12:\n      callvalue\n      dup1\n      iszero\n      tag_62\n      jumpi\n      0x00\n      dup1\n      revert\n    tag_62:\n      pop\n      tag_63\n      tag_64\n      jump\t// in\n    tag_63:\n      mload(0x40)\n      tag_65\n      swap2\n      swap1\n      tag_35\n      jump\t// in\n    tag_65:\n      mload(0x40)\n      dup1\n      swap2\n      sub\n      swap1\n      return\n        /* \"channel.sol\":1565:1585  uint256 public start */\n    tag_13:\n      callvalue\n      dup1\n      iszero\n      tag_66\n      jumpi\n      0x00\n      dup1\n      revert\n    tag_66:\n      pop\n      tag_67\n      tag_68\n      jump\t// in\n    tag_67:\n      mload(0x40)\n      tag_69\n      swap2\n      swap1\n      tag_35\n      jump\t// in\n    tag_69:\n      mload(0x40)\n      dup1\n      swap2\n      sub\n      swap1\n      return\n        /* \"channel.sol\":1325:1341  uint256 public c */\n    tag_14:\n      callvalue\n      dup1\n      iszero\n      tag_70\n      jumpi\n      0x00\n      dup1\n      revert\n    tag_70:\n      pop\n      tag_71\n      tag_72\n      jump\t// in\n    tag_71:\n      mload(0x40)\n      tag_73\n      swap2\n      swap1\n      tag_35\n      jump\t// in\n    tag_73:\n      mload(0x40)\n      dup1\n      swap2\n      sub\n      swap1\n      return\n        /* \"channel.sol\":2534:4012  function transferDeposit(bytes memory _W_km, bytes memory _W_kc, uint256 k, address newChannelAddress) public {... */\n    tag_15:\n      callvalue\n      dup1\n      iszero\n      tag_74\n      jumpi\n      0x00\n      dup1\n      revert\n    tag_74:\n      pop\n      tag_75\n      0x04\n      dup1\n      calldatasize\n      sub\n      dup2\n      add\n      swap1\n      tag_76\n      swap2\n      swap1\n      tag_77\n      jump\t// in\n    tag_76:\n      tag_78\n      jump\t// in\n    tag_75:\n      stop\n        /* \"channel.sol\":1422:1442  uint256 public T_exp */\n    tag_16:\n      callvalue\n      dup1\n      iszero\n      tag_79\n      jumpi\n      0x00\n      dup1\n      revert\n    tag_79:\n      pop\n      tag_80\n      tag_81\n      jump\t// in\n    tag_80:\n      mload(0x40)\n      tag_82\n      swap2\n      swap1\n      tag_35\n      jump\t// in\n    tag_82:\n      mload(0x40)\n      dup1\n      swap2\n      sub\n      swap1\n      return\n        /* \"channel.sol\":4138:4384  function channelClose() public payable onlyOwner{... */\n    tag_25:\n        /* \"channel.sol\":5151:5159  costumer */\n      0x01\n      0x00\n      swap1\n      sload\n      swap1\n      0x0100\n      exp\n      swap1\n      div\n      0xffffffffffffffffffffffffffffffffffffffff\n      and\n        /* \"channel.sol\":5137:5159  msg.sender == costumer */\n      0xffffffffffffffffffffffffffffffffffffffff\n      and\n        /* \"channel.sol\":5137:5147  msg.sender */\n      caller\n        /* \"channel.sol\":5137:5159  msg.sender == costumer */\n      0xffffffffffffffffffffffffffffffffffffffff\n      and\n      eq\n        /* \"channel.sol\":5128:5221  require (msg.sender == costumer, \"Only merchant of the delivery can set the channel params.\") */\n      tag_84\n      jumpi\n      mload(0x40)\n      0x08c379a000000000000000000000000000000000000000000000000000000000\n      dup2\n      mstore\n      0x04\n      add\n      tag_85\n      swap1\n      tag_86\n      jump\t// in\n    tag_85:\n      mload(0x40)\n      dup1\n      swap2\n      sub\n      swap1\n      revert\n    tag_84:\n        /* \"channel.sol\":4273:4288  block.timestamp */\n      timestamp\n        /* \"channel.sol\":4268:4270  TD */\n      sload(0x08)\n        /* \"channel.sol\":4260:4265  T_exp */\n      sload(0x07)\n        /* \"channel.sol\":4260:4270  T_exp + TD */\n      tag_88\n      swap2\n      swap1\n      tag_89\n      jump\t// in\n    tag_88:\n        /* \"channel.sol\":4260:4288  T_exp + TD < block.timestamp */\n      lt\n        /* \"channel.sol\":4250:4334  require(((T_exp + TD < block.timestamp) /*&& (block.timestamp < T_exp + TD + TR)*/)) */\n      tag_90\n      jumpi\n      0x00\n      dup1\n      revert\n    tag_90:\n        /* \"channel.sol\":4365:4375  msg.sender */\n      caller\n        /* \"channel.sol\":4344:4377  selfdestruct(payable(msg.sender)) */\n      0xffffffffffffffffffffffffffffffffffffffff\n      and\n      selfdestruct\n        /* \"channel.sol\":1274:1292  string public S_id */\n    tag_28:\n      0x04\n      dup1\n      sload\n      tag_91\n      swap1\n      tag_92\n      jump\t// in\n    tag_91:\n      dup1\n      0x1f\n      add\n      0x20\n      dup1\n      swap2\n      div\n      mul\n      0x20\n      add\n      mload(0x40)\n      swap1\n      dup2\n      add\n      0x40\n      mstore\n      dup1\n      swap3\n      swap2\n      swap1\n      dup2\n      dup2\n      mstore\n      0x20\n      add\n      dup3\n      dup1\n      sload\n      tag_93\n      swap1\n      tag_92\n      jump\t// in\n    tag_93:\n      dup1\n      iszero\n      tag_94\n      jumpi\n      dup1\n      0x1f\n      lt\n      tag_95\n      jumpi\n      0x0100\n      dup1\n      dup4\n      sload\n      div\n      mul\n      dup4\n      mstore\n      swap2\n      0x20\n      add\n      swap2\n      jump(tag_94)\n    tag_95:\n      dup3\n      add\n      swap2\n      swap1\n      0x00\n      mstore\n      keccak256(0x00, 0x20)\n      swap1\n    tag_96:\n      dup2\n      sload\n      dup2\n      mstore\n      swap1\n      0x01\n      add\n      swap1\n      0x20\n      add\n      dup1\n      dup4\n      gt\n      tag_96\n      jumpi\n      dup3\n      swap1\n      sub\n      0x1f\n      and\n      dup3\n      add\n      swap2\n    tag_94:\n      pop\n      pop\n      pop\n      pop\n      pop\n      dup2\n      jump\t// out\n        /* \"channel.sol\":1514:1531  uint256 public TR */\n    tag_33:\n      sload(0x09)\n      dup2\n      jump\t// out\n        /* \"channel.sol\":1248:1267  bytes32 public W_jc */\n    tag_38:\n      sload(0x03)\n      dup2\n      jump\t// out\n        /* \"channel.sol\":1372:1388  uint256 public v */\n    tag_43:\n      sload(0x06)\n      dup2\n      jump\t// out\n        /* \"channel.sol\":2201:2289  function blocktimestamp() public returns(uint256){... */\n    tag_47:\n        /* \"channel.sol\":2242:2249  uint256 */\n      0x00\n        /* \"channel.sol\":2267:2282  block.timestamp */\n      timestamp\n        /* \"channel.sol\":2260:2282  return block.timestamp */\n      swap1\n      pop\n        /* \"channel.sol\":2201:2289  function blocktimestamp() public returns(uint256){... */\n      swap1\n      jump\t// out\n        /* \"channel.sol\":1168:1191  address public costumer */\n    tag_51:\n      0x01\n      0x00\n      swap1\n      sload\n      swap1\n      0x0100\n      exp\n      swap1\n      div\n      0xffffffffffffffffffffffffffffffffffffffff\n      and\n      dup2\n      jump\t// out\n        /* \"channel.sol\":1223:1242  bytes32 public W_jm */\n    tag_56:\n      sload(0x02)\n      dup2\n      jump\t// out\n        /* \"channel.sol\":1469:1486  uint256 public TD */\n    tag_60:\n      sload(0x08)\n      dup2\n      jump\t// out\n        /* \"channel.sol\":1146:1162  uint256 public j */\n    tag_64:\n      sload(0x00)\n      dup2\n      jump\t// out\n        /* \"channel.sol\":1565:1585  uint256 public start */\n    tag_68:\n      sload(0x0a)\n      dup2\n      jump\t// out\n        /* \"channel.sol\":1325:1341  uint256 public c */\n    tag_72:\n      sload(0x05)\n      dup2\n      jump\t// out\n        /* \"channel.sol\":2534:4012  function transferDeposit(bytes memory _W_km, bytes memory _W_kc, uint256 k, address newChannelAddress) public {... */\n    tag_78:\n        /* \"channel.sol\":2772:2774  TD */\n      sload(0x08)\n        /* \"channel.sol\":2764:2769  T_exp */\n      sload(0x07)\n        /* \"channel.sol\":2764:2774  T_exp + TD */\n      tag_99\n      swap2\n      swap1\n      tag_89\n      jump\t// in\n    tag_99:\n        /* \"channel.sol\":2745:2760  block.timestamp */\n      timestamp\n        /* \"channel.sol\":2745:2775  block.timestamp < (T_exp + TD) */\n      lt\n        /* \"channel.sol\":2705:2927  require (/*block.timestamp > T_exp &&*/ block.timestamp < (T_exp + TD) /*&& newChannelAddress == 0x0000000000000000000000000000000000000000) || ((T_exp + TD > block.timestamp) && (block.timestamp > T_exp))*/, \"Time error\") */\n      tag_100\n      jumpi\n      mload(0x40)\n      0x08c379a000000000000000000000000000000000000000000000000000000000\n      dup2\n      mstore\n      0x04\n      add\n      tag_101\n      swap1\n      tag_102\n      jump\t// in\n    tag_101:\n      mload(0x40)\n      dup1\n      swap2\n      sub\n      swap1\n      revert\n    tag_100:\n        /* \"channel.sol\":2959:2960  j */\n      sload(0x00)\n        /* \"channel.sol\":2955:2956  k */\n      dup3\n        /* \"channel.sol\":2955:2960  k > j */\n      gt\n        /* \"channel.sol\":2946:2971  require (k > j, \"k <= j\") */\n      tag_103\n      jumpi\n      mload(0x40)\n      0x08c379a000000000000000000000000000000000000000000000000000000000\n      dup2\n      mstore\n      0x04\n      add\n      tag_104\n      swap1\n      tag_105\n      jump\t// in\n    tag_104:\n      mload(0x40)\n      dup1\n      swap2\n      sub\n      swap1\n      revert\n    tag_103:\n        /* \"channel.sol\":2994:3009  uint256 balance */\n      0x00\n        /* \"channel.sol\":3019:3033  bytes32 hash_m */\n      dup1\n        /* \"channel.sol\":3044:3049  _W_km */\n      dup6\n        /* \"channel.sol\":3036:3050  bytes32(_W_km) */\n      tag_106\n      swap1\n      tag_107\n      jump\t// in\n    tag_106:\n        /* \"channel.sol\":3019:3050  bytes32 hash_m = bytes32(_W_km) */\n      swap1\n      pop\n        /* \"channel.sol\":3060:3074  bytes32 hash_c */\n      0x00\n        /* \"channel.sol\":3085:3090  _W_kc */\n      dup6\n        /* \"channel.sol\":3077:3091  bytes32(_W_kc) */\n      tag_108\n      swap1\n      tag_107\n      jump\t// in\n    tag_108:\n        /* \"channel.sol\":3060:3091  bytes32 hash_c = bytes32(_W_kc) */\n      swap1\n      pop\n        /* \"channel.sol\":3101:3110  uint256 i */\n      0x00\n        /* \"channel.sol\":3115:3116  j */\n      dup1\n      sload\n        /* \"channel.sol\":3113:3114  k */\n      dup7\n        /* \"channel.sol\":3113:3116  k-j */\n      tag_109\n      swap2\n      swap1\n      tag_110\n      jump\t// in\n    tag_109:\n        /* \"channel.sol\":3101:3116  uint256 i = k-j */\n      swap1\n      pop\n        /* \"channel.sol\":3135:3277  for (i; i!= 0; i--){... */\n    tag_111:\n        /* \"channel.sol\":3147:3148  0 */\n      0x00\n        /* \"channel.sol\":3143:3144  i */\n      dup2\n        /* \"channel.sol\":3143:3148  i!= 0 */\n      eq\n        /* \"channel.sol\":3135:3277  for (i; i!= 0; i--){... */\n      tag_112\n      jumpi\n        /* \"channel.sol\":3177:3210  sha256(abi.encodePacked (hash_m)) */\n      0x02\n        /* \"channel.sol\":3202:3208  hash_m */\n      dup4\n        /* \"channel.sol\":3184:3209  abi.encodePacked (hash_m) */\n      add(0x20, mload(0x40))\n      tag_114\n      swap2\n      swap1\n      tag_115\n      jump\t// in\n    tag_114:\n      mload(0x40)\n      0x20\n      dup2\n      dup4\n      sub\n      sub\n      dup2\n      mstore\n      swap1\n      0x40\n      mstore\n        /* \"channel.sol\":3177:3210  sha256(abi.encodePacked (hash_m)) */\n      mload(0x40)\n      tag_116\n      swap2\n      swap1\n      tag_117\n      jump\t// in\n    tag_116:\n      0x20\n      mload(0x40)\n      dup1\n      dup4\n      sub\n      dup2\n      dup6\n      gas\n      staticcall\n      iszero\n      dup1\n      iszero\n      tag_119\n      jumpi\n      returndatasize\n      0x00\n      dup1\n      returndatacopy\n      revert(0x00, returndatasize)\n    tag_119:\n      pop\n      pop\n      pop\n      mload(0x40)\n      returndatasize\n      not(0x1f)\n      0x1f\n      dup3\n      add\n      and\n      dup3\n      add\n      dup1\n      0x40\n      mstore\n      pop\n      dup2\n      add\n      swap1\n      tag_120\n      swap2\n      swap1\n      tag_121\n      jump\t// in\n    tag_120:\n        /* \"channel.sol\":3168:3210  hash_m = sha256(abi.encodePacked (hash_m)) */\n      swap3\n      pop\n        /* \"channel.sol\":3233:3265  sha256(abi.encodePacked(hash_c)) */\n      0x02\n        /* \"channel.sol\":3257:3263  hash_c */\n      dup3\n        /* \"channel.sol\":3240:3264  abi.encodePacked(hash_c) */\n      add(0x20, mload(0x40))\n      tag_122\n      swap2\n      swap1\n      tag_115\n      jump\t// in\n    tag_122:\n      mload(0x40)\n      0x20\n      dup2\n      dup4\n      sub\n      sub\n      dup2\n      mstore\n      swap1\n      0x40\n      mstore\n        /* \"channel.sol\":3233:3265  sha256(abi.encodePacked(hash_c)) */\n      mload(0x40)\n      tag_123\n      swap2\n      swap1\n      tag_117\n      jump\t// in\n    tag_123:\n      0x20\n      mload(0x40)\n      dup1\n      dup4\n      sub\n      dup2\n      dup6\n      gas\n      staticcall\n      iszero\n      dup1\n      iszero\n      tag_125\n      jumpi\n      returndatasize\n      0x00\n      dup1\n      returndatacopy\n      revert(0x00, returndatasize)\n    tag_125:\n      pop\n      pop\n      pop\n      mload(0x40)\n      returndatasize\n      not(0x1f)\n      0x1f\n      dup3\n      add\n      and\n      dup3\n      add\n      dup1\n      0x40\n      mstore\n      pop\n      dup2\n      add\n      swap1\n      tag_126\n      swap2\n      swap1\n      tag_121\n      jump\t// in\n    tag_126:\n        /* \"channel.sol\":3224:3265  hash_c = sha256(abi.encodePacked(hash_c)) */\n      swap2\n      pop\n        /* \"channel.sol\":3150:3153  i-- */\n      dup1\n      dup1\n      tag_127\n      swap1\n      tag_128\n      jump\t// in\n    tag_127:\n      swap2\n      pop\n      pop\n        /* \"channel.sol\":3135:3277  for (i; i!= 0; i--){... */\n      jump(tag_111)\n    tag_112:\n        /* \"channel.sol\":3304:3310  hash_m */\n      dup3\n        /* \"channel.sol\":3296:3300  W_jm */\n      sload(0x02)\n        /* \"channel.sol\":3296:3310  W_jm == hash_m */\n      eq\n        /* \"channel.sol\":3287:3332  require (W_jm == hash_m, \"W_km is incorrect\") */\n      tag_129\n      jumpi\n      mload(0x40)\n      0x08c379a000000000000000000000000000000000000000000000000000000000\n      dup2\n      mstore\n      0x04\n      add\n      tag_130\n      swap1\n      tag_131\n      jump\t// in\n    tag_130:\n      mload(0x40)\n      dup1\n      swap2\n      sub\n      swap1\n      revert\n    tag_129:\n        /* \"channel.sol\":3359:3365  hash_c */\n      dup2\n        /* \"channel.sol\":3351:3355  W_jc */\n      sload(0x03)\n        /* \"channel.sol\":3351:3365  W_jc == hash_c */\n      eq\n        /* \"channel.sol\":3342:3387  require (W_jc == hash_c, \"W_kc is incorrect\") */\n      tag_132\n      jumpi\n      mload(0x40)\n      0x08c379a000000000000000000000000000000000000000000000000000000000\n      dup2\n      mstore\n      0x04\n      add\n      tag_133\n      swap1\n      tag_134\n      jump\t// in\n    tag_133:\n      mload(0x40)\n      dup1\n      swap2\n      sub\n      swap1\n      revert\n    tag_132:\n        /* \"channel.sol\":3416:3417  0 */\n      0x00\n        /* \"channel.sol\":3411:3412  2 */\n      0x02\n        /* \"channel.sol\":3409:3410  k */\n      dup8\n        /* \"channel.sol\":3409:3412  k%2 */\n      tag_135\n      swap2\n      swap1\n      tag_136\n      jump\t// in\n    tag_135:\n        /* \"channel.sol\":3409:3417  k%2 == 0 */\n      eq\n        /* \"channel.sol\":3406:3512  if(k%2 == 0){... */\n      iszero\n      tag_137\n      jumpi\n        /* \"channel.sol\":3449:3450  2 */\n      0x02\n        /* \"channel.sol\":3446:3447  j */\n      sload(0x00)\n        /* \"channel.sol\":3444:3445  k */\n      dup8\n        /* \"channel.sol\":3444:3447  k-j */\n      tag_138\n      swap2\n      swap1\n      tag_110\n      jump\t// in\n    tag_138:\n        /* \"channel.sol\":3443:3450  (k-j)/2 */\n      tag_139\n      swap2\n      swap1\n      tag_140\n      jump\t// in\n    tag_139:\n        /* \"channel.sol\":3432:3451  balance = ((k-j)/2) */\n      swap4\n      pop\n        /* \"channel.sol\":3406:3512  if(k%2 == 0){... */\n      jump(tag_141)\n    tag_137:\n        /* \"channel.sol\":3499:3500  2 */\n      0x02\n        /* \"channel.sol\":3496:3497  1 */\n      0x01\n        /* \"channel.sol\":3494:3495  j */\n      sload(0x00)\n        /* \"channel.sol\":3492:3493  k */\n      dup9\n        /* \"channel.sol\":3492:3495  k-j */\n      tag_142\n      swap2\n      swap1\n      tag_110\n      jump\t// in\n    tag_142:\n        /* \"channel.sol\":3492:3497  k-j-1 */\n      tag_143\n      swap2\n      swap1\n      tag_110\n      jump\t// in\n    tag_143:\n        /* \"channel.sol\":3491:3500  (k-j-1)/2 */\n      tag_144\n      swap2\n      swap1\n      tag_140\n      jump\t// in\n    tag_144:\n        /* \"channel.sol\":3480:3501  balance = ((k-j-1)/2) */\n      swap4\n      pop\n        /* \"channel.sol\":3406:3512  if(k%2 == 0){... */\n    tag_141:\n        /* \"channel.sol\":3554:3596  0x0000000000000000000000000000000000000000 */\n      0x00\n        /* \"channel.sol\":3533:3596  newChannelAddress != 0x0000000000000000000000000000000000000000 */\n      0xffffffffffffffffffffffffffffffffffffffff\n      and\n        /* \"channel.sol\":3533:3550  newChannelAddress */\n      dup6\n        /* \"channel.sol\":3533:3596  newChannelAddress != 0x0000000000000000000000000000000000000000 */\n      0xffffffffffffffffffffffffffffffffffffffff\n      and\n      eq\n        /* \"channel.sol\":3530:3871  if(newChannelAddress != 0x0000000000000000000000000000000000000000){... */\n      tag_145\n      jumpi\n        /* \"channel.sol\":3654:3671  newChannelAddress */\n      dup5\n        /* \"channel.sol\":3646:3677  payable(newChannelAddress).call */\n      0xffffffffffffffffffffffffffffffffffffffff\n      and\n        /* \"channel.sol\":3693:3694  v */\n      sload(0x06)\n        /* \"channel.sol\":3685:3692  balance */\n      dup6\n        /* \"channel.sol\":3685:3694  balance*v */\n      tag_146\n      swap2\n      swap1\n      tag_147\n      jump\t// in\n    tag_146:\n        /* \"channel.sol\":3646:3699  payable(newChannelAddress).call{value: balance*v}(\"\") */\n      mload(0x40)\n      tag_148\n      swap1\n      tag_149\n      jump\t// in\n    tag_148:\n      0x00\n      mload(0x40)\n      dup1\n      dup4\n      sub\n      dup2\n      dup6\n      dup8\n      gas\n      call\n      swap3\n      pop\n      pop\n      pop\n      returndatasize\n      dup1\n      0x00\n      dup2\n      eq\n      tag_152\n      jumpi\n      mload(0x40)\n      swap2\n      pop\n      and(add(returndatasize, 0x3f), not(0x1f))\n      dup3\n      add\n      0x40\n      mstore\n      returndatasize\n      dup3\n      mstore\n      returndatasize\n      0x00\n      0x20\n      dup5\n      add\n      returndatacopy\n      jump(tag_151)\n    tag_152:\n      0x60\n      swap2\n      pop\n    tag_151:\n      pop\n      pop\n      pop\n        /* \"channel.sol\":3530:3871  if(newChannelAddress != 0x0000000000000000000000000000000000000000){... */\n      jump(tag_153)\n    tag_145:\n        /* \"channel.sol\":3813:3823  msg.sender */\n      caller\n        /* \"channel.sol\":3805:3833  payable(msg.sender).transfer */\n      0xffffffffffffffffffffffffffffffffffffffff\n      and\n        /* \"channel.sol\":3805:3860  payable(msg.sender).transfer(balance*v /* *(1 ether)*/) */\n      0x08fc\n        /* \"channel.sol\":3842:3843  v */\n      sload(0x06)\n        /* \"channel.sol\":3834:3841  balance */\n      dup7\n        /* \"channel.sol\":3834:3843  balance*v */\n      tag_154\n      swap2\n      swap1\n      tag_147\n      jump\t// in\n    tag_154:\n        /* \"channel.sol\":3805:3860  payable(msg.sender).transfer(balance*v /* *(1 ether)*/) */\n      swap1\n      dup2\n      iszero\n      mul\n      swap1\n      mload(0x40)\n      0x00\n      mload(0x40)\n      dup1\n      dup4\n      sub\n      dup2\n      dup6\n      dup9\n      dup9\n      call\n      swap4\n      pop\n      pop\n      pop\n      pop\n      iszero\n      dup1\n      iszero\n      tag_156\n      jumpi\n      returndatasize\n      0x00\n      dup1\n      returndatacopy\n      revert(0x00, returndatasize)\n    tag_156:\n      pop\n        /* \"channel.sol\":3530:3871  if(newChannelAddress != 0x0000000000000000000000000000000000000000){... */\n    tag_153:\n        /* \"channel.sol\":3910:3917  balance */\n      dup4\n        /* \"channel.sol\":3906:3907  c */\n      sload(0x05)\n        /* \"channel.sol\":3906:3917  c - balance */\n      tag_157\n      swap2\n      swap1\n      tag_110\n      jump\t// in\n    tag_157:\n        /* \"channel.sol\":3902:3903  c */\n      0x05\n        /* \"channel.sol\":3902:3917  c = c - balance */\n      dup2\n      swap1\n      sstore\n      pop\n        /* \"channel.sol\":3940:3941  k */\n      dup6\n        /* \"channel.sol\":3936:3937  j */\n      0x00\n        /* \"channel.sol\":3936:3941  j = k */\n      dup2\n      swap1\n      sstore\n      pop\n        /* \"channel.sol\":3967:3972  _W_km */\n      dup8\n        /* \"channel.sol\":3958:3973  bytes32 (_W_km) */\n      tag_158\n      swap1\n      tag_107\n      jump\t// in\n    tag_158:\n        /* \"channel.sol\":3951:3955  W_jm */\n      0x02\n        /* \"channel.sol\":3951:3973  W_jm = bytes32 (_W_km) */\n      dup2\n      swap1\n      sstore\n      pop\n        /* \"channel.sol\":3999:4004  _W_kc */\n      dup7\n        /* \"channel.sol\":3990:4005  bytes32 (_W_kc) */\n      tag_159\n      swap1\n      tag_107\n      jump\t// in\n    tag_159:\n        /* \"channel.sol\":3983:3987  W_jc */\n      0x03\n        /* \"channel.sol\":3983:4005  W_jc = bytes32 (_W_kc) */\n      dup2\n      swap1\n      sstore\n      pop\n        /* \"channel.sol\":2644:4012  {... */\n      pop\n      pop\n      pop\n      pop\n        /* \"channel.sol\":2534:4012  function transferDeposit(bytes memory _W_km, bytes memory _W_kc, uint256 k, address newChannelAddress) public {... */\n      pop\n      pop\n      pop\n      pop\n      jump\t// out\n        /* \"channel.sol\":1422:1442  uint256 public T_exp */\n    tag_81:\n      sload(0x07)\n      dup2\n      jump\t// out\n        /* \"#utility.yul\":7:106   */\n    tag_160:\n        /* \"#utility.yul\":59:65   */\n      0x00\n        /* \"#utility.yul\":93:98   */\n      dup2\n        /* \"#utility.yul\":87:99   */\n      mload\n        /* \"#utility.yul\":77:99   */\n      swap1\n      pop\n        /* \"#utility.yul\":7:106   */\n      swap2\n      swap1\n      pop\n      jump\t// out\n        /* \"#utility.yul\":112:281   */\n    tag_161:\n        /* \"#utility.yul\":196:207   */\n      0x00\n        /* \"#utility.yul\":230:236   */\n      dup3\n        /* \"#utility.yul\":225:228   */\n      dup3\n        /* \"#utility.yul\":218:237   */\n      mstore\n        /* \"#utility.yul\":270:274   */\n      0x20\n        /* \"#utility.yul\":265:268   */\n      dup3\n        /* \"#utility.yul\":261:275   */\n      add\n        /* \"#utility.yul\":246:275   */\n      swap1\n      pop\n        /* \"#utility.yul\":112:281   */\n      swap3\n      swap2\n      pop\n      pop\n      jump\t// out\n        /* \"#utility.yul\":287:594   */\n    tag_162:\n        /* \"#utility.yul\":355:356   */\n      0x00\n        /* \"#utility.yul\":365:478   */\n    tag_217:\n        /* \"#utility.yul\":379:385   */\n      dup4\n        /* \"#utility.yul\":376:377   */\n      dup2\n        /* \"#utility.yul\":373:386   */\n      lt\n        /* \"#utility.yul\":365:478   */\n      iszero\n      tag_219\n      jumpi\n        /* \"#utility.yul\":464:465   */\n      dup1\n        /* \"#utility.yul\":459:462   */\n      dup3\n        /* \"#utility.yul\":455:466   */\n      add\n        /* \"#utility.yul\":449:467   */\n      mload\n        /* \"#utility.yul\":445:446   */\n      dup2\n        /* \"#utility.yul\":440:443   */\n      dup5\n        /* \"#utility.yul\":436:447   */\n      add\n        /* \"#utility.yul\":429:468   */\n      mstore\n        /* \"#utility.yul\":401:403   */\n      0x20\n        /* \"#utility.yul\":398:399   */\n      dup2\n        /* \"#utility.yul\":394:404   */\n      add\n        /* \"#utility.yul\":389:404   */\n      swap1\n      pop\n        /* \"#utility.yul\":365:478   */\n      jump(tag_217)\n    tag_219:\n        /* \"#utility.yul\":496:502   */\n      dup4\n        /* \"#utility.yul\":493:494   */\n      dup2\n        /* \"#utility.yul\":490:503   */\n      gt\n        /* \"#utility.yul\":487:588   */\n      iszero\n      tag_220\n      jumpi\n        /* \"#utility.yul\":576:577   */\n      0x00\n        /* \"#utility.yul\":567:573   */\n      dup5\n        /* \"#utility.yul\":562:565   */\n      dup5\n        /* \"#utility.yul\":558:574   */\n      add\n        /* \"#utility.yul\":551:578   */\n      mstore\n        /* \"#utility.yul\":487:588   */\n    tag_220:\n        /* \"#utility.yul\":336:594   */\n      pop\n        /* \"#utility.yul\":287:594   */\n      pop\n      pop\n      pop\n      jump\t// out\n        /* \"#utility.yul\":600:702   */\n    tag_163:\n        /* \"#utility.yul\":641:647   */\n      0x00\n        /* \"#utility.yul\":692:694   */\n      0x1f\n        /* \"#utility.yul\":688:695   */\n      not\n        /* \"#utility.yul\":683:685   */\n      0x1f\n        /* \"#utility.yul\":676:681   */\n      dup4\n        /* \"#utility.yul\":672:686   */\n      add\n        /* \"#utility.yul\":668:696   */\n      and\n        /* \"#utility.yul\":658:696   */\n      swap1\n      pop\n        /* \"#utility.yul\":600:702   */\n      swap2\n      swap1\n      pop\n      jump\t// out\n        /* \"#utility.yul\":708:1072   */\n    tag_164:\n        /* \"#utility.yul\":796:799   */\n      0x00\n        /* \"#utility.yul\":824:863   */\n      tag_223\n        /* \"#utility.yul\":857:862   */\n      dup3\n        /* \"#utility.yul\":824:863   */\n      tag_160\n      jump\t// in\n    tag_223:\n        /* \"#utility.yul\":879:950   */\n      tag_224\n        /* \"#utility.yul\":943:949   */\n      dup2\n        /* \"#utility.yul\":938:941   */\n      dup6\n        /* \"#utility.yul\":879:950   */\n      tag_161\n      jump\t// in\n    tag_224:\n        /* \"#utility.yul\":872:950   */\n      swap4\n      pop\n        /* \"#utility.yul\":959:1011   */\n      tag_225\n        /* \"#utility.yul\":1004:1010   */\n      dup2\n        /* \"#utility.yul\":999:1002   */\n      dup6\n        /* \"#utility.yul\":992:996   */\n      0x20\n        /* \"#utility.yul\":985:990   */\n      dup7\n        /* \"#utility.yul\":981:997   */\n      add\n        /* \"#utility.yul\":959:1011   */\n      tag_162\n      jump\t// in\n    tag_225:\n        /* \"#utility.yul\":1036:1065   */\n      tag_226\n        /* \"#utility.yul\":1058:1064   */\n      dup2\n        /* \"#utility.yul\":1036:1065   */\n      tag_163\n      jump\t// in\n    tag_226:\n        /* \"#utility.yul\":1031:1034   */\n      dup5\n        /* \"#utility.yul\":1027:1066   */\n      add\n        /* \"#utility.yul\":1020:1066   */\n      swap2\n      pop\n        /* \"#utility.yul\":800:1072   */\n      pop\n        /* \"#utility.yul\":708:1072   */\n      swap3\n      swap2\n      pop\n      pop\n      jump\t// out\n        /* \"#utility.yul\":1078:1391   */\n    tag_30:\n        /* \"#utility.yul\":1191:1195   */\n      0x00\n        /* \"#utility.yul\":1229:1231   */\n      0x20\n        /* \"#utility.yul\":1218:1227   */\n      dup3\n        /* \"#utility.yul\":1214:1232   */\n      add\n        /* \"#utility.yul\":1206:1232   */\n      swap1\n      pop\n        /* \"#utility.yul\":1278:1287   */\n      dup2\n        /* \"#utility.yul\":1272:1276   */\n      dup2\n        /* \"#utility.yul\":1268:1288   */\n      sub\n        /* \"#utility.yul\":1264:1265   */\n      0x00\n        /* \"#utility.yul\":1253:1262   */\n      dup4\n        /* \"#utility.yul\":1249:1266   */\n      add\n        /* \"#utility.yul\":1242:1289   */\n      mstore\n        /* \"#utility.yul\":1306:1384   */\n      tag_228\n        /* \"#utility.yul\":1379:1383   */\n      dup2\n        /* \"#utility.yul\":1370:1376   */\n      dup5\n        /* \"#utility.yul\":1306:1384   */\n      tag_164\n      jump\t// in\n    tag_228:\n        /* \"#utility.yul\":1298:1384   */\n      swap1\n      pop\n        /* \"#utility.yul\":1078:1391   */\n      swap3\n      swap2\n      pop\n      pop\n      jump\t// out\n        /* \"#utility.yul\":1397:1474   */\n    tag_165:\n        /* \"#utility.yul\":1434:1441   */\n      0x00\n        /* \"#utility.yul\":1463:1468   */\n      dup2\n        /* \"#utility.yul\":1452:1468   */\n      swap1\n      pop\n        /* \"#utility.yul\":1397:1474   */\n      swap2\n      swap1\n      pop\n      jump\t// out\n        /* \"#utility.yul\":1480:1598   */\n    tag_166:\n        /* \"#utility.yul\":1567:1591   */\n      tag_231\n        /* \"#utility.yul\":1585:1590   */\n      dup2\n        /* \"#utility.yul\":1567:1591   */\n      tag_165\n      jump\t// in\n    tag_231:\n        /* \"#utility.yul\":1562:1565   */\n      dup3\n        /* \"#utility.yul\":1555:1592   */\n      mstore\n        /* \"#utility.yul\":1480:1598   */\n      pop\n      pop\n      jump\t// out\n        /* \"#utility.yul\":1604:1826   */\n    tag_35:\n        /* \"#utility.yul\":1697:1701   */\n      0x00\n        /* \"#utility.yul\":1735:1737   */\n      0x20\n        /* \"#utility.yul\":1724:1733   */\n      dup3\n        /* \"#utility.yul\":1720:1738   */\n      add\n        /* \"#utility.yul\":1712:1738   */\n      swap1\n      pop\n        /* \"#utility.yul\":1748:1819   */\n      tag_233\n        /* \"#utility.yul\":1816:1817   */\n      0x00\n        /* \"#utility.yul\":1805:1814   */\n      dup4\n        /* \"#utility.yul\":1801:1818   */\n      add\n        /* \"#utility.yul\":1792:1798   */\n      dup5\n        /* \"#utility.yul\":1748:1819   */\n      tag_166\n      jump\t// in\n    tag_233:\n        /* \"#utility.yul\":1604:1826   */\n      swap3\n      swap2\n      pop\n      pop\n      jump\t// out\n        /* \"#utility.yul\":1832:1909   */\n    tag_167:\n        /* \"#utility.yul\":1869:1876   */\n      0x00\n        /* \"#utility.yul\":1898:1903   */\n      dup2\n        /* \"#utility.yul\":1887:1903   */\n      swap1\n      pop\n        /* \"#utility.yul\":1832:1909   */\n      swap2\n      swap1\n      pop\n      jump\t// out\n        /* \"#utility.yul\":1915:2033   */\n    tag_168:\n        /* \"#utility.yul\":2002:2026   */\n      tag_236\n        /* \"#utility.yul\":2020:2025   */\n      dup2\n        /* \"#utility.yul\":2002:2026   */\n      tag_167\n      jump\t// in\n    tag_236:\n        /* \"#utility.yul\":1997:2000   */\n      dup3\n        /* \"#utility.yul\":1990:2027   */\n      mstore\n        /* \"#utility.yul\":1915:2033   */\n      pop\n      pop\n      jump\t// out\n        /* \"#utility.yul\":2039:2261   */\n    tag_40:\n        /* \"#utility.yul\":2132:2136   */\n      0x00\n        /* \"#utility.yul\":2170:2172   */\n      0x20\n        /* \"#utility.yul\":2159:2168   */\n      dup3\n        /* \"#utility.yul\":2155:2173   */\n      add\n        /* \"#utility.yul\":2147:2173   */\n      swap1\n      pop\n        /* \"#utility.yul\":2183:2254   */\n      tag_238\n        /* \"#utility.yul\":2251:2252   */\n      0x00\n        /* \"#utility.yul\":2240:2249   */\n      dup4\n        /* \"#utility.yul\":2236:2253   */\n      add\n        /* \"#utility.yul\":2227:2233   */\n      dup5\n        /* \"#utility.yul\":2183:2254   */\n      tag_168\n      jump\t// in\n    tag_238:\n        /* \"#utility.yul\":2039:2261   */\n      swap3\n      swap2\n      pop\n      pop\n      jump\t// out\n        /* \"#utility.yul\":2267:2393   */\n    tag_169:\n        /* \"#utility.yul\":2304:2311   */\n      0x00\n        /* \"#utility.yul\":2344:2386   */\n      0xffffffffffffffffffffffffffffffffffffffff\n        /* \"#utility.yul\":2337:2342   */\n      dup3\n        /* \"#utility.yul\":2333:2387   */\n      and\n        /* \"#utility.yul\":2322:2387   */\n      swap1\n      pop\n        /* \"#utility.yul\":2267:2393   */\n      swap2\n      swap1\n      pop\n      jump\t// out\n        /* \"#utility.yul\":2399:2495   */\n    tag_170:\n        /* \"#utility.yul\":2436:2443   */\n      0x00\n        /* \"#utility.yul\":2465:2489   */\n      tag_241\n        /* \"#utility.yul\":2483:2488   */\n      dup3\n        /* \"#utility.yul\":2465:2489   */\n      tag_169\n      jump\t// in\n    tag_241:\n        /* \"#utility.yul\":2454:2489   */\n      swap1\n      pop\n        /* \"#utility.yul\":2399:2495   */\n      swap2\n      swap1\n      pop\n      jump\t// out\n        /* \"#utility.yul\":2501:2619   */\n    tag_171:\n        /* \"#utility.yul\":2588:2612   */\n      tag_243\n        /* \"#utility.yul\":2606:2611   */\n      dup2\n        /* \"#utility.yul\":2588:2612   */\n      tag_170\n      jump\t// in\n    tag_243:\n        /* \"#utility.yul\":2583:2586   */\n      dup3\n        /* \"#utility.yul\":2576:2613   */\n      mstore\n        /* \"#utility.yul\":2501:2619   */\n      pop\n      pop\n      jump\t// out\n        /* \"#utility.yul\":2625:2847   */\n    tag_53:\n        /* \"#utility.yul\":2718:2722   */\n      0x00\n        /* \"#utility.yul\":2756:2758   */\n      0x20\n        /* \"#utility.yul\":2745:2754   */\n      dup3\n        /* \"#utility.yul\":2741:2759   */\n      add\n        /* \"#utility.yul\":2733:2759   */\n      swap1\n      pop\n        /* \"#utility.yul\":2769:2840   */\n      tag_245\n        /* \"#utility.yul\":2837:2838   */\n      0x00\n        /* \"#utility.yul\":2826:2835   */\n      dup4\n        /* \"#utility.yul\":2822:2839   */\n      add\n        /* \"#utility.yul\":2813:2819   */\n      dup5\n        /* \"#utility.yul\":2769:2840   */\n      tag_171\n      jump\t// in\n    tag_245:\n        /* \"#utility.yul\":2625:2847   */\n      swap3\n      swap2\n      pop\n      pop\n      jump\t// out\n        /* \"#utility.yul\":2853:2928   */\n    tag_172:\n        /* \"#utility.yul\":2886:2892   */\n      0x00\n        /* \"#utility.yul\":2919:2921   */\n      0x40\n        /* \"#utility.yul\":2913:2922   */\n      mload\n        /* \"#utility.yul\":2903:2922   */\n      swap1\n      pop\n        /* \"#utility.yul\":2853:2928   */\n      swap1\n      jump\t// out\n        /* \"#utility.yul\":2934:3051   */\n    tag_173:\n        /* \"#utility.yul\":3043:3044   */\n      0x00\n        /* \"#utility.yul\":3040:3041   */\n      dup1\n        /* \"#utility.yul\":3033:3045   */\n      revert\n        /* \"#utility.yul\":3057:3174   */\n    tag_174:\n        /* \"#utility.yul\":3166:3167   */\n      0x00\n        /* \"#utility.yul\":3163:3164   */\n      dup1\n        /* \"#utility.yul\":3156:3168   */\n      revert\n        /* \"#utility.yul\":3180:3297   */\n    tag_175:\n        /* \"#utility.yul\":3289:3290   */\n      0x00\n        /* \"#utility.yul\":3286:3287   */\n      dup1\n        /* \"#utility.yul\":3279:3291   */\n      revert\n        /* \"#utility.yul\":3303:3420   */\n    tag_176:\n        /* \"#utility.yul\":3412:3413   */\n      0x00\n        /* \"#utility.yul\":3409:3410   */\n      dup1\n        /* \"#utility.yul\":3402:3414   */\n      revert\n        /* \"#utility.yul\":3426:3606   */\n    tag_177:\n        /* \"#utility.yul\":3474:3551   */\n      0x4e487b7100000000000000000000000000000000000000000000000000000000\n        /* \"#utility.yul\":3471:3472   */\n      0x00\n        /* \"#utility.yul\":3464:3552   */\n      mstore\n        /* \"#utility.yul\":3571:3575   */\n      0x41\n        /* \"#utility.yul\":3568:3569   */\n      0x04\n        /* \"#utility.yul\":3561:3576   */\n      mstore\n        /* \"#utility.yul\":3595:3599   */\n      0x24\n        /* \"#utility.yul\":3592:3593   */\n      0x00\n        /* \"#utility.yul\":3585:3600   */\n      revert\n        /* \"#utility.yul\":3612:3893   */\n    tag_178:\n        /* \"#utility.yul\":3695:3722   */\n      tag_253\n        /* \"#utility.yul\":3717:3721   */\n      dup3\n        /* \"#utility.yul\":3695:3722   */\n      tag_163\n      jump\t// in\n    tag_253:\n        /* \"#utility.yul\":3687:3693   */\n      dup2\n        /* \"#utility.yul\":3683:3723   */\n      add\n        /* \"#utility.yul\":3825:3831   */\n      dup2\n        /* \"#utility.yul\":3813:3823   */\n      dup2\n        /* \"#utility.yul\":3810:3832   */\n      lt\n        /* \"#utility.yul\":3789:3807   */\n      0xffffffffffffffff\n        /* \"#utility.yul\":3777:3787   */\n      dup3\n        /* \"#utility.yul\":3774:3808   */\n      gt\n        /* \"#utility.yul\":3771:3833   */\n      or\n        /* \"#utility.yul\":3768:3856   */\n      iszero\n      tag_254\n      jumpi\n        /* \"#utility.yul\":3836:3854   */\n      tag_255\n      tag_177\n      jump\t// in\n    tag_255:\n        /* \"#utility.yul\":3768:3856   */\n    tag_254:\n        /* \"#utility.yul\":3876:3886   */\n      dup1\n        /* \"#utility.yul\":3872:3874   */\n      0x40\n        /* \"#utility.yul\":3865:3887   */\n      mstore\n        /* \"#utility.yul\":3655:3893   */\n      pop\n        /* \"#utility.yul\":3612:3893   */\n      pop\n      pop\n      jump\t// out\n        /* \"#utility.yul\":3899:4028   */\n    tag_179:\n        /* \"#utility.yul\":3933:3939   */\n      0x00\n        /* \"#utility.yul\":3960:3980   */\n      tag_257\n      tag_172\n      jump\t// in\n    tag_257:\n        /* \"#utility.yul\":3950:3980   */\n      swap1\n      pop\n        /* \"#utility.yul\":3989:4022   */\n      tag_258\n        /* \"#utility.yul\":4017:4021   */\n      dup3\n        /* \"#utility.yul\":4009:4015   */\n      dup3\n        /* \"#utility.yul\":3989:4022   */\n      tag_178\n      jump\t// in\n    tag_258:\n        /* \"#utility.yul\":3899:4028   */\n      swap2\n      swap1\n      pop\n      jump\t// out\n        /* \"#utility.yul\":4034:4341   */\n    tag_180:\n        /* \"#utility.yul\":4095:4099   */\n      0x00\n        /* \"#utility.yul\":4185:4203   */\n      0xffffffffffffffff\n        /* \"#utility.yul\":4177:4183   */\n      dup3\n        /* \"#utility.yul\":4174:4204   */\n      gt\n        /* \"#utility.yul\":4171:4227   */\n      iszero\n      tag_260\n      jumpi\n        /* \"#utility.yul\":4207:4225   */\n      tag_261\n      tag_177\n      jump\t// in\n    tag_261:\n        /* \"#utility.yul\":4171:4227   */\n    tag_260:\n        /* \"#utility.yul\":4245:4274   */\n      tag_262\n        /* \"#utility.yul\":4267:4273   */\n      dup3\n        /* \"#utility.yul\":4245:4274   */\n      tag_163\n      jump\t// in\n    tag_262:\n        /* \"#utility.yul\":4237:4274   */\n      swap1\n      pop\n        /* \"#utility.yul\":4329:4333   */\n      0x20\n        /* \"#utility.yul\":4323:4327   */\n      dup2\n        /* \"#utility.yul\":4319:4334   */\n      add\n        /* \"#utility.yul\":4311:4334   */\n      swap1\n      pop\n        /* \"#utility.yul\":4034:4341   */\n      swap2\n      swap1\n      pop\n      jump\t// out\n        /* \"#utility.yul\":4347:4501   */\n    tag_181:\n        /* \"#utility.yul\":4431:4437   */\n      dup3\n        /* \"#utility.yul\":4426:4429   */\n      dup2\n        /* \"#utility.yul\":4421:4424   */\n      dup4\n        /* \"#utility.yul\":4408:4438   */\n      calldatacopy\n        /* \"#utility.yul\":4493:4494   */\n      0x00\n        /* \"#utility.yul\":4484:4490   */\n      dup4\n        /* \"#utility.yul\":4479:4482   */\n      dup4\n        /* \"#utility.yul\":4475:4491   */\n      add\n        /* \"#utility.yul\":4468:4495   */\n      mstore\n        /* \"#utility.yul\":4347:4501   */\n      pop\n      pop\n      pop\n      jump\t// out\n        /* \"#utility.yul\":4507:4917   */\n    tag_182:\n        /* \"#utility.yul\":4584:4589   */\n      0x00\n        /* \"#utility.yul\":4609:4674   */\n      tag_265\n        /* \"#utility.yul\":4625:4673   */\n      tag_266\n        /* \"#utility.yul\":4666:4672   */\n      dup5\n        /* \"#utility.yul\":4625:4673   */\n      tag_180\n      jump\t// in\n    tag_266:\n        /* \"#utility.yul\":4609:4674   */\n      tag_179\n      jump\t// in\n    tag_265:\n        /* \"#utility.yul\":4600:4674   */\n      swap1\n      pop\n        /* \"#utility.yul\":4697:4703   */\n      dup3\n        /* \"#utility.yul\":4690:4695   */\n      dup2\n        /* \"#utility.yul\":4683:4704   */\n      mstore\n        /* \"#utility.yul\":4735:4739   */\n      0x20\n        /* \"#utility.yul\":4728:4733   */\n      dup2\n        /* \"#utility.yul\":4724:4740   */\n      add\n        /* \"#utility.yul\":4773:4776   */\n      dup5\n        /* \"#utility.yul\":4764:4770   */\n      dup5\n        /* \"#utility.yul\":4759:4762   */\n      dup5\n        /* \"#utility.yul\":4755:4771   */\n      add\n        /* \"#utility.yul\":4752:4777   */\n      gt\n        /* \"#utility.yul\":4749:4861   */\n      iszero\n      tag_267\n      jumpi\n        /* \"#utility.yul\":4780:4859   */\n      tag_268\n      tag_176\n      jump\t// in\n    tag_268:\n        /* \"#utility.yul\":4749:4861   */\n    tag_267:\n        /* \"#utility.yul\":4870:4911   */\n      tag_269\n        /* \"#utility.yul\":4904:4910   */\n      dup5\n        /* \"#utility.yul\":4899:4902   */\n      dup3\n        /* \"#utility.yul\":4894:4897   */\n      dup6\n        /* \"#utility.yul\":4870:4911   */\n      tag_181\n      jump\t// in\n    tag_269:\n        /* \"#utility.yul\":4590:4917   */\n      pop\n        /* \"#utility.yul\":4507:4917   */\n      swap4\n      swap3\n      pop\n      pop\n      pop\n      jump\t// out\n        /* \"#utility.yul\":4936:5274   */\n    tag_183:\n        /* \"#utility.yul\":4991:4996   */\n      0x00\n        /* \"#utility.yul\":5040:5043   */\n      dup3\n        /* \"#utility.yul\":5033:5037   */\n      0x1f\n        /* \"#utility.yul\":5025:5031   */\n      dup4\n        /* \"#utility.yul\":5021:5038   */\n      add\n        /* \"#utility.yul\":5017:5044   */\n      slt\n        /* \"#utility.yul\":5007:5129   */\n      tag_271\n      jumpi\n        /* \"#utility.yul\":5048:5127   */\n      tag_272\n      tag_175\n      jump\t// in\n    tag_272:\n        /* \"#utility.yul\":5007:5129   */\n    tag_271:\n        /* \"#utility.yul\":5165:5171   */\n      dup2\n        /* \"#utility.yul\":5152:5172   */\n      calldataload\n        /* \"#utility.yul\":5190:5268   */\n      tag_273\n        /* \"#utility.yul\":5264:5267   */\n      dup5\n        /* \"#utility.yul\":5256:5262   */\n      dup3\n        /* \"#utility.yul\":5249:5253   */\n      0x20\n        /* \"#utility.yul\":5241:5247   */\n      dup7\n        /* \"#utility.yul\":5237:5254   */\n      add\n        /* \"#utility.yul\":5190:5268   */\n      tag_182\n      jump\t// in\n    tag_273:\n        /* \"#utility.yul\":5181:5268   */\n      swap2\n      pop\n        /* \"#utility.yul\":4997:5274   */\n      pop\n        /* \"#utility.yul\":4936:5274   */\n      swap3\n      swap2\n      pop\n      pop\n      jump\t// out\n        /* \"#utility.yul\":5280:5402   */\n    tag_184:\n        /* \"#utility.yul\":5353:5377   */\n      tag_275\n        /* \"#utility.yul\":5371:5376   */\n      dup2\n        /* \"#utility.yul\":5353:5377   */\n      tag_165\n      jump\t// in\n    tag_275:\n        /* \"#utility.yul\":5346:5351   */\n      dup2\n        /* \"#utility.yul\":5343:5378   */\n      eq\n        /* \"#utility.yul\":5333:5396   */\n      tag_276\n      jumpi\n        /* \"#utility.yul\":5392:5393   */\n      0x00\n        /* \"#utility.yul\":5389:5390   */\n      dup1\n        /* \"#utility.yul\":5382:5394   */\n      revert\n        /* \"#utility.yul\":5333:5396   */\n    tag_276:\n        /* \"#utility.yul\":5280:5402   */\n      pop\n      jump\t// out\n        /* \"#utility.yul\":5408:5547   */\n    tag_185:\n        /* \"#utility.yul\":5454:5459   */\n      0x00\n        /* \"#utility.yul\":5492:5498   */\n      dup2\n        /* \"#utility.yul\":5479:5499   */\n      calldataload\n        /* \"#utility.yul\":5470:5499   */\n      swap1\n      pop\n        /* \"#utility.yul\":5508:5541   */\n      tag_278\n        /* \"#utility.yul\":5535:5540   */\n      dup2\n        /* \"#utility.yul\":5508:5541   */\n      tag_184\n      jump\t// in\n    tag_278:\n        /* \"#utility.yul\":5408:5547   */\n      swap3\n      swap2\n      pop\n      pop\n      jump\t// out\n        /* \"#utility.yul\":5553:5675   */\n    tag_186:\n        /* \"#utility.yul\":5626:5650   */\n      tag_280\n        /* \"#utility.yul\":5644:5649   */\n      dup2\n        /* \"#utility.yul\":5626:5650   */\n      tag_170\n      jump\t// in\n    tag_280:\n        /* \"#utility.yul\":5619:5624   */\n      dup2\n        /* \"#utility.yul\":5616:5651   */\n      eq\n        /* \"#utility.yul\":5606:5669   */\n      tag_281\n      jumpi\n        /* \"#utility.yul\":5665:5666   */\n      0x00\n        /* \"#utility.yul\":5662:5663   */\n      dup1\n        /* \"#utility.yul\":5655:5667   */\n      revert\n        /* \"#utility.yul\":5606:5669   */\n    tag_281:\n        /* \"#utility.yul\":5553:5675   */\n      pop\n      jump\t// out\n        /* \"#utility.yul\":5681:5820   */\n    tag_187:\n        /* \"#utility.yul\":5727:5732   */\n      0x00\n        /* \"#utility.yul\":5765:5771   */\n      dup2\n        /* \"#utility.yul\":5752:5772   */\n      calldataload\n        /* \"#utility.yul\":5743:5772   */\n      swap1\n      pop\n        /* \"#utility.yul\":5781:5814   */\n      tag_283\n        /* \"#utility.yul\":5808:5813   */\n      dup2\n        /* \"#utility.yul\":5781:5814   */\n      tag_186\n      jump\t// in\n    tag_283:\n        /* \"#utility.yul\":5681:5820   */\n      swap3\n      swap2\n      pop\n      pop\n      jump\t// out\n        /* \"#utility.yul\":5826:6947   */\n    tag_77:\n        /* \"#utility.yul\":5930:5936   */\n      0x00\n        /* \"#utility.yul\":5938:5944   */\n      dup1\n        /* \"#utility.yul\":5946:5952   */\n      0x00\n        /* \"#utility.yul\":5954:5960   */\n      dup1\n        /* \"#utility.yul\":6003:6006   */\n      0x80\n        /* \"#utility.yul\":5991:6000   */\n      dup6\n        /* \"#utility.yul\":5982:5989   */\n      dup8\n        /* \"#utility.yul\":5978:6001   */\n      sub\n        /* \"#utility.yul\":5974:6007   */\n      slt\n        /* \"#utility.yul\":5971:6091   */\n      iszero\n      tag_285\n      jumpi\n        /* \"#utility.yul\":6010:6089   */\n      tag_286\n      tag_173\n      jump\t// in\n    tag_286:\n        /* \"#utility.yul\":5971:6091   */\n    tag_285:\n        /* \"#utility.yul\":6158:6159   */\n      0x00\n        /* \"#utility.yul\":6147:6156   */\n      dup6\n        /* \"#utility.yul\":6143:6160   */\n      add\n        /* \"#utility.yul\":6130:6161   */\n      calldataload\n        /* \"#utility.yul\":6188:6206   */\n      0xffffffffffffffff\n        /* \"#utility.yul\":6180:6186   */\n      dup2\n        /* \"#utility.yul\":6177:6207   */\n      gt\n        /* \"#utility.yul\":6174:6291   */\n      iszero\n      tag_287\n      jumpi\n        /* \"#utility.yul\":6210:6289   */\n      tag_288\n      tag_174\n      jump\t// in\n    tag_288:\n        /* \"#utility.yul\":6174:6291   */\n    tag_287:\n        /* \"#utility.yul\":6315:6377   */\n      tag_289\n        /* \"#utility.yul\":6369:6376   */\n      dup8\n        /* \"#utility.yul\":6360:6366   */\n      dup3\n        /* \"#utility.yul\":6349:6358   */\n      dup9\n        /* \"#utility.yul\":6345:6367   */\n      add\n        /* \"#utility.yul\":6315:6377   */\n      tag_183\n      jump\t// in\n    tag_289:\n        /* \"#utility.yul\":6305:6377   */\n      swap5\n      pop\n        /* \"#utility.yul\":6101:6387   */\n      pop\n        /* \"#utility.yul\":6454:6456   */\n      0x20\n        /* \"#utility.yul\":6443:6452   */\n      dup6\n        /* \"#utility.yul\":6439:6457   */\n      add\n        /* \"#utility.yul\":6426:6458   */\n      calldataload\n        /* \"#utility.yul\":6485:6503   */\n      0xffffffffffffffff\n        /* \"#utility.yul\":6477:6483   */\n      dup2\n        /* \"#utility.yul\":6474:6504   */\n      gt\n        /* \"#utility.yul\":6471:6588   */\n      iszero\n      tag_290\n      jumpi\n        /* \"#utility.yul\":6507:6586   */\n      tag_291\n      tag_174\n      jump\t// in\n    tag_291:\n        /* \"#utility.yul\":6471:6588   */\n    tag_290:\n        /* \"#utility.yul\":6612:6674   */\n      tag_292\n        /* \"#utility.yul\":6666:6673   */\n      dup8\n        /* \"#utility.yul\":6657:6663   */\n      dup3\n        /* \"#utility.yul\":6646:6655   */\n      dup9\n        /* \"#utility.yul\":6642:6664   */\n      add\n        /* \"#utility.yul\":6612:6674   */\n      tag_183\n      jump\t// in\n    tag_292:\n        /* \"#utility.yul\":6602:6674   */\n      swap4\n      pop\n        /* \"#utility.yul\":6397:6684   */\n      pop\n        /* \"#utility.yul\":6723:6725   */\n      0x40\n        /* \"#utility.yul\":6749:6802   */\n      tag_293\n        /* \"#utility.yul\":6794:6801   */\n      dup8\n        /* \"#utility.yul\":6785:6791   */\n      dup3\n        /* \"#utility.yul\":6774:6783   */\n      dup9\n        /* \"#utility.yul\":6770:6792   */\n      add\n        /* \"#utility.yul\":6749:6802   */\n      tag_185\n      jump\t// in\n    tag_293:\n        /* \"#utility.yul\":6739:6802   */\n      swap3\n      pop\n        /* \"#utility.yul\":6694:6812   */\n      pop\n        /* \"#utility.yul\":6851:6853   */\n      0x60\n        /* \"#utility.yul\":6877:6930   */\n      tag_294\n        /* \"#utility.yul\":6922:6929   */\n      dup8\n        /* \"#utility.yul\":6913:6919   */\n      dup3\n        /* \"#utility.yul\":6902:6911   */\n      dup9\n        /* \"#utility.yul\":6898:6920   */\n      add\n        /* \"#utility.yul\":6877:6930   */\n      tag_187\n      jump\t// in\n    tag_294:\n        /* \"#utility.yul\":6867:6930   */\n      swap2\n      pop\n        /* \"#utility.yul\":6822:6940   */\n      pop\n        /* \"#utility.yul\":5826:6947   */\n      swap3\n      swap6\n      swap2\n      swap5\n      pop\n      swap3\n      pop\n      jump\t// out\n        /* \"#utility.yul\":6953:7197   */\n    tag_188:\n        /* \"#utility.yul\":7093:7127   */\n      0x4f6e6c79206d65726368616e74206f66207468652064656c6976657279206361\n        /* \"#utility.yul\":7089:7090   */\n      0x00\n        /* \"#utility.yul\":7081:7087   */\n      dup3\n        /* \"#utility.yul\":7077:7091   */\n      add\n        /* \"#utility.yul\":7070:7128   */\n      mstore\n        /* \"#utility.yul\":7162:7189   */\n      0x6e2073657420746865206368616e6e656c20706172616d732e00000000000000\n        /* \"#utility.yul\":7157:7159   */\n      0x20\n        /* \"#utility.yul\":7149:7155   */\n      dup3\n        /* \"#utility.yul\":7145:7160   */\n      add\n        /* \"#utility.yul\":7138:7190   */\n      mstore\n        /* \"#utility.yul\":6953:7197   */\n      pop\n      jump\t// out\n        /* \"#utility.yul\":7203:7569   */\n    tag_189:\n        /* \"#utility.yul\":7345:7348   */\n      0x00\n        /* \"#utility.yul\":7366:7433   */\n      tag_297\n        /* \"#utility.yul\":7430:7432   */\n      0x39\n        /* \"#utility.yul\":7425:7428   */\n      dup4\n        /* \"#utility.yul\":7366:7433   */\n      tag_161\n      jump\t// in\n    tag_297:\n        /* \"#utility.yul\":7359:7433   */\n      swap2\n      pop\n        /* \"#utility.yul\":7442:7535   */\n      tag_298\n        /* \"#utility.yul\":7531:7534   */\n      dup3\n        /* \"#utility.yul\":7442:7535   */\n      tag_188\n      jump\t// in\n    tag_298:\n        /* \"#utility.yul\":7560:7562   */\n      0x40\n        /* \"#utility.yul\":7555:7558   */\n      dup3\n        /* \"#utility.yul\":7551:7563   */\n      add\n        /* \"#utility.yul\":7544:7563   */\n      swap1\n      pop\n        /* \"#utility.yul\":7203:7569   */\n      swap2\n      swap1\n      pop\n      jump\t// out\n        /* \"#utility.yul\":7575:7994   */\n    tag_86:\n        /* \"#utility.yul\":7741:7745   */\n      0x00\n        /* \"#utility.yul\":7779:7781   */\n      0x20\n        /* \"#utility.yul\":7768:7777   */\n      dup3\n        /* \"#utility.yul\":7764:7782   */\n      add\n        /* \"#utility.yul\":7756:7782   */\n      swap1\n      pop\n        /* \"#utility.yul\":7828:7837   */\n      dup2\n        /* \"#utility.yul\":7822:7826   */\n      dup2\n        /* \"#utility.yul\":7818:7838   */\n      sub\n        /* \"#utility.yul\":7814:7815   */\n      0x00\n        /* \"#utility.yul\":7803:7812   */\n      dup4\n        /* \"#utility.yul\":7799:7816   */\n      add\n        /* \"#utility.yul\":7792:7839   */\n      mstore\n        /* \"#utility.yul\":7856:7987   */\n      tag_300\n        /* \"#utility.yul\":7982:7986   */\n      dup2\n        /* \"#utility.yul\":7856:7987   */\n      tag_189\n      jump\t// in\n    tag_300:\n        /* \"#utility.yul\":7848:7987   */\n      swap1\n      pop\n        /* \"#utility.yul\":7575:7994   */\n      swap2\n      swap1\n      pop\n      jump\t// out\n        /* \"#utility.yul\":8000:8180   */\n    tag_190:\n        /* \"#utility.yul\":8048:8125   */\n      0x4e487b7100000000000000000000000000000000000000000000000000000000\n        /* \"#utility.yul\":8045:8046   */\n      0x00\n        /* \"#utility.yul\":8038:8126   */\n      mstore\n        /* \"#utility.yul\":8145:8149   */\n      0x11\n        /* \"#utility.yul\":8142:8143   */\n      0x04\n        /* \"#utility.yul\":8135:8150   */\n      mstore\n        /* \"#utility.yul\":8169:8173   */\n      0x24\n        /* \"#utility.yul\":8166:8167   */\n      0x00\n        /* \"#utility.yul\":8159:8174   */\n      revert\n        /* \"#utility.yul\":8186:8491   */\n    tag_89:\n        /* \"#utility.yul\":8226:8229   */\n      0x00\n        /* \"#utility.yul\":8245:8265   */\n      tag_303\n        /* \"#utility.yul\":8263:8264   */\n      dup3\n        /* \"#utility.yul\":8245:8265   */\n      tag_165\n      jump\t// in\n    tag_303:\n        /* \"#utility.yul\":8240:8265   */\n      swap2\n      pop\n        /* \"#utility.yul\":8279:8299   */\n      tag_304\n        /* \"#utility.yul\":8297:8298   */\n      dup4\n        /* \"#utility.yul\":8279:8299   */\n      tag_165\n      jump\t// in\n    tag_304:\n        /* \"#utility.yul\":8274:8299   */\n      swap3\n      pop\n        /* \"#utility.yul\":8433:8434   */\n      dup3\n        /* \"#utility.yul\":8365:8431   */\n      0xffffffffffffffffffffffffffffffffffffffffffffffffffffffffffffffff\n        /* \"#utility.yul\":8361:8435   */\n      sub\n        /* \"#utility.yul\":8358:8359   */\n      dup3\n        /* \"#utility.yul\":8355:8436   */\n      gt\n        /* \"#utility.yul\":8352:8459   */\n      iszero\n      tag_305\n      jumpi\n        /* \"#utility.yul\":8439:8457   */\n      tag_306\n      tag_190\n      jump\t// in\n    tag_306:\n        /* \"#utility.yul\":8352:8459   */\n    tag_305:\n        /* \"#utility.yul\":8483:8484   */\n      dup3\n        /* \"#utility.yul\":8480:8481   */\n      dup3\n        /* \"#utility.yul\":8476:8485   */\n      add\n        /* \"#utility.yul\":8469:8485   */\n      swap1\n      pop\n        /* \"#utility.yul\":8186:8491   */\n      swap3\n      swap2\n      pop\n      pop\n      jump\t// out\n        /* \"#utility.yul\":8497:8677   */\n    tag_191:\n        /* \"#utility.yul\":8545:8622   */\n      0x4e487b7100000000000000000000000000000000000000000000000000000000\n        /* \"#utility.yul\":8542:8543   */\n      0x00\n        /* \"#utility.yul\":8535:8623   */\n      mstore\n        /* \"#utility.yul\":8642:8646   */\n      0x22\n        /* \"#utility.yul\":8639:8640   */\n      0x04\n        /* \"#utility.yul\":8632:8647   */\n      mstore\n        /* \"#utility.yul\":8666:8670   */\n      0x24\n        /* \"#utility.yul\":8663:8664   */\n      0x00\n        /* \"#utility.yul\":8656:8671   */\n      revert\n        /* \"#utility.yul\":8683:9003   */\n    tag_92:\n        /* \"#utility.yul\":8727:8733   */\n      0x00\n        /* \"#utility.yul\":8764:8765   */\n      0x02\n        /* \"#utility.yul\":8758:8762   */\n      dup3\n        /* \"#utility.yul\":8754:8766   */\n      div\n        /* \"#utility.yul\":8744:8766   */\n      swap1\n      pop\n        /* \"#utility.yul\":8811:8812   */\n      0x01\n        /* \"#utility.yul\":8805:8809   */\n      dup3\n        /* \"#utility.yul\":8801:8813   */\n      and\n        /* \"#utility.yul\":8832:8850   */\n      dup1\n        /* \"#utility.yul\":8822:8903   */\n      tag_309\n      jumpi\n        /* \"#utility.yul\":8888:8892   */\n      0x7f\n        /* \"#utility.yul\":8880:8886   */\n      dup3\n        /* \"#utility.yul\":8876:8893   */\n      and\n        /* \"#utility.yul\":8866:8893   */\n      swap2\n      pop\n        /* \"#utility.yul\":8822:8903   */\n    tag_309:\n        /* \"#utility.yul\":8950:8952   */\n      0x20\n        /* \"#utility.yul\":8942:8948   */\n      dup3\n        /* \"#utility.yul\":8939:8953   */\n      lt\n        /* \"#utility.yul\":8919:8937   */\n      dup2\n        /* \"#utility.yul\":8916:8954   */\n      eq\n        /* \"#utility.yul\":8913:8997   */\n      iszero\n      tag_310\n      jumpi\n        /* \"#utility.yul\":8969:8987   */\n      tag_311\n      tag_191\n      jump\t// in\n    tag_311:\n        /* \"#utility.yul\":8913:8997   */\n    tag_310:\n        /* \"#utility.yul\":8734:9003   */\n      pop\n        /* \"#utility.yul\":8683:9003   */\n      swap2\n      swap1\n      pop\n      jump\t// out\n        /* \"#utility.yul\":9009:9169   */\n    tag_192:\n        /* \"#utility.yul\":9149:9161   */\n      0x54696d65206572726f7200000000000000000000000000000000000000000000\n        /* \"#utility.yul\":9145:9146   */\n      0x00\n        /* \"#utility.yul\":9137:9143   */\n      dup3\n        /* \"#utility.yul\":9133:9147   */\n      add\n        /* \"#utility.yul\":9126:9162   */\n      mstore\n        /* \"#utility.yul\":9009:9169   */\n      pop\n      jump\t// out\n        /* \"#utility.yul\":9175:9541   */\n    tag_193:\n        /* \"#utility.yul\":9317:9320   */\n      0x00\n        /* \"#utility.yul\":9338:9405   */\n      tag_314\n        /* \"#utility.yul\":9402:9404   */\n      0x0a\n        /* \"#utility.yul\":9397:9400   */\n      dup4\n        /* \"#utility.yul\":9338:9405   */\n      tag_161\n      jump\t// in\n    tag_314:\n        /* \"#utility.yul\":9331:9405   */\n      swap2\n      pop\n        /* \"#utility.yul\":9414:9507   */\n      tag_315\n        /* \"#utility.yul\":9503:9506   */\n      dup3\n        /* \"#utility.yul\":9414:9507   */\n      tag_192\n      jump\t// in\n    tag_315:\n        /* \"#utility.yul\":9532:9534   */\n      0x20\n        /* \"#utility.yul\":9527:9530   */\n      dup3\n        /* \"#utility.yul\":9523:9535   */\n      add\n        /* \"#utility.yul\":9516:9535   */\n      swap1\n      pop\n        /* \"#utility.yul\":9175:9541   */\n      swap2\n      swap1\n      pop\n      jump\t// out\n        /* \"#utility.yul\":9547:9966   */\n    tag_102:\n        /* \"#utility.yul\":9713:9717   */\n      0x00\n        /* \"#utility.yul\":9751:9753   */\n      0x20\n        /* \"#utility.yul\":9740:9749   */\n      dup3\n        /* \"#utility.yul\":9736:9754   */\n      add\n        /* \"#utility.yul\":9728:9754   */\n      swap1\n      pop\n        /* \"#utility.yul\":9800:9809   */\n      dup2\n        /* \"#utility.yul\":9794:9798   */\n      dup2\n        /* \"#utility.yul\":9790:9810   */\n      sub\n        /* \"#utility.yul\":9786:9787   */\n      0x00\n        /* \"#utility.yul\":9775:9784   */\n      dup4\n        /* \"#utility.yul\":9771:9788   */\n      add\n        /* \"#utility.yul\":9764:9811   */\n      mstore\n        /* \"#utility.yul\":9828:9959   */\n      tag_317\n        /* \"#utility.yul\":9954:9958   */\n      dup2\n        /* \"#utility.yul\":9828:9959   */\n      tag_193\n      jump\t// in\n    tag_317:\n        /* \"#utility.yul\":9820:9959   */\n      swap1\n      pop\n        /* \"#utility.yul\":9547:9966   */\n      swap2\n      swap1\n      pop\n      jump\t// out\n        /* \"#utility.yul\":9972:10128   */\n    tag_194:\n        /* \"#utility.yul\":10112:10120   */\n      0x6b203c3d206a0000000000000000000000000000000000000000000000000000\n        /* \"#utility.yul\":10108:10109   */\n      0x00\n        /* \"#utility.yul\":10100:10106   */\n      dup3\n        /* \"#utility.yul\":10096:10110   */\n      add\n        /* \"#utility.yul\":10089:10121   */\n      mstore\n        /* \"#utility.yul\":9972:10128   */\n      pop\n      jump\t// out\n        /* \"#utility.yul\":10134:10499   */\n    tag_195:\n        /* \"#utility.yul\":10276:10279   */\n      0x00\n        /* \"#utility.yul\":10297:10363   */\n      tag_320\n        /* \"#utility.yul\":10361:10362   */\n      0x06\n        /* \"#utility.yul\":10356:10359   */\n      dup4\n        /* \"#utility.yul\":10297:10363   */\n      tag_161\n      jump\t// in\n    tag_320:\n        /* \"#utility.yul\":10290:10363   */\n      swap2\n      pop\n        /* \"#utility.yul\":10372:10465   */\n      tag_321\n        /* \"#utility.yul\":10461:10464   */\n      dup3\n        /* \"#utility.yul\":10372:10465   */\n      tag_194\n      jump\t// in\n    tag_321:\n        /* \"#utility.yul\":10490:10492   */\n      0x20\n        /* \"#utility.yul\":10485:10488   */\n      dup3\n        /* \"#utility.yul\":10481:10493   */\n      add\n        /* \"#utility.yul\":10474:10493   */\n      swap1\n      pop\n        /* \"#utility.yul\":10134:10499   */\n      swap2\n      swap1\n      pop\n      jump\t// out\n        /* \"#utility.yul\":10505:10924   */\n    tag_105:\n        /* \"#utility.yul\":10671:10675   */\n      0x00\n        /* \"#utility.yul\":10709:10711   */\n      0x20\n        /* \"#utility.yul\":10698:10707   */\n      dup3\n        /* \"#utility.yul\":10694:10712   */\n      add\n        /* \"#utility.yul\":10686:10712   */\n      swap1\n      pop\n        /* \"#utility.yul\":10758:10767   */\n      dup2\n        /* \"#utility.yul\":10752:10756   */\n      dup2\n        /* \"#utility.yul\":10748:10768   */\n      sub\n        /* \"#utility.yul\":10744:10745   */\n      0x00\n        /* \"#utility.yul\":10733:10742   */\n      dup4\n        /* \"#utility.yul\":10729:10746   */\n      add\n        /* \"#utility.yul\":10722:10769   */\n      mstore\n        /* \"#utility.yul\":10786:10917   */\n      tag_323\n        /* \"#utility.yul\":10912:10916   */\n      dup2\n        /* \"#utility.yul\":10786:10917   */\n      tag_195\n      jump\t// in\n    tag_323:\n        /* \"#utility.yul\":10778:10917   */\n      swap1\n      pop\n        /* \"#utility.yul\":10505:10924   */\n      swap2\n      swap1\n      pop\n      jump\t// out\n        /* \"#utility.yul\":10930:11028   */\n    tag_196:\n        /* \"#utility.yul\":10981:10987   */\n      0x00\n        /* \"#utility.yul\":11015:11020   */\n      dup2\n        /* \"#utility.yul\":11009:11021   */\n      mload\n        /* \"#utility.yul\":10999:11021   */\n      swap1\n      pop\n        /* \"#utility.yul\":10930:11028   */\n      swap2\n      swap1\n      pop\n      jump\t// out\n        /* \"#utility.yul\":11034:11150   */\n    tag_197:\n        /* \"#utility.yul\":11085:11089   */\n      0x00\n        /* \"#utility.yul\":11108:11111   */\n      dup2\n        /* \"#utility.yul\":11100:11111   */\n      swap1\n      pop\n        /* \"#utility.yul\":11138:11142   */\n      0x20\n        /* \"#utility.yul\":11133:11136   */\n      dup3\n        /* \"#utility.yul\":11129:11143   */\n      add\n        /* \"#utility.yul\":11121:11143   */\n      swap1\n      pop\n        /* \"#utility.yul\":11034:11150   */\n      swap2\n      swap1\n      pop\n      jump\t// out\n        /* \"#utility.yul\":11156:11310   */\n    tag_198:\n        /* \"#utility.yul\":11199:11210   */\n      0x00\n        /* \"#utility.yul\":11235:11264   */\n      tag_327\n        /* \"#utility.yul\":11259:11262   */\n      dup3\n        /* \"#utility.yul\":11253:11263   */\n      mload\n        /* \"#utility.yul\":11235:11264   */\n      tag_167\n      jump\t// in\n    tag_327:\n        /* \"#utility.yul\":11298:11303   */\n      dup1\n        /* \"#utility.yul\":11274:11303   */\n      swap2\n      pop\n        /* \"#utility.yul\":11211:11310   */\n      pop\n        /* \"#utility.yul\":11156:11310   */\n      swap2\n      swap1\n      pop\n      jump\t// out\n        /* \"#utility.yul\":11316:11423   */\n    tag_199:\n        /* \"#utility.yul\":11360:11368   */\n      0x00\n        /* \"#utility.yul\":11410:11415   */\n      dup3\n        /* \"#utility.yul\":11404:11408   */\n      dup3\n        /* \"#utility.yul\":11400:11416   */\n      shl\n        /* \"#utility.yul\":11379:11416   */\n      swap1\n      pop\n        /* \"#utility.yul\":11316:11423   */\n      swap3\n      swap2\n      pop\n      pop\n      jump\t// out\n        /* \"#utility.yul\":11429:12023   */\n    tag_107:\n        /* \"#utility.yul\":11513:11518   */\n      0x00\n        /* \"#utility.yul\":11544:11582   */\n      tag_330\n        /* \"#utility.yul\":11576:11581   */\n      dup3\n        /* \"#utility.yul\":11544:11582   */\n      tag_196\n      jump\t// in\n    tag_330:\n        /* \"#utility.yul\":11607:11612   */\n      dup3\n        /* \"#utility.yul\":11634:11674   */\n      tag_331\n        /* \"#utility.yul\":11668:11673   */\n      dup5\n        /* \"#utility.yul\":11634:11674   */\n      tag_197\n      jump\t// in\n    tag_331:\n        /* \"#utility.yul\":11622:11674   */\n      swap1\n      pop\n        /* \"#utility.yul\":11693:11728   */\n      tag_332\n        /* \"#utility.yul\":11719:11727   */\n      dup2\n        /* \"#utility.yul\":11693:11728   */\n      tag_198\n      jump\t// in\n    tag_332:\n        /* \"#utility.yul\":11684:11728   */\n      swap3\n      pop\n        /* \"#utility.yul\":11752:11754   */\n      0x20\n        /* \"#utility.yul\":11744:11750   */\n      dup3\n        /* \"#utility.yul\":11741:11755   */\n      lt\n        /* \"#utility.yul\":11738:12016   */\n      iszero\n      tag_333\n      jumpi\n        /* \"#utility.yul\":11823:11992   */\n      tag_334\n        /* \"#utility.yul\":11908:11974   */\n      0xffffffffffffffffffffffffffffffffffffffffffffffffffffffffffffffff\n        /* \"#utility.yul\":11878:11884   */\n      dup4\n        /* \"#utility.yul\":11874:11876   */\n      0x20\n        /* \"#utility.yul\":11870:11885   */\n      sub\n        /* \"#utility.yul\":11867:11868   */\n      0x08\n        /* \"#utility.yul\":11863:11886   */\n      mul\n        /* \"#utility.yul\":11823:11992   */\n      tag_199\n      jump\t// in\n    tag_334:\n        /* \"#utility.yul\":11800:11805   */\n      dup4\n        /* \"#utility.yul\":11779:12006   */\n      and\n        /* \"#utility.yul\":11770:12006   */\n      swap3\n      pop\n        /* \"#utility.yul\":11738:12016   */\n    tag_333:\n        /* \"#utility.yul\":11519:12023   */\n      pop\n      pop\n        /* \"#utility.yul\":11429:12023   */\n      swap2\n      swap1\n      pop\n      jump\t// out\n        /* \"#utility.yul\":12029:12220   */\n    tag_110:\n        /* \"#utility.yul\":12069:12073   */\n      0x00\n        /* \"#utility.yul\":12089:12109   */\n      tag_336\n        /* \"#utility.yul\":12107:12108   */\n      dup3\n        /* \"#utility.yul\":12089:12109   */\n      tag_165\n      jump\t// in\n    tag_336:\n        /* \"#utility.yul\":12084:12109   */\n      swap2\n      pop\n        /* \"#utility.yul\":12123:12143   */\n      tag_337\n        /* \"#utility.yul\":12141:12142   */\n      dup4\n        /* \"#utility.yul\":12123:12143   */\n      tag_165\n      jump\t// in\n    tag_337:\n        /* \"#utility.yul\":12118:12143   */\n      swap3\n      pop\n        /* \"#utility.yul\":12162:12163   */\n      dup3\n        /* \"#utility.yul\":12159:12160   */\n      dup3\n        /* \"#utility.yul\":12156:12164   */\n      lt\n        /* \"#utility.yul\":12153:12187   */\n      iszero\n      tag_338\n      jumpi\n        /* \"#utility.yul\":12167:12185   */\n      tag_339\n      tag_190\n      jump\t// in\n    tag_339:\n        /* \"#utility.yul\":12153:12187   */\n    tag_338:\n        /* \"#utility.yul\":12212:12213   */\n      dup3\n        /* \"#utility.yul\":12209:12210   */\n      dup3\n        /* \"#utility.yul\":12205:12214   */\n      sub\n        /* \"#utility.yul\":12197:12214   */\n      swap1\n      pop\n        /* \"#utility.yul\":12029:12220   */\n      swap3\n      swap2\n      pop\n      pop\n      jump\t// out\n        /* \"#utility.yul\":12226:12305   */\n    tag_200:\n        /* \"#utility.yul\":12265:12272   */\n      0x00\n        /* \"#utility.yul\":12294:12299   */\n      dup2\n        /* \"#utility.yul\":12283:12299   */\n      swap1\n      pop\n        /* \"#utility.yul\":12226:12305   */\n      swap2\n      swap1\n      pop\n      jump\t// out\n        /* \"#utility.yul\":12311:12468   */\n    tag_201:\n        /* \"#utility.yul\":12416:12461   */\n      tag_342\n        /* \"#utility.yul\":12436:12460   */\n      tag_343\n        /* \"#utility.yul\":12454:12459   */\n      dup3\n        /* \"#utility.yul\":12436:12460   */\n      tag_167\n      jump\t// in\n    tag_343:\n        /* \"#utility.yul\":12416:12461   */\n      tag_200\n      jump\t// in\n    tag_342:\n        /* \"#utility.yul\":12411:12414   */\n      dup3\n        /* \"#utility.yul\":12404:12462   */\n      mstore\n        /* \"#utility.yul\":12311:12468   */\n      pop\n      pop\n      jump\t// out\n        /* \"#utility.yul\":12474:12730   */\n    tag_115:\n        /* \"#utility.yul\":12586:12589   */\n      0x00\n        /* \"#utility.yul\":12601:12676   */\n      tag_345\n        /* \"#utility.yul\":12672:12675   */\n      dup3\n        /* \"#utility.yul\":12663:12669   */\n      dup5\n        /* \"#utility.yul\":12601:12676   */\n      tag_201\n      jump\t// in\n    tag_345:\n        /* \"#utility.yul\":12701:12703   */\n      0x20\n        /* \"#utility.yul\":12696:12699   */\n      dup3\n        /* \"#utility.yul\":12692:12704   */\n      add\n        /* \"#utility.yul\":12685:12704   */\n      swap2\n      pop\n        /* \"#utility.yul\":12721:12724   */\n      dup2\n        /* \"#utility.yul\":12714:12724   */\n      swap1\n      pop\n        /* \"#utility.yul\":12474:12730   */\n      swap3\n      swap2\n      pop\n      pop\n      jump\t// out\n        /* \"#utility.yul\":12736:12883   */\n    tag_202:\n        /* \"#utility.yul\":12837:12848   */\n      0x00\n        /* \"#utility.yul\":12874:12877   */\n      dup2\n        /* \"#utility.yul\":12859:12877   */\n      swap1\n      pop\n        /* \"#utility.yul\":12736:12883   */\n      swap3\n      swap2\n      pop\n      pop\n      jump\t// out\n        /* \"#utility.yul\":12889:13262   */\n    tag_203:\n        /* \"#utility.yul\":12993:12996   */\n      0x00\n        /* \"#utility.yul\":13021:13059   */\n      tag_348\n        /* \"#utility.yul\":13053:13058   */\n      dup3\n        /* \"#utility.yul\":13021:13059   */\n      tag_196\n      jump\t// in\n    tag_348:\n        /* \"#utility.yul\":13075:13163   */\n      tag_349\n        /* \"#utility.yul\":13156:13162   */\n      dup2\n        /* \"#utility.yul\":13151:13154   */\n      dup6\n        /* \"#utility.yul\":13075:13163   */\n      tag_202\n      jump\t// in\n    tag_349:\n        /* \"#utility.yul\":13068:13163   */\n      swap4\n      pop\n        /* \"#utility.yul\":13172:13224   */\n      tag_350\n        /* \"#utility.yul\":13217:13223   */\n      dup2\n        /* \"#utility.yul\":13212:13215   */\n      dup6\n        /* \"#utility.yul\":13205:13209   */\n      0x20\n        /* \"#utility.yul\":13198:13203   */\n      dup7\n        /* \"#utility.yul\":13194:13210   */\n      add\n        /* \"#utility.yul\":13172:13224   */\n      tag_162\n      jump\t// in\n    tag_350:\n        /* \"#utility.yul\":13249:13255   */\n      dup1\n        /* \"#utility.yul\":13244:13247   */\n      dup5\n        /* \"#utility.yul\":13240:13256   */\n      add\n        /* \"#utility.yul\":13233:13256   */\n      swap2\n      pop\n        /* \"#utility.yul\":12997:13262   */\n      pop\n        /* \"#utility.yul\":12889:13262   */\n      swap3\n      swap2\n      pop\n      pop\n      jump\t// out\n        /* \"#utility.yul\":13268:13539   */\n    tag_117:\n        /* \"#utility.yul\":13398:13401   */\n      0x00\n        /* \"#utility.yul\":13420:13513   */\n      tag_352\n        /* \"#utility.yul\":13509:13512   */\n      dup3\n        /* \"#utility.yul\":13500:13506   */\n      dup5\n        /* \"#utility.yul\":13420:13513   */\n      tag_203\n      jump\t// in\n    tag_352:\n        /* \"#utility.yul\":13413:13513   */\n      swap2\n      pop\n        /* \"#utility.yul\":13530:13533   */\n      dup2\n        /* \"#utility.yul\":13523:13533   */\n      swap1\n      pop\n        /* \"#utility.yul\":13268:13539   */\n      swap3\n      swap2\n      pop\n      pop\n      jump\t// out\n        /* \"#utility.yul\":13545:13667   */\n    tag_204:\n        /* \"#utility.yul\":13618:13642   */\n      tag_354\n        /* \"#utility.yul\":13636:13641   */\n      dup2\n        /* \"#utility.yul\":13618:13642   */\n      tag_167\n      jump\t// in\n    tag_354:\n        /* \"#utility.yul\":13611:13616   */\n      dup2\n        /* \"#utility.yul\":13608:13643   */\n      eq\n        /* \"#utility.yul\":13598:13661   */\n      tag_355\n      jumpi\n        /* \"#utility.yul\":13657:13658   */\n      0x00\n        /* \"#utility.yul\":13654:13655   */\n      dup1\n        /* \"#utility.yul\":13647:13659   */\n      revert\n        /* \"#utility.yul\":13598:13661   */\n    tag_355:\n        /* \"#utility.yul\":13545:13667   */\n      pop\n      jump\t// out\n        /* \"#utility.yul\":13673:13816   */\n    tag_205:\n        /* \"#utility.yul\":13730:13735   */\n      0x00\n        /* \"#utility.yul\":13761:13767   */\n      dup2\n        /* \"#utility.yul\":13755:13768   */\n      mload\n        /* \"#utility.yul\":13746:13768   */\n      swap1\n      pop\n        /* \"#utility.yul\":13777:13810   */\n      tag_357\n        /* \"#utility.yul\":13804:13809   */\n      dup2\n        /* \"#utility.yul\":13777:13810   */\n      tag_204\n      jump\t// in\n    tag_357:\n        /* \"#utility.yul\":13673:13816   */\n      swap3\n      swap2\n      pop\n      pop\n      jump\t// out\n        /* \"#utility.yul\":13822:14173   */\n    tag_121:\n        /* \"#utility.yul\":13892:13898   */\n      0x00\n        /* \"#utility.yul\":13941:13943   */\n      0x20\n        /* \"#utility.yul\":13929:13938   */\n      dup3\n        /* \"#utility.yul\":13920:13927   */\n      dup5\n        /* \"#utility.yul\":13916:13939   */\n      sub\n        /* \"#utility.yul\":13912:13944   */\n      slt\n        /* \"#utility.yul\":13909:14028   */\n      iszero\n      tag_359\n      jumpi\n        /* \"#utility.yul\":13947:14026   */\n      tag_360\n      tag_173\n      jump\t// in\n    tag_360:\n        /* \"#utility.yul\":13909:14028   */\n    tag_359:\n        /* \"#utility.yul\":14067:14068   */\n      0x00\n        /* \"#utility.yul\":14092:14156   */\n      tag_361\n        /* \"#utility.yul\":14148:14155   */\n      dup5\n        /* \"#utility.yul\":14139:14145   */\n      dup3\n        /* \"#utility.yul\":14128:14137   */\n      dup6\n        /* \"#utility.yul\":14124:14146   */\n      add\n        /* \"#utility.yul\":14092:14156   */\n      tag_205\n      jump\t// in\n    tag_361:\n        /* \"#utility.yul\":14082:14156   */\n      swap2\n      pop\n        /* \"#utility.yul\":14038:14166   */\n      pop\n        /* \"#utility.yul\":13822:14173   */\n      swap3\n      swap2\n      pop\n      pop\n      jump\t// out\n        /* \"#utility.yul\":14179:14350   */\n    tag_128:\n        /* \"#utility.yul\":14218:14221   */\n      0x00\n        /* \"#utility.yul\":14241:14265   */\n      tag_363\n        /* \"#utility.yul\":14259:14264   */\n      dup3\n        /* \"#utility.yul\":14241:14265   */\n      tag_165\n      jump\t// in\n    tag_363:\n        /* \"#utility.yul\":14232:14265   */\n      swap2\n      pop\n        /* \"#utility.yul\":14287:14291   */\n      0x00\n        /* \"#utility.yul\":14280:14285   */\n      dup3\n        /* \"#utility.yul\":14277:14292   */\n      eq\n        /* \"#utility.yul\":14274:14315   */\n      iszero\n      tag_364\n      jumpi\n        /* \"#utility.yul\":14295:14313   */\n      tag_365\n      tag_190\n      jump\t// in\n    tag_365:\n        /* \"#utility.yul\":14274:14315   */\n    tag_364:\n        /* \"#utility.yul\":14342:14343   */\n      0x01\n        /* \"#utility.yul\":14335:14340   */\n      dup3\n        /* \"#utility.yul\":14331:14344   */\n      sub\n        /* \"#utility.yul\":14324:14344   */\n      swap1\n      pop\n        /* \"#utility.yul\":14179:14350   */\n      swap2\n      swap1\n      pop\n      jump\t// out\n        /* \"#utility.yul\":14356:14523   */\n    tag_206:\n        /* \"#utility.yul\":14496:14515   */\n      0x575f6b6d20697320696e636f7272656374000000000000000000000000000000\n        /* \"#utility.yul\":14492:14493   */\n      0x00\n        /* \"#utility.yul\":14484:14490   */\n      dup3\n        /* \"#utility.yul\":14480:14494   */\n      add\n        /* \"#utility.yul\":14473:14516   */\n      mstore\n        /* \"#utility.yul\":14356:14523   */\n      pop\n      jump\t// out\n        /* \"#utility.yul\":14529:14895   */\n    tag_207:\n        /* \"#utility.yul\":14671:14674   */\n      0x00\n        /* \"#utility.yul\":14692:14759   */\n      tag_368\n        /* \"#utility.yul\":14756:14758   */\n      0x11\n        /* \"#utility.yul\":14751:14754   */\n      dup4\n        /* \"#utility.yul\":14692:14759   */\n      tag_161\n      jump\t// in\n    tag_368:\n        /* \"#utility.yul\":14685:14759   */\n      swap2\n      pop\n        /* \"#utility.yul\":14768:14861   */\n      tag_369\n        /* \"#utility.yul\":14857:14860   */\n      dup3\n        /* \"#utility.yul\":14768:14861   */\n      tag_206\n      jump\t// in\n    tag_369:\n        /* \"#utility.yul\":14886:14888   */\n      0x20\n        /* \"#utility.yul\":14881:14884   */\n      dup3\n        /* \"#utility.yul\":14877:14889   */\n      add\n        /* \"#utility.yul\":14870:14889   */\n      swap1\n      pop\n        /* \"#utility.yul\":14529:14895   */\n      swap2\n      swap1\n      pop\n      jump\t// out\n        /* \"#utility.yul\":14901:15320   */\n    tag_131:\n        /* \"#utility.yul\":15067:15071   */\n      0x00\n        /* \"#utility.yul\":15105:15107   */\n      0x20\n        /* \"#utility.yul\":15094:15103   */\n      dup3\n        /* \"#utility.yul\":15090:15108   */\n      add\n        /* \"#utility.yul\":15082:15108   */\n      swap1\n      pop\n        /* \"#utility.yul\":15154:15163   */\n      dup2\n        /* \"#utility.yul\":15148:15152   */\n      dup2\n        /* \"#utility.yul\":15144:15164   */\n      sub\n        /* \"#utility.yul\":15140:15141   */\n      0x00\n        /* \"#utility.yul\":15129:15138   */\n      dup4\n        /* \"#utility.yul\":15125:15142   */\n      add\n        /* \"#utility.yul\":15118:15165   */\n      mstore\n        /* \"#utility.yul\":15182:15313   */\n      tag_371\n        /* \"#utility.yul\":15308:15312   */\n      dup2\n        /* \"#utility.yul\":15182:15313   */\n      tag_207\n      jump\t// in\n    tag_371:\n        /* \"#utility.yul\":15174:15313   */\n      swap1\n      pop\n        /* \"#utility.yul\":14901:15320   */\n      swap2\n      swap1\n      pop\n      jump\t// out\n        /* \"#utility.yul\":15326:15493   */\n    tag_208:\n        /* \"#utility.yul\":15466:15485   */\n      0x575f6b6320697320696e636f7272656374000000000000000000000000000000\n        /* \"#utility.yul\":15462:15463   */\n      0x00\n        /* \"#utility.yul\":15454:15460   */\n      dup3\n        /* \"#utility.yul\":15450:15464   */\n      add\n        /* \"#utility.yul\":15443:15486   */\n      mstore\n        /* \"#utility.yul\":15326:15493   */\n      pop\n      jump\t// out\n        /* \"#utility.yul\":15499:15865   */\n    tag_209:\n        /* \"#utility.yul\":15641:15644   */\n      0x00\n        /* \"#utility.yul\":15662:15729   */\n      tag_374\n        /* \"#utility.yul\":15726:15728   */\n      0x11\n        /* \"#utility.yul\":15721:15724   */\n      dup4\n        /* \"#utility.yul\":15662:15729   */\n      tag_161\n      jump\t// in\n    tag_374:\n        /* \"#utility.yul\":15655:15729   */\n      swap2\n      pop\n        /* \"#utility.yul\":15738:15831   */\n      tag_375\n        /* \"#utility.yul\":15827:15830   */\n      dup3\n        /* \"#utility.yul\":15738:15831   */\n      tag_208\n      jump\t// in\n    tag_375:\n        /* \"#utility.yul\":15856:15858   */\n      0x20\n        /* \"#utility.yul\":15851:15854   */\n      dup3\n        /* \"#utility.yul\":15847:15859   */\n      add\n        /* \"#utility.yul\":15840:15859   */\n      swap1\n      pop\n        /* \"#utility.yul\":15499:15865   */\n      swap2\n      swap1\n      pop\n      jump\t// out\n        /* \"#utility.yul\":15871:16290   */\n    tag_134:\n        /* \"#utility.yul\":16037:16041   */\n      0x00\n        /* \"#utility.yul\":16075:16077   */\n      0x20\n        /* \"#utility.yul\":16064:16073   */\n      dup3\n        /* \"#utility.yul\":16060:16078   */\n      add\n        /* \"#utility.yul\":16052:16078   */\n      swap1\n      pop\n        /* \"#utility.yul\":16124:16133   */\n      dup2\n        /* \"#utility.yul\":16118:16122   */\n      dup2\n        /* \"#utility.yul\":16114:16134   */\n      sub\n        /* \"#utility.yul\":16110:16111   */\n      0x00\n        /* \"#utility.yul\":16099:16108   */\n      dup4\n        /* \"#utility.yul\":16095:16112   */\n      add\n        /* \"#utility.yul\":16088:16135   */\n      mstore\n        /* \"#utility.yul\":16152:16283   */\n      tag_377\n        /* \"#utility.yul\":16278:16282   */\n      dup2\n        /* \"#utility.yul\":16152:16283   */\n      tag_209\n      jump\t// in\n    tag_377:\n        /* \"#utility.yul\":16144:16283   */\n      swap1\n      pop\n        /* \"#utility.yul\":15871:16290   */\n      swap2\n      swap1\n      pop\n      jump\t// out\n        /* \"#utility.yul\":16296:16476   */\n    tag_210:\n        /* \"#utility.yul\":16344:16421   */\n      0x4e487b7100000000000000000000000000000000000000000000000000000000\n        /* \"#utility.yul\":16341:16342   */\n      0x00\n        /* \"#utility.yul\":16334:16422   */\n      mstore\n        /* \"#utility.yul\":16441:16445   */\n      0x12\n        /* \"#utility.yul\":16438:16439   */\n      0x04\n        /* \"#utility.yul\":16431:16446   */\n      mstore\n        /* \"#utility.yul\":16465:16469   */\n      0x24\n        /* \"#utility.yul\":16462:16463   */\n      0x00\n        /* \"#utility.yul\":16455:16470   */\n      revert\n        /* \"#utility.yul\":16482:16658   */\n    tag_136:\n        /* \"#utility.yul\":16514:16515   */\n      0x00\n        /* \"#utility.yul\":16531:16551   */\n      tag_380\n        /* \"#utility.yul\":16549:16550   */\n      dup3\n        /* \"#utility.yul\":16531:16551   */\n      tag_165\n      jump\t// in\n    tag_380:\n        /* \"#utility.yul\":16526:16551   */\n      swap2\n      pop\n        /* \"#utility.yul\":16565:16585   */\n      tag_381\n        /* \"#utility.yul\":16583:16584   */\n      dup4\n        /* \"#utility.yul\":16565:16585   */\n      tag_165\n      jump\t// in\n    tag_381:\n        /* \"#utility.yul\":16560:16585   */\n      swap3\n      pop\n        /* \"#utility.yul\":16604:16605   */\n      dup3\n        /* \"#utility.yul\":16594:16629   */\n      tag_382\n      jumpi\n        /* \"#utility.yul\":16609:16627   */\n      tag_383\n      tag_210\n      jump\t// in\n    tag_383:\n        /* \"#utility.yul\":16594:16629   */\n    tag_382:\n        /* \"#utility.yul\":16650:16651   */\n      dup3\n        /* \"#utility.yul\":16647:16648   */\n      dup3\n        /* \"#utility.yul\":16643:16652   */\n      mod\n        /* \"#utility.yul\":16638:16652   */\n      swap1\n      pop\n        /* \"#utility.yul\":16482:16658   */\n      swap3\n      swap2\n      pop\n      pop\n      jump\t// out\n        /* \"#utility.yul\":16664:16849   */\n    tag_140:\n        /* \"#utility.yul\":16704:16705   */\n      0x00\n        /* \"#utility.yul\":16721:16741   */\n      tag_385\n        /* \"#utility.yul\":16739:16740   */\n      dup3\n        /* \"#utility.yul\":16721:16741   */\n      tag_165\n      jump\t// in\n    tag_385:\n        /* \"#utility.yul\":16716:16741   */\n      swap2\n      pop\n        /* \"#utility.yul\":16755:16775   */\n      tag_386\n        /* \"#utility.yul\":16773:16774   */\n      dup4\n        /* \"#utility.yul\":16755:16775   */\n      tag_165\n      jump\t// in\n    tag_386:\n        /* \"#utility.yul\":16750:16775   */\n      swap3\n      pop\n        /* \"#utility.yul\":16794:16795   */\n      dup3\n        /* \"#utility.yul\":16784:16819   */\n      tag_387\n      jumpi\n        /* \"#utility.yul\":16799:16817   */\n      tag_388\n      tag_210\n      jump\t// in\n    tag_388:\n        /* \"#utility.yul\":16784:16819   */\n    tag_387:\n        /* \"#utility.yul\":16841:16842   */\n      dup3\n        /* \"#utility.yul\":16838:16839   */\n      dup3\n        /* \"#utility.yul\":16834:16843   */\n      div\n        /* \"#utility.yul\":16829:16843   */\n      swap1\n      pop\n        /* \"#utility.yul\":16664:16849   */\n      swap3\n      swap2\n      pop\n      pop\n      jump\t// out\n        /* \"#utility.yul\":16855:17203   */\n    tag_147:\n        /* \"#utility.yul\":16895:16902   */\n      0x00\n        /* \"#utility.yul\":16918:16938   */\n      tag_390\n        /* \"#utility.yul\":16936:16937   */\n      dup3\n        /* \"#utility.yul\":16918:16938   */\n      tag_165\n      jump\t// in\n    tag_390:\n        /* \"#utility.yul\":16913:16938   */\n      swap2\n      pop\n        /* \"#utility.yul\":16952:16972   */\n      tag_391\n        /* \"#utility.yul\":16970:16971   */\n      dup4\n        /* \"#utility.yul\":16952:16972   */\n      tag_165\n      jump\t// in\n    tag_391:\n        /* \"#utility.yul\":16947:16972   */\n      swap3\n      pop\n        /* \"#utility.yul\":17140:17141   */\n      dup2\n        /* \"#utility.yul\":17072:17138   */\n      0xffffffffffffffffffffffffffffffffffffffffffffffffffffffffffffffff\n        /* \"#utility.yul\":17068:17142   */\n      div\n        /* \"#utility.yul\":17065:17066   */\n      dup4\n        /* \"#utility.yul\":17062:17143   */\n      gt\n        /* \"#utility.yul\":17057:17058   */\n      dup3\n        /* \"#utility.yul\":17050:17059   */\n      iszero\n        /* \"#utility.yul\":17043:17060   */\n      iszero\n        /* \"#utility.yul\":17039:17144   */\n      and\n        /* \"#utility.yul\":17036:17167   */\n      iszero\n      tag_392\n      jumpi\n        /* \"#utility.yul\":17147:17165   */\n      tag_393\n      tag_190\n      jump\t// in\n    tag_393:\n        /* \"#utility.yul\":17036:17167   */\n    tag_392:\n        /* \"#utility.yul\":17195:17196   */\n      dup3\n        /* \"#utility.yul\":17192:17193   */\n      dup3\n        /* \"#utility.yul\":17188:17197   */\n      mul\n        /* \"#utility.yul\":17177:17197   */\n      swap1\n      pop\n        /* \"#utility.yul\":16855:17203   */\n      swap3\n      swap2\n      pop\n      pop\n      jump\t// out\n        /* \"#utility.yul\":17209:17323   */\n    tag_211:\n      pop\n      jump\t// out\n        /* \"#utility.yul\":17329:17727   */\n    tag_212:\n        /* \"#utility.yul\":17488:17491   */\n      0x00\n        /* \"#utility.yul\":17509:17592   */\n      tag_396\n        /* \"#utility.yul\":17590:17591   */\n      0x00\n        /* \"#utility.yul\":17585:17588   */\n      dup4\n        /* \"#utility.yul\":17509:17592   */\n      tag_202\n      jump\t// in\n    tag_396:\n        /* \"#utility.yul\":17502:17592   */\n      swap2\n      pop\n        /* \"#utility.yul\":17601:17694   */\n      tag_397\n        /* \"#utility.yul\":17690:17693   */\n      dup3\n        /* \"#utility.yul\":17601:17694   */\n      tag_211\n      jump\t// in\n    tag_397:\n        /* \"#utility.yul\":17719:17720   */\n      0x00\n        /* \"#utility.yul\":17714:17717   */\n      dup3\n        /* \"#utility.yul\":17710:17721   */\n      add\n        /* \"#utility.yul\":17703:17721   */\n      swap1\n      pop\n        /* \"#utility.yul\":17329:17727   */\n      swap2\n      swap1\n      pop\n      jump\t// out\n        /* \"#utility.yul\":17733:18112   */\n    tag_149:\n        /* \"#utility.yul\":17917:17920   */\n      0x00\n        /* \"#utility.yul\":17939:18086   */\n      tag_399\n        /* \"#utility.yul\":18082:18085   */\n      dup3\n        /* \"#utility.yul\":17939:18086   */\n      tag_212\n      jump\t// in\n    tag_399:\n        /* \"#utility.yul\":17932:18086   */\n      swap2\n      pop\n        /* \"#utility.yul\":18103:18106   */\n      dup2\n        /* \"#utility.yul\":18096:18106   */\n      swap1\n      pop\n        /* \"#utility.yul\":17733:18112   */\n      swap2\n      swap1\n      pop\n      jump\t// out\n\n    auxdata: 0xa26469706673582212208b64fddd205714445794b54f7d8053a6997f9146a82b6dea21c8893e62d80a0664736f6c63430008090033\n}\n",
    "bytecode": {
      "linkReferences": {},
      "object": "60806040526040516200186f3803806200186f8339818101604052810190620000299190620003f9565b80600160006101000a81548173ffffffffffffffffffffffffffffffffffffffff021916908373ffffffffffffffffffffffffffffffffffffffff160217905550600080819055508860028190555087600381905550866004908051906020019062000097929190620000d1565b50856005819055508460068190555042600a819055508360078190555082600881905550816009819055505050505050505050506200055c565b828054620000df9062000526565b90600052602060002090601f0160209004810192826200010357600085556200014f565b82601f106200011e57805160ff19168380011785556200014f565b828001600101855582156200014f579182015b828111156200014e57825182559160200191906001019062000131565b5b5090506200015e919062000162565b5090565b5b808211156200017d57600081600090555060010162000163565b5090565b6000604051905090565b600080fd5b600080fd5b6000819050919050565b620001aa8162000195565b8114620001b657600080fd5b50565b600081519050620001ca816200019f565b92915050565b600080fd5b600080fd5b6000601f19601f8301169050919050565b7f4e487b7100000000000000000000000000000000000000000000000000000000600052604160045260246000fd5b6200022582620001da565b810181811067ffffffffffffffff82111715620002475762000246620001eb565b5b80604052505050565b60006200025c62000181565b90506200026a82826200021a565b919050565b600067ffffffffffffffff8211156200028d576200028c620001eb565b5b6200029882620001da565b9050602081019050919050565b60005b83811015620002c5578082015181840152602081019050620002a8565b83811115620002d5576000848401525b50505050565b6000620002f2620002ec846200026f565b62000250565b905082815260208101848484011115620003115762000310620001d5565b5b6200031e848285620002a5565b509392505050565b600082601f8301126200033e576200033d620001d0565b5b815162000350848260208601620002db565b91505092915050565b6000819050919050565b6200036e8162000359565b81146200037a57600080fd5b50565b6000815190506200038e8162000363565b92915050565b600073ffffffffffffffffffffffffffffffffffffffff82169050919050565b6000620003c18262000394565b9050919050565b620003d381620003b4565b8114620003df57600080fd5b50565b600081519050620003f381620003c8565b92915050565b60008060008060008060008060006101208a8c0312156200041f576200041e6200018b565b5b60006200042f8c828d01620001b9565b9950506020620004428c828d01620001b9565b98505060408a015167ffffffffffffffff81111562000466576200046562000190565b5b620004748c828d0162000326565b9750506060620004878c828d016200037d565b96505060806200049a8c828d016200037d565b95505060a0620004ad8c828d016200037d565b94505060c0620004c08c828d016200037d565b93505060e0620004d38c828d016200037d565b925050610100620004e78c828d01620003e2565b9150509295985092959850929598565b7f4e487b7100000000000000000000000000000000000000000000000000000000600052602260045260246000fd5b600060028204905060018216806200053f57607f821691505b60208210811415620005565762000555620004f7565b5b50919050565b611303806200056c6000396000f3fe6080604052600436106100e15760003560e01c806388bf19301161007f578063be9a655511610059578063be9a655514610285578063c3da42b8146102b0578063d8befbb6146102db578063f493e87014610304576100ef565b806388bf1930146102045780639c21a9b81461022f578063b582ec5f1461025a576100ef565b80635e650318116100bb5780635e650318146101585780637c2efcba146101835780638182a11f146101ae57806381a4a5f9146101d9576100ef565b80630482ff76146100f8578063247634931461010257806334133df91461012d576100ef565b366100ef5747600581905550005b47600581905550005b61010061032f565b005b34801561010e57600080fd5b506101176103f3565b604051610124919061096f565b60405180910390f35b34801561013957600080fd5b50610142610481565b60405161014f91906109aa565b60405180910390f35b34801561016457600080fd5b5061016d610487565b60405161017a91906109de565b60405180910390f35b34801561018f57600080fd5b5061019861048d565b6040516101a591906109aa565b60405180910390f35b3480156101ba57600080fd5b506101c3610493565b6040516101d091906109aa565b60405180910390f35b3480156101e557600080fd5b506101ee61049b565b6040516101fb9190610a3a565b60405180910390f35b34801561021057600080fd5b506102196104c1565b60405161022691906109de565b60405180910390f35b34801561023b57600080fd5b506102446104c7565b60405161025191906109aa565b60405180910390f35b34801561026657600080fd5b5061026f6104cd565b60405161027c91906109aa565b60405180910390f35b34801561029157600080fd5b5061029a6104d3565b6040516102a791906109aa565b60405180910390f35b3480156102bc57600080fd5b506102c56104d9565b6040516102d291906109aa565b60405180910390f35b3480156102e757600080fd5b5061030260048036038101906102fd9190610bf6565b6104df565b005b34801561031057600080fd5b506103196108d0565b60405161032691906109aa565b60405180910390f35b600160009054906101000a900473ffffffffffffffffffffffffffffffffffffffff1673ffffffffffffffffffffffffffffffffffffffff163373ffffffffffffffffffffffffffffffffffffffff16146103bf576040517f08c379a00000000000000000000000000000000000000000000000000000000081526004016103b690610d07565b60405180910390fd5b426008546007546103d09190610d56565b106103da57600080fd5b3373ffffffffffffffffffffffffffffffffffffffff16ff5b6004805461040090610ddb565b80601f016020809104026020016040519081016040528092919081815260200182805461042c90610ddb565b80156104795780601f1061044e57610100808354040283529160200191610479565b820191906000526020600020905b81548152906001019060200180831161045c57829003601f168201915b505050505081565b60095481565b60035481565b60065481565b600042905090565b600160009054906101000a900473ffffffffffffffffffffffffffffffffffffffff1681565b60025481565b60085481565b60005481565b600a5481565b60055481565b6008546007546104ef9190610d56565b4210610530576040517f08c379a000000000000000000000000000000000000000000000000000000000815260040161052790610e59565b60405180910390fd5b6000548211610574576040517f08c379a000000000000000000000000000000000000000000000000000000000815260040161056b90610ec5565b60405180910390fd5b6000808561058190610f22565b905060008561058f90610f22565b905060008054866105a09190610f89565b90505b600081146106a0576002836040516020016105be9190610fde565b6040516020818303038152906040526040516105da9190611035565b602060405180830381855afa1580156105f7573d6000803e3d6000fd5b5050506040513d601f19601f8201168201806040525081019061061a9190611078565b925060028260405160200161062f9190610fde565b60405160208183030381529060405260405161064b9190611035565b602060405180830381855afa158015610668573d6000803e3d6000fd5b5050506040513d601f19601f8201168201806040525081019061068b9190611078565b91508080610698906110a5565b9150506105a3565b82600254146106e4576040517f08c379a00000000000000000000000000000000000000000000000000000000081526004016106db9061111b565b60405180910390fd5b8160035414610728576040517f08c379a000000000000000000000000000000000000000000000000000000000815260040161071f90611187565b60405180910390fd5b600060028761073791906111d6565b141561075e5760026000548761074d9190610f89565b6107579190611207565b9350610787565b60026001600054886107709190610f89565b61077a9190610f89565b6107849190611207565b93505b600073ffffffffffffffffffffffffffffffffffffffff168573ffffffffffffffffffffffffffffffffffffffff1614610836578473ffffffffffffffffffffffffffffffffffffffff16600654856107e09190611238565b6040516107ec906112b8565b60006040518083038185875af1925050503d8060008114610829576040519150601f19603f3d011682016040523d82523d6000602084013e61082e565b606091505b50505061088b565b3373ffffffffffffffffffffffffffffffffffffffff166108fc6006548661085e9190611238565b9081150290604051600060405180830381858888f19350505050158015610889573d6000803e3d6000fd5b505b836005546108999190610f89565b60058190555085600081905550876108b090610f22565b600281905550866108c090610f22565b6003819055505050505050505050565b60075481565b600081519050919050565b600082825260208201905092915050565b60005b838110156109105780820151818401526020810190506108f5565b8381111561091f576000848401525b50505050565b6000601f19601f8301169050919050565b6000610941826108d6565b61094b81856108e1565b935061095b8185602086016108f2565b61096481610925565b840191505092915050565b600060208201905081810360008301526109898184610936565b905092915050565b6000819050919050565b6109a481610991565b82525050565b60006020820190506109bf600083018461099b565b92915050565b6000819050919050565b6109d8816109c5565b82525050565b60006020820190506109f360008301846109cf565b92915050565b600073ffffffffffffffffffffffffffffffffffffffff82169050919050565b6000610a24826109f9565b9050919050565b610a3481610a19565b82525050565b6000602082019050610a4f6000830184610a2b565b92915050565b6000604051905090565b600080fd5b600080fd5b600080fd5b600080fd5b7f4e487b7100000000000000000000000000000000000000000000000000000000600052604160045260246000fd5b610aab82610925565b810181811067ffffffffffffffff82111715610aca57610ac9610a73565b5b80604052505050565b6000610add610a55565b9050610ae98282610aa2565b919050565b600067ffffffffffffffff821115610b0957610b08610a73565b5b610b1282610925565b9050602081019050919050565b82818337600083830152505050565b6000610b41610b3c84610aee565b610ad3565b905082815260208101848484011115610b5d57610b5c610a6e565b5b610b68848285610b1f565b509392505050565b600082601f830112610b8557610b84610a69565b5b8135610b95848260208601610b2e565b91505092915050565b610ba781610991565b8114610bb257600080fd5b50565b600081359050610bc481610b9e565b92915050565b610bd381610a19565b8114610bde57600080fd5b50565b600081359050610bf081610bca565b92915050565b60008060008060808587031215610c1057610c0f610a5f565b5b600085013567ffffffffffffffff811115610c2e57610c2d610a64565b5b610c3a87828801610b70565b945050602085013567ffffffffffffffff811115610c5b57610c5a610a64565b5b610c6787828801610b70565b9350506040610c7887828801610bb5565b9250506060610c8987828801610be1565b91505092959194509250565b7f4f6e6c79206d65726368616e74206f66207468652064656c697665727920636160008201527f6e2073657420746865206368616e6e656c20706172616d732e00000000000000602082015250565b6000610cf16039836108e1565b9150610cfc82610c95565b604082019050919050565b60006020820190508181036000830152610d2081610ce4565b9050919050565b7f4e487b7100000000000000000000000000000000000000000000000000000000600052601160045260246000fd5b6000610d6182610991565b9150610d6c83610991565b9250827fffffffffffffffffffffffffffffffffffffffffffffffffffffffffffffffff03821115610da157610da0610d27565b5b828201905092915050565b7f4e487b7100000000000000000000000000000000000000000000000000000000600052602260045260246000fd5b60006002820490506001821680610df357607f821691505b60208210811415610e0757610e06610dac565b5b50919050565b7f54696d65206572726f7200000000000000000000000000000000000000000000600082015250565b6000610e43600a836108e1565b9150610e4e82610e0d565b602082019050919050565b60006020820190508181036000830152610e7281610e36565b9050919050565b7f6b203c3d206a0000000000000000000000000000000000000000000000000000600082015250565b6000610eaf6006836108e1565b9150610eba82610e79565b602082019050919050565b60006020820190508181036000830152610ede81610ea2565b9050919050565b600081519050919050565b6000819050602082019050919050565b6000610f0c82516109c5565b80915050919050565b600082821b905092915050565b6000610f2d82610ee5565b82610f3784610ef0565b9050610f4281610f00565b92506020821015610f8257610f7d7fffffffffffffffffffffffffffffffffffffffffffffffffffffffffffffffff83602003600802610f15565b831692505b5050919050565b6000610f9482610991565b9150610f9f83610991565b925082821015610fb257610fb1610d27565b5b828203905092915050565b6000819050919050565b610fd8610fd3826109c5565b610fbd565b82525050565b6000610fea8284610fc7565b60208201915081905092915050565b600081905092915050565b600061100f82610ee5565b6110198185610ff9565b93506110298185602086016108f2565b80840191505092915050565b60006110418284611004565b915081905092915050565b611055816109c5565b811461106057600080fd5b50565b6000815190506110728161104c565b92915050565b60006020828403121561108e5761108d610a5f565b5b600061109c84828501611063565b91505092915050565b60006110b082610991565b915060008214156110c4576110c3610d27565b5b600182039050919050565b7f575f6b6d20697320696e636f7272656374000000000000000000000000000000600082015250565b60006111056011836108e1565b9150611110826110cf565b602082019050919050565b60006020820190508181036000830152611134816110f8565b9050919050565b7f575f6b6320697320696e636f7272656374000000000000000000000000000000600082015250565b60006111716011836108e1565b915061117c8261113b565b602082019050919050565b600060208201905081810360008301526111a081611164565b9050919050565b7f4e487b7100000000000000000000000000000000000000000000000000000000600052601260045260246000fd5b60006111e182610991565b91506111ec83610991565b9250826111fc576111fb6111a7565b5b828206905092915050565b600061121282610991565b915061121d83610991565b92508261122d5761122c6111a7565b5b828204905092915050565b600061124382610991565b915061124e83610991565b9250817fffffffffffffffffffffffffffffffffffffffffffffffffffffffffffffffff048311821515161561128757611286610d27565b5b828202905092915050565b50565b60006112a2600083610ff9565b91506112ad82611292565b600082019050919050565b60006112c382611295565b915081905091905056fea26469706673582212208b64fddd205714445794b54f7d8053a6997f9146a82b6dea21c8893e62d80a0664736f6c63430008090033",
      "opcodes": "PUSH1 0x80 PUSH1 0x40 MSTORE PUSH1 0x40 MLOAD PUSH3 0x186F CODESIZE SUB DUP1 PUSH3 0x186F DUP4 CODECOPY DUP2 DUP2 ADD PUSH1 0x40 MSTORE DUP2 ADD SWAP1 PUSH3 0x29 SWAP2 SWAP1 PUSH3 0x3F9 JUMP JUMPDEST DUP1 PUSH1 0x1 PUSH1 0x0 PUSH2 0x100 EXP DUP2 SLOAD DUP2 PUSH20 0xFFFFFFFFFFFFFFFFFFFFFFFFFFFFFFFFFFFFFFFF MUL NOT AND SWAP1 DUP4 PUSH20 0xFFFFFFFFFFFFFFFFFFFFFFFFFFFFFFFFFFFFFFFF AND MUL OR SWAP1 SSTORE POP PUSH1 0x0 DUP1 DUP2 SWAP1 SSTORE POP DUP9 PUSH1 0x2 DUP2 SWAP1 SSTORE POP DUP8 PUSH1 0x3 DUP2 SWAP1 SSTORE POP DUP7 PUSH1 0x4 SWAP1 DUP1 MLOAD SWAP1 PUSH1 0x20 ADD SWAP1 PUSH3 0x97 SWAP3 SWAP2 SWAP1 PUSH3 0xD1 JUMP JUMPDEST POP DUP6 PUSH1 0x5 DUP2 SWAP1 SSTORE POP DUP5 PUSH1 0x6 DUP2 SWAP1 SSTORE POP TIMESTAMP PUSH1 0xA DUP2 SWAP1 SSTORE POP DUP4 PUSH1 0x7 DUP2 SWAP1 SSTORE POP DUP3 PUSH1 0x8 DUP2 SWAP1 SSTORE POP DUP2 PUSH1 0x9 DUP2 SWAP1 SSTORE POP POP POP POP POP POP POP POP POP POP PUSH3 0x55C JUMP JUMPDEST DUP3 DUP1 SLOAD PUSH3 0xDF SWAP1 PUSH3 0x526 JUMP JUMPDEST SWAP1 PUSH1 0x0 MSTORE PUSH1 0x20 PUSH1 0x0 KECCAK256 SWAP1 PUSH1 0x1F ADD PUSH1 0x20 SWAP1 DIV DUP2 ADD SWAP3 DUP3 PUSH3 0x103 JUMPI PUSH1 0x0 DUP6 SSTORE PUSH3 0x14F JUMP JUMPDEST DUP3 PUSH1 0x1F LT PUSH3 0x11E JUMPI DUP1 MLOAD PUSH1 0xFF NOT AND DUP4 DUP1 ADD OR DUP6 SSTORE PUSH3 0x14F JUMP JUMPDEST DUP3 DUP1 ADD PUSH1 0x1 ADD DUP6 SSTORE DUP3 ISZERO PUSH3 0x14F JUMPI SWAP2 DUP3 ADD JUMPDEST DUP3 DUP2 GT ISZERO PUSH3 0x14E JUMPI DUP3 MLOAD DUP3 SSTORE SWAP2 PUSH1 0x20 ADD SWAP2 SWAP1 PUSH1 0x1 ADD SWAP1 PUSH3 0x131 JUMP JUMPDEST JUMPDEST POP SWAP1 POP PUSH3 0x15E SWAP2 SWAP1 PUSH3 0x162 JUMP JUMPDEST POP SWAP1 JUMP JUMPDEST JUMPDEST DUP1 DUP3 GT ISZERO PUSH3 0x17D JUMPI PUSH1 0x0 DUP2 PUSH1 0x0 SWAP1 SSTORE POP PUSH1 0x1 ADD PUSH3 0x163 JUMP JUMPDEST POP SWAP1 JUMP JUMPDEST PUSH1 0x0 PUSH1 0x40 MLOAD SWAP1 POP SWAP1 JUMP JUMPDEST PUSH1 0x0 DUP1 REVERT JUMPDEST PUSH1 0x0 DUP1 REVERT JUMPDEST PUSH1 0x0 DUP2 SWAP1 POP SWAP2 SWAP1 POP JUMP JUMPDEST PUSH3 0x1AA DUP2 PUSH3 0x195 JUMP JUMPDEST DUP2 EQ PUSH3 0x1B6 JUMPI PUSH1 0x0 DUP1 REVERT JUMPDEST POP JUMP JUMPDEST PUSH1 0x0 DUP2 MLOAD SWAP1 POP PUSH3 0x1CA DUP2 PUSH3 0x19F JUMP JUMPDEST SWAP3 SWAP2 POP POP JUMP JUMPDEST PUSH1 0x0 DUP1 REVERT JUMPDEST PUSH1 0x0 DUP1 REVERT JUMPDEST PUSH1 0x0 PUSH1 0x1F NOT PUSH1 0x1F DUP4 ADD AND SWAP1 POP SWAP2 SWAP1 POP JUMP JUMPDEST PUSH32 0x4E487B7100000000000000000000000000000000000000000000000000000000 PUSH1 0x0 MSTORE PUSH1 0x41 PUSH1 0x4 MSTORE PUSH1 0x24 PUSH1 0x0 REVERT JUMPDEST PUSH3 0x225 DUP3 PUSH3 0x1DA JUMP JUMPDEST DUP2 ADD DUP2 DUP2 LT PUSH8 0xFFFFFFFFFFFFFFFF DUP3 GT OR ISZERO PUSH3 0x247 JUMPI PUSH3 0x246 PUSH3 0x1EB JUMP JUMPDEST JUMPDEST DUP1 PUSH1 0x40 MSTORE POP POP POP JUMP JUMPDEST PUSH1 0x0 PUSH3 0x25C PUSH3 0x181 JUMP JUMPDEST SWAP1 POP PUSH3 0x26A DUP3 DUP3 PUSH3 0x21A JUMP JUMPDEST SWAP2 SWAP1 POP JUMP JUMPDEST PUSH1 0x0 PUSH8 0xFFFFFFFFFFFFFFFF DUP3 GT ISZERO PUSH3 0x28D JUMPI PUSH3 0x28C PUSH3 0x1EB JUMP JUMPDEST JUMPDEST PUSH3 0x298 DUP3 PUSH3 0x1DA JUMP JUMPDEST SWAP1 POP PUSH1 0x20 DUP2 ADD SWAP1 POP SWAP2 SWAP1 POP JUMP JUMPDEST PUSH1 0x0 JUMPDEST DUP4 DUP2 LT ISZERO PUSH3 0x2C5 JUMPI DUP1 DUP3 ADD MLOAD DUP2 DUP5 ADD MSTORE PUSH1 0x20 DUP2 ADD SWAP1 POP PUSH3 0x2A8 JUMP JUMPDEST DUP4 DUP2 GT ISZERO PUSH3 0x2D5 JUMPI PUSH1 0x0 DUP5 DUP5 ADD MSTORE JUMPDEST POP POP POP POP JUMP JUMPDEST PUSH1 0x0 PUSH3 0x2F2 PUSH3 0x2EC DUP5 PUSH3 0x26F JUMP JUMPDEST PUSH3 0x250 JUMP JUMPDEST SWAP1 POP DUP3 DUP2 MSTORE PUSH1 0x20 DUP2 ADD DUP5 DUP5 DUP5 ADD GT ISZERO PUSH3 0x311 JUMPI PUSH3 0x310 PUSH3 0x1D5 JUMP JUMPDEST JUMPDEST PUSH3 0x31E DUP5 DUP3 DUP6 PUSH3 0x2A5 JUMP JUMPDEST POP SWAP4 SWAP3 POP POP POP JUMP JUMPDEST PUSH1 0x0 DUP3 PUSH1 0x1F DUP4 ADD SLT PUSH3 0x33E JUMPI PUSH3 0x33D PUSH3 0x1D0 JUMP JUMPDEST JUMPDEST DUP2 MLOAD PUSH3 0x350 DUP5 DUP3 PUSH1 0x20 DUP7 ADD PUSH3 0x2DB JUMP JUMPDEST SWAP2 POP POP SWAP3 SWAP2 POP POP JUMP JUMPDEST PUSH1 0x0 DUP2 SWAP1 POP SWAP2 SWAP1 POP JUMP JUMPDEST PUSH3 0x36E DUP2 PUSH3 0x359 JUMP JUMPDEST DUP2 EQ PUSH3 0x37A JUMPI PUSH1 0x0 DUP1 REVERT JUMPDEST POP JUMP JUMPDEST PUSH1 0x0 DUP2 MLOAD SWAP1 POP PUSH3 0x38E DUP2 PUSH3 0x363 JUMP JUMPDEST SWAP3 SWAP2 POP POP JUMP JUMPDEST PUSH1 0x0 PUSH20 0xFFFFFFFFFFFFFFFFFFFFFFFFFFFFFFFFFFFFFFFF DUP3 AND SWAP1 POP SWAP2 SWAP1 POP JUMP JUMPDEST PUSH1 0x0 PUSH3 0x3C1 DUP3 PUSH3 0x394 JUMP JUMPDEST SWAP1 POP SWAP2 SWAP1 POP JUMP JUMPDEST PUSH3 0x3D3 DUP2 PUSH3 0x3B4 JUMP JUMPDEST DUP2 EQ PUSH3 0x3DF JUMPI PUSH1 0x0 DUP1 REVERT JUMPDEST POP JUMP JUMPDEST PUSH1 0x0 DUP2 MLOAD SWAP1 POP PUSH3 0x3F3 DUP2 PUSH3 0x3C8 JUMP JUMPDEST SWAP3 SWAP2 POP POP JUMP JUMPDEST PUSH1 0x0 DUP1 PUSH1 0x0 DUP1 PUSH1 0x0 DUP1 PUSH1 0x0 DUP1 PUSH1 0x0 PUSH2 0x120 DUP11 DUP13 SUB SLT ISZERO PUSH3 0x41F JUMPI PUSH3 0x41E PUSH3 0x18B JUMP JUMPDEST JUMPDEST PUSH1 0x0 PUSH3 0x42F DUP13 DUP3 DUP14 ADD PUSH3 0x1B9 JUMP JUMPDEST SWAP10 POP POP PUSH1 0x20 PUSH3 0x442 DUP13 DUP3 DUP14 ADD PUSH3 0x1B9 JUMP JUMPDEST SWAP9 POP POP PUSH1 0x40 DUP11 ADD MLOAD PUSH8 0xFFFFFFFFFFFFFFFF DUP2 GT ISZERO PUSH3 0x466 JUMPI PUSH3 0x465 PUSH3 0x190 JUMP JUMPDEST JUMPDEST PUSH3 0x474 DUP13 DUP3 DUP14 ADD PUSH3 0x326 JUMP JUMPDEST SWAP8 POP POP PUSH1 0x60 PUSH3 0x487 DUP13 DUP3 DUP14 ADD PUSH3 0x37D JUMP JUMPDEST SWAP7 POP POP PUSH1 0x80 PUSH3 0x49A DUP13 DUP3 DUP14 ADD PUSH3 0x37D JUMP JUMPDEST SWAP6 POP POP PUSH1 0xA0 PUSH3 0x4AD DUP13 DUP3 DUP14 ADD PUSH3 0x37D JUMP JUMPDEST SWAP5 POP POP PUSH1 0xC0 PUSH3 0x4C0 DUP13 DUP3 DUP14 ADD PUSH3 0x37D JUMP JUMPDEST SWAP4 POP POP PUSH1 0xE0 PUSH3 0x4D3 DUP13 DUP3 DUP14 ADD PUSH3 0x37D JUMP JUMPDEST SWAP3 POP POP PUSH2 0x100 PUSH3 0x4E7 DUP13 DUP3 DUP14 ADD PUSH3 0x3E2 JUMP JUMPDEST SWAP2 POP POP SWAP3 SWAP6 SWAP9 POP SWAP3 SWAP6 SWAP9 POP SWAP3 SWAP6 SWAP9 JUMP JUMPDEST PUSH32 0x4E487B7100000000000000000000000000000000000000000000000000000000 PUSH1 0x0 MSTORE PUSH1 0x22 PUSH1 0x4 MSTORE PUSH1 0x24 PUSH1 0x0 REVERT JUMPDEST PUSH1 0x0 PUSH1 0x2 DUP3 DIV SWAP1 POP PUSH1 0x1 DUP3 AND DUP1 PUSH3 0x53F JUMPI PUSH1 0x7F DUP3 AND SWAP2 POP JUMPDEST PUSH1 0x20 DUP3 LT DUP2 EQ ISZERO PUSH3 0x556 JUMPI PUSH3 0x555 PUSH3 0x4F7 JUMP JUMPDEST JUMPDEST POP SWAP2 SWAP1 POP JUMP JUMPDEST PUSH2 0x1303 DUP1 PUSH3 0x56C PUSH1 0x0 CODECOPY PUSH1 0x0 RETURN INVALID PUSH1 0x80 PUSH1 0x40 MSTORE PUSH1 0x4 CALLDATASIZE LT PUSH2 0xE1 JUMPI PUSH1 0x0 CALLDATALOAD PUSH1 0xE0 SHR DUP1 PUSH4 0x88BF1930 GT PUSH2 0x7F JUMPI DUP1 PUSH4 0xBE9A6555 GT PUSH2 0x59 JUMPI DUP1 PUSH4 0xBE9A6555 EQ PUSH2 0x285 JUMPI DUP1 PUSH4 0xC3DA42B8 EQ PUSH2 0x2B0 JUMPI DUP1 PUSH4 0xD8BEFBB6 EQ PUSH2 0x2DB JUMPI DUP1 PUSH4 0xF493E870 EQ PUSH2 0x304 JUMPI PUSH2 0xEF JUMP JUMPDEST DUP1 PUSH4 0x88BF1930 EQ PUSH2 0x204 JUMPI DUP1 PUSH4 0x9C21A9B8 EQ PUSH2 0x22F JUMPI DUP1 PUSH4 0xB582EC5F EQ PUSH2 0x25A JUMPI PUSH2 0xEF JUMP JUMPDEST DUP1 PUSH4 0x5E650318 GT PUSH2 0xBB JUMPI DUP1 PUSH4 0x5E650318 EQ PUSH2 0x158 JUMPI DUP1 PUSH4 0x7C2EFCBA EQ PUSH2 0x183 JUMPI DUP1 PUSH4 0x8182A11F EQ PUSH2 0x1AE JUMPI DUP1 PUSH4 0x81A4A5F9 EQ PUSH2 0x1D9 JUMPI PUSH2 0xEF JUMP JUMPDEST DUP1 PUSH4 0x482FF76 EQ PUSH2 0xF8 JUMPI DUP1 PUSH4 0x24763493 EQ PUSH2 0x102 JUMPI DUP1 PUSH4 0x34133DF9 EQ PUSH2 0x12D JUMPI PUSH2 0xEF JUMP JUMPDEST CALLDATASIZE PUSH2 0xEF JUMPI SELFBALANCE PUSH1 0x5 DUP2 SWAP1 SSTORE POP STOP JUMPDEST SELFBALANCE PUSH1 0x5 DUP2 SWAP1 SSTORE POP STOP JUMPDEST PUSH2 0x100 PUSH2 0x32F JUMP JUMPDEST STOP JUMPDEST CALLVALUE DUP1 ISZERO PUSH2 0x10E JUMPI PUSH1 0x0 DUP1 REVERT JUMPDEST POP PUSH2 0x117 PUSH2 0x3F3 JUMP JUMPDEST PUSH1 0x40 MLOAD PUSH2 0x124 SWAP2 SWAP1 PUSH2 0x96F JUMP JUMPDEST PUSH1 0x40 MLOAD DUP1 SWAP2 SUB SWAP1 RETURN JUMPDEST CALLVALUE DUP1 ISZERO PUSH2 0x139 JUMPI PUSH1 0x0 DUP1 REVERT JUMPDEST POP PUSH2 0x142 PUSH2 0x481 JUMP JUMPDEST PUSH1 0x40 MLOAD PUSH2 0x14F SWAP2 SWAP1 PUSH2 0x9AA JUMP JUMPDEST PUSH1 0x40 MLOAD DUP1 SWAP2 SUB SWAP1 RETURN JUMPDEST CALLVALUE DUP1 ISZERO PUSH2 0x164 JUMPI PUSH1 0x0 DUP1 REVERT JUMPDEST POP PUSH2 0x16D PUSH2 0x487 JUMP JUMPDEST PUSH1 0x40 MLOAD PUSH2 0x17A SWAP2 SWAP1 PUSH2 0x9DE JUMP JUMPDEST PUSH1 0x40 MLOAD DUP1 SWAP2 SUB SWAP1 RETURN JUMPDEST CALLVALUE DUP1 ISZERO PUSH2 0x18F JUMPI PUSH1 0x0 DUP1 REVERT JUMPDEST POP PUSH2 0x198 PUSH2 0x48D JUMP JUMPDEST PUSH1 0x40 MLOAD PUSH2 0x1A5 SWAP2 SWAP1 PUSH2 0x9AA JUMP JUMPDEST PUSH1 0x40 MLOAD DUP1 SWAP2 SUB SWAP1 RETURN JUMPDEST CALLVALUE DUP1 ISZERO PUSH2 0x1BA JUMPI PUSH1 0x0 DUP1 REVERT JUMPDEST POP PUSH2 0x1C3 PUSH2 0x493 JUMP JUMPDEST PUSH1 0x40 MLOAD PUSH2 0x1D0 SWAP2 SWAP1 PUSH2 0x9AA JUMP JUMPDEST PUSH1 0x40 MLOAD DUP1 SWAP2 SUB SWAP1 RETURN JUMPDEST CALLVALUE DUP1 ISZERO PUSH2 0x1E5 JUMPI PUSH1 0x0 DUP1 REVERT JUMPDEST POP PUSH2 0x1EE PUSH2 0x49B JUMP JUMPDEST PUSH1 0x40 MLOAD PUSH2 0x1FB SWAP2 SWAP1 PUSH2 0xA3A JUMP JUMPDEST PUSH1 0x40 MLOAD DUP1 SWAP2 SUB SWAP1 RETURN JUMPDEST CALLVALUE DUP1 ISZERO PUSH2 0x210 JUMPI PUSH1 0x0 DUP1 REVERT JUMPDEST POP PUSH2 0x219 PUSH2 0x4C1 JUMP JUMPDEST PUSH1 0x40 MLOAD PUSH2 0x226 SWAP2 SWAP1 PUSH2 0x9DE JUMP JUMPDEST PUSH1 0x40 MLOAD DUP1 SWAP2 SUB SWAP1 RETURN JUMPDEST CALLVALUE DUP1 ISZERO PUSH2 0x23B JUMPI PUSH1 0x0 DUP1 REVERT JUMPDEST POP PUSH2 0x244 PUSH2 0x4C7 JUMP JUMPDEST PUSH1 0x40 MLOAD PUSH2 0x251 SWAP2 SWAP1 PUSH2 0x9AA JUMP JUMPDEST PUSH1 0x40 MLOAD DUP1 SWAP2 SUB SWAP1 RETURN JUMPDEST CALLVALUE DUP1 ISZERO PUSH2 0x266 JUMPI PUSH1 0x0 DUP1 REVERT JUMPDEST POP PUSH2 0x26F PUSH2 0x4CD JUMP JUMPDEST PUSH1 0x40 MLOAD PUSH2 0x27C SWAP2 SWAP1 PUSH2 0x9AA JUMP JUMPDEST PUSH1 0x40 MLOAD DUP1 SWAP2 SUB SWAP1 RETURN JUMPDEST CALLVALUE DUP1 ISZERO PUSH2 0x291 JUMPI PUSH1 0x0 DUP1 REVERT JUMPDEST POP PUSH2 0x29A PUSH2 0x4D3 JUMP JUMPDEST PUSH1 0x40 MLOAD PUSH2 0x2A7 SWAP2 SWAP1 PUSH2 0x9AA JUMP JUMPDEST PUSH1 0x40 MLOAD DUP1 SWAP2 SUB SWAP1 RETURN JUMPDEST CALLVALUE DUP1 ISZERO PUSH2 0x2BC JUMPI PUSH1 0x0 DUP1 REVERT JUMPDEST POP PUSH2 0x2C5 PUSH2 0x4D9 JUMP JUMPDEST PUSH1 0x40 MLOAD PUSH2 0x2D2 SWAP2 SWAP1 PUSH2 0x9AA JUMP JUMPDEST PUSH1 0x40 MLOAD DUP1 SWAP2 SUB SWAP1 RETURN JUMPDEST CALLVALUE DUP1 ISZERO PUSH2 0x2E7 JUMPI PUSH1 0x0 DUP1 REVERT JUMPDEST POP PUSH2 0x302 PUSH1 0x4 DUP1 CALLDATASIZE SUB DUP2 ADD SWAP1 PUSH2 0x2FD SWAP2 SWAP1 PUSH2 0xBF6 JUMP JUMPDEST PUSH2 0x4DF JUMP JUMPDEST STOP JUMPDEST CALLVALUE DUP1 ISZERO PUSH2 0x310 JUMPI PUSH1 0x0 DUP1 REVERT JUMPDEST POP PUSH2 0x319 PUSH2 0x8D0 JUMP JUMPDEST PUSH1 0x40 MLOAD PUSH2 0x326 SWAP2 SWAP1 PUSH2 0x9AA JUMP JUMPDEST PUSH1 0x40 MLOAD DUP1 SWAP2 SUB SWAP1 RETURN JUMPDEST PUSH1 0x1 PUSH1 0x0 SWAP1 SLOAD SWAP1 PUSH2 0x100 EXP SWAP1 DIV PUSH20 0xFFFFFFFFFFFFFFFFFFFFFFFFFFFFFFFFFFFFFFFF AND PUSH20 0xFFFFFFFFFFFFFFFFFFFFFFFFFFFFFFFFFFFFFFFF AND CALLER PUSH20 0xFFFFFFFFFFFFFFFFFFFFFFFFFFFFFFFFFFFFFFFF AND EQ PUSH2 0x3BF JUMPI PUSH1 0x40 MLOAD PUSH32 0x8C379A000000000000000000000000000000000000000000000000000000000 DUP2 MSTORE PUSH1 0x4 ADD PUSH2 0x3B6 SWAP1 PUSH2 0xD07 JUMP JUMPDEST PUSH1 0x40 MLOAD DUP1 SWAP2 SUB SWAP1 REVERT JUMPDEST TIMESTAMP PUSH1 0x8 SLOAD PUSH1 0x7 SLOAD PUSH2 0x3D0 SWAP2 SWAP1 PUSH2 0xD56 JUMP JUMPDEST LT PUSH2 0x3DA JUMPI PUSH1 0x0 DUP1 REVERT JUMPDEST CALLER PUSH20 0xFFFFFFFFFFFFFFFFFFFFFFFFFFFFFFFFFFFFFFFF AND SELFDESTRUCT JUMPDEST PUSH1 0x4 DUP1 SLOAD PUSH2 0x400 SWAP1 PUSH2 0xDDB JUMP JUMPDEST DUP1 PUSH1 0x1F ADD PUSH1 0x20 DUP1 SWAP2 DIV MUL PUSH1 0x20 ADD PUSH1 0x40 MLOAD SWAP1 DUP2 ADD PUSH1 0x40 MSTORE DUP1 SWAP3 SWAP2 SWAP1 DUP2 DUP2 MSTORE PUSH1 0x20 ADD DUP3 DUP1 SLOAD PUSH2 0x42C SWAP1 PUSH2 0xDDB JUMP JUMPDEST DUP1 ISZERO PUSH2 0x479 JUMPI DUP1 PUSH1 0x1F LT PUSH2 0x44E JUMPI PUSH2 0x100 DUP1 DUP4 SLOAD DIV MUL DUP4 MSTORE SWAP2 PUSH1 0x20 ADD SWAP2 PUSH2 0x479 JUMP JUMPDEST DUP3 ADD SWAP2 SWAP1 PUSH1 0x0 MSTORE PUSH1 0x20 PUSH1 0x0 KECCAK256 SWAP1 JUMPDEST DUP2 SLOAD DUP2 MSTORE SWAP1 PUSH1 0x1 ADD SWAP1 PUSH1 0x20 ADD DUP1 DUP4 GT PUSH2 0x45C JUMPI DUP3 SWAP1 SUB PUSH1 0x1F AND DUP3 ADD SWAP2 JUMPDEST POP POP POP POP POP DUP2 JUMP JUMPDEST PUSH1 0x9 SLOAD DUP2 JUMP JUMPDEST PUSH1 0x3 SLOAD DUP2 JUMP JUMPDEST PUSH1 0x6 SLOAD DUP2 JUMP JUMPDEST PUSH1 0x0 TIMESTAMP SWAP1 POP SWAP1 JUMP JUMPDEST PUSH1 0x1 PUSH1 0x0 SWAP1 SLOAD SWAP1 PUSH2 0x100 EXP SWAP1 DIV PUSH20 0xFFFFFFFFFFFFFFFFFFFFFFFFFFFFFFFFFFFFFFFF AND DUP2 JUMP JUMPDEST PUSH1 0x2 SLOAD DUP2 JUMP JUMPDEST PUSH1 0x8 SLOAD DUP2 JUMP JUMPDEST PUSH1 0x0 SLOAD DUP2 JUMP JUMPDEST PUSH1 0xA SLOAD DUP2 JUMP JUMPDEST PUSH1 0x5 SLOAD DUP2 JUMP JUMPDEST PUSH1 0x8 SLOAD PUSH1 0x7 SLOAD PUSH2 0x4EF SWAP2 SWAP1 PUSH2 0xD56 JUMP JUMPDEST TIMESTAMP LT PUSH2 0x530 JUMPI PUSH1 0x40 MLOAD PUSH32 0x8C379A000000000000000000000000000000000000000000000000000000000 DUP2 MSTORE PUSH1 0x4 ADD PUSH2 0x527 SWAP1 PUSH2 0xE59 JUMP JUMPDEST PUSH1 0x40 MLOAD DUP1 SWAP2 SUB SWAP1 REVERT JUMPDEST PUSH1 0x0 SLOAD DUP3 GT PUSH2 0x574 JUMPI PUSH1 0x40 MLOAD PUSH32 0x8C379A000000000000000000000000000000000000000000000000000000000 DUP2 MSTORE PUSH1 0x4 ADD PUSH2 0x56B SWAP1 PUSH2 0xEC5 JUMP JUMPDEST PUSH1 0x40 MLOAD DUP1 SWAP2 SUB SWAP1 REVERT JUMPDEST PUSH1 0x0 DUP1 DUP6 PUSH2 0x581 SWAP1 PUSH2 0xF22 JUMP JUMPDEST SWAP1 POP PUSH1 0x0 DUP6 PUSH2 0x58F SWAP1 PUSH2 0xF22 JUMP JUMPDEST SWAP1 POP PUSH1 0x0 DUP1 SLOAD DUP7 PUSH2 0x5A0 SWAP2 SWAP1 PUSH2 0xF89 JUMP JUMPDEST SWAP1 POP JUMPDEST PUSH1 0x0 DUP2 EQ PUSH2 0x6A0 JUMPI PUSH1 0x2 DUP4 PUSH1 0x40 MLOAD PUSH1 0x20 ADD PUSH2 0x5BE SWAP2 SWAP1 PUSH2 0xFDE JUMP JUMPDEST PUSH1 0x40 MLOAD PUSH1 0x20 DUP2 DUP4 SUB SUB DUP2 MSTORE SWAP1 PUSH1 0x40 MSTORE PUSH1 0x40 MLOAD PUSH2 0x5DA SWAP2 SWAP1 PUSH2 0x1035 JUMP JUMPDEST PUSH1 0x20 PUSH1 0x40 MLOAD DUP1 DUP4 SUB DUP2 DUP6 GAS STATICCALL ISZERO DUP1 ISZERO PUSH2 0x5F7 JUMPI RETURNDATASIZE PUSH1 0x0 DUP1 RETURNDATACOPY RETURNDATASIZE PUSH1 0x0 REVERT JUMPDEST POP POP POP PUSH1 0x40 MLOAD RETURNDATASIZE PUSH1 0x1F NOT PUSH1 0x1F DUP3 ADD AND DUP3 ADD DUP1 PUSH1 0x40 MSTORE POP DUP2 ADD SWAP1 PUSH2 0x61A SWAP2 SWAP1 PUSH2 0x1078 JUMP JUMPDEST SWAP3 POP PUSH1 0x2 DUP3 PUSH1 0x40 MLOAD PUSH1 0x20 ADD PUSH2 0x62F SWAP2 SWAP1 PUSH2 0xFDE JUMP JUMPDEST PUSH1 0x40 MLOAD PUSH1 0x20 DUP2 DUP4 SUB SUB DUP2 MSTORE SWAP1 PUSH1 0x40 MSTORE PUSH1 0x40 MLOAD PUSH2 0x64B SWAP2 SWAP1 PUSH2 0x1035 JUMP JUMPDEST PUSH1 0x20 PUSH1 0x40 MLOAD DUP1 DUP4 SUB DUP2 DUP6 GAS STATICCALL ISZERO DUP1 ISZERO PUSH2 0x668 JUMPI RETURNDATASIZE PUSH1 0x0 DUP1 RETURNDATACOPY RETURNDATASIZE PUSH1 0x0 REVERT JUMPDEST POP POP POP PUSH1 0x40 MLOAD RETURNDATASIZE PUSH1 0x1F NOT PUSH1 0x1F DUP3 ADD AND DUP3 ADD DUP1 PUSH1 0x40 MSTORE POP DUP2 ADD SWAP1 PUSH2 0x68B SWAP2 SWAP1 PUSH2 0x1078 JUMP JUMPDEST SWAP2 POP DUP1 DUP1 PUSH2 0x698 SWAP1 PUSH2 0x10A5 JUMP JUMPDEST SWAP2 POP POP PUSH2 0x5A3 JUMP JUMPDEST DUP3 PUSH1 0x2 SLOAD EQ PUSH2 0x6E4 JUMPI PUSH1 0x40 MLOAD PUSH32 0x8C379A000000000000000000000000000000000000000000000000000000000 DUP2 MSTORE PUSH1 0x4 ADD PUSH2 0x6DB SWAP1 PUSH2 0x111B JUMP JUMPDEST PUSH1 0x40 MLOAD DUP1 SWAP2 SUB SWAP1 REVERT JUMPDEST DUP2 PUSH1 0x3 SLOAD EQ PUSH2 0x728 JUMPI PUSH1 0x40 MLOAD PUSH32 0x8C379A000000000000000000000000000000000000000000000000000000000 DUP2 MSTORE PUSH1 0x4 ADD PUSH2 0x71F SWAP1 PUSH2 0x1187 JUMP JUMPDEST PUSH1 0x40 MLOAD DUP1 SWAP2 SUB SWAP1 REVERT JUMPDEST PUSH1 0x0 PUSH1 0x2 DUP8 PUSH2 0x737 SWAP2 SWAP1 PUSH2 0x11D6 JUMP JUMPDEST EQ ISZERO PUSH2 0x75E JUMPI PUSH1 0x2 PUSH1 0x0 SLOAD DUP8 PUSH2 0x74D SWAP2 SWAP1 PUSH2 0xF89 JUMP JUMPDEST PUSH2 0x757 SWAP2 SWAP1 PUSH2 0x1207 JUMP JUMPDEST SWAP4 POP PUSH2 0x787 JUMP JUMPDEST PUSH1 0x2 PUSH1 0x1 PUSH1 0x0 SLOAD DUP9 PUSH2 0x770 SWAP2 SWAP1 PUSH2 0xF89 JUMP JUMPDEST PUSH2 0x77A SWAP2 SWAP1 PUSH2 0xF89 JUMP JUMPDEST PUSH2 0x784 SWAP2 SWAP1 PUSH2 0x1207 JUMP JUMPDEST SWAP4 POP JUMPDEST PUSH1 0x0 PUSH20 0xFFFFFFFFFFFFFFFFFFFFFFFFFFFFFFFFFFFFFFFF AND DUP6 PUSH20 0xFFFFFFFFFFFFFFFFFFFFFFFFFFFFFFFFFFFFFFFF AND EQ PUSH2 0x836 JUMPI DUP5 PUSH20 0xFFFFFFFFFFFFFFFFFFFFFFFFFFFFFFFFFFFFFFFF AND PUSH1 0x6 SLOAD DUP6 PUSH2 0x7E0 SWAP2 SWAP1 PUSH2 0x1238 JUMP JUMPDEST PUSH1 0x40 MLOAD PUSH2 0x7EC SWAP1 PUSH2 0x12B8 JUMP JUMPDEST PUSH1 0x0 PUSH1 0x40 MLOAD DUP1 DUP4 SUB DUP2 DUP6 DUP8 GAS CALL SWAP3 POP POP POP RETURNDATASIZE DUP1 PUSH1 0x0 DUP2 EQ PUSH2 0x829 JUMPI PUSH1 0x40 MLOAD SWAP2 POP PUSH1 0x1F NOT PUSH1 0x3F RETURNDATASIZE ADD AND DUP3 ADD PUSH1 0x40 MSTORE RETURNDATASIZE DUP3 MSTORE RETURNDATASIZE PUSH1 0x0 PUSH1 0x20 DUP5 ADD RETURNDATACOPY PUSH2 0x82E JUMP JUMPDEST PUSH1 0x60 SWAP2 POP JUMPDEST POP POP POP PUSH2 0x88B JUMP JUMPDEST CALLER PUSH20 0xFFFFFFFFFFFFFFFFFFFFFFFFFFFFFFFFFFFFFFFF AND PUSH2 0x8FC PUSH1 0x6 SLOAD DUP7 PUSH2 0x85E SWAP2 SWAP1 PUSH2 0x1238 JUMP JUMPDEST SWAP1 DUP2 ISZERO MUL SWAP1 PUSH1 0x40 MLOAD PUSH1 0x0 PUSH1 0x40 MLOAD DUP1 DUP4 SUB DUP2 DUP6 DUP9 DUP9 CALL SWAP4 POP POP POP POP ISZERO DUP1 ISZERO PUSH2 0x889 JUMPI RETURNDATASIZE PUSH1 0x0 DUP1 RETURNDATACOPY RETURNDATASIZE PUSH1 0x0 REVERT JUMPDEST POP JUMPDEST DUP4 PUSH1 0x5 SLOAD PUSH2 0x899 SWAP2 SWAP1 PUSH2 0xF89 JUMP JUMPDEST PUSH1 0x5 DUP2 SWAP1 SSTORE POP DUP6 PUSH1 0x0 DUP2 SWAP1 SSTORE POP DUP8 PUSH2 0x8B0 SWAP1 PUSH2 0xF22 JUMP JUMPDEST PUSH1 0x2 DUP2 SWAP1 SSTORE POP DUP7 PUSH2 0x8C0 SWAP1 PUSH2 0xF22 JUMP JUMPDEST PUSH1 0x3 DUP2 SWAP1 SSTORE POP POP POP POP POP POP POP POP POP JUMP JUMPDEST PUSH1 0x7 SLOAD DUP2 JUMP JUMPDEST PUSH1 0x0 DUP2 MLOAD SWAP1 POP SWAP2 SWAP1 POP JUMP JUMPDEST PUSH1 0x0 DUP3 DUP3 MSTORE PUSH1 0x20 DUP3 ADD SWAP1 POP SWAP3 SWAP2 POP POP JUMP JUMPDEST PUSH1 0x0 JUMPDEST DUP4 DUP2 LT ISZERO PUSH2 0x910 JUMPI DUP1 DUP3 ADD MLOAD DUP2 DUP5 ADD MSTORE PUSH1 0x20 DUP2 ADD SWAP1 POP PUSH2 0x8F5 JUMP JUMPDEST DUP4 DUP2 GT ISZERO PUSH2 0x91F JUMPI PUSH1 0x0 DUP5 DUP5 ADD MSTORE JUMPDEST POP POP POP POP JUMP JUMPDEST PUSH1 0x0 PUSH1 0x1F NOT PUSH1 0x1F DUP4 ADD AND SWAP1 POP SWAP2 SWAP1 POP JUMP JUMPDEST PUSH1 0x0 PUSH2 0x941 DUP3 PUSH2 0x8D6 JUMP JUMPDEST PUSH2 0x94B DUP2 DUP6 PUSH2 0x8E1 JUMP JUMPDEST SWAP4 POP PUSH2 0x95B DUP2 DUP6 PUSH1 0x20 DUP7 ADD PUSH2 0x8F2 JUMP JUMPDEST PUSH2 0x964 DUP2 PUSH2 0x925 JUMP JUMPDEST DUP5 ADD SWAP2 POP POP SWAP3 SWAP2 POP POP JUMP JUMPDEST PUSH1 0x0 PUSH1 0x20 DUP3 ADD SWAP1 POP DUP2 DUP2 SUB PUSH1 0x0 DUP4 ADD MSTORE PUSH2 0x989 DUP2 DUP5 PUSH2 0x936 JUMP JUMPDEST SWAP1 POP SWAP3 SWAP2 POP POP JUMP JUMPDEST PUSH1 0x0 DUP2 SWAP1 POP SWAP2 SWAP1 POP JUMP JUMPDEST PUSH2 0x9A4 DUP2 PUSH2 0x991 JUMP JUMPDEST DUP3 MSTORE POP POP JUMP JUMPDEST PUSH1 0x0 PUSH1 0x20 DUP3 ADD SWAP1 POP PUSH2 0x9BF PUSH1 0x0 DUP4 ADD DUP5 PUSH2 0x99B JUMP JUMPDEST SWAP3 SWAP2 POP POP JUMP JUMPDEST PUSH1 0x0 DUP2 SWAP1 POP SWAP2 SWAP1 POP JUMP JUMPDEST PUSH2 0x9D8 DUP2 PUSH2 0x9C5 JUMP JUMPDEST DUP3 MSTORE POP POP JUMP JUMPDEST PUSH1 0x0 PUSH1 0x20 DUP3 ADD SWAP1 POP PUSH2 0x9F3 PUSH1 0x0 DUP4 ADD DUP5 PUSH2 0x9CF JUMP JUMPDEST SWAP3 SWAP2 POP POP JUMP JUMPDEST PUSH1 0x0 PUSH20 0xFFFFFFFFFFFFFFFFFFFFFFFFFFFFFFFFFFFFFFFF DUP3 AND SWAP1 POP SWAP2 SWAP1 POP JUMP JUMPDEST PUSH1 0x0 PUSH2 0xA24 DUP3 PUSH2 0x9F9 JUMP JUMPDEST SWAP1 POP SWAP2 SWAP1 POP JUMP JUMPDEST PUSH2 0xA34 DUP2 PUSH2 0xA19 JUMP JUMPDEST DUP3 MSTORE POP POP JUMP JUMPDEST PUSH1 0x0 PUSH1 0x20 DUP3 ADD SWAP1 POP PUSH2 0xA4F PUSH1 0x0 DUP4 ADD DUP5 PUSH2 0xA2B JUMP JUMPDEST SWAP3 SWAP2 POP POP JUMP JUMPDEST PUSH1 0x0 PUSH1 0x40 MLOAD SWAP1 POP SWAP1 JUMP JUMPDEST PUSH1 0x0 DUP1 REVERT JUMPDEST PUSH1 0x0 DUP1 REVERT JUMPDEST PUSH1 0x0 DUP1 REVERT JUMPDEST PUSH1 0x0 DUP1 REVERT JUMPDEST PUSH32 0x4E487B7100000000000000000000000000000000000000000000000000000000 PUSH1 0x0 MSTORE PUSH1 0x41 PUSH1 0x4 MSTORE PUSH1 0x24 PUSH1 0x0 REVERT JUMPDEST PUSH2 0xAAB DUP3 PUSH2 0x925 JUMP JUMPDEST DUP2 ADD DUP2 DUP2 LT PUSH8 0xFFFFFFFFFFFFFFFF DUP3 GT OR ISZERO PUSH2 0xACA JUMPI PUSH2 0xAC9 PUSH2 0xA73 JUMP JUMPDEST JUMPDEST DUP1 PUSH1 0x40 MSTORE POP POP POP JUMP JUMPDEST PUSH1 0x0 PUSH2 0xADD PUSH2 0xA55 JUMP JUMPDEST SWAP1 POP PUSH2 0xAE9 DUP3 DUP3 PUSH2 0xAA2 JUMP JUMPDEST SWAP2 SWAP1 POP JUMP JUMPDEST PUSH1 0x0 PUSH8 0xFFFFFFFFFFFFFFFF DUP3 GT ISZERO PUSH2 0xB09 JUMPI PUSH2 0xB08 PUSH2 0xA73 JUMP JUMPDEST JUMPDEST PUSH2 0xB12 DUP3 PUSH2 0x925 JUMP JUMPDEST SWAP1 POP PUSH1 0x20 DUP2 ADD SWAP1 POP SWAP2 SWAP1 POP JUMP JUMPDEST DUP3 DUP2 DUP4 CALLDATACOPY PUSH1 0x0 DUP4 DUP4 ADD MSTORE POP POP POP JUMP JUMPDEST PUSH1 0x0 PUSH2 0xB41 PUSH2 0xB3C DUP5 PUSH2 0xAEE JUMP JUMPDEST PUSH2 0xAD3 JUMP JUMPDEST SWAP1 POP DUP3 DUP2 MSTORE PUSH1 0x20 DUP2 ADD DUP5 DUP5 DUP5 ADD GT ISZERO PUSH2 0xB5D JUMPI PUSH2 0xB5C PUSH2 0xA6E JUMP JUMPDEST JUMPDEST PUSH2 0xB68 DUP5 DUP3 DUP6 PUSH2 0xB1F JUMP JUMPDEST POP SWAP4 SWAP3 POP POP POP JUMP JUMPDEST PUSH1 0x0 DUP3 PUSH1 0x1F DUP4 ADD SLT PUSH2 0xB85 JUMPI PUSH2 0xB84 PUSH2 0xA69 JUMP JUMPDEST JUMPDEST DUP2 CALLDATALOAD PUSH2 0xB95 DUP5 DUP3 PUSH1 0x20 DUP7 ADD PUSH2 0xB2E JUMP JUMPDEST SWAP2 POP POP SWAP3 SWAP2 POP POP JUMP JUMPDEST PUSH2 0xBA7 DUP2 PUSH2 0x991 JUMP JUMPDEST DUP2 EQ PUSH2 0xBB2 JUMPI PUSH1 0x0 DUP1 REVERT JUMPDEST POP JUMP JUMPDEST PUSH1 0x0 DUP2 CALLDATALOAD SWAP1 POP PUSH2 0xBC4 DUP2 PUSH2 0xB9E JUMP JUMPDEST SWAP3 SWAP2 POP POP JUMP JUMPDEST PUSH2 0xBD3 DUP2 PUSH2 0xA19 JUMP JUMPDEST DUP2 EQ PUSH2 0xBDE JUMPI PUSH1 0x0 DUP1 REVERT JUMPDEST POP JUMP JUMPDEST PUSH1 0x0 DUP2 CALLDATALOAD SWAP1 POP PUSH2 0xBF0 DUP2 PUSH2 0xBCA JUMP JUMPDEST SWAP3 SWAP2 POP POP JUMP JUMPDEST PUSH1 0x0 DUP1 PUSH1 0x0 DUP1 PUSH1 0x80 DUP6 DUP8 SUB SLT ISZERO PUSH2 0xC10 JUMPI PUSH2 0xC0F PUSH2 0xA5F JUMP JUMPDEST JUMPDEST PUSH1 0x0 DUP6 ADD CALLDATALOAD PUSH8 0xFFFFFFFFFFFFFFFF DUP2 GT ISZERO PUSH2 0xC2E JUMPI PUSH2 0xC2D PUSH2 0xA64 JUMP JUMPDEST JUMPDEST PUSH2 0xC3A DUP8 DUP3 DUP9 ADD PUSH2 0xB70 JUMP JUMPDEST SWAP5 POP POP PUSH1 0x20 DUP6 ADD CALLDATALOAD PUSH8 0xFFFFFFFFFFFFFFFF DUP2 GT ISZERO PUSH2 0xC5B JUMPI PUSH2 0xC5A PUSH2 0xA64 JUMP JUMPDEST JUMPDEST PUSH2 0xC67 DUP8 DUP3 DUP9 ADD PUSH2 0xB70 JUMP JUMPDEST SWAP4 POP POP PUSH1 0x40 PUSH2 0xC78 DUP8 DUP3 DUP9 ADD PUSH2 0xBB5 JUMP JUMPDEST SWAP3 POP POP PUSH1 0x60 PUSH2 0xC89 DUP8 DUP3 DUP9 ADD PUSH2 0xBE1 JUMP JUMPDEST SWAP2 POP POP SWAP3 SWAP6 SWAP2 SWAP5 POP SWAP3 POP JUMP JUMPDEST PUSH32 0x4F6E6C79206D65726368616E74206F66207468652064656C6976657279206361 PUSH1 0x0 DUP3 ADD MSTORE PUSH32 0x6E2073657420746865206368616E6E656C20706172616D732E00000000000000 PUSH1 0x20 DUP3 ADD MSTORE POP JUMP JUMPDEST PUSH1 0x0 PUSH2 0xCF1 PUSH1 0x39 DUP4 PUSH2 0x8E1 JUMP JUMPDEST SWAP2 POP PUSH2 0xCFC DUP3 PUSH2 0xC95 JUMP JUMPDEST PUSH1 0x40 DUP3 ADD SWAP1 POP SWAP2 SWAP1 POP JUMP JUMPDEST PUSH1 0x0 PUSH1 0x20 DUP3 ADD SWAP1 POP DUP2 DUP2 SUB PUSH1 0x0 DUP4 ADD MSTORE PUSH2 0xD20 DUP2 PUSH2 0xCE4 JUMP JUMPDEST SWAP1 POP SWAP2 SWAP1 POP JUMP JUMPDEST PUSH32 0x4E487B7100000000000000000000000000000000000000000000000000000000 PUSH1 0x0 MSTORE PUSH1 0x11 PUSH1 0x4 MSTORE PUSH1 0x24 PUSH1 0x0 REVERT JUMPDEST PUSH1 0x0 PUSH2 0xD61 DUP3 PUSH2 0x991 JUMP JUMPDEST SWAP2 POP PUSH2 0xD6C DUP4 PUSH2 0x991 JUMP JUMPDEST SWAP3 POP DUP3 PUSH32 0xFFFFFFFFFFFFFFFFFFFFFFFFFFFFFFFFFFFFFFFFFFFFFFFFFFFFFFFFFFFFFFFF SUB DUP3 GT ISZERO PUSH2 0xDA1 JUMPI PUSH2 0xDA0 PUSH2 0xD27 JUMP JUMPDEST JUMPDEST DUP3 DUP3 ADD SWAP1 POP SWAP3 SWAP2 POP POP JUMP JUMPDEST PUSH32 0x4E487B7100000000000000000000000000000000000000000000000000000000 PUSH1 0x0 MSTORE PUSH1 0x22 PUSH1 0x4 MSTORE PUSH1 0x24 PUSH1 0x0 REVERT JUMPDEST PUSH1 0x0 PUSH1 0x2 DUP3 DIV SWAP1 POP PUSH1 0x1 DUP3 AND DUP1 PUSH2 0xDF3 JUMPI PUSH1 0x7F DUP3 AND SWAP2 POP JUMPDEST PUSH1 0x20 DUP3 LT DUP2 EQ ISZERO PUSH2 0xE07 JUMPI PUSH2 0xE06 PUSH2 0xDAC JUMP JUMPDEST JUMPDEST POP SWAP2 SWAP1 POP JUMP JUMPDEST PUSH32 0x54696D65206572726F7200000000000000000000000000000000000000000000 PUSH1 0x0 DUP3 ADD MSTORE POP JUMP JUMPDEST PUSH1 0x0 PUSH2 0xE43 PUSH1 0xA DUP4 PUSH2 0x8E1 JUMP JUMPDEST SWAP2 POP PUSH2 0xE4E DUP3 PUSH2 0xE0D JUMP JUMPDEST PUSH1 0x20 DUP3 ADD SWAP1 POP SWAP2 SWAP1 POP JUMP JUMPDEST PUSH1 0x0 PUSH1 0x20 DUP3 ADD SWAP1 POP DUP2 DUP2 SUB PUSH1 0x0 DUP4 ADD MSTORE PUSH2 0xE72 DUP2 PUSH2 0xE36 JUMP JUMPDEST SWAP1 POP SWAP2 SWAP1 POP JUMP JUMPDEST PUSH32 0x6B203C3D206A0000000000000000000000000000000000000000000000000000 PUSH1 0x0 DUP3 ADD MSTORE POP JUMP JUMPDEST PUSH1 0x0 PUSH2 0xEAF PUSH1 0x6 DUP4 PUSH2 0x8E1 JUMP JUMPDEST SWAP2 POP PUSH2 0xEBA DUP3 PUSH2 0xE79 JUMP JUMPDEST PUSH1 0x20 DUP3 ADD SWAP1 POP SWAP2 SWAP1 POP JUMP JUMPDEST PUSH1 0x0 PUSH1 0x20 DUP3 ADD SWAP1 POP DUP2 DUP2 SUB PUSH1 0x0 DUP4 ADD MSTORE PUSH2 0xEDE DUP2 PUSH2 0xEA2 JUMP JUMPDEST SWAP1 POP SWAP2 SWAP1 POP JUMP JUMPDEST PUSH1 0x0 DUP2 MLOAD SWAP1 POP SWAP2 SWAP1 POP JUMP JUMPDEST PUSH1 0x0 DUP2 SWAP1 POP PUSH1 0x20 DUP3 ADD SWAP1 POP SWAP2 SWAP1 POP JUMP JUMPDEST PUSH1 0x0 PUSH2 0xF0C DUP3 MLOAD PUSH2 0x9C5 JUMP JUMPDEST DUP1 SWAP2 POP POP SWAP2 SWAP1 POP JUMP JUMPDEST PUSH1 0x0 DUP3 DUP3 SHL SWAP1 POP SWAP3 SWAP2 POP POP JUMP JUMPDEST PUSH1 0x0 PUSH2 0xF2D DUP3 PUSH2 0xEE5 JUMP JUMPDEST DUP3 PUSH2 0xF37 DUP5 PUSH2 0xEF0 JUMP JUMPDEST SWAP1 POP PUSH2 0xF42 DUP2 PUSH2 0xF00 JUMP JUMPDEST SWAP3 POP PUSH1 0x20 DUP3 LT ISZERO PUSH2 0xF82 JUMPI PUSH2 0xF7D PUSH32 0xFFFFFFFFFFFFFFFFFFFFFFFFFFFFFFFFFFFFFFFFFFFFFFFFFFFFFFFFFFFFFFFF DUP4 PUSH1 0x20 SUB PUSH1 0x8 MUL PUSH2 0xF15 JUMP JUMPDEST DUP4 AND SWAP3 POP JUMPDEST POP POP SWAP2 SWAP1 POP JUMP JUMPDEST PUSH1 0x0 PUSH2 0xF94 DUP3 PUSH2 0x991 JUMP JUMPDEST SWAP2 POP PUSH2 0xF9F DUP4 PUSH2 0x991 JUMP JUMPDEST SWAP3 POP DUP3 DUP3 LT ISZERO PUSH2 0xFB2 JUMPI PUSH2 0xFB1 PUSH2 0xD27 JUMP JUMPDEST JUMPDEST DUP3 DUP3 SUB SWAP1 POP SWAP3 SWAP2 POP POP JUMP JUMPDEST PUSH1 0x0 DUP2 SWAP1 POP SWAP2 SWAP1 POP JUMP JUMPDEST PUSH2 0xFD8 PUSH2 0xFD3 DUP3 PUSH2 0x9C5 JUMP JUMPDEST PUSH2 0xFBD JUMP JUMPDEST DUP3 MSTORE POP POP JUMP JUMPDEST PUSH1 0x0 PUSH2 0xFEA DUP3 DUP5 PUSH2 0xFC7 JUMP JUMPDEST PUSH1 0x20 DUP3 ADD SWAP2 POP DUP2 SWAP1 POP SWAP3 SWAP2 POP POP JUMP JUMPDEST PUSH1 0x0 DUP2 SWAP1 POP SWAP3 SWAP2 POP POP JUMP JUMPDEST PUSH1 0x0 PUSH2 0x100F DUP3 PUSH2 0xEE5 JUMP JUMPDEST PUSH2 0x1019 DUP2 DUP6 PUSH2 0xFF9 JUMP JUMPDEST SWAP4 POP PUSH2 0x1029 DUP2 DUP6 PUSH1 0x20 DUP7 ADD PUSH2 0x8F2 JUMP JUMPDEST DUP1 DUP5 ADD SWAP2 POP POP SWAP3 SWAP2 POP POP JUMP JUMPDEST PUSH1 0x0 PUSH2 0x1041 DUP3 DUP5 PUSH2 0x1004 JUMP JUMPDEST SWAP2 POP DUP2 SWAP1 POP SWAP3 SWAP2 POP POP JUMP JUMPDEST PUSH2 0x1055 DUP2 PUSH2 0x9C5 JUMP JUMPDEST DUP2 EQ PUSH2 0x1060 JUMPI PUSH1 0x0 DUP1 REVERT JUMPDEST POP JUMP JUMPDEST PUSH1 0x0 DUP2 MLOAD SWAP1 POP PUSH2 0x1072 DUP2 PUSH2 0x104C JUMP JUMPDEST SWAP3 SWAP2 POP POP JUMP JUMPDEST PUSH1 0x0 PUSH1 0x20 DUP3 DUP5 SUB SLT ISZERO PUSH2 0x108E JUMPI PUSH2 0x108D PUSH2 0xA5F JUMP JUMPDEST JUMPDEST PUSH1 0x0 PUSH2 0x109C DUP5 DUP3 DUP6 ADD PUSH2 0x1063 JUMP JUMPDEST SWAP2 POP POP SWAP3 SWAP2 POP POP JUMP JUMPDEST PUSH1 0x0 PUSH2 0x10B0 DUP3 PUSH2 0x991 JUMP JUMPDEST SWAP2 POP PUSH1 0x0 DUP3 EQ ISZERO PUSH2 0x10C4 JUMPI PUSH2 0x10C3 PUSH2 0xD27 JUMP JUMPDEST JUMPDEST PUSH1 0x1 DUP3 SUB SWAP1 POP SWAP2 SWAP1 POP JUMP JUMPDEST PUSH32 0x575F6B6D20697320696E636F7272656374000000000000000000000000000000 PUSH1 0x0 DUP3 ADD MSTORE POP JUMP JUMPDEST PUSH1 0x0 PUSH2 0x1105 PUSH1 0x11 DUP4 PUSH2 0x8E1 JUMP JUMPDEST SWAP2 POP PUSH2 0x1110 DUP3 PUSH2 0x10CF JUMP JUMPDEST PUSH1 0x20 DUP3 ADD SWAP1 POP SWAP2 SWAP1 POP JUMP JUMPDEST PUSH1 0x0 PUSH1 0x20 DUP3 ADD SWAP1 POP DUP2 DUP2 SUB PUSH1 0x0 DUP4 ADD MSTORE PUSH2 0x1134 DUP2 PUSH2 0x10F8 JUMP JUMPDEST SWAP1 POP SWAP2 SWAP1 POP JUMP JUMPDEST PUSH32 0x575F6B6320697320696E636F7272656374000000000000000000000000000000 PUSH1 0x0 DUP3 ADD MSTORE POP JUMP JUMPDEST PUSH1 0x0 PUSH2 0x1171 PUSH1 0x11 DUP4 PUSH2 0x8E1 JUMP JUMPDEST SWAP2 POP PUSH2 0x117C DUP3 PUSH2 0x113B JUMP JUMPDEST PUSH1 0x20 DUP3 ADD SWAP1 POP SWAP2 SWAP1 POP JUMP JUMPDEST PUSH1 0x0 PUSH1 0x20 DUP3 ADD SWAP1 POP DUP2 DUP2 SUB PUSH1 0x0 DUP4 ADD MSTORE PUSH2 0x11A0 DUP2 PUSH2 0x1164 JUMP JUMPDEST SWAP1 POP SWAP2 SWAP1 POP JUMP JUMPDEST PUSH32 0x4E487B7100000000000000000000000000000000000000000000000000000000 PUSH1 0x0 MSTORE PUSH1 0x12 PUSH1 0x4 MSTORE PUSH1 0x24 PUSH1 0x0 REVERT JUMPDEST PUSH1 0x0 PUSH2 0x11E1 DUP3 PUSH2 0x991 JUMP JUMPDEST SWAP2 POP PUSH2 0x11EC DUP4 PUSH2 0x991 JUMP JUMPDEST SWAP3 POP DUP3 PUSH2 0x11FC JUMPI PUSH2 0x11FB PUSH2 0x11A7 JUMP JUMPDEST JUMPDEST DUP3 DUP3 MOD SWAP1 POP SWAP3 SWAP2 POP POP JUMP JUMPDEST PUSH1 0x0 PUSH2 0x1212 DUP3 PUSH2 0x991 JUMP JUMPDEST SWAP2 POP PUSH2 0x121D DUP4 PUSH2 0x991 JUMP JUMPDEST SWAP3 POP DUP3 PUSH2 0x122D JUMPI PUSH2 0x122C PUSH2 0x11A7 JUMP JUMPDEST JUMPDEST DUP3 DUP3 DIV SWAP1 POP SWAP3 SWAP2 POP POP JUMP JUMPDEST PUSH1 0x0 PUSH2 0x1243 DUP3 PUSH2 0x991 JUMP JUMPDEST SWAP2 POP PUSH2 0x124E DUP4 PUSH2 0x991 JUMP JUMPDEST SWAP3 POP DUP2 PUSH32 0xFFFFFFFFFFFFFFFFFFFFFFFFFFFFFFFFFFFFFFFFFFFFFFFFFFFFFFFFFFFFFFFF DIV DUP4 GT DUP3 ISZERO ISZERO AND ISZERO PUSH2 0x1287 JUMPI PUSH2 0x1286 PUSH2 0xD27 JUMP JUMPDEST JUMPDEST DUP3 DUP3 MUL SWAP1 POP SWAP3 SWAP2 POP POP JUMP JUMPDEST POP JUMP JUMPDEST PUSH1 0x0 PUSH2 0x12A2 PUSH1 0x0 DUP4 PUSH2 0xFF9 JUMP JUMPDEST SWAP2 POP PUSH2 0x12AD DUP3 PUSH2 0x1292 JUMP JUMPDEST PUSH1 0x0 DUP3 ADD SWAP1 POP SWAP2 SWAP1 POP JUMP JUMPDEST PUSH1 0x0 PUSH2 0x12C3 DUP3 PUSH2 0x1295 JUMP JUMPDEST SWAP2 POP DUP2 SWAP1 POP SWAP2 SWAP1 POP JUMP INVALID LOG2 PUSH5 0x6970667358 0x22 SLT KECCAK256 DUP12 PUSH5 0xFDDD205714 DIFFICULTY JUMPI SWAP5 0xB5 0x4F PUSH30 0x8053A6997F9146A82B6DEA21C8893E62D80A0664736F6C63430008090033 "
    },
    "gasEstimates": {
      "creation": {
        "codeDepositCost": "973400",
        "executionCost": "infinite",
        "totalCost": "infinite"
      },
      "external": {
        "": "22291",
        "S_id()": "infinite",
        "TD()": "2474",
        "TR()": "2497",
        "T_exp()": "2517",
        "W_jc()": "2452",
        "W_jm()": "2452",
        "blocktimestamp()": "403",
        "c()": "2473",
        "channelClose()": "infinite",
        "costumer()": "2603",
        "j()": "2496",
        "start()": "2451",
        "transferDeposit(bytes,bytes,uint256,address)": "infinite",
        "v()": "2474"
      }
    },
    "methodIdentifiers": {
      "S_id()": "24763493",
      "TD()": "9c21a9b8",
      "TR()": "34133df9",
      "T_exp()": "f493e870",
      "W_jc()": "5e650318",
      "W_jm()": "88bf1930",
      "blocktimestamp()": "8182a11f",
      "c()": "c3da42b8",
      "channelClose()": "0482ff76",
      "costumer()": "81a4a5f9",
      "j()": "b582ec5f",
      "start()": "be9a6555",
      "transferDeposit(bytes,bytes,uint256,address)": "d8befbb6",
      "v()": "7c2efcba"
    }
  },
  "storageLayout": {
    "storage": [
      {
        "astId": 131,
        "contract": "channel.sol:channel",
        "label": "j",
        "offset": 0,
        "slot": "0",
        "type": "t_uint256"
      },
      {
        "astId": 133,
        "contract": "channel.sol:channel",
        "label": "costumer",
        "offset": 0,
        "slot": "1",
        "type": "t_address"
      },
      {
        "astId": 135,
        "contract": "channel.sol:channel",
        "label": "W_jm",
        "offset": 0,
        "slot": "2",
        "type": "t_bytes32"
      },
      {
        "astId": 137,
        "contract": "channel.sol:channel",
        "label": "W_jc",
        "offset": 0,
        "slot": "3",
        "type": "t_bytes32"
      },
      {
        "astId": 139,
        "contract": "channel.sol:channel",
        "label": "S_id",
        "offset": 0,
        "slot": "4",
        "type": "t_string_storage"
      },
      {
        "astId": 141,
        "contract": "channel.sol:channel",
        "label": "c",
        "offset": 0,
        "slot": "5",
        "type": "t_uint256"
      },
      {
        "astId": 143,
        "contract": "channel.sol:channel",
        "label": "v",
        "offset": 0,
        "slot": "6",
        "type": "t_uint256"
      },
      {
        "astId": 145,
        "contract": "channel.sol:channel",
        "label": "T_exp",
        "offset": 0,
        "slot": "7",
        "type": "t_uint256"
      },
      {
        "astId": 147,
        "contract": "channel.sol:channel",
        "label": "TD",
        "offset": 0,
        "slot": "8",
        "type": "t_uint256"
      },
      {
        "astId": 149,
        "contract": "channel.sol:channel",
        "label": "TR",
        "offset": 0,
        "slot": "9",
        "type": "t_uint256"
      },
      {
        "astId": 151,
        "contract": "channel.sol:channel",
        "label": "start",
        "offset": 0,
        "slot": "10",
        "type": "t_uint256"
      }
    ],
    "types": {
      "t_address": {
        "encoding": "inplace",
        "label": "address",
        "numberOfBytes": "20"
      },
      "t_bytes32": {
        "encoding": "inplace",
        "label": "bytes32",
        "numberOfBytes": "32"
      },
      "t_string_storage": {
        "encoding": "bytes",
        "label": "string",
        "numberOfBytes": "32"
      },
      "t_uint256": {
        "encoding": "inplace",
        "label": "uint256",
        "numberOfBytes": "32"
      }
    }
  },
  "userdoc": {
    "kind": "user",
    "methods": {},
    "version": 1
  }
}