{
  "abi": [
    {
      "inputs": [],
      "stateMutability": "nonpayable",
      "type": "constructor"
    },
    {
      "stateMutability": "payable",
      "type": "fallback"
    },
    {
      "inputs": [],
      "name": "S_id",
      "outputs": [
        {
          "internalType": "string",
          "name": "",
          "type": "string"
        }
      ],
      "stateMutability": "view",
      "type": "function"
    },
    {
      "inputs": [],
      "name": "TD",
      "outputs": [
        {
          "internalType": "uint256",
          "name": "",
          "type": "uint256"
        }
      ],
      "stateMutability": "view",
      "type": "function"
    },
    {
      "inputs": [],
      "name": "TR",
      "outputs": [
        {
          "internalType": "uint256",
          "name": "",
          "type": "uint256"
        }
      ],
      "stateMutability": "view",
      "type": "function"
    },
    {
      "inputs": [],
      "name": "T_exp",
      "outputs": [
        {
          "internalType": "uint256",
          "name": "",
          "type": "uint256"
        }
      ],
      "stateMutability": "view",
      "type": "function"
    },
    {
      "inputs": [],
      "name": "W_jc",
      "outputs": [
        {
          "internalType": "bytes32",
          "name": "",
          "type": "bytes32"
        }
      ],
      "stateMutability": "view",
      "type": "function"
    },
    {
      "inputs": [],
      "name": "W_jm",
      "outputs": [
        {
          "internalType": "bytes32",
          "name": "",
          "type": "bytes32"
        }
      ],
      "stateMutability": "view",
      "type": "function"
    },
    {
      "inputs": [],
      "name": "c",
      "outputs": [
        {
          "internalType": "uint256",
          "name": "",
          "type": "uint256"
        }
      ],
      "stateMutability": "view",
      "type": "function"
    },
    {
      "inputs": [],
      "name": "channelClose",
      "outputs": [],
      "stateMutability": "payable",
      "type": "function"
    },
    {
      "inputs": [],
      "name": "customer",
      "outputs": [
        {
          "internalType": "address",
          "name": "",
          "type": "address"
        }
      ],
      "stateMutability": "view",
      "type": "function"
    },
    {
      "inputs": [
        {
          "internalType": "uint256",
          "name": "_c",
          "type": "uint256"
        },
        {
          "internalType": "uint256",
          "name": "_v",
          "type": "uint256"
        },
        {
          "internalType": "address",
          "name": "_customer",
          "type": "address"
        }
      ],
      "name": "initialize",
      "outputs": [],
      "stateMutability": "payable",
      "type": "function"
    },
    {
      "inputs": [],
      "name": "isBase",
      "outputs": [
        {
          "internalType": "bool",
          "name": "",
          "type": "bool"
        }
      ],
      "stateMutability": "view",
      "type": "function"
    },
    {
      "inputs": [],
      "name": "j",
      "outputs": [
        {
          "internalType": "uint256",
          "name": "",
          "type": "uint256"
        }
      ],
      "stateMutability": "view",
      "type": "function"
    },
    {
      "inputs": [
        {
          "internalType": "bytes32",
          "name": "_W_jm",
          "type": "bytes32"
        },
        {
          "internalType": "bytes32",
          "name": "_W_jc",
          "type": "bytes32"
        },
        {
          "internalType": "string",
          "name": "_S_id",
          "type": "string"
        },
        {
          "internalType": "uint256",
          "name": "_c",
          "type": "uint256"
        },
        {
          "internalType": "uint256",
          "name": "_v",
          "type": "uint256"
        },
        {
          "internalType": "uint256",
          "name": "_T_exp",
          "type": "uint256"
        },
        {
          "internalType": "uint256",
          "name": "_TD",
          "type": "uint256"
        },
        {
          "internalType": "uint256",
          "name": "_TR",
          "type": "uint256"
        }
      ],
      "name": "setChannelParams",
      "outputs": [],
      "stateMutability": "nonpayable",
      "type": "function"
    },
    {
      "inputs": [
        {
          "internalType": "bytes",
          "name": "_W_km",
          "type": "bytes"
        },
        {
          "internalType": "bytes",
          "name": "_W_kc",
          "type": "bytes"
        },
        {
          "internalType": "uint256",
          "name": "k",
          "type": "uint256"
        },
        {
          "internalType": "address",
          "name": "newChannelAddress",
          "type": "address"
        }
      ],
      "name": "transferDeposit",
      "outputs": [],
      "stateMutability": "nonpayable",
      "type": "function"
    },
    {
      "inputs": [],
      "name": "v",
      "outputs": [
        {
          "internalType": "uint256",
          "name": "",
          "type": "uint256"
        }
      ],
      "stateMutability": "view",
      "type": "function"
    },
    {
      "stateMutability": "payable",
      "type": "receive"
    }
  ],
  "devdoc": {
    "kind": "dev",
    "methods": {},
    "version": 1
  },
  "evm": {
    "assembly": "    /* \"channel.sol\":1714:5959  contract channel{... */\n  mstore(0x40, 0x80)\n    /* \"channel.sol\":2306:2417  constructor(){... */\n  callvalue\n  dup1\n  iszero\n  tag_1\n  jumpi\n  0x00\n  dup1\n  revert\ntag_1:\n  pop\n    /* \"channel.sol\":2405:2409  true */\n  0x01\n    /* \"channel.sol\":2396:2402  isBase */\n  0x0a\n  0x00\n    /* \"channel.sol\":2396:2409  isBase = true */\n  0x0100\n  exp\n  dup2\n  sload\n  dup2\n  0xff\n  mul\n  not\n  and\n  swap1\n  dup4\n  iszero\n  iszero\n  mul\n  or\n  swap1\n  sstore\n  pop\n    /* \"channel.sol\":1714:5959  contract channel{... */\n  dataSize(sub_0)\n  dup1\n  dataOffset(sub_0)\n  0x00\n  codecopy\n  0x00\n  return\nstop\n\nsub_0: assembly {\n        /* \"channel.sol\":1714:5959  contract channel{... */\n      mstore(0x40, 0x80)\n      jumpi(tag_1, lt(calldatasize, 0x04))\n      shr(0xe0, calldataload(0x00))\n      dup1\n      0x88bf1930\n      gt\n      tag_18\n      jumpi\n      dup1\n      0xc3da42b8\n      gt\n      tag_19\n      jumpi\n      dup1\n      0xc3da42b8\n      eq\n      tag_14\n      jumpi\n      dup1\n      0xd8befbb6\n      eq\n      tag_15\n      jumpi\n      dup1\n      0xe8de68cc\n      eq\n      tag_16\n      jumpi\n      dup1\n      0xf493e870\n      eq\n      tag_17\n      jumpi\n      jump(tag_2)\n    tag_19:\n      dup1\n      0x88bf1930\n      eq\n      tag_10\n      jumpi\n      dup1\n      0x9c21a9b8\n      eq\n      tag_11\n      jumpi\n      dup1\n      0xa6ab36f2\n      eq\n      tag_12\n      jumpi\n      dup1\n      0xb582ec5f\n      eq\n      tag_13\n      jumpi\n      jump(tag_2)\n    tag_18:\n      dup1\n      0x34133df9\n      gt\n      tag_20\n      jumpi\n      dup1\n      0x34133df9\n      eq\n      tag_6\n      jumpi\n      dup1\n      0x5e650318\n      eq\n      tag_7\n      jumpi\n      dup1\n      0x7c2efcba\n      eq\n      tag_8\n      jumpi\n      dup1\n      0x7f80069a\n      eq\n      tag_9\n      jumpi\n      jump(tag_2)\n    tag_20:\n      dup1\n      0x0482ff76\n      eq\n      tag_3\n      jumpi\n      dup1\n      0x24763493\n      eq\n      tag_4\n      jumpi\n      dup1\n      0x2804b2c0\n      eq\n      tag_5\n      jumpi\n      jump(tag_2)\n    tag_1:\n      jumpi(tag_2, calldatasize)\n      stop\n    tag_2:\n      stop\n        /* \"channel.sol\":5355:5565  function channelClose() public payable onlyOwner{... */\n    tag_3:\n      tag_25\n      tag_26\n      jump\t// in\n    tag_25:\n      stop\n        /* \"channel.sol\":2019:2037  string public S_id */\n    tag_4:\n      callvalue\n      dup1\n      iszero\n      tag_27\n      jumpi\n      0x00\n      dup1\n      revert\n    tag_27:\n      pop\n      tag_28\n      tag_29\n      jump\t// in\n    tag_28:\n      mload(0x40)\n      tag_30\n      swap2\n      swap1\n      tag_31\n      jump\t// in\n    tag_30:\n      mload(0x40)\n      dup1\n      swap2\n      sub\n      swap1\n      return\n        /* \"channel.sol\":1760:1783  address public customer */\n    tag_5:\n      callvalue\n      dup1\n      iszero\n      tag_32\n      jumpi\n      0x00\n      dup1\n      revert\n    tag_32:\n      pop\n      tag_33\n      tag_34\n      jump\t// in\n    tag_33:\n      mload(0x40)\n      tag_35\n      swap2\n      swap1\n      tag_36\n      jump\t// in\n    tag_35:\n      mload(0x40)\n      dup1\n      swap2\n      sub\n      swap1\n      return\n        /* \"channel.sol\":2236:2253  uint256 public TR */\n    tag_6:\n      callvalue\n      dup1\n      iszero\n      tag_37\n      jumpi\n      0x00\n      dup1\n      revert\n    tag_37:\n      pop\n      tag_38\n      tag_39\n      jump\t// in\n    tag_38:\n      mload(0x40)\n      tag_40\n      swap2\n      swap1\n      tag_41\n      jump\t// in\n    tag_40:\n      mload(0x40)\n      dup1\n      swap2\n      sub\n      swap1\n      return\n        /* \"channel.sol\":1899:1918  bytes32 public W_jc */\n    tag_7:\n      callvalue\n      dup1\n      iszero\n      tag_42\n      jumpi\n      0x00\n      dup1\n      revert\n    tag_42:\n      pop\n      tag_43\n      tag_44\n      jump\t// in\n    tag_43:\n      mload(0x40)\n      tag_45\n      swap2\n      swap1\n      tag_46\n      jump\t// in\n    tag_45:\n      mload(0x40)\n      dup1\n      swap2\n      sub\n      swap1\n      return\n        /* \"channel.sol\":2108:2124  uint256 public v */\n    tag_8:\n      callvalue\n      dup1\n      iszero\n      tag_47\n      jumpi\n      0x00\n      dup1\n      revert\n    tag_47:\n      pop\n      tag_48\n      tag_49\n      jump\t// in\n    tag_48:\n      mload(0x40)\n      tag_50\n      swap2\n      swap1\n      tag_41\n      jump\t// in\n    tag_50:\n      mload(0x40)\n      dup1\n      swap2\n      sub\n      swap1\n      return\n        /* \"channel.sol\":2278:2296  bool public isBase */\n    tag_9:\n      callvalue\n      dup1\n      iszero\n      tag_51\n      jumpi\n      0x00\n      dup1\n      revert\n    tag_51:\n      pop\n      tag_52\n      tag_53\n      jump\t// in\n    tag_52:\n      mload(0x40)\n      tag_54\n      swap2\n      swap1\n      tag_55\n      jump\t// in\n    tag_54:\n      mload(0x40)\n      dup1\n      swap2\n      sub\n      swap1\n      return\n        /* \"channel.sol\":1818:1837  bytes32 public W_jm */\n    tag_10:\n      callvalue\n      dup1\n      iszero\n      tag_56\n      jumpi\n      0x00\n      dup1\n      revert\n    tag_56:\n      pop\n      tag_57\n      tag_58\n      jump\t// in\n    tag_57:\n      mload(0x40)\n      tag_59\n      swap2\n      swap1\n      tag_46\n      jump\t// in\n    tag_59:\n      mload(0x40)\n      dup1\n      swap2\n      sub\n      swap1\n      return\n        /* \"channel.sol\":2195:2212  uint256 public TD */\n    tag_11:\n      callvalue\n      dup1\n      iszero\n      tag_60\n      jumpi\n      0x00\n      dup1\n      revert\n    tag_60:\n      pop\n      tag_61\n      tag_62\n      jump\t// in\n    tag_61:\n      mload(0x40)\n      tag_63\n      swap2\n      swap1\n      tag_41\n      jump\t// in\n    tag_63:\n      mload(0x40)\n      dup1\n      swap2\n      sub\n      swap1\n      return\n        /* \"channel.sol\":2425:2713  function initialize(uint256 _c, uint256 _v, address _customer) external payable{... */\n    tag_12:\n      tag_64\n      0x04\n      dup1\n      calldatasize\n      sub\n      dup2\n      add\n      swap1\n      tag_65\n      swap2\n      swap1\n      tag_66\n      jump\t// in\n    tag_65:\n      tag_67\n      jump\t// in\n    tag_64:\n      stop\n        /* \"channel.sol\":1737:1753  uint256 public j */\n    tag_13:\n      callvalue\n      dup1\n      iszero\n      tag_68\n      jumpi\n      0x00\n      dup1\n      revert\n    tag_68:\n      pop\n      tag_69\n      tag_70\n      jump\t// in\n    tag_69:\n      mload(0x40)\n      tag_71\n      swap2\n      swap1\n      tag_41\n      jump\t// in\n    tag_71:\n      mload(0x40)\n      dup1\n      swap2\n      sub\n      swap1\n      return\n        /* \"channel.sol\":2065:2081  uint256 public c */\n    tag_14:\n      callvalue\n      dup1\n      iszero\n      tag_72\n      jumpi\n      0x00\n      dup1\n      revert\n    tag_72:\n      pop\n      tag_73\n      tag_74\n      jump\t// in\n    tag_73:\n      mload(0x40)\n      tag_75\n      swap2\n      swap1\n      tag_41\n      jump\t// in\n    tag_75:\n      mload(0x40)\n      dup1\n      swap2\n      sub\n      swap1\n      return\n        /* \"channel.sol\":3559:5189  function transferDeposit(bytes memory _W_km, bytes memory _W_kc, uint256 k, address newChannelAddress) public {... */\n    tag_15:\n      callvalue\n      dup1\n      iszero\n      tag_76\n      jumpi\n      0x00\n      dup1\n      revert\n    tag_76:\n      pop\n      tag_77\n      0x04\n      dup1\n      calldatasize\n      sub\n      dup2\n      add\n      swap1\n      tag_78\n      swap2\n      swap1\n      tag_79\n      jump\t// in\n    tag_78:\n      tag_80\n      jump\t// in\n    tag_77:\n      stop\n        /* \"channel.sol\":2770:3347  function setChannelParams(bytes32 _W_jm, bytes32 _W_jc, string memory _S_id, uint256 _c, uint256 _v, uint256 _T_exp, uint256 _TD, uint256 _TR) public onlyOwner {... */\n    tag_16:\n      callvalue\n      dup1\n      iszero\n      tag_81\n      jumpi\n      0x00\n      dup1\n      revert\n    tag_81:\n      pop\n      tag_82\n      0x04\n      dup1\n      calldatasize\n      sub\n      dup2\n      add\n      swap1\n      tag_83\n      swap2\n      swap1\n      tag_84\n      jump\t// in\n    tag_83:\n      tag_85\n      jump\t// in\n    tag_82:\n      stop\n        /* \"channel.sol\":2150:2170  uint256 public T_exp */\n    tag_17:\n      callvalue\n      dup1\n      iszero\n      tag_86\n      jumpi\n      0x00\n      dup1\n      revert\n    tag_86:\n      pop\n      tag_87\n      tag_88\n      jump\t// in\n    tag_87:\n      mload(0x40)\n      tag_89\n      swap2\n      swap1\n      tag_41\n      jump\t// in\n    tag_89:\n      mload(0x40)\n      dup1\n      swap2\n      sub\n      swap1\n      return\n        /* \"channel.sol\":5355:5565  function channelClose() public payable onlyOwner{... */\n    tag_26:\n        /* \"channel.sol\":5866:5874  customer */\n      0x01\n      0x00\n      swap1\n      sload\n      swap1\n      0x0100\n      exp\n      swap1\n      div\n      0xffffffffffffffffffffffffffffffffffffffff\n      and\n        /* \"channel.sol\":5852:5874  msg.sender == customer */\n      0xffffffffffffffffffffffffffffffffffffffff\n      and\n        /* \"channel.sol\":5852:5862  msg.sender */\n      caller\n        /* \"channel.sol\":5852:5874  msg.sender == customer */\n      0xffffffffffffffffffffffffffffffffffffffff\n      and\n      eq\n        /* \"channel.sol\":5843:5936  require (msg.sender == customer, \"Only customer of the delivery can set the channel params.\") */\n      tag_91\n      jumpi\n      mload(0x40)\n      0x08c379a000000000000000000000000000000000000000000000000000000000\n      dup2\n      mstore\n      0x04\n      add\n      tag_92\n      swap1\n      tag_93\n      jump\t// in\n    tag_92:\n      mload(0x40)\n      dup1\n      swap2\n      sub\n      swap1\n      revert\n    tag_91:\n        /* \"channel.sol\":5482:5497  block.timestamp */\n      timestamp\n        /* \"channel.sol\":5477:5479  TD */\n      sload(0x08)\n        /* \"channel.sol\":5469:5474  T_exp */\n      sload(0x07)\n        /* \"channel.sol\":5469:5479  T_exp + TD */\n      tag_95\n      swap2\n      swap1\n      tag_96\n      jump\t// in\n    tag_95:\n        /* \"channel.sol\":5469:5497  T_exp + TD < block.timestamp */\n      lt\n        /* \"channel.sol\":5460:5513  require((T_exp + TD < block.timestamp), \"Time error\") */\n      tag_97\n      jumpi\n      mload(0x40)\n      0x08c379a000000000000000000000000000000000000000000000000000000000\n      dup2\n      mstore\n      0x04\n      add\n      tag_98\n      swap1\n      tag_99\n      jump\t// in\n    tag_98:\n      mload(0x40)\n      dup1\n      swap2\n      sub\n      swap1\n      revert\n    tag_97:\n        /* \"channel.sol\":5545:5555  msg.sender */\n      caller\n        /* \"channel.sol\":5524:5557  selfdestruct(payable(msg.sender)) */\n      0xffffffffffffffffffffffffffffffffffffffff\n      and\n      selfdestruct\n        /* \"channel.sol\":2019:2037  string public S_id */\n    tag_29:\n      0x04\n      dup1\n      sload\n      tag_100\n      swap1\n      tag_101\n      jump\t// in\n    tag_100:\n      dup1\n      0x1f\n      add\n      0x20\n      dup1\n      swap2\n      div\n      mul\n      0x20\n      add\n      mload(0x40)\n      swap1\n      dup2\n      add\n      0x40\n      mstore\n      dup1\n      swap3\n      swap2\n      swap1\n      dup2\n      dup2\n      mstore\n      0x20\n      add\n      dup3\n      dup1\n      sload\n      tag_102\n      swap1\n      tag_101\n      jump\t// in\n    tag_102:\n      dup1\n      iszero\n      tag_103\n      jumpi\n      dup1\n      0x1f\n      lt\n      tag_104\n      jumpi\n      0x0100\n      dup1\n      dup4\n      sload\n      div\n      mul\n      dup4\n      mstore\n      swap2\n      0x20\n      add\n      swap2\n      jump(tag_103)\n    tag_104:\n      dup3\n      add\n      swap2\n      swap1\n      0x00\n      mstore\n      keccak256(0x00, 0x20)\n      swap1\n    tag_105:\n      dup2\n      sload\n      dup2\n      mstore\n      swap1\n      0x01\n      add\n      swap1\n      0x20\n      add\n      dup1\n      dup4\n      gt\n      tag_105\n      jumpi\n      dup3\n      swap1\n      sub\n      0x1f\n      and\n      dup3\n      add\n      swap2\n    tag_103:\n      pop\n      pop\n      pop\n      pop\n      pop\n      dup2\n      jump\t// out\n        /* \"channel.sol\":1760:1783  address public customer */\n    tag_34:\n      0x01\n      0x00\n      swap1\n      sload\n      swap1\n      0x0100\n      exp\n      swap1\n      div\n      0xffffffffffffffffffffffffffffffffffffffff\n      and\n      dup2\n      jump\t// out\n        /* \"channel.sol\":2236:2253  uint256 public TR */\n    tag_39:\n      sload(0x09)\n      dup2\n      jump\t// out\n        /* \"channel.sol\":1899:1918  bytes32 public W_jc */\n    tag_44:\n      sload(0x03)\n      dup2\n      jump\t// out\n        /* \"channel.sol\":2108:2124  uint256 public v */\n    tag_49:\n      sload(0x06)\n      dup2\n      jump\t// out\n        /* \"channel.sol\":2278:2296  bool public isBase */\n    tag_53:\n      0x0a\n      0x00\n      swap1\n      sload\n      swap1\n      0x0100\n      exp\n      swap1\n      div\n      0xff\n      and\n      dup2\n      jump\t// out\n        /* \"channel.sol\":1818:1837  bytes32 public W_jm */\n    tag_58:\n      sload(0x02)\n      dup2\n      jump\t// out\n        /* \"channel.sol\":2195:2212  uint256 public TD */\n    tag_62:\n      sload(0x08)\n      dup2\n      jump\t// out\n        /* \"channel.sol\":2425:2713  function initialize(uint256 _c, uint256 _v, address _customer) external payable{... */\n    tag_67:\n        /* \"channel.sol\":2533:2538  false */\n      0x00\n        /* \"channel.sol\":2523:2538  isBase == false */\n      iszero\n      iszero\n        /* \"channel.sol\":2523:2529  isBase */\n      0x0a\n      0x00\n      swap1\n      sload\n      swap1\n      0x0100\n      exp\n      swap1\n      div\n      0xff\n      and\n        /* \"channel.sol\":2523:2538  isBase == false */\n      iszero\n      iszero\n      eq\n        /* \"channel.sol\":2515:2539  require(isBase == false) */\n      tag_107\n      jumpi\n      0x00\n      dup1\n      revert\n    tag_107:\n        /* \"channel.sol\":2561:2570  _customer */\n      dup1\n        /* \"channel.sol\":2550:2558  customer */\n      0x01\n      0x00\n        /* \"channel.sol\":2550:2570  customer = _customer */\n      0x0100\n      exp\n      dup2\n      sload\n      dup2\n      0xffffffffffffffffffffffffffffffffffffffff\n      mul\n      not\n      and\n      swap1\n      dup4\n      0xffffffffffffffffffffffffffffffffffffffff\n      and\n      mul\n      or\n      swap1\n      sstore\n      pop\n        /* \"channel.sol\":2585:2587  _c */\n      dup3\n        /* \"channel.sol\":2581:2582  c */\n      0x05\n        /* \"channel.sol\":2581:2587  c = _c */\n      dup2\n      swap1\n      sstore\n      pop\n        /* \"channel.sol\":2602:2604  _v */\n      dup2\n        /* \"channel.sol\":2598:2599  v */\n      0x06\n        /* \"channel.sol\":2598:2604  v = _v */\n      dup2\n      swap1\n      sstore\n      pop\n        /* \"channel.sol\":2633:2634  0 */\n      0x00\n        /* \"channel.sol\":2620:2629  msg.value */\n      callvalue\n        /* \"channel.sol\":2620:2634  msg.value != 0 */\n      eq\n        /* \"channel.sol\":2617:2706  if(msg.value != 0){... */\n      tag_108\n      jumpi\n        /* \"channel.sol\":2674:2676  _v */\n      dup2\n        /* \"channel.sol\":2671:2673  _c */\n      dup4\n        /* \"channel.sol\":2671:2676  _c*_v */\n      tag_109\n      swap2\n      swap1\n      tag_110\n      jump\t// in\n    tag_109:\n        /* \"channel.sol\":2658:2667  msg.value */\n      callvalue\n        /* \"channel.sol\":2658:2676  msg.value == _c*_v */\n      eq\n        /* \"channel.sol\":2650:2694  require(msg.value == _c*_v, 'balance error') */\n      tag_111\n      jumpi\n      mload(0x40)\n      0x08c379a000000000000000000000000000000000000000000000000000000000\n      dup2\n      mstore\n      0x04\n      add\n      tag_112\n      swap1\n      tag_113\n      jump\t// in\n    tag_112:\n      mload(0x40)\n      dup1\n      swap2\n      sub\n      swap1\n      revert\n    tag_111:\n        /* \"channel.sol\":2617:2706  if(msg.value != 0){... */\n    tag_108:\n        /* \"channel.sol\":2425:2713  function initialize(uint256 _c, uint256 _v, address _customer) external payable{... */\n      pop\n      pop\n      pop\n      jump\t// out\n        /* \"channel.sol\":1737:1753  uint256 public j */\n    tag_70:\n      sload(0x00)\n      dup2\n      jump\t// out\n        /* \"channel.sol\":2065:2081  uint256 public c */\n    tag_74:\n      sload(0x05)\n      dup2\n      jump\t// out\n        /* \"channel.sol\":3559:5189  function transferDeposit(bytes memory _W_km, bytes memory _W_kc, uint256 k, address newChannelAddress) public {... */\n    tag_80:\n        /* \"channel.sol\":3717:3719  TD */\n      sload(0x08)\n        /* \"channel.sol\":3709:3714  T_exp */\n      sload(0x07)\n        /* \"channel.sol\":3709:3719  T_exp + TD */\n      tag_115\n      swap2\n      swap1\n      tag_96\n      jump\t// in\n    tag_115:\n        /* \"channel.sol\":3690:3705  block.timestamp */\n      timestamp\n        /* \"channel.sol\":3690:3720  block.timestamp < (T_exp + TD) */\n      lt\n        /* \"channel.sol\":3680:3738  require ((block.timestamp < (T_exp + TD)), \"Time error\"  ) */\n      tag_116\n      jumpi\n      mload(0x40)\n      0x08c379a000000000000000000000000000000000000000000000000000000000\n      dup2\n      mstore\n      0x04\n      add\n      tag_117\n      swap1\n      tag_99\n      jump\t// in\n    tag_117:\n      mload(0x40)\n      dup1\n      swap2\n      sub\n      swap1\n      revert\n    tag_116:\n        /* \"channel.sol\":3762:3763  j */\n      sload(0x00)\n        /* \"channel.sol\":3758:3759  k */\n      dup3\n        /* \"channel.sol\":3758:3763  k > j */\n      gt\n        /* \"channel.sol\":3749:3774  require (k > j, \"k <= j\") */\n      tag_118\n      jumpi\n      mload(0x40)\n      0x08c379a000000000000000000000000000000000000000000000000000000000\n      dup2\n      mstore\n      0x04\n      add\n      tag_119\n      swap1\n      tag_120\n      jump\t// in\n    tag_119:\n      mload(0x40)\n      dup1\n      swap2\n      sub\n      swap1\n      revert\n    tag_118:\n        /* \"channel.sol\":3799:3814  uint256 balance */\n      0x00\n        /* \"channel.sol\":3825:3839  bytes32 hash_m */\n      dup1\n        /* \"channel.sol\":3850:3855  _W_km */\n      dup6\n        /* \"channel.sol\":3842:3856  bytes32(_W_km) */\n      tag_121\n      swap1\n      tag_122\n      jump\t// in\n    tag_121:\n        /* \"channel.sol\":3825:3856  bytes32 hash_m = bytes32(_W_km) */\n      swap1\n      pop\n        /* \"channel.sol\":3867:3881  bytes32 hash_c */\n      0x00\n        /* \"channel.sol\":3892:3897  _W_kc */\n      dup6\n        /* \"channel.sol\":3884:3898  bytes32(_W_kc) */\n      tag_123\n      swap1\n      tag_122\n      jump\t// in\n    tag_123:\n        /* \"channel.sol\":3867:3898  bytes32 hash_c = bytes32(_W_kc) */\n      swap1\n      pop\n        /* \"channel.sol\":3909:3918  uint256 i */\n      0x00\n        /* \"channel.sol\":3923:3924  j */\n      dup1\n      sload\n        /* \"channel.sol\":3921:3922  k */\n      dup7\n        /* \"channel.sol\":3921:3924  k-j */\n      tag_124\n      swap2\n      swap1\n      tag_125\n      jump\t// in\n    tag_124:\n        /* \"channel.sol\":3909:3924  uint256 i = k-j */\n      swap1\n      pop\n        /* \"channel.sol\":3945:4089  for (i; i!= 0; i--){... */\n    tag_126:\n        /* \"channel.sol\":3957:3958  0 */\n      0x00\n        /* \"channel.sol\":3953:3954  i */\n      dup2\n        /* \"channel.sol\":3953:3958  i!= 0 */\n      eq\n        /* \"channel.sol\":3945:4089  for (i; i!= 0; i--){... */\n      tag_127\n      jumpi\n        /* \"channel.sol\":3988:4020  sha256(abi.encodePacked(hash_m)) */\n      0x02\n        /* \"channel.sol\":4012:4018  hash_m */\n      dup4\n        /* \"channel.sol\":3995:4019  abi.encodePacked(hash_m) */\n      add(0x20, mload(0x40))\n      tag_129\n      swap2\n      swap1\n      tag_130\n      jump\t// in\n    tag_129:\n      mload(0x40)\n      0x20\n      dup2\n      dup4\n      sub\n      sub\n      dup2\n      mstore\n      swap1\n      0x40\n      mstore\n        /* \"channel.sol\":3988:4020  sha256(abi.encodePacked(hash_m)) */\n      mload(0x40)\n      tag_131\n      swap2\n      swap1\n      tag_132\n      jump\t// in\n    tag_131:\n      0x20\n      mload(0x40)\n      dup1\n      dup4\n      sub\n      dup2\n      dup6\n      gas\n      staticcall\n      iszero\n      dup1\n      iszero\n      tag_134\n      jumpi\n      returndatasize\n      0x00\n      dup1\n      returndatacopy\n      revert(0x00, returndatasize)\n    tag_134:\n      pop\n      pop\n      pop\n      mload(0x40)\n      returndatasize\n      not(0x1f)\n      0x1f\n      dup3\n      add\n      and\n      dup3\n      add\n      dup1\n      0x40\n      mstore\n      pop\n      dup2\n      add\n      swap1\n      tag_135\n      swap2\n      swap1\n      tag_136\n      jump\t// in\n    tag_135:\n        /* \"channel.sol\":3979:4020  hash_m = sha256(abi.encodePacked(hash_m)) */\n      swap3\n      pop\n        /* \"channel.sol\":4044:4076  sha256(abi.encodePacked(hash_c)) */\n      0x02\n        /* \"channel.sol\":4068:4074  hash_c */\n      dup3\n        /* \"channel.sol\":4051:4075  abi.encodePacked(hash_c) */\n      add(0x20, mload(0x40))\n      tag_137\n      swap2\n      swap1\n      tag_130\n      jump\t// in\n    tag_137:\n      mload(0x40)\n      0x20\n      dup2\n      dup4\n      sub\n      sub\n      dup2\n      mstore\n      swap1\n      0x40\n      mstore\n        /* \"channel.sol\":4044:4076  sha256(abi.encodePacked(hash_c)) */\n      mload(0x40)\n      tag_138\n      swap2\n      swap1\n      tag_132\n      jump\t// in\n    tag_138:\n      0x20\n      mload(0x40)\n      dup1\n      dup4\n      sub\n      dup2\n      dup6\n      gas\n      staticcall\n      iszero\n      dup1\n      iszero\n      tag_140\n      jumpi\n      returndatasize\n      0x00\n      dup1\n      returndatacopy\n      revert(0x00, returndatasize)\n    tag_140:\n      pop\n      pop\n      pop\n      mload(0x40)\n      returndatasize\n      not(0x1f)\n      0x1f\n      dup3\n      add\n      and\n      dup3\n      add\n      dup1\n      0x40\n      mstore\n      pop\n      dup2\n      add\n      swap1\n      tag_141\n      swap2\n      swap1\n      tag_136\n      jump\t// in\n    tag_141:\n        /* \"channel.sol\":4035:4076  hash_c = sha256(abi.encodePacked(hash_c)) */\n      swap2\n      pop\n        /* \"channel.sol\":3960:3963  i-- */\n      dup1\n      dup1\n      tag_142\n      swap1\n      tag_143\n      jump\t// in\n    tag_142:\n      swap2\n      pop\n      pop\n        /* \"channel.sol\":3945:4089  for (i; i!= 0; i--){... */\n      jump(tag_126)\n    tag_127:\n        /* \"channel.sol\":4118:4124  hash_m */\n      dup3\n        /* \"channel.sol\":4110:4114  W_jm */\n      sload(0x02)\n        /* \"channel.sol\":4110:4124  W_jm == hash_m */\n      eq\n        /* \"channel.sol\":4101:4146  require (W_jm == hash_m, \"W_km is incorrect\") */\n      tag_144\n      jumpi\n      mload(0x40)\n      0x08c379a000000000000000000000000000000000000000000000000000000000\n      dup2\n      mstore\n      0x04\n      add\n      tag_145\n      swap1\n      tag_146\n      jump\t// in\n    tag_145:\n      mload(0x40)\n      dup1\n      swap2\n      sub\n      swap1\n      revert\n    tag_144:\n        /* \"channel.sol\":4174:4180  hash_c */\n      dup2\n        /* \"channel.sol\":4166:4170  W_jc */\n      sload(0x03)\n        /* \"channel.sol\":4166:4180  W_jc == hash_c */\n      eq\n        /* \"channel.sol\":4157:4202  require (W_jc == hash_c, \"W_kc is incorrect\") */\n      tag_147\n      jumpi\n      mload(0x40)\n      0x08c379a000000000000000000000000000000000000000000000000000000000\n      dup2\n      mstore\n      0x04\n      add\n      tag_148\n      swap1\n      tag_149\n      jump\t// in\n    tag_148:\n      mload(0x40)\n      dup1\n      swap2\n      sub\n      swap1\n      revert\n    tag_147:\n        /* \"channel.sol\":4233:4234  0 */\n      0x00\n        /* \"channel.sol\":4228:4229  2 */\n      0x02\n        /* \"channel.sol\":4226:4227  k */\n      dup8\n        /* \"channel.sol\":4226:4229  k%2 */\n      tag_150\n      swap2\n      swap1\n      tag_151\n      jump\t// in\n    tag_150:\n        /* \"channel.sol\":4226:4234  k%2 == 0 */\n      eq\n        /* \"channel.sol\":4223:4878  if(k%2 == 0){... */\n      iszero\n      tag_152\n      jumpi\n        /* \"channel.sol\":4267:4268  2 */\n      0x02\n        /* \"channel.sol\":4264:4265  j */\n      sload(0x00)\n        /* \"channel.sol\":4262:4263  k */\n      dup8\n        /* \"channel.sol\":4262:4265  k-j */\n      tag_153\n      swap2\n      swap1\n      tag_125\n      jump\t// in\n    tag_153:\n        /* \"channel.sol\":4261:4268  (k-j)/2 */\n      tag_154\n      swap2\n      swap1\n      tag_155\n      jump\t// in\n    tag_154:\n        /* \"channel.sol\":4250:4269  balance = ((k-j)/2) */\n      swap4\n      pop\n        /* \"channel.sol\":4288:4289  k */\n      dup6\n        /* \"channel.sol\":4284:4285  j */\n      0x00\n        /* \"channel.sol\":4284:4289  j = k */\n      dup2\n      swap1\n      sstore\n      pop\n        /* \"channel.sol\":4334:4339  _W_km */\n      dup8\n        /* \"channel.sol\":4325:4340  bytes32 (_W_km) */\n      tag_156\n      swap1\n      tag_122\n      jump\t// in\n    tag_156:\n        /* \"channel.sol\":4318:4322  W_jm */\n      0x02\n        /* \"channel.sol\":4318:4340  W_jm = bytes32 (_W_km) */\n      dup2\n      swap1\n      sstore\n      pop\n        /* \"channel.sol\":4371:4376  _W_kc */\n      dup7\n        /* \"channel.sol\":4362:4377  bytes32 (_W_kc) */\n      tag_157\n      swap1\n      tag_122\n      jump\t// in\n    tag_157:\n        /* \"channel.sol\":4355:4359  W_jc */\n      0x03\n        /* \"channel.sol\":4355:4377  W_jc = bytes32 (_W_kc) */\n      dup2\n      swap1\n      sstore\n      pop\n        /* \"channel.sol\":4223:4878  if(k%2 == 0){... */\n      jump(tag_158)\n    tag_152:\n        /* \"channel.sol\":4427:4428  2 */\n      0x02\n        /* \"channel.sol\":4424:4425  1 */\n      0x01\n        /* \"channel.sol\":4422:4423  j */\n      sload(0x00)\n        /* \"channel.sol\":4420:4421  k */\n      dup9\n        /* \"channel.sol\":4420:4423  k-j */\n      tag_159\n      swap2\n      swap1\n      tag_125\n      jump\t// in\n    tag_159:\n        /* \"channel.sol\":4420:4425  k-j-1 */\n      tag_160\n      swap2\n      swap1\n      tag_125\n      jump\t// in\n    tag_160:\n        /* \"channel.sol\":4419:4428  (k-j-1)/2 */\n      tag_161\n      swap2\n      swap1\n      tag_155\n      jump\t// in\n    tag_161:\n        /* \"channel.sol\":4408:4429  balance = ((k-j-1)/2) */\n      swap4\n      pop\n        /* \"channel.sol\":4450:4451  1 */\n      0x01\n        /* \"channel.sol\":4448:4449  k */\n      dup7\n        /* \"channel.sol\":4448:4451  k-1 */\n      tag_162\n      swap2\n      swap1\n      tag_125\n      jump\t// in\n    tag_162:\n        /* \"channel.sol\":4444:4445  j */\n      0x00\n        /* \"channel.sol\":4444:4451  j = k-1 */\n      dup2\n      swap1\n      sstore\n      pop\n        /* \"channel.sol\":4466:4480  bytes32 hash_m */\n      0x00\n        /* \"channel.sol\":4491:4496  _W_km */\n      dup9\n        /* \"channel.sol\":4483:4497  bytes32(_W_km) */\n      tag_163\n      swap1\n      tag_122\n      jump\t// in\n    tag_163:\n        /* \"channel.sol\":4466:4497  bytes32 hash_m = bytes32(_W_km) */\n      swap1\n      pop\n        /* \"channel.sol\":4512:4526  bytes32 hash_c */\n      0x00\n        /* \"channel.sol\":4537:4542  _W_kc */\n      dup9\n        /* \"channel.sol\":4529:4543  bytes32(_W_kc) */\n      tag_164\n      swap1\n      tag_122\n      jump\t// in\n    tag_164:\n        /* \"channel.sol\":4512:4543  bytes32 hash_c = bytes32(_W_kc) */\n      swap1\n      pop\n        /* \"channel.sol\":4558:4567  uint256 i */\n      0x00\n        /* \"channel.sol\":4572:4573  j */\n      dup1\n      sload\n        /* \"channel.sol\":4570:4571  k */\n      dup10\n        /* \"channel.sol\":4570:4573  k-j */\n      tag_165\n      swap2\n      swap1\n      tag_125\n      jump\t// in\n    tag_165:\n        /* \"channel.sol\":4558:4573  uint256 i = k-j */\n      swap1\n      pop\n        /* \"channel.sol\":4598:4754  for (i; i!= 0; i--){... */\n    tag_166:\n        /* \"channel.sol\":4610:4611  0 */\n      0x00\n        /* \"channel.sol\":4606:4607  i */\n      dup2\n        /* \"channel.sol\":4606:4611  i!= 0 */\n      eq\n        /* \"channel.sol\":4598:4754  for (i; i!= 0; i--){... */\n      tag_167\n      jumpi\n        /* \"channel.sol\":4645:4677  sha256(abi.encodePacked(hash_m)) */\n      0x02\n        /* \"channel.sol\":4669:4675  hash_m */\n      dup4\n        /* \"channel.sol\":4652:4676  abi.encodePacked(hash_m) */\n      add(0x20, mload(0x40))\n      tag_169\n      swap2\n      swap1\n      tag_130\n      jump\t// in\n    tag_169:\n      mload(0x40)\n      0x20\n      dup2\n      dup4\n      sub\n      sub\n      dup2\n      mstore\n      swap1\n      0x40\n      mstore\n        /* \"channel.sol\":4645:4677  sha256(abi.encodePacked(hash_m)) */\n      mload(0x40)\n      tag_170\n      swap2\n      swap1\n      tag_132\n      jump\t// in\n    tag_170:\n      0x20\n      mload(0x40)\n      dup1\n      dup4\n      sub\n      dup2\n      dup6\n      gas\n      staticcall\n      iszero\n      dup1\n      iszero\n      tag_172\n      jumpi\n      returndatasize\n      0x00\n      dup1\n      returndatacopy\n      revert(0x00, returndatasize)\n    tag_172:\n      pop\n      pop\n      pop\n      mload(0x40)\n      returndatasize\n      not(0x1f)\n      0x1f\n      dup3\n      add\n      and\n      dup3\n      add\n      dup1\n      0x40\n      mstore\n      pop\n      dup2\n      add\n      swap1\n      tag_173\n      swap2\n      swap1\n      tag_136\n      jump\t// in\n    tag_173:\n        /* \"channel.sol\":4636:4677  hash_m = sha256(abi.encodePacked(hash_m)) */\n      swap3\n      pop\n        /* \"channel.sol\":4705:4737  sha256(abi.encodePacked(hash_c)) */\n      0x02\n        /* \"channel.sol\":4729:4735  hash_c */\n      dup3\n        /* \"channel.sol\":4712:4736  abi.encodePacked(hash_c) */\n      add(0x20, mload(0x40))\n      tag_174\n      swap2\n      swap1\n      tag_130\n      jump\t// in\n    tag_174:\n      mload(0x40)\n      0x20\n      dup2\n      dup4\n      sub\n      sub\n      dup2\n      mstore\n      swap1\n      0x40\n      mstore\n        /* \"channel.sol\":4705:4737  sha256(abi.encodePacked(hash_c)) */\n      mload(0x40)\n      tag_175\n      swap2\n      swap1\n      tag_132\n      jump\t// in\n    tag_175:\n      0x20\n      mload(0x40)\n      dup1\n      dup4\n      sub\n      dup2\n      dup6\n      gas\n      staticcall\n      iszero\n      dup1\n      iszero\n      tag_177\n      jumpi\n      returndatasize\n      0x00\n      dup1\n      returndatacopy\n      revert(0x00, returndatasize)\n    tag_177:\n      pop\n      pop\n      pop\n      mload(0x40)\n      returndatasize\n      not(0x1f)\n      0x1f\n      dup3\n      add\n      and\n      dup3\n      add\n      dup1\n      0x40\n      mstore\n      pop\n      dup2\n      add\n      swap1\n      tag_178\n      swap2\n      swap1\n      tag_136\n      jump\t// in\n    tag_178:\n        /* \"channel.sol\":4696:4737  hash_c = sha256(abi.encodePacked(hash_c)) */\n      swap2\n      pop\n        /* \"channel.sol\":4613:4616  i-- */\n      dup1\n      dup1\n      tag_179\n      swap1\n      tag_143\n      jump\t// in\n    tag_179:\n      swap2\n      pop\n      pop\n        /* \"channel.sol\":4598:4754  for (i; i!= 0; i--){... */\n      jump(tag_166)\n    tag_167:\n        /* \"channel.sol\":4789:4790  1 */\n      0x01\n        /* \"channel.sol\":4787:4788  k */\n      dup10\n        /* \"channel.sol\":4787:4790  k-1 */\n      tag_180\n      swap2\n      swap1\n      tag_125\n      jump\t// in\n    tag_180:\n        /* \"channel.sol\":4783:4784  j */\n      0x00\n        /* \"channel.sol\":4783:4790  j = k-1 */\n      dup2\n      swap1\n      sstore\n      pop\n        /* \"channel.sol\":4821:4827  hash_m */\n      dup3\n        /* \"channel.sol\":4805:4809  W_jm */\n      0x02\n        /* \"channel.sol\":4805:4828  W_jm = bytes32 (hash_m) */\n      dup2\n      swap1\n      sstore\n      pop\n        /* \"channel.sol\":4859:4865  hash_c */\n      dup2\n        /* \"channel.sol\":4843:4847  W_jc */\n      0x03\n        /* \"channel.sol\":4843:4866  W_jc = bytes32 (hash_c) */\n      dup2\n      swap1\n      sstore\n      pop\n        /* \"channel.sol\":4393:4878  {... */\n      pop\n      pop\n      pop\n        /* \"channel.sol\":4223:4878  if(k%2 == 0){... */\n    tag_158:\n        /* \"channel.sol\":4922:4964  0x0000000000000000000000000000000000000000 */\n      0x00\n        /* \"channel.sol\":4901:4964  newChannelAddress != 0x0000000000000000000000000000000000000000 */\n      0xffffffffffffffffffffffffffffffffffffffff\n      and\n        /* \"channel.sol\":4901:4918  newChannelAddress */\n      dup6\n        /* \"channel.sol\":4901:4964  newChannelAddress != 0x0000000000000000000000000000000000000000 */\n      0xffffffffffffffffffffffffffffffffffffffff\n      and\n      eq\n        /* \"channel.sol\":4898:5115  if(newChannelAddress != 0x0000000000000000000000000000000000000000){... */\n      tag_181\n      jumpi\n        /* \"channel.sol\":4988:5005  newChannelAddress */\n      dup5\n        /* \"channel.sol\":4980:5011  payable(newChannelAddress).call */\n      0xffffffffffffffffffffffffffffffffffffffff\n      and\n        /* \"channel.sol\":5027:5028  v */\n      sload(0x06)\n        /* \"channel.sol\":5019:5026  balance */\n      dup6\n        /* \"channel.sol\":5019:5028  balance*v */\n      tag_182\n      swap2\n      swap1\n      tag_110\n      jump\t// in\n    tag_182:\n        /* \"channel.sol\":4980:5033  payable(newChannelAddress).call{value: balance*v}(\"\") */\n      mload(0x40)\n      tag_183\n      swap1\n      tag_184\n      jump\t// in\n    tag_183:\n      0x00\n      mload(0x40)\n      dup1\n      dup4\n      sub\n      dup2\n      dup6\n      dup8\n      gas\n      call\n      swap3\n      pop\n      pop\n      pop\n      returndatasize\n      dup1\n      0x00\n      dup2\n      eq\n      tag_187\n      jumpi\n      mload(0x40)\n      swap2\n      pop\n      and(add(returndatasize, 0x3f), not(0x1f))\n      dup3\n      add\n      0x40\n      mstore\n      returndatasize\n      dup3\n      mstore\n      returndatasize\n      0x00\n      0x20\n      dup5\n      add\n      returndatacopy\n      jump(tag_186)\n    tag_187:\n      0x60\n      swap2\n      pop\n    tag_186:\n      pop\n      pop\n      pop\n        /* \"channel.sol\":4898:5115  if(newChannelAddress != 0x0000000000000000000000000000000000000000){... */\n      jump(tag_188)\n    tag_181:\n        /* \"channel.sol\":5072:5082  msg.sender */\n      caller\n        /* \"channel.sol\":5064:5092  payable(msg.sender).transfer */\n      0xffffffffffffffffffffffffffffffffffffffff\n      and\n        /* \"channel.sol\":5064:5103  payable(msg.sender).transfer(balance*v) */\n      0x08fc\n        /* \"channel.sol\":5101:5102  v */\n      sload(0x06)\n        /* \"channel.sol\":5093:5100  balance */\n      dup7\n        /* \"channel.sol\":5093:5102  balance*v */\n      tag_189\n      swap2\n      swap1\n      tag_110\n      jump\t// in\n    tag_189:\n        /* \"channel.sol\":5064:5103  payable(msg.sender).transfer(balance*v) */\n      swap1\n      dup2\n      iszero\n      mul\n      swap1\n      mload(0x40)\n      0x00\n      mload(0x40)\n      dup1\n      dup4\n      sub\n      dup2\n      dup6\n      dup9\n      dup9\n      call\n      swap4\n      pop\n      pop\n      pop\n      pop\n      iszero\n      dup1\n      iszero\n      tag_191\n      jumpi\n      returndatasize\n      0x00\n      dup1\n      returndatacopy\n      revert(0x00, returndatasize)\n    tag_191:\n      pop\n        /* \"channel.sol\":4898:5115  if(newChannelAddress != 0x0000000000000000000000000000000000000000){... */\n    tag_188:\n        /* \"channel.sol\":3669:5189  {... */\n      pop\n      pop\n      pop\n      pop\n        /* \"channel.sol\":3559:5189  function transferDeposit(bytes memory _W_km, bytes memory _W_kc, uint256 k, address newChannelAddress) public {... */\n      pop\n      pop\n      pop\n      pop\n      jump\t// out\n        /* \"channel.sol\":2770:3347  function setChannelParams(bytes32 _W_jm, bytes32 _W_jc, string memory _S_id, uint256 _c, uint256 _v, uint256 _T_exp, uint256 _TD, uint256 _TR) public onlyOwner {... */\n    tag_85:\n        /* \"channel.sol\":5866:5874  customer */\n      0x01\n      0x00\n      swap1\n      sload\n      swap1\n      0x0100\n      exp\n      swap1\n      div\n      0xffffffffffffffffffffffffffffffffffffffff\n      and\n        /* \"channel.sol\":5852:5874  msg.sender == customer */\n      0xffffffffffffffffffffffffffffffffffffffff\n      and\n        /* \"channel.sol\":5852:5862  msg.sender */\n      caller\n        /* \"channel.sol\":5852:5874  msg.sender == customer */\n      0xffffffffffffffffffffffffffffffffffffffff\n      and\n      eq\n        /* \"channel.sol\":5843:5936  require (msg.sender == customer, \"Only customer of the delivery can set the channel params.\") */\n      tag_193\n      jumpi\n      mload(0x40)\n      0x08c379a000000000000000000000000000000000000000000000000000000000\n      dup2\n      mstore\n      0x04\n      add\n      tag_194\n      swap1\n      tag_93\n      jump\t// in\n    tag_194:\n      mload(0x40)\n      dup1\n      swap2\n      sub\n      swap1\n      revert\n    tag_193:\n        /* \"channel.sol\":2979:2981  _v */\n      dup4\n        /* \"channel.sol\":2974:2976  _c */\n      dup6\n        /* \"channel.sol\":2974:2981  _c * _v */\n      tag_196\n      swap2\n      swap1\n      tag_110\n      jump\t// in\n    tag_196:\n        /* \"channel.sol\":2949:2970  address(this).balance */\n      selfbalance\n        /* \"channel.sol\":2949:2981  address(this).balance == _c * _v */\n      eq\n        /* \"channel.sol\":2941:2982  require(address(this).balance == _c * _v) */\n      tag_197\n      jumpi\n      0x00\n      dup1\n      revert\n    tag_197:\n        /* \"channel.sol\":3011:3012  0 */\n      0x00\n        /* \"channel.sol\":3002:3007  T_exp */\n      sload(0x07)\n        /* \"channel.sol\":3002:3012  T_exp == 0 */\n      eq\n        /* \"channel.sol\":3002:3023  T_exp == 0 && TD == 0 */\n      dup1\n      iszero\n      tag_198\n      jumpi\n      pop\n        /* \"channel.sol\":3022:3023  0 */\n      0x00\n        /* \"channel.sol\":3016:3018  TD */\n      sload(0x08)\n        /* \"channel.sol\":3016:3023  TD == 0 */\n      eq\n        /* \"channel.sol\":3002:3023  T_exp == 0 && TD == 0 */\n    tag_198:\n        /* \"channel.sol\":3002:3034  T_exp == 0 && TD == 0 && TR == 0 */\n      dup1\n      iszero\n      tag_199\n      jumpi\n      pop\n        /* \"channel.sol\":3033:3034  0 */\n      0x00\n        /* \"channel.sol\":3027:3029  TR */\n      sload(0x09)\n        /* \"channel.sol\":3027:3034  TR == 0 */\n      eq\n        /* \"channel.sol\":3002:3034  T_exp == 0 && TD == 0 && TR == 0 */\n    tag_199:\n        /* \"channel.sol\":3002:3068  T_exp == 0 && TD == 0 && TR == 0 && (T_exp + TD) < block.timestamp */\n      dup1\n      iszero\n      tag_200\n      jumpi\n      pop\n        /* \"channel.sol\":3053:3068  block.timestamp */\n      timestamp\n        /* \"channel.sol\":3047:3049  TD */\n      sload(0x08)\n        /* \"channel.sol\":3039:3044  T_exp */\n      sload(0x07)\n        /* \"channel.sol\":3039:3049  T_exp + TD */\n      tag_201\n      swap2\n      swap1\n      tag_96\n      jump\t// in\n    tag_201:\n        /* \"channel.sol\":3038:3068  (T_exp + TD) < block.timestamp */\n      lt\n        /* \"channel.sol\":3002:3068  T_exp == 0 && TD == 0 && TR == 0 && (T_exp + TD) < block.timestamp */\n    tag_200:\n        /* \"channel.sol\":3001:3146  (T_exp == 0 && TD == 0 && TR == 0 && (T_exp + TD) < block.timestamp) || ((T_exp + TD) < block.timestamp && (block.timestamp < (T_exp + TD + TR))) */\n      dup1\n      tag_202\n      jumpi\n      pop\n        /* \"channel.sol\":3089:3104  block.timestamp */\n      timestamp\n        /* \"channel.sol\":3083:3085  TD */\n      sload(0x08)\n        /* \"channel.sol\":3075:3080  T_exp */\n      sload(0x07)\n        /* \"channel.sol\":3075:3085  T_exp + TD */\n      tag_203\n      swap2\n      swap1\n      tag_96\n      jump\t// in\n    tag_203:\n        /* \"channel.sol\":3074:3104  (T_exp + TD) < block.timestamp */\n      lt\n        /* \"channel.sol\":3074:3145  (T_exp + TD) < block.timestamp && (block.timestamp < (T_exp + TD + TR)) */\n      dup1\n      iszero\n      tag_204\n      jumpi\n      pop\n        /* \"channel.sol\":3141:3143  TR */\n      sload(0x09)\n        /* \"channel.sol\":3136:3138  TD */\n      sload(0x08)\n        /* \"channel.sol\":3128:3133  T_exp */\n      sload(0x07)\n        /* \"channel.sol\":3128:3138  T_exp + TD */\n      tag_205\n      swap2\n      swap1\n      tag_96\n      jump\t// in\n    tag_205:\n        /* \"channel.sol\":3128:3143  T_exp + TD + TR */\n      tag_206\n      swap2\n      swap1\n      tag_96\n      jump\t// in\n    tag_206:\n        /* \"channel.sol\":3109:3124  block.timestamp */\n      timestamp\n        /* \"channel.sol\":3109:3144  block.timestamp < (T_exp + TD + TR) */\n      lt\n        /* \"channel.sol\":3074:3145  (T_exp + TD) < block.timestamp && (block.timestamp < (T_exp + TD + TR)) */\n    tag_204:\n        /* \"channel.sol\":3001:3146  (T_exp == 0 && TD == 0 && TR == 0 && (T_exp + TD) < block.timestamp) || ((T_exp + TD) < block.timestamp && (block.timestamp < (T_exp + TD + TR))) */\n    tag_202:\n        /* \"channel.sol\":2993:3147  require((T_exp == 0 && TD == 0 && TR == 0 && (T_exp + TD) < block.timestamp) || ((T_exp + TD) < block.timestamp && (block.timestamp < (T_exp + TD + TR)))) */\n      tag_207\n      jumpi\n      0x00\n      dup1\n      revert\n    tag_207:\n        /* \"channel.sol\":3162:3163  0 */\n      0x00\n        /* \"channel.sol\":3158:3159  j */\n      dup1\n        /* \"channel.sol\":3158:3163  j = 0 */\n      dup2\n      swap1\n      sstore\n      pop\n        /* \"channel.sol\":3191:3196  _W_jm */\n      dup8\n        /* \"channel.sol\":3184:3188  W_jm */\n      0x02\n        /* \"channel.sol\":3184:3196  W_jm = _W_jm */\n      dup2\n      swap1\n      sstore\n      pop\n        /* \"channel.sol\":3214:3219  _W_jc */\n      dup7\n        /* \"channel.sol\":3207:3211  W_jc */\n      0x03\n        /* \"channel.sol\":3207:3219  W_jc = _W_jc */\n      dup2\n      swap1\n      sstore\n      pop\n        /* \"channel.sol\":3237:3242  _S_id */\n      dup6\n        /* \"channel.sol\":3230:3234  S_id */\n      0x04\n        /* \"channel.sol\":3230:3242  S_id = _S_id */\n      swap1\n      dup1\n      mload\n      swap1\n      0x20\n      add\n      swap1\n      tag_208\n      swap3\n      swap2\n      swap1\n      tag_209\n      jump\t// in\n    tag_208:\n      pop\n        /* \"channel.sol\":3257:3259  _c */\n      dup5\n        /* \"channel.sol\":3253:3254  c */\n      0x05\n        /* \"channel.sol\":3253:3259  c = _c */\n      dup2\n      swap1\n      sstore\n      pop\n        /* \"channel.sol\":3274:3276  _v */\n      dup4\n        /* \"channel.sol\":3270:3271  v */\n      0x06\n        /* \"channel.sol\":3270:3276  v = _v */\n      dup2\n      swap1\n      sstore\n      pop\n        /* \"channel.sol\":3295:3301  _T_exp */\n      dup3\n        /* \"channel.sol\":3287:3292  T_exp */\n      0x07\n        /* \"channel.sol\":3287:3301  T_exp = _T_exp */\n      dup2\n      swap1\n      sstore\n      pop\n        /* \"channel.sol\":3317:3320  _TD */\n      dup2\n        /* \"channel.sol\":3312:3314  TD */\n      0x08\n        /* \"channel.sol\":3312:3320  TD = _TD */\n      dup2\n      swap1\n      sstore\n      pop\n        /* \"channel.sol\":3336:3339  _TR */\n      dup1\n        /* \"channel.sol\":3331:3333  TR */\n      0x09\n        /* \"channel.sol\":3331:3339  TR = _TR */\n      dup2\n      swap1\n      sstore\n      pop\n        /* \"channel.sol\":2770:3347  function setChannelParams(bytes32 _W_jm, bytes32 _W_jc, string memory _S_id, uint256 _c, uint256 _v, uint256 _T_exp, uint256 _TD, uint256 _TR) public onlyOwner {... */\n      pop\n      pop\n      pop\n      pop\n      pop\n      pop\n      pop\n      pop\n      jump\t// out\n        /* \"channel.sol\":2150:2170  uint256 public T_exp */\n    tag_88:\n      sload(0x07)\n      dup2\n      jump\t// out\n    tag_209:\n      dup3\n      dup1\n      sload\n      tag_210\n      swap1\n      tag_101\n      jump\t// in\n    tag_210:\n      swap1\n      0x00\n      mstore\n      keccak256(0x00, 0x20)\n      swap1\n      0x1f\n      add\n      0x20\n      swap1\n      div\n      dup2\n      add\n      swap3\n      dup3\n      tag_212\n      jumpi\n      0x00\n      dup6\n      sstore\n      jump(tag_211)\n    tag_212:\n      dup3\n      0x1f\n      lt\n      tag_213\n      jumpi\n      dup1\n      mload\n      not(0xff)\n      and\n      dup4\n      dup1\n      add\n      or\n      dup6\n      sstore\n      jump(tag_211)\n    tag_213:\n      dup3\n      dup1\n      add\n      0x01\n      add\n      dup6\n      sstore\n      dup3\n      iszero\n      tag_211\n      jumpi\n      swap2\n      dup3\n      add\n    tag_214:\n      dup3\n      dup2\n      gt\n      iszero\n      tag_215\n      jumpi\n      dup3\n      mload\n      dup3\n      sstore\n      swap2\n      0x20\n      add\n      swap2\n      swap1\n      0x01\n      add\n      swap1\n      jump(tag_214)\n    tag_215:\n    tag_211:\n      pop\n      swap1\n      pop\n      tag_216\n      swap2\n      swap1\n      tag_217\n      jump\t// in\n    tag_216:\n      pop\n      swap1\n      jump\t// out\n    tag_217:\n    tag_218:\n      dup1\n      dup3\n      gt\n      iszero\n      tag_219\n      jumpi\n      0x00\n      dup2\n      0x00\n      swap1\n      sstore\n      pop\n      0x01\n      add\n      jump(tag_218)\n    tag_219:\n      pop\n      swap1\n      jump\t// out\n        /* \"#utility.yul\":7:106   */\n    tag_220:\n        /* \"#utility.yul\":59:65   */\n      0x00\n        /* \"#utility.yul\":93:98   */\n      dup2\n        /* \"#utility.yul\":87:99   */\n      mload\n        /* \"#utility.yul\":77:99   */\n      swap1\n      pop\n        /* \"#utility.yul\":7:106   */\n      swap2\n      swap1\n      pop\n      jump\t// out\n        /* \"#utility.yul\":112:281   */\n    tag_221:\n        /* \"#utility.yul\":196:207   */\n      0x00\n        /* \"#utility.yul\":230:236   */\n      dup3\n        /* \"#utility.yul\":225:228   */\n      dup3\n        /* \"#utility.yul\":218:237   */\n      mstore\n        /* \"#utility.yul\":270:274   */\n      0x20\n        /* \"#utility.yul\":265:268   */\n      dup3\n        /* \"#utility.yul\":261:275   */\n      add\n        /* \"#utility.yul\":246:275   */\n      swap1\n      pop\n        /* \"#utility.yul\":112:281   */\n      swap3\n      swap2\n      pop\n      pop\n      jump\t// out\n        /* \"#utility.yul\":287:594   */\n    tag_222:\n        /* \"#utility.yul\":355:356   */\n      0x00\n        /* \"#utility.yul\":365:478   */\n    tag_285:\n        /* \"#utility.yul\":379:385   */\n      dup4\n        /* \"#utility.yul\":376:377   */\n      dup2\n        /* \"#utility.yul\":373:386   */\n      lt\n        /* \"#utility.yul\":365:478   */\n      iszero\n      tag_287\n      jumpi\n        /* \"#utility.yul\":464:465   */\n      dup1\n        /* \"#utility.yul\":459:462   */\n      dup3\n        /* \"#utility.yul\":455:466   */\n      add\n        /* \"#utility.yul\":449:467   */\n      mload\n        /* \"#utility.yul\":445:446   */\n      dup2\n        /* \"#utility.yul\":440:443   */\n      dup5\n        /* \"#utility.yul\":436:447   */\n      add\n        /* \"#utility.yul\":429:468   */\n      mstore\n        /* \"#utility.yul\":401:403   */\n      0x20\n        /* \"#utility.yul\":398:399   */\n      dup2\n        /* \"#utility.yul\":394:404   */\n      add\n        /* \"#utility.yul\":389:404   */\n      swap1\n      pop\n        /* \"#utility.yul\":365:478   */\n      jump(tag_285)\n    tag_287:\n        /* \"#utility.yul\":496:502   */\n      dup4\n        /* \"#utility.yul\":493:494   */\n      dup2\n        /* \"#utility.yul\":490:503   */\n      gt\n        /* \"#utility.yul\":487:588   */\n      iszero\n      tag_288\n      jumpi\n        /* \"#utility.yul\":576:577   */\n      0x00\n        /* \"#utility.yul\":567:573   */\n      dup5\n        /* \"#utility.yul\":562:565   */\n      dup5\n        /* \"#utility.yul\":558:574   */\n      add\n        /* \"#utility.yul\":551:578   */\n      mstore\n        /* \"#utility.yul\":487:588   */\n    tag_288:\n        /* \"#utility.yul\":336:594   */\n      pop\n        /* \"#utility.yul\":287:594   */\n      pop\n      pop\n      pop\n      jump\t// out\n        /* \"#utility.yul\":600:702   */\n    tag_223:\n        /* \"#utility.yul\":641:647   */\n      0x00\n        /* \"#utility.yul\":692:694   */\n      0x1f\n        /* \"#utility.yul\":688:695   */\n      not\n        /* \"#utility.yul\":683:685   */\n      0x1f\n        /* \"#utility.yul\":676:681   */\n      dup4\n        /* \"#utility.yul\":672:686   */\n      add\n        /* \"#utility.yul\":668:696   */\n      and\n        /* \"#utility.yul\":658:696   */\n      swap1\n      pop\n        /* \"#utility.yul\":600:702   */\n      swap2\n      swap1\n      pop\n      jump\t// out\n        /* \"#utility.yul\":708:1072   */\n    tag_224:\n        /* \"#utility.yul\":796:799   */\n      0x00\n        /* \"#utility.yul\":824:863   */\n      tag_291\n        /* \"#utility.yul\":857:862   */\n      dup3\n        /* \"#utility.yul\":824:863   */\n      tag_220\n      jump\t// in\n    tag_291:\n        /* \"#utility.yul\":879:950   */\n      tag_292\n        /* \"#utility.yul\":943:949   */\n      dup2\n        /* \"#utility.yul\":938:941   */\n      dup6\n        /* \"#utility.yul\":879:950   */\n      tag_221\n      jump\t// in\n    tag_292:\n        /* \"#utility.yul\":872:950   */\n      swap4\n      pop\n        /* \"#utility.yul\":959:1011   */\n      tag_293\n        /* \"#utility.yul\":1004:1010   */\n      dup2\n        /* \"#utility.yul\":999:1002   */\n      dup6\n        /* \"#utility.yul\":992:996   */\n      0x20\n        /* \"#utility.yul\":985:990   */\n      dup7\n        /* \"#utility.yul\":981:997   */\n      add\n        /* \"#utility.yul\":959:1011   */\n      tag_222\n      jump\t// in\n    tag_293:\n        /* \"#utility.yul\":1036:1065   */\n      tag_294\n        /* \"#utility.yul\":1058:1064   */\n      dup2\n        /* \"#utility.yul\":1036:1065   */\n      tag_223\n      jump\t// in\n    tag_294:\n        /* \"#utility.yul\":1031:1034   */\n      dup5\n        /* \"#utility.yul\":1027:1066   */\n      add\n        /* \"#utility.yul\":1020:1066   */\n      swap2\n      pop\n        /* \"#utility.yul\":800:1072   */\n      pop\n        /* \"#utility.yul\":708:1072   */\n      swap3\n      swap2\n      pop\n      pop\n      jump\t// out\n        /* \"#utility.yul\":1078:1391   */\n    tag_31:\n        /* \"#utility.yul\":1191:1195   */\n      0x00\n        /* \"#utility.yul\":1229:1231   */\n      0x20\n        /* \"#utility.yul\":1218:1227   */\n      dup3\n        /* \"#utility.yul\":1214:1232   */\n      add\n        /* \"#utility.yul\":1206:1232   */\n      swap1\n      pop\n        /* \"#utility.yul\":1278:1287   */\n      dup2\n        /* \"#utility.yul\":1272:1276   */\n      dup2\n        /* \"#utility.yul\":1268:1288   */\n      sub\n        /* \"#utility.yul\":1264:1265   */\n      0x00\n        /* \"#utility.yul\":1253:1262   */\n      dup4\n        /* \"#utility.yul\":1249:1266   */\n      add\n        /* \"#utility.yul\":1242:1289   */\n      mstore\n        /* \"#utility.yul\":1306:1384   */\n      tag_296\n        /* \"#utility.yul\":1379:1383   */\n      dup2\n        /* \"#utility.yul\":1370:1376   */\n      dup5\n        /* \"#utility.yul\":1306:1384   */\n      tag_224\n      jump\t// in\n    tag_296:\n        /* \"#utility.yul\":1298:1384   */\n      swap1\n      pop\n        /* \"#utility.yul\":1078:1391   */\n      swap3\n      swap2\n      pop\n      pop\n      jump\t// out\n        /* \"#utility.yul\":1397:1523   */\n    tag_225:\n        /* \"#utility.yul\":1434:1441   */\n      0x00\n        /* \"#utility.yul\":1474:1516   */\n      0xffffffffffffffffffffffffffffffffffffffff\n        /* \"#utility.yul\":1467:1472   */\n      dup3\n        /* \"#utility.yul\":1463:1517   */\n      and\n        /* \"#utility.yul\":1452:1517   */\n      swap1\n      pop\n        /* \"#utility.yul\":1397:1523   */\n      swap2\n      swap1\n      pop\n      jump\t// out\n        /* \"#utility.yul\":1529:1625   */\n    tag_226:\n        /* \"#utility.yul\":1566:1573   */\n      0x00\n        /* \"#utility.yul\":1595:1619   */\n      tag_299\n        /* \"#utility.yul\":1613:1618   */\n      dup3\n        /* \"#utility.yul\":1595:1619   */\n      tag_225\n      jump\t// in\n    tag_299:\n        /* \"#utility.yul\":1584:1619   */\n      swap1\n      pop\n        /* \"#utility.yul\":1529:1625   */\n      swap2\n      swap1\n      pop\n      jump\t// out\n        /* \"#utility.yul\":1631:1749   */\n    tag_227:\n        /* \"#utility.yul\":1718:1742   */\n      tag_301\n        /* \"#utility.yul\":1736:1741   */\n      dup2\n        /* \"#utility.yul\":1718:1742   */\n      tag_226\n      jump\t// in\n    tag_301:\n        /* \"#utility.yul\":1713:1716   */\n      dup3\n        /* \"#utility.yul\":1706:1743   */\n      mstore\n        /* \"#utility.yul\":1631:1749   */\n      pop\n      pop\n      jump\t// out\n        /* \"#utility.yul\":1755:1977   */\n    tag_36:\n        /* \"#utility.yul\":1848:1852   */\n      0x00\n        /* \"#utility.yul\":1886:1888   */\n      0x20\n        /* \"#utility.yul\":1875:1884   */\n      dup3\n        /* \"#utility.yul\":1871:1889   */\n      add\n        /* \"#utility.yul\":1863:1889   */\n      swap1\n      pop\n        /* \"#utility.yul\":1899:1970   */\n      tag_303\n        /* \"#utility.yul\":1967:1968   */\n      0x00\n        /* \"#utility.yul\":1956:1965   */\n      dup4\n        /* \"#utility.yul\":1952:1969   */\n      add\n        /* \"#utility.yul\":1943:1949   */\n      dup5\n        /* \"#utility.yul\":1899:1970   */\n      tag_227\n      jump\t// in\n    tag_303:\n        /* \"#utility.yul\":1755:1977   */\n      swap3\n      swap2\n      pop\n      pop\n      jump\t// out\n        /* \"#utility.yul\":1983:2060   */\n    tag_228:\n        /* \"#utility.yul\":2020:2027   */\n      0x00\n        /* \"#utility.yul\":2049:2054   */\n      dup2\n        /* \"#utility.yul\":2038:2054   */\n      swap1\n      pop\n        /* \"#utility.yul\":1983:2060   */\n      swap2\n      swap1\n      pop\n      jump\t// out\n        /* \"#utility.yul\":2066:2184   */\n    tag_229:\n        /* \"#utility.yul\":2153:2177   */\n      tag_306\n        /* \"#utility.yul\":2171:2176   */\n      dup2\n        /* \"#utility.yul\":2153:2177   */\n      tag_228\n      jump\t// in\n    tag_306:\n        /* \"#utility.yul\":2148:2151   */\n      dup3\n        /* \"#utility.yul\":2141:2178   */\n      mstore\n        /* \"#utility.yul\":2066:2184   */\n      pop\n      pop\n      jump\t// out\n        /* \"#utility.yul\":2190:2412   */\n    tag_41:\n        /* \"#utility.yul\":2283:2287   */\n      0x00\n        /* \"#utility.yul\":2321:2323   */\n      0x20\n        /* \"#utility.yul\":2310:2319   */\n      dup3\n        /* \"#utility.yul\":2306:2324   */\n      add\n        /* \"#utility.yul\":2298:2324   */\n      swap1\n      pop\n        /* \"#utility.yul\":2334:2405   */\n      tag_308\n        /* \"#utility.yul\":2402:2403   */\n      0x00\n        /* \"#utility.yul\":2391:2400   */\n      dup4\n        /* \"#utility.yul\":2387:2404   */\n      add\n        /* \"#utility.yul\":2378:2384   */\n      dup5\n        /* \"#utility.yul\":2334:2405   */\n      tag_229\n      jump\t// in\n    tag_308:\n        /* \"#utility.yul\":2190:2412   */\n      swap3\n      swap2\n      pop\n      pop\n      jump\t// out\n        /* \"#utility.yul\":2418:2495   */\n    tag_230:\n        /* \"#utility.yul\":2455:2462   */\n      0x00\n        /* \"#utility.yul\":2484:2489   */\n      dup2\n        /* \"#utility.yul\":2473:2489   */\n      swap1\n      pop\n        /* \"#utility.yul\":2418:2495   */\n      swap2\n      swap1\n      pop\n      jump\t// out\n        /* \"#utility.yul\":2501:2619   */\n    tag_231:\n        /* \"#utility.yul\":2588:2612   */\n      tag_311\n        /* \"#utility.yul\":2606:2611   */\n      dup2\n        /* \"#utility.yul\":2588:2612   */\n      tag_230\n      jump\t// in\n    tag_311:\n        /* \"#utility.yul\":2583:2586   */\n      dup3\n        /* \"#utility.yul\":2576:2613   */\n      mstore\n        /* \"#utility.yul\":2501:2619   */\n      pop\n      pop\n      jump\t// out\n        /* \"#utility.yul\":2625:2847   */\n    tag_46:\n        /* \"#utility.yul\":2718:2722   */\n      0x00\n        /* \"#utility.yul\":2756:2758   */\n      0x20\n        /* \"#utility.yul\":2745:2754   */\n      dup3\n        /* \"#utility.yul\":2741:2759   */\n      add\n        /* \"#utility.yul\":2733:2759   */\n      swap1\n      pop\n        /* \"#utility.yul\":2769:2840   */\n      tag_313\n        /* \"#utility.yul\":2837:2838   */\n      0x00\n        /* \"#utility.yul\":2826:2835   */\n      dup4\n        /* \"#utility.yul\":2822:2839   */\n      add\n        /* \"#utility.yul\":2813:2819   */\n      dup5\n        /* \"#utility.yul\":2769:2840   */\n      tag_231\n      jump\t// in\n    tag_313:\n        /* \"#utility.yul\":2625:2847   */\n      swap3\n      swap2\n      pop\n      pop\n      jump\t// out\n        /* \"#utility.yul\":2853:2943   */\n    tag_232:\n        /* \"#utility.yul\":2887:2894   */\n      0x00\n        /* \"#utility.yul\":2930:2935   */\n      dup2\n        /* \"#utility.yul\":2923:2936   */\n      iszero\n        /* \"#utility.yul\":2916:2937   */\n      iszero\n        /* \"#utility.yul\":2905:2937   */\n      swap1\n      pop\n        /* \"#utility.yul\":2853:2943   */\n      swap2\n      swap1\n      pop\n      jump\t// out\n        /* \"#utility.yul\":2949:3058   */\n    tag_233:\n        /* \"#utility.yul\":3030:3051   */\n      tag_316\n        /* \"#utility.yul\":3045:3050   */\n      dup2\n        /* \"#utility.yul\":3030:3051   */\n      tag_232\n      jump\t// in\n    tag_316:\n        /* \"#utility.yul\":3025:3028   */\n      dup3\n        /* \"#utility.yul\":3018:3052   */\n      mstore\n        /* \"#utility.yul\":2949:3058   */\n      pop\n      pop\n      jump\t// out\n        /* \"#utility.yul\":3064:3274   */\n    tag_55:\n        /* \"#utility.yul\":3151:3155   */\n      0x00\n        /* \"#utility.yul\":3189:3191   */\n      0x20\n        /* \"#utility.yul\":3178:3187   */\n      dup3\n        /* \"#utility.yul\":3174:3192   */\n      add\n        /* \"#utility.yul\":3166:3192   */\n      swap1\n      pop\n        /* \"#utility.yul\":3202:3267   */\n      tag_318\n        /* \"#utility.yul\":3264:3265   */\n      0x00\n        /* \"#utility.yul\":3253:3262   */\n      dup4\n        /* \"#utility.yul\":3249:3266   */\n      add\n        /* \"#utility.yul\":3240:3246   */\n      dup5\n        /* \"#utility.yul\":3202:3267   */\n      tag_233\n      jump\t// in\n    tag_318:\n        /* \"#utility.yul\":3064:3274   */\n      swap3\n      swap2\n      pop\n      pop\n      jump\t// out\n        /* \"#utility.yul\":3280:3355   */\n    tag_234:\n        /* \"#utility.yul\":3313:3319   */\n      0x00\n        /* \"#utility.yul\":3346:3348   */\n      0x40\n        /* \"#utility.yul\":3340:3349   */\n      mload\n        /* \"#utility.yul\":3330:3349   */\n      swap1\n      pop\n        /* \"#utility.yul\":3280:3355   */\n      swap1\n      jump\t// out\n        /* \"#utility.yul\":3361:3478   */\n    tag_235:\n        /* \"#utility.yul\":3470:3471   */\n      0x00\n        /* \"#utility.yul\":3467:3468   */\n      dup1\n        /* \"#utility.yul\":3460:3472   */\n      revert\n        /* \"#utility.yul\":3484:3601   */\n    tag_236:\n        /* \"#utility.yul\":3593:3594   */\n      0x00\n        /* \"#utility.yul\":3590:3591   */\n      dup1\n        /* \"#utility.yul\":3583:3595   */\n      revert\n        /* \"#utility.yul\":3607:3729   */\n    tag_237:\n        /* \"#utility.yul\":3680:3704   */\n      tag_323\n        /* \"#utility.yul\":3698:3703   */\n      dup2\n        /* \"#utility.yul\":3680:3704   */\n      tag_228\n      jump\t// in\n    tag_323:\n        /* \"#utility.yul\":3673:3678   */\n      dup2\n        /* \"#utility.yul\":3670:3705   */\n      eq\n        /* \"#utility.yul\":3660:3723   */\n      tag_324\n      jumpi\n        /* \"#utility.yul\":3719:3720   */\n      0x00\n        /* \"#utility.yul\":3716:3717   */\n      dup1\n        /* \"#utility.yul\":3709:3721   */\n      revert\n        /* \"#utility.yul\":3660:3723   */\n    tag_324:\n        /* \"#utility.yul\":3607:3729   */\n      pop\n      jump\t// out\n        /* \"#utility.yul\":3735:3874   */\n    tag_238:\n        /* \"#utility.yul\":3781:3786   */\n      0x00\n        /* \"#utility.yul\":3819:3825   */\n      dup2\n        /* \"#utility.yul\":3806:3826   */\n      calldataload\n        /* \"#utility.yul\":3797:3826   */\n      swap1\n      pop\n        /* \"#utility.yul\":3835:3868   */\n      tag_326\n        /* \"#utility.yul\":3862:3867   */\n      dup2\n        /* \"#utility.yul\":3835:3868   */\n      tag_237\n      jump\t// in\n    tag_326:\n        /* \"#utility.yul\":3735:3874   */\n      swap3\n      swap2\n      pop\n      pop\n      jump\t// out\n        /* \"#utility.yul\":3880:4002   */\n    tag_239:\n        /* \"#utility.yul\":3953:3977   */\n      tag_328\n        /* \"#utility.yul\":3971:3976   */\n      dup2\n        /* \"#utility.yul\":3953:3977   */\n      tag_226\n      jump\t// in\n    tag_328:\n        /* \"#utility.yul\":3946:3951   */\n      dup2\n        /* \"#utility.yul\":3943:3978   */\n      eq\n        /* \"#utility.yul\":3933:3996   */\n      tag_329\n      jumpi\n        /* \"#utility.yul\":3992:3993   */\n      0x00\n        /* \"#utility.yul\":3989:3990   */\n      dup1\n        /* \"#utility.yul\":3982:3994   */\n      revert\n        /* \"#utility.yul\":3933:3996   */\n    tag_329:\n        /* \"#utility.yul\":3880:4002   */\n      pop\n      jump\t// out\n        /* \"#utility.yul\":4008:4147   */\n    tag_240:\n        /* \"#utility.yul\":4054:4059   */\n      0x00\n        /* \"#utility.yul\":4092:4098   */\n      dup2\n        /* \"#utility.yul\":4079:4099   */\n      calldataload\n        /* \"#utility.yul\":4070:4099   */\n      swap1\n      pop\n        /* \"#utility.yul\":4108:4141   */\n      tag_331\n        /* \"#utility.yul\":4135:4140   */\n      dup2\n        /* \"#utility.yul\":4108:4141   */\n      tag_239\n      jump\t// in\n    tag_331:\n        /* \"#utility.yul\":4008:4147   */\n      swap3\n      swap2\n      pop\n      pop\n      jump\t// out\n        /* \"#utility.yul\":4153:4772   */\n    tag_66:\n        /* \"#utility.yul\":4230:4236   */\n      0x00\n        /* \"#utility.yul\":4238:4244   */\n      dup1\n        /* \"#utility.yul\":4246:4252   */\n      0x00\n        /* \"#utility.yul\":4295:4297   */\n      0x60\n        /* \"#utility.yul\":4283:4292   */\n      dup5\n        /* \"#utility.yul\":4274:4281   */\n      dup7\n        /* \"#utility.yul\":4270:4293   */\n      sub\n        /* \"#utility.yul\":4266:4298   */\n      slt\n        /* \"#utility.yul\":4263:4382   */\n      iszero\n      tag_333\n      jumpi\n        /* \"#utility.yul\":4301:4380   */\n      tag_334\n      tag_235\n      jump\t// in\n    tag_334:\n        /* \"#utility.yul\":4263:4382   */\n    tag_333:\n        /* \"#utility.yul\":4421:4422   */\n      0x00\n        /* \"#utility.yul\":4446:4499   */\n      tag_335\n        /* \"#utility.yul\":4491:4498   */\n      dup7\n        /* \"#utility.yul\":4482:4488   */\n      dup3\n        /* \"#utility.yul\":4471:4480   */\n      dup8\n        /* \"#utility.yul\":4467:4489   */\n      add\n        /* \"#utility.yul\":4446:4499   */\n      tag_238\n      jump\t// in\n    tag_335:\n        /* \"#utility.yul\":4436:4499   */\n      swap4\n      pop\n        /* \"#utility.yul\":4392:4509   */\n      pop\n        /* \"#utility.yul\":4548:4550   */\n      0x20\n        /* \"#utility.yul\":4574:4627   */\n      tag_336\n        /* \"#utility.yul\":4619:4626   */\n      dup7\n        /* \"#utility.yul\":4610:4616   */\n      dup3\n        /* \"#utility.yul\":4599:4608   */\n      dup8\n        /* \"#utility.yul\":4595:4617   */\n      add\n        /* \"#utility.yul\":4574:4627   */\n      tag_238\n      jump\t// in\n    tag_336:\n        /* \"#utility.yul\":4564:4627   */\n      swap3\n      pop\n        /* \"#utility.yul\":4519:4637   */\n      pop\n        /* \"#utility.yul\":4676:4678   */\n      0x40\n        /* \"#utility.yul\":4702:4755   */\n      tag_337\n        /* \"#utility.yul\":4747:4754   */\n      dup7\n        /* \"#utility.yul\":4738:4744   */\n      dup3\n        /* \"#utility.yul\":4727:4736   */\n      dup8\n        /* \"#utility.yul\":4723:4745   */\n      add\n        /* \"#utility.yul\":4702:4755   */\n      tag_240\n      jump\t// in\n    tag_337:\n        /* \"#utility.yul\":4692:4755   */\n      swap2\n      pop\n        /* \"#utility.yul\":4647:4765   */\n      pop\n        /* \"#utility.yul\":4153:4772   */\n      swap3\n      pop\n      swap3\n      pop\n      swap3\n      jump\t// out\n        /* \"#utility.yul\":4778:4895   */\n    tag_241:\n        /* \"#utility.yul\":4887:4888   */\n      0x00\n        /* \"#utility.yul\":4884:4885   */\n      dup1\n        /* \"#utility.yul\":4877:4889   */\n      revert\n        /* \"#utility.yul\":4901:5018   */\n    tag_242:\n        /* \"#utility.yul\":5010:5011   */\n      0x00\n        /* \"#utility.yul\":5007:5008   */\n      dup1\n        /* \"#utility.yul\":5000:5012   */\n      revert\n        /* \"#utility.yul\":5024:5204   */\n    tag_243:\n        /* \"#utility.yul\":5072:5149   */\n      0x4e487b7100000000000000000000000000000000000000000000000000000000\n        /* \"#utility.yul\":5069:5070   */\n      0x00\n        /* \"#utility.yul\":5062:5150   */\n      mstore\n        /* \"#utility.yul\":5169:5173   */\n      0x41\n        /* \"#utility.yul\":5166:5167   */\n      0x04\n        /* \"#utility.yul\":5159:5174   */\n      mstore\n        /* \"#utility.yul\":5193:5197   */\n      0x24\n        /* \"#utility.yul\":5190:5191   */\n      0x00\n        /* \"#utility.yul\":5183:5198   */\n      revert\n        /* \"#utility.yul\":5210:5491   */\n    tag_244:\n        /* \"#utility.yul\":5293:5320   */\n      tag_342\n        /* \"#utility.yul\":5315:5319   */\n      dup3\n        /* \"#utility.yul\":5293:5320   */\n      tag_223\n      jump\t// in\n    tag_342:\n        /* \"#utility.yul\":5285:5291   */\n      dup2\n        /* \"#utility.yul\":5281:5321   */\n      add\n        /* \"#utility.yul\":5423:5429   */\n      dup2\n        /* \"#utility.yul\":5411:5421   */\n      dup2\n        /* \"#utility.yul\":5408:5430   */\n      lt\n        /* \"#utility.yul\":5387:5405   */\n      0xffffffffffffffff\n        /* \"#utility.yul\":5375:5385   */\n      dup3\n        /* \"#utility.yul\":5372:5406   */\n      gt\n        /* \"#utility.yul\":5369:5431   */\n      or\n        /* \"#utility.yul\":5366:5454   */\n      iszero\n      tag_343\n      jumpi\n        /* \"#utility.yul\":5434:5452   */\n      tag_344\n      tag_243\n      jump\t// in\n    tag_344:\n        /* \"#utility.yul\":5366:5454   */\n    tag_343:\n        /* \"#utility.yul\":5474:5484   */\n      dup1\n        /* \"#utility.yul\":5470:5472   */\n      0x40\n        /* \"#utility.yul\":5463:5485   */\n      mstore\n        /* \"#utility.yul\":5253:5491   */\n      pop\n        /* \"#utility.yul\":5210:5491   */\n      pop\n      pop\n      jump\t// out\n        /* \"#utility.yul\":5497:5626   */\n    tag_245:\n        /* \"#utility.yul\":5531:5537   */\n      0x00\n        /* \"#utility.yul\":5558:5578   */\n      tag_346\n      tag_234\n      jump\t// in\n    tag_346:\n        /* \"#utility.yul\":5548:5578   */\n      swap1\n      pop\n        /* \"#utility.yul\":5587:5620   */\n      tag_347\n        /* \"#utility.yul\":5615:5619   */\n      dup3\n        /* \"#utility.yul\":5607:5613   */\n      dup3\n        /* \"#utility.yul\":5587:5620   */\n      tag_244\n      jump\t// in\n    tag_347:\n        /* \"#utility.yul\":5497:5626   */\n      swap2\n      swap1\n      pop\n      jump\t// out\n        /* \"#utility.yul\":5632:5939   */\n    tag_246:\n        /* \"#utility.yul\":5693:5697   */\n      0x00\n        /* \"#utility.yul\":5783:5801   */\n      0xffffffffffffffff\n        /* \"#utility.yul\":5775:5781   */\n      dup3\n        /* \"#utility.yul\":5772:5802   */\n      gt\n        /* \"#utility.yul\":5769:5825   */\n      iszero\n      tag_349\n      jumpi\n        /* \"#utility.yul\":5805:5823   */\n      tag_350\n      tag_243\n      jump\t// in\n    tag_350:\n        /* \"#utility.yul\":5769:5825   */\n    tag_349:\n        /* \"#utility.yul\":5843:5872   */\n      tag_351\n        /* \"#utility.yul\":5865:5871   */\n      dup3\n        /* \"#utility.yul\":5843:5872   */\n      tag_223\n      jump\t// in\n    tag_351:\n        /* \"#utility.yul\":5835:5872   */\n      swap1\n      pop\n        /* \"#utility.yul\":5927:5931   */\n      0x20\n        /* \"#utility.yul\":5921:5925   */\n      dup2\n        /* \"#utility.yul\":5917:5932   */\n      add\n        /* \"#utility.yul\":5909:5932   */\n      swap1\n      pop\n        /* \"#utility.yul\":5632:5939   */\n      swap2\n      swap1\n      pop\n      jump\t// out\n        /* \"#utility.yul\":5945:6099   */\n    tag_247:\n        /* \"#utility.yul\":6029:6035   */\n      dup3\n        /* \"#utility.yul\":6024:6027   */\n      dup2\n        /* \"#utility.yul\":6019:6022   */\n      dup4\n        /* \"#utility.yul\":6006:6036   */\n      calldatacopy\n        /* \"#utility.yul\":6091:6092   */\n      0x00\n        /* \"#utility.yul\":6082:6088   */\n      dup4\n        /* \"#utility.yul\":6077:6080   */\n      dup4\n        /* \"#utility.yul\":6073:6089   */\n      add\n        /* \"#utility.yul\":6066:6093   */\n      mstore\n        /* \"#utility.yul\":5945:6099   */\n      pop\n      pop\n      pop\n      jump\t// out\n        /* \"#utility.yul\":6105:6515   */\n    tag_248:\n        /* \"#utility.yul\":6182:6187   */\n      0x00\n        /* \"#utility.yul\":6207:6272   */\n      tag_354\n        /* \"#utility.yul\":6223:6271   */\n      tag_355\n        /* \"#utility.yul\":6264:6270   */\n      dup5\n        /* \"#utility.yul\":6223:6271   */\n      tag_246\n      jump\t// in\n    tag_355:\n        /* \"#utility.yul\":6207:6272   */\n      tag_245\n      jump\t// in\n    tag_354:\n        /* \"#utility.yul\":6198:6272   */\n      swap1\n      pop\n        /* \"#utility.yul\":6295:6301   */\n      dup3\n        /* \"#utility.yul\":6288:6293   */\n      dup2\n        /* \"#utility.yul\":6281:6302   */\n      mstore\n        /* \"#utility.yul\":6333:6337   */\n      0x20\n        /* \"#utility.yul\":6326:6331   */\n      dup2\n        /* \"#utility.yul\":6322:6338   */\n      add\n        /* \"#utility.yul\":6371:6374   */\n      dup5\n        /* \"#utility.yul\":6362:6368   */\n      dup5\n        /* \"#utility.yul\":6357:6360   */\n      dup5\n        /* \"#utility.yul\":6353:6369   */\n      add\n        /* \"#utility.yul\":6350:6375   */\n      gt\n        /* \"#utility.yul\":6347:6459   */\n      iszero\n      tag_356\n      jumpi\n        /* \"#utility.yul\":6378:6457   */\n      tag_357\n      tag_242\n      jump\t// in\n    tag_357:\n        /* \"#utility.yul\":6347:6459   */\n    tag_356:\n        /* \"#utility.yul\":6468:6509   */\n      tag_358\n        /* \"#utility.yul\":6502:6508   */\n      dup5\n        /* \"#utility.yul\":6497:6500   */\n      dup3\n        /* \"#utility.yul\":6492:6495   */\n      dup6\n        /* \"#utility.yul\":6468:6509   */\n      tag_247\n      jump\t// in\n    tag_358:\n        /* \"#utility.yul\":6188:6515   */\n      pop\n        /* \"#utility.yul\":6105:6515   */\n      swap4\n      swap3\n      pop\n      pop\n      pop\n      jump\t// out\n        /* \"#utility.yul\":6534:6872   */\n    tag_249:\n        /* \"#utility.yul\":6589:6594   */\n      0x00\n        /* \"#utility.yul\":6638:6641   */\n      dup3\n        /* \"#utility.yul\":6631:6635   */\n      0x1f\n        /* \"#utility.yul\":6623:6629   */\n      dup4\n        /* \"#utility.yul\":6619:6636   */\n      add\n        /* \"#utility.yul\":6615:6642   */\n      slt\n        /* \"#utility.yul\":6605:6727   */\n      tag_360\n      jumpi\n        /* \"#utility.yul\":6646:6725   */\n      tag_361\n      tag_241\n      jump\t// in\n    tag_361:\n        /* \"#utility.yul\":6605:6727   */\n    tag_360:\n        /* \"#utility.yul\":6763:6769   */\n      dup2\n        /* \"#utility.yul\":6750:6770   */\n      calldataload\n        /* \"#utility.yul\":6788:6866   */\n      tag_362\n        /* \"#utility.yul\":6862:6865   */\n      dup5\n        /* \"#utility.yul\":6854:6860   */\n      dup3\n        /* \"#utility.yul\":6847:6851   */\n      0x20\n        /* \"#utility.yul\":6839:6845   */\n      dup7\n        /* \"#utility.yul\":6835:6852   */\n      add\n        /* \"#utility.yul\":6788:6866   */\n      tag_248\n      jump\t// in\n    tag_362:\n        /* \"#utility.yul\":6779:6866   */\n      swap2\n      pop\n        /* \"#utility.yul\":6595:6872   */\n      pop\n        /* \"#utility.yul\":6534:6872   */\n      swap3\n      swap2\n      pop\n      pop\n      jump\t// out\n        /* \"#utility.yul\":6878:7999   */\n    tag_79:\n        /* \"#utility.yul\":6982:6988   */\n      0x00\n        /* \"#utility.yul\":6990:6996   */\n      dup1\n        /* \"#utility.yul\":6998:7004   */\n      0x00\n        /* \"#utility.yul\":7006:7012   */\n      dup1\n        /* \"#utility.yul\":7055:7058   */\n      0x80\n        /* \"#utility.yul\":7043:7052   */\n      dup6\n        /* \"#utility.yul\":7034:7041   */\n      dup8\n        /* \"#utility.yul\":7030:7053   */\n      sub\n        /* \"#utility.yul\":7026:7059   */\n      slt\n        /* \"#utility.yul\":7023:7143   */\n      iszero\n      tag_364\n      jumpi\n        /* \"#utility.yul\":7062:7141   */\n      tag_365\n      tag_235\n      jump\t// in\n    tag_365:\n        /* \"#utility.yul\":7023:7143   */\n    tag_364:\n        /* \"#utility.yul\":7210:7211   */\n      0x00\n        /* \"#utility.yul\":7199:7208   */\n      dup6\n        /* \"#utility.yul\":7195:7212   */\n      add\n        /* \"#utility.yul\":7182:7213   */\n      calldataload\n        /* \"#utility.yul\":7240:7258   */\n      0xffffffffffffffff\n        /* \"#utility.yul\":7232:7238   */\n      dup2\n        /* \"#utility.yul\":7229:7259   */\n      gt\n        /* \"#utility.yul\":7226:7343   */\n      iszero\n      tag_366\n      jumpi\n        /* \"#utility.yul\":7262:7341   */\n      tag_367\n      tag_236\n      jump\t// in\n    tag_367:\n        /* \"#utility.yul\":7226:7343   */\n    tag_366:\n        /* \"#utility.yul\":7367:7429   */\n      tag_368\n        /* \"#utility.yul\":7421:7428   */\n      dup8\n        /* \"#utility.yul\":7412:7418   */\n      dup3\n        /* \"#utility.yul\":7401:7410   */\n      dup9\n        /* \"#utility.yul\":7397:7419   */\n      add\n        /* \"#utility.yul\":7367:7429   */\n      tag_249\n      jump\t// in\n    tag_368:\n        /* \"#utility.yul\":7357:7429   */\n      swap5\n      pop\n        /* \"#utility.yul\":7153:7439   */\n      pop\n        /* \"#utility.yul\":7506:7508   */\n      0x20\n        /* \"#utility.yul\":7495:7504   */\n      dup6\n        /* \"#utility.yul\":7491:7509   */\n      add\n        /* \"#utility.yul\":7478:7510   */\n      calldataload\n        /* \"#utility.yul\":7537:7555   */\n      0xffffffffffffffff\n        /* \"#utility.yul\":7529:7535   */\n      dup2\n        /* \"#utility.yul\":7526:7556   */\n      gt\n        /* \"#utility.yul\":7523:7640   */\n      iszero\n      tag_369\n      jumpi\n        /* \"#utility.yul\":7559:7638   */\n      tag_370\n      tag_236\n      jump\t// in\n    tag_370:\n        /* \"#utility.yul\":7523:7640   */\n    tag_369:\n        /* \"#utility.yul\":7664:7726   */\n      tag_371\n        /* \"#utility.yul\":7718:7725   */\n      dup8\n        /* \"#utility.yul\":7709:7715   */\n      dup3\n        /* \"#utility.yul\":7698:7707   */\n      dup9\n        /* \"#utility.yul\":7694:7716   */\n      add\n        /* \"#utility.yul\":7664:7726   */\n      tag_249\n      jump\t// in\n    tag_371:\n        /* \"#utility.yul\":7654:7726   */\n      swap4\n      pop\n        /* \"#utility.yul\":7449:7736   */\n      pop\n        /* \"#utility.yul\":7775:7777   */\n      0x40\n        /* \"#utility.yul\":7801:7854   */\n      tag_372\n        /* \"#utility.yul\":7846:7853   */\n      dup8\n        /* \"#utility.yul\":7837:7843   */\n      dup3\n        /* \"#utility.yul\":7826:7835   */\n      dup9\n        /* \"#utility.yul\":7822:7844   */\n      add\n        /* \"#utility.yul\":7801:7854   */\n      tag_238\n      jump\t// in\n    tag_372:\n        /* \"#utility.yul\":7791:7854   */\n      swap3\n      pop\n        /* \"#utility.yul\":7746:7864   */\n      pop\n        /* \"#utility.yul\":7903:7905   */\n      0x60\n        /* \"#utility.yul\":7929:7982   */\n      tag_373\n        /* \"#utility.yul\":7974:7981   */\n      dup8\n        /* \"#utility.yul\":7965:7971   */\n      dup3\n        /* \"#utility.yul\":7954:7963   */\n      dup9\n        /* \"#utility.yul\":7950:7972   */\n      add\n        /* \"#utility.yul\":7929:7982   */\n      tag_240\n      jump\t// in\n    tag_373:\n        /* \"#utility.yul\":7919:7982   */\n      swap2\n      pop\n        /* \"#utility.yul\":7874:7992   */\n      pop\n        /* \"#utility.yul\":6878:7999   */\n      swap3\n      swap6\n      swap2\n      swap5\n      pop\n      swap3\n      pop\n      jump\t// out\n        /* \"#utility.yul\":8005:8127   */\n    tag_250:\n        /* \"#utility.yul\":8078:8102   */\n      tag_375\n        /* \"#utility.yul\":8096:8101   */\n      dup2\n        /* \"#utility.yul\":8078:8102   */\n      tag_230\n      jump\t// in\n    tag_375:\n        /* \"#utility.yul\":8071:8076   */\n      dup2\n        /* \"#utility.yul\":8068:8103   */\n      eq\n        /* \"#utility.yul\":8058:8121   */\n      tag_376\n      jumpi\n        /* \"#utility.yul\":8117:8118   */\n      0x00\n        /* \"#utility.yul\":8114:8115   */\n      dup1\n        /* \"#utility.yul\":8107:8119   */\n      revert\n        /* \"#utility.yul\":8058:8121   */\n    tag_376:\n        /* \"#utility.yul\":8005:8127   */\n      pop\n      jump\t// out\n        /* \"#utility.yul\":8133:8272   */\n    tag_251:\n        /* \"#utility.yul\":8179:8184   */\n      0x00\n        /* \"#utility.yul\":8217:8223   */\n      dup2\n        /* \"#utility.yul\":8204:8224   */\n      calldataload\n        /* \"#utility.yul\":8195:8224   */\n      swap1\n      pop\n        /* \"#utility.yul\":8233:8266   */\n      tag_378\n        /* \"#utility.yul\":8260:8265   */\n      dup2\n        /* \"#utility.yul\":8233:8266   */\n      tag_250\n      jump\t// in\n    tag_378:\n        /* \"#utility.yul\":8133:8272   */\n      swap3\n      swap2\n      pop\n      pop\n      jump\t// out\n        /* \"#utility.yul\":8278:8586   */\n    tag_252:\n        /* \"#utility.yul\":8340:8344   */\n      0x00\n        /* \"#utility.yul\":8430:8448   */\n      0xffffffffffffffff\n        /* \"#utility.yul\":8422:8428   */\n      dup3\n        /* \"#utility.yul\":8419:8449   */\n      gt\n        /* \"#utility.yul\":8416:8472   */\n      iszero\n      tag_380\n      jumpi\n        /* \"#utility.yul\":8452:8470   */\n      tag_381\n      tag_243\n      jump\t// in\n    tag_381:\n        /* \"#utility.yul\":8416:8472   */\n    tag_380:\n        /* \"#utility.yul\":8490:8519   */\n      tag_382\n        /* \"#utility.yul\":8512:8518   */\n      dup3\n        /* \"#utility.yul\":8490:8519   */\n      tag_223\n      jump\t// in\n    tag_382:\n        /* \"#utility.yul\":8482:8519   */\n      swap1\n      pop\n        /* \"#utility.yul\":8574:8578   */\n      0x20\n        /* \"#utility.yul\":8568:8572   */\n      dup2\n        /* \"#utility.yul\":8564:8579   */\n      add\n        /* \"#utility.yul\":8556:8579   */\n      swap1\n      pop\n        /* \"#utility.yul\":8278:8586   */\n      swap2\n      swap1\n      pop\n      jump\t// out\n        /* \"#utility.yul\":8592:9004   */\n    tag_253:\n        /* \"#utility.yul\":8670:8675   */\n      0x00\n        /* \"#utility.yul\":8695:8761   */\n      tag_384\n        /* \"#utility.yul\":8711:8760   */\n      tag_385\n        /* \"#utility.yul\":8753:8759   */\n      dup5\n        /* \"#utility.yul\":8711:8760   */\n      tag_252\n      jump\t// in\n    tag_385:\n        /* \"#utility.yul\":8695:8761   */\n      tag_245\n      jump\t// in\n    tag_384:\n        /* \"#utility.yul\":8686:8761   */\n      swap1\n      pop\n        /* \"#utility.yul\":8784:8790   */\n      dup3\n        /* \"#utility.yul\":8777:8782   */\n      dup2\n        /* \"#utility.yul\":8770:8791   */\n      mstore\n        /* \"#utility.yul\":8822:8826   */\n      0x20\n        /* \"#utility.yul\":8815:8820   */\n      dup2\n        /* \"#utility.yul\":8811:8827   */\n      add\n        /* \"#utility.yul\":8860:8863   */\n      dup5\n        /* \"#utility.yul\":8851:8857   */\n      dup5\n        /* \"#utility.yul\":8846:8849   */\n      dup5\n        /* \"#utility.yul\":8842:8858   */\n      add\n        /* \"#utility.yul\":8839:8864   */\n      gt\n        /* \"#utility.yul\":8836:8948   */\n      iszero\n      tag_386\n      jumpi\n        /* \"#utility.yul\":8867:8946   */\n      tag_387\n      tag_242\n      jump\t// in\n    tag_387:\n        /* \"#utility.yul\":8836:8948   */\n    tag_386:\n        /* \"#utility.yul\":8957:8998   */\n      tag_388\n        /* \"#utility.yul\":8991:8997   */\n      dup5\n        /* \"#utility.yul\":8986:8989   */\n      dup3\n        /* \"#utility.yul\":8981:8984   */\n      dup6\n        /* \"#utility.yul\":8957:8998   */\n      tag_247\n      jump\t// in\n    tag_388:\n        /* \"#utility.yul\":8676:9004   */\n      pop\n        /* \"#utility.yul\":8592:9004   */\n      swap4\n      swap3\n      pop\n      pop\n      pop\n      jump\t// out\n        /* \"#utility.yul\":9024:9364   */\n    tag_254:\n        /* \"#utility.yul\":9080:9085   */\n      0x00\n        /* \"#utility.yul\":9129:9132   */\n      dup3\n        /* \"#utility.yul\":9122:9126   */\n      0x1f\n        /* \"#utility.yul\":9114:9120   */\n      dup4\n        /* \"#utility.yul\":9110:9127   */\n      add\n        /* \"#utility.yul\":9106:9133   */\n      slt\n        /* \"#utility.yul\":9096:9218   */\n      tag_390\n      jumpi\n        /* \"#utility.yul\":9137:9216   */\n      tag_391\n      tag_241\n      jump\t// in\n    tag_391:\n        /* \"#utility.yul\":9096:9218   */\n    tag_390:\n        /* \"#utility.yul\":9254:9260   */\n      dup2\n        /* \"#utility.yul\":9241:9261   */\n      calldataload\n        /* \"#utility.yul\":9279:9358   */\n      tag_392\n        /* \"#utility.yul\":9354:9357   */\n      dup5\n        /* \"#utility.yul\":9346:9352   */\n      dup3\n        /* \"#utility.yul\":9339:9343   */\n      0x20\n        /* \"#utility.yul\":9331:9337   */\n      dup7\n        /* \"#utility.yul\":9327:9344   */\n      add\n        /* \"#utility.yul\":9279:9358   */\n      tag_253\n      jump\t// in\n    tag_392:\n        /* \"#utility.yul\":9270:9358   */\n      swap2\n      pop\n        /* \"#utility.yul\":9086:9364   */\n      pop\n        /* \"#utility.yul\":9024:9364   */\n      swap3\n      swap2\n      pop\n      pop\n      jump\t// out\n        /* \"#utility.yul\":9370:10899   */\n    tag_84:\n        /* \"#utility.yul\":9502:9508   */\n      0x00\n        /* \"#utility.yul\":9510:9516   */\n      dup1\n        /* \"#utility.yul\":9518:9524   */\n      0x00\n        /* \"#utility.yul\":9526:9532   */\n      dup1\n        /* \"#utility.yul\":9534:9540   */\n      0x00\n        /* \"#utility.yul\":9542:9548   */\n      dup1\n        /* \"#utility.yul\":9550:9556   */\n      0x00\n        /* \"#utility.yul\":9558:9564   */\n      dup1\n        /* \"#utility.yul\":9607:9610   */\n      0x0100\n        /* \"#utility.yul\":9595:9604   */\n      dup10\n        /* \"#utility.yul\":9586:9593   */\n      dup12\n        /* \"#utility.yul\":9582:9605   */\n      sub\n        /* \"#utility.yul\":9578:9611   */\n      slt\n        /* \"#utility.yul\":9575:9695   */\n      iszero\n      tag_394\n      jumpi\n        /* \"#utility.yul\":9614:9693   */\n      tag_395\n      tag_235\n      jump\t// in\n    tag_395:\n        /* \"#utility.yul\":9575:9695   */\n    tag_394:\n        /* \"#utility.yul\":9734:9735   */\n      0x00\n        /* \"#utility.yul\":9759:9812   */\n      tag_396\n        /* \"#utility.yul\":9804:9811   */\n      dup12\n        /* \"#utility.yul\":9795:9801   */\n      dup3\n        /* \"#utility.yul\":9784:9793   */\n      dup13\n        /* \"#utility.yul\":9780:9802   */\n      add\n        /* \"#utility.yul\":9759:9812   */\n      tag_251\n      jump\t// in\n    tag_396:\n        /* \"#utility.yul\":9749:9812   */\n      swap9\n      pop\n        /* \"#utility.yul\":9705:9822   */\n      pop\n        /* \"#utility.yul\":9861:9863   */\n      0x20\n        /* \"#utility.yul\":9887:9940   */\n      tag_397\n        /* \"#utility.yul\":9932:9939   */\n      dup12\n        /* \"#utility.yul\":9923:9929   */\n      dup3\n        /* \"#utility.yul\":9912:9921   */\n      dup13\n        /* \"#utility.yul\":9908:9930   */\n      add\n        /* \"#utility.yul\":9887:9940   */\n      tag_251\n      jump\t// in\n    tag_397:\n        /* \"#utility.yul\":9877:9940   */\n      swap8\n      pop\n        /* \"#utility.yul\":9832:9950   */\n      pop\n        /* \"#utility.yul\":10017:10019   */\n      0x40\n        /* \"#utility.yul\":10006:10015   */\n      dup10\n        /* \"#utility.yul\":10002:10020   */\n      add\n        /* \"#utility.yul\":9989:10021   */\n      calldataload\n        /* \"#utility.yul\":10048:10066   */\n      0xffffffffffffffff\n        /* \"#utility.yul\":10040:10046   */\n      dup2\n        /* \"#utility.yul\":10037:10067   */\n      gt\n        /* \"#utility.yul\":10034:10151   */\n      iszero\n      tag_398\n      jumpi\n        /* \"#utility.yul\":10070:10149   */\n      tag_399\n      tag_236\n      jump\t// in\n    tag_399:\n        /* \"#utility.yul\":10034:10151   */\n    tag_398:\n        /* \"#utility.yul\":10175:10238   */\n      tag_400\n        /* \"#utility.yul\":10230:10237   */\n      dup12\n        /* \"#utility.yul\":10221:10227   */\n      dup3\n        /* \"#utility.yul\":10210:10219   */\n      dup13\n        /* \"#utility.yul\":10206:10228   */\n      add\n        /* \"#utility.yul\":10175:10238   */\n      tag_254\n      jump\t// in\n    tag_400:\n        /* \"#utility.yul\":10165:10238   */\n      swap7\n      pop\n        /* \"#utility.yul\":9960:10248   */\n      pop\n        /* \"#utility.yul\":10287:10289   */\n      0x60\n        /* \"#utility.yul\":10313:10366   */\n      tag_401\n        /* \"#utility.yul\":10358:10365   */\n      dup12\n        /* \"#utility.yul\":10349:10355   */\n      dup3\n        /* \"#utility.yul\":10338:10347   */\n      dup13\n        /* \"#utility.yul\":10334:10356   */\n      add\n        /* \"#utility.yul\":10313:10366   */\n      tag_238\n      jump\t// in\n    tag_401:\n        /* \"#utility.yul\":10303:10366   */\n      swap6\n      pop\n        /* \"#utility.yul\":10258:10376   */\n      pop\n        /* \"#utility.yul\":10415:10418   */\n      0x80\n        /* \"#utility.yul\":10442:10495   */\n      tag_402\n        /* \"#utility.yul\":10487:10494   */\n      dup12\n        /* \"#utility.yul\":10478:10484   */\n      dup3\n        /* \"#utility.yul\":10467:10476   */\n      dup13\n        /* \"#utility.yul\":10463:10485   */\n      add\n        /* \"#utility.yul\":10442:10495   */\n      tag_238\n      jump\t// in\n    tag_402:\n        /* \"#utility.yul\":10432:10495   */\n      swap5\n      pop\n        /* \"#utility.yul\":10386:10505   */\n      pop\n        /* \"#utility.yul\":10544:10547   */\n      0xa0\n        /* \"#utility.yul\":10571:10624   */\n      tag_403\n        /* \"#utility.yul\":10616:10623   */\n      dup12\n        /* \"#utility.yul\":10607:10613   */\n      dup3\n        /* \"#utility.yul\":10596:10605   */\n      dup13\n        /* \"#utility.yul\":10592:10614   */\n      add\n        /* \"#utility.yul\":10571:10624   */\n      tag_238\n      jump\t// in\n    tag_403:\n        /* \"#utility.yul\":10561:10624   */\n      swap4\n      pop\n        /* \"#utility.yul\":10515:10634   */\n      pop\n        /* \"#utility.yul\":10673:10676   */\n      0xc0\n        /* \"#utility.yul\":10700:10753   */\n      tag_404\n        /* \"#utility.yul\":10745:10752   */\n      dup12\n        /* \"#utility.yul\":10736:10742   */\n      dup3\n        /* \"#utility.yul\":10725:10734   */\n      dup13\n        /* \"#utility.yul\":10721:10743   */\n      add\n        /* \"#utility.yul\":10700:10753   */\n      tag_238\n      jump\t// in\n    tag_404:\n        /* \"#utility.yul\":10690:10753   */\n      swap3\n      pop\n        /* \"#utility.yul\":10644:10763   */\n      pop\n        /* \"#utility.yul\":10802:10805   */\n      0xe0\n        /* \"#utility.yul\":10829:10882   */\n      tag_405\n        /* \"#utility.yul\":10874:10881   */\n      dup12\n        /* \"#utility.yul\":10865:10871   */\n      dup3\n        /* \"#utility.yul\":10854:10863   */\n      dup13\n        /* \"#utility.yul\":10850:10872   */\n      add\n        /* \"#utility.yul\":10829:10882   */\n      tag_238\n      jump\t// in\n    tag_405:\n        /* \"#utility.yul\":10819:10882   */\n      swap2\n      pop\n        /* \"#utility.yul\":10773:10892   */\n      pop\n        /* \"#utility.yul\":9370:10899   */\n      swap3\n      swap6\n      swap9\n      pop\n      swap3\n      swap6\n      swap9\n      swap1\n      swap4\n      swap7\n      pop\n      jump\t// out\n        /* \"#utility.yul\":10905:11149   */\n    tag_255:\n        /* \"#utility.yul\":11045:11079   */\n      0x4f6e6c7920637573746f6d6572206f66207468652064656c6976657279206361\n        /* \"#utility.yul\":11041:11042   */\n      0x00\n        /* \"#utility.yul\":11033:11039   */\n      dup3\n        /* \"#utility.yul\":11029:11043   */\n      add\n        /* \"#utility.yul\":11022:11080   */\n      mstore\n        /* \"#utility.yul\":11114:11141   */\n      0x6e2073657420746865206368616e6e656c20706172616d732e00000000000000\n        /* \"#utility.yul\":11109:11111   */\n      0x20\n        /* \"#utility.yul\":11101:11107   */\n      dup3\n        /* \"#utility.yul\":11097:11112   */\n      add\n        /* \"#utility.yul\":11090:11142   */\n      mstore\n        /* \"#utility.yul\":10905:11149   */\n      pop\n      jump\t// out\n        /* \"#utility.yul\":11155:11521   */\n    tag_256:\n        /* \"#utility.yul\":11297:11300   */\n      0x00\n        /* \"#utility.yul\":11318:11385   */\n      tag_408\n        /* \"#utility.yul\":11382:11384   */\n      0x39\n        /* \"#utility.yul\":11377:11380   */\n      dup4\n        /* \"#utility.yul\":11318:11385   */\n      tag_221\n      jump\t// in\n    tag_408:\n        /* \"#utility.yul\":11311:11385   */\n      swap2\n      pop\n        /* \"#utility.yul\":11394:11487   */\n      tag_409\n        /* \"#utility.yul\":11483:11486   */\n      dup3\n        /* \"#utility.yul\":11394:11487   */\n      tag_255\n      jump\t// in\n    tag_409:\n        /* \"#utility.yul\":11512:11514   */\n      0x40\n        /* \"#utility.yul\":11507:11510   */\n      dup3\n        /* \"#utility.yul\":11503:11515   */\n      add\n        /* \"#utility.yul\":11496:11515   */\n      swap1\n      pop\n        /* \"#utility.yul\":11155:11521   */\n      swap2\n      swap1\n      pop\n      jump\t// out\n        /* \"#utility.yul\":11527:11946   */\n    tag_93:\n        /* \"#utility.yul\":11693:11697   */\n      0x00\n        /* \"#utility.yul\":11731:11733   */\n      0x20\n        /* \"#utility.yul\":11720:11729   */\n      dup3\n        /* \"#utility.yul\":11716:11734   */\n      add\n        /* \"#utility.yul\":11708:11734   */\n      swap1\n      pop\n        /* \"#utility.yul\":11780:11789   */\n      dup2\n        /* \"#utility.yul\":11774:11778   */\n      dup2\n        /* \"#utility.yul\":11770:11790   */\n      sub\n        /* \"#utility.yul\":11766:11767   */\n      0x00\n        /* \"#utility.yul\":11755:11764   */\n      dup4\n        /* \"#utility.yul\":11751:11768   */\n      add\n        /* \"#utility.yul\":11744:11791   */\n      mstore\n        /* \"#utility.yul\":11808:11939   */\n      tag_411\n        /* \"#utility.yul\":11934:11938   */\n      dup2\n        /* \"#utility.yul\":11808:11939   */\n      tag_256\n      jump\t// in\n    tag_411:\n        /* \"#utility.yul\":11800:11939   */\n      swap1\n      pop\n        /* \"#utility.yul\":11527:11946   */\n      swap2\n      swap1\n      pop\n      jump\t// out\n        /* \"#utility.yul\":11952:12132   */\n    tag_257:\n        /* \"#utility.yul\":12000:12077   */\n      0x4e487b7100000000000000000000000000000000000000000000000000000000\n        /* \"#utility.yul\":11997:11998   */\n      0x00\n        /* \"#utility.yul\":11990:12078   */\n      mstore\n        /* \"#utility.yul\":12097:12101   */\n      0x11\n        /* \"#utility.yul\":12094:12095   */\n      0x04\n        /* \"#utility.yul\":12087:12102   */\n      mstore\n        /* \"#utility.yul\":12121:12125   */\n      0x24\n        /* \"#utility.yul\":12118:12119   */\n      0x00\n        /* \"#utility.yul\":12111:12126   */\n      revert\n        /* \"#utility.yul\":12138:12443   */\n    tag_96:\n        /* \"#utility.yul\":12178:12181   */\n      0x00\n        /* \"#utility.yul\":12197:12217   */\n      tag_414\n        /* \"#utility.yul\":12215:12216   */\n      dup3\n        /* \"#utility.yul\":12197:12217   */\n      tag_228\n      jump\t// in\n    tag_414:\n        /* \"#utility.yul\":12192:12217   */\n      swap2\n      pop\n        /* \"#utility.yul\":12231:12251   */\n      tag_415\n        /* \"#utility.yul\":12249:12250   */\n      dup4\n        /* \"#utility.yul\":12231:12251   */\n      tag_228\n      jump\t// in\n    tag_415:\n        /* \"#utility.yul\":12226:12251   */\n      swap3\n      pop\n        /* \"#utility.yul\":12385:12386   */\n      dup3\n        /* \"#utility.yul\":12317:12383   */\n      0xffffffffffffffffffffffffffffffffffffffffffffffffffffffffffffffff\n        /* \"#utility.yul\":12313:12387   */\n      sub\n        /* \"#utility.yul\":12310:12311   */\n      dup3\n        /* \"#utility.yul\":12307:12388   */\n      gt\n        /* \"#utility.yul\":12304:12411   */\n      iszero\n      tag_416\n      jumpi\n        /* \"#utility.yul\":12391:12409   */\n      tag_417\n      tag_257\n      jump\t// in\n    tag_417:\n        /* \"#utility.yul\":12304:12411   */\n    tag_416:\n        /* \"#utility.yul\":12435:12436   */\n      dup3\n        /* \"#utility.yul\":12432:12433   */\n      dup3\n        /* \"#utility.yul\":12428:12437   */\n      add\n        /* \"#utility.yul\":12421:12437   */\n      swap1\n      pop\n        /* \"#utility.yul\":12138:12443   */\n      swap3\n      swap2\n      pop\n      pop\n      jump\t// out\n        /* \"#utility.yul\":12449:12609   */\n    tag_258:\n        /* \"#utility.yul\":12589:12601   */\n      0x54696d65206572726f7200000000000000000000000000000000000000000000\n        /* \"#utility.yul\":12585:12586   */\n      0x00\n        /* \"#utility.yul\":12577:12583   */\n      dup3\n        /* \"#utility.yul\":12573:12587   */\n      add\n        /* \"#utility.yul\":12566:12602   */\n      mstore\n        /* \"#utility.yul\":12449:12609   */\n      pop\n      jump\t// out\n        /* \"#utility.yul\":12615:12981   */\n    tag_259:\n        /* \"#utility.yul\":12757:12760   */\n      0x00\n        /* \"#utility.yul\":12778:12845   */\n      tag_420\n        /* \"#utility.yul\":12842:12844   */\n      0x0a\n        /* \"#utility.yul\":12837:12840   */\n      dup4\n        /* \"#utility.yul\":12778:12845   */\n      tag_221\n      jump\t// in\n    tag_420:\n        /* \"#utility.yul\":12771:12845   */\n      swap2\n      pop\n        /* \"#utility.yul\":12854:12947   */\n      tag_421\n        /* \"#utility.yul\":12943:12946   */\n      dup3\n        /* \"#utility.yul\":12854:12947   */\n      tag_258\n      jump\t// in\n    tag_421:\n        /* \"#utility.yul\":12972:12974   */\n      0x20\n        /* \"#utility.yul\":12967:12970   */\n      dup3\n        /* \"#utility.yul\":12963:12975   */\n      add\n        /* \"#utility.yul\":12956:12975   */\n      swap1\n      pop\n        /* \"#utility.yul\":12615:12981   */\n      swap2\n      swap1\n      pop\n      jump\t// out\n        /* \"#utility.yul\":12987:13406   */\n    tag_99:\n        /* \"#utility.yul\":13153:13157   */\n      0x00\n        /* \"#utility.yul\":13191:13193   */\n      0x20\n        /* \"#utility.yul\":13180:13189   */\n      dup3\n        /* \"#utility.yul\":13176:13194   */\n      add\n        /* \"#utility.yul\":13168:13194   */\n      swap1\n      pop\n        /* \"#utility.yul\":13240:13249   */\n      dup2\n        /* \"#utility.yul\":13234:13238   */\n      dup2\n        /* \"#utility.yul\":13230:13250   */\n      sub\n        /* \"#utility.yul\":13226:13227   */\n      0x00\n        /* \"#utility.yul\":13215:13224   */\n      dup4\n        /* \"#utility.yul\":13211:13228   */\n      add\n        /* \"#utility.yul\":13204:13251   */\n      mstore\n        /* \"#utility.yul\":13268:13399   */\n      tag_423\n        /* \"#utility.yul\":13394:13398   */\n      dup2\n        /* \"#utility.yul\":13268:13399   */\n      tag_259\n      jump\t// in\n    tag_423:\n        /* \"#utility.yul\":13260:13399   */\n      swap1\n      pop\n        /* \"#utility.yul\":12987:13406   */\n      swap2\n      swap1\n      pop\n      jump\t// out\n        /* \"#utility.yul\":13412:13592   */\n    tag_260:\n        /* \"#utility.yul\":13460:13537   */\n      0x4e487b7100000000000000000000000000000000000000000000000000000000\n        /* \"#utility.yul\":13457:13458   */\n      0x00\n        /* \"#utility.yul\":13450:13538   */\n      mstore\n        /* \"#utility.yul\":13557:13561   */\n      0x22\n        /* \"#utility.yul\":13554:13555   */\n      0x04\n        /* \"#utility.yul\":13547:13562   */\n      mstore\n        /* \"#utility.yul\":13581:13585   */\n      0x24\n        /* \"#utility.yul\":13578:13579   */\n      0x00\n        /* \"#utility.yul\":13571:13586   */\n      revert\n        /* \"#utility.yul\":13598:13918   */\n    tag_101:\n        /* \"#utility.yul\":13642:13648   */\n      0x00\n        /* \"#utility.yul\":13679:13680   */\n      0x02\n        /* \"#utility.yul\":13673:13677   */\n      dup3\n        /* \"#utility.yul\":13669:13681   */\n      div\n        /* \"#utility.yul\":13659:13681   */\n      swap1\n      pop\n        /* \"#utility.yul\":13726:13727   */\n      0x01\n        /* \"#utility.yul\":13720:13724   */\n      dup3\n        /* \"#utility.yul\":13716:13728   */\n      and\n        /* \"#utility.yul\":13747:13765   */\n      dup1\n        /* \"#utility.yul\":13737:13818   */\n      tag_426\n      jumpi\n        /* \"#utility.yul\":13803:13807   */\n      0x7f\n        /* \"#utility.yul\":13795:13801   */\n      dup3\n        /* \"#utility.yul\":13791:13808   */\n      and\n        /* \"#utility.yul\":13781:13808   */\n      swap2\n      pop\n        /* \"#utility.yul\":13737:13818   */\n    tag_426:\n        /* \"#utility.yul\":13865:13867   */\n      0x20\n        /* \"#utility.yul\":13857:13863   */\n      dup3\n        /* \"#utility.yul\":13854:13868   */\n      lt\n        /* \"#utility.yul\":13834:13852   */\n      dup2\n        /* \"#utility.yul\":13831:13869   */\n      eq\n        /* \"#utility.yul\":13828:13912   */\n      iszero\n      tag_427\n      jumpi\n        /* \"#utility.yul\":13884:13902   */\n      tag_428\n      tag_260\n      jump\t// in\n    tag_428:\n        /* \"#utility.yul\":13828:13912   */\n    tag_427:\n        /* \"#utility.yul\":13649:13918   */\n      pop\n        /* \"#utility.yul\":13598:13918   */\n      swap2\n      swap1\n      pop\n      jump\t// out\n        /* \"#utility.yul\":13924:14272   */\n    tag_110:\n        /* \"#utility.yul\":13964:13971   */\n      0x00\n        /* \"#utility.yul\":13987:14007   */\n      tag_430\n        /* \"#utility.yul\":14005:14006   */\n      dup3\n        /* \"#utility.yul\":13987:14007   */\n      tag_228\n      jump\t// in\n    tag_430:\n        /* \"#utility.yul\":13982:14007   */\n      swap2\n      pop\n        /* \"#utility.yul\":14021:14041   */\n      tag_431\n        /* \"#utility.yul\":14039:14040   */\n      dup4\n        /* \"#utility.yul\":14021:14041   */\n      tag_228\n      jump\t// in\n    tag_431:\n        /* \"#utility.yul\":14016:14041   */\n      swap3\n      pop\n        /* \"#utility.yul\":14209:14210   */\n      dup2\n        /* \"#utility.yul\":14141:14207   */\n      0xffffffffffffffffffffffffffffffffffffffffffffffffffffffffffffffff\n        /* \"#utility.yul\":14137:14211   */\n      div\n        /* \"#utility.yul\":14134:14135   */\n      dup4\n        /* \"#utility.yul\":14131:14212   */\n      gt\n        /* \"#utility.yul\":14126:14127   */\n      dup3\n        /* \"#utility.yul\":14119:14128   */\n      iszero\n        /* \"#utility.yul\":14112:14129   */\n      iszero\n        /* \"#utility.yul\":14108:14213   */\n      and\n        /* \"#utility.yul\":14105:14236   */\n      iszero\n      tag_432\n      jumpi\n        /* \"#utility.yul\":14216:14234   */\n      tag_433\n      tag_257\n      jump\t// in\n    tag_433:\n        /* \"#utility.yul\":14105:14236   */\n    tag_432:\n        /* \"#utility.yul\":14264:14265   */\n      dup3\n        /* \"#utility.yul\":14261:14262   */\n      dup3\n        /* \"#utility.yul\":14257:14266   */\n      mul\n        /* \"#utility.yul\":14246:14266   */\n      swap1\n      pop\n        /* \"#utility.yul\":13924:14272   */\n      swap3\n      swap2\n      pop\n      pop\n      jump\t// out\n        /* \"#utility.yul\":14278:14441   */\n    tag_261:\n        /* \"#utility.yul\":14418:14433   */\n      0x62616c616e6365206572726f7200000000000000000000000000000000000000\n        /* \"#utility.yul\":14414:14415   */\n      0x00\n        /* \"#utility.yul\":14406:14412   */\n      dup3\n        /* \"#utility.yul\":14402:14416   */\n      add\n        /* \"#utility.yul\":14395:14434   */\n      mstore\n        /* \"#utility.yul\":14278:14441   */\n      pop\n      jump\t// out\n        /* \"#utility.yul\":14447:14813   */\n    tag_262:\n        /* \"#utility.yul\":14589:14592   */\n      0x00\n        /* \"#utility.yul\":14610:14677   */\n      tag_436\n        /* \"#utility.yul\":14674:14676   */\n      0x0d\n        /* \"#utility.yul\":14669:14672   */\n      dup4\n        /* \"#utility.yul\":14610:14677   */\n      tag_221\n      jump\t// in\n    tag_436:\n        /* \"#utility.yul\":14603:14677   */\n      swap2\n      pop\n        /* \"#utility.yul\":14686:14779   */\n      tag_437\n        /* \"#utility.yul\":14775:14778   */\n      dup3\n        /* \"#utility.yul\":14686:14779   */\n      tag_261\n      jump\t// in\n    tag_437:\n        /* \"#utility.yul\":14804:14806   */\n      0x20\n        /* \"#utility.yul\":14799:14802   */\n      dup3\n        /* \"#utility.yul\":14795:14807   */\n      add\n        /* \"#utility.yul\":14788:14807   */\n      swap1\n      pop\n        /* \"#utility.yul\":14447:14813   */\n      swap2\n      swap1\n      pop\n      jump\t// out\n        /* \"#utility.yul\":14819:15238   */\n    tag_113:\n        /* \"#utility.yul\":14985:14989   */\n      0x00\n        /* \"#utility.yul\":15023:15025   */\n      0x20\n        /* \"#utility.yul\":15012:15021   */\n      dup3\n        /* \"#utility.yul\":15008:15026   */\n      add\n        /* \"#utility.yul\":15000:15026   */\n      swap1\n      pop\n        /* \"#utility.yul\":15072:15081   */\n      dup2\n        /* \"#utility.yul\":15066:15070   */\n      dup2\n        /* \"#utility.yul\":15062:15082   */\n      sub\n        /* \"#utility.yul\":15058:15059   */\n      0x00\n        /* \"#utility.yul\":15047:15056   */\n      dup4\n        /* \"#utility.yul\":15043:15060   */\n      add\n        /* \"#utility.yul\":15036:15083   */\n      mstore\n        /* \"#utility.yul\":15100:15231   */\n      tag_439\n        /* \"#utility.yul\":15226:15230   */\n      dup2\n        /* \"#utility.yul\":15100:15231   */\n      tag_262\n      jump\t// in\n    tag_439:\n        /* \"#utility.yul\":15092:15231   */\n      swap1\n      pop\n        /* \"#utility.yul\":14819:15238   */\n      swap2\n      swap1\n      pop\n      jump\t// out\n        /* \"#utility.yul\":15244:15400   */\n    tag_263:\n        /* \"#utility.yul\":15384:15392   */\n      0x6b203c3d206a0000000000000000000000000000000000000000000000000000\n        /* \"#utility.yul\":15380:15381   */\n      0x00\n        /* \"#utility.yul\":15372:15378   */\n      dup3\n        /* \"#utility.yul\":15368:15382   */\n      add\n        /* \"#utility.yul\":15361:15393   */\n      mstore\n        /* \"#utility.yul\":15244:15400   */\n      pop\n      jump\t// out\n        /* \"#utility.yul\":15406:15771   */\n    tag_264:\n        /* \"#utility.yul\":15548:15551   */\n      0x00\n        /* \"#utility.yul\":15569:15635   */\n      tag_442\n        /* \"#utility.yul\":15633:15634   */\n      0x06\n        /* \"#utility.yul\":15628:15631   */\n      dup4\n        /* \"#utility.yul\":15569:15635   */\n      tag_221\n      jump\t// in\n    tag_442:\n        /* \"#utility.yul\":15562:15635   */\n      swap2\n      pop\n        /* \"#utility.yul\":15644:15737   */\n      tag_443\n        /* \"#utility.yul\":15733:15736   */\n      dup3\n        /* \"#utility.yul\":15644:15737   */\n      tag_263\n      jump\t// in\n    tag_443:\n        /* \"#utility.yul\":15762:15764   */\n      0x20\n        /* \"#utility.yul\":15757:15760   */\n      dup3\n        /* \"#utility.yul\":15753:15765   */\n      add\n        /* \"#utility.yul\":15746:15765   */\n      swap1\n      pop\n        /* \"#utility.yul\":15406:15771   */\n      swap2\n      swap1\n      pop\n      jump\t// out\n        /* \"#utility.yul\":15777:16196   */\n    tag_120:\n        /* \"#utility.yul\":15943:15947   */\n      0x00\n        /* \"#utility.yul\":15981:15983   */\n      0x20\n        /* \"#utility.yul\":15970:15979   */\n      dup3\n        /* \"#utility.yul\":15966:15984   */\n      add\n        /* \"#utility.yul\":15958:15984   */\n      swap1\n      pop\n        /* \"#utility.yul\":16030:16039   */\n      dup2\n        /* \"#utility.yul\":16024:16028   */\n      dup2\n        /* \"#utility.yul\":16020:16040   */\n      sub\n        /* \"#utility.yul\":16016:16017   */\n      0x00\n        /* \"#utility.yul\":16005:16014   */\n      dup4\n        /* \"#utility.yul\":16001:16018   */\n      add\n        /* \"#utility.yul\":15994:16041   */\n      mstore\n        /* \"#utility.yul\":16058:16189   */\n      tag_445\n        /* \"#utility.yul\":16184:16188   */\n      dup2\n        /* \"#utility.yul\":16058:16189   */\n      tag_264\n      jump\t// in\n    tag_445:\n        /* \"#utility.yul\":16050:16189   */\n      swap1\n      pop\n        /* \"#utility.yul\":15777:16196   */\n      swap2\n      swap1\n      pop\n      jump\t// out\n        /* \"#utility.yul\":16202:16300   */\n    tag_265:\n        /* \"#utility.yul\":16253:16259   */\n      0x00\n        /* \"#utility.yul\":16287:16292   */\n      dup2\n        /* \"#utility.yul\":16281:16293   */\n      mload\n        /* \"#utility.yul\":16271:16293   */\n      swap1\n      pop\n        /* \"#utility.yul\":16202:16300   */\n      swap2\n      swap1\n      pop\n      jump\t// out\n        /* \"#utility.yul\":16306:16422   */\n    tag_266:\n        /* \"#utility.yul\":16357:16361   */\n      0x00\n        /* \"#utility.yul\":16380:16383   */\n      dup2\n        /* \"#utility.yul\":16372:16383   */\n      swap1\n      pop\n        /* \"#utility.yul\":16410:16414   */\n      0x20\n        /* \"#utility.yul\":16405:16408   */\n      dup3\n        /* \"#utility.yul\":16401:16415   */\n      add\n        /* \"#utility.yul\":16393:16415   */\n      swap1\n      pop\n        /* \"#utility.yul\":16306:16422   */\n      swap2\n      swap1\n      pop\n      jump\t// out\n        /* \"#utility.yul\":16428:16582   */\n    tag_267:\n        /* \"#utility.yul\":16471:16482   */\n      0x00\n        /* \"#utility.yul\":16507:16536   */\n      tag_449\n        /* \"#utility.yul\":16531:16534   */\n      dup3\n        /* \"#utility.yul\":16525:16535   */\n      mload\n        /* \"#utility.yul\":16507:16536   */\n      tag_230\n      jump\t// in\n    tag_449:\n        /* \"#utility.yul\":16570:16575   */\n      dup1\n        /* \"#utility.yul\":16546:16575   */\n      swap2\n      pop\n        /* \"#utility.yul\":16483:16582   */\n      pop\n        /* \"#utility.yul\":16428:16582   */\n      swap2\n      swap1\n      pop\n      jump\t// out\n        /* \"#utility.yul\":16588:16695   */\n    tag_268:\n        /* \"#utility.yul\":16632:16640   */\n      0x00\n        /* \"#utility.yul\":16682:16687   */\n      dup3\n        /* \"#utility.yul\":16676:16680   */\n      dup3\n        /* \"#utility.yul\":16672:16688   */\n      shl\n        /* \"#utility.yul\":16651:16688   */\n      swap1\n      pop\n        /* \"#utility.yul\":16588:16695   */\n      swap3\n      swap2\n      pop\n      pop\n      jump\t// out\n        /* \"#utility.yul\":16701:17295   */\n    tag_122:\n        /* \"#utility.yul\":16785:16790   */\n      0x00\n        /* \"#utility.yul\":16816:16854   */\n      tag_452\n        /* \"#utility.yul\":16848:16853   */\n      dup3\n        /* \"#utility.yul\":16816:16854   */\n      tag_265\n      jump\t// in\n    tag_452:\n        /* \"#utility.yul\":16879:16884   */\n      dup3\n        /* \"#utility.yul\":16906:16946   */\n      tag_453\n        /* \"#utility.yul\":16940:16945   */\n      dup5\n        /* \"#utility.yul\":16906:16946   */\n      tag_266\n      jump\t// in\n    tag_453:\n        /* \"#utility.yul\":16894:16946   */\n      swap1\n      pop\n        /* \"#utility.yul\":16965:17000   */\n      tag_454\n        /* \"#utility.yul\":16991:16999   */\n      dup2\n        /* \"#utility.yul\":16965:17000   */\n      tag_267\n      jump\t// in\n    tag_454:\n        /* \"#utility.yul\":16956:17000   */\n      swap3\n      pop\n        /* \"#utility.yul\":17024:17026   */\n      0x20\n        /* \"#utility.yul\":17016:17022   */\n      dup3\n        /* \"#utility.yul\":17013:17027   */\n      lt\n        /* \"#utility.yul\":17010:17288   */\n      iszero\n      tag_455\n      jumpi\n        /* \"#utility.yul\":17095:17264   */\n      tag_456\n        /* \"#utility.yul\":17180:17246   */\n      0xffffffffffffffffffffffffffffffffffffffffffffffffffffffffffffffff\n        /* \"#utility.yul\":17150:17156   */\n      dup4\n        /* \"#utility.yul\":17146:17148   */\n      0x20\n        /* \"#utility.yul\":17142:17157   */\n      sub\n        /* \"#utility.yul\":17139:17140   */\n      0x08\n        /* \"#utility.yul\":17135:17158   */\n      mul\n        /* \"#utility.yul\":17095:17264   */\n      tag_268\n      jump\t// in\n    tag_456:\n        /* \"#utility.yul\":17072:17077   */\n      dup4\n        /* \"#utility.yul\":17051:17278   */\n      and\n        /* \"#utility.yul\":17042:17278   */\n      swap3\n      pop\n        /* \"#utility.yul\":17010:17288   */\n    tag_455:\n        /* \"#utility.yul\":16791:17295   */\n      pop\n      pop\n        /* \"#utility.yul\":16701:17295   */\n      swap2\n      swap1\n      pop\n      jump\t// out\n        /* \"#utility.yul\":17301:17492   */\n    tag_125:\n        /* \"#utility.yul\":17341:17345   */\n      0x00\n        /* \"#utility.yul\":17361:17381   */\n      tag_458\n        /* \"#utility.yul\":17379:17380   */\n      dup3\n        /* \"#utility.yul\":17361:17381   */\n      tag_228\n      jump\t// in\n    tag_458:\n        /* \"#utility.yul\":17356:17381   */\n      swap2\n      pop\n        /* \"#utility.yul\":17395:17415   */\n      tag_459\n        /* \"#utility.yul\":17413:17414   */\n      dup4\n        /* \"#utility.yul\":17395:17415   */\n      tag_228\n      jump\t// in\n    tag_459:\n        /* \"#utility.yul\":17390:17415   */\n      swap3\n      pop\n        /* \"#utility.yul\":17434:17435   */\n      dup3\n        /* \"#utility.yul\":17431:17432   */\n      dup3\n        /* \"#utility.yul\":17428:17436   */\n      lt\n        /* \"#utility.yul\":17425:17459   */\n      iszero\n      tag_460\n      jumpi\n        /* \"#utility.yul\":17439:17457   */\n      tag_461\n      tag_257\n      jump\t// in\n    tag_461:\n        /* \"#utility.yul\":17425:17459   */\n    tag_460:\n        /* \"#utility.yul\":17484:17485   */\n      dup3\n        /* \"#utility.yul\":17481:17482   */\n      dup3\n        /* \"#utility.yul\":17477:17486   */\n      sub\n        /* \"#utility.yul\":17469:17486   */\n      swap1\n      pop\n        /* \"#utility.yul\":17301:17492   */\n      swap3\n      swap2\n      pop\n      pop\n      jump\t// out\n        /* \"#utility.yul\":17498:17577   */\n    tag_269:\n        /* \"#utility.yul\":17537:17544   */\n      0x00\n        /* \"#utility.yul\":17566:17571   */\n      dup2\n        /* \"#utility.yul\":17555:17571   */\n      swap1\n      pop\n        /* \"#utility.yul\":17498:17577   */\n      swap2\n      swap1\n      pop\n      jump\t// out\n        /* \"#utility.yul\":17583:17740   */\n    tag_270:\n        /* \"#utility.yul\":17688:17733   */\n      tag_464\n        /* \"#utility.yul\":17708:17732   */\n      tag_465\n        /* \"#utility.yul\":17726:17731   */\n      dup3\n        /* \"#utility.yul\":17708:17732   */\n      tag_230\n      jump\t// in\n    tag_465:\n        /* \"#utility.yul\":17688:17733   */\n      tag_269\n      jump\t// in\n    tag_464:\n        /* \"#utility.yul\":17683:17686   */\n      dup3\n        /* \"#utility.yul\":17676:17734   */\n      mstore\n        /* \"#utility.yul\":17583:17740   */\n      pop\n      pop\n      jump\t// out\n        /* \"#utility.yul\":17746:18002   */\n    tag_130:\n        /* \"#utility.yul\":17858:17861   */\n      0x00\n        /* \"#utility.yul\":17873:17948   */\n      tag_467\n        /* \"#utility.yul\":17944:17947   */\n      dup3\n        /* \"#utility.yul\":17935:17941   */\n      dup5\n        /* \"#utility.yul\":17873:17948   */\n      tag_270\n      jump\t// in\n    tag_467:\n        /* \"#utility.yul\":17973:17975   */\n      0x20\n        /* \"#utility.yul\":17968:17971   */\n      dup3\n        /* \"#utility.yul\":17964:17976   */\n      add\n        /* \"#utility.yul\":17957:17976   */\n      swap2\n      pop\n        /* \"#utility.yul\":17993:17996   */\n      dup2\n        /* \"#utility.yul\":17986:17996   */\n      swap1\n      pop\n        /* \"#utility.yul\":17746:18002   */\n      swap3\n      swap2\n      pop\n      pop\n      jump\t// out\n        /* \"#utility.yul\":18008:18155   */\n    tag_271:\n        /* \"#utility.yul\":18109:18120   */\n      0x00\n        /* \"#utility.yul\":18146:18149   */\n      dup2\n        /* \"#utility.yul\":18131:18149   */\n      swap1\n      pop\n        /* \"#utility.yul\":18008:18155   */\n      swap3\n      swap2\n      pop\n      pop\n      jump\t// out\n        /* \"#utility.yul\":18161:18534   */\n    tag_272:\n        /* \"#utility.yul\":18265:18268   */\n      0x00\n        /* \"#utility.yul\":18293:18331   */\n      tag_470\n        /* \"#utility.yul\":18325:18330   */\n      dup3\n        /* \"#utility.yul\":18293:18331   */\n      tag_265\n      jump\t// in\n    tag_470:\n        /* \"#utility.yul\":18347:18435   */\n      tag_471\n        /* \"#utility.yul\":18428:18434   */\n      dup2\n        /* \"#utility.yul\":18423:18426   */\n      dup6\n        /* \"#utility.yul\":18347:18435   */\n      tag_271\n      jump\t// in\n    tag_471:\n        /* \"#utility.yul\":18340:18435   */\n      swap4\n      pop\n        /* \"#utility.yul\":18444:18496   */\n      tag_472\n        /* \"#utility.yul\":18489:18495   */\n      dup2\n        /* \"#utility.yul\":18484:18487   */\n      dup6\n        /* \"#utility.yul\":18477:18481   */\n      0x20\n        /* \"#utility.yul\":18470:18475   */\n      dup7\n        /* \"#utility.yul\":18466:18482   */\n      add\n        /* \"#utility.yul\":18444:18496   */\n      tag_222\n      jump\t// in\n    tag_472:\n        /* \"#utility.yul\":18521:18527   */\n      dup1\n        /* \"#utility.yul\":18516:18519   */\n      dup5\n        /* \"#utility.yul\":18512:18528   */\n      add\n        /* \"#utility.yul\":18505:18528   */\n      swap2\n      pop\n        /* \"#utility.yul\":18269:18534   */\n      pop\n        /* \"#utility.yul\":18161:18534   */\n      swap3\n      swap2\n      pop\n      pop\n      jump\t// out\n        /* \"#utility.yul\":18540:18811   */\n    tag_132:\n        /* \"#utility.yul\":18670:18673   */\n      0x00\n        /* \"#utility.yul\":18692:18785   */\n      tag_474\n        /* \"#utility.yul\":18781:18784   */\n      dup3\n        /* \"#utility.yul\":18772:18778   */\n      dup5\n        /* \"#utility.yul\":18692:18785   */\n      tag_272\n      jump\t// in\n    tag_474:\n        /* \"#utility.yul\":18685:18785   */\n      swap2\n      pop\n        /* \"#utility.yul\":18802:18805   */\n      dup2\n        /* \"#utility.yul\":18795:18805   */\n      swap1\n      pop\n        /* \"#utility.yul\":18540:18811   */\n      swap3\n      swap2\n      pop\n      pop\n      jump\t// out\n        /* \"#utility.yul\":18817:18960   */\n    tag_273:\n        /* \"#utility.yul\":18874:18879   */\n      0x00\n        /* \"#utility.yul\":18905:18911   */\n      dup2\n        /* \"#utility.yul\":18899:18912   */\n      mload\n        /* \"#utility.yul\":18890:18912   */\n      swap1\n      pop\n        /* \"#utility.yul\":18921:18954   */\n      tag_476\n        /* \"#utility.yul\":18948:18953   */\n      dup2\n        /* \"#utility.yul\":18921:18954   */\n      tag_250\n      jump\t// in\n    tag_476:\n        /* \"#utility.yul\":18817:18960   */\n      swap3\n      swap2\n      pop\n      pop\n      jump\t// out\n        /* \"#utility.yul\":18966:19317   */\n    tag_136:\n        /* \"#utility.yul\":19036:19042   */\n      0x00\n        /* \"#utility.yul\":19085:19087   */\n      0x20\n        /* \"#utility.yul\":19073:19082   */\n      dup3\n        /* \"#utility.yul\":19064:19071   */\n      dup5\n        /* \"#utility.yul\":19060:19083   */\n      sub\n        /* \"#utility.yul\":19056:19088   */\n      slt\n        /* \"#utility.yul\":19053:19172   */\n      iszero\n      tag_478\n      jumpi\n        /* \"#utility.yul\":19091:19170   */\n      tag_479\n      tag_235\n      jump\t// in\n    tag_479:\n        /* \"#utility.yul\":19053:19172   */\n    tag_478:\n        /* \"#utility.yul\":19211:19212   */\n      0x00\n        /* \"#utility.yul\":19236:19300   */\n      tag_480\n        /* \"#utility.yul\":19292:19299   */\n      dup5\n        /* \"#utility.yul\":19283:19289   */\n      dup3\n        /* \"#utility.yul\":19272:19281   */\n      dup6\n        /* \"#utility.yul\":19268:19290   */\n      add\n        /* \"#utility.yul\":19236:19300   */\n      tag_273\n      jump\t// in\n    tag_480:\n        /* \"#utility.yul\":19226:19300   */\n      swap2\n      pop\n        /* \"#utility.yul\":19182:19310   */\n      pop\n        /* \"#utility.yul\":18966:19317   */\n      swap3\n      swap2\n      pop\n      pop\n      jump\t// out\n        /* \"#utility.yul\":19323:19494   */\n    tag_143:\n        /* \"#utility.yul\":19362:19365   */\n      0x00\n        /* \"#utility.yul\":19385:19409   */\n      tag_482\n        /* \"#utility.yul\":19403:19408   */\n      dup3\n        /* \"#utility.yul\":19385:19409   */\n      tag_228\n      jump\t// in\n    tag_482:\n        /* \"#utility.yul\":19376:19409   */\n      swap2\n      pop\n        /* \"#utility.yul\":19431:19435   */\n      0x00\n        /* \"#utility.yul\":19424:19429   */\n      dup3\n        /* \"#utility.yul\":19421:19436   */\n      eq\n        /* \"#utility.yul\":19418:19459   */\n      iszero\n      tag_483\n      jumpi\n        /* \"#utility.yul\":19439:19457   */\n      tag_484\n      tag_257\n      jump\t// in\n    tag_484:\n        /* \"#utility.yul\":19418:19459   */\n    tag_483:\n        /* \"#utility.yul\":19486:19487   */\n      0x01\n        /* \"#utility.yul\":19479:19484   */\n      dup3\n        /* \"#utility.yul\":19475:19488   */\n      sub\n        /* \"#utility.yul\":19468:19488   */\n      swap1\n      pop\n        /* \"#utility.yul\":19323:19494   */\n      swap2\n      swap1\n      pop\n      jump\t// out\n        /* \"#utility.yul\":19500:19667   */\n    tag_274:\n        /* \"#utility.yul\":19640:19659   */\n      0x575f6b6d20697320696e636f7272656374000000000000000000000000000000\n        /* \"#utility.yul\":19636:19637   */\n      0x00\n        /* \"#utility.yul\":19628:19634   */\n      dup3\n        /* \"#utility.yul\":19624:19638   */\n      add\n        /* \"#utility.yul\":19617:19660   */\n      mstore\n        /* \"#utility.yul\":19500:19667   */\n      pop\n      jump\t// out\n        /* \"#utility.yul\":19673:20039   */\n    tag_275:\n        /* \"#utility.yul\":19815:19818   */\n      0x00\n        /* \"#utility.yul\":19836:19903   */\n      tag_487\n        /* \"#utility.yul\":19900:19902   */\n      0x11\n        /* \"#utility.yul\":19895:19898   */\n      dup4\n        /* \"#utility.yul\":19836:19903   */\n      tag_221\n      jump\t// in\n    tag_487:\n        /* \"#utility.yul\":19829:19903   */\n      swap2\n      pop\n        /* \"#utility.yul\":19912:20005   */\n      tag_488\n        /* \"#utility.yul\":20001:20004   */\n      dup3\n        /* \"#utility.yul\":19912:20005   */\n      tag_274\n      jump\t// in\n    tag_488:\n        /* \"#utility.yul\":20030:20032   */\n      0x20\n        /* \"#utility.yul\":20025:20028   */\n      dup3\n        /* \"#utility.yul\":20021:20033   */\n      add\n        /* \"#utility.yul\":20014:20033   */\n      swap1\n      pop\n        /* \"#utility.yul\":19673:20039   */\n      swap2\n      swap1\n      pop\n      jump\t// out\n        /* \"#utility.yul\":20045:20464   */\n    tag_146:\n        /* \"#utility.yul\":20211:20215   */\n      0x00\n        /* \"#utility.yul\":20249:20251   */\n      0x20\n        /* \"#utility.yul\":20238:20247   */\n      dup3\n        /* \"#utility.yul\":20234:20252   */\n      add\n        /* \"#utility.yul\":20226:20252   */\n      swap1\n      pop\n        /* \"#utility.yul\":20298:20307   */\n      dup2\n        /* \"#utility.yul\":20292:20296   */\n      dup2\n        /* \"#utility.yul\":20288:20308   */\n      sub\n        /* \"#utility.yul\":20284:20285   */\n      0x00\n        /* \"#utility.yul\":20273:20282   */\n      dup4\n        /* \"#utility.yul\":20269:20286   */\n      add\n        /* \"#utility.yul\":20262:20309   */\n      mstore\n        /* \"#utility.yul\":20326:20457   */\n      tag_490\n        /* \"#utility.yul\":20452:20456   */\n      dup2\n        /* \"#utility.yul\":20326:20457   */\n      tag_275\n      jump\t// in\n    tag_490:\n        /* \"#utility.yul\":20318:20457   */\n      swap1\n      pop\n        /* \"#utility.yul\":20045:20464   */\n      swap2\n      swap1\n      pop\n      jump\t// out\n        /* \"#utility.yul\":20470:20637   */\n    tag_276:\n        /* \"#utility.yul\":20610:20629   */\n      0x575f6b6320697320696e636f7272656374000000000000000000000000000000\n        /* \"#utility.yul\":20606:20607   */\n      0x00\n        /* \"#utility.yul\":20598:20604   */\n      dup3\n        /* \"#utility.yul\":20594:20608   */\n      add\n        /* \"#utility.yul\":20587:20630   */\n      mstore\n        /* \"#utility.yul\":20470:20637   */\n      pop\n      jump\t// out\n        /* \"#utility.yul\":20643:21009   */\n    tag_277:\n        /* \"#utility.yul\":20785:20788   */\n      0x00\n        /* \"#utility.yul\":20806:20873   */\n      tag_493\n        /* \"#utility.yul\":20870:20872   */\n      0x11\n        /* \"#utility.yul\":20865:20868   */\n      dup4\n        /* \"#utility.yul\":20806:20873   */\n      tag_221\n      jump\t// in\n    tag_493:\n        /* \"#utility.yul\":20799:20873   */\n      swap2\n      pop\n        /* \"#utility.yul\":20882:20975   */\n      tag_494\n        /* \"#utility.yul\":20971:20974   */\n      dup3\n        /* \"#utility.yul\":20882:20975   */\n      tag_276\n      jump\t// in\n    tag_494:\n        /* \"#utility.yul\":21000:21002   */\n      0x20\n        /* \"#utility.yul\":20995:20998   */\n      dup3\n        /* \"#utility.yul\":20991:21003   */\n      add\n        /* \"#utility.yul\":20984:21003   */\n      swap1\n      pop\n        /* \"#utility.yul\":20643:21009   */\n      swap2\n      swap1\n      pop\n      jump\t// out\n        /* \"#utility.yul\":21015:21434   */\n    tag_149:\n        /* \"#utility.yul\":21181:21185   */\n      0x00\n        /* \"#utility.yul\":21219:21221   */\n      0x20\n        /* \"#utility.yul\":21208:21217   */\n      dup3\n        /* \"#utility.yul\":21204:21222   */\n      add\n        /* \"#utility.yul\":21196:21222   */\n      swap1\n      pop\n        /* \"#utility.yul\":21268:21277   */\n      dup2\n        /* \"#utility.yul\":21262:21266   */\n      dup2\n        /* \"#utility.yul\":21258:21278   */\n      sub\n        /* \"#utility.yul\":21254:21255   */\n      0x00\n        /* \"#utility.yul\":21243:21252   */\n      dup4\n        /* \"#utility.yul\":21239:21256   */\n      add\n        /* \"#utility.yul\":21232:21279   */\n      mstore\n        /* \"#utility.yul\":21296:21427   */\n      tag_496\n        /* \"#utility.yul\":21422:21426   */\n      dup2\n        /* \"#utility.yul\":21296:21427   */\n      tag_277\n      jump\t// in\n    tag_496:\n        /* \"#utility.yul\":21288:21427   */\n      swap1\n      pop\n        /* \"#utility.yul\":21015:21434   */\n      swap2\n      swap1\n      pop\n      jump\t// out\n        /* \"#utility.yul\":21440:21620   */\n    tag_278:\n        /* \"#utility.yul\":21488:21565   */\n      0x4e487b7100000000000000000000000000000000000000000000000000000000\n        /* \"#utility.yul\":21485:21486   */\n      0x00\n        /* \"#utility.yul\":21478:21566   */\n      mstore\n        /* \"#utility.yul\":21585:21589   */\n      0x12\n        /* \"#utility.yul\":21582:21583   */\n      0x04\n        /* \"#utility.yul\":21575:21590   */\n      mstore\n        /* \"#utility.yul\":21609:21613   */\n      0x24\n        /* \"#utility.yul\":21606:21607   */\n      0x00\n        /* \"#utility.yul\":21599:21614   */\n      revert\n        /* \"#utility.yul\":21626:21802   */\n    tag_151:\n        /* \"#utility.yul\":21658:21659   */\n      0x00\n        /* \"#utility.yul\":21675:21695   */\n      tag_499\n        /* \"#utility.yul\":21693:21694   */\n      dup3\n        /* \"#utility.yul\":21675:21695   */\n      tag_228\n      jump\t// in\n    tag_499:\n        /* \"#utility.yul\":21670:21695   */\n      swap2\n      pop\n        /* \"#utility.yul\":21709:21729   */\n      tag_500\n        /* \"#utility.yul\":21727:21728   */\n      dup4\n        /* \"#utility.yul\":21709:21729   */\n      tag_228\n      jump\t// in\n    tag_500:\n        /* \"#utility.yul\":21704:21729   */\n      swap3\n      pop\n        /* \"#utility.yul\":21748:21749   */\n      dup3\n        /* \"#utility.yul\":21738:21773   */\n      tag_501\n      jumpi\n        /* \"#utility.yul\":21753:21771   */\n      tag_502\n      tag_278\n      jump\t// in\n    tag_502:\n        /* \"#utility.yul\":21738:21773   */\n    tag_501:\n        /* \"#utility.yul\":21794:21795   */\n      dup3\n        /* \"#utility.yul\":21791:21792   */\n      dup3\n        /* \"#utility.yul\":21787:21796   */\n      mod\n        /* \"#utility.yul\":21782:21796   */\n      swap1\n      pop\n        /* \"#utility.yul\":21626:21802   */\n      swap3\n      swap2\n      pop\n      pop\n      jump\t// out\n        /* \"#utility.yul\":21808:21993   */\n    tag_155:\n        /* \"#utility.yul\":21848:21849   */\n      0x00\n        /* \"#utility.yul\":21865:21885   */\n      tag_504\n        /* \"#utility.yul\":21883:21884   */\n      dup3\n        /* \"#utility.yul\":21865:21885   */\n      tag_228\n      jump\t// in\n    tag_504:\n        /* \"#utility.yul\":21860:21885   */\n      swap2\n      pop\n        /* \"#utility.yul\":21899:21919   */\n      tag_505\n        /* \"#utility.yul\":21917:21918   */\n      dup4\n        /* \"#utility.yul\":21899:21919   */\n      tag_228\n      jump\t// in\n    tag_505:\n        /* \"#utility.yul\":21894:21919   */\n      swap3\n      pop\n        /* \"#utility.yul\":21938:21939   */\n      dup3\n        /* \"#utility.yul\":21928:21963   */\n      tag_506\n      jumpi\n        /* \"#utility.yul\":21943:21961   */\n      tag_507\n      tag_278\n      jump\t// in\n    tag_507:\n        /* \"#utility.yul\":21928:21963   */\n    tag_506:\n        /* \"#utility.yul\":21985:21986   */\n      dup3\n        /* \"#utility.yul\":21982:21983   */\n      dup3\n        /* \"#utility.yul\":21978:21987   */\n      div\n        /* \"#utility.yul\":21973:21987   */\n      swap1\n      pop\n        /* \"#utility.yul\":21808:21993   */\n      swap3\n      swap2\n      pop\n      pop\n      jump\t// out\n        /* \"#utility.yul\":21999:22113   */\n    tag_279:\n      pop\n      jump\t// out\n        /* \"#utility.yul\":22119:22517   */\n    tag_280:\n        /* \"#utility.yul\":22278:22281   */\n      0x00\n        /* \"#utility.yul\":22299:22382   */\n      tag_510\n        /* \"#utility.yul\":22380:22381   */\n      0x00\n        /* \"#utility.yul\":22375:22378   */\n      dup4\n        /* \"#utility.yul\":22299:22382   */\n      tag_271\n      jump\t// in\n    tag_510:\n        /* \"#utility.yul\":22292:22382   */\n      swap2\n      pop\n        /* \"#utility.yul\":22391:22484   */\n      tag_511\n        /* \"#utility.yul\":22480:22483   */\n      dup3\n        /* \"#utility.yul\":22391:22484   */\n      tag_279\n      jump\t// in\n    tag_511:\n        /* \"#utility.yul\":22509:22510   */\n      0x00\n        /* \"#utility.yul\":22504:22507   */\n      dup3\n        /* \"#utility.yul\":22500:22511   */\n      add\n        /* \"#utility.yul\":22493:22511   */\n      swap1\n      pop\n        /* \"#utility.yul\":22119:22517   */\n      swap2\n      swap1\n      pop\n      jump\t// out\n        /* \"#utility.yul\":22523:22902   */\n    tag_184:\n        /* \"#utility.yul\":22707:22710   */\n      0x00\n        /* \"#utility.yul\":22729:22876   */\n      tag_513\n        /* \"#utility.yul\":22872:22875   */\n      dup3\n        /* \"#utility.yul\":22729:22876   */\n      tag_280\n      jump\t// in\n    tag_513:\n        /* \"#utility.yul\":22722:22876   */\n      swap2\n      pop\n        /* \"#utility.yul\":22893:22896   */\n      dup2\n        /* \"#utility.yul\":22886:22896   */\n      swap1\n      pop\n        /* \"#utility.yul\":22523:22902   */\n      swap2\n      swap1\n      pop\n      jump\t// out\n\n    auxdata: 0xa264697066735822122073bcf0d2647b2e9e7a5d0f4c46782a20eae6b8d4895fc7c2aea6d1a8d2aea2b364736f6c63430008090033\n}\n",
    "bytecode": {
      "linkReferences": {},
      "object": "608060405234801561001057600080fd5b506001600a60006101000a81548160ff021916908315150217905550611a128061003b6000396000f3fe6080604052600436106100ec5760003560e01c806388bf19301161008a578063c3da42b811610059578063c3da42b81461029e578063d8befbb6146102c9578063e8de68cc146102f2578063f493e8701461031b576100f3565b806388bf1930146102015780639c21a9b81461022c578063a6ab36f214610257578063b582ec5f14610273576100f3565b806334133df9116100c657806334133df9146101555780635e650318146101805780637c2efcba146101ab5780637f80069a146101d6576100f3565b80630482ff76146100f557806324763493146100ff5780632804b2c01461012a576100f3565b366100f357005b005b6100fd610346565b005b34801561010b57600080fd5b50610114610440565b6040516101219190610e01565b60405180910390f35b34801561013657600080fd5b5061013f6104ce565b60405161014c9190610e64565b60405180910390f35b34801561016157600080fd5b5061016a6104f4565b6040516101779190610e98565b60405180910390f35b34801561018c57600080fd5b506101956104fa565b6040516101a29190610ecc565b60405180910390f35b3480156101b757600080fd5b506101c0610500565b6040516101cd9190610e98565b60405180910390f35b3480156101e257600080fd5b506101eb610506565b6040516101f89190610f02565b60405180910390f35b34801561020d57600080fd5b50610216610519565b6040516102239190610ecc565b60405180910390f35b34801561023857600080fd5b5061024161051f565b60405161024e9190610e98565b60405180910390f35b610271600480360381019061026c9190610f89565b610525565b005b34801561027f57600080fd5b506102886105ef565b6040516102959190610e98565b60405180910390f35b3480156102aa57600080fd5b506102b36105f5565b6040516102c09190610e98565b60405180910390f35b3480156102d557600080fd5b506102f060048036038101906102eb9190611111565b6105fb565b005b3480156102fe57600080fd5b506103196004803603810190610314919061127d565b610b3a565b005b34801561032757600080fd5b50610330610cbf565b60405161033d9190610e98565b60405180910390f35b600160009054906101000a900473ffffffffffffffffffffffffffffffffffffffff1673ffffffffffffffffffffffffffffffffffffffff163373ffffffffffffffffffffffffffffffffffffffff16146103d6576040517f08c379a00000000000000000000000000000000000000000000000000000000081526004016103cd906113c1565b60405180910390fd5b426008546007546103e79190611410565b10610427576040517f08c379a000000000000000000000000000000000000000000000000000000000815260040161041e906114b2565b60405180910390fd5b3373ffffffffffffffffffffffffffffffffffffffff16ff5b6004805461044d90611501565b80601f016020809104026020016040519081016040528092919081815260200182805461047990611501565b80156104c65780601f1061049b576101008083540402835291602001916104c6565b820191906000526020600020905b8154815290600101906020018083116104a957829003601f168201915b505050505081565b600160009054906101000a900473ffffffffffffffffffffffffffffffffffffffff1681565b60095481565b60035481565b60065481565b600a60009054906101000a900460ff1681565b60025481565b60085481565b60001515600a60009054906101000a900460ff1615151461054557600080fd5b80600160006101000a81548173ffffffffffffffffffffffffffffffffffffffff021916908373ffffffffffffffffffffffffffffffffffffffff1602179055508260058190555081600681905550600034146105ea5781836105a89190611533565b34146105e9576040517f08c379a00000000000000000000000000000000000000000000000000000000081526004016105e0906115d9565b60405180910390fd5b5b505050565b60005481565b60055481565b60085460075461060b9190611410565b421061064c576040517f08c379a0000000000000000000000000000000000000000000000000000000008152600401610643906114b2565b60405180910390fd5b6000548211610690576040517f08c379a000000000000000000000000000000000000000000000000000000000815260040161068790611645565b60405180910390fd5b6000808561069d906116a2565b90506000856106ab906116a2565b905060008054866106bc9190611709565b90505b600081146107bc576002836040516020016106da919061175e565b6040516020818303038152906040526040516106f691906117b5565b602060405180830381855afa158015610713573d6000803e3d6000fd5b5050506040513d601f19601f8201168201806040525081019061073691906117e1565b925060028260405160200161074b919061175e565b60405160208183030381529060405260405161076791906117b5565b602060405180830381855afa158015610784573d6000803e3d6000fd5b5050506040513d601f19601f820116820180604052508101906107a791906117e1565b915080806107b49061180e565b9150506106bf565b8260025414610800576040517f08c379a00000000000000000000000000000000000000000000000000000000081526004016107f790611884565b60405180910390fd5b8160035414610844576040517f08c379a000000000000000000000000000000000000000000000000000000000815260040161083b906118f0565b60405180910390fd5b6000600287610853919061193f565b14156108a1576002600054876108699190611709565b6108739190611970565b93508560008190555087610886906116a2565b60028190555086610896906116a2565b600381905550610a2c565b60026001600054886108b39190611709565b6108bd9190611709565b6108c79190611970565b93506001866108d69190611709565b6000819055506000886108e8906116a2565b90506000886108f6906116a2565b905060008054896109079190611709565b90505b60008114610a0757600283604051602001610925919061175e565b60405160208183030381529060405260405161094191906117b5565b602060405180830381855afa15801561095e573d6000803e3d6000fd5b5050506040513d601f19601f8201168201806040525081019061098191906117e1565b9250600282604051602001610996919061175e565b6040516020818303038152906040526040516109b291906117b5565b602060405180830381855afa1580156109cf573d6000803e3d6000fd5b5050506040513d601f19601f820116820180604052508101906109f291906117e1565b915080806109ff9061180e565b91505061090a565b600189610a149190611709565b60008190555082600281905550816003819055505050505b600073ffffffffffffffffffffffffffffffffffffffff168573ffffffffffffffffffffffffffffffffffffffff1614610adb578473ffffffffffffffffffffffffffffffffffffffff1660065485610a859190611533565b604051610a91906119c7565b60006040518083038185875af1925050503d8060008114610ace576040519150601f19603f3d011682016040523d82523d6000602084013e610ad3565b606091505b505050610b30565b3373ffffffffffffffffffffffffffffffffffffffff166108fc60065486610b039190611533565b9081150290604051600060405180830381858888f19350505050158015610b2e573d6000803e3d6000fd5b505b5050505050505050565b600160009054906101000a900473ffffffffffffffffffffffffffffffffffffffff1673ffffffffffffffffffffffffffffffffffffffff163373ffffffffffffffffffffffffffffffffffffffff1614610bca576040517f08c379a0000000000000000000000000000000000000000000000000000000008152600401610bc1906113c1565b60405180910390fd5b8385610bd69190611533565b4714610be157600080fd5b6000600754148015610bf557506000600854145b8015610c0357506000600954145b8015610c1d575042600854600754610c1b9190611410565b105b80610c5d575042600854600754610c349190611410565b108015610c5c5750600954600854600754610c4f9190611410565b610c599190611410565b42105b5b610c6657600080fd5b6000808190555087600281905550866003819055508560049080519060200190610c91929190610cc5565b5084600581905550836006819055508260078190555081600881905550806009819055505050505050505050565b60075481565b828054610cd190611501565b90600052602060002090601f016020900481019282610cf35760008555610d3a565b82601f10610d0c57805160ff1916838001178555610d3a565b82800160010185558215610d3a579182015b82811115610d39578251825591602001919060010190610d1e565b5b509050610d479190610d4b565b5090565b5b80821115610d64576000816000905550600101610d4c565b5090565b600081519050919050565b600082825260208201905092915050565b60005b83811015610da2578082015181840152602081019050610d87565b83811115610db1576000848401525b50505050565b6000601f19601f8301169050919050565b6000610dd382610d68565b610ddd8185610d73565b9350610ded818560208601610d84565b610df681610db7565b840191505092915050565b60006020820190508181036000830152610e1b8184610dc8565b905092915050565b600073ffffffffffffffffffffffffffffffffffffffff82169050919050565b6000610e4e82610e23565b9050919050565b610e5e81610e43565b82525050565b6000602082019050610e796000830184610e55565b92915050565b6000819050919050565b610e9281610e7f565b82525050565b6000602082019050610ead6000830184610e89565b92915050565b6000819050919050565b610ec681610eb3565b82525050565b6000602082019050610ee16000830184610ebd565b92915050565b60008115159050919050565b610efc81610ee7565b82525050565b6000602082019050610f176000830184610ef3565b92915050565b6000604051905090565b600080fd5b600080fd5b610f3a81610e7f565b8114610f4557600080fd5b50565b600081359050610f5781610f31565b92915050565b610f6681610e43565b8114610f7157600080fd5b50565b600081359050610f8381610f5d565b92915050565b600080600060608486031215610fa257610fa1610f27565b5b6000610fb086828701610f48565b9350506020610fc186828701610f48565b9250506040610fd286828701610f74565b9150509250925092565b600080fd5b600080fd5b7f4e487b7100000000000000000000000000000000000000000000000000000000600052604160045260246000fd5b61101e82610db7565b810181811067ffffffffffffffff8211171561103d5761103c610fe6565b5b80604052505050565b6000611050610f1d565b905061105c8282611015565b919050565b600067ffffffffffffffff82111561107c5761107b610fe6565b5b61108582610db7565b9050602081019050919050565b82818337600083830152505050565b60006110b46110af84611061565b611046565b9050828152602081018484840111156110d0576110cf610fe1565b5b6110db848285611092565b509392505050565b600082601f8301126110f8576110f7610fdc565b5b81356111088482602086016110a1565b91505092915050565b6000806000806080858703121561112b5761112a610f27565b5b600085013567ffffffffffffffff81111561114957611148610f2c565b5b611155878288016110e3565b945050602085013567ffffffffffffffff81111561117657611175610f2c565b5b611182878288016110e3565b935050604061119387828801610f48565b92505060606111a487828801610f74565b91505092959194509250565b6111b981610eb3565b81146111c457600080fd5b50565b6000813590506111d6816111b0565b92915050565b600067ffffffffffffffff8211156111f7576111f6610fe6565b5b61120082610db7565b9050602081019050919050565b600061122061121b846111dc565b611046565b90508281526020810184848401111561123c5761123b610fe1565b5b611247848285611092565b509392505050565b600082601f83011261126457611263610fdc565b5b813561127484826020860161120d565b91505092915050565b600080600080600080600080610100898b03121561129e5761129d610f27565b5b60006112ac8b828c016111c7565b98505060206112bd8b828c016111c7565b975050604089013567ffffffffffffffff8111156112de576112dd610f2c565b5b6112ea8b828c0161124f565b96505060606112fb8b828c01610f48565b955050608061130c8b828c01610f48565b94505060a061131d8b828c01610f48565b93505060c061132e8b828c01610f48565b92505060e061133f8b828c01610f48565b9150509295985092959890939650565b7f4f6e6c7920637573746f6d6572206f66207468652064656c697665727920636160008201527f6e2073657420746865206368616e6e656c20706172616d732e00000000000000602082015250565b60006113ab603983610d73565b91506113b68261134f565b604082019050919050565b600060208201905081810360008301526113da8161139e565b9050919050565b7f4e487b7100000000000000000000000000000000000000000000000000000000600052601160045260246000fd5b600061141b82610e7f565b915061142683610e7f565b9250827fffffffffffffffffffffffffffffffffffffffffffffffffffffffffffffffff0382111561145b5761145a6113e1565b5b828201905092915050565b7f54696d65206572726f7200000000000000000000000000000000000000000000600082015250565b600061149c600a83610d73565b91506114a782611466565b602082019050919050565b600060208201905081810360008301526114cb8161148f565b9050919050565b7f4e487b7100000000000000000000000000000000000000000000000000000000600052602260045260246000fd5b6000600282049050600182168061151957607f821691505b6020821081141561152d5761152c6114d2565b5b50919050565b600061153e82610e7f565b915061154983610e7f565b9250817fffffffffffffffffffffffffffffffffffffffffffffffffffffffffffffffff0483118215151615611582576115816113e1565b5b828202905092915050565b7f62616c616e6365206572726f7200000000000000000000000000000000000000600082015250565b60006115c3600d83610d73565b91506115ce8261158d565b602082019050919050565b600060208201905081810360008301526115f2816115b6565b9050919050565b7f6b203c3d206a0000000000000000000000000000000000000000000000000000600082015250565b600061162f600683610d73565b915061163a826115f9565b602082019050919050565b6000602082019050818103600083015261165e81611622565b9050919050565b600081519050919050565b6000819050602082019050919050565b600061168c8251610eb3565b80915050919050565b600082821b905092915050565b60006116ad82611665565b826116b784611670565b90506116c281611680565b92506020821015611702576116fd7fffffffffffffffffffffffffffffffffffffffffffffffffffffffffffffffff83602003600802611695565b831692505b5050919050565b600061171482610e7f565b915061171f83610e7f565b925082821015611732576117316113e1565b5b828203905092915050565b6000819050919050565b61175861175382610eb3565b61173d565b82525050565b600061176a8284611747565b60208201915081905092915050565b600081905092915050565b600061178f82611665565b6117998185611779565b93506117a9818560208601610d84565b80840191505092915050565b60006117c18284611784565b915081905092915050565b6000815190506117db816111b0565b92915050565b6000602082840312156117f7576117f6610f27565b5b6000611805848285016117cc565b91505092915050565b600061181982610e7f565b9150600082141561182d5761182c6113e1565b5b600182039050919050565b7f575f6b6d20697320696e636f7272656374000000000000000000000000000000600082015250565b600061186e601183610d73565b915061187982611838565b602082019050919050565b6000602082019050818103600083015261189d81611861565b9050919050565b7f575f6b6320697320696e636f7272656374000000000000000000000000000000600082015250565b60006118da601183610d73565b91506118e5826118a4565b602082019050919050565b60006020820190508181036000830152611909816118cd565b9050919050565b7f4e487b7100000000000000000000000000000000000000000000000000000000600052601260045260246000fd5b600061194a82610e7f565b915061195583610e7f565b92508261196557611964611910565b5b828206905092915050565b600061197b82610e7f565b915061198683610e7f565b92508261199657611995611910565b5b828204905092915050565b50565b60006119b1600083611779565b91506119bc826119a1565b600082019050919050565b60006119d2826119a4565b915081905091905056fea264697066735822122073bcf0d2647b2e9e7a5d0f4c46782a20eae6b8d4895fc7c2aea6d1a8d2aea2b364736f6c63430008090033",
      "opcodes": "PUSH1 0x80 PUSH1 0x40 MSTORE CALLVALUE DUP1 ISZERO PUSH2 0x10 JUMPI PUSH1 0x0 DUP1 REVERT JUMPDEST POP PUSH1 0x1 PUSH1 0xA PUSH1 0x0 PUSH2 0x100 EXP DUP2 SLOAD DUP2 PUSH1 0xFF MUL NOT AND SWAP1 DUP4 ISZERO ISZERO MUL OR SWAP1 SSTORE POP PUSH2 0x1A12 DUP1 PUSH2 0x3B PUSH1 0x0 CODECOPY PUSH1 0x0 RETURN INVALID PUSH1 0x80 PUSH1 0x40 MSTORE PUSH1 0x4 CALLDATASIZE LT PUSH2 0xEC JUMPI PUSH1 0x0 CALLDATALOAD PUSH1 0xE0 SHR DUP1 PUSH4 0x88BF1930 GT PUSH2 0x8A JUMPI DUP1 PUSH4 0xC3DA42B8 GT PUSH2 0x59 JUMPI DUP1 PUSH4 0xC3DA42B8 EQ PUSH2 0x29E JUMPI DUP1 PUSH4 0xD8BEFBB6 EQ PUSH2 0x2C9 JUMPI DUP1 PUSH4 0xE8DE68CC EQ PUSH2 0x2F2 JUMPI DUP1 PUSH4 0xF493E870 EQ PUSH2 0x31B JUMPI PUSH2 0xF3 JUMP JUMPDEST DUP1 PUSH4 0x88BF1930 EQ PUSH2 0x201 JUMPI DUP1 PUSH4 0x9C21A9B8 EQ PUSH2 0x22C JUMPI DUP1 PUSH4 0xA6AB36F2 EQ PUSH2 0x257 JUMPI DUP1 PUSH4 0xB582EC5F EQ PUSH2 0x273 JUMPI PUSH2 0xF3 JUMP JUMPDEST DUP1 PUSH4 0x34133DF9 GT PUSH2 0xC6 JUMPI DUP1 PUSH4 0x34133DF9 EQ PUSH2 0x155 JUMPI DUP1 PUSH4 0x5E650318 EQ PUSH2 0x180 JUMPI DUP1 PUSH4 0x7C2EFCBA EQ PUSH2 0x1AB JUMPI DUP1 PUSH4 0x7F80069A EQ PUSH2 0x1D6 JUMPI PUSH2 0xF3 JUMP JUMPDEST DUP1 PUSH4 0x482FF76 EQ PUSH2 0xF5 JUMPI DUP1 PUSH4 0x24763493 EQ PUSH2 0xFF JUMPI DUP1 PUSH4 0x2804B2C0 EQ PUSH2 0x12A JUMPI PUSH2 0xF3 JUMP JUMPDEST CALLDATASIZE PUSH2 0xF3 JUMPI STOP JUMPDEST STOP JUMPDEST PUSH2 0xFD PUSH2 0x346 JUMP JUMPDEST STOP JUMPDEST CALLVALUE DUP1 ISZERO PUSH2 0x10B JUMPI PUSH1 0x0 DUP1 REVERT JUMPDEST POP PUSH2 0x114 PUSH2 0x440 JUMP JUMPDEST PUSH1 0x40 MLOAD PUSH2 0x121 SWAP2 SWAP1 PUSH2 0xE01 JUMP JUMPDEST PUSH1 0x40 MLOAD DUP1 SWAP2 SUB SWAP1 RETURN JUMPDEST CALLVALUE DUP1 ISZERO PUSH2 0x136 JUMPI PUSH1 0x0 DUP1 REVERT JUMPDEST POP PUSH2 0x13F PUSH2 0x4CE JUMP JUMPDEST PUSH1 0x40 MLOAD PUSH2 0x14C SWAP2 SWAP1 PUSH2 0xE64 JUMP JUMPDEST PUSH1 0x40 MLOAD DUP1 SWAP2 SUB SWAP1 RETURN JUMPDEST CALLVALUE DUP1 ISZERO PUSH2 0x161 JUMPI PUSH1 0x0 DUP1 REVERT JUMPDEST POP PUSH2 0x16A PUSH2 0x4F4 JUMP JUMPDEST PUSH1 0x40 MLOAD PUSH2 0x177 SWAP2 SWAP1 PUSH2 0xE98 JUMP JUMPDEST PUSH1 0x40 MLOAD DUP1 SWAP2 SUB SWAP1 RETURN JUMPDEST CALLVALUE DUP1 ISZERO PUSH2 0x18C JUMPI PUSH1 0x0 DUP1 REVERT JUMPDEST POP PUSH2 0x195 PUSH2 0x4FA JUMP JUMPDEST PUSH1 0x40 MLOAD PUSH2 0x1A2 SWAP2 SWAP1 PUSH2 0xECC JUMP JUMPDEST PUSH1 0x40 MLOAD DUP1 SWAP2 SUB SWAP1 RETURN JUMPDEST CALLVALUE DUP1 ISZERO PUSH2 0x1B7 JUMPI PUSH1 0x0 DUP1 REVERT JUMPDEST POP PUSH2 0x1C0 PUSH2 0x500 JUMP JUMPDEST PUSH1 0x40 MLOAD PUSH2 0x1CD SWAP2 SWAP1 PUSH2 0xE98 JUMP JUMPDEST PUSH1 0x40 MLOAD DUP1 SWAP2 SUB SWAP1 RETURN JUMPDEST CALLVALUE DUP1 ISZERO PUSH2 0x1E2 JUMPI PUSH1 0x0 DUP1 REVERT JUMPDEST POP PUSH2 0x1EB PUSH2 0x506 JUMP JUMPDEST PUSH1 0x40 MLOAD PUSH2 0x1F8 SWAP2 SWAP1 PUSH2 0xF02 JUMP JUMPDEST PUSH1 0x40 MLOAD DUP1 SWAP2 SUB SWAP1 RETURN JUMPDEST CALLVALUE DUP1 ISZERO PUSH2 0x20D JUMPI PUSH1 0x0 DUP1 REVERT JUMPDEST POP PUSH2 0x216 PUSH2 0x519 JUMP JUMPDEST PUSH1 0x40 MLOAD PUSH2 0x223 SWAP2 SWAP1 PUSH2 0xECC JUMP JUMPDEST PUSH1 0x40 MLOAD DUP1 SWAP2 SUB SWAP1 RETURN JUMPDEST CALLVALUE DUP1 ISZERO PUSH2 0x238 JUMPI PUSH1 0x0 DUP1 REVERT JUMPDEST POP PUSH2 0x241 PUSH2 0x51F JUMP JUMPDEST PUSH1 0x40 MLOAD PUSH2 0x24E SWAP2 SWAP1 PUSH2 0xE98 JUMP JUMPDEST PUSH1 0x40 MLOAD DUP1 SWAP2 SUB SWAP1 RETURN JUMPDEST PUSH2 0x271 PUSH1 0x4 DUP1 CALLDATASIZE SUB DUP2 ADD SWAP1 PUSH2 0x26C SWAP2 SWAP1 PUSH2 0xF89 JUMP JUMPDEST PUSH2 0x525 JUMP JUMPDEST STOP JUMPDEST CALLVALUE DUP1 ISZERO PUSH2 0x27F JUMPI PUSH1 0x0 DUP1 REVERT JUMPDEST POP PUSH2 0x288 PUSH2 0x5EF JUMP JUMPDEST PUSH1 0x40 MLOAD PUSH2 0x295 SWAP2 SWAP1 PUSH2 0xE98 JUMP JUMPDEST PUSH1 0x40 MLOAD DUP1 SWAP2 SUB SWAP1 RETURN JUMPDEST CALLVALUE DUP1 ISZERO PUSH2 0x2AA JUMPI PUSH1 0x0 DUP1 REVERT JUMPDEST POP PUSH2 0x2B3 PUSH2 0x5F5 JUMP JUMPDEST PUSH1 0x40 MLOAD PUSH2 0x2C0 SWAP2 SWAP1 PUSH2 0xE98 JUMP JUMPDEST PUSH1 0x40 MLOAD DUP1 SWAP2 SUB SWAP1 RETURN JUMPDEST CALLVALUE DUP1 ISZERO PUSH2 0x2D5 JUMPI PUSH1 0x0 DUP1 REVERT JUMPDEST POP PUSH2 0x2F0 PUSH1 0x4 DUP1 CALLDATASIZE SUB DUP2 ADD SWAP1 PUSH2 0x2EB SWAP2 SWAP1 PUSH2 0x1111 JUMP JUMPDEST PUSH2 0x5FB JUMP JUMPDEST STOP JUMPDEST CALLVALUE DUP1 ISZERO PUSH2 0x2FE JUMPI PUSH1 0x0 DUP1 REVERT JUMPDEST POP PUSH2 0x319 PUSH1 0x4 DUP1 CALLDATASIZE SUB DUP2 ADD SWAP1 PUSH2 0x314 SWAP2 SWAP1 PUSH2 0x127D JUMP JUMPDEST PUSH2 0xB3A JUMP JUMPDEST STOP JUMPDEST CALLVALUE DUP1 ISZERO PUSH2 0x327 JUMPI PUSH1 0x0 DUP1 REVERT JUMPDEST POP PUSH2 0x330 PUSH2 0xCBF JUMP JUMPDEST PUSH1 0x40 MLOAD PUSH2 0x33D SWAP2 SWAP1 PUSH2 0xE98 JUMP JUMPDEST PUSH1 0x40 MLOAD DUP1 SWAP2 SUB SWAP1 RETURN JUMPDEST PUSH1 0x1 PUSH1 0x0 SWAP1 SLOAD SWAP1 PUSH2 0x100 EXP SWAP1 DIV PUSH20 0xFFFFFFFFFFFFFFFFFFFFFFFFFFFFFFFFFFFFFFFF AND PUSH20 0xFFFFFFFFFFFFFFFFFFFFFFFFFFFFFFFFFFFFFFFF AND CALLER PUSH20 0xFFFFFFFFFFFFFFFFFFFFFFFFFFFFFFFFFFFFFFFF AND EQ PUSH2 0x3D6 JUMPI PUSH1 0x40 MLOAD PUSH32 0x8C379A000000000000000000000000000000000000000000000000000000000 DUP2 MSTORE PUSH1 0x4 ADD PUSH2 0x3CD SWAP1 PUSH2 0x13C1 JUMP JUMPDEST PUSH1 0x40 MLOAD DUP1 SWAP2 SUB SWAP1 REVERT JUMPDEST TIMESTAMP PUSH1 0x8 SLOAD PUSH1 0x7 SLOAD PUSH2 0x3E7 SWAP2 SWAP1 PUSH2 0x1410 JUMP JUMPDEST LT PUSH2 0x427 JUMPI PUSH1 0x40 MLOAD PUSH32 0x8C379A000000000000000000000000000000000000000000000000000000000 DUP2 MSTORE PUSH1 0x4 ADD PUSH2 0x41E SWAP1 PUSH2 0x14B2 JUMP JUMPDEST PUSH1 0x40 MLOAD DUP1 SWAP2 SUB SWAP1 REVERT JUMPDEST CALLER PUSH20 0xFFFFFFFFFFFFFFFFFFFFFFFFFFFFFFFFFFFFFFFF AND SELFDESTRUCT JUMPDEST PUSH1 0x4 DUP1 SLOAD PUSH2 0x44D SWAP1 PUSH2 0x1501 JUMP JUMPDEST DUP1 PUSH1 0x1F ADD PUSH1 0x20 DUP1 SWAP2 DIV MUL PUSH1 0x20 ADD PUSH1 0x40 MLOAD SWAP1 DUP2 ADD PUSH1 0x40 MSTORE DUP1 SWAP3 SWAP2 SWAP1 DUP2 DUP2 MSTORE PUSH1 0x20 ADD DUP3 DUP1 SLOAD PUSH2 0x479 SWAP1 PUSH2 0x1501 JUMP JUMPDEST DUP1 ISZERO PUSH2 0x4C6 JUMPI DUP1 PUSH1 0x1F LT PUSH2 0x49B JUMPI PUSH2 0x100 DUP1 DUP4 SLOAD DIV MUL DUP4 MSTORE SWAP2 PUSH1 0x20 ADD SWAP2 PUSH2 0x4C6 JUMP JUMPDEST DUP3 ADD SWAP2 SWAP1 PUSH1 0x0 MSTORE PUSH1 0x20 PUSH1 0x0 KECCAK256 SWAP1 JUMPDEST DUP2 SLOAD DUP2 MSTORE SWAP1 PUSH1 0x1 ADD SWAP1 PUSH1 0x20 ADD DUP1 DUP4 GT PUSH2 0x4A9 JUMPI DUP3 SWAP1 SUB PUSH1 0x1F AND DUP3 ADD SWAP2 JUMPDEST POP POP POP POP POP DUP2 JUMP JUMPDEST PUSH1 0x1 PUSH1 0x0 SWAP1 SLOAD SWAP1 PUSH2 0x100 EXP SWAP1 DIV PUSH20 0xFFFFFFFFFFFFFFFFFFFFFFFFFFFFFFFFFFFFFFFF AND DUP2 JUMP JUMPDEST PUSH1 0x9 SLOAD DUP2 JUMP JUMPDEST PUSH1 0x3 SLOAD DUP2 JUMP JUMPDEST PUSH1 0x6 SLOAD DUP2 JUMP JUMPDEST PUSH1 0xA PUSH1 0x0 SWAP1 SLOAD SWAP1 PUSH2 0x100 EXP SWAP1 DIV PUSH1 0xFF AND DUP2 JUMP JUMPDEST PUSH1 0x2 SLOAD DUP2 JUMP JUMPDEST PUSH1 0x8 SLOAD DUP2 JUMP JUMPDEST PUSH1 0x0 ISZERO ISZERO PUSH1 0xA PUSH1 0x0 SWAP1 SLOAD SWAP1 PUSH2 0x100 EXP SWAP1 DIV PUSH1 0xFF AND ISZERO ISZERO EQ PUSH2 0x545 JUMPI PUSH1 0x0 DUP1 REVERT JUMPDEST DUP1 PUSH1 0x1 PUSH1 0x0 PUSH2 0x100 EXP DUP2 SLOAD DUP2 PUSH20 0xFFFFFFFFFFFFFFFFFFFFFFFFFFFFFFFFFFFFFFFF MUL NOT AND SWAP1 DUP4 PUSH20 0xFFFFFFFFFFFFFFFFFFFFFFFFFFFFFFFFFFFFFFFF AND MUL OR SWAP1 SSTORE POP DUP3 PUSH1 0x5 DUP2 SWAP1 SSTORE POP DUP2 PUSH1 0x6 DUP2 SWAP1 SSTORE POP PUSH1 0x0 CALLVALUE EQ PUSH2 0x5EA JUMPI DUP2 DUP4 PUSH2 0x5A8 SWAP2 SWAP1 PUSH2 0x1533 JUMP JUMPDEST CALLVALUE EQ PUSH2 0x5E9 JUMPI PUSH1 0x40 MLOAD PUSH32 0x8C379A000000000000000000000000000000000000000000000000000000000 DUP2 MSTORE PUSH1 0x4 ADD PUSH2 0x5E0 SWAP1 PUSH2 0x15D9 JUMP JUMPDEST PUSH1 0x40 MLOAD DUP1 SWAP2 SUB SWAP1 REVERT JUMPDEST JUMPDEST POP POP POP JUMP JUMPDEST PUSH1 0x0 SLOAD DUP2 JUMP JUMPDEST PUSH1 0x5 SLOAD DUP2 JUMP JUMPDEST PUSH1 0x8 SLOAD PUSH1 0x7 SLOAD PUSH2 0x60B SWAP2 SWAP1 PUSH2 0x1410 JUMP JUMPDEST TIMESTAMP LT PUSH2 0x64C JUMPI PUSH1 0x40 MLOAD PUSH32 0x8C379A000000000000000000000000000000000000000000000000000000000 DUP2 MSTORE PUSH1 0x4 ADD PUSH2 0x643 SWAP1 PUSH2 0x14B2 JUMP JUMPDEST PUSH1 0x40 MLOAD DUP1 SWAP2 SUB SWAP1 REVERT JUMPDEST PUSH1 0x0 SLOAD DUP3 GT PUSH2 0x690 JUMPI PUSH1 0x40 MLOAD PUSH32 0x8C379A000000000000000000000000000000000000000000000000000000000 DUP2 MSTORE PUSH1 0x4 ADD PUSH2 0x687 SWAP1 PUSH2 0x1645 JUMP JUMPDEST PUSH1 0x40 MLOAD DUP1 SWAP2 SUB SWAP1 REVERT JUMPDEST PUSH1 0x0 DUP1 DUP6 PUSH2 0x69D SWAP1 PUSH2 0x16A2 JUMP JUMPDEST SWAP1 POP PUSH1 0x0 DUP6 PUSH2 0x6AB SWAP1 PUSH2 0x16A2 JUMP JUMPDEST SWAP1 POP PUSH1 0x0 DUP1 SLOAD DUP7 PUSH2 0x6BC SWAP2 SWAP1 PUSH2 0x1709 JUMP JUMPDEST SWAP1 POP JUMPDEST PUSH1 0x0 DUP2 EQ PUSH2 0x7BC JUMPI PUSH1 0x2 DUP4 PUSH1 0x40 MLOAD PUSH1 0x20 ADD PUSH2 0x6DA SWAP2 SWAP1 PUSH2 0x175E JUMP JUMPDEST PUSH1 0x40 MLOAD PUSH1 0x20 DUP2 DUP4 SUB SUB DUP2 MSTORE SWAP1 PUSH1 0x40 MSTORE PUSH1 0x40 MLOAD PUSH2 0x6F6 SWAP2 SWAP1 PUSH2 0x17B5 JUMP JUMPDEST PUSH1 0x20 PUSH1 0x40 MLOAD DUP1 DUP4 SUB DUP2 DUP6 GAS STATICCALL ISZERO DUP1 ISZERO PUSH2 0x713 JUMPI RETURNDATASIZE PUSH1 0x0 DUP1 RETURNDATACOPY RETURNDATASIZE PUSH1 0x0 REVERT JUMPDEST POP POP POP PUSH1 0x40 MLOAD RETURNDATASIZE PUSH1 0x1F NOT PUSH1 0x1F DUP3 ADD AND DUP3 ADD DUP1 PUSH1 0x40 MSTORE POP DUP2 ADD SWAP1 PUSH2 0x736 SWAP2 SWAP1 PUSH2 0x17E1 JUMP JUMPDEST SWAP3 POP PUSH1 0x2 DUP3 PUSH1 0x40 MLOAD PUSH1 0x20 ADD PUSH2 0x74B SWAP2 SWAP1 PUSH2 0x175E JUMP JUMPDEST PUSH1 0x40 MLOAD PUSH1 0x20 DUP2 DUP4 SUB SUB DUP2 MSTORE SWAP1 PUSH1 0x40 MSTORE PUSH1 0x40 MLOAD PUSH2 0x767 SWAP2 SWAP1 PUSH2 0x17B5 JUMP JUMPDEST PUSH1 0x20 PUSH1 0x40 MLOAD DUP1 DUP4 SUB DUP2 DUP6 GAS STATICCALL ISZERO DUP1 ISZERO PUSH2 0x784 JUMPI RETURNDATASIZE PUSH1 0x0 DUP1 RETURNDATACOPY RETURNDATASIZE PUSH1 0x0 REVERT JUMPDEST POP POP POP PUSH1 0x40 MLOAD RETURNDATASIZE PUSH1 0x1F NOT PUSH1 0x1F DUP3 ADD AND DUP3 ADD DUP1 PUSH1 0x40 MSTORE POP DUP2 ADD SWAP1 PUSH2 0x7A7 SWAP2 SWAP1 PUSH2 0x17E1 JUMP JUMPDEST SWAP2 POP DUP1 DUP1 PUSH2 0x7B4 SWAP1 PUSH2 0x180E JUMP JUMPDEST SWAP2 POP POP PUSH2 0x6BF JUMP JUMPDEST DUP3 PUSH1 0x2 SLOAD EQ PUSH2 0x800 JUMPI PUSH1 0x40 MLOAD PUSH32 0x8C379A000000000000000000000000000000000000000000000000000000000 DUP2 MSTORE PUSH1 0x4 ADD PUSH2 0x7F7 SWAP1 PUSH2 0x1884 JUMP JUMPDEST PUSH1 0x40 MLOAD DUP1 SWAP2 SUB SWAP1 REVERT JUMPDEST DUP2 PUSH1 0x3 SLOAD EQ PUSH2 0x844 JUMPI PUSH1 0x40 MLOAD PUSH32 0x8C379A000000000000000000000000000000000000000000000000000000000 DUP2 MSTORE PUSH1 0x4 ADD PUSH2 0x83B SWAP1 PUSH2 0x18F0 JUMP JUMPDEST PUSH1 0x40 MLOAD DUP1 SWAP2 SUB SWAP1 REVERT JUMPDEST PUSH1 0x0 PUSH1 0x2 DUP8 PUSH2 0x853 SWAP2 SWAP1 PUSH2 0x193F JUMP JUMPDEST EQ ISZERO PUSH2 0x8A1 JUMPI PUSH1 0x2 PUSH1 0x0 SLOAD DUP8 PUSH2 0x869 SWAP2 SWAP1 PUSH2 0x1709 JUMP JUMPDEST PUSH2 0x873 SWAP2 SWAP1 PUSH2 0x1970 JUMP JUMPDEST SWAP4 POP DUP6 PUSH1 0x0 DUP2 SWAP1 SSTORE POP DUP8 PUSH2 0x886 SWAP1 PUSH2 0x16A2 JUMP JUMPDEST PUSH1 0x2 DUP2 SWAP1 SSTORE POP DUP7 PUSH2 0x896 SWAP1 PUSH2 0x16A2 JUMP JUMPDEST PUSH1 0x3 DUP2 SWAP1 SSTORE POP PUSH2 0xA2C JUMP JUMPDEST PUSH1 0x2 PUSH1 0x1 PUSH1 0x0 SLOAD DUP9 PUSH2 0x8B3 SWAP2 SWAP1 PUSH2 0x1709 JUMP JUMPDEST PUSH2 0x8BD SWAP2 SWAP1 PUSH2 0x1709 JUMP JUMPDEST PUSH2 0x8C7 SWAP2 SWAP1 PUSH2 0x1970 JUMP JUMPDEST SWAP4 POP PUSH1 0x1 DUP7 PUSH2 0x8D6 SWAP2 SWAP1 PUSH2 0x1709 JUMP JUMPDEST PUSH1 0x0 DUP2 SWAP1 SSTORE POP PUSH1 0x0 DUP9 PUSH2 0x8E8 SWAP1 PUSH2 0x16A2 JUMP JUMPDEST SWAP1 POP PUSH1 0x0 DUP9 PUSH2 0x8F6 SWAP1 PUSH2 0x16A2 JUMP JUMPDEST SWAP1 POP PUSH1 0x0 DUP1 SLOAD DUP10 PUSH2 0x907 SWAP2 SWAP1 PUSH2 0x1709 JUMP JUMPDEST SWAP1 POP JUMPDEST PUSH1 0x0 DUP2 EQ PUSH2 0xA07 JUMPI PUSH1 0x2 DUP4 PUSH1 0x40 MLOAD PUSH1 0x20 ADD PUSH2 0x925 SWAP2 SWAP1 PUSH2 0x175E JUMP JUMPDEST PUSH1 0x40 MLOAD PUSH1 0x20 DUP2 DUP4 SUB SUB DUP2 MSTORE SWAP1 PUSH1 0x40 MSTORE PUSH1 0x40 MLOAD PUSH2 0x941 SWAP2 SWAP1 PUSH2 0x17B5 JUMP JUMPDEST PUSH1 0x20 PUSH1 0x40 MLOAD DUP1 DUP4 SUB DUP2 DUP6 GAS STATICCALL ISZERO DUP1 ISZERO PUSH2 0x95E JUMPI RETURNDATASIZE PUSH1 0x0 DUP1 RETURNDATACOPY RETURNDATASIZE PUSH1 0x0 REVERT JUMPDEST POP POP POP PUSH1 0x40 MLOAD RETURNDATASIZE PUSH1 0x1F NOT PUSH1 0x1F DUP3 ADD AND DUP3 ADD DUP1 PUSH1 0x40 MSTORE POP DUP2 ADD SWAP1 PUSH2 0x981 SWAP2 SWAP1 PUSH2 0x17E1 JUMP JUMPDEST SWAP3 POP PUSH1 0x2 DUP3 PUSH1 0x40 MLOAD PUSH1 0x20 ADD PUSH2 0x996 SWAP2 SWAP1 PUSH2 0x175E JUMP JUMPDEST PUSH1 0x40 MLOAD PUSH1 0x20 DUP2 DUP4 SUB SUB DUP2 MSTORE SWAP1 PUSH1 0x40 MSTORE PUSH1 0x40 MLOAD PUSH2 0x9B2 SWAP2 SWAP1 PUSH2 0x17B5 JUMP JUMPDEST PUSH1 0x20 PUSH1 0x40 MLOAD DUP1 DUP4 SUB DUP2 DUP6 GAS STATICCALL ISZERO DUP1 ISZERO PUSH2 0x9CF JUMPI RETURNDATASIZE PUSH1 0x0 DUP1 RETURNDATACOPY RETURNDATASIZE PUSH1 0x0 REVERT JUMPDEST POP POP POP PUSH1 0x40 MLOAD RETURNDATASIZE PUSH1 0x1F NOT PUSH1 0x1F DUP3 ADD AND DUP3 ADD DUP1 PUSH1 0x40 MSTORE POP DUP2 ADD SWAP1 PUSH2 0x9F2 SWAP2 SWAP1 PUSH2 0x17E1 JUMP JUMPDEST SWAP2 POP DUP1 DUP1 PUSH2 0x9FF SWAP1 PUSH2 0x180E JUMP JUMPDEST SWAP2 POP POP PUSH2 0x90A JUMP JUMPDEST PUSH1 0x1 DUP10 PUSH2 0xA14 SWAP2 SWAP1 PUSH2 0x1709 JUMP JUMPDEST PUSH1 0x0 DUP2 SWAP1 SSTORE POP DUP3 PUSH1 0x2 DUP2 SWAP1 SSTORE POP DUP2 PUSH1 0x3 DUP2 SWAP1 SSTORE POP POP POP POP JUMPDEST PUSH1 0x0 PUSH20 0xFFFFFFFFFFFFFFFFFFFFFFFFFFFFFFFFFFFFFFFF AND DUP6 PUSH20 0xFFFFFFFFFFFFFFFFFFFFFFFFFFFFFFFFFFFFFFFF AND EQ PUSH2 0xADB JUMPI DUP5 PUSH20 0xFFFFFFFFFFFFFFFFFFFFFFFFFFFFFFFFFFFFFFFF AND PUSH1 0x6 SLOAD DUP6 PUSH2 0xA85 SWAP2 SWAP1 PUSH2 0x1533 JUMP JUMPDEST PUSH1 0x40 MLOAD PUSH2 0xA91 SWAP1 PUSH2 0x19C7 JUMP JUMPDEST PUSH1 0x0 PUSH1 0x40 MLOAD DUP1 DUP4 SUB DUP2 DUP6 DUP8 GAS CALL SWAP3 POP POP POP RETURNDATASIZE DUP1 PUSH1 0x0 DUP2 EQ PUSH2 0xACE JUMPI PUSH1 0x40 MLOAD SWAP2 POP PUSH1 0x1F NOT PUSH1 0x3F RETURNDATASIZE ADD AND DUP3 ADD PUSH1 0x40 MSTORE RETURNDATASIZE DUP3 MSTORE RETURNDATASIZE PUSH1 0x0 PUSH1 0x20 DUP5 ADD RETURNDATACOPY PUSH2 0xAD3 JUMP JUMPDEST PUSH1 0x60 SWAP2 POP JUMPDEST POP POP POP PUSH2 0xB30 JUMP JUMPDEST CALLER PUSH20 0xFFFFFFFFFFFFFFFFFFFFFFFFFFFFFFFFFFFFFFFF AND PUSH2 0x8FC PUSH1 0x6 SLOAD DUP7 PUSH2 0xB03 SWAP2 SWAP1 PUSH2 0x1533 JUMP JUMPDEST SWAP1 DUP2 ISZERO MUL SWAP1 PUSH1 0x40 MLOAD PUSH1 0x0 PUSH1 0x40 MLOAD DUP1 DUP4 SUB DUP2 DUP6 DUP9 DUP9 CALL SWAP4 POP POP POP POP ISZERO DUP1 ISZERO PUSH2 0xB2E JUMPI RETURNDATASIZE PUSH1 0x0 DUP1 RETURNDATACOPY RETURNDATASIZE PUSH1 0x0 REVERT JUMPDEST POP JUMPDEST POP POP POP POP POP POP POP POP JUMP JUMPDEST PUSH1 0x1 PUSH1 0x0 SWAP1 SLOAD SWAP1 PUSH2 0x100 EXP SWAP1 DIV PUSH20 0xFFFFFFFFFFFFFFFFFFFFFFFFFFFFFFFFFFFFFFFF AND PUSH20 0xFFFFFFFFFFFFFFFFFFFFFFFFFFFFFFFFFFFFFFFF AND CALLER PUSH20 0xFFFFFFFFFFFFFFFFFFFFFFFFFFFFFFFFFFFFFFFF AND EQ PUSH2 0xBCA JUMPI PUSH1 0x40 MLOAD PUSH32 0x8C379A000000000000000000000000000000000000000000000000000000000 DUP2 MSTORE PUSH1 0x4 ADD PUSH2 0xBC1 SWAP1 PUSH2 0x13C1 JUMP JUMPDEST PUSH1 0x40 MLOAD DUP1 SWAP2 SUB SWAP1 REVERT JUMPDEST DUP4 DUP6 PUSH2 0xBD6 SWAP2 SWAP1 PUSH2 0x1533 JUMP JUMPDEST SELFBALANCE EQ PUSH2 0xBE1 JUMPI PUSH1 0x0 DUP1 REVERT JUMPDEST PUSH1 0x0 PUSH1 0x7 SLOAD EQ DUP1 ISZERO PUSH2 0xBF5 JUMPI POP PUSH1 0x0 PUSH1 0x8 SLOAD EQ JUMPDEST DUP1 ISZERO PUSH2 0xC03 JUMPI POP PUSH1 0x0 PUSH1 0x9 SLOAD EQ JUMPDEST DUP1 ISZERO PUSH2 0xC1D JUMPI POP TIMESTAMP PUSH1 0x8 SLOAD PUSH1 0x7 SLOAD PUSH2 0xC1B SWAP2 SWAP1 PUSH2 0x1410 JUMP JUMPDEST LT JUMPDEST DUP1 PUSH2 0xC5D JUMPI POP TIMESTAMP PUSH1 0x8 SLOAD PUSH1 0x7 SLOAD PUSH2 0xC34 SWAP2 SWAP1 PUSH2 0x1410 JUMP JUMPDEST LT DUP1 ISZERO PUSH2 0xC5C JUMPI POP PUSH1 0x9 SLOAD PUSH1 0x8 SLOAD PUSH1 0x7 SLOAD PUSH2 0xC4F SWAP2 SWAP1 PUSH2 0x1410 JUMP JUMPDEST PUSH2 0xC59 SWAP2 SWAP1 PUSH2 0x1410 JUMP JUMPDEST TIMESTAMP LT JUMPDEST JUMPDEST PUSH2 0xC66 JUMPI PUSH1 0x0 DUP1 REVERT JUMPDEST PUSH1 0x0 DUP1 DUP2 SWAP1 SSTORE POP DUP8 PUSH1 0x2 DUP2 SWAP1 SSTORE POP DUP7 PUSH1 0x3 DUP2 SWAP1 SSTORE POP DUP6 PUSH1 0x4 SWAP1 DUP1 MLOAD SWAP1 PUSH1 0x20 ADD SWAP1 PUSH2 0xC91 SWAP3 SWAP2 SWAP1 PUSH2 0xCC5 JUMP JUMPDEST POP DUP5 PUSH1 0x5 DUP2 SWAP1 SSTORE POP DUP4 PUSH1 0x6 DUP2 SWAP1 SSTORE POP DUP3 PUSH1 0x7 DUP2 SWAP1 SSTORE POP DUP2 PUSH1 0x8 DUP2 SWAP1 SSTORE POP DUP1 PUSH1 0x9 DUP2 SWAP1 SSTORE POP POP POP POP POP POP POP POP POP JUMP JUMPDEST PUSH1 0x7 SLOAD DUP2 JUMP JUMPDEST DUP3 DUP1 SLOAD PUSH2 0xCD1 SWAP1 PUSH2 0x1501 JUMP JUMPDEST SWAP1 PUSH1 0x0 MSTORE PUSH1 0x20 PUSH1 0x0 KECCAK256 SWAP1 PUSH1 0x1F ADD PUSH1 0x20 SWAP1 DIV DUP2 ADD SWAP3 DUP3 PUSH2 0xCF3 JUMPI PUSH1 0x0 DUP6 SSTORE PUSH2 0xD3A JUMP JUMPDEST DUP3 PUSH1 0x1F LT PUSH2 0xD0C JUMPI DUP1 MLOAD PUSH1 0xFF NOT AND DUP4 DUP1 ADD OR DUP6 SSTORE PUSH2 0xD3A JUMP JUMPDEST DUP3 DUP1 ADD PUSH1 0x1 ADD DUP6 SSTORE DUP3 ISZERO PUSH2 0xD3A JUMPI SWAP2 DUP3 ADD JUMPDEST DUP3 DUP2 GT ISZERO PUSH2 0xD39 JUMPI DUP3 MLOAD DUP3 SSTORE SWAP2 PUSH1 0x20 ADD SWAP2 SWAP1 PUSH1 0x1 ADD SWAP1 PUSH2 0xD1E JUMP JUMPDEST JUMPDEST POP SWAP1 POP PUSH2 0xD47 SWAP2 SWAP1 PUSH2 0xD4B JUMP JUMPDEST POP SWAP1 JUMP JUMPDEST JUMPDEST DUP1 DUP3 GT ISZERO PUSH2 0xD64 JUMPI PUSH1 0x0 DUP2 PUSH1 0x0 SWAP1 SSTORE POP PUSH1 0x1 ADD PUSH2 0xD4C JUMP JUMPDEST POP SWAP1 JUMP JUMPDEST PUSH1 0x0 DUP2 MLOAD SWAP1 POP SWAP2 SWAP1 POP JUMP JUMPDEST PUSH1 0x0 DUP3 DUP3 MSTORE PUSH1 0x20 DUP3 ADD SWAP1 POP SWAP3 SWAP2 POP POP JUMP JUMPDEST PUSH1 0x0 JUMPDEST DUP4 DUP2 LT ISZERO PUSH2 0xDA2 JUMPI DUP1 DUP3 ADD MLOAD DUP2 DUP5 ADD MSTORE PUSH1 0x20 DUP2 ADD SWAP1 POP PUSH2 0xD87 JUMP JUMPDEST DUP4 DUP2 GT ISZERO PUSH2 0xDB1 JUMPI PUSH1 0x0 DUP5 DUP5 ADD MSTORE JUMPDEST POP POP POP POP JUMP JUMPDEST PUSH1 0x0 PUSH1 0x1F NOT PUSH1 0x1F DUP4 ADD AND SWAP1 POP SWAP2 SWAP1 POP JUMP JUMPDEST PUSH1 0x0 PUSH2 0xDD3 DUP3 PUSH2 0xD68 JUMP JUMPDEST PUSH2 0xDDD DUP2 DUP6 PUSH2 0xD73 JUMP JUMPDEST SWAP4 POP PUSH2 0xDED DUP2 DUP6 PUSH1 0x20 DUP7 ADD PUSH2 0xD84 JUMP JUMPDEST PUSH2 0xDF6 DUP2 PUSH2 0xDB7 JUMP JUMPDEST DUP5 ADD SWAP2 POP POP SWAP3 SWAP2 POP POP JUMP JUMPDEST PUSH1 0x0 PUSH1 0x20 DUP3 ADD SWAP1 POP DUP2 DUP2 SUB PUSH1 0x0 DUP4 ADD MSTORE PUSH2 0xE1B DUP2 DUP5 PUSH2 0xDC8 JUMP JUMPDEST SWAP1 POP SWAP3 SWAP2 POP POP JUMP JUMPDEST PUSH1 0x0 PUSH20 0xFFFFFFFFFFFFFFFFFFFFFFFFFFFFFFFFFFFFFFFF DUP3 AND SWAP1 POP SWAP2 SWAP1 POP JUMP JUMPDEST PUSH1 0x0 PUSH2 0xE4E DUP3 PUSH2 0xE23 JUMP JUMPDEST SWAP1 POP SWAP2 SWAP1 POP JUMP JUMPDEST PUSH2 0xE5E DUP2 PUSH2 0xE43 JUMP JUMPDEST DUP3 MSTORE POP POP JUMP JUMPDEST PUSH1 0x0 PUSH1 0x20 DUP3 ADD SWAP1 POP PUSH2 0xE79 PUSH1 0x0 DUP4 ADD DUP5 PUSH2 0xE55 JUMP JUMPDEST SWAP3 SWAP2 POP POP JUMP JUMPDEST PUSH1 0x0 DUP2 SWAP1 POP SWAP2 SWAP1 POP JUMP JUMPDEST PUSH2 0xE92 DUP2 PUSH2 0xE7F JUMP JUMPDEST DUP3 MSTORE POP POP JUMP JUMPDEST PUSH1 0x0 PUSH1 0x20 DUP3 ADD SWAP1 POP PUSH2 0xEAD PUSH1 0x0 DUP4 ADD DUP5 PUSH2 0xE89 JUMP JUMPDEST SWAP3 SWAP2 POP POP JUMP JUMPDEST PUSH1 0x0 DUP2 SWAP1 POP SWAP2 SWAP1 POP JUMP JUMPDEST PUSH2 0xEC6 DUP2 PUSH2 0xEB3 JUMP JUMPDEST DUP3 MSTORE POP POP JUMP JUMPDEST PUSH1 0x0 PUSH1 0x20 DUP3 ADD SWAP1 POP PUSH2 0xEE1 PUSH1 0x0 DUP4 ADD DUP5 PUSH2 0xEBD JUMP JUMPDEST SWAP3 SWAP2 POP POP JUMP JUMPDEST PUSH1 0x0 DUP2 ISZERO ISZERO SWAP1 POP SWAP2 SWAP1 POP JUMP JUMPDEST PUSH2 0xEFC DUP2 PUSH2 0xEE7 JUMP JUMPDEST DUP3 MSTORE POP POP JUMP JUMPDEST PUSH1 0x0 PUSH1 0x20 DUP3 ADD SWAP1 POP PUSH2 0xF17 PUSH1 0x0 DUP4 ADD DUP5 PUSH2 0xEF3 JUMP JUMPDEST SWAP3 SWAP2 POP POP JUMP JUMPDEST PUSH1 0x0 PUSH1 0x40 MLOAD SWAP1 POP SWAP1 JUMP JUMPDEST PUSH1 0x0 DUP1 REVERT JUMPDEST PUSH1 0x0 DUP1 REVERT JUMPDEST PUSH2 0xF3A DUP2 PUSH2 0xE7F JUMP JUMPDEST DUP2 EQ PUSH2 0xF45 JUMPI PUSH1 0x0 DUP1 REVERT JUMPDEST POP JUMP JUMPDEST PUSH1 0x0 DUP2 CALLDATALOAD SWAP1 POP PUSH2 0xF57 DUP2 PUSH2 0xF31 JUMP JUMPDEST SWAP3 SWAP2 POP POP JUMP JUMPDEST PUSH2 0xF66 DUP2 PUSH2 0xE43 JUMP JUMPDEST DUP2 EQ PUSH2 0xF71 JUMPI PUSH1 0x0 DUP1 REVERT JUMPDEST POP JUMP JUMPDEST PUSH1 0x0 DUP2 CALLDATALOAD SWAP1 POP PUSH2 0xF83 DUP2 PUSH2 0xF5D JUMP JUMPDEST SWAP3 SWAP2 POP POP JUMP JUMPDEST PUSH1 0x0 DUP1 PUSH1 0x0 PUSH1 0x60 DUP5 DUP7 SUB SLT ISZERO PUSH2 0xFA2 JUMPI PUSH2 0xFA1 PUSH2 0xF27 JUMP JUMPDEST JUMPDEST PUSH1 0x0 PUSH2 0xFB0 DUP7 DUP3 DUP8 ADD PUSH2 0xF48 JUMP JUMPDEST SWAP4 POP POP PUSH1 0x20 PUSH2 0xFC1 DUP7 DUP3 DUP8 ADD PUSH2 0xF48 JUMP JUMPDEST SWAP3 POP POP PUSH1 0x40 PUSH2 0xFD2 DUP7 DUP3 DUP8 ADD PUSH2 0xF74 JUMP JUMPDEST SWAP2 POP POP SWAP3 POP SWAP3 POP SWAP3 JUMP JUMPDEST PUSH1 0x0 DUP1 REVERT JUMPDEST PUSH1 0x0 DUP1 REVERT JUMPDEST PUSH32 0x4E487B7100000000000000000000000000000000000000000000000000000000 PUSH1 0x0 MSTORE PUSH1 0x41 PUSH1 0x4 MSTORE PUSH1 0x24 PUSH1 0x0 REVERT JUMPDEST PUSH2 0x101E DUP3 PUSH2 0xDB7 JUMP JUMPDEST DUP2 ADD DUP2 DUP2 LT PUSH8 0xFFFFFFFFFFFFFFFF DUP3 GT OR ISZERO PUSH2 0x103D JUMPI PUSH2 0x103C PUSH2 0xFE6 JUMP JUMPDEST JUMPDEST DUP1 PUSH1 0x40 MSTORE POP POP POP JUMP JUMPDEST PUSH1 0x0 PUSH2 0x1050 PUSH2 0xF1D JUMP JUMPDEST SWAP1 POP PUSH2 0x105C DUP3 DUP3 PUSH2 0x1015 JUMP JUMPDEST SWAP2 SWAP1 POP JUMP JUMPDEST PUSH1 0x0 PUSH8 0xFFFFFFFFFFFFFFFF DUP3 GT ISZERO PUSH2 0x107C JUMPI PUSH2 0x107B PUSH2 0xFE6 JUMP JUMPDEST JUMPDEST PUSH2 0x1085 DUP3 PUSH2 0xDB7 JUMP JUMPDEST SWAP1 POP PUSH1 0x20 DUP2 ADD SWAP1 POP SWAP2 SWAP1 POP JUMP JUMPDEST DUP3 DUP2 DUP4 CALLDATACOPY PUSH1 0x0 DUP4 DUP4 ADD MSTORE POP POP POP JUMP JUMPDEST PUSH1 0x0 PUSH2 0x10B4 PUSH2 0x10AF DUP5 PUSH2 0x1061 JUMP JUMPDEST PUSH2 0x1046 JUMP JUMPDEST SWAP1 POP DUP3 DUP2 MSTORE PUSH1 0x20 DUP2 ADD DUP5 DUP5 DUP5 ADD GT ISZERO PUSH2 0x10D0 JUMPI PUSH2 0x10CF PUSH2 0xFE1 JUMP JUMPDEST JUMPDEST PUSH2 0x10DB DUP5 DUP3 DUP6 PUSH2 0x1092 JUMP JUMPDEST POP SWAP4 SWAP3 POP POP POP JUMP JUMPDEST PUSH1 0x0 DUP3 PUSH1 0x1F DUP4 ADD SLT PUSH2 0x10F8 JUMPI PUSH2 0x10F7 PUSH2 0xFDC JUMP JUMPDEST JUMPDEST DUP2 CALLDATALOAD PUSH2 0x1108 DUP5 DUP3 PUSH1 0x20 DUP7 ADD PUSH2 0x10A1 JUMP JUMPDEST SWAP2 POP POP SWAP3 SWAP2 POP POP JUMP JUMPDEST PUSH1 0x0 DUP1 PUSH1 0x0 DUP1 PUSH1 0x80 DUP6 DUP8 SUB SLT ISZERO PUSH2 0x112B JUMPI PUSH2 0x112A PUSH2 0xF27 JUMP JUMPDEST JUMPDEST PUSH1 0x0 DUP6 ADD CALLDATALOAD PUSH8 0xFFFFFFFFFFFFFFFF DUP2 GT ISZERO PUSH2 0x1149 JUMPI PUSH2 0x1148 PUSH2 0xF2C JUMP JUMPDEST JUMPDEST PUSH2 0x1155 DUP8 DUP3 DUP9 ADD PUSH2 0x10E3 JUMP JUMPDEST SWAP5 POP POP PUSH1 0x20 DUP6 ADD CALLDATALOAD PUSH8 0xFFFFFFFFFFFFFFFF DUP2 GT ISZERO PUSH2 0x1176 JUMPI PUSH2 0x1175 PUSH2 0xF2C JUMP JUMPDEST JUMPDEST PUSH2 0x1182 DUP8 DUP3 DUP9 ADD PUSH2 0x10E3 JUMP JUMPDEST SWAP4 POP POP PUSH1 0x40 PUSH2 0x1193 DUP8 DUP3 DUP9 ADD PUSH2 0xF48 JUMP JUMPDEST SWAP3 POP POP PUSH1 0x60 PUSH2 0x11A4 DUP8 DUP3 DUP9 ADD PUSH2 0xF74 JUMP JUMPDEST SWAP2 POP POP SWAP3 SWAP6 SWAP2 SWAP5 POP SWAP3 POP JUMP JUMPDEST PUSH2 0x11B9 DUP2 PUSH2 0xEB3 JUMP JUMPDEST DUP2 EQ PUSH2 0x11C4 JUMPI PUSH1 0x0 DUP1 REVERT JUMPDEST POP JUMP JUMPDEST PUSH1 0x0 DUP2 CALLDATALOAD SWAP1 POP PUSH2 0x11D6 DUP2 PUSH2 0x11B0 JUMP JUMPDEST SWAP3 SWAP2 POP POP JUMP JUMPDEST PUSH1 0x0 PUSH8 0xFFFFFFFFFFFFFFFF DUP3 GT ISZERO PUSH2 0x11F7 JUMPI PUSH2 0x11F6 PUSH2 0xFE6 JUMP JUMPDEST JUMPDEST PUSH2 0x1200 DUP3 PUSH2 0xDB7 JUMP JUMPDEST SWAP1 POP PUSH1 0x20 DUP2 ADD SWAP1 POP SWAP2 SWAP1 POP JUMP JUMPDEST PUSH1 0x0 PUSH2 0x1220 PUSH2 0x121B DUP5 PUSH2 0x11DC JUMP JUMPDEST PUSH2 0x1046 JUMP JUMPDEST SWAP1 POP DUP3 DUP2 MSTORE PUSH1 0x20 DUP2 ADD DUP5 DUP5 DUP5 ADD GT ISZERO PUSH2 0x123C JUMPI PUSH2 0x123B PUSH2 0xFE1 JUMP JUMPDEST JUMPDEST PUSH2 0x1247 DUP5 DUP3 DUP6 PUSH2 0x1092 JUMP JUMPDEST POP SWAP4 SWAP3 POP POP POP JUMP JUMPDEST PUSH1 0x0 DUP3 PUSH1 0x1F DUP4 ADD SLT PUSH2 0x1264 JUMPI PUSH2 0x1263 PUSH2 0xFDC JUMP JUMPDEST JUMPDEST DUP2 CALLDATALOAD PUSH2 0x1274 DUP5 DUP3 PUSH1 0x20 DUP7 ADD PUSH2 0x120D JUMP JUMPDEST SWAP2 POP POP SWAP3 SWAP2 POP POP JUMP JUMPDEST PUSH1 0x0 DUP1 PUSH1 0x0 DUP1 PUSH1 0x0 DUP1 PUSH1 0x0 DUP1 PUSH2 0x100 DUP10 DUP12 SUB SLT ISZERO PUSH2 0x129E JUMPI PUSH2 0x129D PUSH2 0xF27 JUMP JUMPDEST JUMPDEST PUSH1 0x0 PUSH2 0x12AC DUP12 DUP3 DUP13 ADD PUSH2 0x11C7 JUMP JUMPDEST SWAP9 POP POP PUSH1 0x20 PUSH2 0x12BD DUP12 DUP3 DUP13 ADD PUSH2 0x11C7 JUMP JUMPDEST SWAP8 POP POP PUSH1 0x40 DUP10 ADD CALLDATALOAD PUSH8 0xFFFFFFFFFFFFFFFF DUP2 GT ISZERO PUSH2 0x12DE JUMPI PUSH2 0x12DD PUSH2 0xF2C JUMP JUMPDEST JUMPDEST PUSH2 0x12EA DUP12 DUP3 DUP13 ADD PUSH2 0x124F JUMP JUMPDEST SWAP7 POP POP PUSH1 0x60 PUSH2 0x12FB DUP12 DUP3 DUP13 ADD PUSH2 0xF48 JUMP JUMPDEST SWAP6 POP POP PUSH1 0x80 PUSH2 0x130C DUP12 DUP3 DUP13 ADD PUSH2 0xF48 JUMP JUMPDEST SWAP5 POP POP PUSH1 0xA0 PUSH2 0x131D DUP12 DUP3 DUP13 ADD PUSH2 0xF48 JUMP JUMPDEST SWAP4 POP POP PUSH1 0xC0 PUSH2 0x132E DUP12 DUP3 DUP13 ADD PUSH2 0xF48 JUMP JUMPDEST SWAP3 POP POP PUSH1 0xE0 PUSH2 0x133F DUP12 DUP3 DUP13 ADD PUSH2 0xF48 JUMP JUMPDEST SWAP2 POP POP SWAP3 SWAP6 SWAP9 POP SWAP3 SWAP6 SWAP9 SWAP1 SWAP4 SWAP7 POP JUMP JUMPDEST PUSH32 0x4F6E6C7920637573746F6D6572206F66207468652064656C6976657279206361 PUSH1 0x0 DUP3 ADD MSTORE PUSH32 0x6E2073657420746865206368616E6E656C20706172616D732E00000000000000 PUSH1 0x20 DUP3 ADD MSTORE POP JUMP JUMPDEST PUSH1 0x0 PUSH2 0x13AB PUSH1 0x39 DUP4 PUSH2 0xD73 JUMP JUMPDEST SWAP2 POP PUSH2 0x13B6 DUP3 PUSH2 0x134F JUMP JUMPDEST PUSH1 0x40 DUP3 ADD SWAP1 POP SWAP2 SWAP1 POP JUMP JUMPDEST PUSH1 0x0 PUSH1 0x20 DUP3 ADD SWAP1 POP DUP2 DUP2 SUB PUSH1 0x0 DUP4 ADD MSTORE PUSH2 0x13DA DUP2 PUSH2 0x139E JUMP JUMPDEST SWAP1 POP SWAP2 SWAP1 POP JUMP JUMPDEST PUSH32 0x4E487B7100000000000000000000000000000000000000000000000000000000 PUSH1 0x0 MSTORE PUSH1 0x11 PUSH1 0x4 MSTORE PUSH1 0x24 PUSH1 0x0 REVERT JUMPDEST PUSH1 0x0 PUSH2 0x141B DUP3 PUSH2 0xE7F JUMP JUMPDEST SWAP2 POP PUSH2 0x1426 DUP4 PUSH2 0xE7F JUMP JUMPDEST SWAP3 POP DUP3 PUSH32 0xFFFFFFFFFFFFFFFFFFFFFFFFFFFFFFFFFFFFFFFFFFFFFFFFFFFFFFFFFFFFFFFF SUB DUP3 GT ISZERO PUSH2 0x145B JUMPI PUSH2 0x145A PUSH2 0x13E1 JUMP JUMPDEST JUMPDEST DUP3 DUP3 ADD SWAP1 POP SWAP3 SWAP2 POP POP JUMP JUMPDEST PUSH32 0x54696D65206572726F7200000000000000000000000000000000000000000000 PUSH1 0x0 DUP3 ADD MSTORE POP JUMP JUMPDEST PUSH1 0x0 PUSH2 0x149C PUSH1 0xA DUP4 PUSH2 0xD73 JUMP JUMPDEST SWAP2 POP PUSH2 0x14A7 DUP3 PUSH2 0x1466 JUMP JUMPDEST PUSH1 0x20 DUP3 ADD SWAP1 POP SWAP2 SWAP1 POP JUMP JUMPDEST PUSH1 0x0 PUSH1 0x20 DUP3 ADD SWAP1 POP DUP2 DUP2 SUB PUSH1 0x0 DUP4 ADD MSTORE PUSH2 0x14CB DUP2 PUSH2 0x148F JUMP JUMPDEST SWAP1 POP SWAP2 SWAP1 POP JUMP JUMPDEST PUSH32 0x4E487B7100000000000000000000000000000000000000000000000000000000 PUSH1 0x0 MSTORE PUSH1 0x22 PUSH1 0x4 MSTORE PUSH1 0x24 PUSH1 0x0 REVERT JUMPDEST PUSH1 0x0 PUSH1 0x2 DUP3 DIV SWAP1 POP PUSH1 0x1 DUP3 AND DUP1 PUSH2 0x1519 JUMPI PUSH1 0x7F DUP3 AND SWAP2 POP JUMPDEST PUSH1 0x20 DUP3 LT DUP2 EQ ISZERO PUSH2 0x152D JUMPI PUSH2 0x152C PUSH2 0x14D2 JUMP JUMPDEST JUMPDEST POP SWAP2 SWAP1 POP JUMP JUMPDEST PUSH1 0x0 PUSH2 0x153E DUP3 PUSH2 0xE7F JUMP JUMPDEST SWAP2 POP PUSH2 0x1549 DUP4 PUSH2 0xE7F JUMP JUMPDEST SWAP3 POP DUP2 PUSH32 0xFFFFFFFFFFFFFFFFFFFFFFFFFFFFFFFFFFFFFFFFFFFFFFFFFFFFFFFFFFFFFFFF DIV DUP4 GT DUP3 ISZERO ISZERO AND ISZERO PUSH2 0x1582 JUMPI PUSH2 0x1581 PUSH2 0x13E1 JUMP JUMPDEST JUMPDEST DUP3 DUP3 MUL SWAP1 POP SWAP3 SWAP2 POP POP JUMP JUMPDEST PUSH32 0x62616C616E6365206572726F7200000000000000000000000000000000000000 PUSH1 0x0 DUP3 ADD MSTORE POP JUMP JUMPDEST PUSH1 0x0 PUSH2 0x15C3 PUSH1 0xD DUP4 PUSH2 0xD73 JUMP JUMPDEST SWAP2 POP PUSH2 0x15CE DUP3 PUSH2 0x158D JUMP JUMPDEST PUSH1 0x20 DUP3 ADD SWAP1 POP SWAP2 SWAP1 POP JUMP JUMPDEST PUSH1 0x0 PUSH1 0x20 DUP3 ADD SWAP1 POP DUP2 DUP2 SUB PUSH1 0x0 DUP4 ADD MSTORE PUSH2 0x15F2 DUP2 PUSH2 0x15B6 JUMP JUMPDEST SWAP1 POP SWAP2 SWAP1 POP JUMP JUMPDEST PUSH32 0x6B203C3D206A0000000000000000000000000000000000000000000000000000 PUSH1 0x0 DUP3 ADD MSTORE POP JUMP JUMPDEST PUSH1 0x0 PUSH2 0x162F PUSH1 0x6 DUP4 PUSH2 0xD73 JUMP JUMPDEST SWAP2 POP PUSH2 0x163A DUP3 PUSH2 0x15F9 JUMP JUMPDEST PUSH1 0x20 DUP3 ADD SWAP1 POP SWAP2 SWAP1 POP JUMP JUMPDEST PUSH1 0x0 PUSH1 0x20 DUP3 ADD SWAP1 POP DUP2 DUP2 SUB PUSH1 0x0 DUP4 ADD MSTORE PUSH2 0x165E DUP2 PUSH2 0x1622 JUMP JUMPDEST SWAP1 POP SWAP2 SWAP1 POP JUMP JUMPDEST PUSH1 0x0 DUP2 MLOAD SWAP1 POP SWAP2 SWAP1 POP JUMP JUMPDEST PUSH1 0x0 DUP2 SWAP1 POP PUSH1 0x20 DUP3 ADD SWAP1 POP SWAP2 SWAP1 POP JUMP JUMPDEST PUSH1 0x0 PUSH2 0x168C DUP3 MLOAD PUSH2 0xEB3 JUMP JUMPDEST DUP1 SWAP2 POP POP SWAP2 SWAP1 POP JUMP JUMPDEST PUSH1 0x0 DUP3 DUP3 SHL SWAP1 POP SWAP3 SWAP2 POP POP JUMP JUMPDEST PUSH1 0x0 PUSH2 0x16AD DUP3 PUSH2 0x1665 JUMP JUMPDEST DUP3 PUSH2 0x16B7 DUP5 PUSH2 0x1670 JUMP JUMPDEST SWAP1 POP PUSH2 0x16C2 DUP2 PUSH2 0x1680 JUMP JUMPDEST SWAP3 POP PUSH1 0x20 DUP3 LT ISZERO PUSH2 0x1702 JUMPI PUSH2 0x16FD PUSH32 0xFFFFFFFFFFFFFFFFFFFFFFFFFFFFFFFFFFFFFFFFFFFFFFFFFFFFFFFFFFFFFFFF DUP4 PUSH1 0x20 SUB PUSH1 0x8 MUL PUSH2 0x1695 JUMP JUMPDEST DUP4 AND SWAP3 POP JUMPDEST POP POP SWAP2 SWAP1 POP JUMP JUMPDEST PUSH1 0x0 PUSH2 0x1714 DUP3 PUSH2 0xE7F JUMP JUMPDEST SWAP2 POP PUSH2 0x171F DUP4 PUSH2 0xE7F JUMP JUMPDEST SWAP3 POP DUP3 DUP3 LT ISZERO PUSH2 0x1732 JUMPI PUSH2 0x1731 PUSH2 0x13E1 JUMP JUMPDEST JUMPDEST DUP3 DUP3 SUB SWAP1 POP SWAP3 SWAP2 POP POP JUMP JUMPDEST PUSH1 0x0 DUP2 SWAP1 POP SWAP2 SWAP1 POP JUMP JUMPDEST PUSH2 0x1758 PUSH2 0x1753 DUP3 PUSH2 0xEB3 JUMP JUMPDEST PUSH2 0x173D JUMP JUMPDEST DUP3 MSTORE POP POP JUMP JUMPDEST PUSH1 0x0 PUSH2 0x176A DUP3 DUP5 PUSH2 0x1747 JUMP JUMPDEST PUSH1 0x20 DUP3 ADD SWAP2 POP DUP2 SWAP1 POP SWAP3 SWAP2 POP POP JUMP JUMPDEST PUSH1 0x0 DUP2 SWAP1 POP SWAP3 SWAP2 POP POP JUMP JUMPDEST PUSH1 0x0 PUSH2 0x178F DUP3 PUSH2 0x1665 JUMP JUMPDEST PUSH2 0x1799 DUP2 DUP6 PUSH2 0x1779 JUMP JUMPDEST SWAP4 POP PUSH2 0x17A9 DUP2 DUP6 PUSH1 0x20 DUP7 ADD PUSH2 0xD84 JUMP JUMPDEST DUP1 DUP5 ADD SWAP2 POP POP SWAP3 SWAP2 POP POP JUMP JUMPDEST PUSH1 0x0 PUSH2 0x17C1 DUP3 DUP5 PUSH2 0x1784 JUMP JUMPDEST SWAP2 POP DUP2 SWAP1 POP SWAP3 SWAP2 POP POP JUMP JUMPDEST PUSH1 0x0 DUP2 MLOAD SWAP1 POP PUSH2 0x17DB DUP2 PUSH2 0x11B0 JUMP JUMPDEST SWAP3 SWAP2 POP POP JUMP JUMPDEST PUSH1 0x0 PUSH1 0x20 DUP3 DUP5 SUB SLT ISZERO PUSH2 0x17F7 JUMPI PUSH2 0x17F6 PUSH2 0xF27 JUMP JUMPDEST JUMPDEST PUSH1 0x0 PUSH2 0x1805 DUP5 DUP3 DUP6 ADD PUSH2 0x17CC JUMP JUMPDEST SWAP2 POP POP SWAP3 SWAP2 POP POP JUMP JUMPDEST PUSH1 0x0 PUSH2 0x1819 DUP3 PUSH2 0xE7F JUMP JUMPDEST SWAP2 POP PUSH1 0x0 DUP3 EQ ISZERO PUSH2 0x182D JUMPI PUSH2 0x182C PUSH2 0x13E1 JUMP JUMPDEST JUMPDEST PUSH1 0x1 DUP3 SUB SWAP1 POP SWAP2 SWAP1 POP JUMP JUMPDEST PUSH32 0x575F6B6D20697320696E636F7272656374000000000000000000000000000000 PUSH1 0x0 DUP3 ADD MSTORE POP JUMP JUMPDEST PUSH1 0x0 PUSH2 0x186E PUSH1 0x11 DUP4 PUSH2 0xD73 JUMP JUMPDEST SWAP2 POP PUSH2 0x1879 DUP3 PUSH2 0x1838 JUMP JUMPDEST PUSH1 0x20 DUP3 ADD SWAP1 POP SWAP2 SWAP1 POP JUMP JUMPDEST PUSH1 0x0 PUSH1 0x20 DUP3 ADD SWAP1 POP DUP2 DUP2 SUB PUSH1 0x0 DUP4 ADD MSTORE PUSH2 0x189D DUP2 PUSH2 0x1861 JUMP JUMPDEST SWAP1 POP SWAP2 SWAP1 POP JUMP JUMPDEST PUSH32 0x575F6B6320697320696E636F7272656374000000000000000000000000000000 PUSH1 0x0 DUP3 ADD MSTORE POP JUMP JUMPDEST PUSH1 0x0 PUSH2 0x18DA PUSH1 0x11 DUP4 PUSH2 0xD73 JUMP JUMPDEST SWAP2 POP PUSH2 0x18E5 DUP3 PUSH2 0x18A4 JUMP JUMPDEST PUSH1 0x20 DUP3 ADD SWAP1 POP SWAP2 SWAP1 POP JUMP JUMPDEST PUSH1 0x0 PUSH1 0x20 DUP3 ADD SWAP1 POP DUP2 DUP2 SUB PUSH1 0x0 DUP4 ADD MSTORE PUSH2 0x1909 DUP2 PUSH2 0x18CD JUMP JUMPDEST SWAP1 POP SWAP2 SWAP1 POP JUMP JUMPDEST PUSH32 0x4E487B7100000000000000000000000000000000000000000000000000000000 PUSH1 0x0 MSTORE PUSH1 0x12 PUSH1 0x4 MSTORE PUSH1 0x24 PUSH1 0x0 REVERT JUMPDEST PUSH1 0x0 PUSH2 0x194A DUP3 PUSH2 0xE7F JUMP JUMPDEST SWAP2 POP PUSH2 0x1955 DUP4 PUSH2 0xE7F JUMP JUMPDEST SWAP3 POP DUP3 PUSH2 0x1965 JUMPI PUSH2 0x1964 PUSH2 0x1910 JUMP JUMPDEST JUMPDEST DUP3 DUP3 MOD SWAP1 POP SWAP3 SWAP2 POP POP JUMP JUMPDEST PUSH1 0x0 PUSH2 0x197B DUP3 PUSH2 0xE7F JUMP JUMPDEST SWAP2 POP PUSH2 0x1986 DUP4 PUSH2 0xE7F JUMP JUMPDEST SWAP3 POP DUP3 PUSH2 0x1996 JUMPI PUSH2 0x1995 PUSH2 0x1910 JUMP JUMPDEST JUMPDEST DUP3 DUP3 DIV SWAP1 POP SWAP3 SWAP2 POP POP JUMP JUMPDEST POP JUMP JUMPDEST PUSH1 0x0 PUSH2 0x19B1 PUSH1 0x0 DUP4 PUSH2 0x1779 JUMP JUMPDEST SWAP2 POP PUSH2 0x19BC DUP3 PUSH2 0x19A1 JUMP JUMPDEST PUSH1 0x0 DUP3 ADD SWAP1 POP SWAP2 SWAP1 POP JUMP JUMPDEST PUSH1 0x0 PUSH2 0x19D2 DUP3 PUSH2 0x19A4 JUMP JUMPDEST SWAP2 POP DUP2 SWAP1 POP SWAP2 SWAP1 POP JUMP INVALID LOG2 PUSH5 0x6970667358 0x22 SLT KECCAK256 PUSH20 0xBCF0D2647B2E9E7A5D0F4C46782A20EAE6B8D489 0x5F 0xC7 0xC2 0xAE 0xA6 0xD1 0xA8 0xD2 0xAE LOG2 0xB3 PUSH5 0x736F6C6343 STOP ADDMOD MULMOD STOP CALLER "
    },
    "gasEstimates": {
      "creation": {
        "codeDepositCost": "1334800",
        "executionCost": "25657",
        "totalCost": "1360457"
      },
      "external": {
        "": "175",
        "S_id()": "infinite",
        "TD()": "2474",
        "TR()": "2452",
        "T_exp()": "2517",
        "W_jc()": "2474",
        "W_jm()": "2452",
        "c()": "2451",
        "channelClose()": "infinite",
        "customer()": "2582",
        "initialize(uint256,uint256,address)": "infinite",
        "isBase()": "2560",
        "j()": "2518",
        "setChannelParams(bytes32,bytes32,string,uint256,uint256,uint256,uint256,uint256)": "infinite",
        "transferDeposit(bytes,bytes,uint256,address)": "infinite",
        "v()": "2496"
      }
    },
    "methodIdentifiers": {
      "S_id()": "24763493",
      "TD()": "9c21a9b8",
      "TR()": "34133df9",
      "T_exp()": "f493e870",
      "W_jc()": "5e650318",
      "W_jm()": "88bf1930",
      "c()": "c3da42b8",
      "channelClose()": "0482ff76",
      "customer()": "2804b2c0",
      "initialize(uint256,uint256,address)": "a6ab36f2",
      "isBase()": "7f80069a",
      "j()": "b582ec5f",
      "setChannelParams(bytes32,bytes32,string,uint256,uint256,uint256,uint256,uint256)": "e8de68cc",
      "transferDeposit(bytes,bytes,uint256,address)": "d8befbb6",
      "v()": "7c2efcba"
    }
  },
  "storageLayout": {
    "storage": [
      {
        "astId": 152,
        "contract": "channel.sol:channel",
        "label": "j",
        "offset": 0,
        "slot": "0",
        "type": "t_uint256"
      },
      {
        "astId": 154,
        "contract": "channel.sol:channel",
        "label": "customer",
        "offset": 0,
        "slot": "1",
        "type": "t_address"
      },
      {
        "astId": 156,
        "contract": "channel.sol:channel",
        "label": "W_jm",
        "offset": 0,
        "slot": "2",
        "type": "t_bytes32"
      },
      {
        "astId": 158,
        "contract": "channel.sol:channel",
        "label": "W_jc",
        "offset": 0,
        "slot": "3",
        "type": "t_bytes32"
      },
      {
        "astId": 160,
        "contract": "channel.sol:channel",
        "label": "S_id",
        "offset": 0,
        "slot": "4",
        "type": "t_string_storage"
      },
      {
        "astId": 162,
        "contract": "channel.sol:channel",
        "label": "c",
        "offset": 0,
        "slot": "5",
        "type": "t_uint256"
      },
      {
        "astId": 164,
        "contract": "channel.sol:channel",
        "label": "v",
        "offset": 0,
        "slot": "6",
        "type": "t_uint256"
      },
      {
        "astId": 166,
        "contract": "channel.sol:channel",
        "label": "T_exp",
        "offset": 0,
        "slot": "7",
        "type": "t_uint256"
      },
      {
        "astId": 168,
        "contract": "channel.sol:channel",
        "label": "TD",
        "offset": 0,
        "slot": "8",
        "type": "t_uint256"
      },
      {
        "astId": 170,
        "contract": "channel.sol:channel",
        "label": "TR",
        "offset": 0,
        "slot": "9",
        "type": "t_uint256"
      },
      {
        "astId": 172,
        "contract": "channel.sol:channel",
        "label": "isBase",
        "offset": 0,
        "slot": "10",
        "type": "t_bool"
      }
    ],
    "types": {
      "t_address": {
        "encoding": "inplace",
        "label": "address",
        "numberOfBytes": "20"
      },
      "t_bool": {
        "encoding": "inplace",
        "label": "bool",
        "numberOfBytes": "1"
      },
      "t_bytes32": {
        "encoding": "inplace",
        "label": "bytes32",
        "numberOfBytes": "32"
      },
      "t_string_storage": {
        "encoding": "bytes",
        "label": "string",
        "numberOfBytes": "32"
      },
      "t_uint256": {
        "encoding": "inplace",
        "label": "uint256",
        "numberOfBytes": "32"
      }
    }
  },
  "userdoc": {
    "kind": "user",
    "methods": {},
    "version": 1
  }
}