{
  "abi": [
    {
      "inputs": [],
      "stateMutability": "nonpayable",
      "type": "constructor"
    },
    {
      "stateMutability": "payable",
      "type": "fallback"
    },
    {
      "inputs": [],
      "name": "S_id",
      "outputs": [
        {
          "internalType": "string",
          "name": "",
          "type": "string"
        }
      ],
      "stateMutability": "view",
      "type": "function"
    },
    {
      "inputs": [],
      "name": "TD",
      "outputs": [
        {
          "internalType": "uint256",
          "name": "",
          "type": "uint256"
        }
      ],
      "stateMutability": "view",
      "type": "function"
    },
    {
      "inputs": [],
      "name": "TR",
      "outputs": [
        {
          "internalType": "uint256",
          "name": "",
          "type": "uint256"
        }
      ],
      "stateMutability": "view",
      "type": "function"
    },
    {
      "inputs": [],
      "name": "T_exp",
      "outputs": [
        {
          "internalType": "uint256",
          "name": "",
          "type": "uint256"
        }
      ],
      "stateMutability": "view",
      "type": "function"
    },
    {
      "inputs": [],
      "name": "W_jc",
      "outputs": [
        {
          "internalType": "bytes32",
          "name": "",
          "type": "bytes32"
        }
      ],
      "stateMutability": "view",
      "type": "function"
    },
    {
      "inputs": [],
      "name": "W_jm",
      "outputs": [
        {
          "internalType": "bytes32",
          "name": "",
          "type": "bytes32"
        }
      ],
      "stateMutability": "view",
      "type": "function"
    },
    {
      "inputs": [],
      "name": "c",
      "outputs": [
        {
          "internalType": "uint256",
          "name": "",
          "type": "uint256"
        }
      ],
      "stateMutability": "view",
      "type": "function"
    },
    {
      "inputs": [
        {
          "internalType": "address",
          "name": "refundAddress",
          "type": "address"
        }
      ],
      "name": "channelClose",
      "outputs": [],
      "stateMutability": "payable",
      "type": "function"
    },
    {
      "inputs": [],
      "name": "customer",
      "outputs": [
        {
          "internalType": "address",
          "name": "",
          "type": "address"
        }
      ],
      "stateMutability": "view",
      "type": "function"
    },
    {
      "inputs": [
        {
          "internalType": "uint256",
          "name": "_c",
          "type": "uint256"
        },
        {
          "internalType": "uint256",
          "name": "_v",
          "type": "uint256"
        },
        {
          "internalType": "address",
          "name": "_customer",
          "type": "address"
        },
        {
          "internalType": "bytes32",
          "name": "_W_jm",
          "type": "bytes32"
        },
        {
          "internalType": "bytes32",
          "name": "_W_jc",
          "type": "bytes32"
        },
        {
          "internalType": "string",
          "name": "_S_id",
          "type": "string"
        },
        {
          "internalType": "uint256",
          "name": "_T_exp",
          "type": "uint256"
        },
        {
          "internalType": "uint256",
          "name": "_TD",
          "type": "uint256"
        },
        {
          "internalType": "uint256",
          "name": "_TR",
          "type": "uint256"
        }
      ],
      "name": "initialize",
      "outputs": [],
      "stateMutability": "payable",
      "type": "function"
    },
    {
      "inputs": [
        {
          "internalType": "uint256",
          "name": "_c",
          "type": "uint256"
        },
        {
          "internalType": "uint256",
          "name": "_v",
          "type": "uint256"
        },
        {
          "internalType": "address",
          "name": "_customer",
          "type": "address"
        }
      ],
      "name": "initialize",
      "outputs": [],
      "stateMutability": "payable",
      "type": "function"
    },
    {
      "inputs": [],
      "name": "isBase",
      "outputs": [
        {
          "internalType": "bool",
          "name": "",
          "type": "bool"
        }
      ],
      "stateMutability": "view",
      "type": "function"
    },
    {
      "inputs": [],
      "name": "j",
      "outputs": [
        {
          "internalType": "uint256",
          "name": "",
          "type": "uint256"
        }
      ],
      "stateMutability": "view",
      "type": "function"
    },
    {
      "inputs": [
        {
          "internalType": "bytes32",
          "name": "_W_jm",
          "type": "bytes32"
        },
        {
          "internalType": "bytes32",
          "name": "_W_jc",
          "type": "bytes32"
        },
        {
          "internalType": "string",
          "name": "_S_id",
          "type": "string"
        },
        {
          "internalType": "uint256",
          "name": "_c",
          "type": "uint256"
        },
        {
          "internalType": "uint256",
          "name": "_v",
          "type": "uint256"
        },
        {
          "internalType": "uint256",
          "name": "_T_exp",
          "type": "uint256"
        },
        {
          "internalType": "uint256",
          "name": "_TD",
          "type": "uint256"
        },
        {
          "internalType": "uint256",
          "name": "_TR",
          "type": "uint256"
        }
      ],
      "name": "setChannelParams",
      "outputs": [],
      "stateMutability": "nonpayable",
      "type": "function"
    },
    {
      "inputs": [
        {
          "internalType": "bytes",
          "name": "_W_km",
          "type": "bytes"
        },
        {
          "internalType": "bytes",
          "name": "_W_kc",
          "type": "bytes"
        },
        {
          "internalType": "uint256",
          "name": "k",
          "type": "uint256"
        },
        {
          "internalType": "address",
          "name": "newChannelAddress",
          "type": "address"
        }
      ],
      "name": "transferDeposit",
      "outputs": [],
      "stateMutability": "nonpayable",
      "type": "function"
    },
    {
      "inputs": [],
      "name": "v",
      "outputs": [
        {
          "internalType": "uint256",
          "name": "",
          "type": "uint256"
        }
      ],
      "stateMutability": "view",
      "type": "function"
    },
    {
      "stateMutability": "payable",
      "type": "receive"
    }
  ],
  "devdoc": {
    "kind": "dev",
    "methods": {},
    "version": 1
  },
  "evm": {
    "assembly": "    /* \"channel.sol\":2260:7143  contract channel{... */\n  mstore(0x40, 0x80)\n    /* \"channel.sol\":2872:2980  constructor(){... */\n  callvalue\n  dup1\n  iszero\n  tag_1\n  jumpi\n  0x00\n  dup1\n  revert\ntag_1:\n  pop\n    /* \"channel.sol\":2969:2973  true */\n  0x01\n    /* \"channel.sol\":2960:2966  isBase */\n  0x0a\n  0x00\n    /* \"channel.sol\":2960:2973  isBase = true */\n  0x0100\n  exp\n  dup2\n  sload\n  dup2\n  0xff\n  mul\n  not\n  and\n  swap1\n  dup4\n  iszero\n  iszero\n  mul\n  or\n  swap1\n  sstore\n  pop\n    /* \"channel.sol\":2260:7143  contract channel{... */\n  dataSize(sub_0)\n  dup1\n  dataOffset(sub_0)\n  0x00\n  codecopy\n  0x00\n  return\nstop\n\nsub_0: assembly {\n        /* \"channel.sol\":2260:7143  contract channel{... */\n      mstore(0x40, 0x80)\n      jumpi(tag_1, lt(calldatasize, 0x04))\n      shr(0xe0, calldataload(0x00))\n      dup1\n      0x88bf1930\n      gt\n      tag_19\n      jumpi\n      dup1\n      0xc3da42b8\n      gt\n      tag_20\n      jumpi\n      dup1\n      0xc3da42b8\n      eq\n      tag_15\n      jumpi\n      dup1\n      0xd8befbb6\n      eq\n      tag_16\n      jumpi\n      dup1\n      0xe8de68cc\n      eq\n      tag_17\n      jumpi\n      dup1\n      0xf493e870\n      eq\n      tag_18\n      jumpi\n      jump(tag_2)\n    tag_20:\n      dup1\n      0x88bf1930\n      eq\n      tag_11\n      jumpi\n      dup1\n      0x9c21a9b8\n      eq\n      tag_12\n      jumpi\n      dup1\n      0xa6ab36f2\n      eq\n      tag_13\n      jumpi\n      dup1\n      0xb582ec5f\n      eq\n      tag_14\n      jumpi\n      jump(tag_2)\n    tag_19:\n      dup1\n      0x5e650318\n      gt\n      tag_21\n      jumpi\n      dup1\n      0x5e650318\n      eq\n      tag_7\n      jumpi\n      dup1\n      0x7ae9eb7e\n      eq\n      tag_8\n      jumpi\n      dup1\n      0x7c2efcba\n      eq\n      tag_9\n      jumpi\n      dup1\n      0x7f80069a\n      eq\n      tag_10\n      jumpi\n      jump(tag_2)\n    tag_21:\n      dup1\n      0x24763493\n      eq\n      tag_3\n      jumpi\n      dup1\n      0x2804b2c0\n      eq\n      tag_4\n      jumpi\n      dup1\n      0x34133df9\n      eq\n      tag_5\n      jumpi\n      dup1\n      0x50b1ad6b\n      eq\n      tag_6\n      jumpi\n      jump(tag_2)\n    tag_1:\n      jumpi(tag_2, calldatasize)\n      stop\n    tag_2:\n      stop\n        /* \"channel.sol\":2594:2612  string public S_id */\n    tag_3:\n      callvalue\n      dup1\n      iszero\n      tag_26\n      jumpi\n      0x00\n      dup1\n      revert\n    tag_26:\n      pop\n      tag_27\n      tag_28\n      jump\t// in\n    tag_27:\n      mload(0x40)\n      tag_29\n      swap2\n      swap1\n      tag_30\n      jump\t// in\n    tag_29:\n      mload(0x40)\n      dup1\n      swap2\n      sub\n      swap1\n      return\n        /* \"channel.sol\":2340:2363  address public customer */\n    tag_4:\n      callvalue\n      dup1\n      iszero\n      tag_31\n      jumpi\n      0x00\n      dup1\n      revert\n    tag_31:\n      pop\n      tag_32\n      tag_33\n      jump\t// in\n    tag_32:\n      mload(0x40)\n      tag_34\n      swap2\n      swap1\n      tag_35\n      jump\t// in\n    tag_34:\n      mload(0x40)\n      dup1\n      swap2\n      sub\n      swap1\n      return\n        /* \"channel.sol\":2806:2823  uint256 public TR */\n    tag_5:\n      callvalue\n      dup1\n      iszero\n      tag_36\n      jumpi\n      0x00\n      dup1\n      revert\n    tag_36:\n      pop\n      tag_37\n      tag_38\n      jump\t// in\n    tag_37:\n      mload(0x40)\n      tag_39\n      swap2\n      swap1\n      tag_40\n      jump\t// in\n    tag_39:\n      mload(0x40)\n      dup1\n      swap2\n      sub\n      swap1\n      return\n        /* \"channel.sol\":3271:3970  function initialize(uint256 _c, uint256 _v, address _customer, bytes32 _W_jm, bytes32 _W_jc, string memory _S_id, ... */\n    tag_6:\n      tag_41\n      0x04\n      dup1\n      calldatasize\n      sub\n      dup2\n      add\n      swap1\n      tag_42\n      swap2\n      swap1\n      tag_43\n      jump\t// in\n    tag_42:\n      tag_44\n      jump\t// in\n    tag_41:\n      stop\n        /* \"channel.sol\":2475:2494  bytes32 public W_jc */\n    tag_7:\n      callvalue\n      dup1\n      iszero\n      tag_45\n      jumpi\n      0x00\n      dup1\n      revert\n    tag_45:\n      pop\n      tag_46\n      tag_47\n      jump\t// in\n    tag_46:\n      mload(0x40)\n      tag_48\n      swap2\n      swap1\n      tag_49\n      jump\t// in\n    tag_48:\n      mload(0x40)\n      dup1\n      swap2\n      sub\n      swap1\n      return\n        /* \"channel.sol\":6535:6766  function channelClose(address refundAddress) public payable onlyOwner{... */\n    tag_8:\n      tag_50\n      0x04\n      dup1\n      calldatasize\n      sub\n      dup2\n      add\n      swap1\n      tag_51\n      swap2\n      swap1\n      tag_52\n      jump\t// in\n    tag_51:\n      tag_53\n      jump\t// in\n    tag_50:\n      stop\n        /* \"channel.sol\":2681:2697  uint256 public v */\n    tag_9:\n      callvalue\n      dup1\n      iszero\n      tag_54\n      jumpi\n      0x00\n      dup1\n      revert\n    tag_54:\n      pop\n      tag_55\n      tag_56\n      jump\t// in\n    tag_55:\n      mload(0x40)\n      tag_57\n      swap2\n      swap1\n      tag_40\n      jump\t// in\n    tag_57:\n      mload(0x40)\n      dup1\n      swap2\n      sub\n      swap1\n      return\n        /* \"channel.sol\":2846:2864  bool public isBase */\n    tag_10:\n      callvalue\n      dup1\n      iszero\n      tag_58\n      jumpi\n      0x00\n      dup1\n      revert\n    tag_58:\n      pop\n      tag_59\n      tag_60\n      jump\t// in\n    tag_59:\n      mload(0x40)\n      tag_61\n      swap2\n      swap1\n      tag_62\n      jump\t// in\n    tag_61:\n      mload(0x40)\n      dup1\n      swap2\n      sub\n      swap1\n      return\n        /* \"channel.sol\":2395:2414  bytes32 public W_jm */\n    tag_11:\n      callvalue\n      dup1\n      iszero\n      tag_63\n      jumpi\n      0x00\n      dup1\n      revert\n    tag_63:\n      pop\n      tag_64\n      tag_65\n      jump\t// in\n    tag_64:\n      mload(0x40)\n      tag_66\n      swap2\n      swap1\n      tag_49\n      jump\t// in\n    tag_66:\n      mload(0x40)\n      dup1\n      swap2\n      sub\n      swap1\n      return\n        /* \"channel.sol\":2766:2783  uint256 public TD */\n    tag_12:\n      callvalue\n      dup1\n      iszero\n      tag_67\n      jumpi\n      0x00\n      dup1\n      revert\n    tag_67:\n      pop\n      tag_68\n      tag_69\n      jump\t// in\n    tag_68:\n      mload(0x40)\n      tag_70\n      swap2\n      swap1\n      tag_40\n      jump\t// in\n    tag_70:\n      mload(0x40)\n      dup1\n      swap2\n      sub\n      swap1\n      return\n        /* \"channel.sol\":2986:3265  function initialize(uint256 _c, uint256 _v, address _customer) external payable{... */\n    tag_13:\n      tag_71\n      0x04\n      dup1\n      calldatasize\n      sub\n      dup2\n      add\n      swap1\n      tag_72\n      swap2\n      swap1\n      tag_73\n      jump\t// in\n    tag_72:\n      tag_74\n      jump\t// in\n    tag_71:\n      stop\n        /* \"channel.sol\":2318:2334  uint256 public j */\n    tag_14:\n      callvalue\n      dup1\n      iszero\n      tag_75\n      jumpi\n      0x00\n      dup1\n      revert\n    tag_75:\n      pop\n      tag_76\n      tag_77\n      jump\t// in\n    tag_76:\n      mload(0x40)\n      tag_78\n      swap2\n      swap1\n      tag_40\n      jump\t// in\n    tag_78:\n      mload(0x40)\n      dup1\n      swap2\n      sub\n      swap1\n      return\n        /* \"channel.sol\":2639:2655  uint256 public c */\n    tag_15:\n      callvalue\n      dup1\n      iszero\n      tag_79\n      jumpi\n      0x00\n      dup1\n      revert\n    tag_79:\n      pop\n      tag_80\n      tag_81\n      jump\t// in\n    tag_80:\n      mload(0x40)\n      tag_82\n      swap2\n      swap1\n      tag_40\n      jump\t// in\n    tag_82:\n      mload(0x40)\n      dup1\n      swap2\n      sub\n      swap1\n      return\n        /* \"channel.sol\":4791:6372  function transferDeposit(bytes memory _W_km, bytes memory _W_kc, uint256 k, address newChannelAddress) public {... */\n    tag_16:\n      callvalue\n      dup1\n      iszero\n      tag_83\n      jumpi\n      0x00\n      dup1\n      revert\n    tag_83:\n      pop\n      tag_84\n      0x04\n      dup1\n      calldatasize\n      sub\n      dup2\n      add\n      swap1\n      tag_85\n      swap2\n      swap1\n      tag_86\n      jump\t// in\n    tag_85:\n      tag_87\n      jump\t// in\n    tag_84:\n      stop\n        /* \"channel.sol\":4024:4588  function setChannelParams(bytes32 _W_jm, bytes32 _W_jc, string memory _S_id, uint256 _c, uint256 _v, uint256 _T_exp, uint256 _TD, uint256 _TR) public onlyOwner {... */\n    tag_17:\n      callvalue\n      dup1\n      iszero\n      tag_88\n      jumpi\n      0x00\n      dup1\n      revert\n    tag_88:\n      pop\n      tag_89\n      0x04\n      dup1\n      calldatasize\n      sub\n      dup2\n      add\n      swap1\n      tag_90\n      swap2\n      swap1\n      tag_91\n      jump\t// in\n    tag_90:\n      tag_92\n      jump\t// in\n    tag_89:\n      stop\n        /* \"channel.sol\":2722:2742  uint256 public T_exp */\n    tag_18:\n      callvalue\n      dup1\n      iszero\n      tag_93\n      jumpi\n      0x00\n      dup1\n      revert\n    tag_93:\n      pop\n      tag_94\n      tag_95\n      jump\t// in\n    tag_94:\n      mload(0x40)\n      tag_96\n      swap2\n      swap1\n      tag_40\n      jump\t// in\n    tag_96:\n      mload(0x40)\n      dup1\n      swap2\n      sub\n      swap1\n      return\n        /* \"channel.sol\":2594:2612  string public S_id */\n    tag_28:\n      0x04\n      dup1\n      sload\n      tag_97\n      swap1\n      tag_98\n      jump\t// in\n    tag_97:\n      dup1\n      0x1f\n      add\n      0x20\n      dup1\n      swap2\n      div\n      mul\n      0x20\n      add\n      mload(0x40)\n      swap1\n      dup2\n      add\n      0x40\n      mstore\n      dup1\n      swap3\n      swap2\n      swap1\n      dup2\n      dup2\n      mstore\n      0x20\n      add\n      dup3\n      dup1\n      sload\n      tag_99\n      swap1\n      tag_98\n      jump\t// in\n    tag_99:\n      dup1\n      iszero\n      tag_100\n      jumpi\n      dup1\n      0x1f\n      lt\n      tag_101\n      jumpi\n      0x0100\n      dup1\n      dup4\n      sload\n      div\n      mul\n      dup4\n      mstore\n      swap2\n      0x20\n      add\n      swap2\n      jump(tag_100)\n    tag_101:\n      dup3\n      add\n      swap2\n      swap1\n      0x00\n      mstore\n      keccak256(0x00, 0x20)\n      swap1\n    tag_102:\n      dup2\n      sload\n      dup2\n      mstore\n      swap1\n      0x01\n      add\n      swap1\n      0x20\n      add\n      dup1\n      dup4\n      gt\n      tag_102\n      jumpi\n      dup3\n      swap1\n      sub\n      0x1f\n      and\n      dup3\n      add\n      swap2\n    tag_100:\n      pop\n      pop\n      pop\n      pop\n      pop\n      dup2\n      jump\t// out\n        /* \"channel.sol\":2340:2363  address public customer */\n    tag_33:\n      0x01\n      0x00\n      swap1\n      sload\n      swap1\n      0x0100\n      exp\n      swap1\n      div\n      0xffffffffffffffffffffffffffffffffffffffff\n      and\n      dup2\n      jump\t// out\n        /* \"channel.sol\":2806:2823  uint256 public TR */\n    tag_38:\n      sload(0x09)\n      dup2\n      jump\t// out\n        /* \"channel.sol\":3271:3970  function initialize(uint256 _c, uint256 _v, address _customer, bytes32 _W_jm, bytes32 _W_jc, string memory _S_id, ... */\n    tag_44:\n        /* \"channel.sol\":3476:3481  false */\n      0x00\n        /* \"channel.sol\":3466:3481  isBase == false */\n      iszero\n      iszero\n        /* \"channel.sol\":3466:3472  isBase */\n      0x0a\n      0x00\n      swap1\n      sload\n      swap1\n      0x0100\n      exp\n      swap1\n      div\n      0xff\n      and\n        /* \"channel.sol\":3466:3481  isBase == false */\n      iszero\n      iszero\n      eq\n        /* \"channel.sol\":3458:3482  require(isBase == false) */\n      tag_104\n      jumpi\n      0x00\n      dup1\n      revert\n    tag_104:\n        /* \"channel.sol\":3516:3518  _v */\n      dup8\n        /* \"channel.sol\":3513:3515  _c */\n      dup10\n        /* \"channel.sol\":3513:3518  _c*_v */\n      tag_105\n      swap2\n      swap1\n      tag_106\n      jump\t// in\n    tag_105:\n        /* \"channel.sol\":3500:3509  msg.value */\n      callvalue\n        /* \"channel.sol\":3500:3518  msg.value == _c*_v */\n      eq\n        /* \"channel.sol\":3492:3536  require(msg.value == _c*_v, 'balance error') */\n      tag_107\n      jumpi\n      mload(0x40)\n      0x08c379a000000000000000000000000000000000000000000000000000000000\n      dup2\n      mstore\n      0x04\n      add\n      tag_108\n      swap1\n      tag_109\n      jump\t// in\n    tag_108:\n      mload(0x40)\n      dup1\n      swap2\n      sub\n      swap1\n      revert\n    tag_107:\n        /* \"channel.sol\":3564:3565  0 */\n      0x00\n        /* \"channel.sol\":3555:3560  T_exp */\n      sload(0x07)\n        /* \"channel.sol\":3555:3565  T_exp == 0 */\n      eq\n        /* \"channel.sol\":3555:3576  T_exp == 0 && TD == 0 */\n      dup1\n      iszero\n      tag_110\n      jumpi\n      pop\n        /* \"channel.sol\":3575:3576  0 */\n      0x00\n        /* \"channel.sol\":3569:3571  TD */\n      sload(0x08)\n        /* \"channel.sol\":3569:3576  TD == 0 */\n      eq\n        /* \"channel.sol\":3555:3576  T_exp == 0 && TD == 0 */\n    tag_110:\n        /* \"channel.sol\":3555:3587  T_exp == 0 && TD == 0 && TR == 0 */\n      dup1\n      iszero\n      tag_111\n      jumpi\n      pop\n        /* \"channel.sol\":3586:3587  0 */\n      0x00\n        /* \"channel.sol\":3580:3582  TR */\n      sload(0x09)\n        /* \"channel.sol\":3580:3587  TR == 0 */\n      eq\n        /* \"channel.sol\":3555:3587  T_exp == 0 && TD == 0 && TR == 0 */\n    tag_111:\n        /* \"channel.sol\":3555:3621  T_exp == 0 && TD == 0 && TR == 0 && (T_exp + TD) < block.timestamp */\n      dup1\n      iszero\n      tag_112\n      jumpi\n      pop\n        /* \"channel.sol\":3606:3621  block.timestamp */\n      timestamp\n        /* \"channel.sol\":3600:3602  TD */\n      sload(0x08)\n        /* \"channel.sol\":3592:3597  T_exp */\n      sload(0x07)\n        /* \"channel.sol\":3592:3602  T_exp + TD */\n      tag_113\n      swap2\n      swap1\n      tag_114\n      jump\t// in\n    tag_113:\n        /* \"channel.sol\":3591:3621  (T_exp + TD) < block.timestamp */\n      lt\n        /* \"channel.sol\":3555:3621  T_exp == 0 && TD == 0 && TR == 0 && (T_exp + TD) < block.timestamp */\n    tag_112:\n        /* \"channel.sol\":3554:3708  (T_exp == 0 && TD == 0 && TR == 0 && (T_exp + TD) < block.timestamp) || ((T_exp + TD) < block.timestamp ... */\n      dup1\n      tag_115\n      jumpi\n      pop\n        /* \"channel.sol\":3642:3657  block.timestamp */\n      timestamp\n        /* \"channel.sol\":3636:3638  TD */\n      sload(0x08)\n        /* \"channel.sol\":3628:3633  T_exp */\n      sload(0x07)\n        /* \"channel.sol\":3628:3638  T_exp + TD */\n      tag_116\n      swap2\n      swap1\n      tag_114\n      jump\t// in\n    tag_116:\n        /* \"channel.sol\":3627:3657  (T_exp + TD) < block.timestamp */\n      lt\n        /* \"channel.sol\":3627:3707  (T_exp + TD) < block.timestamp ... */\n      dup1\n      iszero\n      tag_117\n      jumpi\n      pop\n        /* \"channel.sol\":3703:3705  TR */\n      sload(0x09)\n        /* \"channel.sol\":3698:3700  TD */\n      sload(0x08)\n        /* \"channel.sol\":3690:3695  T_exp */\n      sload(0x07)\n        /* \"channel.sol\":3690:3700  T_exp + TD */\n      tag_118\n      swap2\n      swap1\n      tag_114\n      jump\t// in\n    tag_118:\n        /* \"channel.sol\":3690:3705  T_exp + TD + TR */\n      tag_119\n      swap2\n      swap1\n      tag_114\n      jump\t// in\n    tag_119:\n        /* \"channel.sol\":3671:3686  block.timestamp */\n      timestamp\n        /* \"channel.sol\":3671:3706  block.timestamp < (T_exp + TD + TR) */\n      lt\n        /* \"channel.sol\":3627:3707  (T_exp + TD) < block.timestamp ... */\n    tag_117:\n        /* \"channel.sol\":3554:3708  (T_exp == 0 && TD == 0 && TR == 0 && (T_exp + TD) < block.timestamp) || ((T_exp + TD) < block.timestamp ... */\n    tag_115:\n        /* \"channel.sol\":3546:3709  require((T_exp == 0 && TD == 0 && TR == 0 && (T_exp + TD) < block.timestamp) || ((T_exp + TD) < block.timestamp ... */\n      tag_120\n      jumpi\n      0x00\n      dup1\n      revert\n    tag_120:\n        /* \"channel.sol\":3739:3748  _customer */\n      dup7\n        /* \"channel.sol\":3728:3736  customer */\n      0x01\n      0x00\n        /* \"channel.sol\":3728:3748  customer = _customer */\n      0x0100\n      exp\n      dup2\n      sload\n      dup2\n      0xffffffffffffffffffffffffffffffffffffffff\n      mul\n      not\n      and\n      swap1\n      dup4\n      0xffffffffffffffffffffffffffffffffffffffff\n      and\n      mul\n      or\n      swap1\n      sstore\n      pop\n        /* \"channel.sol\":3762:3764  _c */\n      dup9\n        /* \"channel.sol\":3758:3759  c */\n      0x05\n        /* \"channel.sol\":3758:3764  c = _c */\n      dup2\n      swap1\n      sstore\n      pop\n        /* \"channel.sol\":3778:3780  _v */\n      dup8\n        /* \"channel.sol\":3774:3775  v */\n      0x06\n        /* \"channel.sol\":3774:3780  v = _v */\n      dup2\n      swap1\n      sstore\n      pop\n        /* \"channel.sol\":3795:3796  0 */\n      0x00\n        /* \"channel.sol\":3791:3792  j */\n      dup1\n        /* \"channel.sol\":3791:3796  j = 0 */\n      dup2\n      swap1\n      sstore\n      pop\n        /* \"channel.sol\":3822:3827  _W_jm */\n      dup6\n        /* \"channel.sol\":3815:3819  W_jm */\n      0x02\n        /* \"channel.sol\":3815:3827  W_jm = _W_jm */\n      dup2\n      swap1\n      sstore\n      pop\n        /* \"channel.sol\":3844:3849  _W_jc */\n      dup5\n        /* \"channel.sol\":3837:3841  W_jc */\n      0x03\n        /* \"channel.sol\":3837:3849  W_jc = _W_jc */\n      dup2\n      swap1\n      sstore\n      pop\n        /* \"channel.sol\":3866:3871  _S_id */\n      dup4\n        /* \"channel.sol\":3859:3863  S_id */\n      0x04\n        /* \"channel.sol\":3859:3871  S_id = _S_id */\n      swap1\n      dup2\n      tag_121\n      swap2\n      swap1\n      tag_122\n      jump\t// in\n    tag_121:\n      pop\n        /* \"channel.sol\":3885:3887  _c */\n      dup9\n        /* \"channel.sol\":3881:3882  c */\n      0x05\n        /* \"channel.sol\":3881:3887  c = _c */\n      dup2\n      swap1\n      sstore\n      pop\n        /* \"channel.sol\":3901:3903  _v */\n      dup8\n        /* \"channel.sol\":3897:3898  v */\n      0x06\n        /* \"channel.sol\":3897:3903  v = _v */\n      dup2\n      swap1\n      sstore\n      pop\n        /* \"channel.sol\":3921:3927  _T_exp */\n      dup3\n        /* \"channel.sol\":3913:3918  T_exp */\n      0x07\n        /* \"channel.sol\":3913:3927  T_exp = _T_exp */\n      dup2\n      swap1\n      sstore\n      pop\n        /* \"channel.sol\":3942:3945  _TD */\n      dup2\n        /* \"channel.sol\":3937:3939  TD */\n      0x08\n        /* \"channel.sol\":3937:3945  TD = _TD */\n      dup2\n      swap1\n      sstore\n      pop\n        /* \"channel.sol\":3960:3963  _TR */\n      dup1\n        /* \"channel.sol\":3955:3957  TR */\n      0x09\n        /* \"channel.sol\":3955:3963  TR = _TR */\n      dup2\n      swap1\n      sstore\n      pop\n        /* \"channel.sol\":3271:3970  function initialize(uint256 _c, uint256 _v, address _customer, bytes32 _W_jm, bytes32 _W_jc, string memory _S_id, ... */\n      pop\n      pop\n      pop\n      pop\n      pop\n      pop\n      pop\n      pop\n      pop\n      jump\t// out\n        /* \"channel.sol\":2475:2494  bytes32 public W_jc */\n    tag_47:\n      sload(0x03)\n      dup2\n      jump\t// out\n        /* \"channel.sol\":6535:6766  function channelClose(address refundAddress) public payable onlyOwner{... */\n    tag_53:\n        /* \"channel.sol\":7053:7061  customer */\n      0x01\n      0x00\n      swap1\n      sload\n      swap1\n      0x0100\n      exp\n      swap1\n      div\n      0xffffffffffffffffffffffffffffffffffffffff\n      and\n        /* \"channel.sol\":7039:7061  msg.sender == customer */\n      0xffffffffffffffffffffffffffffffffffffffff\n      and\n        /* \"channel.sol\":7039:7049  msg.sender */\n      caller\n        /* \"channel.sol\":7039:7061  msg.sender == customer */\n      0xffffffffffffffffffffffffffffffffffffffff\n      and\n      eq\n        /* \"channel.sol\":7030:7123  require (msg.sender == customer, \"Only customer of the delivery can set the channel params.\") */\n      tag_124\n      jumpi\n      mload(0x40)\n      0x08c379a000000000000000000000000000000000000000000000000000000000\n      dup2\n      mstore\n      0x04\n      add\n      tag_125\n      swap1\n      tag_126\n      jump\t// in\n    tag_125:\n      mload(0x40)\n      dup1\n      swap2\n      sub\n      swap1\n      revert\n    tag_124:\n        /* \"channel.sol\":6681:6696  block.timestamp */\n      timestamp\n        /* \"channel.sol\":6676:6678  TD */\n      sload(0x08)\n        /* \"channel.sol\":6668:6673  T_exp */\n      sload(0x07)\n        /* \"channel.sol\":6668:6678  T_exp + TD */\n      tag_128\n      swap2\n      swap1\n      tag_114\n      jump\t// in\n    tag_128:\n        /* \"channel.sol\":6668:6696  T_exp + TD < block.timestamp */\n      lt\n        /* \"channel.sol\":6659:6712  require((T_exp + TD < block.timestamp), \"Time error\") */\n      tag_129\n      jumpi\n      mload(0x40)\n      0x08c379a000000000000000000000000000000000000000000000000000000000\n      dup2\n      mstore\n      0x04\n      add\n      tag_130\n      swap1\n      tag_131\n      jump\t// in\n    tag_130:\n      mload(0x40)\n      dup1\n      swap2\n      sub\n      swap1\n      revert\n    tag_129:\n        /* \"channel.sol\":6744:6757  refundAddress */\n      dup1\n        /* \"channel.sol\":6723:6759  selfdestruct(payable(refundAddress)) */\n      0xffffffffffffffffffffffffffffffffffffffff\n      and\n      selfdestruct\n        /* \"channel.sol\":2681:2697  uint256 public v */\n    tag_56:\n      sload(0x06)\n      dup2\n      jump\t// out\n        /* \"channel.sol\":2846:2864  bool public isBase */\n    tag_60:\n      0x0a\n      0x00\n      swap1\n      sload\n      swap1\n      0x0100\n      exp\n      swap1\n      div\n      0xff\n      and\n      dup2\n      jump\t// out\n        /* \"channel.sol\":2395:2414  bytes32 public W_jm */\n    tag_65:\n      sload(0x02)\n      dup2\n      jump\t// out\n        /* \"channel.sol\":2766:2783  uint256 public TD */\n    tag_69:\n      sload(0x08)\n      dup2\n      jump\t// out\n        /* \"channel.sol\":2986:3265  function initialize(uint256 _c, uint256 _v, address _customer) external payable{... */\n    tag_74:\n        /* \"channel.sol\":3093:3098  false */\n      0x00\n        /* \"channel.sol\":3083:3098  isBase == false */\n      iszero\n      iszero\n        /* \"channel.sol\":3083:3089  isBase */\n      0x0a\n      0x00\n      swap1\n      sload\n      swap1\n      0x0100\n      exp\n      swap1\n      div\n      0xff\n      and\n        /* \"channel.sol\":3083:3098  isBase == false */\n      iszero\n      iszero\n      eq\n        /* \"channel.sol\":3075:3099  require(isBase == false) */\n      tag_133\n      jumpi\n      0x00\n      dup1\n      revert\n    tag_133:\n        /* \"channel.sol\":3120:3129  _customer */\n      dup1\n        /* \"channel.sol\":3109:3117  customer */\n      0x01\n      0x00\n        /* \"channel.sol\":3109:3129  customer = _customer */\n      0x0100\n      exp\n      dup2\n      sload\n      dup2\n      0xffffffffffffffffffffffffffffffffffffffff\n      mul\n      not\n      and\n      swap1\n      dup4\n      0xffffffffffffffffffffffffffffffffffffffff\n      and\n      mul\n      or\n      swap1\n      sstore\n      pop\n        /* \"channel.sol\":3143:3145  _c */\n      dup3\n        /* \"channel.sol\":3139:3140  c */\n      0x05\n        /* \"channel.sol\":3139:3145  c = _c */\n      dup2\n      swap1\n      sstore\n      pop\n        /* \"channel.sol\":3159:3161  _v */\n      dup2\n        /* \"channel.sol\":3155:3156  v */\n      0x06\n        /* \"channel.sol\":3155:3161  v = _v */\n      dup2\n      swap1\n      sstore\n      pop\n        /* \"channel.sol\":3188:3189  0 */\n      0x00\n        /* \"channel.sol\":3175:3184  msg.value */\n      callvalue\n        /* \"channel.sol\":3175:3189  msg.value != 0 */\n      eq\n        /* \"channel.sol\":3172:3259  if(msg.value != 0){... */\n      tag_134\n      jumpi\n        /* \"channel.sol\":3228:3230  _v */\n      dup2\n        /* \"channel.sol\":3225:3227  _c */\n      dup4\n        /* \"channel.sol\":3225:3230  _c*_v */\n      tag_135\n      swap2\n      swap1\n      tag_106\n      jump\t// in\n    tag_135:\n        /* \"channel.sol\":3212:3221  msg.value */\n      callvalue\n        /* \"channel.sol\":3212:3230  msg.value == _c*_v */\n      eq\n        /* \"channel.sol\":3204:3248  require(msg.value == _c*_v, 'balance error') */\n      tag_136\n      jumpi\n      mload(0x40)\n      0x08c379a000000000000000000000000000000000000000000000000000000000\n      dup2\n      mstore\n      0x04\n      add\n      tag_137\n      swap1\n      tag_109\n      jump\t// in\n    tag_137:\n      mload(0x40)\n      dup1\n      swap2\n      sub\n      swap1\n      revert\n    tag_136:\n        /* \"channel.sol\":3172:3259  if(msg.value != 0){... */\n    tag_134:\n        /* \"channel.sol\":2986:3265  function initialize(uint256 _c, uint256 _v, address _customer) external payable{... */\n      pop\n      pop\n      pop\n      jump\t// out\n        /* \"channel.sol\":2318:2334  uint256 public j */\n    tag_77:\n      sload(0x00)\n      dup2\n      jump\t// out\n        /* \"channel.sol\":2639:2655  uint256 public c */\n    tag_81:\n      sload(0x05)\n      dup2\n      jump\t// out\n        /* \"channel.sol\":4791:6372  function transferDeposit(bytes memory _W_km, bytes memory _W_kc, uint256 k, address newChannelAddress) public {... */\n    tag_87:\n        /* \"channel.sol\":4948:4950  TD */\n      sload(0x08)\n        /* \"channel.sol\":4940:4945  T_exp */\n      sload(0x07)\n        /* \"channel.sol\":4940:4950  T_exp + TD */\n      tag_139\n      swap2\n      swap1\n      tag_114\n      jump\t// in\n    tag_139:\n        /* \"channel.sol\":4921:4936  block.timestamp */\n      timestamp\n        /* \"channel.sol\":4921:4951  block.timestamp < (T_exp + TD) */\n      lt\n        /* \"channel.sol\":4911:4969  require ((block.timestamp < (T_exp + TD)), \"Time error\"  ) */\n      tag_140\n      jumpi\n      mload(0x40)\n      0x08c379a000000000000000000000000000000000000000000000000000000000\n      dup2\n      mstore\n      0x04\n      add\n      tag_141\n      swap1\n      tag_131\n      jump\t// in\n    tag_141:\n      mload(0x40)\n      dup1\n      swap2\n      sub\n      swap1\n      revert\n    tag_140:\n        /* \"channel.sol\":4992:4993  j */\n      sload(0x00)\n        /* \"channel.sol\":4988:4989  k */\n      dup3\n        /* \"channel.sol\":4988:4993  k > j */\n      gt\n        /* \"channel.sol\":4979:5004  require (k > j, \"k <= j\") */\n      tag_142\n      jumpi\n      mload(0x40)\n      0x08c379a000000000000000000000000000000000000000000000000000000000\n      dup2\n      mstore\n      0x04\n      add\n      tag_143\n      swap1\n      tag_144\n      jump\t// in\n    tag_143:\n      mload(0x40)\n      dup1\n      swap2\n      sub\n      swap1\n      revert\n    tag_142:\n        /* \"channel.sol\":5027:5042  uint256 balance */\n      0x00\n        /* \"channel.sol\":5052:5066  bytes32 hash_m */\n      dup1\n        /* \"channel.sol\":5077:5082  _W_km */\n      dup6\n        /* \"channel.sol\":5069:5083  bytes32(_W_km) */\n      tag_145\n      swap1\n      tag_146\n      jump\t// in\n    tag_145:\n        /* \"channel.sol\":5052:5083  bytes32 hash_m = bytes32(_W_km) */\n      swap1\n      pop\n        /* \"channel.sol\":5093:5107  bytes32 hash_c */\n      0x00\n        /* \"channel.sol\":5118:5123  _W_kc */\n      dup6\n        /* \"channel.sol\":5110:5124  bytes32(_W_kc) */\n      tag_147\n      swap1\n      tag_146\n      jump\t// in\n    tag_147:\n        /* \"channel.sol\":5093:5124  bytes32 hash_c = bytes32(_W_kc) */\n      swap1\n      pop\n        /* \"channel.sol\":5134:5143  uint256 i */\n      0x00\n        /* \"channel.sol\":5148:5149  j */\n      dup1\n      sload\n        /* \"channel.sol\":5146:5147  k */\n      dup7\n        /* \"channel.sol\":5146:5149  k-j */\n      tag_148\n      swap2\n      swap1\n      tag_149\n      jump\t// in\n    tag_148:\n        /* \"channel.sol\":5134:5149  uint256 i = k-j */\n      swap1\n      pop\n        /* \"channel.sol\":5168:5309  for (i; i!= 0; i--){... */\n    tag_150:\n        /* \"channel.sol\":5180:5181  0 */\n      0x00\n        /* \"channel.sol\":5176:5177  i */\n      dup2\n        /* \"channel.sol\":5176:5181  i!= 0 */\n      eq\n        /* \"channel.sol\":5168:5309  for (i; i!= 0; i--){... */\n      tag_151\n      jumpi\n        /* \"channel.sol\":5210:5242  sha256(abi.encodePacked(hash_m)) */\n      0x02\n        /* \"channel.sol\":5234:5240  hash_m */\n      dup4\n        /* \"channel.sol\":5217:5241  abi.encodePacked(hash_m) */\n      add(0x20, mload(0x40))\n      tag_153\n      swap2\n      swap1\n      tag_154\n      jump\t// in\n    tag_153:\n      mload(0x40)\n      0x20\n      dup2\n      dup4\n      sub\n      sub\n      dup2\n      mstore\n      swap1\n      0x40\n      mstore\n        /* \"channel.sol\":5210:5242  sha256(abi.encodePacked(hash_m)) */\n      mload(0x40)\n      tag_155\n      swap2\n      swap1\n      tag_156\n      jump\t// in\n    tag_155:\n      0x20\n      mload(0x40)\n      dup1\n      dup4\n      sub\n      dup2\n      dup6\n      gas\n      staticcall\n      iszero\n      dup1\n      iszero\n      tag_158\n      jumpi\n      returndatasize\n      0x00\n      dup1\n      returndatacopy\n      revert(0x00, returndatasize)\n    tag_158:\n      pop\n      pop\n      pop\n      mload(0x40)\n      returndatasize\n      not(0x1f)\n      0x1f\n      dup3\n      add\n      and\n      dup3\n      add\n      dup1\n      0x40\n      mstore\n      pop\n      dup2\n      add\n      swap1\n      tag_159\n      swap2\n      swap1\n      tag_160\n      jump\t// in\n    tag_159:\n        /* \"channel.sol\":5201:5242  hash_m = sha256(abi.encodePacked(hash_m)) */\n      swap3\n      pop\n        /* \"channel.sol\":5265:5297  sha256(abi.encodePacked(hash_c)) */\n      0x02\n        /* \"channel.sol\":5289:5295  hash_c */\n      dup3\n        /* \"channel.sol\":5272:5296  abi.encodePacked(hash_c) */\n      add(0x20, mload(0x40))\n      tag_161\n      swap2\n      swap1\n      tag_154\n      jump\t// in\n    tag_161:\n      mload(0x40)\n      0x20\n      dup2\n      dup4\n      sub\n      sub\n      dup2\n      mstore\n      swap1\n      0x40\n      mstore\n        /* \"channel.sol\":5265:5297  sha256(abi.encodePacked(hash_c)) */\n      mload(0x40)\n      tag_162\n      swap2\n      swap1\n      tag_156\n      jump\t// in\n    tag_162:\n      0x20\n      mload(0x40)\n      dup1\n      dup4\n      sub\n      dup2\n      dup6\n      gas\n      staticcall\n      iszero\n      dup1\n      iszero\n      tag_164\n      jumpi\n      returndatasize\n      0x00\n      dup1\n      returndatacopy\n      revert(0x00, returndatasize)\n    tag_164:\n      pop\n      pop\n      pop\n      mload(0x40)\n      returndatasize\n      not(0x1f)\n      0x1f\n      dup3\n      add\n      and\n      dup3\n      add\n      dup1\n      0x40\n      mstore\n      pop\n      dup2\n      add\n      swap1\n      tag_165\n      swap2\n      swap1\n      tag_160\n      jump\t// in\n    tag_165:\n        /* \"channel.sol\":5256:5297  hash_c = sha256(abi.encodePacked(hash_c)) */\n      swap2\n      pop\n        /* \"channel.sol\":5183:5186  i-- */\n      dup1\n      dup1\n      tag_166\n      swap1\n      tag_167\n      jump\t// in\n    tag_166:\n      swap2\n      pop\n      pop\n        /* \"channel.sol\":5168:5309  for (i; i!= 0; i--){... */\n      jump(tag_150)\n    tag_151:\n        /* \"channel.sol\":5336:5342  hash_m */\n      dup3\n        /* \"channel.sol\":5328:5332  W_jm */\n      sload(0x02)\n        /* \"channel.sol\":5328:5342  W_jm == hash_m */\n      eq\n        /* \"channel.sol\":5319:5364  require (W_jm == hash_m, \"W_km is incorrect\") */\n      tag_168\n      jumpi\n      mload(0x40)\n      0x08c379a000000000000000000000000000000000000000000000000000000000\n      dup2\n      mstore\n      0x04\n      add\n      tag_169\n      swap1\n      tag_170\n      jump\t// in\n    tag_169:\n      mload(0x40)\n      dup1\n      swap2\n      sub\n      swap1\n      revert\n    tag_168:\n        /* \"channel.sol\":5391:5397  hash_c */\n      dup2\n        /* \"channel.sol\":5383:5387  W_jc */\n      sload(0x03)\n        /* \"channel.sol\":5383:5397  W_jc == hash_c */\n      eq\n        /* \"channel.sol\":5374:5419  require (W_jc == hash_c, \"W_kc is incorrect\") */\n      tag_171\n      jumpi\n      mload(0x40)\n      0x08c379a000000000000000000000000000000000000000000000000000000000\n      dup2\n      mstore\n      0x04\n      add\n      tag_172\n      swap1\n      tag_173\n      jump\t// in\n    tag_172:\n      mload(0x40)\n      dup1\n      swap2\n      sub\n      swap1\n      revert\n    tag_171:\n        /* \"channel.sol\":5448:5449  0 */\n      0x00\n        /* \"channel.sol\":5443:5444  2 */\n      0x02\n        /* \"channel.sol\":5441:5442  k */\n      dup8\n        /* \"channel.sol\":5441:5444  k%2 */\n      tag_174\n      swap2\n      swap1\n      tag_175\n      jump\t// in\n    tag_174:\n        /* \"channel.sol\":5441:5449  k%2 == 0 */\n      sub\n        /* \"channel.sol\":5438:6072  if(k%2 == 0){... */\n      tag_176\n      jumpi\n        /* \"channel.sol\":5481:5482  2 */\n      0x02\n        /* \"channel.sol\":5478:5479  j */\n      sload(0x00)\n        /* \"channel.sol\":5476:5477  k */\n      dup8\n        /* \"channel.sol\":5476:5479  k-j */\n      tag_177\n      swap2\n      swap1\n      tag_149\n      jump\t// in\n    tag_177:\n        /* \"channel.sol\":5475:5482  (k-j)/2 */\n      tag_178\n      swap2\n      swap1\n      tag_179\n      jump\t// in\n    tag_178:\n        /* \"channel.sol\":5464:5483  balance = ((k-j)/2) */\n      swap4\n      pop\n        /* \"channel.sol\":5501:5502  k */\n      dup6\n        /* \"channel.sol\":5497:5498  j */\n      0x00\n        /* \"channel.sol\":5497:5502  j = k */\n      dup2\n      swap1\n      sstore\n      pop\n        /* \"channel.sol\":5545:5550  _W_km */\n      dup8\n        /* \"channel.sol\":5536:5551  bytes32 (_W_km) */\n      tag_180\n      swap1\n      tag_146\n      jump\t// in\n    tag_180:\n        /* \"channel.sol\":5529:5533  W_jm */\n      0x02\n        /* \"channel.sol\":5529:5551  W_jm = bytes32 (_W_km) */\n      dup2\n      swap1\n      sstore\n      pop\n        /* \"channel.sol\":5581:5586  _W_kc */\n      dup7\n        /* \"channel.sol\":5572:5587  bytes32 (_W_kc) */\n      tag_181\n      swap1\n      tag_146\n      jump\t// in\n    tag_181:\n        /* \"channel.sol\":5565:5569  W_jc */\n      0x03\n        /* \"channel.sol\":5565:5587  W_jc = bytes32 (_W_kc) */\n      dup2\n      swap1\n      sstore\n      pop\n        /* \"channel.sol\":5438:6072  if(k%2 == 0){... */\n      jump(tag_182)\n    tag_176:\n        /* \"channel.sol\":5635:5636  2 */\n      0x02\n        /* \"channel.sol\":5632:5633  1 */\n      0x01\n        /* \"channel.sol\":5630:5631  j */\n      sload(0x00)\n        /* \"channel.sol\":5628:5629  k */\n      dup9\n        /* \"channel.sol\":5628:5631  k-j */\n      tag_183\n      swap2\n      swap1\n      tag_149\n      jump\t// in\n    tag_183:\n        /* \"channel.sol\":5628:5633  k-j-1 */\n      tag_184\n      swap2\n      swap1\n      tag_149\n      jump\t// in\n    tag_184:\n        /* \"channel.sol\":5627:5636  (k-j-1)/2 */\n      tag_185\n      swap2\n      swap1\n      tag_179\n      jump\t// in\n    tag_185:\n        /* \"channel.sol\":5616:5637  balance = ((k-j-1)/2) */\n      swap4\n      pop\n        /* \"channel.sol\":5657:5658  1 */\n      0x01\n        /* \"channel.sol\":5655:5656  k */\n      dup7\n        /* \"channel.sol\":5655:5658  k-1 */\n      tag_186\n      swap2\n      swap1\n      tag_149\n      jump\t// in\n    tag_186:\n        /* \"channel.sol\":5651:5652  j */\n      0x00\n        /* \"channel.sol\":5651:5658  j = k-1 */\n      dup2\n      swap1\n      sstore\n      pop\n        /* \"channel.sol\":5672:5686  bytes32 hash_m */\n      0x00\n        /* \"channel.sol\":5697:5702  _W_km */\n      dup9\n        /* \"channel.sol\":5689:5703  bytes32(_W_km) */\n      tag_187\n      swap1\n      tag_146\n      jump\t// in\n    tag_187:\n        /* \"channel.sol\":5672:5703  bytes32 hash_m = bytes32(_W_km) */\n      swap1\n      pop\n        /* \"channel.sol\":5717:5731  bytes32 hash_c */\n      0x00\n        /* \"channel.sol\":5742:5747  _W_kc */\n      dup9\n        /* \"channel.sol\":5734:5748  bytes32(_W_kc) */\n      tag_188\n      swap1\n      tag_146\n      jump\t// in\n    tag_188:\n        /* \"channel.sol\":5717:5748  bytes32 hash_c = bytes32(_W_kc) */\n      swap1\n      pop\n        /* \"channel.sol\":5762:5771  uint256 i */\n      0x00\n        /* \"channel.sol\":5776:5777  j */\n      dup1\n      sload\n        /* \"channel.sol\":5774:5775  k */\n      dup10\n        /* \"channel.sol\":5774:5777  k-j */\n      tag_189\n      swap2\n      swap1\n      tag_149\n      jump\t// in\n    tag_189:\n        /* \"channel.sol\":5762:5777  uint256 i = k-j */\n      swap1\n      pop\n        /* \"channel.sol\":5800:5953  for (i; i!= 0; i--){... */\n    tag_190:\n        /* \"channel.sol\":5812:5813  0 */\n      0x00\n        /* \"channel.sol\":5808:5809  i */\n      dup2\n        /* \"channel.sol\":5808:5813  i!= 0 */\n      eq\n        /* \"channel.sol\":5800:5953  for (i; i!= 0; i--){... */\n      tag_191\n      jumpi\n        /* \"channel.sol\":5846:5878  sha256(abi.encodePacked(hash_m)) */\n      0x02\n        /* \"channel.sol\":5870:5876  hash_m */\n      dup4\n        /* \"channel.sol\":5853:5877  abi.encodePacked(hash_m) */\n      add(0x20, mload(0x40))\n      tag_193\n      swap2\n      swap1\n      tag_154\n      jump\t// in\n    tag_193:\n      mload(0x40)\n      0x20\n      dup2\n      dup4\n      sub\n      sub\n      dup2\n      mstore\n      swap1\n      0x40\n      mstore\n        /* \"channel.sol\":5846:5878  sha256(abi.encodePacked(hash_m)) */\n      mload(0x40)\n      tag_194\n      swap2\n      swap1\n      tag_156\n      jump\t// in\n    tag_194:\n      0x20\n      mload(0x40)\n      dup1\n      dup4\n      sub\n      dup2\n      dup6\n      gas\n      staticcall\n      iszero\n      dup1\n      iszero\n      tag_196\n      jumpi\n      returndatasize\n      0x00\n      dup1\n      returndatacopy\n      revert(0x00, returndatasize)\n    tag_196:\n      pop\n      pop\n      pop\n      mload(0x40)\n      returndatasize\n      not(0x1f)\n      0x1f\n      dup3\n      add\n      and\n      dup3\n      add\n      dup1\n      0x40\n      mstore\n      pop\n      dup2\n      add\n      swap1\n      tag_197\n      swap2\n      swap1\n      tag_160\n      jump\t// in\n    tag_197:\n        /* \"channel.sol\":5837:5878  hash_m = sha256(abi.encodePacked(hash_m)) */\n      swap3\n      pop\n        /* \"channel.sol\":5905:5937  sha256(abi.encodePacked(hash_c)) */\n      0x02\n        /* \"channel.sol\":5929:5935  hash_c */\n      dup3\n        /* \"channel.sol\":5912:5936  abi.encodePacked(hash_c) */\n      add(0x20, mload(0x40))\n      tag_198\n      swap2\n      swap1\n      tag_154\n      jump\t// in\n    tag_198:\n      mload(0x40)\n      0x20\n      dup2\n      dup4\n      sub\n      sub\n      dup2\n      mstore\n      swap1\n      0x40\n      mstore\n        /* \"channel.sol\":5905:5937  sha256(abi.encodePacked(hash_c)) */\n      mload(0x40)\n      tag_199\n      swap2\n      swap1\n      tag_156\n      jump\t// in\n    tag_199:\n      0x20\n      mload(0x40)\n      dup1\n      dup4\n      sub\n      dup2\n      dup6\n      gas\n      staticcall\n      iszero\n      dup1\n      iszero\n      tag_201\n      jumpi\n      returndatasize\n      0x00\n      dup1\n      returndatacopy\n      revert(0x00, returndatasize)\n    tag_201:\n      pop\n      pop\n      pop\n      mload(0x40)\n      returndatasize\n      not(0x1f)\n      0x1f\n      dup3\n      add\n      and\n      dup3\n      add\n      dup1\n      0x40\n      mstore\n      pop\n      dup2\n      add\n      swap1\n      tag_202\n      swap2\n      swap1\n      tag_160\n      jump\t// in\n    tag_202:\n        /* \"channel.sol\":5896:5937  hash_c = sha256(abi.encodePacked(hash_c)) */\n      swap2\n      pop\n        /* \"channel.sol\":5815:5818  i-- */\n      dup1\n      dup1\n      tag_203\n      swap1\n      tag_167\n      jump\t// in\n    tag_203:\n      swap2\n      pop\n      pop\n        /* \"channel.sol\":5800:5953  for (i; i!= 0; i--){... */\n      jump(tag_190)\n    tag_191:\n        /* \"channel.sol\":5986:5987  1 */\n      0x01\n        /* \"channel.sol\":5984:5985  k */\n      dup10\n        /* \"channel.sol\":5984:5987  k-1 */\n      tag_204\n      swap2\n      swap1\n      tag_149\n      jump\t// in\n    tag_204:\n        /* \"channel.sol\":5980:5981  j */\n      0x00\n        /* \"channel.sol\":5980:5987  j = k-1 */\n      dup2\n      swap1\n      sstore\n      pop\n        /* \"channel.sol\":6017:6023  hash_m */\n      dup3\n        /* \"channel.sol\":6001:6005  W_jm */\n      0x02\n        /* \"channel.sol\":6001:6024  W_jm = bytes32 (hash_m) */\n      dup2\n      swap1\n      sstore\n      pop\n        /* \"channel.sol\":6054:6060  hash_c */\n      dup2\n        /* \"channel.sol\":6038:6042  W_jc */\n      0x03\n        /* \"channel.sol\":6038:6061  W_jc = bytes32 (hash_c) */\n      dup2\n      swap1\n      sstore\n      pop\n        /* \"channel.sol\":5602:6072  {... */\n      pop\n      pop\n      pop\n        /* \"channel.sol\":5438:6072  if(k%2 == 0){... */\n    tag_182:\n        /* \"channel.sol\":6114:6156  0x0000000000000000000000000000000000000000 */\n      0x00\n        /* \"channel.sol\":6093:6156  newChannelAddress != 0x0000000000000000000000000000000000000000 */\n      0xffffffffffffffffffffffffffffffffffffffff\n      and\n        /* \"channel.sol\":6093:6110  newChannelAddress */\n      dup6\n        /* \"channel.sol\":6093:6156  newChannelAddress != 0x0000000000000000000000000000000000000000 */\n      0xffffffffffffffffffffffffffffffffffffffff\n      and\n      eq\n        /* \"channel.sol\":6090:6303  if(newChannelAddress != 0x0000000000000000000000000000000000000000){... */\n      tag_205\n      jumpi\n        /* \"channel.sol\":6179:6196  newChannelAddress */\n      dup5\n        /* \"channel.sol\":6171:6202  payable(newChannelAddress).call */\n      0xffffffffffffffffffffffffffffffffffffffff\n      and\n        /* \"channel.sol\":6218:6219  v */\n      sload(0x06)\n        /* \"channel.sol\":6210:6217  balance */\n      dup6\n        /* \"channel.sol\":6210:6219  balance*v */\n      tag_206\n      swap2\n      swap1\n      tag_106\n      jump\t// in\n    tag_206:\n        /* \"channel.sol\":6171:6224  payable(newChannelAddress).call{value: balance*v}(\"\") */\n      mload(0x40)\n      tag_207\n      swap1\n      tag_208\n      jump\t// in\n    tag_207:\n      0x00\n      mload(0x40)\n      dup1\n      dup4\n      sub\n      dup2\n      dup6\n      dup8\n      gas\n      call\n      swap3\n      pop\n      pop\n      pop\n      returndatasize\n      dup1\n      0x00\n      dup2\n      eq\n      tag_211\n      jumpi\n      mload(0x40)\n      swap2\n      pop\n      and(add(returndatasize, 0x3f), not(0x1f))\n      dup3\n      add\n      0x40\n      mstore\n      returndatasize\n      dup3\n      mstore\n      returndatasize\n      0x00\n      0x20\n      dup5\n      add\n      returndatacopy\n      jump(tag_210)\n    tag_211:\n      0x60\n      swap2\n      pop\n    tag_210:\n      pop\n      pop\n      pop\n        /* \"channel.sol\":6090:6303  if(newChannelAddress != 0x0000000000000000000000000000000000000000){... */\n      jump(tag_212)\n    tag_205:\n        /* \"channel.sol\":6261:6271  msg.sender */\n      caller\n        /* \"channel.sol\":6253:6281  payable(msg.sender).transfer */\n      0xffffffffffffffffffffffffffffffffffffffff\n      and\n        /* \"channel.sol\":6253:6292  payable(msg.sender).transfer(balance*v) */\n      0x08fc\n        /* \"channel.sol\":6290:6291  v */\n      sload(0x06)\n        /* \"channel.sol\":6282:6289  balance */\n      dup7\n        /* \"channel.sol\":6282:6291  balance*v */\n      tag_213\n      swap2\n      swap1\n      tag_106\n      jump\t// in\n    tag_213:\n        /* \"channel.sol\":6253:6292  payable(msg.sender).transfer(balance*v) */\n      swap1\n      dup2\n      iszero\n      mul\n      swap1\n      mload(0x40)\n      0x00\n      mload(0x40)\n      dup1\n      dup4\n      sub\n      dup2\n      dup6\n      dup9\n      dup9\n      call\n      swap4\n      pop\n      pop\n      pop\n      pop\n      iszero\n      dup1\n      iszero\n      tag_215\n      jumpi\n      returndatasize\n      0x00\n      dup1\n      returndatacopy\n      revert(0x00, returndatasize)\n    tag_215:\n      pop\n        /* \"channel.sol\":6090:6303  if(newChannelAddress != 0x0000000000000000000000000000000000000000){... */\n    tag_212:\n        /* \"channel.sol\":4901:6372  {... */\n      pop\n      pop\n      pop\n      pop\n        /* \"channel.sol\":4791:6372  function transferDeposit(bytes memory _W_km, bytes memory _W_kc, uint256 k, address newChannelAddress) public {... */\n      pop\n      pop\n      pop\n      pop\n      jump\t// out\n        /* \"channel.sol\":4024:4588  function setChannelParams(bytes32 _W_jm, bytes32 _W_jc, string memory _S_id, uint256 _c, uint256 _v, uint256 _T_exp, uint256 _TD, uint256 _TR) public onlyOwner {... */\n    tag_92:\n        /* \"channel.sol\":7053:7061  customer */\n      0x01\n      0x00\n      swap1\n      sload\n      swap1\n      0x0100\n      exp\n      swap1\n      div\n      0xffffffffffffffffffffffffffffffffffffffff\n      and\n        /* \"channel.sol\":7039:7061  msg.sender == customer */\n      0xffffffffffffffffffffffffffffffffffffffff\n      and\n        /* \"channel.sol\":7039:7049  msg.sender */\n      caller\n        /* \"channel.sol\":7039:7061  msg.sender == customer */\n      0xffffffffffffffffffffffffffffffffffffffff\n      and\n      eq\n        /* \"channel.sol\":7030:7123  require (msg.sender == customer, \"Only customer of the delivery can set the channel params.\") */\n      tag_217\n      jumpi\n      mload(0x40)\n      0x08c379a000000000000000000000000000000000000000000000000000000000\n      dup2\n      mstore\n      0x04\n      add\n      tag_218\n      swap1\n      tag_126\n      jump\t// in\n    tag_218:\n      mload(0x40)\n      dup1\n      swap2\n      sub\n      swap1\n      revert\n    tag_217:\n        /* \"channel.sol\":4232:4234  _v */\n      dup4\n        /* \"channel.sol\":4227:4229  _c */\n      dup6\n        /* \"channel.sol\":4227:4234  _c * _v */\n      tag_220\n      swap2\n      swap1\n      tag_106\n      jump\t// in\n    tag_220:\n        /* \"channel.sol\":4202:4223  address(this).balance */\n      selfbalance\n        /* \"channel.sol\":4202:4234  address(this).balance == _c * _v */\n      eq\n        /* \"channel.sol\":4194:4235  require(address(this).balance == _c * _v) */\n      tag_221\n      jumpi\n      0x00\n      dup1\n      revert\n    tag_221:\n        /* \"channel.sol\":4263:4264  0 */\n      0x00\n        /* \"channel.sol\":4254:4259  T_exp */\n      sload(0x07)\n        /* \"channel.sol\":4254:4264  T_exp == 0 */\n      eq\n        /* \"channel.sol\":4254:4275  T_exp == 0 && TD == 0 */\n      dup1\n      iszero\n      tag_222\n      jumpi\n      pop\n        /* \"channel.sol\":4274:4275  0 */\n      0x00\n        /* \"channel.sol\":4268:4270  TD */\n      sload(0x08)\n        /* \"channel.sol\":4268:4275  TD == 0 */\n      eq\n        /* \"channel.sol\":4254:4275  T_exp == 0 && TD == 0 */\n    tag_222:\n        /* \"channel.sol\":4254:4286  T_exp == 0 && TD == 0 && TR == 0 */\n      dup1\n      iszero\n      tag_223\n      jumpi\n      pop\n        /* \"channel.sol\":4285:4286  0 */\n      0x00\n        /* \"channel.sol\":4279:4281  TR */\n      sload(0x09)\n        /* \"channel.sol\":4279:4286  TR == 0 */\n      eq\n        /* \"channel.sol\":4254:4286  T_exp == 0 && TD == 0 && TR == 0 */\n    tag_223:\n        /* \"channel.sol\":4254:4320  T_exp == 0 && TD == 0 && TR == 0 && (T_exp + TD) < block.timestamp */\n      dup1\n      iszero\n      tag_224\n      jumpi\n      pop\n        /* \"channel.sol\":4305:4320  block.timestamp */\n      timestamp\n        /* \"channel.sol\":4299:4301  TD */\n      sload(0x08)\n        /* \"channel.sol\":4291:4296  T_exp */\n      sload(0x07)\n        /* \"channel.sol\":4291:4301  T_exp + TD */\n      tag_225\n      swap2\n      swap1\n      tag_114\n      jump\t// in\n    tag_225:\n        /* \"channel.sol\":4290:4320  (T_exp + TD) < block.timestamp */\n      lt\n        /* \"channel.sol\":4254:4320  T_exp == 0 && TD == 0 && TR == 0 && (T_exp + TD) < block.timestamp */\n    tag_224:\n        /* \"channel.sol\":4253:4398  (T_exp == 0 && TD == 0 && TR == 0 && (T_exp + TD) < block.timestamp) || ((T_exp + TD) < block.timestamp && (block.timestamp < (T_exp + TD + TR))) */\n      dup1\n      tag_226\n      jumpi\n      pop\n        /* \"channel.sol\":4341:4356  block.timestamp */\n      timestamp\n        /* \"channel.sol\":4335:4337  TD */\n      sload(0x08)\n        /* \"channel.sol\":4327:4332  T_exp */\n      sload(0x07)\n        /* \"channel.sol\":4327:4337  T_exp + TD */\n      tag_227\n      swap2\n      swap1\n      tag_114\n      jump\t// in\n    tag_227:\n        /* \"channel.sol\":4326:4356  (T_exp + TD) < block.timestamp */\n      lt\n        /* \"channel.sol\":4326:4397  (T_exp + TD) < block.timestamp && (block.timestamp < (T_exp + TD + TR)) */\n      dup1\n      iszero\n      tag_228\n      jumpi\n      pop\n        /* \"channel.sol\":4393:4395  TR */\n      sload(0x09)\n        /* \"channel.sol\":4388:4390  TD */\n      sload(0x08)\n        /* \"channel.sol\":4380:4385  T_exp */\n      sload(0x07)\n        /* \"channel.sol\":4380:4390  T_exp + TD */\n      tag_229\n      swap2\n      swap1\n      tag_114\n      jump\t// in\n    tag_229:\n        /* \"channel.sol\":4380:4395  T_exp + TD + TR */\n      tag_230\n      swap2\n      swap1\n      tag_114\n      jump\t// in\n    tag_230:\n        /* \"channel.sol\":4361:4376  block.timestamp */\n      timestamp\n        /* \"channel.sol\":4361:4396  block.timestamp < (T_exp + TD + TR) */\n      lt\n        /* \"channel.sol\":4326:4397  (T_exp + TD) < block.timestamp && (block.timestamp < (T_exp + TD + TR)) */\n    tag_228:\n        /* \"channel.sol\":4253:4398  (T_exp == 0 && TD == 0 && TR == 0 && (T_exp + TD) < block.timestamp) || ((T_exp + TD) < block.timestamp && (block.timestamp < (T_exp + TD + TR))) */\n    tag_226:\n        /* \"channel.sol\":4245:4399  require((T_exp == 0 && TD == 0 && TR == 0 && (T_exp + TD) < block.timestamp) || ((T_exp + TD) < block.timestamp && (block.timestamp < (T_exp + TD + TR)))) */\n      tag_231\n      jumpi\n      0x00\n      dup1\n      revert\n    tag_231:\n        /* \"channel.sol\":4413:4414  0 */\n      0x00\n        /* \"channel.sol\":4409:4410  j */\n      dup1\n        /* \"channel.sol\":4409:4414  j = 0 */\n      dup2\n      swap1\n      sstore\n      pop\n        /* \"channel.sol\":4440:4445  _W_jm */\n      dup8\n        /* \"channel.sol\":4433:4437  W_jm */\n      0x02\n        /* \"channel.sol\":4433:4445  W_jm = _W_jm */\n      dup2\n      swap1\n      sstore\n      pop\n        /* \"channel.sol\":4462:4467  _W_jc */\n      dup7\n        /* \"channel.sol\":4455:4459  W_jc */\n      0x03\n        /* \"channel.sol\":4455:4467  W_jc = _W_jc */\n      dup2\n      swap1\n      sstore\n      pop\n        /* \"channel.sol\":4484:4489  _S_id */\n      dup6\n        /* \"channel.sol\":4477:4481  S_id */\n      0x04\n        /* \"channel.sol\":4477:4489  S_id = _S_id */\n      swap1\n      dup2\n      tag_232\n      swap2\n      swap1\n      tag_122\n      jump\t// in\n    tag_232:\n      pop\n        /* \"channel.sol\":4503:4505  _c */\n      dup5\n        /* \"channel.sol\":4499:4500  c */\n      0x05\n        /* \"channel.sol\":4499:4505  c = _c */\n      dup2\n      swap1\n      sstore\n      pop\n        /* \"channel.sol\":4519:4521  _v */\n      dup4\n        /* \"channel.sol\":4515:4516  v */\n      0x06\n        /* \"channel.sol\":4515:4521  v = _v */\n      dup2\n      swap1\n      sstore\n      pop\n        /* \"channel.sol\":4539:4545  _T_exp */\n      dup3\n        /* \"channel.sol\":4531:4536  T_exp */\n      0x07\n        /* \"channel.sol\":4531:4545  T_exp = _T_exp */\n      dup2\n      swap1\n      sstore\n      pop\n        /* \"channel.sol\":4560:4563  _TD */\n      dup2\n        /* \"channel.sol\":4555:4557  TD */\n      0x08\n        /* \"channel.sol\":4555:4563  TD = _TD */\n      dup2\n      swap1\n      sstore\n      pop\n        /* \"channel.sol\":4578:4581  _TR */\n      dup1\n        /* \"channel.sol\":4573:4575  TR */\n      0x09\n        /* \"channel.sol\":4573:4581  TR = _TR */\n      dup2\n      swap1\n      sstore\n      pop\n        /* \"channel.sol\":4024:4588  function setChannelParams(bytes32 _W_jm, bytes32 _W_jc, string memory _S_id, uint256 _c, uint256 _v, uint256 _T_exp, uint256 _TD, uint256 _TR) public onlyOwner {... */\n      pop\n      pop\n      pop\n      pop\n      pop\n      pop\n      pop\n      pop\n      jump\t// out\n        /* \"channel.sol\":2722:2742  uint256 public T_exp */\n    tag_95:\n      sload(0x07)\n      dup2\n      jump\t// out\n        /* \"#utility.yul\":7:106   */\n    tag_233:\n        /* \"#utility.yul\":59:65   */\n      0x00\n        /* \"#utility.yul\":93:98   */\n      dup2\n        /* \"#utility.yul\":87:99   */\n      mload\n        /* \"#utility.yul\":77:99   */\n      swap1\n      pop\n        /* \"#utility.yul\":7:106   */\n      swap2\n      swap1\n      pop\n      jump\t// out\n        /* \"#utility.yul\":112:281   */\n    tag_234:\n        /* \"#utility.yul\":196:207   */\n      0x00\n        /* \"#utility.yul\":230:236   */\n      dup3\n        /* \"#utility.yul\":225:228   */\n      dup3\n        /* \"#utility.yul\":218:237   */\n      mstore\n        /* \"#utility.yul\":270:274   */\n      0x20\n        /* \"#utility.yul\":265:268   */\n      dup3\n        /* \"#utility.yul\":261:275   */\n      add\n        /* \"#utility.yul\":246:275   */\n      swap1\n      pop\n        /* \"#utility.yul\":112:281   */\n      swap3\n      swap2\n      pop\n      pop\n      jump\t// out\n        /* \"#utility.yul\":287:533   */\n    tag_235:\n        /* \"#utility.yul\":368:369   */\n      0x00\n        /* \"#utility.yul\":378:491   */\n    tag_312:\n        /* \"#utility.yul\":392:398   */\n      dup4\n        /* \"#utility.yul\":389:390   */\n      dup2\n        /* \"#utility.yul\":386:399   */\n      lt\n        /* \"#utility.yul\":378:491   */\n      iszero\n      tag_314\n      jumpi\n        /* \"#utility.yul\":477:478   */\n      dup1\n        /* \"#utility.yul\":472:475   */\n      dup3\n        /* \"#utility.yul\":468:479   */\n      add\n        /* \"#utility.yul\":462:480   */\n      mload\n        /* \"#utility.yul\":458:459   */\n      dup2\n        /* \"#utility.yul\":453:456   */\n      dup5\n        /* \"#utility.yul\":449:460   */\n      add\n        /* \"#utility.yul\":442:481   */\n      mstore\n        /* \"#utility.yul\":414:416   */\n      0x20\n        /* \"#utility.yul\":411:412   */\n      dup2\n        /* \"#utility.yul\":407:417   */\n      add\n        /* \"#utility.yul\":402:417   */\n      swap1\n      pop\n        /* \"#utility.yul\":378:491   */\n      jump(tag_312)\n    tag_314:\n        /* \"#utility.yul\":525:526   */\n      0x00\n        /* \"#utility.yul\":516:522   */\n      dup5\n        /* \"#utility.yul\":511:514   */\n      dup5\n        /* \"#utility.yul\":507:523   */\n      add\n        /* \"#utility.yul\":500:527   */\n      mstore\n        /* \"#utility.yul\":349:533   */\n      pop\n        /* \"#utility.yul\":287:533   */\n      pop\n      pop\n      pop\n      jump\t// out\n        /* \"#utility.yul\":539:641   */\n    tag_236:\n        /* \"#utility.yul\":580:586   */\n      0x00\n        /* \"#utility.yul\":631:633   */\n      0x1f\n        /* \"#utility.yul\":627:634   */\n      not\n        /* \"#utility.yul\":622:624   */\n      0x1f\n        /* \"#utility.yul\":615:620   */\n      dup4\n        /* \"#utility.yul\":611:625   */\n      add\n        /* \"#utility.yul\":607:635   */\n      and\n        /* \"#utility.yul\":597:635   */\n      swap1\n      pop\n        /* \"#utility.yul\":539:641   */\n      swap2\n      swap1\n      pop\n      jump\t// out\n        /* \"#utility.yul\":647:1024   */\n    tag_237:\n        /* \"#utility.yul\":735:738   */\n      0x00\n        /* \"#utility.yul\":763:802   */\n      tag_317\n        /* \"#utility.yul\":796:801   */\n      dup3\n        /* \"#utility.yul\":763:802   */\n      tag_233\n      jump\t// in\n    tag_317:\n        /* \"#utility.yul\":818:889   */\n      tag_318\n        /* \"#utility.yul\":882:888   */\n      dup2\n        /* \"#utility.yul\":877:880   */\n      dup6\n        /* \"#utility.yul\":818:889   */\n      tag_234\n      jump\t// in\n    tag_318:\n        /* \"#utility.yul\":811:889   */\n      swap4\n      pop\n        /* \"#utility.yul\":898:963   */\n      tag_319\n        /* \"#utility.yul\":956:962   */\n      dup2\n        /* \"#utility.yul\":951:954   */\n      dup6\n        /* \"#utility.yul\":944:948   */\n      0x20\n        /* \"#utility.yul\":937:942   */\n      dup7\n        /* \"#utility.yul\":933:949   */\n      add\n        /* \"#utility.yul\":898:963   */\n      tag_235\n      jump\t// in\n    tag_319:\n        /* \"#utility.yul\":988:1017   */\n      tag_320\n        /* \"#utility.yul\":1010:1016   */\n      dup2\n        /* \"#utility.yul\":988:1017   */\n      tag_236\n      jump\t// in\n    tag_320:\n        /* \"#utility.yul\":983:986   */\n      dup5\n        /* \"#utility.yul\":979:1018   */\n      add\n        /* \"#utility.yul\":972:1018   */\n      swap2\n      pop\n        /* \"#utility.yul\":739:1024   */\n      pop\n        /* \"#utility.yul\":647:1024   */\n      swap3\n      swap2\n      pop\n      pop\n      jump\t// out\n        /* \"#utility.yul\":1030:1343   */\n    tag_30:\n        /* \"#utility.yul\":1143:1147   */\n      0x00\n        /* \"#utility.yul\":1181:1183   */\n      0x20\n        /* \"#utility.yul\":1170:1179   */\n      dup3\n        /* \"#utility.yul\":1166:1184   */\n      add\n        /* \"#utility.yul\":1158:1184   */\n      swap1\n      pop\n        /* \"#utility.yul\":1230:1239   */\n      dup2\n        /* \"#utility.yul\":1224:1228   */\n      dup2\n        /* \"#utility.yul\":1220:1240   */\n      sub\n        /* \"#utility.yul\":1216:1217   */\n      0x00\n        /* \"#utility.yul\":1205:1214   */\n      dup4\n        /* \"#utility.yul\":1201:1218   */\n      add\n        /* \"#utility.yul\":1194:1241   */\n      mstore\n        /* \"#utility.yul\":1258:1336   */\n      tag_322\n        /* \"#utility.yul\":1331:1335   */\n      dup2\n        /* \"#utility.yul\":1322:1328   */\n      dup5\n        /* \"#utility.yul\":1258:1336   */\n      tag_237\n      jump\t// in\n    tag_322:\n        /* \"#utility.yul\":1250:1336   */\n      swap1\n      pop\n        /* \"#utility.yul\":1030:1343   */\n      swap3\n      swap2\n      pop\n      pop\n      jump\t// out\n        /* \"#utility.yul\":1349:1475   */\n    tag_238:\n        /* \"#utility.yul\":1386:1393   */\n      0x00\n        /* \"#utility.yul\":1426:1468   */\n      0xffffffffffffffffffffffffffffffffffffffff\n        /* \"#utility.yul\":1419:1424   */\n      dup3\n        /* \"#utility.yul\":1415:1469   */\n      and\n        /* \"#utility.yul\":1404:1469   */\n      swap1\n      pop\n        /* \"#utility.yul\":1349:1475   */\n      swap2\n      swap1\n      pop\n      jump\t// out\n        /* \"#utility.yul\":1481:1577   */\n    tag_239:\n        /* \"#utility.yul\":1518:1525   */\n      0x00\n        /* \"#utility.yul\":1547:1571   */\n      tag_325\n        /* \"#utility.yul\":1565:1570   */\n      dup3\n        /* \"#utility.yul\":1547:1571   */\n      tag_238\n      jump\t// in\n    tag_325:\n        /* \"#utility.yul\":1536:1571   */\n      swap1\n      pop\n        /* \"#utility.yul\":1481:1577   */\n      swap2\n      swap1\n      pop\n      jump\t// out\n        /* \"#utility.yul\":1583:1701   */\n    tag_240:\n        /* \"#utility.yul\":1670:1694   */\n      tag_327\n        /* \"#utility.yul\":1688:1693   */\n      dup2\n        /* \"#utility.yul\":1670:1694   */\n      tag_239\n      jump\t// in\n    tag_327:\n        /* \"#utility.yul\":1665:1668   */\n      dup3\n        /* \"#utility.yul\":1658:1695   */\n      mstore\n        /* \"#utility.yul\":1583:1701   */\n      pop\n      pop\n      jump\t// out\n        /* \"#utility.yul\":1707:1929   */\n    tag_35:\n        /* \"#utility.yul\":1800:1804   */\n      0x00\n        /* \"#utility.yul\":1838:1840   */\n      0x20\n        /* \"#utility.yul\":1827:1836   */\n      dup3\n        /* \"#utility.yul\":1823:1841   */\n      add\n        /* \"#utility.yul\":1815:1841   */\n      swap1\n      pop\n        /* \"#utility.yul\":1851:1922   */\n      tag_329\n        /* \"#utility.yul\":1919:1920   */\n      0x00\n        /* \"#utility.yul\":1908:1917   */\n      dup4\n        /* \"#utility.yul\":1904:1921   */\n      add\n        /* \"#utility.yul\":1895:1901   */\n      dup5\n        /* \"#utility.yul\":1851:1922   */\n      tag_240\n      jump\t// in\n    tag_329:\n        /* \"#utility.yul\":1707:1929   */\n      swap3\n      swap2\n      pop\n      pop\n      jump\t// out\n        /* \"#utility.yul\":1935:2012   */\n    tag_241:\n        /* \"#utility.yul\":1972:1979   */\n      0x00\n        /* \"#utility.yul\":2001:2006   */\n      dup2\n        /* \"#utility.yul\":1990:2006   */\n      swap1\n      pop\n        /* \"#utility.yul\":1935:2012   */\n      swap2\n      swap1\n      pop\n      jump\t// out\n        /* \"#utility.yul\":2018:2136   */\n    tag_242:\n        /* \"#utility.yul\":2105:2129   */\n      tag_332\n        /* \"#utility.yul\":2123:2128   */\n      dup2\n        /* \"#utility.yul\":2105:2129   */\n      tag_241\n      jump\t// in\n    tag_332:\n        /* \"#utility.yul\":2100:2103   */\n      dup3\n        /* \"#utility.yul\":2093:2130   */\n      mstore\n        /* \"#utility.yul\":2018:2136   */\n      pop\n      pop\n      jump\t// out\n        /* \"#utility.yul\":2142:2364   */\n    tag_40:\n        /* \"#utility.yul\":2235:2239   */\n      0x00\n        /* \"#utility.yul\":2273:2275   */\n      0x20\n        /* \"#utility.yul\":2262:2271   */\n      dup3\n        /* \"#utility.yul\":2258:2276   */\n      add\n        /* \"#utility.yul\":2250:2276   */\n      swap1\n      pop\n        /* \"#utility.yul\":2286:2357   */\n      tag_334\n        /* \"#utility.yul\":2354:2355   */\n      0x00\n        /* \"#utility.yul\":2343:2352   */\n      dup4\n        /* \"#utility.yul\":2339:2356   */\n      add\n        /* \"#utility.yul\":2330:2336   */\n      dup5\n        /* \"#utility.yul\":2286:2357   */\n      tag_242\n      jump\t// in\n    tag_334:\n        /* \"#utility.yul\":2142:2364   */\n      swap3\n      swap2\n      pop\n      pop\n      jump\t// out\n        /* \"#utility.yul\":2370:2445   */\n    tag_243:\n        /* \"#utility.yul\":2403:2409   */\n      0x00\n        /* \"#utility.yul\":2436:2438   */\n      0x40\n        /* \"#utility.yul\":2430:2439   */\n      mload\n        /* \"#utility.yul\":2420:2439   */\n      swap1\n      pop\n        /* \"#utility.yul\":2370:2445   */\n      swap1\n      jump\t// out\n        /* \"#utility.yul\":2451:2568   */\n    tag_244:\n        /* \"#utility.yul\":2560:2561   */\n      0x00\n        /* \"#utility.yul\":2557:2558   */\n      dup1\n        /* \"#utility.yul\":2550:2562   */\n      revert\n        /* \"#utility.yul\":2574:2691   */\n    tag_245:\n        /* \"#utility.yul\":2683:2684   */\n      0x00\n        /* \"#utility.yul\":2680:2681   */\n      dup1\n        /* \"#utility.yul\":2673:2685   */\n      revert\n        /* \"#utility.yul\":2697:2819   */\n    tag_246:\n        /* \"#utility.yul\":2770:2794   */\n      tag_339\n        /* \"#utility.yul\":2788:2793   */\n      dup2\n        /* \"#utility.yul\":2770:2794   */\n      tag_241\n      jump\t// in\n    tag_339:\n        /* \"#utility.yul\":2763:2768   */\n      dup2\n        /* \"#utility.yul\":2760:2795   */\n      eq\n        /* \"#utility.yul\":2750:2813   */\n      tag_340\n      jumpi\n        /* \"#utility.yul\":2809:2810   */\n      0x00\n        /* \"#utility.yul\":2806:2807   */\n      dup1\n        /* \"#utility.yul\":2799:2811   */\n      revert\n        /* \"#utility.yul\":2750:2813   */\n    tag_340:\n        /* \"#utility.yul\":2697:2819   */\n      pop\n      jump\t// out\n        /* \"#utility.yul\":2825:2964   */\n    tag_247:\n        /* \"#utility.yul\":2871:2876   */\n      0x00\n        /* \"#utility.yul\":2909:2915   */\n      dup2\n        /* \"#utility.yul\":2896:2916   */\n      calldataload\n        /* \"#utility.yul\":2887:2916   */\n      swap1\n      pop\n        /* \"#utility.yul\":2925:2958   */\n      tag_342\n        /* \"#utility.yul\":2952:2957   */\n      dup2\n        /* \"#utility.yul\":2925:2958   */\n      tag_246\n      jump\t// in\n    tag_342:\n        /* \"#utility.yul\":2825:2964   */\n      swap3\n      swap2\n      pop\n      pop\n      jump\t// out\n        /* \"#utility.yul\":2970:3092   */\n    tag_248:\n        /* \"#utility.yul\":3043:3067   */\n      tag_344\n        /* \"#utility.yul\":3061:3066   */\n      dup2\n        /* \"#utility.yul\":3043:3067   */\n      tag_239\n      jump\t// in\n    tag_344:\n        /* \"#utility.yul\":3036:3041   */\n      dup2\n        /* \"#utility.yul\":3033:3068   */\n      eq\n        /* \"#utility.yul\":3023:3086   */\n      tag_345\n      jumpi\n        /* \"#utility.yul\":3082:3083   */\n      0x00\n        /* \"#utility.yul\":3079:3080   */\n      dup1\n        /* \"#utility.yul\":3072:3084   */\n      revert\n        /* \"#utility.yul\":3023:3086   */\n    tag_345:\n        /* \"#utility.yul\":2970:3092   */\n      pop\n      jump\t// out\n        /* \"#utility.yul\":3098:3237   */\n    tag_249:\n        /* \"#utility.yul\":3144:3149   */\n      0x00\n        /* \"#utility.yul\":3182:3188   */\n      dup2\n        /* \"#utility.yul\":3169:3189   */\n      calldataload\n        /* \"#utility.yul\":3160:3189   */\n      swap1\n      pop\n        /* \"#utility.yul\":3198:3231   */\n      tag_347\n        /* \"#utility.yul\":3225:3230   */\n      dup2\n        /* \"#utility.yul\":3198:3231   */\n      tag_248\n      jump\t// in\n    tag_347:\n        /* \"#utility.yul\":3098:3237   */\n      swap3\n      swap2\n      pop\n      pop\n      jump\t// out\n        /* \"#utility.yul\":3243:3320   */\n    tag_250:\n        /* \"#utility.yul\":3280:3287   */\n      0x00\n        /* \"#utility.yul\":3309:3314   */\n      dup2\n        /* \"#utility.yul\":3298:3314   */\n      swap1\n      pop\n        /* \"#utility.yul\":3243:3320   */\n      swap2\n      swap1\n      pop\n      jump\t// out\n        /* \"#utility.yul\":3326:3448   */\n    tag_251:\n        /* \"#utility.yul\":3399:3423   */\n      tag_350\n        /* \"#utility.yul\":3417:3422   */\n      dup2\n        /* \"#utility.yul\":3399:3423   */\n      tag_250\n      jump\t// in\n    tag_350:\n        /* \"#utility.yul\":3392:3397   */\n      dup2\n        /* \"#utility.yul\":3389:3424   */\n      eq\n        /* \"#utility.yul\":3379:3442   */\n      tag_351\n      jumpi\n        /* \"#utility.yul\":3438:3439   */\n      0x00\n        /* \"#utility.yul\":3435:3436   */\n      dup1\n        /* \"#utility.yul\":3428:3440   */\n      revert\n        /* \"#utility.yul\":3379:3442   */\n    tag_351:\n        /* \"#utility.yul\":3326:3448   */\n      pop\n      jump\t// out\n        /* \"#utility.yul\":3454:3593   */\n    tag_252:\n        /* \"#utility.yul\":3500:3505   */\n      0x00\n        /* \"#utility.yul\":3538:3544   */\n      dup2\n        /* \"#utility.yul\":3525:3545   */\n      calldataload\n        /* \"#utility.yul\":3516:3545   */\n      swap1\n      pop\n        /* \"#utility.yul\":3554:3587   */\n      tag_353\n        /* \"#utility.yul\":3581:3586   */\n      dup2\n        /* \"#utility.yul\":3554:3587   */\n      tag_251\n      jump\t// in\n    tag_353:\n        /* \"#utility.yul\":3454:3593   */\n      swap3\n      swap2\n      pop\n      pop\n      jump\t// out\n        /* \"#utility.yul\":3599:3716   */\n    tag_253:\n        /* \"#utility.yul\":3708:3709   */\n      0x00\n        /* \"#utility.yul\":3705:3706   */\n      dup1\n        /* \"#utility.yul\":3698:3710   */\n      revert\n        /* \"#utility.yul\":3722:3839   */\n    tag_254:\n        /* \"#utility.yul\":3831:3832   */\n      0x00\n        /* \"#utility.yul\":3828:3829   */\n      dup1\n        /* \"#utility.yul\":3821:3833   */\n      revert\n        /* \"#utility.yul\":3845:4025   */\n    tag_255:\n        /* \"#utility.yul\":3893:3970   */\n      0x4e487b7100000000000000000000000000000000000000000000000000000000\n        /* \"#utility.yul\":3890:3891   */\n      0x00\n        /* \"#utility.yul\":3883:3971   */\n      mstore\n        /* \"#utility.yul\":3990:3994   */\n      0x41\n        /* \"#utility.yul\":3987:3988   */\n      0x04\n        /* \"#utility.yul\":3980:3995   */\n      mstore\n        /* \"#utility.yul\":4014:4018   */\n      0x24\n        /* \"#utility.yul\":4011:4012   */\n      0x00\n        /* \"#utility.yul\":4004:4019   */\n      revert\n        /* \"#utility.yul\":4031:4312   */\n    tag_256:\n        /* \"#utility.yul\":4114:4141   */\n      tag_358\n        /* \"#utility.yul\":4136:4140   */\n      dup3\n        /* \"#utility.yul\":4114:4141   */\n      tag_236\n      jump\t// in\n    tag_358:\n        /* \"#utility.yul\":4106:4112   */\n      dup2\n        /* \"#utility.yul\":4102:4142   */\n      add\n        /* \"#utility.yul\":4244:4250   */\n      dup2\n        /* \"#utility.yul\":4232:4242   */\n      dup2\n        /* \"#utility.yul\":4229:4251   */\n      lt\n        /* \"#utility.yul\":4208:4226   */\n      0xffffffffffffffff\n        /* \"#utility.yul\":4196:4206   */\n      dup3\n        /* \"#utility.yul\":4193:4227   */\n      gt\n        /* \"#utility.yul\":4190:4252   */\n      or\n        /* \"#utility.yul\":4187:4275   */\n      iszero\n      tag_359\n      jumpi\n        /* \"#utility.yul\":4255:4273   */\n      tag_360\n      tag_255\n      jump\t// in\n    tag_360:\n        /* \"#utility.yul\":4187:4275   */\n    tag_359:\n        /* \"#utility.yul\":4295:4305   */\n      dup1\n        /* \"#utility.yul\":4291:4293   */\n      0x40\n        /* \"#utility.yul\":4284:4306   */\n      mstore\n        /* \"#utility.yul\":4074:4312   */\n      pop\n        /* \"#utility.yul\":4031:4312   */\n      pop\n      pop\n      jump\t// out\n        /* \"#utility.yul\":4318:4447   */\n    tag_257:\n        /* \"#utility.yul\":4352:4358   */\n      0x00\n        /* \"#utility.yul\":4379:4399   */\n      tag_362\n      tag_243\n      jump\t// in\n    tag_362:\n        /* \"#utility.yul\":4369:4399   */\n      swap1\n      pop\n        /* \"#utility.yul\":4408:4441   */\n      tag_363\n        /* \"#utility.yul\":4436:4440   */\n      dup3\n        /* \"#utility.yul\":4428:4434   */\n      dup3\n        /* \"#utility.yul\":4408:4441   */\n      tag_256\n      jump\t// in\n    tag_363:\n        /* \"#utility.yul\":4318:4447   */\n      swap2\n      swap1\n      pop\n      jump\t// out\n        /* \"#utility.yul\":4453:4761   */\n    tag_258:\n        /* \"#utility.yul\":4515:4519   */\n      0x00\n        /* \"#utility.yul\":4605:4623   */\n      0xffffffffffffffff\n        /* \"#utility.yul\":4597:4603   */\n      dup3\n        /* \"#utility.yul\":4594:4624   */\n      gt\n        /* \"#utility.yul\":4591:4647   */\n      iszero\n      tag_365\n      jumpi\n        /* \"#utility.yul\":4627:4645   */\n      tag_366\n      tag_255\n      jump\t// in\n    tag_366:\n        /* \"#utility.yul\":4591:4647   */\n    tag_365:\n        /* \"#utility.yul\":4665:4694   */\n      tag_367\n        /* \"#utility.yul\":4687:4693   */\n      dup3\n        /* \"#utility.yul\":4665:4694   */\n      tag_236\n      jump\t// in\n    tag_367:\n        /* \"#utility.yul\":4657:4694   */\n      swap1\n      pop\n        /* \"#utility.yul\":4749:4753   */\n      0x20\n        /* \"#utility.yul\":4743:4747   */\n      dup2\n        /* \"#utility.yul\":4739:4754   */\n      add\n        /* \"#utility.yul\":4731:4754   */\n      swap1\n      pop\n        /* \"#utility.yul\":4453:4761   */\n      swap2\n      swap1\n      pop\n      jump\t// out\n        /* \"#utility.yul\":4767:4913   */\n    tag_259:\n        /* \"#utility.yul\":4864:4870   */\n      dup3\n        /* \"#utility.yul\":4859:4862   */\n      dup2\n        /* \"#utility.yul\":4854:4857   */\n      dup4\n        /* \"#utility.yul\":4841:4871   */\n      calldatacopy\n        /* \"#utility.yul\":4905:4906   */\n      0x00\n        /* \"#utility.yul\":4896:4902   */\n      dup4\n        /* \"#utility.yul\":4891:4894   */\n      dup4\n        /* \"#utility.yul\":4887:4903   */\n      add\n        /* \"#utility.yul\":4880:4907   */\n      mstore\n        /* \"#utility.yul\":4767:4913   */\n      pop\n      pop\n      pop\n      jump\t// out\n        /* \"#utility.yul\":4919:5344   */\n    tag_260:\n        /* \"#utility.yul\":4997:5002   */\n      0x00\n        /* \"#utility.yul\":5022:5088   */\n      tag_370\n        /* \"#utility.yul\":5038:5087   */\n      tag_371\n        /* \"#utility.yul\":5080:5086   */\n      dup5\n        /* \"#utility.yul\":5038:5087   */\n      tag_258\n      jump\t// in\n    tag_371:\n        /* \"#utility.yul\":5022:5088   */\n      tag_257\n      jump\t// in\n    tag_370:\n        /* \"#utility.yul\":5013:5088   */\n      swap1\n      pop\n        /* \"#utility.yul\":5111:5117   */\n      dup3\n        /* \"#utility.yul\":5104:5109   */\n      dup2\n        /* \"#utility.yul\":5097:5118   */\n      mstore\n        /* \"#utility.yul\":5149:5153   */\n      0x20\n        /* \"#utility.yul\":5142:5147   */\n      dup2\n        /* \"#utility.yul\":5138:5154   */\n      add\n        /* \"#utility.yul\":5187:5190   */\n      dup5\n        /* \"#utility.yul\":5178:5184   */\n      dup5\n        /* \"#utility.yul\":5173:5176   */\n      dup5\n        /* \"#utility.yul\":5169:5185   */\n      add\n        /* \"#utility.yul\":5166:5191   */\n      gt\n        /* \"#utility.yul\":5163:5275   */\n      iszero\n      tag_372\n      jumpi\n        /* \"#utility.yul\":5194:5273   */\n      tag_373\n      tag_254\n      jump\t// in\n    tag_373:\n        /* \"#utility.yul\":5163:5275   */\n    tag_372:\n        /* \"#utility.yul\":5284:5338   */\n      tag_374\n        /* \"#utility.yul\":5331:5337   */\n      dup5\n        /* \"#utility.yul\":5326:5329   */\n      dup3\n        /* \"#utility.yul\":5321:5324   */\n      dup6\n        /* \"#utility.yul\":5284:5338   */\n      tag_259\n      jump\t// in\n    tag_374:\n        /* \"#utility.yul\":5003:5344   */\n      pop\n        /* \"#utility.yul\":4919:5344   */\n      swap4\n      swap3\n      pop\n      pop\n      pop\n      jump\t// out\n        /* \"#utility.yul\":5364:5704   */\n    tag_261:\n        /* \"#utility.yul\":5420:5425   */\n      0x00\n        /* \"#utility.yul\":5469:5472   */\n      dup3\n        /* \"#utility.yul\":5462:5466   */\n      0x1f\n        /* \"#utility.yul\":5454:5460   */\n      dup4\n        /* \"#utility.yul\":5450:5467   */\n      add\n        /* \"#utility.yul\":5446:5473   */\n      slt\n        /* \"#utility.yul\":5436:5558   */\n      tag_376\n      jumpi\n        /* \"#utility.yul\":5477:5556   */\n      tag_377\n      tag_253\n      jump\t// in\n    tag_377:\n        /* \"#utility.yul\":5436:5558   */\n    tag_376:\n        /* \"#utility.yul\":5594:5600   */\n      dup2\n        /* \"#utility.yul\":5581:5601   */\n      calldataload\n        /* \"#utility.yul\":5619:5698   */\n      tag_378\n        /* \"#utility.yul\":5694:5697   */\n      dup5\n        /* \"#utility.yul\":5686:5692   */\n      dup3\n        /* \"#utility.yul\":5679:5683   */\n      0x20\n        /* \"#utility.yul\":5671:5677   */\n      dup7\n        /* \"#utility.yul\":5667:5684   */\n      add\n        /* \"#utility.yul\":5619:5698   */\n      tag_260\n      jump\t// in\n    tag_378:\n        /* \"#utility.yul\":5610:5698   */\n      swap2\n      pop\n        /* \"#utility.yul\":5426:5704   */\n      pop\n        /* \"#utility.yul\":5364:5704   */\n      swap3\n      swap2\n      pop\n      pop\n      jump\t// out\n        /* \"#utility.yul\":5710:7385   */\n    tag_43:\n        /* \"#utility.yul\":5851:5857   */\n      0x00\n        /* \"#utility.yul\":5859:5865   */\n      dup1\n        /* \"#utility.yul\":5867:5873   */\n      0x00\n        /* \"#utility.yul\":5875:5881   */\n      dup1\n        /* \"#utility.yul\":5883:5889   */\n      0x00\n        /* \"#utility.yul\":5891:5897   */\n      dup1\n        /* \"#utility.yul\":5899:5905   */\n      0x00\n        /* \"#utility.yul\":5907:5913   */\n      dup1\n        /* \"#utility.yul\":5915:5921   */\n      0x00\n        /* \"#utility.yul\":5964:5967   */\n      0x0120\n        /* \"#utility.yul\":5952:5961   */\n      dup11\n        /* \"#utility.yul\":5943:5950   */\n      dup13\n        /* \"#utility.yul\":5939:5962   */\n      sub\n        /* \"#utility.yul\":5935:5968   */\n      slt\n        /* \"#utility.yul\":5932:6052   */\n      iszero\n      tag_380\n      jumpi\n        /* \"#utility.yul\":5971:6050   */\n      tag_381\n      tag_244\n      jump\t// in\n    tag_381:\n        /* \"#utility.yul\":5932:6052   */\n    tag_380:\n        /* \"#utility.yul\":6091:6092   */\n      0x00\n        /* \"#utility.yul\":6116:6169   */\n      tag_382\n        /* \"#utility.yul\":6161:6168   */\n      dup13\n        /* \"#utility.yul\":6152:6158   */\n      dup3\n        /* \"#utility.yul\":6141:6150   */\n      dup14\n        /* \"#utility.yul\":6137:6159   */\n      add\n        /* \"#utility.yul\":6116:6169   */\n      tag_247\n      jump\t// in\n    tag_382:\n        /* \"#utility.yul\":6106:6169   */\n      swap10\n      pop\n        /* \"#utility.yul\":6062:6179   */\n      pop\n        /* \"#utility.yul\":6218:6220   */\n      0x20\n        /* \"#utility.yul\":6244:6297   */\n      tag_383\n        /* \"#utility.yul\":6289:6296   */\n      dup13\n        /* \"#utility.yul\":6280:6286   */\n      dup3\n        /* \"#utility.yul\":6269:6278   */\n      dup14\n        /* \"#utility.yul\":6265:6287   */\n      add\n        /* \"#utility.yul\":6244:6297   */\n      tag_247\n      jump\t// in\n    tag_383:\n        /* \"#utility.yul\":6234:6297   */\n      swap9\n      pop\n        /* \"#utility.yul\":6189:6307   */\n      pop\n        /* \"#utility.yul\":6346:6348   */\n      0x40\n        /* \"#utility.yul\":6372:6425   */\n      tag_384\n        /* \"#utility.yul\":6417:6424   */\n      dup13\n        /* \"#utility.yul\":6408:6414   */\n      dup3\n        /* \"#utility.yul\":6397:6406   */\n      dup14\n        /* \"#utility.yul\":6393:6415   */\n      add\n        /* \"#utility.yul\":6372:6425   */\n      tag_249\n      jump\t// in\n    tag_384:\n        /* \"#utility.yul\":6362:6425   */\n      swap8\n      pop\n        /* \"#utility.yul\":6317:6435   */\n      pop\n        /* \"#utility.yul\":6474:6476   */\n      0x60\n        /* \"#utility.yul\":6500:6553   */\n      tag_385\n        /* \"#utility.yul\":6545:6552   */\n      dup13\n        /* \"#utility.yul\":6536:6542   */\n      dup3\n        /* \"#utility.yul\":6525:6534   */\n      dup14\n        /* \"#utility.yul\":6521:6543   */\n      add\n        /* \"#utility.yul\":6500:6553   */\n      tag_252\n      jump\t// in\n    tag_385:\n        /* \"#utility.yul\":6490:6553   */\n      swap7\n      pop\n        /* \"#utility.yul\":6445:6563   */\n      pop\n        /* \"#utility.yul\":6602:6605   */\n      0x80\n        /* \"#utility.yul\":6629:6682   */\n      tag_386\n        /* \"#utility.yul\":6674:6681   */\n      dup13\n        /* \"#utility.yul\":6665:6671   */\n      dup3\n        /* \"#utility.yul\":6654:6663   */\n      dup14\n        /* \"#utility.yul\":6650:6672   */\n      add\n        /* \"#utility.yul\":6629:6682   */\n      tag_252\n      jump\t// in\n    tag_386:\n        /* \"#utility.yul\":6619:6682   */\n      swap6\n      pop\n        /* \"#utility.yul\":6573:6692   */\n      pop\n        /* \"#utility.yul\":6759:6762   */\n      0xa0\n        /* \"#utility.yul\":6748:6757   */\n      dup11\n        /* \"#utility.yul\":6744:6763   */\n      add\n        /* \"#utility.yul\":6731:6764   */\n      calldataload\n        /* \"#utility.yul\":6791:6809   */\n      0xffffffffffffffff\n        /* \"#utility.yul\":6783:6789   */\n      dup2\n        /* \"#utility.yul\":6780:6810   */\n      gt\n        /* \"#utility.yul\":6777:6894   */\n      iszero\n      tag_387\n      jumpi\n        /* \"#utility.yul\":6813:6892   */\n      tag_388\n      tag_245\n      jump\t// in\n    tag_388:\n        /* \"#utility.yul\":6777:6894   */\n    tag_387:\n        /* \"#utility.yul\":6918:6981   */\n      tag_389\n        /* \"#utility.yul\":6973:6980   */\n      dup13\n        /* \"#utility.yul\":6964:6970   */\n      dup3\n        /* \"#utility.yul\":6953:6962   */\n      dup14\n        /* \"#utility.yul\":6949:6971   */\n      add\n        /* \"#utility.yul\":6918:6981   */\n      tag_261\n      jump\t// in\n    tag_389:\n        /* \"#utility.yul\":6908:6981   */\n      swap5\n      pop\n        /* \"#utility.yul\":6702:6991   */\n      pop\n        /* \"#utility.yul\":7030:7033   */\n      0xc0\n        /* \"#utility.yul\":7057:7110   */\n      tag_390\n        /* \"#utility.yul\":7102:7109   */\n      dup13\n        /* \"#utility.yul\":7093:7099   */\n      dup3\n        /* \"#utility.yul\":7082:7091   */\n      dup14\n        /* \"#utility.yul\":7078:7100   */\n      add\n        /* \"#utility.yul\":7057:7110   */\n      tag_247\n      jump\t// in\n    tag_390:\n        /* \"#utility.yul\":7047:7110   */\n      swap4\n      pop\n        /* \"#utility.yul\":7001:7120   */\n      pop\n        /* \"#utility.yul\":7159:7162   */\n      0xe0\n        /* \"#utility.yul\":7186:7239   */\n      tag_391\n        /* \"#utility.yul\":7231:7238   */\n      dup13\n        /* \"#utility.yul\":7222:7228   */\n      dup3\n        /* \"#utility.yul\":7211:7220   */\n      dup14\n        /* \"#utility.yul\":7207:7229   */\n      add\n        /* \"#utility.yul\":7186:7239   */\n      tag_247\n      jump\t// in\n    tag_391:\n        /* \"#utility.yul\":7176:7239   */\n      swap3\n      pop\n        /* \"#utility.yul\":7130:7249   */\n      pop\n        /* \"#utility.yul\":7288:7291   */\n      0x0100\n        /* \"#utility.yul\":7315:7368   */\n      tag_392\n        /* \"#utility.yul\":7360:7367   */\n      dup13\n        /* \"#utility.yul\":7351:7357   */\n      dup3\n        /* \"#utility.yul\":7340:7349   */\n      dup14\n        /* \"#utility.yul\":7336:7358   */\n      add\n        /* \"#utility.yul\":7315:7368   */\n      tag_247\n      jump\t// in\n    tag_392:\n        /* \"#utility.yul\":7305:7368   */\n      swap2\n      pop\n        /* \"#utility.yul\":7259:7378   */\n      pop\n        /* \"#utility.yul\":5710:7385   */\n      swap3\n      swap6\n      swap9\n      pop\n      swap3\n      swap6\n      swap9\n      pop\n      swap3\n      swap6\n      swap9\n      jump\t// out\n        /* \"#utility.yul\":7391:7509   */\n    tag_262:\n        /* \"#utility.yul\":7478:7502   */\n      tag_394\n        /* \"#utility.yul\":7496:7501   */\n      dup2\n        /* \"#utility.yul\":7478:7502   */\n      tag_250\n      jump\t// in\n    tag_394:\n        /* \"#utility.yul\":7473:7476   */\n      dup3\n        /* \"#utility.yul\":7466:7503   */\n      mstore\n        /* \"#utility.yul\":7391:7509   */\n      pop\n      pop\n      jump\t// out\n        /* \"#utility.yul\":7515:7737   */\n    tag_49:\n        /* \"#utility.yul\":7608:7612   */\n      0x00\n        /* \"#utility.yul\":7646:7648   */\n      0x20\n        /* \"#utility.yul\":7635:7644   */\n      dup3\n        /* \"#utility.yul\":7631:7649   */\n      add\n        /* \"#utility.yul\":7623:7649   */\n      swap1\n      pop\n        /* \"#utility.yul\":7659:7730   */\n      tag_396\n        /* \"#utility.yul\":7727:7728   */\n      0x00\n        /* \"#utility.yul\":7716:7725   */\n      dup4\n        /* \"#utility.yul\":7712:7729   */\n      add\n        /* \"#utility.yul\":7703:7709   */\n      dup5\n        /* \"#utility.yul\":7659:7730   */\n      tag_262\n      jump\t// in\n    tag_396:\n        /* \"#utility.yul\":7515:7737   */\n      swap3\n      swap2\n      pop\n      pop\n      jump\t// out\n        /* \"#utility.yul\":7743:8072   */\n    tag_52:\n        /* \"#utility.yul\":7802:7808   */\n      0x00\n        /* \"#utility.yul\":7851:7853   */\n      0x20\n        /* \"#utility.yul\":7839:7848   */\n      dup3\n        /* \"#utility.yul\":7830:7837   */\n      dup5\n        /* \"#utility.yul\":7826:7849   */\n      sub\n        /* \"#utility.yul\":7822:7854   */\n      slt\n        /* \"#utility.yul\":7819:7938   */\n      iszero\n      tag_398\n      jumpi\n        /* \"#utility.yul\":7857:7936   */\n      tag_399\n      tag_244\n      jump\t// in\n    tag_399:\n        /* \"#utility.yul\":7819:7938   */\n    tag_398:\n        /* \"#utility.yul\":7977:7978   */\n      0x00\n        /* \"#utility.yul\":8002:8055   */\n      tag_400\n        /* \"#utility.yul\":8047:8054   */\n      dup5\n        /* \"#utility.yul\":8038:8044   */\n      dup3\n        /* \"#utility.yul\":8027:8036   */\n      dup6\n        /* \"#utility.yul\":8023:8045   */\n      add\n        /* \"#utility.yul\":8002:8055   */\n      tag_249\n      jump\t// in\n    tag_400:\n        /* \"#utility.yul\":7992:8055   */\n      swap2\n      pop\n        /* \"#utility.yul\":7948:8065   */\n      pop\n        /* \"#utility.yul\":7743:8072   */\n      swap3\n      swap2\n      pop\n      pop\n      jump\t// out\n        /* \"#utility.yul\":8078:8168   */\n    tag_263:\n        /* \"#utility.yul\":8112:8119   */\n      0x00\n        /* \"#utility.yul\":8155:8160   */\n      dup2\n        /* \"#utility.yul\":8148:8161   */\n      iszero\n        /* \"#utility.yul\":8141:8162   */\n      iszero\n        /* \"#utility.yul\":8130:8162   */\n      swap1\n      pop\n        /* \"#utility.yul\":8078:8168   */\n      swap2\n      swap1\n      pop\n      jump\t// out\n        /* \"#utility.yul\":8174:8283   */\n    tag_264:\n        /* \"#utility.yul\":8255:8276   */\n      tag_403\n        /* \"#utility.yul\":8270:8275   */\n      dup2\n        /* \"#utility.yul\":8255:8276   */\n      tag_263\n      jump\t// in\n    tag_403:\n        /* \"#utility.yul\":8250:8253   */\n      dup3\n        /* \"#utility.yul\":8243:8277   */\n      mstore\n        /* \"#utility.yul\":8174:8283   */\n      pop\n      pop\n      jump\t// out\n        /* \"#utility.yul\":8289:8499   */\n    tag_62:\n        /* \"#utility.yul\":8376:8380   */\n      0x00\n        /* \"#utility.yul\":8414:8416   */\n      0x20\n        /* \"#utility.yul\":8403:8412   */\n      dup3\n        /* \"#utility.yul\":8399:8417   */\n      add\n        /* \"#utility.yul\":8391:8417   */\n      swap1\n      pop\n        /* \"#utility.yul\":8427:8492   */\n      tag_405\n        /* \"#utility.yul\":8489:8490   */\n      0x00\n        /* \"#utility.yul\":8478:8487   */\n      dup4\n        /* \"#utility.yul\":8474:8491   */\n      add\n        /* \"#utility.yul\":8465:8471   */\n      dup5\n        /* \"#utility.yul\":8427:8492   */\n      tag_264\n      jump\t// in\n    tag_405:\n        /* \"#utility.yul\":8289:8499   */\n      swap3\n      swap2\n      pop\n      pop\n      jump\t// out\n        /* \"#utility.yul\":8505:9124   */\n    tag_73:\n        /* \"#utility.yul\":8582:8588   */\n      0x00\n        /* \"#utility.yul\":8590:8596   */\n      dup1\n        /* \"#utility.yul\":8598:8604   */\n      0x00\n        /* \"#utility.yul\":8647:8649   */\n      0x60\n        /* \"#utility.yul\":8635:8644   */\n      dup5\n        /* \"#utility.yul\":8626:8633   */\n      dup7\n        /* \"#utility.yul\":8622:8645   */\n      sub\n        /* \"#utility.yul\":8618:8650   */\n      slt\n        /* \"#utility.yul\":8615:8734   */\n      iszero\n      tag_407\n      jumpi\n        /* \"#utility.yul\":8653:8732   */\n      tag_408\n      tag_244\n      jump\t// in\n    tag_408:\n        /* \"#utility.yul\":8615:8734   */\n    tag_407:\n        /* \"#utility.yul\":8773:8774   */\n      0x00\n        /* \"#utility.yul\":8798:8851   */\n      tag_409\n        /* \"#utility.yul\":8843:8850   */\n      dup7\n        /* \"#utility.yul\":8834:8840   */\n      dup3\n        /* \"#utility.yul\":8823:8832   */\n      dup8\n        /* \"#utility.yul\":8819:8841   */\n      add\n        /* \"#utility.yul\":8798:8851   */\n      tag_247\n      jump\t// in\n    tag_409:\n        /* \"#utility.yul\":8788:8851   */\n      swap4\n      pop\n        /* \"#utility.yul\":8744:8861   */\n      pop\n        /* \"#utility.yul\":8900:8902   */\n      0x20\n        /* \"#utility.yul\":8926:8979   */\n      tag_410\n        /* \"#utility.yul\":8971:8978   */\n      dup7\n        /* \"#utility.yul\":8962:8968   */\n      dup3\n        /* \"#utility.yul\":8951:8960   */\n      dup8\n        /* \"#utility.yul\":8947:8969   */\n      add\n        /* \"#utility.yul\":8926:8979   */\n      tag_247\n      jump\t// in\n    tag_410:\n        /* \"#utility.yul\":8916:8979   */\n      swap3\n      pop\n        /* \"#utility.yul\":8871:8989   */\n      pop\n        /* \"#utility.yul\":9028:9030   */\n      0x40\n        /* \"#utility.yul\":9054:9107   */\n      tag_411\n        /* \"#utility.yul\":9099:9106   */\n      dup7\n        /* \"#utility.yul\":9090:9096   */\n      dup3\n        /* \"#utility.yul\":9079:9088   */\n      dup8\n        /* \"#utility.yul\":9075:9097   */\n      add\n        /* \"#utility.yul\":9054:9107   */\n      tag_249\n      jump\t// in\n    tag_411:\n        /* \"#utility.yul\":9044:9107   */\n      swap2\n      pop\n        /* \"#utility.yul\":8999:9117   */\n      pop\n        /* \"#utility.yul\":8505:9124   */\n      swap3\n      pop\n      swap3\n      pop\n      swap3\n      jump\t// out\n        /* \"#utility.yul\":9130:9437   */\n    tag_265:\n        /* \"#utility.yul\":9191:9195   */\n      0x00\n        /* \"#utility.yul\":9281:9299   */\n      0xffffffffffffffff\n        /* \"#utility.yul\":9273:9279   */\n      dup3\n        /* \"#utility.yul\":9270:9300   */\n      gt\n        /* \"#utility.yul\":9267:9323   */\n      iszero\n      tag_413\n      jumpi\n        /* \"#utility.yul\":9303:9321   */\n      tag_414\n      tag_255\n      jump\t// in\n    tag_414:\n        /* \"#utility.yul\":9267:9323   */\n    tag_413:\n        /* \"#utility.yul\":9341:9370   */\n      tag_415\n        /* \"#utility.yul\":9363:9369   */\n      dup3\n        /* \"#utility.yul\":9341:9370   */\n      tag_236\n      jump\t// in\n    tag_415:\n        /* \"#utility.yul\":9333:9370   */\n      swap1\n      pop\n        /* \"#utility.yul\":9425:9429   */\n      0x20\n        /* \"#utility.yul\":9419:9423   */\n      dup2\n        /* \"#utility.yul\":9415:9430   */\n      add\n        /* \"#utility.yul\":9407:9430   */\n      swap1\n      pop\n        /* \"#utility.yul\":9130:9437   */\n      swap2\n      swap1\n      pop\n      jump\t// out\n        /* \"#utility.yul\":9443:9866   */\n    tag_266:\n        /* \"#utility.yul\":9520:9525   */\n      0x00\n        /* \"#utility.yul\":9545:9610   */\n      tag_417\n        /* \"#utility.yul\":9561:9609   */\n      tag_418\n        /* \"#utility.yul\":9602:9608   */\n      dup5\n        /* \"#utility.yul\":9561:9609   */\n      tag_265\n      jump\t// in\n    tag_418:\n        /* \"#utility.yul\":9545:9610   */\n      tag_257\n      jump\t// in\n    tag_417:\n        /* \"#utility.yul\":9536:9610   */\n      swap1\n      pop\n        /* \"#utility.yul\":9633:9639   */\n      dup3\n        /* \"#utility.yul\":9626:9631   */\n      dup2\n        /* \"#utility.yul\":9619:9640   */\n      mstore\n        /* \"#utility.yul\":9671:9675   */\n      0x20\n        /* \"#utility.yul\":9664:9669   */\n      dup2\n        /* \"#utility.yul\":9660:9676   */\n      add\n        /* \"#utility.yul\":9709:9712   */\n      dup5\n        /* \"#utility.yul\":9700:9706   */\n      dup5\n        /* \"#utility.yul\":9695:9698   */\n      dup5\n        /* \"#utility.yul\":9691:9707   */\n      add\n        /* \"#utility.yul\":9688:9713   */\n      gt\n        /* \"#utility.yul\":9685:9797   */\n      iszero\n      tag_419\n      jumpi\n        /* \"#utility.yul\":9716:9795   */\n      tag_420\n      tag_254\n      jump\t// in\n    tag_420:\n        /* \"#utility.yul\":9685:9797   */\n    tag_419:\n        /* \"#utility.yul\":9806:9860   */\n      tag_421\n        /* \"#utility.yul\":9853:9859   */\n      dup5\n        /* \"#utility.yul\":9848:9851   */\n      dup3\n        /* \"#utility.yul\":9843:9846   */\n      dup6\n        /* \"#utility.yul\":9806:9860   */\n      tag_259\n      jump\t// in\n    tag_421:\n        /* \"#utility.yul\":9526:9866   */\n      pop\n        /* \"#utility.yul\":9443:9866   */\n      swap4\n      swap3\n      pop\n      pop\n      pop\n      jump\t// out\n        /* \"#utility.yul\":9885:10223   */\n    tag_267:\n        /* \"#utility.yul\":9940:9945   */\n      0x00\n        /* \"#utility.yul\":9989:9992   */\n      dup3\n        /* \"#utility.yul\":9982:9986   */\n      0x1f\n        /* \"#utility.yul\":9974:9980   */\n      dup4\n        /* \"#utility.yul\":9970:9987   */\n      add\n        /* \"#utility.yul\":9966:9993   */\n      slt\n        /* \"#utility.yul\":9956:10078   */\n      tag_423\n      jumpi\n        /* \"#utility.yul\":9997:10076   */\n      tag_424\n      tag_253\n      jump\t// in\n    tag_424:\n        /* \"#utility.yul\":9956:10078   */\n    tag_423:\n        /* \"#utility.yul\":10114:10120   */\n      dup2\n        /* \"#utility.yul\":10101:10121   */\n      calldataload\n        /* \"#utility.yul\":10139:10217   */\n      tag_425\n        /* \"#utility.yul\":10213:10216   */\n      dup5\n        /* \"#utility.yul\":10205:10211   */\n      dup3\n        /* \"#utility.yul\":10198:10202   */\n      0x20\n        /* \"#utility.yul\":10190:10196   */\n      dup7\n        /* \"#utility.yul\":10186:10203   */\n      add\n        /* \"#utility.yul\":10139:10217   */\n      tag_266\n      jump\t// in\n    tag_425:\n        /* \"#utility.yul\":10130:10217   */\n      swap2\n      pop\n        /* \"#utility.yul\":9946:10223   */\n      pop\n        /* \"#utility.yul\":9885:10223   */\n      swap3\n      swap2\n      pop\n      pop\n      jump\t// out\n        /* \"#utility.yul\":10229:11350   */\n    tag_86:\n        /* \"#utility.yul\":10333:10339   */\n      0x00\n        /* \"#utility.yul\":10341:10347   */\n      dup1\n        /* \"#utility.yul\":10349:10355   */\n      0x00\n        /* \"#utility.yul\":10357:10363   */\n      dup1\n        /* \"#utility.yul\":10406:10409   */\n      0x80\n        /* \"#utility.yul\":10394:10403   */\n      dup6\n        /* \"#utility.yul\":10385:10392   */\n      dup8\n        /* \"#utility.yul\":10381:10404   */\n      sub\n        /* \"#utility.yul\":10377:10410   */\n      slt\n        /* \"#utility.yul\":10374:10494   */\n      iszero\n      tag_427\n      jumpi\n        /* \"#utility.yul\":10413:10492   */\n      tag_428\n      tag_244\n      jump\t// in\n    tag_428:\n        /* \"#utility.yul\":10374:10494   */\n    tag_427:\n        /* \"#utility.yul\":10561:10562   */\n      0x00\n        /* \"#utility.yul\":10550:10559   */\n      dup6\n        /* \"#utility.yul\":10546:10563   */\n      add\n        /* \"#utility.yul\":10533:10564   */\n      calldataload\n        /* \"#utility.yul\":10591:10609   */\n      0xffffffffffffffff\n        /* \"#utility.yul\":10583:10589   */\n      dup2\n        /* \"#utility.yul\":10580:10610   */\n      gt\n        /* \"#utility.yul\":10577:10694   */\n      iszero\n      tag_429\n      jumpi\n        /* \"#utility.yul\":10613:10692   */\n      tag_430\n      tag_245\n      jump\t// in\n    tag_430:\n        /* \"#utility.yul\":10577:10694   */\n    tag_429:\n        /* \"#utility.yul\":10718:10780   */\n      tag_431\n        /* \"#utility.yul\":10772:10779   */\n      dup8\n        /* \"#utility.yul\":10763:10769   */\n      dup3\n        /* \"#utility.yul\":10752:10761   */\n      dup9\n        /* \"#utility.yul\":10748:10770   */\n      add\n        /* \"#utility.yul\":10718:10780   */\n      tag_267\n      jump\t// in\n    tag_431:\n        /* \"#utility.yul\":10708:10780   */\n      swap5\n      pop\n        /* \"#utility.yul\":10504:10790   */\n      pop\n        /* \"#utility.yul\":10857:10859   */\n      0x20\n        /* \"#utility.yul\":10846:10855   */\n      dup6\n        /* \"#utility.yul\":10842:10860   */\n      add\n        /* \"#utility.yul\":10829:10861   */\n      calldataload\n        /* \"#utility.yul\":10888:10906   */\n      0xffffffffffffffff\n        /* \"#utility.yul\":10880:10886   */\n      dup2\n        /* \"#utility.yul\":10877:10907   */\n      gt\n        /* \"#utility.yul\":10874:10991   */\n      iszero\n      tag_432\n      jumpi\n        /* \"#utility.yul\":10910:10989   */\n      tag_433\n      tag_245\n      jump\t// in\n    tag_433:\n        /* \"#utility.yul\":10874:10991   */\n    tag_432:\n        /* \"#utility.yul\":11015:11077   */\n      tag_434\n        /* \"#utility.yul\":11069:11076   */\n      dup8\n        /* \"#utility.yul\":11060:11066   */\n      dup3\n        /* \"#utility.yul\":11049:11058   */\n      dup9\n        /* \"#utility.yul\":11045:11067   */\n      add\n        /* \"#utility.yul\":11015:11077   */\n      tag_267\n      jump\t// in\n    tag_434:\n        /* \"#utility.yul\":11005:11077   */\n      swap4\n      pop\n        /* \"#utility.yul\":10800:11087   */\n      pop\n        /* \"#utility.yul\":11126:11128   */\n      0x40\n        /* \"#utility.yul\":11152:11205   */\n      tag_435\n        /* \"#utility.yul\":11197:11204   */\n      dup8\n        /* \"#utility.yul\":11188:11194   */\n      dup3\n        /* \"#utility.yul\":11177:11186   */\n      dup9\n        /* \"#utility.yul\":11173:11195   */\n      add\n        /* \"#utility.yul\":11152:11205   */\n      tag_247\n      jump\t// in\n    tag_435:\n        /* \"#utility.yul\":11142:11205   */\n      swap3\n      pop\n        /* \"#utility.yul\":11097:11215   */\n      pop\n        /* \"#utility.yul\":11254:11256   */\n      0x60\n        /* \"#utility.yul\":11280:11333   */\n      tag_436\n        /* \"#utility.yul\":11325:11332   */\n      dup8\n        /* \"#utility.yul\":11316:11322   */\n      dup3\n        /* \"#utility.yul\":11305:11314   */\n      dup9\n        /* \"#utility.yul\":11301:11323   */\n      add\n        /* \"#utility.yul\":11280:11333   */\n      tag_249\n      jump\t// in\n    tag_436:\n        /* \"#utility.yul\":11270:11333   */\n      swap2\n      pop\n        /* \"#utility.yul\":11225:11343   */\n      pop\n        /* \"#utility.yul\":10229:11350   */\n      swap3\n      swap6\n      swap2\n      swap5\n      pop\n      swap3\n      pop\n      jump\t// out\n        /* \"#utility.yul\":11356:12885   */\n    tag_91:\n        /* \"#utility.yul\":11488:11494   */\n      0x00\n        /* \"#utility.yul\":11496:11502   */\n      dup1\n        /* \"#utility.yul\":11504:11510   */\n      0x00\n        /* \"#utility.yul\":11512:11518   */\n      dup1\n        /* \"#utility.yul\":11520:11526   */\n      0x00\n        /* \"#utility.yul\":11528:11534   */\n      dup1\n        /* \"#utility.yul\":11536:11542   */\n      0x00\n        /* \"#utility.yul\":11544:11550   */\n      dup1\n        /* \"#utility.yul\":11593:11596   */\n      0x0100\n        /* \"#utility.yul\":11581:11590   */\n      dup10\n        /* \"#utility.yul\":11572:11579   */\n      dup12\n        /* \"#utility.yul\":11568:11591   */\n      sub\n        /* \"#utility.yul\":11564:11597   */\n      slt\n        /* \"#utility.yul\":11561:11681   */\n      iszero\n      tag_438\n      jumpi\n        /* \"#utility.yul\":11600:11679   */\n      tag_439\n      tag_244\n      jump\t// in\n    tag_439:\n        /* \"#utility.yul\":11561:11681   */\n    tag_438:\n        /* \"#utility.yul\":11720:11721   */\n      0x00\n        /* \"#utility.yul\":11745:11798   */\n      tag_440\n        /* \"#utility.yul\":11790:11797   */\n      dup12\n        /* \"#utility.yul\":11781:11787   */\n      dup3\n        /* \"#utility.yul\":11770:11779   */\n      dup13\n        /* \"#utility.yul\":11766:11788   */\n      add\n        /* \"#utility.yul\":11745:11798   */\n      tag_252\n      jump\t// in\n    tag_440:\n        /* \"#utility.yul\":11735:11798   */\n      swap9\n      pop\n        /* \"#utility.yul\":11691:11808   */\n      pop\n        /* \"#utility.yul\":11847:11849   */\n      0x20\n        /* \"#utility.yul\":11873:11926   */\n      tag_441\n        /* \"#utility.yul\":11918:11925   */\n      dup12\n        /* \"#utility.yul\":11909:11915   */\n      dup3\n        /* \"#utility.yul\":11898:11907   */\n      dup13\n        /* \"#utility.yul\":11894:11916   */\n      add\n        /* \"#utility.yul\":11873:11926   */\n      tag_252\n      jump\t// in\n    tag_441:\n        /* \"#utility.yul\":11863:11926   */\n      swap8\n      pop\n        /* \"#utility.yul\":11818:11936   */\n      pop\n        /* \"#utility.yul\":12003:12005   */\n      0x40\n        /* \"#utility.yul\":11992:12001   */\n      dup10\n        /* \"#utility.yul\":11988:12006   */\n      add\n        /* \"#utility.yul\":11975:12007   */\n      calldataload\n        /* \"#utility.yul\":12034:12052   */\n      0xffffffffffffffff\n        /* \"#utility.yul\":12026:12032   */\n      dup2\n        /* \"#utility.yul\":12023:12053   */\n      gt\n        /* \"#utility.yul\":12020:12137   */\n      iszero\n      tag_442\n      jumpi\n        /* \"#utility.yul\":12056:12135   */\n      tag_443\n      tag_245\n      jump\t// in\n    tag_443:\n        /* \"#utility.yul\":12020:12137   */\n    tag_442:\n        /* \"#utility.yul\":12161:12224   */\n      tag_444\n        /* \"#utility.yul\":12216:12223   */\n      dup12\n        /* \"#utility.yul\":12207:12213   */\n      dup3\n        /* \"#utility.yul\":12196:12205   */\n      dup13\n        /* \"#utility.yul\":12192:12214   */\n      add\n        /* \"#utility.yul\":12161:12224   */\n      tag_261\n      jump\t// in\n    tag_444:\n        /* \"#utility.yul\":12151:12224   */\n      swap7\n      pop\n        /* \"#utility.yul\":11946:12234   */\n      pop\n        /* \"#utility.yul\":12273:12275   */\n      0x60\n        /* \"#utility.yul\":12299:12352   */\n      tag_445\n        /* \"#utility.yul\":12344:12351   */\n      dup12\n        /* \"#utility.yul\":12335:12341   */\n      dup3\n        /* \"#utility.yul\":12324:12333   */\n      dup13\n        /* \"#utility.yul\":12320:12342   */\n      add\n        /* \"#utility.yul\":12299:12352   */\n      tag_247\n      jump\t// in\n    tag_445:\n        /* \"#utility.yul\":12289:12352   */\n      swap6\n      pop\n        /* \"#utility.yul\":12244:12362   */\n      pop\n        /* \"#utility.yul\":12401:12404   */\n      0x80\n        /* \"#utility.yul\":12428:12481   */\n      tag_446\n        /* \"#utility.yul\":12473:12480   */\n      dup12\n        /* \"#utility.yul\":12464:12470   */\n      dup3\n        /* \"#utility.yul\":12453:12462   */\n      dup13\n        /* \"#utility.yul\":12449:12471   */\n      add\n        /* \"#utility.yul\":12428:12481   */\n      tag_247\n      jump\t// in\n    tag_446:\n        /* \"#utility.yul\":12418:12481   */\n      swap5\n      pop\n        /* \"#utility.yul\":12372:12491   */\n      pop\n        /* \"#utility.yul\":12530:12533   */\n      0xa0\n        /* \"#utility.yul\":12557:12610   */\n      tag_447\n        /* \"#utility.yul\":12602:12609   */\n      dup12\n        /* \"#utility.yul\":12593:12599   */\n      dup3\n        /* \"#utility.yul\":12582:12591   */\n      dup13\n        /* \"#utility.yul\":12578:12600   */\n      add\n        /* \"#utility.yul\":12557:12610   */\n      tag_247\n      jump\t// in\n    tag_447:\n        /* \"#utility.yul\":12547:12610   */\n      swap4\n      pop\n        /* \"#utility.yul\":12501:12620   */\n      pop\n        /* \"#utility.yul\":12659:12662   */\n      0xc0\n        /* \"#utility.yul\":12686:12739   */\n      tag_448\n        /* \"#utility.yul\":12731:12738   */\n      dup12\n        /* \"#utility.yul\":12722:12728   */\n      dup3\n        /* \"#utility.yul\":12711:12720   */\n      dup13\n        /* \"#utility.yul\":12707:12729   */\n      add\n        /* \"#utility.yul\":12686:12739   */\n      tag_247\n      jump\t// in\n    tag_448:\n        /* \"#utility.yul\":12676:12739   */\n      swap3\n      pop\n        /* \"#utility.yul\":12630:12749   */\n      pop\n        /* \"#utility.yul\":12788:12791   */\n      0xe0\n        /* \"#utility.yul\":12815:12868   */\n      tag_449\n        /* \"#utility.yul\":12860:12867   */\n      dup12\n        /* \"#utility.yul\":12851:12857   */\n      dup3\n        /* \"#utility.yul\":12840:12849   */\n      dup13\n        /* \"#utility.yul\":12836:12858   */\n      add\n        /* \"#utility.yul\":12815:12868   */\n      tag_247\n      jump\t// in\n    tag_449:\n        /* \"#utility.yul\":12805:12868   */\n      swap2\n      pop\n        /* \"#utility.yul\":12759:12878   */\n      pop\n        /* \"#utility.yul\":11356:12885   */\n      swap3\n      swap6\n      swap9\n      pop\n      swap3\n      swap6\n      swap9\n      swap1\n      swap4\n      swap7\n      pop\n      jump\t// out\n        /* \"#utility.yul\":12891:13071   */\n    tag_268:\n        /* \"#utility.yul\":12939:13016   */\n      0x4e487b7100000000000000000000000000000000000000000000000000000000\n        /* \"#utility.yul\":12936:12937   */\n      0x00\n        /* \"#utility.yul\":12929:13017   */\n      mstore\n        /* \"#utility.yul\":13036:13040   */\n      0x22\n        /* \"#utility.yul\":13033:13034   */\n      0x04\n        /* \"#utility.yul\":13026:13041   */\n      mstore\n        /* \"#utility.yul\":13060:13064   */\n      0x24\n        /* \"#utility.yul\":13057:13058   */\n      0x00\n        /* \"#utility.yul\":13050:13065   */\n      revert\n        /* \"#utility.yul\":13077:13397   */\n    tag_98:\n        /* \"#utility.yul\":13121:13127   */\n      0x00\n        /* \"#utility.yul\":13158:13159   */\n      0x02\n        /* \"#utility.yul\":13152:13156   */\n      dup3\n        /* \"#utility.yul\":13148:13160   */\n      div\n        /* \"#utility.yul\":13138:13160   */\n      swap1\n      pop\n        /* \"#utility.yul\":13205:13206   */\n      0x01\n        /* \"#utility.yul\":13199:13203   */\n      dup3\n        /* \"#utility.yul\":13195:13207   */\n      and\n        /* \"#utility.yul\":13226:13244   */\n      dup1\n        /* \"#utility.yul\":13216:13297   */\n      tag_452\n      jumpi\n        /* \"#utility.yul\":13282:13286   */\n      0x7f\n        /* \"#utility.yul\":13274:13280   */\n      dup3\n        /* \"#utility.yul\":13270:13287   */\n      and\n        /* \"#utility.yul\":13260:13287   */\n      swap2\n      pop\n        /* \"#utility.yul\":13216:13297   */\n    tag_452:\n        /* \"#utility.yul\":13344:13346   */\n      0x20\n        /* \"#utility.yul\":13336:13342   */\n      dup3\n        /* \"#utility.yul\":13333:13347   */\n      lt\n        /* \"#utility.yul\":13313:13331   */\n      dup2\n        /* \"#utility.yul\":13310:13348   */\n      sub\n        /* \"#utility.yul\":13307:13391   */\n      tag_453\n      jumpi\n        /* \"#utility.yul\":13363:13381   */\n      tag_454\n      tag_268\n      jump\t// in\n    tag_454:\n        /* \"#utility.yul\":13307:13391   */\n    tag_453:\n        /* \"#utility.yul\":13128:13397   */\n      pop\n        /* \"#utility.yul\":13077:13397   */\n      swap2\n      swap1\n      pop\n      jump\t// out\n        /* \"#utility.yul\":13403:13583   */\n    tag_269:\n        /* \"#utility.yul\":13451:13528   */\n      0x4e487b7100000000000000000000000000000000000000000000000000000000\n        /* \"#utility.yul\":13448:13449   */\n      0x00\n        /* \"#utility.yul\":13441:13529   */\n      mstore\n        /* \"#utility.yul\":13548:13552   */\n      0x11\n        /* \"#utility.yul\":13545:13546   */\n      0x04\n        /* \"#utility.yul\":13538:13553   */\n      mstore\n        /* \"#utility.yul\":13572:13576   */\n      0x24\n        /* \"#utility.yul\":13569:13570   */\n      0x00\n        /* \"#utility.yul\":13562:13577   */\n      revert\n        /* \"#utility.yul\":13589:13999   */\n    tag_106:\n        /* \"#utility.yul\":13629:13636   */\n      0x00\n        /* \"#utility.yul\":13652:13672   */\n      tag_457\n        /* \"#utility.yul\":13670:13671   */\n      dup3\n        /* \"#utility.yul\":13652:13672   */\n      tag_241\n      jump\t// in\n    tag_457:\n        /* \"#utility.yul\":13647:13672   */\n      swap2\n      pop\n        /* \"#utility.yul\":13686:13706   */\n      tag_458\n        /* \"#utility.yul\":13704:13705   */\n      dup4\n        /* \"#utility.yul\":13686:13706   */\n      tag_241\n      jump\t// in\n    tag_458:\n        /* \"#utility.yul\":13681:13706   */\n      swap3\n      pop\n        /* \"#utility.yul\":13741:13742   */\n      dup3\n        /* \"#utility.yul\":13738:13739   */\n      dup3\n        /* \"#utility.yul\":13734:13743   */\n      mul\n        /* \"#utility.yul\":13763:13793   */\n      tag_459\n        /* \"#utility.yul\":13781:13792   */\n      dup2\n        /* \"#utility.yul\":13763:13793   */\n      tag_241\n      jump\t// in\n    tag_459:\n        /* \"#utility.yul\":13752:13793   */\n      swap2\n      pop\n        /* \"#utility.yul\":13942:13943   */\n      dup3\n        /* \"#utility.yul\":13933:13940   */\n      dup3\n        /* \"#utility.yul\":13929:13944   */\n      div\n        /* \"#utility.yul\":13926:13927   */\n      dup5\n        /* \"#utility.yul\":13923:13945   */\n      eq\n        /* \"#utility.yul\":13903:13904   */\n      dup4\n        /* \"#utility.yul\":13896:13905   */\n      iszero\n        /* \"#utility.yul\":13876:13959   */\n      or\n        /* \"#utility.yul\":13853:13992   */\n      tag_460\n      jumpi\n        /* \"#utility.yul\":13972:13990   */\n      tag_461\n      tag_269\n      jump\t// in\n    tag_461:\n        /* \"#utility.yul\":13853:13992   */\n    tag_460:\n        /* \"#utility.yul\":13637:13999   */\n      pop\n        /* \"#utility.yul\":13589:13999   */\n      swap3\n      swap2\n      pop\n      pop\n      jump\t// out\n        /* \"#utility.yul\":14005:14168   */\n    tag_270:\n        /* \"#utility.yul\":14145:14160   */\n      0x62616c616e6365206572726f7200000000000000000000000000000000000000\n        /* \"#utility.yul\":14141:14142   */\n      0x00\n        /* \"#utility.yul\":14133:14139   */\n      dup3\n        /* \"#utility.yul\":14129:14143   */\n      add\n        /* \"#utility.yul\":14122:14161   */\n      mstore\n        /* \"#utility.yul\":14005:14168   */\n      pop\n      jump\t// out\n        /* \"#utility.yul\":14174:14540   */\n    tag_271:\n        /* \"#utility.yul\":14316:14319   */\n      0x00\n        /* \"#utility.yul\":14337:14404   */\n      tag_464\n        /* \"#utility.yul\":14401:14403   */\n      0x0d\n        /* \"#utility.yul\":14396:14399   */\n      dup4\n        /* \"#utility.yul\":14337:14404   */\n      tag_234\n      jump\t// in\n    tag_464:\n        /* \"#utility.yul\":14330:14404   */\n      swap2\n      pop\n        /* \"#utility.yul\":14413:14506   */\n      tag_465\n        /* \"#utility.yul\":14502:14505   */\n      dup3\n        /* \"#utility.yul\":14413:14506   */\n      tag_270\n      jump\t// in\n    tag_465:\n        /* \"#utility.yul\":14531:14533   */\n      0x20\n        /* \"#utility.yul\":14526:14529   */\n      dup3\n        /* \"#utility.yul\":14522:14534   */\n      add\n        /* \"#utility.yul\":14515:14534   */\n      swap1\n      pop\n        /* \"#utility.yul\":14174:14540   */\n      swap2\n      swap1\n      pop\n      jump\t// out\n        /* \"#utility.yul\":14546:14965   */\n    tag_109:\n        /* \"#utility.yul\":14712:14716   */\n      0x00\n        /* \"#utility.yul\":14750:14752   */\n      0x20\n        /* \"#utility.yul\":14739:14748   */\n      dup3\n        /* \"#utility.yul\":14735:14753   */\n      add\n        /* \"#utility.yul\":14727:14753   */\n      swap1\n      pop\n        /* \"#utility.yul\":14799:14808   */\n      dup2\n        /* \"#utility.yul\":14793:14797   */\n      dup2\n        /* \"#utility.yul\":14789:14809   */\n      sub\n        /* \"#utility.yul\":14785:14786   */\n      0x00\n        /* \"#utility.yul\":14774:14783   */\n      dup4\n        /* \"#utility.yul\":14770:14787   */\n      add\n        /* \"#utility.yul\":14763:14810   */\n      mstore\n        /* \"#utility.yul\":14827:14958   */\n      tag_467\n        /* \"#utility.yul\":14953:14957   */\n      dup2\n        /* \"#utility.yul\":14827:14958   */\n      tag_271\n      jump\t// in\n    tag_467:\n        /* \"#utility.yul\":14819:14958   */\n      swap1\n      pop\n        /* \"#utility.yul\":14546:14965   */\n      swap2\n      swap1\n      pop\n      jump\t// out\n        /* \"#utility.yul\":14971:15162   */\n    tag_114:\n        /* \"#utility.yul\":15011:15014   */\n      0x00\n        /* \"#utility.yul\":15030:15050   */\n      tag_469\n        /* \"#utility.yul\":15048:15049   */\n      dup3\n        /* \"#utility.yul\":15030:15050   */\n      tag_241\n      jump\t// in\n    tag_469:\n        /* \"#utility.yul\":15025:15050   */\n      swap2\n      pop\n        /* \"#utility.yul\":15064:15084   */\n      tag_470\n        /* \"#utility.yul\":15082:15083   */\n      dup4\n        /* \"#utility.yul\":15064:15084   */\n      tag_241\n      jump\t// in\n    tag_470:\n        /* \"#utility.yul\":15059:15084   */\n      swap3\n      pop\n        /* \"#utility.yul\":15107:15108   */\n      dup3\n        /* \"#utility.yul\":15104:15105   */\n      dup3\n        /* \"#utility.yul\":15100:15109   */\n      add\n        /* \"#utility.yul\":15093:15109   */\n      swap1\n      pop\n        /* \"#utility.yul\":15128:15131   */\n      dup1\n        /* \"#utility.yul\":15125:15126   */\n      dup3\n        /* \"#utility.yul\":15122:15132   */\n      gt\n        /* \"#utility.yul\":15119:15155   */\n      iszero\n      tag_471\n      jumpi\n        /* \"#utility.yul\":15135:15153   */\n      tag_472\n      tag_269\n      jump\t// in\n    tag_472:\n        /* \"#utility.yul\":15119:15155   */\n    tag_471:\n        /* \"#utility.yul\":14971:15162   */\n      swap3\n      swap2\n      pop\n      pop\n      jump\t// out\n        /* \"#utility.yul\":15168:15309   */\n    tag_272:\n        /* \"#utility.yul\":15217:15221   */\n      0x00\n        /* \"#utility.yul\":15240:15243   */\n      dup2\n        /* \"#utility.yul\":15232:15243   */\n      swap1\n      pop\n        /* \"#utility.yul\":15263:15266   */\n      dup2\n        /* \"#utility.yul\":15260:15261   */\n      0x00\n        /* \"#utility.yul\":15253:15267   */\n      mstore\n        /* \"#utility.yul\":15297:15301   */\n      0x20\n        /* \"#utility.yul\":15294:15295   */\n      0x00\n        /* \"#utility.yul\":15284:15302   */\n      keccak256\n        /* \"#utility.yul\":15276:15302   */\n      swap1\n      pop\n        /* \"#utility.yul\":15168:15309   */\n      swap2\n      swap1\n      pop\n      jump\t// out\n        /* \"#utility.yul\":15315:15408   */\n    tag_273:\n        /* \"#utility.yul\":15352:15358   */\n      0x00\n        /* \"#utility.yul\":15399:15401   */\n      0x20\n        /* \"#utility.yul\":15394:15396   */\n      0x1f\n        /* \"#utility.yul\":15387:15392   */\n      dup4\n        /* \"#utility.yul\":15383:15397   */\n      add\n        /* \"#utility.yul\":15379:15402   */\n      div\n        /* \"#utility.yul\":15369:15402   */\n      swap1\n      pop\n        /* \"#utility.yul\":15315:15408   */\n      swap2\n      swap1\n      pop\n      jump\t// out\n        /* \"#utility.yul\":15414:15521   */\n    tag_274:\n        /* \"#utility.yul\":15458:15466   */\n      0x00\n        /* \"#utility.yul\":15508:15513   */\n      dup3\n        /* \"#utility.yul\":15502:15506   */\n      dup3\n        /* \"#utility.yul\":15498:15514   */\n      shl\n        /* \"#utility.yul\":15477:15514   */\n      swap1\n      pop\n        /* \"#utility.yul\":15414:15521   */\n      swap3\n      swap2\n      pop\n      pop\n      jump\t// out\n        /* \"#utility.yul\":15527:15920   */\n    tag_275:\n        /* \"#utility.yul\":15596:15602   */\n      0x00\n        /* \"#utility.yul\":15646:15647   */\n      0x08\n        /* \"#utility.yul\":15634:15644   */\n      dup4\n        /* \"#utility.yul\":15630:15648   */\n      mul\n        /* \"#utility.yul\":15669:15766   */\n      tag_477\n        /* \"#utility.yul\":15699:15765   */\n      0xffffffffffffffffffffffffffffffffffffffffffffffffffffffffffffffff\n        /* \"#utility.yul\":15688:15697   */\n      dup3\n        /* \"#utility.yul\":15669:15766   */\n      tag_274\n      jump\t// in\n    tag_477:\n        /* \"#utility.yul\":15787:15826   */\n      tag_478\n        /* \"#utility.yul\":15817:15825   */\n      dup7\n        /* \"#utility.yul\":15806:15815   */\n      dup4\n        /* \"#utility.yul\":15787:15826   */\n      tag_274\n      jump\t// in\n    tag_478:\n        /* \"#utility.yul\":15775:15826   */\n      swap6\n      pop\n        /* \"#utility.yul\":15859:15863   */\n      dup1\n        /* \"#utility.yul\":15855:15864   */\n      not\n        /* \"#utility.yul\":15848:15853   */\n      dup5\n        /* \"#utility.yul\":15844:15865   */\n      and\n        /* \"#utility.yul\":15835:15865   */\n      swap4\n      pop\n        /* \"#utility.yul\":15908:15912   */\n      dup1\n        /* \"#utility.yul\":15898:15906   */\n      dup7\n        /* \"#utility.yul\":15894:15913   */\n      and\n        /* \"#utility.yul\":15887:15892   */\n      dup5\n        /* \"#utility.yul\":15884:15914   */\n      or\n        /* \"#utility.yul\":15874:15914   */\n      swap3\n      pop\n        /* \"#utility.yul\":15603:15920   */\n      pop\n      pop\n        /* \"#utility.yul\":15527:15920   */\n      swap4\n      swap3\n      pop\n      pop\n      pop\n      jump\t// out\n        /* \"#utility.yul\":15926:15986   */\n    tag_276:\n        /* \"#utility.yul\":15954:15957   */\n      0x00\n        /* \"#utility.yul\":15975:15980   */\n      dup2\n        /* \"#utility.yul\":15968:15980   */\n      swap1\n      pop\n        /* \"#utility.yul\":15926:15986   */\n      swap2\n      swap1\n      pop\n      jump\t// out\n        /* \"#utility.yul\":15992:16134   */\n    tag_277:\n        /* \"#utility.yul\":16042:16051   */\n      0x00\n        /* \"#utility.yul\":16075:16128   */\n      tag_481\n        /* \"#utility.yul\":16093:16127   */\n      tag_482\n        /* \"#utility.yul\":16102:16126   */\n      tag_483\n        /* \"#utility.yul\":16120:16125   */\n      dup5\n        /* \"#utility.yul\":16102:16126   */\n      tag_241\n      jump\t// in\n    tag_483:\n        /* \"#utility.yul\":16093:16127   */\n      tag_276\n      jump\t// in\n    tag_482:\n        /* \"#utility.yul\":16075:16128   */\n      tag_241\n      jump\t// in\n    tag_481:\n        /* \"#utility.yul\":16062:16128   */\n      swap1\n      pop\n        /* \"#utility.yul\":15992:16134   */\n      swap2\n      swap1\n      pop\n      jump\t// out\n        /* \"#utility.yul\":16140:16215   */\n    tag_278:\n        /* \"#utility.yul\":16183:16186   */\n      0x00\n        /* \"#utility.yul\":16204:16209   */\n      dup2\n        /* \"#utility.yul\":16197:16209   */\n      swap1\n      pop\n        /* \"#utility.yul\":16140:16215   */\n      swap2\n      swap1\n      pop\n      jump\t// out\n        /* \"#utility.yul\":16221:16490   */\n    tag_279:\n        /* \"#utility.yul\":16331:16370   */\n      tag_486\n        /* \"#utility.yul\":16362:16369   */\n      dup4\n        /* \"#utility.yul\":16331:16370   */\n      tag_277\n      jump\t// in\n    tag_486:\n        /* \"#utility.yul\":16392:16483   */\n      tag_487\n        /* \"#utility.yul\":16441:16482   */\n      tag_488\n        /* \"#utility.yul\":16465:16481   */\n      dup3\n        /* \"#utility.yul\":16441:16482   */\n      tag_278\n      jump\t// in\n    tag_488:\n        /* \"#utility.yul\":16433:16439   */\n      dup5\n        /* \"#utility.yul\":16426:16430   */\n      dup5\n        /* \"#utility.yul\":16420:16431   */\n      sload\n        /* \"#utility.yul\":16392:16483   */\n      tag_275\n      jump\t// in\n    tag_487:\n        /* \"#utility.yul\":16386:16390   */\n      dup3\n        /* \"#utility.yul\":16379:16484   */\n      sstore\n        /* \"#utility.yul\":16297:16490   */\n      pop\n        /* \"#utility.yul\":16221:16490   */\n      pop\n      pop\n      pop\n      jump\t// out\n        /* \"#utility.yul\":16496:16569   */\n    tag_280:\n        /* \"#utility.yul\":16541:16544   */\n      0x00\n        /* \"#utility.yul\":16496:16569   */\n      swap1\n      jump\t// out\n        /* \"#utility.yul\":16575:16764   */\n    tag_281:\n        /* \"#utility.yul\":16652:16684   */\n      tag_491\n      tag_280\n      jump\t// in\n    tag_491:\n        /* \"#utility.yul\":16693:16758   */\n      tag_492\n        /* \"#utility.yul\":16751:16757   */\n      dup2\n        /* \"#utility.yul\":16743:16749   */\n      dup5\n        /* \"#utility.yul\":16737:16741   */\n      dup5\n        /* \"#utility.yul\":16693:16758   */\n      tag_279\n      jump\t// in\n    tag_492:\n        /* \"#utility.yul\":16628:16764   */\n      pop\n        /* \"#utility.yul\":16575:16764   */\n      pop\n      pop\n      jump\t// out\n        /* \"#utility.yul\":16770:16956   */\n    tag_282:\n        /* \"#utility.yul\":16830:16950   */\n    tag_494:\n        /* \"#utility.yul\":16847:16850   */\n      dup2\n        /* \"#utility.yul\":16840:16845   */\n      dup2\n        /* \"#utility.yul\":16837:16851   */\n      lt\n        /* \"#utility.yul\":16830:16950   */\n      iszero\n      tag_496\n      jumpi\n        /* \"#utility.yul\":16901:16940   */\n      tag_497\n        /* \"#utility.yul\":16938:16939   */\n      0x00\n        /* \"#utility.yul\":16931:16936   */\n      dup3\n        /* \"#utility.yul\":16901:16940   */\n      tag_281\n      jump\t// in\n    tag_497:\n        /* \"#utility.yul\":16874:16875   */\n      0x01\n        /* \"#utility.yul\":16867:16872   */\n      dup2\n        /* \"#utility.yul\":16863:16876   */\n      add\n        /* \"#utility.yul\":16854:16876   */\n      swap1\n      pop\n        /* \"#utility.yul\":16830:16950   */\n      jump(tag_494)\n    tag_496:\n        /* \"#utility.yul\":16770:16956   */\n      pop\n      pop\n      jump\t// out\n        /* \"#utility.yul\":16962:17505   */\n    tag_283:\n        /* \"#utility.yul\":17063:17065   */\n      0x1f\n        /* \"#utility.yul\":17058:17061   */\n      dup3\n        /* \"#utility.yul\":17055:17066   */\n      gt\n        /* \"#utility.yul\":17052:17498   */\n      iszero\n      tag_499\n      jumpi\n        /* \"#utility.yul\":17097:17135   */\n      tag_500\n        /* \"#utility.yul\":17129:17134   */\n      dup2\n        /* \"#utility.yul\":17097:17135   */\n      tag_272\n      jump\t// in\n    tag_500:\n        /* \"#utility.yul\":17181:17210   */\n      tag_501\n        /* \"#utility.yul\":17199:17209   */\n      dup5\n        /* \"#utility.yul\":17181:17210   */\n      tag_273\n      jump\t// in\n    tag_501:\n        /* \"#utility.yul\":17171:17179   */\n      dup2\n        /* \"#utility.yul\":17167:17211   */\n      add\n        /* \"#utility.yul\":17364:17366   */\n      0x20\n        /* \"#utility.yul\":17352:17362   */\n      dup6\n        /* \"#utility.yul\":17349:17367   */\n      lt\n        /* \"#utility.yul\":17346:17395   */\n      iszero\n      tag_502\n      jumpi\n        /* \"#utility.yul\":17385:17393   */\n      dup2\n        /* \"#utility.yul\":17370:17393   */\n      swap1\n      pop\n        /* \"#utility.yul\":17346:17395   */\n    tag_502:\n        /* \"#utility.yul\":17408:17488   */\n      tag_503\n        /* \"#utility.yul\":17464:17486   */\n      tag_504\n        /* \"#utility.yul\":17482:17485   */\n      dup6\n        /* \"#utility.yul\":17464:17486   */\n      tag_273\n      jump\t// in\n    tag_504:\n        /* \"#utility.yul\":17454:17462   */\n      dup4\n        /* \"#utility.yul\":17450:17487   */\n      add\n        /* \"#utility.yul\":17437:17448   */\n      dup3\n        /* \"#utility.yul\":17408:17488   */\n      tag_282\n      jump\t// in\n    tag_503:\n        /* \"#utility.yul\":17067:17498   */\n      pop\n      pop\n        /* \"#utility.yul\":17052:17498   */\n    tag_499:\n        /* \"#utility.yul\":16962:17505   */\n      pop\n      pop\n      pop\n      jump\t// out\n        /* \"#utility.yul\":17511:17628   */\n    tag_284:\n        /* \"#utility.yul\":17565:17573   */\n      0x00\n        /* \"#utility.yul\":17615:17620   */\n      dup3\n        /* \"#utility.yul\":17609:17613   */\n      dup3\n        /* \"#utility.yul\":17605:17621   */\n      shr\n        /* \"#utility.yul\":17584:17621   */\n      swap1\n      pop\n        /* \"#utility.yul\":17511:17628   */\n      swap3\n      swap2\n      pop\n      pop\n      jump\t// out\n        /* \"#utility.yul\":17634:17803   */\n    tag_285:\n        /* \"#utility.yul\":17678:17684   */\n      0x00\n        /* \"#utility.yul\":17711:17762   */\n      tag_507\n        /* \"#utility.yul\":17759:17760   */\n      0x00\n        /* \"#utility.yul\":17755:17761   */\n      not\n        /* \"#utility.yul\":17747:17752   */\n      dup5\n        /* \"#utility.yul\":17744:17745   */\n      0x08\n        /* \"#utility.yul\":17740:17753   */\n      mul\n        /* \"#utility.yul\":17711:17762   */\n      tag_284\n      jump\t// in\n    tag_507:\n        /* \"#utility.yul\":17707:17763   */\n      not\n        /* \"#utility.yul\":17792:17796   */\n      dup1\n        /* \"#utility.yul\":17786:17790   */\n      dup4\n        /* \"#utility.yul\":17782:17797   */\n      and\n        /* \"#utility.yul\":17772:17797   */\n      swap2\n      pop\n        /* \"#utility.yul\":17685:17803   */\n      pop\n        /* \"#utility.yul\":17634:17803   */\n      swap3\n      swap2\n      pop\n      pop\n      jump\t// out\n        /* \"#utility.yul\":17808:18103   */\n    tag_286:\n        /* \"#utility.yul\":17884:17888   */\n      0x00\n        /* \"#utility.yul\":18030:18059   */\n      tag_509\n        /* \"#utility.yul\":18055:18058   */\n      dup4\n        /* \"#utility.yul\":18049:18053   */\n      dup4\n        /* \"#utility.yul\":18030:18059   */\n      tag_285\n      jump\t// in\n    tag_509:\n        /* \"#utility.yul\":18022:18059   */\n      swap2\n      pop\n        /* \"#utility.yul\":18092:18095   */\n      dup3\n        /* \"#utility.yul\":18089:18090   */\n      0x02\n        /* \"#utility.yul\":18085:18096   */\n      mul\n        /* \"#utility.yul\":18079:18083   */\n      dup3\n        /* \"#utility.yul\":18076:18097   */\n      or\n        /* \"#utility.yul\":18068:18097   */\n      swap1\n      pop\n        /* \"#utility.yul\":17808:18103   */\n      swap3\n      swap2\n      pop\n      pop\n      jump\t// out\n        /* \"#utility.yul\":18108:19503   */\n    tag_122:\n        /* \"#utility.yul\":18225:18262   */\n      tag_511\n        /* \"#utility.yul\":18258:18261   */\n      dup3\n        /* \"#utility.yul\":18225:18262   */\n      tag_233\n      jump\t// in\n    tag_511:\n        /* \"#utility.yul\":18327:18345   */\n      0xffffffffffffffff\n        /* \"#utility.yul\":18319:18325   */\n      dup2\n        /* \"#utility.yul\":18316:18346   */\n      gt\n        /* \"#utility.yul\":18313:18369   */\n      iszero\n      tag_512\n      jumpi\n        /* \"#utility.yul\":18349:18367   */\n      tag_513\n      tag_255\n      jump\t// in\n    tag_513:\n        /* \"#utility.yul\":18313:18369   */\n    tag_512:\n        /* \"#utility.yul\":18393:18431   */\n      tag_514\n        /* \"#utility.yul\":18425:18429   */\n      dup3\n        /* \"#utility.yul\":18419:18430   */\n      sload\n        /* \"#utility.yul\":18393:18431   */\n      tag_98\n      jump\t// in\n    tag_514:\n        /* \"#utility.yul\":18478:18545   */\n      tag_515\n        /* \"#utility.yul\":18538:18544   */\n      dup3\n        /* \"#utility.yul\":18530:18536   */\n      dup3\n        /* \"#utility.yul\":18524:18528   */\n      dup6\n        /* \"#utility.yul\":18478:18545   */\n      tag_283\n      jump\t// in\n    tag_515:\n        /* \"#utility.yul\":18572:18573   */\n      0x00\n        /* \"#utility.yul\":18596:18600   */\n      0x20\n        /* \"#utility.yul\":18583:18600   */\n      swap1\n      pop\n        /* \"#utility.yul\":18628:18630   */\n      0x1f\n        /* \"#utility.yul\":18620:18626   */\n      dup4\n        /* \"#utility.yul\":18617:18631   */\n      gt\n        /* \"#utility.yul\":18645:18646   */\n      0x01\n        /* \"#utility.yul\":18640:19258   */\n      dup2\n      eq\n      tag_517\n      jumpi\n        /* \"#utility.yul\":19302:19303   */\n      0x00\n        /* \"#utility.yul\":19319:19325   */\n      dup5\n        /* \"#utility.yul\":19316:19393   */\n      iszero\n      tag_518\n      jumpi\n        /* \"#utility.yul\":19368:19377   */\n      dup3\n        /* \"#utility.yul\":19363:19366   */\n      dup8\n        /* \"#utility.yul\":19359:19378   */\n      add\n        /* \"#utility.yul\":19353:19379   */\n      mload\n        /* \"#utility.yul\":19344:19379   */\n      swap1\n      pop\n        /* \"#utility.yul\":19316:19393   */\n    tag_518:\n        /* \"#utility.yul\":19419:19486   */\n      tag_519\n        /* \"#utility.yul\":19479:19485   */\n      dup6\n        /* \"#utility.yul\":19472:19477   */\n      dup3\n        /* \"#utility.yul\":19419:19486   */\n      tag_286\n      jump\t// in\n    tag_519:\n        /* \"#utility.yul\":19413:19417   */\n      dup7\n        /* \"#utility.yul\":19406:19487   */\n      sstore\n        /* \"#utility.yul\":19275:19497   */\n      pop\n        /* \"#utility.yul\":18610:19497   */\n      jump(tag_516)\n        /* \"#utility.yul\":18640:19258   */\n    tag_517:\n        /* \"#utility.yul\":18692:18696   */\n      0x1f\n        /* \"#utility.yul\":18688:18697   */\n      not\n        /* \"#utility.yul\":18680:18686   */\n      dup5\n        /* \"#utility.yul\":18676:18698   */\n      and\n        /* \"#utility.yul\":18726:18763   */\n      tag_520\n        /* \"#utility.yul\":18758:18762   */\n      dup7\n        /* \"#utility.yul\":18726:18763   */\n      tag_272\n      jump\t// in\n    tag_520:\n        /* \"#utility.yul\":18785:18786   */\n      0x00\n        /* \"#utility.yul\":18799:19007   */\n    tag_521:\n        /* \"#utility.yul\":18813:18820   */\n      dup3\n        /* \"#utility.yul\":18810:18811   */\n      dup2\n        /* \"#utility.yul\":18807:18821   */\n      lt\n        /* \"#utility.yul\":18799:19007   */\n      iszero\n      tag_523\n      jumpi\n        /* \"#utility.yul\":18892:18901   */\n      dup5\n        /* \"#utility.yul\":18887:18890   */\n      dup10\n        /* \"#utility.yul\":18883:18902   */\n      add\n        /* \"#utility.yul\":18877:18903   */\n      mload\n        /* \"#utility.yul\":18869:18875   */\n      dup3\n        /* \"#utility.yul\":18862:18904   */\n      sstore\n        /* \"#utility.yul\":18943:18944   */\n      0x01\n        /* \"#utility.yul\":18935:18941   */\n      dup3\n        /* \"#utility.yul\":18931:18945   */\n      add\n        /* \"#utility.yul\":18921:18945   */\n      swap2\n      pop\n        /* \"#utility.yul\":18990:18992   */\n      0x20\n        /* \"#utility.yul\":18979:18988   */\n      dup6\n        /* \"#utility.yul\":18975:18993   */\n      add\n        /* \"#utility.yul\":18962:18993   */\n      swap5\n      pop\n        /* \"#utility.yul\":18836:18840   */\n      0x20\n        /* \"#utility.yul\":18833:18834   */\n      dup2\n        /* \"#utility.yul\":18829:18841   */\n      add\n        /* \"#utility.yul\":18824:18841   */\n      swap1\n      pop\n        /* \"#utility.yul\":18799:19007   */\n      jump(tag_521)\n    tag_523:\n        /* \"#utility.yul\":19035:19041   */\n      dup7\n        /* \"#utility.yul\":19026:19033   */\n      dup4\n        /* \"#utility.yul\":19023:19042   */\n      lt\n        /* \"#utility.yul\":19020:19199   */\n      iszero\n      tag_524\n      jumpi\n        /* \"#utility.yul\":19093:19102   */\n      dup5\n        /* \"#utility.yul\":19088:19091   */\n      dup10\n        /* \"#utility.yul\":19084:19103   */\n      add\n        /* \"#utility.yul\":19078:19104   */\n      mload\n        /* \"#utility.yul\":19136:19184   */\n      tag_525\n        /* \"#utility.yul\":19178:19182   */\n      0x1f\n        /* \"#utility.yul\":19170:19176   */\n      dup10\n        /* \"#utility.yul\":19166:19183   */\n      and\n        /* \"#utility.yul\":19155:19164   */\n      dup3\n        /* \"#utility.yul\":19136:19184   */\n      tag_285\n      jump\t// in\n    tag_525:\n        /* \"#utility.yul\":19128:19134   */\n      dup4\n        /* \"#utility.yul\":19121:19185   */\n      sstore\n        /* \"#utility.yul\":19043:19199   */\n      pop\n        /* \"#utility.yul\":19020:19199   */\n    tag_524:\n        /* \"#utility.yul\":19245:19246   */\n      0x01\n        /* \"#utility.yul\":19241:19242   */\n      0x02\n        /* \"#utility.yul\":19233:19239   */\n      dup9\n        /* \"#utility.yul\":19229:19243   */\n      mul\n        /* \"#utility.yul\":19225:19247   */\n      add\n        /* \"#utility.yul\":19219:19223   */\n      dup9\n        /* \"#utility.yul\":19212:19248   */\n      sstore\n        /* \"#utility.yul\":18647:19258   */\n      pop\n      pop\n      pop\n        /* \"#utility.yul\":18610:19497   */\n    tag_516:\n      pop\n        /* \"#utility.yul\":18200:19503   */\n      pop\n      pop\n      pop\n        /* \"#utility.yul\":18108:19503   */\n      pop\n      pop\n      jump\t// out\n        /* \"#utility.yul\":19509:19753   */\n    tag_287:\n        /* \"#utility.yul\":19649:19683   */\n      0x4f6e6c7920637573746f6d6572206f66207468652064656c6976657279206361\n        /* \"#utility.yul\":19645:19646   */\n      0x00\n        /* \"#utility.yul\":19637:19643   */\n      dup3\n        /* \"#utility.yul\":19633:19647   */\n      add\n        /* \"#utility.yul\":19626:19684   */\n      mstore\n        /* \"#utility.yul\":19718:19745   */\n      0x6e2073657420746865206368616e6e656c20706172616d732e00000000000000\n        /* \"#utility.yul\":19713:19715   */\n      0x20\n        /* \"#utility.yul\":19705:19711   */\n      dup3\n        /* \"#utility.yul\":19701:19716   */\n      add\n        /* \"#utility.yul\":19694:19746   */\n      mstore\n        /* \"#utility.yul\":19509:19753   */\n      pop\n      jump\t// out\n        /* \"#utility.yul\":19759:20125   */\n    tag_288:\n        /* \"#utility.yul\":19901:19904   */\n      0x00\n        /* \"#utility.yul\":19922:19989   */\n      tag_528\n        /* \"#utility.yul\":19986:19988   */\n      0x39\n        /* \"#utility.yul\":19981:19984   */\n      dup4\n        /* \"#utility.yul\":19922:19989   */\n      tag_234\n      jump\t// in\n    tag_528:\n        /* \"#utility.yul\":19915:19989   */\n      swap2\n      pop\n        /* \"#utility.yul\":19998:20091   */\n      tag_529\n        /* \"#utility.yul\":20087:20090   */\n      dup3\n        /* \"#utility.yul\":19998:20091   */\n      tag_287\n      jump\t// in\n    tag_529:\n        /* \"#utility.yul\":20116:20118   */\n      0x40\n        /* \"#utility.yul\":20111:20114   */\n      dup3\n        /* \"#utility.yul\":20107:20119   */\n      add\n        /* \"#utility.yul\":20100:20119   */\n      swap1\n      pop\n        /* \"#utility.yul\":19759:20125   */\n      swap2\n      swap1\n      pop\n      jump\t// out\n        /* \"#utility.yul\":20131:20550   */\n    tag_126:\n        /* \"#utility.yul\":20297:20301   */\n      0x00\n        /* \"#utility.yul\":20335:20337   */\n      0x20\n        /* \"#utility.yul\":20324:20333   */\n      dup3\n        /* \"#utility.yul\":20320:20338   */\n      add\n        /* \"#utility.yul\":20312:20338   */\n      swap1\n      pop\n        /* \"#utility.yul\":20384:20393   */\n      dup2\n        /* \"#utility.yul\":20378:20382   */\n      dup2\n        /* \"#utility.yul\":20374:20394   */\n      sub\n        /* \"#utility.yul\":20370:20371   */\n      0x00\n        /* \"#utility.yul\":20359:20368   */\n      dup4\n        /* \"#utility.yul\":20355:20372   */\n      add\n        /* \"#utility.yul\":20348:20395   */\n      mstore\n        /* \"#utility.yul\":20412:20543   */\n      tag_531\n        /* \"#utility.yul\":20538:20542   */\n      dup2\n        /* \"#utility.yul\":20412:20543   */\n      tag_288\n      jump\t// in\n    tag_531:\n        /* \"#utility.yul\":20404:20543   */\n      swap1\n      pop\n        /* \"#utility.yul\":20131:20550   */\n      swap2\n      swap1\n      pop\n      jump\t// out\n        /* \"#utility.yul\":20556:20716   */\n    tag_289:\n        /* \"#utility.yul\":20696:20708   */\n      0x54696d65206572726f7200000000000000000000000000000000000000000000\n        /* \"#utility.yul\":20692:20693   */\n      0x00\n        /* \"#utility.yul\":20684:20690   */\n      dup3\n        /* \"#utility.yul\":20680:20694   */\n      add\n        /* \"#utility.yul\":20673:20709   */\n      mstore\n        /* \"#utility.yul\":20556:20716   */\n      pop\n      jump\t// out\n        /* \"#utility.yul\":20722:21088   */\n    tag_290:\n        /* \"#utility.yul\":20864:20867   */\n      0x00\n        /* \"#utility.yul\":20885:20952   */\n      tag_534\n        /* \"#utility.yul\":20949:20951   */\n      0x0a\n        /* \"#utility.yul\":20944:20947   */\n      dup4\n        /* \"#utility.yul\":20885:20952   */\n      tag_234\n      jump\t// in\n    tag_534:\n        /* \"#utility.yul\":20878:20952   */\n      swap2\n      pop\n        /* \"#utility.yul\":20961:21054   */\n      tag_535\n        /* \"#utility.yul\":21050:21053   */\n      dup3\n        /* \"#utility.yul\":20961:21054   */\n      tag_289\n      jump\t// in\n    tag_535:\n        /* \"#utility.yul\":21079:21081   */\n      0x20\n        /* \"#utility.yul\":21074:21077   */\n      dup3\n        /* \"#utility.yul\":21070:21082   */\n      add\n        /* \"#utility.yul\":21063:21082   */\n      swap1\n      pop\n        /* \"#utility.yul\":20722:21088   */\n      swap2\n      swap1\n      pop\n      jump\t// out\n        /* \"#utility.yul\":21094:21513   */\n    tag_131:\n        /* \"#utility.yul\":21260:21264   */\n      0x00\n        /* \"#utility.yul\":21298:21300   */\n      0x20\n        /* \"#utility.yul\":21287:21296   */\n      dup3\n        /* \"#utility.yul\":21283:21301   */\n      add\n        /* \"#utility.yul\":21275:21301   */\n      swap1\n      pop\n        /* \"#utility.yul\":21347:21356   */\n      dup2\n        /* \"#utility.yul\":21341:21345   */\n      dup2\n        /* \"#utility.yul\":21337:21357   */\n      sub\n        /* \"#utility.yul\":21333:21334   */\n      0x00\n        /* \"#utility.yul\":21322:21331   */\n      dup4\n        /* \"#utility.yul\":21318:21335   */\n      add\n        /* \"#utility.yul\":21311:21358   */\n      mstore\n        /* \"#utility.yul\":21375:21506   */\n      tag_537\n        /* \"#utility.yul\":21501:21505   */\n      dup2\n        /* \"#utility.yul\":21375:21506   */\n      tag_290\n      jump\t// in\n    tag_537:\n        /* \"#utility.yul\":21367:21506   */\n      swap1\n      pop\n        /* \"#utility.yul\":21094:21513   */\n      swap2\n      swap1\n      pop\n      jump\t// out\n        /* \"#utility.yul\":21519:21675   */\n    tag_291:\n        /* \"#utility.yul\":21659:21667   */\n      0x6b203c3d206a0000000000000000000000000000000000000000000000000000\n        /* \"#utility.yul\":21655:21656   */\n      0x00\n        /* \"#utility.yul\":21647:21653   */\n      dup3\n        /* \"#utility.yul\":21643:21657   */\n      add\n        /* \"#utility.yul\":21636:21668   */\n      mstore\n        /* \"#utility.yul\":21519:21675   */\n      pop\n      jump\t// out\n        /* \"#utility.yul\":21681:22046   */\n    tag_292:\n        /* \"#utility.yul\":21823:21826   */\n      0x00\n        /* \"#utility.yul\":21844:21910   */\n      tag_540\n        /* \"#utility.yul\":21908:21909   */\n      0x06\n        /* \"#utility.yul\":21903:21906   */\n      dup4\n        /* \"#utility.yul\":21844:21910   */\n      tag_234\n      jump\t// in\n    tag_540:\n        /* \"#utility.yul\":21837:21910   */\n      swap2\n      pop\n        /* \"#utility.yul\":21919:22012   */\n      tag_541\n        /* \"#utility.yul\":22008:22011   */\n      dup3\n        /* \"#utility.yul\":21919:22012   */\n      tag_291\n      jump\t// in\n    tag_541:\n        /* \"#utility.yul\":22037:22039   */\n      0x20\n        /* \"#utility.yul\":22032:22035   */\n      dup3\n        /* \"#utility.yul\":22028:22040   */\n      add\n        /* \"#utility.yul\":22021:22040   */\n      swap1\n      pop\n        /* \"#utility.yul\":21681:22046   */\n      swap2\n      swap1\n      pop\n      jump\t// out\n        /* \"#utility.yul\":22052:22471   */\n    tag_144:\n        /* \"#utility.yul\":22218:22222   */\n      0x00\n        /* \"#utility.yul\":22256:22258   */\n      0x20\n        /* \"#utility.yul\":22245:22254   */\n      dup3\n        /* \"#utility.yul\":22241:22259   */\n      add\n        /* \"#utility.yul\":22233:22259   */\n      swap1\n      pop\n        /* \"#utility.yul\":22305:22314   */\n      dup2\n        /* \"#utility.yul\":22299:22303   */\n      dup2\n        /* \"#utility.yul\":22295:22315   */\n      sub\n        /* \"#utility.yul\":22291:22292   */\n      0x00\n        /* \"#utility.yul\":22280:22289   */\n      dup4\n        /* \"#utility.yul\":22276:22293   */\n      add\n        /* \"#utility.yul\":22269:22316   */\n      mstore\n        /* \"#utility.yul\":22333:22464   */\n      tag_543\n        /* \"#utility.yul\":22459:22463   */\n      dup2\n        /* \"#utility.yul\":22333:22464   */\n      tag_292\n      jump\t// in\n    tag_543:\n        /* \"#utility.yul\":22325:22464   */\n      swap1\n      pop\n        /* \"#utility.yul\":22052:22471   */\n      swap2\n      swap1\n      pop\n      jump\t// out\n        /* \"#utility.yul\":22477:22575   */\n    tag_293:\n        /* \"#utility.yul\":22528:22534   */\n      0x00\n        /* \"#utility.yul\":22562:22567   */\n      dup2\n        /* \"#utility.yul\":22556:22568   */\n      mload\n        /* \"#utility.yul\":22546:22568   */\n      swap1\n      pop\n        /* \"#utility.yul\":22477:22575   */\n      swap2\n      swap1\n      pop\n      jump\t// out\n        /* \"#utility.yul\":22581:22697   */\n    tag_294:\n        /* \"#utility.yul\":22632:22636   */\n      0x00\n        /* \"#utility.yul\":22655:22658   */\n      dup2\n        /* \"#utility.yul\":22647:22658   */\n      swap1\n      pop\n        /* \"#utility.yul\":22685:22689   */\n      0x20\n        /* \"#utility.yul\":22680:22683   */\n      dup3\n        /* \"#utility.yul\":22676:22690   */\n      add\n        /* \"#utility.yul\":22668:22690   */\n      swap1\n      pop\n        /* \"#utility.yul\":22581:22697   */\n      swap2\n      swap1\n      pop\n      jump\t// out\n        /* \"#utility.yul\":22703:22857   */\n    tag_295:\n        /* \"#utility.yul\":22746:22757   */\n      0x00\n        /* \"#utility.yul\":22782:22811   */\n      tag_547\n        /* \"#utility.yul\":22806:22809   */\n      dup3\n        /* \"#utility.yul\":22800:22810   */\n      mload\n        /* \"#utility.yul\":22782:22811   */\n      tag_250\n      jump\t// in\n    tag_547:\n        /* \"#utility.yul\":22845:22850   */\n      dup1\n        /* \"#utility.yul\":22821:22850   */\n      swap2\n      pop\n        /* \"#utility.yul\":22758:22857   */\n      pop\n        /* \"#utility.yul\":22703:22857   */\n      swap2\n      swap1\n      pop\n      jump\t// out\n        /* \"#utility.yul\":22863:23457   */\n    tag_146:\n        /* \"#utility.yul\":22947:22952   */\n      0x00\n        /* \"#utility.yul\":22978:23016   */\n      tag_549\n        /* \"#utility.yul\":23010:23015   */\n      dup3\n        /* \"#utility.yul\":22978:23016   */\n      tag_293\n      jump\t// in\n    tag_549:\n        /* \"#utility.yul\":23041:23046   */\n      dup3\n        /* \"#utility.yul\":23068:23108   */\n      tag_550\n        /* \"#utility.yul\":23102:23107   */\n      dup5\n        /* \"#utility.yul\":23068:23108   */\n      tag_294\n      jump\t// in\n    tag_550:\n        /* \"#utility.yul\":23056:23108   */\n      swap1\n      pop\n        /* \"#utility.yul\":23127:23162   */\n      tag_551\n        /* \"#utility.yul\":23153:23161   */\n      dup2\n        /* \"#utility.yul\":23127:23162   */\n      tag_295\n      jump\t// in\n    tag_551:\n        /* \"#utility.yul\":23118:23162   */\n      swap3\n      pop\n        /* \"#utility.yul\":23186:23188   */\n      0x20\n        /* \"#utility.yul\":23178:23184   */\n      dup3\n        /* \"#utility.yul\":23175:23189   */\n      lt\n        /* \"#utility.yul\":23172:23450   */\n      iszero\n      tag_552\n      jumpi\n        /* \"#utility.yul\":23257:23426   */\n      tag_553\n        /* \"#utility.yul\":23342:23408   */\n      0xffffffffffffffffffffffffffffffffffffffffffffffffffffffffffffffff\n        /* \"#utility.yul\":23312:23318   */\n      dup4\n        /* \"#utility.yul\":23308:23310   */\n      0x20\n        /* \"#utility.yul\":23304:23319   */\n      sub\n        /* \"#utility.yul\":23301:23302   */\n      0x08\n        /* \"#utility.yul\":23297:23320   */\n      mul\n        /* \"#utility.yul\":23257:23426   */\n      tag_274\n      jump\t// in\n    tag_553:\n        /* \"#utility.yul\":23234:23239   */\n      dup4\n        /* \"#utility.yul\":23213:23440   */\n      and\n        /* \"#utility.yul\":23204:23440   */\n      swap3\n      pop\n        /* \"#utility.yul\":23172:23450   */\n    tag_552:\n        /* \"#utility.yul\":22953:23457   */\n      pop\n      pop\n        /* \"#utility.yul\":22863:23457   */\n      swap2\n      swap1\n      pop\n      jump\t// out\n        /* \"#utility.yul\":23463:23657   */\n    tag_149:\n        /* \"#utility.yul\":23503:23507   */\n      0x00\n        /* \"#utility.yul\":23523:23543   */\n      tag_555\n        /* \"#utility.yul\":23541:23542   */\n      dup3\n        /* \"#utility.yul\":23523:23543   */\n      tag_241\n      jump\t// in\n    tag_555:\n        /* \"#utility.yul\":23518:23543   */\n      swap2\n      pop\n        /* \"#utility.yul\":23557:23577   */\n      tag_556\n        /* \"#utility.yul\":23575:23576   */\n      dup4\n        /* \"#utility.yul\":23557:23577   */\n      tag_241\n      jump\t// in\n    tag_556:\n        /* \"#utility.yul\":23552:23577   */\n      swap3\n      pop\n        /* \"#utility.yul\":23601:23602   */\n      dup3\n        /* \"#utility.yul\":23598:23599   */\n      dup3\n        /* \"#utility.yul\":23594:23603   */\n      sub\n        /* \"#utility.yul\":23586:23603   */\n      swap1\n      pop\n        /* \"#utility.yul\":23625:23626   */\n      dup2\n        /* \"#utility.yul\":23619:23623   */\n      dup2\n        /* \"#utility.yul\":23616:23627   */\n      gt\n        /* \"#utility.yul\":23613:23650   */\n      iszero\n      tag_557\n      jumpi\n        /* \"#utility.yul\":23630:23648   */\n      tag_558\n      tag_269\n      jump\t// in\n    tag_558:\n        /* \"#utility.yul\":23613:23650   */\n    tag_557:\n        /* \"#utility.yul\":23463:23657   */\n      swap3\n      swap2\n      pop\n      pop\n      jump\t// out\n        /* \"#utility.yul\":23663:23742   */\n    tag_296:\n        /* \"#utility.yul\":23702:23709   */\n      0x00\n        /* \"#utility.yul\":23731:23736   */\n      dup2\n        /* \"#utility.yul\":23720:23736   */\n      swap1\n      pop\n        /* \"#utility.yul\":23663:23742   */\n      swap2\n      swap1\n      pop\n      jump\t// out\n        /* \"#utility.yul\":23748:23905   */\n    tag_297:\n        /* \"#utility.yul\":23853:23898   */\n      tag_561\n        /* \"#utility.yul\":23873:23897   */\n      tag_562\n        /* \"#utility.yul\":23891:23896   */\n      dup3\n        /* \"#utility.yul\":23873:23897   */\n      tag_250\n      jump\t// in\n    tag_562:\n        /* \"#utility.yul\":23853:23898   */\n      tag_296\n      jump\t// in\n    tag_561:\n        /* \"#utility.yul\":23848:23851   */\n      dup3\n        /* \"#utility.yul\":23841:23899   */\n      mstore\n        /* \"#utility.yul\":23748:23905   */\n      pop\n      pop\n      jump\t// out\n        /* \"#utility.yul\":23911:24167   */\n    tag_154:\n        /* \"#utility.yul\":24023:24026   */\n      0x00\n        /* \"#utility.yul\":24038:24113   */\n      tag_564\n        /* \"#utility.yul\":24109:24112   */\n      dup3\n        /* \"#utility.yul\":24100:24106   */\n      dup5\n        /* \"#utility.yul\":24038:24113   */\n      tag_297\n      jump\t// in\n    tag_564:\n        /* \"#utility.yul\":24138:24140   */\n      0x20\n        /* \"#utility.yul\":24133:24136   */\n      dup3\n        /* \"#utility.yul\":24129:24141   */\n      add\n        /* \"#utility.yul\":24122:24141   */\n      swap2\n      pop\n        /* \"#utility.yul\":24158:24161   */\n      dup2\n        /* \"#utility.yul\":24151:24161   */\n      swap1\n      pop\n        /* \"#utility.yul\":23911:24167   */\n      swap3\n      swap2\n      pop\n      pop\n      jump\t// out\n        /* \"#utility.yul\":24173:24320   */\n    tag_298:\n        /* \"#utility.yul\":24274:24285   */\n      0x00\n        /* \"#utility.yul\":24311:24314   */\n      dup2\n        /* \"#utility.yul\":24296:24314   */\n      swap1\n      pop\n        /* \"#utility.yul\":24173:24320   */\n      swap3\n      swap2\n      pop\n      pop\n      jump\t// out\n        /* \"#utility.yul\":24326:24712   */\n    tag_299:\n        /* \"#utility.yul\":24430:24433   */\n      0x00\n        /* \"#utility.yul\":24458:24496   */\n      tag_567\n        /* \"#utility.yul\":24490:24495   */\n      dup3\n        /* \"#utility.yul\":24458:24496   */\n      tag_293\n      jump\t// in\n    tag_567:\n        /* \"#utility.yul\":24512:24600   */\n      tag_568\n        /* \"#utility.yul\":24593:24599   */\n      dup2\n        /* \"#utility.yul\":24588:24591   */\n      dup6\n        /* \"#utility.yul\":24512:24600   */\n      tag_298\n      jump\t// in\n    tag_568:\n        /* \"#utility.yul\":24505:24600   */\n      swap4\n      pop\n        /* \"#utility.yul\":24609:24674   */\n      tag_569\n        /* \"#utility.yul\":24667:24673   */\n      dup2\n        /* \"#utility.yul\":24662:24665   */\n      dup6\n        /* \"#utility.yul\":24655:24659   */\n      0x20\n        /* \"#utility.yul\":24648:24653   */\n      dup7\n        /* \"#utility.yul\":24644:24660   */\n      add\n        /* \"#utility.yul\":24609:24674   */\n      tag_235\n      jump\t// in\n    tag_569:\n        /* \"#utility.yul\":24699:24705   */\n      dup1\n        /* \"#utility.yul\":24694:24697   */\n      dup5\n        /* \"#utility.yul\":24690:24706   */\n      add\n        /* \"#utility.yul\":24683:24706   */\n      swap2\n      pop\n        /* \"#utility.yul\":24434:24712   */\n      pop\n        /* \"#utility.yul\":24326:24712   */\n      swap3\n      swap2\n      pop\n      pop\n      jump\t// out\n        /* \"#utility.yul\":24718:24989   */\n    tag_156:\n        /* \"#utility.yul\":24848:24851   */\n      0x00\n        /* \"#utility.yul\":24870:24963   */\n      tag_571\n        /* \"#utility.yul\":24959:24962   */\n      dup3\n        /* \"#utility.yul\":24950:24956   */\n      dup5\n        /* \"#utility.yul\":24870:24963   */\n      tag_299\n      jump\t// in\n    tag_571:\n        /* \"#utility.yul\":24863:24963   */\n      swap2\n      pop\n        /* \"#utility.yul\":24980:24983   */\n      dup2\n        /* \"#utility.yul\":24973:24983   */\n      swap1\n      pop\n        /* \"#utility.yul\":24718:24989   */\n      swap3\n      swap2\n      pop\n      pop\n      jump\t// out\n        /* \"#utility.yul\":24995:25138   */\n    tag_300:\n        /* \"#utility.yul\":25052:25057   */\n      0x00\n        /* \"#utility.yul\":25083:25089   */\n      dup2\n        /* \"#utility.yul\":25077:25090   */\n      mload\n        /* \"#utility.yul\":25068:25090   */\n      swap1\n      pop\n        /* \"#utility.yul\":25099:25132   */\n      tag_573\n        /* \"#utility.yul\":25126:25131   */\n      dup2\n        /* \"#utility.yul\":25099:25132   */\n      tag_251\n      jump\t// in\n    tag_573:\n        /* \"#utility.yul\":24995:25138   */\n      swap3\n      swap2\n      pop\n      pop\n      jump\t// out\n        /* \"#utility.yul\":25144:25495   */\n    tag_160:\n        /* \"#utility.yul\":25214:25220   */\n      0x00\n        /* \"#utility.yul\":25263:25265   */\n      0x20\n        /* \"#utility.yul\":25251:25260   */\n      dup3\n        /* \"#utility.yul\":25242:25249   */\n      dup5\n        /* \"#utility.yul\":25238:25261   */\n      sub\n        /* \"#utility.yul\":25234:25266   */\n      slt\n        /* \"#utility.yul\":25231:25350   */\n      iszero\n      tag_575\n      jumpi\n        /* \"#utility.yul\":25269:25348   */\n      tag_576\n      tag_244\n      jump\t// in\n    tag_576:\n        /* \"#utility.yul\":25231:25350   */\n    tag_575:\n        /* \"#utility.yul\":25389:25390   */\n      0x00\n        /* \"#utility.yul\":25414:25478   */\n      tag_577\n        /* \"#utility.yul\":25470:25477   */\n      dup5\n        /* \"#utility.yul\":25461:25467   */\n      dup3\n        /* \"#utility.yul\":25450:25459   */\n      dup6\n        /* \"#utility.yul\":25446:25468   */\n      add\n        /* \"#utility.yul\":25414:25478   */\n      tag_300\n      jump\t// in\n    tag_577:\n        /* \"#utility.yul\":25404:25478   */\n      swap2\n      pop\n        /* \"#utility.yul\":25360:25488   */\n      pop\n        /* \"#utility.yul\":25144:25495   */\n      swap3\n      swap2\n      pop\n      pop\n      jump\t// out\n        /* \"#utility.yul\":25501:25672   */\n    tag_167:\n        /* \"#utility.yul\":25540:25543   */\n      0x00\n        /* \"#utility.yul\":25563:25587   */\n      tag_579\n        /* \"#utility.yul\":25581:25586   */\n      dup3\n        /* \"#utility.yul\":25563:25587   */\n      tag_241\n      jump\t// in\n    tag_579:\n        /* \"#utility.yul\":25554:25587   */\n      swap2\n      pop\n        /* \"#utility.yul\":25609:25613   */\n      0x00\n        /* \"#utility.yul\":25602:25607   */\n      dup3\n        /* \"#utility.yul\":25599:25614   */\n      sub\n        /* \"#utility.yul\":25596:25637   */\n      tag_580\n      jumpi\n        /* \"#utility.yul\":25617:25635   */\n      tag_581\n      tag_269\n      jump\t// in\n    tag_581:\n        /* \"#utility.yul\":25596:25637   */\n    tag_580:\n        /* \"#utility.yul\":25664:25665   */\n      0x01\n        /* \"#utility.yul\":25657:25662   */\n      dup3\n        /* \"#utility.yul\":25653:25666   */\n      sub\n        /* \"#utility.yul\":25646:25666   */\n      swap1\n      pop\n        /* \"#utility.yul\":25501:25672   */\n      swap2\n      swap1\n      pop\n      jump\t// out\n        /* \"#utility.yul\":25678:25845   */\n    tag_301:\n        /* \"#utility.yul\":25818:25837   */\n      0x575f6b6d20697320696e636f7272656374000000000000000000000000000000\n        /* \"#utility.yul\":25814:25815   */\n      0x00\n        /* \"#utility.yul\":25806:25812   */\n      dup3\n        /* \"#utility.yul\":25802:25816   */\n      add\n        /* \"#utility.yul\":25795:25838   */\n      mstore\n        /* \"#utility.yul\":25678:25845   */\n      pop\n      jump\t// out\n        /* \"#utility.yul\":25851:26217   */\n    tag_302:\n        /* \"#utility.yul\":25993:25996   */\n      0x00\n        /* \"#utility.yul\":26014:26081   */\n      tag_584\n        /* \"#utility.yul\":26078:26080   */\n      0x11\n        /* \"#utility.yul\":26073:26076   */\n      dup4\n        /* \"#utility.yul\":26014:26081   */\n      tag_234\n      jump\t// in\n    tag_584:\n        /* \"#utility.yul\":26007:26081   */\n      swap2\n      pop\n        /* \"#utility.yul\":26090:26183   */\n      tag_585\n        /* \"#utility.yul\":26179:26182   */\n      dup3\n        /* \"#utility.yul\":26090:26183   */\n      tag_301\n      jump\t// in\n    tag_585:\n        /* \"#utility.yul\":26208:26210   */\n      0x20\n        /* \"#utility.yul\":26203:26206   */\n      dup3\n        /* \"#utility.yul\":26199:26211   */\n      add\n        /* \"#utility.yul\":26192:26211   */\n      swap1\n      pop\n        /* \"#utility.yul\":25851:26217   */\n      swap2\n      swap1\n      pop\n      jump\t// out\n        /* \"#utility.yul\":26223:26642   */\n    tag_170:\n        /* \"#utility.yul\":26389:26393   */\n      0x00\n        /* \"#utility.yul\":26427:26429   */\n      0x20\n        /* \"#utility.yul\":26416:26425   */\n      dup3\n        /* \"#utility.yul\":26412:26430   */\n      add\n        /* \"#utility.yul\":26404:26430   */\n      swap1\n      pop\n        /* \"#utility.yul\":26476:26485   */\n      dup2\n        /* \"#utility.yul\":26470:26474   */\n      dup2\n        /* \"#utility.yul\":26466:26486   */\n      sub\n        /* \"#utility.yul\":26462:26463   */\n      0x00\n        /* \"#utility.yul\":26451:26460   */\n      dup4\n        /* \"#utility.yul\":26447:26464   */\n      add\n        /* \"#utility.yul\":26440:26487   */\n      mstore\n        /* \"#utility.yul\":26504:26635   */\n      tag_587\n        /* \"#utility.yul\":26630:26634   */\n      dup2\n        /* \"#utility.yul\":26504:26635   */\n      tag_302\n      jump\t// in\n    tag_587:\n        /* \"#utility.yul\":26496:26635   */\n      swap1\n      pop\n        /* \"#utility.yul\":26223:26642   */\n      swap2\n      swap1\n      pop\n      jump\t// out\n        /* \"#utility.yul\":26648:26815   */\n    tag_303:\n        /* \"#utility.yul\":26788:26807   */\n      0x575f6b6320697320696e636f7272656374000000000000000000000000000000\n        /* \"#utility.yul\":26784:26785   */\n      0x00\n        /* \"#utility.yul\":26776:26782   */\n      dup3\n        /* \"#utility.yul\":26772:26786   */\n      add\n        /* \"#utility.yul\":26765:26808   */\n      mstore\n        /* \"#utility.yul\":26648:26815   */\n      pop\n      jump\t// out\n        /* \"#utility.yul\":26821:27187   */\n    tag_304:\n        /* \"#utility.yul\":26963:26966   */\n      0x00\n        /* \"#utility.yul\":26984:27051   */\n      tag_590\n        /* \"#utility.yul\":27048:27050   */\n      0x11\n        /* \"#utility.yul\":27043:27046   */\n      dup4\n        /* \"#utility.yul\":26984:27051   */\n      tag_234\n      jump\t// in\n    tag_590:\n        /* \"#utility.yul\":26977:27051   */\n      swap2\n      pop\n        /* \"#utility.yul\":27060:27153   */\n      tag_591\n        /* \"#utility.yul\":27149:27152   */\n      dup3\n        /* \"#utility.yul\":27060:27153   */\n      tag_303\n      jump\t// in\n    tag_591:\n        /* \"#utility.yul\":27178:27180   */\n      0x20\n        /* \"#utility.yul\":27173:27176   */\n      dup3\n        /* \"#utility.yul\":27169:27181   */\n      add\n        /* \"#utility.yul\":27162:27181   */\n      swap1\n      pop\n        /* \"#utility.yul\":26821:27187   */\n      swap2\n      swap1\n      pop\n      jump\t// out\n        /* \"#utility.yul\":27193:27612   */\n    tag_173:\n        /* \"#utility.yul\":27359:27363   */\n      0x00\n        /* \"#utility.yul\":27397:27399   */\n      0x20\n        /* \"#utility.yul\":27386:27395   */\n      dup3\n        /* \"#utility.yul\":27382:27400   */\n      add\n        /* \"#utility.yul\":27374:27400   */\n      swap1\n      pop\n        /* \"#utility.yul\":27446:27455   */\n      dup2\n        /* \"#utility.yul\":27440:27444   */\n      dup2\n        /* \"#utility.yul\":27436:27456   */\n      sub\n        /* \"#utility.yul\":27432:27433   */\n      0x00\n        /* \"#utility.yul\":27421:27430   */\n      dup4\n        /* \"#utility.yul\":27417:27434   */\n      add\n        /* \"#utility.yul\":27410:27457   */\n      mstore\n        /* \"#utility.yul\":27474:27605   */\n      tag_593\n        /* \"#utility.yul\":27600:27604   */\n      dup2\n        /* \"#utility.yul\":27474:27605   */\n      tag_304\n      jump\t// in\n    tag_593:\n        /* \"#utility.yul\":27466:27605   */\n      swap1\n      pop\n        /* \"#utility.yul\":27193:27612   */\n      swap2\n      swap1\n      pop\n      jump\t// out\n        /* \"#utility.yul\":27618:27798   */\n    tag_305:\n        /* \"#utility.yul\":27666:27743   */\n      0x4e487b7100000000000000000000000000000000000000000000000000000000\n        /* \"#utility.yul\":27663:27664   */\n      0x00\n        /* \"#utility.yul\":27656:27744   */\n      mstore\n        /* \"#utility.yul\":27763:27767   */\n      0x12\n        /* \"#utility.yul\":27760:27761   */\n      0x04\n        /* \"#utility.yul\":27753:27768   */\n      mstore\n        /* \"#utility.yul\":27787:27791   */\n      0x24\n        /* \"#utility.yul\":27784:27785   */\n      0x00\n        /* \"#utility.yul\":27777:27792   */\n      revert\n        /* \"#utility.yul\":27804:27980   */\n    tag_175:\n        /* \"#utility.yul\":27836:27837   */\n      0x00\n        /* \"#utility.yul\":27853:27873   */\n      tag_596\n        /* \"#utility.yul\":27871:27872   */\n      dup3\n        /* \"#utility.yul\":27853:27873   */\n      tag_241\n      jump\t// in\n    tag_596:\n        /* \"#utility.yul\":27848:27873   */\n      swap2\n      pop\n        /* \"#utility.yul\":27887:27907   */\n      tag_597\n        /* \"#utility.yul\":27905:27906   */\n      dup4\n        /* \"#utility.yul\":27887:27907   */\n      tag_241\n      jump\t// in\n    tag_597:\n        /* \"#utility.yul\":27882:27907   */\n      swap3\n      pop\n        /* \"#utility.yul\":27926:27927   */\n      dup3\n        /* \"#utility.yul\":27916:27951   */\n      tag_598\n      jumpi\n        /* \"#utility.yul\":27931:27949   */\n      tag_599\n      tag_305\n      jump\t// in\n    tag_599:\n        /* \"#utility.yul\":27916:27951   */\n    tag_598:\n        /* \"#utility.yul\":27972:27973   */\n      dup3\n        /* \"#utility.yul\":27969:27970   */\n      dup3\n        /* \"#utility.yul\":27965:27974   */\n      mod\n        /* \"#utility.yul\":27960:27974   */\n      swap1\n      pop\n        /* \"#utility.yul\":27804:27980   */\n      swap3\n      swap2\n      pop\n      pop\n      jump\t// out\n        /* \"#utility.yul\":27986:28171   */\n    tag_179:\n        /* \"#utility.yul\":28026:28027   */\n      0x00\n        /* \"#utility.yul\":28043:28063   */\n      tag_601\n        /* \"#utility.yul\":28061:28062   */\n      dup3\n        /* \"#utility.yul\":28043:28063   */\n      tag_241\n      jump\t// in\n    tag_601:\n        /* \"#utility.yul\":28038:28063   */\n      swap2\n      pop\n        /* \"#utility.yul\":28077:28097   */\n      tag_602\n        /* \"#utility.yul\":28095:28096   */\n      dup4\n        /* \"#utility.yul\":28077:28097   */\n      tag_241\n      jump\t// in\n    tag_602:\n        /* \"#utility.yul\":28072:28097   */\n      swap3\n      pop\n        /* \"#utility.yul\":28116:28117   */\n      dup3\n        /* \"#utility.yul\":28106:28141   */\n      tag_603\n      jumpi\n        /* \"#utility.yul\":28121:28139   */\n      tag_604\n      tag_305\n      jump\t// in\n    tag_604:\n        /* \"#utility.yul\":28106:28141   */\n    tag_603:\n        /* \"#utility.yul\":28163:28164   */\n      dup3\n        /* \"#utility.yul\":28160:28161   */\n      dup3\n        /* \"#utility.yul\":28156:28165   */\n      div\n        /* \"#utility.yul\":28151:28165   */\n      swap1\n      pop\n        /* \"#utility.yul\":27986:28171   */\n      swap3\n      swap2\n      pop\n      pop\n      jump\t// out\n        /* \"#utility.yul\":28177:28291   */\n    tag_306:\n      pop\n      jump\t// out\n        /* \"#utility.yul\":28297:28695   */\n    tag_307:\n        /* \"#utility.yul\":28456:28459   */\n      0x00\n        /* \"#utility.yul\":28477:28560   */\n      tag_607\n        /* \"#utility.yul\":28558:28559   */\n      0x00\n        /* \"#utility.yul\":28553:28556   */\n      dup4\n        /* \"#utility.yul\":28477:28560   */\n      tag_298\n      jump\t// in\n    tag_607:\n        /* \"#utility.yul\":28470:28560   */\n      swap2\n      pop\n        /* \"#utility.yul\":28569:28662   */\n      tag_608\n        /* \"#utility.yul\":28658:28661   */\n      dup3\n        /* \"#utility.yul\":28569:28662   */\n      tag_306\n      jump\t// in\n    tag_608:\n        /* \"#utility.yul\":28687:28688   */\n      0x00\n        /* \"#utility.yul\":28682:28685   */\n      dup3\n        /* \"#utility.yul\":28678:28689   */\n      add\n        /* \"#utility.yul\":28671:28689   */\n      swap1\n      pop\n        /* \"#utility.yul\":28297:28695   */\n      swap2\n      swap1\n      pop\n      jump\t// out\n        /* \"#utility.yul\":28701:29080   */\n    tag_208:\n        /* \"#utility.yul\":28885:28888   */\n      0x00\n        /* \"#utility.yul\":28907:29054   */\n      tag_610\n        /* \"#utility.yul\":29050:29053   */\n      dup3\n        /* \"#utility.yul\":28907:29054   */\n      tag_307\n      jump\t// in\n    tag_610:\n        /* \"#utility.yul\":28900:29054   */\n      swap2\n      pop\n        /* \"#utility.yul\":29071:29074   */\n      dup2\n        /* \"#utility.yul\":29064:29074   */\n      swap1\n      pop\n        /* \"#utility.yul\":28701:29080   */\n      swap2\n      swap1\n      pop\n      jump\t// out\n\n    auxdata: 0xa2646970667358221220d75ce5524ba39d1f3bf51563a8bc171a77b668d5ec65370b9fa7142556c8df8864736f6c63430008130033\n}\n",
    "bytecode": {
      "linkReferences": {},
      "object": "608060405234801561001057600080fd5b506001600a60006101000a81548160ff021916908315150217905550611e738061003b6000396000f3fe6080604052600436106100f75760003560e01c806388bf19301161008a578063c3da42b811610059578063c3da42b8146102d7578063d8befbb614610302578063e8de68cc1461032b578063f493e87014610354576100fe565b806388bf19301461023a5780639c21a9b814610265578063a6ab36f214610290578063b582ec5f146102ac576100fe565b80635e650318116100c65780635e6503181461019d5780637ae9eb7e146101c85780637c2efcba146101e45780637f80069a1461020f576100fe565b806324763493146101005780632804b2c01461012b57806334133df91461015657806350b1ad6b14610181576100fe565b366100fe57005b005b34801561010c57600080fd5b5061011561037f565b6040516101229190610f1a565b60405180910390f35b34801561013757600080fd5b5061014061040d565b60405161014d9190610f7d565b60405180910390f35b34801561016257600080fd5b5061016b610433565b6040516101789190610fb1565b60405180910390f35b61019b600480360381019061019691906111a3565b610439565b005b3480156101a957600080fd5b506101b26105cd565b6040516101bf9190611298565b60405180910390f35b6101e260048036038101906101dd91906112b3565b6105d3565b005b3480156101f057600080fd5b506101f96106cd565b6040516102069190610fb1565b60405180910390f35b34801561021b57600080fd5b506102246106d3565b60405161023191906112fb565b60405180910390f35b34801561024657600080fd5b5061024f6106e6565b60405161025c9190611298565b60405180910390f35b34801561027157600080fd5b5061027a6106ec565b6040516102879190610fb1565b60405180910390f35b6102aa60048036038101906102a59190611316565b6106f2565b005b3480156102b857600080fd5b506102c16107bc565b6040516102ce9190610fb1565b60405180910390f35b3480156102e357600080fd5b506102ec6107c2565b6040516102f99190610fb1565b60405180910390f35b34801561030e57600080fd5b506103296004803603810190610324919061140a565b6107c8565b005b34801561033757600080fd5b50610352600480360381019061034d91906114a9565b610d06565b005b34801561036057600080fd5b50610369610e84565b6040516103769190610fb1565b60405180910390f35b6004805461038c906115aa565b80601f01602080910402602001604051908101604052809291908181526020018280546103b8906115aa565b80156104055780601f106103da57610100808354040283529160200191610405565b820191906000526020600020905b8154815290600101906020018083116103e857829003601f168201915b505050505081565b600160009054906101000a900473ffffffffffffffffffffffffffffffffffffffff1681565b60095481565b60001515600a60009054906101000a900460ff1615151461045957600080fd5b8789610465919061160a565b34146104a6576040517f08c379a000000000000000000000000000000000000000000000000000000000815260040161049d90611698565b60405180910390fd5b60006007541480156104ba57506000600854145b80156104c857506000600954145b80156104e25750426008546007546104e091906116b8565b105b806105225750426008546007546104f991906116b8565b108015610521575060095460085460075461051491906116b8565b61051e91906116b8565b42105b5b61052b57600080fd5b86600160006101000a81548173ffffffffffffffffffffffffffffffffffffffff021916908373ffffffffffffffffffffffffffffffffffffffff1602179055508860058190555087600681905550600080819055508560028190555084600381905550836004908161059e9190611898565b508860058190555087600681905550826007819055508160088190555080600981905550505050505050505050565b60035481565b600160009054906101000a900473ffffffffffffffffffffffffffffffffffffffff1673ffffffffffffffffffffffffffffffffffffffff163373ffffffffffffffffffffffffffffffffffffffff1614610663576040517f08c379a000000000000000000000000000000000000000000000000000000000815260040161065a906119dc565b60405180910390fd5b4260085460075461067491906116b8565b106106b4576040517f08c379a00000000000000000000000000000000000000000000000000000000081526004016106ab90611a48565b60405180910390fd5b8073ffffffffffffffffffffffffffffffffffffffff16ff5b60065481565b600a60009054906101000a900460ff1681565b60025481565b60085481565b60001515600a60009054906101000a900460ff1615151461071257600080fd5b80600160006101000a81548173ffffffffffffffffffffffffffffffffffffffff021916908373ffffffffffffffffffffffffffffffffffffffff1602179055508260058190555081600681905550600034146107b7578183610775919061160a565b34146107b6576040517f08c379a00000000000000000000000000000000000000000000000000000000081526004016107ad90611698565b60405180910390fd5b5b505050565b60005481565b60055481565b6008546007546107d891906116b8565b4210610819576040517f08c379a000000000000000000000000000000000000000000000000000000000815260040161081090611a48565b60405180910390fd5b600054821161085d576040517f08c379a000000000000000000000000000000000000000000000000000000000815260040161085490611ab4565b60405180910390fd5b6000808561086a90611b04565b905060008561087890611b04565b905060008054866108899190611b6b565b90505b60008114610989576002836040516020016108a79190611bc0565b6040516020818303038152906040526040516108c39190611c17565b602060405180830381855afa1580156108e0573d6000803e3d6000fd5b5050506040513d601f19601f820116820180604052508101906109039190611c43565b92506002826040516020016109189190611bc0565b6040516020818303038152906040526040516109349190611c17565b602060405180830381855afa158015610951573d6000803e3d6000fd5b5050506040513d601f19601f820116820180604052508101906109749190611c43565b9150808061098190611c70565b91505061088c565b82600254146109cd576040517f08c379a00000000000000000000000000000000000000000000000000000000081526004016109c490611ce5565b60405180910390fd5b8160035414610a11576040517f08c379a0000000000000000000000000000000000000000000000000000000008152600401610a0890611d51565b60405180910390fd5b6000600287610a209190611da0565b03610a6d57600260005487610a359190611b6b565b610a3f9190611dd1565b93508560008190555087610a5290611b04565b60028190555086610a6290611b04565b600381905550610bf8565b6002600160005488610a7f9190611b6b565b610a899190611b6b565b610a939190611dd1565b9350600186610aa29190611b6b565b600081905550600088610ab490611b04565b9050600088610ac290611b04565b90506000805489610ad39190611b6b565b90505b60008114610bd357600283604051602001610af19190611bc0565b604051602081830303815290604052604051610b0d9190611c17565b602060405180830381855afa158015610b2a573d6000803e3d6000fd5b5050506040513d601f19601f82011682018060405250810190610b4d9190611c43565b9250600282604051602001610b629190611bc0565b604051602081830303815290604052604051610b7e9190611c17565b602060405180830381855afa158015610b9b573d6000803e3d6000fd5b5050506040513d601f19601f82011682018060405250810190610bbe9190611c43565b91508080610bcb90611c70565b915050610ad6565b600189610be09190611b6b565b60008190555082600281905550816003819055505050505b600073ffffffffffffffffffffffffffffffffffffffff168573ffffffffffffffffffffffffffffffffffffffff1614610ca7578473ffffffffffffffffffffffffffffffffffffffff1660065485610c51919061160a565b604051610c5d90611e28565b60006040518083038185875af1925050503d8060008114610c9a576040519150601f19603f3d011682016040523d82523d6000602084013e610c9f565b606091505b505050610cfc565b3373ffffffffffffffffffffffffffffffffffffffff166108fc60065486610ccf919061160a565b9081150290604051600060405180830381858888f19350505050158015610cfa573d6000803e3d6000fd5b505b5050505050505050565b600160009054906101000a900473ffffffffffffffffffffffffffffffffffffffff1673ffffffffffffffffffffffffffffffffffffffff163373ffffffffffffffffffffffffffffffffffffffff1614610d96576040517f08c379a0000000000000000000000000000000000000000000000000000000008152600401610d8d906119dc565b60405180910390fd5b8385610da2919061160a565b4714610dad57600080fd5b6000600754148015610dc157506000600854145b8015610dcf57506000600954145b8015610de9575042600854600754610de791906116b8565b105b80610e29575042600854600754610e0091906116b8565b108015610e285750600954600854600754610e1b91906116b8565b610e2591906116b8565b42105b5b610e3257600080fd5b6000808190555087600281905550866003819055508560049081610e569190611898565b5084600581905550836006819055508260078190555081600881905550806009819055505050505050505050565b60075481565b600081519050919050565b600082825260208201905092915050565b60005b83811015610ec4578082015181840152602081019050610ea9565b60008484015250505050565b6000601f19601f8301169050919050565b6000610eec82610e8a565b610ef68185610e95565b9350610f06818560208601610ea6565b610f0f81610ed0565b840191505092915050565b60006020820190508181036000830152610f348184610ee1565b905092915050565b600073ffffffffffffffffffffffffffffffffffffffff82169050919050565b6000610f6782610f3c565b9050919050565b610f7781610f5c565b82525050565b6000602082019050610f926000830184610f6e565b92915050565b6000819050919050565b610fab81610f98565b82525050565b6000602082019050610fc66000830184610fa2565b92915050565b6000604051905090565b600080fd5b600080fd5b610fe981610f98565b8114610ff457600080fd5b50565b60008135905061100681610fe0565b92915050565b61101581610f5c565b811461102057600080fd5b50565b6000813590506110328161100c565b92915050565b6000819050919050565b61104b81611038565b811461105657600080fd5b50565b60008135905061106881611042565b92915050565b600080fd5b600080fd5b7f4e487b7100000000000000000000000000000000000000000000000000000000600052604160045260246000fd5b6110b082610ed0565b810181811067ffffffffffffffff821117156110cf576110ce611078565b5b80604052505050565b60006110e2610fcc565b90506110ee82826110a7565b919050565b600067ffffffffffffffff82111561110e5761110d611078565b5b61111782610ed0565b9050602081019050919050565b82818337600083830152505050565b6000611146611141846110f3565b6110d8565b90508281526020810184848401111561116257611161611073565b5b61116d848285611124565b509392505050565b600082601f83011261118a5761118961106e565b5b813561119a848260208601611133565b91505092915050565b60008060008060008060008060006101208a8c0312156111c6576111c5610fd6565b5b60006111d48c828d01610ff7565b99505060206111e58c828d01610ff7565b98505060406111f68c828d01611023565b97505060606112078c828d01611059565b96505060806112188c828d01611059565b95505060a08a013567ffffffffffffffff81111561123957611238610fdb565b5b6112458c828d01611175565b94505060c06112568c828d01610ff7565b93505060e06112678c828d01610ff7565b9250506101006112798c828d01610ff7565b9150509295985092959850929598565b61129281611038565b82525050565b60006020820190506112ad6000830184611289565b92915050565b6000602082840312156112c9576112c8610fd6565b5b60006112d784828501611023565b91505092915050565b60008115159050919050565b6112f5816112e0565b82525050565b600060208201905061131060008301846112ec565b92915050565b60008060006060848603121561132f5761132e610fd6565b5b600061133d86828701610ff7565b935050602061134e86828701610ff7565b925050604061135f86828701611023565b9150509250925092565b600067ffffffffffffffff82111561138457611383611078565b5b61138d82610ed0565b9050602081019050919050565b60006113ad6113a884611369565b6110d8565b9050828152602081018484840111156113c9576113c8611073565b5b6113d4848285611124565b509392505050565b600082601f8301126113f1576113f061106e565b5b813561140184826020860161139a565b91505092915050565b6000806000806080858703121561142457611423610fd6565b5b600085013567ffffffffffffffff81111561144257611441610fdb565b5b61144e878288016113dc565b945050602085013567ffffffffffffffff81111561146f5761146e610fdb565b5b61147b878288016113dc565b935050604061148c87828801610ff7565b925050606061149d87828801611023565b91505092959194509250565b600080600080600080600080610100898b0312156114ca576114c9610fd6565b5b60006114d88b828c01611059565b98505060206114e98b828c01611059565b975050604089013567ffffffffffffffff81111561150a57611509610fdb565b5b6115168b828c01611175565b96505060606115278b828c01610ff7565b95505060806115388b828c01610ff7565b94505060a06115498b828c01610ff7565b93505060c061155a8b828c01610ff7565b92505060e061156b8b828c01610ff7565b9150509295985092959890939650565b7f4e487b7100000000000000000000000000000000000000000000000000000000600052602260045260246000fd5b600060028204905060018216806115c257607f821691505b6020821081036115d5576115d461157b565b5b50919050565b7f4e487b7100000000000000000000000000000000000000000000000000000000600052601160045260246000fd5b600061161582610f98565b915061162083610f98565b925082820261162e81610f98565b91508282048414831517611645576116446115db565b5b5092915050565b7f62616c616e6365206572726f7200000000000000000000000000000000000000600082015250565b6000611682600d83610e95565b915061168d8261164c565b602082019050919050565b600060208201905081810360008301526116b181611675565b9050919050565b60006116c382610f98565b91506116ce83610f98565b92508282019050808211156116e6576116e56115db565b5b92915050565b60008190508160005260206000209050919050565b60006020601f8301049050919050565b600082821b905092915050565b60006008830261174e7fffffffffffffffffffffffffffffffffffffffffffffffffffffffffffffffff82611711565b6117588683611711565b95508019841693508086168417925050509392505050565b6000819050919050565b600061179561179061178b84610f98565b611770565b610f98565b9050919050565b6000819050919050565b6117af8361177a565b6117c36117bb8261179c565b84845461171e565b825550505050565b600090565b6117d86117cb565b6117e38184846117a6565b505050565b5b81811015611807576117fc6000826117d0565b6001810190506117e9565b5050565b601f82111561184c5761181d816116ec565b61182684611701565b81016020851015611835578190505b61184961184185611701565b8301826117e8565b50505b505050565b600082821c905092915050565b600061186f60001984600802611851565b1980831691505092915050565b6000611888838361185e565b9150826002028217905092915050565b6118a182610e8a565b67ffffffffffffffff8111156118ba576118b9611078565b5b6118c482546115aa565b6118cf82828561180b565b600060209050601f83116001811461190257600084156118f0578287015190505b6118fa858261187c565b865550611962565b601f198416611910866116ec565b60005b8281101561193857848901518255600182019150602085019450602081019050611913565b868310156119555784890151611951601f89168261185e565b8355505b6001600288020188555050505b505050505050565b7f4f6e6c7920637573746f6d6572206f66207468652064656c697665727920636160008201527f6e2073657420746865206368616e6e656c20706172616d732e00000000000000602082015250565b60006119c6603983610e95565b91506119d18261196a565b604082019050919050565b600060208201905081810360008301526119f5816119b9565b9050919050565b7f54696d65206572726f7200000000000000000000000000000000000000000000600082015250565b6000611a32600a83610e95565b9150611a3d826119fc565b602082019050919050565b60006020820190508181036000830152611a6181611a25565b9050919050565b7f6b203c3d206a0000000000000000000000000000000000000000000000000000600082015250565b6000611a9e600683610e95565b9150611aa982611a68565b602082019050919050565b60006020820190508181036000830152611acd81611a91565b9050919050565b600081519050919050565b6000819050602082019050919050565b6000611afb8251611038565b80915050919050565b6000611b0f82611ad4565b82611b1984611adf565b9050611b2481611aef565b92506020821015611b6457611b5f7fffffffffffffffffffffffffffffffffffffffffffffffffffffffffffffffff83602003600802611711565b831692505b5050919050565b6000611b7682610f98565b9150611b8183610f98565b9250828203905081811115611b9957611b986115db565b5b92915050565b6000819050919050565b611bba611bb582611038565b611b9f565b82525050565b6000611bcc8284611ba9565b60208201915081905092915050565b600081905092915050565b6000611bf182611ad4565b611bfb8185611bdb565b9350611c0b818560208601610ea6565b80840191505092915050565b6000611c238284611be6565b915081905092915050565b600081519050611c3d81611042565b92915050565b600060208284031215611c5957611c58610fd6565b5b6000611c6784828501611c2e565b91505092915050565b6000611c7b82610f98565b915060008203611c8e57611c8d6115db565b5b600182039050919050565b7f575f6b6d20697320696e636f7272656374000000000000000000000000000000600082015250565b6000611ccf601183610e95565b9150611cda82611c99565b602082019050919050565b60006020820190508181036000830152611cfe81611cc2565b9050919050565b7f575f6b6320697320696e636f7272656374000000000000000000000000000000600082015250565b6000611d3b601183610e95565b9150611d4682611d05565b602082019050919050565b60006020820190508181036000830152611d6a81611d2e565b9050919050565b7f4e487b7100000000000000000000000000000000000000000000000000000000600052601260045260246000fd5b6000611dab82610f98565b9150611db683610f98565b925082611dc657611dc5611d71565b5b828206905092915050565b6000611ddc82610f98565b9150611de783610f98565b925082611df757611df6611d71565b5b828204905092915050565b50565b6000611e12600083611bdb565b9150611e1d82611e02565b600082019050919050565b6000611e3382611e05565b915081905091905056fea2646970667358221220d75ce5524ba39d1f3bf51563a8bc171a77b668d5ec65370b9fa7142556c8df8864736f6c63430008130033",
      "opcodes": "PUSH1 0x80 PUSH1 0x40 MSTORE CALLVALUE DUP1 ISZERO PUSH2 0x10 JUMPI PUSH1 0x0 DUP1 REVERT JUMPDEST POP PUSH1 0x1 PUSH1 0xA PUSH1 0x0 PUSH2 0x100 EXP DUP2 SLOAD DUP2 PUSH1 0xFF MUL NOT AND SWAP1 DUP4 ISZERO ISZERO MUL OR SWAP1 SSTORE POP PUSH2 0x1E73 DUP1 PUSH2 0x3B PUSH1 0x0 CODECOPY PUSH1 0x0 RETURN INVALID PUSH1 0x80 PUSH1 0x40 MSTORE PUSH1 0x4 CALLDATASIZE LT PUSH2 0xF7 JUMPI PUSH1 0x0 CALLDATALOAD PUSH1 0xE0 SHR DUP1 PUSH4 0x88BF1930 GT PUSH2 0x8A JUMPI DUP1 PUSH4 0xC3DA42B8 GT PUSH2 0x59 JUMPI DUP1 PUSH4 0xC3DA42B8 EQ PUSH2 0x2D7 JUMPI DUP1 PUSH4 0xD8BEFBB6 EQ PUSH2 0x302 JUMPI DUP1 PUSH4 0xE8DE68CC EQ PUSH2 0x32B JUMPI DUP1 PUSH4 0xF493E870 EQ PUSH2 0x354 JUMPI PUSH2 0xFE JUMP JUMPDEST DUP1 PUSH4 0x88BF1930 EQ PUSH2 0x23A JUMPI DUP1 PUSH4 0x9C21A9B8 EQ PUSH2 0x265 JUMPI DUP1 PUSH4 0xA6AB36F2 EQ PUSH2 0x290 JUMPI DUP1 PUSH4 0xB582EC5F EQ PUSH2 0x2AC JUMPI PUSH2 0xFE JUMP JUMPDEST DUP1 PUSH4 0x5E650318 GT PUSH2 0xC6 JUMPI DUP1 PUSH4 0x5E650318 EQ PUSH2 0x19D JUMPI DUP1 PUSH4 0x7AE9EB7E EQ PUSH2 0x1C8 JUMPI DUP1 PUSH4 0x7C2EFCBA EQ PUSH2 0x1E4 JUMPI DUP1 PUSH4 0x7F80069A EQ PUSH2 0x20F JUMPI PUSH2 0xFE JUMP JUMPDEST DUP1 PUSH4 0x24763493 EQ PUSH2 0x100 JUMPI DUP1 PUSH4 0x2804B2C0 EQ PUSH2 0x12B JUMPI DUP1 PUSH4 0x34133DF9 EQ PUSH2 0x156 JUMPI DUP1 PUSH4 0x50B1AD6B EQ PUSH2 0x181 JUMPI PUSH2 0xFE JUMP JUMPDEST CALLDATASIZE PUSH2 0xFE JUMPI STOP JUMPDEST STOP JUMPDEST CALLVALUE DUP1 ISZERO PUSH2 0x10C JUMPI PUSH1 0x0 DUP1 REVERT JUMPDEST POP PUSH2 0x115 PUSH2 0x37F JUMP JUMPDEST PUSH1 0x40 MLOAD PUSH2 0x122 SWAP2 SWAP1 PUSH2 0xF1A JUMP JUMPDEST PUSH1 0x40 MLOAD DUP1 SWAP2 SUB SWAP1 RETURN JUMPDEST CALLVALUE DUP1 ISZERO PUSH2 0x137 JUMPI PUSH1 0x0 DUP1 REVERT JUMPDEST POP PUSH2 0x140 PUSH2 0x40D JUMP JUMPDEST PUSH1 0x40 MLOAD PUSH2 0x14D SWAP2 SWAP1 PUSH2 0xF7D JUMP JUMPDEST PUSH1 0x40 MLOAD DUP1 SWAP2 SUB SWAP1 RETURN JUMPDEST CALLVALUE DUP1 ISZERO PUSH2 0x162 JUMPI PUSH1 0x0 DUP1 REVERT JUMPDEST POP PUSH2 0x16B PUSH2 0x433 JUMP JUMPDEST PUSH1 0x40 MLOAD PUSH2 0x178 SWAP2 SWAP1 PUSH2 0xFB1 JUMP JUMPDEST PUSH1 0x40 MLOAD DUP1 SWAP2 SUB SWAP1 RETURN JUMPDEST PUSH2 0x19B PUSH1 0x4 DUP1 CALLDATASIZE SUB DUP2 ADD SWAP1 PUSH2 0x196 SWAP2 SWAP1 PUSH2 0x11A3 JUMP JUMPDEST PUSH2 0x439 JUMP JUMPDEST STOP JUMPDEST CALLVALUE DUP1 ISZERO PUSH2 0x1A9 JUMPI PUSH1 0x0 DUP1 REVERT JUMPDEST POP PUSH2 0x1B2 PUSH2 0x5CD JUMP JUMPDEST PUSH1 0x40 MLOAD PUSH2 0x1BF SWAP2 SWAP1 PUSH2 0x1298 JUMP JUMPDEST PUSH1 0x40 MLOAD DUP1 SWAP2 SUB SWAP1 RETURN JUMPDEST PUSH2 0x1E2 PUSH1 0x4 DUP1 CALLDATASIZE SUB DUP2 ADD SWAP1 PUSH2 0x1DD SWAP2 SWAP1 PUSH2 0x12B3 JUMP JUMPDEST PUSH2 0x5D3 JUMP JUMPDEST STOP JUMPDEST CALLVALUE DUP1 ISZERO PUSH2 0x1F0 JUMPI PUSH1 0x0 DUP1 REVERT JUMPDEST POP PUSH2 0x1F9 PUSH2 0x6CD JUMP JUMPDEST PUSH1 0x40 MLOAD PUSH2 0x206 SWAP2 SWAP1 PUSH2 0xFB1 JUMP JUMPDEST PUSH1 0x40 MLOAD DUP1 SWAP2 SUB SWAP1 RETURN JUMPDEST CALLVALUE DUP1 ISZERO PUSH2 0x21B JUMPI PUSH1 0x0 DUP1 REVERT JUMPDEST POP PUSH2 0x224 PUSH2 0x6D3 JUMP JUMPDEST PUSH1 0x40 MLOAD PUSH2 0x231 SWAP2 SWAP1 PUSH2 0x12FB JUMP JUMPDEST PUSH1 0x40 MLOAD DUP1 SWAP2 SUB SWAP1 RETURN JUMPDEST CALLVALUE DUP1 ISZERO PUSH2 0x246 JUMPI PUSH1 0x0 DUP1 REVERT JUMPDEST POP PUSH2 0x24F PUSH2 0x6E6 JUMP JUMPDEST PUSH1 0x40 MLOAD PUSH2 0x25C SWAP2 SWAP1 PUSH2 0x1298 JUMP JUMPDEST PUSH1 0x40 MLOAD DUP1 SWAP2 SUB SWAP1 RETURN JUMPDEST CALLVALUE DUP1 ISZERO PUSH2 0x271 JUMPI PUSH1 0x0 DUP1 REVERT JUMPDEST POP PUSH2 0x27A PUSH2 0x6EC JUMP JUMPDEST PUSH1 0x40 MLOAD PUSH2 0x287 SWAP2 SWAP1 PUSH2 0xFB1 JUMP JUMPDEST PUSH1 0x40 MLOAD DUP1 SWAP2 SUB SWAP1 RETURN JUMPDEST PUSH2 0x2AA PUSH1 0x4 DUP1 CALLDATASIZE SUB DUP2 ADD SWAP1 PUSH2 0x2A5 SWAP2 SWAP1 PUSH2 0x1316 JUMP JUMPDEST PUSH2 0x6F2 JUMP JUMPDEST STOP JUMPDEST CALLVALUE DUP1 ISZERO PUSH2 0x2B8 JUMPI PUSH1 0x0 DUP1 REVERT JUMPDEST POP PUSH2 0x2C1 PUSH2 0x7BC JUMP JUMPDEST PUSH1 0x40 MLOAD PUSH2 0x2CE SWAP2 SWAP1 PUSH2 0xFB1 JUMP JUMPDEST PUSH1 0x40 MLOAD DUP1 SWAP2 SUB SWAP1 RETURN JUMPDEST CALLVALUE DUP1 ISZERO PUSH2 0x2E3 JUMPI PUSH1 0x0 DUP1 REVERT JUMPDEST POP PUSH2 0x2EC PUSH2 0x7C2 JUMP JUMPDEST PUSH1 0x40 MLOAD PUSH2 0x2F9 SWAP2 SWAP1 PUSH2 0xFB1 JUMP JUMPDEST PUSH1 0x40 MLOAD DUP1 SWAP2 SUB SWAP1 RETURN JUMPDEST CALLVALUE DUP1 ISZERO PUSH2 0x30E JUMPI PUSH1 0x0 DUP1 REVERT JUMPDEST POP PUSH2 0x329 PUSH1 0x4 DUP1 CALLDATASIZE SUB DUP2 ADD SWAP1 PUSH2 0x324 SWAP2 SWAP1 PUSH2 0x140A JUMP JUMPDEST PUSH2 0x7C8 JUMP JUMPDEST STOP JUMPDEST CALLVALUE DUP1 ISZERO PUSH2 0x337 JUMPI PUSH1 0x0 DUP1 REVERT JUMPDEST POP PUSH2 0x352 PUSH1 0x4 DUP1 CALLDATASIZE SUB DUP2 ADD SWAP1 PUSH2 0x34D SWAP2 SWAP1 PUSH2 0x14A9 JUMP JUMPDEST PUSH2 0xD06 JUMP JUMPDEST STOP JUMPDEST CALLVALUE DUP1 ISZERO PUSH2 0x360 JUMPI PUSH1 0x0 DUP1 REVERT JUMPDEST POP PUSH2 0x369 PUSH2 0xE84 JUMP JUMPDEST PUSH1 0x40 MLOAD PUSH2 0x376 SWAP2 SWAP1 PUSH2 0xFB1 JUMP JUMPDEST PUSH1 0x40 MLOAD DUP1 SWAP2 SUB SWAP1 RETURN JUMPDEST PUSH1 0x4 DUP1 SLOAD PUSH2 0x38C SWAP1 PUSH2 0x15AA JUMP JUMPDEST DUP1 PUSH1 0x1F ADD PUSH1 0x20 DUP1 SWAP2 DIV MUL PUSH1 0x20 ADD PUSH1 0x40 MLOAD SWAP1 DUP2 ADD PUSH1 0x40 MSTORE DUP1 SWAP3 SWAP2 SWAP1 DUP2 DUP2 MSTORE PUSH1 0x20 ADD DUP3 DUP1 SLOAD PUSH2 0x3B8 SWAP1 PUSH2 0x15AA JUMP JUMPDEST DUP1 ISZERO PUSH2 0x405 JUMPI DUP1 PUSH1 0x1F LT PUSH2 0x3DA JUMPI PUSH2 0x100 DUP1 DUP4 SLOAD DIV MUL DUP4 MSTORE SWAP2 PUSH1 0x20 ADD SWAP2 PUSH2 0x405 JUMP JUMPDEST DUP3 ADD SWAP2 SWAP1 PUSH1 0x0 MSTORE PUSH1 0x20 PUSH1 0x0 KECCAK256 SWAP1 JUMPDEST DUP2 SLOAD DUP2 MSTORE SWAP1 PUSH1 0x1 ADD SWAP1 PUSH1 0x20 ADD DUP1 DUP4 GT PUSH2 0x3E8 JUMPI DUP3 SWAP1 SUB PUSH1 0x1F AND DUP3 ADD SWAP2 JUMPDEST POP POP POP POP POP DUP2 JUMP JUMPDEST PUSH1 0x1 PUSH1 0x0 SWAP1 SLOAD SWAP1 PUSH2 0x100 EXP SWAP1 DIV PUSH20 0xFFFFFFFFFFFFFFFFFFFFFFFFFFFFFFFFFFFFFFFF AND DUP2 JUMP JUMPDEST PUSH1 0x9 SLOAD DUP2 JUMP JUMPDEST PUSH1 0x0 ISZERO ISZERO PUSH1 0xA PUSH1 0x0 SWAP1 SLOAD SWAP1 PUSH2 0x100 EXP SWAP1 DIV PUSH1 0xFF AND ISZERO ISZERO EQ PUSH2 0x459 JUMPI PUSH1 0x0 DUP1 REVERT JUMPDEST DUP8 DUP10 PUSH2 0x465 SWAP2 SWAP1 PUSH2 0x160A JUMP JUMPDEST CALLVALUE EQ PUSH2 0x4A6 JUMPI PUSH1 0x40 MLOAD PUSH32 0x8C379A000000000000000000000000000000000000000000000000000000000 DUP2 MSTORE PUSH1 0x4 ADD PUSH2 0x49D SWAP1 PUSH2 0x1698 JUMP JUMPDEST PUSH1 0x40 MLOAD DUP1 SWAP2 SUB SWAP1 REVERT JUMPDEST PUSH1 0x0 PUSH1 0x7 SLOAD EQ DUP1 ISZERO PUSH2 0x4BA JUMPI POP PUSH1 0x0 PUSH1 0x8 SLOAD EQ JUMPDEST DUP1 ISZERO PUSH2 0x4C8 JUMPI POP PUSH1 0x0 PUSH1 0x9 SLOAD EQ JUMPDEST DUP1 ISZERO PUSH2 0x4E2 JUMPI POP TIMESTAMP PUSH1 0x8 SLOAD PUSH1 0x7 SLOAD PUSH2 0x4E0 SWAP2 SWAP1 PUSH2 0x16B8 JUMP JUMPDEST LT JUMPDEST DUP1 PUSH2 0x522 JUMPI POP TIMESTAMP PUSH1 0x8 SLOAD PUSH1 0x7 SLOAD PUSH2 0x4F9 SWAP2 SWAP1 PUSH2 0x16B8 JUMP JUMPDEST LT DUP1 ISZERO PUSH2 0x521 JUMPI POP PUSH1 0x9 SLOAD PUSH1 0x8 SLOAD PUSH1 0x7 SLOAD PUSH2 0x514 SWAP2 SWAP1 PUSH2 0x16B8 JUMP JUMPDEST PUSH2 0x51E SWAP2 SWAP1 PUSH2 0x16B8 JUMP JUMPDEST TIMESTAMP LT JUMPDEST JUMPDEST PUSH2 0x52B JUMPI PUSH1 0x0 DUP1 REVERT JUMPDEST DUP7 PUSH1 0x1 PUSH1 0x0 PUSH2 0x100 EXP DUP2 SLOAD DUP2 PUSH20 0xFFFFFFFFFFFFFFFFFFFFFFFFFFFFFFFFFFFFFFFF MUL NOT AND SWAP1 DUP4 PUSH20 0xFFFFFFFFFFFFFFFFFFFFFFFFFFFFFFFFFFFFFFFF AND MUL OR SWAP1 SSTORE POP DUP9 PUSH1 0x5 DUP2 SWAP1 SSTORE POP DUP8 PUSH1 0x6 DUP2 SWAP1 SSTORE POP PUSH1 0x0 DUP1 DUP2 SWAP1 SSTORE POP DUP6 PUSH1 0x2 DUP2 SWAP1 SSTORE POP DUP5 PUSH1 0x3 DUP2 SWAP1 SSTORE POP DUP4 PUSH1 0x4 SWAP1 DUP2 PUSH2 0x59E SWAP2 SWAP1 PUSH2 0x1898 JUMP JUMPDEST POP DUP9 PUSH1 0x5 DUP2 SWAP1 SSTORE POP DUP8 PUSH1 0x6 DUP2 SWAP1 SSTORE POP DUP3 PUSH1 0x7 DUP2 SWAP1 SSTORE POP DUP2 PUSH1 0x8 DUP2 SWAP1 SSTORE POP DUP1 PUSH1 0x9 DUP2 SWAP1 SSTORE POP POP POP POP POP POP POP POP POP POP JUMP JUMPDEST PUSH1 0x3 SLOAD DUP2 JUMP JUMPDEST PUSH1 0x1 PUSH1 0x0 SWAP1 SLOAD SWAP1 PUSH2 0x100 EXP SWAP1 DIV PUSH20 0xFFFFFFFFFFFFFFFFFFFFFFFFFFFFFFFFFFFFFFFF AND PUSH20 0xFFFFFFFFFFFFFFFFFFFFFFFFFFFFFFFFFFFFFFFF AND CALLER PUSH20 0xFFFFFFFFFFFFFFFFFFFFFFFFFFFFFFFFFFFFFFFF AND EQ PUSH2 0x663 JUMPI PUSH1 0x40 MLOAD PUSH32 0x8C379A000000000000000000000000000000000000000000000000000000000 DUP2 MSTORE PUSH1 0x4 ADD PUSH2 0x65A SWAP1 PUSH2 0x19DC JUMP JUMPDEST PUSH1 0x40 MLOAD DUP1 SWAP2 SUB SWAP1 REVERT JUMPDEST TIMESTAMP PUSH1 0x8 SLOAD PUSH1 0x7 SLOAD PUSH2 0x674 SWAP2 SWAP1 PUSH2 0x16B8 JUMP JUMPDEST LT PUSH2 0x6B4 JUMPI PUSH1 0x40 MLOAD PUSH32 0x8C379A000000000000000000000000000000000000000000000000000000000 DUP2 MSTORE PUSH1 0x4 ADD PUSH2 0x6AB SWAP1 PUSH2 0x1A48 JUMP JUMPDEST PUSH1 0x40 MLOAD DUP1 SWAP2 SUB SWAP1 REVERT JUMPDEST DUP1 PUSH20 0xFFFFFFFFFFFFFFFFFFFFFFFFFFFFFFFFFFFFFFFF AND SELFDESTRUCT JUMPDEST PUSH1 0x6 SLOAD DUP2 JUMP JUMPDEST PUSH1 0xA PUSH1 0x0 SWAP1 SLOAD SWAP1 PUSH2 0x100 EXP SWAP1 DIV PUSH1 0xFF AND DUP2 JUMP JUMPDEST PUSH1 0x2 SLOAD DUP2 JUMP JUMPDEST PUSH1 0x8 SLOAD DUP2 JUMP JUMPDEST PUSH1 0x0 ISZERO ISZERO PUSH1 0xA PUSH1 0x0 SWAP1 SLOAD SWAP1 PUSH2 0x100 EXP SWAP1 DIV PUSH1 0xFF AND ISZERO ISZERO EQ PUSH2 0x712 JUMPI PUSH1 0x0 DUP1 REVERT JUMPDEST DUP1 PUSH1 0x1 PUSH1 0x0 PUSH2 0x100 EXP DUP2 SLOAD DUP2 PUSH20 0xFFFFFFFFFFFFFFFFFFFFFFFFFFFFFFFFFFFFFFFF MUL NOT AND SWAP1 DUP4 PUSH20 0xFFFFFFFFFFFFFFFFFFFFFFFFFFFFFFFFFFFFFFFF AND MUL OR SWAP1 SSTORE POP DUP3 PUSH1 0x5 DUP2 SWAP1 SSTORE POP DUP2 PUSH1 0x6 DUP2 SWAP1 SSTORE POP PUSH1 0x0 CALLVALUE EQ PUSH2 0x7B7 JUMPI DUP2 DUP4 PUSH2 0x775 SWAP2 SWAP1 PUSH2 0x160A JUMP JUMPDEST CALLVALUE EQ PUSH2 0x7B6 JUMPI PUSH1 0x40 MLOAD PUSH32 0x8C379A000000000000000000000000000000000000000000000000000000000 DUP2 MSTORE PUSH1 0x4 ADD PUSH2 0x7AD SWAP1 PUSH2 0x1698 JUMP JUMPDEST PUSH1 0x40 MLOAD DUP1 SWAP2 SUB SWAP1 REVERT JUMPDEST JUMPDEST POP POP POP JUMP JUMPDEST PUSH1 0x0 SLOAD DUP2 JUMP JUMPDEST PUSH1 0x5 SLOAD DUP2 JUMP JUMPDEST PUSH1 0x8 SLOAD PUSH1 0x7 SLOAD PUSH2 0x7D8 SWAP2 SWAP1 PUSH2 0x16B8 JUMP JUMPDEST TIMESTAMP LT PUSH2 0x819 JUMPI PUSH1 0x40 MLOAD PUSH32 0x8C379A000000000000000000000000000000000000000000000000000000000 DUP2 MSTORE PUSH1 0x4 ADD PUSH2 0x810 SWAP1 PUSH2 0x1A48 JUMP JUMPDEST PUSH1 0x40 MLOAD DUP1 SWAP2 SUB SWAP1 REVERT JUMPDEST PUSH1 0x0 SLOAD DUP3 GT PUSH2 0x85D JUMPI PUSH1 0x40 MLOAD PUSH32 0x8C379A000000000000000000000000000000000000000000000000000000000 DUP2 MSTORE PUSH1 0x4 ADD PUSH2 0x854 SWAP1 PUSH2 0x1AB4 JUMP JUMPDEST PUSH1 0x40 MLOAD DUP1 SWAP2 SUB SWAP1 REVERT JUMPDEST PUSH1 0x0 DUP1 DUP6 PUSH2 0x86A SWAP1 PUSH2 0x1B04 JUMP JUMPDEST SWAP1 POP PUSH1 0x0 DUP6 PUSH2 0x878 SWAP1 PUSH2 0x1B04 JUMP JUMPDEST SWAP1 POP PUSH1 0x0 DUP1 SLOAD DUP7 PUSH2 0x889 SWAP2 SWAP1 PUSH2 0x1B6B JUMP JUMPDEST SWAP1 POP JUMPDEST PUSH1 0x0 DUP2 EQ PUSH2 0x989 JUMPI PUSH1 0x2 DUP4 PUSH1 0x40 MLOAD PUSH1 0x20 ADD PUSH2 0x8A7 SWAP2 SWAP1 PUSH2 0x1BC0 JUMP JUMPDEST PUSH1 0x40 MLOAD PUSH1 0x20 DUP2 DUP4 SUB SUB DUP2 MSTORE SWAP1 PUSH1 0x40 MSTORE PUSH1 0x40 MLOAD PUSH2 0x8C3 SWAP2 SWAP1 PUSH2 0x1C17 JUMP JUMPDEST PUSH1 0x20 PUSH1 0x40 MLOAD DUP1 DUP4 SUB DUP2 DUP6 GAS STATICCALL ISZERO DUP1 ISZERO PUSH2 0x8E0 JUMPI RETURNDATASIZE PUSH1 0x0 DUP1 RETURNDATACOPY RETURNDATASIZE PUSH1 0x0 REVERT JUMPDEST POP POP POP PUSH1 0x40 MLOAD RETURNDATASIZE PUSH1 0x1F NOT PUSH1 0x1F DUP3 ADD AND DUP3 ADD DUP1 PUSH1 0x40 MSTORE POP DUP2 ADD SWAP1 PUSH2 0x903 SWAP2 SWAP1 PUSH2 0x1C43 JUMP JUMPDEST SWAP3 POP PUSH1 0x2 DUP3 PUSH1 0x40 MLOAD PUSH1 0x20 ADD PUSH2 0x918 SWAP2 SWAP1 PUSH2 0x1BC0 JUMP JUMPDEST PUSH1 0x40 MLOAD PUSH1 0x20 DUP2 DUP4 SUB SUB DUP2 MSTORE SWAP1 PUSH1 0x40 MSTORE PUSH1 0x40 MLOAD PUSH2 0x934 SWAP2 SWAP1 PUSH2 0x1C17 JUMP JUMPDEST PUSH1 0x20 PUSH1 0x40 MLOAD DUP1 DUP4 SUB DUP2 DUP6 GAS STATICCALL ISZERO DUP1 ISZERO PUSH2 0x951 JUMPI RETURNDATASIZE PUSH1 0x0 DUP1 RETURNDATACOPY RETURNDATASIZE PUSH1 0x0 REVERT JUMPDEST POP POP POP PUSH1 0x40 MLOAD RETURNDATASIZE PUSH1 0x1F NOT PUSH1 0x1F DUP3 ADD AND DUP3 ADD DUP1 PUSH1 0x40 MSTORE POP DUP2 ADD SWAP1 PUSH2 0x974 SWAP2 SWAP1 PUSH2 0x1C43 JUMP JUMPDEST SWAP2 POP DUP1 DUP1 PUSH2 0x981 SWAP1 PUSH2 0x1C70 JUMP JUMPDEST SWAP2 POP POP PUSH2 0x88C JUMP JUMPDEST DUP3 PUSH1 0x2 SLOAD EQ PUSH2 0x9CD JUMPI PUSH1 0x40 MLOAD PUSH32 0x8C379A000000000000000000000000000000000000000000000000000000000 DUP2 MSTORE PUSH1 0x4 ADD PUSH2 0x9C4 SWAP1 PUSH2 0x1CE5 JUMP JUMPDEST PUSH1 0x40 MLOAD DUP1 SWAP2 SUB SWAP1 REVERT JUMPDEST DUP2 PUSH1 0x3 SLOAD EQ PUSH2 0xA11 JUMPI PUSH1 0x40 MLOAD PUSH32 0x8C379A000000000000000000000000000000000000000000000000000000000 DUP2 MSTORE PUSH1 0x4 ADD PUSH2 0xA08 SWAP1 PUSH2 0x1D51 JUMP JUMPDEST PUSH1 0x40 MLOAD DUP1 SWAP2 SUB SWAP1 REVERT JUMPDEST PUSH1 0x0 PUSH1 0x2 DUP8 PUSH2 0xA20 SWAP2 SWAP1 PUSH2 0x1DA0 JUMP JUMPDEST SUB PUSH2 0xA6D JUMPI PUSH1 0x2 PUSH1 0x0 SLOAD DUP8 PUSH2 0xA35 SWAP2 SWAP1 PUSH2 0x1B6B JUMP JUMPDEST PUSH2 0xA3F SWAP2 SWAP1 PUSH2 0x1DD1 JUMP JUMPDEST SWAP4 POP DUP6 PUSH1 0x0 DUP2 SWAP1 SSTORE POP DUP8 PUSH2 0xA52 SWAP1 PUSH2 0x1B04 JUMP JUMPDEST PUSH1 0x2 DUP2 SWAP1 SSTORE POP DUP7 PUSH2 0xA62 SWAP1 PUSH2 0x1B04 JUMP JUMPDEST PUSH1 0x3 DUP2 SWAP1 SSTORE POP PUSH2 0xBF8 JUMP JUMPDEST PUSH1 0x2 PUSH1 0x1 PUSH1 0x0 SLOAD DUP9 PUSH2 0xA7F SWAP2 SWAP1 PUSH2 0x1B6B JUMP JUMPDEST PUSH2 0xA89 SWAP2 SWAP1 PUSH2 0x1B6B JUMP JUMPDEST PUSH2 0xA93 SWAP2 SWAP1 PUSH2 0x1DD1 JUMP JUMPDEST SWAP4 POP PUSH1 0x1 DUP7 PUSH2 0xAA2 SWAP2 SWAP1 PUSH2 0x1B6B JUMP JUMPDEST PUSH1 0x0 DUP2 SWAP1 SSTORE POP PUSH1 0x0 DUP9 PUSH2 0xAB4 SWAP1 PUSH2 0x1B04 JUMP JUMPDEST SWAP1 POP PUSH1 0x0 DUP9 PUSH2 0xAC2 SWAP1 PUSH2 0x1B04 JUMP JUMPDEST SWAP1 POP PUSH1 0x0 DUP1 SLOAD DUP10 PUSH2 0xAD3 SWAP2 SWAP1 PUSH2 0x1B6B JUMP JUMPDEST SWAP1 POP JUMPDEST PUSH1 0x0 DUP2 EQ PUSH2 0xBD3 JUMPI PUSH1 0x2 DUP4 PUSH1 0x40 MLOAD PUSH1 0x20 ADD PUSH2 0xAF1 SWAP2 SWAP1 PUSH2 0x1BC0 JUMP JUMPDEST PUSH1 0x40 MLOAD PUSH1 0x20 DUP2 DUP4 SUB SUB DUP2 MSTORE SWAP1 PUSH1 0x40 MSTORE PUSH1 0x40 MLOAD PUSH2 0xB0D SWAP2 SWAP1 PUSH2 0x1C17 JUMP JUMPDEST PUSH1 0x20 PUSH1 0x40 MLOAD DUP1 DUP4 SUB DUP2 DUP6 GAS STATICCALL ISZERO DUP1 ISZERO PUSH2 0xB2A JUMPI RETURNDATASIZE PUSH1 0x0 DUP1 RETURNDATACOPY RETURNDATASIZE PUSH1 0x0 REVERT JUMPDEST POP POP POP PUSH1 0x40 MLOAD RETURNDATASIZE PUSH1 0x1F NOT PUSH1 0x1F DUP3 ADD AND DUP3 ADD DUP1 PUSH1 0x40 MSTORE POP DUP2 ADD SWAP1 PUSH2 0xB4D SWAP2 SWAP1 PUSH2 0x1C43 JUMP JUMPDEST SWAP3 POP PUSH1 0x2 DUP3 PUSH1 0x40 MLOAD PUSH1 0x20 ADD PUSH2 0xB62 SWAP2 SWAP1 PUSH2 0x1BC0 JUMP JUMPDEST PUSH1 0x40 MLOAD PUSH1 0x20 DUP2 DUP4 SUB SUB DUP2 MSTORE SWAP1 PUSH1 0x40 MSTORE PUSH1 0x40 MLOAD PUSH2 0xB7E SWAP2 SWAP1 PUSH2 0x1C17 JUMP JUMPDEST PUSH1 0x20 PUSH1 0x40 MLOAD DUP1 DUP4 SUB DUP2 DUP6 GAS STATICCALL ISZERO DUP1 ISZERO PUSH2 0xB9B JUMPI RETURNDATASIZE PUSH1 0x0 DUP1 RETURNDATACOPY RETURNDATASIZE PUSH1 0x0 REVERT JUMPDEST POP POP POP PUSH1 0x40 MLOAD RETURNDATASIZE PUSH1 0x1F NOT PUSH1 0x1F DUP3 ADD AND DUP3 ADD DUP1 PUSH1 0x40 MSTORE POP DUP2 ADD SWAP1 PUSH2 0xBBE SWAP2 SWAP1 PUSH2 0x1C43 JUMP JUMPDEST SWAP2 POP DUP1 DUP1 PUSH2 0xBCB SWAP1 PUSH2 0x1C70 JUMP JUMPDEST SWAP2 POP POP PUSH2 0xAD6 JUMP JUMPDEST PUSH1 0x1 DUP10 PUSH2 0xBE0 SWAP2 SWAP1 PUSH2 0x1B6B JUMP JUMPDEST PUSH1 0x0 DUP2 SWAP1 SSTORE POP DUP3 PUSH1 0x2 DUP2 SWAP1 SSTORE POP DUP2 PUSH1 0x3 DUP2 SWAP1 SSTORE POP POP POP POP JUMPDEST PUSH1 0x0 PUSH20 0xFFFFFFFFFFFFFFFFFFFFFFFFFFFFFFFFFFFFFFFF AND DUP6 PUSH20 0xFFFFFFFFFFFFFFFFFFFFFFFFFFFFFFFFFFFFFFFF AND EQ PUSH2 0xCA7 JUMPI DUP5 PUSH20 0xFFFFFFFFFFFFFFFFFFFFFFFFFFFFFFFFFFFFFFFF AND PUSH1 0x6 SLOAD DUP6 PUSH2 0xC51 SWAP2 SWAP1 PUSH2 0x160A JUMP JUMPDEST PUSH1 0x40 MLOAD PUSH2 0xC5D SWAP1 PUSH2 0x1E28 JUMP JUMPDEST PUSH1 0x0 PUSH1 0x40 MLOAD DUP1 DUP4 SUB DUP2 DUP6 DUP8 GAS CALL SWAP3 POP POP POP RETURNDATASIZE DUP1 PUSH1 0x0 DUP2 EQ PUSH2 0xC9A JUMPI PUSH1 0x40 MLOAD SWAP2 POP PUSH1 0x1F NOT PUSH1 0x3F RETURNDATASIZE ADD AND DUP3 ADD PUSH1 0x40 MSTORE RETURNDATASIZE DUP3 MSTORE RETURNDATASIZE PUSH1 0x0 PUSH1 0x20 DUP5 ADD RETURNDATACOPY PUSH2 0xC9F JUMP JUMPDEST PUSH1 0x60 SWAP2 POP JUMPDEST POP POP POP PUSH2 0xCFC JUMP JUMPDEST CALLER PUSH20 0xFFFFFFFFFFFFFFFFFFFFFFFFFFFFFFFFFFFFFFFF AND PUSH2 0x8FC PUSH1 0x6 SLOAD DUP7 PUSH2 0xCCF SWAP2 SWAP1 PUSH2 0x160A JUMP JUMPDEST SWAP1 DUP2 ISZERO MUL SWAP1 PUSH1 0x40 MLOAD PUSH1 0x0 PUSH1 0x40 MLOAD DUP1 DUP4 SUB DUP2 DUP6 DUP9 DUP9 CALL SWAP4 POP POP POP POP ISZERO DUP1 ISZERO PUSH2 0xCFA JUMPI RETURNDATASIZE PUSH1 0x0 DUP1 RETURNDATACOPY RETURNDATASIZE PUSH1 0x0 REVERT JUMPDEST POP JUMPDEST POP POP POP POP POP POP POP POP JUMP JUMPDEST PUSH1 0x1 PUSH1 0x0 SWAP1 SLOAD SWAP1 PUSH2 0x100 EXP SWAP1 DIV PUSH20 0xFFFFFFFFFFFFFFFFFFFFFFFFFFFFFFFFFFFFFFFF AND PUSH20 0xFFFFFFFFFFFFFFFFFFFFFFFFFFFFFFFFFFFFFFFF AND CALLER PUSH20 0xFFFFFFFFFFFFFFFFFFFFFFFFFFFFFFFFFFFFFFFF AND EQ PUSH2 0xD96 JUMPI PUSH1 0x40 MLOAD PUSH32 0x8C379A000000000000000000000000000000000000000000000000000000000 DUP2 MSTORE PUSH1 0x4 ADD PUSH2 0xD8D SWAP1 PUSH2 0x19DC JUMP JUMPDEST PUSH1 0x40 MLOAD DUP1 SWAP2 SUB SWAP1 REVERT JUMPDEST DUP4 DUP6 PUSH2 0xDA2 SWAP2 SWAP1 PUSH2 0x160A JUMP JUMPDEST SELFBALANCE EQ PUSH2 0xDAD JUMPI PUSH1 0x0 DUP1 REVERT JUMPDEST PUSH1 0x0 PUSH1 0x7 SLOAD EQ DUP1 ISZERO PUSH2 0xDC1 JUMPI POP PUSH1 0x0 PUSH1 0x8 SLOAD EQ JUMPDEST DUP1 ISZERO PUSH2 0xDCF JUMPI POP PUSH1 0x0 PUSH1 0x9 SLOAD EQ JUMPDEST DUP1 ISZERO PUSH2 0xDE9 JUMPI POP TIMESTAMP PUSH1 0x8 SLOAD PUSH1 0x7 SLOAD PUSH2 0xDE7 SWAP2 SWAP1 PUSH2 0x16B8 JUMP JUMPDEST LT JUMPDEST DUP1 PUSH2 0xE29 JUMPI POP TIMESTAMP PUSH1 0x8 SLOAD PUSH1 0x7 SLOAD PUSH2 0xE00 SWAP2 SWAP1 PUSH2 0x16B8 JUMP JUMPDEST LT DUP1 ISZERO PUSH2 0xE28 JUMPI POP PUSH1 0x9 SLOAD PUSH1 0x8 SLOAD PUSH1 0x7 SLOAD PUSH2 0xE1B SWAP2 SWAP1 PUSH2 0x16B8 JUMP JUMPDEST PUSH2 0xE25 SWAP2 SWAP1 PUSH2 0x16B8 JUMP JUMPDEST TIMESTAMP LT JUMPDEST JUMPDEST PUSH2 0xE32 JUMPI PUSH1 0x0 DUP1 REVERT JUMPDEST PUSH1 0x0 DUP1 DUP2 SWAP1 SSTORE POP DUP8 PUSH1 0x2 DUP2 SWAP1 SSTORE POP DUP7 PUSH1 0x3 DUP2 SWAP1 SSTORE POP DUP6 PUSH1 0x4 SWAP1 DUP2 PUSH2 0xE56 SWAP2 SWAP1 PUSH2 0x1898 JUMP JUMPDEST POP DUP5 PUSH1 0x5 DUP2 SWAP1 SSTORE POP DUP4 PUSH1 0x6 DUP2 SWAP1 SSTORE POP DUP3 PUSH1 0x7 DUP2 SWAP1 SSTORE POP DUP2 PUSH1 0x8 DUP2 SWAP1 SSTORE POP DUP1 PUSH1 0x9 DUP2 SWAP1 SSTORE POP POP POP POP POP POP POP POP POP JUMP JUMPDEST PUSH1 0x7 SLOAD DUP2 JUMP JUMPDEST PUSH1 0x0 DUP2 MLOAD SWAP1 POP SWAP2 SWAP1 POP JUMP JUMPDEST PUSH1 0x0 DUP3 DUP3 MSTORE PUSH1 0x20 DUP3 ADD SWAP1 POP SWAP3 SWAP2 POP POP JUMP JUMPDEST PUSH1 0x0 JUMPDEST DUP4 DUP2 LT ISZERO PUSH2 0xEC4 JUMPI DUP1 DUP3 ADD MLOAD DUP2 DUP5 ADD MSTORE PUSH1 0x20 DUP2 ADD SWAP1 POP PUSH2 0xEA9 JUMP JUMPDEST PUSH1 0x0 DUP5 DUP5 ADD MSTORE POP POP POP POP JUMP JUMPDEST PUSH1 0x0 PUSH1 0x1F NOT PUSH1 0x1F DUP4 ADD AND SWAP1 POP SWAP2 SWAP1 POP JUMP JUMPDEST PUSH1 0x0 PUSH2 0xEEC DUP3 PUSH2 0xE8A JUMP JUMPDEST PUSH2 0xEF6 DUP2 DUP6 PUSH2 0xE95 JUMP JUMPDEST SWAP4 POP PUSH2 0xF06 DUP2 DUP6 PUSH1 0x20 DUP7 ADD PUSH2 0xEA6 JUMP JUMPDEST PUSH2 0xF0F DUP2 PUSH2 0xED0 JUMP JUMPDEST DUP5 ADD SWAP2 POP POP SWAP3 SWAP2 POP POP JUMP JUMPDEST PUSH1 0x0 PUSH1 0x20 DUP3 ADD SWAP1 POP DUP2 DUP2 SUB PUSH1 0x0 DUP4 ADD MSTORE PUSH2 0xF34 DUP2 DUP5 PUSH2 0xEE1 JUMP JUMPDEST SWAP1 POP SWAP3 SWAP2 POP POP JUMP JUMPDEST PUSH1 0x0 PUSH20 0xFFFFFFFFFFFFFFFFFFFFFFFFFFFFFFFFFFFFFFFF DUP3 AND SWAP1 POP SWAP2 SWAP1 POP JUMP JUMPDEST PUSH1 0x0 PUSH2 0xF67 DUP3 PUSH2 0xF3C JUMP JUMPDEST SWAP1 POP SWAP2 SWAP1 POP JUMP JUMPDEST PUSH2 0xF77 DUP2 PUSH2 0xF5C JUMP JUMPDEST DUP3 MSTORE POP POP JUMP JUMPDEST PUSH1 0x0 PUSH1 0x20 DUP3 ADD SWAP1 POP PUSH2 0xF92 PUSH1 0x0 DUP4 ADD DUP5 PUSH2 0xF6E JUMP JUMPDEST SWAP3 SWAP2 POP POP JUMP JUMPDEST PUSH1 0x0 DUP2 SWAP1 POP SWAP2 SWAP1 POP JUMP JUMPDEST PUSH2 0xFAB DUP2 PUSH2 0xF98 JUMP JUMPDEST DUP3 MSTORE POP POP JUMP JUMPDEST PUSH1 0x0 PUSH1 0x20 DUP3 ADD SWAP1 POP PUSH2 0xFC6 PUSH1 0x0 DUP4 ADD DUP5 PUSH2 0xFA2 JUMP JUMPDEST SWAP3 SWAP2 POP POP JUMP JUMPDEST PUSH1 0x0 PUSH1 0x40 MLOAD SWAP1 POP SWAP1 JUMP JUMPDEST PUSH1 0x0 DUP1 REVERT JUMPDEST PUSH1 0x0 DUP1 REVERT JUMPDEST PUSH2 0xFE9 DUP2 PUSH2 0xF98 JUMP JUMPDEST DUP2 EQ PUSH2 0xFF4 JUMPI PUSH1 0x0 DUP1 REVERT JUMPDEST POP JUMP JUMPDEST PUSH1 0x0 DUP2 CALLDATALOAD SWAP1 POP PUSH2 0x1006 DUP2 PUSH2 0xFE0 JUMP JUMPDEST SWAP3 SWAP2 POP POP JUMP JUMPDEST PUSH2 0x1015 DUP2 PUSH2 0xF5C JUMP JUMPDEST DUP2 EQ PUSH2 0x1020 JUMPI PUSH1 0x0 DUP1 REVERT JUMPDEST POP JUMP JUMPDEST PUSH1 0x0 DUP2 CALLDATALOAD SWAP1 POP PUSH2 0x1032 DUP2 PUSH2 0x100C JUMP JUMPDEST SWAP3 SWAP2 POP POP JUMP JUMPDEST PUSH1 0x0 DUP2 SWAP1 POP SWAP2 SWAP1 POP JUMP JUMPDEST PUSH2 0x104B DUP2 PUSH2 0x1038 JUMP JUMPDEST DUP2 EQ PUSH2 0x1056 JUMPI PUSH1 0x0 DUP1 REVERT JUMPDEST POP JUMP JUMPDEST PUSH1 0x0 DUP2 CALLDATALOAD SWAP1 POP PUSH2 0x1068 DUP2 PUSH2 0x1042 JUMP JUMPDEST SWAP3 SWAP2 POP POP JUMP JUMPDEST PUSH1 0x0 DUP1 REVERT JUMPDEST PUSH1 0x0 DUP1 REVERT JUMPDEST PUSH32 0x4E487B7100000000000000000000000000000000000000000000000000000000 PUSH1 0x0 MSTORE PUSH1 0x41 PUSH1 0x4 MSTORE PUSH1 0x24 PUSH1 0x0 REVERT JUMPDEST PUSH2 0x10B0 DUP3 PUSH2 0xED0 JUMP JUMPDEST DUP2 ADD DUP2 DUP2 LT PUSH8 0xFFFFFFFFFFFFFFFF DUP3 GT OR ISZERO PUSH2 0x10CF JUMPI PUSH2 0x10CE PUSH2 0x1078 JUMP JUMPDEST JUMPDEST DUP1 PUSH1 0x40 MSTORE POP POP POP JUMP JUMPDEST PUSH1 0x0 PUSH2 0x10E2 PUSH2 0xFCC JUMP JUMPDEST SWAP1 POP PUSH2 0x10EE DUP3 DUP3 PUSH2 0x10A7 JUMP JUMPDEST SWAP2 SWAP1 POP JUMP JUMPDEST PUSH1 0x0 PUSH8 0xFFFFFFFFFFFFFFFF DUP3 GT ISZERO PUSH2 0x110E JUMPI PUSH2 0x110D PUSH2 0x1078 JUMP JUMPDEST JUMPDEST PUSH2 0x1117 DUP3 PUSH2 0xED0 JUMP JUMPDEST SWAP1 POP PUSH1 0x20 DUP2 ADD SWAP1 POP SWAP2 SWAP1 POP JUMP JUMPDEST DUP3 DUP2 DUP4 CALLDATACOPY PUSH1 0x0 DUP4 DUP4 ADD MSTORE POP POP POP JUMP JUMPDEST PUSH1 0x0 PUSH2 0x1146 PUSH2 0x1141 DUP5 PUSH2 0x10F3 JUMP JUMPDEST PUSH2 0x10D8 JUMP JUMPDEST SWAP1 POP DUP3 DUP2 MSTORE PUSH1 0x20 DUP2 ADD DUP5 DUP5 DUP5 ADD GT ISZERO PUSH2 0x1162 JUMPI PUSH2 0x1161 PUSH2 0x1073 JUMP JUMPDEST JUMPDEST PUSH2 0x116D DUP5 DUP3 DUP6 PUSH2 0x1124 JUMP JUMPDEST POP SWAP4 SWAP3 POP POP POP JUMP JUMPDEST PUSH1 0x0 DUP3 PUSH1 0x1F DUP4 ADD SLT PUSH2 0x118A JUMPI PUSH2 0x1189 PUSH2 0x106E JUMP JUMPDEST JUMPDEST DUP2 CALLDATALOAD PUSH2 0x119A DUP5 DUP3 PUSH1 0x20 DUP7 ADD PUSH2 0x1133 JUMP JUMPDEST SWAP2 POP POP SWAP3 SWAP2 POP POP JUMP JUMPDEST PUSH1 0x0 DUP1 PUSH1 0x0 DUP1 PUSH1 0x0 DUP1 PUSH1 0x0 DUP1 PUSH1 0x0 PUSH2 0x120 DUP11 DUP13 SUB SLT ISZERO PUSH2 0x11C6 JUMPI PUSH2 0x11C5 PUSH2 0xFD6 JUMP JUMPDEST JUMPDEST PUSH1 0x0 PUSH2 0x11D4 DUP13 DUP3 DUP14 ADD PUSH2 0xFF7 JUMP JUMPDEST SWAP10 POP POP PUSH1 0x20 PUSH2 0x11E5 DUP13 DUP3 DUP14 ADD PUSH2 0xFF7 JUMP JUMPDEST SWAP9 POP POP PUSH1 0x40 PUSH2 0x11F6 DUP13 DUP3 DUP14 ADD PUSH2 0x1023 JUMP JUMPDEST SWAP8 POP POP PUSH1 0x60 PUSH2 0x1207 DUP13 DUP3 DUP14 ADD PUSH2 0x1059 JUMP JUMPDEST SWAP7 POP POP PUSH1 0x80 PUSH2 0x1218 DUP13 DUP3 DUP14 ADD PUSH2 0x1059 JUMP JUMPDEST SWAP6 POP POP PUSH1 0xA0 DUP11 ADD CALLDATALOAD PUSH8 0xFFFFFFFFFFFFFFFF DUP2 GT ISZERO PUSH2 0x1239 JUMPI PUSH2 0x1238 PUSH2 0xFDB JUMP JUMPDEST JUMPDEST PUSH2 0x1245 DUP13 DUP3 DUP14 ADD PUSH2 0x1175 JUMP JUMPDEST SWAP5 POP POP PUSH1 0xC0 PUSH2 0x1256 DUP13 DUP3 DUP14 ADD PUSH2 0xFF7 JUMP JUMPDEST SWAP4 POP POP PUSH1 0xE0 PUSH2 0x1267 DUP13 DUP3 DUP14 ADD PUSH2 0xFF7 JUMP JUMPDEST SWAP3 POP POP PUSH2 0x100 PUSH2 0x1279 DUP13 DUP3 DUP14 ADD PUSH2 0xFF7 JUMP JUMPDEST SWAP2 POP POP SWAP3 SWAP6 SWAP9 POP SWAP3 SWAP6 SWAP9 POP SWAP3 SWAP6 SWAP9 JUMP JUMPDEST PUSH2 0x1292 DUP2 PUSH2 0x1038 JUMP JUMPDEST DUP3 MSTORE POP POP JUMP JUMPDEST PUSH1 0x0 PUSH1 0x20 DUP3 ADD SWAP1 POP PUSH2 0x12AD PUSH1 0x0 DUP4 ADD DUP5 PUSH2 0x1289 JUMP JUMPDEST SWAP3 SWAP2 POP POP JUMP JUMPDEST PUSH1 0x0 PUSH1 0x20 DUP3 DUP5 SUB SLT ISZERO PUSH2 0x12C9 JUMPI PUSH2 0x12C8 PUSH2 0xFD6 JUMP JUMPDEST JUMPDEST PUSH1 0x0 PUSH2 0x12D7 DUP5 DUP3 DUP6 ADD PUSH2 0x1023 JUMP JUMPDEST SWAP2 POP POP SWAP3 SWAP2 POP POP JUMP JUMPDEST PUSH1 0x0 DUP2 ISZERO ISZERO SWAP1 POP SWAP2 SWAP1 POP JUMP JUMPDEST PUSH2 0x12F5 DUP2 PUSH2 0x12E0 JUMP JUMPDEST DUP3 MSTORE POP POP JUMP JUMPDEST PUSH1 0x0 PUSH1 0x20 DUP3 ADD SWAP1 POP PUSH2 0x1310 PUSH1 0x0 DUP4 ADD DUP5 PUSH2 0x12EC JUMP JUMPDEST SWAP3 SWAP2 POP POP JUMP JUMPDEST PUSH1 0x0 DUP1 PUSH1 0x0 PUSH1 0x60 DUP5 DUP7 SUB SLT ISZERO PUSH2 0x132F JUMPI PUSH2 0x132E PUSH2 0xFD6 JUMP JUMPDEST JUMPDEST PUSH1 0x0 PUSH2 0x133D DUP7 DUP3 DUP8 ADD PUSH2 0xFF7 JUMP JUMPDEST SWAP4 POP POP PUSH1 0x20 PUSH2 0x134E DUP7 DUP3 DUP8 ADD PUSH2 0xFF7 JUMP JUMPDEST SWAP3 POP POP PUSH1 0x40 PUSH2 0x135F DUP7 DUP3 DUP8 ADD PUSH2 0x1023 JUMP JUMPDEST SWAP2 POP POP SWAP3 POP SWAP3 POP SWAP3 JUMP JUMPDEST PUSH1 0x0 PUSH8 0xFFFFFFFFFFFFFFFF DUP3 GT ISZERO PUSH2 0x1384 JUMPI PUSH2 0x1383 PUSH2 0x1078 JUMP JUMPDEST JUMPDEST PUSH2 0x138D DUP3 PUSH2 0xED0 JUMP JUMPDEST SWAP1 POP PUSH1 0x20 DUP2 ADD SWAP1 POP SWAP2 SWAP1 POP JUMP JUMPDEST PUSH1 0x0 PUSH2 0x13AD PUSH2 0x13A8 DUP5 PUSH2 0x1369 JUMP JUMPDEST PUSH2 0x10D8 JUMP JUMPDEST SWAP1 POP DUP3 DUP2 MSTORE PUSH1 0x20 DUP2 ADD DUP5 DUP5 DUP5 ADD GT ISZERO PUSH2 0x13C9 JUMPI PUSH2 0x13C8 PUSH2 0x1073 JUMP JUMPDEST JUMPDEST PUSH2 0x13D4 DUP5 DUP3 DUP6 PUSH2 0x1124 JUMP JUMPDEST POP SWAP4 SWAP3 POP POP POP JUMP JUMPDEST PUSH1 0x0 DUP3 PUSH1 0x1F DUP4 ADD SLT PUSH2 0x13F1 JUMPI PUSH2 0x13F0 PUSH2 0x106E JUMP JUMPDEST JUMPDEST DUP2 CALLDATALOAD PUSH2 0x1401 DUP5 DUP3 PUSH1 0x20 DUP7 ADD PUSH2 0x139A JUMP JUMPDEST SWAP2 POP POP SWAP3 SWAP2 POP POP JUMP JUMPDEST PUSH1 0x0 DUP1 PUSH1 0x0 DUP1 PUSH1 0x80 DUP6 DUP8 SUB SLT ISZERO PUSH2 0x1424 JUMPI PUSH2 0x1423 PUSH2 0xFD6 JUMP JUMPDEST JUMPDEST PUSH1 0x0 DUP6 ADD CALLDATALOAD PUSH8 0xFFFFFFFFFFFFFFFF DUP2 GT ISZERO PUSH2 0x1442 JUMPI PUSH2 0x1441 PUSH2 0xFDB JUMP JUMPDEST JUMPDEST PUSH2 0x144E DUP8 DUP3 DUP9 ADD PUSH2 0x13DC JUMP JUMPDEST SWAP5 POP POP PUSH1 0x20 DUP6 ADD CALLDATALOAD PUSH8 0xFFFFFFFFFFFFFFFF DUP2 GT ISZERO PUSH2 0x146F JUMPI PUSH2 0x146E PUSH2 0xFDB JUMP JUMPDEST JUMPDEST PUSH2 0x147B DUP8 DUP3 DUP9 ADD PUSH2 0x13DC JUMP JUMPDEST SWAP4 POP POP PUSH1 0x40 PUSH2 0x148C DUP8 DUP3 DUP9 ADD PUSH2 0xFF7 JUMP JUMPDEST SWAP3 POP POP PUSH1 0x60 PUSH2 0x149D DUP8 DUP3 DUP9 ADD PUSH2 0x1023 JUMP JUMPDEST SWAP2 POP POP SWAP3 SWAP6 SWAP2 SWAP5 POP SWAP3 POP JUMP JUMPDEST PUSH1 0x0 DUP1 PUSH1 0x0 DUP1 PUSH1 0x0 DUP1 PUSH1 0x0 DUP1 PUSH2 0x100 DUP10 DUP12 SUB SLT ISZERO PUSH2 0x14CA JUMPI PUSH2 0x14C9 PUSH2 0xFD6 JUMP JUMPDEST JUMPDEST PUSH1 0x0 PUSH2 0x14D8 DUP12 DUP3 DUP13 ADD PUSH2 0x1059 JUMP JUMPDEST SWAP9 POP POP PUSH1 0x20 PUSH2 0x14E9 DUP12 DUP3 DUP13 ADD PUSH2 0x1059 JUMP JUMPDEST SWAP8 POP POP PUSH1 0x40 DUP10 ADD CALLDATALOAD PUSH8 0xFFFFFFFFFFFFFFFF DUP2 GT ISZERO PUSH2 0x150A JUMPI PUSH2 0x1509 PUSH2 0xFDB JUMP JUMPDEST JUMPDEST PUSH2 0x1516 DUP12 DUP3 DUP13 ADD PUSH2 0x1175 JUMP JUMPDEST SWAP7 POP POP PUSH1 0x60 PUSH2 0x1527 DUP12 DUP3 DUP13 ADD PUSH2 0xFF7 JUMP JUMPDEST SWAP6 POP POP PUSH1 0x80 PUSH2 0x1538 DUP12 DUP3 DUP13 ADD PUSH2 0xFF7 JUMP JUMPDEST SWAP5 POP POP PUSH1 0xA0 PUSH2 0x1549 DUP12 DUP3 DUP13 ADD PUSH2 0xFF7 JUMP JUMPDEST SWAP4 POP POP PUSH1 0xC0 PUSH2 0x155A DUP12 DUP3 DUP13 ADD PUSH2 0xFF7 JUMP JUMPDEST SWAP3 POP POP PUSH1 0xE0 PUSH2 0x156B DUP12 DUP3 DUP13 ADD PUSH2 0xFF7 JUMP JUMPDEST SWAP2 POP POP SWAP3 SWAP6 SWAP9 POP SWAP3 SWAP6 SWAP9 SWAP1 SWAP4 SWAP7 POP JUMP JUMPDEST PUSH32 0x4E487B7100000000000000000000000000000000000000000000000000000000 PUSH1 0x0 MSTORE PUSH1 0x22 PUSH1 0x4 MSTORE PUSH1 0x24 PUSH1 0x0 REVERT JUMPDEST PUSH1 0x0 PUSH1 0x2 DUP3 DIV SWAP1 POP PUSH1 0x1 DUP3 AND DUP1 PUSH2 0x15C2 JUMPI PUSH1 0x7F DUP3 AND SWAP2 POP JUMPDEST PUSH1 0x20 DUP3 LT DUP2 SUB PUSH2 0x15D5 JUMPI PUSH2 0x15D4 PUSH2 0x157B JUMP JUMPDEST JUMPDEST POP SWAP2 SWAP1 POP JUMP JUMPDEST PUSH32 0x4E487B7100000000000000000000000000000000000000000000000000000000 PUSH1 0x0 MSTORE PUSH1 0x11 PUSH1 0x4 MSTORE PUSH1 0x24 PUSH1 0x0 REVERT JUMPDEST PUSH1 0x0 PUSH2 0x1615 DUP3 PUSH2 0xF98 JUMP JUMPDEST SWAP2 POP PUSH2 0x1620 DUP4 PUSH2 0xF98 JUMP JUMPDEST SWAP3 POP DUP3 DUP3 MUL PUSH2 0x162E DUP2 PUSH2 0xF98 JUMP JUMPDEST SWAP2 POP DUP3 DUP3 DIV DUP5 EQ DUP4 ISZERO OR PUSH2 0x1645 JUMPI PUSH2 0x1644 PUSH2 0x15DB JUMP JUMPDEST JUMPDEST POP SWAP3 SWAP2 POP POP JUMP JUMPDEST PUSH32 0x62616C616E6365206572726F7200000000000000000000000000000000000000 PUSH1 0x0 DUP3 ADD MSTORE POP JUMP JUMPDEST PUSH1 0x0 PUSH2 0x1682 PUSH1 0xD DUP4 PUSH2 0xE95 JUMP JUMPDEST SWAP2 POP PUSH2 0x168D DUP3 PUSH2 0x164C JUMP JUMPDEST PUSH1 0x20 DUP3 ADD SWAP1 POP SWAP2 SWAP1 POP JUMP JUMPDEST PUSH1 0x0 PUSH1 0x20 DUP3 ADD SWAP1 POP DUP2 DUP2 SUB PUSH1 0x0 DUP4 ADD MSTORE PUSH2 0x16B1 DUP2 PUSH2 0x1675 JUMP JUMPDEST SWAP1 POP SWAP2 SWAP1 POP JUMP JUMPDEST PUSH1 0x0 PUSH2 0x16C3 DUP3 PUSH2 0xF98 JUMP JUMPDEST SWAP2 POP PUSH2 0x16CE DUP4 PUSH2 0xF98 JUMP JUMPDEST SWAP3 POP DUP3 DUP3 ADD SWAP1 POP DUP1 DUP3 GT ISZERO PUSH2 0x16E6 JUMPI PUSH2 0x16E5 PUSH2 0x15DB JUMP JUMPDEST JUMPDEST SWAP3 SWAP2 POP POP JUMP JUMPDEST PUSH1 0x0 DUP2 SWAP1 POP DUP2 PUSH1 0x0 MSTORE PUSH1 0x20 PUSH1 0x0 KECCAK256 SWAP1 POP SWAP2 SWAP1 POP JUMP JUMPDEST PUSH1 0x0 PUSH1 0x20 PUSH1 0x1F DUP4 ADD DIV SWAP1 POP SWAP2 SWAP1 POP JUMP JUMPDEST PUSH1 0x0 DUP3 DUP3 SHL SWAP1 POP SWAP3 SWAP2 POP POP JUMP JUMPDEST PUSH1 0x0 PUSH1 0x8 DUP4 MUL PUSH2 0x174E PUSH32 0xFFFFFFFFFFFFFFFFFFFFFFFFFFFFFFFFFFFFFFFFFFFFFFFFFFFFFFFFFFFFFFFF DUP3 PUSH2 0x1711 JUMP JUMPDEST PUSH2 0x1758 DUP7 DUP4 PUSH2 0x1711 JUMP JUMPDEST SWAP6 POP DUP1 NOT DUP5 AND SWAP4 POP DUP1 DUP7 AND DUP5 OR SWAP3 POP POP POP SWAP4 SWAP3 POP POP POP JUMP JUMPDEST PUSH1 0x0 DUP2 SWAP1 POP SWAP2 SWAP1 POP JUMP JUMPDEST PUSH1 0x0 PUSH2 0x1795 PUSH2 0x1790 PUSH2 0x178B DUP5 PUSH2 0xF98 JUMP JUMPDEST PUSH2 0x1770 JUMP JUMPDEST PUSH2 0xF98 JUMP JUMPDEST SWAP1 POP SWAP2 SWAP1 POP JUMP JUMPDEST PUSH1 0x0 DUP2 SWAP1 POP SWAP2 SWAP1 POP JUMP JUMPDEST PUSH2 0x17AF DUP4 PUSH2 0x177A JUMP JUMPDEST PUSH2 0x17C3 PUSH2 0x17BB DUP3 PUSH2 0x179C JUMP JUMPDEST DUP5 DUP5 SLOAD PUSH2 0x171E JUMP JUMPDEST DUP3 SSTORE POP POP POP POP JUMP JUMPDEST PUSH1 0x0 SWAP1 JUMP JUMPDEST PUSH2 0x17D8 PUSH2 0x17CB JUMP JUMPDEST PUSH2 0x17E3 DUP2 DUP5 DUP5 PUSH2 0x17A6 JUMP JUMPDEST POP POP POP JUMP JUMPDEST JUMPDEST DUP2 DUP2 LT ISZERO PUSH2 0x1807 JUMPI PUSH2 0x17FC PUSH1 0x0 DUP3 PUSH2 0x17D0 JUMP JUMPDEST PUSH1 0x1 DUP2 ADD SWAP1 POP PUSH2 0x17E9 JUMP JUMPDEST POP POP JUMP JUMPDEST PUSH1 0x1F DUP3 GT ISZERO PUSH2 0x184C JUMPI PUSH2 0x181D DUP2 PUSH2 0x16EC JUMP JUMPDEST PUSH2 0x1826 DUP5 PUSH2 0x1701 JUMP JUMPDEST DUP2 ADD PUSH1 0x20 DUP6 LT ISZERO PUSH2 0x1835 JUMPI DUP2 SWAP1 POP JUMPDEST PUSH2 0x1849 PUSH2 0x1841 DUP6 PUSH2 0x1701 JUMP JUMPDEST DUP4 ADD DUP3 PUSH2 0x17E8 JUMP JUMPDEST POP POP JUMPDEST POP POP POP JUMP JUMPDEST PUSH1 0x0 DUP3 DUP3 SHR SWAP1 POP SWAP3 SWAP2 POP POP JUMP JUMPDEST PUSH1 0x0 PUSH2 0x186F PUSH1 0x0 NOT DUP5 PUSH1 0x8 MUL PUSH2 0x1851 JUMP JUMPDEST NOT DUP1 DUP4 AND SWAP2 POP POP SWAP3 SWAP2 POP POP JUMP JUMPDEST PUSH1 0x0 PUSH2 0x1888 DUP4 DUP4 PUSH2 0x185E JUMP JUMPDEST SWAP2 POP DUP3 PUSH1 0x2 MUL DUP3 OR SWAP1 POP SWAP3 SWAP2 POP POP JUMP JUMPDEST PUSH2 0x18A1 DUP3 PUSH2 0xE8A JUMP JUMPDEST PUSH8 0xFFFFFFFFFFFFFFFF DUP2 GT ISZERO PUSH2 0x18BA JUMPI PUSH2 0x18B9 PUSH2 0x1078 JUMP JUMPDEST JUMPDEST PUSH2 0x18C4 DUP3 SLOAD PUSH2 0x15AA JUMP JUMPDEST PUSH2 0x18CF DUP3 DUP3 DUP6 PUSH2 0x180B JUMP JUMPDEST PUSH1 0x0 PUSH1 0x20 SWAP1 POP PUSH1 0x1F DUP4 GT PUSH1 0x1 DUP2 EQ PUSH2 0x1902 JUMPI PUSH1 0x0 DUP5 ISZERO PUSH2 0x18F0 JUMPI DUP3 DUP8 ADD MLOAD SWAP1 POP JUMPDEST PUSH2 0x18FA DUP6 DUP3 PUSH2 0x187C JUMP JUMPDEST DUP7 SSTORE POP PUSH2 0x1962 JUMP JUMPDEST PUSH1 0x1F NOT DUP5 AND PUSH2 0x1910 DUP7 PUSH2 0x16EC JUMP JUMPDEST PUSH1 0x0 JUMPDEST DUP3 DUP2 LT ISZERO PUSH2 0x1938 JUMPI DUP5 DUP10 ADD MLOAD DUP3 SSTORE PUSH1 0x1 DUP3 ADD SWAP2 POP PUSH1 0x20 DUP6 ADD SWAP5 POP PUSH1 0x20 DUP2 ADD SWAP1 POP PUSH2 0x1913 JUMP JUMPDEST DUP7 DUP4 LT ISZERO PUSH2 0x1955 JUMPI DUP5 DUP10 ADD MLOAD PUSH2 0x1951 PUSH1 0x1F DUP10 AND DUP3 PUSH2 0x185E JUMP JUMPDEST DUP4 SSTORE POP JUMPDEST PUSH1 0x1 PUSH1 0x2 DUP9 MUL ADD DUP9 SSTORE POP POP POP JUMPDEST POP POP POP POP POP POP JUMP JUMPDEST PUSH32 0x4F6E6C7920637573746F6D6572206F66207468652064656C6976657279206361 PUSH1 0x0 DUP3 ADD MSTORE PUSH32 0x6E2073657420746865206368616E6E656C20706172616D732E00000000000000 PUSH1 0x20 DUP3 ADD MSTORE POP JUMP JUMPDEST PUSH1 0x0 PUSH2 0x19C6 PUSH1 0x39 DUP4 PUSH2 0xE95 JUMP JUMPDEST SWAP2 POP PUSH2 0x19D1 DUP3 PUSH2 0x196A JUMP JUMPDEST PUSH1 0x40 DUP3 ADD SWAP1 POP SWAP2 SWAP1 POP JUMP JUMPDEST PUSH1 0x0 PUSH1 0x20 DUP3 ADD SWAP1 POP DUP2 DUP2 SUB PUSH1 0x0 DUP4 ADD MSTORE PUSH2 0x19F5 DUP2 PUSH2 0x19B9 JUMP JUMPDEST SWAP1 POP SWAP2 SWAP1 POP JUMP JUMPDEST PUSH32 0x54696D65206572726F7200000000000000000000000000000000000000000000 PUSH1 0x0 DUP3 ADD MSTORE POP JUMP JUMPDEST PUSH1 0x0 PUSH2 0x1A32 PUSH1 0xA DUP4 PUSH2 0xE95 JUMP JUMPDEST SWAP2 POP PUSH2 0x1A3D DUP3 PUSH2 0x19FC JUMP JUMPDEST PUSH1 0x20 DUP3 ADD SWAP1 POP SWAP2 SWAP1 POP JUMP JUMPDEST PUSH1 0x0 PUSH1 0x20 DUP3 ADD SWAP1 POP DUP2 DUP2 SUB PUSH1 0x0 DUP4 ADD MSTORE PUSH2 0x1A61 DUP2 PUSH2 0x1A25 JUMP JUMPDEST SWAP1 POP SWAP2 SWAP1 POP JUMP JUMPDEST PUSH32 0x6B203C3D206A0000000000000000000000000000000000000000000000000000 PUSH1 0x0 DUP3 ADD MSTORE POP JUMP JUMPDEST PUSH1 0x0 PUSH2 0x1A9E PUSH1 0x6 DUP4 PUSH2 0xE95 JUMP JUMPDEST SWAP2 POP PUSH2 0x1AA9 DUP3 PUSH2 0x1A68 JUMP JUMPDEST PUSH1 0x20 DUP3 ADD SWAP1 POP SWAP2 SWAP1 POP JUMP JUMPDEST PUSH1 0x0 PUSH1 0x20 DUP3 ADD SWAP1 POP DUP2 DUP2 SUB PUSH1 0x0 DUP4 ADD MSTORE PUSH2 0x1ACD DUP2 PUSH2 0x1A91 JUMP JUMPDEST SWAP1 POP SWAP2 SWAP1 POP JUMP JUMPDEST PUSH1 0x0 DUP2 MLOAD SWAP1 POP SWAP2 SWAP1 POP JUMP JUMPDEST PUSH1 0x0 DUP2 SWAP1 POP PUSH1 0x20 DUP3 ADD SWAP1 POP SWAP2 SWAP1 POP JUMP JUMPDEST PUSH1 0x0 PUSH2 0x1AFB DUP3 MLOAD PUSH2 0x1038 JUMP JUMPDEST DUP1 SWAP2 POP POP SWAP2 SWAP1 POP JUMP JUMPDEST PUSH1 0x0 PUSH2 0x1B0F DUP3 PUSH2 0x1AD4 JUMP JUMPDEST DUP3 PUSH2 0x1B19 DUP5 PUSH2 0x1ADF JUMP JUMPDEST SWAP1 POP PUSH2 0x1B24 DUP2 PUSH2 0x1AEF JUMP JUMPDEST SWAP3 POP PUSH1 0x20 DUP3 LT ISZERO PUSH2 0x1B64 JUMPI PUSH2 0x1B5F PUSH32 0xFFFFFFFFFFFFFFFFFFFFFFFFFFFFFFFFFFFFFFFFFFFFFFFFFFFFFFFFFFFFFFFF DUP4 PUSH1 0x20 SUB PUSH1 0x8 MUL PUSH2 0x1711 JUMP JUMPDEST DUP4 AND SWAP3 POP JUMPDEST POP POP SWAP2 SWAP1 POP JUMP JUMPDEST PUSH1 0x0 PUSH2 0x1B76 DUP3 PUSH2 0xF98 JUMP JUMPDEST SWAP2 POP PUSH2 0x1B81 DUP4 PUSH2 0xF98 JUMP JUMPDEST SWAP3 POP DUP3 DUP3 SUB SWAP1 POP DUP2 DUP2 GT ISZERO PUSH2 0x1B99 JUMPI PUSH2 0x1B98 PUSH2 0x15DB JUMP JUMPDEST JUMPDEST SWAP3 SWAP2 POP POP JUMP JUMPDEST PUSH1 0x0 DUP2 SWAP1 POP SWAP2 SWAP1 POP JUMP JUMPDEST PUSH2 0x1BBA PUSH2 0x1BB5 DUP3 PUSH2 0x1038 JUMP JUMPDEST PUSH2 0x1B9F JUMP JUMPDEST DUP3 MSTORE POP POP JUMP JUMPDEST PUSH1 0x0 PUSH2 0x1BCC DUP3 DUP5 PUSH2 0x1BA9 JUMP JUMPDEST PUSH1 0x20 DUP3 ADD SWAP2 POP DUP2 SWAP1 POP SWAP3 SWAP2 POP POP JUMP JUMPDEST PUSH1 0x0 DUP2 SWAP1 POP SWAP3 SWAP2 POP POP JUMP JUMPDEST PUSH1 0x0 PUSH2 0x1BF1 DUP3 PUSH2 0x1AD4 JUMP JUMPDEST PUSH2 0x1BFB DUP2 DUP6 PUSH2 0x1BDB JUMP JUMPDEST SWAP4 POP PUSH2 0x1C0B DUP2 DUP6 PUSH1 0x20 DUP7 ADD PUSH2 0xEA6 JUMP JUMPDEST DUP1 DUP5 ADD SWAP2 POP POP SWAP3 SWAP2 POP POP JUMP JUMPDEST PUSH1 0x0 PUSH2 0x1C23 DUP3 DUP5 PUSH2 0x1BE6 JUMP JUMPDEST SWAP2 POP DUP2 SWAP1 POP SWAP3 SWAP2 POP POP JUMP JUMPDEST PUSH1 0x0 DUP2 MLOAD SWAP1 POP PUSH2 0x1C3D DUP2 PUSH2 0x1042 JUMP JUMPDEST SWAP3 SWAP2 POP POP JUMP JUMPDEST PUSH1 0x0 PUSH1 0x20 DUP3 DUP5 SUB SLT ISZERO PUSH2 0x1C59 JUMPI PUSH2 0x1C58 PUSH2 0xFD6 JUMP JUMPDEST JUMPDEST PUSH1 0x0 PUSH2 0x1C67 DUP5 DUP3 DUP6 ADD PUSH2 0x1C2E JUMP JUMPDEST SWAP2 POP POP SWAP3 SWAP2 POP POP JUMP JUMPDEST PUSH1 0x0 PUSH2 0x1C7B DUP3 PUSH2 0xF98 JUMP JUMPDEST SWAP2 POP PUSH1 0x0 DUP3 SUB PUSH2 0x1C8E JUMPI PUSH2 0x1C8D PUSH2 0x15DB JUMP JUMPDEST JUMPDEST PUSH1 0x1 DUP3 SUB SWAP1 POP SWAP2 SWAP1 POP JUMP JUMPDEST PUSH32 0x575F6B6D20697320696E636F7272656374000000000000000000000000000000 PUSH1 0x0 DUP3 ADD MSTORE POP JUMP JUMPDEST PUSH1 0x0 PUSH2 0x1CCF PUSH1 0x11 DUP4 PUSH2 0xE95 JUMP JUMPDEST SWAP2 POP PUSH2 0x1CDA DUP3 PUSH2 0x1C99 JUMP JUMPDEST PUSH1 0x20 DUP3 ADD SWAP1 POP SWAP2 SWAP1 POP JUMP JUMPDEST PUSH1 0x0 PUSH1 0x20 DUP3 ADD SWAP1 POP DUP2 DUP2 SUB PUSH1 0x0 DUP4 ADD MSTORE PUSH2 0x1CFE DUP2 PUSH2 0x1CC2 JUMP JUMPDEST SWAP1 POP SWAP2 SWAP1 POP JUMP JUMPDEST PUSH32 0x575F6B6320697320696E636F7272656374000000000000000000000000000000 PUSH1 0x0 DUP3 ADD MSTORE POP JUMP JUMPDEST PUSH1 0x0 PUSH2 0x1D3B PUSH1 0x11 DUP4 PUSH2 0xE95 JUMP JUMPDEST SWAP2 POP PUSH2 0x1D46 DUP3 PUSH2 0x1D05 JUMP JUMPDEST PUSH1 0x20 DUP3 ADD SWAP1 POP SWAP2 SWAP1 POP JUMP JUMPDEST PUSH1 0x0 PUSH1 0x20 DUP3 ADD SWAP1 POP DUP2 DUP2 SUB PUSH1 0x0 DUP4 ADD MSTORE PUSH2 0x1D6A DUP2 PUSH2 0x1D2E JUMP JUMPDEST SWAP1 POP SWAP2 SWAP1 POP JUMP JUMPDEST PUSH32 0x4E487B7100000000000000000000000000000000000000000000000000000000 PUSH1 0x0 MSTORE PUSH1 0x12 PUSH1 0x4 MSTORE PUSH1 0x24 PUSH1 0x0 REVERT JUMPDEST PUSH1 0x0 PUSH2 0x1DAB DUP3 PUSH2 0xF98 JUMP JUMPDEST SWAP2 POP PUSH2 0x1DB6 DUP4 PUSH2 0xF98 JUMP JUMPDEST SWAP3 POP DUP3 PUSH2 0x1DC6 JUMPI PUSH2 0x1DC5 PUSH2 0x1D71 JUMP JUMPDEST JUMPDEST DUP3 DUP3 MOD SWAP1 POP SWAP3 SWAP2 POP POP JUMP JUMPDEST PUSH1 0x0 PUSH2 0x1DDC DUP3 PUSH2 0xF98 JUMP JUMPDEST SWAP2 POP PUSH2 0x1DE7 DUP4 PUSH2 0xF98 JUMP JUMPDEST SWAP3 POP DUP3 PUSH2 0x1DF7 JUMPI PUSH2 0x1DF6 PUSH2 0x1D71 JUMP JUMPDEST JUMPDEST DUP3 DUP3 DIV SWAP1 POP SWAP3 SWAP2 POP POP JUMP JUMPDEST POP JUMP JUMPDEST PUSH1 0x0 PUSH2 0x1E12 PUSH1 0x0 DUP4 PUSH2 0x1BDB JUMP JUMPDEST SWAP2 POP PUSH2 0x1E1D DUP3 PUSH2 0x1E02 JUMP JUMPDEST PUSH1 0x0 DUP3 ADD SWAP1 POP SWAP2 SWAP1 POP JUMP JUMPDEST PUSH1 0x0 PUSH2 0x1E33 DUP3 PUSH2 0x1E05 JUMP JUMPDEST SWAP2 POP DUP2 SWAP1 POP SWAP2 SWAP1 POP JUMP INVALID LOG2 PUSH5 0x6970667358 0x22 SLT KECCAK256 0xD7 0x5C 0xE5 MSTORE 0x4B LOG3 SWAP14 0x1F EXTCODESIZE CREATE2 ISZERO PUSH4 0xA8BC171A PUSH24 0xB668D5EC65370B9FA7142556C8DF8864736F6C6343000813 STOP CALLER "
    },
    "gasEstimates": {
      "creation": {
        "codeDepositCost": "1559000",
        "executionCost": "25898",
        "totalCost": "1584898"
      },
      "external": {
        "": "197",
        "S_id()": "infinite",
        "TD()": "2474",
        "TR()": "2497",
        "T_exp()": "2517",
        "W_jc()": "2452",
        "W_jm()": "2452",
        "c()": "2451",
        "channelClose(address)": "infinite",
        "customer()": "2560",
        "initialize(uint256,uint256,address)": "infinite",
        "initialize(uint256,uint256,address,bytes32,bytes32,string,uint256,uint256,uint256)": "infinite",
        "isBase()": "2560",
        "j()": "2518",
        "setChannelParams(bytes32,bytes32,string,uint256,uint256,uint256,uint256,uint256)": "infinite",
        "transferDeposit(bytes,bytes,uint256,address)": "infinite",
        "v()": "2496"
      }
    },
    "methodIdentifiers": {
      "S_id()": "24763493",
      "TD()": "9c21a9b8",
      "TR()": "34133df9",
      "T_exp()": "f493e870",
      "W_jc()": "5e650318",
      "W_jm()": "88bf1930",
      "c()": "c3da42b8",
      "channelClose(address)": "7ae9eb7e",
      "customer()": "2804b2c0",
      "initialize(uint256,uint256,address)": "a6ab36f2",
      "initialize(uint256,uint256,address,bytes32,bytes32,string,uint256,uint256,uint256)": "50b1ad6b",
      "isBase()": "7f80069a",
      "j()": "b582ec5f",
      "setChannelParams(bytes32,bytes32,string,uint256,uint256,uint256,uint256,uint256)": "e8de68cc",
      "transferDeposit(bytes,bytes,uint256,address)": "d8befbb6",
      "v()": "7c2efcba"
    }
  },
  "storageLayout": {
    "storage": [
      {
        "astId": 231,
        "contract": "channel.sol:channel",
        "label": "j",
        "offset": 0,
        "slot": "0",
        "type": "t_uint256"
      },
      {
        "astId": 233,
        "contract": "channel.sol:channel",
        "label": "customer",
        "offset": 0,
        "slot": "1",
        "type": "t_address"
      },
      {
        "astId": 235,
        "contract": "channel.sol:channel",
        "label": "W_jm",
        "offset": 0,
        "slot": "2",
        "type": "t_bytes32"
      },
      {
        "astId": 237,
        "contract": "channel.sol:channel",
        "label": "W_jc",
        "offset": 0,
        "slot": "3",
        "type": "t_bytes32"
      },
      {
        "astId": 239,
        "contract": "channel.sol:channel",
        "label": "S_id",
        "offset": 0,
        "slot": "4",
        "type": "t_string_storage"
      },
      {
        "astId": 241,
        "contract": "channel.sol:channel",
        "label": "c",
        "offset": 0,
        "slot": "5",
        "type": "t_uint256"
      },
      {
        "astId": 243,
        "contract": "channel.sol:channel",
        "label": "v",
        "offset": 0,
        "slot": "6",
        "type": "t_uint256"
      },
      {
        "astId": 245,
        "contract": "channel.sol:channel",
        "label": "T_exp",
        "offset": 0,
        "slot": "7",
        "type": "t_uint256"
      },
      {
        "astId": 247,
        "contract": "channel.sol:channel",
        "label": "TD",
        "offset": 0,
        "slot": "8",
        "type": "t_uint256"
      },
      {
        "astId": 249,
        "contract": "channel.sol:channel",
        "label": "TR",
        "offset": 0,
        "slot": "9",
        "type": "t_uint256"
      },
      {
        "astId": 251,
        "contract": "channel.sol:channel",
        "label": "isBase",
        "offset": 0,
        "slot": "10",
        "type": "t_bool"
      }
    ],
    "types": {
      "t_address": {
        "encoding": "inplace",
        "label": "address",
        "numberOfBytes": "20"
      },
      "t_bool": {
        "encoding": "inplace",
        "label": "bool",
        "numberOfBytes": "1"
      },
      "t_bytes32": {
        "encoding": "inplace",
        "label": "bytes32",
        "numberOfBytes": "32"
      },
      "t_string_storage": {
        "encoding": "bytes",
        "label": "string",
        "numberOfBytes": "32"
      },
      "t_uint256": {
        "encoding": "inplace",
        "label": "uint256",
        "numberOfBytes": "32"
      }
    }
  },
  "userdoc": {
    "kind": "user",
    "methods": {},
    "version": 1
  }
}