{
  "abi": [
    {
      "inputs": [],
      "stateMutability": "nonpayable",
      "type": "constructor"
    },
    {
      "stateMutability": "payable",
      "type": "fallback"
    },
    {
      "inputs": [],
      "name": "S_id",
      "outputs": [
        {
          "internalType": "string",
          "name": "",
          "type": "string"
        }
      ],
      "stateMutability": "view",
      "type": "function"
    },
    {
      "inputs": [],
      "name": "TD",
      "outputs": [
        {
          "internalType": "uint256",
          "name": "",
          "type": "uint256"
        }
      ],
      "stateMutability": "view",
      "type": "function"
    },
    {
      "inputs": [],
      "name": "TR",
      "outputs": [
        {
          "internalType": "uint256",
          "name": "",
          "type": "uint256"
        }
      ],
      "stateMutability": "view",
      "type": "function"
    },
    {
      "inputs": [],
      "name": "T_exp",
      "outputs": [
        {
          "internalType": "uint256",
          "name": "",
          "type": "uint256"
        }
      ],
      "stateMutability": "view",
      "type": "function"
    },
    {
      "inputs": [],
      "name": "W_jc",
      "outputs": [
        {
          "internalType": "bytes32",
          "name": "",
          "type": "bytes32"
        }
      ],
      "stateMutability": "view",
      "type": "function"
    },
    {
      "inputs": [],
      "name": "W_jm",
      "outputs": [
        {
          "internalType": "bytes32",
          "name": "",
          "type": "bytes32"
        }
      ],
      "stateMutability": "view",
      "type": "function"
    },
    {
      "inputs": [],
      "name": "c",
      "outputs": [
        {
          "internalType": "uint256",
          "name": "",
          "type": "uint256"
        }
      ],
      "stateMutability": "view",
      "type": "function"
    },
    {
      "inputs": [
        {
          "internalType": "address",
          "name": "refundAddress",
          "type": "address"
        }
      ],
      "name": "channelClose",
      "outputs": [],
      "stateMutability": "payable",
      "type": "function"
    },
    {
      "inputs": [],
      "name": "customer",
      "outputs": [
        {
          "internalType": "address",
          "name": "",
          "type": "address"
        }
      ],
      "stateMutability": "view",
      "type": "function"
    },
    {
      "inputs": [
        {
          "internalType": "uint256",
          "name": "_c",
          "type": "uint256"
        },
        {
          "internalType": "uint256",
          "name": "_v",
          "type": "uint256"
        },
        {
          "internalType": "address",
          "name": "_customer",
          "type": "address"
        },
        {
          "internalType": "bytes32",
          "name": "_W_jm",
          "type": "bytes32"
        },
        {
          "internalType": "bytes32",
          "name": "_W_jc",
          "type": "bytes32"
        },
        {
          "internalType": "string",
          "name": "_S_id",
          "type": "string"
        },
        {
          "internalType": "uint256",
          "name": "_T_exp",
          "type": "uint256"
        },
        {
          "internalType": "uint256",
          "name": "_TD",
          "type": "uint256"
        },
        {
          "internalType": "uint256",
          "name": "_TR",
          "type": "uint256"
        }
      ],
      "name": "initialize",
      "outputs": [],
      "stateMutability": "payable",
      "type": "function"
    },
    {
      "inputs": [
        {
          "internalType": "uint256",
          "name": "_c",
          "type": "uint256"
        },
        {
          "internalType": "uint256",
          "name": "_v",
          "type": "uint256"
        },
        {
          "internalType": "address",
          "name": "_customer",
          "type": "address"
        }
      ],
      "name": "initialize",
      "outputs": [],
      "stateMutability": "payable",
      "type": "function"
    },
    {
      "inputs": [],
      "name": "isBase",
      "outputs": [
        {
          "internalType": "bool",
          "name": "",
          "type": "bool"
        }
      ],
      "stateMutability": "view",
      "type": "function"
    },
    {
      "inputs": [],
      "name": "j",
      "outputs": [
        {
          "internalType": "uint256",
          "name": "",
          "type": "uint256"
        }
      ],
      "stateMutability": "view",
      "type": "function"
    },
    {
      "inputs": [
        {
          "internalType": "bytes32",
          "name": "_W_jm",
          "type": "bytes32"
        },
        {
          "internalType": "bytes32",
          "name": "_W_jc",
          "type": "bytes32"
        },
        {
          "internalType": "string",
          "name": "_S_id",
          "type": "string"
        },
        {
          "internalType": "uint256",
          "name": "_c",
          "type": "uint256"
        },
        {
          "internalType": "uint256",
          "name": "_v",
          "type": "uint256"
        },
        {
          "internalType": "uint256",
          "name": "_T_exp",
          "type": "uint256"
        },
        {
          "internalType": "uint256",
          "name": "_TD",
          "type": "uint256"
        },
        {
          "internalType": "uint256",
          "name": "_TR",
          "type": "uint256"
        }
      ],
      "name": "setChannelParams",
      "outputs": [],
      "stateMutability": "nonpayable",
      "type": "function"
    },
    {
      "inputs": [
        {
          "internalType": "bytes",
          "name": "_W_km",
          "type": "bytes"
        },
        {
          "internalType": "bytes",
          "name": "_W_kc",
          "type": "bytes"
        },
        {
          "internalType": "uint256",
          "name": "k",
          "type": "uint256"
        },
        {
          "internalType": "address",
          "name": "newChannelAddress",
          "type": "address"
        }
      ],
      "name": "transferDeposit",
      "outputs": [],
      "stateMutability": "nonpayable",
      "type": "function"
    },
    {
      "inputs": [],
      "name": "v",
      "outputs": [
        {
          "internalType": "uint256",
          "name": "",
          "type": "uint256"
        }
      ],
      "stateMutability": "view",
      "type": "function"
    },
    {
      "stateMutability": "payable",
      "type": "receive"
    }
  ],
  "devdoc": {
    "kind": "dev",
    "methods": {},
    "version": 1
  },
  "evm": {
    "assembly": "    /* \"channel.sol\":2323:7360  contract channel{... */\n  mstore(0x40, 0x80)\n    /* \"channel.sol\":2953:3064  constructor(){... */\n  callvalue\n  dup1\n  iszero\n  tag_1\n  jumpi\n  0x00\n  dup1\n  revert\ntag_1:\n  pop\n    /* \"channel.sol\":3052:3056  true */\n  0x01\n    /* \"channel.sol\":3043:3049  isBase */\n  0x0a\n  0x00\n    /* \"channel.sol\":3043:3056  isBase = true */\n  0x0100\n  exp\n  dup2\n  sload\n  dup2\n  0xff\n  mul\n  not\n  and\n  swap1\n  dup4\n  iszero\n  iszero\n  mul\n  or\n  swap1\n  sstore\n  pop\n    /* \"channel.sol\":2323:7360  contract channel{... */\n  dataSize(sub_0)\n  dup1\n  dataOffset(sub_0)\n  0x00\n  codecopy\n  0x00\n  return\nstop\n\nsub_0: assembly {\n        /* \"channel.sol\":2323:7360  contract channel{... */\n      mstore(0x40, 0x80)\n      jumpi(tag_1, lt(calldatasize, 0x04))\n      shr(0xe0, calldataload(0x00))\n      dup1\n      0x88bf1930\n      gt\n      tag_19\n      jumpi\n      dup1\n      0xc3da42b8\n      gt\n      tag_20\n      jumpi\n      dup1\n      0xc3da42b8\n      eq\n      tag_15\n      jumpi\n      dup1\n      0xd8befbb6\n      eq\n      tag_16\n      jumpi\n      dup1\n      0xe8de68cc\n      eq\n      tag_17\n      jumpi\n      dup1\n      0xf493e870\n      eq\n      tag_18\n      jumpi\n      jump(tag_2)\n    tag_20:\n      dup1\n      0x88bf1930\n      eq\n      tag_11\n      jumpi\n      dup1\n      0x9c21a9b8\n      eq\n      tag_12\n      jumpi\n      dup1\n      0xa6ab36f2\n      eq\n      tag_13\n      jumpi\n      dup1\n      0xb582ec5f\n      eq\n      tag_14\n      jumpi\n      jump(tag_2)\n    tag_19:\n      dup1\n      0x5e650318\n      gt\n      tag_21\n      jumpi\n      dup1\n      0x5e650318\n      eq\n      tag_7\n      jumpi\n      dup1\n      0x7ae9eb7e\n      eq\n      tag_8\n      jumpi\n      dup1\n      0x7c2efcba\n      eq\n      tag_9\n      jumpi\n      dup1\n      0x7f80069a\n      eq\n      tag_10\n      jumpi\n      jump(tag_2)\n    tag_21:\n      dup1\n      0x24763493\n      eq\n      tag_3\n      jumpi\n      dup1\n      0x2804b2c0\n      eq\n      tag_4\n      jumpi\n      dup1\n      0x34133df9\n      eq\n      tag_5\n      jumpi\n      dup1\n      0x50b1ad6b\n      eq\n      tag_6\n      jumpi\n      jump(tag_2)\n    tag_1:\n      jumpi(tag_2, calldatasize)\n      stop\n    tag_2:\n      stop\n        /* \"channel.sol\":2666:2684  string public S_id */\n    tag_3:\n      callvalue\n      dup1\n      iszero\n      tag_26\n      jumpi\n      0x00\n      dup1\n      revert\n    tag_26:\n      pop\n      tag_27\n      tag_28\n      jump\t// in\n    tag_27:\n      mload(0x40)\n      tag_29\n      swap2\n      swap1\n      tag_30\n      jump\t// in\n    tag_29:\n      mload(0x40)\n      dup1\n      swap2\n      sub\n      swap1\n      return\n        /* \"channel.sol\":2407:2430  address public customer */\n    tag_4:\n      callvalue\n      dup1\n      iszero\n      tag_31\n      jumpi\n      0x00\n      dup1\n      revert\n    tag_31:\n      pop\n      tag_32\n      tag_33\n      jump\t// in\n    tag_32:\n      mload(0x40)\n      tag_34\n      swap2\n      swap1\n      tag_35\n      jump\t// in\n    tag_34:\n      mload(0x40)\n      dup1\n      swap2\n      sub\n      swap1\n      return\n        /* \"channel.sol\":2883:2900  uint256 public TR */\n    tag_5:\n      callvalue\n      dup1\n      iszero\n      tag_36\n      jumpi\n      0x00\n      dup1\n      revert\n    tag_36:\n      pop\n      tag_37\n      tag_38\n      jump\t// in\n    tag_37:\n      mload(0x40)\n      tag_39\n      swap2\n      swap1\n      tag_40\n      jump\t// in\n    tag_39:\n      mload(0x40)\n      dup1\n      swap2\n      sub\n      swap1\n      return\n        /* \"channel.sol\":3368:4088  function initialize(uint256 _c, uint256 _v, address _customer, bytes32 _W_jm, bytes32 _W_jc, string memory _S_id, ... */\n    tag_6:\n      tag_41\n      0x04\n      dup1\n      calldatasize\n      sub\n      dup2\n      add\n      swap1\n      tag_42\n      swap2\n      swap1\n      tag_43\n      jump\t// in\n    tag_42:\n      tag_44\n      jump\t// in\n    tag_41:\n      stop\n        /* \"channel.sol\":2546:2565  bytes32 public W_jc */\n    tag_7:\n      callvalue\n      dup1\n      iszero\n      tag_45\n      jumpi\n      0x00\n      dup1\n      revert\n    tag_45:\n      pop\n      tag_46\n      tag_47\n      jump\t// in\n    tag_46:\n      mload(0x40)\n      tag_48\n      swap2\n      swap1\n      tag_49\n      jump\t// in\n    tag_48:\n      mload(0x40)\n      dup1\n      swap2\n      sub\n      swap1\n      return\n        /* \"channel.sol\":6730:6966  function channelClose(address refundAddress) public payable onlyOwner{... */\n    tag_8:\n      tag_50\n      0x04\n      dup1\n      calldatasize\n      sub\n      dup2\n      add\n      swap1\n      tag_51\n      swap2\n      swap1\n      tag_52\n      jump\t// in\n    tag_51:\n      tag_53\n      jump\t// in\n    tag_50:\n      stop\n        /* \"channel.sol\":2755:2771  uint256 public v */\n    tag_9:\n      callvalue\n      dup1\n      iszero\n      tag_54\n      jumpi\n      0x00\n      dup1\n      revert\n    tag_54:\n      pop\n      tag_55\n      tag_56\n      jump\t// in\n    tag_55:\n      mload(0x40)\n      tag_57\n      swap2\n      swap1\n      tag_40\n      jump\t// in\n    tag_57:\n      mload(0x40)\n      dup1\n      swap2\n      sub\n      swap1\n      return\n        /* \"channel.sol\":2925:2943  bool public isBase */\n    tag_10:\n      callvalue\n      dup1\n      iszero\n      tag_58\n      jumpi\n      0x00\n      dup1\n      revert\n    tag_58:\n      pop\n      tag_59\n      tag_60\n      jump\t// in\n    tag_59:\n      mload(0x40)\n      tag_61\n      swap2\n      swap1\n      tag_62\n      jump\t// in\n    tag_61:\n      mload(0x40)\n      dup1\n      swap2\n      sub\n      swap1\n      return\n        /* \"channel.sol\":2465:2484  bytes32 public W_jm */\n    tag_11:\n      callvalue\n      dup1\n      iszero\n      tag_63\n      jumpi\n      0x00\n      dup1\n      revert\n    tag_63:\n      pop\n      tag_64\n      tag_65\n      jump\t// in\n    tag_64:\n      mload(0x40)\n      tag_66\n      swap2\n      swap1\n      tag_49\n      jump\t// in\n    tag_66:\n      mload(0x40)\n      dup1\n      swap2\n      sub\n      swap1\n      return\n        /* \"channel.sol\":2842:2859  uint256 public TD */\n    tag_12:\n      callvalue\n      dup1\n      iszero\n      tag_67\n      jumpi\n      0x00\n      dup1\n      revert\n    tag_67:\n      pop\n      tag_68\n      tag_69\n      jump\t// in\n    tag_68:\n      mload(0x40)\n      tag_70\n      swap2\n      swap1\n      tag_40\n      jump\t// in\n    tag_70:\n      mload(0x40)\n      dup1\n      swap2\n      sub\n      swap1\n      return\n        /* \"channel.sol\":3072:3360  function initialize(uint256 _c, uint256 _v, address _customer) external payable{... */\n    tag_13:\n      tag_71\n      0x04\n      dup1\n      calldatasize\n      sub\n      dup2\n      add\n      swap1\n      tag_72\n      swap2\n      swap1\n      tag_73\n      jump\t// in\n    tag_72:\n      tag_74\n      jump\t// in\n    tag_71:\n      stop\n        /* \"channel.sol\":2384:2400  uint256 public j */\n    tag_14:\n      callvalue\n      dup1\n      iszero\n      tag_75\n      jumpi\n      0x00\n      dup1\n      revert\n    tag_75:\n      pop\n      tag_76\n      tag_77\n      jump\t// in\n    tag_76:\n      mload(0x40)\n      tag_78\n      swap2\n      swap1\n      tag_40\n      jump\t// in\n    tag_78:\n      mload(0x40)\n      dup1\n      swap2\n      sub\n      swap1\n      return\n        /* \"channel.sol\":2712:2728  uint256 public c */\n    tag_15:\n      callvalue\n      dup1\n      iszero\n      tag_79\n      jumpi\n      0x00\n      dup1\n      revert\n    tag_79:\n      pop\n      tag_80\n      tag_81\n      jump\t// in\n    tag_80:\n      mload(0x40)\n      tag_82\n      swap2\n      swap1\n      tag_40\n      jump\t// in\n    tag_82:\n      mload(0x40)\n      dup1\n      swap2\n      sub\n      swap1\n      return\n        /* \"channel.sol\":4934:6564  function transferDeposit(bytes memory _W_km, bytes memory _W_kc, uint256 k, address newChannelAddress) public {... */\n    tag_16:\n      callvalue\n      dup1\n      iszero\n      tag_83\n      jumpi\n      0x00\n      dup1\n      revert\n    tag_83:\n      pop\n      tag_84\n      0x04\n      dup1\n      calldatasize\n      sub\n      dup2\n      add\n      swap1\n      tag_85\n      swap2\n      swap1\n      tag_86\n      jump\t// in\n    tag_85:\n      tag_87\n      jump\t// in\n    tag_84:\n      stop\n        /* \"channel.sol\":4145:4722  function setChannelParams(bytes32 _W_jm, bytes32 _W_jc, string memory _S_id, uint256 _c, uint256 _v, uint256 _T_exp, uint256 _TD, uint256 _TR) public onlyOwner {... */\n    tag_17:\n      callvalue\n      dup1\n      iszero\n      tag_88\n      jumpi\n      0x00\n      dup1\n      revert\n    tag_88:\n      pop\n      tag_89\n      0x04\n      dup1\n      calldatasize\n      sub\n      dup2\n      add\n      swap1\n      tag_90\n      swap2\n      swap1\n      tag_91\n      jump\t// in\n    tag_90:\n      tag_92\n      jump\t// in\n    tag_89:\n      stop\n        /* \"channel.sol\":2797:2817  uint256 public T_exp */\n    tag_18:\n      callvalue\n      dup1\n      iszero\n      tag_93\n      jumpi\n      0x00\n      dup1\n      revert\n    tag_93:\n      pop\n      tag_94\n      tag_95\n      jump\t// in\n    tag_94:\n      mload(0x40)\n      tag_96\n      swap2\n      swap1\n      tag_40\n      jump\t// in\n    tag_96:\n      mload(0x40)\n      dup1\n      swap2\n      sub\n      swap1\n      return\n        /* \"channel.sol\":2666:2684  string public S_id */\n    tag_28:\n      0x04\n      dup1\n      sload\n      tag_97\n      swap1\n      tag_98\n      jump\t// in\n    tag_97:\n      dup1\n      0x1f\n      add\n      0x20\n      dup1\n      swap2\n      div\n      mul\n      0x20\n      add\n      mload(0x40)\n      swap1\n      dup2\n      add\n      0x40\n      mstore\n      dup1\n      swap3\n      swap2\n      swap1\n      dup2\n      dup2\n      mstore\n      0x20\n      add\n      dup3\n      dup1\n      sload\n      tag_99\n      swap1\n      tag_98\n      jump\t// in\n    tag_99:\n      dup1\n      iszero\n      tag_100\n      jumpi\n      dup1\n      0x1f\n      lt\n      tag_101\n      jumpi\n      0x0100\n      dup1\n      dup4\n      sload\n      div\n      mul\n      dup4\n      mstore\n      swap2\n      0x20\n      add\n      swap2\n      jump(tag_100)\n    tag_101:\n      dup3\n      add\n      swap2\n      swap1\n      0x00\n      mstore\n      keccak256(0x00, 0x20)\n      swap1\n    tag_102:\n      dup2\n      sload\n      dup2\n      mstore\n      swap1\n      0x01\n      add\n      swap1\n      0x20\n      add\n      dup1\n      dup4\n      gt\n      tag_102\n      jumpi\n      dup3\n      swap1\n      sub\n      0x1f\n      and\n      dup3\n      add\n      swap2\n    tag_100:\n      pop\n      pop\n      pop\n      pop\n      pop\n      dup2\n      jump\t// out\n        /* \"channel.sol\":2407:2430  address public customer */\n    tag_33:\n      0x01\n      0x00\n      swap1\n      sload\n      swap1\n      0x0100\n      exp\n      swap1\n      div\n      0xffffffffffffffffffffffffffffffffffffffff\n      and\n      dup2\n      jump\t// out\n        /* \"channel.sol\":2883:2900  uint256 public TR */\n    tag_38:\n      sload(0x09)\n      dup2\n      jump\t// out\n        /* \"channel.sol\":3368:4088  function initialize(uint256 _c, uint256 _v, address _customer, bytes32 _W_jm, bytes32 _W_jc, string memory _S_id, ... */\n    tag_44:\n        /* \"channel.sol\":3575:3580  false */\n      0x00\n        /* \"channel.sol\":3565:3580  isBase == false */\n      iszero\n      iszero\n        /* \"channel.sol\":3565:3571  isBase */\n      0x0a\n      0x00\n      swap1\n      sload\n      swap1\n      0x0100\n      exp\n      swap1\n      div\n      0xff\n      and\n        /* \"channel.sol\":3565:3580  isBase == false */\n      iszero\n      iszero\n      eq\n        /* \"channel.sol\":3557:3581  require(isBase == false) */\n      tag_104\n      jumpi\n      0x00\n      dup1\n      revert\n    tag_104:\n        /* \"channel.sol\":3616:3618  _v */\n      dup8\n        /* \"channel.sol\":3613:3615  _c */\n      dup10\n        /* \"channel.sol\":3613:3618  _c*_v */\n      tag_105\n      swap2\n      swap1\n      tag_106\n      jump\t// in\n    tag_105:\n        /* \"channel.sol\":3600:3609  msg.value */\n      callvalue\n        /* \"channel.sol\":3600:3618  msg.value == _c*_v */\n      eq\n        /* \"channel.sol\":3592:3636  require(msg.value == _c*_v, 'balance error') */\n      tag_107\n      jumpi\n      mload(0x40)\n      0x08c379a000000000000000000000000000000000000000000000000000000000\n      dup2\n      mstore\n      0x04\n      add\n      tag_108\n      swap1\n      tag_109\n      jump\t// in\n    tag_108:\n      mload(0x40)\n      dup1\n      swap2\n      sub\n      swap1\n      revert\n    tag_107:\n        /* \"channel.sol\":3665:3666  0 */\n      0x00\n        /* \"channel.sol\":3656:3661  T_exp */\n      sload(0x07)\n        /* \"channel.sol\":3656:3666  T_exp == 0 */\n      eq\n        /* \"channel.sol\":3656:3677  T_exp == 0 && TD == 0 */\n      dup1\n      iszero\n      tag_110\n      jumpi\n      pop\n        /* \"channel.sol\":3676:3677  0 */\n      0x00\n        /* \"channel.sol\":3670:3672  TD */\n      sload(0x08)\n        /* \"channel.sol\":3670:3677  TD == 0 */\n      eq\n        /* \"channel.sol\":3656:3677  T_exp == 0 && TD == 0 */\n    tag_110:\n        /* \"channel.sol\":3656:3688  T_exp == 0 && TD == 0 && TR == 0 */\n      dup1\n      iszero\n      tag_111\n      jumpi\n      pop\n        /* \"channel.sol\":3687:3688  0 */\n      0x00\n        /* \"channel.sol\":3681:3683  TR */\n      sload(0x09)\n        /* \"channel.sol\":3681:3688  TR == 0 */\n      eq\n        /* \"channel.sol\":3656:3688  T_exp == 0 && TD == 0 && TR == 0 */\n    tag_111:\n        /* \"channel.sol\":3656:3722  T_exp == 0 && TD == 0 && TR == 0 && (T_exp + TD) < block.timestamp */\n      dup1\n      iszero\n      tag_112\n      jumpi\n      pop\n        /* \"channel.sol\":3707:3722  block.timestamp */\n      timestamp\n        /* \"channel.sol\":3701:3703  TD */\n      sload(0x08)\n        /* \"channel.sol\":3693:3698  T_exp */\n      sload(0x07)\n        /* \"channel.sol\":3693:3703  T_exp + TD */\n      tag_113\n      swap2\n      swap1\n      tag_114\n      jump\t// in\n    tag_113:\n        /* \"channel.sol\":3692:3722  (T_exp + TD) < block.timestamp */\n      lt\n        /* \"channel.sol\":3656:3722  T_exp == 0 && TD == 0 && TR == 0 && (T_exp + TD) < block.timestamp */\n    tag_112:\n        /* \"channel.sol\":3655:3810  (T_exp == 0 && TD == 0 && TR == 0 && (T_exp + TD) < block.timestamp) || ((T_exp + TD) < block.timestamp ... */\n      dup1\n      tag_115\n      jumpi\n      pop\n        /* \"channel.sol\":3743:3758  block.timestamp */\n      timestamp\n        /* \"channel.sol\":3737:3739  TD */\n      sload(0x08)\n        /* \"channel.sol\":3729:3734  T_exp */\n      sload(0x07)\n        /* \"channel.sol\":3729:3739  T_exp + TD */\n      tag_116\n      swap2\n      swap1\n      tag_114\n      jump\t// in\n    tag_116:\n        /* \"channel.sol\":3728:3758  (T_exp + TD) < block.timestamp */\n      lt\n        /* \"channel.sol\":3728:3809  (T_exp + TD) < block.timestamp ... */\n      dup1\n      iszero\n      tag_117\n      jumpi\n      pop\n        /* \"channel.sol\":3805:3807  TR */\n      sload(0x09)\n        /* \"channel.sol\":3800:3802  TD */\n      sload(0x08)\n        /* \"channel.sol\":3792:3797  T_exp */\n      sload(0x07)\n        /* \"channel.sol\":3792:3802  T_exp + TD */\n      tag_118\n      swap2\n      swap1\n      tag_114\n      jump\t// in\n    tag_118:\n        /* \"channel.sol\":3792:3807  T_exp + TD + TR */\n      tag_119\n      swap2\n      swap1\n      tag_114\n      jump\t// in\n    tag_119:\n        /* \"channel.sol\":3773:3788  block.timestamp */\n      timestamp\n        /* \"channel.sol\":3773:3808  block.timestamp < (T_exp + TD + TR) */\n      lt\n        /* \"channel.sol\":3728:3809  (T_exp + TD) < block.timestamp ... */\n    tag_117:\n        /* \"channel.sol\":3655:3810  (T_exp == 0 && TD == 0 && TR == 0 && (T_exp + TD) < block.timestamp) || ((T_exp + TD) < block.timestamp ... */\n    tag_115:\n        /* \"channel.sol\":3647:3811  require((T_exp == 0 && TD == 0 && TR == 0 && (T_exp + TD) < block.timestamp) || ((T_exp + TD) < block.timestamp ... */\n      tag_120\n      jumpi\n      0x00\n      dup1\n      revert\n    tag_120:\n        /* \"channel.sol\":3843:3852  _customer */\n      dup7\n        /* \"channel.sol\":3832:3840  customer */\n      0x01\n      0x00\n        /* \"channel.sol\":3832:3852  customer = _customer */\n      0x0100\n      exp\n      dup2\n      sload\n      dup2\n      0xffffffffffffffffffffffffffffffffffffffff\n      mul\n      not\n      and\n      swap1\n      dup4\n      0xffffffffffffffffffffffffffffffffffffffff\n      and\n      mul\n      or\n      swap1\n      sstore\n      pop\n        /* \"channel.sol\":3867:3869  _c */\n      dup9\n        /* \"channel.sol\":3863:3864  c */\n      0x05\n        /* \"channel.sol\":3863:3869  c = _c */\n      dup2\n      swap1\n      sstore\n      pop\n        /* \"channel.sol\":3884:3886  _v */\n      dup8\n        /* \"channel.sol\":3880:3881  v */\n      0x06\n        /* \"channel.sol\":3880:3886  v = _v */\n      dup2\n      swap1\n      sstore\n      pop\n        /* \"channel.sol\":3903:3904  0 */\n      0x00\n        /* \"channel.sol\":3899:3900  j */\n      dup1\n        /* \"channel.sol\":3899:3904  j = 0 */\n      dup2\n      swap1\n      sstore\n      pop\n        /* \"channel.sol\":3932:3937  _W_jm */\n      dup6\n        /* \"channel.sol\":3925:3929  W_jm */\n      0x02\n        /* \"channel.sol\":3925:3937  W_jm = _W_jm */\n      dup2\n      swap1\n      sstore\n      pop\n        /* \"channel.sol\":3955:3960  _W_jc */\n      dup5\n        /* \"channel.sol\":3948:3952  W_jc */\n      0x03\n        /* \"channel.sol\":3948:3960  W_jc = _W_jc */\n      dup2\n      swap1\n      sstore\n      pop\n        /* \"channel.sol\":3978:3983  _S_id */\n      dup4\n        /* \"channel.sol\":3971:3975  S_id */\n      0x04\n        /* \"channel.sol\":3971:3983  S_id = _S_id */\n      swap1\n      dup1\n      mload\n      swap1\n      0x20\n      add\n      swap1\n      tag_121\n      swap3\n      swap2\n      swap1\n      tag_122\n      jump\t// in\n    tag_121:\n      pop\n        /* \"channel.sol\":3998:4000  _c */\n      dup9\n        /* \"channel.sol\":3994:3995  c */\n      0x05\n        /* \"channel.sol\":3994:4000  c = _c */\n      dup2\n      swap1\n      sstore\n      pop\n        /* \"channel.sol\":4015:4017  _v */\n      dup8\n        /* \"channel.sol\":4011:4012  v */\n      0x06\n        /* \"channel.sol\":4011:4017  v = _v */\n      dup2\n      swap1\n      sstore\n      pop\n        /* \"channel.sol\":4036:4042  _T_exp */\n      dup3\n        /* \"channel.sol\":4028:4033  T_exp */\n      0x07\n        /* \"channel.sol\":4028:4042  T_exp = _T_exp */\n      dup2\n      swap1\n      sstore\n      pop\n        /* \"channel.sol\":4058:4061  _TD */\n      dup2\n        /* \"channel.sol\":4053:4055  TD */\n      0x08\n        /* \"channel.sol\":4053:4061  TD = _TD */\n      dup2\n      swap1\n      sstore\n      pop\n        /* \"channel.sol\":4077:4080  _TR */\n      dup1\n        /* \"channel.sol\":4072:4074  TR */\n      0x09\n        /* \"channel.sol\":4072:4080  TR = _TR */\n      dup2\n      swap1\n      sstore\n      pop\n        /* \"channel.sol\":3368:4088  function initialize(uint256 _c, uint256 _v, address _customer, bytes32 _W_jm, bytes32 _W_jc, string memory _S_id, ... */\n      pop\n      pop\n      pop\n      pop\n      pop\n      pop\n      pop\n      pop\n      pop\n      jump\t// out\n        /* \"channel.sol\":2546:2565  bytes32 public W_jc */\n    tag_47:\n      sload(0x03)\n      dup2\n      jump\t// out\n        /* \"channel.sol\":6730:6966  function channelClose(address refundAddress) public payable onlyOwner{... */\n    tag_53:\n        /* \"channel.sol\":7267:7275  customer */\n      0x01\n      0x00\n      swap1\n      sload\n      swap1\n      0x0100\n      exp\n      swap1\n      div\n      0xffffffffffffffffffffffffffffffffffffffff\n      and\n        /* \"channel.sol\":7253:7275  msg.sender == customer */\n      0xffffffffffffffffffffffffffffffffffffffff\n      and\n        /* \"channel.sol\":7253:7263  msg.sender */\n      caller\n        /* \"channel.sol\":7253:7275  msg.sender == customer */\n      0xffffffffffffffffffffffffffffffffffffffff\n      and\n      eq\n        /* \"channel.sol\":7244:7337  require (msg.sender == customer, \"Only customer of the delivery can set the channel params.\") */\n      tag_124\n      jumpi\n      mload(0x40)\n      0x08c379a000000000000000000000000000000000000000000000000000000000\n      dup2\n      mstore\n      0x04\n      add\n      tag_125\n      swap1\n      tag_126\n      jump\t// in\n    tag_125:\n      mload(0x40)\n      dup1\n      swap2\n      sub\n      swap1\n      revert\n    tag_124:\n        /* \"channel.sol\":6878:6893  block.timestamp */\n      timestamp\n        /* \"channel.sol\":6873:6875  TD */\n      sload(0x08)\n        /* \"channel.sol\":6865:6870  T_exp */\n      sload(0x07)\n        /* \"channel.sol\":6865:6875  T_exp + TD */\n      tag_128\n      swap2\n      swap1\n      tag_114\n      jump\t// in\n    tag_128:\n        /* \"channel.sol\":6865:6893  T_exp + TD < block.timestamp */\n      lt\n        /* \"channel.sol\":6856:6909  require((T_exp + TD < block.timestamp), \"Time error\") */\n      tag_129\n      jumpi\n      mload(0x40)\n      0x08c379a000000000000000000000000000000000000000000000000000000000\n      dup2\n      mstore\n      0x04\n      add\n      tag_130\n      swap1\n      tag_131\n      jump\t// in\n    tag_130:\n      mload(0x40)\n      dup1\n      swap2\n      sub\n      swap1\n      revert\n    tag_129:\n        /* \"channel.sol\":6943:6956  refundAddress */\n      dup1\n        /* \"channel.sol\":6922:6958  selfdestruct(payable(refundAddress)) */\n      0xffffffffffffffffffffffffffffffffffffffff\n      and\n      selfdestruct\n        /* \"channel.sol\":2755:2771  uint256 public v */\n    tag_56:\n      sload(0x06)\n      dup2\n      jump\t// out\n        /* \"channel.sol\":2925:2943  bool public isBase */\n    tag_60:\n      0x0a\n      0x00\n      swap1\n      sload\n      swap1\n      0x0100\n      exp\n      swap1\n      div\n      0xff\n      and\n      dup2\n      jump\t// out\n        /* \"channel.sol\":2465:2484  bytes32 public W_jm */\n    tag_65:\n      sload(0x02)\n      dup2\n      jump\t// out\n        /* \"channel.sol\":2842:2859  uint256 public TD */\n    tag_69:\n      sload(0x08)\n      dup2\n      jump\t// out\n        /* \"channel.sol\":3072:3360  function initialize(uint256 _c, uint256 _v, address _customer) external payable{... */\n    tag_74:\n        /* \"channel.sol\":3180:3185  false */\n      0x00\n        /* \"channel.sol\":3170:3185  isBase == false */\n      iszero\n      iszero\n        /* \"channel.sol\":3170:3176  isBase */\n      0x0a\n      0x00\n      swap1\n      sload\n      swap1\n      0x0100\n      exp\n      swap1\n      div\n      0xff\n      and\n        /* \"channel.sol\":3170:3185  isBase == false */\n      iszero\n      iszero\n      eq\n        /* \"channel.sol\":3162:3186  require(isBase == false) */\n      tag_133\n      jumpi\n      0x00\n      dup1\n      revert\n    tag_133:\n        /* \"channel.sol\":3208:3217  _customer */\n      dup1\n        /* \"channel.sol\":3197:3205  customer */\n      0x01\n      0x00\n        /* \"channel.sol\":3197:3217  customer = _customer */\n      0x0100\n      exp\n      dup2\n      sload\n      dup2\n      0xffffffffffffffffffffffffffffffffffffffff\n      mul\n      not\n      and\n      swap1\n      dup4\n      0xffffffffffffffffffffffffffffffffffffffff\n      and\n      mul\n      or\n      swap1\n      sstore\n      pop\n        /* \"channel.sol\":3232:3234  _c */\n      dup3\n        /* \"channel.sol\":3228:3229  c */\n      0x05\n        /* \"channel.sol\":3228:3234  c = _c */\n      dup2\n      swap1\n      sstore\n      pop\n        /* \"channel.sol\":3249:3251  _v */\n      dup2\n        /* \"channel.sol\":3245:3246  v */\n      0x06\n        /* \"channel.sol\":3245:3251  v = _v */\n      dup2\n      swap1\n      sstore\n      pop\n        /* \"channel.sol\":3280:3281  0 */\n      0x00\n        /* \"channel.sol\":3267:3276  msg.value */\n      callvalue\n        /* \"channel.sol\":3267:3281  msg.value != 0 */\n      eq\n        /* \"channel.sol\":3264:3353  if(msg.value != 0){... */\n      tag_134\n      jumpi\n        /* \"channel.sol\":3321:3323  _v */\n      dup2\n        /* \"channel.sol\":3318:3320  _c */\n      dup4\n        /* \"channel.sol\":3318:3323  _c*_v */\n      tag_135\n      swap2\n      swap1\n      tag_106\n      jump\t// in\n    tag_135:\n        /* \"channel.sol\":3305:3314  msg.value */\n      callvalue\n        /* \"channel.sol\":3305:3323  msg.value == _c*_v */\n      eq\n        /* \"channel.sol\":3297:3341  require(msg.value == _c*_v, 'balance error') */\n      tag_136\n      jumpi\n      mload(0x40)\n      0x08c379a000000000000000000000000000000000000000000000000000000000\n      dup2\n      mstore\n      0x04\n      add\n      tag_137\n      swap1\n      tag_109\n      jump\t// in\n    tag_137:\n      mload(0x40)\n      dup1\n      swap2\n      sub\n      swap1\n      revert\n    tag_136:\n        /* \"channel.sol\":3264:3353  if(msg.value != 0){... */\n    tag_134:\n        /* \"channel.sol\":3072:3360  function initialize(uint256 _c, uint256 _v, address _customer) external payable{... */\n      pop\n      pop\n      pop\n      jump\t// out\n        /* \"channel.sol\":2384:2400  uint256 public j */\n    tag_77:\n      sload(0x00)\n      dup2\n      jump\t// out\n        /* \"channel.sol\":2712:2728  uint256 public c */\n    tag_81:\n      sload(0x05)\n      dup2\n      jump\t// out\n        /* \"channel.sol\":4934:6564  function transferDeposit(bytes memory _W_km, bytes memory _W_kc, uint256 k, address newChannelAddress) public {... */\n    tag_87:\n        /* \"channel.sol\":5092:5094  TD */\n      sload(0x08)\n        /* \"channel.sol\":5084:5089  T_exp */\n      sload(0x07)\n        /* \"channel.sol\":5084:5094  T_exp + TD */\n      tag_139\n      swap2\n      swap1\n      tag_114\n      jump\t// in\n    tag_139:\n        /* \"channel.sol\":5065:5080  block.timestamp */\n      timestamp\n        /* \"channel.sol\":5065:5095  block.timestamp < (T_exp + TD) */\n      lt\n        /* \"channel.sol\":5055:5113  require ((block.timestamp < (T_exp + TD)), \"Time error\"  ) */\n      tag_140\n      jumpi\n      mload(0x40)\n      0x08c379a000000000000000000000000000000000000000000000000000000000\n      dup2\n      mstore\n      0x04\n      add\n      tag_141\n      swap1\n      tag_131\n      jump\t// in\n    tag_141:\n      mload(0x40)\n      dup1\n      swap2\n      sub\n      swap1\n      revert\n    tag_140:\n        /* \"channel.sol\":5137:5138  j */\n      sload(0x00)\n        /* \"channel.sol\":5133:5134  k */\n      dup3\n        /* \"channel.sol\":5133:5138  k > j */\n      gt\n        /* \"channel.sol\":5124:5149  require (k > j, \"k <= j\") */\n      tag_142\n      jumpi\n      mload(0x40)\n      0x08c379a000000000000000000000000000000000000000000000000000000000\n      dup2\n      mstore\n      0x04\n      add\n      tag_143\n      swap1\n      tag_144\n      jump\t// in\n    tag_143:\n      mload(0x40)\n      dup1\n      swap2\n      sub\n      swap1\n      revert\n    tag_142:\n        /* \"channel.sol\":5174:5189  uint256 balance */\n      0x00\n        /* \"channel.sol\":5200:5214  bytes32 hash_m */\n      dup1\n        /* \"channel.sol\":5225:5230  _W_km */\n      dup6\n        /* \"channel.sol\":5217:5231  bytes32(_W_km) */\n      tag_145\n      swap1\n      tag_146\n      jump\t// in\n    tag_145:\n        /* \"channel.sol\":5200:5231  bytes32 hash_m = bytes32(_W_km) */\n      swap1\n      pop\n        /* \"channel.sol\":5242:5256  bytes32 hash_c */\n      0x00\n        /* \"channel.sol\":5267:5272  _W_kc */\n      dup6\n        /* \"channel.sol\":5259:5273  bytes32(_W_kc) */\n      tag_147\n      swap1\n      tag_146\n      jump\t// in\n    tag_147:\n        /* \"channel.sol\":5242:5273  bytes32 hash_c = bytes32(_W_kc) */\n      swap1\n      pop\n        /* \"channel.sol\":5284:5293  uint256 i */\n      0x00\n        /* \"channel.sol\":5298:5299  j */\n      dup1\n      sload\n        /* \"channel.sol\":5296:5297  k */\n      dup7\n        /* \"channel.sol\":5296:5299  k-j */\n      tag_148\n      swap2\n      swap1\n      tag_149\n      jump\t// in\n    tag_148:\n        /* \"channel.sol\":5284:5299  uint256 i = k-j */\n      swap1\n      pop\n        /* \"channel.sol\":5320:5464  for (i; i!= 0; i--){... */\n    tag_150:\n        /* \"channel.sol\":5332:5333  0 */\n      0x00\n        /* \"channel.sol\":5328:5329  i */\n      dup2\n        /* \"channel.sol\":5328:5333  i!= 0 */\n      eq\n        /* \"channel.sol\":5320:5464  for (i; i!= 0; i--){... */\n      tag_151\n      jumpi\n        /* \"channel.sol\":5363:5395  sha256(abi.encodePacked(hash_m)) */\n      0x02\n        /* \"channel.sol\":5387:5393  hash_m */\n      dup4\n        /* \"channel.sol\":5370:5394  abi.encodePacked(hash_m) */\n      add(0x20, mload(0x40))\n      tag_153\n      swap2\n      swap1\n      tag_154\n      jump\t// in\n    tag_153:\n      mload(0x40)\n      0x20\n      dup2\n      dup4\n      sub\n      sub\n      dup2\n      mstore\n      swap1\n      0x40\n      mstore\n        /* \"channel.sol\":5363:5395  sha256(abi.encodePacked(hash_m)) */\n      mload(0x40)\n      tag_155\n      swap2\n      swap1\n      tag_156\n      jump\t// in\n    tag_155:\n      0x20\n      mload(0x40)\n      dup1\n      dup4\n      sub\n      dup2\n      dup6\n      gas\n      staticcall\n      iszero\n      dup1\n      iszero\n      tag_158\n      jumpi\n      returndatasize\n      0x00\n      dup1\n      returndatacopy\n      revert(0x00, returndatasize)\n    tag_158:\n      pop\n      pop\n      pop\n      mload(0x40)\n      returndatasize\n      not(0x1f)\n      0x1f\n      dup3\n      add\n      and\n      dup3\n      add\n      dup1\n      0x40\n      mstore\n      pop\n      dup2\n      add\n      swap1\n      tag_159\n      swap2\n      swap1\n      tag_160\n      jump\t// in\n    tag_159:\n        /* \"channel.sol\":5354:5395  hash_m = sha256(abi.encodePacked(hash_m)) */\n      swap3\n      pop\n        /* \"channel.sol\":5419:5451  sha256(abi.encodePacked(hash_c)) */\n      0x02\n        /* \"channel.sol\":5443:5449  hash_c */\n      dup3\n        /* \"channel.sol\":5426:5450  abi.encodePacked(hash_c) */\n      add(0x20, mload(0x40))\n      tag_161\n      swap2\n      swap1\n      tag_154\n      jump\t// in\n    tag_161:\n      mload(0x40)\n      0x20\n      dup2\n      dup4\n      sub\n      sub\n      dup2\n      mstore\n      swap1\n      0x40\n      mstore\n        /* \"channel.sol\":5419:5451  sha256(abi.encodePacked(hash_c)) */\n      mload(0x40)\n      tag_162\n      swap2\n      swap1\n      tag_156\n      jump\t// in\n    tag_162:\n      0x20\n      mload(0x40)\n      dup1\n      dup4\n      sub\n      dup2\n      dup6\n      gas\n      staticcall\n      iszero\n      dup1\n      iszero\n      tag_164\n      jumpi\n      returndatasize\n      0x00\n      dup1\n      returndatacopy\n      revert(0x00, returndatasize)\n    tag_164:\n      pop\n      pop\n      pop\n      mload(0x40)\n      returndatasize\n      not(0x1f)\n      0x1f\n      dup3\n      add\n      and\n      dup3\n      add\n      dup1\n      0x40\n      mstore\n      pop\n      dup2\n      add\n      swap1\n      tag_165\n      swap2\n      swap1\n      tag_160\n      jump\t// in\n    tag_165:\n        /* \"channel.sol\":5410:5451  hash_c = sha256(abi.encodePacked(hash_c)) */\n      swap2\n      pop\n        /* \"channel.sol\":5335:5338  i-- */\n      dup1\n      dup1\n      tag_166\n      swap1\n      tag_167\n      jump\t// in\n    tag_166:\n      swap2\n      pop\n      pop\n        /* \"channel.sol\":5320:5464  for (i; i!= 0; i--){... */\n      jump(tag_150)\n    tag_151:\n        /* \"channel.sol\":5493:5499  hash_m */\n      dup3\n        /* \"channel.sol\":5485:5489  W_jm */\n      sload(0x02)\n        /* \"channel.sol\":5485:5499  W_jm == hash_m */\n      eq\n        /* \"channel.sol\":5476:5521  require (W_jm == hash_m, \"W_km is incorrect\") */\n      tag_168\n      jumpi\n      mload(0x40)\n      0x08c379a000000000000000000000000000000000000000000000000000000000\n      dup2\n      mstore\n      0x04\n      add\n      tag_169\n      swap1\n      tag_170\n      jump\t// in\n    tag_169:\n      mload(0x40)\n      dup1\n      swap2\n      sub\n      swap1\n      revert\n    tag_168:\n        /* \"channel.sol\":5549:5555  hash_c */\n      dup2\n        /* \"channel.sol\":5541:5545  W_jc */\n      sload(0x03)\n        /* \"channel.sol\":5541:5555  W_jc == hash_c */\n      eq\n        /* \"channel.sol\":5532:5577  require (W_jc == hash_c, \"W_kc is incorrect\") */\n      tag_171\n      jumpi\n      mload(0x40)\n      0x08c379a000000000000000000000000000000000000000000000000000000000\n      dup2\n      mstore\n      0x04\n      add\n      tag_172\n      swap1\n      tag_173\n      jump\t// in\n    tag_172:\n      mload(0x40)\n      dup1\n      swap2\n      sub\n      swap1\n      revert\n    tag_171:\n        /* \"channel.sol\":5608:5609  0 */\n      0x00\n        /* \"channel.sol\":5603:5604  2 */\n      0x02\n        /* \"channel.sol\":5601:5602  k */\n      dup8\n        /* \"channel.sol\":5601:5604  k%2 */\n      tag_174\n      swap2\n      swap1\n      tag_175\n      jump\t// in\n    tag_174:\n        /* \"channel.sol\":5601:5609  k%2 == 0 */\n      eq\n        /* \"channel.sol\":5598:6253  if(k%2 == 0){... */\n      iszero\n      tag_176\n      jumpi\n        /* \"channel.sol\":5642:5643  2 */\n      0x02\n        /* \"channel.sol\":5639:5640  j */\n      sload(0x00)\n        /* \"channel.sol\":5637:5638  k */\n      dup8\n        /* \"channel.sol\":5637:5640  k-j */\n      tag_177\n      swap2\n      swap1\n      tag_149\n      jump\t// in\n    tag_177:\n        /* \"channel.sol\":5636:5643  (k-j)/2 */\n      tag_178\n      swap2\n      swap1\n      tag_179\n      jump\t// in\n    tag_178:\n        /* \"channel.sol\":5625:5644  balance = ((k-j)/2) */\n      swap4\n      pop\n        /* \"channel.sol\":5663:5664  k */\n      dup6\n        /* \"channel.sol\":5659:5660  j */\n      0x00\n        /* \"channel.sol\":5659:5664  j = k */\n      dup2\n      swap1\n      sstore\n      pop\n        /* \"channel.sol\":5709:5714  _W_km */\n      dup8\n        /* \"channel.sol\":5700:5715  bytes32 (_W_km) */\n      tag_180\n      swap1\n      tag_146\n      jump\t// in\n    tag_180:\n        /* \"channel.sol\":5693:5697  W_jm */\n      0x02\n        /* \"channel.sol\":5693:5715  W_jm = bytes32 (_W_km) */\n      dup2\n      swap1\n      sstore\n      pop\n        /* \"channel.sol\":5746:5751  _W_kc */\n      dup7\n        /* \"channel.sol\":5737:5752  bytes32 (_W_kc) */\n      tag_181\n      swap1\n      tag_146\n      jump\t// in\n    tag_181:\n        /* \"channel.sol\":5730:5734  W_jc */\n      0x03\n        /* \"channel.sol\":5730:5752  W_jc = bytes32 (_W_kc) */\n      dup2\n      swap1\n      sstore\n      pop\n        /* \"channel.sol\":5598:6253  if(k%2 == 0){... */\n      jump(tag_182)\n    tag_176:\n        /* \"channel.sol\":5802:5803  2 */\n      0x02\n        /* \"channel.sol\":5799:5800  1 */\n      0x01\n        /* \"channel.sol\":5797:5798  j */\n      sload(0x00)\n        /* \"channel.sol\":5795:5796  k */\n      dup9\n        /* \"channel.sol\":5795:5798  k-j */\n      tag_183\n      swap2\n      swap1\n      tag_149\n      jump\t// in\n    tag_183:\n        /* \"channel.sol\":5795:5800  k-j-1 */\n      tag_184\n      swap2\n      swap1\n      tag_149\n      jump\t// in\n    tag_184:\n        /* \"channel.sol\":5794:5803  (k-j-1)/2 */\n      tag_185\n      swap2\n      swap1\n      tag_179\n      jump\t// in\n    tag_185:\n        /* \"channel.sol\":5783:5804  balance = ((k-j-1)/2) */\n      swap4\n      pop\n        /* \"channel.sol\":5825:5826  1 */\n      0x01\n        /* \"channel.sol\":5823:5824  k */\n      dup7\n        /* \"channel.sol\":5823:5826  k-1 */\n      tag_186\n      swap2\n      swap1\n      tag_149\n      jump\t// in\n    tag_186:\n        /* \"channel.sol\":5819:5820  j */\n      0x00\n        /* \"channel.sol\":5819:5826  j = k-1 */\n      dup2\n      swap1\n      sstore\n      pop\n        /* \"channel.sol\":5841:5855  bytes32 hash_m */\n      0x00\n        /* \"channel.sol\":5866:5871  _W_km */\n      dup9\n        /* \"channel.sol\":5858:5872  bytes32(_W_km) */\n      tag_187\n      swap1\n      tag_146\n      jump\t// in\n    tag_187:\n        /* \"channel.sol\":5841:5872  bytes32 hash_m = bytes32(_W_km) */\n      swap1\n      pop\n        /* \"channel.sol\":5887:5901  bytes32 hash_c */\n      0x00\n        /* \"channel.sol\":5912:5917  _W_kc */\n      dup9\n        /* \"channel.sol\":5904:5918  bytes32(_W_kc) */\n      tag_188\n      swap1\n      tag_146\n      jump\t// in\n    tag_188:\n        /* \"channel.sol\":5887:5918  bytes32 hash_c = bytes32(_W_kc) */\n      swap1\n      pop\n        /* \"channel.sol\":5933:5942  uint256 i */\n      0x00\n        /* \"channel.sol\":5947:5948  j */\n      dup1\n      sload\n        /* \"channel.sol\":5945:5946  k */\n      dup10\n        /* \"channel.sol\":5945:5948  k-j */\n      tag_189\n      swap2\n      swap1\n      tag_149\n      jump\t// in\n    tag_189:\n        /* \"channel.sol\":5933:5948  uint256 i = k-j */\n      swap1\n      pop\n        /* \"channel.sol\":5973:6129  for (i; i!= 0; i--){... */\n    tag_190:\n        /* \"channel.sol\":5985:5986  0 */\n      0x00\n        /* \"channel.sol\":5981:5982  i */\n      dup2\n        /* \"channel.sol\":5981:5986  i!= 0 */\n      eq\n        /* \"channel.sol\":5973:6129  for (i; i!= 0; i--){... */\n      tag_191\n      jumpi\n        /* \"channel.sol\":6020:6052  sha256(abi.encodePacked(hash_m)) */\n      0x02\n        /* \"channel.sol\":6044:6050  hash_m */\n      dup4\n        /* \"channel.sol\":6027:6051  abi.encodePacked(hash_m) */\n      add(0x20, mload(0x40))\n      tag_193\n      swap2\n      swap1\n      tag_154\n      jump\t// in\n    tag_193:\n      mload(0x40)\n      0x20\n      dup2\n      dup4\n      sub\n      sub\n      dup2\n      mstore\n      swap1\n      0x40\n      mstore\n        /* \"channel.sol\":6020:6052  sha256(abi.encodePacked(hash_m)) */\n      mload(0x40)\n      tag_194\n      swap2\n      swap1\n      tag_156\n      jump\t// in\n    tag_194:\n      0x20\n      mload(0x40)\n      dup1\n      dup4\n      sub\n      dup2\n      dup6\n      gas\n      staticcall\n      iszero\n      dup1\n      iszero\n      tag_196\n      jumpi\n      returndatasize\n      0x00\n      dup1\n      returndatacopy\n      revert(0x00, returndatasize)\n    tag_196:\n      pop\n      pop\n      pop\n      mload(0x40)\n      returndatasize\n      not(0x1f)\n      0x1f\n      dup3\n      add\n      and\n      dup3\n      add\n      dup1\n      0x40\n      mstore\n      pop\n      dup2\n      add\n      swap1\n      tag_197\n      swap2\n      swap1\n      tag_160\n      jump\t// in\n    tag_197:\n        /* \"channel.sol\":6011:6052  hash_m = sha256(abi.encodePacked(hash_m)) */\n      swap3\n      pop\n        /* \"channel.sol\":6080:6112  sha256(abi.encodePacked(hash_c)) */\n      0x02\n        /* \"channel.sol\":6104:6110  hash_c */\n      dup3\n        /* \"channel.sol\":6087:6111  abi.encodePacked(hash_c) */\n      add(0x20, mload(0x40))\n      tag_198\n      swap2\n      swap1\n      tag_154\n      jump\t// in\n    tag_198:\n      mload(0x40)\n      0x20\n      dup2\n      dup4\n      sub\n      sub\n      dup2\n      mstore\n      swap1\n      0x40\n      mstore\n        /* \"channel.sol\":6080:6112  sha256(abi.encodePacked(hash_c)) */\n      mload(0x40)\n      tag_199\n      swap2\n      swap1\n      tag_156\n      jump\t// in\n    tag_199:\n      0x20\n      mload(0x40)\n      dup1\n      dup4\n      sub\n      dup2\n      dup6\n      gas\n      staticcall\n      iszero\n      dup1\n      iszero\n      tag_201\n      jumpi\n      returndatasize\n      0x00\n      dup1\n      returndatacopy\n      revert(0x00, returndatasize)\n    tag_201:\n      pop\n      pop\n      pop\n      mload(0x40)\n      returndatasize\n      not(0x1f)\n      0x1f\n      dup3\n      add\n      and\n      dup3\n      add\n      dup1\n      0x40\n      mstore\n      pop\n      dup2\n      add\n      swap1\n      tag_202\n      swap2\n      swap1\n      tag_160\n      jump\t// in\n    tag_202:\n        /* \"channel.sol\":6071:6112  hash_c = sha256(abi.encodePacked(hash_c)) */\n      swap2\n      pop\n        /* \"channel.sol\":5988:5991  i-- */\n      dup1\n      dup1\n      tag_203\n      swap1\n      tag_167\n      jump\t// in\n    tag_203:\n      swap2\n      pop\n      pop\n        /* \"channel.sol\":5973:6129  for (i; i!= 0; i--){... */\n      jump(tag_190)\n    tag_191:\n        /* \"channel.sol\":6164:6165  1 */\n      0x01\n        /* \"channel.sol\":6162:6163  k */\n      dup10\n        /* \"channel.sol\":6162:6165  k-1 */\n      tag_204\n      swap2\n      swap1\n      tag_149\n      jump\t// in\n    tag_204:\n        /* \"channel.sol\":6158:6159  j */\n      0x00\n        /* \"channel.sol\":6158:6165  j = k-1 */\n      dup2\n      swap1\n      sstore\n      pop\n        /* \"channel.sol\":6196:6202  hash_m */\n      dup3\n        /* \"channel.sol\":6180:6184  W_jm */\n      0x02\n        /* \"channel.sol\":6180:6203  W_jm = bytes32 (hash_m) */\n      dup2\n      swap1\n      sstore\n      pop\n        /* \"channel.sol\":6234:6240  hash_c */\n      dup2\n        /* \"channel.sol\":6218:6222  W_jc */\n      0x03\n        /* \"channel.sol\":6218:6241  W_jc = bytes32 (hash_c) */\n      dup2\n      swap1\n      sstore\n      pop\n        /* \"channel.sol\":5768:6253  {... */\n      pop\n      pop\n      pop\n        /* \"channel.sol\":5598:6253  if(k%2 == 0){... */\n    tag_182:\n        /* \"channel.sol\":6297:6339  0x0000000000000000000000000000000000000000 */\n      0x00\n        /* \"channel.sol\":6276:6339  newChannelAddress != 0x0000000000000000000000000000000000000000 */\n      0xffffffffffffffffffffffffffffffffffffffff\n      and\n        /* \"channel.sol\":6276:6293  newChannelAddress */\n      dup6\n        /* \"channel.sol\":6276:6339  newChannelAddress != 0x0000000000000000000000000000000000000000 */\n      0xffffffffffffffffffffffffffffffffffffffff\n      and\n      eq\n        /* \"channel.sol\":6273:6490  if(newChannelAddress != 0x0000000000000000000000000000000000000000){... */\n      tag_205\n      jumpi\n        /* \"channel.sol\":6363:6380  newChannelAddress */\n      dup5\n        /* \"channel.sol\":6355:6386  payable(newChannelAddress).call */\n      0xffffffffffffffffffffffffffffffffffffffff\n      and\n        /* \"channel.sol\":6402:6403  v */\n      sload(0x06)\n        /* \"channel.sol\":6394:6401  balance */\n      dup6\n        /* \"channel.sol\":6394:6403  balance*v */\n      tag_206\n      swap2\n      swap1\n      tag_106\n      jump\t// in\n    tag_206:\n        /* \"channel.sol\":6355:6408  payable(newChannelAddress).call{value: balance*v}(\"\") */\n      mload(0x40)\n      tag_207\n      swap1\n      tag_208\n      jump\t// in\n    tag_207:\n      0x00\n      mload(0x40)\n      dup1\n      dup4\n      sub\n      dup2\n      dup6\n      dup8\n      gas\n      call\n      swap3\n      pop\n      pop\n      pop\n      returndatasize\n      dup1\n      0x00\n      dup2\n      eq\n      tag_211\n      jumpi\n      mload(0x40)\n      swap2\n      pop\n      and(add(returndatasize, 0x3f), not(0x1f))\n      dup3\n      add\n      0x40\n      mstore\n      returndatasize\n      dup3\n      mstore\n      returndatasize\n      0x00\n      0x20\n      dup5\n      add\n      returndatacopy\n      jump(tag_210)\n    tag_211:\n      0x60\n      swap2\n      pop\n    tag_210:\n      pop\n      pop\n      pop\n        /* \"channel.sol\":6273:6490  if(newChannelAddress != 0x0000000000000000000000000000000000000000){... */\n      jump(tag_212)\n    tag_205:\n        /* \"channel.sol\":6447:6457  msg.sender */\n      caller\n        /* \"channel.sol\":6439:6467  payable(msg.sender).transfer */\n      0xffffffffffffffffffffffffffffffffffffffff\n      and\n        /* \"channel.sol\":6439:6478  payable(msg.sender).transfer(balance*v) */\n      0x08fc\n        /* \"channel.sol\":6476:6477  v */\n      sload(0x06)\n        /* \"channel.sol\":6468:6475  balance */\n      dup7\n        /* \"channel.sol\":6468:6477  balance*v */\n      tag_213\n      swap2\n      swap1\n      tag_106\n      jump\t// in\n    tag_213:\n        /* \"channel.sol\":6439:6478  payable(msg.sender).transfer(balance*v) */\n      swap1\n      dup2\n      iszero\n      mul\n      swap1\n      mload(0x40)\n      0x00\n      mload(0x40)\n      dup1\n      dup4\n      sub\n      dup2\n      dup6\n      dup9\n      dup9\n      call\n      swap4\n      pop\n      pop\n      pop\n      pop\n      iszero\n      dup1\n      iszero\n      tag_215\n      jumpi\n      returndatasize\n      0x00\n      dup1\n      returndatacopy\n      revert(0x00, returndatasize)\n    tag_215:\n      pop\n        /* \"channel.sol\":6273:6490  if(newChannelAddress != 0x0000000000000000000000000000000000000000){... */\n    tag_212:\n        /* \"channel.sol\":5044:6564  {... */\n      pop\n      pop\n      pop\n      pop\n        /* \"channel.sol\":4934:6564  function transferDeposit(bytes memory _W_km, bytes memory _W_kc, uint256 k, address newChannelAddress) public {... */\n      pop\n      pop\n      pop\n      pop\n      jump\t// out\n        /* \"channel.sol\":4145:4722  function setChannelParams(bytes32 _W_jm, bytes32 _W_jc, string memory _S_id, uint256 _c, uint256 _v, uint256 _T_exp, uint256 _TD, uint256 _TR) public onlyOwner {... */\n    tag_92:\n        /* \"channel.sol\":7267:7275  customer */\n      0x01\n      0x00\n      swap1\n      sload\n      swap1\n      0x0100\n      exp\n      swap1\n      div\n      0xffffffffffffffffffffffffffffffffffffffff\n      and\n        /* \"channel.sol\":7253:7275  msg.sender == customer */\n      0xffffffffffffffffffffffffffffffffffffffff\n      and\n        /* \"channel.sol\":7253:7263  msg.sender */\n      caller\n        /* \"channel.sol\":7253:7275  msg.sender == customer */\n      0xffffffffffffffffffffffffffffffffffffffff\n      and\n      eq\n        /* \"channel.sol\":7244:7337  require (msg.sender == customer, \"Only customer of the delivery can set the channel params.\") */\n      tag_217\n      jumpi\n      mload(0x40)\n      0x08c379a000000000000000000000000000000000000000000000000000000000\n      dup2\n      mstore\n      0x04\n      add\n      tag_218\n      swap1\n      tag_126\n      jump\t// in\n    tag_218:\n      mload(0x40)\n      dup1\n      swap2\n      sub\n      swap1\n      revert\n    tag_217:\n        /* \"channel.sol\":4354:4356  _v */\n      dup4\n        /* \"channel.sol\":4349:4351  _c */\n      dup6\n        /* \"channel.sol\":4349:4356  _c * _v */\n      tag_220\n      swap2\n      swap1\n      tag_106\n      jump\t// in\n    tag_220:\n        /* \"channel.sol\":4324:4345  address(this).balance */\n      selfbalance\n        /* \"channel.sol\":4324:4356  address(this).balance == _c * _v */\n      eq\n        /* \"channel.sol\":4316:4357  require(address(this).balance == _c * _v) */\n      tag_221\n      jumpi\n      0x00\n      dup1\n      revert\n    tag_221:\n        /* \"channel.sol\":4386:4387  0 */\n      0x00\n        /* \"channel.sol\":4377:4382  T_exp */\n      sload(0x07)\n        /* \"channel.sol\":4377:4387  T_exp == 0 */\n      eq\n        /* \"channel.sol\":4377:4398  T_exp == 0 && TD == 0 */\n      dup1\n      iszero\n      tag_222\n      jumpi\n      pop\n        /* \"channel.sol\":4397:4398  0 */\n      0x00\n        /* \"channel.sol\":4391:4393  TD */\n      sload(0x08)\n        /* \"channel.sol\":4391:4398  TD == 0 */\n      eq\n        /* \"channel.sol\":4377:4398  T_exp == 0 && TD == 0 */\n    tag_222:\n        /* \"channel.sol\":4377:4409  T_exp == 0 && TD == 0 && TR == 0 */\n      dup1\n      iszero\n      tag_223\n      jumpi\n      pop\n        /* \"channel.sol\":4408:4409  0 */\n      0x00\n        /* \"channel.sol\":4402:4404  TR */\n      sload(0x09)\n        /* \"channel.sol\":4402:4409  TR == 0 */\n      eq\n        /* \"channel.sol\":4377:4409  T_exp == 0 && TD == 0 && TR == 0 */\n    tag_223:\n        /* \"channel.sol\":4377:4443  T_exp == 0 && TD == 0 && TR == 0 && (T_exp + TD) < block.timestamp */\n      dup1\n      iszero\n      tag_224\n      jumpi\n      pop\n        /* \"channel.sol\":4428:4443  block.timestamp */\n      timestamp\n        /* \"channel.sol\":4422:4424  TD */\n      sload(0x08)\n        /* \"channel.sol\":4414:4419  T_exp */\n      sload(0x07)\n        /* \"channel.sol\":4414:4424  T_exp + TD */\n      tag_225\n      swap2\n      swap1\n      tag_114\n      jump\t// in\n    tag_225:\n        /* \"channel.sol\":4413:4443  (T_exp + TD) < block.timestamp */\n      lt\n        /* \"channel.sol\":4377:4443  T_exp == 0 && TD == 0 && TR == 0 && (T_exp + TD) < block.timestamp */\n    tag_224:\n        /* \"channel.sol\":4376:4521  (T_exp == 0 && TD == 0 && TR == 0 && (T_exp + TD) < block.timestamp) || ((T_exp + TD) < block.timestamp && (block.timestamp < (T_exp + TD + TR))) */\n      dup1\n      tag_226\n      jumpi\n      pop\n        /* \"channel.sol\":4464:4479  block.timestamp */\n      timestamp\n        /* \"channel.sol\":4458:4460  TD */\n      sload(0x08)\n        /* \"channel.sol\":4450:4455  T_exp */\n      sload(0x07)\n        /* \"channel.sol\":4450:4460  T_exp + TD */\n      tag_227\n      swap2\n      swap1\n      tag_114\n      jump\t// in\n    tag_227:\n        /* \"channel.sol\":4449:4479  (T_exp + TD) < block.timestamp */\n      lt\n        /* \"channel.sol\":4449:4520  (T_exp + TD) < block.timestamp && (block.timestamp < (T_exp + TD + TR)) */\n      dup1\n      iszero\n      tag_228\n      jumpi\n      pop\n        /* \"channel.sol\":4516:4518  TR */\n      sload(0x09)\n        /* \"channel.sol\":4511:4513  TD */\n      sload(0x08)\n        /* \"channel.sol\":4503:4508  T_exp */\n      sload(0x07)\n        /* \"channel.sol\":4503:4513  T_exp + TD */\n      tag_229\n      swap2\n      swap1\n      tag_114\n      jump\t// in\n    tag_229:\n        /* \"channel.sol\":4503:4518  T_exp + TD + TR */\n      tag_230\n      swap2\n      swap1\n      tag_114\n      jump\t// in\n    tag_230:\n        /* \"channel.sol\":4484:4499  block.timestamp */\n      timestamp\n        /* \"channel.sol\":4484:4519  block.timestamp < (T_exp + TD + TR) */\n      lt\n        /* \"channel.sol\":4449:4520  (T_exp + TD) < block.timestamp && (block.timestamp < (T_exp + TD + TR)) */\n    tag_228:\n        /* \"channel.sol\":4376:4521  (T_exp == 0 && TD == 0 && TR == 0 && (T_exp + TD) < block.timestamp) || ((T_exp + TD) < block.timestamp && (block.timestamp < (T_exp + TD + TR))) */\n    tag_226:\n        /* \"channel.sol\":4368:4522  require((T_exp == 0 && TD == 0 && TR == 0 && (T_exp + TD) < block.timestamp) || ((T_exp + TD) < block.timestamp && (block.timestamp < (T_exp + TD + TR)))) */\n      tag_231\n      jumpi\n      0x00\n      dup1\n      revert\n    tag_231:\n        /* \"channel.sol\":4537:4538  0 */\n      0x00\n        /* \"channel.sol\":4533:4534  j */\n      dup1\n        /* \"channel.sol\":4533:4538  j = 0 */\n      dup2\n      swap1\n      sstore\n      pop\n        /* \"channel.sol\":4566:4571  _W_jm */\n      dup8\n        /* \"channel.sol\":4559:4563  W_jm */\n      0x02\n        /* \"channel.sol\":4559:4571  W_jm = _W_jm */\n      dup2\n      swap1\n      sstore\n      pop\n        /* \"channel.sol\":4589:4594  _W_jc */\n      dup7\n        /* \"channel.sol\":4582:4586  W_jc */\n      0x03\n        /* \"channel.sol\":4582:4594  W_jc = _W_jc */\n      dup2\n      swap1\n      sstore\n      pop\n        /* \"channel.sol\":4612:4617  _S_id */\n      dup6\n        /* \"channel.sol\":4605:4609  S_id */\n      0x04\n        /* \"channel.sol\":4605:4617  S_id = _S_id */\n      swap1\n      dup1\n      mload\n      swap1\n      0x20\n      add\n      swap1\n      tag_232\n      swap3\n      swap2\n      swap1\n      tag_122\n      jump\t// in\n    tag_232:\n      pop\n        /* \"channel.sol\":4632:4634  _c */\n      dup5\n        /* \"channel.sol\":4628:4629  c */\n      0x05\n        /* \"channel.sol\":4628:4634  c = _c */\n      dup2\n      swap1\n      sstore\n      pop\n        /* \"channel.sol\":4649:4651  _v */\n      dup4\n        /* \"channel.sol\":4645:4646  v */\n      0x06\n        /* \"channel.sol\":4645:4651  v = _v */\n      dup2\n      swap1\n      sstore\n      pop\n        /* \"channel.sol\":4670:4676  _T_exp */\n      dup3\n        /* \"channel.sol\":4662:4667  T_exp */\n      0x07\n        /* \"channel.sol\":4662:4676  T_exp = _T_exp */\n      dup2\n      swap1\n      sstore\n      pop\n        /* \"channel.sol\":4692:4695  _TD */\n      dup2\n        /* \"channel.sol\":4687:4689  TD */\n      0x08\n        /* \"channel.sol\":4687:4695  TD = _TD */\n      dup2\n      swap1\n      sstore\n      pop\n        /* \"channel.sol\":4711:4714  _TR */\n      dup1\n        /* \"channel.sol\":4706:4708  TR */\n      0x09\n        /* \"channel.sol\":4706:4714  TR = _TR */\n      dup2\n      swap1\n      sstore\n      pop\n        /* \"channel.sol\":4145:4722  function setChannelParams(bytes32 _W_jm, bytes32 _W_jc, string memory _S_id, uint256 _c, uint256 _v, uint256 _T_exp, uint256 _TD, uint256 _TR) public onlyOwner {... */\n      pop\n      pop\n      pop\n      pop\n      pop\n      pop\n      pop\n      pop\n      jump\t// out\n        /* \"channel.sol\":2797:2817  uint256 public T_exp */\n    tag_95:\n      sload(0x07)\n      dup2\n      jump\t// out\n    tag_122:\n      dup3\n      dup1\n      sload\n      tag_233\n      swap1\n      tag_98\n      jump\t// in\n    tag_233:\n      swap1\n      0x00\n      mstore\n      keccak256(0x00, 0x20)\n      swap1\n      0x1f\n      add\n      0x20\n      swap1\n      div\n      dup2\n      add\n      swap3\n      dup3\n      tag_235\n      jumpi\n      0x00\n      dup6\n      sstore\n      jump(tag_234)\n    tag_235:\n      dup3\n      0x1f\n      lt\n      tag_236\n      jumpi\n      dup1\n      mload\n      not(0xff)\n      and\n      dup4\n      dup1\n      add\n      or\n      dup6\n      sstore\n      jump(tag_234)\n    tag_236:\n      dup3\n      dup1\n      add\n      0x01\n      add\n      dup6\n      sstore\n      dup3\n      iszero\n      tag_234\n      jumpi\n      swap2\n      dup3\n      add\n    tag_237:\n      dup3\n      dup2\n      gt\n      iszero\n      tag_238\n      jumpi\n      dup3\n      mload\n      dup3\n      sstore\n      swap2\n      0x20\n      add\n      swap2\n      swap1\n      0x01\n      add\n      swap1\n      jump(tag_237)\n    tag_238:\n    tag_234:\n      pop\n      swap1\n      pop\n      tag_239\n      swap2\n      swap1\n      tag_240\n      jump\t// in\n    tag_239:\n      pop\n      swap1\n      jump\t// out\n    tag_240:\n    tag_241:\n      dup1\n      dup3\n      gt\n      iszero\n      tag_242\n      jumpi\n      0x00\n      dup2\n      0x00\n      swap1\n      sstore\n      pop\n      0x01\n      add\n      jump(tag_241)\n    tag_242:\n      pop\n      swap1\n      jump\t// out\n        /* \"#utility.yul\":7:106   */\n    tag_243:\n        /* \"#utility.yul\":59:65   */\n      0x00\n        /* \"#utility.yul\":93:98   */\n      dup2\n        /* \"#utility.yul\":87:99   */\n      mload\n        /* \"#utility.yul\":77:99   */\n      swap1\n      pop\n        /* \"#utility.yul\":7:106   */\n      swap2\n      swap1\n      pop\n      jump\t// out\n        /* \"#utility.yul\":112:281   */\n    tag_244:\n        /* \"#utility.yul\":196:207   */\n      0x00\n        /* \"#utility.yul\":230:236   */\n      dup3\n        /* \"#utility.yul\":225:228   */\n      dup3\n        /* \"#utility.yul\":218:237   */\n      mstore\n        /* \"#utility.yul\":270:274   */\n      0x20\n        /* \"#utility.yul\":265:268   */\n      dup3\n        /* \"#utility.yul\":261:275   */\n      add\n        /* \"#utility.yul\":246:275   */\n      swap1\n      pop\n        /* \"#utility.yul\":112:281   */\n      swap3\n      swap2\n      pop\n      pop\n      jump\t// out\n        /* \"#utility.yul\":287:594   */\n    tag_245:\n        /* \"#utility.yul\":355:356   */\n      0x00\n        /* \"#utility.yul\":365:478   */\n    tag_308:\n        /* \"#utility.yul\":379:385   */\n      dup4\n        /* \"#utility.yul\":376:377   */\n      dup2\n        /* \"#utility.yul\":373:386   */\n      lt\n        /* \"#utility.yul\":365:478   */\n      iszero\n      tag_310\n      jumpi\n        /* \"#utility.yul\":464:465   */\n      dup1\n        /* \"#utility.yul\":459:462   */\n      dup3\n        /* \"#utility.yul\":455:466   */\n      add\n        /* \"#utility.yul\":449:467   */\n      mload\n        /* \"#utility.yul\":445:446   */\n      dup2\n        /* \"#utility.yul\":440:443   */\n      dup5\n        /* \"#utility.yul\":436:447   */\n      add\n        /* \"#utility.yul\":429:468   */\n      mstore\n        /* \"#utility.yul\":401:403   */\n      0x20\n        /* \"#utility.yul\":398:399   */\n      dup2\n        /* \"#utility.yul\":394:404   */\n      add\n        /* \"#utility.yul\":389:404   */\n      swap1\n      pop\n        /* \"#utility.yul\":365:478   */\n      jump(tag_308)\n    tag_310:\n        /* \"#utility.yul\":496:502   */\n      dup4\n        /* \"#utility.yul\":493:494   */\n      dup2\n        /* \"#utility.yul\":490:503   */\n      gt\n        /* \"#utility.yul\":487:588   */\n      iszero\n      tag_311\n      jumpi\n        /* \"#utility.yul\":576:577   */\n      0x00\n        /* \"#utility.yul\":567:573   */\n      dup5\n        /* \"#utility.yul\":562:565   */\n      dup5\n        /* \"#utility.yul\":558:574   */\n      add\n        /* \"#utility.yul\":551:578   */\n      mstore\n        /* \"#utility.yul\":487:588   */\n    tag_311:\n        /* \"#utility.yul\":336:594   */\n      pop\n        /* \"#utility.yul\":287:594   */\n      pop\n      pop\n      pop\n      jump\t// out\n        /* \"#utility.yul\":600:702   */\n    tag_246:\n        /* \"#utility.yul\":641:647   */\n      0x00\n        /* \"#utility.yul\":692:694   */\n      0x1f\n        /* \"#utility.yul\":688:695   */\n      not\n        /* \"#utility.yul\":683:685   */\n      0x1f\n        /* \"#utility.yul\":676:681   */\n      dup4\n        /* \"#utility.yul\":672:686   */\n      add\n        /* \"#utility.yul\":668:696   */\n      and\n        /* \"#utility.yul\":658:696   */\n      swap1\n      pop\n        /* \"#utility.yul\":600:702   */\n      swap2\n      swap1\n      pop\n      jump\t// out\n        /* \"#utility.yul\":708:1072   */\n    tag_247:\n        /* \"#utility.yul\":796:799   */\n      0x00\n        /* \"#utility.yul\":824:863   */\n      tag_314\n        /* \"#utility.yul\":857:862   */\n      dup3\n        /* \"#utility.yul\":824:863   */\n      tag_243\n      jump\t// in\n    tag_314:\n        /* \"#utility.yul\":879:950   */\n      tag_315\n        /* \"#utility.yul\":943:949   */\n      dup2\n        /* \"#utility.yul\":938:941   */\n      dup6\n        /* \"#utility.yul\":879:950   */\n      tag_244\n      jump\t// in\n    tag_315:\n        /* \"#utility.yul\":872:950   */\n      swap4\n      pop\n        /* \"#utility.yul\":959:1011   */\n      tag_316\n        /* \"#utility.yul\":1004:1010   */\n      dup2\n        /* \"#utility.yul\":999:1002   */\n      dup6\n        /* \"#utility.yul\":992:996   */\n      0x20\n        /* \"#utility.yul\":985:990   */\n      dup7\n        /* \"#utility.yul\":981:997   */\n      add\n        /* \"#utility.yul\":959:1011   */\n      tag_245\n      jump\t// in\n    tag_316:\n        /* \"#utility.yul\":1036:1065   */\n      tag_317\n        /* \"#utility.yul\":1058:1064   */\n      dup2\n        /* \"#utility.yul\":1036:1065   */\n      tag_246\n      jump\t// in\n    tag_317:\n        /* \"#utility.yul\":1031:1034   */\n      dup5\n        /* \"#utility.yul\":1027:1066   */\n      add\n        /* \"#utility.yul\":1020:1066   */\n      swap2\n      pop\n        /* \"#utility.yul\":800:1072   */\n      pop\n        /* \"#utility.yul\":708:1072   */\n      swap3\n      swap2\n      pop\n      pop\n      jump\t// out\n        /* \"#utility.yul\":1078:1391   */\n    tag_30:\n        /* \"#utility.yul\":1191:1195   */\n      0x00\n        /* \"#utility.yul\":1229:1231   */\n      0x20\n        /* \"#utility.yul\":1218:1227   */\n      dup3\n        /* \"#utility.yul\":1214:1232   */\n      add\n        /* \"#utility.yul\":1206:1232   */\n      swap1\n      pop\n        /* \"#utility.yul\":1278:1287   */\n      dup2\n        /* \"#utility.yul\":1272:1276   */\n      dup2\n        /* \"#utility.yul\":1268:1288   */\n      sub\n        /* \"#utility.yul\":1264:1265   */\n      0x00\n        /* \"#utility.yul\":1253:1262   */\n      dup4\n        /* \"#utility.yul\":1249:1266   */\n      add\n        /* \"#utility.yul\":1242:1289   */\n      mstore\n        /* \"#utility.yul\":1306:1384   */\n      tag_319\n        /* \"#utility.yul\":1379:1383   */\n      dup2\n        /* \"#utility.yul\":1370:1376   */\n      dup5\n        /* \"#utility.yul\":1306:1384   */\n      tag_247\n      jump\t// in\n    tag_319:\n        /* \"#utility.yul\":1298:1384   */\n      swap1\n      pop\n        /* \"#utility.yul\":1078:1391   */\n      swap3\n      swap2\n      pop\n      pop\n      jump\t// out\n        /* \"#utility.yul\":1397:1523   */\n    tag_248:\n        /* \"#utility.yul\":1434:1441   */\n      0x00\n        /* \"#utility.yul\":1474:1516   */\n      0xffffffffffffffffffffffffffffffffffffffff\n        /* \"#utility.yul\":1467:1472   */\n      dup3\n        /* \"#utility.yul\":1463:1517   */\n      and\n        /* \"#utility.yul\":1452:1517   */\n      swap1\n      pop\n        /* \"#utility.yul\":1397:1523   */\n      swap2\n      swap1\n      pop\n      jump\t// out\n        /* \"#utility.yul\":1529:1625   */\n    tag_249:\n        /* \"#utility.yul\":1566:1573   */\n      0x00\n        /* \"#utility.yul\":1595:1619   */\n      tag_322\n        /* \"#utility.yul\":1613:1618   */\n      dup3\n        /* \"#utility.yul\":1595:1619   */\n      tag_248\n      jump\t// in\n    tag_322:\n        /* \"#utility.yul\":1584:1619   */\n      swap1\n      pop\n        /* \"#utility.yul\":1529:1625   */\n      swap2\n      swap1\n      pop\n      jump\t// out\n        /* \"#utility.yul\":1631:1749   */\n    tag_250:\n        /* \"#utility.yul\":1718:1742   */\n      tag_324\n        /* \"#utility.yul\":1736:1741   */\n      dup2\n        /* \"#utility.yul\":1718:1742   */\n      tag_249\n      jump\t// in\n    tag_324:\n        /* \"#utility.yul\":1713:1716   */\n      dup3\n        /* \"#utility.yul\":1706:1743   */\n      mstore\n        /* \"#utility.yul\":1631:1749   */\n      pop\n      pop\n      jump\t// out\n        /* \"#utility.yul\":1755:1977   */\n    tag_35:\n        /* \"#utility.yul\":1848:1852   */\n      0x00\n        /* \"#utility.yul\":1886:1888   */\n      0x20\n        /* \"#utility.yul\":1875:1884   */\n      dup3\n        /* \"#utility.yul\":1871:1889   */\n      add\n        /* \"#utility.yul\":1863:1889   */\n      swap1\n      pop\n        /* \"#utility.yul\":1899:1970   */\n      tag_326\n        /* \"#utility.yul\":1967:1968   */\n      0x00\n        /* \"#utility.yul\":1956:1965   */\n      dup4\n        /* \"#utility.yul\":1952:1969   */\n      add\n        /* \"#utility.yul\":1943:1949   */\n      dup5\n        /* \"#utility.yul\":1899:1970   */\n      tag_250\n      jump\t// in\n    tag_326:\n        /* \"#utility.yul\":1755:1977   */\n      swap3\n      swap2\n      pop\n      pop\n      jump\t// out\n        /* \"#utility.yul\":1983:2060   */\n    tag_251:\n        /* \"#utility.yul\":2020:2027   */\n      0x00\n        /* \"#utility.yul\":2049:2054   */\n      dup2\n        /* \"#utility.yul\":2038:2054   */\n      swap1\n      pop\n        /* \"#utility.yul\":1983:2060   */\n      swap2\n      swap1\n      pop\n      jump\t// out\n        /* \"#utility.yul\":2066:2184   */\n    tag_252:\n        /* \"#utility.yul\":2153:2177   */\n      tag_329\n        /* \"#utility.yul\":2171:2176   */\n      dup2\n        /* \"#utility.yul\":2153:2177   */\n      tag_251\n      jump\t// in\n    tag_329:\n        /* \"#utility.yul\":2148:2151   */\n      dup3\n        /* \"#utility.yul\":2141:2178   */\n      mstore\n        /* \"#utility.yul\":2066:2184   */\n      pop\n      pop\n      jump\t// out\n        /* \"#utility.yul\":2190:2412   */\n    tag_40:\n        /* \"#utility.yul\":2283:2287   */\n      0x00\n        /* \"#utility.yul\":2321:2323   */\n      0x20\n        /* \"#utility.yul\":2310:2319   */\n      dup3\n        /* \"#utility.yul\":2306:2324   */\n      add\n        /* \"#utility.yul\":2298:2324   */\n      swap1\n      pop\n        /* \"#utility.yul\":2334:2405   */\n      tag_331\n        /* \"#utility.yul\":2402:2403   */\n      0x00\n        /* \"#utility.yul\":2391:2400   */\n      dup4\n        /* \"#utility.yul\":2387:2404   */\n      add\n        /* \"#utility.yul\":2378:2384   */\n      dup5\n        /* \"#utility.yul\":2334:2405   */\n      tag_252\n      jump\t// in\n    tag_331:\n        /* \"#utility.yul\":2190:2412   */\n      swap3\n      swap2\n      pop\n      pop\n      jump\t// out\n        /* \"#utility.yul\":2418:2493   */\n    tag_253:\n        /* \"#utility.yul\":2451:2457   */\n      0x00\n        /* \"#utility.yul\":2484:2486   */\n      0x40\n        /* \"#utility.yul\":2478:2487   */\n      mload\n        /* \"#utility.yul\":2468:2487   */\n      swap1\n      pop\n        /* \"#utility.yul\":2418:2493   */\n      swap1\n      jump\t// out\n        /* \"#utility.yul\":2499:2616   */\n    tag_254:\n        /* \"#utility.yul\":2608:2609   */\n      0x00\n        /* \"#utility.yul\":2605:2606   */\n      dup1\n        /* \"#utility.yul\":2598:2610   */\n      revert\n        /* \"#utility.yul\":2622:2739   */\n    tag_255:\n        /* \"#utility.yul\":2731:2732   */\n      0x00\n        /* \"#utility.yul\":2728:2729   */\n      dup1\n        /* \"#utility.yul\":2721:2733   */\n      revert\n        /* \"#utility.yul\":2745:2867   */\n    tag_256:\n        /* \"#utility.yul\":2818:2842   */\n      tag_336\n        /* \"#utility.yul\":2836:2841   */\n      dup2\n        /* \"#utility.yul\":2818:2842   */\n      tag_251\n      jump\t// in\n    tag_336:\n        /* \"#utility.yul\":2811:2816   */\n      dup2\n        /* \"#utility.yul\":2808:2843   */\n      eq\n        /* \"#utility.yul\":2798:2861   */\n      tag_337\n      jumpi\n        /* \"#utility.yul\":2857:2858   */\n      0x00\n        /* \"#utility.yul\":2854:2855   */\n      dup1\n        /* \"#utility.yul\":2847:2859   */\n      revert\n        /* \"#utility.yul\":2798:2861   */\n    tag_337:\n        /* \"#utility.yul\":2745:2867   */\n      pop\n      jump\t// out\n        /* \"#utility.yul\":2873:3012   */\n    tag_257:\n        /* \"#utility.yul\":2919:2924   */\n      0x00\n        /* \"#utility.yul\":2957:2963   */\n      dup2\n        /* \"#utility.yul\":2944:2964   */\n      calldataload\n        /* \"#utility.yul\":2935:2964   */\n      swap1\n      pop\n        /* \"#utility.yul\":2973:3006   */\n      tag_339\n        /* \"#utility.yul\":3000:3005   */\n      dup2\n        /* \"#utility.yul\":2973:3006   */\n      tag_256\n      jump\t// in\n    tag_339:\n        /* \"#utility.yul\":2873:3012   */\n      swap3\n      swap2\n      pop\n      pop\n      jump\t// out\n        /* \"#utility.yul\":3018:3140   */\n    tag_258:\n        /* \"#utility.yul\":3091:3115   */\n      tag_341\n        /* \"#utility.yul\":3109:3114   */\n      dup2\n        /* \"#utility.yul\":3091:3115   */\n      tag_249\n      jump\t// in\n    tag_341:\n        /* \"#utility.yul\":3084:3089   */\n      dup2\n        /* \"#utility.yul\":3081:3116   */\n      eq\n        /* \"#utility.yul\":3071:3134   */\n      tag_342\n      jumpi\n        /* \"#utility.yul\":3130:3131   */\n      0x00\n        /* \"#utility.yul\":3127:3128   */\n      dup1\n        /* \"#utility.yul\":3120:3132   */\n      revert\n        /* \"#utility.yul\":3071:3134   */\n    tag_342:\n        /* \"#utility.yul\":3018:3140   */\n      pop\n      jump\t// out\n        /* \"#utility.yul\":3146:3285   */\n    tag_259:\n        /* \"#utility.yul\":3192:3197   */\n      0x00\n        /* \"#utility.yul\":3230:3236   */\n      dup2\n        /* \"#utility.yul\":3217:3237   */\n      calldataload\n        /* \"#utility.yul\":3208:3237   */\n      swap1\n      pop\n        /* \"#utility.yul\":3246:3279   */\n      tag_344\n        /* \"#utility.yul\":3273:3278   */\n      dup2\n        /* \"#utility.yul\":3246:3279   */\n      tag_258\n      jump\t// in\n    tag_344:\n        /* \"#utility.yul\":3146:3285   */\n      swap3\n      swap2\n      pop\n      pop\n      jump\t// out\n        /* \"#utility.yul\":3291:3368   */\n    tag_260:\n        /* \"#utility.yul\":3328:3335   */\n      0x00\n        /* \"#utility.yul\":3357:3362   */\n      dup2\n        /* \"#utility.yul\":3346:3362   */\n      swap1\n      pop\n        /* \"#utility.yul\":3291:3368   */\n      swap2\n      swap1\n      pop\n      jump\t// out\n        /* \"#utility.yul\":3374:3496   */\n    tag_261:\n        /* \"#utility.yul\":3447:3471   */\n      tag_347\n        /* \"#utility.yul\":3465:3470   */\n      dup2\n        /* \"#utility.yul\":3447:3471   */\n      tag_260\n      jump\t// in\n    tag_347:\n        /* \"#utility.yul\":3440:3445   */\n      dup2\n        /* \"#utility.yul\":3437:3472   */\n      eq\n        /* \"#utility.yul\":3427:3490   */\n      tag_348\n      jumpi\n        /* \"#utility.yul\":3486:3487   */\n      0x00\n        /* \"#utility.yul\":3483:3484   */\n      dup1\n        /* \"#utility.yul\":3476:3488   */\n      revert\n        /* \"#utility.yul\":3427:3490   */\n    tag_348:\n        /* \"#utility.yul\":3374:3496   */\n      pop\n      jump\t// out\n        /* \"#utility.yul\":3502:3641   */\n    tag_262:\n        /* \"#utility.yul\":3548:3553   */\n      0x00\n        /* \"#utility.yul\":3586:3592   */\n      dup2\n        /* \"#utility.yul\":3573:3593   */\n      calldataload\n        /* \"#utility.yul\":3564:3593   */\n      swap1\n      pop\n        /* \"#utility.yul\":3602:3635   */\n      tag_350\n        /* \"#utility.yul\":3629:3634   */\n      dup2\n        /* \"#utility.yul\":3602:3635   */\n      tag_261\n      jump\t// in\n    tag_350:\n        /* \"#utility.yul\":3502:3641   */\n      swap3\n      swap2\n      pop\n      pop\n      jump\t// out\n        /* \"#utility.yul\":3647:3764   */\n    tag_263:\n        /* \"#utility.yul\":3756:3757   */\n      0x00\n        /* \"#utility.yul\":3753:3754   */\n      dup1\n        /* \"#utility.yul\":3746:3758   */\n      revert\n        /* \"#utility.yul\":3770:3887   */\n    tag_264:\n        /* \"#utility.yul\":3879:3880   */\n      0x00\n        /* \"#utility.yul\":3876:3877   */\n      dup1\n        /* \"#utility.yul\":3869:3881   */\n      revert\n        /* \"#utility.yul\":3893:4073   */\n    tag_265:\n        /* \"#utility.yul\":3941:4018   */\n      0x4e487b7100000000000000000000000000000000000000000000000000000000\n        /* \"#utility.yul\":3938:3939   */\n      0x00\n        /* \"#utility.yul\":3931:4019   */\n      mstore\n        /* \"#utility.yul\":4038:4042   */\n      0x41\n        /* \"#utility.yul\":4035:4036   */\n      0x04\n        /* \"#utility.yul\":4028:4043   */\n      mstore\n        /* \"#utility.yul\":4062:4066   */\n      0x24\n        /* \"#utility.yul\":4059:4060   */\n      0x00\n        /* \"#utility.yul\":4052:4067   */\n      revert\n        /* \"#utility.yul\":4079:4360   */\n    tag_266:\n        /* \"#utility.yul\":4162:4189   */\n      tag_355\n        /* \"#utility.yul\":4184:4188   */\n      dup3\n        /* \"#utility.yul\":4162:4189   */\n      tag_246\n      jump\t// in\n    tag_355:\n        /* \"#utility.yul\":4154:4160   */\n      dup2\n        /* \"#utility.yul\":4150:4190   */\n      add\n        /* \"#utility.yul\":4292:4298   */\n      dup2\n        /* \"#utility.yul\":4280:4290   */\n      dup2\n        /* \"#utility.yul\":4277:4299   */\n      lt\n        /* \"#utility.yul\":4256:4274   */\n      0xffffffffffffffff\n        /* \"#utility.yul\":4244:4254   */\n      dup3\n        /* \"#utility.yul\":4241:4275   */\n      gt\n        /* \"#utility.yul\":4238:4300   */\n      or\n        /* \"#utility.yul\":4235:4323   */\n      iszero\n      tag_356\n      jumpi\n        /* \"#utility.yul\":4303:4321   */\n      tag_357\n      tag_265\n      jump\t// in\n    tag_357:\n        /* \"#utility.yul\":4235:4323   */\n    tag_356:\n        /* \"#utility.yul\":4343:4353   */\n      dup1\n        /* \"#utility.yul\":4339:4341   */\n      0x40\n        /* \"#utility.yul\":4332:4354   */\n      mstore\n        /* \"#utility.yul\":4122:4360   */\n      pop\n        /* \"#utility.yul\":4079:4360   */\n      pop\n      pop\n      jump\t// out\n        /* \"#utility.yul\":4366:4495   */\n    tag_267:\n        /* \"#utility.yul\":4400:4406   */\n      0x00\n        /* \"#utility.yul\":4427:4447   */\n      tag_359\n      tag_253\n      jump\t// in\n    tag_359:\n        /* \"#utility.yul\":4417:4447   */\n      swap1\n      pop\n        /* \"#utility.yul\":4456:4489   */\n      tag_360\n        /* \"#utility.yul\":4484:4488   */\n      dup3\n        /* \"#utility.yul\":4476:4482   */\n      dup3\n        /* \"#utility.yul\":4456:4489   */\n      tag_266\n      jump\t// in\n    tag_360:\n        /* \"#utility.yul\":4366:4495   */\n      swap2\n      swap1\n      pop\n      jump\t// out\n        /* \"#utility.yul\":4501:4809   */\n    tag_268:\n        /* \"#utility.yul\":4563:4567   */\n      0x00\n        /* \"#utility.yul\":4653:4671   */\n      0xffffffffffffffff\n        /* \"#utility.yul\":4645:4651   */\n      dup3\n        /* \"#utility.yul\":4642:4672   */\n      gt\n        /* \"#utility.yul\":4639:4695   */\n      iszero\n      tag_362\n      jumpi\n        /* \"#utility.yul\":4675:4693   */\n      tag_363\n      tag_265\n      jump\t// in\n    tag_363:\n        /* \"#utility.yul\":4639:4695   */\n    tag_362:\n        /* \"#utility.yul\":4713:4742   */\n      tag_364\n        /* \"#utility.yul\":4735:4741   */\n      dup3\n        /* \"#utility.yul\":4713:4742   */\n      tag_246\n      jump\t// in\n    tag_364:\n        /* \"#utility.yul\":4705:4742   */\n      swap1\n      pop\n        /* \"#utility.yul\":4797:4801   */\n      0x20\n        /* \"#utility.yul\":4791:4795   */\n      dup2\n        /* \"#utility.yul\":4787:4802   */\n      add\n        /* \"#utility.yul\":4779:4802   */\n      swap1\n      pop\n        /* \"#utility.yul\":4501:4809   */\n      swap2\n      swap1\n      pop\n      jump\t// out\n        /* \"#utility.yul\":4815:4969   */\n    tag_269:\n        /* \"#utility.yul\":4899:4905   */\n      dup3\n        /* \"#utility.yul\":4894:4897   */\n      dup2\n        /* \"#utility.yul\":4889:4892   */\n      dup4\n        /* \"#utility.yul\":4876:4906   */\n      calldatacopy\n        /* \"#utility.yul\":4961:4962   */\n      0x00\n        /* \"#utility.yul\":4952:4958   */\n      dup4\n        /* \"#utility.yul\":4947:4950   */\n      dup4\n        /* \"#utility.yul\":4943:4959   */\n      add\n        /* \"#utility.yul\":4936:4963   */\n      mstore\n        /* \"#utility.yul\":4815:4969   */\n      pop\n      pop\n      pop\n      jump\t// out\n        /* \"#utility.yul\":4975:5387   */\n    tag_270:\n        /* \"#utility.yul\":5053:5058   */\n      0x00\n        /* \"#utility.yul\":5078:5144   */\n      tag_367\n        /* \"#utility.yul\":5094:5143   */\n      tag_368\n        /* \"#utility.yul\":5136:5142   */\n      dup5\n        /* \"#utility.yul\":5094:5143   */\n      tag_268\n      jump\t// in\n    tag_368:\n        /* \"#utility.yul\":5078:5144   */\n      tag_267\n      jump\t// in\n    tag_367:\n        /* \"#utility.yul\":5069:5144   */\n      swap1\n      pop\n        /* \"#utility.yul\":5167:5173   */\n      dup3\n        /* \"#utility.yul\":5160:5165   */\n      dup2\n        /* \"#utility.yul\":5153:5174   */\n      mstore\n        /* \"#utility.yul\":5205:5209   */\n      0x20\n        /* \"#utility.yul\":5198:5203   */\n      dup2\n        /* \"#utility.yul\":5194:5210   */\n      add\n        /* \"#utility.yul\":5243:5246   */\n      dup5\n        /* \"#utility.yul\":5234:5240   */\n      dup5\n        /* \"#utility.yul\":5229:5232   */\n      dup5\n        /* \"#utility.yul\":5225:5241   */\n      add\n        /* \"#utility.yul\":5222:5247   */\n      gt\n        /* \"#utility.yul\":5219:5331   */\n      iszero\n      tag_369\n      jumpi\n        /* \"#utility.yul\":5250:5329   */\n      tag_370\n      tag_264\n      jump\t// in\n    tag_370:\n        /* \"#utility.yul\":5219:5331   */\n    tag_369:\n        /* \"#utility.yul\":5340:5381   */\n      tag_371\n        /* \"#utility.yul\":5374:5380   */\n      dup5\n        /* \"#utility.yul\":5369:5372   */\n      dup3\n        /* \"#utility.yul\":5364:5367   */\n      dup6\n        /* \"#utility.yul\":5340:5381   */\n      tag_269\n      jump\t// in\n    tag_371:\n        /* \"#utility.yul\":5059:5387   */\n      pop\n        /* \"#utility.yul\":4975:5387   */\n      swap4\n      swap3\n      pop\n      pop\n      pop\n      jump\t// out\n        /* \"#utility.yul\":5407:5747   */\n    tag_271:\n        /* \"#utility.yul\":5463:5468   */\n      0x00\n        /* \"#utility.yul\":5512:5515   */\n      dup3\n        /* \"#utility.yul\":5505:5509   */\n      0x1f\n        /* \"#utility.yul\":5497:5503   */\n      dup4\n        /* \"#utility.yul\":5493:5510   */\n      add\n        /* \"#utility.yul\":5489:5516   */\n      slt\n        /* \"#utility.yul\":5479:5601   */\n      tag_373\n      jumpi\n        /* \"#utility.yul\":5520:5599   */\n      tag_374\n      tag_263\n      jump\t// in\n    tag_374:\n        /* \"#utility.yul\":5479:5601   */\n    tag_373:\n        /* \"#utility.yul\":5637:5643   */\n      dup2\n        /* \"#utility.yul\":5624:5644   */\n      calldataload\n        /* \"#utility.yul\":5662:5741   */\n      tag_375\n        /* \"#utility.yul\":5737:5740   */\n      dup5\n        /* \"#utility.yul\":5729:5735   */\n      dup3\n        /* \"#utility.yul\":5722:5726   */\n      0x20\n        /* \"#utility.yul\":5714:5720   */\n      dup7\n        /* \"#utility.yul\":5710:5727   */\n      add\n        /* \"#utility.yul\":5662:5741   */\n      tag_270\n      jump\t// in\n    tag_375:\n        /* \"#utility.yul\":5653:5741   */\n      swap2\n      pop\n        /* \"#utility.yul\":5469:5747   */\n      pop\n        /* \"#utility.yul\":5407:5747   */\n      swap3\n      swap2\n      pop\n      pop\n      jump\t// out\n        /* \"#utility.yul\":5753:7428   */\n    tag_43:\n        /* \"#utility.yul\":5894:5900   */\n      0x00\n        /* \"#utility.yul\":5902:5908   */\n      dup1\n        /* \"#utility.yul\":5910:5916   */\n      0x00\n        /* \"#utility.yul\":5918:5924   */\n      dup1\n        /* \"#utility.yul\":5926:5932   */\n      0x00\n        /* \"#utility.yul\":5934:5940   */\n      dup1\n        /* \"#utility.yul\":5942:5948   */\n      0x00\n        /* \"#utility.yul\":5950:5956   */\n      dup1\n        /* \"#utility.yul\":5958:5964   */\n      0x00\n        /* \"#utility.yul\":6007:6010   */\n      0x0120\n        /* \"#utility.yul\":5995:6004   */\n      dup11\n        /* \"#utility.yul\":5986:5993   */\n      dup13\n        /* \"#utility.yul\":5982:6005   */\n      sub\n        /* \"#utility.yul\":5978:6011   */\n      slt\n        /* \"#utility.yul\":5975:6095   */\n      iszero\n      tag_377\n      jumpi\n        /* \"#utility.yul\":6014:6093   */\n      tag_378\n      tag_254\n      jump\t// in\n    tag_378:\n        /* \"#utility.yul\":5975:6095   */\n    tag_377:\n        /* \"#utility.yul\":6134:6135   */\n      0x00\n        /* \"#utility.yul\":6159:6212   */\n      tag_379\n        /* \"#utility.yul\":6204:6211   */\n      dup13\n        /* \"#utility.yul\":6195:6201   */\n      dup3\n        /* \"#utility.yul\":6184:6193   */\n      dup14\n        /* \"#utility.yul\":6180:6202   */\n      add\n        /* \"#utility.yul\":6159:6212   */\n      tag_257\n      jump\t// in\n    tag_379:\n        /* \"#utility.yul\":6149:6212   */\n      swap10\n      pop\n        /* \"#utility.yul\":6105:6222   */\n      pop\n        /* \"#utility.yul\":6261:6263   */\n      0x20\n        /* \"#utility.yul\":6287:6340   */\n      tag_380\n        /* \"#utility.yul\":6332:6339   */\n      dup13\n        /* \"#utility.yul\":6323:6329   */\n      dup3\n        /* \"#utility.yul\":6312:6321   */\n      dup14\n        /* \"#utility.yul\":6308:6330   */\n      add\n        /* \"#utility.yul\":6287:6340   */\n      tag_257\n      jump\t// in\n    tag_380:\n        /* \"#utility.yul\":6277:6340   */\n      swap9\n      pop\n        /* \"#utility.yul\":6232:6350   */\n      pop\n        /* \"#utility.yul\":6389:6391   */\n      0x40\n        /* \"#utility.yul\":6415:6468   */\n      tag_381\n        /* \"#utility.yul\":6460:6467   */\n      dup13\n        /* \"#utility.yul\":6451:6457   */\n      dup3\n        /* \"#utility.yul\":6440:6449   */\n      dup14\n        /* \"#utility.yul\":6436:6458   */\n      add\n        /* \"#utility.yul\":6415:6468   */\n      tag_259\n      jump\t// in\n    tag_381:\n        /* \"#utility.yul\":6405:6468   */\n      swap8\n      pop\n        /* \"#utility.yul\":6360:6478   */\n      pop\n        /* \"#utility.yul\":6517:6519   */\n      0x60\n        /* \"#utility.yul\":6543:6596   */\n      tag_382\n        /* \"#utility.yul\":6588:6595   */\n      dup13\n        /* \"#utility.yul\":6579:6585   */\n      dup3\n        /* \"#utility.yul\":6568:6577   */\n      dup14\n        /* \"#utility.yul\":6564:6586   */\n      add\n        /* \"#utility.yul\":6543:6596   */\n      tag_262\n      jump\t// in\n    tag_382:\n        /* \"#utility.yul\":6533:6596   */\n      swap7\n      pop\n        /* \"#utility.yul\":6488:6606   */\n      pop\n        /* \"#utility.yul\":6645:6648   */\n      0x80\n        /* \"#utility.yul\":6672:6725   */\n      tag_383\n        /* \"#utility.yul\":6717:6724   */\n      dup13\n        /* \"#utility.yul\":6708:6714   */\n      dup3\n        /* \"#utility.yul\":6697:6706   */\n      dup14\n        /* \"#utility.yul\":6693:6715   */\n      add\n        /* \"#utility.yul\":6672:6725   */\n      tag_262\n      jump\t// in\n    tag_383:\n        /* \"#utility.yul\":6662:6725   */\n      swap6\n      pop\n        /* \"#utility.yul\":6616:6735   */\n      pop\n        /* \"#utility.yul\":6802:6805   */\n      0xa0\n        /* \"#utility.yul\":6791:6800   */\n      dup11\n        /* \"#utility.yul\":6787:6806   */\n      add\n        /* \"#utility.yul\":6774:6807   */\n      calldataload\n        /* \"#utility.yul\":6834:6852   */\n      0xffffffffffffffff\n        /* \"#utility.yul\":6826:6832   */\n      dup2\n        /* \"#utility.yul\":6823:6853   */\n      gt\n        /* \"#utility.yul\":6820:6937   */\n      iszero\n      tag_384\n      jumpi\n        /* \"#utility.yul\":6856:6935   */\n      tag_385\n      tag_255\n      jump\t// in\n    tag_385:\n        /* \"#utility.yul\":6820:6937   */\n    tag_384:\n        /* \"#utility.yul\":6961:7024   */\n      tag_386\n        /* \"#utility.yul\":7016:7023   */\n      dup13\n        /* \"#utility.yul\":7007:7013   */\n      dup3\n        /* \"#utility.yul\":6996:7005   */\n      dup14\n        /* \"#utility.yul\":6992:7014   */\n      add\n        /* \"#utility.yul\":6961:7024   */\n      tag_271\n      jump\t// in\n    tag_386:\n        /* \"#utility.yul\":6951:7024   */\n      swap5\n      pop\n        /* \"#utility.yul\":6745:7034   */\n      pop\n        /* \"#utility.yul\":7073:7076   */\n      0xc0\n        /* \"#utility.yul\":7100:7153   */\n      tag_387\n        /* \"#utility.yul\":7145:7152   */\n      dup13\n        /* \"#utility.yul\":7136:7142   */\n      dup3\n        /* \"#utility.yul\":7125:7134   */\n      dup14\n        /* \"#utility.yul\":7121:7143   */\n      add\n        /* \"#utility.yul\":7100:7153   */\n      tag_257\n      jump\t// in\n    tag_387:\n        /* \"#utility.yul\":7090:7153   */\n      swap4\n      pop\n        /* \"#utility.yul\":7044:7163   */\n      pop\n        /* \"#utility.yul\":7202:7205   */\n      0xe0\n        /* \"#utility.yul\":7229:7282   */\n      tag_388\n        /* \"#utility.yul\":7274:7281   */\n      dup13\n        /* \"#utility.yul\":7265:7271   */\n      dup3\n        /* \"#utility.yul\":7254:7263   */\n      dup14\n        /* \"#utility.yul\":7250:7272   */\n      add\n        /* \"#utility.yul\":7229:7282   */\n      tag_257\n      jump\t// in\n    tag_388:\n        /* \"#utility.yul\":7219:7282   */\n      swap3\n      pop\n        /* \"#utility.yul\":7173:7292   */\n      pop\n        /* \"#utility.yul\":7331:7334   */\n      0x0100\n        /* \"#utility.yul\":7358:7411   */\n      tag_389\n        /* \"#utility.yul\":7403:7410   */\n      dup13\n        /* \"#utility.yul\":7394:7400   */\n      dup3\n        /* \"#utility.yul\":7383:7392   */\n      dup14\n        /* \"#utility.yul\":7379:7401   */\n      add\n        /* \"#utility.yul\":7358:7411   */\n      tag_257\n      jump\t// in\n    tag_389:\n        /* \"#utility.yul\":7348:7411   */\n      swap2\n      pop\n        /* \"#utility.yul\":7302:7421   */\n      pop\n        /* \"#utility.yul\":5753:7428   */\n      swap3\n      swap6\n      swap9\n      pop\n      swap3\n      swap6\n      swap9\n      pop\n      swap3\n      swap6\n      swap9\n      jump\t// out\n        /* \"#utility.yul\":7434:7552   */\n    tag_272:\n        /* \"#utility.yul\":7521:7545   */\n      tag_391\n        /* \"#utility.yul\":7539:7544   */\n      dup2\n        /* \"#utility.yul\":7521:7545   */\n      tag_260\n      jump\t// in\n    tag_391:\n        /* \"#utility.yul\":7516:7519   */\n      dup3\n        /* \"#utility.yul\":7509:7546   */\n      mstore\n        /* \"#utility.yul\":7434:7552   */\n      pop\n      pop\n      jump\t// out\n        /* \"#utility.yul\":7558:7780   */\n    tag_49:\n        /* \"#utility.yul\":7651:7655   */\n      0x00\n        /* \"#utility.yul\":7689:7691   */\n      0x20\n        /* \"#utility.yul\":7678:7687   */\n      dup3\n        /* \"#utility.yul\":7674:7692   */\n      add\n        /* \"#utility.yul\":7666:7692   */\n      swap1\n      pop\n        /* \"#utility.yul\":7702:7773   */\n      tag_393\n        /* \"#utility.yul\":7770:7771   */\n      0x00\n        /* \"#utility.yul\":7759:7768   */\n      dup4\n        /* \"#utility.yul\":7755:7772   */\n      add\n        /* \"#utility.yul\":7746:7752   */\n      dup5\n        /* \"#utility.yul\":7702:7773   */\n      tag_272\n      jump\t// in\n    tag_393:\n        /* \"#utility.yul\":7558:7780   */\n      swap3\n      swap2\n      pop\n      pop\n      jump\t// out\n        /* \"#utility.yul\":7786:8115   */\n    tag_52:\n        /* \"#utility.yul\":7845:7851   */\n      0x00\n        /* \"#utility.yul\":7894:7896   */\n      0x20\n        /* \"#utility.yul\":7882:7891   */\n      dup3\n        /* \"#utility.yul\":7873:7880   */\n      dup5\n        /* \"#utility.yul\":7869:7892   */\n      sub\n        /* \"#utility.yul\":7865:7897   */\n      slt\n        /* \"#utility.yul\":7862:7981   */\n      iszero\n      tag_395\n      jumpi\n        /* \"#utility.yul\":7900:7979   */\n      tag_396\n      tag_254\n      jump\t// in\n    tag_396:\n        /* \"#utility.yul\":7862:7981   */\n    tag_395:\n        /* \"#utility.yul\":8020:8021   */\n      0x00\n        /* \"#utility.yul\":8045:8098   */\n      tag_397\n        /* \"#utility.yul\":8090:8097   */\n      dup5\n        /* \"#utility.yul\":8081:8087   */\n      dup3\n        /* \"#utility.yul\":8070:8079   */\n      dup6\n        /* \"#utility.yul\":8066:8088   */\n      add\n        /* \"#utility.yul\":8045:8098   */\n      tag_259\n      jump\t// in\n    tag_397:\n        /* \"#utility.yul\":8035:8098   */\n      swap2\n      pop\n        /* \"#utility.yul\":7991:8108   */\n      pop\n        /* \"#utility.yul\":7786:8115   */\n      swap3\n      swap2\n      pop\n      pop\n      jump\t// out\n        /* \"#utility.yul\":8121:8211   */\n    tag_273:\n        /* \"#utility.yul\":8155:8162   */\n      0x00\n        /* \"#utility.yul\":8198:8203   */\n      dup2\n        /* \"#utility.yul\":8191:8204   */\n      iszero\n        /* \"#utility.yul\":8184:8205   */\n      iszero\n        /* \"#utility.yul\":8173:8205   */\n      swap1\n      pop\n        /* \"#utility.yul\":8121:8211   */\n      swap2\n      swap1\n      pop\n      jump\t// out\n        /* \"#utility.yul\":8217:8326   */\n    tag_274:\n        /* \"#utility.yul\":8298:8319   */\n      tag_400\n        /* \"#utility.yul\":8313:8318   */\n      dup2\n        /* \"#utility.yul\":8298:8319   */\n      tag_273\n      jump\t// in\n    tag_400:\n        /* \"#utility.yul\":8293:8296   */\n      dup3\n        /* \"#utility.yul\":8286:8320   */\n      mstore\n        /* \"#utility.yul\":8217:8326   */\n      pop\n      pop\n      jump\t// out\n        /* \"#utility.yul\":8332:8542   */\n    tag_62:\n        /* \"#utility.yul\":8419:8423   */\n      0x00\n        /* \"#utility.yul\":8457:8459   */\n      0x20\n        /* \"#utility.yul\":8446:8455   */\n      dup3\n        /* \"#utility.yul\":8442:8460   */\n      add\n        /* \"#utility.yul\":8434:8460   */\n      swap1\n      pop\n        /* \"#utility.yul\":8470:8535   */\n      tag_402\n        /* \"#utility.yul\":8532:8533   */\n      0x00\n        /* \"#utility.yul\":8521:8530   */\n      dup4\n        /* \"#utility.yul\":8517:8534   */\n      add\n        /* \"#utility.yul\":8508:8514   */\n      dup5\n        /* \"#utility.yul\":8470:8535   */\n      tag_274\n      jump\t// in\n    tag_402:\n        /* \"#utility.yul\":8332:8542   */\n      swap3\n      swap2\n      pop\n      pop\n      jump\t// out\n        /* \"#utility.yul\":8548:9167   */\n    tag_73:\n        /* \"#utility.yul\":8625:8631   */\n      0x00\n        /* \"#utility.yul\":8633:8639   */\n      dup1\n        /* \"#utility.yul\":8641:8647   */\n      0x00\n        /* \"#utility.yul\":8690:8692   */\n      0x60\n        /* \"#utility.yul\":8678:8687   */\n      dup5\n        /* \"#utility.yul\":8669:8676   */\n      dup7\n        /* \"#utility.yul\":8665:8688   */\n      sub\n        /* \"#utility.yul\":8661:8693   */\n      slt\n        /* \"#utility.yul\":8658:8777   */\n      iszero\n      tag_404\n      jumpi\n        /* \"#utility.yul\":8696:8775   */\n      tag_405\n      tag_254\n      jump\t// in\n    tag_405:\n        /* \"#utility.yul\":8658:8777   */\n    tag_404:\n        /* \"#utility.yul\":8816:8817   */\n      0x00\n        /* \"#utility.yul\":8841:8894   */\n      tag_406\n        /* \"#utility.yul\":8886:8893   */\n      dup7\n        /* \"#utility.yul\":8877:8883   */\n      dup3\n        /* \"#utility.yul\":8866:8875   */\n      dup8\n        /* \"#utility.yul\":8862:8884   */\n      add\n        /* \"#utility.yul\":8841:8894   */\n      tag_257\n      jump\t// in\n    tag_406:\n        /* \"#utility.yul\":8831:8894   */\n      swap4\n      pop\n        /* \"#utility.yul\":8787:8904   */\n      pop\n        /* \"#utility.yul\":8943:8945   */\n      0x20\n        /* \"#utility.yul\":8969:9022   */\n      tag_407\n        /* \"#utility.yul\":9014:9021   */\n      dup7\n        /* \"#utility.yul\":9005:9011   */\n      dup3\n        /* \"#utility.yul\":8994:9003   */\n      dup8\n        /* \"#utility.yul\":8990:9012   */\n      add\n        /* \"#utility.yul\":8969:9022   */\n      tag_257\n      jump\t// in\n    tag_407:\n        /* \"#utility.yul\":8959:9022   */\n      swap3\n      pop\n        /* \"#utility.yul\":8914:9032   */\n      pop\n        /* \"#utility.yul\":9071:9073   */\n      0x40\n        /* \"#utility.yul\":9097:9150   */\n      tag_408\n        /* \"#utility.yul\":9142:9149   */\n      dup7\n        /* \"#utility.yul\":9133:9139   */\n      dup3\n        /* \"#utility.yul\":9122:9131   */\n      dup8\n        /* \"#utility.yul\":9118:9140   */\n      add\n        /* \"#utility.yul\":9097:9150   */\n      tag_259\n      jump\t// in\n    tag_408:\n        /* \"#utility.yul\":9087:9150   */\n      swap2\n      pop\n        /* \"#utility.yul\":9042:9160   */\n      pop\n        /* \"#utility.yul\":8548:9167   */\n      swap3\n      pop\n      swap3\n      pop\n      swap3\n      jump\t// out\n        /* \"#utility.yul\":9173:9480   */\n    tag_275:\n        /* \"#utility.yul\":9234:9238   */\n      0x00\n        /* \"#utility.yul\":9324:9342   */\n      0xffffffffffffffff\n        /* \"#utility.yul\":9316:9322   */\n      dup3\n        /* \"#utility.yul\":9313:9343   */\n      gt\n        /* \"#utility.yul\":9310:9366   */\n      iszero\n      tag_410\n      jumpi\n        /* \"#utility.yul\":9346:9364   */\n      tag_411\n      tag_265\n      jump\t// in\n    tag_411:\n        /* \"#utility.yul\":9310:9366   */\n    tag_410:\n        /* \"#utility.yul\":9384:9413   */\n      tag_412\n        /* \"#utility.yul\":9406:9412   */\n      dup3\n        /* \"#utility.yul\":9384:9413   */\n      tag_246\n      jump\t// in\n    tag_412:\n        /* \"#utility.yul\":9376:9413   */\n      swap1\n      pop\n        /* \"#utility.yul\":9468:9472   */\n      0x20\n        /* \"#utility.yul\":9462:9466   */\n      dup2\n        /* \"#utility.yul\":9458:9473   */\n      add\n        /* \"#utility.yul\":9450:9473   */\n      swap1\n      pop\n        /* \"#utility.yul\":9173:9480   */\n      swap2\n      swap1\n      pop\n      jump\t// out\n        /* \"#utility.yul\":9486:9896   */\n    tag_276:\n        /* \"#utility.yul\":9563:9568   */\n      0x00\n        /* \"#utility.yul\":9588:9653   */\n      tag_414\n        /* \"#utility.yul\":9604:9652   */\n      tag_415\n        /* \"#utility.yul\":9645:9651   */\n      dup5\n        /* \"#utility.yul\":9604:9652   */\n      tag_275\n      jump\t// in\n    tag_415:\n        /* \"#utility.yul\":9588:9653   */\n      tag_267\n      jump\t// in\n    tag_414:\n        /* \"#utility.yul\":9579:9653   */\n      swap1\n      pop\n        /* \"#utility.yul\":9676:9682   */\n      dup3\n        /* \"#utility.yul\":9669:9674   */\n      dup2\n        /* \"#utility.yul\":9662:9683   */\n      mstore\n        /* \"#utility.yul\":9714:9718   */\n      0x20\n        /* \"#utility.yul\":9707:9712   */\n      dup2\n        /* \"#utility.yul\":9703:9719   */\n      add\n        /* \"#utility.yul\":9752:9755   */\n      dup5\n        /* \"#utility.yul\":9743:9749   */\n      dup5\n        /* \"#utility.yul\":9738:9741   */\n      dup5\n        /* \"#utility.yul\":9734:9750   */\n      add\n        /* \"#utility.yul\":9731:9756   */\n      gt\n        /* \"#utility.yul\":9728:9840   */\n      iszero\n      tag_416\n      jumpi\n        /* \"#utility.yul\":9759:9838   */\n      tag_417\n      tag_264\n      jump\t// in\n    tag_417:\n        /* \"#utility.yul\":9728:9840   */\n    tag_416:\n        /* \"#utility.yul\":9849:9890   */\n      tag_418\n        /* \"#utility.yul\":9883:9889   */\n      dup5\n        /* \"#utility.yul\":9878:9881   */\n      dup3\n        /* \"#utility.yul\":9873:9876   */\n      dup6\n        /* \"#utility.yul\":9849:9890   */\n      tag_269\n      jump\t// in\n    tag_418:\n        /* \"#utility.yul\":9569:9896   */\n      pop\n        /* \"#utility.yul\":9486:9896   */\n      swap4\n      swap3\n      pop\n      pop\n      pop\n      jump\t// out\n        /* \"#utility.yul\":9915:10253   */\n    tag_277:\n        /* \"#utility.yul\":9970:9975   */\n      0x00\n        /* \"#utility.yul\":10019:10022   */\n      dup3\n        /* \"#utility.yul\":10012:10016   */\n      0x1f\n        /* \"#utility.yul\":10004:10010   */\n      dup4\n        /* \"#utility.yul\":10000:10017   */\n      add\n        /* \"#utility.yul\":9996:10023   */\n      slt\n        /* \"#utility.yul\":9986:10108   */\n      tag_420\n      jumpi\n        /* \"#utility.yul\":10027:10106   */\n      tag_421\n      tag_263\n      jump\t// in\n    tag_421:\n        /* \"#utility.yul\":9986:10108   */\n    tag_420:\n        /* \"#utility.yul\":10144:10150   */\n      dup2\n        /* \"#utility.yul\":10131:10151   */\n      calldataload\n        /* \"#utility.yul\":10169:10247   */\n      tag_422\n        /* \"#utility.yul\":10243:10246   */\n      dup5\n        /* \"#utility.yul\":10235:10241   */\n      dup3\n        /* \"#utility.yul\":10228:10232   */\n      0x20\n        /* \"#utility.yul\":10220:10226   */\n      dup7\n        /* \"#utility.yul\":10216:10233   */\n      add\n        /* \"#utility.yul\":10169:10247   */\n      tag_276\n      jump\t// in\n    tag_422:\n        /* \"#utility.yul\":10160:10247   */\n      swap2\n      pop\n        /* \"#utility.yul\":9976:10253   */\n      pop\n        /* \"#utility.yul\":9915:10253   */\n      swap3\n      swap2\n      pop\n      pop\n      jump\t// out\n        /* \"#utility.yul\":10259:11380   */\n    tag_86:\n        /* \"#utility.yul\":10363:10369   */\n      0x00\n        /* \"#utility.yul\":10371:10377   */\n      dup1\n        /* \"#utility.yul\":10379:10385   */\n      0x00\n        /* \"#utility.yul\":10387:10393   */\n      dup1\n        /* \"#utility.yul\":10436:10439   */\n      0x80\n        /* \"#utility.yul\":10424:10433   */\n      dup6\n        /* \"#utility.yul\":10415:10422   */\n      dup8\n        /* \"#utility.yul\":10411:10434   */\n      sub\n        /* \"#utility.yul\":10407:10440   */\n      slt\n        /* \"#utility.yul\":10404:10524   */\n      iszero\n      tag_424\n      jumpi\n        /* \"#utility.yul\":10443:10522   */\n      tag_425\n      tag_254\n      jump\t// in\n    tag_425:\n        /* \"#utility.yul\":10404:10524   */\n    tag_424:\n        /* \"#utility.yul\":10591:10592   */\n      0x00\n        /* \"#utility.yul\":10580:10589   */\n      dup6\n        /* \"#utility.yul\":10576:10593   */\n      add\n        /* \"#utility.yul\":10563:10594   */\n      calldataload\n        /* \"#utility.yul\":10621:10639   */\n      0xffffffffffffffff\n        /* \"#utility.yul\":10613:10619   */\n      dup2\n        /* \"#utility.yul\":10610:10640   */\n      gt\n        /* \"#utility.yul\":10607:10724   */\n      iszero\n      tag_426\n      jumpi\n        /* \"#utility.yul\":10643:10722   */\n      tag_427\n      tag_255\n      jump\t// in\n    tag_427:\n        /* \"#utility.yul\":10607:10724   */\n    tag_426:\n        /* \"#utility.yul\":10748:10810   */\n      tag_428\n        /* \"#utility.yul\":10802:10809   */\n      dup8\n        /* \"#utility.yul\":10793:10799   */\n      dup3\n        /* \"#utility.yul\":10782:10791   */\n      dup9\n        /* \"#utility.yul\":10778:10800   */\n      add\n        /* \"#utility.yul\":10748:10810   */\n      tag_277\n      jump\t// in\n    tag_428:\n        /* \"#utility.yul\":10738:10810   */\n      swap5\n      pop\n        /* \"#utility.yul\":10534:10820   */\n      pop\n        /* \"#utility.yul\":10887:10889   */\n      0x20\n        /* \"#utility.yul\":10876:10885   */\n      dup6\n        /* \"#utility.yul\":10872:10890   */\n      add\n        /* \"#utility.yul\":10859:10891   */\n      calldataload\n        /* \"#utility.yul\":10918:10936   */\n      0xffffffffffffffff\n        /* \"#utility.yul\":10910:10916   */\n      dup2\n        /* \"#utility.yul\":10907:10937   */\n      gt\n        /* \"#utility.yul\":10904:11021   */\n      iszero\n      tag_429\n      jumpi\n        /* \"#utility.yul\":10940:11019   */\n      tag_430\n      tag_255\n      jump\t// in\n    tag_430:\n        /* \"#utility.yul\":10904:11021   */\n    tag_429:\n        /* \"#utility.yul\":11045:11107   */\n      tag_431\n        /* \"#utility.yul\":11099:11106   */\n      dup8\n        /* \"#utility.yul\":11090:11096   */\n      dup3\n        /* \"#utility.yul\":11079:11088   */\n      dup9\n        /* \"#utility.yul\":11075:11097   */\n      add\n        /* \"#utility.yul\":11045:11107   */\n      tag_277\n      jump\t// in\n    tag_431:\n        /* \"#utility.yul\":11035:11107   */\n      swap4\n      pop\n        /* \"#utility.yul\":10830:11117   */\n      pop\n        /* \"#utility.yul\":11156:11158   */\n      0x40\n        /* \"#utility.yul\":11182:11235   */\n      tag_432\n        /* \"#utility.yul\":11227:11234   */\n      dup8\n        /* \"#utility.yul\":11218:11224   */\n      dup3\n        /* \"#utility.yul\":11207:11216   */\n      dup9\n        /* \"#utility.yul\":11203:11225   */\n      add\n        /* \"#utility.yul\":11182:11235   */\n      tag_257\n      jump\t// in\n    tag_432:\n        /* \"#utility.yul\":11172:11235   */\n      swap3\n      pop\n        /* \"#utility.yul\":11127:11245   */\n      pop\n        /* \"#utility.yul\":11284:11286   */\n      0x60\n        /* \"#utility.yul\":11310:11363   */\n      tag_433\n        /* \"#utility.yul\":11355:11362   */\n      dup8\n        /* \"#utility.yul\":11346:11352   */\n      dup3\n        /* \"#utility.yul\":11335:11344   */\n      dup9\n        /* \"#utility.yul\":11331:11353   */\n      add\n        /* \"#utility.yul\":11310:11363   */\n      tag_259\n      jump\t// in\n    tag_433:\n        /* \"#utility.yul\":11300:11363   */\n      swap2\n      pop\n        /* \"#utility.yul\":11255:11373   */\n      pop\n        /* \"#utility.yul\":10259:11380   */\n      swap3\n      swap6\n      swap2\n      swap5\n      pop\n      swap3\n      pop\n      jump\t// out\n        /* \"#utility.yul\":11386:12915   */\n    tag_91:\n        /* \"#utility.yul\":11518:11524   */\n      0x00\n        /* \"#utility.yul\":11526:11532   */\n      dup1\n        /* \"#utility.yul\":11534:11540   */\n      0x00\n        /* \"#utility.yul\":11542:11548   */\n      dup1\n        /* \"#utility.yul\":11550:11556   */\n      0x00\n        /* \"#utility.yul\":11558:11564   */\n      dup1\n        /* \"#utility.yul\":11566:11572   */\n      0x00\n        /* \"#utility.yul\":11574:11580   */\n      dup1\n        /* \"#utility.yul\":11623:11626   */\n      0x0100\n        /* \"#utility.yul\":11611:11620   */\n      dup10\n        /* \"#utility.yul\":11602:11609   */\n      dup12\n        /* \"#utility.yul\":11598:11621   */\n      sub\n        /* \"#utility.yul\":11594:11627   */\n      slt\n        /* \"#utility.yul\":11591:11711   */\n      iszero\n      tag_435\n      jumpi\n        /* \"#utility.yul\":11630:11709   */\n      tag_436\n      tag_254\n      jump\t// in\n    tag_436:\n        /* \"#utility.yul\":11591:11711   */\n    tag_435:\n        /* \"#utility.yul\":11750:11751   */\n      0x00\n        /* \"#utility.yul\":11775:11828   */\n      tag_437\n        /* \"#utility.yul\":11820:11827   */\n      dup12\n        /* \"#utility.yul\":11811:11817   */\n      dup3\n        /* \"#utility.yul\":11800:11809   */\n      dup13\n        /* \"#utility.yul\":11796:11818   */\n      add\n        /* \"#utility.yul\":11775:11828   */\n      tag_262\n      jump\t// in\n    tag_437:\n        /* \"#utility.yul\":11765:11828   */\n      swap9\n      pop\n        /* \"#utility.yul\":11721:11838   */\n      pop\n        /* \"#utility.yul\":11877:11879   */\n      0x20\n        /* \"#utility.yul\":11903:11956   */\n      tag_438\n        /* \"#utility.yul\":11948:11955   */\n      dup12\n        /* \"#utility.yul\":11939:11945   */\n      dup3\n        /* \"#utility.yul\":11928:11937   */\n      dup13\n        /* \"#utility.yul\":11924:11946   */\n      add\n        /* \"#utility.yul\":11903:11956   */\n      tag_262\n      jump\t// in\n    tag_438:\n        /* \"#utility.yul\":11893:11956   */\n      swap8\n      pop\n        /* \"#utility.yul\":11848:11966   */\n      pop\n        /* \"#utility.yul\":12033:12035   */\n      0x40\n        /* \"#utility.yul\":12022:12031   */\n      dup10\n        /* \"#utility.yul\":12018:12036   */\n      add\n        /* \"#utility.yul\":12005:12037   */\n      calldataload\n        /* \"#utility.yul\":12064:12082   */\n      0xffffffffffffffff\n        /* \"#utility.yul\":12056:12062   */\n      dup2\n        /* \"#utility.yul\":12053:12083   */\n      gt\n        /* \"#utility.yul\":12050:12167   */\n      iszero\n      tag_439\n      jumpi\n        /* \"#utility.yul\":12086:12165   */\n      tag_440\n      tag_255\n      jump\t// in\n    tag_440:\n        /* \"#utility.yul\":12050:12167   */\n    tag_439:\n        /* \"#utility.yul\":12191:12254   */\n      tag_441\n        /* \"#utility.yul\":12246:12253   */\n      dup12\n        /* \"#utility.yul\":12237:12243   */\n      dup3\n        /* \"#utility.yul\":12226:12235   */\n      dup13\n        /* \"#utility.yul\":12222:12244   */\n      add\n        /* \"#utility.yul\":12191:12254   */\n      tag_271\n      jump\t// in\n    tag_441:\n        /* \"#utility.yul\":12181:12254   */\n      swap7\n      pop\n        /* \"#utility.yul\":11976:12264   */\n      pop\n        /* \"#utility.yul\":12303:12305   */\n      0x60\n        /* \"#utility.yul\":12329:12382   */\n      tag_442\n        /* \"#utility.yul\":12374:12381   */\n      dup12\n        /* \"#utility.yul\":12365:12371   */\n      dup3\n        /* \"#utility.yul\":12354:12363   */\n      dup13\n        /* \"#utility.yul\":12350:12372   */\n      add\n        /* \"#utility.yul\":12329:12382   */\n      tag_257\n      jump\t// in\n    tag_442:\n        /* \"#utility.yul\":12319:12382   */\n      swap6\n      pop\n        /* \"#utility.yul\":12274:12392   */\n      pop\n        /* \"#utility.yul\":12431:12434   */\n      0x80\n        /* \"#utility.yul\":12458:12511   */\n      tag_443\n        /* \"#utility.yul\":12503:12510   */\n      dup12\n        /* \"#utility.yul\":12494:12500   */\n      dup3\n        /* \"#utility.yul\":12483:12492   */\n      dup13\n        /* \"#utility.yul\":12479:12501   */\n      add\n        /* \"#utility.yul\":12458:12511   */\n      tag_257\n      jump\t// in\n    tag_443:\n        /* \"#utility.yul\":12448:12511   */\n      swap5\n      pop\n        /* \"#utility.yul\":12402:12521   */\n      pop\n        /* \"#utility.yul\":12560:12563   */\n      0xa0\n        /* \"#utility.yul\":12587:12640   */\n      tag_444\n        /* \"#utility.yul\":12632:12639   */\n      dup12\n        /* \"#utility.yul\":12623:12629   */\n      dup3\n        /* \"#utility.yul\":12612:12621   */\n      dup13\n        /* \"#utility.yul\":12608:12630   */\n      add\n        /* \"#utility.yul\":12587:12640   */\n      tag_257\n      jump\t// in\n    tag_444:\n        /* \"#utility.yul\":12577:12640   */\n      swap4\n      pop\n        /* \"#utility.yul\":12531:12650   */\n      pop\n        /* \"#utility.yul\":12689:12692   */\n      0xc0\n        /* \"#utility.yul\":12716:12769   */\n      tag_445\n        /* \"#utility.yul\":12761:12768   */\n      dup12\n        /* \"#utility.yul\":12752:12758   */\n      dup3\n        /* \"#utility.yul\":12741:12750   */\n      dup13\n        /* \"#utility.yul\":12737:12759   */\n      add\n        /* \"#utility.yul\":12716:12769   */\n      tag_257\n      jump\t// in\n    tag_445:\n        /* \"#utility.yul\":12706:12769   */\n      swap3\n      pop\n        /* \"#utility.yul\":12660:12779   */\n      pop\n        /* \"#utility.yul\":12818:12821   */\n      0xe0\n        /* \"#utility.yul\":12845:12898   */\n      tag_446\n        /* \"#utility.yul\":12890:12897   */\n      dup12\n        /* \"#utility.yul\":12881:12887   */\n      dup3\n        /* \"#utility.yul\":12870:12879   */\n      dup13\n        /* \"#utility.yul\":12866:12888   */\n      add\n        /* \"#utility.yul\":12845:12898   */\n      tag_257\n      jump\t// in\n    tag_446:\n        /* \"#utility.yul\":12835:12898   */\n      swap2\n      pop\n        /* \"#utility.yul\":12789:12908   */\n      pop\n        /* \"#utility.yul\":11386:12915   */\n      swap3\n      swap6\n      swap9\n      pop\n      swap3\n      swap6\n      swap9\n      swap1\n      swap4\n      swap7\n      pop\n      jump\t// out\n        /* \"#utility.yul\":12921:13101   */\n    tag_278:\n        /* \"#utility.yul\":12969:13046   */\n      0x4e487b7100000000000000000000000000000000000000000000000000000000\n        /* \"#utility.yul\":12966:12967   */\n      0x00\n        /* \"#utility.yul\":12959:13047   */\n      mstore\n        /* \"#utility.yul\":13066:13070   */\n      0x22\n        /* \"#utility.yul\":13063:13064   */\n      0x04\n        /* \"#utility.yul\":13056:13071   */\n      mstore\n        /* \"#utility.yul\":13090:13094   */\n      0x24\n        /* \"#utility.yul\":13087:13088   */\n      0x00\n        /* \"#utility.yul\":13080:13095   */\n      revert\n        /* \"#utility.yul\":13107:13427   */\n    tag_98:\n        /* \"#utility.yul\":13151:13157   */\n      0x00\n        /* \"#utility.yul\":13188:13189   */\n      0x02\n        /* \"#utility.yul\":13182:13186   */\n      dup3\n        /* \"#utility.yul\":13178:13190   */\n      div\n        /* \"#utility.yul\":13168:13190   */\n      swap1\n      pop\n        /* \"#utility.yul\":13235:13236   */\n      0x01\n        /* \"#utility.yul\":13229:13233   */\n      dup3\n        /* \"#utility.yul\":13225:13237   */\n      and\n        /* \"#utility.yul\":13256:13274   */\n      dup1\n        /* \"#utility.yul\":13246:13327   */\n      tag_449\n      jumpi\n        /* \"#utility.yul\":13312:13316   */\n      0x7f\n        /* \"#utility.yul\":13304:13310   */\n      dup3\n        /* \"#utility.yul\":13300:13317   */\n      and\n        /* \"#utility.yul\":13290:13317   */\n      swap2\n      pop\n        /* \"#utility.yul\":13246:13327   */\n    tag_449:\n        /* \"#utility.yul\":13374:13376   */\n      0x20\n        /* \"#utility.yul\":13366:13372   */\n      dup3\n        /* \"#utility.yul\":13363:13377   */\n      lt\n        /* \"#utility.yul\":13343:13361   */\n      dup2\n        /* \"#utility.yul\":13340:13378   */\n      eq\n        /* \"#utility.yul\":13337:13421   */\n      iszero\n      tag_450\n      jumpi\n        /* \"#utility.yul\":13393:13411   */\n      tag_451\n      tag_278\n      jump\t// in\n    tag_451:\n        /* \"#utility.yul\":13337:13421   */\n    tag_450:\n        /* \"#utility.yul\":13158:13427   */\n      pop\n        /* \"#utility.yul\":13107:13427   */\n      swap2\n      swap1\n      pop\n      jump\t// out\n        /* \"#utility.yul\":13433:13613   */\n    tag_279:\n        /* \"#utility.yul\":13481:13558   */\n      0x4e487b7100000000000000000000000000000000000000000000000000000000\n        /* \"#utility.yul\":13478:13479   */\n      0x00\n        /* \"#utility.yul\":13471:13559   */\n      mstore\n        /* \"#utility.yul\":13578:13582   */\n      0x11\n        /* \"#utility.yul\":13575:13576   */\n      0x04\n        /* \"#utility.yul\":13568:13583   */\n      mstore\n        /* \"#utility.yul\":13602:13606   */\n      0x24\n        /* \"#utility.yul\":13599:13600   */\n      0x00\n        /* \"#utility.yul\":13592:13607   */\n      revert\n        /* \"#utility.yul\":13619:13967   */\n    tag_106:\n        /* \"#utility.yul\":13659:13666   */\n      0x00\n        /* \"#utility.yul\":13682:13702   */\n      tag_454\n        /* \"#utility.yul\":13700:13701   */\n      dup3\n        /* \"#utility.yul\":13682:13702   */\n      tag_251\n      jump\t// in\n    tag_454:\n        /* \"#utility.yul\":13677:13702   */\n      swap2\n      pop\n        /* \"#utility.yul\":13716:13736   */\n      tag_455\n        /* \"#utility.yul\":13734:13735   */\n      dup4\n        /* \"#utility.yul\":13716:13736   */\n      tag_251\n      jump\t// in\n    tag_455:\n        /* \"#utility.yul\":13711:13736   */\n      swap3\n      pop\n        /* \"#utility.yul\":13904:13905   */\n      dup2\n        /* \"#utility.yul\":13836:13902   */\n      0xffffffffffffffffffffffffffffffffffffffffffffffffffffffffffffffff\n        /* \"#utility.yul\":13832:13906   */\n      div\n        /* \"#utility.yul\":13829:13830   */\n      dup4\n        /* \"#utility.yul\":13826:13907   */\n      gt\n        /* \"#utility.yul\":13821:13822   */\n      dup3\n        /* \"#utility.yul\":13814:13823   */\n      iszero\n        /* \"#utility.yul\":13807:13824   */\n      iszero\n        /* \"#utility.yul\":13803:13908   */\n      and\n        /* \"#utility.yul\":13800:13931   */\n      iszero\n      tag_456\n      jumpi\n        /* \"#utility.yul\":13911:13929   */\n      tag_457\n      tag_279\n      jump\t// in\n    tag_457:\n        /* \"#utility.yul\":13800:13931   */\n    tag_456:\n        /* \"#utility.yul\":13959:13960   */\n      dup3\n        /* \"#utility.yul\":13956:13957   */\n      dup3\n        /* \"#utility.yul\":13952:13961   */\n      mul\n        /* \"#utility.yul\":13941:13961   */\n      swap1\n      pop\n        /* \"#utility.yul\":13619:13967   */\n      swap3\n      swap2\n      pop\n      pop\n      jump\t// out\n        /* \"#utility.yul\":13973:14136   */\n    tag_280:\n        /* \"#utility.yul\":14113:14128   */\n      0x62616c616e6365206572726f7200000000000000000000000000000000000000\n        /* \"#utility.yul\":14109:14110   */\n      0x00\n        /* \"#utility.yul\":14101:14107   */\n      dup3\n        /* \"#utility.yul\":14097:14111   */\n      add\n        /* \"#utility.yul\":14090:14129   */\n      mstore\n        /* \"#utility.yul\":13973:14136   */\n      pop\n      jump\t// out\n        /* \"#utility.yul\":14142:14508   */\n    tag_281:\n        /* \"#utility.yul\":14284:14287   */\n      0x00\n        /* \"#utility.yul\":14305:14372   */\n      tag_460\n        /* \"#utility.yul\":14369:14371   */\n      0x0d\n        /* \"#utility.yul\":14364:14367   */\n      dup4\n        /* \"#utility.yul\":14305:14372   */\n      tag_244\n      jump\t// in\n    tag_460:\n        /* \"#utility.yul\":14298:14372   */\n      swap2\n      pop\n        /* \"#utility.yul\":14381:14474   */\n      tag_461\n        /* \"#utility.yul\":14470:14473   */\n      dup3\n        /* \"#utility.yul\":14381:14474   */\n      tag_280\n      jump\t// in\n    tag_461:\n        /* \"#utility.yul\":14499:14501   */\n      0x20\n        /* \"#utility.yul\":14494:14497   */\n      dup3\n        /* \"#utility.yul\":14490:14502   */\n      add\n        /* \"#utility.yul\":14483:14502   */\n      swap1\n      pop\n        /* \"#utility.yul\":14142:14508   */\n      swap2\n      swap1\n      pop\n      jump\t// out\n        /* \"#utility.yul\":14514:14933   */\n    tag_109:\n        /* \"#utility.yul\":14680:14684   */\n      0x00\n        /* \"#utility.yul\":14718:14720   */\n      0x20\n        /* \"#utility.yul\":14707:14716   */\n      dup3\n        /* \"#utility.yul\":14703:14721   */\n      add\n        /* \"#utility.yul\":14695:14721   */\n      swap1\n      pop\n        /* \"#utility.yul\":14767:14776   */\n      dup2\n        /* \"#utility.yul\":14761:14765   */\n      dup2\n        /* \"#utility.yul\":14757:14777   */\n      sub\n        /* \"#utility.yul\":14753:14754   */\n      0x00\n        /* \"#utility.yul\":14742:14751   */\n      dup4\n        /* \"#utility.yul\":14738:14755   */\n      add\n        /* \"#utility.yul\":14731:14778   */\n      mstore\n        /* \"#utility.yul\":14795:14926   */\n      tag_463\n        /* \"#utility.yul\":14921:14925   */\n      dup2\n        /* \"#utility.yul\":14795:14926   */\n      tag_281\n      jump\t// in\n    tag_463:\n        /* \"#utility.yul\":14787:14926   */\n      swap1\n      pop\n        /* \"#utility.yul\":14514:14933   */\n      swap2\n      swap1\n      pop\n      jump\t// out\n        /* \"#utility.yul\":14939:15244   */\n    tag_114:\n        /* \"#utility.yul\":14979:14982   */\n      0x00\n        /* \"#utility.yul\":14998:15018   */\n      tag_465\n        /* \"#utility.yul\":15016:15017   */\n      dup3\n        /* \"#utility.yul\":14998:15018   */\n      tag_251\n      jump\t// in\n    tag_465:\n        /* \"#utility.yul\":14993:15018   */\n      swap2\n      pop\n        /* \"#utility.yul\":15032:15052   */\n      tag_466\n        /* \"#utility.yul\":15050:15051   */\n      dup4\n        /* \"#utility.yul\":15032:15052   */\n      tag_251\n      jump\t// in\n    tag_466:\n        /* \"#utility.yul\":15027:15052   */\n      swap3\n      pop\n        /* \"#utility.yul\":15186:15187   */\n      dup3\n        /* \"#utility.yul\":15118:15184   */\n      0xffffffffffffffffffffffffffffffffffffffffffffffffffffffffffffffff\n        /* \"#utility.yul\":15114:15188   */\n      sub\n        /* \"#utility.yul\":15111:15112   */\n      dup3\n        /* \"#utility.yul\":15108:15189   */\n      gt\n        /* \"#utility.yul\":15105:15212   */\n      iszero\n      tag_467\n      jumpi\n        /* \"#utility.yul\":15192:15210   */\n      tag_468\n      tag_279\n      jump\t// in\n    tag_468:\n        /* \"#utility.yul\":15105:15212   */\n    tag_467:\n        /* \"#utility.yul\":15236:15237   */\n      dup3\n        /* \"#utility.yul\":15233:15234   */\n      dup3\n        /* \"#utility.yul\":15229:15238   */\n      add\n        /* \"#utility.yul\":15222:15238   */\n      swap1\n      pop\n        /* \"#utility.yul\":14939:15244   */\n      swap3\n      swap2\n      pop\n      pop\n      jump\t// out\n        /* \"#utility.yul\":15250:15494   */\n    tag_282:\n        /* \"#utility.yul\":15390:15424   */\n      0x4f6e6c7920637573746f6d6572206f66207468652064656c6976657279206361\n        /* \"#utility.yul\":15386:15387   */\n      0x00\n        /* \"#utility.yul\":15378:15384   */\n      dup3\n        /* \"#utility.yul\":15374:15388   */\n      add\n        /* \"#utility.yul\":15367:15425   */\n      mstore\n        /* \"#utility.yul\":15459:15486   */\n      0x6e2073657420746865206368616e6e656c20706172616d732e00000000000000\n        /* \"#utility.yul\":15454:15456   */\n      0x20\n        /* \"#utility.yul\":15446:15452   */\n      dup3\n        /* \"#utility.yul\":15442:15457   */\n      add\n        /* \"#utility.yul\":15435:15487   */\n      mstore\n        /* \"#utility.yul\":15250:15494   */\n      pop\n      jump\t// out\n        /* \"#utility.yul\":15500:15866   */\n    tag_283:\n        /* \"#utility.yul\":15642:15645   */\n      0x00\n        /* \"#utility.yul\":15663:15730   */\n      tag_471\n        /* \"#utility.yul\":15727:15729   */\n      0x39\n        /* \"#utility.yul\":15722:15725   */\n      dup4\n        /* \"#utility.yul\":15663:15730   */\n      tag_244\n      jump\t// in\n    tag_471:\n        /* \"#utility.yul\":15656:15730   */\n      swap2\n      pop\n        /* \"#utility.yul\":15739:15832   */\n      tag_472\n        /* \"#utility.yul\":15828:15831   */\n      dup3\n        /* \"#utility.yul\":15739:15832   */\n      tag_282\n      jump\t// in\n    tag_472:\n        /* \"#utility.yul\":15857:15859   */\n      0x40\n        /* \"#utility.yul\":15852:15855   */\n      dup3\n        /* \"#utility.yul\":15848:15860   */\n      add\n        /* \"#utility.yul\":15841:15860   */\n      swap1\n      pop\n        /* \"#utility.yul\":15500:15866   */\n      swap2\n      swap1\n      pop\n      jump\t// out\n        /* \"#utility.yul\":15872:16291   */\n    tag_126:\n        /* \"#utility.yul\":16038:16042   */\n      0x00\n        /* \"#utility.yul\":16076:16078   */\n      0x20\n        /* \"#utility.yul\":16065:16074   */\n      dup3\n        /* \"#utility.yul\":16061:16079   */\n      add\n        /* \"#utility.yul\":16053:16079   */\n      swap1\n      pop\n        /* \"#utility.yul\":16125:16134   */\n      dup2\n        /* \"#utility.yul\":16119:16123   */\n      dup2\n        /* \"#utility.yul\":16115:16135   */\n      sub\n        /* \"#utility.yul\":16111:16112   */\n      0x00\n        /* \"#utility.yul\":16100:16109   */\n      dup4\n        /* \"#utility.yul\":16096:16113   */\n      add\n        /* \"#utility.yul\":16089:16136   */\n      mstore\n        /* \"#utility.yul\":16153:16284   */\n      tag_474\n        /* \"#utility.yul\":16279:16283   */\n      dup2\n        /* \"#utility.yul\":16153:16284   */\n      tag_283\n      jump\t// in\n    tag_474:\n        /* \"#utility.yul\":16145:16284   */\n      swap1\n      pop\n        /* \"#utility.yul\":15872:16291   */\n      swap2\n      swap1\n      pop\n      jump\t// out\n        /* \"#utility.yul\":16297:16457   */\n    tag_284:\n        /* \"#utility.yul\":16437:16449   */\n      0x54696d65206572726f7200000000000000000000000000000000000000000000\n        /* \"#utility.yul\":16433:16434   */\n      0x00\n        /* \"#utility.yul\":16425:16431   */\n      dup3\n        /* \"#utility.yul\":16421:16435   */\n      add\n        /* \"#utility.yul\":16414:16450   */\n      mstore\n        /* \"#utility.yul\":16297:16457   */\n      pop\n      jump\t// out\n        /* \"#utility.yul\":16463:16829   */\n    tag_285:\n        /* \"#utility.yul\":16605:16608   */\n      0x00\n        /* \"#utility.yul\":16626:16693   */\n      tag_477\n        /* \"#utility.yul\":16690:16692   */\n      0x0a\n        /* \"#utility.yul\":16685:16688   */\n      dup4\n        /* \"#utility.yul\":16626:16693   */\n      tag_244\n      jump\t// in\n    tag_477:\n        /* \"#utility.yul\":16619:16693   */\n      swap2\n      pop\n        /* \"#utility.yul\":16702:16795   */\n      tag_478\n        /* \"#utility.yul\":16791:16794   */\n      dup3\n        /* \"#utility.yul\":16702:16795   */\n      tag_284\n      jump\t// in\n    tag_478:\n        /* \"#utility.yul\":16820:16822   */\n      0x20\n        /* \"#utility.yul\":16815:16818   */\n      dup3\n        /* \"#utility.yul\":16811:16823   */\n      add\n        /* \"#utility.yul\":16804:16823   */\n      swap1\n      pop\n        /* \"#utility.yul\":16463:16829   */\n      swap2\n      swap1\n      pop\n      jump\t// out\n        /* \"#utility.yul\":16835:17254   */\n    tag_131:\n        /* \"#utility.yul\":17001:17005   */\n      0x00\n        /* \"#utility.yul\":17039:17041   */\n      0x20\n        /* \"#utility.yul\":17028:17037   */\n      dup3\n        /* \"#utility.yul\":17024:17042   */\n      add\n        /* \"#utility.yul\":17016:17042   */\n      swap1\n      pop\n        /* \"#utility.yul\":17088:17097   */\n      dup2\n        /* \"#utility.yul\":17082:17086   */\n      dup2\n        /* \"#utility.yul\":17078:17098   */\n      sub\n        /* \"#utility.yul\":17074:17075   */\n      0x00\n        /* \"#utility.yul\":17063:17072   */\n      dup4\n        /* \"#utility.yul\":17059:17076   */\n      add\n        /* \"#utility.yul\":17052:17099   */\n      mstore\n        /* \"#utility.yul\":17116:17247   */\n      tag_480\n        /* \"#utility.yul\":17242:17246   */\n      dup2\n        /* \"#utility.yul\":17116:17247   */\n      tag_285\n      jump\t// in\n    tag_480:\n        /* \"#utility.yul\":17108:17247   */\n      swap1\n      pop\n        /* \"#utility.yul\":16835:17254   */\n      swap2\n      swap1\n      pop\n      jump\t// out\n        /* \"#utility.yul\":17260:17416   */\n    tag_286:\n        /* \"#utility.yul\":17400:17408   */\n      0x6b203c3d206a0000000000000000000000000000000000000000000000000000\n        /* \"#utility.yul\":17396:17397   */\n      0x00\n        /* \"#utility.yul\":17388:17394   */\n      dup3\n        /* \"#utility.yul\":17384:17398   */\n      add\n        /* \"#utility.yul\":17377:17409   */\n      mstore\n        /* \"#utility.yul\":17260:17416   */\n      pop\n      jump\t// out\n        /* \"#utility.yul\":17422:17787   */\n    tag_287:\n        /* \"#utility.yul\":17564:17567   */\n      0x00\n        /* \"#utility.yul\":17585:17651   */\n      tag_483\n        /* \"#utility.yul\":17649:17650   */\n      0x06\n        /* \"#utility.yul\":17644:17647   */\n      dup4\n        /* \"#utility.yul\":17585:17651   */\n      tag_244\n      jump\t// in\n    tag_483:\n        /* \"#utility.yul\":17578:17651   */\n      swap2\n      pop\n        /* \"#utility.yul\":17660:17753   */\n      tag_484\n        /* \"#utility.yul\":17749:17752   */\n      dup3\n        /* \"#utility.yul\":17660:17753   */\n      tag_286\n      jump\t// in\n    tag_484:\n        /* \"#utility.yul\":17778:17780   */\n      0x20\n        /* \"#utility.yul\":17773:17776   */\n      dup3\n        /* \"#utility.yul\":17769:17781   */\n      add\n        /* \"#utility.yul\":17762:17781   */\n      swap1\n      pop\n        /* \"#utility.yul\":17422:17787   */\n      swap2\n      swap1\n      pop\n      jump\t// out\n        /* \"#utility.yul\":17793:18212   */\n    tag_144:\n        /* \"#utility.yul\":17959:17963   */\n      0x00\n        /* \"#utility.yul\":17997:17999   */\n      0x20\n        /* \"#utility.yul\":17986:17995   */\n      dup3\n        /* \"#utility.yul\":17982:18000   */\n      add\n        /* \"#utility.yul\":17974:18000   */\n      swap1\n      pop\n        /* \"#utility.yul\":18046:18055   */\n      dup2\n        /* \"#utility.yul\":18040:18044   */\n      dup2\n        /* \"#utility.yul\":18036:18056   */\n      sub\n        /* \"#utility.yul\":18032:18033   */\n      0x00\n        /* \"#utility.yul\":18021:18030   */\n      dup4\n        /* \"#utility.yul\":18017:18034   */\n      add\n        /* \"#utility.yul\":18010:18057   */\n      mstore\n        /* \"#utility.yul\":18074:18205   */\n      tag_486\n        /* \"#utility.yul\":18200:18204   */\n      dup2\n        /* \"#utility.yul\":18074:18205   */\n      tag_287\n      jump\t// in\n    tag_486:\n        /* \"#utility.yul\":18066:18205   */\n      swap1\n      pop\n        /* \"#utility.yul\":17793:18212   */\n      swap2\n      swap1\n      pop\n      jump\t// out\n        /* \"#utility.yul\":18218:18316   */\n    tag_288:\n        /* \"#utility.yul\":18269:18275   */\n      0x00\n        /* \"#utility.yul\":18303:18308   */\n      dup2\n        /* \"#utility.yul\":18297:18309   */\n      mload\n        /* \"#utility.yul\":18287:18309   */\n      swap1\n      pop\n        /* \"#utility.yul\":18218:18316   */\n      swap2\n      swap1\n      pop\n      jump\t// out\n        /* \"#utility.yul\":18322:18438   */\n    tag_289:\n        /* \"#utility.yul\":18373:18377   */\n      0x00\n        /* \"#utility.yul\":18396:18399   */\n      dup2\n        /* \"#utility.yul\":18388:18399   */\n      swap1\n      pop\n        /* \"#utility.yul\":18426:18430   */\n      0x20\n        /* \"#utility.yul\":18421:18424   */\n      dup3\n        /* \"#utility.yul\":18417:18431   */\n      add\n        /* \"#utility.yul\":18409:18431   */\n      swap1\n      pop\n        /* \"#utility.yul\":18322:18438   */\n      swap2\n      swap1\n      pop\n      jump\t// out\n        /* \"#utility.yul\":18444:18598   */\n    tag_290:\n        /* \"#utility.yul\":18487:18498   */\n      0x00\n        /* \"#utility.yul\":18523:18552   */\n      tag_490\n        /* \"#utility.yul\":18547:18550   */\n      dup3\n        /* \"#utility.yul\":18541:18551   */\n      mload\n        /* \"#utility.yul\":18523:18552   */\n      tag_260\n      jump\t// in\n    tag_490:\n        /* \"#utility.yul\":18586:18591   */\n      dup1\n        /* \"#utility.yul\":18562:18591   */\n      swap2\n      pop\n        /* \"#utility.yul\":18499:18598   */\n      pop\n        /* \"#utility.yul\":18444:18598   */\n      swap2\n      swap1\n      pop\n      jump\t// out\n        /* \"#utility.yul\":18604:18711   */\n    tag_291:\n        /* \"#utility.yul\":18648:18656   */\n      0x00\n        /* \"#utility.yul\":18698:18703   */\n      dup3\n        /* \"#utility.yul\":18692:18696   */\n      dup3\n        /* \"#utility.yul\":18688:18704   */\n      shl\n        /* \"#utility.yul\":18667:18704   */\n      swap1\n      pop\n        /* \"#utility.yul\":18604:18711   */\n      swap3\n      swap2\n      pop\n      pop\n      jump\t// out\n        /* \"#utility.yul\":18717:19311   */\n    tag_146:\n        /* \"#utility.yul\":18801:18806   */\n      0x00\n        /* \"#utility.yul\":18832:18870   */\n      tag_493\n        /* \"#utility.yul\":18864:18869   */\n      dup3\n        /* \"#utility.yul\":18832:18870   */\n      tag_288\n      jump\t// in\n    tag_493:\n        /* \"#utility.yul\":18895:18900   */\n      dup3\n        /* \"#utility.yul\":18922:18962   */\n      tag_494\n        /* \"#utility.yul\":18956:18961   */\n      dup5\n        /* \"#utility.yul\":18922:18962   */\n      tag_289\n      jump\t// in\n    tag_494:\n        /* \"#utility.yul\":18910:18962   */\n      swap1\n      pop\n        /* \"#utility.yul\":18981:19016   */\n      tag_495\n        /* \"#utility.yul\":19007:19015   */\n      dup2\n        /* \"#utility.yul\":18981:19016   */\n      tag_290\n      jump\t// in\n    tag_495:\n        /* \"#utility.yul\":18972:19016   */\n      swap3\n      pop\n        /* \"#utility.yul\":19040:19042   */\n      0x20\n        /* \"#utility.yul\":19032:19038   */\n      dup3\n        /* \"#utility.yul\":19029:19043   */\n      lt\n        /* \"#utility.yul\":19026:19304   */\n      iszero\n      tag_496\n      jumpi\n        /* \"#utility.yul\":19111:19280   */\n      tag_497\n        /* \"#utility.yul\":19196:19262   */\n      0xffffffffffffffffffffffffffffffffffffffffffffffffffffffffffffffff\n        /* \"#utility.yul\":19166:19172   */\n      dup4\n        /* \"#utility.yul\":19162:19164   */\n      0x20\n        /* \"#utility.yul\":19158:19173   */\n      sub\n        /* \"#utility.yul\":19155:19156   */\n      0x08\n        /* \"#utility.yul\":19151:19174   */\n      mul\n        /* \"#utility.yul\":19111:19280   */\n      tag_291\n      jump\t// in\n    tag_497:\n        /* \"#utility.yul\":19088:19093   */\n      dup4\n        /* \"#utility.yul\":19067:19294   */\n      and\n        /* \"#utility.yul\":19058:19294   */\n      swap3\n      pop\n        /* \"#utility.yul\":19026:19304   */\n    tag_496:\n        /* \"#utility.yul\":18807:19311   */\n      pop\n      pop\n        /* \"#utility.yul\":18717:19311   */\n      swap2\n      swap1\n      pop\n      jump\t// out\n        /* \"#utility.yul\":19317:19508   */\n    tag_149:\n        /* \"#utility.yul\":19357:19361   */\n      0x00\n        /* \"#utility.yul\":19377:19397   */\n      tag_499\n        /* \"#utility.yul\":19395:19396   */\n      dup3\n        /* \"#utility.yul\":19377:19397   */\n      tag_251\n      jump\t// in\n    tag_499:\n        /* \"#utility.yul\":19372:19397   */\n      swap2\n      pop\n        /* \"#utility.yul\":19411:19431   */\n      tag_500\n        /* \"#utility.yul\":19429:19430   */\n      dup4\n        /* \"#utility.yul\":19411:19431   */\n      tag_251\n      jump\t// in\n    tag_500:\n        /* \"#utility.yul\":19406:19431   */\n      swap3\n      pop\n        /* \"#utility.yul\":19450:19451   */\n      dup3\n        /* \"#utility.yul\":19447:19448   */\n      dup3\n        /* \"#utility.yul\":19444:19452   */\n      lt\n        /* \"#utility.yul\":19441:19475   */\n      iszero\n      tag_501\n      jumpi\n        /* \"#utility.yul\":19455:19473   */\n      tag_502\n      tag_279\n      jump\t// in\n    tag_502:\n        /* \"#utility.yul\":19441:19475   */\n    tag_501:\n        /* \"#utility.yul\":19500:19501   */\n      dup3\n        /* \"#utility.yul\":19497:19498   */\n      dup3\n        /* \"#utility.yul\":19493:19502   */\n      sub\n        /* \"#utility.yul\":19485:19502   */\n      swap1\n      pop\n        /* \"#utility.yul\":19317:19508   */\n      swap3\n      swap2\n      pop\n      pop\n      jump\t// out\n        /* \"#utility.yul\":19514:19593   */\n    tag_292:\n        /* \"#utility.yul\":19553:19560   */\n      0x00\n        /* \"#utility.yul\":19582:19587   */\n      dup2\n        /* \"#utility.yul\":19571:19587   */\n      swap1\n      pop\n        /* \"#utility.yul\":19514:19593   */\n      swap2\n      swap1\n      pop\n      jump\t// out\n        /* \"#utility.yul\":19599:19756   */\n    tag_293:\n        /* \"#utility.yul\":19704:19749   */\n      tag_505\n        /* \"#utility.yul\":19724:19748   */\n      tag_506\n        /* \"#utility.yul\":19742:19747   */\n      dup3\n        /* \"#utility.yul\":19724:19748   */\n      tag_260\n      jump\t// in\n    tag_506:\n        /* \"#utility.yul\":19704:19749   */\n      tag_292\n      jump\t// in\n    tag_505:\n        /* \"#utility.yul\":19699:19702   */\n      dup3\n        /* \"#utility.yul\":19692:19750   */\n      mstore\n        /* \"#utility.yul\":19599:19756   */\n      pop\n      pop\n      jump\t// out\n        /* \"#utility.yul\":19762:20018   */\n    tag_154:\n        /* \"#utility.yul\":19874:19877   */\n      0x00\n        /* \"#utility.yul\":19889:19964   */\n      tag_508\n        /* \"#utility.yul\":19960:19963   */\n      dup3\n        /* \"#utility.yul\":19951:19957   */\n      dup5\n        /* \"#utility.yul\":19889:19964   */\n      tag_293\n      jump\t// in\n    tag_508:\n        /* \"#utility.yul\":19989:19991   */\n      0x20\n        /* \"#utility.yul\":19984:19987   */\n      dup3\n        /* \"#utility.yul\":19980:19992   */\n      add\n        /* \"#utility.yul\":19973:19992   */\n      swap2\n      pop\n        /* \"#utility.yul\":20009:20012   */\n      dup2\n        /* \"#utility.yul\":20002:20012   */\n      swap1\n      pop\n        /* \"#utility.yul\":19762:20018   */\n      swap3\n      swap2\n      pop\n      pop\n      jump\t// out\n        /* \"#utility.yul\":20024:20171   */\n    tag_294:\n        /* \"#utility.yul\":20125:20136   */\n      0x00\n        /* \"#utility.yul\":20162:20165   */\n      dup2\n        /* \"#utility.yul\":20147:20165   */\n      swap1\n      pop\n        /* \"#utility.yul\":20024:20171   */\n      swap3\n      swap2\n      pop\n      pop\n      jump\t// out\n        /* \"#utility.yul\":20177:20550   */\n    tag_295:\n        /* \"#utility.yul\":20281:20284   */\n      0x00\n        /* \"#utility.yul\":20309:20347   */\n      tag_511\n        /* \"#utility.yul\":20341:20346   */\n      dup3\n        /* \"#utility.yul\":20309:20347   */\n      tag_288\n      jump\t// in\n    tag_511:\n        /* \"#utility.yul\":20363:20451   */\n      tag_512\n        /* \"#utility.yul\":20444:20450   */\n      dup2\n        /* \"#utility.yul\":20439:20442   */\n      dup6\n        /* \"#utility.yul\":20363:20451   */\n      tag_294\n      jump\t// in\n    tag_512:\n        /* \"#utility.yul\":20356:20451   */\n      swap4\n      pop\n        /* \"#utility.yul\":20460:20512   */\n      tag_513\n        /* \"#utility.yul\":20505:20511   */\n      dup2\n        /* \"#utility.yul\":20500:20503   */\n      dup6\n        /* \"#utility.yul\":20493:20497   */\n      0x20\n        /* \"#utility.yul\":20486:20491   */\n      dup7\n        /* \"#utility.yul\":20482:20498   */\n      add\n        /* \"#utility.yul\":20460:20512   */\n      tag_245\n      jump\t// in\n    tag_513:\n        /* \"#utility.yul\":20537:20543   */\n      dup1\n        /* \"#utility.yul\":20532:20535   */\n      dup5\n        /* \"#utility.yul\":20528:20544   */\n      add\n        /* \"#utility.yul\":20521:20544   */\n      swap2\n      pop\n        /* \"#utility.yul\":20285:20550   */\n      pop\n        /* \"#utility.yul\":20177:20550   */\n      swap3\n      swap2\n      pop\n      pop\n      jump\t// out\n        /* \"#utility.yul\":20556:20827   */\n    tag_156:\n        /* \"#utility.yul\":20686:20689   */\n      0x00\n        /* \"#utility.yul\":20708:20801   */\n      tag_515\n        /* \"#utility.yul\":20797:20800   */\n      dup3\n        /* \"#utility.yul\":20788:20794   */\n      dup5\n        /* \"#utility.yul\":20708:20801   */\n      tag_295\n      jump\t// in\n    tag_515:\n        /* \"#utility.yul\":20701:20801   */\n      swap2\n      pop\n        /* \"#utility.yul\":20818:20821   */\n      dup2\n        /* \"#utility.yul\":20811:20821   */\n      swap1\n      pop\n        /* \"#utility.yul\":20556:20827   */\n      swap3\n      swap2\n      pop\n      pop\n      jump\t// out\n        /* \"#utility.yul\":20833:20976   */\n    tag_296:\n        /* \"#utility.yul\":20890:20895   */\n      0x00\n        /* \"#utility.yul\":20921:20927   */\n      dup2\n        /* \"#utility.yul\":20915:20928   */\n      mload\n        /* \"#utility.yul\":20906:20928   */\n      swap1\n      pop\n        /* \"#utility.yul\":20937:20970   */\n      tag_517\n        /* \"#utility.yul\":20964:20969   */\n      dup2\n        /* \"#utility.yul\":20937:20970   */\n      tag_261\n      jump\t// in\n    tag_517:\n        /* \"#utility.yul\":20833:20976   */\n      swap3\n      swap2\n      pop\n      pop\n      jump\t// out\n        /* \"#utility.yul\":20982:21333   */\n    tag_160:\n        /* \"#utility.yul\":21052:21058   */\n      0x00\n        /* \"#utility.yul\":21101:21103   */\n      0x20\n        /* \"#utility.yul\":21089:21098   */\n      dup3\n        /* \"#utility.yul\":21080:21087   */\n      dup5\n        /* \"#utility.yul\":21076:21099   */\n      sub\n        /* \"#utility.yul\":21072:21104   */\n      slt\n        /* \"#utility.yul\":21069:21188   */\n      iszero\n      tag_519\n      jumpi\n        /* \"#utility.yul\":21107:21186   */\n      tag_520\n      tag_254\n      jump\t// in\n    tag_520:\n        /* \"#utility.yul\":21069:21188   */\n    tag_519:\n        /* \"#utility.yul\":21227:21228   */\n      0x00\n        /* \"#utility.yul\":21252:21316   */\n      tag_521\n        /* \"#utility.yul\":21308:21315   */\n      dup5\n        /* \"#utility.yul\":21299:21305   */\n      dup3\n        /* \"#utility.yul\":21288:21297   */\n      dup6\n        /* \"#utility.yul\":21284:21306   */\n      add\n        /* \"#utility.yul\":21252:21316   */\n      tag_296\n      jump\t// in\n    tag_521:\n        /* \"#utility.yul\":21242:21316   */\n      swap2\n      pop\n        /* \"#utility.yul\":21198:21326   */\n      pop\n        /* \"#utility.yul\":20982:21333   */\n      swap3\n      swap2\n      pop\n      pop\n      jump\t// out\n        /* \"#utility.yul\":21339:21510   */\n    tag_167:\n        /* \"#utility.yul\":21378:21381   */\n      0x00\n        /* \"#utility.yul\":21401:21425   */\n      tag_523\n        /* \"#utility.yul\":21419:21424   */\n      dup3\n        /* \"#utility.yul\":21401:21425   */\n      tag_251\n      jump\t// in\n    tag_523:\n        /* \"#utility.yul\":21392:21425   */\n      swap2\n      pop\n        /* \"#utility.yul\":21447:21451   */\n      0x00\n        /* \"#utility.yul\":21440:21445   */\n      dup3\n        /* \"#utility.yul\":21437:21452   */\n      eq\n        /* \"#utility.yul\":21434:21475   */\n      iszero\n      tag_524\n      jumpi\n        /* \"#utility.yul\":21455:21473   */\n      tag_525\n      tag_279\n      jump\t// in\n    tag_525:\n        /* \"#utility.yul\":21434:21475   */\n    tag_524:\n        /* \"#utility.yul\":21502:21503   */\n      0x01\n        /* \"#utility.yul\":21495:21500   */\n      dup3\n        /* \"#utility.yul\":21491:21504   */\n      sub\n        /* \"#utility.yul\":21484:21504   */\n      swap1\n      pop\n        /* \"#utility.yul\":21339:21510   */\n      swap2\n      swap1\n      pop\n      jump\t// out\n        /* \"#utility.yul\":21516:21683   */\n    tag_297:\n        /* \"#utility.yul\":21656:21675   */\n      0x575f6b6d20697320696e636f7272656374000000000000000000000000000000\n        /* \"#utility.yul\":21652:21653   */\n      0x00\n        /* \"#utility.yul\":21644:21650   */\n      dup3\n        /* \"#utility.yul\":21640:21654   */\n      add\n        /* \"#utility.yul\":21633:21676   */\n      mstore\n        /* \"#utility.yul\":21516:21683   */\n      pop\n      jump\t// out\n        /* \"#utility.yul\":21689:22055   */\n    tag_298:\n        /* \"#utility.yul\":21831:21834   */\n      0x00\n        /* \"#utility.yul\":21852:21919   */\n      tag_528\n        /* \"#utility.yul\":21916:21918   */\n      0x11\n        /* \"#utility.yul\":21911:21914   */\n      dup4\n        /* \"#utility.yul\":21852:21919   */\n      tag_244\n      jump\t// in\n    tag_528:\n        /* \"#utility.yul\":21845:21919   */\n      swap2\n      pop\n        /* \"#utility.yul\":21928:22021   */\n      tag_529\n        /* \"#utility.yul\":22017:22020   */\n      dup3\n        /* \"#utility.yul\":21928:22021   */\n      tag_297\n      jump\t// in\n    tag_529:\n        /* \"#utility.yul\":22046:22048   */\n      0x20\n        /* \"#utility.yul\":22041:22044   */\n      dup3\n        /* \"#utility.yul\":22037:22049   */\n      add\n        /* \"#utility.yul\":22030:22049   */\n      swap1\n      pop\n        /* \"#utility.yul\":21689:22055   */\n      swap2\n      swap1\n      pop\n      jump\t// out\n        /* \"#utility.yul\":22061:22480   */\n    tag_170:\n        /* \"#utility.yul\":22227:22231   */\n      0x00\n        /* \"#utility.yul\":22265:22267   */\n      0x20\n        /* \"#utility.yul\":22254:22263   */\n      dup3\n        /* \"#utility.yul\":22250:22268   */\n      add\n        /* \"#utility.yul\":22242:22268   */\n      swap1\n      pop\n        /* \"#utility.yul\":22314:22323   */\n      dup2\n        /* \"#utility.yul\":22308:22312   */\n      dup2\n        /* \"#utility.yul\":22304:22324   */\n      sub\n        /* \"#utility.yul\":22300:22301   */\n      0x00\n        /* \"#utility.yul\":22289:22298   */\n      dup4\n        /* \"#utility.yul\":22285:22302   */\n      add\n        /* \"#utility.yul\":22278:22325   */\n      mstore\n        /* \"#utility.yul\":22342:22473   */\n      tag_531\n        /* \"#utility.yul\":22468:22472   */\n      dup2\n        /* \"#utility.yul\":22342:22473   */\n      tag_298\n      jump\t// in\n    tag_531:\n        /* \"#utility.yul\":22334:22473   */\n      swap1\n      pop\n        /* \"#utility.yul\":22061:22480   */\n      swap2\n      swap1\n      pop\n      jump\t// out\n        /* \"#utility.yul\":22486:22653   */\n    tag_299:\n        /* \"#utility.yul\":22626:22645   */\n      0x575f6b6320697320696e636f7272656374000000000000000000000000000000\n        /* \"#utility.yul\":22622:22623   */\n      0x00\n        /* \"#utility.yul\":22614:22620   */\n      dup3\n        /* \"#utility.yul\":22610:22624   */\n      add\n        /* \"#utility.yul\":22603:22646   */\n      mstore\n        /* \"#utility.yul\":22486:22653   */\n      pop\n      jump\t// out\n        /* \"#utility.yul\":22659:23025   */\n    tag_300:\n        /* \"#utility.yul\":22801:22804   */\n      0x00\n        /* \"#utility.yul\":22822:22889   */\n      tag_534\n        /* \"#utility.yul\":22886:22888   */\n      0x11\n        /* \"#utility.yul\":22881:22884   */\n      dup4\n        /* \"#utility.yul\":22822:22889   */\n      tag_244\n      jump\t// in\n    tag_534:\n        /* \"#utility.yul\":22815:22889   */\n      swap2\n      pop\n        /* \"#utility.yul\":22898:22991   */\n      tag_535\n        /* \"#utility.yul\":22987:22990   */\n      dup3\n        /* \"#utility.yul\":22898:22991   */\n      tag_299\n      jump\t// in\n    tag_535:\n        /* \"#utility.yul\":23016:23018   */\n      0x20\n        /* \"#utility.yul\":23011:23014   */\n      dup3\n        /* \"#utility.yul\":23007:23019   */\n      add\n        /* \"#utility.yul\":23000:23019   */\n      swap1\n      pop\n        /* \"#utility.yul\":22659:23025   */\n      swap2\n      swap1\n      pop\n      jump\t// out\n        /* \"#utility.yul\":23031:23450   */\n    tag_173:\n        /* \"#utility.yul\":23197:23201   */\n      0x00\n        /* \"#utility.yul\":23235:23237   */\n      0x20\n        /* \"#utility.yul\":23224:23233   */\n      dup3\n        /* \"#utility.yul\":23220:23238   */\n      add\n        /* \"#utility.yul\":23212:23238   */\n      swap1\n      pop\n        /* \"#utility.yul\":23284:23293   */\n      dup2\n        /* \"#utility.yul\":23278:23282   */\n      dup2\n        /* \"#utility.yul\":23274:23294   */\n      sub\n        /* \"#utility.yul\":23270:23271   */\n      0x00\n        /* \"#utility.yul\":23259:23268   */\n      dup4\n        /* \"#utility.yul\":23255:23272   */\n      add\n        /* \"#utility.yul\":23248:23295   */\n      mstore\n        /* \"#utility.yul\":23312:23443   */\n      tag_537\n        /* \"#utility.yul\":23438:23442   */\n      dup2\n        /* \"#utility.yul\":23312:23443   */\n      tag_300\n      jump\t// in\n    tag_537:\n        /* \"#utility.yul\":23304:23443   */\n      swap1\n      pop\n        /* \"#utility.yul\":23031:23450   */\n      swap2\n      swap1\n      pop\n      jump\t// out\n        /* \"#utility.yul\":23456:23636   */\n    tag_301:\n        /* \"#utility.yul\":23504:23581   */\n      0x4e487b7100000000000000000000000000000000000000000000000000000000\n        /* \"#utility.yul\":23501:23502   */\n      0x00\n        /* \"#utility.yul\":23494:23582   */\n      mstore\n        /* \"#utility.yul\":23601:23605   */\n      0x12\n        /* \"#utility.yul\":23598:23599   */\n      0x04\n        /* \"#utility.yul\":23591:23606   */\n      mstore\n        /* \"#utility.yul\":23625:23629   */\n      0x24\n        /* \"#utility.yul\":23622:23623   */\n      0x00\n        /* \"#utility.yul\":23615:23630   */\n      revert\n        /* \"#utility.yul\":23642:23818   */\n    tag_175:\n        /* \"#utility.yul\":23674:23675   */\n      0x00\n        /* \"#utility.yul\":23691:23711   */\n      tag_540\n        /* \"#utility.yul\":23709:23710   */\n      dup3\n        /* \"#utility.yul\":23691:23711   */\n      tag_251\n      jump\t// in\n    tag_540:\n        /* \"#utility.yul\":23686:23711   */\n      swap2\n      pop\n        /* \"#utility.yul\":23725:23745   */\n      tag_541\n        /* \"#utility.yul\":23743:23744   */\n      dup4\n        /* \"#utility.yul\":23725:23745   */\n      tag_251\n      jump\t// in\n    tag_541:\n        /* \"#utility.yul\":23720:23745   */\n      swap3\n      pop\n        /* \"#utility.yul\":23764:23765   */\n      dup3\n        /* \"#utility.yul\":23754:23789   */\n      tag_542\n      jumpi\n        /* \"#utility.yul\":23769:23787   */\n      tag_543\n      tag_301\n      jump\t// in\n    tag_543:\n        /* \"#utility.yul\":23754:23789   */\n    tag_542:\n        /* \"#utility.yul\":23810:23811   */\n      dup3\n        /* \"#utility.yul\":23807:23808   */\n      dup3\n        /* \"#utility.yul\":23803:23812   */\n      mod\n        /* \"#utility.yul\":23798:23812   */\n      swap1\n      pop\n        /* \"#utility.yul\":23642:23818   */\n      swap3\n      swap2\n      pop\n      pop\n      jump\t// out\n        /* \"#utility.yul\":23824:24009   */\n    tag_179:\n        /* \"#utility.yul\":23864:23865   */\n      0x00\n        /* \"#utility.yul\":23881:23901   */\n      tag_545\n        /* \"#utility.yul\":23899:23900   */\n      dup3\n        /* \"#utility.yul\":23881:23901   */\n      tag_251\n      jump\t// in\n    tag_545:\n        /* \"#utility.yul\":23876:23901   */\n      swap2\n      pop\n        /* \"#utility.yul\":23915:23935   */\n      tag_546\n        /* \"#utility.yul\":23933:23934   */\n      dup4\n        /* \"#utility.yul\":23915:23935   */\n      tag_251\n      jump\t// in\n    tag_546:\n        /* \"#utility.yul\":23910:23935   */\n      swap3\n      pop\n        /* \"#utility.yul\":23954:23955   */\n      dup3\n        /* \"#utility.yul\":23944:23979   */\n      tag_547\n      jumpi\n        /* \"#utility.yul\":23959:23977   */\n      tag_548\n      tag_301\n      jump\t// in\n    tag_548:\n        /* \"#utility.yul\":23944:23979   */\n    tag_547:\n        /* \"#utility.yul\":24001:24002   */\n      dup3\n        /* \"#utility.yul\":23998:23999   */\n      dup3\n        /* \"#utility.yul\":23994:24003   */\n      div\n        /* \"#utility.yul\":23989:24003   */\n      swap1\n      pop\n        /* \"#utility.yul\":23824:24009   */\n      swap3\n      swap2\n      pop\n      pop\n      jump\t// out\n        /* \"#utility.yul\":24015:24129   */\n    tag_302:\n      pop\n      jump\t// out\n        /* \"#utility.yul\":24135:24533   */\n    tag_303:\n        /* \"#utility.yul\":24294:24297   */\n      0x00\n        /* \"#utility.yul\":24315:24398   */\n      tag_551\n        /* \"#utility.yul\":24396:24397   */\n      0x00\n        /* \"#utility.yul\":24391:24394   */\n      dup4\n        /* \"#utility.yul\":24315:24398   */\n      tag_294\n      jump\t// in\n    tag_551:\n        /* \"#utility.yul\":24308:24398   */\n      swap2\n      pop\n        /* \"#utility.yul\":24407:24500   */\n      tag_552\n        /* \"#utility.yul\":24496:24499   */\n      dup3\n        /* \"#utility.yul\":24407:24500   */\n      tag_302\n      jump\t// in\n    tag_552:\n        /* \"#utility.yul\":24525:24526   */\n      0x00\n        /* \"#utility.yul\":24520:24523   */\n      dup3\n        /* \"#utility.yul\":24516:24527   */\n      add\n        /* \"#utility.yul\":24509:24527   */\n      swap1\n      pop\n        /* \"#utility.yul\":24135:24533   */\n      swap2\n      swap1\n      pop\n      jump\t// out\n        /* \"#utility.yul\":24539:24918   */\n    tag_208:\n        /* \"#utility.yul\":24723:24726   */\n      0x00\n        /* \"#utility.yul\":24745:24892   */\n      tag_554\n        /* \"#utility.yul\":24888:24891   */\n      dup3\n        /* \"#utility.yul\":24745:24892   */\n      tag_303\n      jump\t// in\n    tag_554:\n        /* \"#utility.yul\":24738:24892   */\n      swap2\n      pop\n        /* \"#utility.yul\":24909:24912   */\n      dup2\n        /* \"#utility.yul\":24902:24912   */\n      swap1\n      pop\n        /* \"#utility.yul\":24539:24918   */\n      swap2\n      swap1\n      pop\n      jump\t// out\n\n    auxdata: 0xa26469706673582212201a5b101e93f931419021aa53814cc98ecfd9d9a7a3d3de33b07c2099aa6722bc64736f6c63430008090033\n}\n",
    "bytecode": {
      "linkReferences": {},
      "object": "608060405234801561001057600080fd5b506001600a60006101000a81548160ff021916908315150217905550611cf98061003b6000396000f3fe6080604052600436106100f75760003560e01c806388bf19301161008a578063c3da42b811610059578063c3da42b8146102d7578063d8befbb614610302578063e8de68cc1461032b578063f493e87014610354576100fe565b806388bf19301461023a5780639c21a9b814610265578063a6ab36f214610290578063b582ec5f146102ac576100fe565b80635e650318116100c65780635e6503181461019d5780637ae9eb7e146101c85780637c2efcba146101e45780637f80069a1461020f576100fe565b806324763493146101005780632804b2c01461012b57806334133df91461015657806350b1ad6b14610181576100fe565b366100fe57005b005b34801561010c57600080fd5b5061011561037f565b6040516101229190610fd5565b60405180910390f35b34801561013757600080fd5b5061014061040d565b60405161014d9190611038565b60405180910390f35b34801561016257600080fd5b5061016b610433565b604051610178919061106c565b60405180910390f35b61019b6004803603810190610196919061125e565b610439565b005b3480156101a957600080fd5b506101b26105d4565b6040516101bf9190611353565b60405180910390f35b6101e260048036038101906101dd919061136e565b6105da565b005b3480156101f057600080fd5b506101f96106d4565b604051610206919061106c565b60405180910390f35b34801561021b57600080fd5b506102246106da565b60405161023191906113b6565b60405180910390f35b34801561024657600080fd5b5061024f6106ed565b60405161025c9190611353565b60405180910390f35b34801561027157600080fd5b5061027a6106f3565b604051610287919061106c565b60405180910390f35b6102aa60048036038101906102a591906113d1565b6106f9565b005b3480156102b857600080fd5b506102c16107c3565b6040516102ce919061106c565b60405180910390f35b3480156102e357600080fd5b506102ec6107c9565b6040516102f9919061106c565b60405180910390f35b34801561030e57600080fd5b50610329600480360381019061032491906114c5565b6107cf565b005b34801561033757600080fd5b50610352600480360381019061034d9190611564565b610d0e565b005b34801561036057600080fd5b50610369610e93565b604051610376919061106c565b60405180910390f35b6004805461038c90611665565b80601f01602080910402602001604051908101604052809291908181526020018280546103b890611665565b80156104055780601f106103da57610100808354040283529160200191610405565b820191906000526020600020905b8154815290600101906020018083116103e857829003601f168201915b505050505081565b600160009054906101000a900473ffffffffffffffffffffffffffffffffffffffff1681565b60095481565b60001515600a60009054906101000a900460ff1615151461045957600080fd5b878961046591906116c6565b34146104a6576040517f08c379a000000000000000000000000000000000000000000000000000000000815260040161049d9061176c565b60405180910390fd5b60006007541480156104ba57506000600854145b80156104c857506000600954145b80156104e25750426008546007546104e0919061178c565b105b806105225750426008546007546104f9919061178c565b1080156105215750600954600854600754610514919061178c565b61051e919061178c565b42105b5b61052b57600080fd5b86600160006101000a81548173ffffffffffffffffffffffffffffffffffffffff021916908373ffffffffffffffffffffffffffffffffffffffff160217905550886005819055508760068190555060008081905550856002819055508460038190555083600490805190602001906105a5929190610e99565b508860058190555087600681905550826007819055508160088190555080600981905550505050505050505050565b60035481565b600160009054906101000a900473ffffffffffffffffffffffffffffffffffffffff1673ffffffffffffffffffffffffffffffffffffffff163373ffffffffffffffffffffffffffffffffffffffff161461066a576040517f08c379a000000000000000000000000000000000000000000000000000000000815260040161066190611854565b60405180910390fd5b4260085460075461067b919061178c565b106106bb576040517f08c379a00000000000000000000000000000000000000000000000000000000081526004016106b2906118c0565b60405180910390fd5b8073ffffffffffffffffffffffffffffffffffffffff16ff5b60065481565b600a60009054906101000a900460ff1681565b60025481565b60085481565b60001515600a60009054906101000a900460ff1615151461071957600080fd5b80600160006101000a81548173ffffffffffffffffffffffffffffffffffffffff021916908373ffffffffffffffffffffffffffffffffffffffff1602179055508260058190555081600681905550600034146107be57818361077c91906116c6565b34146107bd576040517f08c379a00000000000000000000000000000000000000000000000000000000081526004016107b49061176c565b60405180910390fd5b5b505050565b60005481565b60055481565b6008546007546107df919061178c565b4210610820576040517f08c379a0000000000000000000000000000000000000000000000000000000008152600401610817906118c0565b60405180910390fd5b6000548211610864576040517f08c379a000000000000000000000000000000000000000000000000000000000815260040161085b9061192c565b60405180910390fd5b6000808561087190611989565b905060008561087f90611989565b9050600080548661089091906119f0565b90505b60008114610990576002836040516020016108ae9190611a45565b6040516020818303038152906040526040516108ca9190611a9c565b602060405180830381855afa1580156108e7573d6000803e3d6000fd5b5050506040513d601f19601f8201168201806040525081019061090a9190611ac8565b925060028260405160200161091f9190611a45565b60405160208183030381529060405260405161093b9190611a9c565b602060405180830381855afa158015610958573d6000803e3d6000fd5b5050506040513d601f19601f8201168201806040525081019061097b9190611ac8565b9150808061098890611af5565b915050610893565b82600254146109d4576040517f08c379a00000000000000000000000000000000000000000000000000000000081526004016109cb90611b6b565b60405180910390fd5b8160035414610a18576040517f08c379a0000000000000000000000000000000000000000000000000000000008152600401610a0f90611bd7565b60405180910390fd5b6000600287610a279190611c26565b1415610a7557600260005487610a3d91906119f0565b610a479190611c57565b93508560008190555087610a5a90611989565b60028190555086610a6a90611989565b600381905550610c00565b6002600160005488610a8791906119f0565b610a9191906119f0565b610a9b9190611c57565b9350600186610aaa91906119f0565b600081905550600088610abc90611989565b9050600088610aca90611989565b90506000805489610adb91906119f0565b90505b60008114610bdb57600283604051602001610af99190611a45565b604051602081830303815290604052604051610b159190611a9c565b602060405180830381855afa158015610b32573d6000803e3d6000fd5b5050506040513d601f19601f82011682018060405250810190610b559190611ac8565b9250600282604051602001610b6a9190611a45565b604051602081830303815290604052604051610b869190611a9c565b602060405180830381855afa158015610ba3573d6000803e3d6000fd5b5050506040513d601f19601f82011682018060405250810190610bc69190611ac8565b91508080610bd390611af5565b915050610ade565b600189610be891906119f0565b60008190555082600281905550816003819055505050505b600073ffffffffffffffffffffffffffffffffffffffff168573ffffffffffffffffffffffffffffffffffffffff1614610caf578473ffffffffffffffffffffffffffffffffffffffff1660065485610c5991906116c6565b604051610c6590611cae565b60006040518083038185875af1925050503d8060008114610ca2576040519150601f19603f3d011682016040523d82523d6000602084013e610ca7565b606091505b505050610d04565b3373ffffffffffffffffffffffffffffffffffffffff166108fc60065486610cd791906116c6565b9081150290604051600060405180830381858888f19350505050158015610d02573d6000803e3d6000fd5b505b5050505050505050565b600160009054906101000a900473ffffffffffffffffffffffffffffffffffffffff1673ffffffffffffffffffffffffffffffffffffffff163373ffffffffffffffffffffffffffffffffffffffff1614610d9e576040517f08c379a0000000000000000000000000000000000000000000000000000000008152600401610d9590611854565b60405180910390fd5b8385610daa91906116c6565b4714610db557600080fd5b6000600754148015610dc957506000600854145b8015610dd757506000600954145b8015610df1575042600854600754610def919061178c565b105b80610e31575042600854600754610e08919061178c565b108015610e305750600954600854600754610e23919061178c565b610e2d919061178c565b42105b5b610e3a57600080fd5b6000808190555087600281905550866003819055508560049080519060200190610e65929190610e99565b5084600581905550836006819055508260078190555081600881905550806009819055505050505050505050565b60075481565b828054610ea590611665565b90600052602060002090601f016020900481019282610ec75760008555610f0e565b82601f10610ee057805160ff1916838001178555610f0e565b82800160010185558215610f0e579182015b82811115610f0d578251825591602001919060010190610ef2565b5b509050610f1b9190610f1f565b5090565b5b80821115610f38576000816000905550600101610f20565b5090565b600081519050919050565b600082825260208201905092915050565b60005b83811015610f76578082015181840152602081019050610f5b565b83811115610f85576000848401525b50505050565b6000601f19601f8301169050919050565b6000610fa782610f3c565b610fb18185610f47565b9350610fc1818560208601610f58565b610fca81610f8b565b840191505092915050565b60006020820190508181036000830152610fef8184610f9c565b905092915050565b600073ffffffffffffffffffffffffffffffffffffffff82169050919050565b600061102282610ff7565b9050919050565b61103281611017565b82525050565b600060208201905061104d6000830184611029565b92915050565b6000819050919050565b61106681611053565b82525050565b6000602082019050611081600083018461105d565b92915050565b6000604051905090565b600080fd5b600080fd5b6110a481611053565b81146110af57600080fd5b50565b6000813590506110c18161109b565b92915050565b6110d081611017565b81146110db57600080fd5b50565b6000813590506110ed816110c7565b92915050565b6000819050919050565b611106816110f3565b811461111157600080fd5b50565b600081359050611123816110fd565b92915050565b600080fd5b600080fd5b7f4e487b7100000000000000000000000000000000000000000000000000000000600052604160045260246000fd5b61116b82610f8b565b810181811067ffffffffffffffff8211171561118a57611189611133565b5b80604052505050565b600061119d611087565b90506111a98282611162565b919050565b600067ffffffffffffffff8211156111c9576111c8611133565b5b6111d282610f8b565b9050602081019050919050565b82818337600083830152505050565b60006112016111fc846111ae565b611193565b90508281526020810184848401111561121d5761121c61112e565b5b6112288482856111df565b509392505050565b600082601f83011261124557611244611129565b5b81356112558482602086016111ee565b91505092915050565b60008060008060008060008060006101208a8c03121561128157611280611091565b5b600061128f8c828d016110b2565b99505060206112a08c828d016110b2565b98505060406112b18c828d016110de565b97505060606112c28c828d01611114565b96505060806112d38c828d01611114565b95505060a08a013567ffffffffffffffff8111156112f4576112f3611096565b5b6113008c828d01611230565b94505060c06113118c828d016110b2565b93505060e06113228c828d016110b2565b9250506101006113348c828d016110b2565b9150509295985092959850929598565b61134d816110f3565b82525050565b60006020820190506113686000830184611344565b92915050565b60006020828403121561138457611383611091565b5b6000611392848285016110de565b91505092915050565b60008115159050919050565b6113b08161139b565b82525050565b60006020820190506113cb60008301846113a7565b92915050565b6000806000606084860312156113ea576113e9611091565b5b60006113f8868287016110b2565b9350506020611409868287016110b2565b925050604061141a868287016110de565b9150509250925092565b600067ffffffffffffffff82111561143f5761143e611133565b5b61144882610f8b565b9050602081019050919050565b600061146861146384611424565b611193565b9050828152602081018484840111156114845761148361112e565b5b61148f8482856111df565b509392505050565b600082601f8301126114ac576114ab611129565b5b81356114bc848260208601611455565b91505092915050565b600080600080608085870312156114df576114de611091565b5b600085013567ffffffffffffffff8111156114fd576114fc611096565b5b61150987828801611497565b945050602085013567ffffffffffffffff81111561152a57611529611096565b5b61153687828801611497565b9350506040611547878288016110b2565b9250506060611558878288016110de565b91505092959194509250565b600080600080600080600080610100898b03121561158557611584611091565b5b60006115938b828c01611114565b98505060206115a48b828c01611114565b975050604089013567ffffffffffffffff8111156115c5576115c4611096565b5b6115d18b828c01611230565b96505060606115e28b828c016110b2565b95505060806115f38b828c016110b2565b94505060a06116048b828c016110b2565b93505060c06116158b828c016110b2565b92505060e06116268b828c016110b2565b9150509295985092959890939650565b7f4e487b7100000000000000000000000000000000000000000000000000000000600052602260045260246000fd5b6000600282049050600182168061167d57607f821691505b6020821081141561169157611690611636565b5b50919050565b7f4e487b7100000000000000000000000000000000000000000000000000000000600052601160045260246000fd5b60006116d182611053565b91506116dc83611053565b9250817fffffffffffffffffffffffffffffffffffffffffffffffffffffffffffffffff048311821515161561171557611714611697565b5b828202905092915050565b7f62616c616e6365206572726f7200000000000000000000000000000000000000600082015250565b6000611756600d83610f47565b915061176182611720565b602082019050919050565b6000602082019050818103600083015261178581611749565b9050919050565b600061179782611053565b91506117a283611053565b9250827fffffffffffffffffffffffffffffffffffffffffffffffffffffffffffffffff038211156117d7576117d6611697565b5b828201905092915050565b7f4f6e6c7920637573746f6d6572206f66207468652064656c697665727920636160008201527f6e2073657420746865206368616e6e656c20706172616d732e00000000000000602082015250565b600061183e603983610f47565b9150611849826117e2565b604082019050919050565b6000602082019050818103600083015261186d81611831565b9050919050565b7f54696d65206572726f7200000000000000000000000000000000000000000000600082015250565b60006118aa600a83610f47565b91506118b582611874565b602082019050919050565b600060208201905081810360008301526118d98161189d565b9050919050565b7f6b203c3d206a0000000000000000000000000000000000000000000000000000600082015250565b6000611916600683610f47565b9150611921826118e0565b602082019050919050565b6000602082019050818103600083015261194581611909565b9050919050565b600081519050919050565b6000819050602082019050919050565b600061197382516110f3565b80915050919050565b600082821b905092915050565b60006119948261194c565b8261199e84611957565b90506119a981611967565b925060208210156119e9576119e47fffffffffffffffffffffffffffffffffffffffffffffffffffffffffffffffff8360200360080261197c565b831692505b5050919050565b60006119fb82611053565b9150611a0683611053565b925082821015611a1957611a18611697565b5b828203905092915050565b6000819050919050565b611a3f611a3a826110f3565b611a24565b82525050565b6000611a518284611a2e565b60208201915081905092915050565b600081905092915050565b6000611a768261194c565b611a808185611a60565b9350611a90818560208601610f58565b80840191505092915050565b6000611aa88284611a6b565b915081905092915050565b600081519050611ac2816110fd565b92915050565b600060208284031215611ade57611add611091565b5b6000611aec84828501611ab3565b91505092915050565b6000611b0082611053565b91506000821415611b1457611b13611697565b5b600182039050919050565b7f575f6b6d20697320696e636f7272656374000000000000000000000000000000600082015250565b6000611b55601183610f47565b9150611b6082611b1f565b602082019050919050565b60006020820190508181036000830152611b8481611b48565b9050919050565b7f575f6b6320697320696e636f7272656374000000000000000000000000000000600082015250565b6000611bc1601183610f47565b9150611bcc82611b8b565b602082019050919050565b60006020820190508181036000830152611bf081611bb4565b9050919050565b7f4e487b7100000000000000000000000000000000000000000000000000000000600052601260045260246000fd5b6000611c3182611053565b9150611c3c83611053565b925082611c4c57611c4b611bf7565b5b828206905092915050565b6000611c6282611053565b9150611c6d83611053565b925082611c7d57611c7c611bf7565b5b828204905092915050565b50565b6000611c98600083611a60565b9150611ca382611c88565b600082019050919050565b6000611cb982611c8b565b915081905091905056fea26469706673582212201a5b101e93f931419021aa53814cc98ecfd9d9a7a3d3de33b07c2099aa6722bc64736f6c63430008090033",
      "opcodes": "PUSH1 0x80 PUSH1 0x40 MSTORE CALLVALUE DUP1 ISZERO PUSH2 0x10 JUMPI PUSH1 0x0 DUP1 REVERT JUMPDEST POP PUSH1 0x1 PUSH1 0xA PUSH1 0x0 PUSH2 0x100 EXP DUP2 SLOAD DUP2 PUSH1 0xFF MUL NOT AND SWAP1 DUP4 ISZERO ISZERO MUL OR SWAP1 SSTORE POP PUSH2 0x1CF9 DUP1 PUSH2 0x3B PUSH1 0x0 CODECOPY PUSH1 0x0 RETURN INVALID PUSH1 0x80 PUSH1 0x40 MSTORE PUSH1 0x4 CALLDATASIZE LT PUSH2 0xF7 JUMPI PUSH1 0x0 CALLDATALOAD PUSH1 0xE0 SHR DUP1 PUSH4 0x88BF1930 GT PUSH2 0x8A JUMPI DUP1 PUSH4 0xC3DA42B8 GT PUSH2 0x59 JUMPI DUP1 PUSH4 0xC3DA42B8 EQ PUSH2 0x2D7 JUMPI DUP1 PUSH4 0xD8BEFBB6 EQ PUSH2 0x302 JUMPI DUP1 PUSH4 0xE8DE68CC EQ PUSH2 0x32B JUMPI DUP1 PUSH4 0xF493E870 EQ PUSH2 0x354 JUMPI PUSH2 0xFE JUMP JUMPDEST DUP1 PUSH4 0x88BF1930 EQ PUSH2 0x23A JUMPI DUP1 PUSH4 0x9C21A9B8 EQ PUSH2 0x265 JUMPI DUP1 PUSH4 0xA6AB36F2 EQ PUSH2 0x290 JUMPI DUP1 PUSH4 0xB582EC5F EQ PUSH2 0x2AC JUMPI PUSH2 0xFE JUMP JUMPDEST DUP1 PUSH4 0x5E650318 GT PUSH2 0xC6 JUMPI DUP1 PUSH4 0x5E650318 EQ PUSH2 0x19D JUMPI DUP1 PUSH4 0x7AE9EB7E EQ PUSH2 0x1C8 JUMPI DUP1 PUSH4 0x7C2EFCBA EQ PUSH2 0x1E4 JUMPI DUP1 PUSH4 0x7F80069A EQ PUSH2 0x20F JUMPI PUSH2 0xFE JUMP JUMPDEST DUP1 PUSH4 0x24763493 EQ PUSH2 0x100 JUMPI DUP1 PUSH4 0x2804B2C0 EQ PUSH2 0x12B JUMPI DUP1 PUSH4 0x34133DF9 EQ PUSH2 0x156 JUMPI DUP1 PUSH4 0x50B1AD6B EQ PUSH2 0x181 JUMPI PUSH2 0xFE JUMP JUMPDEST CALLDATASIZE PUSH2 0xFE JUMPI STOP JUMPDEST STOP JUMPDEST CALLVALUE DUP1 ISZERO PUSH2 0x10C JUMPI PUSH1 0x0 DUP1 REVERT JUMPDEST POP PUSH2 0x115 PUSH2 0x37F JUMP JUMPDEST PUSH1 0x40 MLOAD PUSH2 0x122 SWAP2 SWAP1 PUSH2 0xFD5 JUMP JUMPDEST PUSH1 0x40 MLOAD DUP1 SWAP2 SUB SWAP1 RETURN JUMPDEST CALLVALUE DUP1 ISZERO PUSH2 0x137 JUMPI PUSH1 0x0 DUP1 REVERT JUMPDEST POP PUSH2 0x140 PUSH2 0x40D JUMP JUMPDEST PUSH1 0x40 MLOAD PUSH2 0x14D SWAP2 SWAP1 PUSH2 0x1038 JUMP JUMPDEST PUSH1 0x40 MLOAD DUP1 SWAP2 SUB SWAP1 RETURN JUMPDEST CALLVALUE DUP1 ISZERO PUSH2 0x162 JUMPI PUSH1 0x0 DUP1 REVERT JUMPDEST POP PUSH2 0x16B PUSH2 0x433 JUMP JUMPDEST PUSH1 0x40 MLOAD PUSH2 0x178 SWAP2 SWAP1 PUSH2 0x106C JUMP JUMPDEST PUSH1 0x40 MLOAD DUP1 SWAP2 SUB SWAP1 RETURN JUMPDEST PUSH2 0x19B PUSH1 0x4 DUP1 CALLDATASIZE SUB DUP2 ADD SWAP1 PUSH2 0x196 SWAP2 SWAP1 PUSH2 0x125E JUMP JUMPDEST PUSH2 0x439 JUMP JUMPDEST STOP JUMPDEST CALLVALUE DUP1 ISZERO PUSH2 0x1A9 JUMPI PUSH1 0x0 DUP1 REVERT JUMPDEST POP PUSH2 0x1B2 PUSH2 0x5D4 JUMP JUMPDEST PUSH1 0x40 MLOAD PUSH2 0x1BF SWAP2 SWAP1 PUSH2 0x1353 JUMP JUMPDEST PUSH1 0x40 MLOAD DUP1 SWAP2 SUB SWAP1 RETURN JUMPDEST PUSH2 0x1E2 PUSH1 0x4 DUP1 CALLDATASIZE SUB DUP2 ADD SWAP1 PUSH2 0x1DD SWAP2 SWAP1 PUSH2 0x136E JUMP JUMPDEST PUSH2 0x5DA JUMP JUMPDEST STOP JUMPDEST CALLVALUE DUP1 ISZERO PUSH2 0x1F0 JUMPI PUSH1 0x0 DUP1 REVERT JUMPDEST POP PUSH2 0x1F9 PUSH2 0x6D4 JUMP JUMPDEST PUSH1 0x40 MLOAD PUSH2 0x206 SWAP2 SWAP1 PUSH2 0x106C JUMP JUMPDEST PUSH1 0x40 MLOAD DUP1 SWAP2 SUB SWAP1 RETURN JUMPDEST CALLVALUE DUP1 ISZERO PUSH2 0x21B JUMPI PUSH1 0x0 DUP1 REVERT JUMPDEST POP PUSH2 0x224 PUSH2 0x6DA JUMP JUMPDEST PUSH1 0x40 MLOAD PUSH2 0x231 SWAP2 SWAP1 PUSH2 0x13B6 JUMP JUMPDEST PUSH1 0x40 MLOAD DUP1 SWAP2 SUB SWAP1 RETURN JUMPDEST CALLVALUE DUP1 ISZERO PUSH2 0x246 JUMPI PUSH1 0x0 DUP1 REVERT JUMPDEST POP PUSH2 0x24F PUSH2 0x6ED JUMP JUMPDEST PUSH1 0x40 MLOAD PUSH2 0x25C SWAP2 SWAP1 PUSH2 0x1353 JUMP JUMPDEST PUSH1 0x40 MLOAD DUP1 SWAP2 SUB SWAP1 RETURN JUMPDEST CALLVALUE DUP1 ISZERO PUSH2 0x271 JUMPI PUSH1 0x0 DUP1 REVERT JUMPDEST POP PUSH2 0x27A PUSH2 0x6F3 JUMP JUMPDEST PUSH1 0x40 MLOAD PUSH2 0x287 SWAP2 SWAP1 PUSH2 0x106C JUMP JUMPDEST PUSH1 0x40 MLOAD DUP1 SWAP2 SUB SWAP1 RETURN JUMPDEST PUSH2 0x2AA PUSH1 0x4 DUP1 CALLDATASIZE SUB DUP2 ADD SWAP1 PUSH2 0x2A5 SWAP2 SWAP1 PUSH2 0x13D1 JUMP JUMPDEST PUSH2 0x6F9 JUMP JUMPDEST STOP JUMPDEST CALLVALUE DUP1 ISZERO PUSH2 0x2B8 JUMPI PUSH1 0x0 DUP1 REVERT JUMPDEST POP PUSH2 0x2C1 PUSH2 0x7C3 JUMP JUMPDEST PUSH1 0x40 MLOAD PUSH2 0x2CE SWAP2 SWAP1 PUSH2 0x106C JUMP JUMPDEST PUSH1 0x40 MLOAD DUP1 SWAP2 SUB SWAP1 RETURN JUMPDEST CALLVALUE DUP1 ISZERO PUSH2 0x2E3 JUMPI PUSH1 0x0 DUP1 REVERT JUMPDEST POP PUSH2 0x2EC PUSH2 0x7C9 JUMP JUMPDEST PUSH1 0x40 MLOAD PUSH2 0x2F9 SWAP2 SWAP1 PUSH2 0x106C JUMP JUMPDEST PUSH1 0x40 MLOAD DUP1 SWAP2 SUB SWAP1 RETURN JUMPDEST CALLVALUE DUP1 ISZERO PUSH2 0x30E JUMPI PUSH1 0x0 DUP1 REVERT JUMPDEST POP PUSH2 0x329 PUSH1 0x4 DUP1 CALLDATASIZE SUB DUP2 ADD SWAP1 PUSH2 0x324 SWAP2 SWAP1 PUSH2 0x14C5 JUMP JUMPDEST PUSH2 0x7CF JUMP JUMPDEST STOP JUMPDEST CALLVALUE DUP1 ISZERO PUSH2 0x337 JUMPI PUSH1 0x0 DUP1 REVERT JUMPDEST POP PUSH2 0x352 PUSH1 0x4 DUP1 CALLDATASIZE SUB DUP2 ADD SWAP1 PUSH2 0x34D SWAP2 SWAP1 PUSH2 0x1564 JUMP JUMPDEST PUSH2 0xD0E JUMP JUMPDEST STOP JUMPDEST CALLVALUE DUP1 ISZERO PUSH2 0x360 JUMPI PUSH1 0x0 DUP1 REVERT JUMPDEST POP PUSH2 0x369 PUSH2 0xE93 JUMP JUMPDEST PUSH1 0x40 MLOAD PUSH2 0x376 SWAP2 SWAP1 PUSH2 0x106C JUMP JUMPDEST PUSH1 0x40 MLOAD DUP1 SWAP2 SUB SWAP1 RETURN JUMPDEST PUSH1 0x4 DUP1 SLOAD PUSH2 0x38C SWAP1 PUSH2 0x1665 JUMP JUMPDEST DUP1 PUSH1 0x1F ADD PUSH1 0x20 DUP1 SWAP2 DIV MUL PUSH1 0x20 ADD PUSH1 0x40 MLOAD SWAP1 DUP2 ADD PUSH1 0x40 MSTORE DUP1 SWAP3 SWAP2 SWAP1 DUP2 DUP2 MSTORE PUSH1 0x20 ADD DUP3 DUP1 SLOAD PUSH2 0x3B8 SWAP1 PUSH2 0x1665 JUMP JUMPDEST DUP1 ISZERO PUSH2 0x405 JUMPI DUP1 PUSH1 0x1F LT PUSH2 0x3DA JUMPI PUSH2 0x100 DUP1 DUP4 SLOAD DIV MUL DUP4 MSTORE SWAP2 PUSH1 0x20 ADD SWAP2 PUSH2 0x405 JUMP JUMPDEST DUP3 ADD SWAP2 SWAP1 PUSH1 0x0 MSTORE PUSH1 0x20 PUSH1 0x0 KECCAK256 SWAP1 JUMPDEST DUP2 SLOAD DUP2 MSTORE SWAP1 PUSH1 0x1 ADD SWAP1 PUSH1 0x20 ADD DUP1 DUP4 GT PUSH2 0x3E8 JUMPI DUP3 SWAP1 SUB PUSH1 0x1F AND DUP3 ADD SWAP2 JUMPDEST POP POP POP POP POP DUP2 JUMP JUMPDEST PUSH1 0x1 PUSH1 0x0 SWAP1 SLOAD SWAP1 PUSH2 0x100 EXP SWAP1 DIV PUSH20 0xFFFFFFFFFFFFFFFFFFFFFFFFFFFFFFFFFFFFFFFF AND DUP2 JUMP JUMPDEST PUSH1 0x9 SLOAD DUP2 JUMP JUMPDEST PUSH1 0x0 ISZERO ISZERO PUSH1 0xA PUSH1 0x0 SWAP1 SLOAD SWAP1 PUSH2 0x100 EXP SWAP1 DIV PUSH1 0xFF AND ISZERO ISZERO EQ PUSH2 0x459 JUMPI PUSH1 0x0 DUP1 REVERT JUMPDEST DUP8 DUP10 PUSH2 0x465 SWAP2 SWAP1 PUSH2 0x16C6 JUMP JUMPDEST CALLVALUE EQ PUSH2 0x4A6 JUMPI PUSH1 0x40 MLOAD PUSH32 0x8C379A000000000000000000000000000000000000000000000000000000000 DUP2 MSTORE PUSH1 0x4 ADD PUSH2 0x49D SWAP1 PUSH2 0x176C JUMP JUMPDEST PUSH1 0x40 MLOAD DUP1 SWAP2 SUB SWAP1 REVERT JUMPDEST PUSH1 0x0 PUSH1 0x7 SLOAD EQ DUP1 ISZERO PUSH2 0x4BA JUMPI POP PUSH1 0x0 PUSH1 0x8 SLOAD EQ JUMPDEST DUP1 ISZERO PUSH2 0x4C8 JUMPI POP PUSH1 0x0 PUSH1 0x9 SLOAD EQ JUMPDEST DUP1 ISZERO PUSH2 0x4E2 JUMPI POP TIMESTAMP PUSH1 0x8 SLOAD PUSH1 0x7 SLOAD PUSH2 0x4E0 SWAP2 SWAP1 PUSH2 0x178C JUMP JUMPDEST LT JUMPDEST DUP1 PUSH2 0x522 JUMPI POP TIMESTAMP PUSH1 0x8 SLOAD PUSH1 0x7 SLOAD PUSH2 0x4F9 SWAP2 SWAP1 PUSH2 0x178C JUMP JUMPDEST LT DUP1 ISZERO PUSH2 0x521 JUMPI POP PUSH1 0x9 SLOAD PUSH1 0x8 SLOAD PUSH1 0x7 SLOAD PUSH2 0x514 SWAP2 SWAP1 PUSH2 0x178C JUMP JUMPDEST PUSH2 0x51E SWAP2 SWAP1 PUSH2 0x178C JUMP JUMPDEST TIMESTAMP LT JUMPDEST JUMPDEST PUSH2 0x52B JUMPI PUSH1 0x0 DUP1 REVERT JUMPDEST DUP7 PUSH1 0x1 PUSH1 0x0 PUSH2 0x100 EXP DUP2 SLOAD DUP2 PUSH20 0xFFFFFFFFFFFFFFFFFFFFFFFFFFFFFFFFFFFFFFFF MUL NOT AND SWAP1 DUP4 PUSH20 0xFFFFFFFFFFFFFFFFFFFFFFFFFFFFFFFFFFFFFFFF AND MUL OR SWAP1 SSTORE POP DUP9 PUSH1 0x5 DUP2 SWAP1 SSTORE POP DUP8 PUSH1 0x6 DUP2 SWAP1 SSTORE POP PUSH1 0x0 DUP1 DUP2 SWAP1 SSTORE POP DUP6 PUSH1 0x2 DUP2 SWAP1 SSTORE POP DUP5 PUSH1 0x3 DUP2 SWAP1 SSTORE POP DUP4 PUSH1 0x4 SWAP1 DUP1 MLOAD SWAP1 PUSH1 0x20 ADD SWAP1 PUSH2 0x5A5 SWAP3 SWAP2 SWAP1 PUSH2 0xE99 JUMP JUMPDEST POP DUP9 PUSH1 0x5 DUP2 SWAP1 SSTORE POP DUP8 PUSH1 0x6 DUP2 SWAP1 SSTORE POP DUP3 PUSH1 0x7 DUP2 SWAP1 SSTORE POP DUP2 PUSH1 0x8 DUP2 SWAP1 SSTORE POP DUP1 PUSH1 0x9 DUP2 SWAP1 SSTORE POP POP POP POP POP POP POP POP POP POP JUMP JUMPDEST PUSH1 0x3 SLOAD DUP2 JUMP JUMPDEST PUSH1 0x1 PUSH1 0x0 SWAP1 SLOAD SWAP1 PUSH2 0x100 EXP SWAP1 DIV PUSH20 0xFFFFFFFFFFFFFFFFFFFFFFFFFFFFFFFFFFFFFFFF AND PUSH20 0xFFFFFFFFFFFFFFFFFFFFFFFFFFFFFFFFFFFFFFFF AND CALLER PUSH20 0xFFFFFFFFFFFFFFFFFFFFFFFFFFFFFFFFFFFFFFFF AND EQ PUSH2 0x66A JUMPI PUSH1 0x40 MLOAD PUSH32 0x8C379A000000000000000000000000000000000000000000000000000000000 DUP2 MSTORE PUSH1 0x4 ADD PUSH2 0x661 SWAP1 PUSH2 0x1854 JUMP JUMPDEST PUSH1 0x40 MLOAD DUP1 SWAP2 SUB SWAP1 REVERT JUMPDEST TIMESTAMP PUSH1 0x8 SLOAD PUSH1 0x7 SLOAD PUSH2 0x67B SWAP2 SWAP1 PUSH2 0x178C JUMP JUMPDEST LT PUSH2 0x6BB JUMPI PUSH1 0x40 MLOAD PUSH32 0x8C379A000000000000000000000000000000000000000000000000000000000 DUP2 MSTORE PUSH1 0x4 ADD PUSH2 0x6B2 SWAP1 PUSH2 0x18C0 JUMP JUMPDEST PUSH1 0x40 MLOAD DUP1 SWAP2 SUB SWAP1 REVERT JUMPDEST DUP1 PUSH20 0xFFFFFFFFFFFFFFFFFFFFFFFFFFFFFFFFFFFFFFFF AND SELFDESTRUCT JUMPDEST PUSH1 0x6 SLOAD DUP2 JUMP JUMPDEST PUSH1 0xA PUSH1 0x0 SWAP1 SLOAD SWAP1 PUSH2 0x100 EXP SWAP1 DIV PUSH1 0xFF AND DUP2 JUMP JUMPDEST PUSH1 0x2 SLOAD DUP2 JUMP JUMPDEST PUSH1 0x8 SLOAD DUP2 JUMP JUMPDEST PUSH1 0x0 ISZERO ISZERO PUSH1 0xA PUSH1 0x0 SWAP1 SLOAD SWAP1 PUSH2 0x100 EXP SWAP1 DIV PUSH1 0xFF AND ISZERO ISZERO EQ PUSH2 0x719 JUMPI PUSH1 0x0 DUP1 REVERT JUMPDEST DUP1 PUSH1 0x1 PUSH1 0x0 PUSH2 0x100 EXP DUP2 SLOAD DUP2 PUSH20 0xFFFFFFFFFFFFFFFFFFFFFFFFFFFFFFFFFFFFFFFF MUL NOT AND SWAP1 DUP4 PUSH20 0xFFFFFFFFFFFFFFFFFFFFFFFFFFFFFFFFFFFFFFFF AND MUL OR SWAP1 SSTORE POP DUP3 PUSH1 0x5 DUP2 SWAP1 SSTORE POP DUP2 PUSH1 0x6 DUP2 SWAP1 SSTORE POP PUSH1 0x0 CALLVALUE EQ PUSH2 0x7BE JUMPI DUP2 DUP4 PUSH2 0x77C SWAP2 SWAP1 PUSH2 0x16C6 JUMP JUMPDEST CALLVALUE EQ PUSH2 0x7BD JUMPI PUSH1 0x40 MLOAD PUSH32 0x8C379A000000000000000000000000000000000000000000000000000000000 DUP2 MSTORE PUSH1 0x4 ADD PUSH2 0x7B4 SWAP1 PUSH2 0x176C JUMP JUMPDEST PUSH1 0x40 MLOAD DUP1 SWAP2 SUB SWAP1 REVERT JUMPDEST JUMPDEST POP POP POP JUMP JUMPDEST PUSH1 0x0 SLOAD DUP2 JUMP JUMPDEST PUSH1 0x5 SLOAD DUP2 JUMP JUMPDEST PUSH1 0x8 SLOAD PUSH1 0x7 SLOAD PUSH2 0x7DF SWAP2 SWAP1 PUSH2 0x178C JUMP JUMPDEST TIMESTAMP LT PUSH2 0x820 JUMPI PUSH1 0x40 MLOAD PUSH32 0x8C379A000000000000000000000000000000000000000000000000000000000 DUP2 MSTORE PUSH1 0x4 ADD PUSH2 0x817 SWAP1 PUSH2 0x18C0 JUMP JUMPDEST PUSH1 0x40 MLOAD DUP1 SWAP2 SUB SWAP1 REVERT JUMPDEST PUSH1 0x0 SLOAD DUP3 GT PUSH2 0x864 JUMPI PUSH1 0x40 MLOAD PUSH32 0x8C379A000000000000000000000000000000000000000000000000000000000 DUP2 MSTORE PUSH1 0x4 ADD PUSH2 0x85B SWAP1 PUSH2 0x192C JUMP JUMPDEST PUSH1 0x40 MLOAD DUP1 SWAP2 SUB SWAP1 REVERT JUMPDEST PUSH1 0x0 DUP1 DUP6 PUSH2 0x871 SWAP1 PUSH2 0x1989 JUMP JUMPDEST SWAP1 POP PUSH1 0x0 DUP6 PUSH2 0x87F SWAP1 PUSH2 0x1989 JUMP JUMPDEST SWAP1 POP PUSH1 0x0 DUP1 SLOAD DUP7 PUSH2 0x890 SWAP2 SWAP1 PUSH2 0x19F0 JUMP JUMPDEST SWAP1 POP JUMPDEST PUSH1 0x0 DUP2 EQ PUSH2 0x990 JUMPI PUSH1 0x2 DUP4 PUSH1 0x40 MLOAD PUSH1 0x20 ADD PUSH2 0x8AE SWAP2 SWAP1 PUSH2 0x1A45 JUMP JUMPDEST PUSH1 0x40 MLOAD PUSH1 0x20 DUP2 DUP4 SUB SUB DUP2 MSTORE SWAP1 PUSH1 0x40 MSTORE PUSH1 0x40 MLOAD PUSH2 0x8CA SWAP2 SWAP1 PUSH2 0x1A9C JUMP JUMPDEST PUSH1 0x20 PUSH1 0x40 MLOAD DUP1 DUP4 SUB DUP2 DUP6 GAS STATICCALL ISZERO DUP1 ISZERO PUSH2 0x8E7 JUMPI RETURNDATASIZE PUSH1 0x0 DUP1 RETURNDATACOPY RETURNDATASIZE PUSH1 0x0 REVERT JUMPDEST POP POP POP PUSH1 0x40 MLOAD RETURNDATASIZE PUSH1 0x1F NOT PUSH1 0x1F DUP3 ADD AND DUP3 ADD DUP1 PUSH1 0x40 MSTORE POP DUP2 ADD SWAP1 PUSH2 0x90A SWAP2 SWAP1 PUSH2 0x1AC8 JUMP JUMPDEST SWAP3 POP PUSH1 0x2 DUP3 PUSH1 0x40 MLOAD PUSH1 0x20 ADD PUSH2 0x91F SWAP2 SWAP1 PUSH2 0x1A45 JUMP JUMPDEST PUSH1 0x40 MLOAD PUSH1 0x20 DUP2 DUP4 SUB SUB DUP2 MSTORE SWAP1 PUSH1 0x40 MSTORE PUSH1 0x40 MLOAD PUSH2 0x93B SWAP2 SWAP1 PUSH2 0x1A9C JUMP JUMPDEST PUSH1 0x20 PUSH1 0x40 MLOAD DUP1 DUP4 SUB DUP2 DUP6 GAS STATICCALL ISZERO DUP1 ISZERO PUSH2 0x958 JUMPI RETURNDATASIZE PUSH1 0x0 DUP1 RETURNDATACOPY RETURNDATASIZE PUSH1 0x0 REVERT JUMPDEST POP POP POP PUSH1 0x40 MLOAD RETURNDATASIZE PUSH1 0x1F NOT PUSH1 0x1F DUP3 ADD AND DUP3 ADD DUP1 PUSH1 0x40 MSTORE POP DUP2 ADD SWAP1 PUSH2 0x97B SWAP2 SWAP1 PUSH2 0x1AC8 JUMP JUMPDEST SWAP2 POP DUP1 DUP1 PUSH2 0x988 SWAP1 PUSH2 0x1AF5 JUMP JUMPDEST SWAP2 POP POP PUSH2 0x893 JUMP JUMPDEST DUP3 PUSH1 0x2 SLOAD EQ PUSH2 0x9D4 JUMPI PUSH1 0x40 MLOAD PUSH32 0x8C379A000000000000000000000000000000000000000000000000000000000 DUP2 MSTORE PUSH1 0x4 ADD PUSH2 0x9CB SWAP1 PUSH2 0x1B6B JUMP JUMPDEST PUSH1 0x40 MLOAD DUP1 SWAP2 SUB SWAP1 REVERT JUMPDEST DUP2 PUSH1 0x3 SLOAD EQ PUSH2 0xA18 JUMPI PUSH1 0x40 MLOAD PUSH32 0x8C379A000000000000000000000000000000000000000000000000000000000 DUP2 MSTORE PUSH1 0x4 ADD PUSH2 0xA0F SWAP1 PUSH2 0x1BD7 JUMP JUMPDEST PUSH1 0x40 MLOAD DUP1 SWAP2 SUB SWAP1 REVERT JUMPDEST PUSH1 0x0 PUSH1 0x2 DUP8 PUSH2 0xA27 SWAP2 SWAP1 PUSH2 0x1C26 JUMP JUMPDEST EQ ISZERO PUSH2 0xA75 JUMPI PUSH1 0x2 PUSH1 0x0 SLOAD DUP8 PUSH2 0xA3D SWAP2 SWAP1 PUSH2 0x19F0 JUMP JUMPDEST PUSH2 0xA47 SWAP2 SWAP1 PUSH2 0x1C57 JUMP JUMPDEST SWAP4 POP DUP6 PUSH1 0x0 DUP2 SWAP1 SSTORE POP DUP8 PUSH2 0xA5A SWAP1 PUSH2 0x1989 JUMP JUMPDEST PUSH1 0x2 DUP2 SWAP1 SSTORE POP DUP7 PUSH2 0xA6A SWAP1 PUSH2 0x1989 JUMP JUMPDEST PUSH1 0x3 DUP2 SWAP1 SSTORE POP PUSH2 0xC00 JUMP JUMPDEST PUSH1 0x2 PUSH1 0x1 PUSH1 0x0 SLOAD DUP9 PUSH2 0xA87 SWAP2 SWAP1 PUSH2 0x19F0 JUMP JUMPDEST PUSH2 0xA91 SWAP2 SWAP1 PUSH2 0x19F0 JUMP JUMPDEST PUSH2 0xA9B SWAP2 SWAP1 PUSH2 0x1C57 JUMP JUMPDEST SWAP4 POP PUSH1 0x1 DUP7 PUSH2 0xAAA SWAP2 SWAP1 PUSH2 0x19F0 JUMP JUMPDEST PUSH1 0x0 DUP2 SWAP1 SSTORE POP PUSH1 0x0 DUP9 PUSH2 0xABC SWAP1 PUSH2 0x1989 JUMP JUMPDEST SWAP1 POP PUSH1 0x0 DUP9 PUSH2 0xACA SWAP1 PUSH2 0x1989 JUMP JUMPDEST SWAP1 POP PUSH1 0x0 DUP1 SLOAD DUP10 PUSH2 0xADB SWAP2 SWAP1 PUSH2 0x19F0 JUMP JUMPDEST SWAP1 POP JUMPDEST PUSH1 0x0 DUP2 EQ PUSH2 0xBDB JUMPI PUSH1 0x2 DUP4 PUSH1 0x40 MLOAD PUSH1 0x20 ADD PUSH2 0xAF9 SWAP2 SWAP1 PUSH2 0x1A45 JUMP JUMPDEST PUSH1 0x40 MLOAD PUSH1 0x20 DUP2 DUP4 SUB SUB DUP2 MSTORE SWAP1 PUSH1 0x40 MSTORE PUSH1 0x40 MLOAD PUSH2 0xB15 SWAP2 SWAP1 PUSH2 0x1A9C JUMP JUMPDEST PUSH1 0x20 PUSH1 0x40 MLOAD DUP1 DUP4 SUB DUP2 DUP6 GAS STATICCALL ISZERO DUP1 ISZERO PUSH2 0xB32 JUMPI RETURNDATASIZE PUSH1 0x0 DUP1 RETURNDATACOPY RETURNDATASIZE PUSH1 0x0 REVERT JUMPDEST POP POP POP PUSH1 0x40 MLOAD RETURNDATASIZE PUSH1 0x1F NOT PUSH1 0x1F DUP3 ADD AND DUP3 ADD DUP1 PUSH1 0x40 MSTORE POP DUP2 ADD SWAP1 PUSH2 0xB55 SWAP2 SWAP1 PUSH2 0x1AC8 JUMP JUMPDEST SWAP3 POP PUSH1 0x2 DUP3 PUSH1 0x40 MLOAD PUSH1 0x20 ADD PUSH2 0xB6A SWAP2 SWAP1 PUSH2 0x1A45 JUMP JUMPDEST PUSH1 0x40 MLOAD PUSH1 0x20 DUP2 DUP4 SUB SUB DUP2 MSTORE SWAP1 PUSH1 0x40 MSTORE PUSH1 0x40 MLOAD PUSH2 0xB86 SWAP2 SWAP1 PUSH2 0x1A9C JUMP JUMPDEST PUSH1 0x20 PUSH1 0x40 MLOAD DUP1 DUP4 SUB DUP2 DUP6 GAS STATICCALL ISZERO DUP1 ISZERO PUSH2 0xBA3 JUMPI RETURNDATASIZE PUSH1 0x0 DUP1 RETURNDATACOPY RETURNDATASIZE PUSH1 0x0 REVERT JUMPDEST POP POP POP PUSH1 0x40 MLOAD RETURNDATASIZE PUSH1 0x1F NOT PUSH1 0x1F DUP3 ADD AND DUP3 ADD DUP1 PUSH1 0x40 MSTORE POP DUP2 ADD SWAP1 PUSH2 0xBC6 SWAP2 SWAP1 PUSH2 0x1AC8 JUMP JUMPDEST SWAP2 POP DUP1 DUP1 PUSH2 0xBD3 SWAP1 PUSH2 0x1AF5 JUMP JUMPDEST SWAP2 POP POP PUSH2 0xADE JUMP JUMPDEST PUSH1 0x1 DUP10 PUSH2 0xBE8 SWAP2 SWAP1 PUSH2 0x19F0 JUMP JUMPDEST PUSH1 0x0 DUP2 SWAP1 SSTORE POP DUP3 PUSH1 0x2 DUP2 SWAP1 SSTORE POP DUP2 PUSH1 0x3 DUP2 SWAP1 SSTORE POP POP POP POP JUMPDEST PUSH1 0x0 PUSH20 0xFFFFFFFFFFFFFFFFFFFFFFFFFFFFFFFFFFFFFFFF AND DUP6 PUSH20 0xFFFFFFFFFFFFFFFFFFFFFFFFFFFFFFFFFFFFFFFF AND EQ PUSH2 0xCAF JUMPI DUP5 PUSH20 0xFFFFFFFFFFFFFFFFFFFFFFFFFFFFFFFFFFFFFFFF AND PUSH1 0x6 SLOAD DUP6 PUSH2 0xC59 SWAP2 SWAP1 PUSH2 0x16C6 JUMP JUMPDEST PUSH1 0x40 MLOAD PUSH2 0xC65 SWAP1 PUSH2 0x1CAE JUMP JUMPDEST PUSH1 0x0 PUSH1 0x40 MLOAD DUP1 DUP4 SUB DUP2 DUP6 DUP8 GAS CALL SWAP3 POP POP POP RETURNDATASIZE DUP1 PUSH1 0x0 DUP2 EQ PUSH2 0xCA2 JUMPI PUSH1 0x40 MLOAD SWAP2 POP PUSH1 0x1F NOT PUSH1 0x3F RETURNDATASIZE ADD AND DUP3 ADD PUSH1 0x40 MSTORE RETURNDATASIZE DUP3 MSTORE RETURNDATASIZE PUSH1 0x0 PUSH1 0x20 DUP5 ADD RETURNDATACOPY PUSH2 0xCA7 JUMP JUMPDEST PUSH1 0x60 SWAP2 POP JUMPDEST POP POP POP PUSH2 0xD04 JUMP JUMPDEST CALLER PUSH20 0xFFFFFFFFFFFFFFFFFFFFFFFFFFFFFFFFFFFFFFFF AND PUSH2 0x8FC PUSH1 0x6 SLOAD DUP7 PUSH2 0xCD7 SWAP2 SWAP1 PUSH2 0x16C6 JUMP JUMPDEST SWAP1 DUP2 ISZERO MUL SWAP1 PUSH1 0x40 MLOAD PUSH1 0x0 PUSH1 0x40 MLOAD DUP1 DUP4 SUB DUP2 DUP6 DUP9 DUP9 CALL SWAP4 POP POP POP POP ISZERO DUP1 ISZERO PUSH2 0xD02 JUMPI RETURNDATASIZE PUSH1 0x0 DUP1 RETURNDATACOPY RETURNDATASIZE PUSH1 0x0 REVERT JUMPDEST POP JUMPDEST POP POP POP POP POP POP POP POP JUMP JUMPDEST PUSH1 0x1 PUSH1 0x0 SWAP1 SLOAD SWAP1 PUSH2 0x100 EXP SWAP1 DIV PUSH20 0xFFFFFFFFFFFFFFFFFFFFFFFFFFFFFFFFFFFFFFFF AND PUSH20 0xFFFFFFFFFFFFFFFFFFFFFFFFFFFFFFFFFFFFFFFF AND CALLER PUSH20 0xFFFFFFFFFFFFFFFFFFFFFFFFFFFFFFFFFFFFFFFF AND EQ PUSH2 0xD9E JUMPI PUSH1 0x40 MLOAD PUSH32 0x8C379A000000000000000000000000000000000000000000000000000000000 DUP2 MSTORE PUSH1 0x4 ADD PUSH2 0xD95 SWAP1 PUSH2 0x1854 JUMP JUMPDEST PUSH1 0x40 MLOAD DUP1 SWAP2 SUB SWAP1 REVERT JUMPDEST DUP4 DUP6 PUSH2 0xDAA SWAP2 SWAP1 PUSH2 0x16C6 JUMP JUMPDEST SELFBALANCE EQ PUSH2 0xDB5 JUMPI PUSH1 0x0 DUP1 REVERT JUMPDEST PUSH1 0x0 PUSH1 0x7 SLOAD EQ DUP1 ISZERO PUSH2 0xDC9 JUMPI POP PUSH1 0x0 PUSH1 0x8 SLOAD EQ JUMPDEST DUP1 ISZERO PUSH2 0xDD7 JUMPI POP PUSH1 0x0 PUSH1 0x9 SLOAD EQ JUMPDEST DUP1 ISZERO PUSH2 0xDF1 JUMPI POP TIMESTAMP PUSH1 0x8 SLOAD PUSH1 0x7 SLOAD PUSH2 0xDEF SWAP2 SWAP1 PUSH2 0x178C JUMP JUMPDEST LT JUMPDEST DUP1 PUSH2 0xE31 JUMPI POP TIMESTAMP PUSH1 0x8 SLOAD PUSH1 0x7 SLOAD PUSH2 0xE08 SWAP2 SWAP1 PUSH2 0x178C JUMP JUMPDEST LT DUP1 ISZERO PUSH2 0xE30 JUMPI POP PUSH1 0x9 SLOAD PUSH1 0x8 SLOAD PUSH1 0x7 SLOAD PUSH2 0xE23 SWAP2 SWAP1 PUSH2 0x178C JUMP JUMPDEST PUSH2 0xE2D SWAP2 SWAP1 PUSH2 0x178C JUMP JUMPDEST TIMESTAMP LT JUMPDEST JUMPDEST PUSH2 0xE3A JUMPI PUSH1 0x0 DUP1 REVERT JUMPDEST PUSH1 0x0 DUP1 DUP2 SWAP1 SSTORE POP DUP8 PUSH1 0x2 DUP2 SWAP1 SSTORE POP DUP7 PUSH1 0x3 DUP2 SWAP1 SSTORE POP DUP6 PUSH1 0x4 SWAP1 DUP1 MLOAD SWAP1 PUSH1 0x20 ADD SWAP1 PUSH2 0xE65 SWAP3 SWAP2 SWAP1 PUSH2 0xE99 JUMP JUMPDEST POP DUP5 PUSH1 0x5 DUP2 SWAP1 SSTORE POP DUP4 PUSH1 0x6 DUP2 SWAP1 SSTORE POP DUP3 PUSH1 0x7 DUP2 SWAP1 SSTORE POP DUP2 PUSH1 0x8 DUP2 SWAP1 SSTORE POP DUP1 PUSH1 0x9 DUP2 SWAP1 SSTORE POP POP POP POP POP POP POP POP POP JUMP JUMPDEST PUSH1 0x7 SLOAD DUP2 JUMP JUMPDEST DUP3 DUP1 SLOAD PUSH2 0xEA5 SWAP1 PUSH2 0x1665 JUMP JUMPDEST SWAP1 PUSH1 0x0 MSTORE PUSH1 0x20 PUSH1 0x0 KECCAK256 SWAP1 PUSH1 0x1F ADD PUSH1 0x20 SWAP1 DIV DUP2 ADD SWAP3 DUP3 PUSH2 0xEC7 JUMPI PUSH1 0x0 DUP6 SSTORE PUSH2 0xF0E JUMP JUMPDEST DUP3 PUSH1 0x1F LT PUSH2 0xEE0 JUMPI DUP1 MLOAD PUSH1 0xFF NOT AND DUP4 DUP1 ADD OR DUP6 SSTORE PUSH2 0xF0E JUMP JUMPDEST DUP3 DUP1 ADD PUSH1 0x1 ADD DUP6 SSTORE DUP3 ISZERO PUSH2 0xF0E JUMPI SWAP2 DUP3 ADD JUMPDEST DUP3 DUP2 GT ISZERO PUSH2 0xF0D JUMPI DUP3 MLOAD DUP3 SSTORE SWAP2 PUSH1 0x20 ADD SWAP2 SWAP1 PUSH1 0x1 ADD SWAP1 PUSH2 0xEF2 JUMP JUMPDEST JUMPDEST POP SWAP1 POP PUSH2 0xF1B SWAP2 SWAP1 PUSH2 0xF1F JUMP JUMPDEST POP SWAP1 JUMP JUMPDEST JUMPDEST DUP1 DUP3 GT ISZERO PUSH2 0xF38 JUMPI PUSH1 0x0 DUP2 PUSH1 0x0 SWAP1 SSTORE POP PUSH1 0x1 ADD PUSH2 0xF20 JUMP JUMPDEST POP SWAP1 JUMP JUMPDEST PUSH1 0x0 DUP2 MLOAD SWAP1 POP SWAP2 SWAP1 POP JUMP JUMPDEST PUSH1 0x0 DUP3 DUP3 MSTORE PUSH1 0x20 DUP3 ADD SWAP1 POP SWAP3 SWAP2 POP POP JUMP JUMPDEST PUSH1 0x0 JUMPDEST DUP4 DUP2 LT ISZERO PUSH2 0xF76 JUMPI DUP1 DUP3 ADD MLOAD DUP2 DUP5 ADD MSTORE PUSH1 0x20 DUP2 ADD SWAP1 POP PUSH2 0xF5B JUMP JUMPDEST DUP4 DUP2 GT ISZERO PUSH2 0xF85 JUMPI PUSH1 0x0 DUP5 DUP5 ADD MSTORE JUMPDEST POP POP POP POP JUMP JUMPDEST PUSH1 0x0 PUSH1 0x1F NOT PUSH1 0x1F DUP4 ADD AND SWAP1 POP SWAP2 SWAP1 POP JUMP JUMPDEST PUSH1 0x0 PUSH2 0xFA7 DUP3 PUSH2 0xF3C JUMP JUMPDEST PUSH2 0xFB1 DUP2 DUP6 PUSH2 0xF47 JUMP JUMPDEST SWAP4 POP PUSH2 0xFC1 DUP2 DUP6 PUSH1 0x20 DUP7 ADD PUSH2 0xF58 JUMP JUMPDEST PUSH2 0xFCA DUP2 PUSH2 0xF8B JUMP JUMPDEST DUP5 ADD SWAP2 POP POP SWAP3 SWAP2 POP POP JUMP JUMPDEST PUSH1 0x0 PUSH1 0x20 DUP3 ADD SWAP1 POP DUP2 DUP2 SUB PUSH1 0x0 DUP4 ADD MSTORE PUSH2 0xFEF DUP2 DUP5 PUSH2 0xF9C JUMP JUMPDEST SWAP1 POP SWAP3 SWAP2 POP POP JUMP JUMPDEST PUSH1 0x0 PUSH20 0xFFFFFFFFFFFFFFFFFFFFFFFFFFFFFFFFFFFFFFFF DUP3 AND SWAP1 POP SWAP2 SWAP1 POP JUMP JUMPDEST PUSH1 0x0 PUSH2 0x1022 DUP3 PUSH2 0xFF7 JUMP JUMPDEST SWAP1 POP SWAP2 SWAP1 POP JUMP JUMPDEST PUSH2 0x1032 DUP2 PUSH2 0x1017 JUMP JUMPDEST DUP3 MSTORE POP POP JUMP JUMPDEST PUSH1 0x0 PUSH1 0x20 DUP3 ADD SWAP1 POP PUSH2 0x104D PUSH1 0x0 DUP4 ADD DUP5 PUSH2 0x1029 JUMP JUMPDEST SWAP3 SWAP2 POP POP JUMP JUMPDEST PUSH1 0x0 DUP2 SWAP1 POP SWAP2 SWAP1 POP JUMP JUMPDEST PUSH2 0x1066 DUP2 PUSH2 0x1053 JUMP JUMPDEST DUP3 MSTORE POP POP JUMP JUMPDEST PUSH1 0x0 PUSH1 0x20 DUP3 ADD SWAP1 POP PUSH2 0x1081 PUSH1 0x0 DUP4 ADD DUP5 PUSH2 0x105D JUMP JUMPDEST SWAP3 SWAP2 POP POP JUMP JUMPDEST PUSH1 0x0 PUSH1 0x40 MLOAD SWAP1 POP SWAP1 JUMP JUMPDEST PUSH1 0x0 DUP1 REVERT JUMPDEST PUSH1 0x0 DUP1 REVERT JUMPDEST PUSH2 0x10A4 DUP2 PUSH2 0x1053 JUMP JUMPDEST DUP2 EQ PUSH2 0x10AF JUMPI PUSH1 0x0 DUP1 REVERT JUMPDEST POP JUMP JUMPDEST PUSH1 0x0 DUP2 CALLDATALOAD SWAP1 POP PUSH2 0x10C1 DUP2 PUSH2 0x109B JUMP JUMPDEST SWAP3 SWAP2 POP POP JUMP JUMPDEST PUSH2 0x10D0 DUP2 PUSH2 0x1017 JUMP JUMPDEST DUP2 EQ PUSH2 0x10DB JUMPI PUSH1 0x0 DUP1 REVERT JUMPDEST POP JUMP JUMPDEST PUSH1 0x0 DUP2 CALLDATALOAD SWAP1 POP PUSH2 0x10ED DUP2 PUSH2 0x10C7 JUMP JUMPDEST SWAP3 SWAP2 POP POP JUMP JUMPDEST PUSH1 0x0 DUP2 SWAP1 POP SWAP2 SWAP1 POP JUMP JUMPDEST PUSH2 0x1106 DUP2 PUSH2 0x10F3 JUMP JUMPDEST DUP2 EQ PUSH2 0x1111 JUMPI PUSH1 0x0 DUP1 REVERT JUMPDEST POP JUMP JUMPDEST PUSH1 0x0 DUP2 CALLDATALOAD SWAP1 POP PUSH2 0x1123 DUP2 PUSH2 0x10FD JUMP JUMPDEST SWAP3 SWAP2 POP POP JUMP JUMPDEST PUSH1 0x0 DUP1 REVERT JUMPDEST PUSH1 0x0 DUP1 REVERT JUMPDEST PUSH32 0x4E487B7100000000000000000000000000000000000000000000000000000000 PUSH1 0x0 MSTORE PUSH1 0x41 PUSH1 0x4 MSTORE PUSH1 0x24 PUSH1 0x0 REVERT JUMPDEST PUSH2 0x116B DUP3 PUSH2 0xF8B JUMP JUMPDEST DUP2 ADD DUP2 DUP2 LT PUSH8 0xFFFFFFFFFFFFFFFF DUP3 GT OR ISZERO PUSH2 0x118A JUMPI PUSH2 0x1189 PUSH2 0x1133 JUMP JUMPDEST JUMPDEST DUP1 PUSH1 0x40 MSTORE POP POP POP JUMP JUMPDEST PUSH1 0x0 PUSH2 0x119D PUSH2 0x1087 JUMP JUMPDEST SWAP1 POP PUSH2 0x11A9 DUP3 DUP3 PUSH2 0x1162 JUMP JUMPDEST SWAP2 SWAP1 POP JUMP JUMPDEST PUSH1 0x0 PUSH8 0xFFFFFFFFFFFFFFFF DUP3 GT ISZERO PUSH2 0x11C9 JUMPI PUSH2 0x11C8 PUSH2 0x1133 JUMP JUMPDEST JUMPDEST PUSH2 0x11D2 DUP3 PUSH2 0xF8B JUMP JUMPDEST SWAP1 POP PUSH1 0x20 DUP2 ADD SWAP1 POP SWAP2 SWAP1 POP JUMP JUMPDEST DUP3 DUP2 DUP4 CALLDATACOPY PUSH1 0x0 DUP4 DUP4 ADD MSTORE POP POP POP JUMP JUMPDEST PUSH1 0x0 PUSH2 0x1201 PUSH2 0x11FC DUP5 PUSH2 0x11AE JUMP JUMPDEST PUSH2 0x1193 JUMP JUMPDEST SWAP1 POP DUP3 DUP2 MSTORE PUSH1 0x20 DUP2 ADD DUP5 DUP5 DUP5 ADD GT ISZERO PUSH2 0x121D JUMPI PUSH2 0x121C PUSH2 0x112E JUMP JUMPDEST JUMPDEST PUSH2 0x1228 DUP5 DUP3 DUP6 PUSH2 0x11DF JUMP JUMPDEST POP SWAP4 SWAP3 POP POP POP JUMP JUMPDEST PUSH1 0x0 DUP3 PUSH1 0x1F DUP4 ADD SLT PUSH2 0x1245 JUMPI PUSH2 0x1244 PUSH2 0x1129 JUMP JUMPDEST JUMPDEST DUP2 CALLDATALOAD PUSH2 0x1255 DUP5 DUP3 PUSH1 0x20 DUP7 ADD PUSH2 0x11EE JUMP JUMPDEST SWAP2 POP POP SWAP3 SWAP2 POP POP JUMP JUMPDEST PUSH1 0x0 DUP1 PUSH1 0x0 DUP1 PUSH1 0x0 DUP1 PUSH1 0x0 DUP1 PUSH1 0x0 PUSH2 0x120 DUP11 DUP13 SUB SLT ISZERO PUSH2 0x1281 JUMPI PUSH2 0x1280 PUSH2 0x1091 JUMP JUMPDEST JUMPDEST PUSH1 0x0 PUSH2 0x128F DUP13 DUP3 DUP14 ADD PUSH2 0x10B2 JUMP JUMPDEST SWAP10 POP POP PUSH1 0x20 PUSH2 0x12A0 DUP13 DUP3 DUP14 ADD PUSH2 0x10B2 JUMP JUMPDEST SWAP9 POP POP PUSH1 0x40 PUSH2 0x12B1 DUP13 DUP3 DUP14 ADD PUSH2 0x10DE JUMP JUMPDEST SWAP8 POP POP PUSH1 0x60 PUSH2 0x12C2 DUP13 DUP3 DUP14 ADD PUSH2 0x1114 JUMP JUMPDEST SWAP7 POP POP PUSH1 0x80 PUSH2 0x12D3 DUP13 DUP3 DUP14 ADD PUSH2 0x1114 JUMP JUMPDEST SWAP6 POP POP PUSH1 0xA0 DUP11 ADD CALLDATALOAD PUSH8 0xFFFFFFFFFFFFFFFF DUP2 GT ISZERO PUSH2 0x12F4 JUMPI PUSH2 0x12F3 PUSH2 0x1096 JUMP JUMPDEST JUMPDEST PUSH2 0x1300 DUP13 DUP3 DUP14 ADD PUSH2 0x1230 JUMP JUMPDEST SWAP5 POP POP PUSH1 0xC0 PUSH2 0x1311 DUP13 DUP3 DUP14 ADD PUSH2 0x10B2 JUMP JUMPDEST SWAP4 POP POP PUSH1 0xE0 PUSH2 0x1322 DUP13 DUP3 DUP14 ADD PUSH2 0x10B2 JUMP JUMPDEST SWAP3 POP POP PUSH2 0x100 PUSH2 0x1334 DUP13 DUP3 DUP14 ADD PUSH2 0x10B2 JUMP JUMPDEST SWAP2 POP POP SWAP3 SWAP6 SWAP9 POP SWAP3 SWAP6 SWAP9 POP SWAP3 SWAP6 SWAP9 JUMP JUMPDEST PUSH2 0x134D DUP2 PUSH2 0x10F3 JUMP JUMPDEST DUP3 MSTORE POP POP JUMP JUMPDEST PUSH1 0x0 PUSH1 0x20 DUP3 ADD SWAP1 POP PUSH2 0x1368 PUSH1 0x0 DUP4 ADD DUP5 PUSH2 0x1344 JUMP JUMPDEST SWAP3 SWAP2 POP POP JUMP JUMPDEST PUSH1 0x0 PUSH1 0x20 DUP3 DUP5 SUB SLT ISZERO PUSH2 0x1384 JUMPI PUSH2 0x1383 PUSH2 0x1091 JUMP JUMPDEST JUMPDEST PUSH1 0x0 PUSH2 0x1392 DUP5 DUP3 DUP6 ADD PUSH2 0x10DE JUMP JUMPDEST SWAP2 POP POP SWAP3 SWAP2 POP POP JUMP JUMPDEST PUSH1 0x0 DUP2 ISZERO ISZERO SWAP1 POP SWAP2 SWAP1 POP JUMP JUMPDEST PUSH2 0x13B0 DUP2 PUSH2 0x139B JUMP JUMPDEST DUP3 MSTORE POP POP JUMP JUMPDEST PUSH1 0x0 PUSH1 0x20 DUP3 ADD SWAP1 POP PUSH2 0x13CB PUSH1 0x0 DUP4 ADD DUP5 PUSH2 0x13A7 JUMP JUMPDEST SWAP3 SWAP2 POP POP JUMP JUMPDEST PUSH1 0x0 DUP1 PUSH1 0x0 PUSH1 0x60 DUP5 DUP7 SUB SLT ISZERO PUSH2 0x13EA JUMPI PUSH2 0x13E9 PUSH2 0x1091 JUMP JUMPDEST JUMPDEST PUSH1 0x0 PUSH2 0x13F8 DUP7 DUP3 DUP8 ADD PUSH2 0x10B2 JUMP JUMPDEST SWAP4 POP POP PUSH1 0x20 PUSH2 0x1409 DUP7 DUP3 DUP8 ADD PUSH2 0x10B2 JUMP JUMPDEST SWAP3 POP POP PUSH1 0x40 PUSH2 0x141A DUP7 DUP3 DUP8 ADD PUSH2 0x10DE JUMP JUMPDEST SWAP2 POP POP SWAP3 POP SWAP3 POP SWAP3 JUMP JUMPDEST PUSH1 0x0 PUSH8 0xFFFFFFFFFFFFFFFF DUP3 GT ISZERO PUSH2 0x143F JUMPI PUSH2 0x143E PUSH2 0x1133 JUMP JUMPDEST JUMPDEST PUSH2 0x1448 DUP3 PUSH2 0xF8B JUMP JUMPDEST SWAP1 POP PUSH1 0x20 DUP2 ADD SWAP1 POP SWAP2 SWAP1 POP JUMP JUMPDEST PUSH1 0x0 PUSH2 0x1468 PUSH2 0x1463 DUP5 PUSH2 0x1424 JUMP JUMPDEST PUSH2 0x1193 JUMP JUMPDEST SWAP1 POP DUP3 DUP2 MSTORE PUSH1 0x20 DUP2 ADD DUP5 DUP5 DUP5 ADD GT ISZERO PUSH2 0x1484 JUMPI PUSH2 0x1483 PUSH2 0x112E JUMP JUMPDEST JUMPDEST PUSH2 0x148F DUP5 DUP3 DUP6 PUSH2 0x11DF JUMP JUMPDEST POP SWAP4 SWAP3 POP POP POP JUMP JUMPDEST PUSH1 0x0 DUP3 PUSH1 0x1F DUP4 ADD SLT PUSH2 0x14AC JUMPI PUSH2 0x14AB PUSH2 0x1129 JUMP JUMPDEST JUMPDEST DUP2 CALLDATALOAD PUSH2 0x14BC DUP5 DUP3 PUSH1 0x20 DUP7 ADD PUSH2 0x1455 JUMP JUMPDEST SWAP2 POP POP SWAP3 SWAP2 POP POP JUMP JUMPDEST PUSH1 0x0 DUP1 PUSH1 0x0 DUP1 PUSH1 0x80 DUP6 DUP8 SUB SLT ISZERO PUSH2 0x14DF JUMPI PUSH2 0x14DE PUSH2 0x1091 JUMP JUMPDEST JUMPDEST PUSH1 0x0 DUP6 ADD CALLDATALOAD PUSH8 0xFFFFFFFFFFFFFFFF DUP2 GT ISZERO PUSH2 0x14FD JUMPI PUSH2 0x14FC PUSH2 0x1096 JUMP JUMPDEST JUMPDEST PUSH2 0x1509 DUP8 DUP3 DUP9 ADD PUSH2 0x1497 JUMP JUMPDEST SWAP5 POP POP PUSH1 0x20 DUP6 ADD CALLDATALOAD PUSH8 0xFFFFFFFFFFFFFFFF DUP2 GT ISZERO PUSH2 0x152A JUMPI PUSH2 0x1529 PUSH2 0x1096 JUMP JUMPDEST JUMPDEST PUSH2 0x1536 DUP8 DUP3 DUP9 ADD PUSH2 0x1497 JUMP JUMPDEST SWAP4 POP POP PUSH1 0x40 PUSH2 0x1547 DUP8 DUP3 DUP9 ADD PUSH2 0x10B2 JUMP JUMPDEST SWAP3 POP POP PUSH1 0x60 PUSH2 0x1558 DUP8 DUP3 DUP9 ADD PUSH2 0x10DE JUMP JUMPDEST SWAP2 POP POP SWAP3 SWAP6 SWAP2 SWAP5 POP SWAP3 POP JUMP JUMPDEST PUSH1 0x0 DUP1 PUSH1 0x0 DUP1 PUSH1 0x0 DUP1 PUSH1 0x0 DUP1 PUSH2 0x100 DUP10 DUP12 SUB SLT ISZERO PUSH2 0x1585 JUMPI PUSH2 0x1584 PUSH2 0x1091 JUMP JUMPDEST JUMPDEST PUSH1 0x0 PUSH2 0x1593 DUP12 DUP3 DUP13 ADD PUSH2 0x1114 JUMP JUMPDEST SWAP9 POP POP PUSH1 0x20 PUSH2 0x15A4 DUP12 DUP3 DUP13 ADD PUSH2 0x1114 JUMP JUMPDEST SWAP8 POP POP PUSH1 0x40 DUP10 ADD CALLDATALOAD PUSH8 0xFFFFFFFFFFFFFFFF DUP2 GT ISZERO PUSH2 0x15C5 JUMPI PUSH2 0x15C4 PUSH2 0x1096 JUMP JUMPDEST JUMPDEST PUSH2 0x15D1 DUP12 DUP3 DUP13 ADD PUSH2 0x1230 JUMP JUMPDEST SWAP7 POP POP PUSH1 0x60 PUSH2 0x15E2 DUP12 DUP3 DUP13 ADD PUSH2 0x10B2 JUMP JUMPDEST SWAP6 POP POP PUSH1 0x80 PUSH2 0x15F3 DUP12 DUP3 DUP13 ADD PUSH2 0x10B2 JUMP JUMPDEST SWAP5 POP POP PUSH1 0xA0 PUSH2 0x1604 DUP12 DUP3 DUP13 ADD PUSH2 0x10B2 JUMP JUMPDEST SWAP4 POP POP PUSH1 0xC0 PUSH2 0x1615 DUP12 DUP3 DUP13 ADD PUSH2 0x10B2 JUMP JUMPDEST SWAP3 POP POP PUSH1 0xE0 PUSH2 0x1626 DUP12 DUP3 DUP13 ADD PUSH2 0x10B2 JUMP JUMPDEST SWAP2 POP POP SWAP3 SWAP6 SWAP9 POP SWAP3 SWAP6 SWAP9 SWAP1 SWAP4 SWAP7 POP JUMP JUMPDEST PUSH32 0x4E487B7100000000000000000000000000000000000000000000000000000000 PUSH1 0x0 MSTORE PUSH1 0x22 PUSH1 0x4 MSTORE PUSH1 0x24 PUSH1 0x0 REVERT JUMPDEST PUSH1 0x0 PUSH1 0x2 DUP3 DIV SWAP1 POP PUSH1 0x1 DUP3 AND DUP1 PUSH2 0x167D JUMPI PUSH1 0x7F DUP3 AND SWAP2 POP JUMPDEST PUSH1 0x20 DUP3 LT DUP2 EQ ISZERO PUSH2 0x1691 JUMPI PUSH2 0x1690 PUSH2 0x1636 JUMP JUMPDEST JUMPDEST POP SWAP2 SWAP1 POP JUMP JUMPDEST PUSH32 0x4E487B7100000000000000000000000000000000000000000000000000000000 PUSH1 0x0 MSTORE PUSH1 0x11 PUSH1 0x4 MSTORE PUSH1 0x24 PUSH1 0x0 REVERT JUMPDEST PUSH1 0x0 PUSH2 0x16D1 DUP3 PUSH2 0x1053 JUMP JUMPDEST SWAP2 POP PUSH2 0x16DC DUP4 PUSH2 0x1053 JUMP JUMPDEST SWAP3 POP DUP2 PUSH32 0xFFFFFFFFFFFFFFFFFFFFFFFFFFFFFFFFFFFFFFFFFFFFFFFFFFFFFFFFFFFFFFFF DIV DUP4 GT DUP3 ISZERO ISZERO AND ISZERO PUSH2 0x1715 JUMPI PUSH2 0x1714 PUSH2 0x1697 JUMP JUMPDEST JUMPDEST DUP3 DUP3 MUL SWAP1 POP SWAP3 SWAP2 POP POP JUMP JUMPDEST PUSH32 0x62616C616E6365206572726F7200000000000000000000000000000000000000 PUSH1 0x0 DUP3 ADD MSTORE POP JUMP JUMPDEST PUSH1 0x0 PUSH2 0x1756 PUSH1 0xD DUP4 PUSH2 0xF47 JUMP JUMPDEST SWAP2 POP PUSH2 0x1761 DUP3 PUSH2 0x1720 JUMP JUMPDEST PUSH1 0x20 DUP3 ADD SWAP1 POP SWAP2 SWAP1 POP JUMP JUMPDEST PUSH1 0x0 PUSH1 0x20 DUP3 ADD SWAP1 POP DUP2 DUP2 SUB PUSH1 0x0 DUP4 ADD MSTORE PUSH2 0x1785 DUP2 PUSH2 0x1749 JUMP JUMPDEST SWAP1 POP SWAP2 SWAP1 POP JUMP JUMPDEST PUSH1 0x0 PUSH2 0x1797 DUP3 PUSH2 0x1053 JUMP JUMPDEST SWAP2 POP PUSH2 0x17A2 DUP4 PUSH2 0x1053 JUMP JUMPDEST SWAP3 POP DUP3 PUSH32 0xFFFFFFFFFFFFFFFFFFFFFFFFFFFFFFFFFFFFFFFFFFFFFFFFFFFFFFFFFFFFFFFF SUB DUP3 GT ISZERO PUSH2 0x17D7 JUMPI PUSH2 0x17D6 PUSH2 0x1697 JUMP JUMPDEST JUMPDEST DUP3 DUP3 ADD SWAP1 POP SWAP3 SWAP2 POP POP JUMP JUMPDEST PUSH32 0x4F6E6C7920637573746F6D6572206F66207468652064656C6976657279206361 PUSH1 0x0 DUP3 ADD MSTORE PUSH32 0x6E2073657420746865206368616E6E656C20706172616D732E00000000000000 PUSH1 0x20 DUP3 ADD MSTORE POP JUMP JUMPDEST PUSH1 0x0 PUSH2 0x183E PUSH1 0x39 DUP4 PUSH2 0xF47 JUMP JUMPDEST SWAP2 POP PUSH2 0x1849 DUP3 PUSH2 0x17E2 JUMP JUMPDEST PUSH1 0x40 DUP3 ADD SWAP1 POP SWAP2 SWAP1 POP JUMP JUMPDEST PUSH1 0x0 PUSH1 0x20 DUP3 ADD SWAP1 POP DUP2 DUP2 SUB PUSH1 0x0 DUP4 ADD MSTORE PUSH2 0x186D DUP2 PUSH2 0x1831 JUMP JUMPDEST SWAP1 POP SWAP2 SWAP1 POP JUMP JUMPDEST PUSH32 0x54696D65206572726F7200000000000000000000000000000000000000000000 PUSH1 0x0 DUP3 ADD MSTORE POP JUMP JUMPDEST PUSH1 0x0 PUSH2 0x18AA PUSH1 0xA DUP4 PUSH2 0xF47 JUMP JUMPDEST SWAP2 POP PUSH2 0x18B5 DUP3 PUSH2 0x1874 JUMP JUMPDEST PUSH1 0x20 DUP3 ADD SWAP1 POP SWAP2 SWAP1 POP JUMP JUMPDEST PUSH1 0x0 PUSH1 0x20 DUP3 ADD SWAP1 POP DUP2 DUP2 SUB PUSH1 0x0 DUP4 ADD MSTORE PUSH2 0x18D9 DUP2 PUSH2 0x189D JUMP JUMPDEST SWAP1 POP SWAP2 SWAP1 POP JUMP JUMPDEST PUSH32 0x6B203C3D206A0000000000000000000000000000000000000000000000000000 PUSH1 0x0 DUP3 ADD MSTORE POP JUMP JUMPDEST PUSH1 0x0 PUSH2 0x1916 PUSH1 0x6 DUP4 PUSH2 0xF47 JUMP JUMPDEST SWAP2 POP PUSH2 0x1921 DUP3 PUSH2 0x18E0 JUMP JUMPDEST PUSH1 0x20 DUP3 ADD SWAP1 POP SWAP2 SWAP1 POP JUMP JUMPDEST PUSH1 0x0 PUSH1 0x20 DUP3 ADD SWAP1 POP DUP2 DUP2 SUB PUSH1 0x0 DUP4 ADD MSTORE PUSH2 0x1945 DUP2 PUSH2 0x1909 JUMP JUMPDEST SWAP1 POP SWAP2 SWAP1 POP JUMP JUMPDEST PUSH1 0x0 DUP2 MLOAD SWAP1 POP SWAP2 SWAP1 POP JUMP JUMPDEST PUSH1 0x0 DUP2 SWAP1 POP PUSH1 0x20 DUP3 ADD SWAP1 POP SWAP2 SWAP1 POP JUMP JUMPDEST PUSH1 0x0 PUSH2 0x1973 DUP3 MLOAD PUSH2 0x10F3 JUMP JUMPDEST DUP1 SWAP2 POP POP SWAP2 SWAP1 POP JUMP JUMPDEST PUSH1 0x0 DUP3 DUP3 SHL SWAP1 POP SWAP3 SWAP2 POP POP JUMP JUMPDEST PUSH1 0x0 PUSH2 0x1994 DUP3 PUSH2 0x194C JUMP JUMPDEST DUP3 PUSH2 0x199E DUP5 PUSH2 0x1957 JUMP JUMPDEST SWAP1 POP PUSH2 0x19A9 DUP2 PUSH2 0x1967 JUMP JUMPDEST SWAP3 POP PUSH1 0x20 DUP3 LT ISZERO PUSH2 0x19E9 JUMPI PUSH2 0x19E4 PUSH32 0xFFFFFFFFFFFFFFFFFFFFFFFFFFFFFFFFFFFFFFFFFFFFFFFFFFFFFFFFFFFFFFFF DUP4 PUSH1 0x20 SUB PUSH1 0x8 MUL PUSH2 0x197C JUMP JUMPDEST DUP4 AND SWAP3 POP JUMPDEST POP POP SWAP2 SWAP1 POP JUMP JUMPDEST PUSH1 0x0 PUSH2 0x19FB DUP3 PUSH2 0x1053 JUMP JUMPDEST SWAP2 POP PUSH2 0x1A06 DUP4 PUSH2 0x1053 JUMP JUMPDEST SWAP3 POP DUP3 DUP3 LT ISZERO PUSH2 0x1A19 JUMPI PUSH2 0x1A18 PUSH2 0x1697 JUMP JUMPDEST JUMPDEST DUP3 DUP3 SUB SWAP1 POP SWAP3 SWAP2 POP POP JUMP JUMPDEST PUSH1 0x0 DUP2 SWAP1 POP SWAP2 SWAP1 POP JUMP JUMPDEST PUSH2 0x1A3F PUSH2 0x1A3A DUP3 PUSH2 0x10F3 JUMP JUMPDEST PUSH2 0x1A24 JUMP JUMPDEST DUP3 MSTORE POP POP JUMP JUMPDEST PUSH1 0x0 PUSH2 0x1A51 DUP3 DUP5 PUSH2 0x1A2E JUMP JUMPDEST PUSH1 0x20 DUP3 ADD SWAP2 POP DUP2 SWAP1 POP SWAP3 SWAP2 POP POP JUMP JUMPDEST PUSH1 0x0 DUP2 SWAP1 POP SWAP3 SWAP2 POP POP JUMP JUMPDEST PUSH1 0x0 PUSH2 0x1A76 DUP3 PUSH2 0x194C JUMP JUMPDEST PUSH2 0x1A80 DUP2 DUP6 PUSH2 0x1A60 JUMP JUMPDEST SWAP4 POP PUSH2 0x1A90 DUP2 DUP6 PUSH1 0x20 DUP7 ADD PUSH2 0xF58 JUMP JUMPDEST DUP1 DUP5 ADD SWAP2 POP POP SWAP3 SWAP2 POP POP JUMP JUMPDEST PUSH1 0x0 PUSH2 0x1AA8 DUP3 DUP5 PUSH2 0x1A6B JUMP JUMPDEST SWAP2 POP DUP2 SWAP1 POP SWAP3 SWAP2 POP POP JUMP JUMPDEST PUSH1 0x0 DUP2 MLOAD SWAP1 POP PUSH2 0x1AC2 DUP2 PUSH2 0x10FD JUMP JUMPDEST SWAP3 SWAP2 POP POP JUMP JUMPDEST PUSH1 0x0 PUSH1 0x20 DUP3 DUP5 SUB SLT ISZERO PUSH2 0x1ADE JUMPI PUSH2 0x1ADD PUSH2 0x1091 JUMP JUMPDEST JUMPDEST PUSH1 0x0 PUSH2 0x1AEC DUP5 DUP3 DUP6 ADD PUSH2 0x1AB3 JUMP JUMPDEST SWAP2 POP POP SWAP3 SWAP2 POP POP JUMP JUMPDEST PUSH1 0x0 PUSH2 0x1B00 DUP3 PUSH2 0x1053 JUMP JUMPDEST SWAP2 POP PUSH1 0x0 DUP3 EQ ISZERO PUSH2 0x1B14 JUMPI PUSH2 0x1B13 PUSH2 0x1697 JUMP JUMPDEST JUMPDEST PUSH1 0x1 DUP3 SUB SWAP1 POP SWAP2 SWAP1 POP JUMP JUMPDEST PUSH32 0x575F6B6D20697320696E636F7272656374000000000000000000000000000000 PUSH1 0x0 DUP3 ADD MSTORE POP JUMP JUMPDEST PUSH1 0x0 PUSH2 0x1B55 PUSH1 0x11 DUP4 PUSH2 0xF47 JUMP JUMPDEST SWAP2 POP PUSH2 0x1B60 DUP3 PUSH2 0x1B1F JUMP JUMPDEST PUSH1 0x20 DUP3 ADD SWAP1 POP SWAP2 SWAP1 POP JUMP JUMPDEST PUSH1 0x0 PUSH1 0x20 DUP3 ADD SWAP1 POP DUP2 DUP2 SUB PUSH1 0x0 DUP4 ADD MSTORE PUSH2 0x1B84 DUP2 PUSH2 0x1B48 JUMP JUMPDEST SWAP1 POP SWAP2 SWAP1 POP JUMP JUMPDEST PUSH32 0x575F6B6320697320696E636F7272656374000000000000000000000000000000 PUSH1 0x0 DUP3 ADD MSTORE POP JUMP JUMPDEST PUSH1 0x0 PUSH2 0x1BC1 PUSH1 0x11 DUP4 PUSH2 0xF47 JUMP JUMPDEST SWAP2 POP PUSH2 0x1BCC DUP3 PUSH2 0x1B8B JUMP JUMPDEST PUSH1 0x20 DUP3 ADD SWAP1 POP SWAP2 SWAP1 POP JUMP JUMPDEST PUSH1 0x0 PUSH1 0x20 DUP3 ADD SWAP1 POP DUP2 DUP2 SUB PUSH1 0x0 DUP4 ADD MSTORE PUSH2 0x1BF0 DUP2 PUSH2 0x1BB4 JUMP JUMPDEST SWAP1 POP SWAP2 SWAP1 POP JUMP JUMPDEST PUSH32 0x4E487B7100000000000000000000000000000000000000000000000000000000 PUSH1 0x0 MSTORE PUSH1 0x12 PUSH1 0x4 MSTORE PUSH1 0x24 PUSH1 0x0 REVERT JUMPDEST PUSH1 0x0 PUSH2 0x1C31 DUP3 PUSH2 0x1053 JUMP JUMPDEST SWAP2 POP PUSH2 0x1C3C DUP4 PUSH2 0x1053 JUMP JUMPDEST SWAP3 POP DUP3 PUSH2 0x1C4C JUMPI PUSH2 0x1C4B PUSH2 0x1BF7 JUMP JUMPDEST JUMPDEST DUP3 DUP3 MOD SWAP1 POP SWAP3 SWAP2 POP POP JUMP JUMPDEST PUSH1 0x0 PUSH2 0x1C62 DUP3 PUSH2 0x1053 JUMP JUMPDEST SWAP2 POP PUSH2 0x1C6D DUP4 PUSH2 0x1053 JUMP JUMPDEST SWAP3 POP DUP3 PUSH2 0x1C7D JUMPI PUSH2 0x1C7C PUSH2 0x1BF7 JUMP JUMPDEST JUMPDEST DUP3 DUP3 DIV SWAP1 POP SWAP3 SWAP2 POP POP JUMP JUMPDEST POP JUMP JUMPDEST PUSH1 0x0 PUSH2 0x1C98 PUSH1 0x0 DUP4 PUSH2 0x1A60 JUMP JUMPDEST SWAP2 POP PUSH2 0x1CA3 DUP3 PUSH2 0x1C88 JUMP JUMPDEST PUSH1 0x0 DUP3 ADD SWAP1 POP SWAP2 SWAP1 POP JUMP JUMPDEST PUSH1 0x0 PUSH2 0x1CB9 DUP3 PUSH2 0x1C8B JUMP JUMPDEST SWAP2 POP DUP2 SWAP1 POP SWAP2 SWAP1 POP JUMP INVALID LOG2 PUSH5 0x6970667358 0x22 SLT KECCAK256 BYTE JUMPDEST LT 0x1E SWAP4 0xF9 BALANCE COINBASE SWAP1 0x21 0xAA MSTORE8 DUP2 0x4C 0xC9 DUP15 0xCF 0xD9 0xD9 0xA7 LOG3 0xD3 0xDE CALLER 0xB0 PUSH29 0x2099AA6722BC64736F6C63430008090033000000000000000000000000 "
    },
    "gasEstimates": {
      "creation": {
        "codeDepositCost": "1483400",
        "executionCost": "25815",
        "totalCost": "1509215"
      },
      "external": {
        "": "197",
        "S_id()": "infinite",
        "TD()": "2474",
        "TR()": "2497",
        "T_exp()": "2517",
        "W_jc()": "2452",
        "W_jm()": "2452",
        "c()": "2451",
        "channelClose(address)": "infinite",
        "customer()": "2560",
        "initialize(uint256,uint256,address)": "infinite",
        "initialize(uint256,uint256,address,bytes32,bytes32,string,uint256,uint256,uint256)": "infinite",
        "isBase()": "2560",
        "j()": "2518",
        "setChannelParams(bytes32,bytes32,string,uint256,uint256,uint256,uint256,uint256)": "infinite",
        "transferDeposit(bytes,bytes,uint256,address)": "infinite",
        "v()": "2496"
      }
    },
    "methodIdentifiers": {
      "S_id()": "24763493",
      "TD()": "9c21a9b8",
      "TR()": "34133df9",
      "T_exp()": "f493e870",
      "W_jc()": "5e650318",
      "W_jm()": "88bf1930",
      "c()": "c3da42b8",
      "channelClose(address)": "7ae9eb7e",
      "customer()": "2804b2c0",
      "initialize(uint256,uint256,address)": "a6ab36f2",
      "initialize(uint256,uint256,address,bytes32,bytes32,string,uint256,uint256,uint256)": "50b1ad6b",
      "isBase()": "7f80069a",
      "j()": "b582ec5f",
      "setChannelParams(bytes32,bytes32,string,uint256,uint256,uint256,uint256,uint256)": "e8de68cc",
      "transferDeposit(bytes,bytes,uint256,address)": "d8befbb6",
      "v()": "7c2efcba"
    }
  },
  "storageLayout": {
    "storage": [
      {
        "astId": 231,
        "contract": "channel.sol:channel",
        "label": "j",
        "offset": 0,
        "slot": "0",
        "type": "t_uint256"
      },
      {
        "astId": 233,
        "contract": "channel.sol:channel",
        "label": "customer",
        "offset": 0,
        "slot": "1",
        "type": "t_address"
      },
      {
        "astId": 235,
        "contract": "channel.sol:channel",
        "label": "W_jm",
        "offset": 0,
        "slot": "2",
        "type": "t_bytes32"
      },
      {
        "astId": 237,
        "contract": "channel.sol:channel",
        "label": "W_jc",
        "offset": 0,
        "slot": "3",
        "type": "t_bytes32"
      },
      {
        "astId": 239,
        "contract": "channel.sol:channel",
        "label": "S_id",
        "offset": 0,
        "slot": "4",
        "type": "t_string_storage"
      },
      {
        "astId": 241,
        "contract": "channel.sol:channel",
        "label": "c",
        "offset": 0,
        "slot": "5",
        "type": "t_uint256"
      },
      {
        "astId": 243,
        "contract": "channel.sol:channel",
        "label": "v",
        "offset": 0,
        "slot": "6",
        "type": "t_uint256"
      },
      {
        "astId": 245,
        "contract": "channel.sol:channel",
        "label": "T_exp",
        "offset": 0,
        "slot": "7",
        "type": "t_uint256"
      },
      {
        "astId": 247,
        "contract": "channel.sol:channel",
        "label": "TD",
        "offset": 0,
        "slot": "8",
        "type": "t_uint256"
      },
      {
        "astId": 249,
        "contract": "channel.sol:channel",
        "label": "TR",
        "offset": 0,
        "slot": "9",
        "type": "t_uint256"
      },
      {
        "astId": 251,
        "contract": "channel.sol:channel",
        "label": "isBase",
        "offset": 0,
        "slot": "10",
        "type": "t_bool"
      }
    ],
    "types": {
      "t_address": {
        "encoding": "inplace",
        "label": "address",
        "numberOfBytes": "20"
      },
      "t_bool": {
        "encoding": "inplace",
        "label": "bool",
        "numberOfBytes": "1"
      },
      "t_bytes32": {
        "encoding": "inplace",
        "label": "bytes32",
        "numberOfBytes": "32"
      },
      "t_string_storage": {
        "encoding": "bytes",
        "label": "string",
        "numberOfBytes": "32"
      },
      "t_uint256": {
        "encoding": "inplace",
        "label": "uint256",
        "numberOfBytes": "32"
      }
    }
  },
  "userdoc": {
    "kind": "user",
    "methods": {},
    "version": 1
  }
}