{
  "abi": [
    {
      "inputs": [],
      "stateMutability": "nonpayable",
      "type": "constructor",
      "signature": "constructor"
    },
    {
      "inputs": [
        {
          "internalType": "uint256",
          "name": "",
          "type": "uint256"
        }
      ],
      "name": "channels",
      "outputs": [
        {
          "internalType": "address",
          "name": "",
          "type": "address"
        }
      ],
      "stateMutability": "view",
      "type": "function",
      "constant": true,
      "signature": "0xe5949b5d"
    },
    {
      "inputs": [
        {
          "internalType": "uint256",
          "name": "_c",
          "type": "uint256"
        },
        {
          "internalType": "uint256",
          "name": "_v",
          "type": "uint256"
        },
        {
          "internalType": "bytes32",
          "name": "_W_jm",
          "type": "bytes32"
        },
        {
          "internalType": "bytes32",
          "name": "_W_jc",
          "type": "bytes32"
        },
        {
          "internalType": "string",
          "name": "_S_id",
          "type": "string"
        },
        {
          "internalType": "uint256",
          "name": "_T_exp",
          "type": "uint256"
        },
        {
          "internalType": "uint256",
          "name": "_TD",
          "type": "uint256"
        },
        {
          "internalType": "uint256",
          "name": "_TR",
          "type": "uint256"
        }
      ],
      "name": "createChannel",
      "outputs": [
        {
          "internalType": "address payable",
          "name": "",
          "type": "address"
        }
      ],
      "stateMutability": "payable",
      "type": "function",
      "payable": true,
      "signature": "0x7443599a"
    },
    {
      "inputs": [
        {
          "internalType": "uint256",
          "name": "_c",
          "type": "uint256"
        },
        {
          "internalType": "uint256",
          "name": "_v",
          "type": "uint256"
        }
      ],
      "name": "createChannel",
      "outputs": [
        {
          "internalType": "address payable",
          "name": "",
          "type": "address"
        }
      ],
      "stateMutability": "payable",
      "type": "function",
      "payable": true,
      "signature": "0x77b6198f"
    },
    {
      "inputs": [
        {
          "internalType": "uint256",
          "name": "index",
          "type": "uint256"
        }
      ],
      "name": "getChannels",
      "outputs": [
        {
          "internalType": "address",
          "name": "",
          "type": "address"
        }
      ],
      "stateMutability": "view",
      "type": "function",
      "constant": true,
      "signature": "0xe6359779"
    },
    {
      "inputs": [],
      "name": "getChannelsCount",
      "outputs": [
        {
          "internalType": "uint256",
          "name": "count",
          "type": "uint256"
        }
      ],
      "stateMutability": "view",
      "type": "function",
      "constant": true,
      "signature": "0x502512cb"
    },
    {
      "inputs": [
        {
          "internalType": "address",
          "name": "_owner",
          "type": "address"
        }
      ],
      "name": "getOwnerChannels",
      "outputs": [
        {
          "internalType": "address[]",
          "name": "",
          "type": "address[]"
        }
      ],
      "stateMutability": "view",
      "type": "function",
      "constant": true,
      "signature": "0xe156b0d0"
    },
    {
      "inputs": [
        {
          "internalType": "address",
          "name": "_owner",
          "type": "address"
        }
      ],
      "name": "getOwnerChannelsCount",
      "outputs": [
        {
          "internalType": "uint256",
          "name": "",
          "type": "uint256"
        }
      ],
      "stateMutability": "view",
      "type": "function",
      "constant": true,
      "signature": "0x662f2e9d"
    },
    {
      "inputs": [
        {
          "internalType": "address",
          "name": "",
          "type": "address"
        },
        {
          "internalType": "uint256",
          "name": "",
          "type": "uint256"
        }
      ],
      "name": "ownerChannels",
      "outputs": [
        {
          "internalType": "address",
          "name": "",
          "type": "address"
        }
      ],
      "stateMutability": "view",
      "type": "function",
      "constant": true,
      "signature": "0xb21bef4d"
    }
  ],
  "devdoc": {
    "kind": "dev",
    "methods": {},
    "version": 1
  },
  "evm": {
    "assembly": "    /* \"channel.sol\":35:2319  contract factoryChannel {... */\n  mstore(0x40, 0xa0)\n    /* \"channel.sol\":198:266  constructor() {... */\n  callvalue\n  dup1\n  iszero\n  tag_1\n  jumpi\n  0x00\n  dup1\n  revert\ntag_1:\n  pop\n    /* \"channel.sol\":244:257  new channel() */\n  mload(0x40)\n  tag_4\n  swap1\n  tag_5\n  jump\t// in\ntag_4:\n  mload(0x40)\n  dup1\n  swap2\n  sub\n  swap1\n  0x00\n  create\n  dup1\n  iszero\n  dup1\n  iszero\n  tag_6\n  jumpi\n  returndatasize\n  0x00\n  dup1\n  returndatacopy\n  revert(0x00, returndatasize)\ntag_6:\n  pop\n    /* \"channel.sol\":223:258  newChannel = address(new channel()) */\n  0xffffffffffffffffffffffffffffffffffffffff\n  and\n  0x80\n  dup2\n  0xffffffffffffffffffffffffffffffffffffffff\n  and\n  dup2\n  mstore\n  pop\n  pop\n    /* \"channel.sol\":35:2319  contract factoryChannel {... */\n  jump(tag_7)\ntag_5:\n  dataSize(sub_1)\n  dup1\n  dataOffset(sub_1)\n  dup4\n  codecopy\n  add\n  swap1\n  jump\t// out\ntag_7:\n  mload(0x80)\n  codecopy(0x00, dataOffset(sub_0), dataSize(sub_0))\n  0x00\n  assignImmutable(\"0x7880aec93413f117ef14bd4e6d130875ab2c7d7d55a064fac3c2f7bd51516380\")\n  return(0x00, dataSize(sub_0))\nstop\n\nsub_0: assembly {\n        /* \"channel.sol\":35:2319  contract factoryChannel {... */\n      mstore(0x40, 0x80)\n      jumpi(tag_1, lt(calldatasize, 0x04))\n      shr(0xe0, calldataload(0x00))\n      dup1\n      0xb21bef4d\n      gt\n      tag_10\n      jumpi\n      dup1\n      0xb21bef4d\n      eq\n      tag_6\n      jumpi\n      dup1\n      0xe156b0d0\n      eq\n      tag_7\n      jumpi\n      dup1\n      0xe5949b5d\n      eq\n      tag_8\n      jumpi\n      dup1\n      0xe6359779\n      eq\n      tag_9\n      jumpi\n      jump(tag_1)\n    tag_10:\n      dup1\n      0x502512cb\n      eq\n      tag_2\n      jumpi\n      dup1\n      0x662f2e9d\n      eq\n      tag_3\n      jumpi\n      dup1\n      0x7443599a\n      eq\n      tag_4\n      jumpi\n      dup1\n      0x77b6198f\n      eq\n      tag_5\n      jumpi\n    tag_1:\n      0x00\n      dup1\n      revert\n        /* \"channel.sol\":1942:2042  function getChannelsCount() public view returns(uint count){... */\n    tag_2:\n      callvalue\n      dup1\n      iszero\n      tag_11\n      jumpi\n      0x00\n      dup1\n      revert\n    tag_11:\n      pop\n      tag_12\n      tag_13\n      jump\t// in\n    tag_12:\n      mload(0x40)\n      tag_14\n      swap2\n      swap1\n      tag_15\n      jump\t// in\n    tag_14:\n      mload(0x40)\n      dup1\n      swap2\n      sub\n      swap1\n      return\n        /* \"channel.sol\":2189:2316  function getOwnerChannelsCount(address _owner) public view returns (uint){... */\n    tag_3:\n      callvalue\n      dup1\n      iszero\n      tag_16\n      jumpi\n      0x00\n      dup1\n      revert\n    tag_16:\n      pop\n      tag_17\n      0x04\n      dup1\n      calldatasize\n      sub\n      dup2\n      add\n      swap1\n      tag_18\n      swap2\n      swap1\n      tag_19\n      jump\t// in\n    tag_18:\n      tag_20\n      jump\t// in\n    tag_17:\n      mload(0x40)\n      tag_21\n      swap2\n      swap1\n      tag_15\n      jump\t// in\n    tag_21:\n      mload(0x40)\n      dup1\n      swap2\n      sub\n      swap1\n      return\n        /* \"channel.sol\":733:1336  function createChannel( uint256 _c, uint256 _v, bytes32 _W_jm, bytes32 _W_jc, string memory _S_id, uint256 _T_exp, ... */\n    tag_4:\n      tag_22\n      0x04\n      dup1\n      calldatasize\n      sub\n      dup2\n      add\n      swap1\n      tag_23\n      swap2\n      swap1\n      tag_24\n      jump\t// in\n    tag_23:\n      tag_25\n      jump\t// in\n    tag_22:\n      mload(0x40)\n      tag_26\n      swap2\n      swap1\n      tag_27\n      jump\t// in\n    tag_26:\n      mload(0x40)\n      dup1\n      swap2\n      sub\n      swap1\n      return\n        /* \"channel.sol\":274:725  function createChannel( uint256 _c, uint256 _v) public payable returns(address payable){... */\n    tag_5:\n      tag_28\n      0x04\n      dup1\n      calldatasize\n      sub\n      dup2\n      add\n      swap1\n      tag_29\n      swap2\n      swap1\n      tag_30\n      jump\t// in\n    tag_29:\n      tag_31\n      jump\t// in\n    tag_28:\n      mload(0x40)\n      tag_32\n      swap2\n      swap1\n      tag_27\n      jump\t// in\n    tag_32:\n      mload(0x40)\n      dup1\n      swap2\n      sub\n      swap1\n      return\n        /* \"channel.sol\":66:116  mapping(address => address[]) public ownerChannels */\n    tag_6:\n      callvalue\n      dup1\n      iszero\n      tag_33\n      jumpi\n      0x00\n      dup1\n      revert\n    tag_33:\n      pop\n      tag_34\n      0x04\n      dup1\n      calldatasize\n      sub\n      dup2\n      add\n      swap1\n      tag_35\n      swap2\n      swap1\n      tag_36\n      jump\t// in\n    tag_35:\n      tag_37\n      jump\t// in\n    tag_34:\n      mload(0x40)\n      tag_38\n      swap2\n      swap1\n      tag_39\n      jump\t// in\n    tag_38:\n      mload(0x40)\n      dup1\n      swap2\n      sub\n      swap1\n      return\n        /* \"channel.sol\":2050:2177  function getOwnerChannels(address _owner) public view returns (address[] memory){... */\n    tag_7:\n      callvalue\n      dup1\n      iszero\n      tag_40\n      jumpi\n      0x00\n      dup1\n      revert\n    tag_40:\n      pop\n      tag_41\n      0x04\n      dup1\n      calldatasize\n      sub\n      dup2\n      add\n      swap1\n      tag_42\n      swap2\n      swap1\n      tag_19\n      jump\t// in\n    tag_42:\n      tag_43\n      jump\t// in\n    tag_41:\n      mload(0x40)\n      tag_44\n      swap2\n      swap1\n      tag_45\n      jump\t// in\n    tag_44:\n      mload(0x40)\n      dup1\n      swap2\n      sub\n      swap1\n      return\n        /* \"channel.sol\":123:148  address[] public channels */\n    tag_8:\n      callvalue\n      dup1\n      iszero\n      tag_46\n      jumpi\n      0x00\n      dup1\n      revert\n    tag_46:\n      pop\n      tag_47\n      0x04\n      dup1\n      calldatasize\n      sub\n      dup2\n      add\n      swap1\n      tag_48\n      swap2\n      swap1\n      tag_49\n      jump\t// in\n    tag_48:\n      tag_50\n      jump\t// in\n    tag_47:\n      mload(0x40)\n      tag_51\n      swap2\n      swap1\n      tag_39\n      jump\t// in\n    tag_51:\n      mload(0x40)\n      dup1\n      swap2\n      sub\n      swap1\n      return\n        /* \"channel.sol\":1832:1934  function getChannels(uint index) public view returns(address){... */\n    tag_9:\n      callvalue\n      dup1\n      iszero\n      tag_52\n      jumpi\n      0x00\n      dup1\n      revert\n    tag_52:\n      pop\n      tag_53\n      0x04\n      dup1\n      calldatasize\n      sub\n      dup2\n      add\n      swap1\n      tag_54\n      swap2\n      swap1\n      tag_49\n      jump\t// in\n    tag_54:\n      tag_55\n      jump\t// in\n    tag_53:\n      mload(0x40)\n      tag_56\n      swap2\n      swap1\n      tag_39\n      jump\t// in\n    tag_56:\n      mload(0x40)\n      dup1\n      swap2\n      sub\n      swap1\n      return\n        /* \"channel.sol\":1942:2042  function getChannelsCount() public view returns(uint count){... */\n    tag_13:\n        /* \"channel.sol\":1990:2000  uint count */\n      0x00\n        /* \"channel.sol\":2019:2027  channels */\n      0x01\n        /* \"channel.sol\":2019:2034  channels.length */\n      dup1\n      sload\n      swap1\n      pop\n        /* \"channel.sol\":2012:2034  return channels.length */\n      swap1\n      pop\n        /* \"channel.sol\":1942:2042  function getChannelsCount() public view returns(uint count){... */\n      swap1\n      jump\t// out\n        /* \"channel.sol\":2189:2316  function getOwnerChannelsCount(address _owner) public view returns (uint){... */\n    tag_20:\n        /* \"channel.sol\":2257:2261  uint */\n      0x00\n        /* \"channel.sol\":2280:2293  ownerChannels */\n      dup1\n        /* \"channel.sol\":2280:2301  ownerChannels[_owner] */\n      0x00\n        /* \"channel.sol\":2294:2300  _owner */\n      dup4\n        /* \"channel.sol\":2280:2301  ownerChannels[_owner] */\n      0xffffffffffffffffffffffffffffffffffffffff\n      and\n      0xffffffffffffffffffffffffffffffffffffffff\n      and\n      dup2\n      mstore\n      0x20\n      add\n      swap1\n      dup2\n      mstore\n      0x20\n      add\n      0x00\n      keccak256\n        /* \"channel.sol\":2280:2308  ownerChannels[_owner].length */\n      dup1\n      sload\n      swap1\n      pop\n        /* \"channel.sol\":2273:2308  return ownerChannels[_owner].length */\n      swap1\n      pop\n        /* \"channel.sol\":2189:2316  function getOwnerChannelsCount(address _owner) public view returns (uint){... */\n      swap2\n      swap1\n      pop\n      jump\t// out\n        /* \"channel.sol\":733:1336  function createChannel( uint256 _c, uint256 _v, bytes32 _W_jm, bytes32 _W_jc, string memory _S_id, uint256 _T_exp, ... */\n    tag_25:\n        /* \"channel.sol\":907:922  address payable */\n      0x00\n        /* \"channel.sol\":944:964  address channelClone */\n      dup1\n        /* \"channel.sol\":967:990  createClone(newChannel) */\n      tag_60\n        /* \"channel.sol\":979:989  newChannel */\n      immutable(\"0x7880aec93413f117ef14bd4e6d130875ab2c7d7d55a064fac3c2f7bd51516380\")\n        /* \"channel.sol\":967:978  createClone */\n      tag_61\n        /* \"channel.sol\":967:990  createClone(newChannel) */\n      jump\t// in\n    tag_60:\n        /* \"channel.sol\":944:990  address channelClone = createClone(newChannel) */\n      swap1\n      pop\n        /* \"channel.sol\":1001:1028  address payable channelAddr */\n      0x00\n        /* \"channel.sol\":1048:1060  channelClone */\n      dup2\n        /* \"channel.sol\":1001:1062  address payable channelAddr = payable (address(channelClone)) */\n      swap1\n      pop\n        /* \"channel.sol\":1073:1083  channel ch */\n      0x00\n        /* \"channel.sol\":1094:1105  channelAddr */\n      dup2\n        /* \"channel.sol\":1073:1106  channel ch = channel(channelAddr) */\n      swap1\n      pop\n        /* \"channel.sol\":1117:1119  ch */\n      dup1\n        /* \"channel.sol\":1117:1130  ch.initialize */\n      0xffffffffffffffffffffffffffffffffffffffff\n      and\n      0x50b1ad6b\n        /* \"channel.sol\":1138:1147  msg.value */\n      callvalue\n        /* \"channel.sol\":1149:1151  _c */\n      dup15\n        /* \"channel.sol\":1152:1154  _v */\n      dup15\n        /* \"channel.sol\":1156:1166  msg.sender */\n      caller\n        /* \"channel.sol\":1168:1173  _W_jm */\n      dup16\n        /* \"channel.sol\":1175:1180  _W_jc */\n      dup16\n        /* \"channel.sol\":1182:1187  _S_id */\n      dup16\n        /* \"channel.sol\":1189:1195  _T_exp */\n      dup16\n        /* \"channel.sol\":1197:1200  _TD */\n      dup16\n        /* \"channel.sol\":1202:1205  _TR */\n      dup16\n        /* \"channel.sol\":1117:1206  ch.initialize{value: msg.value}(_c,_v, msg.sender, _W_jm, _W_jc, _S_id, _T_exp, _TD, _TR) */\n      mload(0x40)\n      dup12\n      0xffffffff\n      and\n      0xe0\n      shl\n      dup2\n      mstore\n      0x04\n      add\n      tag_62\n      swap10\n      swap9\n      swap8\n      swap7\n      swap6\n      swap5\n      swap4\n      swap3\n      swap2\n      swap1\n      tag_63\n      jump\t// in\n    tag_62:\n      0x00\n      mload(0x40)\n      dup1\n      dup4\n      sub\n      dup2\n      dup6\n      dup9\n      dup1\n      extcodesize\n      iszero\n      dup1\n      iszero\n      tag_64\n      jumpi\n      0x00\n      dup1\n      revert\n    tag_64:\n      pop\n      gas\n      call\n      iszero\n      dup1\n      iszero\n      tag_66\n      jumpi\n      returndatasize\n      0x00\n      dup1\n      returndatacopy\n      revert(0x00, returndatasize)\n    tag_66:\n      pop\n      pop\n      pop\n      pop\n      pop\n        /* \"channel.sol\":1217:1225  channels */\n      0x01\n        /* \"channel.sol\":1231:1243  channelClone */\n      dup4\n        /* \"channel.sol\":1217:1244  channels.push(channelClone) */\n      swap1\n      dup1\n      0x01\n      dup2\n      sload\n      add\n      dup1\n      dup3\n      sstore\n      dup1\n      swap2\n      pop\n      pop\n      0x01\n      swap1\n      sub\n      swap1\n      0x00\n      mstore\n      keccak256(0x00, 0x20)\n      add\n      0x00\n      swap1\n      swap2\n      swap1\n      swap2\n      swap1\n      swap2\n      0x0100\n      exp\n      dup2\n      sload\n      dup2\n      0xffffffffffffffffffffffffffffffffffffffff\n      mul\n      not\n      and\n      swap1\n      dup4\n      0xffffffffffffffffffffffffffffffffffffffff\n      and\n      mul\n      or\n      swap1\n      sstore\n      pop\n        /* \"channel.sol\":1255:1268  ownerChannels */\n      0x00\n        /* \"channel.sol\":1255:1280  ownerChannels[msg.sender] */\n      dup1\n        /* \"channel.sol\":1269:1279  msg.sender */\n      caller\n        /* \"channel.sol\":1255:1280  ownerChannels[msg.sender] */\n      0xffffffffffffffffffffffffffffffffffffffff\n      and\n      0xffffffffffffffffffffffffffffffffffffffff\n      and\n      dup2\n      mstore\n      0x20\n      add\n      swap1\n      dup2\n      mstore\n      0x20\n      add\n      0x00\n      keccak256\n        /* \"channel.sol\":1286:1298  channelClone */\n      dup4\n        /* \"channel.sol\":1255:1299  ownerChannels[msg.sender].push(channelClone) */\n      swap1\n      dup1\n      0x01\n      dup2\n      sload\n      add\n      dup1\n      dup3\n      sstore\n      dup1\n      swap2\n      pop\n      pop\n      0x01\n      swap1\n      sub\n      swap1\n      0x00\n      mstore\n      keccak256(0x00, 0x20)\n      add\n      0x00\n      swap1\n      swap2\n      swap1\n      swap2\n      swap1\n      swap2\n      0x0100\n      exp\n      dup2\n      sload\n      dup2\n      0xffffffffffffffffffffffffffffffffffffffff\n      mul\n      not\n      and\n      swap1\n      dup4\n      0xffffffffffffffffffffffffffffffffffffffff\n      and\n      mul\n      or\n      swap1\n      sstore\n      pop\n        /* \"channel.sol\":1317:1328  channelAddr */\n      dup2\n        /* \"channel.sol\":1310:1328  return channelAddr */\n      swap4\n      pop\n      pop\n      pop\n      pop\n        /* \"channel.sol\":733:1336  function createChannel( uint256 _c, uint256 _v, bytes32 _W_jm, bytes32 _W_jc, string memory _S_id, uint256 _T_exp, ... */\n      swap9\n      swap8\n      pop\n      pop\n      pop\n      pop\n      pop\n      pop\n      pop\n      pop\n      jump\t// out\n        /* \"channel.sol\":274:725  function createChannel( uint256 _c, uint256 _v) public payable returns(address payable){... */\n    tag_31:\n        /* \"channel.sol\":345:360  address payable */\n      0x00\n        /* \"channel.sol\":372:392  address channelClone */\n      dup1\n        /* \"channel.sol\":395:418  createClone(newChannel) */\n      tag_70\n        /* \"channel.sol\":407:417  newChannel */\n      immutable(\"0x7880aec93413f117ef14bd4e6d130875ab2c7d7d55a064fac3c2f7bd51516380\")\n        /* \"channel.sol\":395:406  createClone */\n      tag_61\n        /* \"channel.sol\":395:418  createClone(newChannel) */\n      jump\t// in\n    tag_70:\n        /* \"channel.sol\":372:418  address channelClone = createClone(newChannel) */\n      swap1\n      pop\n        /* \"channel.sol\":429:456  address payable channelAddr */\n      0x00\n        /* \"channel.sol\":476:488  channelClone */\n      dup2\n        /* \"channel.sol\":429:490  address payable channelAddr = payable (address(channelClone)) */\n      swap1\n      pop\n        /* \"channel.sol\":501:511  channel ch */\n      0x00\n        /* \"channel.sol\":522:533  channelAddr */\n      dup2\n        /* \"channel.sol\":501:534  channel ch = channel(channelAddr) */\n      swap1\n      pop\n        /* \"channel.sol\":545:547  ch */\n      dup1\n        /* \"channel.sol\":545:558  ch.initialize */\n      0xffffffffffffffffffffffffffffffffffffffff\n      and\n      0xa6ab36f2\n        /* \"channel.sol\":566:575  msg.value */\n      callvalue\n        /* \"channel.sol\":577:579  _c */\n      dup9\n        /* \"channel.sol\":580:582  _v */\n      dup9\n        /* \"channel.sol\":584:594  msg.sender */\n      caller\n        /* \"channel.sol\":545:595  ch.initialize{value: msg.value}(_c,_v, msg.sender) */\n      mload(0x40)\n      dup6\n      0xffffffff\n      and\n      0xe0\n      shl\n      dup2\n      mstore\n      0x04\n      add\n      tag_71\n      swap4\n      swap3\n      swap2\n      swap1\n      tag_72\n      jump\t// in\n    tag_71:\n      0x00\n      mload(0x40)\n      dup1\n      dup4\n      sub\n      dup2\n      dup6\n      dup9\n      dup1\n      extcodesize\n      iszero\n      dup1\n      iszero\n      tag_73\n      jumpi\n      0x00\n      dup1\n      revert\n    tag_73:\n      pop\n      gas\n      call\n      iszero\n      dup1\n      iszero\n      tag_75\n      jumpi\n      returndatasize\n      0x00\n      dup1\n      returndatacopy\n      revert(0x00, returndatasize)\n    tag_75:\n      pop\n      pop\n      pop\n      pop\n      pop\n        /* \"channel.sol\":606:614  channels */\n      0x01\n        /* \"channel.sol\":620:632  channelClone */\n      dup4\n        /* \"channel.sol\":606:633  channels.push(channelClone) */\n      swap1\n      dup1\n      0x01\n      dup2\n      sload\n      add\n      dup1\n      dup3\n      sstore\n      dup1\n      swap2\n      pop\n      pop\n      0x01\n      swap1\n      sub\n      swap1\n      0x00\n      mstore\n      keccak256(0x00, 0x20)\n      add\n      0x00\n      swap1\n      swap2\n      swap1\n      swap2\n      swap1\n      swap2\n      0x0100\n      exp\n      dup2\n      sload\n      dup2\n      0xffffffffffffffffffffffffffffffffffffffff\n      mul\n      not\n      and\n      swap1\n      dup4\n      0xffffffffffffffffffffffffffffffffffffffff\n      and\n      mul\n      or\n      swap1\n      sstore\n      pop\n        /* \"channel.sol\":644:657  ownerChannels */\n      0x00\n        /* \"channel.sol\":644:669  ownerChannels[msg.sender] */\n      dup1\n        /* \"channel.sol\":658:668  msg.sender */\n      caller\n        /* \"channel.sol\":644:669  ownerChannels[msg.sender] */\n      0xffffffffffffffffffffffffffffffffffffffff\n      and\n      0xffffffffffffffffffffffffffffffffffffffff\n      and\n      dup2\n      mstore\n      0x20\n      add\n      swap1\n      dup2\n      mstore\n      0x20\n      add\n      0x00\n      keccak256\n        /* \"channel.sol\":675:687  channelClone */\n      dup4\n        /* \"channel.sol\":644:688  ownerChannels[msg.sender].push(channelClone) */\n      swap1\n      dup1\n      0x01\n      dup2\n      sload\n      add\n      dup1\n      dup3\n      sstore\n      dup1\n      swap2\n      pop\n      pop\n      0x01\n      swap1\n      sub\n      swap1\n      0x00\n      mstore\n      keccak256(0x00, 0x20)\n      add\n      0x00\n      swap1\n      swap2\n      swap1\n      swap2\n      swap1\n      swap2\n      0x0100\n      exp\n      dup2\n      sload\n      dup2\n      0xffffffffffffffffffffffffffffffffffffffff\n      mul\n      not\n      and\n      swap1\n      dup4\n      0xffffffffffffffffffffffffffffffffffffffff\n      and\n      mul\n      or\n      swap1\n      sstore\n      pop\n        /* \"channel.sol\":706:717  channelAddr */\n      dup2\n        /* \"channel.sol\":699:717  return channelAddr */\n      swap4\n      pop\n      pop\n      pop\n      pop\n        /* \"channel.sol\":274:725  function createChannel( uint256 _c, uint256 _v) public payable returns(address payable){... */\n      swap3\n      swap2\n      pop\n      pop\n      jump\t// out\n        /* \"channel.sol\":66:116  mapping(address => address[]) public ownerChannels */\n    tag_37:\n      mstore(0x20, 0x00)\n      dup2\n      0x00\n      mstore\n      keccak256(0x00, 0x40)\n      dup2\n      dup2\n      sload\n      dup2\n      lt\n      tag_78\n      jumpi\n      0x00\n      dup1\n      revert\n    tag_78:\n      swap1\n      0x00\n      mstore\n      keccak256(0x00, 0x20)\n      add\n      0x00\n      swap2\n      pop\n      swap2\n      pop\n      swap1\n      sload\n      swap1\n      0x0100\n      exp\n      swap1\n      div\n      0xffffffffffffffffffffffffffffffffffffffff\n      and\n      dup2\n      jump\t// out\n        /* \"channel.sol\":2050:2177  function getOwnerChannels(address _owner) public view returns (address[] memory){... */\n    tag_43:\n        /* \"channel.sol\":2113:2129  address[] memory */\n      0x60\n        /* \"channel.sol\":2148:2161  ownerChannels */\n      0x00\n        /* \"channel.sol\":2148:2169  ownerChannels[_owner] */\n      dup1\n        /* \"channel.sol\":2162:2168  _owner */\n      dup4\n        /* \"channel.sol\":2148:2169  ownerChannels[_owner] */\n      0xffffffffffffffffffffffffffffffffffffffff\n      and\n      0xffffffffffffffffffffffffffffffffffffffff\n      and\n      dup2\n      mstore\n      0x20\n      add\n      swap1\n      dup2\n      mstore\n      0x20\n      add\n      0x00\n      keccak256\n        /* \"channel.sol\":2141:2169  return ownerChannels[_owner] */\n      dup1\n      sload\n      dup1\n      0x20\n      mul\n      0x20\n      add\n      mload(0x40)\n      swap1\n      dup2\n      add\n      0x40\n      mstore\n      dup1\n      swap3\n      swap2\n      swap1\n      dup2\n      dup2\n      mstore\n      0x20\n      add\n      dup3\n      dup1\n      sload\n      dup1\n      iszero\n      tag_81\n      jumpi\n      0x20\n      mul\n      dup3\n      add\n      swap2\n      swap1\n      0x00\n      mstore\n      keccak256(0x00, 0x20)\n      swap1\n    tag_82:\n      dup2\n      0x00\n      swap1\n      sload\n      swap1\n      0x0100\n      exp\n      swap1\n      div\n      0xffffffffffffffffffffffffffffffffffffffff\n      and\n      0xffffffffffffffffffffffffffffffffffffffff\n      and\n      dup2\n      mstore\n      0x20\n      add\n      swap1\n      0x01\n      add\n      swap1\n      dup1\n      dup4\n      gt\n      tag_82\n      jumpi\n    tag_81:\n      pop\n      pop\n      pop\n      pop\n      pop\n      swap1\n      pop\n        /* \"channel.sol\":2050:2177  function getOwnerChannels(address _owner) public view returns (address[] memory){... */\n      swap2\n      swap1\n      pop\n      jump\t// out\n        /* \"channel.sol\":123:148  address[] public channels */\n    tag_50:\n      0x01\n      dup2\n      dup2\n      sload\n      dup2\n      lt\n      tag_83\n      jumpi\n      0x00\n      dup1\n      revert\n    tag_83:\n      swap1\n      0x00\n      mstore\n      keccak256(0x00, 0x20)\n      add\n      0x00\n      swap2\n      pop\n      sload\n      swap1\n      0x0100\n      exp\n      swap1\n      div\n      0xffffffffffffffffffffffffffffffffffffffff\n      and\n      dup2\n      jump\t// out\n        /* \"channel.sol\":1832:1934  function getChannels(uint index) public view returns(address){... */\n    tag_55:\n        /* \"channel.sol\":1885:1892  address */\n      0x00\n        /* \"channel.sol\":1911:1919  channels */\n      0x01\n        /* \"channel.sol\":1920:1925  index */\n      dup3\n        /* \"channel.sol\":1911:1926  channels[index] */\n      dup2\n      sload\n      dup2\n      lt\n      tag_86\n      jumpi\n      tag_87\n      tag_88\n      jump\t// in\n    tag_87:\n    tag_86:\n      swap1\n      0x00\n      mstore\n      keccak256(0x00, 0x20)\n      add\n      0x00\n      swap1\n      sload\n      swap1\n      0x0100\n      exp\n      swap1\n      div\n      0xffffffffffffffffffffffffffffffffffffffff\n      and\n        /* \"channel.sol\":1904:1926  return channels[index] */\n      swap1\n      pop\n        /* \"channel.sol\":1832:1934  function getChannels(uint index) public view returns(address){... */\n      swap2\n      swap1\n      pop\n      jump\t// out\n        /* \"channel.sol\":1350:1824  function createClone(address target) internal returns (address result) {... */\n    tag_61:\n        /* \"channel.sol\":1405:1419  address result */\n      0x00\n        /* \"channel.sol\":1432:1451  bytes20 targetBytes */\n      dup1\n        /* \"channel.sol\":1462:1468  target */\n      dup3\n        /* \"channel.sol\":1454:1469  bytes20(target) */\n      0x60\n      shl\n        /* \"channel.sol\":1432:1469  bytes20 targetBytes = bytes20(target) */\n      swap1\n      pop\n        /* \"channel.sol\":1519:1523  0x40 */\n      0x40\n        /* \"channel.sol\":1513:1524  mload(0x40) */\n      mload\n        /* \"channel.sol\":1548:1614  0x3d602d80600a3d3981f3363d3d373d3d3d363d73000000000000000000000000 */\n      0x3d602d80600a3d3981f3363d3d373d3d3d363d73000000000000000000000000\n        /* \"channel.sol\":1541:1546  clone */\n      dup2\n        /* \"channel.sol\":1534:1615  mstore(clone, 0x3d602d80600a3d3981f3363d3d373d3d3d363d73000000000000000000000000) */\n      mstore\n        /* \"channel.sol\":1650:1661  targetBytes */\n      dup2\n        /* \"channel.sol\":1643:1647  0x14 */\n      0x14\n        /* \"channel.sol\":1636:1641  clone */\n      dup3\n        /* \"channel.sol\":1632:1648  add(clone, 0x14) */\n      add\n        /* \"channel.sol\":1625:1662  mstore(add(clone, 0x14), targetBytes) */\n      mstore\n        /* \"channel.sol\":1697:1763  0x5af43d82803e903d91602b57fd5bf30000000000000000000000000000000000 */\n      0x5af43d82803e903d91602b57fd5bf30000000000000000000000000000000000\n        /* \"channel.sol\":1690:1694  0x28 */\n      0x28\n        /* \"channel.sol\":1683:1688  clone */\n      dup3\n        /* \"channel.sol\":1679:1695  add(clone, 0x28) */\n      add\n        /* \"channel.sol\":1672:1764  mstore(add(clone, 0x28), 0x5af43d82803e903d91602b57fd5bf30000000000000000000000000000000000) */\n      mstore\n        /* \"channel.sol\":1801:1805  0x37 */\n      0x37\n        /* \"channel.sol\":1794:1799  clone */\n      dup2\n        /* \"channel.sol\":1791:1792  0 */\n      0x00\n        /* \"channel.sol\":1784:1806  create(0, clone, 0x37) */\n      create\n        /* \"channel.sol\":1774:1806  result := create(0, clone, 0x37) */\n      swap3\n      pop\n        /* \"channel.sol\":1489:1817  {... */\n      pop\n      pop\n        /* \"channel.sol\":1350:1824  function createClone(address target) internal returns (address result) {... */\n      swap2\n      swap1\n      pop\n      jump\t// out\n        /* \"#utility.yul\":7:84   */\n    tag_91:\n        /* \"#utility.yul\":44:51   */\n      0x00\n        /* \"#utility.yul\":73:78   */\n      dup2\n        /* \"#utility.yul\":62:78   */\n      swap1\n      pop\n        /* \"#utility.yul\":7:84   */\n      swap2\n      swap1\n      pop\n      jump\t// out\n        /* \"#utility.yul\":90:208   */\n    tag_92:\n        /* \"#utility.yul\":177:201   */\n      tag_133\n        /* \"#utility.yul\":195:200   */\n      dup2\n        /* \"#utility.yul\":177:201   */\n      tag_91\n      jump\t// in\n    tag_133:\n        /* \"#utility.yul\":172:175   */\n      dup3\n        /* \"#utility.yul\":165:202   */\n      mstore\n        /* \"#utility.yul\":90:208   */\n      pop\n      pop\n      jump\t// out\n        /* \"#utility.yul\":214:436   */\n    tag_15:\n        /* \"#utility.yul\":307:311   */\n      0x00\n        /* \"#utility.yul\":345:347   */\n      0x20\n        /* \"#utility.yul\":334:343   */\n      dup3\n        /* \"#utility.yul\":330:348   */\n      add\n        /* \"#utility.yul\":322:348   */\n      swap1\n      pop\n        /* \"#utility.yul\":358:429   */\n      tag_135\n        /* \"#utility.yul\":426:427   */\n      0x00\n        /* \"#utility.yul\":415:424   */\n      dup4\n        /* \"#utility.yul\":411:428   */\n      add\n        /* \"#utility.yul\":402:408   */\n      dup5\n        /* \"#utility.yul\":358:429   */\n      tag_92\n      jump\t// in\n    tag_135:\n        /* \"#utility.yul\":214:436   */\n      swap3\n      swap2\n      pop\n      pop\n      jump\t// out\n        /* \"#utility.yul\":442:517   */\n    tag_93:\n        /* \"#utility.yul\":475:481   */\n      0x00\n        /* \"#utility.yul\":508:510   */\n      0x40\n        /* \"#utility.yul\":502:511   */\n      mload\n        /* \"#utility.yul\":492:511   */\n      swap1\n      pop\n        /* \"#utility.yul\":442:517   */\n      swap1\n      jump\t// out\n        /* \"#utility.yul\":523:640   */\n    tag_94:\n        /* \"#utility.yul\":632:633   */\n      0x00\n        /* \"#utility.yul\":629:630   */\n      dup1\n        /* \"#utility.yul\":622:634   */\n      revert\n        /* \"#utility.yul\":646:763   */\n    tag_95:\n        /* \"#utility.yul\":755:756   */\n      0x00\n        /* \"#utility.yul\":752:753   */\n      dup1\n        /* \"#utility.yul\":745:757   */\n      revert\n        /* \"#utility.yul\":769:895   */\n    tag_96:\n        /* \"#utility.yul\":806:813   */\n      0x00\n        /* \"#utility.yul\":846:888   */\n      0xffffffffffffffffffffffffffffffffffffffff\n        /* \"#utility.yul\":839:844   */\n      dup3\n        /* \"#utility.yul\":835:889   */\n      and\n        /* \"#utility.yul\":824:889   */\n      swap1\n      pop\n        /* \"#utility.yul\":769:895   */\n      swap2\n      swap1\n      pop\n      jump\t// out\n        /* \"#utility.yul\":901:997   */\n    tag_97:\n        /* \"#utility.yul\":938:945   */\n      0x00\n        /* \"#utility.yul\":967:991   */\n      tag_141\n        /* \"#utility.yul\":985:990   */\n      dup3\n        /* \"#utility.yul\":967:991   */\n      tag_96\n      jump\t// in\n    tag_141:\n        /* \"#utility.yul\":956:991   */\n      swap1\n      pop\n        /* \"#utility.yul\":901:997   */\n      swap2\n      swap1\n      pop\n      jump\t// out\n        /* \"#utility.yul\":1003:1125   */\n    tag_98:\n        /* \"#utility.yul\":1076:1100   */\n      tag_143\n        /* \"#utility.yul\":1094:1099   */\n      dup2\n        /* \"#utility.yul\":1076:1100   */\n      tag_97\n      jump\t// in\n    tag_143:\n        /* \"#utility.yul\":1069:1074   */\n      dup2\n        /* \"#utility.yul\":1066:1101   */\n      eq\n        /* \"#utility.yul\":1056:1119   */\n      tag_144\n      jumpi\n        /* \"#utility.yul\":1115:1116   */\n      0x00\n        /* \"#utility.yul\":1112:1113   */\n      dup1\n        /* \"#utility.yul\":1105:1117   */\n      revert\n        /* \"#utility.yul\":1056:1119   */\n    tag_144:\n        /* \"#utility.yul\":1003:1125   */\n      pop\n      jump\t// out\n        /* \"#utility.yul\":1131:1270   */\n    tag_99:\n        /* \"#utility.yul\":1177:1182   */\n      0x00\n        /* \"#utility.yul\":1215:1221   */\n      dup2\n        /* \"#utility.yul\":1202:1222   */\n      calldataload\n        /* \"#utility.yul\":1193:1222   */\n      swap1\n      pop\n        /* \"#utility.yul\":1231:1264   */\n      tag_146\n        /* \"#utility.yul\":1258:1263   */\n      dup2\n        /* \"#utility.yul\":1231:1264   */\n      tag_98\n      jump\t// in\n    tag_146:\n        /* \"#utility.yul\":1131:1270   */\n      swap3\n      swap2\n      pop\n      pop\n      jump\t// out\n        /* \"#utility.yul\":1276:1605   */\n    tag_19:\n        /* \"#utility.yul\":1335:1341   */\n      0x00\n        /* \"#utility.yul\":1384:1386   */\n      0x20\n        /* \"#utility.yul\":1372:1381   */\n      dup3\n        /* \"#utility.yul\":1363:1370   */\n      dup5\n        /* \"#utility.yul\":1359:1382   */\n      sub\n        /* \"#utility.yul\":1355:1387   */\n      slt\n        /* \"#utility.yul\":1352:1471   */\n      iszero\n      tag_148\n      jumpi\n        /* \"#utility.yul\":1390:1469   */\n      tag_149\n      tag_94\n      jump\t// in\n    tag_149:\n        /* \"#utility.yul\":1352:1471   */\n    tag_148:\n        /* \"#utility.yul\":1510:1511   */\n      0x00\n        /* \"#utility.yul\":1535:1588   */\n      tag_150\n        /* \"#utility.yul\":1580:1587   */\n      dup5\n        /* \"#utility.yul\":1571:1577   */\n      dup3\n        /* \"#utility.yul\":1560:1569   */\n      dup6\n        /* \"#utility.yul\":1556:1578   */\n      add\n        /* \"#utility.yul\":1535:1588   */\n      tag_99\n      jump\t// in\n    tag_150:\n        /* \"#utility.yul\":1525:1588   */\n      swap2\n      pop\n        /* \"#utility.yul\":1481:1598   */\n      pop\n        /* \"#utility.yul\":1276:1605   */\n      swap3\n      swap2\n      pop\n      pop\n      jump\t// out\n        /* \"#utility.yul\":1611:1733   */\n    tag_100:\n        /* \"#utility.yul\":1684:1708   */\n      tag_152\n        /* \"#utility.yul\":1702:1707   */\n      dup2\n        /* \"#utility.yul\":1684:1708   */\n      tag_91\n      jump\t// in\n    tag_152:\n        /* \"#utility.yul\":1677:1682   */\n      dup2\n        /* \"#utility.yul\":1674:1709   */\n      eq\n        /* \"#utility.yul\":1664:1727   */\n      tag_153\n      jumpi\n        /* \"#utility.yul\":1723:1724   */\n      0x00\n        /* \"#utility.yul\":1720:1721   */\n      dup1\n        /* \"#utility.yul\":1713:1725   */\n      revert\n        /* \"#utility.yul\":1664:1727   */\n    tag_153:\n        /* \"#utility.yul\":1611:1733   */\n      pop\n      jump\t// out\n        /* \"#utility.yul\":1739:1878   */\n    tag_101:\n        /* \"#utility.yul\":1785:1790   */\n      0x00\n        /* \"#utility.yul\":1823:1829   */\n      dup2\n        /* \"#utility.yul\":1810:1830   */\n      calldataload\n        /* \"#utility.yul\":1801:1830   */\n      swap1\n      pop\n        /* \"#utility.yul\":1839:1872   */\n      tag_155\n        /* \"#utility.yul\":1866:1871   */\n      dup2\n        /* \"#utility.yul\":1839:1872   */\n      tag_100\n      jump\t// in\n    tag_155:\n        /* \"#utility.yul\":1739:1878   */\n      swap3\n      swap2\n      pop\n      pop\n      jump\t// out\n        /* \"#utility.yul\":1884:1961   */\n    tag_102:\n        /* \"#utility.yul\":1921:1928   */\n      0x00\n        /* \"#utility.yul\":1950:1955   */\n      dup2\n        /* \"#utility.yul\":1939:1955   */\n      swap1\n      pop\n        /* \"#utility.yul\":1884:1961   */\n      swap2\n      swap1\n      pop\n      jump\t// out\n        /* \"#utility.yul\":1967:2089   */\n    tag_103:\n        /* \"#utility.yul\":2040:2064   */\n      tag_158\n        /* \"#utility.yul\":2058:2063   */\n      dup2\n        /* \"#utility.yul\":2040:2064   */\n      tag_102\n      jump\t// in\n    tag_158:\n        /* \"#utility.yul\":2033:2038   */\n      dup2\n        /* \"#utility.yul\":2030:2065   */\n      eq\n        /* \"#utility.yul\":2020:2083   */\n      tag_159\n      jumpi\n        /* \"#utility.yul\":2079:2080   */\n      0x00\n        /* \"#utility.yul\":2076:2077   */\n      dup1\n        /* \"#utility.yul\":2069:2081   */\n      revert\n        /* \"#utility.yul\":2020:2083   */\n    tag_159:\n        /* \"#utility.yul\":1967:2089   */\n      pop\n      jump\t// out\n        /* \"#utility.yul\":2095:2234   */\n    tag_104:\n        /* \"#utility.yul\":2141:2146   */\n      0x00\n        /* \"#utility.yul\":2179:2185   */\n      dup2\n        /* \"#utility.yul\":2166:2186   */\n      calldataload\n        /* \"#utility.yul\":2157:2186   */\n      swap1\n      pop\n        /* \"#utility.yul\":2195:2228   */\n      tag_161\n        /* \"#utility.yul\":2222:2227   */\n      dup2\n        /* \"#utility.yul\":2195:2228   */\n      tag_103\n      jump\t// in\n    tag_161:\n        /* \"#utility.yul\":2095:2234   */\n      swap3\n      swap2\n      pop\n      pop\n      jump\t// out\n        /* \"#utility.yul\":2240:2357   */\n    tag_105:\n        /* \"#utility.yul\":2349:2350   */\n      0x00\n        /* \"#utility.yul\":2346:2347   */\n      dup1\n        /* \"#utility.yul\":2339:2351   */\n      revert\n        /* \"#utility.yul\":2363:2480   */\n    tag_106:\n        /* \"#utility.yul\":2472:2473   */\n      0x00\n        /* \"#utility.yul\":2469:2470   */\n      dup1\n        /* \"#utility.yul\":2462:2474   */\n      revert\n        /* \"#utility.yul\":2486:2588   */\n    tag_107:\n        /* \"#utility.yul\":2527:2533   */\n      0x00\n        /* \"#utility.yul\":2578:2580   */\n      0x1f\n        /* \"#utility.yul\":2574:2581   */\n      not\n        /* \"#utility.yul\":2569:2571   */\n      0x1f\n        /* \"#utility.yul\":2562:2567   */\n      dup4\n        /* \"#utility.yul\":2558:2572   */\n      add\n        /* \"#utility.yul\":2554:2582   */\n      and\n        /* \"#utility.yul\":2544:2582   */\n      swap1\n      pop\n        /* \"#utility.yul\":2486:2588   */\n      swap2\n      swap1\n      pop\n      jump\t// out\n        /* \"#utility.yul\":2594:2774   */\n    tag_108:\n        /* \"#utility.yul\":2642:2719   */\n      0x4e487b7100000000000000000000000000000000000000000000000000000000\n        /* \"#utility.yul\":2639:2640   */\n      0x00\n        /* \"#utility.yul\":2632:2720   */\n      mstore\n        /* \"#utility.yul\":2739:2743   */\n      0x41\n        /* \"#utility.yul\":2736:2737   */\n      0x04\n        /* \"#utility.yul\":2729:2744   */\n      mstore\n        /* \"#utility.yul\":2763:2767   */\n      0x24\n        /* \"#utility.yul\":2760:2761   */\n      0x00\n        /* \"#utility.yul\":2753:2768   */\n      revert\n        /* \"#utility.yul\":2780:3061   */\n    tag_109:\n        /* \"#utility.yul\":2863:2890   */\n      tag_167\n        /* \"#utility.yul\":2885:2889   */\n      dup3\n        /* \"#utility.yul\":2863:2890   */\n      tag_107\n      jump\t// in\n    tag_167:\n        /* \"#utility.yul\":2855:2861   */\n      dup2\n        /* \"#utility.yul\":2851:2891   */\n      add\n        /* \"#utility.yul\":2993:2999   */\n      dup2\n        /* \"#utility.yul\":2981:2991   */\n      dup2\n        /* \"#utility.yul\":2978:3000   */\n      lt\n        /* \"#utility.yul\":2957:2975   */\n      0xffffffffffffffff\n        /* \"#utility.yul\":2945:2955   */\n      dup3\n        /* \"#utility.yul\":2942:2976   */\n      gt\n        /* \"#utility.yul\":2939:3001   */\n      or\n        /* \"#utility.yul\":2936:3024   */\n      iszero\n      tag_168\n      jumpi\n        /* \"#utility.yul\":3004:3022   */\n      tag_169\n      tag_108\n      jump\t// in\n    tag_169:\n        /* \"#utility.yul\":2936:3024   */\n    tag_168:\n        /* \"#utility.yul\":3044:3054   */\n      dup1\n        /* \"#utility.yul\":3040:3042   */\n      0x40\n        /* \"#utility.yul\":3033:3055   */\n      mstore\n        /* \"#utility.yul\":2823:3061   */\n      pop\n        /* \"#utility.yul\":2780:3061   */\n      pop\n      pop\n      jump\t// out\n        /* \"#utility.yul\":3067:3196   */\n    tag_110:\n        /* \"#utility.yul\":3101:3107   */\n      0x00\n        /* \"#utility.yul\":3128:3148   */\n      tag_171\n      tag_93\n      jump\t// in\n    tag_171:\n        /* \"#utility.yul\":3118:3148   */\n      swap1\n      pop\n        /* \"#utility.yul\":3157:3190   */\n      tag_172\n        /* \"#utility.yul\":3185:3189   */\n      dup3\n        /* \"#utility.yul\":3177:3183   */\n      dup3\n        /* \"#utility.yul\":3157:3190   */\n      tag_109\n      jump\t// in\n    tag_172:\n        /* \"#utility.yul\":3067:3196   */\n      swap2\n      swap1\n      pop\n      jump\t// out\n        /* \"#utility.yul\":3202:3510   */\n    tag_111:\n        /* \"#utility.yul\":3264:3268   */\n      0x00\n        /* \"#utility.yul\":3354:3372   */\n      0xffffffffffffffff\n        /* \"#utility.yul\":3346:3352   */\n      dup3\n        /* \"#utility.yul\":3343:3373   */\n      gt\n        /* \"#utility.yul\":3340:3396   */\n      iszero\n      tag_174\n      jumpi\n        /* \"#utility.yul\":3376:3394   */\n      tag_175\n      tag_108\n      jump\t// in\n    tag_175:\n        /* \"#utility.yul\":3340:3396   */\n    tag_174:\n        /* \"#utility.yul\":3414:3443   */\n      tag_176\n        /* \"#utility.yul\":3436:3442   */\n      dup3\n        /* \"#utility.yul\":3414:3443   */\n      tag_107\n      jump\t// in\n    tag_176:\n        /* \"#utility.yul\":3406:3443   */\n      swap1\n      pop\n        /* \"#utility.yul\":3498:3502   */\n      0x20\n        /* \"#utility.yul\":3492:3496   */\n      dup2\n        /* \"#utility.yul\":3488:3503   */\n      add\n        /* \"#utility.yul\":3480:3503   */\n      swap1\n      pop\n        /* \"#utility.yul\":3202:3510   */\n      swap2\n      swap1\n      pop\n      jump\t// out\n        /* \"#utility.yul\":3516:3670   */\n    tag_112:\n        /* \"#utility.yul\":3600:3606   */\n      dup3\n        /* \"#utility.yul\":3595:3598   */\n      dup2\n        /* \"#utility.yul\":3590:3593   */\n      dup4\n        /* \"#utility.yul\":3577:3607   */\n      calldatacopy\n        /* \"#utility.yul\":3662:3663   */\n      0x00\n        /* \"#utility.yul\":3653:3659   */\n      dup4\n        /* \"#utility.yul\":3648:3651   */\n      dup4\n        /* \"#utility.yul\":3644:3660   */\n      add\n        /* \"#utility.yul\":3637:3664   */\n      mstore\n        /* \"#utility.yul\":3516:3670   */\n      pop\n      pop\n      pop\n      jump\t// out\n        /* \"#utility.yul\":3676:4088   */\n    tag_113:\n        /* \"#utility.yul\":3754:3759   */\n      0x00\n        /* \"#utility.yul\":3779:3845   */\n      tag_179\n        /* \"#utility.yul\":3795:3844   */\n      tag_180\n        /* \"#utility.yul\":3837:3843   */\n      dup5\n        /* \"#utility.yul\":3795:3844   */\n      tag_111\n      jump\t// in\n    tag_180:\n        /* \"#utility.yul\":3779:3845   */\n      tag_110\n      jump\t// in\n    tag_179:\n        /* \"#utility.yul\":3770:3845   */\n      swap1\n      pop\n        /* \"#utility.yul\":3868:3874   */\n      dup3\n        /* \"#utility.yul\":3861:3866   */\n      dup2\n        /* \"#utility.yul\":3854:3875   */\n      mstore\n        /* \"#utility.yul\":3906:3910   */\n      0x20\n        /* \"#utility.yul\":3899:3904   */\n      dup2\n        /* \"#utility.yul\":3895:3911   */\n      add\n        /* \"#utility.yul\":3944:3947   */\n      dup5\n        /* \"#utility.yul\":3935:3941   */\n      dup5\n        /* \"#utility.yul\":3930:3933   */\n      dup5\n        /* \"#utility.yul\":3926:3942   */\n      add\n        /* \"#utility.yul\":3923:3948   */\n      gt\n        /* \"#utility.yul\":3920:4032   */\n      iszero\n      tag_181\n      jumpi\n        /* \"#utility.yul\":3951:4030   */\n      tag_182\n      tag_106\n      jump\t// in\n    tag_182:\n        /* \"#utility.yul\":3920:4032   */\n    tag_181:\n        /* \"#utility.yul\":4041:4082   */\n      tag_183\n        /* \"#utility.yul\":4075:4081   */\n      dup5\n        /* \"#utility.yul\":4070:4073   */\n      dup3\n        /* \"#utility.yul\":4065:4068   */\n      dup6\n        /* \"#utility.yul\":4041:4082   */\n      tag_112\n      jump\t// in\n    tag_183:\n        /* \"#utility.yul\":3760:4088   */\n      pop\n        /* \"#utility.yul\":3676:4088   */\n      swap4\n      swap3\n      pop\n      pop\n      pop\n      jump\t// out\n        /* \"#utility.yul\":4108:4448   */\n    tag_114:\n        /* \"#utility.yul\":4164:4169   */\n      0x00\n        /* \"#utility.yul\":4213:4216   */\n      dup3\n        /* \"#utility.yul\":4206:4210   */\n      0x1f\n        /* \"#utility.yul\":4198:4204   */\n      dup4\n        /* \"#utility.yul\":4194:4211   */\n      add\n        /* \"#utility.yul\":4190:4217   */\n      slt\n        /* \"#utility.yul\":4180:4302   */\n      tag_185\n      jumpi\n        /* \"#utility.yul\":4221:4300   */\n      tag_186\n      tag_105\n      jump\t// in\n    tag_186:\n        /* \"#utility.yul\":4180:4302   */\n    tag_185:\n        /* \"#utility.yul\":4338:4344   */\n      dup2\n        /* \"#utility.yul\":4325:4345   */\n      calldataload\n        /* \"#utility.yul\":4363:4442   */\n      tag_187\n        /* \"#utility.yul\":4438:4441   */\n      dup5\n        /* \"#utility.yul\":4430:4436   */\n      dup3\n        /* \"#utility.yul\":4423:4427   */\n      0x20\n        /* \"#utility.yul\":4415:4421   */\n      dup7\n        /* \"#utility.yul\":4411:4428   */\n      add\n        /* \"#utility.yul\":4363:4442   */\n      tag_113\n      jump\t// in\n    tag_187:\n        /* \"#utility.yul\":4354:4442   */\n      swap2\n      pop\n        /* \"#utility.yul\":4170:4448   */\n      pop\n        /* \"#utility.yul\":4108:4448   */\n      swap3\n      swap2\n      pop\n      pop\n      jump\t// out\n        /* \"#utility.yul\":4454:5983   */\n    tag_24:\n        /* \"#utility.yul\":4586:4592   */\n      0x00\n        /* \"#utility.yul\":4594:4600   */\n      dup1\n        /* \"#utility.yul\":4602:4608   */\n      0x00\n        /* \"#utility.yul\":4610:4616   */\n      dup1\n        /* \"#utility.yul\":4618:4624   */\n      0x00\n        /* \"#utility.yul\":4626:4632   */\n      dup1\n        /* \"#utility.yul\":4634:4640   */\n      0x00\n        /* \"#utility.yul\":4642:4648   */\n      dup1\n        /* \"#utility.yul\":4691:4694   */\n      0x0100\n        /* \"#utility.yul\":4679:4688   */\n      dup10\n        /* \"#utility.yul\":4670:4677   */\n      dup12\n        /* \"#utility.yul\":4666:4689   */\n      sub\n        /* \"#utility.yul\":4662:4695   */\n      slt\n        /* \"#utility.yul\":4659:4779   */\n      iszero\n      tag_189\n      jumpi\n        /* \"#utility.yul\":4698:4777   */\n      tag_190\n      tag_94\n      jump\t// in\n    tag_190:\n        /* \"#utility.yul\":4659:4779   */\n    tag_189:\n        /* \"#utility.yul\":4818:4819   */\n      0x00\n        /* \"#utility.yul\":4843:4896   */\n      tag_191\n        /* \"#utility.yul\":4888:4895   */\n      dup12\n        /* \"#utility.yul\":4879:4885   */\n      dup3\n        /* \"#utility.yul\":4868:4877   */\n      dup13\n        /* \"#utility.yul\":4864:4886   */\n      add\n        /* \"#utility.yul\":4843:4896   */\n      tag_101\n      jump\t// in\n    tag_191:\n        /* \"#utility.yul\":4833:4896   */\n      swap9\n      pop\n        /* \"#utility.yul\":4789:4906   */\n      pop\n        /* \"#utility.yul\":4945:4947   */\n      0x20\n        /* \"#utility.yul\":4971:5024   */\n      tag_192\n        /* \"#utility.yul\":5016:5023   */\n      dup12\n        /* \"#utility.yul\":5007:5013   */\n      dup3\n        /* \"#utility.yul\":4996:5005   */\n      dup13\n        /* \"#utility.yul\":4992:5014   */\n      add\n        /* \"#utility.yul\":4971:5024   */\n      tag_101\n      jump\t// in\n    tag_192:\n        /* \"#utility.yul\":4961:5024   */\n      swap8\n      pop\n        /* \"#utility.yul\":4916:5034   */\n      pop\n        /* \"#utility.yul\":5073:5075   */\n      0x40\n        /* \"#utility.yul\":5099:5152   */\n      tag_193\n        /* \"#utility.yul\":5144:5151   */\n      dup12\n        /* \"#utility.yul\":5135:5141   */\n      dup3\n        /* \"#utility.yul\":5124:5133   */\n      dup13\n        /* \"#utility.yul\":5120:5142   */\n      add\n        /* \"#utility.yul\":5099:5152   */\n      tag_104\n      jump\t// in\n    tag_193:\n        /* \"#utility.yul\":5089:5152   */\n      swap7\n      pop\n        /* \"#utility.yul\":5044:5162   */\n      pop\n        /* \"#utility.yul\":5201:5203   */\n      0x60\n        /* \"#utility.yul\":5227:5280   */\n      tag_194\n        /* \"#utility.yul\":5272:5279   */\n      dup12\n        /* \"#utility.yul\":5263:5269   */\n      dup3\n        /* \"#utility.yul\":5252:5261   */\n      dup13\n        /* \"#utility.yul\":5248:5270   */\n      add\n        /* \"#utility.yul\":5227:5280   */\n      tag_104\n      jump\t// in\n    tag_194:\n        /* \"#utility.yul\":5217:5280   */\n      swap6\n      pop\n        /* \"#utility.yul\":5172:5290   */\n      pop\n        /* \"#utility.yul\":5357:5360   */\n      0x80\n        /* \"#utility.yul\":5346:5355   */\n      dup10\n        /* \"#utility.yul\":5342:5361   */\n      add\n        /* \"#utility.yul\":5329:5362   */\n      calldataload\n        /* \"#utility.yul\":5389:5407   */\n      0xffffffffffffffff\n        /* \"#utility.yul\":5381:5387   */\n      dup2\n        /* \"#utility.yul\":5378:5408   */\n      gt\n        /* \"#utility.yul\":5375:5492   */\n      iszero\n      tag_195\n      jumpi\n        /* \"#utility.yul\":5411:5490   */\n      tag_196\n      tag_95\n      jump\t// in\n    tag_196:\n        /* \"#utility.yul\":5375:5492   */\n    tag_195:\n        /* \"#utility.yul\":5516:5579   */\n      tag_197\n        /* \"#utility.yul\":5571:5578   */\n      dup12\n        /* \"#utility.yul\":5562:5568   */\n      dup3\n        /* \"#utility.yul\":5551:5560   */\n      dup13\n        /* \"#utility.yul\":5547:5569   */\n      add\n        /* \"#utility.yul\":5516:5579   */\n      tag_114\n      jump\t// in\n    tag_197:\n        /* \"#utility.yul\":5506:5579   */\n      swap5\n      pop\n        /* \"#utility.yul\":5300:5589   */\n      pop\n        /* \"#utility.yul\":5628:5631   */\n      0xa0\n        /* \"#utility.yul\":5655:5708   */\n      tag_198\n        /* \"#utility.yul\":5700:5707   */\n      dup12\n        /* \"#utility.yul\":5691:5697   */\n      dup3\n        /* \"#utility.yul\":5680:5689   */\n      dup13\n        /* \"#utility.yul\":5676:5698   */\n      add\n        /* \"#utility.yul\":5655:5708   */\n      tag_101\n      jump\t// in\n    tag_198:\n        /* \"#utility.yul\":5645:5708   */\n      swap4\n      pop\n        /* \"#utility.yul\":5599:5718   */\n      pop\n        /* \"#utility.yul\":5757:5760   */\n      0xc0\n        /* \"#utility.yul\":5784:5837   */\n      tag_199\n        /* \"#utility.yul\":5829:5836   */\n      dup12\n        /* \"#utility.yul\":5820:5826   */\n      dup3\n        /* \"#utility.yul\":5809:5818   */\n      dup13\n        /* \"#utility.yul\":5805:5827   */\n      add\n        /* \"#utility.yul\":5784:5837   */\n      tag_101\n      jump\t// in\n    tag_199:\n        /* \"#utility.yul\":5774:5837   */\n      swap3\n      pop\n        /* \"#utility.yul\":5728:5847   */\n      pop\n        /* \"#utility.yul\":5886:5889   */\n      0xe0\n        /* \"#utility.yul\":5913:5966   */\n      tag_200\n        /* \"#utility.yul\":5958:5965   */\n      dup12\n        /* \"#utility.yul\":5949:5955   */\n      dup3\n        /* \"#utility.yul\":5938:5947   */\n      dup13\n        /* \"#utility.yul\":5934:5956   */\n      add\n        /* \"#utility.yul\":5913:5966   */\n      tag_101\n      jump\t// in\n    tag_200:\n        /* \"#utility.yul\":5903:5966   */\n      swap2\n      pop\n        /* \"#utility.yul\":5857:5976   */\n      pop\n        /* \"#utility.yul\":4454:5983   */\n      swap3\n      swap6\n      swap9\n      pop\n      swap3\n      swap6\n      swap9\n      swap1\n      swap4\n      swap7\n      pop\n      jump\t// out\n        /* \"#utility.yul\":5989:6093   */\n    tag_115:\n        /* \"#utility.yul\":6034:6041   */\n      0x00\n        /* \"#utility.yul\":6063:6087   */\n      tag_202\n        /* \"#utility.yul\":6081:6086   */\n      dup3\n        /* \"#utility.yul\":6063:6087   */\n      tag_96\n      jump\t// in\n    tag_202:\n        /* \"#utility.yul\":6052:6087   */\n      swap1\n      pop\n        /* \"#utility.yul\":5989:6093   */\n      swap2\n      swap1\n      pop\n      jump\t// out\n        /* \"#utility.yul\":6099:6241   */\n    tag_116:\n        /* \"#utility.yul\":6202:6234   */\n      tag_204\n        /* \"#utility.yul\":6228:6233   */\n      dup2\n        /* \"#utility.yul\":6202:6234   */\n      tag_115\n      jump\t// in\n    tag_204:\n        /* \"#utility.yul\":6197:6200   */\n      dup3\n        /* \"#utility.yul\":6190:6235   */\n      mstore\n        /* \"#utility.yul\":6099:6241   */\n      pop\n      pop\n      jump\t// out\n        /* \"#utility.yul\":6247:6501   */\n    tag_27:\n        /* \"#utility.yul\":6356:6360   */\n      0x00\n        /* \"#utility.yul\":6394:6396   */\n      0x20\n        /* \"#utility.yul\":6383:6392   */\n      dup3\n        /* \"#utility.yul\":6379:6397   */\n      add\n        /* \"#utility.yul\":6371:6397   */\n      swap1\n      pop\n        /* \"#utility.yul\":6407:6494   */\n      tag_206\n        /* \"#utility.yul\":6491:6492   */\n      0x00\n        /* \"#utility.yul\":6480:6489   */\n      dup4\n        /* \"#utility.yul\":6476:6493   */\n      add\n        /* \"#utility.yul\":6467:6473   */\n      dup5\n        /* \"#utility.yul\":6407:6494   */\n      tag_116\n      jump\t// in\n    tag_206:\n        /* \"#utility.yul\":6247:6501   */\n      swap3\n      swap2\n      pop\n      pop\n      jump\t// out\n        /* \"#utility.yul\":6507:6981   */\n    tag_30:\n        /* \"#utility.yul\":6575:6581   */\n      0x00\n        /* \"#utility.yul\":6583:6589   */\n      dup1\n        /* \"#utility.yul\":6632:6634   */\n      0x40\n        /* \"#utility.yul\":6620:6629   */\n      dup4\n        /* \"#utility.yul\":6611:6618   */\n      dup6\n        /* \"#utility.yul\":6607:6630   */\n      sub\n        /* \"#utility.yul\":6603:6635   */\n      slt\n        /* \"#utility.yul\":6600:6719   */\n      iszero\n      tag_208\n      jumpi\n        /* \"#utility.yul\":6638:6717   */\n      tag_209\n      tag_94\n      jump\t// in\n    tag_209:\n        /* \"#utility.yul\":6600:6719   */\n    tag_208:\n        /* \"#utility.yul\":6758:6759   */\n      0x00\n        /* \"#utility.yul\":6783:6836   */\n      tag_210\n        /* \"#utility.yul\":6828:6835   */\n      dup6\n        /* \"#utility.yul\":6819:6825   */\n      dup3\n        /* \"#utility.yul\":6808:6817   */\n      dup7\n        /* \"#utility.yul\":6804:6826   */\n      add\n        /* \"#utility.yul\":6783:6836   */\n      tag_101\n      jump\t// in\n    tag_210:\n        /* \"#utility.yul\":6773:6836   */\n      swap3\n      pop\n        /* \"#utility.yul\":6729:6846   */\n      pop\n        /* \"#utility.yul\":6885:6887   */\n      0x20\n        /* \"#utility.yul\":6911:6964   */\n      tag_211\n        /* \"#utility.yul\":6956:6963   */\n      dup6\n        /* \"#utility.yul\":6947:6953   */\n      dup3\n        /* \"#utility.yul\":6936:6945   */\n      dup7\n        /* \"#utility.yul\":6932:6954   */\n      add\n        /* \"#utility.yul\":6911:6964   */\n      tag_101\n      jump\t// in\n    tag_211:\n        /* \"#utility.yul\":6901:6964   */\n      swap2\n      pop\n        /* \"#utility.yul\":6856:6974   */\n      pop\n        /* \"#utility.yul\":6507:6981   */\n      swap3\n      pop\n      swap3\n      swap1\n      pop\n      jump\t// out\n        /* \"#utility.yul\":6987:7461   */\n    tag_36:\n        /* \"#utility.yul\":7055:7061   */\n      0x00\n        /* \"#utility.yul\":7063:7069   */\n      dup1\n        /* \"#utility.yul\":7112:7114   */\n      0x40\n        /* \"#utility.yul\":7100:7109   */\n      dup4\n        /* \"#utility.yul\":7091:7098   */\n      dup6\n        /* \"#utility.yul\":7087:7110   */\n      sub\n        /* \"#utility.yul\":7083:7115   */\n      slt\n        /* \"#utility.yul\":7080:7199   */\n      iszero\n      tag_213\n      jumpi\n        /* \"#utility.yul\":7118:7197   */\n      tag_214\n      tag_94\n      jump\t// in\n    tag_214:\n        /* \"#utility.yul\":7080:7199   */\n    tag_213:\n        /* \"#utility.yul\":7238:7239   */\n      0x00\n        /* \"#utility.yul\":7263:7316   */\n      tag_215\n        /* \"#utility.yul\":7308:7315   */\n      dup6\n        /* \"#utility.yul\":7299:7305   */\n      dup3\n        /* \"#utility.yul\":7288:7297   */\n      dup7\n        /* \"#utility.yul\":7284:7306   */\n      add\n        /* \"#utility.yul\":7263:7316   */\n      tag_99\n      jump\t// in\n    tag_215:\n        /* \"#utility.yul\":7253:7316   */\n      swap3\n      pop\n        /* \"#utility.yul\":7209:7326   */\n      pop\n        /* \"#utility.yul\":7365:7367   */\n      0x20\n        /* \"#utility.yul\":7391:7444   */\n      tag_216\n        /* \"#utility.yul\":7436:7443   */\n      dup6\n        /* \"#utility.yul\":7427:7433   */\n      dup3\n        /* \"#utility.yul\":7416:7425   */\n      dup7\n        /* \"#utility.yul\":7412:7434   */\n      add\n        /* \"#utility.yul\":7391:7444   */\n      tag_101\n      jump\t// in\n    tag_216:\n        /* \"#utility.yul\":7381:7444   */\n      swap2\n      pop\n        /* \"#utility.yul\":7336:7454   */\n      pop\n        /* \"#utility.yul\":6987:7461   */\n      swap3\n      pop\n      swap3\n      swap1\n      pop\n      jump\t// out\n        /* \"#utility.yul\":7467:7585   */\n    tag_117:\n        /* \"#utility.yul\":7554:7578   */\n      tag_218\n        /* \"#utility.yul\":7572:7577   */\n      dup2\n        /* \"#utility.yul\":7554:7578   */\n      tag_97\n      jump\t// in\n    tag_218:\n        /* \"#utility.yul\":7549:7552   */\n      dup3\n        /* \"#utility.yul\":7542:7579   */\n      mstore\n        /* \"#utility.yul\":7467:7585   */\n      pop\n      pop\n      jump\t// out\n        /* \"#utility.yul\":7591:7813   */\n    tag_39:\n        /* \"#utility.yul\":7684:7688   */\n      0x00\n        /* \"#utility.yul\":7722:7724   */\n      0x20\n        /* \"#utility.yul\":7711:7720   */\n      dup3\n        /* \"#utility.yul\":7707:7725   */\n      add\n        /* \"#utility.yul\":7699:7725   */\n      swap1\n      pop\n        /* \"#utility.yul\":7735:7806   */\n      tag_220\n        /* \"#utility.yul\":7803:7804   */\n      0x00\n        /* \"#utility.yul\":7792:7801   */\n      dup4\n        /* \"#utility.yul\":7788:7805   */\n      add\n        /* \"#utility.yul\":7779:7785   */\n      dup5\n        /* \"#utility.yul\":7735:7806   */\n      tag_117\n      jump\t// in\n    tag_220:\n        /* \"#utility.yul\":7591:7813   */\n      swap3\n      swap2\n      pop\n      pop\n      jump\t// out\n        /* \"#utility.yul\":7819:7933   */\n    tag_118:\n        /* \"#utility.yul\":7886:7892   */\n      0x00\n        /* \"#utility.yul\":7920:7925   */\n      dup2\n        /* \"#utility.yul\":7914:7926   */\n      mload\n        /* \"#utility.yul\":7904:7926   */\n      swap1\n      pop\n        /* \"#utility.yul\":7819:7933   */\n      swap2\n      swap1\n      pop\n      jump\t// out\n        /* \"#utility.yul\":7939:8123   */\n    tag_119:\n        /* \"#utility.yul\":8038:8049   */\n      0x00\n        /* \"#utility.yul\":8072:8078   */\n      dup3\n        /* \"#utility.yul\":8067:8070   */\n      dup3\n        /* \"#utility.yul\":8060:8079   */\n      mstore\n        /* \"#utility.yul\":8112:8116   */\n      0x20\n        /* \"#utility.yul\":8107:8110   */\n      dup3\n        /* \"#utility.yul\":8103:8117   */\n      add\n        /* \"#utility.yul\":8088:8117   */\n      swap1\n      pop\n        /* \"#utility.yul\":7939:8123   */\n      swap3\n      swap2\n      pop\n      pop\n      jump\t// out\n        /* \"#utility.yul\":8129:8261   */\n    tag_120:\n        /* \"#utility.yul\":8196:8200   */\n      0x00\n        /* \"#utility.yul\":8219:8222   */\n      dup2\n        /* \"#utility.yul\":8211:8222   */\n      swap1\n      pop\n        /* \"#utility.yul\":8249:8253   */\n      0x20\n        /* \"#utility.yul\":8244:8247   */\n      dup3\n        /* \"#utility.yul\":8240:8254   */\n      add\n        /* \"#utility.yul\":8232:8254   */\n      swap1\n      pop\n        /* \"#utility.yul\":8129:8261   */\n      swap2\n      swap1\n      pop\n      jump\t// out\n        /* \"#utility.yul\":8267:8375   */\n    tag_121:\n        /* \"#utility.yul\":8344:8368   */\n      tag_225\n        /* \"#utility.yul\":8362:8367   */\n      dup2\n        /* \"#utility.yul\":8344:8368   */\n      tag_97\n      jump\t// in\n    tag_225:\n        /* \"#utility.yul\":8339:8342   */\n      dup3\n        /* \"#utility.yul\":8332:8369   */\n      mstore\n        /* \"#utility.yul\":8267:8375   */\n      pop\n      pop\n      jump\t// out\n        /* \"#utility.yul\":8381:8560   */\n    tag_122:\n        /* \"#utility.yul\":8450:8460   */\n      0x00\n        /* \"#utility.yul\":8471:8517   */\n      tag_227\n        /* \"#utility.yul\":8513:8516   */\n      dup4\n        /* \"#utility.yul\":8505:8511   */\n      dup4\n        /* \"#utility.yul\":8471:8517   */\n      tag_121\n      jump\t// in\n    tag_227:\n        /* \"#utility.yul\":8549:8553   */\n      0x20\n        /* \"#utility.yul\":8544:8547   */\n      dup4\n        /* \"#utility.yul\":8540:8554   */\n      add\n        /* \"#utility.yul\":8526:8554   */\n      swap1\n      pop\n        /* \"#utility.yul\":8381:8560   */\n      swap3\n      swap2\n      pop\n      pop\n      jump\t// out\n        /* \"#utility.yul\":8566:8679   */\n    tag_123:\n        /* \"#utility.yul\":8636:8640   */\n      0x00\n        /* \"#utility.yul\":8668:8672   */\n      0x20\n        /* \"#utility.yul\":8663:8666   */\n      dup3\n        /* \"#utility.yul\":8659:8673   */\n      add\n        /* \"#utility.yul\":8651:8673   */\n      swap1\n      pop\n        /* \"#utility.yul\":8566:8679   */\n      swap2\n      swap1\n      pop\n      jump\t// out\n        /* \"#utility.yul\":8715:9447   */\n    tag_124:\n        /* \"#utility.yul\":8834:8837   */\n      0x00\n        /* \"#utility.yul\":8863:8917   */\n      tag_230\n        /* \"#utility.yul\":8911:8916   */\n      dup3\n        /* \"#utility.yul\":8863:8917   */\n      tag_118\n      jump\t// in\n    tag_230:\n        /* \"#utility.yul\":8933:9019   */\n      tag_231\n        /* \"#utility.yul\":9012:9018   */\n      dup2\n        /* \"#utility.yul\":9007:9010   */\n      dup6\n        /* \"#utility.yul\":8933:9019   */\n      tag_119\n      jump\t// in\n    tag_231:\n        /* \"#utility.yul\":8926:9019   */\n      swap4\n      pop\n        /* \"#utility.yul\":9043:9099   */\n      tag_232\n        /* \"#utility.yul\":9093:9098   */\n      dup4\n        /* \"#utility.yul\":9043:9099   */\n      tag_120\n      jump\t// in\n    tag_232:\n        /* \"#utility.yul\":9122:9129   */\n      dup1\n        /* \"#utility.yul\":9153:9154   */\n      0x00\n        /* \"#utility.yul\":9138:9422   */\n    tag_233:\n        /* \"#utility.yul\":9163:9169   */\n      dup4\n        /* \"#utility.yul\":9160:9161   */\n      dup2\n        /* \"#utility.yul\":9157:9170   */\n      lt\n        /* \"#utility.yul\":9138:9422   */\n      iszero\n      tag_235\n      jumpi\n        /* \"#utility.yul\":9239:9245   */\n      dup2\n        /* \"#utility.yul\":9233:9246   */\n      mload\n        /* \"#utility.yul\":9266:9329   */\n      tag_236\n        /* \"#utility.yul\":9325:9328   */\n      dup9\n        /* \"#utility.yul\":9310:9323   */\n      dup3\n        /* \"#utility.yul\":9266:9329   */\n      tag_122\n      jump\t// in\n    tag_236:\n        /* \"#utility.yul\":9259:9329   */\n      swap8\n      pop\n        /* \"#utility.yul\":9352:9412   */\n      tag_237\n        /* \"#utility.yul\":9405:9411   */\n      dup4\n        /* \"#utility.yul\":9352:9412   */\n      tag_123\n      jump\t// in\n    tag_237:\n        /* \"#utility.yul\":9342:9412   */\n      swap3\n      pop\n        /* \"#utility.yul\":9198:9422   */\n      pop\n        /* \"#utility.yul\":9185:9186   */\n      0x01\n        /* \"#utility.yul\":9182:9183   */\n      dup2\n        /* \"#utility.yul\":9178:9187   */\n      add\n        /* \"#utility.yul\":9173:9187   */\n      swap1\n      pop\n        /* \"#utility.yul\":9138:9422   */\n      jump(tag_233)\n    tag_235:\n        /* \"#utility.yul\":9142:9156   */\n      pop\n        /* \"#utility.yul\":9438:9441   */\n      dup6\n        /* \"#utility.yul\":9431:9441   */\n      swap4\n      pop\n        /* \"#utility.yul\":8839:9447   */\n      pop\n      pop\n      pop\n        /* \"#utility.yul\":8715:9447   */\n      swap3\n      swap2\n      pop\n      pop\n      jump\t// out\n        /* \"#utility.yul\":9453:9826   */\n    tag_45:\n        /* \"#utility.yul\":9596:9600   */\n      0x00\n        /* \"#utility.yul\":9634:9636   */\n      0x20\n        /* \"#utility.yul\":9623:9632   */\n      dup3\n        /* \"#utility.yul\":9619:9637   */\n      add\n        /* \"#utility.yul\":9611:9637   */\n      swap1\n      pop\n        /* \"#utility.yul\":9683:9692   */\n      dup2\n        /* \"#utility.yul\":9677:9681   */\n      dup2\n        /* \"#utility.yul\":9673:9693   */\n      sub\n        /* \"#utility.yul\":9669:9670   */\n      0x00\n        /* \"#utility.yul\":9658:9667   */\n      dup4\n        /* \"#utility.yul\":9654:9671   */\n      add\n        /* \"#utility.yul\":9647:9694   */\n      mstore\n        /* \"#utility.yul\":9711:9819   */\n      tag_239\n        /* \"#utility.yul\":9814:9818   */\n      dup2\n        /* \"#utility.yul\":9805:9811   */\n      dup5\n        /* \"#utility.yul\":9711:9819   */\n      tag_124\n      jump\t// in\n    tag_239:\n        /* \"#utility.yul\":9703:9819   */\n      swap1\n      pop\n        /* \"#utility.yul\":9453:9826   */\n      swap3\n      swap2\n      pop\n      pop\n      jump\t// out\n        /* \"#utility.yul\":9832:10161   */\n    tag_49:\n        /* \"#utility.yul\":9891:9897   */\n      0x00\n        /* \"#utility.yul\":9940:9942   */\n      0x20\n        /* \"#utility.yul\":9928:9937   */\n      dup3\n        /* \"#utility.yul\":9919:9926   */\n      dup5\n        /* \"#utility.yul\":9915:9938   */\n      sub\n        /* \"#utility.yul\":9911:9943   */\n      slt\n        /* \"#utility.yul\":9908:10027   */\n      iszero\n      tag_241\n      jumpi\n        /* \"#utility.yul\":9946:10025   */\n      tag_242\n      tag_94\n      jump\t// in\n    tag_242:\n        /* \"#utility.yul\":9908:10027   */\n    tag_241:\n        /* \"#utility.yul\":10066:10067   */\n      0x00\n        /* \"#utility.yul\":10091:10144   */\n      tag_243\n        /* \"#utility.yul\":10136:10143   */\n      dup5\n        /* \"#utility.yul\":10127:10133   */\n      dup3\n        /* \"#utility.yul\":10116:10125   */\n      dup6\n        /* \"#utility.yul\":10112:10134   */\n      add\n        /* \"#utility.yul\":10091:10144   */\n      tag_101\n      jump\t// in\n    tag_243:\n        /* \"#utility.yul\":10081:10144   */\n      swap2\n      pop\n        /* \"#utility.yul\":10037:10154   */\n      pop\n        /* \"#utility.yul\":9832:10161   */\n      swap3\n      swap2\n      pop\n      pop\n      jump\t// out\n        /* \"#utility.yul\":10167:10285   */\n    tag_125:\n        /* \"#utility.yul\":10254:10278   */\n      tag_245\n        /* \"#utility.yul\":10272:10277   */\n      dup2\n        /* \"#utility.yul\":10254:10278   */\n      tag_102\n      jump\t// in\n    tag_245:\n        /* \"#utility.yul\":10249:10252   */\n      dup3\n        /* \"#utility.yul\":10242:10279   */\n      mstore\n        /* \"#utility.yul\":10167:10285   */\n      pop\n      pop\n      jump\t// out\n        /* \"#utility.yul\":10291:10390   */\n    tag_126:\n        /* \"#utility.yul\":10343:10349   */\n      0x00\n        /* \"#utility.yul\":10377:10382   */\n      dup2\n        /* \"#utility.yul\":10371:10383   */\n      mload\n        /* \"#utility.yul\":10361:10383   */\n      swap1\n      pop\n        /* \"#utility.yul\":10291:10390   */\n      swap2\n      swap1\n      pop\n      jump\t// out\n        /* \"#utility.yul\":10396:10565   */\n    tag_127:\n        /* \"#utility.yul\":10480:10491   */\n      0x00\n        /* \"#utility.yul\":10514:10520   */\n      dup3\n        /* \"#utility.yul\":10509:10512   */\n      dup3\n        /* \"#utility.yul\":10502:10521   */\n      mstore\n        /* \"#utility.yul\":10554:10558   */\n      0x20\n        /* \"#utility.yul\":10549:10552   */\n      dup3\n        /* \"#utility.yul\":10545:10559   */\n      add\n        /* \"#utility.yul\":10530:10559   */\n      swap1\n      pop\n        /* \"#utility.yul\":10396:10565   */\n      swap3\n      swap2\n      pop\n      pop\n      jump\t// out\n        /* \"#utility.yul\":10571:10878   */\n    tag_128:\n        /* \"#utility.yul\":10639:10640   */\n      0x00\n        /* \"#utility.yul\":10649:10762   */\n    tag_249:\n        /* \"#utility.yul\":10663:10669   */\n      dup4\n        /* \"#utility.yul\":10660:10661   */\n      dup2\n        /* \"#utility.yul\":10657:10670   */\n      lt\n        /* \"#utility.yul\":10649:10762   */\n      iszero\n      tag_251\n      jumpi\n        /* \"#utility.yul\":10748:10749   */\n      dup1\n        /* \"#utility.yul\":10743:10746   */\n      dup3\n        /* \"#utility.yul\":10739:10750   */\n      add\n        /* \"#utility.yul\":10733:10751   */\n      mload\n        /* \"#utility.yul\":10729:10730   */\n      dup2\n        /* \"#utility.yul\":10724:10727   */\n      dup5\n        /* \"#utility.yul\":10720:10731   */\n      add\n        /* \"#utility.yul\":10713:10752   */\n      mstore\n        /* \"#utility.yul\":10685:10687   */\n      0x20\n        /* \"#utility.yul\":10682:10683   */\n      dup2\n        /* \"#utility.yul\":10678:10688   */\n      add\n        /* \"#utility.yul\":10673:10688   */\n      swap1\n      pop\n        /* \"#utility.yul\":10649:10762   */\n      jump(tag_249)\n    tag_251:\n        /* \"#utility.yul\":10780:10786   */\n      dup4\n        /* \"#utility.yul\":10777:10778   */\n      dup2\n        /* \"#utility.yul\":10774:10787   */\n      gt\n        /* \"#utility.yul\":10771:10872   */\n      iszero\n      tag_252\n      jumpi\n        /* \"#utility.yul\":10860:10861   */\n      0x00\n        /* \"#utility.yul\":10851:10857   */\n      dup5\n        /* \"#utility.yul\":10846:10849   */\n      dup5\n        /* \"#utility.yul\":10842:10858   */\n      add\n        /* \"#utility.yul\":10835:10862   */\n      mstore\n        /* \"#utility.yul\":10771:10872   */\n    tag_252:\n        /* \"#utility.yul\":10620:10878   */\n      pop\n        /* \"#utility.yul\":10571:10878   */\n      pop\n      pop\n      pop\n      jump\t// out\n        /* \"#utility.yul\":10884:11248   */\n    tag_129:\n        /* \"#utility.yul\":10972:10975   */\n      0x00\n        /* \"#utility.yul\":11000:11039   */\n      tag_254\n        /* \"#utility.yul\":11033:11038   */\n      dup3\n        /* \"#utility.yul\":11000:11039   */\n      tag_126\n      jump\t// in\n    tag_254:\n        /* \"#utility.yul\":11055:11126   */\n      tag_255\n        /* \"#utility.yul\":11119:11125   */\n      dup2\n        /* \"#utility.yul\":11114:11117   */\n      dup6\n        /* \"#utility.yul\":11055:11126   */\n      tag_127\n      jump\t// in\n    tag_255:\n        /* \"#utility.yul\":11048:11126   */\n      swap4\n      pop\n        /* \"#utility.yul\":11135:11187   */\n      tag_256\n        /* \"#utility.yul\":11180:11186   */\n      dup2\n        /* \"#utility.yul\":11175:11178   */\n      dup6\n        /* \"#utility.yul\":11168:11172   */\n      0x20\n        /* \"#utility.yul\":11161:11166   */\n      dup7\n        /* \"#utility.yul\":11157:11173   */\n      add\n        /* \"#utility.yul\":11135:11187   */\n      tag_128\n      jump\t// in\n    tag_256:\n        /* \"#utility.yul\":11212:11241   */\n      tag_257\n        /* \"#utility.yul\":11234:11240   */\n      dup2\n        /* \"#utility.yul\":11212:11241   */\n      tag_107\n      jump\t// in\n    tag_257:\n        /* \"#utility.yul\":11207:11210   */\n      dup5\n        /* \"#utility.yul\":11203:11242   */\n      add\n        /* \"#utility.yul\":11196:11242   */\n      swap2\n      pop\n        /* \"#utility.yul\":10976:11248   */\n      pop\n        /* \"#utility.yul\":10884:11248   */\n      swap3\n      swap2\n      pop\n      pop\n      jump\t// out\n        /* \"#utility.yul\":11254:12453   */\n    tag_63:\n        /* \"#utility.yul\":11591:11595   */\n      0x00\n        /* \"#utility.yul\":11629:11632   */\n      0x0120\n        /* \"#utility.yul\":11618:11627   */\n      dup3\n        /* \"#utility.yul\":11614:11633   */\n      add\n        /* \"#utility.yul\":11606:11633   */\n      swap1\n      pop\n        /* \"#utility.yul\":11643:11714   */\n      tag_259\n        /* \"#utility.yul\":11711:11712   */\n      0x00\n        /* \"#utility.yul\":11700:11709   */\n      dup4\n        /* \"#utility.yul\":11696:11713   */\n      add\n        /* \"#utility.yul\":11687:11693   */\n      dup13\n        /* \"#utility.yul\":11643:11714   */\n      tag_92\n      jump\t// in\n    tag_259:\n        /* \"#utility.yul\":11724:11796   */\n      tag_260\n        /* \"#utility.yul\":11792:11794   */\n      0x20\n        /* \"#utility.yul\":11781:11790   */\n      dup4\n        /* \"#utility.yul\":11777:11795   */\n      add\n        /* \"#utility.yul\":11768:11774   */\n      dup12\n        /* \"#utility.yul\":11724:11796   */\n      tag_92\n      jump\t// in\n    tag_260:\n        /* \"#utility.yul\":11806:11878   */\n      tag_261\n        /* \"#utility.yul\":11874:11876   */\n      0x40\n        /* \"#utility.yul\":11863:11872   */\n      dup4\n        /* \"#utility.yul\":11859:11877   */\n      add\n        /* \"#utility.yul\":11850:11856   */\n      dup11\n        /* \"#utility.yul\":11806:11878   */\n      tag_117\n      jump\t// in\n    tag_261:\n        /* \"#utility.yul\":11888:11960   */\n      tag_262\n        /* \"#utility.yul\":11956:11958   */\n      0x60\n        /* \"#utility.yul\":11945:11954   */\n      dup4\n        /* \"#utility.yul\":11941:11959   */\n      add\n        /* \"#utility.yul\":11932:11938   */\n      dup10\n        /* \"#utility.yul\":11888:11960   */\n      tag_125\n      jump\t// in\n    tag_262:\n        /* \"#utility.yul\":11970:12043   */\n      tag_263\n        /* \"#utility.yul\":12038:12041   */\n      0x80\n        /* \"#utility.yul\":12027:12036   */\n      dup4\n        /* \"#utility.yul\":12023:12042   */\n      add\n        /* \"#utility.yul\":12014:12020   */\n      dup9\n        /* \"#utility.yul\":11970:12043   */\n      tag_125\n      jump\t// in\n    tag_263:\n        /* \"#utility.yul\":12091:12100   */\n      dup2\n        /* \"#utility.yul\":12085:12089   */\n      dup2\n        /* \"#utility.yul\":12081:12101   */\n      sub\n        /* \"#utility.yul\":12075:12078   */\n      0xa0\n        /* \"#utility.yul\":12064:12073   */\n      dup4\n        /* \"#utility.yul\":12060:12079   */\n      add\n        /* \"#utility.yul\":12053:12102   */\n      mstore\n        /* \"#utility.yul\":12119:12197   */\n      tag_264\n        /* \"#utility.yul\":12192:12196   */\n      dup2\n        /* \"#utility.yul\":12183:12189   */\n      dup8\n        /* \"#utility.yul\":12119:12197   */\n      tag_129\n      jump\t// in\n    tag_264:\n        /* \"#utility.yul\":12111:12197   */\n      swap1\n      pop\n        /* \"#utility.yul\":12207:12280   */\n      tag_265\n        /* \"#utility.yul\":12275:12278   */\n      0xc0\n        /* \"#utility.yul\":12264:12273   */\n      dup4\n        /* \"#utility.yul\":12260:12279   */\n      add\n        /* \"#utility.yul\":12251:12257   */\n      dup7\n        /* \"#utility.yul\":12207:12280   */\n      tag_92\n      jump\t// in\n    tag_265:\n        /* \"#utility.yul\":12290:12363   */\n      tag_266\n        /* \"#utility.yul\":12358:12361   */\n      0xe0\n        /* \"#utility.yul\":12347:12356   */\n      dup4\n        /* \"#utility.yul\":12343:12362   */\n      add\n        /* \"#utility.yul\":12334:12340   */\n      dup6\n        /* \"#utility.yul\":12290:12363   */\n      tag_92\n      jump\t// in\n    tag_266:\n        /* \"#utility.yul\":12373:12446   */\n      tag_267\n        /* \"#utility.yul\":12441:12444   */\n      0x0100\n        /* \"#utility.yul\":12430:12439   */\n      dup4\n        /* \"#utility.yul\":12426:12445   */\n      add\n        /* \"#utility.yul\":12417:12423   */\n      dup5\n        /* \"#utility.yul\":12373:12446   */\n      tag_92\n      jump\t// in\n    tag_267:\n        /* \"#utility.yul\":11254:12453   */\n      swap11\n      swap10\n      pop\n      pop\n      pop\n      pop\n      pop\n      pop\n      pop\n      pop\n      pop\n      pop\n      jump\t// out\n        /* \"#utility.yul\":12459:12901   */\n    tag_72:\n        /* \"#utility.yul\":12608:12612   */\n      0x00\n        /* \"#utility.yul\":12646:12648   */\n      0x60\n        /* \"#utility.yul\":12635:12644   */\n      dup3\n        /* \"#utility.yul\":12631:12649   */\n      add\n        /* \"#utility.yul\":12623:12649   */\n      swap1\n      pop\n        /* \"#utility.yul\":12659:12730   */\n      tag_269\n        /* \"#utility.yul\":12727:12728   */\n      0x00\n        /* \"#utility.yul\":12716:12725   */\n      dup4\n        /* \"#utility.yul\":12712:12729   */\n      add\n        /* \"#utility.yul\":12703:12709   */\n      dup7\n        /* \"#utility.yul\":12659:12730   */\n      tag_92\n      jump\t// in\n    tag_269:\n        /* \"#utility.yul\":12740:12812   */\n      tag_270\n        /* \"#utility.yul\":12808:12810   */\n      0x20\n        /* \"#utility.yul\":12797:12806   */\n      dup4\n        /* \"#utility.yul\":12793:12811   */\n      add\n        /* \"#utility.yul\":12784:12790   */\n      dup6\n        /* \"#utility.yul\":12740:12812   */\n      tag_92\n      jump\t// in\n    tag_270:\n        /* \"#utility.yul\":12822:12894   */\n      tag_271\n        /* \"#utility.yul\":12890:12892   */\n      0x40\n        /* \"#utility.yul\":12879:12888   */\n      dup4\n        /* \"#utility.yul\":12875:12893   */\n      add\n        /* \"#utility.yul\":12866:12872   */\n      dup5\n        /* \"#utility.yul\":12822:12894   */\n      tag_117\n      jump\t// in\n    tag_271:\n        /* \"#utility.yul\":12459:12901   */\n      swap5\n      swap4\n      pop\n      pop\n      pop\n      pop\n      jump\t// out\n        /* \"#utility.yul\":12907:13087   */\n    tag_88:\n        /* \"#utility.yul\":12955:13032   */\n      0x4e487b7100000000000000000000000000000000000000000000000000000000\n        /* \"#utility.yul\":12952:12953   */\n      0x00\n        /* \"#utility.yul\":12945:13033   */\n      mstore\n        /* \"#utility.yul\":13052:13056   */\n      0x32\n        /* \"#utility.yul\":13049:13050   */\n      0x04\n        /* \"#utility.yul\":13042:13057   */\n      mstore\n        /* \"#utility.yul\":13076:13080   */\n      0x24\n        /* \"#utility.yul\":13073:13074   */\n      0x00\n        /* \"#utility.yul\":13066:13081   */\n      revert\n\n    auxdata: 0xa264697066735822122071e3ef3dc52e2ac85c14e15f02254b7bc77801385cc88775eeef2945106ab12364736f6c63430008090033\n}\n\nsub_1: assembly {\n        /* \"channel.sol\":2323:7334  contract channel{... */\n      mstore(0x40, 0x80)\n        /* \"channel.sol\":2953:3064  constructor(){... */\n      callvalue\n      dup1\n      iszero\n      tag_1\n      jumpi\n      0x00\n      dup1\n      revert\n    tag_1:\n      pop\n        /* \"channel.sol\":3052:3056  true */\n      0x01\n        /* \"channel.sol\":3043:3049  isBase */\n      0x0a\n      0x00\n        /* \"channel.sol\":3043:3056  isBase = true */\n      0x0100\n      exp\n      dup2\n      sload\n      dup2\n      0xff\n      mul\n      not\n      and\n      swap1\n      dup4\n      iszero\n      iszero\n      mul\n      or\n      swap1\n      sstore\n      pop\n        /* \"channel.sol\":2323:7334  contract channel{... */\n      dataSize(sub_0)\n      dup1\n      dataOffset(sub_0)\n      0x00\n      codecopy\n      0x00\n      return\n    stop\n\n    sub_0: assembly {\n            /* \"channel.sol\":2323:7334  contract channel{... */\n          mstore(0x40, 0x80)\n          jumpi(tag_1, lt(calldatasize, 0x04))\n          shr(0xe0, calldataload(0x00))\n          dup1\n          0x88bf1930\n          gt\n          tag_19\n          jumpi\n          dup1\n          0xc3da42b8\n          gt\n          tag_20\n          jumpi\n          dup1\n          0xc3da42b8\n          eq\n          tag_15\n          jumpi\n          dup1\n          0xd8befbb6\n          eq\n          tag_16\n          jumpi\n          dup1\n          0xe8de68cc\n          eq\n          tag_17\n          jumpi\n          dup1\n          0xf493e870\n          eq\n          tag_18\n          jumpi\n          jump(tag_2)\n        tag_20:\n          dup1\n          0x88bf1930\n          eq\n          tag_11\n          jumpi\n          dup1\n          0x9c21a9b8\n          eq\n          tag_12\n          jumpi\n          dup1\n          0xa6ab36f2\n          eq\n          tag_13\n          jumpi\n          dup1\n          0xb582ec5f\n          eq\n          tag_14\n          jumpi\n          jump(tag_2)\n        tag_19:\n          dup1\n          0x50b1ad6b\n          gt\n          tag_21\n          jumpi\n          dup1\n          0x50b1ad6b\n          eq\n          tag_7\n          jumpi\n          dup1\n          0x5e650318\n          eq\n          tag_8\n          jumpi\n          dup1\n          0x7c2efcba\n          eq\n          tag_9\n          jumpi\n          dup1\n          0x7f80069a\n          eq\n          tag_10\n          jumpi\n          jump(tag_2)\n        tag_21:\n          dup1\n          0x0482ff76\n          eq\n          tag_3\n          jumpi\n          dup1\n          0x24763493\n          eq\n          tag_4\n          jumpi\n          dup1\n          0x2804b2c0\n          eq\n          tag_5\n          jumpi\n          dup1\n          0x34133df9\n          eq\n          tag_6\n          jumpi\n          jump(tag_2)\n        tag_1:\n          jumpi(tag_2, calldatasize)\n          stop\n        tag_2:\n          stop\n            /* \"channel.sol\":6730:6940  function channelClose() public payable onlyOwner{... */\n        tag_3:\n          tag_26\n          tag_27\n          jump\t// in\n        tag_26:\n          stop\n            /* \"channel.sol\":2666:2684  string public S_id */\n        tag_4:\n          callvalue\n          dup1\n          iszero\n          tag_28\n          jumpi\n          0x00\n          dup1\n          revert\n        tag_28:\n          pop\n          tag_29\n          tag_30\n          jump\t// in\n        tag_29:\n          mload(0x40)\n          tag_31\n          swap2\n          swap1\n          tag_32\n          jump\t// in\n        tag_31:\n          mload(0x40)\n          dup1\n          swap2\n          sub\n          swap1\n          return\n            /* \"channel.sol\":2407:2430  address public customer */\n        tag_5:\n          callvalue\n          dup1\n          iszero\n          tag_33\n          jumpi\n          0x00\n          dup1\n          revert\n        tag_33:\n          pop\n          tag_34\n          tag_35\n          jump\t// in\n        tag_34:\n          mload(0x40)\n          tag_36\n          swap2\n          swap1\n          tag_37\n          jump\t// in\n        tag_36:\n          mload(0x40)\n          dup1\n          swap2\n          sub\n          swap1\n          return\n            /* \"channel.sol\":2883:2900  uint256 public TR */\n        tag_6:\n          callvalue\n          dup1\n          iszero\n          tag_38\n          jumpi\n          0x00\n          dup1\n          revert\n        tag_38:\n          pop\n          tag_39\n          tag_40\n          jump\t// in\n        tag_39:\n          mload(0x40)\n          tag_41\n          swap2\n          swap1\n          tag_42\n          jump\t// in\n        tag_41:\n          mload(0x40)\n          dup1\n          swap2\n          sub\n          swap1\n          return\n            /* \"channel.sol\":3368:4088  function initialize(uint256 _c, uint256 _v, address _customer, bytes32 _W_jm, bytes32 _W_jc, string memory _S_id, ... */\n        tag_7:\n          tag_43\n          0x04\n          dup1\n          calldatasize\n          sub\n          dup2\n          add\n          swap1\n          tag_44\n          swap2\n          swap1\n          tag_45\n          jump\t// in\n        tag_44:\n          tag_46\n          jump\t// in\n        tag_43:\n          stop\n            /* \"channel.sol\":2546:2565  bytes32 public W_jc */\n        tag_8:\n          callvalue\n          dup1\n          iszero\n          tag_47\n          jumpi\n          0x00\n          dup1\n          revert\n        tag_47:\n          pop\n          tag_48\n          tag_49\n          jump\t// in\n        tag_48:\n          mload(0x40)\n          tag_50\n          swap2\n          swap1\n          tag_51\n          jump\t// in\n        tag_50:\n          mload(0x40)\n          dup1\n          swap2\n          sub\n          swap1\n          return\n            /* \"channel.sol\":2755:2771  uint256 public v */\n        tag_9:\n          callvalue\n          dup1\n          iszero\n          tag_52\n          jumpi\n          0x00\n          dup1\n          revert\n        tag_52:\n          pop\n          tag_53\n          tag_54\n          jump\t// in\n        tag_53:\n          mload(0x40)\n          tag_55\n          swap2\n          swap1\n          tag_42\n          jump\t// in\n        tag_55:\n          mload(0x40)\n          dup1\n          swap2\n          sub\n          swap1\n          return\n            /* \"channel.sol\":2925:2943  bool public isBase */\n        tag_10:\n          callvalue\n          dup1\n          iszero\n          tag_56\n          jumpi\n          0x00\n          dup1\n          revert\n        tag_56:\n          pop\n          tag_57\n          tag_58\n          jump\t// in\n        tag_57:\n          mload(0x40)\n          tag_59\n          swap2\n          swap1\n          tag_60\n          jump\t// in\n        tag_59:\n          mload(0x40)\n          dup1\n          swap2\n          sub\n          swap1\n          return\n            /* \"channel.sol\":2465:2484  bytes32 public W_jm */\n        tag_11:\n          callvalue\n          dup1\n          iszero\n          tag_61\n          jumpi\n          0x00\n          dup1\n          revert\n        tag_61:\n          pop\n          tag_62\n          tag_63\n          jump\t// in\n        tag_62:\n          mload(0x40)\n          tag_64\n          swap2\n          swap1\n          tag_51\n          jump\t// in\n        tag_64:\n          mload(0x40)\n          dup1\n          swap2\n          sub\n          swap1\n          return\n            /* \"channel.sol\":2842:2859  uint256 public TD */\n        tag_12:\n          callvalue\n          dup1\n          iszero\n          tag_65\n          jumpi\n          0x00\n          dup1\n          revert\n        tag_65:\n          pop\n          tag_66\n          tag_67\n          jump\t// in\n        tag_66:\n          mload(0x40)\n          tag_68\n          swap2\n          swap1\n          tag_42\n          jump\t// in\n        tag_68:\n          mload(0x40)\n          dup1\n          swap2\n          sub\n          swap1\n          return\n            /* \"channel.sol\":3072:3360  function initialize(uint256 _c, uint256 _v, address _customer) external payable{... */\n        tag_13:\n          tag_69\n          0x04\n          dup1\n          calldatasize\n          sub\n          dup2\n          add\n          swap1\n          tag_70\n          swap2\n          swap1\n          tag_71\n          jump\t// in\n        tag_70:\n          tag_72\n          jump\t// in\n        tag_69:\n          stop\n            /* \"channel.sol\":2384:2400  uint256 public j */\n        tag_14:\n          callvalue\n          dup1\n          iszero\n          tag_73\n          jumpi\n          0x00\n          dup1\n          revert\n        tag_73:\n          pop\n          tag_74\n          tag_75\n          jump\t// in\n        tag_74:\n          mload(0x40)\n          tag_76\n          swap2\n          swap1\n          tag_42\n          jump\t// in\n        tag_76:\n          mload(0x40)\n          dup1\n          swap2\n          sub\n          swap1\n          return\n            /* \"channel.sol\":2712:2728  uint256 public c */\n        tag_15:\n          callvalue\n          dup1\n          iszero\n          tag_77\n          jumpi\n          0x00\n          dup1\n          revert\n        tag_77:\n          pop\n          tag_78\n          tag_79\n          jump\t// in\n        tag_78:\n          mload(0x40)\n          tag_80\n          swap2\n          swap1\n          tag_42\n          jump\t// in\n        tag_80:\n          mload(0x40)\n          dup1\n          swap2\n          sub\n          swap1\n          return\n            /* \"channel.sol\":4934:6564  function transferDeposit(bytes memory _W_km, bytes memory _W_kc, uint256 k, address newChannelAddress) public {... */\n        tag_16:\n          callvalue\n          dup1\n          iszero\n          tag_81\n          jumpi\n          0x00\n          dup1\n          revert\n        tag_81:\n          pop\n          tag_82\n          0x04\n          dup1\n          calldatasize\n          sub\n          dup2\n          add\n          swap1\n          tag_83\n          swap2\n          swap1\n          tag_84\n          jump\t// in\n        tag_83:\n          tag_85\n          jump\t// in\n        tag_82:\n          stop\n            /* \"channel.sol\":4145:4722  function setChannelParams(bytes32 _W_jm, bytes32 _W_jc, string memory _S_id, uint256 _c, uint256 _v, uint256 _T_exp, uint256 _TD, uint256 _TR) public onlyOwner {... */\n        tag_17:\n          callvalue\n          dup1\n          iszero\n          tag_86\n          jumpi\n          0x00\n          dup1\n          revert\n        tag_86:\n          pop\n          tag_87\n          0x04\n          dup1\n          calldatasize\n          sub\n          dup2\n          add\n          swap1\n          tag_88\n          swap2\n          swap1\n          tag_89\n          jump\t// in\n        tag_88:\n          tag_90\n          jump\t// in\n        tag_87:\n          stop\n            /* \"channel.sol\":2797:2817  uint256 public T_exp */\n        tag_18:\n          callvalue\n          dup1\n          iszero\n          tag_91\n          jumpi\n          0x00\n          dup1\n          revert\n        tag_91:\n          pop\n          tag_92\n          tag_93\n          jump\t// in\n        tag_92:\n          mload(0x40)\n          tag_94\n          swap2\n          swap1\n          tag_42\n          jump\t// in\n        tag_94:\n          mload(0x40)\n          dup1\n          swap2\n          sub\n          swap1\n          return\n            /* \"channel.sol\":6730:6940  function channelClose() public payable onlyOwner{... */\n        tag_27:\n            /* \"channel.sol\":7241:7249  customer */\n          0x01\n          0x00\n          swap1\n          sload\n          swap1\n          0x0100\n          exp\n          swap1\n          div\n          0xffffffffffffffffffffffffffffffffffffffff\n          and\n            /* \"channel.sol\":7227:7249  msg.sender == customer */\n          0xffffffffffffffffffffffffffffffffffffffff\n          and\n            /* \"channel.sol\":7227:7237  msg.sender */\n          caller\n            /* \"channel.sol\":7227:7249  msg.sender == customer */\n          0xffffffffffffffffffffffffffffffffffffffff\n          and\n          eq\n            /* \"channel.sol\":7218:7311  require (msg.sender == customer, \"Only customer of the delivery can set the channel params.\") */\n          tag_96\n          jumpi\n          mload(0x40)\n          0x08c379a000000000000000000000000000000000000000000000000000000000\n          dup2\n          mstore\n          0x04\n          add\n          tag_97\n          swap1\n          tag_98\n          jump\t// in\n        tag_97:\n          mload(0x40)\n          dup1\n          swap2\n          sub\n          swap1\n          revert\n        tag_96:\n            /* \"channel.sol\":6857:6872  block.timestamp */\n          timestamp\n            /* \"channel.sol\":6852:6854  TD */\n          sload(0x08)\n            /* \"channel.sol\":6844:6849  T_exp */\n          sload(0x07)\n            /* \"channel.sol\":6844:6854  T_exp + TD */\n          tag_100\n          swap2\n          swap1\n          tag_101\n          jump\t// in\n        tag_100:\n            /* \"channel.sol\":6844:6872  T_exp + TD < block.timestamp */\n          lt\n            /* \"channel.sol\":6835:6888  require((T_exp + TD < block.timestamp), \"Time error\") */\n          tag_102\n          jumpi\n          mload(0x40)\n          0x08c379a000000000000000000000000000000000000000000000000000000000\n          dup2\n          mstore\n          0x04\n          add\n          tag_103\n          swap1\n          tag_104\n          jump\t// in\n        tag_103:\n          mload(0x40)\n          dup1\n          swap2\n          sub\n          swap1\n          revert\n        tag_102:\n            /* \"channel.sol\":6920:6930  msg.sender */\n          caller\n            /* \"channel.sol\":6899:6932  selfdestruct(payable(msg.sender)) */\n          0xffffffffffffffffffffffffffffffffffffffff\n          and\n          selfdestruct\n            /* \"channel.sol\":2666:2684  string public S_id */\n        tag_30:\n          0x04\n          dup1\n          sload\n          tag_105\n          swap1\n          tag_106\n          jump\t// in\n        tag_105:\n          dup1\n          0x1f\n          add\n          0x20\n          dup1\n          swap2\n          div\n          mul\n          0x20\n          add\n          mload(0x40)\n          swap1\n          dup2\n          add\n          0x40\n          mstore\n          dup1\n          swap3\n          swap2\n          swap1\n          dup2\n          dup2\n          mstore\n          0x20\n          add\n          dup3\n          dup1\n          sload\n          tag_107\n          swap1\n          tag_106\n          jump\t// in\n        tag_107:\n          dup1\n          iszero\n          tag_108\n          jumpi\n          dup1\n          0x1f\n          lt\n          tag_109\n          jumpi\n          0x0100\n          dup1\n          dup4\n          sload\n          div\n          mul\n          dup4\n          mstore\n          swap2\n          0x20\n          add\n          swap2\n          jump(tag_108)\n        tag_109:\n          dup3\n          add\n          swap2\n          swap1\n          0x00\n          mstore\n          keccak256(0x00, 0x20)\n          swap1\n        tag_110:\n          dup2\n          sload\n          dup2\n          mstore\n          swap1\n          0x01\n          add\n          swap1\n          0x20\n          add\n          dup1\n          dup4\n          gt\n          tag_110\n          jumpi\n          dup3\n          swap1\n          sub\n          0x1f\n          and\n          dup3\n          add\n          swap2\n        tag_108:\n          pop\n          pop\n          pop\n          pop\n          pop\n          dup2\n          jump\t// out\n            /* \"channel.sol\":2407:2430  address public customer */\n        tag_35:\n          0x01\n          0x00\n          swap1\n          sload\n          swap1\n          0x0100\n          exp\n          swap1\n          div\n          0xffffffffffffffffffffffffffffffffffffffff\n          and\n          dup2\n          jump\t// out\n            /* \"channel.sol\":2883:2900  uint256 public TR */\n        tag_40:\n          sload(0x09)\n          dup2\n          jump\t// out\n            /* \"channel.sol\":3368:4088  function initialize(uint256 _c, uint256 _v, address _customer, bytes32 _W_jm, bytes32 _W_jc, string memory _S_id, ... */\n        tag_46:\n            /* \"channel.sol\":3575:3580  false */\n          0x00\n            /* \"channel.sol\":3565:3580  isBase == false */\n          iszero\n          iszero\n            /* \"channel.sol\":3565:3571  isBase */\n          0x0a\n          0x00\n          swap1\n          sload\n          swap1\n          0x0100\n          exp\n          swap1\n          div\n          0xff\n          and\n            /* \"channel.sol\":3565:3580  isBase == false */\n          iszero\n          iszero\n          eq\n            /* \"channel.sol\":3557:3581  require(isBase == false) */\n          tag_112\n          jumpi\n          0x00\n          dup1\n          revert\n        tag_112:\n            /* \"channel.sol\":3616:3618  _v */\n          dup8\n            /* \"channel.sol\":3613:3615  _c */\n          dup10\n            /* \"channel.sol\":3613:3618  _c*_v */\n          tag_113\n          swap2\n          swap1\n          tag_114\n          jump\t// in\n        tag_113:\n            /* \"channel.sol\":3600:3609  msg.value */\n          callvalue\n            /* \"channel.sol\":3600:3618  msg.value == _c*_v */\n          eq\n            /* \"channel.sol\":3592:3636  require(msg.value == _c*_v, 'balance error') */\n          tag_115\n          jumpi\n          mload(0x40)\n          0x08c379a000000000000000000000000000000000000000000000000000000000\n          dup2\n          mstore\n          0x04\n          add\n          tag_116\n          swap1\n          tag_117\n          jump\t// in\n        tag_116:\n          mload(0x40)\n          dup1\n          swap2\n          sub\n          swap1\n          revert\n        tag_115:\n            /* \"channel.sol\":3665:3666  0 */\n          0x00\n            /* \"channel.sol\":3656:3661  T_exp */\n          sload(0x07)\n            /* \"channel.sol\":3656:3666  T_exp == 0 */\n          eq\n            /* \"channel.sol\":3656:3677  T_exp == 0 && TD == 0 */\n          dup1\n          iszero\n          tag_118\n          jumpi\n          pop\n            /* \"channel.sol\":3676:3677  0 */\n          0x00\n            /* \"channel.sol\":3670:3672  TD */\n          sload(0x08)\n            /* \"channel.sol\":3670:3677  TD == 0 */\n          eq\n            /* \"channel.sol\":3656:3677  T_exp == 0 && TD == 0 */\n        tag_118:\n            /* \"channel.sol\":3656:3688  T_exp == 0 && TD == 0 && TR == 0 */\n          dup1\n          iszero\n          tag_119\n          jumpi\n          pop\n            /* \"channel.sol\":3687:3688  0 */\n          0x00\n            /* \"channel.sol\":3681:3683  TR */\n          sload(0x09)\n            /* \"channel.sol\":3681:3688  TR == 0 */\n          eq\n            /* \"channel.sol\":3656:3688  T_exp == 0 && TD == 0 && TR == 0 */\n        tag_119:\n            /* \"channel.sol\":3656:3722  T_exp == 0 && TD == 0 && TR == 0 && (T_exp + TD) < block.timestamp */\n          dup1\n          iszero\n          tag_120\n          jumpi\n          pop\n            /* \"channel.sol\":3707:3722  block.timestamp */\n          timestamp\n            /* \"channel.sol\":3701:3703  TD */\n          sload(0x08)\n            /* \"channel.sol\":3693:3698  T_exp */\n          sload(0x07)\n            /* \"channel.sol\":3693:3703  T_exp + TD */\n          tag_121\n          swap2\n          swap1\n          tag_101\n          jump\t// in\n        tag_121:\n            /* \"channel.sol\":3692:3722  (T_exp + TD) < block.timestamp */\n          lt\n            /* \"channel.sol\":3656:3722  T_exp == 0 && TD == 0 && TR == 0 && (T_exp + TD) < block.timestamp */\n        tag_120:\n            /* \"channel.sol\":3655:3810  (T_exp == 0 && TD == 0 && TR == 0 && (T_exp + TD) < block.timestamp) || ((T_exp + TD) < block.timestamp ... */\n          dup1\n          tag_122\n          jumpi\n          pop\n            /* \"channel.sol\":3743:3758  block.timestamp */\n          timestamp\n            /* \"channel.sol\":3737:3739  TD */\n          sload(0x08)\n            /* \"channel.sol\":3729:3734  T_exp */\n          sload(0x07)\n            /* \"channel.sol\":3729:3739  T_exp + TD */\n          tag_123\n          swap2\n          swap1\n          tag_101\n          jump\t// in\n        tag_123:\n            /* \"channel.sol\":3728:3758  (T_exp + TD) < block.timestamp */\n          lt\n            /* \"channel.sol\":3728:3809  (T_exp + TD) < block.timestamp ... */\n          dup1\n          iszero\n          tag_124\n          jumpi\n          pop\n            /* \"channel.sol\":3805:3807  TR */\n          sload(0x09)\n            /* \"channel.sol\":3800:3802  TD */\n          sload(0x08)\n            /* \"channel.sol\":3792:3797  T_exp */\n          sload(0x07)\n            /* \"channel.sol\":3792:3802  T_exp + TD */\n          tag_125\n          swap2\n          swap1\n          tag_101\n          jump\t// in\n        tag_125:\n            /* \"channel.sol\":3792:3807  T_exp + TD + TR */\n          tag_126\n          swap2\n          swap1\n          tag_101\n          jump\t// in\n        tag_126:\n            /* \"channel.sol\":3773:3788  block.timestamp */\n          timestamp\n            /* \"channel.sol\":3773:3808  block.timestamp < (T_exp + TD + TR) */\n          lt\n            /* \"channel.sol\":3728:3809  (T_exp + TD) < block.timestamp ... */\n        tag_124:\n            /* \"channel.sol\":3655:3810  (T_exp == 0 && TD == 0 && TR == 0 && (T_exp + TD) < block.timestamp) || ((T_exp + TD) < block.timestamp ... */\n        tag_122:\n            /* \"channel.sol\":3647:3811  require((T_exp == 0 && TD == 0 && TR == 0 && (T_exp + TD) < block.timestamp) || ((T_exp + TD) < block.timestamp ... */\n          tag_127\n          jumpi\n          0x00\n          dup1\n          revert\n        tag_127:\n            /* \"channel.sol\":3843:3852  _customer */\n          dup7\n            /* \"channel.sol\":3832:3840  customer */\n          0x01\n          0x00\n            /* \"channel.sol\":3832:3852  customer = _customer */\n          0x0100\n          exp\n          dup2\n          sload\n          dup2\n          0xffffffffffffffffffffffffffffffffffffffff\n          mul\n          not\n          and\n          swap1\n          dup4\n          0xffffffffffffffffffffffffffffffffffffffff\n          and\n          mul\n          or\n          swap1\n          sstore\n          pop\n            /* \"channel.sol\":3867:3869  _c */\n          dup9\n            /* \"channel.sol\":3863:3864  c */\n          0x05\n            /* \"channel.sol\":3863:3869  c = _c */\n          dup2\n          swap1\n          sstore\n          pop\n            /* \"channel.sol\":3884:3886  _v */\n          dup8\n            /* \"channel.sol\":3880:3881  v */\n          0x06\n            /* \"channel.sol\":3880:3886  v = _v */\n          dup2\n          swap1\n          sstore\n          pop\n            /* \"channel.sol\":3903:3904  0 */\n          0x00\n            /* \"channel.sol\":3899:3900  j */\n          dup1\n            /* \"channel.sol\":3899:3904  j = 0 */\n          dup2\n          swap1\n          sstore\n          pop\n            /* \"channel.sol\":3932:3937  _W_jm */\n          dup6\n            /* \"channel.sol\":3925:3929  W_jm */\n          0x02\n            /* \"channel.sol\":3925:3937  W_jm = _W_jm */\n          dup2\n          swap1\n          sstore\n          pop\n            /* \"channel.sol\":3955:3960  _W_jc */\n          dup5\n            /* \"channel.sol\":3948:3952  W_jc */\n          0x03\n            /* \"channel.sol\":3948:3960  W_jc = _W_jc */\n          dup2\n          swap1\n          sstore\n          pop\n            /* \"channel.sol\":3978:3983  _S_id */\n          dup4\n            /* \"channel.sol\":3971:3975  S_id */\n          0x04\n            /* \"channel.sol\":3971:3983  S_id = _S_id */\n          swap1\n          dup1\n          mload\n          swap1\n          0x20\n          add\n          swap1\n          tag_128\n          swap3\n          swap2\n          swap1\n          tag_129\n          jump\t// in\n        tag_128:\n          pop\n            /* \"channel.sol\":3998:4000  _c */\n          dup9\n            /* \"channel.sol\":3994:3995  c */\n          0x05\n            /* \"channel.sol\":3994:4000  c = _c */\n          dup2\n          swap1\n          sstore\n          pop\n            /* \"channel.sol\":4015:4017  _v */\n          dup8\n            /* \"channel.sol\":4011:4012  v */\n          0x06\n            /* \"channel.sol\":4011:4017  v = _v */\n          dup2\n          swap1\n          sstore\n          pop\n            /* \"channel.sol\":4036:4042  _T_exp */\n          dup3\n            /* \"channel.sol\":4028:4033  T_exp */\n          0x07\n            /* \"channel.sol\":4028:4042  T_exp = _T_exp */\n          dup2\n          swap1\n          sstore\n          pop\n            /* \"channel.sol\":4058:4061  _TD */\n          dup2\n            /* \"channel.sol\":4053:4055  TD */\n          0x08\n            /* \"channel.sol\":4053:4061  TD = _TD */\n          dup2\n          swap1\n          sstore\n          pop\n            /* \"channel.sol\":4077:4080  _TR */\n          dup1\n            /* \"channel.sol\":4072:4074  TR */\n          0x09\n            /* \"channel.sol\":4072:4080  TR = _TR */\n          dup2\n          swap1\n          sstore\n          pop\n            /* \"channel.sol\":3368:4088  function initialize(uint256 _c, uint256 _v, address _customer, bytes32 _W_jm, bytes32 _W_jc, string memory _S_id, ... */\n          pop\n          pop\n          pop\n          pop\n          pop\n          pop\n          pop\n          pop\n          pop\n          jump\t// out\n            /* \"channel.sol\":2546:2565  bytes32 public W_jc */\n        tag_49:\n          sload(0x03)\n          dup2\n          jump\t// out\n            /* \"channel.sol\":2755:2771  uint256 public v */\n        tag_54:\n          sload(0x06)\n          dup2\n          jump\t// out\n            /* \"channel.sol\":2925:2943  bool public isBase */\n        tag_58:\n          0x0a\n          0x00\n          swap1\n          sload\n          swap1\n          0x0100\n          exp\n          swap1\n          div\n          0xff\n          and\n          dup2\n          jump\t// out\n            /* \"channel.sol\":2465:2484  bytes32 public W_jm */\n        tag_63:\n          sload(0x02)\n          dup2\n          jump\t// out\n            /* \"channel.sol\":2842:2859  uint256 public TD */\n        tag_67:\n          sload(0x08)\n          dup2\n          jump\t// out\n            /* \"channel.sol\":3072:3360  function initialize(uint256 _c, uint256 _v, address _customer) external payable{... */\n        tag_72:\n            /* \"channel.sol\":3180:3185  false */\n          0x00\n            /* \"channel.sol\":3170:3185  isBase == false */\n          iszero\n          iszero\n            /* \"channel.sol\":3170:3176  isBase */\n          0x0a\n          0x00\n          swap1\n          sload\n          swap1\n          0x0100\n          exp\n          swap1\n          div\n          0xff\n          and\n            /* \"channel.sol\":3170:3185  isBase == false */\n          iszero\n          iszero\n          eq\n            /* \"channel.sol\":3162:3186  require(isBase == false) */\n          tag_131\n          jumpi\n          0x00\n          dup1\n          revert\n        tag_131:\n            /* \"channel.sol\":3208:3217  _customer */\n          dup1\n            /* \"channel.sol\":3197:3205  customer */\n          0x01\n          0x00\n            /* \"channel.sol\":3197:3217  customer = _customer */\n          0x0100\n          exp\n          dup2\n          sload\n          dup2\n          0xffffffffffffffffffffffffffffffffffffffff\n          mul\n          not\n          and\n          swap1\n          dup4\n          0xffffffffffffffffffffffffffffffffffffffff\n          and\n          mul\n          or\n          swap1\n          sstore\n          pop\n            /* \"channel.sol\":3232:3234  _c */\n          dup3\n            /* \"channel.sol\":3228:3229  c */\n          0x05\n            /* \"channel.sol\":3228:3234  c = _c */\n          dup2\n          swap1\n          sstore\n          pop\n            /* \"channel.sol\":3249:3251  _v */\n          dup2\n            /* \"channel.sol\":3245:3246  v */\n          0x06\n            /* \"channel.sol\":3245:3251  v = _v */\n          dup2\n          swap1\n          sstore\n          pop\n            /* \"channel.sol\":3280:3281  0 */\n          0x00\n            /* \"channel.sol\":3267:3276  msg.value */\n          callvalue\n            /* \"channel.sol\":3267:3281  msg.value != 0 */\n          eq\n            /* \"channel.sol\":3264:3353  if(msg.value != 0){... */\n          tag_132\n          jumpi\n            /* \"channel.sol\":3321:3323  _v */\n          dup2\n            /* \"channel.sol\":3318:3320  _c */\n          dup4\n            /* \"channel.sol\":3318:3323  _c*_v */\n          tag_133\n          swap2\n          swap1\n          tag_114\n          jump\t// in\n        tag_133:\n            /* \"channel.sol\":3305:3314  msg.value */\n          callvalue\n            /* \"channel.sol\":3305:3323  msg.value == _c*_v */\n          eq\n            /* \"channel.sol\":3297:3341  require(msg.value == _c*_v, 'balance error') */\n          tag_134\n          jumpi\n          mload(0x40)\n          0x08c379a000000000000000000000000000000000000000000000000000000000\n          dup2\n          mstore\n          0x04\n          add\n          tag_135\n          swap1\n          tag_117\n          jump\t// in\n        tag_135:\n          mload(0x40)\n          dup1\n          swap2\n          sub\n          swap1\n          revert\n        tag_134:\n            /* \"channel.sol\":3264:3353  if(msg.value != 0){... */\n        tag_132:\n            /* \"channel.sol\":3072:3360  function initialize(uint256 _c, uint256 _v, address _customer) external payable{... */\n          pop\n          pop\n          pop\n          jump\t// out\n            /* \"channel.sol\":2384:2400  uint256 public j */\n        tag_75:\n          sload(0x00)\n          dup2\n          jump\t// out\n            /* \"channel.sol\":2712:2728  uint256 public c */\n        tag_79:\n          sload(0x05)\n          dup2\n          jump\t// out\n            /* \"channel.sol\":4934:6564  function transferDeposit(bytes memory _W_km, bytes memory _W_kc, uint256 k, address newChannelAddress) public {... */\n        tag_85:\n            /* \"channel.sol\":5092:5094  TD */\n          sload(0x08)\n            /* \"channel.sol\":5084:5089  T_exp */\n          sload(0x07)\n            /* \"channel.sol\":5084:5094  T_exp + TD */\n          tag_137\n          swap2\n          swap1\n          tag_101\n          jump\t// in\n        tag_137:\n            /* \"channel.sol\":5065:5080  block.timestamp */\n          timestamp\n            /* \"channel.sol\":5065:5095  block.timestamp < (T_exp + TD) */\n          lt\n            /* \"channel.sol\":5055:5113  require ((block.timestamp < (T_exp + TD)), \"Time error\"  ) */\n          tag_138\n          jumpi\n          mload(0x40)\n          0x08c379a000000000000000000000000000000000000000000000000000000000\n          dup2\n          mstore\n          0x04\n          add\n          tag_139\n          swap1\n          tag_104\n          jump\t// in\n        tag_139:\n          mload(0x40)\n          dup1\n          swap2\n          sub\n          swap1\n          revert\n        tag_138:\n            /* \"channel.sol\":5137:5138  j */\n          sload(0x00)\n            /* \"channel.sol\":5133:5134  k */\n          dup3\n            /* \"channel.sol\":5133:5138  k > j */\n          gt\n            /* \"channel.sol\":5124:5149  require (k > j, \"k <= j\") */\n          tag_140\n          jumpi\n          mload(0x40)\n          0x08c379a000000000000000000000000000000000000000000000000000000000\n          dup2\n          mstore\n          0x04\n          add\n          tag_141\n          swap1\n          tag_142\n          jump\t// in\n        tag_141:\n          mload(0x40)\n          dup1\n          swap2\n          sub\n          swap1\n          revert\n        tag_140:\n            /* \"channel.sol\":5174:5189  uint256 balance */\n          0x00\n            /* \"channel.sol\":5200:5214  bytes32 hash_m */\n          dup1\n            /* \"channel.sol\":5225:5230  _W_km */\n          dup6\n            /* \"channel.sol\":5217:5231  bytes32(_W_km) */\n          tag_143\n          swap1\n          tag_144\n          jump\t// in\n        tag_143:\n            /* \"channel.sol\":5200:5231  bytes32 hash_m = bytes32(_W_km) */\n          swap1\n          pop\n            /* \"channel.sol\":5242:5256  bytes32 hash_c */\n          0x00\n            /* \"channel.sol\":5267:5272  _W_kc */\n          dup6\n            /* \"channel.sol\":5259:5273  bytes32(_W_kc) */\n          tag_145\n          swap1\n          tag_144\n          jump\t// in\n        tag_145:\n            /* \"channel.sol\":5242:5273  bytes32 hash_c = bytes32(_W_kc) */\n          swap1\n          pop\n            /* \"channel.sol\":5284:5293  uint256 i */\n          0x00\n            /* \"channel.sol\":5298:5299  j */\n          dup1\n          sload\n            /* \"channel.sol\":5296:5297  k */\n          dup7\n            /* \"channel.sol\":5296:5299  k-j */\n          tag_146\n          swap2\n          swap1\n          tag_147\n          jump\t// in\n        tag_146:\n            /* \"channel.sol\":5284:5299  uint256 i = k-j */\n          swap1\n          pop\n            /* \"channel.sol\":5320:5464  for (i; i!= 0; i--){... */\n        tag_148:\n            /* \"channel.sol\":5332:5333  0 */\n          0x00\n            /* \"channel.sol\":5328:5329  i */\n          dup2\n            /* \"channel.sol\":5328:5333  i!= 0 */\n          eq\n            /* \"channel.sol\":5320:5464  for (i; i!= 0; i--){... */\n          tag_149\n          jumpi\n            /* \"channel.sol\":5363:5395  sha256(abi.encodePacked(hash_m)) */\n          0x02\n            /* \"channel.sol\":5387:5393  hash_m */\n          dup4\n            /* \"channel.sol\":5370:5394  abi.encodePacked(hash_m) */\n          add(0x20, mload(0x40))\n          tag_151\n          swap2\n          swap1\n          tag_152\n          jump\t// in\n        tag_151:\n          mload(0x40)\n          0x20\n          dup2\n          dup4\n          sub\n          sub\n          dup2\n          mstore\n          swap1\n          0x40\n          mstore\n            /* \"channel.sol\":5363:5395  sha256(abi.encodePacked(hash_m)) */\n          mload(0x40)\n          tag_153\n          swap2\n          swap1\n          tag_154\n          jump\t// in\n        tag_153:\n          0x20\n          mload(0x40)\n          dup1\n          dup4\n          sub\n          dup2\n          dup6\n          gas\n          staticcall\n          iszero\n          dup1\n          iszero\n          tag_156\n          jumpi\n          returndatasize\n          0x00\n          dup1\n          returndatacopy\n          revert(0x00, returndatasize)\n        tag_156:\n          pop\n          pop\n          pop\n          mload(0x40)\n          returndatasize\n          not(0x1f)\n          0x1f\n          dup3\n          add\n          and\n          dup3\n          add\n          dup1\n          0x40\n          mstore\n          pop\n          dup2\n          add\n          swap1\n          tag_157\n          swap2\n          swap1\n          tag_158\n          jump\t// in\n        tag_157:\n            /* \"channel.sol\":5354:5395  hash_m = sha256(abi.encodePacked(hash_m)) */\n          swap3\n          pop\n            /* \"channel.sol\":5419:5451  sha256(abi.encodePacked(hash_c)) */\n          0x02\n            /* \"channel.sol\":5443:5449  hash_c */\n          dup3\n            /* \"channel.sol\":5426:5450  abi.encodePacked(hash_c) */\n          add(0x20, mload(0x40))\n          tag_159\n          swap2\n          swap1\n          tag_152\n          jump\t// in\n        tag_159:\n          mload(0x40)\n          0x20\n          dup2\n          dup4\n          sub\n          sub\n          dup2\n          mstore\n          swap1\n          0x40\n          mstore\n            /* \"channel.sol\":5419:5451  sha256(abi.encodePacked(hash_c)) */\n          mload(0x40)\n          tag_160\n          swap2\n          swap1\n          tag_154\n          jump\t// in\n        tag_160:\n          0x20\n          mload(0x40)\n          dup1\n          dup4\n          sub\n          dup2\n          dup6\n          gas\n          staticcall\n          iszero\n          dup1\n          iszero\n          tag_162\n          jumpi\n          returndatasize\n          0x00\n          dup1\n          returndatacopy\n          revert(0x00, returndatasize)\n        tag_162:\n          pop\n          pop\n          pop\n          mload(0x40)\n          returndatasize\n          not(0x1f)\n          0x1f\n          dup3\n          add\n          and\n          dup3\n          add\n          dup1\n          0x40\n          mstore\n          pop\n          dup2\n          add\n          swap1\n          tag_163\n          swap2\n          swap1\n          tag_158\n          jump\t// in\n        tag_163:\n            /* \"channel.sol\":5410:5451  hash_c = sha256(abi.encodePacked(hash_c)) */\n          swap2\n          pop\n            /* \"channel.sol\":5335:5338  i-- */\n          dup1\n          dup1\n          tag_164\n          swap1\n          tag_165\n          jump\t// in\n        tag_164:\n          swap2\n          pop\n          pop\n            /* \"channel.sol\":5320:5464  for (i; i!= 0; i--){... */\n          jump(tag_148)\n        tag_149:\n            /* \"channel.sol\":5493:5499  hash_m */\n          dup3\n            /* \"channel.sol\":5485:5489  W_jm */\n          sload(0x02)\n            /* \"channel.sol\":5485:5499  W_jm == hash_m */\n          eq\n            /* \"channel.sol\":5476:5521  require (W_jm == hash_m, \"W_km is incorrect\") */\n          tag_166\n          jumpi\n          mload(0x40)\n          0x08c379a000000000000000000000000000000000000000000000000000000000\n          dup2\n          mstore\n          0x04\n          add\n          tag_167\n          swap1\n          tag_168\n          jump\t// in\n        tag_167:\n          mload(0x40)\n          dup1\n          swap2\n          sub\n          swap1\n          revert\n        tag_166:\n            /* \"channel.sol\":5549:5555  hash_c */\n          dup2\n            /* \"channel.sol\":5541:5545  W_jc */\n          sload(0x03)\n            /* \"channel.sol\":5541:5555  W_jc == hash_c */\n          eq\n            /* \"channel.sol\":5532:5577  require (W_jc == hash_c, \"W_kc is incorrect\") */\n          tag_169\n          jumpi\n          mload(0x40)\n          0x08c379a000000000000000000000000000000000000000000000000000000000\n          dup2\n          mstore\n          0x04\n          add\n          tag_170\n          swap1\n          tag_171\n          jump\t// in\n        tag_170:\n          mload(0x40)\n          dup1\n          swap2\n          sub\n          swap1\n          revert\n        tag_169:\n            /* \"channel.sol\":5608:5609  0 */\n          0x00\n            /* \"channel.sol\":5603:5604  2 */\n          0x02\n            /* \"channel.sol\":5601:5602  k */\n          dup8\n            /* \"channel.sol\":5601:5604  k%2 */\n          tag_172\n          swap2\n          swap1\n          tag_173\n          jump\t// in\n        tag_172:\n            /* \"channel.sol\":5601:5609  k%2 == 0 */\n          eq\n            /* \"channel.sol\":5598:6253  if(k%2 == 0){... */\n          iszero\n          tag_174\n          jumpi\n            /* \"channel.sol\":5642:5643  2 */\n          0x02\n            /* \"channel.sol\":5639:5640  j */\n          sload(0x00)\n            /* \"channel.sol\":5637:5638  k */\n          dup8\n            /* \"channel.sol\":5637:5640  k-j */\n          tag_175\n          swap2\n          swap1\n          tag_147\n          jump\t// in\n        tag_175:\n            /* \"channel.sol\":5636:5643  (k-j)/2 */\n          tag_176\n          swap2\n          swap1\n          tag_177\n          jump\t// in\n        tag_176:\n            /* \"channel.sol\":5625:5644  balance = ((k-j)/2) */\n          swap4\n          pop\n            /* \"channel.sol\":5663:5664  k */\n          dup6\n            /* \"channel.sol\":5659:5660  j */\n          0x00\n            /* \"channel.sol\":5659:5664  j = k */\n          dup2\n          swap1\n          sstore\n          pop\n            /* \"channel.sol\":5709:5714  _W_km */\n          dup8\n            /* \"channel.sol\":5700:5715  bytes32 (_W_km) */\n          tag_178\n          swap1\n          tag_144\n          jump\t// in\n        tag_178:\n            /* \"channel.sol\":5693:5697  W_jm */\n          0x02\n            /* \"channel.sol\":5693:5715  W_jm = bytes32 (_W_km) */\n          dup2\n          swap1\n          sstore\n          pop\n            /* \"channel.sol\":5746:5751  _W_kc */\n          dup7\n            /* \"channel.sol\":5737:5752  bytes32 (_W_kc) */\n          tag_179\n          swap1\n          tag_144\n          jump\t// in\n        tag_179:\n            /* \"channel.sol\":5730:5734  W_jc */\n          0x03\n            /* \"channel.sol\":5730:5752  W_jc = bytes32 (_W_kc) */\n          dup2\n          swap1\n          sstore\n          pop\n            /* \"channel.sol\":5598:6253  if(k%2 == 0){... */\n          jump(tag_180)\n        tag_174:\n            /* \"channel.sol\":5802:5803  2 */\n          0x02\n            /* \"channel.sol\":5799:5800  1 */\n          0x01\n            /* \"channel.sol\":5797:5798  j */\n          sload(0x00)\n            /* \"channel.sol\":5795:5796  k */\n          dup9\n            /* \"channel.sol\":5795:5798  k-j */\n          tag_181\n          swap2\n          swap1\n          tag_147\n          jump\t// in\n        tag_181:\n            /* \"channel.sol\":5795:5800  k-j-1 */\n          tag_182\n          swap2\n          swap1\n          tag_147\n          jump\t// in\n        tag_182:\n            /* \"channel.sol\":5794:5803  (k-j-1)/2 */\n          tag_183\n          swap2\n          swap1\n          tag_177\n          jump\t// in\n        tag_183:\n            /* \"channel.sol\":5783:5804  balance = ((k-j-1)/2) */\n          swap4\n          pop\n            /* \"channel.sol\":5825:5826  1 */\n          0x01\n            /* \"channel.sol\":5823:5824  k */\n          dup7\n            /* \"channel.sol\":5823:5826  k-1 */\n          tag_184\n          swap2\n          swap1\n          tag_147\n          jump\t// in\n        tag_184:\n            /* \"channel.sol\":5819:5820  j */\n          0x00\n            /* \"channel.sol\":5819:5826  j = k-1 */\n          dup2\n          swap1\n          sstore\n          pop\n            /* \"channel.sol\":5841:5855  bytes32 hash_m */\n          0x00\n            /* \"channel.sol\":5866:5871  _W_km */\n          dup9\n            /* \"channel.sol\":5858:5872  bytes32(_W_km) */\n          tag_185\n          swap1\n          tag_144\n          jump\t// in\n        tag_185:\n            /* \"channel.sol\":5841:5872  bytes32 hash_m = bytes32(_W_km) */\n          swap1\n          pop\n            /* \"channel.sol\":5887:5901  bytes32 hash_c */\n          0x00\n            /* \"channel.sol\":5912:5917  _W_kc */\n          dup9\n            /* \"channel.sol\":5904:5918  bytes32(_W_kc) */\n          tag_186\n          swap1\n          tag_144\n          jump\t// in\n        tag_186:\n            /* \"channel.sol\":5887:5918  bytes32 hash_c = bytes32(_W_kc) */\n          swap1\n          pop\n            /* \"channel.sol\":5933:5942  uint256 i */\n          0x00\n            /* \"channel.sol\":5947:5948  j */\n          dup1\n          sload\n            /* \"channel.sol\":5945:5946  k */\n          dup10\n            /* \"channel.sol\":5945:5948  k-j */\n          tag_187\n          swap2\n          swap1\n          tag_147\n          jump\t// in\n        tag_187:\n            /* \"channel.sol\":5933:5948  uint256 i = k-j */\n          swap1\n          pop\n            /* \"channel.sol\":5973:6129  for (i; i!= 0; i--){... */\n        tag_188:\n            /* \"channel.sol\":5985:5986  0 */\n          0x00\n            /* \"channel.sol\":5981:5982  i */\n          dup2\n            /* \"channel.sol\":5981:5986  i!= 0 */\n          eq\n            /* \"channel.sol\":5973:6129  for (i; i!= 0; i--){... */\n          tag_189\n          jumpi\n            /* \"channel.sol\":6020:6052  sha256(abi.encodePacked(hash_m)) */\n          0x02\n            /* \"channel.sol\":6044:6050  hash_m */\n          dup4\n            /* \"channel.sol\":6027:6051  abi.encodePacked(hash_m) */\n          add(0x20, mload(0x40))\n          tag_191\n          swap2\n          swap1\n          tag_152\n          jump\t// in\n        tag_191:\n          mload(0x40)\n          0x20\n          dup2\n          dup4\n          sub\n          sub\n          dup2\n          mstore\n          swap1\n          0x40\n          mstore\n            /* \"channel.sol\":6020:6052  sha256(abi.encodePacked(hash_m)) */\n          mload(0x40)\n          tag_192\n          swap2\n          swap1\n          tag_154\n          jump\t// in\n        tag_192:\n          0x20\n          mload(0x40)\n          dup1\n          dup4\n          sub\n          dup2\n          dup6\n          gas\n          staticcall\n          iszero\n          dup1\n          iszero\n          tag_194\n          jumpi\n          returndatasize\n          0x00\n          dup1\n          returndatacopy\n          revert(0x00, returndatasize)\n        tag_194:\n          pop\n          pop\n          pop\n          mload(0x40)\n          returndatasize\n          not(0x1f)\n          0x1f\n          dup3\n          add\n          and\n          dup3\n          add\n          dup1\n          0x40\n          mstore\n          pop\n          dup2\n          add\n          swap1\n          tag_195\n          swap2\n          swap1\n          tag_158\n          jump\t// in\n        tag_195:\n            /* \"channel.sol\":6011:6052  hash_m = sha256(abi.encodePacked(hash_m)) */\n          swap3\n          pop\n            /* \"channel.sol\":6080:6112  sha256(abi.encodePacked(hash_c)) */\n          0x02\n            /* \"channel.sol\":6104:6110  hash_c */\n          dup3\n            /* \"channel.sol\":6087:6111  abi.encodePacked(hash_c) */\n          add(0x20, mload(0x40))\n          tag_196\n          swap2\n          swap1\n          tag_152\n          jump\t// in\n        tag_196:\n          mload(0x40)\n          0x20\n          dup2\n          dup4\n          sub\n          sub\n          dup2\n          mstore\n          swap1\n          0x40\n          mstore\n            /* \"channel.sol\":6080:6112  sha256(abi.encodePacked(hash_c)) */\n          mload(0x40)\n          tag_197\n          swap2\n          swap1\n          tag_154\n          jump\t// in\n        tag_197:\n          0x20\n          mload(0x40)\n          dup1\n          dup4\n          sub\n          dup2\n          dup6\n          gas\n          staticcall\n          iszero\n          dup1\n          iszero\n          tag_199\n          jumpi\n          returndatasize\n          0x00\n          dup1\n          returndatacopy\n          revert(0x00, returndatasize)\n        tag_199:\n          pop\n          pop\n          pop\n          mload(0x40)\n          returndatasize\n          not(0x1f)\n          0x1f\n          dup3\n          add\n          and\n          dup3\n          add\n          dup1\n          0x40\n          mstore\n          pop\n          dup2\n          add\n          swap1\n          tag_200\n          swap2\n          swap1\n          tag_158\n          jump\t// in\n        tag_200:\n            /* \"channel.sol\":6071:6112  hash_c = sha256(abi.encodePacked(hash_c)) */\n          swap2\n          pop\n            /* \"channel.sol\":5988:5991  i-- */\n          dup1\n          dup1\n          tag_201\n          swap1\n          tag_165\n          jump\t// in\n        tag_201:\n          swap2\n          pop\n          pop\n            /* \"channel.sol\":5973:6129  for (i; i!= 0; i--){... */\n          jump(tag_188)\n        tag_189:\n            /* \"channel.sol\":6164:6165  1 */\n          0x01\n            /* \"channel.sol\":6162:6163  k */\n          dup10\n            /* \"channel.sol\":6162:6165  k-1 */\n          tag_202\n          swap2\n          swap1\n          tag_147\n          jump\t// in\n        tag_202:\n            /* \"channel.sol\":6158:6159  j */\n          0x00\n            /* \"channel.sol\":6158:6165  j = k-1 */\n          dup2\n          swap1\n          sstore\n          pop\n            /* \"channel.sol\":6196:6202  hash_m */\n          dup3\n            /* \"channel.sol\":6180:6184  W_jm */\n          0x02\n            /* \"channel.sol\":6180:6203  W_jm = bytes32 (hash_m) */\n          dup2\n          swap1\n          sstore\n          pop\n            /* \"channel.sol\":6234:6240  hash_c */\n          dup2\n            /* \"channel.sol\":6218:6222  W_jc */\n          0x03\n            /* \"channel.sol\":6218:6241  W_jc = bytes32 (hash_c) */\n          dup2\n          swap1\n          sstore\n          pop\n            /* \"channel.sol\":5768:6253  {... */\n          pop\n          pop\n          pop\n            /* \"channel.sol\":5598:6253  if(k%2 == 0){... */\n        tag_180:\n            /* \"channel.sol\":6297:6339  0x0000000000000000000000000000000000000000 */\n          0x00\n            /* \"channel.sol\":6276:6339  newChannelAddress != 0x0000000000000000000000000000000000000000 */\n          0xffffffffffffffffffffffffffffffffffffffff\n          and\n            /* \"channel.sol\":6276:6293  newChannelAddress */\n          dup6\n            /* \"channel.sol\":6276:6339  newChannelAddress != 0x0000000000000000000000000000000000000000 */\n          0xffffffffffffffffffffffffffffffffffffffff\n          and\n          eq\n            /* \"channel.sol\":6273:6490  if(newChannelAddress != 0x0000000000000000000000000000000000000000){... */\n          tag_203\n          jumpi\n            /* \"channel.sol\":6363:6380  newChannelAddress */\n          dup5\n            /* \"channel.sol\":6355:6386  payable(newChannelAddress).call */\n          0xffffffffffffffffffffffffffffffffffffffff\n          and\n            /* \"channel.sol\":6402:6403  v */\n          sload(0x06)\n            /* \"channel.sol\":6394:6401  balance */\n          dup6\n            /* \"channel.sol\":6394:6403  balance*v */\n          tag_204\n          swap2\n          swap1\n          tag_114\n          jump\t// in\n        tag_204:\n            /* \"channel.sol\":6355:6408  payable(newChannelAddress).call{value: balance*v}(\"\") */\n          mload(0x40)\n          tag_205\n          swap1\n          tag_206\n          jump\t// in\n        tag_205:\n          0x00\n          mload(0x40)\n          dup1\n          dup4\n          sub\n          dup2\n          dup6\n          dup8\n          gas\n          call\n          swap3\n          pop\n          pop\n          pop\n          returndatasize\n          dup1\n          0x00\n          dup2\n          eq\n          tag_209\n          jumpi\n          mload(0x40)\n          swap2\n          pop\n          and(add(returndatasize, 0x3f), not(0x1f))\n          dup3\n          add\n          0x40\n          mstore\n          returndatasize\n          dup3\n          mstore\n          returndatasize\n          0x00\n          0x20\n          dup5\n          add\n          returndatacopy\n          jump(tag_208)\n        tag_209:\n          0x60\n          swap2\n          pop\n        tag_208:\n          pop\n          pop\n          pop\n            /* \"channel.sol\":6273:6490  if(newChannelAddress != 0x0000000000000000000000000000000000000000){... */\n          jump(tag_210)\n        tag_203:\n            /* \"channel.sol\":6447:6457  msg.sender */\n          caller\n            /* \"channel.sol\":6439:6467  payable(msg.sender).transfer */\n          0xffffffffffffffffffffffffffffffffffffffff\n          and\n            /* \"channel.sol\":6439:6478  payable(msg.sender).transfer(balance*v) */\n          0x08fc\n            /* \"channel.sol\":6476:6477  v */\n          sload(0x06)\n            /* \"channel.sol\":6468:6475  balance */\n          dup7\n            /* \"channel.sol\":6468:6477  balance*v */\n          tag_211\n          swap2\n          swap1\n          tag_114\n          jump\t// in\n        tag_211:\n            /* \"channel.sol\":6439:6478  payable(msg.sender).transfer(balance*v) */\n          swap1\n          dup2\n          iszero\n          mul\n          swap1\n          mload(0x40)\n          0x00\n          mload(0x40)\n          dup1\n          dup4\n          sub\n          dup2\n          dup6\n          dup9\n          dup9\n          call\n          swap4\n          pop\n          pop\n          pop\n          pop\n          iszero\n          dup1\n          iszero\n          tag_213\n          jumpi\n          returndatasize\n          0x00\n          dup1\n          returndatacopy\n          revert(0x00, returndatasize)\n        tag_213:\n          pop\n            /* \"channel.sol\":6273:6490  if(newChannelAddress != 0x0000000000000000000000000000000000000000){... */\n        tag_210:\n            /* \"channel.sol\":5044:6564  {... */\n          pop\n          pop\n          pop\n          pop\n            /* \"channel.sol\":4934:6564  function transferDeposit(bytes memory _W_km, bytes memory _W_kc, uint256 k, address newChannelAddress) public {... */\n          pop\n          pop\n          pop\n          pop\n          jump\t// out\n            /* \"channel.sol\":4145:4722  function setChannelParams(bytes32 _W_jm, bytes32 _W_jc, string memory _S_id, uint256 _c, uint256 _v, uint256 _T_exp, uint256 _TD, uint256 _TR) public onlyOwner {... */\n        tag_90:\n            /* \"channel.sol\":7241:7249  customer */\n          0x01\n          0x00\n          swap1\n          sload\n          swap1\n          0x0100\n          exp\n          swap1\n          div\n          0xffffffffffffffffffffffffffffffffffffffff\n          and\n            /* \"channel.sol\":7227:7249  msg.sender == customer */\n          0xffffffffffffffffffffffffffffffffffffffff\n          and\n            /* \"channel.sol\":7227:7237  msg.sender */\n          caller\n            /* \"channel.sol\":7227:7249  msg.sender == customer */\n          0xffffffffffffffffffffffffffffffffffffffff\n          and\n          eq\n            /* \"channel.sol\":7218:7311  require (msg.sender == customer, \"Only customer of the delivery can set the channel params.\") */\n          tag_215\n          jumpi\n          mload(0x40)\n          0x08c379a000000000000000000000000000000000000000000000000000000000\n          dup2\n          mstore\n          0x04\n          add\n          tag_216\n          swap1\n          tag_98\n          jump\t// in\n        tag_216:\n          mload(0x40)\n          dup1\n          swap2\n          sub\n          swap1\n          revert\n        tag_215:\n            /* \"channel.sol\":4354:4356  _v */\n          dup4\n            /* \"channel.sol\":4349:4351  _c */\n          dup6\n            /* \"channel.sol\":4349:4356  _c * _v */\n          tag_218\n          swap2\n          swap1\n          tag_114\n          jump\t// in\n        tag_218:\n            /* \"channel.sol\":4324:4345  address(this).balance */\n          selfbalance\n            /* \"channel.sol\":4324:4356  address(this).balance == _c * _v */\n          eq\n            /* \"channel.sol\":4316:4357  require(address(this).balance == _c * _v) */\n          tag_219\n          jumpi\n          0x00\n          dup1\n          revert\n        tag_219:\n            /* \"channel.sol\":4386:4387  0 */\n          0x00\n            /* \"channel.sol\":4377:4382  T_exp */\n          sload(0x07)\n            /* \"channel.sol\":4377:4387  T_exp == 0 */\n          eq\n            /* \"channel.sol\":4377:4398  T_exp == 0 && TD == 0 */\n          dup1\n          iszero\n          tag_220\n          jumpi\n          pop\n            /* \"channel.sol\":4397:4398  0 */\n          0x00\n            /* \"channel.sol\":4391:4393  TD */\n          sload(0x08)\n            /* \"channel.sol\":4391:4398  TD == 0 */\n          eq\n            /* \"channel.sol\":4377:4398  T_exp == 0 && TD == 0 */\n        tag_220:\n            /* \"channel.sol\":4377:4409  T_exp == 0 && TD == 0 && TR == 0 */\n          dup1\n          iszero\n          tag_221\n          jumpi\n          pop\n            /* \"channel.sol\":4408:4409  0 */\n          0x00\n            /* \"channel.sol\":4402:4404  TR */\n          sload(0x09)\n            /* \"channel.sol\":4402:4409  TR == 0 */\n          eq\n            /* \"channel.sol\":4377:4409  T_exp == 0 && TD == 0 && TR == 0 */\n        tag_221:\n            /* \"channel.sol\":4377:4443  T_exp == 0 && TD == 0 && TR == 0 && (T_exp + TD) < block.timestamp */\n          dup1\n          iszero\n          tag_222\n          jumpi\n          pop\n            /* \"channel.sol\":4428:4443  block.timestamp */\n          timestamp\n            /* \"channel.sol\":4422:4424  TD */\n          sload(0x08)\n            /* \"channel.sol\":4414:4419  T_exp */\n          sload(0x07)\n            /* \"channel.sol\":4414:4424  T_exp + TD */\n          tag_223\n          swap2\n          swap1\n          tag_101\n          jump\t// in\n        tag_223:\n            /* \"channel.sol\":4413:4443  (T_exp + TD) < block.timestamp */\n          lt\n            /* \"channel.sol\":4377:4443  T_exp == 0 && TD == 0 && TR == 0 && (T_exp + TD) < block.timestamp */\n        tag_222:\n            /* \"channel.sol\":4376:4521  (T_exp == 0 && TD == 0 && TR == 0 && (T_exp + TD) < block.timestamp) || ((T_exp + TD) < block.timestamp && (block.timestamp < (T_exp + TD + TR))) */\n          dup1\n          tag_224\n          jumpi\n          pop\n            /* \"channel.sol\":4464:4479  block.timestamp */\n          timestamp\n            /* \"channel.sol\":4458:4460  TD */\n          sload(0x08)\n            /* \"channel.sol\":4450:4455  T_exp */\n          sload(0x07)\n            /* \"channel.sol\":4450:4460  T_exp + TD */\n          tag_225\n          swap2\n          swap1\n          tag_101\n          jump\t// in\n        tag_225:\n            /* \"channel.sol\":4449:4479  (T_exp + TD) < block.timestamp */\n          lt\n            /* \"channel.sol\":4449:4520  (T_exp + TD) < block.timestamp && (block.timestamp < (T_exp + TD + TR)) */\n          dup1\n          iszero\n          tag_226\n          jumpi\n          pop\n            /* \"channel.sol\":4516:4518  TR */\n          sload(0x09)\n            /* \"channel.sol\":4511:4513  TD */\n          sload(0x08)\n            /* \"channel.sol\":4503:4508  T_exp */\n          sload(0x07)\n            /* \"channel.sol\":4503:4513  T_exp + TD */\n          tag_227\n          swap2\n          swap1\n          tag_101\n          jump\t// in\n        tag_227:\n            /* \"channel.sol\":4503:4518  T_exp + TD + TR */\n          tag_228\n          swap2\n          swap1\n          tag_101\n          jump\t// in\n        tag_228:\n            /* \"channel.sol\":4484:4499  block.timestamp */\n          timestamp\n            /* \"channel.sol\":4484:4519  block.timestamp < (T_exp + TD + TR) */\n          lt\n            /* \"channel.sol\":4449:4520  (T_exp + TD) < block.timestamp && (block.timestamp < (T_exp + TD + TR)) */\n        tag_226:\n            /* \"channel.sol\":4376:4521  (T_exp == 0 && TD == 0 && TR == 0 && (T_exp + TD) < block.timestamp) || ((T_exp + TD) < block.timestamp && (block.timestamp < (T_exp + TD + TR))) */\n        tag_224:\n            /* \"channel.sol\":4368:4522  require((T_exp == 0 && TD == 0 && TR == 0 && (T_exp + TD) < block.timestamp) || ((T_exp + TD) < block.timestamp && (block.timestamp < (T_exp + TD + TR)))) */\n          tag_229\n          jumpi\n          0x00\n          dup1\n          revert\n        tag_229:\n            /* \"channel.sol\":4537:4538  0 */\n          0x00\n            /* \"channel.sol\":4533:4534  j */\n          dup1\n            /* \"channel.sol\":4533:4538  j = 0 */\n          dup2\n          swap1\n          sstore\n          pop\n            /* \"channel.sol\":4566:4571  _W_jm */\n          dup8\n            /* \"channel.sol\":4559:4563  W_jm */\n          0x02\n            /* \"channel.sol\":4559:4571  W_jm = _W_jm */\n          dup2\n          swap1\n          sstore\n          pop\n            /* \"channel.sol\":4589:4594  _W_jc */\n          dup7\n            /* \"channel.sol\":4582:4586  W_jc */\n          0x03\n            /* \"channel.sol\":4582:4594  W_jc = _W_jc */\n          dup2\n          swap1\n          sstore\n          pop\n            /* \"channel.sol\":4612:4617  _S_id */\n          dup6\n            /* \"channel.sol\":4605:4609  S_id */\n          0x04\n            /* \"channel.sol\":4605:4617  S_id = _S_id */\n          swap1\n          dup1\n          mload\n          swap1\n          0x20\n          add\n          swap1\n          tag_230\n          swap3\n          swap2\n          swap1\n          tag_129\n          jump\t// in\n        tag_230:\n          pop\n            /* \"channel.sol\":4632:4634  _c */\n          dup5\n            /* \"channel.sol\":4628:4629  c */\n          0x05\n            /* \"channel.sol\":4628:4634  c = _c */\n          dup2\n          swap1\n          sstore\n          pop\n            /* \"channel.sol\":4649:4651  _v */\n          dup4\n            /* \"channel.sol\":4645:4646  v */\n          0x06\n            /* \"channel.sol\":4645:4651  v = _v */\n          dup2\n          swap1\n          sstore\n          pop\n            /* \"channel.sol\":4670:4676  _T_exp */\n          dup3\n            /* \"channel.sol\":4662:4667  T_exp */\n          0x07\n            /* \"channel.sol\":4662:4676  T_exp = _T_exp */\n          dup2\n          swap1\n          sstore\n          pop\n            /* \"channel.sol\":4692:4695  _TD */\n          dup2\n            /* \"channel.sol\":4687:4689  TD */\n          0x08\n            /* \"channel.sol\":4687:4695  TD = _TD */\n          dup2\n          swap1\n          sstore\n          pop\n            /* \"channel.sol\":4711:4714  _TR */\n          dup1\n            /* \"channel.sol\":4706:4708  TR */\n          0x09\n            /* \"channel.sol\":4706:4714  TR = _TR */\n          dup2\n          swap1\n          sstore\n          pop\n            /* \"channel.sol\":4145:4722  function setChannelParams(bytes32 _W_jm, bytes32 _W_jc, string memory _S_id, uint256 _c, uint256 _v, uint256 _T_exp, uint256 _TD, uint256 _TR) public onlyOwner {... */\n          pop\n          pop\n          pop\n          pop\n          pop\n          pop\n          pop\n          pop\n          jump\t// out\n            /* \"channel.sol\":2797:2817  uint256 public T_exp */\n        tag_93:\n          sload(0x07)\n          dup2\n          jump\t// out\n        tag_129:\n          dup3\n          dup1\n          sload\n          tag_231\n          swap1\n          tag_106\n          jump\t// in\n        tag_231:\n          swap1\n          0x00\n          mstore\n          keccak256(0x00, 0x20)\n          swap1\n          0x1f\n          add\n          0x20\n          swap1\n          div\n          dup2\n          add\n          swap3\n          dup3\n          tag_233\n          jumpi\n          0x00\n          dup6\n          sstore\n          jump(tag_232)\n        tag_233:\n          dup3\n          0x1f\n          lt\n          tag_234\n          jumpi\n          dup1\n          mload\n          not(0xff)\n          and\n          dup4\n          dup1\n          add\n          or\n          dup6\n          sstore\n          jump(tag_232)\n        tag_234:\n          dup3\n          dup1\n          add\n          0x01\n          add\n          dup6\n          sstore\n          dup3\n          iszero\n          tag_232\n          jumpi\n          swap2\n          dup3\n          add\n        tag_235:\n          dup3\n          dup2\n          gt\n          iszero\n          tag_236\n          jumpi\n          dup3\n          mload\n          dup3\n          sstore\n          swap2\n          0x20\n          add\n          swap2\n          swap1\n          0x01\n          add\n          swap1\n          jump(tag_235)\n        tag_236:\n        tag_232:\n          pop\n          swap1\n          pop\n          tag_237\n          swap2\n          swap1\n          tag_238\n          jump\t// in\n        tag_237:\n          pop\n          swap1\n          jump\t// out\n        tag_238:\n        tag_239:\n          dup1\n          dup3\n          gt\n          iszero\n          tag_240\n          jumpi\n          0x00\n          dup2\n          0x00\n          swap1\n          sstore\n          pop\n          0x01\n          add\n          jump(tag_239)\n        tag_240:\n          pop\n          swap1\n          jump\t// out\n            /* \"#utility.yul\":7:106   */\n        tag_241:\n            /* \"#utility.yul\":59:65   */\n          0x00\n            /* \"#utility.yul\":93:98   */\n          dup2\n            /* \"#utility.yul\":87:99   */\n          mload\n            /* \"#utility.yul\":77:99   */\n          swap1\n          pop\n            /* \"#utility.yul\":7:106   */\n          swap2\n          swap1\n          pop\n          jump\t// out\n            /* \"#utility.yul\":112:281   */\n        tag_242:\n            /* \"#utility.yul\":196:207   */\n          0x00\n            /* \"#utility.yul\":230:236   */\n          dup3\n            /* \"#utility.yul\":225:228   */\n          dup3\n            /* \"#utility.yul\":218:237   */\n          mstore\n            /* \"#utility.yul\":270:274   */\n          0x20\n            /* \"#utility.yul\":265:268   */\n          dup3\n            /* \"#utility.yul\":261:275   */\n          add\n            /* \"#utility.yul\":246:275   */\n          swap1\n          pop\n            /* \"#utility.yul\":112:281   */\n          swap3\n          swap2\n          pop\n          pop\n          jump\t// out\n            /* \"#utility.yul\":287:594   */\n        tag_243:\n            /* \"#utility.yul\":355:356   */\n          0x00\n            /* \"#utility.yul\":365:478   */\n        tag_306:\n            /* \"#utility.yul\":379:385   */\n          dup4\n            /* \"#utility.yul\":376:377   */\n          dup2\n            /* \"#utility.yul\":373:386   */\n          lt\n            /* \"#utility.yul\":365:478   */\n          iszero\n          tag_308\n          jumpi\n            /* \"#utility.yul\":464:465   */\n          dup1\n            /* \"#utility.yul\":459:462   */\n          dup3\n            /* \"#utility.yul\":455:466   */\n          add\n            /* \"#utility.yul\":449:467   */\n          mload\n            /* \"#utility.yul\":445:446   */\n          dup2\n            /* \"#utility.yul\":440:443   */\n          dup5\n            /* \"#utility.yul\":436:447   */\n          add\n            /* \"#utility.yul\":429:468   */\n          mstore\n            /* \"#utility.yul\":401:403   */\n          0x20\n            /* \"#utility.yul\":398:399   */\n          dup2\n            /* \"#utility.yul\":394:404   */\n          add\n            /* \"#utility.yul\":389:404   */\n          swap1\n          pop\n            /* \"#utility.yul\":365:478   */\n          jump(tag_306)\n        tag_308:\n            /* \"#utility.yul\":496:502   */\n          dup4\n            /* \"#utility.yul\":493:494   */\n          dup2\n            /* \"#utility.yul\":490:503   */\n          gt\n            /* \"#utility.yul\":487:588   */\n          iszero\n          tag_309\n          jumpi\n            /* \"#utility.yul\":576:577   */\n          0x00\n            /* \"#utility.yul\":567:573   */\n          dup5\n            /* \"#utility.yul\":562:565   */\n          dup5\n            /* \"#utility.yul\":558:574   */\n          add\n            /* \"#utility.yul\":551:578   */\n          mstore\n            /* \"#utility.yul\":487:588   */\n        tag_309:\n            /* \"#utility.yul\":336:594   */\n          pop\n            /* \"#utility.yul\":287:594   */\n          pop\n          pop\n          pop\n          jump\t// out\n            /* \"#utility.yul\":600:702   */\n        tag_244:\n            /* \"#utility.yul\":641:647   */\n          0x00\n            /* \"#utility.yul\":692:694   */\n          0x1f\n            /* \"#utility.yul\":688:695   */\n          not\n            /* \"#utility.yul\":683:685   */\n          0x1f\n            /* \"#utility.yul\":676:681   */\n          dup4\n            /* \"#utility.yul\":672:686   */\n          add\n            /* \"#utility.yul\":668:696   */\n          and\n            /* \"#utility.yul\":658:696   */\n          swap1\n          pop\n            /* \"#utility.yul\":600:702   */\n          swap2\n          swap1\n          pop\n          jump\t// out\n            /* \"#utility.yul\":708:1072   */\n        tag_245:\n            /* \"#utility.yul\":796:799   */\n          0x00\n            /* \"#utility.yul\":824:863   */\n          tag_312\n            /* \"#utility.yul\":857:862   */\n          dup3\n            /* \"#utility.yul\":824:863   */\n          tag_241\n          jump\t// in\n        tag_312:\n            /* \"#utility.yul\":879:950   */\n          tag_313\n            /* \"#utility.yul\":943:949   */\n          dup2\n            /* \"#utility.yul\":938:941   */\n          dup6\n            /* \"#utility.yul\":879:950   */\n          tag_242\n          jump\t// in\n        tag_313:\n            /* \"#utility.yul\":872:950   */\n          swap4\n          pop\n            /* \"#utility.yul\":959:1011   */\n          tag_314\n            /* \"#utility.yul\":1004:1010   */\n          dup2\n            /* \"#utility.yul\":999:1002   */\n          dup6\n            /* \"#utility.yul\":992:996   */\n          0x20\n            /* \"#utility.yul\":985:990   */\n          dup7\n            /* \"#utility.yul\":981:997   */\n          add\n            /* \"#utility.yul\":959:1011   */\n          tag_243\n          jump\t// in\n        tag_314:\n            /* \"#utility.yul\":1036:1065   */\n          tag_315\n            /* \"#utility.yul\":1058:1064   */\n          dup2\n            /* \"#utility.yul\":1036:1065   */\n          tag_244\n          jump\t// in\n        tag_315:\n            /* \"#utility.yul\":1031:1034   */\n          dup5\n            /* \"#utility.yul\":1027:1066   */\n          add\n            /* \"#utility.yul\":1020:1066   */\n          swap2\n          pop\n            /* \"#utility.yul\":800:1072   */\n          pop\n            /* \"#utility.yul\":708:1072   */\n          swap3\n          swap2\n          pop\n          pop\n          jump\t// out\n            /* \"#utility.yul\":1078:1391   */\n        tag_32:\n            /* \"#utility.yul\":1191:1195   */\n          0x00\n            /* \"#utility.yul\":1229:1231   */\n          0x20\n            /* \"#utility.yul\":1218:1227   */\n          dup3\n            /* \"#utility.yul\":1214:1232   */\n          add\n            /* \"#utility.yul\":1206:1232   */\n          swap1\n          pop\n            /* \"#utility.yul\":1278:1287   */\n          dup2\n            /* \"#utility.yul\":1272:1276   */\n          dup2\n            /* \"#utility.yul\":1268:1288   */\n          sub\n            /* \"#utility.yul\":1264:1265   */\n          0x00\n            /* \"#utility.yul\":1253:1262   */\n          dup4\n            /* \"#utility.yul\":1249:1266   */\n          add\n            /* \"#utility.yul\":1242:1289   */\n          mstore\n            /* \"#utility.yul\":1306:1384   */\n          tag_317\n            /* \"#utility.yul\":1379:1383   */\n          dup2\n            /* \"#utility.yul\":1370:1376   */\n          dup5\n            /* \"#utility.yul\":1306:1384   */\n          tag_245\n          jump\t// in\n        tag_317:\n            /* \"#utility.yul\":1298:1384   */\n          swap1\n          pop\n            /* \"#utility.yul\":1078:1391   */\n          swap3\n          swap2\n          pop\n          pop\n          jump\t// out\n            /* \"#utility.yul\":1397:1523   */\n        tag_246:\n            /* \"#utility.yul\":1434:1441   */\n          0x00\n            /* \"#utility.yul\":1474:1516   */\n          0xffffffffffffffffffffffffffffffffffffffff\n            /* \"#utility.yul\":1467:1472   */\n          dup3\n            /* \"#utility.yul\":1463:1517   */\n          and\n            /* \"#utility.yul\":1452:1517   */\n          swap1\n          pop\n            /* \"#utility.yul\":1397:1523   */\n          swap2\n          swap1\n          pop\n          jump\t// out\n            /* \"#utility.yul\":1529:1625   */\n        tag_247:\n            /* \"#utility.yul\":1566:1573   */\n          0x00\n            /* \"#utility.yul\":1595:1619   */\n          tag_320\n            /* \"#utility.yul\":1613:1618   */\n          dup3\n            /* \"#utility.yul\":1595:1619   */\n          tag_246\n          jump\t// in\n        tag_320:\n            /* \"#utility.yul\":1584:1619   */\n          swap1\n          pop\n            /* \"#utility.yul\":1529:1625   */\n          swap2\n          swap1\n          pop\n          jump\t// out\n            /* \"#utility.yul\":1631:1749   */\n        tag_248:\n            /* \"#utility.yul\":1718:1742   */\n          tag_322\n            /* \"#utility.yul\":1736:1741   */\n          dup2\n            /* \"#utility.yul\":1718:1742   */\n          tag_247\n          jump\t// in\n        tag_322:\n            /* \"#utility.yul\":1713:1716   */\n          dup3\n            /* \"#utility.yul\":1706:1743   */\n          mstore\n            /* \"#utility.yul\":1631:1749   */\n          pop\n          pop\n          jump\t// out\n            /* \"#utility.yul\":1755:1977   */\n        tag_37:\n            /* \"#utility.yul\":1848:1852   */\n          0x00\n            /* \"#utility.yul\":1886:1888   */\n          0x20\n            /* \"#utility.yul\":1875:1884   */\n          dup3\n            /* \"#utility.yul\":1871:1889   */\n          add\n            /* \"#utility.yul\":1863:1889   */\n          swap1\n          pop\n            /* \"#utility.yul\":1899:1970   */\n          tag_324\n            /* \"#utility.yul\":1967:1968   */\n          0x00\n            /* \"#utility.yul\":1956:1965   */\n          dup4\n            /* \"#utility.yul\":1952:1969   */\n          add\n            /* \"#utility.yul\":1943:1949   */\n          dup5\n            /* \"#utility.yul\":1899:1970   */\n          tag_248\n          jump\t// in\n        tag_324:\n            /* \"#utility.yul\":1755:1977   */\n          swap3\n          swap2\n          pop\n          pop\n          jump\t// out\n            /* \"#utility.yul\":1983:2060   */\n        tag_249:\n            /* \"#utility.yul\":2020:2027   */\n          0x00\n            /* \"#utility.yul\":2049:2054   */\n          dup2\n            /* \"#utility.yul\":2038:2054   */\n          swap1\n          pop\n            /* \"#utility.yul\":1983:2060   */\n          swap2\n          swap1\n          pop\n          jump\t// out\n            /* \"#utility.yul\":2066:2184   */\n        tag_250:\n            /* \"#utility.yul\":2153:2177   */\n          tag_327\n            /* \"#utility.yul\":2171:2176   */\n          dup2\n            /* \"#utility.yul\":2153:2177   */\n          tag_249\n          jump\t// in\n        tag_327:\n            /* \"#utility.yul\":2148:2151   */\n          dup3\n            /* \"#utility.yul\":2141:2178   */\n          mstore\n            /* \"#utility.yul\":2066:2184   */\n          pop\n          pop\n          jump\t// out\n            /* \"#utility.yul\":2190:2412   */\n        tag_42:\n            /* \"#utility.yul\":2283:2287   */\n          0x00\n            /* \"#utility.yul\":2321:2323   */\n          0x20\n            /* \"#utility.yul\":2310:2319   */\n          dup3\n            /* \"#utility.yul\":2306:2324   */\n          add\n            /* \"#utility.yul\":2298:2324   */\n          swap1\n          pop\n            /* \"#utility.yul\":2334:2405   */\n          tag_329\n            /* \"#utility.yul\":2402:2403   */\n          0x00\n            /* \"#utility.yul\":2391:2400   */\n          dup4\n            /* \"#utility.yul\":2387:2404   */\n          add\n            /* \"#utility.yul\":2378:2384   */\n          dup5\n            /* \"#utility.yul\":2334:2405   */\n          tag_250\n          jump\t// in\n        tag_329:\n            /* \"#utility.yul\":2190:2412   */\n          swap3\n          swap2\n          pop\n          pop\n          jump\t// out\n            /* \"#utility.yul\":2418:2493   */\n        tag_251:\n            /* \"#utility.yul\":2451:2457   */\n          0x00\n            /* \"#utility.yul\":2484:2486   */\n          0x40\n            /* \"#utility.yul\":2478:2487   */\n          mload\n            /* \"#utility.yul\":2468:2487   */\n          swap1\n          pop\n            /* \"#utility.yul\":2418:2493   */\n          swap1\n          jump\t// out\n            /* \"#utility.yul\":2499:2616   */\n        tag_252:\n            /* \"#utility.yul\":2608:2609   */\n          0x00\n            /* \"#utility.yul\":2605:2606   */\n          dup1\n            /* \"#utility.yul\":2598:2610   */\n          revert\n            /* \"#utility.yul\":2622:2739   */\n        tag_253:\n            /* \"#utility.yul\":2731:2732   */\n          0x00\n            /* \"#utility.yul\":2728:2729   */\n          dup1\n            /* \"#utility.yul\":2721:2733   */\n          revert\n            /* \"#utility.yul\":2745:2867   */\n        tag_254:\n            /* \"#utility.yul\":2818:2842   */\n          tag_334\n            /* \"#utility.yul\":2836:2841   */\n          dup2\n            /* \"#utility.yul\":2818:2842   */\n          tag_249\n          jump\t// in\n        tag_334:\n            /* \"#utility.yul\":2811:2816   */\n          dup2\n            /* \"#utility.yul\":2808:2843   */\n          eq\n            /* \"#utility.yul\":2798:2861   */\n          tag_335\n          jumpi\n            /* \"#utility.yul\":2857:2858   */\n          0x00\n            /* \"#utility.yul\":2854:2855   */\n          dup1\n            /* \"#utility.yul\":2847:2859   */\n          revert\n            /* \"#utility.yul\":2798:2861   */\n        tag_335:\n            /* \"#utility.yul\":2745:2867   */\n          pop\n          jump\t// out\n            /* \"#utility.yul\":2873:3012   */\n        tag_255:\n            /* \"#utility.yul\":2919:2924   */\n          0x00\n            /* \"#utility.yul\":2957:2963   */\n          dup2\n            /* \"#utility.yul\":2944:2964   */\n          calldataload\n            /* \"#utility.yul\":2935:2964   */\n          swap1\n          pop\n            /* \"#utility.yul\":2973:3006   */\n          tag_337\n            /* \"#utility.yul\":3000:3005   */\n          dup2\n            /* \"#utility.yul\":2973:3006   */\n          tag_254\n          jump\t// in\n        tag_337:\n            /* \"#utility.yul\":2873:3012   */\n          swap3\n          swap2\n          pop\n          pop\n          jump\t// out\n            /* \"#utility.yul\":3018:3140   */\n        tag_256:\n            /* \"#utility.yul\":3091:3115   */\n          tag_339\n            /* \"#utility.yul\":3109:3114   */\n          dup2\n            /* \"#utility.yul\":3091:3115   */\n          tag_247\n          jump\t// in\n        tag_339:\n            /* \"#utility.yul\":3084:3089   */\n          dup2\n            /* \"#utility.yul\":3081:3116   */\n          eq\n            /* \"#utility.yul\":3071:3134   */\n          tag_340\n          jumpi\n            /* \"#utility.yul\":3130:3131   */\n          0x00\n            /* \"#utility.yul\":3127:3128   */\n          dup1\n            /* \"#utility.yul\":3120:3132   */\n          revert\n            /* \"#utility.yul\":3071:3134   */\n        tag_340:\n            /* \"#utility.yul\":3018:3140   */\n          pop\n          jump\t// out\n            /* \"#utility.yul\":3146:3285   */\n        tag_257:\n            /* \"#utility.yul\":3192:3197   */\n          0x00\n            /* \"#utility.yul\":3230:3236   */\n          dup2\n            /* \"#utility.yul\":3217:3237   */\n          calldataload\n            /* \"#utility.yul\":3208:3237   */\n          swap1\n          pop\n            /* \"#utility.yul\":3246:3279   */\n          tag_342\n            /* \"#utility.yul\":3273:3278   */\n          dup2\n            /* \"#utility.yul\":3246:3279   */\n          tag_256\n          jump\t// in\n        tag_342:\n            /* \"#utility.yul\":3146:3285   */\n          swap3\n          swap2\n          pop\n          pop\n          jump\t// out\n            /* \"#utility.yul\":3291:3368   */\n        tag_258:\n            /* \"#utility.yul\":3328:3335   */\n          0x00\n            /* \"#utility.yul\":3357:3362   */\n          dup2\n            /* \"#utility.yul\":3346:3362   */\n          swap1\n          pop\n            /* \"#utility.yul\":3291:3368   */\n          swap2\n          swap1\n          pop\n          jump\t// out\n            /* \"#utility.yul\":3374:3496   */\n        tag_259:\n            /* \"#utility.yul\":3447:3471   */\n          tag_345\n            /* \"#utility.yul\":3465:3470   */\n          dup2\n            /* \"#utility.yul\":3447:3471   */\n          tag_258\n          jump\t// in\n        tag_345:\n            /* \"#utility.yul\":3440:3445   */\n          dup2\n            /* \"#utility.yul\":3437:3472   */\n          eq\n            /* \"#utility.yul\":3427:3490   */\n          tag_346\n          jumpi\n            /* \"#utility.yul\":3486:3487   */\n          0x00\n            /* \"#utility.yul\":3483:3484   */\n          dup1\n            /* \"#utility.yul\":3476:3488   */\n          revert\n            /* \"#utility.yul\":3427:3490   */\n        tag_346:\n            /* \"#utility.yul\":3374:3496   */\n          pop\n          jump\t// out\n            /* \"#utility.yul\":3502:3641   */\n        tag_260:\n            /* \"#utility.yul\":3548:3553   */\n          0x00\n            /* \"#utility.yul\":3586:3592   */\n          dup2\n            /* \"#utility.yul\":3573:3593   */\n          calldataload\n            /* \"#utility.yul\":3564:3593   */\n          swap1\n          pop\n            /* \"#utility.yul\":3602:3635   */\n          tag_348\n            /* \"#utility.yul\":3629:3634   */\n          dup2\n            /* \"#utility.yul\":3602:3635   */\n          tag_259\n          jump\t// in\n        tag_348:\n            /* \"#utility.yul\":3502:3641   */\n          swap3\n          swap2\n          pop\n          pop\n          jump\t// out\n            /* \"#utility.yul\":3647:3764   */\n        tag_261:\n            /* \"#utility.yul\":3756:3757   */\n          0x00\n            /* \"#utility.yul\":3753:3754   */\n          dup1\n            /* \"#utility.yul\":3746:3758   */\n          revert\n            /* \"#utility.yul\":3770:3887   */\n        tag_262:\n            /* \"#utility.yul\":3879:3880   */\n          0x00\n            /* \"#utility.yul\":3876:3877   */\n          dup1\n            /* \"#utility.yul\":3869:3881   */\n          revert\n            /* \"#utility.yul\":3893:4073   */\n        tag_263:\n            /* \"#utility.yul\":3941:4018   */\n          0x4e487b7100000000000000000000000000000000000000000000000000000000\n            /* \"#utility.yul\":3938:3939   */\n          0x00\n            /* \"#utility.yul\":3931:4019   */\n          mstore\n            /* \"#utility.yul\":4038:4042   */\n          0x41\n            /* \"#utility.yul\":4035:4036   */\n          0x04\n            /* \"#utility.yul\":4028:4043   */\n          mstore\n            /* \"#utility.yul\":4062:4066   */\n          0x24\n            /* \"#utility.yul\":4059:4060   */\n          0x00\n            /* \"#utility.yul\":4052:4067   */\n          revert\n            /* \"#utility.yul\":4079:4360   */\n        tag_264:\n            /* \"#utility.yul\":4162:4189   */\n          tag_353\n            /* \"#utility.yul\":4184:4188   */\n          dup3\n            /* \"#utility.yul\":4162:4189   */\n          tag_244\n          jump\t// in\n        tag_353:\n            /* \"#utility.yul\":4154:4160   */\n          dup2\n            /* \"#utility.yul\":4150:4190   */\n          add\n            /* \"#utility.yul\":4292:4298   */\n          dup2\n            /* \"#utility.yul\":4280:4290   */\n          dup2\n            /* \"#utility.yul\":4277:4299   */\n          lt\n            /* \"#utility.yul\":4256:4274   */\n          0xffffffffffffffff\n            /* \"#utility.yul\":4244:4254   */\n          dup3\n            /* \"#utility.yul\":4241:4275   */\n          gt\n            /* \"#utility.yul\":4238:4300   */\n          or\n            /* \"#utility.yul\":4235:4323   */\n          iszero\n          tag_354\n          jumpi\n            /* \"#utility.yul\":4303:4321   */\n          tag_355\n          tag_263\n          jump\t// in\n        tag_355:\n            /* \"#utility.yul\":4235:4323   */\n        tag_354:\n            /* \"#utility.yul\":4343:4353   */\n          dup1\n            /* \"#utility.yul\":4339:4341   */\n          0x40\n            /* \"#utility.yul\":4332:4354   */\n          mstore\n            /* \"#utility.yul\":4122:4360   */\n          pop\n            /* \"#utility.yul\":4079:4360   */\n          pop\n          pop\n          jump\t// out\n            /* \"#utility.yul\":4366:4495   */\n        tag_265:\n            /* \"#utility.yul\":4400:4406   */\n          0x00\n            /* \"#utility.yul\":4427:4447   */\n          tag_357\n          tag_251\n          jump\t// in\n        tag_357:\n            /* \"#utility.yul\":4417:4447   */\n          swap1\n          pop\n            /* \"#utility.yul\":4456:4489   */\n          tag_358\n            /* \"#utility.yul\":4484:4488   */\n          dup3\n            /* \"#utility.yul\":4476:4482   */\n          dup3\n            /* \"#utility.yul\":4456:4489   */\n          tag_264\n          jump\t// in\n        tag_358:\n            /* \"#utility.yul\":4366:4495   */\n          swap2\n          swap1\n          pop\n          jump\t// out\n            /* \"#utility.yul\":4501:4809   */\n        tag_266:\n            /* \"#utility.yul\":4563:4567   */\n          0x00\n            /* \"#utility.yul\":4653:4671   */\n          0xffffffffffffffff\n            /* \"#utility.yul\":4645:4651   */\n          dup3\n            /* \"#utility.yul\":4642:4672   */\n          gt\n            /* \"#utility.yul\":4639:4695   */\n          iszero\n          tag_360\n          jumpi\n            /* \"#utility.yul\":4675:4693   */\n          tag_361\n          tag_263\n          jump\t// in\n        tag_361:\n            /* \"#utility.yul\":4639:4695   */\n        tag_360:\n            /* \"#utility.yul\":4713:4742   */\n          tag_362\n            /* \"#utility.yul\":4735:4741   */\n          dup3\n            /* \"#utility.yul\":4713:4742   */\n          tag_244\n          jump\t// in\n        tag_362:\n            /* \"#utility.yul\":4705:4742   */\n          swap1\n          pop\n            /* \"#utility.yul\":4797:4801   */\n          0x20\n            /* \"#utility.yul\":4791:4795   */\n          dup2\n            /* \"#utility.yul\":4787:4802   */\n          add\n            /* \"#utility.yul\":4779:4802   */\n          swap1\n          pop\n            /* \"#utility.yul\":4501:4809   */\n          swap2\n          swap1\n          pop\n          jump\t// out\n            /* \"#utility.yul\":4815:4969   */\n        tag_267:\n            /* \"#utility.yul\":4899:4905   */\n          dup3\n            /* \"#utility.yul\":4894:4897   */\n          dup2\n            /* \"#utility.yul\":4889:4892   */\n          dup4\n            /* \"#utility.yul\":4876:4906   */\n          calldatacopy\n            /* \"#utility.yul\":4961:4962   */\n          0x00\n            /* \"#utility.yul\":4952:4958   */\n          dup4\n            /* \"#utility.yul\":4947:4950   */\n          dup4\n            /* \"#utility.yul\":4943:4959   */\n          add\n            /* \"#utility.yul\":4936:4963   */\n          mstore\n            /* \"#utility.yul\":4815:4969   */\n          pop\n          pop\n          pop\n          jump\t// out\n            /* \"#utility.yul\":4975:5387   */\n        tag_268:\n            /* \"#utility.yul\":5053:5058   */\n          0x00\n            /* \"#utility.yul\":5078:5144   */\n          tag_365\n            /* \"#utility.yul\":5094:5143   */\n          tag_366\n            /* \"#utility.yul\":5136:5142   */\n          dup5\n            /* \"#utility.yul\":5094:5143   */\n          tag_266\n          jump\t// in\n        tag_366:\n            /* \"#utility.yul\":5078:5144   */\n          tag_265\n          jump\t// in\n        tag_365:\n            /* \"#utility.yul\":5069:5144   */\n          swap1\n          pop\n            /* \"#utility.yul\":5167:5173   */\n          dup3\n            /* \"#utility.yul\":5160:5165   */\n          dup2\n            /* \"#utility.yul\":5153:5174   */\n          mstore\n            /* \"#utility.yul\":5205:5209   */\n          0x20\n            /* \"#utility.yul\":5198:5203   */\n          dup2\n            /* \"#utility.yul\":5194:5210   */\n          add\n            /* \"#utility.yul\":5243:5246   */\n          dup5\n            /* \"#utility.yul\":5234:5240   */\n          dup5\n            /* \"#utility.yul\":5229:5232   */\n          dup5\n            /* \"#utility.yul\":5225:5241   */\n          add\n            /* \"#utility.yul\":5222:5247   */\n          gt\n            /* \"#utility.yul\":5219:5331   */\n          iszero\n          tag_367\n          jumpi\n            /* \"#utility.yul\":5250:5329   */\n          tag_368\n          tag_262\n          jump\t// in\n        tag_368:\n            /* \"#utility.yul\":5219:5331   */\n        tag_367:\n            /* \"#utility.yul\":5340:5381   */\n          tag_369\n            /* \"#utility.yul\":5374:5380   */\n          dup5\n            /* \"#utility.yul\":5369:5372   */\n          dup3\n            /* \"#utility.yul\":5364:5367   */\n          dup6\n            /* \"#utility.yul\":5340:5381   */\n          tag_267\n          jump\t// in\n        tag_369:\n            /* \"#utility.yul\":5059:5387   */\n          pop\n            /* \"#utility.yul\":4975:5387   */\n          swap4\n          swap3\n          pop\n          pop\n          pop\n          jump\t// out\n            /* \"#utility.yul\":5407:5747   */\n        tag_269:\n            /* \"#utility.yul\":5463:5468   */\n          0x00\n            /* \"#utility.yul\":5512:5515   */\n          dup3\n            /* \"#utility.yul\":5505:5509   */\n          0x1f\n            /* \"#utility.yul\":5497:5503   */\n          dup4\n            /* \"#utility.yul\":5493:5510   */\n          add\n            /* \"#utility.yul\":5489:5516   */\n          slt\n            /* \"#utility.yul\":5479:5601   */\n          tag_371\n          jumpi\n            /* \"#utility.yul\":5520:5599   */\n          tag_372\n          tag_261\n          jump\t// in\n        tag_372:\n            /* \"#utility.yul\":5479:5601   */\n        tag_371:\n            /* \"#utility.yul\":5637:5643   */\n          dup2\n            /* \"#utility.yul\":5624:5644   */\n          calldataload\n            /* \"#utility.yul\":5662:5741   */\n          tag_373\n            /* \"#utility.yul\":5737:5740   */\n          dup5\n            /* \"#utility.yul\":5729:5735   */\n          dup3\n            /* \"#utility.yul\":5722:5726   */\n          0x20\n            /* \"#utility.yul\":5714:5720   */\n          dup7\n            /* \"#utility.yul\":5710:5727   */\n          add\n            /* \"#utility.yul\":5662:5741   */\n          tag_268\n          jump\t// in\n        tag_373:\n            /* \"#utility.yul\":5653:5741   */\n          swap2\n          pop\n            /* \"#utility.yul\":5469:5747   */\n          pop\n            /* \"#utility.yul\":5407:5747   */\n          swap3\n          swap2\n          pop\n          pop\n          jump\t// out\n            /* \"#utility.yul\":5753:7428   */\n        tag_45:\n            /* \"#utility.yul\":5894:5900   */\n          0x00\n            /* \"#utility.yul\":5902:5908   */\n          dup1\n            /* \"#utility.yul\":5910:5916   */\n          0x00\n            /* \"#utility.yul\":5918:5924   */\n          dup1\n            /* \"#utility.yul\":5926:5932   */\n          0x00\n            /* \"#utility.yul\":5934:5940   */\n          dup1\n            /* \"#utility.yul\":5942:5948   */\n          0x00\n            /* \"#utility.yul\":5950:5956   */\n          dup1\n            /* \"#utility.yul\":5958:5964   */\n          0x00\n            /* \"#utility.yul\":6007:6010   */\n          0x0120\n            /* \"#utility.yul\":5995:6004   */\n          dup11\n            /* \"#utility.yul\":5986:5993   */\n          dup13\n            /* \"#utility.yul\":5982:6005   */\n          sub\n            /* \"#utility.yul\":5978:6011   */\n          slt\n            /* \"#utility.yul\":5975:6095   */\n          iszero\n          tag_375\n          jumpi\n            /* \"#utility.yul\":6014:6093   */\n          tag_376\n          tag_252\n          jump\t// in\n        tag_376:\n            /* \"#utility.yul\":5975:6095   */\n        tag_375:\n            /* \"#utility.yul\":6134:6135   */\n          0x00\n            /* \"#utility.yul\":6159:6212   */\n          tag_377\n            /* \"#utility.yul\":6204:6211   */\n          dup13\n            /* \"#utility.yul\":6195:6201   */\n          dup3\n            /* \"#utility.yul\":6184:6193   */\n          dup14\n            /* \"#utility.yul\":6180:6202   */\n          add\n            /* \"#utility.yul\":6159:6212   */\n          tag_255\n          jump\t// in\n        tag_377:\n            /* \"#utility.yul\":6149:6212   */\n          swap10\n          pop\n            /* \"#utility.yul\":6105:6222   */\n          pop\n            /* \"#utility.yul\":6261:6263   */\n          0x20\n            /* \"#utility.yul\":6287:6340   */\n          tag_378\n            /* \"#utility.yul\":6332:6339   */\n          dup13\n            /* \"#utility.yul\":6323:6329   */\n          dup3\n            /* \"#utility.yul\":6312:6321   */\n          dup14\n            /* \"#utility.yul\":6308:6330   */\n          add\n            /* \"#utility.yul\":6287:6340   */\n          tag_255\n          jump\t// in\n        tag_378:\n            /* \"#utility.yul\":6277:6340   */\n          swap9\n          pop\n            /* \"#utility.yul\":6232:6350   */\n          pop\n            /* \"#utility.yul\":6389:6391   */\n          0x40\n            /* \"#utility.yul\":6415:6468   */\n          tag_379\n            /* \"#utility.yul\":6460:6467   */\n          dup13\n            /* \"#utility.yul\":6451:6457   */\n          dup3\n            /* \"#utility.yul\":6440:6449   */\n          dup14\n            /* \"#utility.yul\":6436:6458   */\n          add\n            /* \"#utility.yul\":6415:6468   */\n          tag_257\n          jump\t// in\n        tag_379:\n            /* \"#utility.yul\":6405:6468   */\n          swap8\n          pop\n            /* \"#utility.yul\":6360:6478   */\n          pop\n            /* \"#utility.yul\":6517:6519   */\n          0x60\n            /* \"#utility.yul\":6543:6596   */\n          tag_380\n            /* \"#utility.yul\":6588:6595   */\n          dup13\n            /* \"#utility.yul\":6579:6585   */\n          dup3\n            /* \"#utility.yul\":6568:6577   */\n          dup14\n            /* \"#utility.yul\":6564:6586   */\n          add\n            /* \"#utility.yul\":6543:6596   */\n          tag_260\n          jump\t// in\n        tag_380:\n            /* \"#utility.yul\":6533:6596   */\n          swap7\n          pop\n            /* \"#utility.yul\":6488:6606   */\n          pop\n            /* \"#utility.yul\":6645:6648   */\n          0x80\n            /* \"#utility.yul\":6672:6725   */\n          tag_381\n            /* \"#utility.yul\":6717:6724   */\n          dup13\n            /* \"#utility.yul\":6708:6714   */\n          dup3\n            /* \"#utility.yul\":6697:6706   */\n          dup14\n            /* \"#utility.yul\":6693:6715   */\n          add\n            /* \"#utility.yul\":6672:6725   */\n          tag_260\n          jump\t// in\n        tag_381:\n            /* \"#utility.yul\":6662:6725   */\n          swap6\n          pop\n            /* \"#utility.yul\":6616:6735   */\n          pop\n            /* \"#utility.yul\":6802:6805   */\n          0xa0\n            /* \"#utility.yul\":6791:6800   */\n          dup11\n            /* \"#utility.yul\":6787:6806   */\n          add\n            /* \"#utility.yul\":6774:6807   */\n          calldataload\n            /* \"#utility.yul\":6834:6852   */\n          0xffffffffffffffff\n            /* \"#utility.yul\":6826:6832   */\n          dup2\n            /* \"#utility.yul\":6823:6853   */\n          gt\n            /* \"#utility.yul\":6820:6937   */\n          iszero\n          tag_382\n          jumpi\n            /* \"#utility.yul\":6856:6935   */\n          tag_383\n          tag_253\n          jump\t// in\n        tag_383:\n            /* \"#utility.yul\":6820:6937   */\n        tag_382:\n            /* \"#utility.yul\":6961:7024   */\n          tag_384\n            /* \"#utility.yul\":7016:7023   */\n          dup13\n            /* \"#utility.yul\":7007:7013   */\n          dup3\n            /* \"#utility.yul\":6996:7005   */\n          dup14\n            /* \"#utility.yul\":6992:7014   */\n          add\n            /* \"#utility.yul\":6961:7024   */\n          tag_269\n          jump\t// in\n        tag_384:\n            /* \"#utility.yul\":6951:7024   */\n          swap5\n          pop\n            /* \"#utility.yul\":6745:7034   */\n          pop\n            /* \"#utility.yul\":7073:7076   */\n          0xc0\n            /* \"#utility.yul\":7100:7153   */\n          tag_385\n            /* \"#utility.yul\":7145:7152   */\n          dup13\n            /* \"#utility.yul\":7136:7142   */\n          dup3\n            /* \"#utility.yul\":7125:7134   */\n          dup14\n            /* \"#utility.yul\":7121:7143   */\n          add\n            /* \"#utility.yul\":7100:7153   */\n          tag_255\n          jump\t// in\n        tag_385:\n            /* \"#utility.yul\":7090:7153   */\n          swap4\n          pop\n            /* \"#utility.yul\":7044:7163   */\n          pop\n            /* \"#utility.yul\":7202:7205   */\n          0xe0\n            /* \"#utility.yul\":7229:7282   */\n          tag_386\n            /* \"#utility.yul\":7274:7281   */\n          dup13\n            /* \"#utility.yul\":7265:7271   */\n          dup3\n            /* \"#utility.yul\":7254:7263   */\n          dup14\n            /* \"#utility.yul\":7250:7272   */\n          add\n            /* \"#utility.yul\":7229:7282   */\n          tag_255\n          jump\t// in\n        tag_386:\n            /* \"#utility.yul\":7219:7282   */\n          swap3\n          pop\n            /* \"#utility.yul\":7173:7292   */\n          pop\n            /* \"#utility.yul\":7331:7334   */\n          0x0100\n            /* \"#utility.yul\":7358:7411   */\n          tag_387\n            /* \"#utility.yul\":7403:7410   */\n          dup13\n            /* \"#utility.yul\":7394:7400   */\n          dup3\n            /* \"#utility.yul\":7383:7392   */\n          dup14\n            /* \"#utility.yul\":7379:7401   */\n          add\n            /* \"#utility.yul\":7358:7411   */\n          tag_255\n          jump\t// in\n        tag_387:\n            /* \"#utility.yul\":7348:7411   */\n          swap2\n          pop\n            /* \"#utility.yul\":7302:7421   */\n          pop\n            /* \"#utility.yul\":5753:7428   */\n          swap3\n          swap6\n          swap9\n          pop\n          swap3\n          swap6\n          swap9\n          pop\n          swap3\n          swap6\n          swap9\n          jump\t// out\n            /* \"#utility.yul\":7434:7552   */\n        tag_270:\n            /* \"#utility.yul\":7521:7545   */\n          tag_389\n            /* \"#utility.yul\":7539:7544   */\n          dup2\n            /* \"#utility.yul\":7521:7545   */\n          tag_258\n          jump\t// in\n        tag_389:\n            /* \"#utility.yul\":7516:7519   */\n          dup3\n            /* \"#utility.yul\":7509:7546   */\n          mstore\n            /* \"#utility.yul\":7434:7552   */\n          pop\n          pop\n          jump\t// out\n            /* \"#utility.yul\":7558:7780   */\n        tag_51:\n            /* \"#utility.yul\":7651:7655   */\n          0x00\n            /* \"#utility.yul\":7689:7691   */\n          0x20\n            /* \"#utility.yul\":7678:7687   */\n          dup3\n            /* \"#utility.yul\":7674:7692   */\n          add\n            /* \"#utility.yul\":7666:7692   */\n          swap1\n          pop\n            /* \"#utility.yul\":7702:7773   */\n          tag_391\n            /* \"#utility.yul\":7770:7771   */\n          0x00\n            /* \"#utility.yul\":7759:7768   */\n          dup4\n            /* \"#utility.yul\":7755:7772   */\n          add\n            /* \"#utility.yul\":7746:7752   */\n          dup5\n            /* \"#utility.yul\":7702:7773   */\n          tag_270\n          jump\t// in\n        tag_391:\n            /* \"#utility.yul\":7558:7780   */\n          swap3\n          swap2\n          pop\n          pop\n          jump\t// out\n            /* \"#utility.yul\":7786:7876   */\n        tag_271:\n            /* \"#utility.yul\":7820:7827   */\n          0x00\n            /* \"#utility.yul\":7863:7868   */\n          dup2\n            /* \"#utility.yul\":7856:7869   */\n          iszero\n            /* \"#utility.yul\":7849:7870   */\n          iszero\n            /* \"#utility.yul\":7838:7870   */\n          swap1\n          pop\n            /* \"#utility.yul\":7786:7876   */\n          swap2\n          swap1\n          pop\n          jump\t// out\n            /* \"#utility.yul\":7882:7991   */\n        tag_272:\n            /* \"#utility.yul\":7963:7984   */\n          tag_394\n            /* \"#utility.yul\":7978:7983   */\n          dup2\n            /* \"#utility.yul\":7963:7984   */\n          tag_271\n          jump\t// in\n        tag_394:\n            /* \"#utility.yul\":7958:7961   */\n          dup3\n            /* \"#utility.yul\":7951:7985   */\n          mstore\n            /* \"#utility.yul\":7882:7991   */\n          pop\n          pop\n          jump\t// out\n            /* \"#utility.yul\":7997:8207   */\n        tag_60:\n            /* \"#utility.yul\":8084:8088   */\n          0x00\n            /* \"#utility.yul\":8122:8124   */\n          0x20\n            /* \"#utility.yul\":8111:8120   */\n          dup3\n            /* \"#utility.yul\":8107:8125   */\n          add\n            /* \"#utility.yul\":8099:8125   */\n          swap1\n          pop\n            /* \"#utility.yul\":8135:8200   */\n          tag_396\n            /* \"#utility.yul\":8197:8198   */\n          0x00\n            /* \"#utility.yul\":8186:8195   */\n          dup4\n            /* \"#utility.yul\":8182:8199   */\n          add\n            /* \"#utility.yul\":8173:8179   */\n          dup5\n            /* \"#utility.yul\":8135:8200   */\n          tag_272\n          jump\t// in\n        tag_396:\n            /* \"#utility.yul\":7997:8207   */\n          swap3\n          swap2\n          pop\n          pop\n          jump\t// out\n            /* \"#utility.yul\":8213:8832   */\n        tag_71:\n            /* \"#utility.yul\":8290:8296   */\n          0x00\n            /* \"#utility.yul\":8298:8304   */\n          dup1\n            /* \"#utility.yul\":8306:8312   */\n          0x00\n            /* \"#utility.yul\":8355:8357   */\n          0x60\n            /* \"#utility.yul\":8343:8352   */\n          dup5\n            /* \"#utility.yul\":8334:8341   */\n          dup7\n            /* \"#utility.yul\":8330:8353   */\n          sub\n            /* \"#utility.yul\":8326:8358   */\n          slt\n            /* \"#utility.yul\":8323:8442   */\n          iszero\n          tag_398\n          jumpi\n            /* \"#utility.yul\":8361:8440   */\n          tag_399\n          tag_252\n          jump\t// in\n        tag_399:\n            /* \"#utility.yul\":8323:8442   */\n        tag_398:\n            /* \"#utility.yul\":8481:8482   */\n          0x00\n            /* \"#utility.yul\":8506:8559   */\n          tag_400\n            /* \"#utility.yul\":8551:8558   */\n          dup7\n            /* \"#utility.yul\":8542:8548   */\n          dup3\n            /* \"#utility.yul\":8531:8540   */\n          dup8\n            /* \"#utility.yul\":8527:8549   */\n          add\n            /* \"#utility.yul\":8506:8559   */\n          tag_255\n          jump\t// in\n        tag_400:\n            /* \"#utility.yul\":8496:8559   */\n          swap4\n          pop\n            /* \"#utility.yul\":8452:8569   */\n          pop\n            /* \"#utility.yul\":8608:8610   */\n          0x20\n            /* \"#utility.yul\":8634:8687   */\n          tag_401\n            /* \"#utility.yul\":8679:8686   */\n          dup7\n            /* \"#utility.yul\":8670:8676   */\n          dup3\n            /* \"#utility.yul\":8659:8668   */\n          dup8\n            /* \"#utility.yul\":8655:8677   */\n          add\n            /* \"#utility.yul\":8634:8687   */\n          tag_255\n          jump\t// in\n        tag_401:\n            /* \"#utility.yul\":8624:8687   */\n          swap3\n          pop\n            /* \"#utility.yul\":8579:8697   */\n          pop\n            /* \"#utility.yul\":8736:8738   */\n          0x40\n            /* \"#utility.yul\":8762:8815   */\n          tag_402\n            /* \"#utility.yul\":8807:8814   */\n          dup7\n            /* \"#utility.yul\":8798:8804   */\n          dup3\n            /* \"#utility.yul\":8787:8796   */\n          dup8\n            /* \"#utility.yul\":8783:8805   */\n          add\n            /* \"#utility.yul\":8762:8815   */\n          tag_257\n          jump\t// in\n        tag_402:\n            /* \"#utility.yul\":8752:8815   */\n          swap2\n          pop\n            /* \"#utility.yul\":8707:8825   */\n          pop\n            /* \"#utility.yul\":8213:8832   */\n          swap3\n          pop\n          swap3\n          pop\n          swap3\n          jump\t// out\n            /* \"#utility.yul\":8838:9145   */\n        tag_273:\n            /* \"#utility.yul\":8899:8903   */\n          0x00\n            /* \"#utility.yul\":8989:9007   */\n          0xffffffffffffffff\n            /* \"#utility.yul\":8981:8987   */\n          dup3\n            /* \"#utility.yul\":8978:9008   */\n          gt\n            /* \"#utility.yul\":8975:9031   */\n          iszero\n          tag_404\n          jumpi\n            /* \"#utility.yul\":9011:9029   */\n          tag_405\n          tag_263\n          jump\t// in\n        tag_405:\n            /* \"#utility.yul\":8975:9031   */\n        tag_404:\n            /* \"#utility.yul\":9049:9078   */\n          tag_406\n            /* \"#utility.yul\":9071:9077   */\n          dup3\n            /* \"#utility.yul\":9049:9078   */\n          tag_244\n          jump\t// in\n        tag_406:\n            /* \"#utility.yul\":9041:9078   */\n          swap1\n          pop\n            /* \"#utility.yul\":9133:9137   */\n          0x20\n            /* \"#utility.yul\":9127:9131   */\n          dup2\n            /* \"#utility.yul\":9123:9138   */\n          add\n            /* \"#utility.yul\":9115:9138   */\n          swap1\n          pop\n            /* \"#utility.yul\":8838:9145   */\n          swap2\n          swap1\n          pop\n          jump\t// out\n            /* \"#utility.yul\":9151:9561   */\n        tag_274:\n            /* \"#utility.yul\":9228:9233   */\n          0x00\n            /* \"#utility.yul\":9253:9318   */\n          tag_408\n            /* \"#utility.yul\":9269:9317   */\n          tag_409\n            /* \"#utility.yul\":9310:9316   */\n          dup5\n            /* \"#utility.yul\":9269:9317   */\n          tag_273\n          jump\t// in\n        tag_409:\n            /* \"#utility.yul\":9253:9318   */\n          tag_265\n          jump\t// in\n        tag_408:\n            /* \"#utility.yul\":9244:9318   */\n          swap1\n          pop\n            /* \"#utility.yul\":9341:9347   */\n          dup3\n            /* \"#utility.yul\":9334:9339   */\n          dup2\n            /* \"#utility.yul\":9327:9348   */\n          mstore\n            /* \"#utility.yul\":9379:9383   */\n          0x20\n            /* \"#utility.yul\":9372:9377   */\n          dup2\n            /* \"#utility.yul\":9368:9384   */\n          add\n            /* \"#utility.yul\":9417:9420   */\n          dup5\n            /* \"#utility.yul\":9408:9414   */\n          dup5\n            /* \"#utility.yul\":9403:9406   */\n          dup5\n            /* \"#utility.yul\":9399:9415   */\n          add\n            /* \"#utility.yul\":9396:9421   */\n          gt\n            /* \"#utility.yul\":9393:9505   */\n          iszero\n          tag_410\n          jumpi\n            /* \"#utility.yul\":9424:9503   */\n          tag_411\n          tag_262\n          jump\t// in\n        tag_411:\n            /* \"#utility.yul\":9393:9505   */\n        tag_410:\n            /* \"#utility.yul\":9514:9555   */\n          tag_412\n            /* \"#utility.yul\":9548:9554   */\n          dup5\n            /* \"#utility.yul\":9543:9546   */\n          dup3\n            /* \"#utility.yul\":9538:9541   */\n          dup6\n            /* \"#utility.yul\":9514:9555   */\n          tag_267\n          jump\t// in\n        tag_412:\n            /* \"#utility.yul\":9234:9561   */\n          pop\n            /* \"#utility.yul\":9151:9561   */\n          swap4\n          swap3\n          pop\n          pop\n          pop\n          jump\t// out\n            /* \"#utility.yul\":9580:9918   */\n        tag_275:\n            /* \"#utility.yul\":9635:9640   */\n          0x00\n            /* \"#utility.yul\":9684:9687   */\n          dup3\n            /* \"#utility.yul\":9677:9681   */\n          0x1f\n            /* \"#utility.yul\":9669:9675   */\n          dup4\n            /* \"#utility.yul\":9665:9682   */\n          add\n            /* \"#utility.yul\":9661:9688   */\n          slt\n            /* \"#utility.yul\":9651:9773   */\n          tag_414\n          jumpi\n            /* \"#utility.yul\":9692:9771   */\n          tag_415\n          tag_261\n          jump\t// in\n        tag_415:\n            /* \"#utility.yul\":9651:9773   */\n        tag_414:\n            /* \"#utility.yul\":9809:9815   */\n          dup2\n            /* \"#utility.yul\":9796:9816   */\n          calldataload\n            /* \"#utility.yul\":9834:9912   */\n          tag_416\n            /* \"#utility.yul\":9908:9911   */\n          dup5\n            /* \"#utility.yul\":9900:9906   */\n          dup3\n            /* \"#utility.yul\":9893:9897   */\n          0x20\n            /* \"#utility.yul\":9885:9891   */\n          dup7\n            /* \"#utility.yul\":9881:9898   */\n          add\n            /* \"#utility.yul\":9834:9912   */\n          tag_274\n          jump\t// in\n        tag_416:\n            /* \"#utility.yul\":9825:9912   */\n          swap2\n          pop\n            /* \"#utility.yul\":9641:9918   */\n          pop\n            /* \"#utility.yul\":9580:9918   */\n          swap3\n          swap2\n          pop\n          pop\n          jump\t// out\n            /* \"#utility.yul\":9924:11045   */\n        tag_84:\n            /* \"#utility.yul\":10028:10034   */\n          0x00\n            /* \"#utility.yul\":10036:10042   */\n          dup1\n            /* \"#utility.yul\":10044:10050   */\n          0x00\n            /* \"#utility.yul\":10052:10058   */\n          dup1\n            /* \"#utility.yul\":10101:10104   */\n          0x80\n            /* \"#utility.yul\":10089:10098   */\n          dup6\n            /* \"#utility.yul\":10080:10087   */\n          dup8\n            /* \"#utility.yul\":10076:10099   */\n          sub\n            /* \"#utility.yul\":10072:10105   */\n          slt\n            /* \"#utility.yul\":10069:10189   */\n          iszero\n          tag_418\n          jumpi\n            /* \"#utility.yul\":10108:10187   */\n          tag_419\n          tag_252\n          jump\t// in\n        tag_419:\n            /* \"#utility.yul\":10069:10189   */\n        tag_418:\n            /* \"#utility.yul\":10256:10257   */\n          0x00\n            /* \"#utility.yul\":10245:10254   */\n          dup6\n            /* \"#utility.yul\":10241:10258   */\n          add\n            /* \"#utility.yul\":10228:10259   */\n          calldataload\n            /* \"#utility.yul\":10286:10304   */\n          0xffffffffffffffff\n            /* \"#utility.yul\":10278:10284   */\n          dup2\n            /* \"#utility.yul\":10275:10305   */\n          gt\n            /* \"#utility.yul\":10272:10389   */\n          iszero\n          tag_420\n          jumpi\n            /* \"#utility.yul\":10308:10387   */\n          tag_421\n          tag_253\n          jump\t// in\n        tag_421:\n            /* \"#utility.yul\":10272:10389   */\n        tag_420:\n            /* \"#utility.yul\":10413:10475   */\n          tag_422\n            /* \"#utility.yul\":10467:10474   */\n          dup8\n            /* \"#utility.yul\":10458:10464   */\n          dup3\n            /* \"#utility.yul\":10447:10456   */\n          dup9\n            /* \"#utility.yul\":10443:10465   */\n          add\n            /* \"#utility.yul\":10413:10475   */\n          tag_275\n          jump\t// in\n        tag_422:\n            /* \"#utility.yul\":10403:10475   */\n          swap5\n          pop\n            /* \"#utility.yul\":10199:10485   */\n          pop\n            /* \"#utility.yul\":10552:10554   */\n          0x20\n            /* \"#utility.yul\":10541:10550   */\n          dup6\n            /* \"#utility.yul\":10537:10555   */\n          add\n            /* \"#utility.yul\":10524:10556   */\n          calldataload\n            /* \"#utility.yul\":10583:10601   */\n          0xffffffffffffffff\n            /* \"#utility.yul\":10575:10581   */\n          dup2\n            /* \"#utility.yul\":10572:10602   */\n          gt\n            /* \"#utility.yul\":10569:10686   */\n          iszero\n          tag_423\n          jumpi\n            /* \"#utility.yul\":10605:10684   */\n          tag_424\n          tag_253\n          jump\t// in\n        tag_424:\n            /* \"#utility.yul\":10569:10686   */\n        tag_423:\n            /* \"#utility.yul\":10710:10772   */\n          tag_425\n            /* \"#utility.yul\":10764:10771   */\n          dup8\n            /* \"#utility.yul\":10755:10761   */\n          dup3\n            /* \"#utility.yul\":10744:10753   */\n          dup9\n            /* \"#utility.yul\":10740:10762   */\n          add\n            /* \"#utility.yul\":10710:10772   */\n          tag_275\n          jump\t// in\n        tag_425:\n            /* \"#utility.yul\":10700:10772   */\n          swap4\n          pop\n            /* \"#utility.yul\":10495:10782   */\n          pop\n            /* \"#utility.yul\":10821:10823   */\n          0x40\n            /* \"#utility.yul\":10847:10900   */\n          tag_426\n            /* \"#utility.yul\":10892:10899   */\n          dup8\n            /* \"#utility.yul\":10883:10889   */\n          dup3\n            /* \"#utility.yul\":10872:10881   */\n          dup9\n            /* \"#utility.yul\":10868:10890   */\n          add\n            /* \"#utility.yul\":10847:10900   */\n          tag_255\n          jump\t// in\n        tag_426:\n            /* \"#utility.yul\":10837:10900   */\n          swap3\n          pop\n            /* \"#utility.yul\":10792:10910   */\n          pop\n            /* \"#utility.yul\":10949:10951   */\n          0x60\n            /* \"#utility.yul\":10975:11028   */\n          tag_427\n            /* \"#utility.yul\":11020:11027   */\n          dup8\n            /* \"#utility.yul\":11011:11017   */\n          dup3\n            /* \"#utility.yul\":11000:11009   */\n          dup9\n            /* \"#utility.yul\":10996:11018   */\n          add\n            /* \"#utility.yul\":10975:11028   */\n          tag_257\n          jump\t// in\n        tag_427:\n            /* \"#utility.yul\":10965:11028   */\n          swap2\n          pop\n            /* \"#utility.yul\":10920:11038   */\n          pop\n            /* \"#utility.yul\":9924:11045   */\n          swap3\n          swap6\n          swap2\n          swap5\n          pop\n          swap3\n          pop\n          jump\t// out\n            /* \"#utility.yul\":11051:12580   */\n        tag_89:\n            /* \"#utility.yul\":11183:11189   */\n          0x00\n            /* \"#utility.yul\":11191:11197   */\n          dup1\n            /* \"#utility.yul\":11199:11205   */\n          0x00\n            /* \"#utility.yul\":11207:11213   */\n          dup1\n            /* \"#utility.yul\":11215:11221   */\n          0x00\n            /* \"#utility.yul\":11223:11229   */\n          dup1\n            /* \"#utility.yul\":11231:11237   */\n          0x00\n            /* \"#utility.yul\":11239:11245   */\n          dup1\n            /* \"#utility.yul\":11288:11291   */\n          0x0100\n            /* \"#utility.yul\":11276:11285   */\n          dup10\n            /* \"#utility.yul\":11267:11274   */\n          dup12\n            /* \"#utility.yul\":11263:11286   */\n          sub\n            /* \"#utility.yul\":11259:11292   */\n          slt\n            /* \"#utility.yul\":11256:11376   */\n          iszero\n          tag_429\n          jumpi\n            /* \"#utility.yul\":11295:11374   */\n          tag_430\n          tag_252\n          jump\t// in\n        tag_430:\n            /* \"#utility.yul\":11256:11376   */\n        tag_429:\n            /* \"#utility.yul\":11415:11416   */\n          0x00\n            /* \"#utility.yul\":11440:11493   */\n          tag_431\n            /* \"#utility.yul\":11485:11492   */\n          dup12\n            /* \"#utility.yul\":11476:11482   */\n          dup3\n            /* \"#utility.yul\":11465:11474   */\n          dup13\n            /* \"#utility.yul\":11461:11483   */\n          add\n            /* \"#utility.yul\":11440:11493   */\n          tag_260\n          jump\t// in\n        tag_431:\n            /* \"#utility.yul\":11430:11493   */\n          swap9\n          pop\n            /* \"#utility.yul\":11386:11503   */\n          pop\n            /* \"#utility.yul\":11542:11544   */\n          0x20\n            /* \"#utility.yul\":11568:11621   */\n          tag_432\n            /* \"#utility.yul\":11613:11620   */\n          dup12\n            /* \"#utility.yul\":11604:11610   */\n          dup3\n            /* \"#utility.yul\":11593:11602   */\n          dup13\n            /* \"#utility.yul\":11589:11611   */\n          add\n            /* \"#utility.yul\":11568:11621   */\n          tag_260\n          jump\t// in\n        tag_432:\n            /* \"#utility.yul\":11558:11621   */\n          swap8\n          pop\n            /* \"#utility.yul\":11513:11631   */\n          pop\n            /* \"#utility.yul\":11698:11700   */\n          0x40\n            /* \"#utility.yul\":11687:11696   */\n          dup10\n            /* \"#utility.yul\":11683:11701   */\n          add\n            /* \"#utility.yul\":11670:11702   */\n          calldataload\n            /* \"#utility.yul\":11729:11747   */\n          0xffffffffffffffff\n            /* \"#utility.yul\":11721:11727   */\n          dup2\n            /* \"#utility.yul\":11718:11748   */\n          gt\n            /* \"#utility.yul\":11715:11832   */\n          iszero\n          tag_433\n          jumpi\n            /* \"#utility.yul\":11751:11830   */\n          tag_434\n          tag_253\n          jump\t// in\n        tag_434:\n            /* \"#utility.yul\":11715:11832   */\n        tag_433:\n            /* \"#utility.yul\":11856:11919   */\n          tag_435\n            /* \"#utility.yul\":11911:11918   */\n          dup12\n            /* \"#utility.yul\":11902:11908   */\n          dup3\n            /* \"#utility.yul\":11891:11900   */\n          dup13\n            /* \"#utility.yul\":11887:11909   */\n          add\n            /* \"#utility.yul\":11856:11919   */\n          tag_269\n          jump\t// in\n        tag_435:\n            /* \"#utility.yul\":11846:11919   */\n          swap7\n          pop\n            /* \"#utility.yul\":11641:11929   */\n          pop\n            /* \"#utility.yul\":11968:11970   */\n          0x60\n            /* \"#utility.yul\":11994:12047   */\n          tag_436\n            /* \"#utility.yul\":12039:12046   */\n          dup12\n            /* \"#utility.yul\":12030:12036   */\n          dup3\n            /* \"#utility.yul\":12019:12028   */\n          dup13\n            /* \"#utility.yul\":12015:12037   */\n          add\n            /* \"#utility.yul\":11994:12047   */\n          tag_255\n          jump\t// in\n        tag_436:\n            /* \"#utility.yul\":11984:12047   */\n          swap6\n          pop\n            /* \"#utility.yul\":11939:12057   */\n          pop\n            /* \"#utility.yul\":12096:12099   */\n          0x80\n            /* \"#utility.yul\":12123:12176   */\n          tag_437\n            /* \"#utility.yul\":12168:12175   */\n          dup12\n            /* \"#utility.yul\":12159:12165   */\n          dup3\n            /* \"#utility.yul\":12148:12157   */\n          dup13\n            /* \"#utility.yul\":12144:12166   */\n          add\n            /* \"#utility.yul\":12123:12176   */\n          tag_255\n          jump\t// in\n        tag_437:\n            /* \"#utility.yul\":12113:12176   */\n          swap5\n          pop\n            /* \"#utility.yul\":12067:12186   */\n          pop\n            /* \"#utility.yul\":12225:12228   */\n          0xa0\n            /* \"#utility.yul\":12252:12305   */\n          tag_438\n            /* \"#utility.yul\":12297:12304   */\n          dup12\n            /* \"#utility.yul\":12288:12294   */\n          dup3\n            /* \"#utility.yul\":12277:12286   */\n          dup13\n            /* \"#utility.yul\":12273:12295   */\n          add\n            /* \"#utility.yul\":12252:12305   */\n          tag_255\n          jump\t// in\n        tag_438:\n            /* \"#utility.yul\":12242:12305   */\n          swap4\n          pop\n            /* \"#utility.yul\":12196:12315   */\n          pop\n            /* \"#utility.yul\":12354:12357   */\n          0xc0\n            /* \"#utility.yul\":12381:12434   */\n          tag_439\n            /* \"#utility.yul\":12426:12433   */\n          dup12\n            /* \"#utility.yul\":12417:12423   */\n          dup3\n            /* \"#utility.yul\":12406:12415   */\n          dup13\n            /* \"#utility.yul\":12402:12424   */\n          add\n            /* \"#utility.yul\":12381:12434   */\n          tag_255\n          jump\t// in\n        tag_439:\n            /* \"#utility.yul\":12371:12434   */\n          swap3\n          pop\n            /* \"#utility.yul\":12325:12444   */\n          pop\n            /* \"#utility.yul\":12483:12486   */\n          0xe0\n            /* \"#utility.yul\":12510:12563   */\n          tag_440\n            /* \"#utility.yul\":12555:12562   */\n          dup12\n            /* \"#utility.yul\":12546:12552   */\n          dup3\n            /* \"#utility.yul\":12535:12544   */\n          dup13\n            /* \"#utility.yul\":12531:12553   */\n          add\n            /* \"#utility.yul\":12510:12563   */\n          tag_255\n          jump\t// in\n        tag_440:\n            /* \"#utility.yul\":12500:12563   */\n          swap2\n          pop\n            /* \"#utility.yul\":12454:12573   */\n          pop\n            /* \"#utility.yul\":11051:12580   */\n          swap3\n          swap6\n          swap9\n          pop\n          swap3\n          swap6\n          swap9\n          swap1\n          swap4\n          swap7\n          pop\n          jump\t// out\n            /* \"#utility.yul\":12586:12830   */\n        tag_276:\n            /* \"#utility.yul\":12726:12760   */\n          0x4f6e6c7920637573746f6d6572206f66207468652064656c6976657279206361\n            /* \"#utility.yul\":12722:12723   */\n          0x00\n            /* \"#utility.yul\":12714:12720   */\n          dup3\n            /* \"#utility.yul\":12710:12724   */\n          add\n            /* \"#utility.yul\":12703:12761   */\n          mstore\n            /* \"#utility.yul\":12795:12822   */\n          0x6e2073657420746865206368616e6e656c20706172616d732e00000000000000\n            /* \"#utility.yul\":12790:12792   */\n          0x20\n            /* \"#utility.yul\":12782:12788   */\n          dup3\n            /* \"#utility.yul\":12778:12793   */\n          add\n            /* \"#utility.yul\":12771:12823   */\n          mstore\n            /* \"#utility.yul\":12586:12830   */\n          pop\n          jump\t// out\n            /* \"#utility.yul\":12836:13202   */\n        tag_277:\n            /* \"#utility.yul\":12978:12981   */\n          0x00\n            /* \"#utility.yul\":12999:13066   */\n          tag_443\n            /* \"#utility.yul\":13063:13065   */\n          0x39\n            /* \"#utility.yul\":13058:13061   */\n          dup4\n            /* \"#utility.yul\":12999:13066   */\n          tag_242\n          jump\t// in\n        tag_443:\n            /* \"#utility.yul\":12992:13066   */\n          swap2\n          pop\n            /* \"#utility.yul\":13075:13168   */\n          tag_444\n            /* \"#utility.yul\":13164:13167   */\n          dup3\n            /* \"#utility.yul\":13075:13168   */\n          tag_276\n          jump\t// in\n        tag_444:\n            /* \"#utility.yul\":13193:13195   */\n          0x40\n            /* \"#utility.yul\":13188:13191   */\n          dup3\n            /* \"#utility.yul\":13184:13196   */\n          add\n            /* \"#utility.yul\":13177:13196   */\n          swap1\n          pop\n            /* \"#utility.yul\":12836:13202   */\n          swap2\n          swap1\n          pop\n          jump\t// out\n            /* \"#utility.yul\":13208:13627   */\n        tag_98:\n            /* \"#utility.yul\":13374:13378   */\n          0x00\n            /* \"#utility.yul\":13412:13414   */\n          0x20\n            /* \"#utility.yul\":13401:13410   */\n          dup3\n            /* \"#utility.yul\":13397:13415   */\n          add\n            /* \"#utility.yul\":13389:13415   */\n          swap1\n          pop\n            /* \"#utility.yul\":13461:13470   */\n          dup2\n            /* \"#utility.yul\":13455:13459   */\n          dup2\n            /* \"#utility.yul\":13451:13471   */\n          sub\n            /* \"#utility.yul\":13447:13448   */\n          0x00\n            /* \"#utility.yul\":13436:13445   */\n          dup4\n            /* \"#utility.yul\":13432:13449   */\n          add\n            /* \"#utility.yul\":13425:13472   */\n          mstore\n            /* \"#utility.yul\":13489:13620   */\n          tag_446\n            /* \"#utility.yul\":13615:13619   */\n          dup2\n            /* \"#utility.yul\":13489:13620   */\n          tag_277\n          jump\t// in\n        tag_446:\n            /* \"#utility.yul\":13481:13620   */\n          swap1\n          pop\n            /* \"#utility.yul\":13208:13627   */\n          swap2\n          swap1\n          pop\n          jump\t// out\n            /* \"#utility.yul\":13633:13813   */\n        tag_278:\n            /* \"#utility.yul\":13681:13758   */\n          0x4e487b7100000000000000000000000000000000000000000000000000000000\n            /* \"#utility.yul\":13678:13679   */\n          0x00\n            /* \"#utility.yul\":13671:13759   */\n          mstore\n            /* \"#utility.yul\":13778:13782   */\n          0x11\n            /* \"#utility.yul\":13775:13776   */\n          0x04\n            /* \"#utility.yul\":13768:13783   */\n          mstore\n            /* \"#utility.yul\":13802:13806   */\n          0x24\n            /* \"#utility.yul\":13799:13800   */\n          0x00\n            /* \"#utility.yul\":13792:13807   */\n          revert\n            /* \"#utility.yul\":13819:14124   */\n        tag_101:\n            /* \"#utility.yul\":13859:13862   */\n          0x00\n            /* \"#utility.yul\":13878:13898   */\n          tag_449\n            /* \"#utility.yul\":13896:13897   */\n          dup3\n            /* \"#utility.yul\":13878:13898   */\n          tag_249\n          jump\t// in\n        tag_449:\n            /* \"#utility.yul\":13873:13898   */\n          swap2\n          pop\n            /* \"#utility.yul\":13912:13932   */\n          tag_450\n            /* \"#utility.yul\":13930:13931   */\n          dup4\n            /* \"#utility.yul\":13912:13932   */\n          tag_249\n          jump\t// in\n        tag_450:\n            /* \"#utility.yul\":13907:13932   */\n          swap3\n          pop\n            /* \"#utility.yul\":14066:14067   */\n          dup3\n            /* \"#utility.yul\":13998:14064   */\n          0xffffffffffffffffffffffffffffffffffffffffffffffffffffffffffffffff\n            /* \"#utility.yul\":13994:14068   */\n          sub\n            /* \"#utility.yul\":13991:13992   */\n          dup3\n            /* \"#utility.yul\":13988:14069   */\n          gt\n            /* \"#utility.yul\":13985:14092   */\n          iszero\n          tag_451\n          jumpi\n            /* \"#utility.yul\":14072:14090   */\n          tag_452\n          tag_278\n          jump\t// in\n        tag_452:\n            /* \"#utility.yul\":13985:14092   */\n        tag_451:\n            /* \"#utility.yul\":14116:14117   */\n          dup3\n            /* \"#utility.yul\":14113:14114   */\n          dup3\n            /* \"#utility.yul\":14109:14118   */\n          add\n            /* \"#utility.yul\":14102:14118   */\n          swap1\n          pop\n            /* \"#utility.yul\":13819:14124   */\n          swap3\n          swap2\n          pop\n          pop\n          jump\t// out\n            /* \"#utility.yul\":14130:14290   */\n        tag_279:\n            /* \"#utility.yul\":14270:14282   */\n          0x54696d65206572726f7200000000000000000000000000000000000000000000\n            /* \"#utility.yul\":14266:14267   */\n          0x00\n            /* \"#utility.yul\":14258:14264   */\n          dup3\n            /* \"#utility.yul\":14254:14268   */\n          add\n            /* \"#utility.yul\":14247:14283   */\n          mstore\n            /* \"#utility.yul\":14130:14290   */\n          pop\n          jump\t// out\n            /* \"#utility.yul\":14296:14662   */\n        tag_280:\n            /* \"#utility.yul\":14438:14441   */\n          0x00\n            /* \"#utility.yul\":14459:14526   */\n          tag_455\n            /* \"#utility.yul\":14523:14525   */\n          0x0a\n            /* \"#utility.yul\":14518:14521   */\n          dup4\n            /* \"#utility.yul\":14459:14526   */\n          tag_242\n          jump\t// in\n        tag_455:\n            /* \"#utility.yul\":14452:14526   */\n          swap2\n          pop\n            /* \"#utility.yul\":14535:14628   */\n          tag_456\n            /* \"#utility.yul\":14624:14627   */\n          dup3\n            /* \"#utility.yul\":14535:14628   */\n          tag_279\n          jump\t// in\n        tag_456:\n            /* \"#utility.yul\":14653:14655   */\n          0x20\n            /* \"#utility.yul\":14648:14651   */\n          dup3\n            /* \"#utility.yul\":14644:14656   */\n          add\n            /* \"#utility.yul\":14637:14656   */\n          swap1\n          pop\n            /* \"#utility.yul\":14296:14662   */\n          swap2\n          swap1\n          pop\n          jump\t// out\n            /* \"#utility.yul\":14668:15087   */\n        tag_104:\n            /* \"#utility.yul\":14834:14838   */\n          0x00\n            /* \"#utility.yul\":14872:14874   */\n          0x20\n            /* \"#utility.yul\":14861:14870   */\n          dup3\n            /* \"#utility.yul\":14857:14875   */\n          add\n            /* \"#utility.yul\":14849:14875   */\n          swap1\n          pop\n            /* \"#utility.yul\":14921:14930   */\n          dup2\n            /* \"#utility.yul\":14915:14919   */\n          dup2\n            /* \"#utility.yul\":14911:14931   */\n          sub\n            /* \"#utility.yul\":14907:14908   */\n          0x00\n            /* \"#utility.yul\":14896:14905   */\n          dup4\n            /* \"#utility.yul\":14892:14909   */\n          add\n            /* \"#utility.yul\":14885:14932   */\n          mstore\n            /* \"#utility.yul\":14949:15080   */\n          tag_458\n            /* \"#utility.yul\":15075:15079   */\n          dup2\n            /* \"#utility.yul\":14949:15080   */\n          tag_280\n          jump\t// in\n        tag_458:\n            /* \"#utility.yul\":14941:15080   */\n          swap1\n          pop\n            /* \"#utility.yul\":14668:15087   */\n          swap2\n          swap1\n          pop\n          jump\t// out\n            /* \"#utility.yul\":15093:15273   */\n        tag_281:\n            /* \"#utility.yul\":15141:15218   */\n          0x4e487b7100000000000000000000000000000000000000000000000000000000\n            /* \"#utility.yul\":15138:15139   */\n          0x00\n            /* \"#utility.yul\":15131:15219   */\n          mstore\n            /* \"#utility.yul\":15238:15242   */\n          0x22\n            /* \"#utility.yul\":15235:15236   */\n          0x04\n            /* \"#utility.yul\":15228:15243   */\n          mstore\n            /* \"#utility.yul\":15262:15266   */\n          0x24\n            /* \"#utility.yul\":15259:15260   */\n          0x00\n            /* \"#utility.yul\":15252:15267   */\n          revert\n            /* \"#utility.yul\":15279:15599   */\n        tag_106:\n            /* \"#utility.yul\":15323:15329   */\n          0x00\n            /* \"#utility.yul\":15360:15361   */\n          0x02\n            /* \"#utility.yul\":15354:15358   */\n          dup3\n            /* \"#utility.yul\":15350:15362   */\n          div\n            /* \"#utility.yul\":15340:15362   */\n          swap1\n          pop\n            /* \"#utility.yul\":15407:15408   */\n          0x01\n            /* \"#utility.yul\":15401:15405   */\n          dup3\n            /* \"#utility.yul\":15397:15409   */\n          and\n            /* \"#utility.yul\":15428:15446   */\n          dup1\n            /* \"#utility.yul\":15418:15499   */\n          tag_461\n          jumpi\n            /* \"#utility.yul\":15484:15488   */\n          0x7f\n            /* \"#utility.yul\":15476:15482   */\n          dup3\n            /* \"#utility.yul\":15472:15489   */\n          and\n            /* \"#utility.yul\":15462:15489   */\n          swap2\n          pop\n            /* \"#utility.yul\":15418:15499   */\n        tag_461:\n            /* \"#utility.yul\":15546:15548   */\n          0x20\n            /* \"#utility.yul\":15538:15544   */\n          dup3\n            /* \"#utility.yul\":15535:15549   */\n          lt\n            /* \"#utility.yul\":15515:15533   */\n          dup2\n            /* \"#utility.yul\":15512:15550   */\n          eq\n            /* \"#utility.yul\":15509:15593   */\n          iszero\n          tag_462\n          jumpi\n            /* \"#utility.yul\":15565:15583   */\n          tag_463\n          tag_281\n          jump\t// in\n        tag_463:\n            /* \"#utility.yul\":15509:15593   */\n        tag_462:\n            /* \"#utility.yul\":15330:15599   */\n          pop\n            /* \"#utility.yul\":15279:15599   */\n          swap2\n          swap1\n          pop\n          jump\t// out\n            /* \"#utility.yul\":15605:15953   */\n        tag_114:\n            /* \"#utility.yul\":15645:15652   */\n          0x00\n            /* \"#utility.yul\":15668:15688   */\n          tag_465\n            /* \"#utility.yul\":15686:15687   */\n          dup3\n            /* \"#utility.yul\":15668:15688   */\n          tag_249\n          jump\t// in\n        tag_465:\n            /* \"#utility.yul\":15663:15688   */\n          swap2\n          pop\n            /* \"#utility.yul\":15702:15722   */\n          tag_466\n            /* \"#utility.yul\":15720:15721   */\n          dup4\n            /* \"#utility.yul\":15702:15722   */\n          tag_249\n          jump\t// in\n        tag_466:\n            /* \"#utility.yul\":15697:15722   */\n          swap3\n          pop\n            /* \"#utility.yul\":15890:15891   */\n          dup2\n            /* \"#utility.yul\":15822:15888   */\n          0xffffffffffffffffffffffffffffffffffffffffffffffffffffffffffffffff\n            /* \"#utility.yul\":15818:15892   */\n          div\n            /* \"#utility.yul\":15815:15816   */\n          dup4\n            /* \"#utility.yul\":15812:15893   */\n          gt\n            /* \"#utility.yul\":15807:15808   */\n          dup3\n            /* \"#utility.yul\":15800:15809   */\n          iszero\n            /* \"#utility.yul\":15793:15810   */\n          iszero\n            /* \"#utility.yul\":15789:15894   */\n          and\n            /* \"#utility.yul\":15786:15917   */\n          iszero\n          tag_467\n          jumpi\n            /* \"#utility.yul\":15897:15915   */\n          tag_468\n          tag_278\n          jump\t// in\n        tag_468:\n            /* \"#utility.yul\":15786:15917   */\n        tag_467:\n            /* \"#utility.yul\":15945:15946   */\n          dup3\n            /* \"#utility.yul\":15942:15943   */\n          dup3\n            /* \"#utility.yul\":15938:15947   */\n          mul\n            /* \"#utility.yul\":15927:15947   */\n          swap1\n          pop\n            /* \"#utility.yul\":15605:15953   */\n          swap3\n          swap2\n          pop\n          pop\n          jump\t// out\n            /* \"#utility.yul\":15959:16122   */\n        tag_282:\n            /* \"#utility.yul\":16099:16114   */\n          0x62616c616e6365206572726f7200000000000000000000000000000000000000\n            /* \"#utility.yul\":16095:16096   */\n          0x00\n            /* \"#utility.yul\":16087:16093   */\n          dup3\n            /* \"#utility.yul\":16083:16097   */\n          add\n            /* \"#utility.yul\":16076:16115   */\n          mstore\n            /* \"#utility.yul\":15959:16122   */\n          pop\n          jump\t// out\n            /* \"#utility.yul\":16128:16494   */\n        tag_283:\n            /* \"#utility.yul\":16270:16273   */\n          0x00\n            /* \"#utility.yul\":16291:16358   */\n          tag_471\n            /* \"#utility.yul\":16355:16357   */\n          0x0d\n            /* \"#utility.yul\":16350:16353   */\n          dup4\n            /* \"#utility.yul\":16291:16358   */\n          tag_242\n          jump\t// in\n        tag_471:\n            /* \"#utility.yul\":16284:16358   */\n          swap2\n          pop\n            /* \"#utility.yul\":16367:16460   */\n          tag_472\n            /* \"#utility.yul\":16456:16459   */\n          dup3\n            /* \"#utility.yul\":16367:16460   */\n          tag_282\n          jump\t// in\n        tag_472:\n            /* \"#utility.yul\":16485:16487   */\n          0x20\n            /* \"#utility.yul\":16480:16483   */\n          dup3\n            /* \"#utility.yul\":16476:16488   */\n          add\n            /* \"#utility.yul\":16469:16488   */\n          swap1\n          pop\n            /* \"#utility.yul\":16128:16494   */\n          swap2\n          swap1\n          pop\n          jump\t// out\n            /* \"#utility.yul\":16500:16919   */\n        tag_117:\n            /* \"#utility.yul\":16666:16670   */\n          0x00\n            /* \"#utility.yul\":16704:16706   */\n          0x20\n            /* \"#utility.yul\":16693:16702   */\n          dup3\n            /* \"#utility.yul\":16689:16707   */\n          add\n            /* \"#utility.yul\":16681:16707   */\n          swap1\n          pop\n            /* \"#utility.yul\":16753:16762   */\n          dup2\n            /* \"#utility.yul\":16747:16751   */\n          dup2\n            /* \"#utility.yul\":16743:16763   */\n          sub\n            /* \"#utility.yul\":16739:16740   */\n          0x00\n            /* \"#utility.yul\":16728:16737   */\n          dup4\n            /* \"#utility.yul\":16724:16741   */\n          add\n            /* \"#utility.yul\":16717:16764   */\n          mstore\n            /* \"#utility.yul\":16781:16912   */\n          tag_474\n            /* \"#utility.yul\":16907:16911   */\n          dup2\n            /* \"#utility.yul\":16781:16912   */\n          tag_283\n          jump\t// in\n        tag_474:\n            /* \"#utility.yul\":16773:16912   */\n          swap1\n          pop\n            /* \"#utility.yul\":16500:16919   */\n          swap2\n          swap1\n          pop\n          jump\t// out\n            /* \"#utility.yul\":16925:17081   */\n        tag_284:\n            /* \"#utility.yul\":17065:17073   */\n          0x6b203c3d206a0000000000000000000000000000000000000000000000000000\n            /* \"#utility.yul\":17061:17062   */\n          0x00\n            /* \"#utility.yul\":17053:17059   */\n          dup3\n            /* \"#utility.yul\":17049:17063   */\n          add\n            /* \"#utility.yul\":17042:17074   */\n          mstore\n            /* \"#utility.yul\":16925:17081   */\n          pop\n          jump\t// out\n            /* \"#utility.yul\":17087:17452   */\n        tag_285:\n            /* \"#utility.yul\":17229:17232   */\n          0x00\n            /* \"#utility.yul\":17250:17316   */\n          tag_477\n            /* \"#utility.yul\":17314:17315   */\n          0x06\n            /* \"#utility.yul\":17309:17312   */\n          dup4\n            /* \"#utility.yul\":17250:17316   */\n          tag_242\n          jump\t// in\n        tag_477:\n            /* \"#utility.yul\":17243:17316   */\n          swap2\n          pop\n            /* \"#utility.yul\":17325:17418   */\n          tag_478\n            /* \"#utility.yul\":17414:17417   */\n          dup3\n            /* \"#utility.yul\":17325:17418   */\n          tag_284\n          jump\t// in\n        tag_478:\n            /* \"#utility.yul\":17443:17445   */\n          0x20\n            /* \"#utility.yul\":17438:17441   */\n          dup3\n            /* \"#utility.yul\":17434:17446   */\n          add\n            /* \"#utility.yul\":17427:17446   */\n          swap1\n          pop\n            /* \"#utility.yul\":17087:17452   */\n          swap2\n          swap1\n          pop\n          jump\t// out\n            /* \"#utility.yul\":17458:17877   */\n        tag_142:\n            /* \"#utility.yul\":17624:17628   */\n          0x00\n            /* \"#utility.yul\":17662:17664   */\n          0x20\n            /* \"#utility.yul\":17651:17660   */\n          dup3\n            /* \"#utility.yul\":17647:17665   */\n          add\n            /* \"#utility.yul\":17639:17665   */\n          swap1\n          pop\n            /* \"#utility.yul\":17711:17720   */\n          dup2\n            /* \"#utility.yul\":17705:17709   */\n          dup2\n            /* \"#utility.yul\":17701:17721   */\n          sub\n            /* \"#utility.yul\":17697:17698   */\n          0x00\n            /* \"#utility.yul\":17686:17695   */\n          dup4\n            /* \"#utility.yul\":17682:17699   */\n          add\n            /* \"#utility.yul\":17675:17722   */\n          mstore\n            /* \"#utility.yul\":17739:17870   */\n          tag_480\n            /* \"#utility.yul\":17865:17869   */\n          dup2\n            /* \"#utility.yul\":17739:17870   */\n          tag_285\n          jump\t// in\n        tag_480:\n            /* \"#utility.yul\":17731:17870   */\n          swap1\n          pop\n            /* \"#utility.yul\":17458:17877   */\n          swap2\n          swap1\n          pop\n          jump\t// out\n            /* \"#utility.yul\":17883:17981   */\n        tag_286:\n            /* \"#utility.yul\":17934:17940   */\n          0x00\n            /* \"#utility.yul\":17968:17973   */\n          dup2\n            /* \"#utility.yul\":17962:17974   */\n          mload\n            /* \"#utility.yul\":17952:17974   */\n          swap1\n          pop\n            /* \"#utility.yul\":17883:17981   */\n          swap2\n          swap1\n          pop\n          jump\t// out\n            /* \"#utility.yul\":17987:18103   */\n        tag_287:\n            /* \"#utility.yul\":18038:18042   */\n          0x00\n            /* \"#utility.yul\":18061:18064   */\n          dup2\n            /* \"#utility.yul\":18053:18064   */\n          swap1\n          pop\n            /* \"#utility.yul\":18091:18095   */\n          0x20\n            /* \"#utility.yul\":18086:18089   */\n          dup3\n            /* \"#utility.yul\":18082:18096   */\n          add\n            /* \"#utility.yul\":18074:18096   */\n          swap1\n          pop\n            /* \"#utility.yul\":17987:18103   */\n          swap2\n          swap1\n          pop\n          jump\t// out\n            /* \"#utility.yul\":18109:18263   */\n        tag_288:\n            /* \"#utility.yul\":18152:18163   */\n          0x00\n            /* \"#utility.yul\":18188:18217   */\n          tag_484\n            /* \"#utility.yul\":18212:18215   */\n          dup3\n            /* \"#utility.yul\":18206:18216   */\n          mload\n            /* \"#utility.yul\":18188:18217   */\n          tag_258\n          jump\t// in\n        tag_484:\n            /* \"#utility.yul\":18251:18256   */\n          dup1\n            /* \"#utility.yul\":18227:18256   */\n          swap2\n          pop\n            /* \"#utility.yul\":18164:18263   */\n          pop\n            /* \"#utility.yul\":18109:18263   */\n          swap2\n          swap1\n          pop\n          jump\t// out\n            /* \"#utility.yul\":18269:18376   */\n        tag_289:\n            /* \"#utility.yul\":18313:18321   */\n          0x00\n            /* \"#utility.yul\":18363:18368   */\n          dup3\n            /* \"#utility.yul\":18357:18361   */\n          dup3\n            /* \"#utility.yul\":18353:18369   */\n          shl\n            /* \"#utility.yul\":18332:18369   */\n          swap1\n          pop\n            /* \"#utility.yul\":18269:18376   */\n          swap3\n          swap2\n          pop\n          pop\n          jump\t// out\n            /* \"#utility.yul\":18382:18976   */\n        tag_144:\n            /* \"#utility.yul\":18466:18471   */\n          0x00\n            /* \"#utility.yul\":18497:18535   */\n          tag_487\n            /* \"#utility.yul\":18529:18534   */\n          dup3\n            /* \"#utility.yul\":18497:18535   */\n          tag_286\n          jump\t// in\n        tag_487:\n            /* \"#utility.yul\":18560:18565   */\n          dup3\n            /* \"#utility.yul\":18587:18627   */\n          tag_488\n            /* \"#utility.yul\":18621:18626   */\n          dup5\n            /* \"#utility.yul\":18587:18627   */\n          tag_287\n          jump\t// in\n        tag_488:\n            /* \"#utility.yul\":18575:18627   */\n          swap1\n          pop\n            /* \"#utility.yul\":18646:18681   */\n          tag_489\n            /* \"#utility.yul\":18672:18680   */\n          dup2\n            /* \"#utility.yul\":18646:18681   */\n          tag_288\n          jump\t// in\n        tag_489:\n            /* \"#utility.yul\":18637:18681   */\n          swap3\n          pop\n            /* \"#utility.yul\":18705:18707   */\n          0x20\n            /* \"#utility.yul\":18697:18703   */\n          dup3\n            /* \"#utility.yul\":18694:18708   */\n          lt\n            /* \"#utility.yul\":18691:18969   */\n          iszero\n          tag_490\n          jumpi\n            /* \"#utility.yul\":18776:18945   */\n          tag_491\n            /* \"#utility.yul\":18861:18927   */\n          0xffffffffffffffffffffffffffffffffffffffffffffffffffffffffffffffff\n            /* \"#utility.yul\":18831:18837   */\n          dup4\n            /* \"#utility.yul\":18827:18829   */\n          0x20\n            /* \"#utility.yul\":18823:18838   */\n          sub\n            /* \"#utility.yul\":18820:18821   */\n          0x08\n            /* \"#utility.yul\":18816:18839   */\n          mul\n            /* \"#utility.yul\":18776:18945   */\n          tag_289\n          jump\t// in\n        tag_491:\n            /* \"#utility.yul\":18753:18758   */\n          dup4\n            /* \"#utility.yul\":18732:18959   */\n          and\n            /* \"#utility.yul\":18723:18959   */\n          swap3\n          pop\n            /* \"#utility.yul\":18691:18969   */\n        tag_490:\n            /* \"#utility.yul\":18472:18976   */\n          pop\n          pop\n            /* \"#utility.yul\":18382:18976   */\n          swap2\n          swap1\n          pop\n          jump\t// out\n            /* \"#utility.yul\":18982:19173   */\n        tag_147:\n            /* \"#utility.yul\":19022:19026   */\n          0x00\n            /* \"#utility.yul\":19042:19062   */\n          tag_493\n            /* \"#utility.yul\":19060:19061   */\n          dup3\n            /* \"#utility.yul\":19042:19062   */\n          tag_249\n          jump\t// in\n        tag_493:\n            /* \"#utility.yul\":19037:19062   */\n          swap2\n          pop\n            /* \"#utility.yul\":19076:19096   */\n          tag_494\n            /* \"#utility.yul\":19094:19095   */\n          dup4\n            /* \"#utility.yul\":19076:19096   */\n          tag_249\n          jump\t// in\n        tag_494:\n            /* \"#utility.yul\":19071:19096   */\n          swap3\n          pop\n            /* \"#utility.yul\":19115:19116   */\n          dup3\n            /* \"#utility.yul\":19112:19113   */\n          dup3\n            /* \"#utility.yul\":19109:19117   */\n          lt\n            /* \"#utility.yul\":19106:19140   */\n          iszero\n          tag_495\n          jumpi\n            /* \"#utility.yul\":19120:19138   */\n          tag_496\n          tag_278\n          jump\t// in\n        tag_496:\n            /* \"#utility.yul\":19106:19140   */\n        tag_495:\n            /* \"#utility.yul\":19165:19166   */\n          dup3\n            /* \"#utility.yul\":19162:19163   */\n          dup3\n            /* \"#utility.yul\":19158:19167   */\n          sub\n            /* \"#utility.yul\":19150:19167   */\n          swap1\n          pop\n            /* \"#utility.yul\":18982:19173   */\n          swap3\n          swap2\n          pop\n          pop\n          jump\t// out\n            /* \"#utility.yul\":19179:19258   */\n        tag_290:\n            /* \"#utility.yul\":19218:19225   */\n          0x00\n            /* \"#utility.yul\":19247:19252   */\n          dup2\n            /* \"#utility.yul\":19236:19252   */\n          swap1\n          pop\n            /* \"#utility.yul\":19179:19258   */\n          swap2\n          swap1\n          pop\n          jump\t// out\n            /* \"#utility.yul\":19264:19421   */\n        tag_291:\n            /* \"#utility.yul\":19369:19414   */\n          tag_499\n            /* \"#utility.yul\":19389:19413   */\n          tag_500\n            /* \"#utility.yul\":19407:19412   */\n          dup3\n            /* \"#utility.yul\":19389:19413   */\n          tag_258\n          jump\t// in\n        tag_500:\n            /* \"#utility.yul\":19369:19414   */\n          tag_290\n          jump\t// in\n        tag_499:\n            /* \"#utility.yul\":19364:19367   */\n          dup3\n            /* \"#utility.yul\":19357:19415   */\n          mstore\n            /* \"#utility.yul\":19264:19421   */\n          pop\n          pop\n          jump\t// out\n            /* \"#utility.yul\":19427:19683   */\n        tag_152:\n            /* \"#utility.yul\":19539:19542   */\n          0x00\n            /* \"#utility.yul\":19554:19629   */\n          tag_502\n            /* \"#utility.yul\":19625:19628   */\n          dup3\n            /* \"#utility.yul\":19616:19622   */\n          dup5\n            /* \"#utility.yul\":19554:19629   */\n          tag_291\n          jump\t// in\n        tag_502:\n            /* \"#utility.yul\":19654:19656   */\n          0x20\n            /* \"#utility.yul\":19649:19652   */\n          dup3\n            /* \"#utility.yul\":19645:19657   */\n          add\n            /* \"#utility.yul\":19638:19657   */\n          swap2\n          pop\n            /* \"#utility.yul\":19674:19677   */\n          dup2\n            /* \"#utility.yul\":19667:19677   */\n          swap1\n          pop\n            /* \"#utility.yul\":19427:19683   */\n          swap3\n          swap2\n          pop\n          pop\n          jump\t// out\n            /* \"#utility.yul\":19689:19836   */\n        tag_292:\n            /* \"#utility.yul\":19790:19801   */\n          0x00\n            /* \"#utility.yul\":19827:19830   */\n          dup2\n            /* \"#utility.yul\":19812:19830   */\n          swap1\n          pop\n            /* \"#utility.yul\":19689:19836   */\n          swap3\n          swap2\n          pop\n          pop\n          jump\t// out\n            /* \"#utility.yul\":19842:20215   */\n        tag_293:\n            /* \"#utility.yul\":19946:19949   */\n          0x00\n            /* \"#utility.yul\":19974:20012   */\n          tag_505\n            /* \"#utility.yul\":20006:20011   */\n          dup3\n            /* \"#utility.yul\":19974:20012   */\n          tag_286\n          jump\t// in\n        tag_505:\n            /* \"#utility.yul\":20028:20116   */\n          tag_506\n            /* \"#utility.yul\":20109:20115   */\n          dup2\n            /* \"#utility.yul\":20104:20107   */\n          dup6\n            /* \"#utility.yul\":20028:20116   */\n          tag_292\n          jump\t// in\n        tag_506:\n            /* \"#utility.yul\":20021:20116   */\n          swap4\n          pop\n            /* \"#utility.yul\":20125:20177   */\n          tag_507\n            /* \"#utility.yul\":20170:20176   */\n          dup2\n            /* \"#utility.yul\":20165:20168   */\n          dup6\n            /* \"#utility.yul\":20158:20162   */\n          0x20\n            /* \"#utility.yul\":20151:20156   */\n          dup7\n            /* \"#utility.yul\":20147:20163   */\n          add\n            /* \"#utility.yul\":20125:20177   */\n          tag_243\n          jump\t// in\n        tag_507:\n            /* \"#utility.yul\":20202:20208   */\n          dup1\n            /* \"#utility.yul\":20197:20200   */\n          dup5\n            /* \"#utility.yul\":20193:20209   */\n          add\n            /* \"#utility.yul\":20186:20209   */\n          swap2\n          pop\n            /* \"#utility.yul\":19950:20215   */\n          pop\n            /* \"#utility.yul\":19842:20215   */\n          swap3\n          swap2\n          pop\n          pop\n          jump\t// out\n            /* \"#utility.yul\":20221:20492   */\n        tag_154:\n            /* \"#utility.yul\":20351:20354   */\n          0x00\n            /* \"#utility.yul\":20373:20466   */\n          tag_509\n            /* \"#utility.yul\":20462:20465   */\n          dup3\n            /* \"#utility.yul\":20453:20459   */\n          dup5\n            /* \"#utility.yul\":20373:20466   */\n          tag_293\n          jump\t// in\n        tag_509:\n            /* \"#utility.yul\":20366:20466   */\n          swap2\n          pop\n            /* \"#utility.yul\":20483:20486   */\n          dup2\n            /* \"#utility.yul\":20476:20486   */\n          swap1\n          pop\n            /* \"#utility.yul\":20221:20492   */\n          swap3\n          swap2\n          pop\n          pop\n          jump\t// out\n            /* \"#utility.yul\":20498:20641   */\n        tag_294:\n            /* \"#utility.yul\":20555:20560   */\n          0x00\n            /* \"#utility.yul\":20586:20592   */\n          dup2\n            /* \"#utility.yul\":20580:20593   */\n          mload\n            /* \"#utility.yul\":20571:20593   */\n          swap1\n          pop\n            /* \"#utility.yul\":20602:20635   */\n          tag_511\n            /* \"#utility.yul\":20629:20634   */\n          dup2\n            /* \"#utility.yul\":20602:20635   */\n          tag_259\n          jump\t// in\n        tag_511:\n            /* \"#utility.yul\":20498:20641   */\n          swap3\n          swap2\n          pop\n          pop\n          jump\t// out\n            /* \"#utility.yul\":20647:20998   */\n        tag_158:\n            /* \"#utility.yul\":20717:20723   */\n          0x00\n            /* \"#utility.yul\":20766:20768   */\n          0x20\n            /* \"#utility.yul\":20754:20763   */\n          dup3\n            /* \"#utility.yul\":20745:20752   */\n          dup5\n            /* \"#utility.yul\":20741:20764   */\n          sub\n            /* \"#utility.yul\":20737:20769   */\n          slt\n            /* \"#utility.yul\":20734:20853   */\n          iszero\n          tag_513\n          jumpi\n            /* \"#utility.yul\":20772:20851   */\n          tag_514\n          tag_252\n          jump\t// in\n        tag_514:\n            /* \"#utility.yul\":20734:20853   */\n        tag_513:\n            /* \"#utility.yul\":20892:20893   */\n          0x00\n            /* \"#utility.yul\":20917:20981   */\n          tag_515\n            /* \"#utility.yul\":20973:20980   */\n          dup5\n            /* \"#utility.yul\":20964:20970   */\n          dup3\n            /* \"#utility.yul\":20953:20962   */\n          dup6\n            /* \"#utility.yul\":20949:20971   */\n          add\n            /* \"#utility.yul\":20917:20981   */\n          tag_294\n          jump\t// in\n        tag_515:\n            /* \"#utility.yul\":20907:20981   */\n          swap2\n          pop\n            /* \"#utility.yul\":20863:20991   */\n          pop\n            /* \"#utility.yul\":20647:20998   */\n          swap3\n          swap2\n          pop\n          pop\n          jump\t// out\n            /* \"#utility.yul\":21004:21175   */\n        tag_165:\n            /* \"#utility.yul\":21043:21046   */\n          0x00\n            /* \"#utility.yul\":21066:21090   */\n          tag_517\n            /* \"#utility.yul\":21084:21089   */\n          dup3\n            /* \"#utility.yul\":21066:21090   */\n          tag_249\n          jump\t// in\n        tag_517:\n            /* \"#utility.yul\":21057:21090   */\n          swap2\n          pop\n            /* \"#utility.yul\":21112:21116   */\n          0x00\n            /* \"#utility.yul\":21105:21110   */\n          dup3\n            /* \"#utility.yul\":21102:21117   */\n          eq\n            /* \"#utility.yul\":21099:21140   */\n          iszero\n          tag_518\n          jumpi\n            /* \"#utility.yul\":21120:21138   */\n          tag_519\n          tag_278\n          jump\t// in\n        tag_519:\n            /* \"#utility.yul\":21099:21140   */\n        tag_518:\n            /* \"#utility.yul\":21167:21168   */\n          0x01\n            /* \"#utility.yul\":21160:21165   */\n          dup3\n            /* \"#utility.yul\":21156:21169   */\n          sub\n            /* \"#utility.yul\":21149:21169   */\n          swap1\n          pop\n            /* \"#utility.yul\":21004:21175   */\n          swap2\n          swap1\n          pop\n          jump\t// out\n            /* \"#utility.yul\":21181:21348   */\n        tag_295:\n            /* \"#utility.yul\":21321:21340   */\n          0x575f6b6d20697320696e636f7272656374000000000000000000000000000000\n            /* \"#utility.yul\":21317:21318   */\n          0x00\n            /* \"#utility.yul\":21309:21315   */\n          dup3\n            /* \"#utility.yul\":21305:21319   */\n          add\n            /* \"#utility.yul\":21298:21341   */\n          mstore\n            /* \"#utility.yul\":21181:21348   */\n          pop\n          jump\t// out\n            /* \"#utility.yul\":21354:21720   */\n        tag_296:\n            /* \"#utility.yul\":21496:21499   */\n          0x00\n            /* \"#utility.yul\":21517:21584   */\n          tag_522\n            /* \"#utility.yul\":21581:21583   */\n          0x11\n            /* \"#utility.yul\":21576:21579   */\n          dup4\n            /* \"#utility.yul\":21517:21584   */\n          tag_242\n          jump\t// in\n        tag_522:\n            /* \"#utility.yul\":21510:21584   */\n          swap2\n          pop\n            /* \"#utility.yul\":21593:21686   */\n          tag_523\n            /* \"#utility.yul\":21682:21685   */\n          dup3\n            /* \"#utility.yul\":21593:21686   */\n          tag_295\n          jump\t// in\n        tag_523:\n            /* \"#utility.yul\":21711:21713   */\n          0x20\n            /* \"#utility.yul\":21706:21709   */\n          dup3\n            /* \"#utility.yul\":21702:21714   */\n          add\n            /* \"#utility.yul\":21695:21714   */\n          swap1\n          pop\n            /* \"#utility.yul\":21354:21720   */\n          swap2\n          swap1\n          pop\n          jump\t// out\n            /* \"#utility.yul\":21726:22145   */\n        tag_168:\n            /* \"#utility.yul\":21892:21896   */\n          0x00\n            /* \"#utility.yul\":21930:21932   */\n          0x20\n            /* \"#utility.yul\":21919:21928   */\n          dup3\n            /* \"#utility.yul\":21915:21933   */\n          add\n            /* \"#utility.yul\":21907:21933   */\n          swap1\n          pop\n            /* \"#utility.yul\":21979:21988   */\n          dup2\n            /* \"#utility.yul\":21973:21977   */\n          dup2\n            /* \"#utility.yul\":21969:21989   */\n          sub\n            /* \"#utility.yul\":21965:21966   */\n          0x00\n            /* \"#utility.yul\":21954:21963   */\n          dup4\n            /* \"#utility.yul\":21950:21967   */\n          add\n            /* \"#utility.yul\":21943:21990   */\n          mstore\n            /* \"#utility.yul\":22007:22138   */\n          tag_525\n            /* \"#utility.yul\":22133:22137   */\n          dup2\n            /* \"#utility.yul\":22007:22138   */\n          tag_296\n          jump\t// in\n        tag_525:\n            /* \"#utility.yul\":21999:22138   */\n          swap1\n          pop\n            /* \"#utility.yul\":21726:22145   */\n          swap2\n          swap1\n          pop\n          jump\t// out\n            /* \"#utility.yul\":22151:22318   */\n        tag_297:\n            /* \"#utility.yul\":22291:22310   */\n          0x575f6b6320697320696e636f7272656374000000000000000000000000000000\n            /* \"#utility.yul\":22287:22288   */\n          0x00\n            /* \"#utility.yul\":22279:22285   */\n          dup3\n            /* \"#utility.yul\":22275:22289   */\n          add\n            /* \"#utility.yul\":22268:22311   */\n          mstore\n            /* \"#utility.yul\":22151:22318   */\n          pop\n          jump\t// out\n            /* \"#utility.yul\":22324:22690   */\n        tag_298:\n            /* \"#utility.yul\":22466:22469   */\n          0x00\n            /* \"#utility.yul\":22487:22554   */\n          tag_528\n            /* \"#utility.yul\":22551:22553   */\n          0x11\n            /* \"#utility.yul\":22546:22549   */\n          dup4\n            /* \"#utility.yul\":22487:22554   */\n          tag_242\n          jump\t// in\n        tag_528:\n            /* \"#utility.yul\":22480:22554   */\n          swap2\n          pop\n            /* \"#utility.yul\":22563:22656   */\n          tag_529\n            /* \"#utility.yul\":22652:22655   */\n          dup3\n            /* \"#utility.yul\":22563:22656   */\n          tag_297\n          jump\t// in\n        tag_529:\n            /* \"#utility.yul\":22681:22683   */\n          0x20\n            /* \"#utility.yul\":22676:22679   */\n          dup3\n            /* \"#utility.yul\":22672:22684   */\n          add\n            /* \"#utility.yul\":22665:22684   */\n          swap1\n          pop\n            /* \"#utility.yul\":22324:22690   */\n          swap2\n          swap1\n          pop\n          jump\t// out\n            /* \"#utility.yul\":22696:23115   */\n        tag_171:\n            /* \"#utility.yul\":22862:22866   */\n          0x00\n            /* \"#utility.yul\":22900:22902   */\n          0x20\n            /* \"#utility.yul\":22889:22898   */\n          dup3\n            /* \"#utility.yul\":22885:22903   */\n          add\n            /* \"#utility.yul\":22877:22903   */\n          swap1\n          pop\n            /* \"#utility.yul\":22949:22958   */\n          dup2\n            /* \"#utility.yul\":22943:22947   */\n          dup2\n            /* \"#utility.yul\":22939:22959   */\n          sub\n            /* \"#utility.yul\":22935:22936   */\n          0x00\n            /* \"#utility.yul\":22924:22933   */\n          dup4\n            /* \"#utility.yul\":22920:22937   */\n          add\n            /* \"#utility.yul\":22913:22960   */\n          mstore\n            /* \"#utility.yul\":22977:23108   */\n          tag_531\n            /* \"#utility.yul\":23103:23107   */\n          dup2\n            /* \"#utility.yul\":22977:23108   */\n          tag_298\n          jump\t// in\n        tag_531:\n            /* \"#utility.yul\":22969:23108   */\n          swap1\n          pop\n            /* \"#utility.yul\":22696:23115   */\n          swap2\n          swap1\n          pop\n          jump\t// out\n            /* \"#utility.yul\":23121:23301   */\n        tag_299:\n            /* \"#utility.yul\":23169:23246   */\n          0x4e487b7100000000000000000000000000000000000000000000000000000000\n            /* \"#utility.yul\":23166:23167   */\n          0x00\n            /* \"#utility.yul\":23159:23247   */\n          mstore\n            /* \"#utility.yul\":23266:23270   */\n          0x12\n            /* \"#utility.yul\":23263:23264   */\n          0x04\n            /* \"#utility.yul\":23256:23271   */\n          mstore\n            /* \"#utility.yul\":23290:23294   */\n          0x24\n            /* \"#utility.yul\":23287:23288   */\n          0x00\n            /* \"#utility.yul\":23280:23295   */\n          revert\n            /* \"#utility.yul\":23307:23483   */\n        tag_173:\n            /* \"#utility.yul\":23339:23340   */\n          0x00\n            /* \"#utility.yul\":23356:23376   */\n          tag_534\n            /* \"#utility.yul\":23374:23375   */\n          dup3\n            /* \"#utility.yul\":23356:23376   */\n          tag_249\n          jump\t// in\n        tag_534:\n            /* \"#utility.yul\":23351:23376   */\n          swap2\n          pop\n            /* \"#utility.yul\":23390:23410   */\n          tag_535\n            /* \"#utility.yul\":23408:23409   */\n          dup4\n            /* \"#utility.yul\":23390:23410   */\n          tag_249\n          jump\t// in\n        tag_535:\n            /* \"#utility.yul\":23385:23410   */\n          swap3\n          pop\n            /* \"#utility.yul\":23429:23430   */\n          dup3\n            /* \"#utility.yul\":23419:23454   */\n          tag_536\n          jumpi\n            /* \"#utility.yul\":23434:23452   */\n          tag_537\n          tag_299\n          jump\t// in\n        tag_537:\n            /* \"#utility.yul\":23419:23454   */\n        tag_536:\n            /* \"#utility.yul\":23475:23476   */\n          dup3\n            /* \"#utility.yul\":23472:23473   */\n          dup3\n            /* \"#utility.yul\":23468:23477   */\n          mod\n            /* \"#utility.yul\":23463:23477   */\n          swap1\n          pop\n            /* \"#utility.yul\":23307:23483   */\n          swap3\n          swap2\n          pop\n          pop\n          jump\t// out\n            /* \"#utility.yul\":23489:23674   */\n        tag_177:\n            /* \"#utility.yul\":23529:23530   */\n          0x00\n            /* \"#utility.yul\":23546:23566   */\n          tag_539\n            /* \"#utility.yul\":23564:23565   */\n          dup3\n            /* \"#utility.yul\":23546:23566   */\n          tag_249\n          jump\t// in\n        tag_539:\n            /* \"#utility.yul\":23541:23566   */\n          swap2\n          pop\n            /* \"#utility.yul\":23580:23600   */\n          tag_540\n            /* \"#utility.yul\":23598:23599   */\n          dup4\n            /* \"#utility.yul\":23580:23600   */\n          tag_249\n          jump\t// in\n        tag_540:\n            /* \"#utility.yul\":23575:23600   */\n          swap3\n          pop\n            /* \"#utility.yul\":23619:23620   */\n          dup3\n            /* \"#utility.yul\":23609:23644   */\n          tag_541\n          jumpi\n            /* \"#utility.yul\":23624:23642   */\n          tag_542\n          tag_299\n          jump\t// in\n        tag_542:\n            /* \"#utility.yul\":23609:23644   */\n        tag_541:\n            /* \"#utility.yul\":23666:23667   */\n          dup3\n            /* \"#utility.yul\":23663:23664   */\n          dup3\n            /* \"#utility.yul\":23659:23668   */\n          div\n            /* \"#utility.yul\":23654:23668   */\n          swap1\n          pop\n            /* \"#utility.yul\":23489:23674   */\n          swap3\n          swap2\n          pop\n          pop\n          jump\t// out\n            /* \"#utility.yul\":23680:23794   */\n        tag_300:\n          pop\n          jump\t// out\n            /* \"#utility.yul\":23800:24198   */\n        tag_301:\n            /* \"#utility.yul\":23959:23962   */\n          0x00\n            /* \"#utility.yul\":23980:24063   */\n          tag_545\n            /* \"#utility.yul\":24061:24062   */\n          0x00\n            /* \"#utility.yul\":24056:24059   */\n          dup4\n            /* \"#utility.yul\":23980:24063   */\n          tag_292\n          jump\t// in\n        tag_545:\n            /* \"#utility.yul\":23973:24063   */\n          swap2\n          pop\n            /* \"#utility.yul\":24072:24165   */\n          tag_546\n            /* \"#utility.yul\":24161:24164   */\n          dup3\n            /* \"#utility.yul\":24072:24165   */\n          tag_300\n          jump\t// in\n        tag_546:\n            /* \"#utility.yul\":24190:24191   */\n          0x00\n            /* \"#utility.yul\":24185:24188   */\n          dup3\n            /* \"#utility.yul\":24181:24192   */\n          add\n            /* \"#utility.yul\":24174:24192   */\n          swap1\n          pop\n            /* \"#utility.yul\":23800:24198   */\n          swap2\n          swap1\n          pop\n          jump\t// out\n            /* \"#utility.yul\":24204:24583   */\n        tag_206:\n            /* \"#utility.yul\":24388:24391   */\n          0x00\n            /* \"#utility.yul\":24410:24557   */\n          tag_548\n            /* \"#utility.yul\":24553:24556   */\n          dup3\n            /* \"#utility.yul\":24410:24557   */\n          tag_301\n          jump\t// in\n        tag_548:\n            /* \"#utility.yul\":24403:24557   */\n          swap2\n          pop\n            /* \"#utility.yul\":24574:24577   */\n          dup2\n            /* \"#utility.yul\":24567:24577   */\n          swap1\n          pop\n            /* \"#utility.yul\":24204:24583   */\n          swap2\n          swap1\n          pop\n          jump\t// out\n\n        auxdata: 0xa264697066735822122090ff234ac3818c3b1e5e7a6a48963f784f91a44b1e37eb2d4efc32964527d77964736f6c63430008090033\n    }\n}\n",
    "bytecode": {
      "linkReferences": {},
      "object": "60a060405234801561001057600080fd5b5060405161001d90610072565b604051809103906000f080158015610039573d6000803e3d6000fd5b5073ffffffffffffffffffffffffffffffffffffffff1660808173ffffffffffffffffffffffffffffffffffffffff168152505061007f565b611cf580610fc583390190565b608051610f246100a16000396000818161029c01526104640152610f246000f3fe60806040526004361061007b5760003560e01c8063b21bef4d1161004e578063b21bef4d14610148578063e156b0d014610185578063e5949b5d146101c2578063e6359779146101ff5761007b565b8063502512cb14610080578063662f2e9d146100ab5780637443599a146100e857806377b6198f14610118575b600080fd5b34801561008c57600080fd5b5061009561023c565b6040516100a29190610836565b60405180910390f35b3480156100b757600080fd5b506100d260048036038101906100cd91906108c3565b610249565b6040516100df9190610836565b60405180910390f35b61010260048036038101906100fd9190610a98565b610294565b60405161010f9190610b8b565b60405180910390f35b610132600480360381019061012d9190610ba6565b61045c565b60405161013f9190610b8b565b60405180910390f35b34801561015457600080fd5b5061016f600480360381019061016a9190610be6565b610612565b60405161017c9190610c35565b60405180910390f35b34801561019157600080fd5b506101ac60048036038101906101a791906108c3565b610660565b6040516101b99190610d0e565b60405180910390f35b3480156101ce57600080fd5b506101e960048036038101906101e49190610d30565b61072c565b6040516101f69190610c35565b60405180910390f35b34801561020b57600080fd5b5061022660048036038101906102219190610d30565b61076b565b6040516102339190610c35565b60405180910390f35b6000600180549050905090565b60008060008373ffffffffffffffffffffffffffffffffffffffff1673ffffffffffffffffffffffffffffffffffffffff168152602001908152602001600020805490509050919050565b6000806102c07f00000000000000000000000000000000000000000000000000000000000000006107b3565b9050600081905060008190508073ffffffffffffffffffffffffffffffffffffffff166350b1ad6b348e8e338f8f8f8f8f8f6040518b63ffffffff1660e01b815260040161031699989796959493929190610df4565b6000604051808303818588803b15801561032f57600080fd5b505af1158015610343573d6000803e3d6000fd5b50505050506001839080600181540180825580915050600190039060005260206000200160009091909190916101000a81548173ffffffffffffffffffffffffffffffffffffffff021916908373ffffffffffffffffffffffffffffffffffffffff1602179055506000803373ffffffffffffffffffffffffffffffffffffffff1673ffffffffffffffffffffffffffffffffffffffff168152602001908152602001600020839080600181540180825580915050600190039060005260206000200160009091909190916101000a81548173ffffffffffffffffffffffffffffffffffffffff021916908373ffffffffffffffffffffffffffffffffffffffff16021790555081935050505098975050505050505050565b6000806104887f00000000000000000000000000000000000000000000000000000000000000006107b3565b9050600081905060008190508073ffffffffffffffffffffffffffffffffffffffff1663a6ab36f2348888336040518563ffffffff1660e01b81526004016104d293929190610e88565b6000604051808303818588803b1580156104eb57600080fd5b505af11580156104ff573d6000803e3d6000fd5b50505050506001839080600181540180825580915050600190039060005260206000200160009091909190916101000a81548173ffffffffffffffffffffffffffffffffffffffff021916908373ffffffffffffffffffffffffffffffffffffffff1602179055506000803373ffffffffffffffffffffffffffffffffffffffff1673ffffffffffffffffffffffffffffffffffffffff168152602001908152602001600020839080600181540180825580915050600190039060005260206000200160009091909190916101000a81548173ffffffffffffffffffffffffffffffffffffffff021916908373ffffffffffffffffffffffffffffffffffffffff16021790555081935050505092915050565b6000602052816000526040600020818154811061062e57600080fd5b906000526020600020016000915091509054906101000a900473ffffffffffffffffffffffffffffffffffffffff1681565b60606000808373ffffffffffffffffffffffffffffffffffffffff1673ffffffffffffffffffffffffffffffffffffffff16815260200190815260200160002080548060200260200160405190810160405280929190818152602001828054801561072057602002820191906000526020600020905b8160009054906101000a900473ffffffffffffffffffffffffffffffffffffffff1673ffffffffffffffffffffffffffffffffffffffff16815260200190600101908083116106d6575b50505050509050919050565b6001818154811061073c57600080fd5b906000526020600020016000915054906101000a900473ffffffffffffffffffffffffffffffffffffffff1681565b60006001828154811061078157610780610ebf565b5b9060005260206000200160009054906101000a900473ffffffffffffffffffffffffffffffffffffffff169050919050565b6000808260601b90506040517f3d602d80600a3d3981f3363d3d373d3d3d363d7300000000000000000000000081528160148201527f5af43d82803e903d91602b57fd5bf3000000000000000000000000000000000060288201526037816000f092505050919050565b6000819050919050565b6108308161081d565b82525050565b600060208201905061084b6000830184610827565b92915050565b6000604051905090565b600080fd5b600080fd5b600073ffffffffffffffffffffffffffffffffffffffff82169050919050565b600061089082610865565b9050919050565b6108a081610885565b81146108ab57600080fd5b50565b6000813590506108bd81610897565b92915050565b6000602082840312156108d9576108d861085b565b5b60006108e7848285016108ae565b91505092915050565b6108f98161081d565b811461090457600080fd5b50565b600081359050610916816108f0565b92915050565b6000819050919050565b61092f8161091c565b811461093a57600080fd5b50565b60008135905061094c81610926565b92915050565b600080fd5b600080fd5b6000601f19601f8301169050919050565b7f4e487b7100000000000000000000000000000000000000000000000000000000600052604160045260246000fd5b6109a58261095c565b810181811067ffffffffffffffff821117156109c4576109c361096d565b5b80604052505050565b60006109d7610851565b90506109e3828261099c565b919050565b600067ffffffffffffffff821115610a0357610a0261096d565b5b610a0c8261095c565b9050602081019050919050565b82818337600083830152505050565b6000610a3b610a36846109e8565b6109cd565b905082815260208101848484011115610a5757610a56610957565b5b610a62848285610a19565b509392505050565b600082601f830112610a7f57610a7e610952565b5b8135610a8f848260208601610a28565b91505092915050565b600080600080600080600080610100898b031215610ab957610ab861085b565b5b6000610ac78b828c01610907565b9850506020610ad88b828c01610907565b9750506040610ae98b828c0161093d565b9650506060610afa8b828c0161093d565b955050608089013567ffffffffffffffff811115610b1b57610b1a610860565b5b610b278b828c01610a6a565b94505060a0610b388b828c01610907565b93505060c0610b498b828c01610907565b92505060e0610b5a8b828c01610907565b9150509295985092959890939650565b6000610b7582610865565b9050919050565b610b8581610b6a565b82525050565b6000602082019050610ba06000830184610b7c565b92915050565b60008060408385031215610bbd57610bbc61085b565b5b6000610bcb85828601610907565b9250506020610bdc85828601610907565b9150509250929050565b60008060408385031215610bfd57610bfc61085b565b5b6000610c0b858286016108ae565b9250506020610c1c85828601610907565b9150509250929050565b610c2f81610885565b82525050565b6000602082019050610c4a6000830184610c26565b92915050565b600081519050919050565b600082825260208201905092915050565b6000819050602082019050919050565b610c8581610885565b82525050565b6000610c978383610c7c565b60208301905092915050565b6000602082019050919050565b6000610cbb82610c50565b610cc58185610c5b565b9350610cd083610c6c565b8060005b83811015610d01578151610ce88882610c8b565b9750610cf383610ca3565b925050600181019050610cd4565b5085935050505092915050565b60006020820190508181036000830152610d288184610cb0565b905092915050565b600060208284031215610d4657610d4561085b565b5b6000610d5484828501610907565b91505092915050565b610d668161091c565b82525050565b600081519050919050565b600082825260208201905092915050565b60005b83811015610da6578082015181840152602081019050610d8b565b83811115610db5576000848401525b50505050565b6000610dc682610d6c565b610dd08185610d77565b9350610de0818560208601610d88565b610de98161095c565b840191505092915050565b600061012082019050610e0a600083018c610827565b610e17602083018b610827565b610e24604083018a610c26565b610e316060830189610d5d565b610e3e6080830188610d5d565b81810360a0830152610e508187610dbb565b9050610e5f60c0830186610827565b610e6c60e0830185610827565b610e7a610100830184610827565b9a9950505050505050505050565b6000606082019050610e9d6000830186610827565b610eaa6020830185610827565b610eb76040830184610c26565b949350505050565b7f4e487b7100000000000000000000000000000000000000000000000000000000600052603260045260246000fdfea264697066735822122071e3ef3dc52e2ac85c14e15f02254b7bc77801385cc88775eeef2945106ab12364736f6c63430008090033608060405234801561001057600080fd5b506001600a60006101000a81548160ff021916908315150217905550611cba8061003b6000396000f3fe6080604052600436106100f75760003560e01c806388bf19301161008a578063c3da42b811610059578063c3da42b8146102c5578063d8befbb6146102f0578063e8de68cc14610319578063f493e87014610342576100fe565b806388bf1930146102285780639c21a9b814610253578063a6ab36f21461027e578063b582ec5f1461029a576100fe565b806350b1ad6b116100c657806350b1ad6b1461018b5780635e650318146101a75780637c2efcba146101d25780637f80069a146101fd576100fe565b80630482ff7614610100578063247634931461010a5780632804b2c01461013557806334133df914610160576100fe565b366100fe57005b005b61010861036d565b005b34801561011657600080fd5b5061011f610467565b60405161012c9190610fc3565b60405180910390f35b34801561014157600080fd5b5061014a6104f5565b6040516101579190611026565b60405180910390f35b34801561016c57600080fd5b5061017561051b565b604051610182919061105a565b60405180910390f35b6101a560048036038101906101a0919061124c565b610521565b005b3480156101b357600080fd5b506101bc6106bc565b6040516101c99190611341565b60405180910390f35b3480156101de57600080fd5b506101e76106c2565b6040516101f4919061105a565b60405180910390f35b34801561020957600080fd5b506102126106c8565b60405161021f9190611377565b60405180910390f35b34801561023457600080fd5b5061023d6106db565b60405161024a9190611341565b60405180910390f35b34801561025f57600080fd5b506102686106e1565b604051610275919061105a565b60405180910390f35b61029860048036038101906102939190611392565b6106e7565b005b3480156102a657600080fd5b506102af6107b1565b6040516102bc919061105a565b60405180910390f35b3480156102d157600080fd5b506102da6107b7565b6040516102e7919061105a565b60405180910390f35b3480156102fc57600080fd5b5061031760048036038101906103129190611486565b6107bd565b005b34801561032557600080fd5b50610340600480360381019061033b9190611525565b610cfc565b005b34801561034e57600080fd5b50610357610e81565b604051610364919061105a565b60405180910390f35b600160009054906101000a900473ffffffffffffffffffffffffffffffffffffffff1673ffffffffffffffffffffffffffffffffffffffff163373ffffffffffffffffffffffffffffffffffffffff16146103fd576040517f08c379a00000000000000000000000000000000000000000000000000000000081526004016103f490611669565b60405180910390fd5b4260085460075461040e91906116b8565b1061044e576040517f08c379a00000000000000000000000000000000000000000000000000000000081526004016104459061175a565b60405180910390fd5b3373ffffffffffffffffffffffffffffffffffffffff16ff5b60048054610474906117a9565b80601f01602080910402602001604051908101604052809291908181526020018280546104a0906117a9565b80156104ed5780601f106104c2576101008083540402835291602001916104ed565b820191906000526020600020905b8154815290600101906020018083116104d057829003601f168201915b505050505081565b600160009054906101000a900473ffffffffffffffffffffffffffffffffffffffff1681565b60095481565b60001515600a60009054906101000a900460ff1615151461054157600080fd5b878961054d91906117db565b341461058e576040517f08c379a000000000000000000000000000000000000000000000000000000000815260040161058590611881565b60405180910390fd5b60006007541480156105a257506000600854145b80156105b057506000600954145b80156105ca5750426008546007546105c891906116b8565b105b8061060a5750426008546007546105e191906116b8565b10801561060957506009546008546007546105fc91906116b8565b61060691906116b8565b42105b5b61061357600080fd5b86600160006101000a81548173ffffffffffffffffffffffffffffffffffffffff021916908373ffffffffffffffffffffffffffffffffffffffff1602179055508860058190555087600681905550600080819055508560028190555084600381905550836004908051906020019061068d929190610e87565b508860058190555087600681905550826007819055508160088190555080600981905550505050505050505050565b60035481565b60065481565b600a60009054906101000a900460ff1681565b60025481565b60085481565b60001515600a60009054906101000a900460ff1615151461070757600080fd5b80600160006101000a81548173ffffffffffffffffffffffffffffffffffffffff021916908373ffffffffffffffffffffffffffffffffffffffff1602179055508260058190555081600681905550600034146107ac57818361076a91906117db565b34146107ab576040517f08c379a00000000000000000000000000000000000000000000000000000000081526004016107a290611881565b60405180910390fd5b5b505050565b60005481565b60055481565b6008546007546107cd91906116b8565b421061080e576040517f08c379a00000000000000000000000000000000000000000000000000000000081526004016108059061175a565b60405180910390fd5b6000548211610852576040517f08c379a0000000000000000000000000000000000000000000000000000000008152600401610849906118ed565b60405180910390fd5b6000808561085f9061194a565b905060008561086d9061194a565b9050600080548661087e91906119b1565b90505b6000811461097e5760028360405160200161089c9190611a06565b6040516020818303038152906040526040516108b89190611a5d565b602060405180830381855afa1580156108d5573d6000803e3d6000fd5b5050506040513d601f19601f820116820180604052508101906108f89190611a89565b925060028260405160200161090d9190611a06565b6040516020818303038152906040526040516109299190611a5d565b602060405180830381855afa158015610946573d6000803e3d6000fd5b5050506040513d601f19601f820116820180604052508101906109699190611a89565b9150808061097690611ab6565b915050610881565b82600254146109c2576040517f08c379a00000000000000000000000000000000000000000000000000000000081526004016109b990611b2c565b60405180910390fd5b8160035414610a06576040517f08c379a00000000000000000000000000000000000000000000000000000000081526004016109fd90611b98565b60405180910390fd5b6000600287610a159190611be7565b1415610a6357600260005487610a2b91906119b1565b610a359190611c18565b93508560008190555087610a489061194a565b60028190555086610a589061194a565b600381905550610bee565b6002600160005488610a7591906119b1565b610a7f91906119b1565b610a899190611c18565b9350600186610a9891906119b1565b600081905550600088610aaa9061194a565b9050600088610ab89061194a565b90506000805489610ac991906119b1565b90505b60008114610bc957600283604051602001610ae79190611a06565b604051602081830303815290604052604051610b039190611a5d565b602060405180830381855afa158015610b20573d6000803e3d6000fd5b5050506040513d601f19601f82011682018060405250810190610b439190611a89565b9250600282604051602001610b589190611a06565b604051602081830303815290604052604051610b749190611a5d565b602060405180830381855afa158015610b91573d6000803e3d6000fd5b5050506040513d601f19601f82011682018060405250810190610bb49190611a89565b91508080610bc190611ab6565b915050610acc565b600189610bd691906119b1565b60008190555082600281905550816003819055505050505b600073ffffffffffffffffffffffffffffffffffffffff168573ffffffffffffffffffffffffffffffffffffffff1614610c9d578473ffffffffffffffffffffffffffffffffffffffff1660065485610c4791906117db565b604051610c5390611c6f565b60006040518083038185875af1925050503d8060008114610c90576040519150601f19603f3d011682016040523d82523d6000602084013e610c95565b606091505b505050610cf2565b3373ffffffffffffffffffffffffffffffffffffffff166108fc60065486610cc591906117db565b9081150290604051600060405180830381858888f19350505050158015610cf0573d6000803e3d6000fd5b505b5050505050505050565b600160009054906101000a900473ffffffffffffffffffffffffffffffffffffffff1673ffffffffffffffffffffffffffffffffffffffff163373ffffffffffffffffffffffffffffffffffffffff1614610d8c576040517f08c379a0000000000000000000000000000000000000000000000000000000008152600401610d8390611669565b60405180910390fd5b8385610d9891906117db565b4714610da357600080fd5b6000600754148015610db757506000600854145b8015610dc557506000600954145b8015610ddf575042600854600754610ddd91906116b8565b105b80610e1f575042600854600754610df691906116b8565b108015610e1e5750600954600854600754610e1191906116b8565b610e1b91906116b8565b42105b5b610e2857600080fd5b6000808190555087600281905550866003819055508560049080519060200190610e53929190610e87565b5084600581905550836006819055508260078190555081600881905550806009819055505050505050505050565b60075481565b828054610e93906117a9565b90600052602060002090601f016020900481019282610eb55760008555610efc565b82601f10610ece57805160ff1916838001178555610efc565b82800160010185558215610efc579182015b82811115610efb578251825591602001919060010190610ee0565b5b509050610f099190610f0d565b5090565b5b80821115610f26576000816000905550600101610f0e565b5090565b600081519050919050565b600082825260208201905092915050565b60005b83811015610f64578082015181840152602081019050610f49565b83811115610f73576000848401525b50505050565b6000601f19601f8301169050919050565b6000610f9582610f2a565b610f9f8185610f35565b9350610faf818560208601610f46565b610fb881610f79565b840191505092915050565b60006020820190508181036000830152610fdd8184610f8a565b905092915050565b600073ffffffffffffffffffffffffffffffffffffffff82169050919050565b600061101082610fe5565b9050919050565b61102081611005565b82525050565b600060208201905061103b6000830184611017565b92915050565b6000819050919050565b61105481611041565b82525050565b600060208201905061106f600083018461104b565b92915050565b6000604051905090565b600080fd5b600080fd5b61109281611041565b811461109d57600080fd5b50565b6000813590506110af81611089565b92915050565b6110be81611005565b81146110c957600080fd5b50565b6000813590506110db816110b5565b92915050565b6000819050919050565b6110f4816110e1565b81146110ff57600080fd5b50565b600081359050611111816110eb565b92915050565b600080fd5b600080fd5b7f4e487b7100000000000000000000000000000000000000000000000000000000600052604160045260246000fd5b61115982610f79565b810181811067ffffffffffffffff8211171561117857611177611121565b5b80604052505050565b600061118b611075565b90506111978282611150565b919050565b600067ffffffffffffffff8211156111b7576111b6611121565b5b6111c082610f79565b9050602081019050919050565b82818337600083830152505050565b60006111ef6111ea8461119c565b611181565b90508281526020810184848401111561120b5761120a61111c565b5b6112168482856111cd565b509392505050565b600082601f83011261123357611232611117565b5b81356112438482602086016111dc565b91505092915050565b60008060008060008060008060006101208a8c03121561126f5761126e61107f565b5b600061127d8c828d016110a0565b995050602061128e8c828d016110a0565b985050604061129f8c828d016110cc565b97505060606112b08c828d01611102565b96505060806112c18c828d01611102565b95505060a08a013567ffffffffffffffff8111156112e2576112e1611084565b5b6112ee8c828d0161121e565b94505060c06112ff8c828d016110a0565b93505060e06113108c828d016110a0565b9250506101006113228c828d016110a0565b9150509295985092959850929598565b61133b816110e1565b82525050565b60006020820190506113566000830184611332565b92915050565b60008115159050919050565b6113718161135c565b82525050565b600060208201905061138c6000830184611368565b92915050565b6000806000606084860312156113ab576113aa61107f565b5b60006113b9868287016110a0565b93505060206113ca868287016110a0565b92505060406113db868287016110cc565b9150509250925092565b600067ffffffffffffffff821115611400576113ff611121565b5b61140982610f79565b9050602081019050919050565b6000611429611424846113e5565b611181565b9050828152602081018484840111156114455761144461111c565b5b6114508482856111cd565b509392505050565b600082601f83011261146d5761146c611117565b5b813561147d848260208601611416565b91505092915050565b600080600080608085870312156114a05761149f61107f565b5b600085013567ffffffffffffffff8111156114be576114bd611084565b5b6114ca87828801611458565b945050602085013567ffffffffffffffff8111156114eb576114ea611084565b5b6114f787828801611458565b9350506040611508878288016110a0565b9250506060611519878288016110cc565b91505092959194509250565b600080600080600080600080610100898b0312156115465761154561107f565b5b60006115548b828c01611102565b98505060206115658b828c01611102565b975050604089013567ffffffffffffffff81111561158657611585611084565b5b6115928b828c0161121e565b96505060606115a38b828c016110a0565b95505060806115b48b828c016110a0565b94505060a06115c58b828c016110a0565b93505060c06115d68b828c016110a0565b92505060e06115e78b828c016110a0565b9150509295985092959890939650565b7f4f6e6c7920637573746f6d6572206f66207468652064656c697665727920636160008201527f6e2073657420746865206368616e6e656c20706172616d732e00000000000000602082015250565b6000611653603983610f35565b915061165e826115f7565b604082019050919050565b6000602082019050818103600083015261168281611646565b9050919050565b7f4e487b7100000000000000000000000000000000000000000000000000000000600052601160045260246000fd5b60006116c382611041565b91506116ce83611041565b9250827fffffffffffffffffffffffffffffffffffffffffffffffffffffffffffffffff0382111561170357611702611689565b5b828201905092915050565b7f54696d65206572726f7200000000000000000000000000000000000000000000600082015250565b6000611744600a83610f35565b915061174f8261170e565b602082019050919050565b6000602082019050818103600083015261177381611737565b9050919050565b7f4e487b7100000000000000000000000000000000000000000000000000000000600052602260045260246000fd5b600060028204905060018216806117c157607f821691505b602082108114156117d5576117d461177a565b5b50919050565b60006117e682611041565b91506117f183611041565b9250817fffffffffffffffffffffffffffffffffffffffffffffffffffffffffffffffff048311821515161561182a57611829611689565b5b828202905092915050565b7f62616c616e6365206572726f7200000000000000000000000000000000000000600082015250565b600061186b600d83610f35565b915061187682611835565b602082019050919050565b6000602082019050818103600083015261189a8161185e565b9050919050565b7f6b203c3d206a0000000000000000000000000000000000000000000000000000600082015250565b60006118d7600683610f35565b91506118e2826118a1565b602082019050919050565b60006020820190508181036000830152611906816118ca565b9050919050565b600081519050919050565b6000819050602082019050919050565b600061193482516110e1565b80915050919050565b600082821b905092915050565b60006119558261190d565b8261195f84611918565b905061196a81611928565b925060208210156119aa576119a57fffffffffffffffffffffffffffffffffffffffffffffffffffffffffffffffff8360200360080261193d565b831692505b5050919050565b60006119bc82611041565b91506119c783611041565b9250828210156119da576119d9611689565b5b828203905092915050565b6000819050919050565b611a006119fb826110e1565b6119e5565b82525050565b6000611a1282846119ef565b60208201915081905092915050565b600081905092915050565b6000611a378261190d565b611a418185611a21565b9350611a51818560208601610f46565b80840191505092915050565b6000611a698284611a2c565b915081905092915050565b600081519050611a83816110eb565b92915050565b600060208284031215611a9f57611a9e61107f565b5b6000611aad84828501611a74565b91505092915050565b6000611ac182611041565b91506000821415611ad557611ad4611689565b5b600182039050919050565b7f575f6b6d20697320696e636f7272656374000000000000000000000000000000600082015250565b6000611b16601183610f35565b9150611b2182611ae0565b602082019050919050565b60006020820190508181036000830152611b4581611b09565b9050919050565b7f575f6b6320697320696e636f7272656374000000000000000000000000000000600082015250565b6000611b82601183610f35565b9150611b8d82611b4c565b602082019050919050565b60006020820190508181036000830152611bb181611b75565b9050919050565b7f4e487b7100000000000000000000000000000000000000000000000000000000600052601260045260246000fd5b6000611bf282611041565b9150611bfd83611041565b925082611c0d57611c0c611bb8565b5b828206905092915050565b6000611c2382611041565b9150611c2e83611041565b925082611c3e57611c3d611bb8565b5b828204905092915050565b50565b6000611c59600083611a21565b9150611c6482611c49565b600082019050919050565b6000611c7a82611c4c565b915081905091905056fea264697066735822122090ff234ac3818c3b1e5e7a6a48963f784f91a44b1e37eb2d4efc32964527d77964736f6c63430008090033",
      "opcodes": "PUSH1 0xA0 PUSH1 0x40 MSTORE CALLVALUE DUP1 ISZERO PUSH2 0x10 JUMPI PUSH1 0x0 DUP1 REVERT JUMPDEST POP PUSH1 0x40 MLOAD PUSH2 0x1D SWAP1 PUSH2 0x72 JUMP JUMPDEST PUSH1 0x40 MLOAD DUP1 SWAP2 SUB SWAP1 PUSH1 0x0 CREATE DUP1 ISZERO DUP1 ISZERO PUSH2 0x39 JUMPI RETURNDATASIZE PUSH1 0x0 DUP1 RETURNDATACOPY RETURNDATASIZE PUSH1 0x0 REVERT JUMPDEST POP PUSH20 0xFFFFFFFFFFFFFFFFFFFFFFFFFFFFFFFFFFFFFFFF AND PUSH1 0x80 DUP2 PUSH20 0xFFFFFFFFFFFFFFFFFFFFFFFFFFFFFFFFFFFFFFFF AND DUP2 MSTORE POP POP PUSH2 0x7F JUMP JUMPDEST PUSH2 0x1CF5 DUP1 PUSH2 0xFC5 DUP4 CODECOPY ADD SWAP1 JUMP JUMPDEST PUSH1 0x80 MLOAD PUSH2 0xF24 PUSH2 0xA1 PUSH1 0x0 CODECOPY PUSH1 0x0 DUP2 DUP2 PUSH2 0x29C ADD MSTORE PUSH2 0x464 ADD MSTORE PUSH2 0xF24 PUSH1 0x0 RETURN INVALID PUSH1 0x80 PUSH1 0x40 MSTORE PUSH1 0x4 CALLDATASIZE LT PUSH2 0x7B JUMPI PUSH1 0x0 CALLDATALOAD PUSH1 0xE0 SHR DUP1 PUSH4 0xB21BEF4D GT PUSH2 0x4E JUMPI DUP1 PUSH4 0xB21BEF4D EQ PUSH2 0x148 JUMPI DUP1 PUSH4 0xE156B0D0 EQ PUSH2 0x185 JUMPI DUP1 PUSH4 0xE5949B5D EQ PUSH2 0x1C2 JUMPI DUP1 PUSH4 0xE6359779 EQ PUSH2 0x1FF JUMPI PUSH2 0x7B JUMP JUMPDEST DUP1 PUSH4 0x502512CB EQ PUSH2 0x80 JUMPI DUP1 PUSH4 0x662F2E9D EQ PUSH2 0xAB JUMPI DUP1 PUSH4 0x7443599A EQ PUSH2 0xE8 JUMPI DUP1 PUSH4 0x77B6198F EQ PUSH2 0x118 JUMPI JUMPDEST PUSH1 0x0 DUP1 REVERT JUMPDEST CALLVALUE DUP1 ISZERO PUSH2 0x8C JUMPI PUSH1 0x0 DUP1 REVERT JUMPDEST POP PUSH2 0x95 PUSH2 0x23C JUMP JUMPDEST PUSH1 0x40 MLOAD PUSH2 0xA2 SWAP2 SWAP1 PUSH2 0x836 JUMP JUMPDEST PUSH1 0x40 MLOAD DUP1 SWAP2 SUB SWAP1 RETURN JUMPDEST CALLVALUE DUP1 ISZERO PUSH2 0xB7 JUMPI PUSH1 0x0 DUP1 REVERT JUMPDEST POP PUSH2 0xD2 PUSH1 0x4 DUP1 CALLDATASIZE SUB DUP2 ADD SWAP1 PUSH2 0xCD SWAP2 SWAP1 PUSH2 0x8C3 JUMP JUMPDEST PUSH2 0x249 JUMP JUMPDEST PUSH1 0x40 MLOAD PUSH2 0xDF SWAP2 SWAP1 PUSH2 0x836 JUMP JUMPDEST PUSH1 0x40 MLOAD DUP1 SWAP2 SUB SWAP1 RETURN JUMPDEST PUSH2 0x102 PUSH1 0x4 DUP1 CALLDATASIZE SUB DUP2 ADD SWAP1 PUSH2 0xFD SWAP2 SWAP1 PUSH2 0xA98 JUMP JUMPDEST PUSH2 0x294 JUMP JUMPDEST PUSH1 0x40 MLOAD PUSH2 0x10F SWAP2 SWAP1 PUSH2 0xB8B JUMP JUMPDEST PUSH1 0x40 MLOAD DUP1 SWAP2 SUB SWAP1 RETURN JUMPDEST PUSH2 0x132 PUSH1 0x4 DUP1 CALLDATASIZE SUB DUP2 ADD SWAP1 PUSH2 0x12D SWAP2 SWAP1 PUSH2 0xBA6 JUMP JUMPDEST PUSH2 0x45C JUMP JUMPDEST PUSH1 0x40 MLOAD PUSH2 0x13F SWAP2 SWAP1 PUSH2 0xB8B JUMP JUMPDEST PUSH1 0x40 MLOAD DUP1 SWAP2 SUB SWAP1 RETURN JUMPDEST CALLVALUE DUP1 ISZERO PUSH2 0x154 JUMPI PUSH1 0x0 DUP1 REVERT JUMPDEST POP PUSH2 0x16F PUSH1 0x4 DUP1 CALLDATASIZE SUB DUP2 ADD SWAP1 PUSH2 0x16A SWAP2 SWAP1 PUSH2 0xBE6 JUMP JUMPDEST PUSH2 0x612 JUMP JUMPDEST PUSH1 0x40 MLOAD PUSH2 0x17C SWAP2 SWAP1 PUSH2 0xC35 JUMP JUMPDEST PUSH1 0x40 MLOAD DUP1 SWAP2 SUB SWAP1 RETURN JUMPDEST CALLVALUE DUP1 ISZERO PUSH2 0x191 JUMPI PUSH1 0x0 DUP1 REVERT JUMPDEST POP PUSH2 0x1AC PUSH1 0x4 DUP1 CALLDATASIZE SUB DUP2 ADD SWAP1 PUSH2 0x1A7 SWAP2 SWAP1 PUSH2 0x8C3 JUMP JUMPDEST PUSH2 0x660 JUMP JUMPDEST PUSH1 0x40 MLOAD PUSH2 0x1B9 SWAP2 SWAP1 PUSH2 0xD0E JUMP JUMPDEST PUSH1 0x40 MLOAD DUP1 SWAP2 SUB SWAP1 RETURN JUMPDEST CALLVALUE DUP1 ISZERO PUSH2 0x1CE JUMPI PUSH1 0x0 DUP1 REVERT JUMPDEST POP PUSH2 0x1E9 PUSH1 0x4 DUP1 CALLDATASIZE SUB DUP2 ADD SWAP1 PUSH2 0x1E4 SWAP2 SWAP1 PUSH2 0xD30 JUMP JUMPDEST PUSH2 0x72C JUMP JUMPDEST PUSH1 0x40 MLOAD PUSH2 0x1F6 SWAP2 SWAP1 PUSH2 0xC35 JUMP JUMPDEST PUSH1 0x40 MLOAD DUP1 SWAP2 SUB SWAP1 RETURN JUMPDEST CALLVALUE DUP1 ISZERO PUSH2 0x20B JUMPI PUSH1 0x0 DUP1 REVERT JUMPDEST POP PUSH2 0x226 PUSH1 0x4 DUP1 CALLDATASIZE SUB DUP2 ADD SWAP1 PUSH2 0x221 SWAP2 SWAP1 PUSH2 0xD30 JUMP JUMPDEST PUSH2 0x76B JUMP JUMPDEST PUSH1 0x40 MLOAD PUSH2 0x233 SWAP2 SWAP1 PUSH2 0xC35 JUMP JUMPDEST PUSH1 0x40 MLOAD DUP1 SWAP2 SUB SWAP1 RETURN JUMPDEST PUSH1 0x0 PUSH1 0x1 DUP1 SLOAD SWAP1 POP SWAP1 POP SWAP1 JUMP JUMPDEST PUSH1 0x0 DUP1 PUSH1 0x0 DUP4 PUSH20 0xFFFFFFFFFFFFFFFFFFFFFFFFFFFFFFFFFFFFFFFF AND PUSH20 0xFFFFFFFFFFFFFFFFFFFFFFFFFFFFFFFFFFFFFFFF AND DUP2 MSTORE PUSH1 0x20 ADD SWAP1 DUP2 MSTORE PUSH1 0x20 ADD PUSH1 0x0 KECCAK256 DUP1 SLOAD SWAP1 POP SWAP1 POP SWAP2 SWAP1 POP JUMP JUMPDEST PUSH1 0x0 DUP1 PUSH2 0x2C0 PUSH32 0x0 PUSH2 0x7B3 JUMP JUMPDEST SWAP1 POP PUSH1 0x0 DUP2 SWAP1 POP PUSH1 0x0 DUP2 SWAP1 POP DUP1 PUSH20 0xFFFFFFFFFFFFFFFFFFFFFFFFFFFFFFFFFFFFFFFF AND PUSH4 0x50B1AD6B CALLVALUE DUP15 DUP15 CALLER DUP16 DUP16 DUP16 DUP16 DUP16 DUP16 PUSH1 0x40 MLOAD DUP12 PUSH4 0xFFFFFFFF AND PUSH1 0xE0 SHL DUP2 MSTORE PUSH1 0x4 ADD PUSH2 0x316 SWAP10 SWAP9 SWAP8 SWAP7 SWAP6 SWAP5 SWAP4 SWAP3 SWAP2 SWAP1 PUSH2 0xDF4 JUMP JUMPDEST PUSH1 0x0 PUSH1 0x40 MLOAD DUP1 DUP4 SUB DUP2 DUP6 DUP9 DUP1 EXTCODESIZE ISZERO DUP1 ISZERO PUSH2 0x32F JUMPI PUSH1 0x0 DUP1 REVERT JUMPDEST POP GAS CALL ISZERO DUP1 ISZERO PUSH2 0x343 JUMPI RETURNDATASIZE PUSH1 0x0 DUP1 RETURNDATACOPY RETURNDATASIZE PUSH1 0x0 REVERT JUMPDEST POP POP POP POP POP PUSH1 0x1 DUP4 SWAP1 DUP1 PUSH1 0x1 DUP2 SLOAD ADD DUP1 DUP3 SSTORE DUP1 SWAP2 POP POP PUSH1 0x1 SWAP1 SUB SWAP1 PUSH1 0x0 MSTORE PUSH1 0x20 PUSH1 0x0 KECCAK256 ADD PUSH1 0x0 SWAP1 SWAP2 SWAP1 SWAP2 SWAP1 SWAP2 PUSH2 0x100 EXP DUP2 SLOAD DUP2 PUSH20 0xFFFFFFFFFFFFFFFFFFFFFFFFFFFFFFFFFFFFFFFF MUL NOT AND SWAP1 DUP4 PUSH20 0xFFFFFFFFFFFFFFFFFFFFFFFFFFFFFFFFFFFFFFFF AND MUL OR SWAP1 SSTORE POP PUSH1 0x0 DUP1 CALLER PUSH20 0xFFFFFFFFFFFFFFFFFFFFFFFFFFFFFFFFFFFFFFFF AND PUSH20 0xFFFFFFFFFFFFFFFFFFFFFFFFFFFFFFFFFFFFFFFF AND DUP2 MSTORE PUSH1 0x20 ADD SWAP1 DUP2 MSTORE PUSH1 0x20 ADD PUSH1 0x0 KECCAK256 DUP4 SWAP1 DUP1 PUSH1 0x1 DUP2 SLOAD ADD DUP1 DUP3 SSTORE DUP1 SWAP2 POP POP PUSH1 0x1 SWAP1 SUB SWAP1 PUSH1 0x0 MSTORE PUSH1 0x20 PUSH1 0x0 KECCAK256 ADD PUSH1 0x0 SWAP1 SWAP2 SWAP1 SWAP2 SWAP1 SWAP2 PUSH2 0x100 EXP DUP2 SLOAD DUP2 PUSH20 0xFFFFFFFFFFFFFFFFFFFFFFFFFFFFFFFFFFFFFFFF MUL NOT AND SWAP1 DUP4 PUSH20 0xFFFFFFFFFFFFFFFFFFFFFFFFFFFFFFFFFFFFFFFF AND MUL OR SWAP1 SSTORE POP DUP2 SWAP4 POP POP POP POP SWAP9 SWAP8 POP POP POP POP POP POP POP POP JUMP JUMPDEST PUSH1 0x0 DUP1 PUSH2 0x488 PUSH32 0x0 PUSH2 0x7B3 JUMP JUMPDEST SWAP1 POP PUSH1 0x0 DUP2 SWAP1 POP PUSH1 0x0 DUP2 SWAP1 POP DUP1 PUSH20 0xFFFFFFFFFFFFFFFFFFFFFFFFFFFFFFFFFFFFFFFF AND PUSH4 0xA6AB36F2 CALLVALUE DUP9 DUP9 CALLER PUSH1 0x40 MLOAD DUP6 PUSH4 0xFFFFFFFF AND PUSH1 0xE0 SHL DUP2 MSTORE PUSH1 0x4 ADD PUSH2 0x4D2 SWAP4 SWAP3 SWAP2 SWAP1 PUSH2 0xE88 JUMP JUMPDEST PUSH1 0x0 PUSH1 0x40 MLOAD DUP1 DUP4 SUB DUP2 DUP6 DUP9 DUP1 EXTCODESIZE ISZERO DUP1 ISZERO PUSH2 0x4EB JUMPI PUSH1 0x0 DUP1 REVERT JUMPDEST POP GAS CALL ISZERO DUP1 ISZERO PUSH2 0x4FF JUMPI RETURNDATASIZE PUSH1 0x0 DUP1 RETURNDATACOPY RETURNDATASIZE PUSH1 0x0 REVERT JUMPDEST POP POP POP POP POP PUSH1 0x1 DUP4 SWAP1 DUP1 PUSH1 0x1 DUP2 SLOAD ADD DUP1 DUP3 SSTORE DUP1 SWAP2 POP POP PUSH1 0x1 SWAP1 SUB SWAP1 PUSH1 0x0 MSTORE PUSH1 0x20 PUSH1 0x0 KECCAK256 ADD PUSH1 0x0 SWAP1 SWAP2 SWAP1 SWAP2 SWAP1 SWAP2 PUSH2 0x100 EXP DUP2 SLOAD DUP2 PUSH20 0xFFFFFFFFFFFFFFFFFFFFFFFFFFFFFFFFFFFFFFFF MUL NOT AND SWAP1 DUP4 PUSH20 0xFFFFFFFFFFFFFFFFFFFFFFFFFFFFFFFFFFFFFFFF AND MUL OR SWAP1 SSTORE POP PUSH1 0x0 DUP1 CALLER PUSH20 0xFFFFFFFFFFFFFFFFFFFFFFFFFFFFFFFFFFFFFFFF AND PUSH20 0xFFFFFFFFFFFFFFFFFFFFFFFFFFFFFFFFFFFFFFFF AND DUP2 MSTORE PUSH1 0x20 ADD SWAP1 DUP2 MSTORE PUSH1 0x20 ADD PUSH1 0x0 KECCAK256 DUP4 SWAP1 DUP1 PUSH1 0x1 DUP2 SLOAD ADD DUP1 DUP3 SSTORE DUP1 SWAP2 POP POP PUSH1 0x1 SWAP1 SUB SWAP1 PUSH1 0x0 MSTORE PUSH1 0x20 PUSH1 0x0 KECCAK256 ADD PUSH1 0x0 SWAP1 SWAP2 SWAP1 SWAP2 SWAP1 SWAP2 PUSH2 0x100 EXP DUP2 SLOAD DUP2 PUSH20 0xFFFFFFFFFFFFFFFFFFFFFFFFFFFFFFFFFFFFFFFF MUL NOT AND SWAP1 DUP4 PUSH20 0xFFFFFFFFFFFFFFFFFFFFFFFFFFFFFFFFFFFFFFFF AND MUL OR SWAP1 SSTORE POP DUP2 SWAP4 POP POP POP POP SWAP3 SWAP2 POP POP JUMP JUMPDEST PUSH1 0x0 PUSH1 0x20 MSTORE DUP2 PUSH1 0x0 MSTORE PUSH1 0x40 PUSH1 0x0 KECCAK256 DUP2 DUP2 SLOAD DUP2 LT PUSH2 0x62E JUMPI PUSH1 0x0 DUP1 REVERT JUMPDEST SWAP1 PUSH1 0x0 MSTORE PUSH1 0x20 PUSH1 0x0 KECCAK256 ADD PUSH1 0x0 SWAP2 POP SWAP2 POP SWAP1 SLOAD SWAP1 PUSH2 0x100 EXP SWAP1 DIV PUSH20 0xFFFFFFFFFFFFFFFFFFFFFFFFFFFFFFFFFFFFFFFF AND DUP2 JUMP JUMPDEST PUSH1 0x60 PUSH1 0x0 DUP1 DUP4 PUSH20 0xFFFFFFFFFFFFFFFFFFFFFFFFFFFFFFFFFFFFFFFF AND PUSH20 0xFFFFFFFFFFFFFFFFFFFFFFFFFFFFFFFFFFFFFFFF AND DUP2 MSTORE PUSH1 0x20 ADD SWAP1 DUP2 MSTORE PUSH1 0x20 ADD PUSH1 0x0 KECCAK256 DUP1 SLOAD DUP1 PUSH1 0x20 MUL PUSH1 0x20 ADD PUSH1 0x40 MLOAD SWAP1 DUP2 ADD PUSH1 0x40 MSTORE DUP1 SWAP3 SWAP2 SWAP1 DUP2 DUP2 MSTORE PUSH1 0x20 ADD DUP3 DUP1 SLOAD DUP1 ISZERO PUSH2 0x720 JUMPI PUSH1 0x20 MUL DUP3 ADD SWAP2 SWAP1 PUSH1 0x0 MSTORE PUSH1 0x20 PUSH1 0x0 KECCAK256 SWAP1 JUMPDEST DUP2 PUSH1 0x0 SWAP1 SLOAD SWAP1 PUSH2 0x100 EXP SWAP1 DIV PUSH20 0xFFFFFFFFFFFFFFFFFFFFFFFFFFFFFFFFFFFFFFFF AND PUSH20 0xFFFFFFFFFFFFFFFFFFFFFFFFFFFFFFFFFFFFFFFF AND DUP2 MSTORE PUSH1 0x20 ADD SWAP1 PUSH1 0x1 ADD SWAP1 DUP1 DUP4 GT PUSH2 0x6D6 JUMPI JUMPDEST POP POP POP POP POP SWAP1 POP SWAP2 SWAP1 POP JUMP JUMPDEST PUSH1 0x1 DUP2 DUP2 SLOAD DUP2 LT PUSH2 0x73C JUMPI PUSH1 0x0 DUP1 REVERT JUMPDEST SWAP1 PUSH1 0x0 MSTORE PUSH1 0x20 PUSH1 0x0 KECCAK256 ADD PUSH1 0x0 SWAP2 POP SLOAD SWAP1 PUSH2 0x100 EXP SWAP1 DIV PUSH20 0xFFFFFFFFFFFFFFFFFFFFFFFFFFFFFFFFFFFFFFFF AND DUP2 JUMP JUMPDEST PUSH1 0x0 PUSH1 0x1 DUP3 DUP2 SLOAD DUP2 LT PUSH2 0x781 JUMPI PUSH2 0x780 PUSH2 0xEBF JUMP JUMPDEST JUMPDEST SWAP1 PUSH1 0x0 MSTORE PUSH1 0x20 PUSH1 0x0 KECCAK256 ADD PUSH1 0x0 SWAP1 SLOAD SWAP1 PUSH2 0x100 EXP SWAP1 DIV PUSH20 0xFFFFFFFFFFFFFFFFFFFFFFFFFFFFFFFFFFFFFFFF AND SWAP1 POP SWAP2 SWAP1 POP JUMP JUMPDEST PUSH1 0x0 DUP1 DUP3 PUSH1 0x60 SHL SWAP1 POP PUSH1 0x40 MLOAD PUSH32 0x3D602D80600A3D3981F3363D3D373D3D3D363D73000000000000000000000000 DUP2 MSTORE DUP2 PUSH1 0x14 DUP3 ADD MSTORE PUSH32 0x5AF43D82803E903D91602B57FD5BF30000000000000000000000000000000000 PUSH1 0x28 DUP3 ADD MSTORE PUSH1 0x37 DUP2 PUSH1 0x0 CREATE SWAP3 POP POP POP SWAP2 SWAP1 POP JUMP JUMPDEST PUSH1 0x0 DUP2 SWAP1 POP SWAP2 SWAP1 POP JUMP JUMPDEST PUSH2 0x830 DUP2 PUSH2 0x81D JUMP JUMPDEST DUP3 MSTORE POP POP JUMP JUMPDEST PUSH1 0x0 PUSH1 0x20 DUP3 ADD SWAP1 POP PUSH2 0x84B PUSH1 0x0 DUP4 ADD DUP5 PUSH2 0x827 JUMP JUMPDEST SWAP3 SWAP2 POP POP JUMP JUMPDEST PUSH1 0x0 PUSH1 0x40 MLOAD SWAP1 POP SWAP1 JUMP JUMPDEST PUSH1 0x0 DUP1 REVERT JUMPDEST PUSH1 0x0 DUP1 REVERT JUMPDEST PUSH1 0x0 PUSH20 0xFFFFFFFFFFFFFFFFFFFFFFFFFFFFFFFFFFFFFFFF DUP3 AND SWAP1 POP SWAP2 SWAP1 POP JUMP JUMPDEST PUSH1 0x0 PUSH2 0x890 DUP3 PUSH2 0x865 JUMP JUMPDEST SWAP1 POP SWAP2 SWAP1 POP JUMP JUMPDEST PUSH2 0x8A0 DUP2 PUSH2 0x885 JUMP JUMPDEST DUP2 EQ PUSH2 0x8AB JUMPI PUSH1 0x0 DUP1 REVERT JUMPDEST POP JUMP JUMPDEST PUSH1 0x0 DUP2 CALLDATALOAD SWAP1 POP PUSH2 0x8BD DUP2 PUSH2 0x897 JUMP JUMPDEST SWAP3 SWAP2 POP POP JUMP JUMPDEST PUSH1 0x0 PUSH1 0x20 DUP3 DUP5 SUB SLT ISZERO PUSH2 0x8D9 JUMPI PUSH2 0x8D8 PUSH2 0x85B JUMP JUMPDEST JUMPDEST PUSH1 0x0 PUSH2 0x8E7 DUP5 DUP3 DUP6 ADD PUSH2 0x8AE JUMP JUMPDEST SWAP2 POP POP SWAP3 SWAP2 POP POP JUMP JUMPDEST PUSH2 0x8F9 DUP2 PUSH2 0x81D JUMP JUMPDEST DUP2 EQ PUSH2 0x904 JUMPI PUSH1 0x0 DUP1 REVERT JUMPDEST POP JUMP JUMPDEST PUSH1 0x0 DUP2 CALLDATALOAD SWAP1 POP PUSH2 0x916 DUP2 PUSH2 0x8F0 JUMP JUMPDEST SWAP3 SWAP2 POP POP JUMP JUMPDEST PUSH1 0x0 DUP2 SWAP1 POP SWAP2 SWAP1 POP JUMP JUMPDEST PUSH2 0x92F DUP2 PUSH2 0x91C JUMP JUMPDEST DUP2 EQ PUSH2 0x93A JUMPI PUSH1 0x0 DUP1 REVERT JUMPDEST POP JUMP JUMPDEST PUSH1 0x0 DUP2 CALLDATALOAD SWAP1 POP PUSH2 0x94C DUP2 PUSH2 0x926 JUMP JUMPDEST SWAP3 SWAP2 POP POP JUMP JUMPDEST PUSH1 0x0 DUP1 REVERT JUMPDEST PUSH1 0x0 DUP1 REVERT JUMPDEST PUSH1 0x0 PUSH1 0x1F NOT PUSH1 0x1F DUP4 ADD AND SWAP1 POP SWAP2 SWAP1 POP JUMP JUMPDEST PUSH32 0x4E487B7100000000000000000000000000000000000000000000000000000000 PUSH1 0x0 MSTORE PUSH1 0x41 PUSH1 0x4 MSTORE PUSH1 0x24 PUSH1 0x0 REVERT JUMPDEST PUSH2 0x9A5 DUP3 PUSH2 0x95C JUMP JUMPDEST DUP2 ADD DUP2 DUP2 LT PUSH8 0xFFFFFFFFFFFFFFFF DUP3 GT OR ISZERO PUSH2 0x9C4 JUMPI PUSH2 0x9C3 PUSH2 0x96D JUMP JUMPDEST JUMPDEST DUP1 PUSH1 0x40 MSTORE POP POP POP JUMP JUMPDEST PUSH1 0x0 PUSH2 0x9D7 PUSH2 0x851 JUMP JUMPDEST SWAP1 POP PUSH2 0x9E3 DUP3 DUP3 PUSH2 0x99C JUMP JUMPDEST SWAP2 SWAP1 POP JUMP JUMPDEST PUSH1 0x0 PUSH8 0xFFFFFFFFFFFFFFFF DUP3 GT ISZERO PUSH2 0xA03 JUMPI PUSH2 0xA02 PUSH2 0x96D JUMP JUMPDEST JUMPDEST PUSH2 0xA0C DUP3 PUSH2 0x95C JUMP JUMPDEST SWAP1 POP PUSH1 0x20 DUP2 ADD SWAP1 POP SWAP2 SWAP1 POP JUMP JUMPDEST DUP3 DUP2 DUP4 CALLDATACOPY PUSH1 0x0 DUP4 DUP4 ADD MSTORE POP POP POP JUMP JUMPDEST PUSH1 0x0 PUSH2 0xA3B PUSH2 0xA36 DUP5 PUSH2 0x9E8 JUMP JUMPDEST PUSH2 0x9CD JUMP JUMPDEST SWAP1 POP DUP3 DUP2 MSTORE PUSH1 0x20 DUP2 ADD DUP5 DUP5 DUP5 ADD GT ISZERO PUSH2 0xA57 JUMPI PUSH2 0xA56 PUSH2 0x957 JUMP JUMPDEST JUMPDEST PUSH2 0xA62 DUP5 DUP3 DUP6 PUSH2 0xA19 JUMP JUMPDEST POP SWAP4 SWAP3 POP POP POP JUMP JUMPDEST PUSH1 0x0 DUP3 PUSH1 0x1F DUP4 ADD SLT PUSH2 0xA7F JUMPI PUSH2 0xA7E PUSH2 0x952 JUMP JUMPDEST JUMPDEST DUP2 CALLDATALOAD PUSH2 0xA8F DUP5 DUP3 PUSH1 0x20 DUP7 ADD PUSH2 0xA28 JUMP JUMPDEST SWAP2 POP POP SWAP3 SWAP2 POP POP JUMP JUMPDEST PUSH1 0x0 DUP1 PUSH1 0x0 DUP1 PUSH1 0x0 DUP1 PUSH1 0x0 DUP1 PUSH2 0x100 DUP10 DUP12 SUB SLT ISZERO PUSH2 0xAB9 JUMPI PUSH2 0xAB8 PUSH2 0x85B JUMP JUMPDEST JUMPDEST PUSH1 0x0 PUSH2 0xAC7 DUP12 DUP3 DUP13 ADD PUSH2 0x907 JUMP JUMPDEST SWAP9 POP POP PUSH1 0x20 PUSH2 0xAD8 DUP12 DUP3 DUP13 ADD PUSH2 0x907 JUMP JUMPDEST SWAP8 POP POP PUSH1 0x40 PUSH2 0xAE9 DUP12 DUP3 DUP13 ADD PUSH2 0x93D JUMP JUMPDEST SWAP7 POP POP PUSH1 0x60 PUSH2 0xAFA DUP12 DUP3 DUP13 ADD PUSH2 0x93D JUMP JUMPDEST SWAP6 POP POP PUSH1 0x80 DUP10 ADD CALLDATALOAD PUSH8 0xFFFFFFFFFFFFFFFF DUP2 GT ISZERO PUSH2 0xB1B JUMPI PUSH2 0xB1A PUSH2 0x860 JUMP JUMPDEST JUMPDEST PUSH2 0xB27 DUP12 DUP3 DUP13 ADD PUSH2 0xA6A JUMP JUMPDEST SWAP5 POP POP PUSH1 0xA0 PUSH2 0xB38 DUP12 DUP3 DUP13 ADD PUSH2 0x907 JUMP JUMPDEST SWAP4 POP POP PUSH1 0xC0 PUSH2 0xB49 DUP12 DUP3 DUP13 ADD PUSH2 0x907 JUMP JUMPDEST SWAP3 POP POP PUSH1 0xE0 PUSH2 0xB5A DUP12 DUP3 DUP13 ADD PUSH2 0x907 JUMP JUMPDEST SWAP2 POP POP SWAP3 SWAP6 SWAP9 POP SWAP3 SWAP6 SWAP9 SWAP1 SWAP4 SWAP7 POP JUMP JUMPDEST PUSH1 0x0 PUSH2 0xB75 DUP3 PUSH2 0x865 JUMP JUMPDEST SWAP1 POP SWAP2 SWAP1 POP JUMP JUMPDEST PUSH2 0xB85 DUP2 PUSH2 0xB6A JUMP JUMPDEST DUP3 MSTORE POP POP JUMP JUMPDEST PUSH1 0x0 PUSH1 0x20 DUP3 ADD SWAP1 POP PUSH2 0xBA0 PUSH1 0x0 DUP4 ADD DUP5 PUSH2 0xB7C JUMP JUMPDEST SWAP3 SWAP2 POP POP JUMP JUMPDEST PUSH1 0x0 DUP1 PUSH1 0x40 DUP4 DUP6 SUB SLT ISZERO PUSH2 0xBBD JUMPI PUSH2 0xBBC PUSH2 0x85B JUMP JUMPDEST JUMPDEST PUSH1 0x0 PUSH2 0xBCB DUP6 DUP3 DUP7 ADD PUSH2 0x907 JUMP JUMPDEST SWAP3 POP POP PUSH1 0x20 PUSH2 0xBDC DUP6 DUP3 DUP7 ADD PUSH2 0x907 JUMP JUMPDEST SWAP2 POP POP SWAP3 POP SWAP3 SWAP1 POP JUMP JUMPDEST PUSH1 0x0 DUP1 PUSH1 0x40 DUP4 DUP6 SUB SLT ISZERO PUSH2 0xBFD JUMPI PUSH2 0xBFC PUSH2 0x85B JUMP JUMPDEST JUMPDEST PUSH1 0x0 PUSH2 0xC0B DUP6 DUP3 DUP7 ADD PUSH2 0x8AE JUMP JUMPDEST SWAP3 POP POP PUSH1 0x20 PUSH2 0xC1C DUP6 DUP3 DUP7 ADD PUSH2 0x907 JUMP JUMPDEST SWAP2 POP POP SWAP3 POP SWAP3 SWAP1 POP JUMP JUMPDEST PUSH2 0xC2F DUP2 PUSH2 0x885 JUMP JUMPDEST DUP3 MSTORE POP POP JUMP JUMPDEST PUSH1 0x0 PUSH1 0x20 DUP3 ADD SWAP1 POP PUSH2 0xC4A PUSH1 0x0 DUP4 ADD DUP5 PUSH2 0xC26 JUMP JUMPDEST SWAP3 SWAP2 POP POP JUMP JUMPDEST PUSH1 0x0 DUP2 MLOAD SWAP1 POP SWAP2 SWAP1 POP JUMP JUMPDEST PUSH1 0x0 DUP3 DUP3 MSTORE PUSH1 0x20 DUP3 ADD SWAP1 POP SWAP3 SWAP2 POP POP JUMP JUMPDEST PUSH1 0x0 DUP2 SWAP1 POP PUSH1 0x20 DUP3 ADD SWAP1 POP SWAP2 SWAP1 POP JUMP JUMPDEST PUSH2 0xC85 DUP2 PUSH2 0x885 JUMP JUMPDEST DUP3 MSTORE POP POP JUMP JUMPDEST PUSH1 0x0 PUSH2 0xC97 DUP4 DUP4 PUSH2 0xC7C JUMP JUMPDEST PUSH1 0x20 DUP4 ADD SWAP1 POP SWAP3 SWAP2 POP POP JUMP JUMPDEST PUSH1 0x0 PUSH1 0x20 DUP3 ADD SWAP1 POP SWAP2 SWAP1 POP JUMP JUMPDEST PUSH1 0x0 PUSH2 0xCBB DUP3 PUSH2 0xC50 JUMP JUMPDEST PUSH2 0xCC5 DUP2 DUP6 PUSH2 0xC5B JUMP JUMPDEST SWAP4 POP PUSH2 0xCD0 DUP4 PUSH2 0xC6C JUMP JUMPDEST DUP1 PUSH1 0x0 JUMPDEST DUP4 DUP2 LT ISZERO PUSH2 0xD01 JUMPI DUP2 MLOAD PUSH2 0xCE8 DUP9 DUP3 PUSH2 0xC8B JUMP JUMPDEST SWAP8 POP PUSH2 0xCF3 DUP4 PUSH2 0xCA3 JUMP JUMPDEST SWAP3 POP POP PUSH1 0x1 DUP2 ADD SWAP1 POP PUSH2 0xCD4 JUMP JUMPDEST POP DUP6 SWAP4 POP POP POP POP SWAP3 SWAP2 POP POP JUMP JUMPDEST PUSH1 0x0 PUSH1 0x20 DUP3 ADD SWAP1 POP DUP2 DUP2 SUB PUSH1 0x0 DUP4 ADD MSTORE PUSH2 0xD28 DUP2 DUP5 PUSH2 0xCB0 JUMP JUMPDEST SWAP1 POP SWAP3 SWAP2 POP POP JUMP JUMPDEST PUSH1 0x0 PUSH1 0x20 DUP3 DUP5 SUB SLT ISZERO PUSH2 0xD46 JUMPI PUSH2 0xD45 PUSH2 0x85B JUMP JUMPDEST JUMPDEST PUSH1 0x0 PUSH2 0xD54 DUP5 DUP3 DUP6 ADD PUSH2 0x907 JUMP JUMPDEST SWAP2 POP POP SWAP3 SWAP2 POP POP JUMP JUMPDEST PUSH2 0xD66 DUP2 PUSH2 0x91C JUMP JUMPDEST DUP3 MSTORE POP POP JUMP JUMPDEST PUSH1 0x0 DUP2 MLOAD SWAP1 POP SWAP2 SWAP1 POP JUMP JUMPDEST PUSH1 0x0 DUP3 DUP3 MSTORE PUSH1 0x20 DUP3 ADD SWAP1 POP SWAP3 SWAP2 POP POP JUMP JUMPDEST PUSH1 0x0 JUMPDEST DUP4 DUP2 LT ISZERO PUSH2 0xDA6 JUMPI DUP1 DUP3 ADD MLOAD DUP2 DUP5 ADD MSTORE PUSH1 0x20 DUP2 ADD SWAP1 POP PUSH2 0xD8B JUMP JUMPDEST DUP4 DUP2 GT ISZERO PUSH2 0xDB5 JUMPI PUSH1 0x0 DUP5 DUP5 ADD MSTORE JUMPDEST POP POP POP POP JUMP JUMPDEST PUSH1 0x0 PUSH2 0xDC6 DUP3 PUSH2 0xD6C JUMP JUMPDEST PUSH2 0xDD0 DUP2 DUP6 PUSH2 0xD77 JUMP JUMPDEST SWAP4 POP PUSH2 0xDE0 DUP2 DUP6 PUSH1 0x20 DUP7 ADD PUSH2 0xD88 JUMP JUMPDEST PUSH2 0xDE9 DUP2 PUSH2 0x95C JUMP JUMPDEST DUP5 ADD SWAP2 POP POP SWAP3 SWAP2 POP POP JUMP JUMPDEST PUSH1 0x0 PUSH2 0x120 DUP3 ADD SWAP1 POP PUSH2 0xE0A PUSH1 0x0 DUP4 ADD DUP13 PUSH2 0x827 JUMP JUMPDEST PUSH2 0xE17 PUSH1 0x20 DUP4 ADD DUP12 PUSH2 0x827 JUMP JUMPDEST PUSH2 0xE24 PUSH1 0x40 DUP4 ADD DUP11 PUSH2 0xC26 JUMP JUMPDEST PUSH2 0xE31 PUSH1 0x60 DUP4 ADD DUP10 PUSH2 0xD5D JUMP JUMPDEST PUSH2 0xE3E PUSH1 0x80 DUP4 ADD DUP9 PUSH2 0xD5D JUMP JUMPDEST DUP2 DUP2 SUB PUSH1 0xA0 DUP4 ADD MSTORE PUSH2 0xE50 DUP2 DUP8 PUSH2 0xDBB JUMP JUMPDEST SWAP1 POP PUSH2 0xE5F PUSH1 0xC0 DUP4 ADD DUP7 PUSH2 0x827 JUMP JUMPDEST PUSH2 0xE6C PUSH1 0xE0 DUP4 ADD DUP6 PUSH2 0x827 JUMP JUMPDEST PUSH2 0xE7A PUSH2 0x100 DUP4 ADD DUP5 PUSH2 0x827 JUMP JUMPDEST SWAP11 SWAP10 POP POP POP POP POP POP POP POP POP POP JUMP JUMPDEST PUSH1 0x0 PUSH1 0x60 DUP3 ADD SWAP1 POP PUSH2 0xE9D PUSH1 0x0 DUP4 ADD DUP7 PUSH2 0x827 JUMP JUMPDEST PUSH2 0xEAA PUSH1 0x20 DUP4 ADD DUP6 PUSH2 0x827 JUMP JUMPDEST PUSH2 0xEB7 PUSH1 0x40 DUP4 ADD DUP5 PUSH2 0xC26 JUMP JUMPDEST SWAP5 SWAP4 POP POP POP POP JUMP JUMPDEST PUSH32 0x4E487B7100000000000000000000000000000000000000000000000000000000 PUSH1 0x0 MSTORE PUSH1 0x32 PUSH1 0x4 MSTORE PUSH1 0x24 PUSH1 0x0 REVERT INVALID LOG2 PUSH5 0x6970667358 0x22 SLT KECCAK256 PUSH18 0xE3EF3DC52E2AC85C14E15F02254B7BC77801 CODESIZE 0x5C 0xC8 DUP8 PUSH22 0xEEEF2945106AB12364736F6C63430008090033608060 BLOCKHASH MSTORE CALLVALUE DUP1 ISZERO PUSH2 0x10 JUMPI PUSH1 0x0 DUP1 REVERT JUMPDEST POP PUSH1 0x1 PUSH1 0xA PUSH1 0x0 PUSH2 0x100 EXP DUP2 SLOAD DUP2 PUSH1 0xFF MUL NOT AND SWAP1 DUP4 ISZERO ISZERO MUL OR SWAP1 SSTORE POP PUSH2 0x1CBA DUP1 PUSH2 0x3B PUSH1 0x0 CODECOPY PUSH1 0x0 RETURN INVALID PUSH1 0x80 PUSH1 0x40 MSTORE PUSH1 0x4 CALLDATASIZE LT PUSH2 0xF7 JUMPI PUSH1 0x0 CALLDATALOAD PUSH1 0xE0 SHR DUP1 PUSH4 0x88BF1930 GT PUSH2 0x8A JUMPI DUP1 PUSH4 0xC3DA42B8 GT PUSH2 0x59 JUMPI DUP1 PUSH4 0xC3DA42B8 EQ PUSH2 0x2C5 JUMPI DUP1 PUSH4 0xD8BEFBB6 EQ PUSH2 0x2F0 JUMPI DUP1 PUSH4 0xE8DE68CC EQ PUSH2 0x319 JUMPI DUP1 PUSH4 0xF493E870 EQ PUSH2 0x342 JUMPI PUSH2 0xFE JUMP JUMPDEST DUP1 PUSH4 0x88BF1930 EQ PUSH2 0x228 JUMPI DUP1 PUSH4 0x9C21A9B8 EQ PUSH2 0x253 JUMPI DUP1 PUSH4 0xA6AB36F2 EQ PUSH2 0x27E JUMPI DUP1 PUSH4 0xB582EC5F EQ PUSH2 0x29A JUMPI PUSH2 0xFE JUMP JUMPDEST DUP1 PUSH4 0x50B1AD6B GT PUSH2 0xC6 JUMPI DUP1 PUSH4 0x50B1AD6B EQ PUSH2 0x18B JUMPI DUP1 PUSH4 0x5E650318 EQ PUSH2 0x1A7 JUMPI DUP1 PUSH4 0x7C2EFCBA EQ PUSH2 0x1D2 JUMPI DUP1 PUSH4 0x7F80069A EQ PUSH2 0x1FD JUMPI PUSH2 0xFE JUMP JUMPDEST DUP1 PUSH4 0x482FF76 EQ PUSH2 0x100 JUMPI DUP1 PUSH4 0x24763493 EQ PUSH2 0x10A JUMPI DUP1 PUSH4 0x2804B2C0 EQ PUSH2 0x135 JUMPI DUP1 PUSH4 0x34133DF9 EQ PUSH2 0x160 JUMPI PUSH2 0xFE JUMP JUMPDEST CALLDATASIZE PUSH2 0xFE JUMPI STOP JUMPDEST STOP JUMPDEST PUSH2 0x108 PUSH2 0x36D JUMP JUMPDEST STOP JUMPDEST CALLVALUE DUP1 ISZERO PUSH2 0x116 JUMPI PUSH1 0x0 DUP1 REVERT JUMPDEST POP PUSH2 0x11F PUSH2 0x467 JUMP JUMPDEST PUSH1 0x40 MLOAD PUSH2 0x12C SWAP2 SWAP1 PUSH2 0xFC3 JUMP JUMPDEST PUSH1 0x40 MLOAD DUP1 SWAP2 SUB SWAP1 RETURN JUMPDEST CALLVALUE DUP1 ISZERO PUSH2 0x141 JUMPI PUSH1 0x0 DUP1 REVERT JUMPDEST POP PUSH2 0x14A PUSH2 0x4F5 JUMP JUMPDEST PUSH1 0x40 MLOAD PUSH2 0x157 SWAP2 SWAP1 PUSH2 0x1026 JUMP JUMPDEST PUSH1 0x40 MLOAD DUP1 SWAP2 SUB SWAP1 RETURN JUMPDEST CALLVALUE DUP1 ISZERO PUSH2 0x16C JUMPI PUSH1 0x0 DUP1 REVERT JUMPDEST POP PUSH2 0x175 PUSH2 0x51B JUMP JUMPDEST PUSH1 0x40 MLOAD PUSH2 0x182 SWAP2 SWAP1 PUSH2 0x105A JUMP JUMPDEST PUSH1 0x40 MLOAD DUP1 SWAP2 SUB SWAP1 RETURN JUMPDEST PUSH2 0x1A5 PUSH1 0x4 DUP1 CALLDATASIZE SUB DUP2 ADD SWAP1 PUSH2 0x1A0 SWAP2 SWAP1 PUSH2 0x124C JUMP JUMPDEST PUSH2 0x521 JUMP JUMPDEST STOP JUMPDEST CALLVALUE DUP1 ISZERO PUSH2 0x1B3 JUMPI PUSH1 0x0 DUP1 REVERT JUMPDEST POP PUSH2 0x1BC PUSH2 0x6BC JUMP JUMPDEST PUSH1 0x40 MLOAD PUSH2 0x1C9 SWAP2 SWAP1 PUSH2 0x1341 JUMP JUMPDEST PUSH1 0x40 MLOAD DUP1 SWAP2 SUB SWAP1 RETURN JUMPDEST CALLVALUE DUP1 ISZERO PUSH2 0x1DE JUMPI PUSH1 0x0 DUP1 REVERT JUMPDEST POP PUSH2 0x1E7 PUSH2 0x6C2 JUMP JUMPDEST PUSH1 0x40 MLOAD PUSH2 0x1F4 SWAP2 SWAP1 PUSH2 0x105A JUMP JUMPDEST PUSH1 0x40 MLOAD DUP1 SWAP2 SUB SWAP1 RETURN JUMPDEST CALLVALUE DUP1 ISZERO PUSH2 0x209 JUMPI PUSH1 0x0 DUP1 REVERT JUMPDEST POP PUSH2 0x212 PUSH2 0x6C8 JUMP JUMPDEST PUSH1 0x40 MLOAD PUSH2 0x21F SWAP2 SWAP1 PUSH2 0x1377 JUMP JUMPDEST PUSH1 0x40 MLOAD DUP1 SWAP2 SUB SWAP1 RETURN JUMPDEST CALLVALUE DUP1 ISZERO PUSH2 0x234 JUMPI PUSH1 0x0 DUP1 REVERT JUMPDEST POP PUSH2 0x23D PUSH2 0x6DB JUMP JUMPDEST PUSH1 0x40 MLOAD PUSH2 0x24A SWAP2 SWAP1 PUSH2 0x1341 JUMP JUMPDEST PUSH1 0x40 MLOAD DUP1 SWAP2 SUB SWAP1 RETURN JUMPDEST CALLVALUE DUP1 ISZERO PUSH2 0x25F JUMPI PUSH1 0x0 DUP1 REVERT JUMPDEST POP PUSH2 0x268 PUSH2 0x6E1 JUMP JUMPDEST PUSH1 0x40 MLOAD PUSH2 0x275 SWAP2 SWAP1 PUSH2 0x105A JUMP JUMPDEST PUSH1 0x40 MLOAD DUP1 SWAP2 SUB SWAP1 RETURN JUMPDEST PUSH2 0x298 PUSH1 0x4 DUP1 CALLDATASIZE SUB DUP2 ADD SWAP1 PUSH2 0x293 SWAP2 SWAP1 PUSH2 0x1392 JUMP JUMPDEST PUSH2 0x6E7 JUMP JUMPDEST STOP JUMPDEST CALLVALUE DUP1 ISZERO PUSH2 0x2A6 JUMPI PUSH1 0x0 DUP1 REVERT JUMPDEST POP PUSH2 0x2AF PUSH2 0x7B1 JUMP JUMPDEST PUSH1 0x40 MLOAD PUSH2 0x2BC SWAP2 SWAP1 PUSH2 0x105A JUMP JUMPDEST PUSH1 0x40 MLOAD DUP1 SWAP2 SUB SWAP1 RETURN JUMPDEST CALLVALUE DUP1 ISZERO PUSH2 0x2D1 JUMPI PUSH1 0x0 DUP1 REVERT JUMPDEST POP PUSH2 0x2DA PUSH2 0x7B7 JUMP JUMPDEST PUSH1 0x40 MLOAD PUSH2 0x2E7 SWAP2 SWAP1 PUSH2 0x105A JUMP JUMPDEST PUSH1 0x40 MLOAD DUP1 SWAP2 SUB SWAP1 RETURN JUMPDEST CALLVALUE DUP1 ISZERO PUSH2 0x2FC JUMPI PUSH1 0x0 DUP1 REVERT JUMPDEST POP PUSH2 0x317 PUSH1 0x4 DUP1 CALLDATASIZE SUB DUP2 ADD SWAP1 PUSH2 0x312 SWAP2 SWAP1 PUSH2 0x1486 JUMP JUMPDEST PUSH2 0x7BD JUMP JUMPDEST STOP JUMPDEST CALLVALUE DUP1 ISZERO PUSH2 0x325 JUMPI PUSH1 0x0 DUP1 REVERT JUMPDEST POP PUSH2 0x340 PUSH1 0x4 DUP1 CALLDATASIZE SUB DUP2 ADD SWAP1 PUSH2 0x33B SWAP2 SWAP1 PUSH2 0x1525 JUMP JUMPDEST PUSH2 0xCFC JUMP JUMPDEST STOP JUMPDEST CALLVALUE DUP1 ISZERO PUSH2 0x34E JUMPI PUSH1 0x0 DUP1 REVERT JUMPDEST POP PUSH2 0x357 PUSH2 0xE81 JUMP JUMPDEST PUSH1 0x40 MLOAD PUSH2 0x364 SWAP2 SWAP1 PUSH2 0x105A JUMP JUMPDEST PUSH1 0x40 MLOAD DUP1 SWAP2 SUB SWAP1 RETURN JUMPDEST PUSH1 0x1 PUSH1 0x0 SWAP1 SLOAD SWAP1 PUSH2 0x100 EXP SWAP1 DIV PUSH20 0xFFFFFFFFFFFFFFFFFFFFFFFFFFFFFFFFFFFFFFFF AND PUSH20 0xFFFFFFFFFFFFFFFFFFFFFFFFFFFFFFFFFFFFFFFF AND CALLER PUSH20 0xFFFFFFFFFFFFFFFFFFFFFFFFFFFFFFFFFFFFFFFF AND EQ PUSH2 0x3FD JUMPI PUSH1 0x40 MLOAD PUSH32 0x8C379A000000000000000000000000000000000000000000000000000000000 DUP2 MSTORE PUSH1 0x4 ADD PUSH2 0x3F4 SWAP1 PUSH2 0x1669 JUMP JUMPDEST PUSH1 0x40 MLOAD DUP1 SWAP2 SUB SWAP1 REVERT JUMPDEST TIMESTAMP PUSH1 0x8 SLOAD PUSH1 0x7 SLOAD PUSH2 0x40E SWAP2 SWAP1 PUSH2 0x16B8 JUMP JUMPDEST LT PUSH2 0x44E JUMPI PUSH1 0x40 MLOAD PUSH32 0x8C379A000000000000000000000000000000000000000000000000000000000 DUP2 MSTORE PUSH1 0x4 ADD PUSH2 0x445 SWAP1 PUSH2 0x175A JUMP JUMPDEST PUSH1 0x40 MLOAD DUP1 SWAP2 SUB SWAP1 REVERT JUMPDEST CALLER PUSH20 0xFFFFFFFFFFFFFFFFFFFFFFFFFFFFFFFFFFFFFFFF AND SELFDESTRUCT JUMPDEST PUSH1 0x4 DUP1 SLOAD PUSH2 0x474 SWAP1 PUSH2 0x17A9 JUMP JUMPDEST DUP1 PUSH1 0x1F ADD PUSH1 0x20 DUP1 SWAP2 DIV MUL PUSH1 0x20 ADD PUSH1 0x40 MLOAD SWAP1 DUP2 ADD PUSH1 0x40 MSTORE DUP1 SWAP3 SWAP2 SWAP1 DUP2 DUP2 MSTORE PUSH1 0x20 ADD DUP3 DUP1 SLOAD PUSH2 0x4A0 SWAP1 PUSH2 0x17A9 JUMP JUMPDEST DUP1 ISZERO PUSH2 0x4ED JUMPI DUP1 PUSH1 0x1F LT PUSH2 0x4C2 JUMPI PUSH2 0x100 DUP1 DUP4 SLOAD DIV MUL DUP4 MSTORE SWAP2 PUSH1 0x20 ADD SWAP2 PUSH2 0x4ED JUMP JUMPDEST DUP3 ADD SWAP2 SWAP1 PUSH1 0x0 MSTORE PUSH1 0x20 PUSH1 0x0 KECCAK256 SWAP1 JUMPDEST DUP2 SLOAD DUP2 MSTORE SWAP1 PUSH1 0x1 ADD SWAP1 PUSH1 0x20 ADD DUP1 DUP4 GT PUSH2 0x4D0 JUMPI DUP3 SWAP1 SUB PUSH1 0x1F AND DUP3 ADD SWAP2 JUMPDEST POP POP POP POP POP DUP2 JUMP JUMPDEST PUSH1 0x1 PUSH1 0x0 SWAP1 SLOAD SWAP1 PUSH2 0x100 EXP SWAP1 DIV PUSH20 0xFFFFFFFFFFFFFFFFFFFFFFFFFFFFFFFFFFFFFFFF AND DUP2 JUMP JUMPDEST PUSH1 0x9 SLOAD DUP2 JUMP JUMPDEST PUSH1 0x0 ISZERO ISZERO PUSH1 0xA PUSH1 0x0 SWAP1 SLOAD SWAP1 PUSH2 0x100 EXP SWAP1 DIV PUSH1 0xFF AND ISZERO ISZERO EQ PUSH2 0x541 JUMPI PUSH1 0x0 DUP1 REVERT JUMPDEST DUP8 DUP10 PUSH2 0x54D SWAP2 SWAP1 PUSH2 0x17DB JUMP JUMPDEST CALLVALUE EQ PUSH2 0x58E JUMPI PUSH1 0x40 MLOAD PUSH32 0x8C379A000000000000000000000000000000000000000000000000000000000 DUP2 MSTORE PUSH1 0x4 ADD PUSH2 0x585 SWAP1 PUSH2 0x1881 JUMP JUMPDEST PUSH1 0x40 MLOAD DUP1 SWAP2 SUB SWAP1 REVERT JUMPDEST PUSH1 0x0 PUSH1 0x7 SLOAD EQ DUP1 ISZERO PUSH2 0x5A2 JUMPI POP PUSH1 0x0 PUSH1 0x8 SLOAD EQ JUMPDEST DUP1 ISZERO PUSH2 0x5B0 JUMPI POP PUSH1 0x0 PUSH1 0x9 SLOAD EQ JUMPDEST DUP1 ISZERO PUSH2 0x5CA JUMPI POP TIMESTAMP PUSH1 0x8 SLOAD PUSH1 0x7 SLOAD PUSH2 0x5C8 SWAP2 SWAP1 PUSH2 0x16B8 JUMP JUMPDEST LT JUMPDEST DUP1 PUSH2 0x60A JUMPI POP TIMESTAMP PUSH1 0x8 SLOAD PUSH1 0x7 SLOAD PUSH2 0x5E1 SWAP2 SWAP1 PUSH2 0x16B8 JUMP JUMPDEST LT DUP1 ISZERO PUSH2 0x609 JUMPI POP PUSH1 0x9 SLOAD PUSH1 0x8 SLOAD PUSH1 0x7 SLOAD PUSH2 0x5FC SWAP2 SWAP1 PUSH2 0x16B8 JUMP JUMPDEST PUSH2 0x606 SWAP2 SWAP1 PUSH2 0x16B8 JUMP JUMPDEST TIMESTAMP LT JUMPDEST JUMPDEST PUSH2 0x613 JUMPI PUSH1 0x0 DUP1 REVERT JUMPDEST DUP7 PUSH1 0x1 PUSH1 0x0 PUSH2 0x100 EXP DUP2 SLOAD DUP2 PUSH20 0xFFFFFFFFFFFFFFFFFFFFFFFFFFFFFFFFFFFFFFFF MUL NOT AND SWAP1 DUP4 PUSH20 0xFFFFFFFFFFFFFFFFFFFFFFFFFFFFFFFFFFFFFFFF AND MUL OR SWAP1 SSTORE POP DUP9 PUSH1 0x5 DUP2 SWAP1 SSTORE POP DUP8 PUSH1 0x6 DUP2 SWAP1 SSTORE POP PUSH1 0x0 DUP1 DUP2 SWAP1 SSTORE POP DUP6 PUSH1 0x2 DUP2 SWAP1 SSTORE POP DUP5 PUSH1 0x3 DUP2 SWAP1 SSTORE POP DUP4 PUSH1 0x4 SWAP1 DUP1 MLOAD SWAP1 PUSH1 0x20 ADD SWAP1 PUSH2 0x68D SWAP3 SWAP2 SWAP1 PUSH2 0xE87 JUMP JUMPDEST POP DUP9 PUSH1 0x5 DUP2 SWAP1 SSTORE POP DUP8 PUSH1 0x6 DUP2 SWAP1 SSTORE POP DUP3 PUSH1 0x7 DUP2 SWAP1 SSTORE POP DUP2 PUSH1 0x8 DUP2 SWAP1 SSTORE POP DUP1 PUSH1 0x9 DUP2 SWAP1 SSTORE POP POP POP POP POP POP POP POP POP POP JUMP JUMPDEST PUSH1 0x3 SLOAD DUP2 JUMP JUMPDEST PUSH1 0x6 SLOAD DUP2 JUMP JUMPDEST PUSH1 0xA PUSH1 0x0 SWAP1 SLOAD SWAP1 PUSH2 0x100 EXP SWAP1 DIV PUSH1 0xFF AND DUP2 JUMP JUMPDEST PUSH1 0x2 SLOAD DUP2 JUMP JUMPDEST PUSH1 0x8 SLOAD DUP2 JUMP JUMPDEST PUSH1 0x0 ISZERO ISZERO PUSH1 0xA PUSH1 0x0 SWAP1 SLOAD SWAP1 PUSH2 0x100 EXP SWAP1 DIV PUSH1 0xFF AND ISZERO ISZERO EQ PUSH2 0x707 JUMPI PUSH1 0x0 DUP1 REVERT JUMPDEST DUP1 PUSH1 0x1 PUSH1 0x0 PUSH2 0x100 EXP DUP2 SLOAD DUP2 PUSH20 0xFFFFFFFFFFFFFFFFFFFFFFFFFFFFFFFFFFFFFFFF MUL NOT AND SWAP1 DUP4 PUSH20 0xFFFFFFFFFFFFFFFFFFFFFFFFFFFFFFFFFFFFFFFF AND MUL OR SWAP1 SSTORE POP DUP3 PUSH1 0x5 DUP2 SWAP1 SSTORE POP DUP2 PUSH1 0x6 DUP2 SWAP1 SSTORE POP PUSH1 0x0 CALLVALUE EQ PUSH2 0x7AC JUMPI DUP2 DUP4 PUSH2 0x76A SWAP2 SWAP1 PUSH2 0x17DB JUMP JUMPDEST CALLVALUE EQ PUSH2 0x7AB JUMPI PUSH1 0x40 MLOAD PUSH32 0x8C379A000000000000000000000000000000000000000000000000000000000 DUP2 MSTORE PUSH1 0x4 ADD PUSH2 0x7A2 SWAP1 PUSH2 0x1881 JUMP JUMPDEST PUSH1 0x40 MLOAD DUP1 SWAP2 SUB SWAP1 REVERT JUMPDEST JUMPDEST POP POP POP JUMP JUMPDEST PUSH1 0x0 SLOAD DUP2 JUMP JUMPDEST PUSH1 0x5 SLOAD DUP2 JUMP JUMPDEST PUSH1 0x8 SLOAD PUSH1 0x7 SLOAD PUSH2 0x7CD SWAP2 SWAP1 PUSH2 0x16B8 JUMP JUMPDEST TIMESTAMP LT PUSH2 0x80E JUMPI PUSH1 0x40 MLOAD PUSH32 0x8C379A000000000000000000000000000000000000000000000000000000000 DUP2 MSTORE PUSH1 0x4 ADD PUSH2 0x805 SWAP1 PUSH2 0x175A JUMP JUMPDEST PUSH1 0x40 MLOAD DUP1 SWAP2 SUB SWAP1 REVERT JUMPDEST PUSH1 0x0 SLOAD DUP3 GT PUSH2 0x852 JUMPI PUSH1 0x40 MLOAD PUSH32 0x8C379A000000000000000000000000000000000000000000000000000000000 DUP2 MSTORE PUSH1 0x4 ADD PUSH2 0x849 SWAP1 PUSH2 0x18ED JUMP JUMPDEST PUSH1 0x40 MLOAD DUP1 SWAP2 SUB SWAP1 REVERT JUMPDEST PUSH1 0x0 DUP1 DUP6 PUSH2 0x85F SWAP1 PUSH2 0x194A JUMP JUMPDEST SWAP1 POP PUSH1 0x0 DUP6 PUSH2 0x86D SWAP1 PUSH2 0x194A JUMP JUMPDEST SWAP1 POP PUSH1 0x0 DUP1 SLOAD DUP7 PUSH2 0x87E SWAP2 SWAP1 PUSH2 0x19B1 JUMP JUMPDEST SWAP1 POP JUMPDEST PUSH1 0x0 DUP2 EQ PUSH2 0x97E JUMPI PUSH1 0x2 DUP4 PUSH1 0x40 MLOAD PUSH1 0x20 ADD PUSH2 0x89C SWAP2 SWAP1 PUSH2 0x1A06 JUMP JUMPDEST PUSH1 0x40 MLOAD PUSH1 0x20 DUP2 DUP4 SUB SUB DUP2 MSTORE SWAP1 PUSH1 0x40 MSTORE PUSH1 0x40 MLOAD PUSH2 0x8B8 SWAP2 SWAP1 PUSH2 0x1A5D JUMP JUMPDEST PUSH1 0x20 PUSH1 0x40 MLOAD DUP1 DUP4 SUB DUP2 DUP6 GAS STATICCALL ISZERO DUP1 ISZERO PUSH2 0x8D5 JUMPI RETURNDATASIZE PUSH1 0x0 DUP1 RETURNDATACOPY RETURNDATASIZE PUSH1 0x0 REVERT JUMPDEST POP POP POP PUSH1 0x40 MLOAD RETURNDATASIZE PUSH1 0x1F NOT PUSH1 0x1F DUP3 ADD AND DUP3 ADD DUP1 PUSH1 0x40 MSTORE POP DUP2 ADD SWAP1 PUSH2 0x8F8 SWAP2 SWAP1 PUSH2 0x1A89 JUMP JUMPDEST SWAP3 POP PUSH1 0x2 DUP3 PUSH1 0x40 MLOAD PUSH1 0x20 ADD PUSH2 0x90D SWAP2 SWAP1 PUSH2 0x1A06 JUMP JUMPDEST PUSH1 0x40 MLOAD PUSH1 0x20 DUP2 DUP4 SUB SUB DUP2 MSTORE SWAP1 PUSH1 0x40 MSTORE PUSH1 0x40 MLOAD PUSH2 0x929 SWAP2 SWAP1 PUSH2 0x1A5D JUMP JUMPDEST PUSH1 0x20 PUSH1 0x40 MLOAD DUP1 DUP4 SUB DUP2 DUP6 GAS STATICCALL ISZERO DUP1 ISZERO PUSH2 0x946 JUMPI RETURNDATASIZE PUSH1 0x0 DUP1 RETURNDATACOPY RETURNDATASIZE PUSH1 0x0 REVERT JUMPDEST POP POP POP PUSH1 0x40 MLOAD RETURNDATASIZE PUSH1 0x1F NOT PUSH1 0x1F DUP3 ADD AND DUP3 ADD DUP1 PUSH1 0x40 MSTORE POP DUP2 ADD SWAP1 PUSH2 0x969 SWAP2 SWAP1 PUSH2 0x1A89 JUMP JUMPDEST SWAP2 POP DUP1 DUP1 PUSH2 0x976 SWAP1 PUSH2 0x1AB6 JUMP JUMPDEST SWAP2 POP POP PUSH2 0x881 JUMP JUMPDEST DUP3 PUSH1 0x2 SLOAD EQ PUSH2 0x9C2 JUMPI PUSH1 0x40 MLOAD PUSH32 0x8C379A000000000000000000000000000000000000000000000000000000000 DUP2 MSTORE PUSH1 0x4 ADD PUSH2 0x9B9 SWAP1 PUSH2 0x1B2C JUMP JUMPDEST PUSH1 0x40 MLOAD DUP1 SWAP2 SUB SWAP1 REVERT JUMPDEST DUP2 PUSH1 0x3 SLOAD EQ PUSH2 0xA06 JUMPI PUSH1 0x40 MLOAD PUSH32 0x8C379A000000000000000000000000000000000000000000000000000000000 DUP2 MSTORE PUSH1 0x4 ADD PUSH2 0x9FD SWAP1 PUSH2 0x1B98 JUMP JUMPDEST PUSH1 0x40 MLOAD DUP1 SWAP2 SUB SWAP1 REVERT JUMPDEST PUSH1 0x0 PUSH1 0x2 DUP8 PUSH2 0xA15 SWAP2 SWAP1 PUSH2 0x1BE7 JUMP JUMPDEST EQ ISZERO PUSH2 0xA63 JUMPI PUSH1 0x2 PUSH1 0x0 SLOAD DUP8 PUSH2 0xA2B SWAP2 SWAP1 PUSH2 0x19B1 JUMP JUMPDEST PUSH2 0xA35 SWAP2 SWAP1 PUSH2 0x1C18 JUMP JUMPDEST SWAP4 POP DUP6 PUSH1 0x0 DUP2 SWAP1 SSTORE POP DUP8 PUSH2 0xA48 SWAP1 PUSH2 0x194A JUMP JUMPDEST PUSH1 0x2 DUP2 SWAP1 SSTORE POP DUP7 PUSH2 0xA58 SWAP1 PUSH2 0x194A JUMP JUMPDEST PUSH1 0x3 DUP2 SWAP1 SSTORE POP PUSH2 0xBEE JUMP JUMPDEST PUSH1 0x2 PUSH1 0x1 PUSH1 0x0 SLOAD DUP9 PUSH2 0xA75 SWAP2 SWAP1 PUSH2 0x19B1 JUMP JUMPDEST PUSH2 0xA7F SWAP2 SWAP1 PUSH2 0x19B1 JUMP JUMPDEST PUSH2 0xA89 SWAP2 SWAP1 PUSH2 0x1C18 JUMP JUMPDEST SWAP4 POP PUSH1 0x1 DUP7 PUSH2 0xA98 SWAP2 SWAP1 PUSH2 0x19B1 JUMP JUMPDEST PUSH1 0x0 DUP2 SWAP1 SSTORE POP PUSH1 0x0 DUP9 PUSH2 0xAAA SWAP1 PUSH2 0x194A JUMP JUMPDEST SWAP1 POP PUSH1 0x0 DUP9 PUSH2 0xAB8 SWAP1 PUSH2 0x194A JUMP JUMPDEST SWAP1 POP PUSH1 0x0 DUP1 SLOAD DUP10 PUSH2 0xAC9 SWAP2 SWAP1 PUSH2 0x19B1 JUMP JUMPDEST SWAP1 POP JUMPDEST PUSH1 0x0 DUP2 EQ PUSH2 0xBC9 JUMPI PUSH1 0x2 DUP4 PUSH1 0x40 MLOAD PUSH1 0x20 ADD PUSH2 0xAE7 SWAP2 SWAP1 PUSH2 0x1A06 JUMP JUMPDEST PUSH1 0x40 MLOAD PUSH1 0x20 DUP2 DUP4 SUB SUB DUP2 MSTORE SWAP1 PUSH1 0x40 MSTORE PUSH1 0x40 MLOAD PUSH2 0xB03 SWAP2 SWAP1 PUSH2 0x1A5D JUMP JUMPDEST PUSH1 0x20 PUSH1 0x40 MLOAD DUP1 DUP4 SUB DUP2 DUP6 GAS STATICCALL ISZERO DUP1 ISZERO PUSH2 0xB20 JUMPI RETURNDATASIZE PUSH1 0x0 DUP1 RETURNDATACOPY RETURNDATASIZE PUSH1 0x0 REVERT JUMPDEST POP POP POP PUSH1 0x40 MLOAD RETURNDATASIZE PUSH1 0x1F NOT PUSH1 0x1F DUP3 ADD AND DUP3 ADD DUP1 PUSH1 0x40 MSTORE POP DUP2 ADD SWAP1 PUSH2 0xB43 SWAP2 SWAP1 PUSH2 0x1A89 JUMP JUMPDEST SWAP3 POP PUSH1 0x2 DUP3 PUSH1 0x40 MLOAD PUSH1 0x20 ADD PUSH2 0xB58 SWAP2 SWAP1 PUSH2 0x1A06 JUMP JUMPDEST PUSH1 0x40 MLOAD PUSH1 0x20 DUP2 DUP4 SUB SUB DUP2 MSTORE SWAP1 PUSH1 0x40 MSTORE PUSH1 0x40 MLOAD PUSH2 0xB74 SWAP2 SWAP1 PUSH2 0x1A5D JUMP JUMPDEST PUSH1 0x20 PUSH1 0x40 MLOAD DUP1 DUP4 SUB DUP2 DUP6 GAS STATICCALL ISZERO DUP1 ISZERO PUSH2 0xB91 JUMPI RETURNDATASIZE PUSH1 0x0 DUP1 RETURNDATACOPY RETURNDATASIZE PUSH1 0x0 REVERT JUMPDEST POP POP POP PUSH1 0x40 MLOAD RETURNDATASIZE PUSH1 0x1F NOT PUSH1 0x1F DUP3 ADD AND DUP3 ADD DUP1 PUSH1 0x40 MSTORE POP DUP2 ADD SWAP1 PUSH2 0xBB4 SWAP2 SWAP1 PUSH2 0x1A89 JUMP JUMPDEST SWAP2 POP DUP1 DUP1 PUSH2 0xBC1 SWAP1 PUSH2 0x1AB6 JUMP JUMPDEST SWAP2 POP POP PUSH2 0xACC JUMP JUMPDEST PUSH1 0x1 DUP10 PUSH2 0xBD6 SWAP2 SWAP1 PUSH2 0x19B1 JUMP JUMPDEST PUSH1 0x0 DUP2 SWAP1 SSTORE POP DUP3 PUSH1 0x2 DUP2 SWAP1 SSTORE POP DUP2 PUSH1 0x3 DUP2 SWAP1 SSTORE POP POP POP POP JUMPDEST PUSH1 0x0 PUSH20 0xFFFFFFFFFFFFFFFFFFFFFFFFFFFFFFFFFFFFFFFF AND DUP6 PUSH20 0xFFFFFFFFFFFFFFFFFFFFFFFFFFFFFFFFFFFFFFFF AND EQ PUSH2 0xC9D JUMPI DUP5 PUSH20 0xFFFFFFFFFFFFFFFFFFFFFFFFFFFFFFFFFFFFFFFF AND PUSH1 0x6 SLOAD DUP6 PUSH2 0xC47 SWAP2 SWAP1 PUSH2 0x17DB JUMP JUMPDEST PUSH1 0x40 MLOAD PUSH2 0xC53 SWAP1 PUSH2 0x1C6F JUMP JUMPDEST PUSH1 0x0 PUSH1 0x40 MLOAD DUP1 DUP4 SUB DUP2 DUP6 DUP8 GAS CALL SWAP3 POP POP POP RETURNDATASIZE DUP1 PUSH1 0x0 DUP2 EQ PUSH2 0xC90 JUMPI PUSH1 0x40 MLOAD SWAP2 POP PUSH1 0x1F NOT PUSH1 0x3F RETURNDATASIZE ADD AND DUP3 ADD PUSH1 0x40 MSTORE RETURNDATASIZE DUP3 MSTORE RETURNDATASIZE PUSH1 0x0 PUSH1 0x20 DUP5 ADD RETURNDATACOPY PUSH2 0xC95 JUMP JUMPDEST PUSH1 0x60 SWAP2 POP JUMPDEST POP POP POP PUSH2 0xCF2 JUMP JUMPDEST CALLER PUSH20 0xFFFFFFFFFFFFFFFFFFFFFFFFFFFFFFFFFFFFFFFF AND PUSH2 0x8FC PUSH1 0x6 SLOAD DUP7 PUSH2 0xCC5 SWAP2 SWAP1 PUSH2 0x17DB JUMP JUMPDEST SWAP1 DUP2 ISZERO MUL SWAP1 PUSH1 0x40 MLOAD PUSH1 0x0 PUSH1 0x40 MLOAD DUP1 DUP4 SUB DUP2 DUP6 DUP9 DUP9 CALL SWAP4 POP POP POP POP ISZERO DUP1 ISZERO PUSH2 0xCF0 JUMPI RETURNDATASIZE PUSH1 0x0 DUP1 RETURNDATACOPY RETURNDATASIZE PUSH1 0x0 REVERT JUMPDEST POP JUMPDEST POP POP POP POP POP POP POP POP JUMP JUMPDEST PUSH1 0x1 PUSH1 0x0 SWAP1 SLOAD SWAP1 PUSH2 0x100 EXP SWAP1 DIV PUSH20 0xFFFFFFFFFFFFFFFFFFFFFFFFFFFFFFFFFFFFFFFF AND PUSH20 0xFFFFFFFFFFFFFFFFFFFFFFFFFFFFFFFFFFFFFFFF AND CALLER PUSH20 0xFFFFFFFFFFFFFFFFFFFFFFFFFFFFFFFFFFFFFFFF AND EQ PUSH2 0xD8C JUMPI PUSH1 0x40 MLOAD PUSH32 0x8C379A000000000000000000000000000000000000000000000000000000000 DUP2 MSTORE PUSH1 0x4 ADD PUSH2 0xD83 SWAP1 PUSH2 0x1669 JUMP JUMPDEST PUSH1 0x40 MLOAD DUP1 SWAP2 SUB SWAP1 REVERT JUMPDEST DUP4 DUP6 PUSH2 0xD98 SWAP2 SWAP1 PUSH2 0x17DB JUMP JUMPDEST SELFBALANCE EQ PUSH2 0xDA3 JUMPI PUSH1 0x0 DUP1 REVERT JUMPDEST PUSH1 0x0 PUSH1 0x7 SLOAD EQ DUP1 ISZERO PUSH2 0xDB7 JUMPI POP PUSH1 0x0 PUSH1 0x8 SLOAD EQ JUMPDEST DUP1 ISZERO PUSH2 0xDC5 JUMPI POP PUSH1 0x0 PUSH1 0x9 SLOAD EQ JUMPDEST DUP1 ISZERO PUSH2 0xDDF JUMPI POP TIMESTAMP PUSH1 0x8 SLOAD PUSH1 0x7 SLOAD PUSH2 0xDDD SWAP2 SWAP1 PUSH2 0x16B8 JUMP JUMPDEST LT JUMPDEST DUP1 PUSH2 0xE1F JUMPI POP TIMESTAMP PUSH1 0x8 SLOAD PUSH1 0x7 SLOAD PUSH2 0xDF6 SWAP2 SWAP1 PUSH2 0x16B8 JUMP JUMPDEST LT DUP1 ISZERO PUSH2 0xE1E JUMPI POP PUSH1 0x9 SLOAD PUSH1 0x8 SLOAD PUSH1 0x7 SLOAD PUSH2 0xE11 SWAP2 SWAP1 PUSH2 0x16B8 JUMP JUMPDEST PUSH2 0xE1B SWAP2 SWAP1 PUSH2 0x16B8 JUMP JUMPDEST TIMESTAMP LT JUMPDEST JUMPDEST PUSH2 0xE28 JUMPI PUSH1 0x0 DUP1 REVERT JUMPDEST PUSH1 0x0 DUP1 DUP2 SWAP1 SSTORE POP DUP8 PUSH1 0x2 DUP2 SWAP1 SSTORE POP DUP7 PUSH1 0x3 DUP2 SWAP1 SSTORE POP DUP6 PUSH1 0x4 SWAP1 DUP1 MLOAD SWAP1 PUSH1 0x20 ADD SWAP1 PUSH2 0xE53 SWAP3 SWAP2 SWAP1 PUSH2 0xE87 JUMP JUMPDEST POP DUP5 PUSH1 0x5 DUP2 SWAP1 SSTORE POP DUP4 PUSH1 0x6 DUP2 SWAP1 SSTORE POP DUP3 PUSH1 0x7 DUP2 SWAP1 SSTORE POP DUP2 PUSH1 0x8 DUP2 SWAP1 SSTORE POP DUP1 PUSH1 0x9 DUP2 SWAP1 SSTORE POP POP POP POP POP POP POP POP POP JUMP JUMPDEST PUSH1 0x7 SLOAD DUP2 JUMP JUMPDEST DUP3 DUP1 SLOAD PUSH2 0xE93 SWAP1 PUSH2 0x17A9 JUMP JUMPDEST SWAP1 PUSH1 0x0 MSTORE PUSH1 0x20 PUSH1 0x0 KECCAK256 SWAP1 PUSH1 0x1F ADD PUSH1 0x20 SWAP1 DIV DUP2 ADD SWAP3 DUP3 PUSH2 0xEB5 JUMPI PUSH1 0x0 DUP6 SSTORE PUSH2 0xEFC JUMP JUMPDEST DUP3 PUSH1 0x1F LT PUSH2 0xECE JUMPI DUP1 MLOAD PUSH1 0xFF NOT AND DUP4 DUP1 ADD OR DUP6 SSTORE PUSH2 0xEFC JUMP JUMPDEST DUP3 DUP1 ADD PUSH1 0x1 ADD DUP6 SSTORE DUP3 ISZERO PUSH2 0xEFC JUMPI SWAP2 DUP3 ADD JUMPDEST DUP3 DUP2 GT ISZERO PUSH2 0xEFB JUMPI DUP3 MLOAD DUP3 SSTORE SWAP2 PUSH1 0x20 ADD SWAP2 SWAP1 PUSH1 0x1 ADD SWAP1 PUSH2 0xEE0 JUMP JUMPDEST JUMPDEST POP SWAP1 POP PUSH2 0xF09 SWAP2 SWAP1 PUSH2 0xF0D JUMP JUMPDEST POP SWAP1 JUMP JUMPDEST JUMPDEST DUP1 DUP3 GT ISZERO PUSH2 0xF26 JUMPI PUSH1 0x0 DUP2 PUSH1 0x0 SWAP1 SSTORE POP PUSH1 0x1 ADD PUSH2 0xF0E JUMP JUMPDEST POP SWAP1 JUMP JUMPDEST PUSH1 0x0 DUP2 MLOAD SWAP1 POP SWAP2 SWAP1 POP JUMP JUMPDEST PUSH1 0x0 DUP3 DUP3 MSTORE PUSH1 0x20 DUP3 ADD SWAP1 POP SWAP3 SWAP2 POP POP JUMP JUMPDEST PUSH1 0x0 JUMPDEST DUP4 DUP2 LT ISZERO PUSH2 0xF64 JUMPI DUP1 DUP3 ADD MLOAD DUP2 DUP5 ADD MSTORE PUSH1 0x20 DUP2 ADD SWAP1 POP PUSH2 0xF49 JUMP JUMPDEST DUP4 DUP2 GT ISZERO PUSH2 0xF73 JUMPI PUSH1 0x0 DUP5 DUP5 ADD MSTORE JUMPDEST POP POP POP POP JUMP JUMPDEST PUSH1 0x0 PUSH1 0x1F NOT PUSH1 0x1F DUP4 ADD AND SWAP1 POP SWAP2 SWAP1 POP JUMP JUMPDEST PUSH1 0x0 PUSH2 0xF95 DUP3 PUSH2 0xF2A JUMP JUMPDEST PUSH2 0xF9F DUP2 DUP6 PUSH2 0xF35 JUMP JUMPDEST SWAP4 POP PUSH2 0xFAF DUP2 DUP6 PUSH1 0x20 DUP7 ADD PUSH2 0xF46 JUMP JUMPDEST PUSH2 0xFB8 DUP2 PUSH2 0xF79 JUMP JUMPDEST DUP5 ADD SWAP2 POP POP SWAP3 SWAP2 POP POP JUMP JUMPDEST PUSH1 0x0 PUSH1 0x20 DUP3 ADD SWAP1 POP DUP2 DUP2 SUB PUSH1 0x0 DUP4 ADD MSTORE PUSH2 0xFDD DUP2 DUP5 PUSH2 0xF8A JUMP JUMPDEST SWAP1 POP SWAP3 SWAP2 POP POP JUMP JUMPDEST PUSH1 0x0 PUSH20 0xFFFFFFFFFFFFFFFFFFFFFFFFFFFFFFFFFFFFFFFF DUP3 AND SWAP1 POP SWAP2 SWAP1 POP JUMP JUMPDEST PUSH1 0x0 PUSH2 0x1010 DUP3 PUSH2 0xFE5 JUMP JUMPDEST SWAP1 POP SWAP2 SWAP1 POP JUMP JUMPDEST PUSH2 0x1020 DUP2 PUSH2 0x1005 JUMP JUMPDEST DUP3 MSTORE POP POP JUMP JUMPDEST PUSH1 0x0 PUSH1 0x20 DUP3 ADD SWAP1 POP PUSH2 0x103B PUSH1 0x0 DUP4 ADD DUP5 PUSH2 0x1017 JUMP JUMPDEST SWAP3 SWAP2 POP POP JUMP JUMPDEST PUSH1 0x0 DUP2 SWAP1 POP SWAP2 SWAP1 POP JUMP JUMPDEST PUSH2 0x1054 DUP2 PUSH2 0x1041 JUMP JUMPDEST DUP3 MSTORE POP POP JUMP JUMPDEST PUSH1 0x0 PUSH1 0x20 DUP3 ADD SWAP1 POP PUSH2 0x106F PUSH1 0x0 DUP4 ADD DUP5 PUSH2 0x104B JUMP JUMPDEST SWAP3 SWAP2 POP POP JUMP JUMPDEST PUSH1 0x0 PUSH1 0x40 MLOAD SWAP1 POP SWAP1 JUMP JUMPDEST PUSH1 0x0 DUP1 REVERT JUMPDEST PUSH1 0x0 DUP1 REVERT JUMPDEST PUSH2 0x1092 DUP2 PUSH2 0x1041 JUMP JUMPDEST DUP2 EQ PUSH2 0x109D JUMPI PUSH1 0x0 DUP1 REVERT JUMPDEST POP JUMP JUMPDEST PUSH1 0x0 DUP2 CALLDATALOAD SWAP1 POP PUSH2 0x10AF DUP2 PUSH2 0x1089 JUMP JUMPDEST SWAP3 SWAP2 POP POP JUMP JUMPDEST PUSH2 0x10BE DUP2 PUSH2 0x1005 JUMP JUMPDEST DUP2 EQ PUSH2 0x10C9 JUMPI PUSH1 0x0 DUP1 REVERT JUMPDEST POP JUMP JUMPDEST PUSH1 0x0 DUP2 CALLDATALOAD SWAP1 POP PUSH2 0x10DB DUP2 PUSH2 0x10B5 JUMP JUMPDEST SWAP3 SWAP2 POP POP JUMP JUMPDEST PUSH1 0x0 DUP2 SWAP1 POP SWAP2 SWAP1 POP JUMP JUMPDEST PUSH2 0x10F4 DUP2 PUSH2 0x10E1 JUMP JUMPDEST DUP2 EQ PUSH2 0x10FF JUMPI PUSH1 0x0 DUP1 REVERT JUMPDEST POP JUMP JUMPDEST PUSH1 0x0 DUP2 CALLDATALOAD SWAP1 POP PUSH2 0x1111 DUP2 PUSH2 0x10EB JUMP JUMPDEST SWAP3 SWAP2 POP POP JUMP JUMPDEST PUSH1 0x0 DUP1 REVERT JUMPDEST PUSH1 0x0 DUP1 REVERT JUMPDEST PUSH32 0x4E487B7100000000000000000000000000000000000000000000000000000000 PUSH1 0x0 MSTORE PUSH1 0x41 PUSH1 0x4 MSTORE PUSH1 0x24 PUSH1 0x0 REVERT JUMPDEST PUSH2 0x1159 DUP3 PUSH2 0xF79 JUMP JUMPDEST DUP2 ADD DUP2 DUP2 LT PUSH8 0xFFFFFFFFFFFFFFFF DUP3 GT OR ISZERO PUSH2 0x1178 JUMPI PUSH2 0x1177 PUSH2 0x1121 JUMP JUMPDEST JUMPDEST DUP1 PUSH1 0x40 MSTORE POP POP POP JUMP JUMPDEST PUSH1 0x0 PUSH2 0x118B PUSH2 0x1075 JUMP JUMPDEST SWAP1 POP PUSH2 0x1197 DUP3 DUP3 PUSH2 0x1150 JUMP JUMPDEST SWAP2 SWAP1 POP JUMP JUMPDEST PUSH1 0x0 PUSH8 0xFFFFFFFFFFFFFFFF DUP3 GT ISZERO PUSH2 0x11B7 JUMPI PUSH2 0x11B6 PUSH2 0x1121 JUMP JUMPDEST JUMPDEST PUSH2 0x11C0 DUP3 PUSH2 0xF79 JUMP JUMPDEST SWAP1 POP PUSH1 0x20 DUP2 ADD SWAP1 POP SWAP2 SWAP1 POP JUMP JUMPDEST DUP3 DUP2 DUP4 CALLDATACOPY PUSH1 0x0 DUP4 DUP4 ADD MSTORE POP POP POP JUMP JUMPDEST PUSH1 0x0 PUSH2 0x11EF PUSH2 0x11EA DUP5 PUSH2 0x119C JUMP JUMPDEST PUSH2 0x1181 JUMP JUMPDEST SWAP1 POP DUP3 DUP2 MSTORE PUSH1 0x20 DUP2 ADD DUP5 DUP5 DUP5 ADD GT ISZERO PUSH2 0x120B JUMPI PUSH2 0x120A PUSH2 0x111C JUMP JUMPDEST JUMPDEST PUSH2 0x1216 DUP5 DUP3 DUP6 PUSH2 0x11CD JUMP JUMPDEST POP SWAP4 SWAP3 POP POP POP JUMP JUMPDEST PUSH1 0x0 DUP3 PUSH1 0x1F DUP4 ADD SLT PUSH2 0x1233 JUMPI PUSH2 0x1232 PUSH2 0x1117 JUMP JUMPDEST JUMPDEST DUP2 CALLDATALOAD PUSH2 0x1243 DUP5 DUP3 PUSH1 0x20 DUP7 ADD PUSH2 0x11DC JUMP JUMPDEST SWAP2 POP POP SWAP3 SWAP2 POP POP JUMP JUMPDEST PUSH1 0x0 DUP1 PUSH1 0x0 DUP1 PUSH1 0x0 DUP1 PUSH1 0x0 DUP1 PUSH1 0x0 PUSH2 0x120 DUP11 DUP13 SUB SLT ISZERO PUSH2 0x126F JUMPI PUSH2 0x126E PUSH2 0x107F JUMP JUMPDEST JUMPDEST PUSH1 0x0 PUSH2 0x127D DUP13 DUP3 DUP14 ADD PUSH2 0x10A0 JUMP JUMPDEST SWAP10 POP POP PUSH1 0x20 PUSH2 0x128E DUP13 DUP3 DUP14 ADD PUSH2 0x10A0 JUMP JUMPDEST SWAP9 POP POP PUSH1 0x40 PUSH2 0x129F DUP13 DUP3 DUP14 ADD PUSH2 0x10CC JUMP JUMPDEST SWAP8 POP POP PUSH1 0x60 PUSH2 0x12B0 DUP13 DUP3 DUP14 ADD PUSH2 0x1102 JUMP JUMPDEST SWAP7 POP POP PUSH1 0x80 PUSH2 0x12C1 DUP13 DUP3 DUP14 ADD PUSH2 0x1102 JUMP JUMPDEST SWAP6 POP POP PUSH1 0xA0 DUP11 ADD CALLDATALOAD PUSH8 0xFFFFFFFFFFFFFFFF DUP2 GT ISZERO PUSH2 0x12E2 JUMPI PUSH2 0x12E1 PUSH2 0x1084 JUMP JUMPDEST JUMPDEST PUSH2 0x12EE DUP13 DUP3 DUP14 ADD PUSH2 0x121E JUMP JUMPDEST SWAP5 POP POP PUSH1 0xC0 PUSH2 0x12FF DUP13 DUP3 DUP14 ADD PUSH2 0x10A0 JUMP JUMPDEST SWAP4 POP POP PUSH1 0xE0 PUSH2 0x1310 DUP13 DUP3 DUP14 ADD PUSH2 0x10A0 JUMP JUMPDEST SWAP3 POP POP PUSH2 0x100 PUSH2 0x1322 DUP13 DUP3 DUP14 ADD PUSH2 0x10A0 JUMP JUMPDEST SWAP2 POP POP SWAP3 SWAP6 SWAP9 POP SWAP3 SWAP6 SWAP9 POP SWAP3 SWAP6 SWAP9 JUMP JUMPDEST PUSH2 0x133B DUP2 PUSH2 0x10E1 JUMP JUMPDEST DUP3 MSTORE POP POP JUMP JUMPDEST PUSH1 0x0 PUSH1 0x20 DUP3 ADD SWAP1 POP PUSH2 0x1356 PUSH1 0x0 DUP4 ADD DUP5 PUSH2 0x1332 JUMP JUMPDEST SWAP3 SWAP2 POP POP JUMP JUMPDEST PUSH1 0x0 DUP2 ISZERO ISZERO SWAP1 POP SWAP2 SWAP1 POP JUMP JUMPDEST PUSH2 0x1371 DUP2 PUSH2 0x135C JUMP JUMPDEST DUP3 MSTORE POP POP JUMP JUMPDEST PUSH1 0x0 PUSH1 0x20 DUP3 ADD SWAP1 POP PUSH2 0x138C PUSH1 0x0 DUP4 ADD DUP5 PUSH2 0x1368 JUMP JUMPDEST SWAP3 SWAP2 POP POP JUMP JUMPDEST PUSH1 0x0 DUP1 PUSH1 0x0 PUSH1 0x60 DUP5 DUP7 SUB SLT ISZERO PUSH2 0x13AB JUMPI PUSH2 0x13AA PUSH2 0x107F JUMP JUMPDEST JUMPDEST PUSH1 0x0 PUSH2 0x13B9 DUP7 DUP3 DUP8 ADD PUSH2 0x10A0 JUMP JUMPDEST SWAP4 POP POP PUSH1 0x20 PUSH2 0x13CA DUP7 DUP3 DUP8 ADD PUSH2 0x10A0 JUMP JUMPDEST SWAP3 POP POP PUSH1 0x40 PUSH2 0x13DB DUP7 DUP3 DUP8 ADD PUSH2 0x10CC JUMP JUMPDEST SWAP2 POP POP SWAP3 POP SWAP3 POP SWAP3 JUMP JUMPDEST PUSH1 0x0 PUSH8 0xFFFFFFFFFFFFFFFF DUP3 GT ISZERO PUSH2 0x1400 JUMPI PUSH2 0x13FF PUSH2 0x1121 JUMP JUMPDEST JUMPDEST PUSH2 0x1409 DUP3 PUSH2 0xF79 JUMP JUMPDEST SWAP1 POP PUSH1 0x20 DUP2 ADD SWAP1 POP SWAP2 SWAP1 POP JUMP JUMPDEST PUSH1 0x0 PUSH2 0x1429 PUSH2 0x1424 DUP5 PUSH2 0x13E5 JUMP JUMPDEST PUSH2 0x1181 JUMP JUMPDEST SWAP1 POP DUP3 DUP2 MSTORE PUSH1 0x20 DUP2 ADD DUP5 DUP5 DUP5 ADD GT ISZERO PUSH2 0x1445 JUMPI PUSH2 0x1444 PUSH2 0x111C JUMP JUMPDEST JUMPDEST PUSH2 0x1450 DUP5 DUP3 DUP6 PUSH2 0x11CD JUMP JUMPDEST POP SWAP4 SWAP3 POP POP POP JUMP JUMPDEST PUSH1 0x0 DUP3 PUSH1 0x1F DUP4 ADD SLT PUSH2 0x146D JUMPI PUSH2 0x146C PUSH2 0x1117 JUMP JUMPDEST JUMPDEST DUP2 CALLDATALOAD PUSH2 0x147D DUP5 DUP3 PUSH1 0x20 DUP7 ADD PUSH2 0x1416 JUMP JUMPDEST SWAP2 POP POP SWAP3 SWAP2 POP POP JUMP JUMPDEST PUSH1 0x0 DUP1 PUSH1 0x0 DUP1 PUSH1 0x80 DUP6 DUP8 SUB SLT ISZERO PUSH2 0x14A0 JUMPI PUSH2 0x149F PUSH2 0x107F JUMP JUMPDEST JUMPDEST PUSH1 0x0 DUP6 ADD CALLDATALOAD PUSH8 0xFFFFFFFFFFFFFFFF DUP2 GT ISZERO PUSH2 0x14BE JUMPI PUSH2 0x14BD PUSH2 0x1084 JUMP JUMPDEST JUMPDEST PUSH2 0x14CA DUP8 DUP3 DUP9 ADD PUSH2 0x1458 JUMP JUMPDEST SWAP5 POP POP PUSH1 0x20 DUP6 ADD CALLDATALOAD PUSH8 0xFFFFFFFFFFFFFFFF DUP2 GT ISZERO PUSH2 0x14EB JUMPI PUSH2 0x14EA PUSH2 0x1084 JUMP JUMPDEST JUMPDEST PUSH2 0x14F7 DUP8 DUP3 DUP9 ADD PUSH2 0x1458 JUMP JUMPDEST SWAP4 POP POP PUSH1 0x40 PUSH2 0x1508 DUP8 DUP3 DUP9 ADD PUSH2 0x10A0 JUMP JUMPDEST SWAP3 POP POP PUSH1 0x60 PUSH2 0x1519 DUP8 DUP3 DUP9 ADD PUSH2 0x10CC JUMP JUMPDEST SWAP2 POP POP SWAP3 SWAP6 SWAP2 SWAP5 POP SWAP3 POP JUMP JUMPDEST PUSH1 0x0 DUP1 PUSH1 0x0 DUP1 PUSH1 0x0 DUP1 PUSH1 0x0 DUP1 PUSH2 0x100 DUP10 DUP12 SUB SLT ISZERO PUSH2 0x1546 JUMPI PUSH2 0x1545 PUSH2 0x107F JUMP JUMPDEST JUMPDEST PUSH1 0x0 PUSH2 0x1554 DUP12 DUP3 DUP13 ADD PUSH2 0x1102 JUMP JUMPDEST SWAP9 POP POP PUSH1 0x20 PUSH2 0x1565 DUP12 DUP3 DUP13 ADD PUSH2 0x1102 JUMP JUMPDEST SWAP8 POP POP PUSH1 0x40 DUP10 ADD CALLDATALOAD PUSH8 0xFFFFFFFFFFFFFFFF DUP2 GT ISZERO PUSH2 0x1586 JUMPI PUSH2 0x1585 PUSH2 0x1084 JUMP JUMPDEST JUMPDEST PUSH2 0x1592 DUP12 DUP3 DUP13 ADD PUSH2 0x121E JUMP JUMPDEST SWAP7 POP POP PUSH1 0x60 PUSH2 0x15A3 DUP12 DUP3 DUP13 ADD PUSH2 0x10A0 JUMP JUMPDEST SWAP6 POP POP PUSH1 0x80 PUSH2 0x15B4 DUP12 DUP3 DUP13 ADD PUSH2 0x10A0 JUMP JUMPDEST SWAP5 POP POP PUSH1 0xA0 PUSH2 0x15C5 DUP12 DUP3 DUP13 ADD PUSH2 0x10A0 JUMP JUMPDEST SWAP4 POP POP PUSH1 0xC0 PUSH2 0x15D6 DUP12 DUP3 DUP13 ADD PUSH2 0x10A0 JUMP JUMPDEST SWAP3 POP POP PUSH1 0xE0 PUSH2 0x15E7 DUP12 DUP3 DUP13 ADD PUSH2 0x10A0 JUMP JUMPDEST SWAP2 POP POP SWAP3 SWAP6 SWAP9 POP SWAP3 SWAP6 SWAP9 SWAP1 SWAP4 SWAP7 POP JUMP JUMPDEST PUSH32 0x4F6E6C7920637573746F6D6572206F66207468652064656C6976657279206361 PUSH1 0x0 DUP3 ADD MSTORE PUSH32 0x6E2073657420746865206368616E6E656C20706172616D732E00000000000000 PUSH1 0x20 DUP3 ADD MSTORE POP JUMP JUMPDEST PUSH1 0x0 PUSH2 0x1653 PUSH1 0x39 DUP4 PUSH2 0xF35 JUMP JUMPDEST SWAP2 POP PUSH2 0x165E DUP3 PUSH2 0x15F7 JUMP JUMPDEST PUSH1 0x40 DUP3 ADD SWAP1 POP SWAP2 SWAP1 POP JUMP JUMPDEST PUSH1 0x0 PUSH1 0x20 DUP3 ADD SWAP1 POP DUP2 DUP2 SUB PUSH1 0x0 DUP4 ADD MSTORE PUSH2 0x1682 DUP2 PUSH2 0x1646 JUMP JUMPDEST SWAP1 POP SWAP2 SWAP1 POP JUMP JUMPDEST PUSH32 0x4E487B7100000000000000000000000000000000000000000000000000000000 PUSH1 0x0 MSTORE PUSH1 0x11 PUSH1 0x4 MSTORE PUSH1 0x24 PUSH1 0x0 REVERT JUMPDEST PUSH1 0x0 PUSH2 0x16C3 DUP3 PUSH2 0x1041 JUMP JUMPDEST SWAP2 POP PUSH2 0x16CE DUP4 PUSH2 0x1041 JUMP JUMPDEST SWAP3 POP DUP3 PUSH32 0xFFFFFFFFFFFFFFFFFFFFFFFFFFFFFFFFFFFFFFFFFFFFFFFFFFFFFFFFFFFFFFFF SUB DUP3 GT ISZERO PUSH2 0x1703 JUMPI PUSH2 0x1702 PUSH2 0x1689 JUMP JUMPDEST JUMPDEST DUP3 DUP3 ADD SWAP1 POP SWAP3 SWAP2 POP POP JUMP JUMPDEST PUSH32 0x54696D65206572726F7200000000000000000000000000000000000000000000 PUSH1 0x0 DUP3 ADD MSTORE POP JUMP JUMPDEST PUSH1 0x0 PUSH2 0x1744 PUSH1 0xA DUP4 PUSH2 0xF35 JUMP JUMPDEST SWAP2 POP PUSH2 0x174F DUP3 PUSH2 0x170E JUMP JUMPDEST PUSH1 0x20 DUP3 ADD SWAP1 POP SWAP2 SWAP1 POP JUMP JUMPDEST PUSH1 0x0 PUSH1 0x20 DUP3 ADD SWAP1 POP DUP2 DUP2 SUB PUSH1 0x0 DUP4 ADD MSTORE PUSH2 0x1773 DUP2 PUSH2 0x1737 JUMP JUMPDEST SWAP1 POP SWAP2 SWAP1 POP JUMP JUMPDEST PUSH32 0x4E487B7100000000000000000000000000000000000000000000000000000000 PUSH1 0x0 MSTORE PUSH1 0x22 PUSH1 0x4 MSTORE PUSH1 0x24 PUSH1 0x0 REVERT JUMPDEST PUSH1 0x0 PUSH1 0x2 DUP3 DIV SWAP1 POP PUSH1 0x1 DUP3 AND DUP1 PUSH2 0x17C1 JUMPI PUSH1 0x7F DUP3 AND SWAP2 POP JUMPDEST PUSH1 0x20 DUP3 LT DUP2 EQ ISZERO PUSH2 0x17D5 JUMPI PUSH2 0x17D4 PUSH2 0x177A JUMP JUMPDEST JUMPDEST POP SWAP2 SWAP1 POP JUMP JUMPDEST PUSH1 0x0 PUSH2 0x17E6 DUP3 PUSH2 0x1041 JUMP JUMPDEST SWAP2 POP PUSH2 0x17F1 DUP4 PUSH2 0x1041 JUMP JUMPDEST SWAP3 POP DUP2 PUSH32 0xFFFFFFFFFFFFFFFFFFFFFFFFFFFFFFFFFFFFFFFFFFFFFFFFFFFFFFFFFFFFFFFF DIV DUP4 GT DUP3 ISZERO ISZERO AND ISZERO PUSH2 0x182A JUMPI PUSH2 0x1829 PUSH2 0x1689 JUMP JUMPDEST JUMPDEST DUP3 DUP3 MUL SWAP1 POP SWAP3 SWAP2 POP POP JUMP JUMPDEST PUSH32 0x62616C616E6365206572726F7200000000000000000000000000000000000000 PUSH1 0x0 DUP3 ADD MSTORE POP JUMP JUMPDEST PUSH1 0x0 PUSH2 0x186B PUSH1 0xD DUP4 PUSH2 0xF35 JUMP JUMPDEST SWAP2 POP PUSH2 0x1876 DUP3 PUSH2 0x1835 JUMP JUMPDEST PUSH1 0x20 DUP3 ADD SWAP1 POP SWAP2 SWAP1 POP JUMP JUMPDEST PUSH1 0x0 PUSH1 0x20 DUP3 ADD SWAP1 POP DUP2 DUP2 SUB PUSH1 0x0 DUP4 ADD MSTORE PUSH2 0x189A DUP2 PUSH2 0x185E JUMP JUMPDEST SWAP1 POP SWAP2 SWAP1 POP JUMP JUMPDEST PUSH32 0x6B203C3D206A0000000000000000000000000000000000000000000000000000 PUSH1 0x0 DUP3 ADD MSTORE POP JUMP JUMPDEST PUSH1 0x0 PUSH2 0x18D7 PUSH1 0x6 DUP4 PUSH2 0xF35 JUMP JUMPDEST SWAP2 POP PUSH2 0x18E2 DUP3 PUSH2 0x18A1 JUMP JUMPDEST PUSH1 0x20 DUP3 ADD SWAP1 POP SWAP2 SWAP1 POP JUMP JUMPDEST PUSH1 0x0 PUSH1 0x20 DUP3 ADD SWAP1 POP DUP2 DUP2 SUB PUSH1 0x0 DUP4 ADD MSTORE PUSH2 0x1906 DUP2 PUSH2 0x18CA JUMP JUMPDEST SWAP1 POP SWAP2 SWAP1 POP JUMP JUMPDEST PUSH1 0x0 DUP2 MLOAD SWAP1 POP SWAP2 SWAP1 POP JUMP JUMPDEST PUSH1 0x0 DUP2 SWAP1 POP PUSH1 0x20 DUP3 ADD SWAP1 POP SWAP2 SWAP1 POP JUMP JUMPDEST PUSH1 0x0 PUSH2 0x1934 DUP3 MLOAD PUSH2 0x10E1 JUMP JUMPDEST DUP1 SWAP2 POP POP SWAP2 SWAP1 POP JUMP JUMPDEST PUSH1 0x0 DUP3 DUP3 SHL SWAP1 POP SWAP3 SWAP2 POP POP JUMP JUMPDEST PUSH1 0x0 PUSH2 0x1955 DUP3 PUSH2 0x190D JUMP JUMPDEST DUP3 PUSH2 0x195F DUP5 PUSH2 0x1918 JUMP JUMPDEST SWAP1 POP PUSH2 0x196A DUP2 PUSH2 0x1928 JUMP JUMPDEST SWAP3 POP PUSH1 0x20 DUP3 LT ISZERO PUSH2 0x19AA JUMPI PUSH2 0x19A5 PUSH32 0xFFFFFFFFFFFFFFFFFFFFFFFFFFFFFFFFFFFFFFFFFFFFFFFFFFFFFFFFFFFFFFFF DUP4 PUSH1 0x20 SUB PUSH1 0x8 MUL PUSH2 0x193D JUMP JUMPDEST DUP4 AND SWAP3 POP JUMPDEST POP POP SWAP2 SWAP1 POP JUMP JUMPDEST PUSH1 0x0 PUSH2 0x19BC DUP3 PUSH2 0x1041 JUMP JUMPDEST SWAP2 POP PUSH2 0x19C7 DUP4 PUSH2 0x1041 JUMP JUMPDEST SWAP3 POP DUP3 DUP3 LT ISZERO PUSH2 0x19DA JUMPI PUSH2 0x19D9 PUSH2 0x1689 JUMP JUMPDEST JUMPDEST DUP3 DUP3 SUB SWAP1 POP SWAP3 SWAP2 POP POP JUMP JUMPDEST PUSH1 0x0 DUP2 SWAP1 POP SWAP2 SWAP1 POP JUMP JUMPDEST PUSH2 0x1A00 PUSH2 0x19FB DUP3 PUSH2 0x10E1 JUMP JUMPDEST PUSH2 0x19E5 JUMP JUMPDEST DUP3 MSTORE POP POP JUMP JUMPDEST PUSH1 0x0 PUSH2 0x1A12 DUP3 DUP5 PUSH2 0x19EF JUMP JUMPDEST PUSH1 0x20 DUP3 ADD SWAP2 POP DUP2 SWAP1 POP SWAP3 SWAP2 POP POP JUMP JUMPDEST PUSH1 0x0 DUP2 SWAP1 POP SWAP3 SWAP2 POP POP JUMP JUMPDEST PUSH1 0x0 PUSH2 0x1A37 DUP3 PUSH2 0x190D JUMP JUMPDEST PUSH2 0x1A41 DUP2 DUP6 PUSH2 0x1A21 JUMP JUMPDEST SWAP4 POP PUSH2 0x1A51 DUP2 DUP6 PUSH1 0x20 DUP7 ADD PUSH2 0xF46 JUMP JUMPDEST DUP1 DUP5 ADD SWAP2 POP POP SWAP3 SWAP2 POP POP JUMP JUMPDEST PUSH1 0x0 PUSH2 0x1A69 DUP3 DUP5 PUSH2 0x1A2C JUMP JUMPDEST SWAP2 POP DUP2 SWAP1 POP SWAP3 SWAP2 POP POP JUMP JUMPDEST PUSH1 0x0 DUP2 MLOAD SWAP1 POP PUSH2 0x1A83 DUP2 PUSH2 0x10EB JUMP JUMPDEST SWAP3 SWAP2 POP POP JUMP JUMPDEST PUSH1 0x0 PUSH1 0x20 DUP3 DUP5 SUB SLT ISZERO PUSH2 0x1A9F JUMPI PUSH2 0x1A9E PUSH2 0x107F JUMP JUMPDEST JUMPDEST PUSH1 0x0 PUSH2 0x1AAD DUP5 DUP3 DUP6 ADD PUSH2 0x1A74 JUMP JUMPDEST SWAP2 POP POP SWAP3 SWAP2 POP POP JUMP JUMPDEST PUSH1 0x0 PUSH2 0x1AC1 DUP3 PUSH2 0x1041 JUMP JUMPDEST SWAP2 POP PUSH1 0x0 DUP3 EQ ISZERO PUSH2 0x1AD5 JUMPI PUSH2 0x1AD4 PUSH2 0x1689 JUMP JUMPDEST JUMPDEST PUSH1 0x1 DUP3 SUB SWAP1 POP SWAP2 SWAP1 POP JUMP JUMPDEST PUSH32 0x575F6B6D20697320696E636F7272656374000000000000000000000000000000 PUSH1 0x0 DUP3 ADD MSTORE POP JUMP JUMPDEST PUSH1 0x0 PUSH2 0x1B16 PUSH1 0x11 DUP4 PUSH2 0xF35 JUMP JUMPDEST SWAP2 POP PUSH2 0x1B21 DUP3 PUSH2 0x1AE0 JUMP JUMPDEST PUSH1 0x20 DUP3 ADD SWAP1 POP SWAP2 SWAP1 POP JUMP JUMPDEST PUSH1 0x0 PUSH1 0x20 DUP3 ADD SWAP1 POP DUP2 DUP2 SUB PUSH1 0x0 DUP4 ADD MSTORE PUSH2 0x1B45 DUP2 PUSH2 0x1B09 JUMP JUMPDEST SWAP1 POP SWAP2 SWAP1 POP JUMP JUMPDEST PUSH32 0x575F6B6320697320696E636F7272656374000000000000000000000000000000 PUSH1 0x0 DUP3 ADD MSTORE POP JUMP JUMPDEST PUSH1 0x0 PUSH2 0x1B82 PUSH1 0x11 DUP4 PUSH2 0xF35 JUMP JUMPDEST SWAP2 POP PUSH2 0x1B8D DUP3 PUSH2 0x1B4C JUMP JUMPDEST PUSH1 0x20 DUP3 ADD SWAP1 POP SWAP2 SWAP1 POP JUMP JUMPDEST PUSH1 0x0 PUSH1 0x20 DUP3 ADD SWAP1 POP DUP2 DUP2 SUB PUSH1 0x0 DUP4 ADD MSTORE PUSH2 0x1BB1 DUP2 PUSH2 0x1B75 JUMP JUMPDEST SWAP1 POP SWAP2 SWAP1 POP JUMP JUMPDEST PUSH32 0x4E487B7100000000000000000000000000000000000000000000000000000000 PUSH1 0x0 MSTORE PUSH1 0x12 PUSH1 0x4 MSTORE PUSH1 0x24 PUSH1 0x0 REVERT JUMPDEST PUSH1 0x0 PUSH2 0x1BF2 DUP3 PUSH2 0x1041 JUMP JUMPDEST SWAP2 POP PUSH2 0x1BFD DUP4 PUSH2 0x1041 JUMP JUMPDEST SWAP3 POP DUP3 PUSH2 0x1C0D JUMPI PUSH2 0x1C0C PUSH2 0x1BB8 JUMP JUMPDEST JUMPDEST DUP3 DUP3 MOD SWAP1 POP SWAP3 SWAP2 POP POP JUMP JUMPDEST PUSH1 0x0 PUSH2 0x1C23 DUP3 PUSH2 0x1041 JUMP JUMPDEST SWAP2 POP PUSH2 0x1C2E DUP4 PUSH2 0x1041 JUMP JUMPDEST SWAP3 POP DUP3 PUSH2 0x1C3E JUMPI PUSH2 0x1C3D PUSH2 0x1BB8 JUMP JUMPDEST JUMPDEST DUP3 DUP3 DIV SWAP1 POP SWAP3 SWAP2 POP POP JUMP JUMPDEST POP JUMP JUMPDEST PUSH1 0x0 PUSH2 0x1C59 PUSH1 0x0 DUP4 PUSH2 0x1A21 JUMP JUMPDEST SWAP2 POP PUSH2 0x1C64 DUP3 PUSH2 0x1C49 JUMP JUMPDEST PUSH1 0x0 DUP3 ADD SWAP1 POP SWAP2 SWAP1 POP JUMP JUMPDEST PUSH1 0x0 PUSH2 0x1C7A DUP3 PUSH2 0x1C4C JUMP JUMPDEST SWAP2 POP DUP2 SWAP1 POP SWAP2 SWAP1 POP JUMP INVALID LOG2 PUSH5 0x6970667358 0x22 SLT KECCAK256 SWAP1 SELFDESTRUCT 0x23 0x4A 0xC3 DUP2 DUP13 EXTCODESIZE 0x1E 0x5E PUSH27 0x6A48963F784F91A44B1E37EB2D4EFC32964527D77964736F6C6343 STOP ADDMOD MULMOD STOP CALLER "
    },
    "gasEstimates": {
      "creation": {
        "codeDepositCost": "775200",
        "executionCost": "infinite",
        "totalCost": "infinite"
      },
      "external": {
        "channels(uint256)": "5000",
        "createChannel(uint256,uint256)": "infinite",
        "createChannel(uint256,uint256,bytes32,bytes32,string,uint256,uint256,uint256)": "infinite",
        "getChannels(uint256)": "5033",
        "getChannelsCount()": "2446",
        "getOwnerChannels(address)": "infinite",
        "getOwnerChannelsCount(address)": "2872",
        "ownerChannels(address,uint256)": "infinite"
      },
      "internal": {
        "createClone(address)": "infinite"
      }
    },
    "methodIdentifiers": {
      "channels(uint256)": "e5949b5d",
      "createChannel(uint256,uint256)": "77b6198f",
      "createChannel(uint256,uint256,bytes32,bytes32,string,uint256,uint256,uint256)": "7443599a",
      "getChannels(uint256)": "e6359779",
      "getChannelsCount()": "502512cb",
      "getOwnerChannels(address)": "e156b0d0",
      "getOwnerChannelsCount(address)": "662f2e9d",
      "ownerChannels(address,uint256)": "b21bef4d"
    }
  },
  "storageLayout": {
    "storage": [
      {
        "astId": 6,
        "contract": "channel.sol:factoryChannel",
        "label": "ownerChannels",
        "offset": 0,
        "slot": "0",
        "type": "t_mapping(t_address,t_array(t_address)dyn_storage)"
      },
      {
        "astId": 9,
        "contract": "channel.sol:factoryChannel",
        "label": "channels",
        "offset": 0,
        "slot": "1",
        "type": "t_array(t_address)dyn_storage"
      }
    ],
    "types": {
      "t_address": {
        "encoding": "inplace",
        "label": "address",
        "numberOfBytes": "20"
      },
      "t_array(t_address)dyn_storage": {
        "base": "t_address",
        "encoding": "dynamic_array",
        "label": "address[]",
        "numberOfBytes": "32"
      },
      "t_mapping(t_address,t_array(t_address)dyn_storage)": {
        "encoding": "mapping",
        "key": "t_address",
        "label": "mapping(address => address[])",
        "numberOfBytes": "32",
        "value": "t_array(t_address)dyn_storage"
      }
    }
  },
  "userdoc": {
    "kind": "user",
    "methods": {},
    "version": 1
  },
  "address": "0x165B9e5B40A8D6C9Ed6b72425Cfd404b03Ee36ef"
}