{
	"contracts/channel.sol": {
		"channel": {
			"abi": [
				{
					"inputs": [],
					"stateMutability": "nonpayable",
					"type": "constructor"
				},
				{
					"stateMutability": "payable",
					"type": "fallback"
				},
				{
					"inputs": [],
					"name": "S_id",
					"outputs": [
						{
							"internalType": "string",
							"name": "",
							"type": "string"
						}
					],
					"stateMutability": "view",
					"type": "function"
				},
				{
					"inputs": [],
					"name": "TD",
					"outputs": [
						{
							"internalType": "uint256",
							"name": "",
							"type": "uint256"
						}
					],
					"stateMutability": "view",
					"type": "function"
				},
				{
					"inputs": [],
					"name": "TR",
					"outputs": [
						{
							"internalType": "uint256",
							"name": "",
							"type": "uint256"
						}
					],
					"stateMutability": "view",
					"type": "function"
				},
				{
					"inputs": [],
					"name": "T_exp",
					"outputs": [
						{
							"internalType": "uint256",
							"name": "",
							"type": "uint256"
						}
					],
					"stateMutability": "view",
					"type": "function"
				},
				{
					"inputs": [],
					"name": "W_jc",
					"outputs": [
						{
							"internalType": "bytes32",
							"name": "",
							"type": "bytes32"
						}
					],
					"stateMutability": "view",
					"type": "function"
				},
				{
					"inputs": [],
					"name": "W_jm",
					"outputs": [
						{
							"internalType": "bytes32",
							"name": "",
							"type": "bytes32"
						}
					],
					"stateMutability": "view",
					"type": "function"
				},
				{
					"inputs": [],
					"name": "c",
					"outputs": [
						{
							"internalType": "uint256",
							"name": "",
							"type": "uint256"
						}
					],
					"stateMutability": "view",
					"type": "function"
				},
				{
					"inputs": [],
					"name": "channelClose",
					"outputs": [],
					"stateMutability": "payable",
					"type": "function"
				},
				{
					"inputs": [],
					"name": "customer",
					"outputs": [
						{
							"internalType": "address",
							"name": "",
							"type": "address"
						}
					],
					"stateMutability": "view",
					"type": "function"
				},
				{
					"inputs": [
						{
							"internalType": "uint256",
							"name": "_c",
							"type": "uint256"
						},
						{
							"internalType": "uint256",
							"name": "_v",
							"type": "uint256"
						},
						{
							"internalType": "address",
							"name": "_customer",
							"type": "address"
						},
						{
							"internalType": "bytes32",
							"name": "_W_jm",
							"type": "bytes32"
						},
						{
							"internalType": "bytes32",
							"name": "_W_jc",
							"type": "bytes32"
						},
						{
							"internalType": "string",
							"name": "_S_id",
							"type": "string"
						},
						{
							"internalType": "uint256",
							"name": "_T_exp",
							"type": "uint256"
						},
						{
							"internalType": "uint256",
							"name": "_TD",
							"type": "uint256"
						},
						{
							"internalType": "uint256",
							"name": "_TR",
							"type": "uint256"
						}
					],
					"name": "initialize",
					"outputs": [],
					"stateMutability": "payable",
					"type": "function"
				},
				{
					"inputs": [
						{
							"internalType": "uint256",
							"name": "_c",
							"type": "uint256"
						},
						{
							"internalType": "uint256",
							"name": "_v",
							"type": "uint256"
						},
						{
							"internalType": "address",
							"name": "_customer",
							"type": "address"
						}
					],
					"name": "initialize",
					"outputs": [],
					"stateMutability": "payable",
					"type": "function"
				},
				{
					"inputs": [],
					"name": "isBase",
					"outputs": [
						{
							"internalType": "bool",
							"name": "",
							"type": "bool"
						}
					],
					"stateMutability": "view",
					"type": "function"
				},
				{
					"inputs": [],
					"name": "j",
					"outputs": [
						{
							"internalType": "uint256",
							"name": "",
							"type": "uint256"
						}
					],
					"stateMutability": "view",
					"type": "function"
				},
				{
					"inputs": [
						{
							"internalType": "bytes32",
							"name": "_W_jm",
							"type": "bytes32"
						},
						{
							"internalType": "bytes32",
							"name": "_W_jc",
							"type": "bytes32"
						},
						{
							"internalType": "string",
							"name": "_S_id",
							"type": "string"
						},
						{
							"internalType": "uint256",
							"name": "_c",
							"type": "uint256"
						},
						{
							"internalType": "uint256",
							"name": "_v",
							"type": "uint256"
						},
						{
							"internalType": "uint256",
							"name": "_T_exp",
							"type": "uint256"
						},
						{
							"internalType": "uint256",
							"name": "_TD",
							"type": "uint256"
						},
						{
							"internalType": "uint256",
							"name": "_TR",
							"type": "uint256"
						}
					],
					"name": "setChannelParams",
					"outputs": [],
					"stateMutability": "nonpayable",
					"type": "function"
				},
				{
					"inputs": [
						{
							"internalType": "bytes",
							"name": "_W_km",
							"type": "bytes"
						},
						{
							"internalType": "bytes",
							"name": "_W_kc",
							"type": "bytes"
						},
						{
							"internalType": "uint256",
							"name": "k",
							"type": "uint256"
						},
						{
							"internalType": "address",
							"name": "newChannelAddress",
							"type": "address"
						}
					],
					"name": "transferDeposit",
					"outputs": [],
					"stateMutability": "nonpayable",
					"type": "function"
				},
				{
					"inputs": [],
					"name": "v",
					"outputs": [
						{
							"internalType": "uint256",
							"name": "",
							"type": "uint256"
						}
					],
					"stateMutability": "view",
					"type": "function"
				},
				{
					"stateMutability": "payable",
					"type": "receive"
				}
			],
			"devdoc": {
				"kind": "dev",
				"methods": {},
				"version": 1
			},
			"evm": {
				"assembly": "    /* \"contracts/channel.sol\":2323:7334  contract channel{\r... */\n  mstore(0x40, 0x80)\n    /* \"contracts/channel.sol\":2953:3064  constructor(){\r... */\n  callvalue\n  dup1\n  iszero\n  tag_1\n  jumpi\n  0x00\n  dup1\n  revert\ntag_1:\n  pop\n    /* \"contracts/channel.sol\":3052:3056  true */\n  0x01\n    /* \"contracts/channel.sol\":3043:3049  isBase */\n  0x0a\n  0x00\n    /* \"contracts/channel.sol\":3043:3056  isBase = true */\n  0x0100\n  exp\n  dup2\n  sload\n  dup2\n  0xff\n  mul\n  not\n  and\n  swap1\n  dup4\n  iszero\n  iszero\n  mul\n  or\n  swap1\n  sstore\n  pop\n    /* \"contracts/channel.sol\":2323:7334  contract channel{\r... */\n  dataSize(sub_0)\n  dup1\n  dataOffset(sub_0)\n  0x00\n  codecopy\n  0x00\n  return\nstop\n\nsub_0: assembly {\n        /* \"contracts/channel.sol\":2323:7334  contract channel{\r... */\n      mstore(0x40, 0x80)\n      jumpi(tag_1, lt(calldatasize, 0x04))\n      shr(0xe0, calldataload(0x00))\n      dup1\n      0x88bf1930\n      gt\n      tag_19\n      jumpi\n      dup1\n      0xc3da42b8\n      gt\n      tag_20\n      jumpi\n      dup1\n      0xc3da42b8\n      eq\n      tag_15\n      jumpi\n      dup1\n      0xd8befbb6\n      eq\n      tag_16\n      jumpi\n      dup1\n      0xe8de68cc\n      eq\n      tag_17\n      jumpi\n      dup1\n      0xf493e870\n      eq\n      tag_18\n      jumpi\n      jump(tag_2)\n    tag_20:\n      dup1\n      0x88bf1930\n      eq\n      tag_11\n      jumpi\n      dup1\n      0x9c21a9b8\n      eq\n      tag_12\n      jumpi\n      dup1\n      0xa6ab36f2\n      eq\n      tag_13\n      jumpi\n      dup1\n      0xb582ec5f\n      eq\n      tag_14\n      jumpi\n      jump(tag_2)\n    tag_19:\n      dup1\n      0x50b1ad6b\n      gt\n      tag_21\n      jumpi\n      dup1\n      0x50b1ad6b\n      eq\n      tag_7\n      jumpi\n      dup1\n      0x5e650318\n      eq\n      tag_8\n      jumpi\n      dup1\n      0x7c2efcba\n      eq\n      tag_9\n      jumpi\n      dup1\n      0x7f80069a\n      eq\n      tag_10\n      jumpi\n      jump(tag_2)\n    tag_21:\n      dup1\n      0x0482ff76\n      eq\n      tag_3\n      jumpi\n      dup1\n      0x24763493\n      eq\n      tag_4\n      jumpi\n      dup1\n      0x2804b2c0\n      eq\n      tag_5\n      jumpi\n      dup1\n      0x34133df9\n      eq\n      tag_6\n      jumpi\n      jump(tag_2)\n    tag_1:\n      jumpi(tag_2, calldatasize)\n      stop\n    tag_2:\n      stop\n        /* \"contracts/channel.sol\":6730:6940  function channelClose() public payable onlyOwner{\r... */\n    tag_3:\n      tag_26\n      tag_27\n      jump\t// in\n    tag_26:\n      stop\n        /* \"contracts/channel.sol\":2666:2684  string public S_id */\n    tag_4:\n      callvalue\n      dup1\n      iszero\n      tag_28\n      jumpi\n      0x00\n      dup1\n      revert\n    tag_28:\n      pop\n      tag_29\n      tag_30\n      jump\t// in\n    tag_29:\n      mload(0x40)\n      tag_31\n      swap2\n      swap1\n      tag_32\n      jump\t// in\n    tag_31:\n      mload(0x40)\n      dup1\n      swap2\n      sub\n      swap1\n      return\n        /* \"contracts/channel.sol\":2407:2430  address public customer */\n    tag_5:\n      callvalue\n      dup1\n      iszero\n      tag_33\n      jumpi\n      0x00\n      dup1\n      revert\n    tag_33:\n      pop\n      tag_34\n      tag_35\n      jump\t// in\n    tag_34:\n      mload(0x40)\n      tag_36\n      swap2\n      swap1\n      tag_37\n      jump\t// in\n    tag_36:\n      mload(0x40)\n      dup1\n      swap2\n      sub\n      swap1\n      return\n        /* \"contracts/channel.sol\":2883:2900  uint256 public TR */\n    tag_6:\n      callvalue\n      dup1\n      iszero\n      tag_38\n      jumpi\n      0x00\n      dup1\n      revert\n    tag_38:\n      pop\n      tag_39\n      tag_40\n      jump\t// in\n    tag_39:\n      mload(0x40)\n      tag_41\n      swap2\n      swap1\n      tag_42\n      jump\t// in\n    tag_41:\n      mload(0x40)\n      dup1\n      swap2\n      sub\n      swap1\n      return\n        /* \"contracts/channel.sol\":3368:4088  function initialize(uint256 _c, uint256 _v, address _customer, bytes32 _W_jm, bytes32 _W_jc, string memory _S_id, \r... */\n    tag_7:\n      tag_43\n      0x04\n      dup1\n      calldatasize\n      sub\n      dup2\n      add\n      swap1\n      tag_44\n      swap2\n      swap1\n      tag_45\n      jump\t// in\n    tag_44:\n      tag_46\n      jump\t// in\n    tag_43:\n      stop\n        /* \"contracts/channel.sol\":2546:2565  bytes32 public W_jc */\n    tag_8:\n      callvalue\n      dup1\n      iszero\n      tag_47\n      jumpi\n      0x00\n      dup1\n      revert\n    tag_47:\n      pop\n      tag_48\n      tag_49\n      jump\t// in\n    tag_48:\n      mload(0x40)\n      tag_50\n      swap2\n      swap1\n      tag_51\n      jump\t// in\n    tag_50:\n      mload(0x40)\n      dup1\n      swap2\n      sub\n      swap1\n      return\n        /* \"contracts/channel.sol\":2755:2771  uint256 public v */\n    tag_9:\n      callvalue\n      dup1\n      iszero\n      tag_52\n      jumpi\n      0x00\n      dup1\n      revert\n    tag_52:\n      pop\n      tag_53\n      tag_54\n      jump\t// in\n    tag_53:\n      mload(0x40)\n      tag_55\n      swap2\n      swap1\n      tag_42\n      jump\t// in\n    tag_55:\n      mload(0x40)\n      dup1\n      swap2\n      sub\n      swap1\n      return\n        /* \"contracts/channel.sol\":2925:2943  bool public isBase */\n    tag_10:\n      callvalue\n      dup1\n      iszero\n      tag_56\n      jumpi\n      0x00\n      dup1\n      revert\n    tag_56:\n      pop\n      tag_57\n      tag_58\n      jump\t// in\n    tag_57:\n      mload(0x40)\n      tag_59\n      swap2\n      swap1\n      tag_60\n      jump\t// in\n    tag_59:\n      mload(0x40)\n      dup1\n      swap2\n      sub\n      swap1\n      return\n        /* \"contracts/channel.sol\":2465:2484  bytes32 public W_jm */\n    tag_11:\n      callvalue\n      dup1\n      iszero\n      tag_61\n      jumpi\n      0x00\n      dup1\n      revert\n    tag_61:\n      pop\n      tag_62\n      tag_63\n      jump\t// in\n    tag_62:\n      mload(0x40)\n      tag_64\n      swap2\n      swap1\n      tag_51\n      jump\t// in\n    tag_64:\n      mload(0x40)\n      dup1\n      swap2\n      sub\n      swap1\n      return\n        /* \"contracts/channel.sol\":2842:2859  uint256 public TD */\n    tag_12:\n      callvalue\n      dup1\n      iszero\n      tag_65\n      jumpi\n      0x00\n      dup1\n      revert\n    tag_65:\n      pop\n      tag_66\n      tag_67\n      jump\t// in\n    tag_66:\n      mload(0x40)\n      tag_68\n      swap2\n      swap1\n      tag_42\n      jump\t// in\n    tag_68:\n      mload(0x40)\n      dup1\n      swap2\n      sub\n      swap1\n      return\n        /* \"contracts/channel.sol\":3072:3360  function initialize(uint256 _c, uint256 _v, address _customer) external payable{\r... */\n    tag_13:\n      tag_69\n      0x04\n      dup1\n      calldatasize\n      sub\n      dup2\n      add\n      swap1\n      tag_70\n      swap2\n      swap1\n      tag_71\n      jump\t// in\n    tag_70:\n      tag_72\n      jump\t// in\n    tag_69:\n      stop\n        /* \"contracts/channel.sol\":2384:2400  uint256 public j */\n    tag_14:\n      callvalue\n      dup1\n      iszero\n      tag_73\n      jumpi\n      0x00\n      dup1\n      revert\n    tag_73:\n      pop\n      tag_74\n      tag_75\n      jump\t// in\n    tag_74:\n      mload(0x40)\n      tag_76\n      swap2\n      swap1\n      tag_42\n      jump\t// in\n    tag_76:\n      mload(0x40)\n      dup1\n      swap2\n      sub\n      swap1\n      return\n        /* \"contracts/channel.sol\":2712:2728  uint256 public c */\n    tag_15:\n      callvalue\n      dup1\n      iszero\n      tag_77\n      jumpi\n      0x00\n      dup1\n      revert\n    tag_77:\n      pop\n      tag_78\n      tag_79\n      jump\t// in\n    tag_78:\n      mload(0x40)\n      tag_80\n      swap2\n      swap1\n      tag_42\n      jump\t// in\n    tag_80:\n      mload(0x40)\n      dup1\n      swap2\n      sub\n      swap1\n      return\n        /* \"contracts/channel.sol\":4934:6564  function transferDeposit(bytes memory _W_km, bytes memory _W_kc, uint256 k, address newChannelAddress) public {\r... */\n    tag_16:\n      callvalue\n      dup1\n      iszero\n      tag_81\n      jumpi\n      0x00\n      dup1\n      revert\n    tag_81:\n      pop\n      tag_82\n      0x04\n      dup1\n      calldatasize\n      sub\n      dup2\n      add\n      swap1\n      tag_83\n      swap2\n      swap1\n      tag_84\n      jump\t// in\n    tag_83:\n      tag_85\n      jump\t// in\n    tag_82:\n      stop\n        /* \"contracts/channel.sol\":4145:4722  function setChannelParams(bytes32 _W_jm, bytes32 _W_jc, string memory _S_id, uint256 _c, uint256 _v, uint256 _T_exp, uint256 _TD, uint256 _TR) public onlyOwner {\r... */\n    tag_17:\n      callvalue\n      dup1\n      iszero\n      tag_86\n      jumpi\n      0x00\n      dup1\n      revert\n    tag_86:\n      pop\n      tag_87\n      0x04\n      dup1\n      calldatasize\n      sub\n      dup2\n      add\n      swap1\n      tag_88\n      swap2\n      swap1\n      tag_89\n      jump\t// in\n    tag_88:\n      tag_90\n      jump\t// in\n    tag_87:\n      stop\n        /* \"contracts/channel.sol\":2797:2817  uint256 public T_exp */\n    tag_18:\n      callvalue\n      dup1\n      iszero\n      tag_91\n      jumpi\n      0x00\n      dup1\n      revert\n    tag_91:\n      pop\n      tag_92\n      tag_93\n      jump\t// in\n    tag_92:\n      mload(0x40)\n      tag_94\n      swap2\n      swap1\n      tag_42\n      jump\t// in\n    tag_94:\n      mload(0x40)\n      dup1\n      swap2\n      sub\n      swap1\n      return\n        /* \"contracts/channel.sol\":6730:6940  function channelClose() public payable onlyOwner{\r... */\n    tag_27:\n        /* \"contracts/channel.sol\":7241:7249  customer */\n      0x01\n      0x00\n      swap1\n      sload\n      swap1\n      0x0100\n      exp\n      swap1\n      div\n      0xffffffffffffffffffffffffffffffffffffffff\n      and\n        /* \"contracts/channel.sol\":7227:7249  msg.sender == customer */\n      0xffffffffffffffffffffffffffffffffffffffff\n      and\n        /* \"contracts/channel.sol\":7227:7237  msg.sender */\n      caller\n        /* \"contracts/channel.sol\":7227:7249  msg.sender == customer */\n      0xffffffffffffffffffffffffffffffffffffffff\n      and\n      eq\n        /* \"contracts/channel.sol\":7218:7311  require (msg.sender == customer, \"Only customer of the delivery can set the channel params.\") */\n      tag_96\n      jumpi\n      mload(0x40)\n      0x08c379a000000000000000000000000000000000000000000000000000000000\n      dup2\n      mstore\n      0x04\n      add\n      tag_97\n      swap1\n      tag_98\n      jump\t// in\n    tag_97:\n      mload(0x40)\n      dup1\n      swap2\n      sub\n      swap1\n      revert\n    tag_96:\n        /* \"contracts/channel.sol\":6857:6872  block.timestamp */\n      timestamp\n        /* \"contracts/channel.sol\":6852:6854  TD */\n      sload(0x08)\n        /* \"contracts/channel.sol\":6844:6849  T_exp */\n      sload(0x07)\n        /* \"contracts/channel.sol\":6844:6854  T_exp + TD */\n      tag_100\n      swap2\n      swap1\n      tag_101\n      jump\t// in\n    tag_100:\n        /* \"contracts/channel.sol\":6844:6872  T_exp + TD < block.timestamp */\n      lt\n        /* \"contracts/channel.sol\":6835:6888  require((T_exp + TD < block.timestamp), \"Time error\") */\n      tag_102\n      jumpi\n      mload(0x40)\n      0x08c379a000000000000000000000000000000000000000000000000000000000\n      dup2\n      mstore\n      0x04\n      add\n      tag_103\n      swap1\n      tag_104\n      jump\t// in\n    tag_103:\n      mload(0x40)\n      dup1\n      swap2\n      sub\n      swap1\n      revert\n    tag_102:\n        /* \"contracts/channel.sol\":6920:6930  msg.sender */\n      caller\n        /* \"contracts/channel.sol\":6899:6932  selfdestruct(payable(msg.sender)) */\n      0xffffffffffffffffffffffffffffffffffffffff\n      and\n      selfdestruct\n        /* \"contracts/channel.sol\":2666:2684  string public S_id */\n    tag_30:\n      0x04\n      dup1\n      sload\n      tag_105\n      swap1\n      tag_106\n      jump\t// in\n    tag_105:\n      dup1\n      0x1f\n      add\n      0x20\n      dup1\n      swap2\n      div\n      mul\n      0x20\n      add\n      mload(0x40)\n      swap1\n      dup2\n      add\n      0x40\n      mstore\n      dup1\n      swap3\n      swap2\n      swap1\n      dup2\n      dup2\n      mstore\n      0x20\n      add\n      dup3\n      dup1\n      sload\n      tag_107\n      swap1\n      tag_106\n      jump\t// in\n    tag_107:\n      dup1\n      iszero\n      tag_108\n      jumpi\n      dup1\n      0x1f\n      lt\n      tag_109\n      jumpi\n      0x0100\n      dup1\n      dup4\n      sload\n      div\n      mul\n      dup4\n      mstore\n      swap2\n      0x20\n      add\n      swap2\n      jump(tag_108)\n    tag_109:\n      dup3\n      add\n      swap2\n      swap1\n      0x00\n      mstore\n      keccak256(0x00, 0x20)\n      swap1\n    tag_110:\n      dup2\n      sload\n      dup2\n      mstore\n      swap1\n      0x01\n      add\n      swap1\n      0x20\n      add\n      dup1\n      dup4\n      gt\n      tag_110\n      jumpi\n      dup3\n      swap1\n      sub\n      0x1f\n      and\n      dup3\n      add\n      swap2\n    tag_108:\n      pop\n      pop\n      pop\n      pop\n      pop\n      dup2\n      jump\t// out\n        /* \"contracts/channel.sol\":2407:2430  address public customer */\n    tag_35:\n      0x01\n      0x00\n      swap1\n      sload\n      swap1\n      0x0100\n      exp\n      swap1\n      div\n      0xffffffffffffffffffffffffffffffffffffffff\n      and\n      dup2\n      jump\t// out\n        /* \"contracts/channel.sol\":2883:2900  uint256 public TR */\n    tag_40:\n      sload(0x09)\n      dup2\n      jump\t// out\n        /* \"contracts/channel.sol\":3368:4088  function initialize(uint256 _c, uint256 _v, address _customer, bytes32 _W_jm, bytes32 _W_jc, string memory _S_id, \r... */\n    tag_46:\n        /* \"contracts/channel.sol\":3575:3580  false */\n      0x00\n        /* \"contracts/channel.sol\":3565:3580  isBase == false */\n      iszero\n      iszero\n        /* \"contracts/channel.sol\":3565:3571  isBase */\n      0x0a\n      0x00\n      swap1\n      sload\n      swap1\n      0x0100\n      exp\n      swap1\n      div\n      0xff\n      and\n        /* \"contracts/channel.sol\":3565:3580  isBase == false */\n      iszero\n      iszero\n      eq\n        /* \"contracts/channel.sol\":3557:3581  require(isBase == false) */\n      tag_112\n      jumpi\n      0x00\n      dup1\n      revert\n    tag_112:\n        /* \"contracts/channel.sol\":3616:3618  _v */\n      dup8\n        /* \"contracts/channel.sol\":3613:3615  _c */\n      dup10\n        /* \"contracts/channel.sol\":3613:3618  _c*_v */\n      tag_113\n      swap2\n      swap1\n      tag_114\n      jump\t// in\n    tag_113:\n        /* \"contracts/channel.sol\":3600:3609  msg.value */\n      callvalue\n        /* \"contracts/channel.sol\":3600:3618  msg.value == _c*_v */\n      eq\n        /* \"contracts/channel.sol\":3592:3636  require(msg.value == _c*_v, 'balance error') */\n      tag_115\n      jumpi\n      mload(0x40)\n      0x08c379a000000000000000000000000000000000000000000000000000000000\n      dup2\n      mstore\n      0x04\n      add\n      tag_116\n      swap1\n      tag_117\n      jump\t// in\n    tag_116:\n      mload(0x40)\n      dup1\n      swap2\n      sub\n      swap1\n      revert\n    tag_115:\n        /* \"contracts/channel.sol\":3665:3666  0 */\n      0x00\n        /* \"contracts/channel.sol\":3656:3661  T_exp */\n      sload(0x07)\n        /* \"contracts/channel.sol\":3656:3666  T_exp == 0 */\n      eq\n        /* \"contracts/channel.sol\":3656:3677  T_exp == 0 && TD == 0 */\n      dup1\n      iszero\n      tag_118\n      jumpi\n      pop\n        /* \"contracts/channel.sol\":3676:3677  0 */\n      0x00\n        /* \"contracts/channel.sol\":3670:3672  TD */\n      sload(0x08)\n        /* \"contracts/channel.sol\":3670:3677  TD == 0 */\n      eq\n        /* \"contracts/channel.sol\":3656:3677  T_exp == 0 && TD == 0 */\n    tag_118:\n        /* \"contracts/channel.sol\":3656:3688  T_exp == 0 && TD == 0 && TR == 0 */\n      dup1\n      iszero\n      tag_119\n      jumpi\n      pop\n        /* \"contracts/channel.sol\":3687:3688  0 */\n      0x00\n        /* \"contracts/channel.sol\":3681:3683  TR */\n      sload(0x09)\n        /* \"contracts/channel.sol\":3681:3688  TR == 0 */\n      eq\n        /* \"contracts/channel.sol\":3656:3688  T_exp == 0 && TD == 0 && TR == 0 */\n    tag_119:\n        /* \"contracts/channel.sol\":3656:3722  T_exp == 0 && TD == 0 && TR == 0 && (T_exp + TD) < block.timestamp */\n      dup1\n      iszero\n      tag_120\n      jumpi\n      pop\n        /* \"contracts/channel.sol\":3707:3722  block.timestamp */\n      timestamp\n        /* \"contracts/channel.sol\":3701:3703  TD */\n      sload(0x08)\n        /* \"contracts/channel.sol\":3693:3698  T_exp */\n      sload(0x07)\n        /* \"contracts/channel.sol\":3693:3703  T_exp + TD */\n      tag_121\n      swap2\n      swap1\n      tag_101\n      jump\t// in\n    tag_121:\n        /* \"contracts/channel.sol\":3692:3722  (T_exp + TD) < block.timestamp */\n      lt\n        /* \"contracts/channel.sol\":3656:3722  T_exp == 0 && TD == 0 && TR == 0 && (T_exp + TD) < block.timestamp */\n    tag_120:\n        /* \"contracts/channel.sol\":3655:3810  (T_exp == 0 && TD == 0 && TR == 0 && (T_exp + TD) < block.timestamp) || ((T_exp + TD) < block.timestamp \r... */\n      dup1\n      tag_122\n      jumpi\n      pop\n        /* \"contracts/channel.sol\":3743:3758  block.timestamp */\n      timestamp\n        /* \"contracts/channel.sol\":3737:3739  TD */\n      sload(0x08)\n        /* \"contracts/channel.sol\":3729:3734  T_exp */\n      sload(0x07)\n        /* \"contracts/channel.sol\":3729:3739  T_exp + TD */\n      tag_123\n      swap2\n      swap1\n      tag_101\n      jump\t// in\n    tag_123:\n        /* \"contracts/channel.sol\":3728:3758  (T_exp + TD) < block.timestamp */\n      lt\n        /* \"contracts/channel.sol\":3728:3809  (T_exp + TD) < block.timestamp \r... */\n      dup1\n      iszero\n      tag_124\n      jumpi\n      pop\n        /* \"contracts/channel.sol\":3805:3807  TR */\n      sload(0x09)\n        /* \"contracts/channel.sol\":3800:3802  TD */\n      sload(0x08)\n        /* \"contracts/channel.sol\":3792:3797  T_exp */\n      sload(0x07)\n        /* \"contracts/channel.sol\":3792:3802  T_exp + TD */\n      tag_125\n      swap2\n      swap1\n      tag_101\n      jump\t// in\n    tag_125:\n        /* \"contracts/channel.sol\":3792:3807  T_exp + TD + TR */\n      tag_126\n      swap2\n      swap1\n      tag_101\n      jump\t// in\n    tag_126:\n        /* \"contracts/channel.sol\":3773:3788  block.timestamp */\n      timestamp\n        /* \"contracts/channel.sol\":3773:3808  block.timestamp < (T_exp + TD + TR) */\n      lt\n        /* \"contracts/channel.sol\":3728:3809  (T_exp + TD) < block.timestamp \r... */\n    tag_124:\n        /* \"contracts/channel.sol\":3655:3810  (T_exp == 0 && TD == 0 && TR == 0 && (T_exp + TD) < block.timestamp) || ((T_exp + TD) < block.timestamp \r... */\n    tag_122:\n        /* \"contracts/channel.sol\":3647:3811  require((T_exp == 0 && TD == 0 && TR == 0 && (T_exp + TD) < block.timestamp) || ((T_exp + TD) < block.timestamp \r... */\n      tag_127\n      jumpi\n      0x00\n      dup1\n      revert\n    tag_127:\n        /* \"contracts/channel.sol\":3843:3852  _customer */\n      dup7\n        /* \"contracts/channel.sol\":3832:3840  customer */\n      0x01\n      0x00\n        /* \"contracts/channel.sol\":3832:3852  customer = _customer */\n      0x0100\n      exp\n      dup2\n      sload\n      dup2\n      0xffffffffffffffffffffffffffffffffffffffff\n      mul\n      not\n      and\n      swap1\n      dup4\n      0xffffffffffffffffffffffffffffffffffffffff\n      and\n      mul\n      or\n      swap1\n      sstore\n      pop\n        /* \"contracts/channel.sol\":3867:3869  _c */\n      dup9\n        /* \"contracts/channel.sol\":3863:3864  c */\n      0x05\n        /* \"contracts/channel.sol\":3863:3869  c = _c */\n      dup2\n      swap1\n      sstore\n      pop\n        /* \"contracts/channel.sol\":3884:3886  _v */\n      dup8\n        /* \"contracts/channel.sol\":3880:3881  v */\n      0x06\n        /* \"contracts/channel.sol\":3880:3886  v = _v */\n      dup2\n      swap1\n      sstore\n      pop\n        /* \"contracts/channel.sol\":3903:3904  0 */\n      0x00\n        /* \"contracts/channel.sol\":3899:3900  j */\n      dup1\n        /* \"contracts/channel.sol\":3899:3904  j = 0 */\n      dup2\n      swap1\n      sstore\n      pop\n        /* \"contracts/channel.sol\":3932:3937  _W_jm */\n      dup6\n        /* \"contracts/channel.sol\":3925:3929  W_jm */\n      0x02\n        /* \"contracts/channel.sol\":3925:3937  W_jm = _W_jm */\n      dup2\n      swap1\n      sstore\n      pop\n        /* \"contracts/channel.sol\":3955:3960  _W_jc */\n      dup5\n        /* \"contracts/channel.sol\":3948:3952  W_jc */\n      0x03\n        /* \"contracts/channel.sol\":3948:3960  W_jc = _W_jc */\n      dup2\n      swap1\n      sstore\n      pop\n        /* \"contracts/channel.sol\":3978:3983  _S_id */\n      dup4\n        /* \"contracts/channel.sol\":3971:3975  S_id */\n      0x04\n        /* \"contracts/channel.sol\":3971:3983  S_id = _S_id */\n      swap1\n      dup1\n      mload\n      swap1\n      0x20\n      add\n      swap1\n      tag_128\n      swap3\n      swap2\n      swap1\n      tag_129\n      jump\t// in\n    tag_128:\n      pop\n        /* \"contracts/channel.sol\":3998:4000  _c */\n      dup9\n        /* \"contracts/channel.sol\":3994:3995  c */\n      0x05\n        /* \"contracts/channel.sol\":3994:4000  c = _c */\n      dup2\n      swap1\n      sstore\n      pop\n        /* \"contracts/channel.sol\":4015:4017  _v */\n      dup8\n        /* \"contracts/channel.sol\":4011:4012  v */\n      0x06\n        /* \"contracts/channel.sol\":4011:4017  v = _v */\n      dup2\n      swap1\n      sstore\n      pop\n        /* \"contracts/channel.sol\":4036:4042  _T_exp */\n      dup3\n        /* \"contracts/channel.sol\":4028:4033  T_exp */\n      0x07\n        /* \"contracts/channel.sol\":4028:4042  T_exp = _T_exp */\n      dup2\n      swap1\n      sstore\n      pop\n        /* \"contracts/channel.sol\":4058:4061  _TD */\n      dup2\n        /* \"contracts/channel.sol\":4053:4055  TD */\n      0x08\n        /* \"contracts/channel.sol\":4053:4061  TD = _TD */\n      dup2\n      swap1\n      sstore\n      pop\n        /* \"contracts/channel.sol\":4077:4080  _TR */\n      dup1\n        /* \"contracts/channel.sol\":4072:4074  TR */\n      0x09\n        /* \"contracts/channel.sol\":4072:4080  TR = _TR */\n      dup2\n      swap1\n      sstore\n      pop\n        /* \"contracts/channel.sol\":3368:4088  function initialize(uint256 _c, uint256 _v, address _customer, bytes32 _W_jm, bytes32 _W_jc, string memory _S_id, \r... */\n      pop\n      pop\n      pop\n      pop\n      pop\n      pop\n      pop\n      pop\n      pop\n      jump\t// out\n        /* \"contracts/channel.sol\":2546:2565  bytes32 public W_jc */\n    tag_49:\n      sload(0x03)\n      dup2\n      jump\t// out\n        /* \"contracts/channel.sol\":2755:2771  uint256 public v */\n    tag_54:\n      sload(0x06)\n      dup2\n      jump\t// out\n        /* \"contracts/channel.sol\":2925:2943  bool public isBase */\n    tag_58:\n      0x0a\n      0x00\n      swap1\n      sload\n      swap1\n      0x0100\n      exp\n      swap1\n      div\n      0xff\n      and\n      dup2\n      jump\t// out\n        /* \"contracts/channel.sol\":2465:2484  bytes32 public W_jm */\n    tag_63:\n      sload(0x02)\n      dup2\n      jump\t// out\n        /* \"contracts/channel.sol\":2842:2859  uint256 public TD */\n    tag_67:\n      sload(0x08)\n      dup2\n      jump\t// out\n        /* \"contracts/channel.sol\":3072:3360  function initialize(uint256 _c, uint256 _v, address _customer) external payable{\r... */\n    tag_72:\n        /* \"contracts/channel.sol\":3180:3185  false */\n      0x00\n        /* \"contracts/channel.sol\":3170:3185  isBase == false */\n      iszero\n      iszero\n        /* \"contracts/channel.sol\":3170:3176  isBase */\n      0x0a\n      0x00\n      swap1\n      sload\n      swap1\n      0x0100\n      exp\n      swap1\n      div\n      0xff\n      and\n        /* \"contracts/channel.sol\":3170:3185  isBase == false */\n      iszero\n      iszero\n      eq\n        /* \"contracts/channel.sol\":3162:3186  require(isBase == false) */\n      tag_131\n      jumpi\n      0x00\n      dup1\n      revert\n    tag_131:\n        /* \"contracts/channel.sol\":3208:3217  _customer */\n      dup1\n        /* \"contracts/channel.sol\":3197:3205  customer */\n      0x01\n      0x00\n        /* \"contracts/channel.sol\":3197:3217  customer = _customer */\n      0x0100\n      exp\n      dup2\n      sload\n      dup2\n      0xffffffffffffffffffffffffffffffffffffffff\n      mul\n      not\n      and\n      swap1\n      dup4\n      0xffffffffffffffffffffffffffffffffffffffff\n      and\n      mul\n      or\n      swap1\n      sstore\n      pop\n        /* \"contracts/channel.sol\":3232:3234  _c */\n      dup3\n        /* \"contracts/channel.sol\":3228:3229  c */\n      0x05\n        /* \"contracts/channel.sol\":3228:3234  c = _c */\n      dup2\n      swap1\n      sstore\n      pop\n        /* \"contracts/channel.sol\":3249:3251  _v */\n      dup2\n        /* \"contracts/channel.sol\":3245:3246  v */\n      0x06\n        /* \"contracts/channel.sol\":3245:3251  v = _v */\n      dup2\n      swap1\n      sstore\n      pop\n        /* \"contracts/channel.sol\":3280:3281  0 */\n      0x00\n        /* \"contracts/channel.sol\":3267:3276  msg.value */\n      callvalue\n        /* \"contracts/channel.sol\":3267:3281  msg.value != 0 */\n      eq\n        /* \"contracts/channel.sol\":3264:3353  if(msg.value != 0){\r... */\n      tag_132\n      jumpi\n        /* \"contracts/channel.sol\":3321:3323  _v */\n      dup2\n        /* \"contracts/channel.sol\":3318:3320  _c */\n      dup4\n        /* \"contracts/channel.sol\":3318:3323  _c*_v */\n      tag_133\n      swap2\n      swap1\n      tag_114\n      jump\t// in\n    tag_133:\n        /* \"contracts/channel.sol\":3305:3314  msg.value */\n      callvalue\n        /* \"contracts/channel.sol\":3305:3323  msg.value == _c*_v */\n      eq\n        /* \"contracts/channel.sol\":3297:3341  require(msg.value == _c*_v, 'balance error') */\n      tag_134\n      jumpi\n      mload(0x40)\n      0x08c379a000000000000000000000000000000000000000000000000000000000\n      dup2\n      mstore\n      0x04\n      add\n      tag_135\n      swap1\n      tag_117\n      jump\t// in\n    tag_135:\n      mload(0x40)\n      dup1\n      swap2\n      sub\n      swap1\n      revert\n    tag_134:\n        /* \"contracts/channel.sol\":3264:3353  if(msg.value != 0){\r... */\n    tag_132:\n        /* \"contracts/channel.sol\":3072:3360  function initialize(uint256 _c, uint256 _v, address _customer) external payable{\r... */\n      pop\n      pop\n      pop\n      jump\t// out\n        /* \"contracts/channel.sol\":2384:2400  uint256 public j */\n    tag_75:\n      sload(0x00)\n      dup2\n      jump\t// out\n        /* \"contracts/channel.sol\":2712:2728  uint256 public c */\n    tag_79:\n      sload(0x05)\n      dup2\n      jump\t// out\n        /* \"contracts/channel.sol\":4934:6564  function transferDeposit(bytes memory _W_km, bytes memory _W_kc, uint256 k, address newChannelAddress) public {\r... */\n    tag_85:\n        /* \"contracts/channel.sol\":5092:5094  TD */\n      sload(0x08)\n        /* \"contracts/channel.sol\":5084:5089  T_exp */\n      sload(0x07)\n        /* \"contracts/channel.sol\":5084:5094  T_exp + TD */\n      tag_137\n      swap2\n      swap1\n      tag_101\n      jump\t// in\n    tag_137:\n        /* \"contracts/channel.sol\":5065:5080  block.timestamp */\n      timestamp\n        /* \"contracts/channel.sol\":5065:5095  block.timestamp < (T_exp + TD) */\n      lt\n        /* \"contracts/channel.sol\":5055:5113  require ((block.timestamp < (T_exp + TD)), \"Time error\"  ) */\n      tag_138\n      jumpi\n      mload(0x40)\n      0x08c379a000000000000000000000000000000000000000000000000000000000\n      dup2\n      mstore\n      0x04\n      add\n      tag_139\n      swap1\n      tag_104\n      jump\t// in\n    tag_139:\n      mload(0x40)\n      dup1\n      swap2\n      sub\n      swap1\n      revert\n    tag_138:\n        /* \"contracts/channel.sol\":5137:5138  j */\n      sload(0x00)\n        /* \"contracts/channel.sol\":5133:5134  k */\n      dup3\n        /* \"contracts/channel.sol\":5133:5138  k > j */\n      gt\n        /* \"contracts/channel.sol\":5124:5149  require (k > j, \"k <= j\") */\n      tag_140\n      jumpi\n      mload(0x40)\n      0x08c379a000000000000000000000000000000000000000000000000000000000\n      dup2\n      mstore\n      0x04\n      add\n      tag_141\n      swap1\n      tag_142\n      jump\t// in\n    tag_141:\n      mload(0x40)\n      dup1\n      swap2\n      sub\n      swap1\n      revert\n    tag_140:\n        /* \"contracts/channel.sol\":5174:5189  uint256 balance */\n      0x00\n        /* \"contracts/channel.sol\":5200:5214  bytes32 hash_m */\n      dup1\n        /* \"contracts/channel.sol\":5225:5230  _W_km */\n      dup6\n        /* \"contracts/channel.sol\":5217:5231  bytes32(_W_km) */\n      tag_143\n      swap1\n      tag_144\n      jump\t// in\n    tag_143:\n        /* \"contracts/channel.sol\":5200:5231  bytes32 hash_m = bytes32(_W_km) */\n      swap1\n      pop\n        /* \"contracts/channel.sol\":5242:5256  bytes32 hash_c */\n      0x00\n        /* \"contracts/channel.sol\":5267:5272  _W_kc */\n      dup6\n        /* \"contracts/channel.sol\":5259:5273  bytes32(_W_kc) */\n      tag_145\n      swap1\n      tag_144\n      jump\t// in\n    tag_145:\n        /* \"contracts/channel.sol\":5242:5273  bytes32 hash_c = bytes32(_W_kc) */\n      swap1\n      pop\n        /* \"contracts/channel.sol\":5284:5293  uint256 i */\n      0x00\n        /* \"contracts/channel.sol\":5298:5299  j */\n      dup1\n      sload\n        /* \"contracts/channel.sol\":5296:5297  k */\n      dup7\n        /* \"contracts/channel.sol\":5296:5299  k-j */\n      tag_146\n      swap2\n      swap1\n      tag_147\n      jump\t// in\n    tag_146:\n        /* \"contracts/channel.sol\":5284:5299  uint256 i = k-j */\n      swap1\n      pop\n        /* \"contracts/channel.sol\":5320:5464  for (i; i!= 0; i--){\r... */\n    tag_148:\n        /* \"contracts/channel.sol\":5332:5333  0 */\n      0x00\n        /* \"contracts/channel.sol\":5328:5329  i */\n      dup2\n        /* \"contracts/channel.sol\":5328:5333  i!= 0 */\n      eq\n        /* \"contracts/channel.sol\":5320:5464  for (i; i!= 0; i--){\r... */\n      tag_149\n      jumpi\n        /* \"contracts/channel.sol\":5363:5395  sha256(abi.encodePacked(hash_m)) */\n      0x02\n        /* \"contracts/channel.sol\":5387:5393  hash_m */\n      dup4\n        /* \"contracts/channel.sol\":5370:5394  abi.encodePacked(hash_m) */\n      add(0x20, mload(0x40))\n      tag_151\n      swap2\n      swap1\n      tag_152\n      jump\t// in\n    tag_151:\n      mload(0x40)\n      0x20\n      dup2\n      dup4\n      sub\n      sub\n      dup2\n      mstore\n      swap1\n      0x40\n      mstore\n        /* \"contracts/channel.sol\":5363:5395  sha256(abi.encodePacked(hash_m)) */\n      mload(0x40)\n      tag_153\n      swap2\n      swap1\n      tag_154\n      jump\t// in\n    tag_153:\n      0x20\n      mload(0x40)\n      dup1\n      dup4\n      sub\n      dup2\n      dup6\n      gas\n      staticcall\n      iszero\n      dup1\n      iszero\n      tag_156\n      jumpi\n      returndatasize\n      0x00\n      dup1\n      returndatacopy\n      revert(0x00, returndatasize)\n    tag_156:\n      pop\n      pop\n      pop\n      mload(0x40)\n      returndatasize\n      not(0x1f)\n      0x1f\n      dup3\n      add\n      and\n      dup3\n      add\n      dup1\n      0x40\n      mstore\n      pop\n      dup2\n      add\n      swap1\n      tag_157\n      swap2\n      swap1\n      tag_158\n      jump\t// in\n    tag_157:\n        /* \"contracts/channel.sol\":5354:5395  hash_m = sha256(abi.encodePacked(hash_m)) */\n      swap3\n      pop\n        /* \"contracts/channel.sol\":5419:5451  sha256(abi.encodePacked(hash_c)) */\n      0x02\n        /* \"contracts/channel.sol\":5443:5449  hash_c */\n      dup3\n        /* \"contracts/channel.sol\":5426:5450  abi.encodePacked(hash_c) */\n      add(0x20, mload(0x40))\n      tag_159\n      swap2\n      swap1\n      tag_152\n      jump\t// in\n    tag_159:\n      mload(0x40)\n      0x20\n      dup2\n      dup4\n      sub\n      sub\n      dup2\n      mstore\n      swap1\n      0x40\n      mstore\n        /* \"contracts/channel.sol\":5419:5451  sha256(abi.encodePacked(hash_c)) */\n      mload(0x40)\n      tag_160\n      swap2\n      swap1\n      tag_154\n      jump\t// in\n    tag_160:\n      0x20\n      mload(0x40)\n      dup1\n      dup4\n      sub\n      dup2\n      dup6\n      gas\n      staticcall\n      iszero\n      dup1\n      iszero\n      tag_162\n      jumpi\n      returndatasize\n      0x00\n      dup1\n      returndatacopy\n      revert(0x00, returndatasize)\n    tag_162:\n      pop\n      pop\n      pop\n      mload(0x40)\n      returndatasize\n      not(0x1f)\n      0x1f\n      dup3\n      add\n      and\n      dup3\n      add\n      dup1\n      0x40\n      mstore\n      pop\n      dup2\n      add\n      swap1\n      tag_163\n      swap2\n      swap1\n      tag_158\n      jump\t// in\n    tag_163:\n        /* \"contracts/channel.sol\":5410:5451  hash_c = sha256(abi.encodePacked(hash_c)) */\n      swap2\n      pop\n        /* \"contracts/channel.sol\":5335:5338  i-- */\n      dup1\n      dup1\n      tag_164\n      swap1\n      tag_165\n      jump\t// in\n    tag_164:\n      swap2\n      pop\n      pop\n        /* \"contracts/channel.sol\":5320:5464  for (i; i!= 0; i--){\r... */\n      jump(tag_148)\n    tag_149:\n        /* \"contracts/channel.sol\":5493:5499  hash_m */\n      dup3\n        /* \"contracts/channel.sol\":5485:5489  W_jm */\n      sload(0x02)\n        /* \"contracts/channel.sol\":5485:5499  W_jm == hash_m */\n      eq\n        /* \"contracts/channel.sol\":5476:5521  require (W_jm == hash_m, \"W_km is incorrect\") */\n      tag_166\n      jumpi\n      mload(0x40)\n      0x08c379a000000000000000000000000000000000000000000000000000000000\n      dup2\n      mstore\n      0x04\n      add\n      tag_167\n      swap1\n      tag_168\n      jump\t// in\n    tag_167:\n      mload(0x40)\n      dup1\n      swap2\n      sub\n      swap1\n      revert\n    tag_166:\n        /* \"contracts/channel.sol\":5549:5555  hash_c */\n      dup2\n        /* \"contracts/channel.sol\":5541:5545  W_jc */\n      sload(0x03)\n        /* \"contracts/channel.sol\":5541:5555  W_jc == hash_c */\n      eq\n        /* \"contracts/channel.sol\":5532:5577  require (W_jc == hash_c, \"W_kc is incorrect\") */\n      tag_169\n      jumpi\n      mload(0x40)\n      0x08c379a000000000000000000000000000000000000000000000000000000000\n      dup2\n      mstore\n      0x04\n      add\n      tag_170\n      swap1\n      tag_171\n      jump\t// in\n    tag_170:\n      mload(0x40)\n      dup1\n      swap2\n      sub\n      swap1\n      revert\n    tag_169:\n        /* \"contracts/channel.sol\":5608:5609  0 */\n      0x00\n        /* \"contracts/channel.sol\":5603:5604  2 */\n      0x02\n        /* \"contracts/channel.sol\":5601:5602  k */\n      dup8\n        /* \"contracts/channel.sol\":5601:5604  k%2 */\n      tag_172\n      swap2\n      swap1\n      tag_173\n      jump\t// in\n    tag_172:\n        /* \"contracts/channel.sol\":5601:5609  k%2 == 0 */\n      eq\n        /* \"contracts/channel.sol\":5598:6253  if(k%2 == 0){\r... */\n      iszero\n      tag_174\n      jumpi\n        /* \"contracts/channel.sol\":5642:5643  2 */\n      0x02\n        /* \"contracts/channel.sol\":5639:5640  j */\n      sload(0x00)\n        /* \"contracts/channel.sol\":5637:5638  k */\n      dup8\n        /* \"contracts/channel.sol\":5637:5640  k-j */\n      tag_175\n      swap2\n      swap1\n      tag_147\n      jump\t// in\n    tag_175:\n        /* \"contracts/channel.sol\":5636:5643  (k-j)/2 */\n      tag_176\n      swap2\n      swap1\n      tag_177\n      jump\t// in\n    tag_176:\n        /* \"contracts/channel.sol\":5625:5644  balance = ((k-j)/2) */\n      swap4\n      pop\n        /* \"contracts/channel.sol\":5663:5664  k */\n      dup6\n        /* \"contracts/channel.sol\":5659:5660  j */\n      0x00\n        /* \"contracts/channel.sol\":5659:5664  j = k */\n      dup2\n      swap1\n      sstore\n      pop\n        /* \"contracts/channel.sol\":5709:5714  _W_km */\n      dup8\n        /* \"contracts/channel.sol\":5700:5715  bytes32 (_W_km) */\n      tag_178\n      swap1\n      tag_144\n      jump\t// in\n    tag_178:\n        /* \"contracts/channel.sol\":5693:5697  W_jm */\n      0x02\n        /* \"contracts/channel.sol\":5693:5715  W_jm = bytes32 (_W_km) */\n      dup2\n      swap1\n      sstore\n      pop\n        /* \"contracts/channel.sol\":5746:5751  _W_kc */\n      dup7\n        /* \"contracts/channel.sol\":5737:5752  bytes32 (_W_kc) */\n      tag_179\n      swap1\n      tag_144\n      jump\t// in\n    tag_179:\n        /* \"contracts/channel.sol\":5730:5734  W_jc */\n      0x03\n        /* \"contracts/channel.sol\":5730:5752  W_jc = bytes32 (_W_kc) */\n      dup2\n      swap1\n      sstore\n      pop\n        /* \"contracts/channel.sol\":5598:6253  if(k%2 == 0){\r... */\n      jump(tag_180)\n    tag_174:\n        /* \"contracts/channel.sol\":5802:5803  2 */\n      0x02\n        /* \"contracts/channel.sol\":5799:5800  1 */\n      0x01\n        /* \"contracts/channel.sol\":5797:5798  j */\n      sload(0x00)\n        /* \"contracts/channel.sol\":5795:5796  k */\n      dup9\n        /* \"contracts/channel.sol\":5795:5798  k-j */\n      tag_181\n      swap2\n      swap1\n      tag_147\n      jump\t// in\n    tag_181:\n        /* \"contracts/channel.sol\":5795:5800  k-j-1 */\n      tag_182\n      swap2\n      swap1\n      tag_147\n      jump\t// in\n    tag_182:\n        /* \"contracts/channel.sol\":5794:5803  (k-j-1)/2 */\n      tag_183\n      swap2\n      swap1\n      tag_177\n      jump\t// in\n    tag_183:\n        /* \"contracts/channel.sol\":5783:5804  balance = ((k-j-1)/2) */\n      swap4\n      pop\n        /* \"contracts/channel.sol\":5825:5826  1 */\n      0x01\n        /* \"contracts/channel.sol\":5823:5824  k */\n      dup7\n        /* \"contracts/channel.sol\":5823:5826  k-1 */\n      tag_184\n      swap2\n      swap1\n      tag_147\n      jump\t// in\n    tag_184:\n        /* \"contracts/channel.sol\":5819:5820  j */\n      0x00\n        /* \"contracts/channel.sol\":5819:5826  j = k-1 */\n      dup2\n      swap1\n      sstore\n      pop\n        /* \"contracts/channel.sol\":5841:5855  bytes32 hash_m */\n      0x00\n        /* \"contracts/channel.sol\":5866:5871  _W_km */\n      dup9\n        /* \"contracts/channel.sol\":5858:5872  bytes32(_W_km) */\n      tag_185\n      swap1\n      tag_144\n      jump\t// in\n    tag_185:\n        /* \"contracts/channel.sol\":5841:5872  bytes32 hash_m = bytes32(_W_km) */\n      swap1\n      pop\n        /* \"contracts/channel.sol\":5887:5901  bytes32 hash_c */\n      0x00\n        /* \"contracts/channel.sol\":5912:5917  _W_kc */\n      dup9\n        /* \"contracts/channel.sol\":5904:5918  bytes32(_W_kc) */\n      tag_186\n      swap1\n      tag_144\n      jump\t// in\n    tag_186:\n        /* \"contracts/channel.sol\":5887:5918  bytes32 hash_c = bytes32(_W_kc) */\n      swap1\n      pop\n        /* \"contracts/channel.sol\":5933:5942  uint256 i */\n      0x00\n        /* \"contracts/channel.sol\":5947:5948  j */\n      dup1\n      sload\n        /* \"contracts/channel.sol\":5945:5946  k */\n      dup10\n        /* \"contracts/channel.sol\":5945:5948  k-j */\n      tag_187\n      swap2\n      swap1\n      tag_147\n      jump\t// in\n    tag_187:\n        /* \"contracts/channel.sol\":5933:5948  uint256 i = k-j */\n      swap1\n      pop\n        /* \"contracts/channel.sol\":5973:6129  for (i; i!= 0; i--){\r... */\n    tag_188:\n        /* \"contracts/channel.sol\":5985:5986  0 */\n      0x00\n        /* \"contracts/channel.sol\":5981:5982  i */\n      dup2\n        /* \"contracts/channel.sol\":5981:5986  i!= 0 */\n      eq\n        /* \"contracts/channel.sol\":5973:6129  for (i; i!= 0; i--){\r... */\n      tag_189\n      jumpi\n        /* \"contracts/channel.sol\":6020:6052  sha256(abi.encodePacked(hash_m)) */\n      0x02\n        /* \"contracts/channel.sol\":6044:6050  hash_m */\n      dup4\n        /* \"contracts/channel.sol\":6027:6051  abi.encodePacked(hash_m) */\n      add(0x20, mload(0x40))\n      tag_191\n      swap2\n      swap1\n      tag_152\n      jump\t// in\n    tag_191:\n      mload(0x40)\n      0x20\n      dup2\n      dup4\n      sub\n      sub\n      dup2\n      mstore\n      swap1\n      0x40\n      mstore\n        /* \"contracts/channel.sol\":6020:6052  sha256(abi.encodePacked(hash_m)) */\n      mload(0x40)\n      tag_192\n      swap2\n      swap1\n      tag_154\n      jump\t// in\n    tag_192:\n      0x20\n      mload(0x40)\n      dup1\n      dup4\n      sub\n      dup2\n      dup6\n      gas\n      staticcall\n      iszero\n      dup1\n      iszero\n      tag_194\n      jumpi\n      returndatasize\n      0x00\n      dup1\n      returndatacopy\n      revert(0x00, returndatasize)\n    tag_194:\n      pop\n      pop\n      pop\n      mload(0x40)\n      returndatasize\n      not(0x1f)\n      0x1f\n      dup3\n      add\n      and\n      dup3\n      add\n      dup1\n      0x40\n      mstore\n      pop\n      dup2\n      add\n      swap1\n      tag_195\n      swap2\n      swap1\n      tag_158\n      jump\t// in\n    tag_195:\n        /* \"contracts/channel.sol\":6011:6052  hash_m = sha256(abi.encodePacked(hash_m)) */\n      swap3\n      pop\n        /* \"contracts/channel.sol\":6080:6112  sha256(abi.encodePacked(hash_c)) */\n      0x02\n        /* \"contracts/channel.sol\":6104:6110  hash_c */\n      dup3\n        /* \"contracts/channel.sol\":6087:6111  abi.encodePacked(hash_c) */\n      add(0x20, mload(0x40))\n      tag_196\n      swap2\n      swap1\n      tag_152\n      jump\t// in\n    tag_196:\n      mload(0x40)\n      0x20\n      dup2\n      dup4\n      sub\n      sub\n      dup2\n      mstore\n      swap1\n      0x40\n      mstore\n        /* \"contracts/channel.sol\":6080:6112  sha256(abi.encodePacked(hash_c)) */\n      mload(0x40)\n      tag_197\n      swap2\n      swap1\n      tag_154\n      jump\t// in\n    tag_197:\n      0x20\n      mload(0x40)\n      dup1\n      dup4\n      sub\n      dup2\n      dup6\n      gas\n      staticcall\n      iszero\n      dup1\n      iszero\n      tag_199\n      jumpi\n      returndatasize\n      0x00\n      dup1\n      returndatacopy\n      revert(0x00, returndatasize)\n    tag_199:\n      pop\n      pop\n      pop\n      mload(0x40)\n      returndatasize\n      not(0x1f)\n      0x1f\n      dup3\n      add\n      and\n      dup3\n      add\n      dup1\n      0x40\n      mstore\n      pop\n      dup2\n      add\n      swap1\n      tag_200\n      swap2\n      swap1\n      tag_158\n      jump\t// in\n    tag_200:\n        /* \"contracts/channel.sol\":6071:6112  hash_c = sha256(abi.encodePacked(hash_c)) */\n      swap2\n      pop\n        /* \"contracts/channel.sol\":5988:5991  i-- */\n      dup1\n      dup1\n      tag_201\n      swap1\n      tag_165\n      jump\t// in\n    tag_201:\n      swap2\n      pop\n      pop\n        /* \"contracts/channel.sol\":5973:6129  for (i; i!= 0; i--){\r... */\n      jump(tag_188)\n    tag_189:\n        /* \"contracts/channel.sol\":6164:6165  1 */\n      0x01\n        /* \"contracts/channel.sol\":6162:6163  k */\n      dup10\n        /* \"contracts/channel.sol\":6162:6165  k-1 */\n      tag_202\n      swap2\n      swap1\n      tag_147\n      jump\t// in\n    tag_202:\n        /* \"contracts/channel.sol\":6158:6159  j */\n      0x00\n        /* \"contracts/channel.sol\":6158:6165  j = k-1 */\n      dup2\n      swap1\n      sstore\n      pop\n        /* \"contracts/channel.sol\":6196:6202  hash_m */\n      dup3\n        /* \"contracts/channel.sol\":6180:6184  W_jm */\n      0x02\n        /* \"contracts/channel.sol\":6180:6203  W_jm = bytes32 (hash_m) */\n      dup2\n      swap1\n      sstore\n      pop\n        /* \"contracts/channel.sol\":6234:6240  hash_c */\n      dup2\n        /* \"contracts/channel.sol\":6218:6222  W_jc */\n      0x03\n        /* \"contracts/channel.sol\":6218:6241  W_jc = bytes32 (hash_c) */\n      dup2\n      swap1\n      sstore\n      pop\n        /* \"contracts/channel.sol\":5768:6253  {\r... */\n      pop\n      pop\n      pop\n        /* \"contracts/channel.sol\":5598:6253  if(k%2 == 0){\r... */\n    tag_180:\n        /* \"contracts/channel.sol\":6297:6339  0x0000000000000000000000000000000000000000 */\n      0x00\n        /* \"contracts/channel.sol\":6276:6339  newChannelAddress != 0x0000000000000000000000000000000000000000 */\n      0xffffffffffffffffffffffffffffffffffffffff\n      and\n        /* \"contracts/channel.sol\":6276:6293  newChannelAddress */\n      dup6\n        /* \"contracts/channel.sol\":6276:6339  newChannelAddress != 0x0000000000000000000000000000000000000000 */\n      0xffffffffffffffffffffffffffffffffffffffff\n      and\n      eq\n        /* \"contracts/channel.sol\":6273:6490  if(newChannelAddress != 0x0000000000000000000000000000000000000000){\r... */\n      tag_203\n      jumpi\n        /* \"contracts/channel.sol\":6363:6380  newChannelAddress */\n      dup5\n        /* \"contracts/channel.sol\":6355:6386  payable(newChannelAddress).call */\n      0xffffffffffffffffffffffffffffffffffffffff\n      and\n        /* \"contracts/channel.sol\":6402:6403  v */\n      sload(0x06)\n        /* \"contracts/channel.sol\":6394:6401  balance */\n      dup6\n        /* \"contracts/channel.sol\":6394:6403  balance*v */\n      tag_204\n      swap2\n      swap1\n      tag_114\n      jump\t// in\n    tag_204:\n        /* \"contracts/channel.sol\":6355:6408  payable(newChannelAddress).call{value: balance*v}(\"\") */\n      mload(0x40)\n      tag_205\n      swap1\n      tag_206\n      jump\t// in\n    tag_205:\n      0x00\n      mload(0x40)\n      dup1\n      dup4\n      sub\n      dup2\n      dup6\n      dup8\n      gas\n      call\n      swap3\n      pop\n      pop\n      pop\n      returndatasize\n      dup1\n      0x00\n      dup2\n      eq\n      tag_209\n      jumpi\n      mload(0x40)\n      swap2\n      pop\n      and(add(returndatasize, 0x3f), not(0x1f))\n      dup3\n      add\n      0x40\n      mstore\n      returndatasize\n      dup3\n      mstore\n      returndatasize\n      0x00\n      0x20\n      dup5\n      add\n      returndatacopy\n      jump(tag_208)\n    tag_209:\n      0x60\n      swap2\n      pop\n    tag_208:\n      pop\n      pop\n      pop\n        /* \"contracts/channel.sol\":6273:6490  if(newChannelAddress != 0x0000000000000000000000000000000000000000){\r... */\n      jump(tag_210)\n    tag_203:\n        /* \"contracts/channel.sol\":6447:6457  msg.sender */\n      caller\n        /* \"contracts/channel.sol\":6439:6467  payable(msg.sender).transfer */\n      0xffffffffffffffffffffffffffffffffffffffff\n      and\n        /* \"contracts/channel.sol\":6439:6478  payable(msg.sender).transfer(balance*v) */\n      0x08fc\n        /* \"contracts/channel.sol\":6476:6477  v */\n      sload(0x06)\n        /* \"contracts/channel.sol\":6468:6475  balance */\n      dup7\n        /* \"contracts/channel.sol\":6468:6477  balance*v */\n      tag_211\n      swap2\n      swap1\n      tag_114\n      jump\t// in\n    tag_211:\n        /* \"contracts/channel.sol\":6439:6478  payable(msg.sender).transfer(balance*v) */\n      swap1\n      dup2\n      iszero\n      mul\n      swap1\n      mload(0x40)\n      0x00\n      mload(0x40)\n      dup1\n      dup4\n      sub\n      dup2\n      dup6\n      dup9\n      dup9\n      call\n      swap4\n      pop\n      pop\n      pop\n      pop\n      iszero\n      dup1\n      iszero\n      tag_213\n      jumpi\n      returndatasize\n      0x00\n      dup1\n      returndatacopy\n      revert(0x00, returndatasize)\n    tag_213:\n      pop\n        /* \"contracts/channel.sol\":6273:6490  if(newChannelAddress != 0x0000000000000000000000000000000000000000){\r... */\n    tag_210:\n        /* \"contracts/channel.sol\":5044:6564  {\r... */\n      pop\n      pop\n      pop\n      pop\n        /* \"contracts/channel.sol\":4934:6564  function transferDeposit(bytes memory _W_km, bytes memory _W_kc, uint256 k, address newChannelAddress) public {\r... */\n      pop\n      pop\n      pop\n      pop\n      jump\t// out\n        /* \"contracts/channel.sol\":4145:4722  function setChannelParams(bytes32 _W_jm, bytes32 _W_jc, string memory _S_id, uint256 _c, uint256 _v, uint256 _T_exp, uint256 _TD, uint256 _TR) public onlyOwner {\r... */\n    tag_90:\n        /* \"contracts/channel.sol\":7241:7249  customer */\n      0x01\n      0x00\n      swap1\n      sload\n      swap1\n      0x0100\n      exp\n      swap1\n      div\n      0xffffffffffffffffffffffffffffffffffffffff\n      and\n        /* \"contracts/channel.sol\":7227:7249  msg.sender == customer */\n      0xffffffffffffffffffffffffffffffffffffffff\n      and\n        /* \"contracts/channel.sol\":7227:7237  msg.sender */\n      caller\n        /* \"contracts/channel.sol\":7227:7249  msg.sender == customer */\n      0xffffffffffffffffffffffffffffffffffffffff\n      and\n      eq\n        /* \"contracts/channel.sol\":7218:7311  require (msg.sender == customer, \"Only customer of the delivery can set the channel params.\") */\n      tag_215\n      jumpi\n      mload(0x40)\n      0x08c379a000000000000000000000000000000000000000000000000000000000\n      dup2\n      mstore\n      0x04\n      add\n      tag_216\n      swap1\n      tag_98\n      jump\t// in\n    tag_216:\n      mload(0x40)\n      dup1\n      swap2\n      sub\n      swap1\n      revert\n    tag_215:\n        /* \"contracts/channel.sol\":4354:4356  _v */\n      dup4\n        /* \"contracts/channel.sol\":4349:4351  _c */\n      dup6\n        /* \"contracts/channel.sol\":4349:4356  _c * _v */\n      tag_218\n      swap2\n      swap1\n      tag_114\n      jump\t// in\n    tag_218:\n        /* \"contracts/channel.sol\":4324:4345  address(this).balance */\n      selfbalance\n        /* \"contracts/channel.sol\":4324:4356  address(this).balance == _c * _v */\n      eq\n        /* \"contracts/channel.sol\":4316:4357  require(address(this).balance == _c * _v) */\n      tag_219\n      jumpi\n      0x00\n      dup1\n      revert\n    tag_219:\n        /* \"contracts/channel.sol\":4386:4387  0 */\n      0x00\n        /* \"contracts/channel.sol\":4377:4382  T_exp */\n      sload(0x07)\n        /* \"contracts/channel.sol\":4377:4387  T_exp == 0 */\n      eq\n        /* \"contracts/channel.sol\":4377:4398  T_exp == 0 && TD == 0 */\n      dup1\n      iszero\n      tag_220\n      jumpi\n      pop\n        /* \"contracts/channel.sol\":4397:4398  0 */\n      0x00\n        /* \"contracts/channel.sol\":4391:4393  TD */\n      sload(0x08)\n        /* \"contracts/channel.sol\":4391:4398  TD == 0 */\n      eq\n        /* \"contracts/channel.sol\":4377:4398  T_exp == 0 && TD == 0 */\n    tag_220:\n        /* \"contracts/channel.sol\":4377:4409  T_exp == 0 && TD == 0 && TR == 0 */\n      dup1\n      iszero\n      tag_221\n      jumpi\n      pop\n        /* \"contracts/channel.sol\":4408:4409  0 */\n      0x00\n        /* \"contracts/channel.sol\":4402:4404  TR */\n      sload(0x09)\n        /* \"contracts/channel.sol\":4402:4409  TR == 0 */\n      eq\n        /* \"contracts/channel.sol\":4377:4409  T_exp == 0 && TD == 0 && TR == 0 */\n    tag_221:\n        /* \"contracts/channel.sol\":4377:4443  T_exp == 0 && TD == 0 && TR == 0 && (T_exp + TD) < block.timestamp */\n      dup1\n      iszero\n      tag_222\n      jumpi\n      pop\n        /* \"contracts/channel.sol\":4428:4443  block.timestamp */\n      timestamp\n        /* \"contracts/channel.sol\":4422:4424  TD */\n      sload(0x08)\n        /* \"contracts/channel.sol\":4414:4419  T_exp */\n      sload(0x07)\n        /* \"contracts/channel.sol\":4414:4424  T_exp + TD */\n      tag_223\n      swap2\n      swap1\n      tag_101\n      jump\t// in\n    tag_223:\n        /* \"contracts/channel.sol\":4413:4443  (T_exp + TD) < block.timestamp */\n      lt\n        /* \"contracts/channel.sol\":4377:4443  T_exp == 0 && TD == 0 && TR == 0 && (T_exp + TD) < block.timestamp */\n    tag_222:\n        /* \"contracts/channel.sol\":4376:4521  (T_exp == 0 && TD == 0 && TR == 0 && (T_exp + TD) < block.timestamp) || ((T_exp + TD) < block.timestamp && (block.timestamp < (T_exp + TD + TR))) */\n      dup1\n      tag_224\n      jumpi\n      pop\n        /* \"contracts/channel.sol\":4464:4479  block.timestamp */\n      timestamp\n        /* \"contracts/channel.sol\":4458:4460  TD */\n      sload(0x08)\n        /* \"contracts/channel.sol\":4450:4455  T_exp */\n      sload(0x07)\n        /* \"contracts/channel.sol\":4450:4460  T_exp + TD */\n      tag_225\n      swap2\n      swap1\n      tag_101\n      jump\t// in\n    tag_225:\n        /* \"contracts/channel.sol\":4449:4479  (T_exp + TD) < block.timestamp */\n      lt\n        /* \"contracts/channel.sol\":4449:4520  (T_exp + TD) < block.timestamp && (block.timestamp < (T_exp + TD + TR)) */\n      dup1\n      iszero\n      tag_226\n      jumpi\n      pop\n        /* \"contracts/channel.sol\":4516:4518  TR */\n      sload(0x09)\n        /* \"contracts/channel.sol\":4511:4513  TD */\n      sload(0x08)\n        /* \"contracts/channel.sol\":4503:4508  T_exp */\n      sload(0x07)\n        /* \"contracts/channel.sol\":4503:4513  T_exp + TD */\n      tag_227\n      swap2\n      swap1\n      tag_101\n      jump\t// in\n    tag_227:\n        /* \"contracts/channel.sol\":4503:4518  T_exp + TD + TR */\n      tag_228\n      swap2\n      swap1\n      tag_101\n      jump\t// in\n    tag_228:\n        /* \"contracts/channel.sol\":4484:4499  block.timestamp */\n      timestamp\n        /* \"contracts/channel.sol\":4484:4519  block.timestamp < (T_exp + TD + TR) */\n      lt\n        /* \"contracts/channel.sol\":4449:4520  (T_exp + TD) < block.timestamp && (block.timestamp < (T_exp + TD + TR)) */\n    tag_226:\n        /* \"contracts/channel.sol\":4376:4521  (T_exp == 0 && TD == 0 && TR == 0 && (T_exp + TD) < block.timestamp) || ((T_exp + TD) < block.timestamp && (block.timestamp < (T_exp + TD + TR))) */\n    tag_224:\n        /* \"contracts/channel.sol\":4368:4522  require((T_exp == 0 && TD == 0 && TR == 0 && (T_exp + TD) < block.timestamp) || ((T_exp + TD) < block.timestamp && (block.timestamp < (T_exp + TD + TR)))) */\n      tag_229\n      jumpi\n      0x00\n      dup1\n      revert\n    tag_229:\n        /* \"contracts/channel.sol\":4537:4538  0 */\n      0x00\n        /* \"contracts/channel.sol\":4533:4534  j */\n      dup1\n        /* \"contracts/channel.sol\":4533:4538  j = 0 */\n      dup2\n      swap1\n      sstore\n      pop\n        /* \"contracts/channel.sol\":4566:4571  _W_jm */\n      dup8\n        /* \"contracts/channel.sol\":4559:4563  W_jm */\n      0x02\n        /* \"contracts/channel.sol\":4559:4571  W_jm = _W_jm */\n      dup2\n      swap1\n      sstore\n      pop\n        /* \"contracts/channel.sol\":4589:4594  _W_jc */\n      dup7\n        /* \"contracts/channel.sol\":4582:4586  W_jc */\n      0x03\n        /* \"contracts/channel.sol\":4582:4594  W_jc = _W_jc */\n      dup2\n      swap1\n      sstore\n      pop\n        /* \"contracts/channel.sol\":4612:4617  _S_id */\n      dup6\n        /* \"contracts/channel.sol\":4605:4609  S_id */\n      0x04\n        /* \"contracts/channel.sol\":4605:4617  S_id = _S_id */\n      swap1\n      dup1\n      mload\n      swap1\n      0x20\n      add\n      swap1\n      tag_230\n      swap3\n      swap2\n      swap1\n      tag_129\n      jump\t// in\n    tag_230:\n      pop\n        /* \"contracts/channel.sol\":4632:4634  _c */\n      dup5\n        /* \"contracts/channel.sol\":4628:4629  c */\n      0x05\n        /* \"contracts/channel.sol\":4628:4634  c = _c */\n      dup2\n      swap1\n      sstore\n      pop\n        /* \"contracts/channel.sol\":4649:4651  _v */\n      dup4\n        /* \"contracts/channel.sol\":4645:4646  v */\n      0x06\n        /* \"contracts/channel.sol\":4645:4651  v = _v */\n      dup2\n      swap1\n      sstore\n      pop\n        /* \"contracts/channel.sol\":4670:4676  _T_exp */\n      dup3\n        /* \"contracts/channel.sol\":4662:4667  T_exp */\n      0x07\n        /* \"contracts/channel.sol\":4662:4676  T_exp = _T_exp */\n      dup2\n      swap1\n      sstore\n      pop\n        /* \"contracts/channel.sol\":4692:4695  _TD */\n      dup2\n        /* \"contracts/channel.sol\":4687:4689  TD */\n      0x08\n        /* \"contracts/channel.sol\":4687:4695  TD = _TD */\n      dup2\n      swap1\n      sstore\n      pop\n        /* \"contracts/channel.sol\":4711:4714  _TR */\n      dup1\n        /* \"contracts/channel.sol\":4706:4708  TR */\n      0x09\n        /* \"contracts/channel.sol\":4706:4714  TR = _TR */\n      dup2\n      swap1\n      sstore\n      pop\n        /* \"contracts/channel.sol\":4145:4722  function setChannelParams(bytes32 _W_jm, bytes32 _W_jc, string memory _S_id, uint256 _c, uint256 _v, uint256 _T_exp, uint256 _TD, uint256 _TR) public onlyOwner {\r... */\n      pop\n      pop\n      pop\n      pop\n      pop\n      pop\n      pop\n      pop\n      jump\t// out\n        /* \"contracts/channel.sol\":2797:2817  uint256 public T_exp */\n    tag_93:\n      sload(0x07)\n      dup2\n      jump\t// out\n    tag_129:\n      dup3\n      dup1\n      sload\n      tag_231\n      swap1\n      tag_106\n      jump\t// in\n    tag_231:\n      swap1\n      0x00\n      mstore\n      keccak256(0x00, 0x20)\n      swap1\n      0x1f\n      add\n      0x20\n      swap1\n      div\n      dup2\n      add\n      swap3\n      dup3\n      tag_233\n      jumpi\n      0x00\n      dup6\n      sstore\n      jump(tag_232)\n    tag_233:\n      dup3\n      0x1f\n      lt\n      tag_234\n      jumpi\n      dup1\n      mload\n      not(0xff)\n      and\n      dup4\n      dup1\n      add\n      or\n      dup6\n      sstore\n      jump(tag_232)\n    tag_234:\n      dup3\n      dup1\n      add\n      0x01\n      add\n      dup6\n      sstore\n      dup3\n      iszero\n      tag_232\n      jumpi\n      swap2\n      dup3\n      add\n    tag_235:\n      dup3\n      dup2\n      gt\n      iszero\n      tag_236\n      jumpi\n      dup3\n      mload\n      dup3\n      sstore\n      swap2\n      0x20\n      add\n      swap2\n      swap1\n      0x01\n      add\n      swap1\n      jump(tag_235)\n    tag_236:\n    tag_232:\n      pop\n      swap1\n      pop\n      tag_237\n      swap2\n      swap1\n      tag_238\n      jump\t// in\n    tag_237:\n      pop\n      swap1\n      jump\t// out\n    tag_238:\n    tag_239:\n      dup1\n      dup3\n      gt\n      iszero\n      tag_240\n      jumpi\n      0x00\n      dup2\n      0x00\n      swap1\n      sstore\n      pop\n      0x01\n      add\n      jump(tag_239)\n    tag_240:\n      pop\n      swap1\n      jump\t// out\n        /* \"#utility.yul\":7:417   */\n    tag_242:\n        /* \"#utility.yul\":84:89   */\n      0x00\n        /* \"#utility.yul\":109:174   */\n      tag_244\n        /* \"#utility.yul\":125:173   */\n      tag_245\n        /* \"#utility.yul\":166:172   */\n      dup5\n        /* \"#utility.yul\":125:173   */\n      tag_246\n      jump\t// in\n    tag_245:\n        /* \"#utility.yul\":109:174   */\n      tag_247\n      jump\t// in\n    tag_244:\n        /* \"#utility.yul\":100:174   */\n      swap1\n      pop\n        /* \"#utility.yul\":197:203   */\n      dup3\n        /* \"#utility.yul\":190:195   */\n      dup2\n        /* \"#utility.yul\":183:204   */\n      mstore\n        /* \"#utility.yul\":235:239   */\n      0x20\n        /* \"#utility.yul\":228:233   */\n      dup2\n        /* \"#utility.yul\":224:240   */\n      add\n        /* \"#utility.yul\":273:276   */\n      dup5\n        /* \"#utility.yul\":264:270   */\n      dup5\n        /* \"#utility.yul\":259:262   */\n      dup5\n        /* \"#utility.yul\":255:271   */\n      add\n        /* \"#utility.yul\":252:277   */\n      gt\n        /* \"#utility.yul\":249:361   */\n      iszero\n      tag_248\n      jumpi\n        /* \"#utility.yul\":280:359   */\n      tag_249\n      tag_250\n      jump\t// in\n    tag_249:\n        /* \"#utility.yul\":249:361   */\n    tag_248:\n        /* \"#utility.yul\":370:411   */\n      tag_251\n        /* \"#utility.yul\":404:410   */\n      dup5\n        /* \"#utility.yul\":399:402   */\n      dup3\n        /* \"#utility.yul\":394:397   */\n      dup6\n        /* \"#utility.yul\":370:411   */\n      tag_252\n      jump\t// in\n    tag_251:\n        /* \"#utility.yul\":90:417   */\n      pop\n        /* \"#utility.yul\":7:417   */\n      swap4\n      swap3\n      pop\n      pop\n      pop\n      jump\t// out\n        /* \"#utility.yul\":423:835   */\n    tag_253:\n        /* \"#utility.yul\":501:506   */\n      0x00\n        /* \"#utility.yul\":526:592   */\n      tag_255\n        /* \"#utility.yul\":542:591   */\n      tag_256\n        /* \"#utility.yul\":584:590   */\n      dup5\n        /* \"#utility.yul\":542:591   */\n      tag_257\n      jump\t// in\n    tag_256:\n        /* \"#utility.yul\":526:592   */\n      tag_247\n      jump\t// in\n    tag_255:\n        /* \"#utility.yul\":517:592   */\n      swap1\n      pop\n        /* \"#utility.yul\":615:621   */\n      dup3\n        /* \"#utility.yul\":608:613   */\n      dup2\n        /* \"#utility.yul\":601:622   */\n      mstore\n        /* \"#utility.yul\":653:657   */\n      0x20\n        /* \"#utility.yul\":646:651   */\n      dup2\n        /* \"#utility.yul\":642:658   */\n      add\n        /* \"#utility.yul\":691:694   */\n      dup5\n        /* \"#utility.yul\":682:688   */\n      dup5\n        /* \"#utility.yul\":677:680   */\n      dup5\n        /* \"#utility.yul\":673:689   */\n      add\n        /* \"#utility.yul\":670:695   */\n      gt\n        /* \"#utility.yul\":667:779   */\n      iszero\n      tag_258\n      jumpi\n        /* \"#utility.yul\":698:777   */\n      tag_259\n      tag_250\n      jump\t// in\n    tag_259:\n        /* \"#utility.yul\":667:779   */\n    tag_258:\n        /* \"#utility.yul\":788:829   */\n      tag_260\n        /* \"#utility.yul\":822:828   */\n      dup5\n        /* \"#utility.yul\":817:820   */\n      dup3\n        /* \"#utility.yul\":812:815   */\n      dup6\n        /* \"#utility.yul\":788:829   */\n      tag_252\n      jump\t// in\n    tag_260:\n        /* \"#utility.yul\":507:835   */\n      pop\n        /* \"#utility.yul\":423:835   */\n      swap4\n      swap3\n      pop\n      pop\n      pop\n      jump\t// out\n        /* \"#utility.yul\":841:980   */\n    tag_261:\n        /* \"#utility.yul\":887:892   */\n      0x00\n        /* \"#utility.yul\":925:931   */\n      dup2\n        /* \"#utility.yul\":912:932   */\n      calldataload\n        /* \"#utility.yul\":903:932   */\n      swap1\n      pop\n        /* \"#utility.yul\":941:974   */\n      tag_263\n        /* \"#utility.yul\":968:973   */\n      dup2\n        /* \"#utility.yul\":941:974   */\n      tag_264\n      jump\t// in\n    tag_263:\n        /* \"#utility.yul\":841:980   */\n      swap3\n      swap2\n      pop\n      pop\n      jump\t// out\n        /* \"#utility.yul\":986:1125   */\n    tag_265:\n        /* \"#utility.yul\":1032:1037   */\n      0x00\n        /* \"#utility.yul\":1070:1076   */\n      dup2\n        /* \"#utility.yul\":1057:1077   */\n      calldataload\n        /* \"#utility.yul\":1048:1077   */\n      swap1\n      pop\n        /* \"#utility.yul\":1086:1119   */\n      tag_267\n        /* \"#utility.yul\":1113:1118   */\n      dup2\n        /* \"#utility.yul\":1086:1119   */\n      tag_268\n      jump\t// in\n    tag_267:\n        /* \"#utility.yul\":986:1125   */\n      swap3\n      swap2\n      pop\n      pop\n      jump\t// out\n        /* \"#utility.yul\":1131:1274   */\n    tag_269:\n        /* \"#utility.yul\":1188:1193   */\n      0x00\n        /* \"#utility.yul\":1219:1225   */\n      dup2\n        /* \"#utility.yul\":1213:1226   */\n      mload\n        /* \"#utility.yul\":1204:1226   */\n      swap1\n      pop\n        /* \"#utility.yul\":1235:1268   */\n      tag_271\n        /* \"#utility.yul\":1262:1267   */\n      dup2\n        /* \"#utility.yul\":1235:1268   */\n      tag_268\n      jump\t// in\n    tag_271:\n        /* \"#utility.yul\":1131:1274   */\n      swap3\n      swap2\n      pop\n      pop\n      jump\t// out\n        /* \"#utility.yul\":1293:1631   */\n    tag_272:\n        /* \"#utility.yul\":1348:1353   */\n      0x00\n        /* \"#utility.yul\":1397:1400   */\n      dup3\n        /* \"#utility.yul\":1390:1394   */\n      0x1f\n        /* \"#utility.yul\":1382:1388   */\n      dup4\n        /* \"#utility.yul\":1378:1395   */\n      add\n        /* \"#utility.yul\":1374:1401   */\n      slt\n        /* \"#utility.yul\":1364:1486   */\n      tag_274\n      jumpi\n        /* \"#utility.yul\":1405:1484   */\n      tag_275\n      tag_276\n      jump\t// in\n    tag_275:\n        /* \"#utility.yul\":1364:1486   */\n    tag_274:\n        /* \"#utility.yul\":1522:1528   */\n      dup2\n        /* \"#utility.yul\":1509:1529   */\n      calldataload\n        /* \"#utility.yul\":1547:1625   */\n      tag_277\n        /* \"#utility.yul\":1621:1624   */\n      dup5\n        /* \"#utility.yul\":1613:1619   */\n      dup3\n        /* \"#utility.yul\":1606:1610   */\n      0x20\n        /* \"#utility.yul\":1598:1604   */\n      dup7\n        /* \"#utility.yul\":1594:1611   */\n      add\n        /* \"#utility.yul\":1547:1625   */\n      tag_242\n      jump\t// in\n    tag_277:\n        /* \"#utility.yul\":1538:1625   */\n      swap2\n      pop\n        /* \"#utility.yul\":1354:1631   */\n      pop\n        /* \"#utility.yul\":1293:1631   */\n      swap3\n      swap2\n      pop\n      pop\n      jump\t// out\n        /* \"#utility.yul\":1651:1991   */\n    tag_278:\n        /* \"#utility.yul\":1707:1712   */\n      0x00\n        /* \"#utility.yul\":1756:1759   */\n      dup3\n        /* \"#utility.yul\":1749:1753   */\n      0x1f\n        /* \"#utility.yul\":1741:1747   */\n      dup4\n        /* \"#utility.yul\":1737:1754   */\n      add\n        /* \"#utility.yul\":1733:1760   */\n      slt\n        /* \"#utility.yul\":1723:1845   */\n      tag_280\n      jumpi\n        /* \"#utility.yul\":1764:1843   */\n      tag_281\n      tag_276\n      jump\t// in\n    tag_281:\n        /* \"#utility.yul\":1723:1845   */\n    tag_280:\n        /* \"#utility.yul\":1881:1887   */\n      dup2\n        /* \"#utility.yul\":1868:1888   */\n      calldataload\n        /* \"#utility.yul\":1906:1985   */\n      tag_282\n        /* \"#utility.yul\":1981:1984   */\n      dup5\n        /* \"#utility.yul\":1973:1979   */\n      dup3\n        /* \"#utility.yul\":1966:1970   */\n      0x20\n        /* \"#utility.yul\":1958:1964   */\n      dup7\n        /* \"#utility.yul\":1954:1971   */\n      add\n        /* \"#utility.yul\":1906:1985   */\n      tag_253\n      jump\t// in\n    tag_282:\n        /* \"#utility.yul\":1897:1985   */\n      swap2\n      pop\n        /* \"#utility.yul\":1713:1991   */\n      pop\n        /* \"#utility.yul\":1651:1991   */\n      swap3\n      swap2\n      pop\n      pop\n      jump\t// out\n        /* \"#utility.yul\":1997:2136   */\n    tag_283:\n        /* \"#utility.yul\":2043:2048   */\n      0x00\n        /* \"#utility.yul\":2081:2087   */\n      dup2\n        /* \"#utility.yul\":2068:2088   */\n      calldataload\n        /* \"#utility.yul\":2059:2088   */\n      swap1\n      pop\n        /* \"#utility.yul\":2097:2130   */\n      tag_285\n        /* \"#utility.yul\":2124:2129   */\n      dup2\n        /* \"#utility.yul\":2097:2130   */\n      tag_286\n      jump\t// in\n    tag_285:\n        /* \"#utility.yul\":1997:2136   */\n      swap3\n      swap2\n      pop\n      pop\n      jump\t// out\n        /* \"#utility.yul\":2142:2493   */\n    tag_158:\n        /* \"#utility.yul\":2212:2218   */\n      0x00\n        /* \"#utility.yul\":2261:2263   */\n      0x20\n        /* \"#utility.yul\":2249:2258   */\n      dup3\n        /* \"#utility.yul\":2240:2247   */\n      dup5\n        /* \"#utility.yul\":2236:2259   */\n      sub\n        /* \"#utility.yul\":2232:2264   */\n      slt\n        /* \"#utility.yul\":2229:2348   */\n      iszero\n      tag_288\n      jumpi\n        /* \"#utility.yul\":2267:2346   */\n      tag_289\n      tag_290\n      jump\t// in\n    tag_289:\n        /* \"#utility.yul\":2229:2348   */\n    tag_288:\n        /* \"#utility.yul\":2387:2388   */\n      0x00\n        /* \"#utility.yul\":2412:2476   */\n      tag_291\n        /* \"#utility.yul\":2468:2475   */\n      dup5\n        /* \"#utility.yul\":2459:2465   */\n      dup3\n        /* \"#utility.yul\":2448:2457   */\n      dup6\n        /* \"#utility.yul\":2444:2466   */\n      add\n        /* \"#utility.yul\":2412:2476   */\n      tag_269\n      jump\t// in\n    tag_291:\n        /* \"#utility.yul\":2402:2476   */\n      swap2\n      pop\n        /* \"#utility.yul\":2358:2486   */\n      pop\n        /* \"#utility.yul\":2142:2493   */\n      swap3\n      swap2\n      pop\n      pop\n      jump\t// out\n        /* \"#utility.yul\":2499:4028   */\n    tag_89:\n        /* \"#utility.yul\":2631:2637   */\n      0x00\n        /* \"#utility.yul\":2639:2645   */\n      dup1\n        /* \"#utility.yul\":2647:2653   */\n      0x00\n        /* \"#utility.yul\":2655:2661   */\n      dup1\n        /* \"#utility.yul\":2663:2669   */\n      0x00\n        /* \"#utility.yul\":2671:2677   */\n      dup1\n        /* \"#utility.yul\":2679:2685   */\n      0x00\n        /* \"#utility.yul\":2687:2693   */\n      dup1\n        /* \"#utility.yul\":2736:2739   */\n      0x0100\n        /* \"#utility.yul\":2724:2733   */\n      dup10\n        /* \"#utility.yul\":2715:2722   */\n      dup12\n        /* \"#utility.yul\":2711:2734   */\n      sub\n        /* \"#utility.yul\":2707:2740   */\n      slt\n        /* \"#utility.yul\":2704:2824   */\n      iszero\n      tag_293\n      jumpi\n        /* \"#utility.yul\":2743:2822   */\n      tag_294\n      tag_290\n      jump\t// in\n    tag_294:\n        /* \"#utility.yul\":2704:2824   */\n    tag_293:\n        /* \"#utility.yul\":2863:2864   */\n      0x00\n        /* \"#utility.yul\":2888:2941   */\n      tag_295\n        /* \"#utility.yul\":2933:2940   */\n      dup12\n        /* \"#utility.yul\":2924:2930   */\n      dup3\n        /* \"#utility.yul\":2913:2922   */\n      dup13\n        /* \"#utility.yul\":2909:2931   */\n      add\n        /* \"#utility.yul\":2888:2941   */\n      tag_265\n      jump\t// in\n    tag_295:\n        /* \"#utility.yul\":2878:2941   */\n      swap9\n      pop\n        /* \"#utility.yul\":2834:2951   */\n      pop\n        /* \"#utility.yul\":2990:2992   */\n      0x20\n        /* \"#utility.yul\":3016:3069   */\n      tag_296\n        /* \"#utility.yul\":3061:3068   */\n      dup12\n        /* \"#utility.yul\":3052:3058   */\n      dup3\n        /* \"#utility.yul\":3041:3050   */\n      dup13\n        /* \"#utility.yul\":3037:3059   */\n      add\n        /* \"#utility.yul\":3016:3069   */\n      tag_265\n      jump\t// in\n    tag_296:\n        /* \"#utility.yul\":3006:3069   */\n      swap8\n      pop\n        /* \"#utility.yul\":2961:3079   */\n      pop\n        /* \"#utility.yul\":3146:3148   */\n      0x40\n        /* \"#utility.yul\":3135:3144   */\n      dup10\n        /* \"#utility.yul\":3131:3149   */\n      add\n        /* \"#utility.yul\":3118:3150   */\n      calldataload\n        /* \"#utility.yul\":3177:3195   */\n      0xffffffffffffffff\n        /* \"#utility.yul\":3169:3175   */\n      dup2\n        /* \"#utility.yul\":3166:3196   */\n      gt\n        /* \"#utility.yul\":3163:3280   */\n      iszero\n      tag_297\n      jumpi\n        /* \"#utility.yul\":3199:3278   */\n      tag_298\n      tag_299\n      jump\t// in\n    tag_298:\n        /* \"#utility.yul\":3163:3280   */\n    tag_297:\n        /* \"#utility.yul\":3304:3367   */\n      tag_300\n        /* \"#utility.yul\":3359:3366   */\n      dup12\n        /* \"#utility.yul\":3350:3356   */\n      dup3\n        /* \"#utility.yul\":3339:3348   */\n      dup13\n        /* \"#utility.yul\":3335:3357   */\n      add\n        /* \"#utility.yul\":3304:3367   */\n      tag_278\n      jump\t// in\n    tag_300:\n        /* \"#utility.yul\":3294:3367   */\n      swap7\n      pop\n        /* \"#utility.yul\":3089:3377   */\n      pop\n        /* \"#utility.yul\":3416:3418   */\n      0x60\n        /* \"#utility.yul\":3442:3495   */\n      tag_301\n        /* \"#utility.yul\":3487:3494   */\n      dup12\n        /* \"#utility.yul\":3478:3484   */\n      dup3\n        /* \"#utility.yul\":3467:3476   */\n      dup13\n        /* \"#utility.yul\":3463:3485   */\n      add\n        /* \"#utility.yul\":3442:3495   */\n      tag_283\n      jump\t// in\n    tag_301:\n        /* \"#utility.yul\":3432:3495   */\n      swap6\n      pop\n        /* \"#utility.yul\":3387:3505   */\n      pop\n        /* \"#utility.yul\":3544:3547   */\n      0x80\n        /* \"#utility.yul\":3571:3624   */\n      tag_302\n        /* \"#utility.yul\":3616:3623   */\n      dup12\n        /* \"#utility.yul\":3607:3613   */\n      dup3\n        /* \"#utility.yul\":3596:3605   */\n      dup13\n        /* \"#utility.yul\":3592:3614   */\n      add\n        /* \"#utility.yul\":3571:3624   */\n      tag_283\n      jump\t// in\n    tag_302:\n        /* \"#utility.yul\":3561:3624   */\n      swap5\n      pop\n        /* \"#utility.yul\":3515:3634   */\n      pop\n        /* \"#utility.yul\":3673:3676   */\n      0xa0\n        /* \"#utility.yul\":3700:3753   */\n      tag_303\n        /* \"#utility.yul\":3745:3752   */\n      dup12\n        /* \"#utility.yul\":3736:3742   */\n      dup3\n        /* \"#utility.yul\":3725:3734   */\n      dup13\n        /* \"#utility.yul\":3721:3743   */\n      add\n        /* \"#utility.yul\":3700:3753   */\n      tag_283\n      jump\t// in\n    tag_303:\n        /* \"#utility.yul\":3690:3753   */\n      swap4\n      pop\n        /* \"#utility.yul\":3644:3763   */\n      pop\n        /* \"#utility.yul\":3802:3805   */\n      0xc0\n        /* \"#utility.yul\":3829:3882   */\n      tag_304\n        /* \"#utility.yul\":3874:3881   */\n      dup12\n        /* \"#utility.yul\":3865:3871   */\n      dup3\n        /* \"#utility.yul\":3854:3863   */\n      dup13\n        /* \"#utility.yul\":3850:3872   */\n      add\n        /* \"#utility.yul\":3829:3882   */\n      tag_283\n      jump\t// in\n    tag_304:\n        /* \"#utility.yul\":3819:3882   */\n      swap3\n      pop\n        /* \"#utility.yul\":3773:3892   */\n      pop\n        /* \"#utility.yul\":3931:3934   */\n      0xe0\n        /* \"#utility.yul\":3958:4011   */\n      tag_305\n        /* \"#utility.yul\":4003:4010   */\n      dup12\n        /* \"#utility.yul\":3994:4000   */\n      dup3\n        /* \"#utility.yul\":3983:3992   */\n      dup13\n        /* \"#utility.yul\":3979:4001   */\n      add\n        /* \"#utility.yul\":3958:4011   */\n      tag_283\n      jump\t// in\n    tag_305:\n        /* \"#utility.yul\":3948:4011   */\n      swap2\n      pop\n        /* \"#utility.yul\":3902:4021   */\n      pop\n        /* \"#utility.yul\":2499:4028   */\n      swap3\n      swap6\n      swap9\n      pop\n      swap3\n      swap6\n      swap9\n      swap1\n      swap4\n      swap7\n      pop\n      jump\t// out\n        /* \"#utility.yul\":4034:5155   */\n    tag_84:\n        /* \"#utility.yul\":4138:4144   */\n      0x00\n        /* \"#utility.yul\":4146:4152   */\n      dup1\n        /* \"#utility.yul\":4154:4160   */\n      0x00\n        /* \"#utility.yul\":4162:4168   */\n      dup1\n        /* \"#utility.yul\":4211:4214   */\n      0x80\n        /* \"#utility.yul\":4199:4208   */\n      dup6\n        /* \"#utility.yul\":4190:4197   */\n      dup8\n        /* \"#utility.yul\":4186:4209   */\n      sub\n        /* \"#utility.yul\":4182:4215   */\n      slt\n        /* \"#utility.yul\":4179:4299   */\n      iszero\n      tag_307\n      jumpi\n        /* \"#utility.yul\":4218:4297   */\n      tag_308\n      tag_290\n      jump\t// in\n    tag_308:\n        /* \"#utility.yul\":4179:4299   */\n    tag_307:\n        /* \"#utility.yul\":4366:4367   */\n      0x00\n        /* \"#utility.yul\":4355:4364   */\n      dup6\n        /* \"#utility.yul\":4351:4368   */\n      add\n        /* \"#utility.yul\":4338:4369   */\n      calldataload\n        /* \"#utility.yul\":4396:4414   */\n      0xffffffffffffffff\n        /* \"#utility.yul\":4388:4394   */\n      dup2\n        /* \"#utility.yul\":4385:4415   */\n      gt\n        /* \"#utility.yul\":4382:4499   */\n      iszero\n      tag_309\n      jumpi\n        /* \"#utility.yul\":4418:4497   */\n      tag_310\n      tag_299\n      jump\t// in\n    tag_310:\n        /* \"#utility.yul\":4382:4499   */\n    tag_309:\n        /* \"#utility.yul\":4523:4585   */\n      tag_311\n        /* \"#utility.yul\":4577:4584   */\n      dup8\n        /* \"#utility.yul\":4568:4574   */\n      dup3\n        /* \"#utility.yul\":4557:4566   */\n      dup9\n        /* \"#utility.yul\":4553:4575   */\n      add\n        /* \"#utility.yul\":4523:4585   */\n      tag_272\n      jump\t// in\n    tag_311:\n        /* \"#utility.yul\":4513:4585   */\n      swap5\n      pop\n        /* \"#utility.yul\":4309:4595   */\n      pop\n        /* \"#utility.yul\":4662:4664   */\n      0x20\n        /* \"#utility.yul\":4651:4660   */\n      dup6\n        /* \"#utility.yul\":4647:4665   */\n      add\n        /* \"#utility.yul\":4634:4666   */\n      calldataload\n        /* \"#utility.yul\":4693:4711   */\n      0xffffffffffffffff\n        /* \"#utility.yul\":4685:4691   */\n      dup2\n        /* \"#utility.yul\":4682:4712   */\n      gt\n        /* \"#utility.yul\":4679:4796   */\n      iszero\n      tag_312\n      jumpi\n        /* \"#utility.yul\":4715:4794   */\n      tag_313\n      tag_299\n      jump\t// in\n    tag_313:\n        /* \"#utility.yul\":4679:4796   */\n    tag_312:\n        /* \"#utility.yul\":4820:4882   */\n      tag_314\n        /* \"#utility.yul\":4874:4881   */\n      dup8\n        /* \"#utility.yul\":4865:4871   */\n      dup3\n        /* \"#utility.yul\":4854:4863   */\n      dup9\n        /* \"#utility.yul\":4850:4872   */\n      add\n        /* \"#utility.yul\":4820:4882   */\n      tag_272\n      jump\t// in\n    tag_314:\n        /* \"#utility.yul\":4810:4882   */\n      swap4\n      pop\n        /* \"#utility.yul\":4605:4892   */\n      pop\n        /* \"#utility.yul\":4931:4933   */\n      0x40\n        /* \"#utility.yul\":4957:5010   */\n      tag_315\n        /* \"#utility.yul\":5002:5009   */\n      dup8\n        /* \"#utility.yul\":4993:4999   */\n      dup3\n        /* \"#utility.yul\":4982:4991   */\n      dup9\n        /* \"#utility.yul\":4978:5000   */\n      add\n        /* \"#utility.yul\":4957:5010   */\n      tag_283\n      jump\t// in\n    tag_315:\n        /* \"#utility.yul\":4947:5010   */\n      swap3\n      pop\n        /* \"#utility.yul\":4902:5020   */\n      pop\n        /* \"#utility.yul\":5059:5061   */\n      0x60\n        /* \"#utility.yul\":5085:5138   */\n      tag_316\n        /* \"#utility.yul\":5130:5137   */\n      dup8\n        /* \"#utility.yul\":5121:5127   */\n      dup3\n        /* \"#utility.yul\":5110:5119   */\n      dup9\n        /* \"#utility.yul\":5106:5128   */\n      add\n        /* \"#utility.yul\":5085:5138   */\n      tag_261\n      jump\t// in\n    tag_316:\n        /* \"#utility.yul\":5075:5138   */\n      swap2\n      pop\n        /* \"#utility.yul\":5030:5148   */\n      pop\n        /* \"#utility.yul\":4034:5155   */\n      swap3\n      swap6\n      swap2\n      swap5\n      pop\n      swap3\n      pop\n      jump\t// out\n        /* \"#utility.yul\":5161:5780   */\n    tag_71:\n        /* \"#utility.yul\":5238:5244   */\n      0x00\n        /* \"#utility.yul\":5246:5252   */\n      dup1\n        /* \"#utility.yul\":5254:5260   */\n      0x00\n        /* \"#utility.yul\":5303:5305   */\n      0x60\n        /* \"#utility.yul\":5291:5300   */\n      dup5\n        /* \"#utility.yul\":5282:5289   */\n      dup7\n        /* \"#utility.yul\":5278:5301   */\n      sub\n        /* \"#utility.yul\":5274:5306   */\n      slt\n        /* \"#utility.yul\":5271:5390   */\n      iszero\n      tag_318\n      jumpi\n        /* \"#utility.yul\":5309:5388   */\n      tag_319\n      tag_290\n      jump\t// in\n    tag_319:\n        /* \"#utility.yul\":5271:5390   */\n    tag_318:\n        /* \"#utility.yul\":5429:5430   */\n      0x00\n        /* \"#utility.yul\":5454:5507   */\n      tag_320\n        /* \"#utility.yul\":5499:5506   */\n      dup7\n        /* \"#utility.yul\":5490:5496   */\n      dup3\n        /* \"#utility.yul\":5479:5488   */\n      dup8\n        /* \"#utility.yul\":5475:5497   */\n      add\n        /* \"#utility.yul\":5454:5507   */\n      tag_283\n      jump\t// in\n    tag_320:\n        /* \"#utility.yul\":5444:5507   */\n      swap4\n      pop\n        /* \"#utility.yul\":5400:5517   */\n      pop\n        /* \"#utility.yul\":5556:5558   */\n      0x20\n        /* \"#utility.yul\":5582:5635   */\n      tag_321\n        /* \"#utility.yul\":5627:5634   */\n      dup7\n        /* \"#utility.yul\":5618:5624   */\n      dup3\n        /* \"#utility.yul\":5607:5616   */\n      dup8\n        /* \"#utility.yul\":5603:5625   */\n      add\n        /* \"#utility.yul\":5582:5635   */\n      tag_283\n      jump\t// in\n    tag_321:\n        /* \"#utility.yul\":5572:5635   */\n      swap3\n      pop\n        /* \"#utility.yul\":5527:5645   */\n      pop\n        /* \"#utility.yul\":5684:5686   */\n      0x40\n        /* \"#utility.yul\":5710:5763   */\n      tag_322\n        /* \"#utility.yul\":5755:5762   */\n      dup7\n        /* \"#utility.yul\":5746:5752   */\n      dup3\n        /* \"#utility.yul\":5735:5744   */\n      dup8\n        /* \"#utility.yul\":5731:5753   */\n      add\n        /* \"#utility.yul\":5710:5763   */\n      tag_261\n      jump\t// in\n    tag_322:\n        /* \"#utility.yul\":5700:5763   */\n      swap2\n      pop\n        /* \"#utility.yul\":5655:5773   */\n      pop\n        /* \"#utility.yul\":5161:5780   */\n      swap3\n      pop\n      swap3\n      pop\n      swap3\n      jump\t// out\n        /* \"#utility.yul\":5786:7461   */\n    tag_45:\n        /* \"#utility.yul\":5927:5933   */\n      0x00\n        /* \"#utility.yul\":5935:5941   */\n      dup1\n        /* \"#utility.yul\":5943:5949   */\n      0x00\n        /* \"#utility.yul\":5951:5957   */\n      dup1\n        /* \"#utility.yul\":5959:5965   */\n      0x00\n        /* \"#utility.yul\":5967:5973   */\n      dup1\n        /* \"#utility.yul\":5975:5981   */\n      0x00\n        /* \"#utility.yul\":5983:5989   */\n      dup1\n        /* \"#utility.yul\":5991:5997   */\n      0x00\n        /* \"#utility.yul\":6040:6043   */\n      0x0120\n        /* \"#utility.yul\":6028:6037   */\n      dup11\n        /* \"#utility.yul\":6019:6026   */\n      dup13\n        /* \"#utility.yul\":6015:6038   */\n      sub\n        /* \"#utility.yul\":6011:6044   */\n      slt\n        /* \"#utility.yul\":6008:6128   */\n      iszero\n      tag_324\n      jumpi\n        /* \"#utility.yul\":6047:6126   */\n      tag_325\n      tag_290\n      jump\t// in\n    tag_325:\n        /* \"#utility.yul\":6008:6128   */\n    tag_324:\n        /* \"#utility.yul\":6167:6168   */\n      0x00\n        /* \"#utility.yul\":6192:6245   */\n      tag_326\n        /* \"#utility.yul\":6237:6244   */\n      dup13\n        /* \"#utility.yul\":6228:6234   */\n      dup3\n        /* \"#utility.yul\":6217:6226   */\n      dup14\n        /* \"#utility.yul\":6213:6235   */\n      add\n        /* \"#utility.yul\":6192:6245   */\n      tag_283\n      jump\t// in\n    tag_326:\n        /* \"#utility.yul\":6182:6245   */\n      swap10\n      pop\n        /* \"#utility.yul\":6138:6255   */\n      pop\n        /* \"#utility.yul\":6294:6296   */\n      0x20\n        /* \"#utility.yul\":6320:6373   */\n      tag_327\n        /* \"#utility.yul\":6365:6372   */\n      dup13\n        /* \"#utility.yul\":6356:6362   */\n      dup3\n        /* \"#utility.yul\":6345:6354   */\n      dup14\n        /* \"#utility.yul\":6341:6363   */\n      add\n        /* \"#utility.yul\":6320:6373   */\n      tag_283\n      jump\t// in\n    tag_327:\n        /* \"#utility.yul\":6310:6373   */\n      swap9\n      pop\n        /* \"#utility.yul\":6265:6383   */\n      pop\n        /* \"#utility.yul\":6422:6424   */\n      0x40\n        /* \"#utility.yul\":6448:6501   */\n      tag_328\n        /* \"#utility.yul\":6493:6500   */\n      dup13\n        /* \"#utility.yul\":6484:6490   */\n      dup3\n        /* \"#utility.yul\":6473:6482   */\n      dup14\n        /* \"#utility.yul\":6469:6491   */\n      add\n        /* \"#utility.yul\":6448:6501   */\n      tag_261\n      jump\t// in\n    tag_328:\n        /* \"#utility.yul\":6438:6501   */\n      swap8\n      pop\n        /* \"#utility.yul\":6393:6511   */\n      pop\n        /* \"#utility.yul\":6550:6552   */\n      0x60\n        /* \"#utility.yul\":6576:6629   */\n      tag_329\n        /* \"#utility.yul\":6621:6628   */\n      dup13\n        /* \"#utility.yul\":6612:6618   */\n      dup3\n        /* \"#utility.yul\":6601:6610   */\n      dup14\n        /* \"#utility.yul\":6597:6619   */\n      add\n        /* \"#utility.yul\":6576:6629   */\n      tag_265\n      jump\t// in\n    tag_329:\n        /* \"#utility.yul\":6566:6629   */\n      swap7\n      pop\n        /* \"#utility.yul\":6521:6639   */\n      pop\n        /* \"#utility.yul\":6678:6681   */\n      0x80\n        /* \"#utility.yul\":6705:6758   */\n      tag_330\n        /* \"#utility.yul\":6750:6757   */\n      dup13\n        /* \"#utility.yul\":6741:6747   */\n      dup3\n        /* \"#utility.yul\":6730:6739   */\n      dup14\n        /* \"#utility.yul\":6726:6748   */\n      add\n        /* \"#utility.yul\":6705:6758   */\n      tag_265\n      jump\t// in\n    tag_330:\n        /* \"#utility.yul\":6695:6758   */\n      swap6\n      pop\n        /* \"#utility.yul\":6649:6768   */\n      pop\n        /* \"#utility.yul\":6835:6838   */\n      0xa0\n        /* \"#utility.yul\":6824:6833   */\n      dup11\n        /* \"#utility.yul\":6820:6839   */\n      add\n        /* \"#utility.yul\":6807:6840   */\n      calldataload\n        /* \"#utility.yul\":6867:6885   */\n      0xffffffffffffffff\n        /* \"#utility.yul\":6859:6865   */\n      dup2\n        /* \"#utility.yul\":6856:6886   */\n      gt\n        /* \"#utility.yul\":6853:6970   */\n      iszero\n      tag_331\n      jumpi\n        /* \"#utility.yul\":6889:6968   */\n      tag_332\n      tag_299\n      jump\t// in\n    tag_332:\n        /* \"#utility.yul\":6853:6970   */\n    tag_331:\n        /* \"#utility.yul\":6994:7057   */\n      tag_333\n        /* \"#utility.yul\":7049:7056   */\n      dup13\n        /* \"#utility.yul\":7040:7046   */\n      dup3\n        /* \"#utility.yul\":7029:7038   */\n      dup14\n        /* \"#utility.yul\":7025:7047   */\n      add\n        /* \"#utility.yul\":6994:7057   */\n      tag_278\n      jump\t// in\n    tag_333:\n        /* \"#utility.yul\":6984:7057   */\n      swap5\n      pop\n        /* \"#utility.yul\":6778:7067   */\n      pop\n        /* \"#utility.yul\":7106:7109   */\n      0xc0\n        /* \"#utility.yul\":7133:7186   */\n      tag_334\n        /* \"#utility.yul\":7178:7185   */\n      dup13\n        /* \"#utility.yul\":7169:7175   */\n      dup3\n        /* \"#utility.yul\":7158:7167   */\n      dup14\n        /* \"#utility.yul\":7154:7176   */\n      add\n        /* \"#utility.yul\":7133:7186   */\n      tag_283\n      jump\t// in\n    tag_334:\n        /* \"#utility.yul\":7123:7186   */\n      swap4\n      pop\n        /* \"#utility.yul\":7077:7196   */\n      pop\n        /* \"#utility.yul\":7235:7238   */\n      0xe0\n        /* \"#utility.yul\":7262:7315   */\n      tag_335\n        /* \"#utility.yul\":7307:7314   */\n      dup13\n        /* \"#utility.yul\":7298:7304   */\n      dup3\n        /* \"#utility.yul\":7287:7296   */\n      dup14\n        /* \"#utility.yul\":7283:7305   */\n      add\n        /* \"#utility.yul\":7262:7315   */\n      tag_283\n      jump\t// in\n    tag_335:\n        /* \"#utility.yul\":7252:7315   */\n      swap3\n      pop\n        /* \"#utility.yul\":7206:7325   */\n      pop\n        /* \"#utility.yul\":7364:7367   */\n      0x0100\n        /* \"#utility.yul\":7391:7444   */\n      tag_336\n        /* \"#utility.yul\":7436:7443   */\n      dup13\n        /* \"#utility.yul\":7427:7433   */\n      dup3\n        /* \"#utility.yul\":7416:7425   */\n      dup14\n        /* \"#utility.yul\":7412:7434   */\n      add\n        /* \"#utility.yul\":7391:7444   */\n      tag_283\n      jump\t// in\n    tag_336:\n        /* \"#utility.yul\":7381:7444   */\n      swap2\n      pop\n        /* \"#utility.yul\":7335:7454   */\n      pop\n        /* \"#utility.yul\":5786:7461   */\n      swap3\n      swap6\n      swap9\n      pop\n      swap3\n      swap6\n      swap9\n      pop\n      swap3\n      swap6\n      swap9\n      jump\t// out\n        /* \"#utility.yul\":7467:7585   */\n    tag_337:\n        /* \"#utility.yul\":7554:7578   */\n      tag_339\n        /* \"#utility.yul\":7572:7577   */\n      dup2\n        /* \"#utility.yul\":7554:7578   */\n      tag_340\n      jump\t// in\n    tag_339:\n        /* \"#utility.yul\":7549:7552   */\n      dup3\n        /* \"#utility.yul\":7542:7579   */\n      mstore\n        /* \"#utility.yul\":7467:7585   */\n      pop\n      pop\n      jump\t// out\n        /* \"#utility.yul\":7591:7700   */\n    tag_341:\n        /* \"#utility.yul\":7672:7693   */\n      tag_343\n        /* \"#utility.yul\":7687:7692   */\n      dup2\n        /* \"#utility.yul\":7672:7693   */\n      tag_344\n      jump\t// in\n    tag_343:\n        /* \"#utility.yul\":7667:7670   */\n      dup3\n        /* \"#utility.yul\":7660:7694   */\n      mstore\n        /* \"#utility.yul\":7591:7700   */\n      pop\n      pop\n      jump\t// out\n        /* \"#utility.yul\":7706:7824   */\n    tag_345:\n        /* \"#utility.yul\":7793:7817   */\n      tag_347\n        /* \"#utility.yul\":7811:7816   */\n      dup2\n        /* \"#utility.yul\":7793:7817   */\n      tag_348\n      jump\t// in\n    tag_347:\n        /* \"#utility.yul\":7788:7791   */\n      dup3\n        /* \"#utility.yul\":7781:7818   */\n      mstore\n        /* \"#utility.yul\":7706:7824   */\n      pop\n      pop\n      jump\t// out\n        /* \"#utility.yul\":7830:7987   */\n    tag_349:\n        /* \"#utility.yul\":7935:7980   */\n      tag_351\n        /* \"#utility.yul\":7955:7979   */\n      tag_352\n        /* \"#utility.yul\":7973:7978   */\n      dup3\n        /* \"#utility.yul\":7955:7979   */\n      tag_348\n      jump\t// in\n    tag_352:\n        /* \"#utility.yul\":7935:7980   */\n      tag_353\n      jump\t// in\n    tag_351:\n        /* \"#utility.yul\":7930:7933   */\n      dup3\n        /* \"#utility.yul\":7923:7981   */\n      mstore\n        /* \"#utility.yul\":7830:7987   */\n      pop\n      pop\n      jump\t// out\n        /* \"#utility.yul\":7993:8366   */\n    tag_354:\n        /* \"#utility.yul\":8097:8100   */\n      0x00\n        /* \"#utility.yul\":8125:8163   */\n      tag_356\n        /* \"#utility.yul\":8157:8162   */\n      dup3\n        /* \"#utility.yul\":8125:8163   */\n      tag_357\n      jump\t// in\n    tag_356:\n        /* \"#utility.yul\":8179:8267   */\n      tag_358\n        /* \"#utility.yul\":8260:8266   */\n      dup2\n        /* \"#utility.yul\":8255:8258   */\n      dup6\n        /* \"#utility.yul\":8179:8267   */\n      tag_359\n      jump\t// in\n    tag_358:\n        /* \"#utility.yul\":8172:8267   */\n      swap4\n      pop\n        /* \"#utility.yul\":8276:8328   */\n      tag_360\n        /* \"#utility.yul\":8321:8327   */\n      dup2\n        /* \"#utility.yul\":8316:8319   */\n      dup6\n        /* \"#utility.yul\":8309:8313   */\n      0x20\n        /* \"#utility.yul\":8302:8307   */\n      dup7\n        /* \"#utility.yul\":8298:8314   */\n      add\n        /* \"#utility.yul\":8276:8328   */\n      tag_361\n      jump\t// in\n    tag_360:\n        /* \"#utility.yul\":8353:8359   */\n      dup1\n        /* \"#utility.yul\":8348:8351   */\n      dup5\n        /* \"#utility.yul\":8344:8360   */\n      add\n        /* \"#utility.yul\":8337:8360   */\n      swap2\n      pop\n        /* \"#utility.yul\":8101:8366   */\n      pop\n        /* \"#utility.yul\":7993:8366   */\n      swap3\n      swap2\n      pop\n      pop\n      jump\t// out\n        /* \"#utility.yul\":8372:8736   */\n    tag_362:\n        /* \"#utility.yul\":8460:8463   */\n      0x00\n        /* \"#utility.yul\":8488:8527   */\n      tag_364\n        /* \"#utility.yul\":8521:8526   */\n      dup3\n        /* \"#utility.yul\":8488:8527   */\n      tag_365\n      jump\t// in\n    tag_364:\n        /* \"#utility.yul\":8543:8614   */\n      tag_366\n        /* \"#utility.yul\":8607:8613   */\n      dup2\n        /* \"#utility.yul\":8602:8605   */\n      dup6\n        /* \"#utility.yul\":8543:8614   */\n      tag_367\n      jump\t// in\n    tag_366:\n        /* \"#utility.yul\":8536:8614   */\n      swap4\n      pop\n        /* \"#utility.yul\":8623:8675   */\n      tag_368\n        /* \"#utility.yul\":8668:8674   */\n      dup2\n        /* \"#utility.yul\":8663:8666   */\n      dup6\n        /* \"#utility.yul\":8656:8660   */\n      0x20\n        /* \"#utility.yul\":8649:8654   */\n      dup7\n        /* \"#utility.yul\":8645:8661   */\n      add\n        /* \"#utility.yul\":8623:8675   */\n      tag_361\n      jump\t// in\n    tag_368:\n        /* \"#utility.yul\":8700:8729   */\n      tag_369\n        /* \"#utility.yul\":8722:8728   */\n      dup2\n        /* \"#utility.yul\":8700:8729   */\n      tag_370\n      jump\t// in\n    tag_369:\n        /* \"#utility.yul\":8695:8698   */\n      dup5\n        /* \"#utility.yul\":8691:8730   */\n      add\n        /* \"#utility.yul\":8684:8730   */\n      swap2\n      pop\n        /* \"#utility.yul\":8464:8736   */\n      pop\n        /* \"#utility.yul\":8372:8736   */\n      swap3\n      swap2\n      pop\n      pop\n      jump\t// out\n        /* \"#utility.yul\":8742:9108   */\n    tag_371:\n        /* \"#utility.yul\":8884:8887   */\n      0x00\n        /* \"#utility.yul\":8905:8972   */\n      tag_373\n        /* \"#utility.yul\":8969:8971   */\n      0x0d\n        /* \"#utility.yul\":8964:8967   */\n      dup4\n        /* \"#utility.yul\":8905:8972   */\n      tag_367\n      jump\t// in\n    tag_373:\n        /* \"#utility.yul\":8898:8972   */\n      swap2\n      pop\n        /* \"#utility.yul\":8981:9074   */\n      tag_374\n        /* \"#utility.yul\":9070:9073   */\n      dup3\n        /* \"#utility.yul\":8981:9074   */\n      tag_375\n      jump\t// in\n    tag_374:\n        /* \"#utility.yul\":9099:9101   */\n      0x20\n        /* \"#utility.yul\":9094:9097   */\n      dup3\n        /* \"#utility.yul\":9090:9102   */\n      add\n        /* \"#utility.yul\":9083:9102   */\n      swap1\n      pop\n        /* \"#utility.yul\":8742:9108   */\n      swap2\n      swap1\n      pop\n      jump\t// out\n        /* \"#utility.yul\":9114:9480   */\n    tag_376:\n        /* \"#utility.yul\":9256:9259   */\n      0x00\n        /* \"#utility.yul\":9277:9344   */\n      tag_378\n        /* \"#utility.yul\":9341:9343   */\n      0x11\n        /* \"#utility.yul\":9336:9339   */\n      dup4\n        /* \"#utility.yul\":9277:9344   */\n      tag_367\n      jump\t// in\n    tag_378:\n        /* \"#utility.yul\":9270:9344   */\n      swap2\n      pop\n        /* \"#utility.yul\":9353:9446   */\n      tag_379\n        /* \"#utility.yul\":9442:9445   */\n      dup3\n        /* \"#utility.yul\":9353:9446   */\n      tag_380\n      jump\t// in\n    tag_379:\n        /* \"#utility.yul\":9471:9473   */\n      0x20\n        /* \"#utility.yul\":9466:9469   */\n      dup3\n        /* \"#utility.yul\":9462:9474   */\n      add\n        /* \"#utility.yul\":9455:9474   */\n      swap1\n      pop\n        /* \"#utility.yul\":9114:9480   */\n      swap2\n      swap1\n      pop\n      jump\t// out\n        /* \"#utility.yul\":9486:9852   */\n    tag_381:\n        /* \"#utility.yul\":9628:9631   */\n      0x00\n        /* \"#utility.yul\":9649:9716   */\n      tag_383\n        /* \"#utility.yul\":9713:9715   */\n      0x0a\n        /* \"#utility.yul\":9708:9711   */\n      dup4\n        /* \"#utility.yul\":9649:9716   */\n      tag_367\n      jump\t// in\n    tag_383:\n        /* \"#utility.yul\":9642:9716   */\n      swap2\n      pop\n        /* \"#utility.yul\":9725:9818   */\n      tag_384\n        /* \"#utility.yul\":9814:9817   */\n      dup3\n        /* \"#utility.yul\":9725:9818   */\n      tag_385\n      jump\t// in\n    tag_384:\n        /* \"#utility.yul\":9843:9845   */\n      0x20\n        /* \"#utility.yul\":9838:9841   */\n      dup3\n        /* \"#utility.yul\":9834:9846   */\n      add\n        /* \"#utility.yul\":9827:9846   */\n      swap1\n      pop\n        /* \"#utility.yul\":9486:9852   */\n      swap2\n      swap1\n      pop\n      jump\t// out\n        /* \"#utility.yul\":9858:10223   */\n    tag_386:\n        /* \"#utility.yul\":10000:10003   */\n      0x00\n        /* \"#utility.yul\":10021:10087   */\n      tag_388\n        /* \"#utility.yul\":10085:10086   */\n      0x06\n        /* \"#utility.yul\":10080:10083   */\n      dup4\n        /* \"#utility.yul\":10021:10087   */\n      tag_367\n      jump\t// in\n    tag_388:\n        /* \"#utility.yul\":10014:10087   */\n      swap2\n      pop\n        /* \"#utility.yul\":10096:10189   */\n      tag_389\n        /* \"#utility.yul\":10185:10188   */\n      dup3\n        /* \"#utility.yul\":10096:10189   */\n      tag_390\n      jump\t// in\n    tag_389:\n        /* \"#utility.yul\":10214:10216   */\n      0x20\n        /* \"#utility.yul\":10209:10212   */\n      dup3\n        /* \"#utility.yul\":10205:10217   */\n      add\n        /* \"#utility.yul\":10198:10217   */\n      swap1\n      pop\n        /* \"#utility.yul\":9858:10223   */\n      swap2\n      swap1\n      pop\n      jump\t// out\n        /* \"#utility.yul\":10229:10595   */\n    tag_391:\n        /* \"#utility.yul\":10371:10374   */\n      0x00\n        /* \"#utility.yul\":10392:10459   */\n      tag_393\n        /* \"#utility.yul\":10456:10458   */\n      0x39\n        /* \"#utility.yul\":10451:10454   */\n      dup4\n        /* \"#utility.yul\":10392:10459   */\n      tag_367\n      jump\t// in\n    tag_393:\n        /* \"#utility.yul\":10385:10459   */\n      swap2\n      pop\n        /* \"#utility.yul\":10468:10561   */\n      tag_394\n        /* \"#utility.yul\":10557:10560   */\n      dup3\n        /* \"#utility.yul\":10468:10561   */\n      tag_395\n      jump\t// in\n    tag_394:\n        /* \"#utility.yul\":10586:10588   */\n      0x40\n        /* \"#utility.yul\":10581:10584   */\n      dup3\n        /* \"#utility.yul\":10577:10589   */\n      add\n        /* \"#utility.yul\":10570:10589   */\n      swap1\n      pop\n        /* \"#utility.yul\":10229:10595   */\n      swap2\n      swap1\n      pop\n      jump\t// out\n        /* \"#utility.yul\":10601:10999   */\n    tag_396:\n        /* \"#utility.yul\":10760:10763   */\n      0x00\n        /* \"#utility.yul\":10781:10864   */\n      tag_398\n        /* \"#utility.yul\":10862:10863   */\n      0x00\n        /* \"#utility.yul\":10857:10860   */\n      dup4\n        /* \"#utility.yul\":10781:10864   */\n      tag_359\n      jump\t// in\n    tag_398:\n        /* \"#utility.yul\":10774:10864   */\n      swap2\n      pop\n        /* \"#utility.yul\":10873:10966   */\n      tag_399\n        /* \"#utility.yul\":10962:10965   */\n      dup3\n        /* \"#utility.yul\":10873:10966   */\n      tag_400\n      jump\t// in\n    tag_399:\n        /* \"#utility.yul\":10991:10992   */\n      0x00\n        /* \"#utility.yul\":10986:10989   */\n      dup3\n        /* \"#utility.yul\":10982:10993   */\n      add\n        /* \"#utility.yul\":10975:10993   */\n      swap1\n      pop\n        /* \"#utility.yul\":10601:10999   */\n      swap2\n      swap1\n      pop\n      jump\t// out\n        /* \"#utility.yul\":11005:11371   */\n    tag_401:\n        /* \"#utility.yul\":11147:11150   */\n      0x00\n        /* \"#utility.yul\":11168:11235   */\n      tag_403\n        /* \"#utility.yul\":11232:11234   */\n      0x11\n        /* \"#utility.yul\":11227:11230   */\n      dup4\n        /* \"#utility.yul\":11168:11235   */\n      tag_367\n      jump\t// in\n    tag_403:\n        /* \"#utility.yul\":11161:11235   */\n      swap2\n      pop\n        /* \"#utility.yul\":11244:11337   */\n      tag_404\n        /* \"#utility.yul\":11333:11336   */\n      dup3\n        /* \"#utility.yul\":11244:11337   */\n      tag_405\n      jump\t// in\n    tag_404:\n        /* \"#utility.yul\":11362:11364   */\n      0x20\n        /* \"#utility.yul\":11357:11360   */\n      dup3\n        /* \"#utility.yul\":11353:11365   */\n      add\n        /* \"#utility.yul\":11346:11365   */\n      swap1\n      pop\n        /* \"#utility.yul\":11005:11371   */\n      swap2\n      swap1\n      pop\n      jump\t// out\n        /* \"#utility.yul\":11377:11495   */\n    tag_406:\n        /* \"#utility.yul\":11464:11488   */\n      tag_408\n        /* \"#utility.yul\":11482:11487   */\n      dup2\n        /* \"#utility.yul\":11464:11488   */\n      tag_409\n      jump\t// in\n    tag_408:\n        /* \"#utility.yul\":11459:11462   */\n      dup3\n        /* \"#utility.yul\":11452:11489   */\n      mstore\n        /* \"#utility.yul\":11377:11495   */\n      pop\n      pop\n      jump\t// out\n        /* \"#utility.yul\":11501:11757   */\n    tag_152:\n        /* \"#utility.yul\":11613:11616   */\n      0x00\n        /* \"#utility.yul\":11628:11703   */\n      tag_411\n        /* \"#utility.yul\":11699:11702   */\n      dup3\n        /* \"#utility.yul\":11690:11696   */\n      dup5\n        /* \"#utility.yul\":11628:11703   */\n      tag_349\n      jump\t// in\n    tag_411:\n        /* \"#utility.yul\":11728:11730   */\n      0x20\n        /* \"#utility.yul\":11723:11726   */\n      dup3\n        /* \"#utility.yul\":11719:11731   */\n      add\n        /* \"#utility.yul\":11712:11731   */\n      swap2\n      pop\n        /* \"#utility.yul\":11748:11751   */\n      dup2\n        /* \"#utility.yul\":11741:11751   */\n      swap1\n      pop\n        /* \"#utility.yul\":11501:11757   */\n      swap3\n      swap2\n      pop\n      pop\n      jump\t// out\n        /* \"#utility.yul\":11763:12034   */\n    tag_154:\n        /* \"#utility.yul\":11893:11896   */\n      0x00\n        /* \"#utility.yul\":11915:12008   */\n      tag_413\n        /* \"#utility.yul\":12004:12007   */\n      dup3\n        /* \"#utility.yul\":11995:12001   */\n      dup5\n        /* \"#utility.yul\":11915:12008   */\n      tag_354\n      jump\t// in\n    tag_413:\n        /* \"#utility.yul\":11908:12008   */\n      swap2\n      pop\n        /* \"#utility.yul\":12025:12028   */\n      dup2\n        /* \"#utility.yul\":12018:12028   */\n      swap1\n      pop\n        /* \"#utility.yul\":11763:12034   */\n      swap3\n      swap2\n      pop\n      pop\n      jump\t// out\n        /* \"#utility.yul\":12040:12419   */\n    tag_206:\n        /* \"#utility.yul\":12224:12227   */\n      0x00\n        /* \"#utility.yul\":12246:12393   */\n      tag_415\n        /* \"#utility.yul\":12389:12392   */\n      dup3\n        /* \"#utility.yul\":12246:12393   */\n      tag_396\n      jump\t// in\n    tag_415:\n        /* \"#utility.yul\":12239:12393   */\n      swap2\n      pop\n        /* \"#utility.yul\":12410:12413   */\n      dup2\n        /* \"#utility.yul\":12403:12413   */\n      swap1\n      pop\n        /* \"#utility.yul\":12040:12419   */\n      swap2\n      swap1\n      pop\n      jump\t// out\n        /* \"#utility.yul\":12425:12647   */\n    tag_37:\n        /* \"#utility.yul\":12518:12522   */\n      0x00\n        /* \"#utility.yul\":12556:12558   */\n      0x20\n        /* \"#utility.yul\":12545:12554   */\n      dup3\n        /* \"#utility.yul\":12541:12559   */\n      add\n        /* \"#utility.yul\":12533:12559   */\n      swap1\n      pop\n        /* \"#utility.yul\":12569:12640   */\n      tag_417\n        /* \"#utility.yul\":12637:12638   */\n      0x00\n        /* \"#utility.yul\":12626:12635   */\n      dup4\n        /* \"#utility.yul\":12622:12639   */\n      add\n        /* \"#utility.yul\":12613:12619   */\n      dup5\n        /* \"#utility.yul\":12569:12640   */\n      tag_337\n      jump\t// in\n    tag_417:\n        /* \"#utility.yul\":12425:12647   */\n      swap3\n      swap2\n      pop\n      pop\n      jump\t// out\n        /* \"#utility.yul\":12653:12863   */\n    tag_60:\n        /* \"#utility.yul\":12740:12744   */\n      0x00\n        /* \"#utility.yul\":12778:12780   */\n      0x20\n        /* \"#utility.yul\":12767:12776   */\n      dup3\n        /* \"#utility.yul\":12763:12781   */\n      add\n        /* \"#utility.yul\":12755:12781   */\n      swap1\n      pop\n        /* \"#utility.yul\":12791:12856   */\n      tag_419\n        /* \"#utility.yul\":12853:12854   */\n      0x00\n        /* \"#utility.yul\":12842:12851   */\n      dup4\n        /* \"#utility.yul\":12838:12855   */\n      add\n        /* \"#utility.yul\":12829:12835   */\n      dup5\n        /* \"#utility.yul\":12791:12856   */\n      tag_341\n      jump\t// in\n    tag_419:\n        /* \"#utility.yul\":12653:12863   */\n      swap3\n      swap2\n      pop\n      pop\n      jump\t// out\n        /* \"#utility.yul\":12869:13091   */\n    tag_51:\n        /* \"#utility.yul\":12962:12966   */\n      0x00\n        /* \"#utility.yul\":13000:13002   */\n      0x20\n        /* \"#utility.yul\":12989:12998   */\n      dup3\n        /* \"#utility.yul\":12985:13003   */\n      add\n        /* \"#utility.yul\":12977:13003   */\n      swap1\n      pop\n        /* \"#utility.yul\":13013:13084   */\n      tag_421\n        /* \"#utility.yul\":13081:13082   */\n      0x00\n        /* \"#utility.yul\":13070:13079   */\n      dup4\n        /* \"#utility.yul\":13066:13083   */\n      add\n        /* \"#utility.yul\":13057:13063   */\n      dup5\n        /* \"#utility.yul\":13013:13084   */\n      tag_345\n      jump\t// in\n    tag_421:\n        /* \"#utility.yul\":12869:13091   */\n      swap3\n      swap2\n      pop\n      pop\n      jump\t// out\n        /* \"#utility.yul\":13097:13410   */\n    tag_32:\n        /* \"#utility.yul\":13210:13214   */\n      0x00\n        /* \"#utility.yul\":13248:13250   */\n      0x20\n        /* \"#utility.yul\":13237:13246   */\n      dup3\n        /* \"#utility.yul\":13233:13251   */\n      add\n        /* \"#utility.yul\":13225:13251   */\n      swap1\n      pop\n        /* \"#utility.yul\":13297:13306   */\n      dup2\n        /* \"#utility.yul\":13291:13295   */\n      dup2\n        /* \"#utility.yul\":13287:13307   */\n      sub\n        /* \"#utility.yul\":13283:13284   */\n      0x00\n        /* \"#utility.yul\":13272:13281   */\n      dup4\n        /* \"#utility.yul\":13268:13285   */\n      add\n        /* \"#utility.yul\":13261:13308   */\n      mstore\n        /* \"#utility.yul\":13325:13403   */\n      tag_423\n        /* \"#utility.yul\":13398:13402   */\n      dup2\n        /* \"#utility.yul\":13389:13395   */\n      dup5\n        /* \"#utility.yul\":13325:13403   */\n      tag_362\n      jump\t// in\n    tag_423:\n        /* \"#utility.yul\":13317:13403   */\n      swap1\n      pop\n        /* \"#utility.yul\":13097:13410   */\n      swap3\n      swap2\n      pop\n      pop\n      jump\t// out\n        /* \"#utility.yul\":13416:13835   */\n    tag_117:\n        /* \"#utility.yul\":13582:13586   */\n      0x00\n        /* \"#utility.yul\":13620:13622   */\n      0x20\n        /* \"#utility.yul\":13609:13618   */\n      dup3\n        /* \"#utility.yul\":13605:13623   */\n      add\n        /* \"#utility.yul\":13597:13623   */\n      swap1\n      pop\n        /* \"#utility.yul\":13669:13678   */\n      dup2\n        /* \"#utility.yul\":13663:13667   */\n      dup2\n        /* \"#utility.yul\":13659:13679   */\n      sub\n        /* \"#utility.yul\":13655:13656   */\n      0x00\n        /* \"#utility.yul\":13644:13653   */\n      dup4\n        /* \"#utility.yul\":13640:13657   */\n      add\n        /* \"#utility.yul\":13633:13680   */\n      mstore\n        /* \"#utility.yul\":13697:13828   */\n      tag_425\n        /* \"#utility.yul\":13823:13827   */\n      dup2\n        /* \"#utility.yul\":13697:13828   */\n      tag_371\n      jump\t// in\n    tag_425:\n        /* \"#utility.yul\":13689:13828   */\n      swap1\n      pop\n        /* \"#utility.yul\":13416:13835   */\n      swap2\n      swap1\n      pop\n      jump\t// out\n        /* \"#utility.yul\":13841:14260   */\n    tag_171:\n        /* \"#utility.yul\":14007:14011   */\n      0x00\n        /* \"#utility.yul\":14045:14047   */\n      0x20\n        /* \"#utility.yul\":14034:14043   */\n      dup3\n        /* \"#utility.yul\":14030:14048   */\n      add\n        /* \"#utility.yul\":14022:14048   */\n      swap1\n      pop\n        /* \"#utility.yul\":14094:14103   */\n      dup2\n        /* \"#utility.yul\":14088:14092   */\n      dup2\n        /* \"#utility.yul\":14084:14104   */\n      sub\n        /* \"#utility.yul\":14080:14081   */\n      0x00\n        /* \"#utility.yul\":14069:14078   */\n      dup4\n        /* \"#utility.yul\":14065:14082   */\n      add\n        /* \"#utility.yul\":14058:14105   */\n      mstore\n        /* \"#utility.yul\":14122:14253   */\n      tag_427\n        /* \"#utility.yul\":14248:14252   */\n      dup2\n        /* \"#utility.yul\":14122:14253   */\n      tag_376\n      jump\t// in\n    tag_427:\n        /* \"#utility.yul\":14114:14253   */\n      swap1\n      pop\n        /* \"#utility.yul\":13841:14260   */\n      swap2\n      swap1\n      pop\n      jump\t// out\n        /* \"#utility.yul\":14266:14685   */\n    tag_104:\n        /* \"#utility.yul\":14432:14436   */\n      0x00\n        /* \"#utility.yul\":14470:14472   */\n      0x20\n        /* \"#utility.yul\":14459:14468   */\n      dup3\n        /* \"#utility.yul\":14455:14473   */\n      add\n        /* \"#utility.yul\":14447:14473   */\n      swap1\n      pop\n        /* \"#utility.yul\":14519:14528   */\n      dup2\n        /* \"#utility.yul\":14513:14517   */\n      dup2\n        /* \"#utility.yul\":14509:14529   */\n      sub\n        /* \"#utility.yul\":14505:14506   */\n      0x00\n        /* \"#utility.yul\":14494:14503   */\n      dup4\n        /* \"#utility.yul\":14490:14507   */\n      add\n        /* \"#utility.yul\":14483:14530   */\n      mstore\n        /* \"#utility.yul\":14547:14678   */\n      tag_429\n        /* \"#utility.yul\":14673:14677   */\n      dup2\n        /* \"#utility.yul\":14547:14678   */\n      tag_381\n      jump\t// in\n    tag_429:\n        /* \"#utility.yul\":14539:14678   */\n      swap1\n      pop\n        /* \"#utility.yul\":14266:14685   */\n      swap2\n      swap1\n      pop\n      jump\t// out\n        /* \"#utility.yul\":14691:15110   */\n    tag_142:\n        /* \"#utility.yul\":14857:14861   */\n      0x00\n        /* \"#utility.yul\":14895:14897   */\n      0x20\n        /* \"#utility.yul\":14884:14893   */\n      dup3\n        /* \"#utility.yul\":14880:14898   */\n      add\n        /* \"#utility.yul\":14872:14898   */\n      swap1\n      pop\n        /* \"#utility.yul\":14944:14953   */\n      dup2\n        /* \"#utility.yul\":14938:14942   */\n      dup2\n        /* \"#utility.yul\":14934:14954   */\n      sub\n        /* \"#utility.yul\":14930:14931   */\n      0x00\n        /* \"#utility.yul\":14919:14928   */\n      dup4\n        /* \"#utility.yul\":14915:14932   */\n      add\n        /* \"#utility.yul\":14908:14955   */\n      mstore\n        /* \"#utility.yul\":14972:15103   */\n      tag_431\n        /* \"#utility.yul\":15098:15102   */\n      dup2\n        /* \"#utility.yul\":14972:15103   */\n      tag_386\n      jump\t// in\n    tag_431:\n        /* \"#utility.yul\":14964:15103   */\n      swap1\n      pop\n        /* \"#utility.yul\":14691:15110   */\n      swap2\n      swap1\n      pop\n      jump\t// out\n        /* \"#utility.yul\":15116:15535   */\n    tag_98:\n        /* \"#utility.yul\":15282:15286   */\n      0x00\n        /* \"#utility.yul\":15320:15322   */\n      0x20\n        /* \"#utility.yul\":15309:15318   */\n      dup3\n        /* \"#utility.yul\":15305:15323   */\n      add\n        /* \"#utility.yul\":15297:15323   */\n      swap1\n      pop\n        /* \"#utility.yul\":15369:15378   */\n      dup2\n        /* \"#utility.yul\":15363:15367   */\n      dup2\n        /* \"#utility.yul\":15359:15379   */\n      sub\n        /* \"#utility.yul\":15355:15356   */\n      0x00\n        /* \"#utility.yul\":15344:15353   */\n      dup4\n        /* \"#utility.yul\":15340:15357   */\n      add\n        /* \"#utility.yul\":15333:15380   */\n      mstore\n        /* \"#utility.yul\":15397:15528   */\n      tag_433\n        /* \"#utility.yul\":15523:15527   */\n      dup2\n        /* \"#utility.yul\":15397:15528   */\n      tag_391\n      jump\t// in\n    tag_433:\n        /* \"#utility.yul\":15389:15528   */\n      swap1\n      pop\n        /* \"#utility.yul\":15116:15535   */\n      swap2\n      swap1\n      pop\n      jump\t// out\n        /* \"#utility.yul\":15541:15960   */\n    tag_168:\n        /* \"#utility.yul\":15707:15711   */\n      0x00\n        /* \"#utility.yul\":15745:15747   */\n      0x20\n        /* \"#utility.yul\":15734:15743   */\n      dup3\n        /* \"#utility.yul\":15730:15748   */\n      add\n        /* \"#utility.yul\":15722:15748   */\n      swap1\n      pop\n        /* \"#utility.yul\":15794:15803   */\n      dup2\n        /* \"#utility.yul\":15788:15792   */\n      dup2\n        /* \"#utility.yul\":15784:15804   */\n      sub\n        /* \"#utility.yul\":15780:15781   */\n      0x00\n        /* \"#utility.yul\":15769:15778   */\n      dup4\n        /* \"#utility.yul\":15765:15782   */\n      add\n        /* \"#utility.yul\":15758:15805   */\n      mstore\n        /* \"#utility.yul\":15822:15953   */\n      tag_435\n        /* \"#utility.yul\":15948:15952   */\n      dup2\n        /* \"#utility.yul\":15822:15953   */\n      tag_401\n      jump\t// in\n    tag_435:\n        /* \"#utility.yul\":15814:15953   */\n      swap1\n      pop\n        /* \"#utility.yul\":15541:15960   */\n      swap2\n      swap1\n      pop\n      jump\t// out\n        /* \"#utility.yul\":15966:16188   */\n    tag_42:\n        /* \"#utility.yul\":16059:16063   */\n      0x00\n        /* \"#utility.yul\":16097:16099   */\n      0x20\n        /* \"#utility.yul\":16086:16095   */\n      dup3\n        /* \"#utility.yul\":16082:16100   */\n      add\n        /* \"#utility.yul\":16074:16100   */\n      swap1\n      pop\n        /* \"#utility.yul\":16110:16181   */\n      tag_437\n        /* \"#utility.yul\":16178:16179   */\n      0x00\n        /* \"#utility.yul\":16167:16176   */\n      dup4\n        /* \"#utility.yul\":16163:16180   */\n      add\n        /* \"#utility.yul\":16154:16160   */\n      dup5\n        /* \"#utility.yul\":16110:16181   */\n      tag_406\n      jump\t// in\n    tag_437:\n        /* \"#utility.yul\":15966:16188   */\n      swap3\n      swap2\n      pop\n      pop\n      jump\t// out\n        /* \"#utility.yul\":16194:16323   */\n    tag_247:\n        /* \"#utility.yul\":16228:16234   */\n      0x00\n        /* \"#utility.yul\":16255:16275   */\n      tag_439\n      tag_440\n      jump\t// in\n    tag_439:\n        /* \"#utility.yul\":16245:16275   */\n      swap1\n      pop\n        /* \"#utility.yul\":16284:16317   */\n      tag_441\n        /* \"#utility.yul\":16312:16316   */\n      dup3\n        /* \"#utility.yul\":16304:16310   */\n      dup3\n        /* \"#utility.yul\":16284:16317   */\n      tag_442\n      jump\t// in\n    tag_441:\n        /* \"#utility.yul\":16194:16323   */\n      swap2\n      swap1\n      pop\n      jump\t// out\n        /* \"#utility.yul\":16329:16404   */\n    tag_440:\n        /* \"#utility.yul\":16362:16368   */\n      0x00\n        /* \"#utility.yul\":16395:16397   */\n      0x40\n        /* \"#utility.yul\":16389:16398   */\n      mload\n        /* \"#utility.yul\":16379:16398   */\n      swap1\n      pop\n        /* \"#utility.yul\":16329:16404   */\n      swap1\n      jump\t// out\n        /* \"#utility.yul\":16410:16717   */\n    tag_246:\n        /* \"#utility.yul\":16471:16475   */\n      0x00\n        /* \"#utility.yul\":16561:16579   */\n      0xffffffffffffffff\n        /* \"#utility.yul\":16553:16559   */\n      dup3\n        /* \"#utility.yul\":16550:16580   */\n      gt\n        /* \"#utility.yul\":16547:16603   */\n      iszero\n      tag_445\n      jumpi\n        /* \"#utility.yul\":16583:16601   */\n      tag_446\n      tag_447\n      jump\t// in\n    tag_446:\n        /* \"#utility.yul\":16547:16603   */\n    tag_445:\n        /* \"#utility.yul\":16621:16650   */\n      tag_448\n        /* \"#utility.yul\":16643:16649   */\n      dup3\n        /* \"#utility.yul\":16621:16650   */\n      tag_370\n      jump\t// in\n    tag_448:\n        /* \"#utility.yul\":16613:16650   */\n      swap1\n      pop\n        /* \"#utility.yul\":16705:16709   */\n      0x20\n        /* \"#utility.yul\":16699:16703   */\n      dup2\n        /* \"#utility.yul\":16695:16710   */\n      add\n        /* \"#utility.yul\":16687:16710   */\n      swap1\n      pop\n        /* \"#utility.yul\":16410:16717   */\n      swap2\n      swap1\n      pop\n      jump\t// out\n        /* \"#utility.yul\":16723:17031   */\n    tag_257:\n        /* \"#utility.yul\":16785:16789   */\n      0x00\n        /* \"#utility.yul\":16875:16893   */\n      0xffffffffffffffff\n        /* \"#utility.yul\":16867:16873   */\n      dup3\n        /* \"#utility.yul\":16864:16894   */\n      gt\n        /* \"#utility.yul\":16861:16917   */\n      iszero\n      tag_450\n      jumpi\n        /* \"#utility.yul\":16897:16915   */\n      tag_451\n      tag_447\n      jump\t// in\n    tag_451:\n        /* \"#utility.yul\":16861:16917   */\n    tag_450:\n        /* \"#utility.yul\":16935:16964   */\n      tag_452\n        /* \"#utility.yul\":16957:16963   */\n      dup3\n        /* \"#utility.yul\":16935:16964   */\n      tag_370\n      jump\t// in\n    tag_452:\n        /* \"#utility.yul\":16927:16964   */\n      swap1\n      pop\n        /* \"#utility.yul\":17019:17023   */\n      0x20\n        /* \"#utility.yul\":17013:17017   */\n      dup2\n        /* \"#utility.yul\":17009:17024   */\n      add\n        /* \"#utility.yul\":17001:17024   */\n      swap1\n      pop\n        /* \"#utility.yul\":16723:17031   */\n      swap2\n      swap1\n      pop\n      jump\t// out\n        /* \"#utility.yul\":17037:17153   */\n    tag_453:\n        /* \"#utility.yul\":17088:17092   */\n      0x00\n        /* \"#utility.yul\":17111:17114   */\n      dup2\n        /* \"#utility.yul\":17103:17114   */\n      swap1\n      pop\n        /* \"#utility.yul\":17141:17145   */\n      0x20\n        /* \"#utility.yul\":17136:17139   */\n      dup3\n        /* \"#utility.yul\":17132:17146   */\n      add\n        /* \"#utility.yul\":17124:17146   */\n      swap1\n      pop\n        /* \"#utility.yul\":17037:17153   */\n      swap2\n      swap1\n      pop\n      jump\t// out\n        /* \"#utility.yul\":17159:17257   */\n    tag_357:\n        /* \"#utility.yul\":17210:17216   */\n      0x00\n        /* \"#utility.yul\":17244:17249   */\n      dup2\n        /* \"#utility.yul\":17238:17250   */\n      mload\n        /* \"#utility.yul\":17228:17250   */\n      swap1\n      pop\n        /* \"#utility.yul\":17159:17257   */\n      swap2\n      swap1\n      pop\n      jump\t// out\n        /* \"#utility.yul\":17263:17362   */\n    tag_365:\n        /* \"#utility.yul\":17315:17321   */\n      0x00\n        /* \"#utility.yul\":17349:17354   */\n      dup2\n        /* \"#utility.yul\":17343:17355   */\n      mload\n        /* \"#utility.yul\":17333:17355   */\n      swap1\n      pop\n        /* \"#utility.yul\":17263:17362   */\n      swap2\n      swap1\n      pop\n      jump\t// out\n        /* \"#utility.yul\":17368:17515   */\n    tag_359:\n        /* \"#utility.yul\":17469:17480   */\n      0x00\n        /* \"#utility.yul\":17506:17509   */\n      dup2\n        /* \"#utility.yul\":17491:17509   */\n      swap1\n      pop\n        /* \"#utility.yul\":17368:17515   */\n      swap3\n      swap2\n      pop\n      pop\n      jump\t// out\n        /* \"#utility.yul\":17521:17690   */\n    tag_367:\n        /* \"#utility.yul\":17605:17616   */\n      0x00\n        /* \"#utility.yul\":17639:17645   */\n      dup3\n        /* \"#utility.yul\":17634:17637   */\n      dup3\n        /* \"#utility.yul\":17627:17646   */\n      mstore\n        /* \"#utility.yul\":17679:17683   */\n      0x20\n        /* \"#utility.yul\":17674:17677   */\n      dup3\n        /* \"#utility.yul\":17670:17684   */\n      add\n        /* \"#utility.yul\":17655:17684   */\n      swap1\n      pop\n        /* \"#utility.yul\":17521:17690   */\n      swap3\n      swap2\n      pop\n      pop\n      jump\t// out\n        /* \"#utility.yul\":17696:18001   */\n    tag_101:\n        /* \"#utility.yul\":17736:17739   */\n      0x00\n        /* \"#utility.yul\":17755:17775   */\n      tag_460\n        /* \"#utility.yul\":17773:17774   */\n      dup3\n        /* \"#utility.yul\":17755:17775   */\n      tag_409\n      jump\t// in\n    tag_460:\n        /* \"#utility.yul\":17750:17775   */\n      swap2\n      pop\n        /* \"#utility.yul\":17789:17809   */\n      tag_461\n        /* \"#utility.yul\":17807:17808   */\n      dup4\n        /* \"#utility.yul\":17789:17809   */\n      tag_409\n      jump\t// in\n    tag_461:\n        /* \"#utility.yul\":17784:17809   */\n      swap3\n      pop\n        /* \"#utility.yul\":17943:17944   */\n      dup3\n        /* \"#utility.yul\":17875:17941   */\n      0xffffffffffffffffffffffffffffffffffffffffffffffffffffffffffffffff\n        /* \"#utility.yul\":17871:17945   */\n      sub\n        /* \"#utility.yul\":17868:17869   */\n      dup3\n        /* \"#utility.yul\":17865:17946   */\n      gt\n        /* \"#utility.yul\":17862:17969   */\n      iszero\n      tag_462\n      jumpi\n        /* \"#utility.yul\":17949:17967   */\n      tag_463\n      tag_464\n      jump\t// in\n    tag_463:\n        /* \"#utility.yul\":17862:17969   */\n    tag_462:\n        /* \"#utility.yul\":17993:17994   */\n      dup3\n        /* \"#utility.yul\":17990:17991   */\n      dup3\n        /* \"#utility.yul\":17986:17995   */\n      add\n        /* \"#utility.yul\":17979:17995   */\n      swap1\n      pop\n        /* \"#utility.yul\":17696:18001   */\n      swap3\n      swap2\n      pop\n      pop\n      jump\t// out\n        /* \"#utility.yul\":18007:18192   */\n    tag_177:\n        /* \"#utility.yul\":18047:18048   */\n      0x00\n        /* \"#utility.yul\":18064:18084   */\n      tag_466\n        /* \"#utility.yul\":18082:18083   */\n      dup3\n        /* \"#utility.yul\":18064:18084   */\n      tag_409\n      jump\t// in\n    tag_466:\n        /* \"#utility.yul\":18059:18084   */\n      swap2\n      pop\n        /* \"#utility.yul\":18098:18118   */\n      tag_467\n        /* \"#utility.yul\":18116:18117   */\n      dup4\n        /* \"#utility.yul\":18098:18118   */\n      tag_409\n      jump\t// in\n    tag_467:\n        /* \"#utility.yul\":18093:18118   */\n      swap3\n      pop\n        /* \"#utility.yul\":18137:18138   */\n      dup3\n        /* \"#utility.yul\":18127:18162   */\n      tag_468\n      jumpi\n        /* \"#utility.yul\":18142:18160   */\n      tag_469\n      tag_470\n      jump\t// in\n    tag_469:\n        /* \"#utility.yul\":18127:18162   */\n    tag_468:\n        /* \"#utility.yul\":18184:18185   */\n      dup3\n        /* \"#utility.yul\":18181:18182   */\n      dup3\n        /* \"#utility.yul\":18177:18186   */\n      div\n        /* \"#utility.yul\":18172:18186   */\n      swap1\n      pop\n        /* \"#utility.yul\":18007:18192   */\n      swap3\n      swap2\n      pop\n      pop\n      jump\t// out\n        /* \"#utility.yul\":18198:18546   */\n    tag_114:\n        /* \"#utility.yul\":18238:18245   */\n      0x00\n        /* \"#utility.yul\":18261:18281   */\n      tag_472\n        /* \"#utility.yul\":18279:18280   */\n      dup3\n        /* \"#utility.yul\":18261:18281   */\n      tag_409\n      jump\t// in\n    tag_472:\n        /* \"#utility.yul\":18256:18281   */\n      swap2\n      pop\n        /* \"#utility.yul\":18295:18315   */\n      tag_473\n        /* \"#utility.yul\":18313:18314   */\n      dup4\n        /* \"#utility.yul\":18295:18315   */\n      tag_409\n      jump\t// in\n    tag_473:\n        /* \"#utility.yul\":18290:18315   */\n      swap3\n      pop\n        /* \"#utility.yul\":18483:18484   */\n      dup2\n        /* \"#utility.yul\":18415:18481   */\n      0xffffffffffffffffffffffffffffffffffffffffffffffffffffffffffffffff\n        /* \"#utility.yul\":18411:18485   */\n      div\n        /* \"#utility.yul\":18408:18409   */\n      dup4\n        /* \"#utility.yul\":18405:18486   */\n      gt\n        /* \"#utility.yul\":18400:18401   */\n      dup3\n        /* \"#utility.yul\":18393:18402   */\n      iszero\n        /* \"#utility.yul\":18386:18403   */\n      iszero\n        /* \"#utility.yul\":18382:18487   */\n      and\n        /* \"#utility.yul\":18379:18510   */\n      iszero\n      tag_474\n      jumpi\n        /* \"#utility.yul\":18490:18508   */\n      tag_475\n      tag_464\n      jump\t// in\n    tag_475:\n        /* \"#utility.yul\":18379:18510   */\n    tag_474:\n        /* \"#utility.yul\":18538:18539   */\n      dup3\n        /* \"#utility.yul\":18535:18536   */\n      dup3\n        /* \"#utility.yul\":18531:18540   */\n      mul\n        /* \"#utility.yul\":18520:18540   */\n      swap1\n      pop\n        /* \"#utility.yul\":18198:18546   */\n      swap3\n      swap2\n      pop\n      pop\n      jump\t// out\n        /* \"#utility.yul\":18552:18743   */\n    tag_147:\n        /* \"#utility.yul\":18592:18596   */\n      0x00\n        /* \"#utility.yul\":18612:18632   */\n      tag_477\n        /* \"#utility.yul\":18630:18631   */\n      dup3\n        /* \"#utility.yul\":18612:18632   */\n      tag_409\n      jump\t// in\n    tag_477:\n        /* \"#utility.yul\":18607:18632   */\n      swap2\n      pop\n        /* \"#utility.yul\":18646:18666   */\n      tag_478\n        /* \"#utility.yul\":18664:18665   */\n      dup4\n        /* \"#utility.yul\":18646:18666   */\n      tag_409\n      jump\t// in\n    tag_478:\n        /* \"#utility.yul\":18641:18666   */\n      swap3\n      pop\n        /* \"#utility.yul\":18685:18686   */\n      dup3\n        /* \"#utility.yul\":18682:18683   */\n      dup3\n        /* \"#utility.yul\":18679:18687   */\n      lt\n        /* \"#utility.yul\":18676:18710   */\n      iszero\n      tag_479\n      jumpi\n        /* \"#utility.yul\":18690:18708   */\n      tag_480\n      tag_464\n      jump\t// in\n    tag_480:\n        /* \"#utility.yul\":18676:18710   */\n    tag_479:\n        /* \"#utility.yul\":18735:18736   */\n      dup3\n        /* \"#utility.yul\":18732:18733   */\n      dup3\n        /* \"#utility.yul\":18728:18737   */\n      sub\n        /* \"#utility.yul\":18720:18737   */\n      swap1\n      pop\n        /* \"#utility.yul\":18552:18743   */\n      swap3\n      swap2\n      pop\n      pop\n      jump\t// out\n        /* \"#utility.yul\":18749:18845   */\n    tag_340:\n        /* \"#utility.yul\":18786:18793   */\n      0x00\n        /* \"#utility.yul\":18815:18839   */\n      tag_482\n        /* \"#utility.yul\":18833:18838   */\n      dup3\n        /* \"#utility.yul\":18815:18839   */\n      tag_483\n      jump\t// in\n    tag_482:\n        /* \"#utility.yul\":18804:18839   */\n      swap1\n      pop\n        /* \"#utility.yul\":18749:18845   */\n      swap2\n      swap1\n      pop\n      jump\t// out\n        /* \"#utility.yul\":18851:18941   */\n    tag_344:\n        /* \"#utility.yul\":18885:18892   */\n      0x00\n        /* \"#utility.yul\":18928:18933   */\n      dup2\n        /* \"#utility.yul\":18921:18934   */\n      iszero\n        /* \"#utility.yul\":18914:18935   */\n      iszero\n        /* \"#utility.yul\":18903:18935   */\n      swap1\n      pop\n        /* \"#utility.yul\":18851:18941   */\n      swap2\n      swap1\n      pop\n      jump\t// out\n        /* \"#utility.yul\":18947:19024   */\n    tag_348:\n        /* \"#utility.yul\":18984:18991   */\n      0x00\n        /* \"#utility.yul\":19013:19018   */\n      dup2\n        /* \"#utility.yul\":19002:19018   */\n      swap1\n      pop\n        /* \"#utility.yul\":18947:19024   */\n      swap2\n      swap1\n      pop\n      jump\t// out\n        /* \"#utility.yul\":19030:19156   */\n    tag_483:\n        /* \"#utility.yul\":19067:19074   */\n      0x00\n        /* \"#utility.yul\":19107:19149   */\n      0xffffffffffffffffffffffffffffffffffffffff\n        /* \"#utility.yul\":19100:19105   */\n      dup3\n        /* \"#utility.yul\":19096:19150   */\n      and\n        /* \"#utility.yul\":19085:19150   */\n      swap1\n      pop\n        /* \"#utility.yul\":19030:19156   */\n      swap2\n      swap1\n      pop\n      jump\t// out\n        /* \"#utility.yul\":19162:19239   */\n    tag_409:\n        /* \"#utility.yul\":19199:19206   */\n      0x00\n        /* \"#utility.yul\":19228:19233   */\n      dup2\n        /* \"#utility.yul\":19217:19233   */\n      swap1\n      pop\n        /* \"#utility.yul\":19162:19239   */\n      swap2\n      swap1\n      pop\n      jump\t// out\n        /* \"#utility.yul\":19245:19839   */\n    tag_144:\n        /* \"#utility.yul\":19329:19334   */\n      0x00\n        /* \"#utility.yul\":19360:19398   */\n      tag_489\n        /* \"#utility.yul\":19392:19397   */\n      dup3\n        /* \"#utility.yul\":19360:19398   */\n      tag_357\n      jump\t// in\n    tag_489:\n        /* \"#utility.yul\":19423:19428   */\n      dup3\n        /* \"#utility.yul\":19450:19490   */\n      tag_490\n        /* \"#utility.yul\":19484:19489   */\n      dup5\n        /* \"#utility.yul\":19450:19490   */\n      tag_453\n      jump\t// in\n    tag_490:\n        /* \"#utility.yul\":19438:19490   */\n      swap1\n      pop\n        /* \"#utility.yul\":19509:19544   */\n      tag_491\n        /* \"#utility.yul\":19535:19543   */\n      dup2\n        /* \"#utility.yul\":19509:19544   */\n      tag_492\n      jump\t// in\n    tag_491:\n        /* \"#utility.yul\":19500:19544   */\n      swap3\n      pop\n        /* \"#utility.yul\":19568:19570   */\n      0x20\n        /* \"#utility.yul\":19560:19566   */\n      dup3\n        /* \"#utility.yul\":19557:19571   */\n      lt\n        /* \"#utility.yul\":19554:19832   */\n      iszero\n      tag_493\n      jumpi\n        /* \"#utility.yul\":19639:19808   */\n      tag_494\n        /* \"#utility.yul\":19724:19790   */\n      0xffffffffffffffffffffffffffffffffffffffffffffffffffffffffffffffff\n        /* \"#utility.yul\":19694:19700   */\n      dup4\n        /* \"#utility.yul\":19690:19692   */\n      0x20\n        /* \"#utility.yul\":19686:19701   */\n      sub\n        /* \"#utility.yul\":19683:19684   */\n      0x08\n        /* \"#utility.yul\":19679:19702   */\n      mul\n        /* \"#utility.yul\":19639:19808   */\n      tag_495\n      jump\t// in\n    tag_494:\n        /* \"#utility.yul\":19616:19621   */\n      dup4\n        /* \"#utility.yul\":19595:19822   */\n      and\n        /* \"#utility.yul\":19586:19822   */\n      swap3\n      pop\n        /* \"#utility.yul\":19554:19832   */\n    tag_493:\n        /* \"#utility.yul\":19335:19839   */\n      pop\n      pop\n        /* \"#utility.yul\":19245:19839   */\n      swap2\n      swap1\n      pop\n      jump\t// out\n        /* \"#utility.yul\":19845:19999   */\n    tag_252:\n        /* \"#utility.yul\":19929:19935   */\n      dup3\n        /* \"#utility.yul\":19924:19927   */\n      dup2\n        /* \"#utility.yul\":19919:19922   */\n      dup4\n        /* \"#utility.yul\":19906:19936   */\n      calldatacopy\n        /* \"#utility.yul\":19991:19992   */\n      0x00\n        /* \"#utility.yul\":19982:19988   */\n      dup4\n        /* \"#utility.yul\":19977:19980   */\n      dup4\n        /* \"#utility.yul\":19973:19989   */\n      add\n        /* \"#utility.yul\":19966:19993   */\n      mstore\n        /* \"#utility.yul\":19845:19999   */\n      pop\n      pop\n      pop\n      jump\t// out\n        /* \"#utility.yul\":20005:20312   */\n    tag_361:\n        /* \"#utility.yul\":20073:20074   */\n      0x00\n        /* \"#utility.yul\":20083:20196   */\n    tag_498:\n        /* \"#utility.yul\":20097:20103   */\n      dup4\n        /* \"#utility.yul\":20094:20095   */\n      dup2\n        /* \"#utility.yul\":20091:20104   */\n      lt\n        /* \"#utility.yul\":20083:20196   */\n      iszero\n      tag_500\n      jumpi\n        /* \"#utility.yul\":20182:20183   */\n      dup1\n        /* \"#utility.yul\":20177:20180   */\n      dup3\n        /* \"#utility.yul\":20173:20184   */\n      add\n        /* \"#utility.yul\":20167:20185   */\n      mload\n        /* \"#utility.yul\":20163:20164   */\n      dup2\n        /* \"#utility.yul\":20158:20161   */\n      dup5\n        /* \"#utility.yul\":20154:20165   */\n      add\n        /* \"#utility.yul\":20147:20186   */\n      mstore\n        /* \"#utility.yul\":20119:20121   */\n      0x20\n        /* \"#utility.yul\":20116:20117   */\n      dup2\n        /* \"#utility.yul\":20112:20122   */\n      add\n        /* \"#utility.yul\":20107:20122   */\n      swap1\n      pop\n        /* \"#utility.yul\":20083:20196   */\n      jump(tag_498)\n    tag_500:\n        /* \"#utility.yul\":20214:20220   */\n      dup4\n        /* \"#utility.yul\":20211:20212   */\n      dup2\n        /* \"#utility.yul\":20208:20221   */\n      gt\n        /* \"#utility.yul\":20205:20306   */\n      iszero\n      tag_501\n      jumpi\n        /* \"#utility.yul\":20294:20295   */\n      0x00\n        /* \"#utility.yul\":20285:20291   */\n      dup5\n        /* \"#utility.yul\":20280:20283   */\n      dup5\n        /* \"#utility.yul\":20276:20292   */\n      add\n        /* \"#utility.yul\":20269:20296   */\n      mstore\n        /* \"#utility.yul\":20205:20306   */\n    tag_501:\n        /* \"#utility.yul\":20054:20312   */\n      pop\n        /* \"#utility.yul\":20005:20312   */\n      pop\n      pop\n      pop\n      jump\t// out\n        /* \"#utility.yul\":20318:20489   */\n    tag_165:\n        /* \"#utility.yul\":20357:20360   */\n      0x00\n        /* \"#utility.yul\":20380:20404   */\n      tag_503\n        /* \"#utility.yul\":20398:20403   */\n      dup3\n        /* \"#utility.yul\":20380:20404   */\n      tag_409\n      jump\t// in\n    tag_503:\n        /* \"#utility.yul\":20371:20404   */\n      swap2\n      pop\n        /* \"#utility.yul\":20426:20430   */\n      0x00\n        /* \"#utility.yul\":20419:20424   */\n      dup3\n        /* \"#utility.yul\":20416:20431   */\n      eq\n        /* \"#utility.yul\":20413:20454   */\n      iszero\n      tag_504\n      jumpi\n        /* \"#utility.yul\":20434:20452   */\n      tag_505\n      tag_464\n      jump\t// in\n    tag_505:\n        /* \"#utility.yul\":20413:20454   */\n    tag_504:\n        /* \"#utility.yul\":20481:20482   */\n      0x01\n        /* \"#utility.yul\":20474:20479   */\n      dup3\n        /* \"#utility.yul\":20470:20483   */\n      sub\n        /* \"#utility.yul\":20463:20483   */\n      swap1\n      pop\n        /* \"#utility.yul\":20318:20489   */\n      swap2\n      swap1\n      pop\n      jump\t// out\n        /* \"#utility.yul\":20495:20815   */\n    tag_106:\n        /* \"#utility.yul\":20539:20545   */\n      0x00\n        /* \"#utility.yul\":20576:20577   */\n      0x02\n        /* \"#utility.yul\":20570:20574   */\n      dup3\n        /* \"#utility.yul\":20566:20578   */\n      div\n        /* \"#utility.yul\":20556:20578   */\n      swap1\n      pop\n        /* \"#utility.yul\":20623:20624   */\n      0x01\n        /* \"#utility.yul\":20617:20621   */\n      dup3\n        /* \"#utility.yul\":20613:20625   */\n      and\n        /* \"#utility.yul\":20644:20662   */\n      dup1\n        /* \"#utility.yul\":20634:20715   */\n      tag_507\n      jumpi\n        /* \"#utility.yul\":20700:20704   */\n      0x7f\n        /* \"#utility.yul\":20692:20698   */\n      dup3\n        /* \"#utility.yul\":20688:20705   */\n      and\n        /* \"#utility.yul\":20678:20705   */\n      swap2\n      pop\n        /* \"#utility.yul\":20634:20715   */\n    tag_507:\n        /* \"#utility.yul\":20762:20764   */\n      0x20\n        /* \"#utility.yul\":20754:20760   */\n      dup3\n        /* \"#utility.yul\":20751:20765   */\n      lt\n        /* \"#utility.yul\":20731:20749   */\n      dup2\n        /* \"#utility.yul\":20728:20766   */\n      eq\n        /* \"#utility.yul\":20725:20809   */\n      iszero\n      tag_508\n      jumpi\n        /* \"#utility.yul\":20781:20799   */\n      tag_509\n      tag_510\n      jump\t// in\n    tag_509:\n        /* \"#utility.yul\":20725:20809   */\n    tag_508:\n        /* \"#utility.yul\":20546:20815   */\n      pop\n        /* \"#utility.yul\":20495:20815   */\n      swap2\n      swap1\n      pop\n      jump\t// out\n        /* \"#utility.yul\":20821:21102   */\n    tag_442:\n        /* \"#utility.yul\":20904:20931   */\n      tag_512\n        /* \"#utility.yul\":20926:20930   */\n      dup3\n        /* \"#utility.yul\":20904:20931   */\n      tag_370\n      jump\t// in\n    tag_512:\n        /* \"#utility.yul\":20896:20902   */\n      dup2\n        /* \"#utility.yul\":20892:20932   */\n      add\n        /* \"#utility.yul\":21034:21040   */\n      dup2\n        /* \"#utility.yul\":21022:21032   */\n      dup2\n        /* \"#utility.yul\":21019:21041   */\n      lt\n        /* \"#utility.yul\":20998:21016   */\n      0xffffffffffffffff\n        /* \"#utility.yul\":20986:20996   */\n      dup3\n        /* \"#utility.yul\":20983:21017   */\n      gt\n        /* \"#utility.yul\":20980:21042   */\n      or\n        /* \"#utility.yul\":20977:21065   */\n      iszero\n      tag_513\n      jumpi\n        /* \"#utility.yul\":21045:21063   */\n      tag_514\n      tag_447\n      jump\t// in\n    tag_514:\n        /* \"#utility.yul\":20977:21065   */\n    tag_513:\n        /* \"#utility.yul\":21085:21095   */\n      dup1\n        /* \"#utility.yul\":21081:21083   */\n      0x40\n        /* \"#utility.yul\":21074:21096   */\n      mstore\n        /* \"#utility.yul\":20864:21102   */\n      pop\n        /* \"#utility.yul\":20821:21102   */\n      pop\n      pop\n      jump\t// out\n        /* \"#utility.yul\":21108:21187   */\n    tag_353:\n        /* \"#utility.yul\":21147:21154   */\n      0x00\n        /* \"#utility.yul\":21176:21181   */\n      dup2\n        /* \"#utility.yul\":21165:21181   */\n      swap1\n      pop\n        /* \"#utility.yul\":21108:21187   */\n      swap2\n      swap1\n      pop\n      jump\t// out\n        /* \"#utility.yul\":21193:21369   */\n    tag_173:\n        /* \"#utility.yul\":21225:21226   */\n      0x00\n        /* \"#utility.yul\":21242:21262   */\n      tag_517\n        /* \"#utility.yul\":21260:21261   */\n      dup3\n        /* \"#utility.yul\":21242:21262   */\n      tag_409\n      jump\t// in\n    tag_517:\n        /* \"#utility.yul\":21237:21262   */\n      swap2\n      pop\n        /* \"#utility.yul\":21276:21296   */\n      tag_518\n        /* \"#utility.yul\":21294:21295   */\n      dup4\n        /* \"#utility.yul\":21276:21296   */\n      tag_409\n      jump\t// in\n    tag_518:\n        /* \"#utility.yul\":21271:21296   */\n      swap3\n      pop\n        /* \"#utility.yul\":21315:21316   */\n      dup3\n        /* \"#utility.yul\":21305:21340   */\n      tag_519\n      jumpi\n        /* \"#utility.yul\":21320:21338   */\n      tag_520\n      tag_470\n      jump\t// in\n    tag_520:\n        /* \"#utility.yul\":21305:21340   */\n    tag_519:\n        /* \"#utility.yul\":21361:21362   */\n      dup3\n        /* \"#utility.yul\":21358:21359   */\n      dup3\n        /* \"#utility.yul\":21354:21363   */\n      mod\n        /* \"#utility.yul\":21349:21363   */\n      swap1\n      pop\n        /* \"#utility.yul\":21193:21369   */\n      swap3\n      swap2\n      pop\n      pop\n      jump\t// out\n        /* \"#utility.yul\":21375:21555   */\n    tag_464:\n        /* \"#utility.yul\":21423:21500   */\n      0x4e487b7100000000000000000000000000000000000000000000000000000000\n        /* \"#utility.yul\":21420:21421   */\n      0x00\n        /* \"#utility.yul\":21413:21501   */\n      mstore\n        /* \"#utility.yul\":21520:21524   */\n      0x11\n        /* \"#utility.yul\":21517:21518   */\n      0x04\n        /* \"#utility.yul\":21510:21525   */\n      mstore\n        /* \"#utility.yul\":21544:21548   */\n      0x24\n        /* \"#utility.yul\":21541:21542   */\n      0x00\n        /* \"#utility.yul\":21534:21549   */\n      revert\n        /* \"#utility.yul\":21561:21741   */\n    tag_470:\n        /* \"#utility.yul\":21609:21686   */\n      0x4e487b7100000000000000000000000000000000000000000000000000000000\n        /* \"#utility.yul\":21606:21607   */\n      0x00\n        /* \"#utility.yul\":21599:21687   */\n      mstore\n        /* \"#utility.yul\":21706:21710   */\n      0x12\n        /* \"#utility.yul\":21703:21704   */\n      0x04\n        /* \"#utility.yul\":21696:21711   */\n      mstore\n        /* \"#utility.yul\":21730:21734   */\n      0x24\n        /* \"#utility.yul\":21727:21728   */\n      0x00\n        /* \"#utility.yul\":21720:21735   */\n      revert\n        /* \"#utility.yul\":21747:21927   */\n    tag_510:\n        /* \"#utility.yul\":21795:21872   */\n      0x4e487b7100000000000000000000000000000000000000000000000000000000\n        /* \"#utility.yul\":21792:21793   */\n      0x00\n        /* \"#utility.yul\":21785:21873   */\n      mstore\n        /* \"#utility.yul\":21892:21896   */\n      0x22\n        /* \"#utility.yul\":21889:21890   */\n      0x04\n        /* \"#utility.yul\":21882:21897   */\n      mstore\n        /* \"#utility.yul\":21916:21920   */\n      0x24\n        /* \"#utility.yul\":21913:21914   */\n      0x00\n        /* \"#utility.yul\":21906:21921   */\n      revert\n        /* \"#utility.yul\":21933:22113   */\n    tag_447:\n        /* \"#utility.yul\":21981:22058   */\n      0x4e487b7100000000000000000000000000000000000000000000000000000000\n        /* \"#utility.yul\":21978:21979   */\n      0x00\n        /* \"#utility.yul\":21971:22059   */\n      mstore\n        /* \"#utility.yul\":22078:22082   */\n      0x41\n        /* \"#utility.yul\":22075:22076   */\n      0x04\n        /* \"#utility.yul\":22068:22083   */\n      mstore\n        /* \"#utility.yul\":22102:22106   */\n      0x24\n        /* \"#utility.yul\":22099:22100   */\n      0x00\n        /* \"#utility.yul\":22092:22107   */\n      revert\n        /* \"#utility.yul\":22119:22273   */\n    tag_492:\n        /* \"#utility.yul\":22162:22173   */\n      0x00\n        /* \"#utility.yul\":22198:22227   */\n      tag_526\n        /* \"#utility.yul\":22222:22225   */\n      dup3\n        /* \"#utility.yul\":22216:22226   */\n      mload\n        /* \"#utility.yul\":22198:22227   */\n      tag_348\n      jump\t// in\n    tag_526:\n        /* \"#utility.yul\":22261:22266   */\n      dup1\n        /* \"#utility.yul\":22237:22266   */\n      swap2\n      pop\n        /* \"#utility.yul\":22174:22273   */\n      pop\n        /* \"#utility.yul\":22119:22273   */\n      swap2\n      swap1\n      pop\n      jump\t// out\n        /* \"#utility.yul\":22279:22396   */\n    tag_276:\n        /* \"#utility.yul\":22388:22389   */\n      0x00\n        /* \"#utility.yul\":22385:22386   */\n      dup1\n        /* \"#utility.yul\":22378:22390   */\n      revert\n        /* \"#utility.yul\":22402:22519   */\n    tag_250:\n        /* \"#utility.yul\":22511:22512   */\n      0x00\n        /* \"#utility.yul\":22508:22509   */\n      dup1\n        /* \"#utility.yul\":22501:22513   */\n      revert\n        /* \"#utility.yul\":22525:22642   */\n    tag_299:\n        /* \"#utility.yul\":22634:22635   */\n      0x00\n        /* \"#utility.yul\":22631:22632   */\n      dup1\n        /* \"#utility.yul\":22624:22636   */\n      revert\n        /* \"#utility.yul\":22648:22765   */\n    tag_290:\n        /* \"#utility.yul\":22757:22758   */\n      0x00\n        /* \"#utility.yul\":22754:22755   */\n      dup1\n        /* \"#utility.yul\":22747:22759   */\n      revert\n        /* \"#utility.yul\":22771:22873   */\n    tag_370:\n        /* \"#utility.yul\":22812:22818   */\n      0x00\n        /* \"#utility.yul\":22863:22865   */\n      0x1f\n        /* \"#utility.yul\":22859:22866   */\n      not\n        /* \"#utility.yul\":22854:22856   */\n      0x1f\n        /* \"#utility.yul\":22847:22852   */\n      dup4\n        /* \"#utility.yul\":22843:22857   */\n      add\n        /* \"#utility.yul\":22839:22867   */\n      and\n        /* \"#utility.yul\":22829:22867   */\n      swap1\n      pop\n        /* \"#utility.yul\":22771:22873   */\n      swap2\n      swap1\n      pop\n      jump\t// out\n        /* \"#utility.yul\":22879:22986   */\n    tag_495:\n        /* \"#utility.yul\":22923:22931   */\n      0x00\n        /* \"#utility.yul\":22973:22978   */\n      dup3\n        /* \"#utility.yul\":22967:22971   */\n      dup3\n        /* \"#utility.yul\":22963:22979   */\n      shl\n        /* \"#utility.yul\":22942:22979   */\n      swap1\n      pop\n        /* \"#utility.yul\":22879:22986   */\n      swap3\n      swap2\n      pop\n      pop\n      jump\t// out\n        /* \"#utility.yul\":22992:23155   */\n    tag_375:\n        /* \"#utility.yul\":23132:23147   */\n      0x62616c616e6365206572726f7200000000000000000000000000000000000000\n        /* \"#utility.yul\":23128:23129   */\n      0x00\n        /* \"#utility.yul\":23120:23126   */\n      dup3\n        /* \"#utility.yul\":23116:23130   */\n      add\n        /* \"#utility.yul\":23109:23148   */\n      mstore\n        /* \"#utility.yul\":22992:23155   */\n      pop\n      jump\t// out\n        /* \"#utility.yul\":23161:23328   */\n    tag_380:\n        /* \"#utility.yul\":23301:23320   */\n      0x575f6b6320697320696e636f7272656374000000000000000000000000000000\n        /* \"#utility.yul\":23297:23298   */\n      0x00\n        /* \"#utility.yul\":23289:23295   */\n      dup3\n        /* \"#utility.yul\":23285:23299   */\n      add\n        /* \"#utility.yul\":23278:23321   */\n      mstore\n        /* \"#utility.yul\":23161:23328   */\n      pop\n      jump\t// out\n        /* \"#utility.yul\":23334:23494   */\n    tag_385:\n        /* \"#utility.yul\":23474:23486   */\n      0x54696d65206572726f7200000000000000000000000000000000000000000000\n        /* \"#utility.yul\":23470:23471   */\n      0x00\n        /* \"#utility.yul\":23462:23468   */\n      dup3\n        /* \"#utility.yul\":23458:23472   */\n      add\n        /* \"#utility.yul\":23451:23487   */\n      mstore\n        /* \"#utility.yul\":23334:23494   */\n      pop\n      jump\t// out\n        /* \"#utility.yul\":23500:23656   */\n    tag_390:\n        /* \"#utility.yul\":23640:23648   */\n      0x6b203c3d206a0000000000000000000000000000000000000000000000000000\n        /* \"#utility.yul\":23636:23637   */\n      0x00\n        /* \"#utility.yul\":23628:23634   */\n      dup3\n        /* \"#utility.yul\":23624:23638   */\n      add\n        /* \"#utility.yul\":23617:23649   */\n      mstore\n        /* \"#utility.yul\":23500:23656   */\n      pop\n      jump\t// out\n        /* \"#utility.yul\":23662:23906   */\n    tag_395:\n        /* \"#utility.yul\":23802:23836   */\n      0x4f6e6c7920637573746f6d6572206f66207468652064656c6976657279206361\n        /* \"#utility.yul\":23798:23799   */\n      0x00\n        /* \"#utility.yul\":23790:23796   */\n      dup3\n        /* \"#utility.yul\":23786:23800   */\n      add\n        /* \"#utility.yul\":23779:23837   */\n      mstore\n        /* \"#utility.yul\":23871:23898   */\n      0x6e2073657420746865206368616e6e656c20706172616d732e00000000000000\n        /* \"#utility.yul\":23866:23868   */\n      0x20\n        /* \"#utility.yul\":23858:23864   */\n      dup3\n        /* \"#utility.yul\":23854:23869   */\n      add\n        /* \"#utility.yul\":23847:23899   */\n      mstore\n        /* \"#utility.yul\":23662:23906   */\n      pop\n      jump\t// out\n        /* \"#utility.yul\":23912:24026   */\n    tag_400:\n      pop\n      jump\t// out\n        /* \"#utility.yul\":24032:24199   */\n    tag_405:\n        /* \"#utility.yul\":24172:24191   */\n      0x575f6b6d20697320696e636f7272656374000000000000000000000000000000\n        /* \"#utility.yul\":24168:24169   */\n      0x00\n        /* \"#utility.yul\":24160:24166   */\n      dup3\n        /* \"#utility.yul\":24156:24170   */\n      add\n        /* \"#utility.yul\":24149:24192   */\n      mstore\n        /* \"#utility.yul\":24032:24199   */\n      pop\n      jump\t// out\n        /* \"#utility.yul\":24205:24327   */\n    tag_264:\n        /* \"#utility.yul\":24278:24302   */\n      tag_541\n        /* \"#utility.yul\":24296:24301   */\n      dup2\n        /* \"#utility.yul\":24278:24302   */\n      tag_340\n      jump\t// in\n    tag_541:\n        /* \"#utility.yul\":24271:24276   */\n      dup2\n        /* \"#utility.yul\":24268:24303   */\n      eq\n        /* \"#utility.yul\":24258:24321   */\n      tag_542\n      jumpi\n        /* \"#utility.yul\":24317:24318   */\n      0x00\n        /* \"#utility.yul\":24314:24315   */\n      dup1\n        /* \"#utility.yul\":24307:24319   */\n      revert\n        /* \"#utility.yul\":24258:24321   */\n    tag_542:\n        /* \"#utility.yul\":24205:24327   */\n      pop\n      jump\t// out\n        /* \"#utility.yul\":24333:24455   */\n    tag_268:\n        /* \"#utility.yul\":24406:24430   */\n      tag_544\n        /* \"#utility.yul\":24424:24429   */\n      dup2\n        /* \"#utility.yul\":24406:24430   */\n      tag_348\n      jump\t// in\n    tag_544:\n        /* \"#utility.yul\":24399:24404   */\n      dup2\n        /* \"#utility.yul\":24396:24431   */\n      eq\n        /* \"#utility.yul\":24386:24449   */\n      tag_545\n      jumpi\n        /* \"#utility.yul\":24445:24446   */\n      0x00\n        /* \"#utility.yul\":24442:24443   */\n      dup1\n        /* \"#utility.yul\":24435:24447   */\n      revert\n        /* \"#utility.yul\":24386:24449   */\n    tag_545:\n        /* \"#utility.yul\":24333:24455   */\n      pop\n      jump\t// out\n        /* \"#utility.yul\":24461:24583   */\n    tag_286:\n        /* \"#utility.yul\":24534:24558   */\n      tag_547\n        /* \"#utility.yul\":24552:24557   */\n      dup2\n        /* \"#utility.yul\":24534:24558   */\n      tag_409\n      jump\t// in\n    tag_547:\n        /* \"#utility.yul\":24527:24532   */\n      dup2\n        /* \"#utility.yul\":24524:24559   */\n      eq\n        /* \"#utility.yul\":24514:24577   */\n      tag_548\n      jumpi\n        /* \"#utility.yul\":24573:24574   */\n      0x00\n        /* \"#utility.yul\":24570:24571   */\n      dup1\n        /* \"#utility.yul\":24563:24575   */\n      revert\n        /* \"#utility.yul\":24514:24577   */\n    tag_548:\n        /* \"#utility.yul\":24461:24583   */\n      pop\n      jump\t// out\n\n    auxdata: 0xa26469706673582212204dcb17bab04586bac653e11be46a06040685a34739bebe0faf795464a073ec9364736f6c63430008070033\n}\n",
				"bytecode": {
					"linkReferences": {},
					"object": "608060405234801561001057600080fd5b506001600a60006101000a81548160ff021916908315150217905550611cba8061003b6000396000f3fe6080604052600436106100f75760003560e01c806388bf19301161008a578063c3da42b811610059578063c3da42b8146102c5578063d8befbb6146102f0578063e8de68cc14610319578063f493e87014610342576100fe565b806388bf1930146102285780639c21a9b814610253578063a6ab36f21461027e578063b582ec5f1461029a576100fe565b806350b1ad6b116100c657806350b1ad6b1461018b5780635e650318146101a75780637c2efcba146101d25780637f80069a146101fd576100fe565b80630482ff7614610100578063247634931461010a5780632804b2c01461013557806334133df914610160576100fe565b366100fe57005b005b61010861036d565b005b34801561011657600080fd5b5061011f610467565b60405161012c919061157f565b60405180910390f35b34801561014157600080fd5b5061014a6104f5565b604051610157919061152e565b60405180910390f35b34801561016c57600080fd5b5061017561051b565b6040516101829190611661565b60405180910390f35b6101a560048036038101906101a0919061124f565b610521565b005b3480156101b357600080fd5b506101bc6106bc565b6040516101c99190611564565b60405180910390f35b3480156101de57600080fd5b506101e76106c2565b6040516101f49190611661565b60405180910390f35b34801561020957600080fd5b506102126106c8565b60405161021f9190611549565b60405180910390f35b34801561023457600080fd5b5061023d6106db565b60405161024a9190611564565b60405180910390f35b34801561025f57600080fd5b506102686106e1565b6040516102759190611661565b60405180910390f35b610298600480360381019061029391906111fc565b6106e7565b005b3480156102a657600080fd5b506102af6107b1565b6040516102bc9190611661565b60405180910390f35b3480156102d157600080fd5b506102da6107b7565b6040516102e79190611661565b60405180910390f35b3480156102fc57600080fd5b506103176004803603810190610312919061115d565b6107bd565b005b34801561032557600080fd5b50610340600480360381019061033b919061108b565b610cfc565b005b34801561034e57600080fd5b50610357610e81565b6040516103649190611661565b60405180910390f35b600160009054906101000a900473ffffffffffffffffffffffffffffffffffffffff1673ffffffffffffffffffffffffffffffffffffffff163373ffffffffffffffffffffffffffffffffffffffff16146103fd576040517f08c379a00000000000000000000000000000000000000000000000000000000081526004016103f490611621565b60405180910390fd5b4260085460075461040e9190611745565b1061044e576040517f08c379a0000000000000000000000000000000000000000000000000000000008152600401610445906115e1565b60405180910390fd5b3373ffffffffffffffffffffffffffffffffffffffff16ff5b600480546104749061197f565b80601f01602080910402602001604051908101604052809291908181526020018280546104a09061197f565b80156104ed5780601f106104c2576101008083540402835291602001916104ed565b820191906000526020600020905b8154815290600101906020018083116104d057829003601f168201915b505050505081565b600160009054906101000a900473ffffffffffffffffffffffffffffffffffffffff1681565b60095481565b60001515600a60009054906101000a900460ff1615151461054157600080fd5b878961054d91906117cc565b341461058e576040517f08c379a0000000000000000000000000000000000000000000000000000000008152600401610585906115a1565b60405180910390fd5b60006007541480156105a257506000600854145b80156105b057506000600954145b80156105ca5750426008546007546105c89190611745565b105b8061060a5750426008546007546105e19190611745565b10801561060957506009546008546007546105fc9190611745565b6106069190611745565b42105b5b61061357600080fd5b86600160006101000a81548173ffffffffffffffffffffffffffffffffffffffff021916908373ffffffffffffffffffffffffffffffffffffffff1602179055508860058190555087600681905550600080819055508560028190555084600381905550836004908051906020019061068d929190610e87565b508860058190555087600681905550826007819055508160088190555080600981905550505050505050505050565b60035481565b60065481565b600a60009054906101000a900460ff1681565b60025481565b60085481565b60001515600a60009054906101000a900460ff1615151461070757600080fd5b80600160006101000a81548173ffffffffffffffffffffffffffffffffffffffff021916908373ffffffffffffffffffffffffffffffffffffffff1602179055508260058190555081600681905550600034146107ac57818361076a91906117cc565b34146107ab576040517f08c379a00000000000000000000000000000000000000000000000000000000081526004016107a2906115a1565b60405180910390fd5b5b505050565b60005481565b60055481565b6008546007546107cd9190611745565b421061080e576040517f08c379a0000000000000000000000000000000000000000000000000000000008152600401610805906115e1565b60405180910390fd5b6000548211610852576040517f08c379a000000000000000000000000000000000000000000000000000000000815260040161084990611601565b60405180910390fd5b6000808561085f906118ac565b905060008561086d906118ac565b9050600080548661087e9190611826565b90505b6000811461097e5760028360405160200161089c91906114e7565b6040516020818303038152906040526040516108b89190611502565b602060405180830381855afa1580156108d5573d6000803e3d6000fd5b5050506040513d601f19601f820116820180604052508101906108f8919061105e565b925060028260405160200161090d91906114e7565b6040516020818303038152906040526040516109299190611502565b602060405180830381855afa158015610946573d6000803e3d6000fd5b5050506040513d601f19601f82011682018060405250810190610969919061105e565b9150808061097690611955565b915050610881565b82600254146109c2576040517f08c379a00000000000000000000000000000000000000000000000000000000081526004016109b990611641565b60405180910390fd5b8160035414610a06576040517f08c379a00000000000000000000000000000000000000000000000000000000081526004016109fd906115c1565b60405180910390fd5b6000600287610a1591906119ec565b1415610a6357600260005487610a2b9190611826565b610a35919061179b565b93508560008190555087610a48906118ac565b60028190555086610a58906118ac565b600381905550610bee565b6002600160005488610a759190611826565b610a7f9190611826565b610a89919061179b565b9350600186610a989190611826565b600081905550600088610aaa906118ac565b9050600088610ab8906118ac565b90506000805489610ac99190611826565b90505b60008114610bc957600283604051602001610ae791906114e7565b604051602081830303815290604052604051610b039190611502565b602060405180830381855afa158015610b20573d6000803e3d6000fd5b5050506040513d601f19601f82011682018060405250810190610b43919061105e565b9250600282604051602001610b5891906114e7565b604051602081830303815290604052604051610b749190611502565b602060405180830381855afa158015610b91573d6000803e3d6000fd5b5050506040513d601f19601f82011682018060405250810190610bb4919061105e565b91508080610bc190611955565b915050610acc565b600189610bd69190611826565b60008190555082600281905550816003819055505050505b600073ffffffffffffffffffffffffffffffffffffffff168573ffffffffffffffffffffffffffffffffffffffff1614610c9d578473ffffffffffffffffffffffffffffffffffffffff1660065485610c4791906117cc565b604051610c5390611519565b60006040518083038185875af1925050503d8060008114610c90576040519150601f19603f3d011682016040523d82523d6000602084013e610c95565b606091505b505050610cf2565b3373ffffffffffffffffffffffffffffffffffffffff166108fc60065486610cc591906117cc565b9081150290604051600060405180830381858888f19350505050158015610cf0573d6000803e3d6000fd5b505b5050505050505050565b600160009054906101000a900473ffffffffffffffffffffffffffffffffffffffff1673ffffffffffffffffffffffffffffffffffffffff163373ffffffffffffffffffffffffffffffffffffffff1614610d8c576040517f08c379a0000000000000000000000000000000000000000000000000000000008152600401610d8390611621565b60405180910390fd5b8385610d9891906117cc565b4714610da357600080fd5b6000600754148015610db757506000600854145b8015610dc557506000600954145b8015610ddf575042600854600754610ddd9190611745565b105b80610e1f575042600854600754610df69190611745565b108015610e1e5750600954600854600754610e119190611745565b610e1b9190611745565b42105b5b610e2857600080fd5b6000808190555087600281905550866003819055508560049080519060200190610e53929190610e87565b5084600581905550836006819055508260078190555081600881905550806009819055505050505050505050565b60075481565b828054610e939061197f565b90600052602060002090601f016020900481019282610eb55760008555610efc565b82601f10610ece57805160ff1916838001178555610efc565b82800160010185558215610efc579182015b82811115610efb578251825591602001919060010190610ee0565b5b509050610f099190610f0d565b5090565b5b80821115610f26576000816000905550600101610f0e565b5090565b6000610f3d610f38846116a1565b61167c565b905082815260208101848484011115610f5957610f58611af3565b5b610f64848285611913565b509392505050565b6000610f7f610f7a846116d2565b61167c565b905082815260208101848484011115610f9b57610f9a611af3565b5b610fa6848285611913565b509392505050565b600081359050610fbd81611c3f565b92915050565b600081359050610fd281611c56565b92915050565b600081519050610fe781611c56565b92915050565b600082601f83011261100257611001611aee565b5b8135611012848260208601610f2a565b91505092915050565b600082601f8301126110305761102f611aee565b5b8135611040848260208601610f6c565b91505092915050565b60008135905061105881611c6d565b92915050565b60006020828403121561107457611073611afd565b5b600061108284828501610fd8565b91505092915050565b600080600080600080600080610100898b0312156110ac576110ab611afd565b5b60006110ba8b828c01610fc3565b98505060206110cb8b828c01610fc3565b975050604089013567ffffffffffffffff8111156110ec576110eb611af8565b5b6110f88b828c0161101b565b96505060606111098b828c01611049565b955050608061111a8b828c01611049565b94505060a061112b8b828c01611049565b93505060c061113c8b828c01611049565b92505060e061114d8b828c01611049565b9150509295985092959890939650565b6000806000806080858703121561117757611176611afd565b5b600085013567ffffffffffffffff81111561119557611194611af8565b5b6111a187828801610fed565b945050602085013567ffffffffffffffff8111156111c2576111c1611af8565b5b6111ce87828801610fed565b93505060406111df87828801611049565b92505060606111f087828801610fae565b91505092959194509250565b60008060006060848603121561121557611214611afd565b5b600061122386828701611049565b935050602061123486828701611049565b925050604061124586828701610fae565b9150509250925092565b60008060008060008060008060006101208a8c03121561127257611271611afd565b5b60006112808c828d01611049565b99505060206112918c828d01611049565b98505060406112a28c828d01610fae565b97505060606112b38c828d01610fc3565b96505060806112c48c828d01610fc3565b95505060a08a013567ffffffffffffffff8111156112e5576112e4611af8565b5b6112f18c828d0161101b565b94505060c06113028c828d01611049565b93505060e06113138c828d01611049565b9250506101006113258c828d01611049565b9150509295985092959850929598565b61133e8161185a565b82525050565b61134d8161186c565b82525050565b61135c81611878565b82525050565b61137361136e82611878565b6119e2565b82525050565b600061138482611713565b61138e8185611729565b935061139e818560208601611922565b80840191505092915050565b60006113b58261171e565b6113bf8185611734565b93506113cf818560208601611922565b6113d881611b02565b840191505092915050565b60006113f0600d83611734565b91506113fb82611b20565b602082019050919050565b6000611413601183611734565b915061141e82611b49565b602082019050919050565b6000611436600a83611734565b915061144182611b72565b602082019050919050565b6000611459600683611734565b915061146482611b9b565b602082019050919050565b600061147c603983611734565b915061148782611bc4565b604082019050919050565b600061149f600083611729565b91506114aa82611c13565b600082019050919050565b60006114c2601183611734565b91506114cd82611c16565b602082019050919050565b6114e1816118a2565b82525050565b60006114f38284611362565b60208201915081905092915050565b600061150e8284611379565b915081905092915050565b600061152482611492565b9150819050919050565b60006020820190506115436000830184611335565b92915050565b600060208201905061155e6000830184611344565b92915050565b60006020820190506115796000830184611353565b92915050565b6000602082019050818103600083015261159981846113aa565b905092915050565b600060208201905081810360008301526115ba816113e3565b9050919050565b600060208201905081810360008301526115da81611406565b9050919050565b600060208201905081810360008301526115fa81611429565b9050919050565b6000602082019050818103600083015261161a8161144c565b9050919050565b6000602082019050818103600083015261163a8161146f565b9050919050565b6000602082019050818103600083015261165a816114b5565b9050919050565b600060208201905061167660008301846114d8565b92915050565b6000611686611697565b905061169282826119b1565b919050565b6000604051905090565b600067ffffffffffffffff8211156116bc576116bb611aaa565b5b6116c582611b02565b9050602081019050919050565b600067ffffffffffffffff8211156116ed576116ec611aaa565b5b6116f682611b02565b9050602081019050919050565b6000819050602082019050919050565b600081519050919050565b600081519050919050565b600081905092915050565b600082825260208201905092915050565b6000611750826118a2565b915061175b836118a2565b9250827fffffffffffffffffffffffffffffffffffffffffffffffffffffffffffffffff038211156117905761178f611a1d565b5b828201905092915050565b60006117a6826118a2565b91506117b1836118a2565b9250826117c1576117c0611a4c565b5b828204905092915050565b60006117d7826118a2565b91506117e2836118a2565b9250817fffffffffffffffffffffffffffffffffffffffffffffffffffffffffffffffff048311821515161561181b5761181a611a1d565b5b828202905092915050565b6000611831826118a2565b915061183c836118a2565b92508282101561184f5761184e611a1d565b5b828203905092915050565b600061186582611882565b9050919050565b60008115159050919050565b6000819050919050565b600073ffffffffffffffffffffffffffffffffffffffff82169050919050565b6000819050919050565b60006118b782611713565b826118c184611703565b90506118cc81611ad9565b9250602082101561190c576119077fffffffffffffffffffffffffffffffffffffffffffffffffffffffffffffffff83602003600802611b13565b831692505b5050919050565b82818337600083830152505050565b60005b83811015611940578082015181840152602081019050611925565b8381111561194f576000848401525b50505050565b6000611960826118a2565b9150600082141561197457611973611a1d565b5b600182039050919050565b6000600282049050600182168061199757607f821691505b602082108114156119ab576119aa611a7b565b5b50919050565b6119ba82611b02565b810181811067ffffffffffffffff821117156119d9576119d8611aaa565b5b80604052505050565b6000819050919050565b60006119f7826118a2565b9150611a02836118a2565b925082611a1257611a11611a4c565b5b828206905092915050565b7f4e487b7100000000000000000000000000000000000000000000000000000000600052601160045260246000fd5b7f4e487b7100000000000000000000000000000000000000000000000000000000600052601260045260246000fd5b7f4e487b7100000000000000000000000000000000000000000000000000000000600052602260045260246000fd5b7f4e487b7100000000000000000000000000000000000000000000000000000000600052604160045260246000fd5b6000611ae58251611878565b80915050919050565b600080fd5b600080fd5b600080fd5b600080fd5b6000601f19601f8301169050919050565b600082821b905092915050565b7f62616c616e6365206572726f7200000000000000000000000000000000000000600082015250565b7f575f6b6320697320696e636f7272656374000000000000000000000000000000600082015250565b7f54696d65206572726f7200000000000000000000000000000000000000000000600082015250565b7f6b203c3d206a0000000000000000000000000000000000000000000000000000600082015250565b7f4f6e6c7920637573746f6d6572206f66207468652064656c697665727920636160008201527f6e2073657420746865206368616e6e656c20706172616d732e00000000000000602082015250565b50565b7f575f6b6d20697320696e636f7272656374000000000000000000000000000000600082015250565b611c488161185a565b8114611c5357600080fd5b50565b611c5f81611878565b8114611c6a57600080fd5b50565b611c76816118a2565b8114611c8157600080fd5b5056fea26469706673582212204dcb17bab04586bac653e11be46a06040685a34739bebe0faf795464a073ec9364736f6c63430008070033",
					"opcodes": "PUSH1 0x80 PUSH1 0x40 MSTORE CALLVALUE DUP1 ISZERO PUSH2 0x10 JUMPI PUSH1 0x0 DUP1 REVERT JUMPDEST POP PUSH1 0x1 PUSH1 0xA PUSH1 0x0 PUSH2 0x100 EXP DUP2 SLOAD DUP2 PUSH1 0xFF MUL NOT AND SWAP1 DUP4 ISZERO ISZERO MUL OR SWAP1 SSTORE POP PUSH2 0x1CBA DUP1 PUSH2 0x3B PUSH1 0x0 CODECOPY PUSH1 0x0 RETURN INVALID PUSH1 0x80 PUSH1 0x40 MSTORE PUSH1 0x4 CALLDATASIZE LT PUSH2 0xF7 JUMPI PUSH1 0x0 CALLDATALOAD PUSH1 0xE0 SHR DUP1 PUSH4 0x88BF1930 GT PUSH2 0x8A JUMPI DUP1 PUSH4 0xC3DA42B8 GT PUSH2 0x59 JUMPI DUP1 PUSH4 0xC3DA42B8 EQ PUSH2 0x2C5 JUMPI DUP1 PUSH4 0xD8BEFBB6 EQ PUSH2 0x2F0 JUMPI DUP1 PUSH4 0xE8DE68CC EQ PUSH2 0x319 JUMPI DUP1 PUSH4 0xF493E870 EQ PUSH2 0x342 JUMPI PUSH2 0xFE JUMP JUMPDEST DUP1 PUSH4 0x88BF1930 EQ PUSH2 0x228 JUMPI DUP1 PUSH4 0x9C21A9B8 EQ PUSH2 0x253 JUMPI DUP1 PUSH4 0xA6AB36F2 EQ PUSH2 0x27E JUMPI DUP1 PUSH4 0xB582EC5F EQ PUSH2 0x29A JUMPI PUSH2 0xFE JUMP JUMPDEST DUP1 PUSH4 0x50B1AD6B GT PUSH2 0xC6 JUMPI DUP1 PUSH4 0x50B1AD6B EQ PUSH2 0x18B JUMPI DUP1 PUSH4 0x5E650318 EQ PUSH2 0x1A7 JUMPI DUP1 PUSH4 0x7C2EFCBA EQ PUSH2 0x1D2 JUMPI DUP1 PUSH4 0x7F80069A EQ PUSH2 0x1FD JUMPI PUSH2 0xFE JUMP JUMPDEST DUP1 PUSH4 0x482FF76 EQ PUSH2 0x100 JUMPI DUP1 PUSH4 0x24763493 EQ PUSH2 0x10A JUMPI DUP1 PUSH4 0x2804B2C0 EQ PUSH2 0x135 JUMPI DUP1 PUSH4 0x34133DF9 EQ PUSH2 0x160 JUMPI PUSH2 0xFE JUMP JUMPDEST CALLDATASIZE PUSH2 0xFE JUMPI STOP JUMPDEST STOP JUMPDEST PUSH2 0x108 PUSH2 0x36D JUMP JUMPDEST STOP JUMPDEST CALLVALUE DUP1 ISZERO PUSH2 0x116 JUMPI PUSH1 0x0 DUP1 REVERT JUMPDEST POP PUSH2 0x11F PUSH2 0x467 JUMP JUMPDEST PUSH1 0x40 MLOAD PUSH2 0x12C SWAP2 SWAP1 PUSH2 0x157F JUMP JUMPDEST PUSH1 0x40 MLOAD DUP1 SWAP2 SUB SWAP1 RETURN JUMPDEST CALLVALUE DUP1 ISZERO PUSH2 0x141 JUMPI PUSH1 0x0 DUP1 REVERT JUMPDEST POP PUSH2 0x14A PUSH2 0x4F5 JUMP JUMPDEST PUSH1 0x40 MLOAD PUSH2 0x157 SWAP2 SWAP1 PUSH2 0x152E JUMP JUMPDEST PUSH1 0x40 MLOAD DUP1 SWAP2 SUB SWAP1 RETURN JUMPDEST CALLVALUE DUP1 ISZERO PUSH2 0x16C JUMPI PUSH1 0x0 DUP1 REVERT JUMPDEST POP PUSH2 0x175 PUSH2 0x51B JUMP JUMPDEST PUSH1 0x40 MLOAD PUSH2 0x182 SWAP2 SWAP1 PUSH2 0x1661 JUMP JUMPDEST PUSH1 0x40 MLOAD DUP1 SWAP2 SUB SWAP1 RETURN JUMPDEST PUSH2 0x1A5 PUSH1 0x4 DUP1 CALLDATASIZE SUB DUP2 ADD SWAP1 PUSH2 0x1A0 SWAP2 SWAP1 PUSH2 0x124F JUMP JUMPDEST PUSH2 0x521 JUMP JUMPDEST STOP JUMPDEST CALLVALUE DUP1 ISZERO PUSH2 0x1B3 JUMPI PUSH1 0x0 DUP1 REVERT JUMPDEST POP PUSH2 0x1BC PUSH2 0x6BC JUMP JUMPDEST PUSH1 0x40 MLOAD PUSH2 0x1C9 SWAP2 SWAP1 PUSH2 0x1564 JUMP JUMPDEST PUSH1 0x40 MLOAD DUP1 SWAP2 SUB SWAP1 RETURN JUMPDEST CALLVALUE DUP1 ISZERO PUSH2 0x1DE JUMPI PUSH1 0x0 DUP1 REVERT JUMPDEST POP PUSH2 0x1E7 PUSH2 0x6C2 JUMP JUMPDEST PUSH1 0x40 MLOAD PUSH2 0x1F4 SWAP2 SWAP1 PUSH2 0x1661 JUMP JUMPDEST PUSH1 0x40 MLOAD DUP1 SWAP2 SUB SWAP1 RETURN JUMPDEST CALLVALUE DUP1 ISZERO PUSH2 0x209 JUMPI PUSH1 0x0 DUP1 REVERT JUMPDEST POP PUSH2 0x212 PUSH2 0x6C8 JUMP JUMPDEST PUSH1 0x40 MLOAD PUSH2 0x21F SWAP2 SWAP1 PUSH2 0x1549 JUMP JUMPDEST PUSH1 0x40 MLOAD DUP1 SWAP2 SUB SWAP1 RETURN JUMPDEST CALLVALUE DUP1 ISZERO PUSH2 0x234 JUMPI PUSH1 0x0 DUP1 REVERT JUMPDEST POP PUSH2 0x23D PUSH2 0x6DB JUMP JUMPDEST PUSH1 0x40 MLOAD PUSH2 0x24A SWAP2 SWAP1 PUSH2 0x1564 JUMP JUMPDEST PUSH1 0x40 MLOAD DUP1 SWAP2 SUB SWAP1 RETURN JUMPDEST CALLVALUE DUP1 ISZERO PUSH2 0x25F JUMPI PUSH1 0x0 DUP1 REVERT JUMPDEST POP PUSH2 0x268 PUSH2 0x6E1 JUMP JUMPDEST PUSH1 0x40 MLOAD PUSH2 0x275 SWAP2 SWAP1 PUSH2 0x1661 JUMP JUMPDEST PUSH1 0x40 MLOAD DUP1 SWAP2 SUB SWAP1 RETURN JUMPDEST PUSH2 0x298 PUSH1 0x4 DUP1 CALLDATASIZE SUB DUP2 ADD SWAP1 PUSH2 0x293 SWAP2 SWAP1 PUSH2 0x11FC JUMP JUMPDEST PUSH2 0x6E7 JUMP JUMPDEST STOP JUMPDEST CALLVALUE DUP1 ISZERO PUSH2 0x2A6 JUMPI PUSH1 0x0 DUP1 REVERT JUMPDEST POP PUSH2 0x2AF PUSH2 0x7B1 JUMP JUMPDEST PUSH1 0x40 MLOAD PUSH2 0x2BC SWAP2 SWAP1 PUSH2 0x1661 JUMP JUMPDEST PUSH1 0x40 MLOAD DUP1 SWAP2 SUB SWAP1 RETURN JUMPDEST CALLVALUE DUP1 ISZERO PUSH2 0x2D1 JUMPI PUSH1 0x0 DUP1 REVERT JUMPDEST POP PUSH2 0x2DA PUSH2 0x7B7 JUMP JUMPDEST PUSH1 0x40 MLOAD PUSH2 0x2E7 SWAP2 SWAP1 PUSH2 0x1661 JUMP JUMPDEST PUSH1 0x40 MLOAD DUP1 SWAP2 SUB SWAP1 RETURN JUMPDEST CALLVALUE DUP1 ISZERO PUSH2 0x2FC JUMPI PUSH1 0x0 DUP1 REVERT JUMPDEST POP PUSH2 0x317 PUSH1 0x4 DUP1 CALLDATASIZE SUB DUP2 ADD SWAP1 PUSH2 0x312 SWAP2 SWAP1 PUSH2 0x115D JUMP JUMPDEST PUSH2 0x7BD JUMP JUMPDEST STOP JUMPDEST CALLVALUE DUP1 ISZERO PUSH2 0x325 JUMPI PUSH1 0x0 DUP1 REVERT JUMPDEST POP PUSH2 0x340 PUSH1 0x4 DUP1 CALLDATASIZE SUB DUP2 ADD SWAP1 PUSH2 0x33B SWAP2 SWAP1 PUSH2 0x108B JUMP JUMPDEST PUSH2 0xCFC JUMP JUMPDEST STOP JUMPDEST CALLVALUE DUP1 ISZERO PUSH2 0x34E JUMPI PUSH1 0x0 DUP1 REVERT JUMPDEST POP PUSH2 0x357 PUSH2 0xE81 JUMP JUMPDEST PUSH1 0x40 MLOAD PUSH2 0x364 SWAP2 SWAP1 PUSH2 0x1661 JUMP JUMPDEST PUSH1 0x40 MLOAD DUP1 SWAP2 SUB SWAP1 RETURN JUMPDEST PUSH1 0x1 PUSH1 0x0 SWAP1 SLOAD SWAP1 PUSH2 0x100 EXP SWAP1 DIV PUSH20 0xFFFFFFFFFFFFFFFFFFFFFFFFFFFFFFFFFFFFFFFF AND PUSH20 0xFFFFFFFFFFFFFFFFFFFFFFFFFFFFFFFFFFFFFFFF AND CALLER PUSH20 0xFFFFFFFFFFFFFFFFFFFFFFFFFFFFFFFFFFFFFFFF AND EQ PUSH2 0x3FD JUMPI PUSH1 0x40 MLOAD PUSH32 0x8C379A000000000000000000000000000000000000000000000000000000000 DUP2 MSTORE PUSH1 0x4 ADD PUSH2 0x3F4 SWAP1 PUSH2 0x1621 JUMP JUMPDEST PUSH1 0x40 MLOAD DUP1 SWAP2 SUB SWAP1 REVERT JUMPDEST TIMESTAMP PUSH1 0x8 SLOAD PUSH1 0x7 SLOAD PUSH2 0x40E SWAP2 SWAP1 PUSH2 0x1745 JUMP JUMPDEST LT PUSH2 0x44E JUMPI PUSH1 0x40 MLOAD PUSH32 0x8C379A000000000000000000000000000000000000000000000000000000000 DUP2 MSTORE PUSH1 0x4 ADD PUSH2 0x445 SWAP1 PUSH2 0x15E1 JUMP JUMPDEST PUSH1 0x40 MLOAD DUP1 SWAP2 SUB SWAP1 REVERT JUMPDEST CALLER PUSH20 0xFFFFFFFFFFFFFFFFFFFFFFFFFFFFFFFFFFFFFFFF AND SELFDESTRUCT JUMPDEST PUSH1 0x4 DUP1 SLOAD PUSH2 0x474 SWAP1 PUSH2 0x197F JUMP JUMPDEST DUP1 PUSH1 0x1F ADD PUSH1 0x20 DUP1 SWAP2 DIV MUL PUSH1 0x20 ADD PUSH1 0x40 MLOAD SWAP1 DUP2 ADD PUSH1 0x40 MSTORE DUP1 SWAP3 SWAP2 SWAP1 DUP2 DUP2 MSTORE PUSH1 0x20 ADD DUP3 DUP1 SLOAD PUSH2 0x4A0 SWAP1 PUSH2 0x197F JUMP JUMPDEST DUP1 ISZERO PUSH2 0x4ED JUMPI DUP1 PUSH1 0x1F LT PUSH2 0x4C2 JUMPI PUSH2 0x100 DUP1 DUP4 SLOAD DIV MUL DUP4 MSTORE SWAP2 PUSH1 0x20 ADD SWAP2 PUSH2 0x4ED JUMP JUMPDEST DUP3 ADD SWAP2 SWAP1 PUSH1 0x0 MSTORE PUSH1 0x20 PUSH1 0x0 KECCAK256 SWAP1 JUMPDEST DUP2 SLOAD DUP2 MSTORE SWAP1 PUSH1 0x1 ADD SWAP1 PUSH1 0x20 ADD DUP1 DUP4 GT PUSH2 0x4D0 JUMPI DUP3 SWAP1 SUB PUSH1 0x1F AND DUP3 ADD SWAP2 JUMPDEST POP POP POP POP POP DUP2 JUMP JUMPDEST PUSH1 0x1 PUSH1 0x0 SWAP1 SLOAD SWAP1 PUSH2 0x100 EXP SWAP1 DIV PUSH20 0xFFFFFFFFFFFFFFFFFFFFFFFFFFFFFFFFFFFFFFFF AND DUP2 JUMP JUMPDEST PUSH1 0x9 SLOAD DUP2 JUMP JUMPDEST PUSH1 0x0 ISZERO ISZERO PUSH1 0xA PUSH1 0x0 SWAP1 SLOAD SWAP1 PUSH2 0x100 EXP SWAP1 DIV PUSH1 0xFF AND ISZERO ISZERO EQ PUSH2 0x541 JUMPI PUSH1 0x0 DUP1 REVERT JUMPDEST DUP8 DUP10 PUSH2 0x54D SWAP2 SWAP1 PUSH2 0x17CC JUMP JUMPDEST CALLVALUE EQ PUSH2 0x58E JUMPI PUSH1 0x40 MLOAD PUSH32 0x8C379A000000000000000000000000000000000000000000000000000000000 DUP2 MSTORE PUSH1 0x4 ADD PUSH2 0x585 SWAP1 PUSH2 0x15A1 JUMP JUMPDEST PUSH1 0x40 MLOAD DUP1 SWAP2 SUB SWAP1 REVERT JUMPDEST PUSH1 0x0 PUSH1 0x7 SLOAD EQ DUP1 ISZERO PUSH2 0x5A2 JUMPI POP PUSH1 0x0 PUSH1 0x8 SLOAD EQ JUMPDEST DUP1 ISZERO PUSH2 0x5B0 JUMPI POP PUSH1 0x0 PUSH1 0x9 SLOAD EQ JUMPDEST DUP1 ISZERO PUSH2 0x5CA JUMPI POP TIMESTAMP PUSH1 0x8 SLOAD PUSH1 0x7 SLOAD PUSH2 0x5C8 SWAP2 SWAP1 PUSH2 0x1745 JUMP JUMPDEST LT JUMPDEST DUP1 PUSH2 0x60A JUMPI POP TIMESTAMP PUSH1 0x8 SLOAD PUSH1 0x7 SLOAD PUSH2 0x5E1 SWAP2 SWAP1 PUSH2 0x1745 JUMP JUMPDEST LT DUP1 ISZERO PUSH2 0x609 JUMPI POP PUSH1 0x9 SLOAD PUSH1 0x8 SLOAD PUSH1 0x7 SLOAD PUSH2 0x5FC SWAP2 SWAP1 PUSH2 0x1745 JUMP JUMPDEST PUSH2 0x606 SWAP2 SWAP1 PUSH2 0x1745 JUMP JUMPDEST TIMESTAMP LT JUMPDEST JUMPDEST PUSH2 0x613 JUMPI PUSH1 0x0 DUP1 REVERT JUMPDEST DUP7 PUSH1 0x1 PUSH1 0x0 PUSH2 0x100 EXP DUP2 SLOAD DUP2 PUSH20 0xFFFFFFFFFFFFFFFFFFFFFFFFFFFFFFFFFFFFFFFF MUL NOT AND SWAP1 DUP4 PUSH20 0xFFFFFFFFFFFFFFFFFFFFFFFFFFFFFFFFFFFFFFFF AND MUL OR SWAP1 SSTORE POP DUP9 PUSH1 0x5 DUP2 SWAP1 SSTORE POP DUP8 PUSH1 0x6 DUP2 SWAP1 SSTORE POP PUSH1 0x0 DUP1 DUP2 SWAP1 SSTORE POP DUP6 PUSH1 0x2 DUP2 SWAP1 SSTORE POP DUP5 PUSH1 0x3 DUP2 SWAP1 SSTORE POP DUP4 PUSH1 0x4 SWAP1 DUP1 MLOAD SWAP1 PUSH1 0x20 ADD SWAP1 PUSH2 0x68D SWAP3 SWAP2 SWAP1 PUSH2 0xE87 JUMP JUMPDEST POP DUP9 PUSH1 0x5 DUP2 SWAP1 SSTORE POP DUP8 PUSH1 0x6 DUP2 SWAP1 SSTORE POP DUP3 PUSH1 0x7 DUP2 SWAP1 SSTORE POP DUP2 PUSH1 0x8 DUP2 SWAP1 SSTORE POP DUP1 PUSH1 0x9 DUP2 SWAP1 SSTORE POP POP POP POP POP POP POP POP POP POP JUMP JUMPDEST PUSH1 0x3 SLOAD DUP2 JUMP JUMPDEST PUSH1 0x6 SLOAD DUP2 JUMP JUMPDEST PUSH1 0xA PUSH1 0x0 SWAP1 SLOAD SWAP1 PUSH2 0x100 EXP SWAP1 DIV PUSH1 0xFF AND DUP2 JUMP JUMPDEST PUSH1 0x2 SLOAD DUP2 JUMP JUMPDEST PUSH1 0x8 SLOAD DUP2 JUMP JUMPDEST PUSH1 0x0 ISZERO ISZERO PUSH1 0xA PUSH1 0x0 SWAP1 SLOAD SWAP1 PUSH2 0x100 EXP SWAP1 DIV PUSH1 0xFF AND ISZERO ISZERO EQ PUSH2 0x707 JUMPI PUSH1 0x0 DUP1 REVERT JUMPDEST DUP1 PUSH1 0x1 PUSH1 0x0 PUSH2 0x100 EXP DUP2 SLOAD DUP2 PUSH20 0xFFFFFFFFFFFFFFFFFFFFFFFFFFFFFFFFFFFFFFFF MUL NOT AND SWAP1 DUP4 PUSH20 0xFFFFFFFFFFFFFFFFFFFFFFFFFFFFFFFFFFFFFFFF AND MUL OR SWAP1 SSTORE POP DUP3 PUSH1 0x5 DUP2 SWAP1 SSTORE POP DUP2 PUSH1 0x6 DUP2 SWAP1 SSTORE POP PUSH1 0x0 CALLVALUE EQ PUSH2 0x7AC JUMPI DUP2 DUP4 PUSH2 0x76A SWAP2 SWAP1 PUSH2 0x17CC JUMP JUMPDEST CALLVALUE EQ PUSH2 0x7AB JUMPI PUSH1 0x40 MLOAD PUSH32 0x8C379A000000000000000000000000000000000000000000000000000000000 DUP2 MSTORE PUSH1 0x4 ADD PUSH2 0x7A2 SWAP1 PUSH2 0x15A1 JUMP JUMPDEST PUSH1 0x40 MLOAD DUP1 SWAP2 SUB SWAP1 REVERT JUMPDEST JUMPDEST POP POP POP JUMP JUMPDEST PUSH1 0x0 SLOAD DUP2 JUMP JUMPDEST PUSH1 0x5 SLOAD DUP2 JUMP JUMPDEST PUSH1 0x8 SLOAD PUSH1 0x7 SLOAD PUSH2 0x7CD SWAP2 SWAP1 PUSH2 0x1745 JUMP JUMPDEST TIMESTAMP LT PUSH2 0x80E JUMPI PUSH1 0x40 MLOAD PUSH32 0x8C379A000000000000000000000000000000000000000000000000000000000 DUP2 MSTORE PUSH1 0x4 ADD PUSH2 0x805 SWAP1 PUSH2 0x15E1 JUMP JUMPDEST PUSH1 0x40 MLOAD DUP1 SWAP2 SUB SWAP1 REVERT JUMPDEST PUSH1 0x0 SLOAD DUP3 GT PUSH2 0x852 JUMPI PUSH1 0x40 MLOAD PUSH32 0x8C379A000000000000000000000000000000000000000000000000000000000 DUP2 MSTORE PUSH1 0x4 ADD PUSH2 0x849 SWAP1 PUSH2 0x1601 JUMP JUMPDEST PUSH1 0x40 MLOAD DUP1 SWAP2 SUB SWAP1 REVERT JUMPDEST PUSH1 0x0 DUP1 DUP6 PUSH2 0x85F SWAP1 PUSH2 0x18AC JUMP JUMPDEST SWAP1 POP PUSH1 0x0 DUP6 PUSH2 0x86D SWAP1 PUSH2 0x18AC JUMP JUMPDEST SWAP1 POP PUSH1 0x0 DUP1 SLOAD DUP7 PUSH2 0x87E SWAP2 SWAP1 PUSH2 0x1826 JUMP JUMPDEST SWAP1 POP JUMPDEST PUSH1 0x0 DUP2 EQ PUSH2 0x97E JUMPI PUSH1 0x2 DUP4 PUSH1 0x40 MLOAD PUSH1 0x20 ADD PUSH2 0x89C SWAP2 SWAP1 PUSH2 0x14E7 JUMP JUMPDEST PUSH1 0x40 MLOAD PUSH1 0x20 DUP2 DUP4 SUB SUB DUP2 MSTORE SWAP1 PUSH1 0x40 MSTORE PUSH1 0x40 MLOAD PUSH2 0x8B8 SWAP2 SWAP1 PUSH2 0x1502 JUMP JUMPDEST PUSH1 0x20 PUSH1 0x40 MLOAD DUP1 DUP4 SUB DUP2 DUP6 GAS STATICCALL ISZERO DUP1 ISZERO PUSH2 0x8D5 JUMPI RETURNDATASIZE PUSH1 0x0 DUP1 RETURNDATACOPY RETURNDATASIZE PUSH1 0x0 REVERT JUMPDEST POP POP POP PUSH1 0x40 MLOAD RETURNDATASIZE PUSH1 0x1F NOT PUSH1 0x1F DUP3 ADD AND DUP3 ADD DUP1 PUSH1 0x40 MSTORE POP DUP2 ADD SWAP1 PUSH2 0x8F8 SWAP2 SWAP1 PUSH2 0x105E JUMP JUMPDEST SWAP3 POP PUSH1 0x2 DUP3 PUSH1 0x40 MLOAD PUSH1 0x20 ADD PUSH2 0x90D SWAP2 SWAP1 PUSH2 0x14E7 JUMP JUMPDEST PUSH1 0x40 MLOAD PUSH1 0x20 DUP2 DUP4 SUB SUB DUP2 MSTORE SWAP1 PUSH1 0x40 MSTORE PUSH1 0x40 MLOAD PUSH2 0x929 SWAP2 SWAP1 PUSH2 0x1502 JUMP JUMPDEST PUSH1 0x20 PUSH1 0x40 MLOAD DUP1 DUP4 SUB DUP2 DUP6 GAS STATICCALL ISZERO DUP1 ISZERO PUSH2 0x946 JUMPI RETURNDATASIZE PUSH1 0x0 DUP1 RETURNDATACOPY RETURNDATASIZE PUSH1 0x0 REVERT JUMPDEST POP POP POP PUSH1 0x40 MLOAD RETURNDATASIZE PUSH1 0x1F NOT PUSH1 0x1F DUP3 ADD AND DUP3 ADD DUP1 PUSH1 0x40 MSTORE POP DUP2 ADD SWAP1 PUSH2 0x969 SWAP2 SWAP1 PUSH2 0x105E JUMP JUMPDEST SWAP2 POP DUP1 DUP1 PUSH2 0x976 SWAP1 PUSH2 0x1955 JUMP JUMPDEST SWAP2 POP POP PUSH2 0x881 JUMP JUMPDEST DUP3 PUSH1 0x2 SLOAD EQ PUSH2 0x9C2 JUMPI PUSH1 0x40 MLOAD PUSH32 0x8C379A000000000000000000000000000000000000000000000000000000000 DUP2 MSTORE PUSH1 0x4 ADD PUSH2 0x9B9 SWAP1 PUSH2 0x1641 JUMP JUMPDEST PUSH1 0x40 MLOAD DUP1 SWAP2 SUB SWAP1 REVERT JUMPDEST DUP2 PUSH1 0x3 SLOAD EQ PUSH2 0xA06 JUMPI PUSH1 0x40 MLOAD PUSH32 0x8C379A000000000000000000000000000000000000000000000000000000000 DUP2 MSTORE PUSH1 0x4 ADD PUSH2 0x9FD SWAP1 PUSH2 0x15C1 JUMP JUMPDEST PUSH1 0x40 MLOAD DUP1 SWAP2 SUB SWAP1 REVERT JUMPDEST PUSH1 0x0 PUSH1 0x2 DUP8 PUSH2 0xA15 SWAP2 SWAP1 PUSH2 0x19EC JUMP JUMPDEST EQ ISZERO PUSH2 0xA63 JUMPI PUSH1 0x2 PUSH1 0x0 SLOAD DUP8 PUSH2 0xA2B SWAP2 SWAP1 PUSH2 0x1826 JUMP JUMPDEST PUSH2 0xA35 SWAP2 SWAP1 PUSH2 0x179B JUMP JUMPDEST SWAP4 POP DUP6 PUSH1 0x0 DUP2 SWAP1 SSTORE POP DUP8 PUSH2 0xA48 SWAP1 PUSH2 0x18AC JUMP JUMPDEST PUSH1 0x2 DUP2 SWAP1 SSTORE POP DUP7 PUSH2 0xA58 SWAP1 PUSH2 0x18AC JUMP JUMPDEST PUSH1 0x3 DUP2 SWAP1 SSTORE POP PUSH2 0xBEE JUMP JUMPDEST PUSH1 0x2 PUSH1 0x1 PUSH1 0x0 SLOAD DUP9 PUSH2 0xA75 SWAP2 SWAP1 PUSH2 0x1826 JUMP JUMPDEST PUSH2 0xA7F SWAP2 SWAP1 PUSH2 0x1826 JUMP JUMPDEST PUSH2 0xA89 SWAP2 SWAP1 PUSH2 0x179B JUMP JUMPDEST SWAP4 POP PUSH1 0x1 DUP7 PUSH2 0xA98 SWAP2 SWAP1 PUSH2 0x1826 JUMP JUMPDEST PUSH1 0x0 DUP2 SWAP1 SSTORE POP PUSH1 0x0 DUP9 PUSH2 0xAAA SWAP1 PUSH2 0x18AC JUMP JUMPDEST SWAP1 POP PUSH1 0x0 DUP9 PUSH2 0xAB8 SWAP1 PUSH2 0x18AC JUMP JUMPDEST SWAP1 POP PUSH1 0x0 DUP1 SLOAD DUP10 PUSH2 0xAC9 SWAP2 SWAP1 PUSH2 0x1826 JUMP JUMPDEST SWAP1 POP JUMPDEST PUSH1 0x0 DUP2 EQ PUSH2 0xBC9 JUMPI PUSH1 0x2 DUP4 PUSH1 0x40 MLOAD PUSH1 0x20 ADD PUSH2 0xAE7 SWAP2 SWAP1 PUSH2 0x14E7 JUMP JUMPDEST PUSH1 0x40 MLOAD PUSH1 0x20 DUP2 DUP4 SUB SUB DUP2 MSTORE SWAP1 PUSH1 0x40 MSTORE PUSH1 0x40 MLOAD PUSH2 0xB03 SWAP2 SWAP1 PUSH2 0x1502 JUMP JUMPDEST PUSH1 0x20 PUSH1 0x40 MLOAD DUP1 DUP4 SUB DUP2 DUP6 GAS STATICCALL ISZERO DUP1 ISZERO PUSH2 0xB20 JUMPI RETURNDATASIZE PUSH1 0x0 DUP1 RETURNDATACOPY RETURNDATASIZE PUSH1 0x0 REVERT JUMPDEST POP POP POP PUSH1 0x40 MLOAD RETURNDATASIZE PUSH1 0x1F NOT PUSH1 0x1F DUP3 ADD AND DUP3 ADD DUP1 PUSH1 0x40 MSTORE POP DUP2 ADD SWAP1 PUSH2 0xB43 SWAP2 SWAP1 PUSH2 0x105E JUMP JUMPDEST SWAP3 POP PUSH1 0x2 DUP3 PUSH1 0x40 MLOAD PUSH1 0x20 ADD PUSH2 0xB58 SWAP2 SWAP1 PUSH2 0x14E7 JUMP JUMPDEST PUSH1 0x40 MLOAD PUSH1 0x20 DUP2 DUP4 SUB SUB DUP2 MSTORE SWAP1 PUSH1 0x40 MSTORE PUSH1 0x40 MLOAD PUSH2 0xB74 SWAP2 SWAP1 PUSH2 0x1502 JUMP JUMPDEST PUSH1 0x20 PUSH1 0x40 MLOAD DUP1 DUP4 SUB DUP2 DUP6 GAS STATICCALL ISZERO DUP1 ISZERO PUSH2 0xB91 JUMPI RETURNDATASIZE PUSH1 0x0 DUP1 RETURNDATACOPY RETURNDATASIZE PUSH1 0x0 REVERT JUMPDEST POP POP POP PUSH1 0x40 MLOAD RETURNDATASIZE PUSH1 0x1F NOT PUSH1 0x1F DUP3 ADD AND DUP3 ADD DUP1 PUSH1 0x40 MSTORE POP DUP2 ADD SWAP1 PUSH2 0xBB4 SWAP2 SWAP1 PUSH2 0x105E JUMP JUMPDEST SWAP2 POP DUP1 DUP1 PUSH2 0xBC1 SWAP1 PUSH2 0x1955 JUMP JUMPDEST SWAP2 POP POP PUSH2 0xACC JUMP JUMPDEST PUSH1 0x1 DUP10 PUSH2 0xBD6 SWAP2 SWAP1 PUSH2 0x1826 JUMP JUMPDEST PUSH1 0x0 DUP2 SWAP1 SSTORE POP DUP3 PUSH1 0x2 DUP2 SWAP1 SSTORE POP DUP2 PUSH1 0x3 DUP2 SWAP1 SSTORE POP POP POP POP JUMPDEST PUSH1 0x0 PUSH20 0xFFFFFFFFFFFFFFFFFFFFFFFFFFFFFFFFFFFFFFFF AND DUP6 PUSH20 0xFFFFFFFFFFFFFFFFFFFFFFFFFFFFFFFFFFFFFFFF AND EQ PUSH2 0xC9D JUMPI DUP5 PUSH20 0xFFFFFFFFFFFFFFFFFFFFFFFFFFFFFFFFFFFFFFFF AND PUSH1 0x6 SLOAD DUP6 PUSH2 0xC47 SWAP2 SWAP1 PUSH2 0x17CC JUMP JUMPDEST PUSH1 0x40 MLOAD PUSH2 0xC53 SWAP1 PUSH2 0x1519 JUMP JUMPDEST PUSH1 0x0 PUSH1 0x40 MLOAD DUP1 DUP4 SUB DUP2 DUP6 DUP8 GAS CALL SWAP3 POP POP POP RETURNDATASIZE DUP1 PUSH1 0x0 DUP2 EQ PUSH2 0xC90 JUMPI PUSH1 0x40 MLOAD SWAP2 POP PUSH1 0x1F NOT PUSH1 0x3F RETURNDATASIZE ADD AND DUP3 ADD PUSH1 0x40 MSTORE RETURNDATASIZE DUP3 MSTORE RETURNDATASIZE PUSH1 0x0 PUSH1 0x20 DUP5 ADD RETURNDATACOPY PUSH2 0xC95 JUMP JUMPDEST PUSH1 0x60 SWAP2 POP JUMPDEST POP POP POP PUSH2 0xCF2 JUMP JUMPDEST CALLER PUSH20 0xFFFFFFFFFFFFFFFFFFFFFFFFFFFFFFFFFFFFFFFF AND PUSH2 0x8FC PUSH1 0x6 SLOAD DUP7 PUSH2 0xCC5 SWAP2 SWAP1 PUSH2 0x17CC JUMP JUMPDEST SWAP1 DUP2 ISZERO MUL SWAP1 PUSH1 0x40 MLOAD PUSH1 0x0 PUSH1 0x40 MLOAD DUP1 DUP4 SUB DUP2 DUP6 DUP9 DUP9 CALL SWAP4 POP POP POP POP ISZERO DUP1 ISZERO PUSH2 0xCF0 JUMPI RETURNDATASIZE PUSH1 0x0 DUP1 RETURNDATACOPY RETURNDATASIZE PUSH1 0x0 REVERT JUMPDEST POP JUMPDEST POP POP POP POP POP POP POP POP JUMP JUMPDEST PUSH1 0x1 PUSH1 0x0 SWAP1 SLOAD SWAP1 PUSH2 0x100 EXP SWAP1 DIV PUSH20 0xFFFFFFFFFFFFFFFFFFFFFFFFFFFFFFFFFFFFFFFF AND PUSH20 0xFFFFFFFFFFFFFFFFFFFFFFFFFFFFFFFFFFFFFFFF AND CALLER PUSH20 0xFFFFFFFFFFFFFFFFFFFFFFFFFFFFFFFFFFFFFFFF AND EQ PUSH2 0xD8C JUMPI PUSH1 0x40 MLOAD PUSH32 0x8C379A000000000000000000000000000000000000000000000000000000000 DUP2 MSTORE PUSH1 0x4 ADD PUSH2 0xD83 SWAP1 PUSH2 0x1621 JUMP JUMPDEST PUSH1 0x40 MLOAD DUP1 SWAP2 SUB SWAP1 REVERT JUMPDEST DUP4 DUP6 PUSH2 0xD98 SWAP2 SWAP1 PUSH2 0x17CC JUMP JUMPDEST SELFBALANCE EQ PUSH2 0xDA3 JUMPI PUSH1 0x0 DUP1 REVERT JUMPDEST PUSH1 0x0 PUSH1 0x7 SLOAD EQ DUP1 ISZERO PUSH2 0xDB7 JUMPI POP PUSH1 0x0 PUSH1 0x8 SLOAD EQ JUMPDEST DUP1 ISZERO PUSH2 0xDC5 JUMPI POP PUSH1 0x0 PUSH1 0x9 SLOAD EQ JUMPDEST DUP1 ISZERO PUSH2 0xDDF JUMPI POP TIMESTAMP PUSH1 0x8 SLOAD PUSH1 0x7 SLOAD PUSH2 0xDDD SWAP2 SWAP1 PUSH2 0x1745 JUMP JUMPDEST LT JUMPDEST DUP1 PUSH2 0xE1F JUMPI POP TIMESTAMP PUSH1 0x8 SLOAD PUSH1 0x7 SLOAD PUSH2 0xDF6 SWAP2 SWAP1 PUSH2 0x1745 JUMP JUMPDEST LT DUP1 ISZERO PUSH2 0xE1E JUMPI POP PUSH1 0x9 SLOAD PUSH1 0x8 SLOAD PUSH1 0x7 SLOAD PUSH2 0xE11 SWAP2 SWAP1 PUSH2 0x1745 JUMP JUMPDEST PUSH2 0xE1B SWAP2 SWAP1 PUSH2 0x1745 JUMP JUMPDEST TIMESTAMP LT JUMPDEST JUMPDEST PUSH2 0xE28 JUMPI PUSH1 0x0 DUP1 REVERT JUMPDEST PUSH1 0x0 DUP1 DUP2 SWAP1 SSTORE POP DUP8 PUSH1 0x2 DUP2 SWAP1 SSTORE POP DUP7 PUSH1 0x3 DUP2 SWAP1 SSTORE POP DUP6 PUSH1 0x4 SWAP1 DUP1 MLOAD SWAP1 PUSH1 0x20 ADD SWAP1 PUSH2 0xE53 SWAP3 SWAP2 SWAP1 PUSH2 0xE87 JUMP JUMPDEST POP DUP5 PUSH1 0x5 DUP2 SWAP1 SSTORE POP DUP4 PUSH1 0x6 DUP2 SWAP1 SSTORE POP DUP3 PUSH1 0x7 DUP2 SWAP1 SSTORE POP DUP2 PUSH1 0x8 DUP2 SWAP1 SSTORE POP DUP1 PUSH1 0x9 DUP2 SWAP1 SSTORE POP POP POP POP POP POP POP POP POP JUMP JUMPDEST PUSH1 0x7 SLOAD DUP2 JUMP JUMPDEST DUP3 DUP1 SLOAD PUSH2 0xE93 SWAP1 PUSH2 0x197F JUMP JUMPDEST SWAP1 PUSH1 0x0 MSTORE PUSH1 0x20 PUSH1 0x0 KECCAK256 SWAP1 PUSH1 0x1F ADD PUSH1 0x20 SWAP1 DIV DUP2 ADD SWAP3 DUP3 PUSH2 0xEB5 JUMPI PUSH1 0x0 DUP6 SSTORE PUSH2 0xEFC JUMP JUMPDEST DUP3 PUSH1 0x1F LT PUSH2 0xECE JUMPI DUP1 MLOAD PUSH1 0xFF NOT AND DUP4 DUP1 ADD OR DUP6 SSTORE PUSH2 0xEFC JUMP JUMPDEST DUP3 DUP1 ADD PUSH1 0x1 ADD DUP6 SSTORE DUP3 ISZERO PUSH2 0xEFC JUMPI SWAP2 DUP3 ADD JUMPDEST DUP3 DUP2 GT ISZERO PUSH2 0xEFB JUMPI DUP3 MLOAD DUP3 SSTORE SWAP2 PUSH1 0x20 ADD SWAP2 SWAP1 PUSH1 0x1 ADD SWAP1 PUSH2 0xEE0 JUMP JUMPDEST JUMPDEST POP SWAP1 POP PUSH2 0xF09 SWAP2 SWAP1 PUSH2 0xF0D JUMP JUMPDEST POP SWAP1 JUMP JUMPDEST JUMPDEST DUP1 DUP3 GT ISZERO PUSH2 0xF26 JUMPI PUSH1 0x0 DUP2 PUSH1 0x0 SWAP1 SSTORE POP PUSH1 0x1 ADD PUSH2 0xF0E JUMP JUMPDEST POP SWAP1 JUMP JUMPDEST PUSH1 0x0 PUSH2 0xF3D PUSH2 0xF38 DUP5 PUSH2 0x16A1 JUMP JUMPDEST PUSH2 0x167C JUMP JUMPDEST SWAP1 POP DUP3 DUP2 MSTORE PUSH1 0x20 DUP2 ADD DUP5 DUP5 DUP5 ADD GT ISZERO PUSH2 0xF59 JUMPI PUSH2 0xF58 PUSH2 0x1AF3 JUMP JUMPDEST JUMPDEST PUSH2 0xF64 DUP5 DUP3 DUP6 PUSH2 0x1913 JUMP JUMPDEST POP SWAP4 SWAP3 POP POP POP JUMP JUMPDEST PUSH1 0x0 PUSH2 0xF7F PUSH2 0xF7A DUP5 PUSH2 0x16D2 JUMP JUMPDEST PUSH2 0x167C JUMP JUMPDEST SWAP1 POP DUP3 DUP2 MSTORE PUSH1 0x20 DUP2 ADD DUP5 DUP5 DUP5 ADD GT ISZERO PUSH2 0xF9B JUMPI PUSH2 0xF9A PUSH2 0x1AF3 JUMP JUMPDEST JUMPDEST PUSH2 0xFA6 DUP5 DUP3 DUP6 PUSH2 0x1913 JUMP JUMPDEST POP SWAP4 SWAP3 POP POP POP JUMP JUMPDEST PUSH1 0x0 DUP2 CALLDATALOAD SWAP1 POP PUSH2 0xFBD DUP2 PUSH2 0x1C3F JUMP JUMPDEST SWAP3 SWAP2 POP POP JUMP JUMPDEST PUSH1 0x0 DUP2 CALLDATALOAD SWAP1 POP PUSH2 0xFD2 DUP2 PUSH2 0x1C56 JUMP JUMPDEST SWAP3 SWAP2 POP POP JUMP JUMPDEST PUSH1 0x0 DUP2 MLOAD SWAP1 POP PUSH2 0xFE7 DUP2 PUSH2 0x1C56 JUMP JUMPDEST SWAP3 SWAP2 POP POP JUMP JUMPDEST PUSH1 0x0 DUP3 PUSH1 0x1F DUP4 ADD SLT PUSH2 0x1002 JUMPI PUSH2 0x1001 PUSH2 0x1AEE JUMP JUMPDEST JUMPDEST DUP2 CALLDATALOAD PUSH2 0x1012 DUP5 DUP3 PUSH1 0x20 DUP7 ADD PUSH2 0xF2A JUMP JUMPDEST SWAP2 POP POP SWAP3 SWAP2 POP POP JUMP JUMPDEST PUSH1 0x0 DUP3 PUSH1 0x1F DUP4 ADD SLT PUSH2 0x1030 JUMPI PUSH2 0x102F PUSH2 0x1AEE JUMP JUMPDEST JUMPDEST DUP2 CALLDATALOAD PUSH2 0x1040 DUP5 DUP3 PUSH1 0x20 DUP7 ADD PUSH2 0xF6C JUMP JUMPDEST SWAP2 POP POP SWAP3 SWAP2 POP POP JUMP JUMPDEST PUSH1 0x0 DUP2 CALLDATALOAD SWAP1 POP PUSH2 0x1058 DUP2 PUSH2 0x1C6D JUMP JUMPDEST SWAP3 SWAP2 POP POP JUMP JUMPDEST PUSH1 0x0 PUSH1 0x20 DUP3 DUP5 SUB SLT ISZERO PUSH2 0x1074 JUMPI PUSH2 0x1073 PUSH2 0x1AFD JUMP JUMPDEST JUMPDEST PUSH1 0x0 PUSH2 0x1082 DUP5 DUP3 DUP6 ADD PUSH2 0xFD8 JUMP JUMPDEST SWAP2 POP POP SWAP3 SWAP2 POP POP JUMP JUMPDEST PUSH1 0x0 DUP1 PUSH1 0x0 DUP1 PUSH1 0x0 DUP1 PUSH1 0x0 DUP1 PUSH2 0x100 DUP10 DUP12 SUB SLT ISZERO PUSH2 0x10AC JUMPI PUSH2 0x10AB PUSH2 0x1AFD JUMP JUMPDEST JUMPDEST PUSH1 0x0 PUSH2 0x10BA DUP12 DUP3 DUP13 ADD PUSH2 0xFC3 JUMP JUMPDEST SWAP9 POP POP PUSH1 0x20 PUSH2 0x10CB DUP12 DUP3 DUP13 ADD PUSH2 0xFC3 JUMP JUMPDEST SWAP8 POP POP PUSH1 0x40 DUP10 ADD CALLDATALOAD PUSH8 0xFFFFFFFFFFFFFFFF DUP2 GT ISZERO PUSH2 0x10EC JUMPI PUSH2 0x10EB PUSH2 0x1AF8 JUMP JUMPDEST JUMPDEST PUSH2 0x10F8 DUP12 DUP3 DUP13 ADD PUSH2 0x101B JUMP JUMPDEST SWAP7 POP POP PUSH1 0x60 PUSH2 0x1109 DUP12 DUP3 DUP13 ADD PUSH2 0x1049 JUMP JUMPDEST SWAP6 POP POP PUSH1 0x80 PUSH2 0x111A DUP12 DUP3 DUP13 ADD PUSH2 0x1049 JUMP JUMPDEST SWAP5 POP POP PUSH1 0xA0 PUSH2 0x112B DUP12 DUP3 DUP13 ADD PUSH2 0x1049 JUMP JUMPDEST SWAP4 POP POP PUSH1 0xC0 PUSH2 0x113C DUP12 DUP3 DUP13 ADD PUSH2 0x1049 JUMP JUMPDEST SWAP3 POP POP PUSH1 0xE0 PUSH2 0x114D DUP12 DUP3 DUP13 ADD PUSH2 0x1049 JUMP JUMPDEST SWAP2 POP POP SWAP3 SWAP6 SWAP9 POP SWAP3 SWAP6 SWAP9 SWAP1 SWAP4 SWAP7 POP JUMP JUMPDEST PUSH1 0x0 DUP1 PUSH1 0x0 DUP1 PUSH1 0x80 DUP6 DUP8 SUB SLT ISZERO PUSH2 0x1177 JUMPI PUSH2 0x1176 PUSH2 0x1AFD JUMP JUMPDEST JUMPDEST PUSH1 0x0 DUP6 ADD CALLDATALOAD PUSH8 0xFFFFFFFFFFFFFFFF DUP2 GT ISZERO PUSH2 0x1195 JUMPI PUSH2 0x1194 PUSH2 0x1AF8 JUMP JUMPDEST JUMPDEST PUSH2 0x11A1 DUP8 DUP3 DUP9 ADD PUSH2 0xFED JUMP JUMPDEST SWAP5 POP POP PUSH1 0x20 DUP6 ADD CALLDATALOAD PUSH8 0xFFFFFFFFFFFFFFFF DUP2 GT ISZERO PUSH2 0x11C2 JUMPI PUSH2 0x11C1 PUSH2 0x1AF8 JUMP JUMPDEST JUMPDEST PUSH2 0x11CE DUP8 DUP3 DUP9 ADD PUSH2 0xFED JUMP JUMPDEST SWAP4 POP POP PUSH1 0x40 PUSH2 0x11DF DUP8 DUP3 DUP9 ADD PUSH2 0x1049 JUMP JUMPDEST SWAP3 POP POP PUSH1 0x60 PUSH2 0x11F0 DUP8 DUP3 DUP9 ADD PUSH2 0xFAE JUMP JUMPDEST SWAP2 POP POP SWAP3 SWAP6 SWAP2 SWAP5 POP SWAP3 POP JUMP JUMPDEST PUSH1 0x0 DUP1 PUSH1 0x0 PUSH1 0x60 DUP5 DUP7 SUB SLT ISZERO PUSH2 0x1215 JUMPI PUSH2 0x1214 PUSH2 0x1AFD JUMP JUMPDEST JUMPDEST PUSH1 0x0 PUSH2 0x1223 DUP7 DUP3 DUP8 ADD PUSH2 0x1049 JUMP JUMPDEST SWAP4 POP POP PUSH1 0x20 PUSH2 0x1234 DUP7 DUP3 DUP8 ADD PUSH2 0x1049 JUMP JUMPDEST SWAP3 POP POP PUSH1 0x40 PUSH2 0x1245 DUP7 DUP3 DUP8 ADD PUSH2 0xFAE JUMP JUMPDEST SWAP2 POP POP SWAP3 POP SWAP3 POP SWAP3 JUMP JUMPDEST PUSH1 0x0 DUP1 PUSH1 0x0 DUP1 PUSH1 0x0 DUP1 PUSH1 0x0 DUP1 PUSH1 0x0 PUSH2 0x120 DUP11 DUP13 SUB SLT ISZERO PUSH2 0x1272 JUMPI PUSH2 0x1271 PUSH2 0x1AFD JUMP JUMPDEST JUMPDEST PUSH1 0x0 PUSH2 0x1280 DUP13 DUP3 DUP14 ADD PUSH2 0x1049 JUMP JUMPDEST SWAP10 POP POP PUSH1 0x20 PUSH2 0x1291 DUP13 DUP3 DUP14 ADD PUSH2 0x1049 JUMP JUMPDEST SWAP9 POP POP PUSH1 0x40 PUSH2 0x12A2 DUP13 DUP3 DUP14 ADD PUSH2 0xFAE JUMP JUMPDEST SWAP8 POP POP PUSH1 0x60 PUSH2 0x12B3 DUP13 DUP3 DUP14 ADD PUSH2 0xFC3 JUMP JUMPDEST SWAP7 POP POP PUSH1 0x80 PUSH2 0x12C4 DUP13 DUP3 DUP14 ADD PUSH2 0xFC3 JUMP JUMPDEST SWAP6 POP POP PUSH1 0xA0 DUP11 ADD CALLDATALOAD PUSH8 0xFFFFFFFFFFFFFFFF DUP2 GT ISZERO PUSH2 0x12E5 JUMPI PUSH2 0x12E4 PUSH2 0x1AF8 JUMP JUMPDEST JUMPDEST PUSH2 0x12F1 DUP13 DUP3 DUP14 ADD PUSH2 0x101B JUMP JUMPDEST SWAP5 POP POP PUSH1 0xC0 PUSH2 0x1302 DUP13 DUP3 DUP14 ADD PUSH2 0x1049 JUMP JUMPDEST SWAP4 POP POP PUSH1 0xE0 PUSH2 0x1313 DUP13 DUP3 DUP14 ADD PUSH2 0x1049 JUMP JUMPDEST SWAP3 POP POP PUSH2 0x100 PUSH2 0x1325 DUP13 DUP3 DUP14 ADD PUSH2 0x1049 JUMP JUMPDEST SWAP2 POP POP SWAP3 SWAP6 SWAP9 POP SWAP3 SWAP6 SWAP9 POP SWAP3 SWAP6 SWAP9 JUMP JUMPDEST PUSH2 0x133E DUP2 PUSH2 0x185A JUMP JUMPDEST DUP3 MSTORE POP POP JUMP JUMPDEST PUSH2 0x134D DUP2 PUSH2 0x186C JUMP JUMPDEST DUP3 MSTORE POP POP JUMP JUMPDEST PUSH2 0x135C DUP2 PUSH2 0x1878 JUMP JUMPDEST DUP3 MSTORE POP POP JUMP JUMPDEST PUSH2 0x1373 PUSH2 0x136E DUP3 PUSH2 0x1878 JUMP JUMPDEST PUSH2 0x19E2 JUMP JUMPDEST DUP3 MSTORE POP POP JUMP JUMPDEST PUSH1 0x0 PUSH2 0x1384 DUP3 PUSH2 0x1713 JUMP JUMPDEST PUSH2 0x138E DUP2 DUP6 PUSH2 0x1729 JUMP JUMPDEST SWAP4 POP PUSH2 0x139E DUP2 DUP6 PUSH1 0x20 DUP7 ADD PUSH2 0x1922 JUMP JUMPDEST DUP1 DUP5 ADD SWAP2 POP POP SWAP3 SWAP2 POP POP JUMP JUMPDEST PUSH1 0x0 PUSH2 0x13B5 DUP3 PUSH2 0x171E JUMP JUMPDEST PUSH2 0x13BF DUP2 DUP6 PUSH2 0x1734 JUMP JUMPDEST SWAP4 POP PUSH2 0x13CF DUP2 DUP6 PUSH1 0x20 DUP7 ADD PUSH2 0x1922 JUMP JUMPDEST PUSH2 0x13D8 DUP2 PUSH2 0x1B02 JUMP JUMPDEST DUP5 ADD SWAP2 POP POP SWAP3 SWAP2 POP POP JUMP JUMPDEST PUSH1 0x0 PUSH2 0x13F0 PUSH1 0xD DUP4 PUSH2 0x1734 JUMP JUMPDEST SWAP2 POP PUSH2 0x13FB DUP3 PUSH2 0x1B20 JUMP JUMPDEST PUSH1 0x20 DUP3 ADD SWAP1 POP SWAP2 SWAP1 POP JUMP JUMPDEST PUSH1 0x0 PUSH2 0x1413 PUSH1 0x11 DUP4 PUSH2 0x1734 JUMP JUMPDEST SWAP2 POP PUSH2 0x141E DUP3 PUSH2 0x1B49 JUMP JUMPDEST PUSH1 0x20 DUP3 ADD SWAP1 POP SWAP2 SWAP1 POP JUMP JUMPDEST PUSH1 0x0 PUSH2 0x1436 PUSH1 0xA DUP4 PUSH2 0x1734 JUMP JUMPDEST SWAP2 POP PUSH2 0x1441 DUP3 PUSH2 0x1B72 JUMP JUMPDEST PUSH1 0x20 DUP3 ADD SWAP1 POP SWAP2 SWAP1 POP JUMP JUMPDEST PUSH1 0x0 PUSH2 0x1459 PUSH1 0x6 DUP4 PUSH2 0x1734 JUMP JUMPDEST SWAP2 POP PUSH2 0x1464 DUP3 PUSH2 0x1B9B JUMP JUMPDEST PUSH1 0x20 DUP3 ADD SWAP1 POP SWAP2 SWAP1 POP JUMP JUMPDEST PUSH1 0x0 PUSH2 0x147C PUSH1 0x39 DUP4 PUSH2 0x1734 JUMP JUMPDEST SWAP2 POP PUSH2 0x1487 DUP3 PUSH2 0x1BC4 JUMP JUMPDEST PUSH1 0x40 DUP3 ADD SWAP1 POP SWAP2 SWAP1 POP JUMP JUMPDEST PUSH1 0x0 PUSH2 0x149F PUSH1 0x0 DUP4 PUSH2 0x1729 JUMP JUMPDEST SWAP2 POP PUSH2 0x14AA DUP3 PUSH2 0x1C13 JUMP JUMPDEST PUSH1 0x0 DUP3 ADD SWAP1 POP SWAP2 SWAP1 POP JUMP JUMPDEST PUSH1 0x0 PUSH2 0x14C2 PUSH1 0x11 DUP4 PUSH2 0x1734 JUMP JUMPDEST SWAP2 POP PUSH2 0x14CD DUP3 PUSH2 0x1C16 JUMP JUMPDEST PUSH1 0x20 DUP3 ADD SWAP1 POP SWAP2 SWAP1 POP JUMP JUMPDEST PUSH2 0x14E1 DUP2 PUSH2 0x18A2 JUMP JUMPDEST DUP3 MSTORE POP POP JUMP JUMPDEST PUSH1 0x0 PUSH2 0x14F3 DUP3 DUP5 PUSH2 0x1362 JUMP JUMPDEST PUSH1 0x20 DUP3 ADD SWAP2 POP DUP2 SWAP1 POP SWAP3 SWAP2 POP POP JUMP JUMPDEST PUSH1 0x0 PUSH2 0x150E DUP3 DUP5 PUSH2 0x1379 JUMP JUMPDEST SWAP2 POP DUP2 SWAP1 POP SWAP3 SWAP2 POP POP JUMP JUMPDEST PUSH1 0x0 PUSH2 0x1524 DUP3 PUSH2 0x1492 JUMP JUMPDEST SWAP2 POP DUP2 SWAP1 POP SWAP2 SWAP1 POP JUMP JUMPDEST PUSH1 0x0 PUSH1 0x20 DUP3 ADD SWAP1 POP PUSH2 0x1543 PUSH1 0x0 DUP4 ADD DUP5 PUSH2 0x1335 JUMP JUMPDEST SWAP3 SWAP2 POP POP JUMP JUMPDEST PUSH1 0x0 PUSH1 0x20 DUP3 ADD SWAP1 POP PUSH2 0x155E PUSH1 0x0 DUP4 ADD DUP5 PUSH2 0x1344 JUMP JUMPDEST SWAP3 SWAP2 POP POP JUMP JUMPDEST PUSH1 0x0 PUSH1 0x20 DUP3 ADD SWAP1 POP PUSH2 0x1579 PUSH1 0x0 DUP4 ADD DUP5 PUSH2 0x1353 JUMP JUMPDEST SWAP3 SWAP2 POP POP JUMP JUMPDEST PUSH1 0x0 PUSH1 0x20 DUP3 ADD SWAP1 POP DUP2 DUP2 SUB PUSH1 0x0 DUP4 ADD MSTORE PUSH2 0x1599 DUP2 DUP5 PUSH2 0x13AA JUMP JUMPDEST SWAP1 POP SWAP3 SWAP2 POP POP JUMP JUMPDEST PUSH1 0x0 PUSH1 0x20 DUP3 ADD SWAP1 POP DUP2 DUP2 SUB PUSH1 0x0 DUP4 ADD MSTORE PUSH2 0x15BA DUP2 PUSH2 0x13E3 JUMP JUMPDEST SWAP1 POP SWAP2 SWAP1 POP JUMP JUMPDEST PUSH1 0x0 PUSH1 0x20 DUP3 ADD SWAP1 POP DUP2 DUP2 SUB PUSH1 0x0 DUP4 ADD MSTORE PUSH2 0x15DA DUP2 PUSH2 0x1406 JUMP JUMPDEST SWAP1 POP SWAP2 SWAP1 POP JUMP JUMPDEST PUSH1 0x0 PUSH1 0x20 DUP3 ADD SWAP1 POP DUP2 DUP2 SUB PUSH1 0x0 DUP4 ADD MSTORE PUSH2 0x15FA DUP2 PUSH2 0x1429 JUMP JUMPDEST SWAP1 POP SWAP2 SWAP1 POP JUMP JUMPDEST PUSH1 0x0 PUSH1 0x20 DUP3 ADD SWAP1 POP DUP2 DUP2 SUB PUSH1 0x0 DUP4 ADD MSTORE PUSH2 0x161A DUP2 PUSH2 0x144C JUMP JUMPDEST SWAP1 POP SWAP2 SWAP1 POP JUMP JUMPDEST PUSH1 0x0 PUSH1 0x20 DUP3 ADD SWAP1 POP DUP2 DUP2 SUB PUSH1 0x0 DUP4 ADD MSTORE PUSH2 0x163A DUP2 PUSH2 0x146F JUMP JUMPDEST SWAP1 POP SWAP2 SWAP1 POP JUMP JUMPDEST PUSH1 0x0 PUSH1 0x20 DUP3 ADD SWAP1 POP DUP2 DUP2 SUB PUSH1 0x0 DUP4 ADD MSTORE PUSH2 0x165A DUP2 PUSH2 0x14B5 JUMP JUMPDEST SWAP1 POP SWAP2 SWAP1 POP JUMP JUMPDEST PUSH1 0x0 PUSH1 0x20 DUP3 ADD SWAP1 POP PUSH2 0x1676 PUSH1 0x0 DUP4 ADD DUP5 PUSH2 0x14D8 JUMP JUMPDEST SWAP3 SWAP2 POP POP JUMP JUMPDEST PUSH1 0x0 PUSH2 0x1686 PUSH2 0x1697 JUMP JUMPDEST SWAP1 POP PUSH2 0x1692 DUP3 DUP3 PUSH2 0x19B1 JUMP JUMPDEST SWAP2 SWAP1 POP JUMP JUMPDEST PUSH1 0x0 PUSH1 0x40 MLOAD SWAP1 POP SWAP1 JUMP JUMPDEST PUSH1 0x0 PUSH8 0xFFFFFFFFFFFFFFFF DUP3 GT ISZERO PUSH2 0x16BC JUMPI PUSH2 0x16BB PUSH2 0x1AAA JUMP JUMPDEST JUMPDEST PUSH2 0x16C5 DUP3 PUSH2 0x1B02 JUMP JUMPDEST SWAP1 POP PUSH1 0x20 DUP2 ADD SWAP1 POP SWAP2 SWAP1 POP JUMP JUMPDEST PUSH1 0x0 PUSH8 0xFFFFFFFFFFFFFFFF DUP3 GT ISZERO PUSH2 0x16ED JUMPI PUSH2 0x16EC PUSH2 0x1AAA JUMP JUMPDEST JUMPDEST PUSH2 0x16F6 DUP3 PUSH2 0x1B02 JUMP JUMPDEST SWAP1 POP PUSH1 0x20 DUP2 ADD SWAP1 POP SWAP2 SWAP1 POP JUMP JUMPDEST PUSH1 0x0 DUP2 SWAP1 POP PUSH1 0x20 DUP3 ADD SWAP1 POP SWAP2 SWAP1 POP JUMP JUMPDEST PUSH1 0x0 DUP2 MLOAD SWAP1 POP SWAP2 SWAP1 POP JUMP JUMPDEST PUSH1 0x0 DUP2 MLOAD SWAP1 POP SWAP2 SWAP1 POP JUMP JUMPDEST PUSH1 0x0 DUP2 SWAP1 POP SWAP3 SWAP2 POP POP JUMP JUMPDEST PUSH1 0x0 DUP3 DUP3 MSTORE PUSH1 0x20 DUP3 ADD SWAP1 POP SWAP3 SWAP2 POP POP JUMP JUMPDEST PUSH1 0x0 PUSH2 0x1750 DUP3 PUSH2 0x18A2 JUMP JUMPDEST SWAP2 POP PUSH2 0x175B DUP4 PUSH2 0x18A2 JUMP JUMPDEST SWAP3 POP DUP3 PUSH32 0xFFFFFFFFFFFFFFFFFFFFFFFFFFFFFFFFFFFFFFFFFFFFFFFFFFFFFFFFFFFFFFFF SUB DUP3 GT ISZERO PUSH2 0x1790 JUMPI PUSH2 0x178F PUSH2 0x1A1D JUMP JUMPDEST JUMPDEST DUP3 DUP3 ADD SWAP1 POP SWAP3 SWAP2 POP POP JUMP JUMPDEST PUSH1 0x0 PUSH2 0x17A6 DUP3 PUSH2 0x18A2 JUMP JUMPDEST SWAP2 POP PUSH2 0x17B1 DUP4 PUSH2 0x18A2 JUMP JUMPDEST SWAP3 POP DUP3 PUSH2 0x17C1 JUMPI PUSH2 0x17C0 PUSH2 0x1A4C JUMP JUMPDEST JUMPDEST DUP3 DUP3 DIV SWAP1 POP SWAP3 SWAP2 POP POP JUMP JUMPDEST PUSH1 0x0 PUSH2 0x17D7 DUP3 PUSH2 0x18A2 JUMP JUMPDEST SWAP2 POP PUSH2 0x17E2 DUP4 PUSH2 0x18A2 JUMP JUMPDEST SWAP3 POP DUP2 PUSH32 0xFFFFFFFFFFFFFFFFFFFFFFFFFFFFFFFFFFFFFFFFFFFFFFFFFFFFFFFFFFFFFFFF DIV DUP4 GT DUP3 ISZERO ISZERO AND ISZERO PUSH2 0x181B JUMPI PUSH2 0x181A PUSH2 0x1A1D JUMP JUMPDEST JUMPDEST DUP3 DUP3 MUL SWAP1 POP SWAP3 SWAP2 POP POP JUMP JUMPDEST PUSH1 0x0 PUSH2 0x1831 DUP3 PUSH2 0x18A2 JUMP JUMPDEST SWAP2 POP PUSH2 0x183C DUP4 PUSH2 0x18A2 JUMP JUMPDEST SWAP3 POP DUP3 DUP3 LT ISZERO PUSH2 0x184F JUMPI PUSH2 0x184E PUSH2 0x1A1D JUMP JUMPDEST JUMPDEST DUP3 DUP3 SUB SWAP1 POP SWAP3 SWAP2 POP POP JUMP JUMPDEST PUSH1 0x0 PUSH2 0x1865 DUP3 PUSH2 0x1882 JUMP JUMPDEST SWAP1 POP SWAP2 SWAP1 POP JUMP JUMPDEST PUSH1 0x0 DUP2 ISZERO ISZERO SWAP1 POP SWAP2 SWAP1 POP JUMP JUMPDEST PUSH1 0x0 DUP2 SWAP1 POP SWAP2 SWAP1 POP JUMP JUMPDEST PUSH1 0x0 PUSH20 0xFFFFFFFFFFFFFFFFFFFFFFFFFFFFFFFFFFFFFFFF DUP3 AND SWAP1 POP SWAP2 SWAP1 POP JUMP JUMPDEST PUSH1 0x0 DUP2 SWAP1 POP SWAP2 SWAP1 POP JUMP JUMPDEST PUSH1 0x0 PUSH2 0x18B7 DUP3 PUSH2 0x1713 JUMP JUMPDEST DUP3 PUSH2 0x18C1 DUP5 PUSH2 0x1703 JUMP JUMPDEST SWAP1 POP PUSH2 0x18CC DUP2 PUSH2 0x1AD9 JUMP JUMPDEST SWAP3 POP PUSH1 0x20 DUP3 LT ISZERO PUSH2 0x190C JUMPI PUSH2 0x1907 PUSH32 0xFFFFFFFFFFFFFFFFFFFFFFFFFFFFFFFFFFFFFFFFFFFFFFFFFFFFFFFFFFFFFFFF DUP4 PUSH1 0x20 SUB PUSH1 0x8 MUL PUSH2 0x1B13 JUMP JUMPDEST DUP4 AND SWAP3 POP JUMPDEST POP POP SWAP2 SWAP1 POP JUMP JUMPDEST DUP3 DUP2 DUP4 CALLDATACOPY PUSH1 0x0 DUP4 DUP4 ADD MSTORE POP POP POP JUMP JUMPDEST PUSH1 0x0 JUMPDEST DUP4 DUP2 LT ISZERO PUSH2 0x1940 JUMPI DUP1 DUP3 ADD MLOAD DUP2 DUP5 ADD MSTORE PUSH1 0x20 DUP2 ADD SWAP1 POP PUSH2 0x1925 JUMP JUMPDEST DUP4 DUP2 GT ISZERO PUSH2 0x194F JUMPI PUSH1 0x0 DUP5 DUP5 ADD MSTORE JUMPDEST POP POP POP POP JUMP JUMPDEST PUSH1 0x0 PUSH2 0x1960 DUP3 PUSH2 0x18A2 JUMP JUMPDEST SWAP2 POP PUSH1 0x0 DUP3 EQ ISZERO PUSH2 0x1974 JUMPI PUSH2 0x1973 PUSH2 0x1A1D JUMP JUMPDEST JUMPDEST PUSH1 0x1 DUP3 SUB SWAP1 POP SWAP2 SWAP1 POP JUMP JUMPDEST PUSH1 0x0 PUSH1 0x2 DUP3 DIV SWAP1 POP PUSH1 0x1 DUP3 AND DUP1 PUSH2 0x1997 JUMPI PUSH1 0x7F DUP3 AND SWAP2 POP JUMPDEST PUSH1 0x20 DUP3 LT DUP2 EQ ISZERO PUSH2 0x19AB JUMPI PUSH2 0x19AA PUSH2 0x1A7B JUMP JUMPDEST JUMPDEST POP SWAP2 SWAP1 POP JUMP JUMPDEST PUSH2 0x19BA DUP3 PUSH2 0x1B02 JUMP JUMPDEST DUP2 ADD DUP2 DUP2 LT PUSH8 0xFFFFFFFFFFFFFFFF DUP3 GT OR ISZERO PUSH2 0x19D9 JUMPI PUSH2 0x19D8 PUSH2 0x1AAA JUMP JUMPDEST JUMPDEST DUP1 PUSH1 0x40 MSTORE POP POP POP JUMP JUMPDEST PUSH1 0x0 DUP2 SWAP1 POP SWAP2 SWAP1 POP JUMP JUMPDEST PUSH1 0x0 PUSH2 0x19F7 DUP3 PUSH2 0x18A2 JUMP JUMPDEST SWAP2 POP PUSH2 0x1A02 DUP4 PUSH2 0x18A2 JUMP JUMPDEST SWAP3 POP DUP3 PUSH2 0x1A12 JUMPI PUSH2 0x1A11 PUSH2 0x1A4C JUMP JUMPDEST JUMPDEST DUP3 DUP3 MOD SWAP1 POP SWAP3 SWAP2 POP POP JUMP JUMPDEST PUSH32 0x4E487B7100000000000000000000000000000000000000000000000000000000 PUSH1 0x0 MSTORE PUSH1 0x11 PUSH1 0x4 MSTORE PUSH1 0x24 PUSH1 0x0 REVERT JUMPDEST PUSH32 0x4E487B7100000000000000000000000000000000000000000000000000000000 PUSH1 0x0 MSTORE PUSH1 0x12 PUSH1 0x4 MSTORE PUSH1 0x24 PUSH1 0x0 REVERT JUMPDEST PUSH32 0x4E487B7100000000000000000000000000000000000000000000000000000000 PUSH1 0x0 MSTORE PUSH1 0x22 PUSH1 0x4 MSTORE PUSH1 0x24 PUSH1 0x0 REVERT JUMPDEST PUSH32 0x4E487B7100000000000000000000000000000000000000000000000000000000 PUSH1 0x0 MSTORE PUSH1 0x41 PUSH1 0x4 MSTORE PUSH1 0x24 PUSH1 0x0 REVERT JUMPDEST PUSH1 0x0 PUSH2 0x1AE5 DUP3 MLOAD PUSH2 0x1878 JUMP JUMPDEST DUP1 SWAP2 POP POP SWAP2 SWAP1 POP JUMP JUMPDEST PUSH1 0x0 DUP1 REVERT JUMPDEST PUSH1 0x0 DUP1 REVERT JUMPDEST PUSH1 0x0 DUP1 REVERT JUMPDEST PUSH1 0x0 DUP1 REVERT JUMPDEST PUSH1 0x0 PUSH1 0x1F NOT PUSH1 0x1F DUP4 ADD AND SWAP1 POP SWAP2 SWAP1 POP JUMP JUMPDEST PUSH1 0x0 DUP3 DUP3 SHL SWAP1 POP SWAP3 SWAP2 POP POP JUMP JUMPDEST PUSH32 0x62616C616E6365206572726F7200000000000000000000000000000000000000 PUSH1 0x0 DUP3 ADD MSTORE POP JUMP JUMPDEST PUSH32 0x575F6B6320697320696E636F7272656374000000000000000000000000000000 PUSH1 0x0 DUP3 ADD MSTORE POP JUMP JUMPDEST PUSH32 0x54696D65206572726F7200000000000000000000000000000000000000000000 PUSH1 0x0 DUP3 ADD MSTORE POP JUMP JUMPDEST PUSH32 0x6B203C3D206A0000000000000000000000000000000000000000000000000000 PUSH1 0x0 DUP3 ADD MSTORE POP JUMP JUMPDEST PUSH32 0x4F6E6C7920637573746F6D6572206F66207468652064656C6976657279206361 PUSH1 0x0 DUP3 ADD MSTORE PUSH32 0x6E2073657420746865206368616E6E656C20706172616D732E00000000000000 PUSH1 0x20 DUP3 ADD MSTORE POP JUMP JUMPDEST POP JUMP JUMPDEST PUSH32 0x575F6B6D20697320696E636F7272656374000000000000000000000000000000 PUSH1 0x0 DUP3 ADD MSTORE POP JUMP JUMPDEST PUSH2 0x1C48 DUP2 PUSH2 0x185A JUMP JUMPDEST DUP2 EQ PUSH2 0x1C53 JUMPI PUSH1 0x0 DUP1 REVERT JUMPDEST POP JUMP JUMPDEST PUSH2 0x1C5F DUP2 PUSH2 0x1878 JUMP JUMPDEST DUP2 EQ PUSH2 0x1C6A JUMPI PUSH1 0x0 DUP1 REVERT JUMPDEST POP JUMP JUMPDEST PUSH2 0x1C76 DUP2 PUSH2 0x18A2 JUMP JUMPDEST DUP2 EQ PUSH2 0x1C81 JUMPI PUSH1 0x0 DUP1 REVERT JUMPDEST POP JUMP INVALID LOG2 PUSH5 0x6970667358 0x22 SLT KECCAK256 0x4D 0xCB OR 0xBA 0xB0 GASLIMIT DUP7 0xBA 0xC6 MSTORE8 0xE1 SHL 0xE4 PUSH11 0x6040685A34739BEBE0FAF PUSH26 0x5464A073EC9364736F6C63430008070033000000000000000000 "
				},
				"gasEstimates": {
					"creation": {
						"codeDepositCost": "1470800",
						"executionCost": "25801",
						"totalCost": "1496601"
					},
					"external": {
						"": "197",
						"S_id()": "infinite",
						"TD()": "2474",
						"TR()": "2519",
						"T_exp()": "2517",
						"W_jc()": "2474",
						"W_jm()": "2452",
						"c()": "2451",
						"channelClose()": "infinite",
						"customer()": "2582",
						"initialize(uint256,uint256,address)": "infinite",
						"initialize(uint256,uint256,address,bytes32,bytes32,string,uint256,uint256,uint256)": "infinite",
						"isBase()": "2560",
						"j()": "2518",
						"setChannelParams(bytes32,bytes32,string,uint256,uint256,uint256,uint256,uint256)": "infinite",
						"transferDeposit(bytes,bytes,uint256,address)": "infinite",
						"v()": "2496"
					}
				},
				"methodIdentifiers": {
					"S_id()": "24763493",
					"TD()": "9c21a9b8",
					"TR()": "34133df9",
					"T_exp()": "f493e870",
					"W_jc()": "5e650318",
					"W_jm()": "88bf1930",
					"c()": "c3da42b8",
					"channelClose()": "0482ff76",
					"customer()": "2804b2c0",
					"initialize(uint256,uint256,address)": "a6ab36f2",
					"initialize(uint256,uint256,address,bytes32,bytes32,string,uint256,uint256,uint256)": "50b1ad6b",
					"isBase()": "7f80069a",
					"j()": "b582ec5f",
					"setChannelParams(bytes32,bytes32,string,uint256,uint256,uint256,uint256,uint256)": "e8de68cc",
					"transferDeposit(bytes,bytes,uint256,address)": "d8befbb6",
					"v()": "7c2efcba"
				}
			},
			"userdoc": {
				"kind": "user",
				"methods": {},
				"version": 1
			}
		}
	}
}