{
	"data": {
		"bytecode": {
			"linkReferences": {},
			"object": "608060405234801561001057600080fd5b506001600a60006101000a81548160ff021916908315150217905550611cba8061003b6000396000f3fe6080604052600436106100f75760003560e01c806388bf19301161008a578063c3da42b811610059578063c3da42b8146102c5578063d8befbb6146102f0578063e8de68cc14610319578063f493e87014610342576100fe565b806388bf1930146102285780639c21a9b814610253578063a6ab36f21461027e578063b582ec5f1461029a576100fe565b806350b1ad6b116100c657806350b1ad6b1461018b5780635e650318146101a75780637c2efcba146101d25780637f80069a146101fd576100fe565b80630482ff7614610100578063247634931461010a5780632804b2c01461013557806334133df914610160576100fe565b366100fe57005b005b61010861036d565b005b34801561011657600080fd5b5061011f610467565b60405161012c919061157f565b60405180910390f35b34801561014157600080fd5b5061014a6104f5565b604051610157919061152e565b60405180910390f35b34801561016c57600080fd5b5061017561051b565b6040516101829190611661565b60405180910390f35b6101a560048036038101906101a0919061124f565b610521565b005b3480156101b357600080fd5b506101bc6106bc565b6040516101c99190611564565b60405180910390f35b3480156101de57600080fd5b506101e76106c2565b6040516101f49190611661565b60405180910390f35b34801561020957600080fd5b506102126106c8565b60405161021f9190611549565b60405180910390f35b34801561023457600080fd5b5061023d6106db565b60405161024a9190611564565b60405180910390f35b34801561025f57600080fd5b506102686106e1565b6040516102759190611661565b60405180910390f35b610298600480360381019061029391906111fc565b6106e7565b005b3480156102a657600080fd5b506102af6107b1565b6040516102bc9190611661565b60405180910390f35b3480156102d157600080fd5b506102da6107b7565b6040516102e79190611661565b60405180910390f35b3480156102fc57600080fd5b506103176004803603810190610312919061115d565b6107bd565b005b34801561032557600080fd5b50610340600480360381019061033b919061108b565b610cfc565b005b34801561034e57600080fd5b50610357610e81565b6040516103649190611661565b60405180910390f35b600160009054906101000a900473ffffffffffffffffffffffffffffffffffffffff1673ffffffffffffffffffffffffffffffffffffffff163373ffffffffffffffffffffffffffffffffffffffff16146103fd576040517f08c379a00000000000000000000000000000000000000000000000000000000081526004016103f490611621565b60405180910390fd5b4260085460075461040e9190611745565b1061044e576040517f08c379a0000000000000000000000000000000000000000000000000000000008152600401610445906115e1565b60405180910390fd5b3373ffffffffffffffffffffffffffffffffffffffff16ff5b600480546104749061197f565b80601f01602080910402602001604051908101604052809291908181526020018280546104a09061197f565b80156104ed5780601f106104c2576101008083540402835291602001916104ed565b820191906000526020600020905b8154815290600101906020018083116104d057829003601f168201915b505050505081565b600160009054906101000a900473ffffffffffffffffffffffffffffffffffffffff1681565b60095481565b60001515600a60009054906101000a900460ff1615151461054157600080fd5b878961054d91906117cc565b341461058e576040517f08c379a0000000000000000000000000000000000000000000000000000000008152600401610585906115a1565b60405180910390fd5b60006007541480156105a257506000600854145b80156105b057506000600954145b80156105ca5750426008546007546105c89190611745565b105b8061060a5750426008546007546105e19190611745565b10801561060957506009546008546007546105fc9190611745565b6106069190611745565b42105b5b61061357600080fd5b86600160006101000a81548173ffffffffffffffffffffffffffffffffffffffff021916908373ffffffffffffffffffffffffffffffffffffffff1602179055508860058190555087600681905550600080819055508560028190555084600381905550836004908051906020019061068d929190610e87565b508860058190555087600681905550826007819055508160088190555080600981905550505050505050505050565b60035481565b60065481565b600a60009054906101000a900460ff1681565b60025481565b60085481565b60001515600a60009054906101000a900460ff1615151461070757600080fd5b80600160006101000a81548173ffffffffffffffffffffffffffffffffffffffff021916908373ffffffffffffffffffffffffffffffffffffffff1602179055508260058190555081600681905550600034146107ac57818361076a91906117cc565b34146107ab576040517f08c379a00000000000000000000000000000000000000000000000000000000081526004016107a2906115a1565b60405180910390fd5b5b505050565b60005481565b60055481565b6008546007546107cd9190611745565b421061080e576040517f08c379a0000000000000000000000000000000000000000000000000000000008152600401610805906115e1565b60405180910390fd5b6000548211610852576040517f08c379a000000000000000000000000000000000000000000000000000000000815260040161084990611601565b60405180910390fd5b6000808561085f906118ac565b905060008561086d906118ac565b9050600080548661087e9190611826565b90505b6000811461097e5760028360405160200161089c91906114e7565b6040516020818303038152906040526040516108b89190611502565b602060405180830381855afa1580156108d5573d6000803e3d6000fd5b5050506040513d601f19601f820116820180604052508101906108f8919061105e565b925060028260405160200161090d91906114e7565b6040516020818303038152906040526040516109299190611502565b602060405180830381855afa158015610946573d6000803e3d6000fd5b5050506040513d601f19601f82011682018060405250810190610969919061105e565b9150808061097690611955565b915050610881565b82600254146109c2576040517f08c379a00000000000000000000000000000000000000000000000000000000081526004016109b990611641565b60405180910390fd5b8160035414610a06576040517f08c379a00000000000000000000000000000000000000000000000000000000081526004016109fd906115c1565b60405180910390fd5b6000600287610a1591906119ec565b1415610a6357600260005487610a2b9190611826565b610a35919061179b565b93508560008190555087610a48906118ac565b60028190555086610a58906118ac565b600381905550610bee565b6002600160005488610a759190611826565b610a7f9190611826565b610a89919061179b565b9350600186610a989190611826565b600081905550600088610aaa906118ac565b9050600088610ab8906118ac565b90506000805489610ac99190611826565b90505b60008114610bc957600283604051602001610ae791906114e7565b604051602081830303815290604052604051610b039190611502565b602060405180830381855afa158015610b20573d6000803e3d6000fd5b5050506040513d601f19601f82011682018060405250810190610b43919061105e565b9250600282604051602001610b5891906114e7565b604051602081830303815290604052604051610b749190611502565b602060405180830381855afa158015610b91573d6000803e3d6000fd5b5050506040513d601f19601f82011682018060405250810190610bb4919061105e565b91508080610bc190611955565b915050610acc565b600189610bd69190611826565b60008190555082600281905550816003819055505050505b600073ffffffffffffffffffffffffffffffffffffffff168573ffffffffffffffffffffffffffffffffffffffff1614610c9d578473ffffffffffffffffffffffffffffffffffffffff1660065485610c4791906117cc565b604051610c5390611519565b60006040518083038185875af1925050503d8060008114610c90576040519150601f19603f3d011682016040523d82523d6000602084013e610c95565b606091505b505050610cf2565b3373ffffffffffffffffffffffffffffffffffffffff166108fc60065486610cc591906117cc565b9081150290604051600060405180830381858888f19350505050158015610cf0573d6000803e3d6000fd5b505b5050505050505050565b600160009054906101000a900473ffffffffffffffffffffffffffffffffffffffff1673ffffffffffffffffffffffffffffffffffffffff163373ffffffffffffffffffffffffffffffffffffffff1614610d8c576040517f08c379a0000000000000000000000000000000000000000000000000000000008152600401610d8390611621565b60405180910390fd5b8385610d9891906117cc565b4714610da357600080fd5b6000600754148015610db757506000600854145b8015610dc557506000600954145b8015610ddf575042600854600754610ddd9190611745565b105b80610e1f575042600854600754610df69190611745565b108015610e1e5750600954600854600754610e119190611745565b610e1b9190611745565b42105b5b610e2857600080fd5b6000808190555087600281905550866003819055508560049080519060200190610e53929190610e87565b5084600581905550836006819055508260078190555081600881905550806009819055505050505050505050565b60075481565b828054610e939061197f565b90600052602060002090601f016020900481019282610eb55760008555610efc565b82601f10610ece57805160ff1916838001178555610efc565b82800160010185558215610efc579182015b82811115610efb578251825591602001919060010190610ee0565b5b509050610f099190610f0d565b5090565b5b80821115610f26576000816000905550600101610f0e565b5090565b6000610f3d610f38846116a1565b61167c565b905082815260208101848484011115610f5957610f58611af3565b5b610f64848285611913565b509392505050565b6000610f7f610f7a846116d2565b61167c565b905082815260208101848484011115610f9b57610f9a611af3565b5b610fa6848285611913565b509392505050565b600081359050610fbd81611c3f565b92915050565b600081359050610fd281611c56565b92915050565b600081519050610fe781611c56565b92915050565b600082601f83011261100257611001611aee565b5b8135611012848260208601610f2a565b91505092915050565b600082601f8301126110305761102f611aee565b5b8135611040848260208601610f6c565b91505092915050565b60008135905061105881611c6d565b92915050565b60006020828403121561107457611073611afd565b5b600061108284828501610fd8565b91505092915050565b600080600080600080600080610100898b0312156110ac576110ab611afd565b5b60006110ba8b828c01610fc3565b98505060206110cb8b828c01610fc3565b975050604089013567ffffffffffffffff8111156110ec576110eb611af8565b5b6110f88b828c0161101b565b96505060606111098b828c01611049565b955050608061111a8b828c01611049565b94505060a061112b8b828c01611049565b93505060c061113c8b828c01611049565b92505060e061114d8b828c01611049565b9150509295985092959890939650565b6000806000806080858703121561117757611176611afd565b5b600085013567ffffffffffffffff81111561119557611194611af8565b5b6111a187828801610fed565b945050602085013567ffffffffffffffff8111156111c2576111c1611af8565b5b6111ce87828801610fed565b93505060406111df87828801611049565b92505060606111f087828801610fae565b91505092959194509250565b60008060006060848603121561121557611214611afd565b5b600061122386828701611049565b935050602061123486828701611049565b925050604061124586828701610fae565b9150509250925092565b60008060008060008060008060006101208a8c03121561127257611271611afd565b5b60006112808c828d01611049565b99505060206112918c828d01611049565b98505060406112a28c828d01610fae565b97505060606112b38c828d01610fc3565b96505060806112c48c828d01610fc3565b95505060a08a013567ffffffffffffffff8111156112e5576112e4611af8565b5b6112f18c828d0161101b565b94505060c06113028c828d01611049565b93505060e06113138c828d01611049565b9250506101006113258c828d01611049565b9150509295985092959850929598565b61133e8161185a565b82525050565b61134d8161186c565b82525050565b61135c81611878565b82525050565b61137361136e82611878565b6119e2565b82525050565b600061138482611713565b61138e8185611729565b935061139e818560208601611922565b80840191505092915050565b60006113b58261171e565b6113bf8185611734565b93506113cf818560208601611922565b6113d881611b02565b840191505092915050565b60006113f0600d83611734565b91506113fb82611b20565b602082019050919050565b6000611413601183611734565b915061141e82611b49565b602082019050919050565b6000611436600a83611734565b915061144182611b72565b602082019050919050565b6000611459600683611734565b915061146482611b9b565b602082019050919050565b600061147c603983611734565b915061148782611bc4565b604082019050919050565b600061149f600083611729565b91506114aa82611c13565b600082019050919050565b60006114c2601183611734565b91506114cd82611c16565b602082019050919050565b6114e1816118a2565b82525050565b60006114f38284611362565b60208201915081905092915050565b600061150e8284611379565b915081905092915050565b600061152482611492565b9150819050919050565b60006020820190506115436000830184611335565b92915050565b600060208201905061155e6000830184611344565b92915050565b60006020820190506115796000830184611353565b92915050565b6000602082019050818103600083015261159981846113aa565b905092915050565b600060208201905081810360008301526115ba816113e3565b9050919050565b600060208201905081810360008301526115da81611406565b9050919050565b600060208201905081810360008301526115fa81611429565b9050919050565b6000602082019050818103600083015261161a8161144c565b9050919050565b6000602082019050818103600083015261163a8161146f565b9050919050565b6000602082019050818103600083015261165a816114b5565b9050919050565b600060208201905061167660008301846114d8565b92915050565b6000611686611697565b905061169282826119b1565b919050565b6000604051905090565b600067ffffffffffffffff8211156116bc576116bb611aaa565b5b6116c582611b02565b9050602081019050919050565b600067ffffffffffffffff8211156116ed576116ec611aaa565b5b6116f682611b02565b9050602081019050919050565b6000819050602082019050919050565b600081519050919050565b600081519050919050565b600081905092915050565b600082825260208201905092915050565b6000611750826118a2565b915061175b836118a2565b9250827fffffffffffffffffffffffffffffffffffffffffffffffffffffffffffffffff038211156117905761178f611a1d565b5b828201905092915050565b60006117a6826118a2565b91506117b1836118a2565b9250826117c1576117c0611a4c565b5b828204905092915050565b60006117d7826118a2565b91506117e2836118a2565b9250817fffffffffffffffffffffffffffffffffffffffffffffffffffffffffffffffff048311821515161561181b5761181a611a1d565b5b828202905092915050565b6000611831826118a2565b915061183c836118a2565b92508282101561184f5761184e611a1d565b5b828203905092915050565b600061186582611882565b9050919050565b60008115159050919050565b6000819050919050565b600073ffffffffffffffffffffffffffffffffffffffff82169050919050565b6000819050919050565b60006118b782611713565b826118c184611703565b90506118cc81611ad9565b9250602082101561190c576119077fffffffffffffffffffffffffffffffffffffffffffffffffffffffffffffffff83602003600802611b13565b831692505b5050919050565b82818337600083830152505050565b60005b83811015611940578082015181840152602081019050611925565b8381111561194f576000848401525b50505050565b6000611960826118a2565b9150600082141561197457611973611a1d565b5b600182039050919050565b6000600282049050600182168061199757607f821691505b602082108114156119ab576119aa611a7b565b5b50919050565b6119ba82611b02565b810181811067ffffffffffffffff821117156119d9576119d8611aaa565b5b80604052505050565b6000819050919050565b60006119f7826118a2565b9150611a02836118a2565b925082611a1257611a11611a4c565b5b828206905092915050565b7f4e487b7100000000000000000000000000000000000000000000000000000000600052601160045260246000fd5b7f4e487b7100000000000000000000000000000000000000000000000000000000600052601260045260246000fd5b7f4e487b7100000000000000000000000000000000000000000000000000000000600052602260045260246000fd5b7f4e487b7100000000000000000000000000000000000000000000000000000000600052604160045260246000fd5b6000611ae58251611878565b80915050919050565b600080fd5b600080fd5b600080fd5b600080fd5b6000601f19601f8301169050919050565b600082821b905092915050565b7f62616c616e6365206572726f7200000000000000000000000000000000000000600082015250565b7f575f6b6320697320696e636f7272656374000000000000000000000000000000600082015250565b7f54696d65206572726f7200000000000000000000000000000000000000000000600082015250565b7f6b203c3d206a0000000000000000000000000000000000000000000000000000600082015250565b7f4f6e6c7920637573746f6d6572206f66207468652064656c697665727920636160008201527f6e2073657420746865206368616e6e656c20706172616d732e00000000000000602082015250565b50565b7f575f6b6d20697320696e636f7272656374000000000000000000000000000000600082015250565b611c488161185a565b8114611c5357600080fd5b50565b611c5f81611878565b8114611c6a57600080fd5b50565b611c76816118a2565b8114611c8157600080fd5b5056fea26469706673582212204dcb17bab04586bac653e11be46a06040685a34739bebe0faf795464a073ec9364736f6c63430008070033",
			"opcodes": "PUSH1 0x80 PUSH1 0x40 MSTORE CALLVALUE DUP1 ISZERO PUSH2 0x10 JUMPI PUSH1 0x0 DUP1 REVERT JUMPDEST POP PUSH1 0x1 PUSH1 0xA PUSH1 0x0 PUSH2 0x100 EXP DUP2 SLOAD DUP2 PUSH1 0xFF MUL NOT AND SWAP1 DUP4 ISZERO ISZERO MUL OR SWAP1 SSTORE POP PUSH2 0x1CBA DUP1 PUSH2 0x3B PUSH1 0x0 CODECOPY PUSH1 0x0 RETURN INVALID PUSH1 0x80 PUSH1 0x40 MSTORE PUSH1 0x4 CALLDATASIZE LT PUSH2 0xF7 JUMPI PUSH1 0x0 CALLDATALOAD PUSH1 0xE0 SHR DUP1 PUSH4 0x88BF1930 GT PUSH2 0x8A JUMPI DUP1 PUSH4 0xC3DA42B8 GT PUSH2 0x59 JUMPI DUP1 PUSH4 0xC3DA42B8 EQ PUSH2 0x2C5 JUMPI DUP1 PUSH4 0xD8BEFBB6 EQ PUSH2 0x2F0 JUMPI DUP1 PUSH4 0xE8DE68CC EQ PUSH2 0x319 JUMPI DUP1 PUSH4 0xF493E870 EQ PUSH2 0x342 JUMPI PUSH2 0xFE JUMP JUMPDEST DUP1 PUSH4 0x88BF1930 EQ PUSH2 0x228 JUMPI DUP1 PUSH4 0x9C21A9B8 EQ PUSH2 0x253 JUMPI DUP1 PUSH4 0xA6AB36F2 EQ PUSH2 0x27E JUMPI DUP1 PUSH4 0xB582EC5F EQ PUSH2 0x29A JUMPI PUSH2 0xFE JUMP JUMPDEST DUP1 PUSH4 0x50B1AD6B GT PUSH2 0xC6 JUMPI DUP1 PUSH4 0x50B1AD6B EQ PUSH2 0x18B JUMPI DUP1 PUSH4 0x5E650318 EQ PUSH2 0x1A7 JUMPI DUP1 PUSH4 0x7C2EFCBA EQ PUSH2 0x1D2 JUMPI DUP1 PUSH4 0x7F80069A EQ PUSH2 0x1FD JUMPI PUSH2 0xFE JUMP JUMPDEST DUP1 PUSH4 0x482FF76 EQ PUSH2 0x100 JUMPI DUP1 PUSH4 0x24763493 EQ PUSH2 0x10A JUMPI DUP1 PUSH4 0x2804B2C0 EQ PUSH2 0x135 JUMPI DUP1 PUSH4 0x34133DF9 EQ PUSH2 0x160 JUMPI PUSH2 0xFE JUMP JUMPDEST CALLDATASIZE PUSH2 0xFE JUMPI STOP JUMPDEST STOP JUMPDEST PUSH2 0x108 PUSH2 0x36D JUMP JUMPDEST STOP JUMPDEST CALLVALUE DUP1 ISZERO PUSH2 0x116 JUMPI PUSH1 0x0 DUP1 REVERT JUMPDEST POP PUSH2 0x11F PUSH2 0x467 JUMP JUMPDEST PUSH1 0x40 MLOAD PUSH2 0x12C SWAP2 SWAP1 PUSH2 0x157F JUMP JUMPDEST PUSH1 0x40 MLOAD DUP1 SWAP2 SUB SWAP1 RETURN JUMPDEST CALLVALUE DUP1 ISZERO PUSH2 0x141 JUMPI PUSH1 0x0 DUP1 REVERT JUMPDEST POP PUSH2 0x14A PUSH2 0x4F5 JUMP JUMPDEST PUSH1 0x40 MLOAD PUSH2 0x157 SWAP2 SWAP1 PUSH2 0x152E JUMP JUMPDEST PUSH1 0x40 MLOAD DUP1 SWAP2 SUB SWAP1 RETURN JUMPDEST CALLVALUE DUP1 ISZERO PUSH2 0x16C JUMPI PUSH1 0x0 DUP1 REVERT JUMPDEST POP PUSH2 0x175 PUSH2 0x51B JUMP JUMPDEST PUSH1 0x40 MLOAD PUSH2 0x182 SWAP2 SWAP1 PUSH2 0x1661 JUMP JUMPDEST PUSH1 0x40 MLOAD DUP1 SWAP2 SUB SWAP1 RETURN JUMPDEST PUSH2 0x1A5 PUSH1 0x4 DUP1 CALLDATASIZE SUB DUP2 ADD SWAP1 PUSH2 0x1A0 SWAP2 SWAP1 PUSH2 0x124F JUMP JUMPDEST PUSH2 0x521 JUMP JUMPDEST STOP JUMPDEST CALLVALUE DUP1 ISZERO PUSH2 0x1B3 JUMPI PUSH1 0x0 DUP1 REVERT JUMPDEST POP PUSH2 0x1BC PUSH2 0x6BC JUMP JUMPDEST PUSH1 0x40 MLOAD PUSH2 0x1C9 SWAP2 SWAP1 PUSH2 0x1564 JUMP JUMPDEST PUSH1 0x40 MLOAD DUP1 SWAP2 SUB SWAP1 RETURN JUMPDEST CALLVALUE DUP1 ISZERO PUSH2 0x1DE JUMPI PUSH1 0x0 DUP1 REVERT JUMPDEST POP PUSH2 0x1E7 PUSH2 0x6C2 JUMP JUMPDEST PUSH1 0x40 MLOAD PUSH2 0x1F4 SWAP2 SWAP1 PUSH2 0x1661 JUMP JUMPDEST PUSH1 0x40 MLOAD DUP1 SWAP2 SUB SWAP1 RETURN JUMPDEST CALLVALUE DUP1 ISZERO PUSH2 0x209 JUMPI PUSH1 0x0 DUP1 REVERT JUMPDEST POP PUSH2 0x212 PUSH2 0x6C8 JUMP JUMPDEST PUSH1 0x40 MLOAD PUSH2 0x21F SWAP2 SWAP1 PUSH2 0x1549 JUMP JUMPDEST PUSH1 0x40 MLOAD DUP1 SWAP2 SUB SWAP1 RETURN JUMPDEST CALLVALUE DUP1 ISZERO PUSH2 0x234 JUMPI PUSH1 0x0 DUP1 REVERT JUMPDEST POP PUSH2 0x23D PUSH2 0x6DB JUMP JUMPDEST PUSH1 0x40 MLOAD PUSH2 0x24A SWAP2 SWAP1 PUSH2 0x1564 JUMP JUMPDEST PUSH1 0x40 MLOAD DUP1 SWAP2 SUB SWAP1 RETURN JUMPDEST CALLVALUE DUP1 ISZERO PUSH2 0x25F JUMPI PUSH1 0x0 DUP1 REVERT JUMPDEST POP PUSH2 0x268 PUSH2 0x6E1 JUMP JUMPDEST PUSH1 0x40 MLOAD PUSH2 0x275 SWAP2 SWAP1 PUSH2 0x1661 JUMP JUMPDEST PUSH1 0x40 MLOAD DUP1 SWAP2 SUB SWAP1 RETURN JUMPDEST PUSH2 0x298 PUSH1 0x4 DUP1 CALLDATASIZE SUB DUP2 ADD SWAP1 PUSH2 0x293 SWAP2 SWAP1 PUSH2 0x11FC JUMP JUMPDEST PUSH2 0x6E7 JUMP JUMPDEST STOP JUMPDEST CALLVALUE DUP1 ISZERO PUSH2 0x2A6 JUMPI PUSH1 0x0 DUP1 REVERT JUMPDEST POP PUSH2 0x2AF PUSH2 0x7B1 JUMP JUMPDEST PUSH1 0x40 MLOAD PUSH2 0x2BC SWAP2 SWAP1 PUSH2 0x1661 JUMP JUMPDEST PUSH1 0x40 MLOAD DUP1 SWAP2 SUB SWAP1 RETURN JUMPDEST CALLVALUE DUP1 ISZERO PUSH2 0x2D1 JUMPI PUSH1 0x0 DUP1 REVERT JUMPDEST POP PUSH2 0x2DA PUSH2 0x7B7 JUMP JUMPDEST PUSH1 0x40 MLOAD PUSH2 0x2E7 SWAP2 SWAP1 PUSH2 0x1661 JUMP JUMPDEST PUSH1 0x40 MLOAD DUP1 SWAP2 SUB SWAP1 RETURN JUMPDEST CALLVALUE DUP1 ISZERO PUSH2 0x2FC JUMPI PUSH1 0x0 DUP1 REVERT JUMPDEST POP PUSH2 0x317 PUSH1 0x4 DUP1 CALLDATASIZE SUB DUP2 ADD SWAP1 PUSH2 0x312 SWAP2 SWAP1 PUSH2 0x115D JUMP JUMPDEST PUSH2 0x7BD JUMP JUMPDEST STOP JUMPDEST CALLVALUE DUP1 ISZERO PUSH2 0x325 JUMPI PUSH1 0x0 DUP1 REVERT JUMPDEST POP PUSH2 0x340 PUSH1 0x4 DUP1 CALLDATASIZE SUB DUP2 ADD SWAP1 PUSH2 0x33B SWAP2 SWAP1 PUSH2 0x108B JUMP JUMPDEST PUSH2 0xCFC JUMP JUMPDEST STOP JUMPDEST CALLVALUE DUP1 ISZERO PUSH2 0x34E JUMPI PUSH1 0x0 DUP1 REVERT JUMPDEST POP PUSH2 0x357 PUSH2 0xE81 JUMP JUMPDEST PUSH1 0x40 MLOAD PUSH2 0x364 SWAP2 SWAP1 PUSH2 0x1661 JUMP JUMPDEST PUSH1 0x40 MLOAD DUP1 SWAP2 SUB SWAP1 RETURN JUMPDEST PUSH1 0x1 PUSH1 0x0 SWAP1 SLOAD SWAP1 PUSH2 0x100 EXP SWAP1 DIV PUSH20 0xFFFFFFFFFFFFFFFFFFFFFFFFFFFFFFFFFFFFFFFF AND PUSH20 0xFFFFFFFFFFFFFFFFFFFFFFFFFFFFFFFFFFFFFFFF AND CALLER PUSH20 0xFFFFFFFFFFFFFFFFFFFFFFFFFFFFFFFFFFFFFFFF AND EQ PUSH2 0x3FD JUMPI PUSH1 0x40 MLOAD PUSH32 0x8C379A000000000000000000000000000000000000000000000000000000000 DUP2 MSTORE PUSH1 0x4 ADD PUSH2 0x3F4 SWAP1 PUSH2 0x1621 JUMP JUMPDEST PUSH1 0x40 MLOAD DUP1 SWAP2 SUB SWAP1 REVERT JUMPDEST TIMESTAMP PUSH1 0x8 SLOAD PUSH1 0x7 SLOAD PUSH2 0x40E SWAP2 SWAP1 PUSH2 0x1745 JUMP JUMPDEST LT PUSH2 0x44E JUMPI PUSH1 0x40 MLOAD PUSH32 0x8C379A000000000000000000000000000000000000000000000000000000000 DUP2 MSTORE PUSH1 0x4 ADD PUSH2 0x445 SWAP1 PUSH2 0x15E1 JUMP JUMPDEST PUSH1 0x40 MLOAD DUP1 SWAP2 SUB SWAP1 REVERT JUMPDEST CALLER PUSH20 0xFFFFFFFFFFFFFFFFFFFFFFFFFFFFFFFFFFFFFFFF AND SELFDESTRUCT JUMPDEST PUSH1 0x4 DUP1 SLOAD PUSH2 0x474 SWAP1 PUSH2 0x197F JUMP JUMPDEST DUP1 PUSH1 0x1F ADD PUSH1 0x20 DUP1 SWAP2 DIV MUL PUSH1 0x20 ADD PUSH1 0x40 MLOAD SWAP1 DUP2 ADD PUSH1 0x40 MSTORE DUP1 SWAP3 SWAP2 SWAP1 DUP2 DUP2 MSTORE PUSH1 0x20 ADD DUP3 DUP1 SLOAD PUSH2 0x4A0 SWAP1 PUSH2 0x197F JUMP JUMPDEST DUP1 ISZERO PUSH2 0x4ED JUMPI DUP1 PUSH1 0x1F LT PUSH2 0x4C2 JUMPI PUSH2 0x100 DUP1 DUP4 SLOAD DIV MUL DUP4 MSTORE SWAP2 PUSH1 0x20 ADD SWAP2 PUSH2 0x4ED JUMP JUMPDEST DUP3 ADD SWAP2 SWAP1 PUSH1 0x0 MSTORE PUSH1 0x20 PUSH1 0x0 KECCAK256 SWAP1 JUMPDEST DUP2 SLOAD DUP2 MSTORE SWAP1 PUSH1 0x1 ADD SWAP1 PUSH1 0x20 ADD DUP1 DUP4 GT PUSH2 0x4D0 JUMPI DUP3 SWAP1 SUB PUSH1 0x1F AND DUP3 ADD SWAP2 JUMPDEST POP POP POP POP POP DUP2 JUMP JUMPDEST PUSH1 0x1 PUSH1 0x0 SWAP1 SLOAD SWAP1 PUSH2 0x100 EXP SWAP1 DIV PUSH20 0xFFFFFFFFFFFFFFFFFFFFFFFFFFFFFFFFFFFFFFFF AND DUP2 JUMP JUMPDEST PUSH1 0x9 SLOAD DUP2 JUMP JUMPDEST PUSH1 0x0 ISZERO ISZERO PUSH1 0xA PUSH1 0x0 SWAP1 SLOAD SWAP1 PUSH2 0x100 EXP SWAP1 DIV PUSH1 0xFF AND ISZERO ISZERO EQ PUSH2 0x541 JUMPI PUSH1 0x0 DUP1 REVERT JUMPDEST DUP8 DUP10 PUSH2 0x54D SWAP2 SWAP1 PUSH2 0x17CC JUMP JUMPDEST CALLVALUE EQ PUSH2 0x58E JUMPI PUSH1 0x40 MLOAD PUSH32 0x8C379A000000000000000000000000000000000000000000000000000000000 DUP2 MSTORE PUSH1 0x4 ADD PUSH2 0x585 SWAP1 PUSH2 0x15A1 JUMP JUMPDEST PUSH1 0x40 MLOAD DUP1 SWAP2 SUB SWAP1 REVERT JUMPDEST PUSH1 0x0 PUSH1 0x7 SLOAD EQ DUP1 ISZERO PUSH2 0x5A2 JUMPI POP PUSH1 0x0 PUSH1 0x8 SLOAD EQ JUMPDEST DUP1 ISZERO PUSH2 0x5B0 JUMPI POP PUSH1 0x0 PUSH1 0x9 SLOAD EQ JUMPDEST DUP1 ISZERO PUSH2 0x5CA JUMPI POP TIMESTAMP PUSH1 0x8 SLOAD PUSH1 0x7 SLOAD PUSH2 0x5C8 SWAP2 SWAP1 PUSH2 0x1745 JUMP JUMPDEST LT JUMPDEST DUP1 PUSH2 0x60A JUMPI POP TIMESTAMP PUSH1 0x8 SLOAD PUSH1 0x7 SLOAD PUSH2 0x5E1 SWAP2 SWAP1 PUSH2 0x1745 JUMP JUMPDEST LT DUP1 ISZERO PUSH2 0x609 JUMPI POP PUSH1 0x9 SLOAD PUSH1 0x8 SLOAD PUSH1 0x7 SLOAD PUSH2 0x5FC SWAP2 SWAP1 PUSH2 0x1745 JUMP JUMPDEST PUSH2 0x606 SWAP2 SWAP1 PUSH2 0x1745 JUMP JUMPDEST TIMESTAMP LT JUMPDEST JUMPDEST PUSH2 0x613 JUMPI PUSH1 0x0 DUP1 REVERT JUMPDEST DUP7 PUSH1 0x1 PUSH1 0x0 PUSH2 0x100 EXP DUP2 SLOAD DUP2 PUSH20 0xFFFFFFFFFFFFFFFFFFFFFFFFFFFFFFFFFFFFFFFF MUL NOT AND SWAP1 DUP4 PUSH20 0xFFFFFFFFFFFFFFFFFFFFFFFFFFFFFFFFFFFFFFFF AND MUL OR SWAP1 SSTORE POP DUP9 PUSH1 0x5 DUP2 SWAP1 SSTORE POP DUP8 PUSH1 0x6 DUP2 SWAP1 SSTORE POP PUSH1 0x0 DUP1 DUP2 SWAP1 SSTORE POP DUP6 PUSH1 0x2 DUP2 SWAP1 SSTORE POP DUP5 PUSH1 0x3 DUP2 SWAP1 SSTORE POP DUP4 PUSH1 0x4 SWAP1 DUP1 MLOAD SWAP1 PUSH1 0x20 ADD SWAP1 PUSH2 0x68D SWAP3 SWAP2 SWAP1 PUSH2 0xE87 JUMP JUMPDEST POP DUP9 PUSH1 0x5 DUP2 SWAP1 SSTORE POP DUP8 PUSH1 0x6 DUP2 SWAP1 SSTORE POP DUP3 PUSH1 0x7 DUP2 SWAP1 SSTORE POP DUP2 PUSH1 0x8 DUP2 SWAP1 SSTORE POP DUP1 PUSH1 0x9 DUP2 SWAP1 SSTORE POP POP POP POP POP POP POP POP POP POP JUMP JUMPDEST PUSH1 0x3 SLOAD DUP2 JUMP JUMPDEST PUSH1 0x6 SLOAD DUP2 JUMP JUMPDEST PUSH1 0xA PUSH1 0x0 SWAP1 SLOAD SWAP1 PUSH2 0x100 EXP SWAP1 DIV PUSH1 0xFF AND DUP2 JUMP JUMPDEST PUSH1 0x2 SLOAD DUP2 JUMP JUMPDEST PUSH1 0x8 SLOAD DUP2 JUMP JUMPDEST PUSH1 0x0 ISZERO ISZERO PUSH1 0xA PUSH1 0x0 SWAP1 SLOAD SWAP1 PUSH2 0x100 EXP SWAP1 DIV PUSH1 0xFF AND ISZERO ISZERO EQ PUSH2 0x707 JUMPI PUSH1 0x0 DUP1 REVERT JUMPDEST DUP1 PUSH1 0x1 PUSH1 0x0 PUSH2 0x100 EXP DUP2 SLOAD DUP2 PUSH20 0xFFFFFFFFFFFFFFFFFFFFFFFFFFFFFFFFFFFFFFFF MUL NOT AND SWAP1 DUP4 PUSH20 0xFFFFFFFFFFFFFFFFFFFFFFFFFFFFFFFFFFFFFFFF AND MUL OR SWAP1 SSTORE POP DUP3 PUSH1 0x5 DUP2 SWAP1 SSTORE POP DUP2 PUSH1 0x6 DUP2 SWAP1 SSTORE POP PUSH1 0x0 CALLVALUE EQ PUSH2 0x7AC JUMPI DUP2 DUP4 PUSH2 0x76A SWAP2 SWAP1 PUSH2 0x17CC JUMP JUMPDEST CALLVALUE EQ PUSH2 0x7AB JUMPI PUSH1 0x40 MLOAD PUSH32 0x8C379A000000000000000000000000000000000000000000000000000000000 DUP2 MSTORE PUSH1 0x4 ADD PUSH2 0x7A2 SWAP1 PUSH2 0x15A1 JUMP JUMPDEST PUSH1 0x40 MLOAD DUP1 SWAP2 SUB SWAP1 REVERT JUMPDEST JUMPDEST POP POP POP JUMP JUMPDEST PUSH1 0x0 SLOAD DUP2 JUMP JUMPDEST PUSH1 0x5 SLOAD DUP2 JUMP JUMPDEST PUSH1 0x8 SLOAD PUSH1 0x7 SLOAD PUSH2 0x7CD SWAP2 SWAP1 PUSH2 0x1745 JUMP JUMPDEST TIMESTAMP LT PUSH2 0x80E JUMPI PUSH1 0x40 MLOAD PUSH32 0x8C379A000000000000000000000000000000000000000000000000000000000 DUP2 MSTORE PUSH1 0x4 ADD PUSH2 0x805 SWAP1 PUSH2 0x15E1 JUMP JUMPDEST PUSH1 0x40 MLOAD DUP1 SWAP2 SUB SWAP1 REVERT JUMPDEST PUSH1 0x0 SLOAD DUP3 GT PUSH2 0x852 JUMPI PUSH1 0x40 MLOAD PUSH32 0x8C379A000000000000000000000000000000000000000000000000000000000 DUP2 MSTORE PUSH1 0x4 ADD PUSH2 0x849 SWAP1 PUSH2 0x1601 JUMP JUMPDEST PUSH1 0x40 MLOAD DUP1 SWAP2 SUB SWAP1 REVERT JUMPDEST PUSH1 0x0 DUP1 DUP6 PUSH2 0x85F SWAP1 PUSH2 0x18AC JUMP JUMPDEST SWAP1 POP PUSH1 0x0 DUP6 PUSH2 0x86D SWAP1 PUSH2 0x18AC JUMP JUMPDEST SWAP1 POP PUSH1 0x0 DUP1 SLOAD DUP7 PUSH2 0x87E SWAP2 SWAP1 PUSH2 0x1826 JUMP JUMPDEST SWAP1 POP JUMPDEST PUSH1 0x0 DUP2 EQ PUSH2 0x97E JUMPI PUSH1 0x2 DUP4 PUSH1 0x40 MLOAD PUSH1 0x20 ADD PUSH2 0x89C SWAP2 SWAP1 PUSH2 0x14E7 JUMP JUMPDEST PUSH1 0x40 MLOAD PUSH1 0x20 DUP2 DUP4 SUB SUB DUP2 MSTORE SWAP1 PUSH1 0x40 MSTORE PUSH1 0x40 MLOAD PUSH2 0x8B8 SWAP2 SWAP1 PUSH2 0x1502 JUMP JUMPDEST PUSH1 0x20 PUSH1 0x40 MLOAD DUP1 DUP4 SUB DUP2 DUP6 GAS STATICCALL ISZERO DUP1 ISZERO PUSH2 0x8D5 JUMPI RETURNDATASIZE PUSH1 0x0 DUP1 RETURNDATACOPY RETURNDATASIZE PUSH1 0x0 REVERT JUMPDEST POP POP POP PUSH1 0x40 MLOAD RETURNDATASIZE PUSH1 0x1F NOT PUSH1 0x1F DUP3 ADD AND DUP3 ADD DUP1 PUSH1 0x40 MSTORE POP DUP2 ADD SWAP1 PUSH2 0x8F8 SWAP2 SWAP1 PUSH2 0x105E JUMP JUMPDEST SWAP3 POP PUSH1 0x2 DUP3 PUSH1 0x40 MLOAD PUSH1 0x20 ADD PUSH2 0x90D SWAP2 SWAP1 PUSH2 0x14E7 JUMP JUMPDEST PUSH1 0x40 MLOAD PUSH1 0x20 DUP2 DUP4 SUB SUB DUP2 MSTORE SWAP1 PUSH1 0x40 MSTORE PUSH1 0x40 MLOAD PUSH2 0x929 SWAP2 SWAP1 PUSH2 0x1502 JUMP JUMPDEST PUSH1 0x20 PUSH1 0x40 MLOAD DUP1 DUP4 SUB DUP2 DUP6 GAS STATICCALL ISZERO DUP1 ISZERO PUSH2 0x946 JUMPI RETURNDATASIZE PUSH1 0x0 DUP1 RETURNDATACOPY RETURNDATASIZE PUSH1 0x0 REVERT JUMPDEST POP POP POP PUSH1 0x40 MLOAD RETURNDATASIZE PUSH1 0x1F NOT PUSH1 0x1F DUP3 ADD AND DUP3 ADD DUP1 PUSH1 0x40 MSTORE POP DUP2 ADD SWAP1 PUSH2 0x969 SWAP2 SWAP1 PUSH2 0x105E JUMP JUMPDEST SWAP2 POP DUP1 DUP1 PUSH2 0x976 SWAP1 PUSH2 0x1955 JUMP JUMPDEST SWAP2 POP POP PUSH2 0x881 JUMP JUMPDEST DUP3 PUSH1 0x2 SLOAD EQ PUSH2 0x9C2 JUMPI PUSH1 0x40 MLOAD PUSH32 0x8C379A000000000000000000000000000000000000000000000000000000000 DUP2 MSTORE PUSH1 0x4 ADD PUSH2 0x9B9 SWAP1 PUSH2 0x1641 JUMP JUMPDEST PUSH1 0x40 MLOAD DUP1 SWAP2 SUB SWAP1 REVERT JUMPDEST DUP2 PUSH1 0x3 SLOAD EQ PUSH2 0xA06 JUMPI PUSH1 0x40 MLOAD PUSH32 0x8C379A000000000000000000000000000000000000000000000000000000000 DUP2 MSTORE PUSH1 0x4 ADD PUSH2 0x9FD SWAP1 PUSH2 0x15C1 JUMP JUMPDEST PUSH1 0x40 MLOAD DUP1 SWAP2 SUB SWAP1 REVERT JUMPDEST PUSH1 0x0 PUSH1 0x2 DUP8 PUSH2 0xA15 SWAP2 SWAP1 PUSH2 0x19EC JUMP JUMPDEST EQ ISZERO PUSH2 0xA63 JUMPI PUSH1 0x2 PUSH1 0x0 SLOAD DUP8 PUSH2 0xA2B SWAP2 SWAP1 PUSH2 0x1826 JUMP JUMPDEST PUSH2 0xA35 SWAP2 SWAP1 PUSH2 0x179B JUMP JUMPDEST SWAP4 POP DUP6 PUSH1 0x0 DUP2 SWAP1 SSTORE POP DUP8 PUSH2 0xA48 SWAP1 PUSH2 0x18AC JUMP JUMPDEST PUSH1 0x2 DUP2 SWAP1 SSTORE POP DUP7 PUSH2 0xA58 SWAP1 PUSH2 0x18AC JUMP JUMPDEST PUSH1 0x3 DUP2 SWAP1 SSTORE POP PUSH2 0xBEE JUMP JUMPDEST PUSH1 0x2 PUSH1 0x1 PUSH1 0x0 SLOAD DUP9 PUSH2 0xA75 SWAP2 SWAP1 PUSH2 0x1826 JUMP JUMPDEST PUSH2 0xA7F SWAP2 SWAP1 PUSH2 0x1826 JUMP JUMPDEST PUSH2 0xA89 SWAP2 SWAP1 PUSH2 0x179B JUMP JUMPDEST SWAP4 POP PUSH1 0x1 DUP7 PUSH2 0xA98 SWAP2 SWAP1 PUSH2 0x1826 JUMP JUMPDEST PUSH1 0x0 DUP2 SWAP1 SSTORE POP PUSH1 0x0 DUP9 PUSH2 0xAAA SWAP1 PUSH2 0x18AC JUMP JUMPDEST SWAP1 POP PUSH1 0x0 DUP9 PUSH2 0xAB8 SWAP1 PUSH2 0x18AC JUMP JUMPDEST SWAP1 POP PUSH1 0x0 DUP1 SLOAD DUP10 PUSH2 0xAC9 SWAP2 SWAP1 PUSH2 0x1826 JUMP JUMPDEST SWAP1 POP JUMPDEST PUSH1 0x0 DUP2 EQ PUSH2 0xBC9 JUMPI PUSH1 0x2 DUP4 PUSH1 0x40 MLOAD PUSH1 0x20 ADD PUSH2 0xAE7 SWAP2 SWAP1 PUSH2 0x14E7 JUMP JUMPDEST PUSH1 0x40 MLOAD PUSH1 0x20 DUP2 DUP4 SUB SUB DUP2 MSTORE SWAP1 PUSH1 0x40 MSTORE PUSH1 0x40 MLOAD PUSH2 0xB03 SWAP2 SWAP1 PUSH2 0x1502 JUMP JUMPDEST PUSH1 0x20 PUSH1 0x40 MLOAD DUP1 DUP4 SUB DUP2 DUP6 GAS STATICCALL ISZERO DUP1 ISZERO PUSH2 0xB20 JUMPI RETURNDATASIZE PUSH1 0x0 DUP1 RETURNDATACOPY RETURNDATASIZE PUSH1 0x0 REVERT JUMPDEST POP POP POP PUSH1 0x40 MLOAD RETURNDATASIZE PUSH1 0x1F NOT PUSH1 0x1F DUP3 ADD AND DUP3 ADD DUP1 PUSH1 0x40 MSTORE POP DUP2 ADD SWAP1 PUSH2 0xB43 SWAP2 SWAP1 PUSH2 0x105E JUMP JUMPDEST SWAP3 POP PUSH1 0x2 DUP3 PUSH1 0x40 MLOAD PUSH1 0x20 ADD PUSH2 0xB58 SWAP2 SWAP1 PUSH2 0x14E7 JUMP JUMPDEST PUSH1 0x40 MLOAD PUSH1 0x20 DUP2 DUP4 SUB SUB DUP2 MSTORE SWAP1 PUSH1 0x40 MSTORE PUSH1 0x40 MLOAD PUSH2 0xB74 SWAP2 SWAP1 PUSH2 0x1502 JUMP JUMPDEST PUSH1 0x20 PUSH1 0x40 MLOAD DUP1 DUP4 SUB DUP2 DUP6 GAS STATICCALL ISZERO DUP1 ISZERO PUSH2 0xB91 JUMPI RETURNDATASIZE PUSH1 0x0 DUP1 RETURNDATACOPY RETURNDATASIZE PUSH1 0x0 REVERT JUMPDEST POP POP POP PUSH1 0x40 MLOAD RETURNDATASIZE PUSH1 0x1F NOT PUSH1 0x1F DUP3 ADD AND DUP3 ADD DUP1 PUSH1 0x40 MSTORE POP DUP2 ADD SWAP1 PUSH2 0xBB4 SWAP2 SWAP1 PUSH2 0x105E JUMP JUMPDEST SWAP2 POP DUP1 DUP1 PUSH2 0xBC1 SWAP1 PUSH2 0x1955 JUMP JUMPDEST SWAP2 POP POP PUSH2 0xACC JUMP JUMPDEST PUSH1 0x1 DUP10 PUSH2 0xBD6 SWAP2 SWAP1 PUSH2 0x1826 JUMP JUMPDEST PUSH1 0x0 DUP2 SWAP1 SSTORE POP DUP3 PUSH1 0x2 DUP2 SWAP1 SSTORE POP DUP2 PUSH1 0x3 DUP2 SWAP1 SSTORE POP POP POP POP JUMPDEST PUSH1 0x0 PUSH20 0xFFFFFFFFFFFFFFFFFFFFFFFFFFFFFFFFFFFFFFFF AND DUP6 PUSH20 0xFFFFFFFFFFFFFFFFFFFFFFFFFFFFFFFFFFFFFFFF AND EQ PUSH2 0xC9D JUMPI DUP5 PUSH20 0xFFFFFFFFFFFFFFFFFFFFFFFFFFFFFFFFFFFFFFFF AND PUSH1 0x6 SLOAD DUP6 PUSH2 0xC47 SWAP2 SWAP1 PUSH2 0x17CC JUMP JUMPDEST PUSH1 0x40 MLOAD PUSH2 0xC53 SWAP1 PUSH2 0x1519 JUMP JUMPDEST PUSH1 0x0 PUSH1 0x40 MLOAD DUP1 DUP4 SUB DUP2 DUP6 DUP8 GAS CALL SWAP3 POP POP POP RETURNDATASIZE DUP1 PUSH1 0x0 DUP2 EQ PUSH2 0xC90 JUMPI PUSH1 0x40 MLOAD SWAP2 POP PUSH1 0x1F NOT PUSH1 0x3F RETURNDATASIZE ADD AND DUP3 ADD PUSH1 0x40 MSTORE RETURNDATASIZE DUP3 MSTORE RETURNDATASIZE PUSH1 0x0 PUSH1 0x20 DUP5 ADD RETURNDATACOPY PUSH2 0xC95 JUMP JUMPDEST PUSH1 0x60 SWAP2 POP JUMPDEST POP POP POP PUSH2 0xCF2 JUMP JUMPDEST CALLER PUSH20 0xFFFFFFFFFFFFFFFFFFFFFFFFFFFFFFFFFFFFFFFF AND PUSH2 0x8FC PUSH1 0x6 SLOAD DUP7 PUSH2 0xCC5 SWAP2 SWAP1 PUSH2 0x17CC JUMP JUMPDEST SWAP1 DUP2 ISZERO MUL SWAP1 PUSH1 0x40 MLOAD PUSH1 0x0 PUSH1 0x40 MLOAD DUP1 DUP4 SUB DUP2 DUP6 DUP9 DUP9 CALL SWAP4 POP POP POP POP ISZERO DUP1 ISZERO PUSH2 0xCF0 JUMPI RETURNDATASIZE PUSH1 0x0 DUP1 RETURNDATACOPY RETURNDATASIZE PUSH1 0x0 REVERT JUMPDEST POP JUMPDEST POP POP POP POP POP POP POP POP JUMP JUMPDEST PUSH1 0x1 PUSH1 0x0 SWAP1 SLOAD SWAP1 PUSH2 0x100 EXP SWAP1 DIV PUSH20 0xFFFFFFFFFFFFFFFFFFFFFFFFFFFFFFFFFFFFFFFF AND PUSH20 0xFFFFFFFFFFFFFFFFFFFFFFFFFFFFFFFFFFFFFFFF AND CALLER PUSH20 0xFFFFFFFFFFFFFFFFFFFFFFFFFFFFFFFFFFFFFFFF AND EQ PUSH2 0xD8C JUMPI PUSH1 0x40 MLOAD PUSH32 0x8C379A000000000000000000000000000000000000000000000000000000000 DUP2 MSTORE PUSH1 0x4 ADD PUSH2 0xD83 SWAP1 PUSH2 0x1621 JUMP JUMPDEST PUSH1 0x40 MLOAD DUP1 SWAP2 SUB SWAP1 REVERT JUMPDEST DUP4 DUP6 PUSH2 0xD98 SWAP2 SWAP1 PUSH2 0x17CC JUMP JUMPDEST SELFBALANCE EQ PUSH2 0xDA3 JUMPI PUSH1 0x0 DUP1 REVERT JUMPDEST PUSH1 0x0 PUSH1 0x7 SLOAD EQ DUP1 ISZERO PUSH2 0xDB7 JUMPI POP PUSH1 0x0 PUSH1 0x8 SLOAD EQ JUMPDEST DUP1 ISZERO PUSH2 0xDC5 JUMPI POP PUSH1 0x0 PUSH1 0x9 SLOAD EQ JUMPDEST DUP1 ISZERO PUSH2 0xDDF JUMPI POP TIMESTAMP PUSH1 0x8 SLOAD PUSH1 0x7 SLOAD PUSH2 0xDDD SWAP2 SWAP1 PUSH2 0x1745 JUMP JUMPDEST LT JUMPDEST DUP1 PUSH2 0xE1F JUMPI POP TIMESTAMP PUSH1 0x8 SLOAD PUSH1 0x7 SLOAD PUSH2 0xDF6 SWAP2 SWAP1 PUSH2 0x1745 JUMP JUMPDEST LT DUP1 ISZERO PUSH2 0xE1E JUMPI POP PUSH1 0x9 SLOAD PUSH1 0x8 SLOAD PUSH1 0x7 SLOAD PUSH2 0xE11 SWAP2 SWAP1 PUSH2 0x1745 JUMP JUMPDEST PUSH2 0xE1B SWAP2 SWAP1 PUSH2 0x1745 JUMP JUMPDEST TIMESTAMP LT JUMPDEST JUMPDEST PUSH2 0xE28 JUMPI PUSH1 0x0 DUP1 REVERT JUMPDEST PUSH1 0x0 DUP1 DUP2 SWAP1 SSTORE POP DUP8 PUSH1 0x2 DUP2 SWAP1 SSTORE POP DUP7 PUSH1 0x3 DUP2 SWAP1 SSTORE POP DUP6 PUSH1 0x4 SWAP1 DUP1 MLOAD SWAP1 PUSH1 0x20 ADD SWAP1 PUSH2 0xE53 SWAP3 SWAP2 SWAP1 PUSH2 0xE87 JUMP JUMPDEST POP DUP5 PUSH1 0x5 DUP2 SWAP1 SSTORE POP DUP4 PUSH1 0x6 DUP2 SWAP1 SSTORE POP DUP3 PUSH1 0x7 DUP2 SWAP1 SSTORE POP DUP2 PUSH1 0x8 DUP2 SWAP1 SSTORE POP DUP1 PUSH1 0x9 DUP2 SWAP1 SSTORE POP POP POP POP POP POP POP POP POP JUMP JUMPDEST PUSH1 0x7 SLOAD DUP2 JUMP JUMPDEST DUP3 DUP1 SLOAD PUSH2 0xE93 SWAP1 PUSH2 0x197F JUMP JUMPDEST SWAP1 PUSH1 0x0 MSTORE PUSH1 0x20 PUSH1 0x0 KECCAK256 SWAP1 PUSH1 0x1F ADD PUSH1 0x20 SWAP1 DIV DUP2 ADD SWAP3 DUP3 PUSH2 0xEB5 JUMPI PUSH1 0x0 DUP6 SSTORE PUSH2 0xEFC JUMP JUMPDEST DUP3 PUSH1 0x1F LT PUSH2 0xECE JUMPI DUP1 MLOAD PUSH1 0xFF NOT AND DUP4 DUP1 ADD OR DUP6 SSTORE PUSH2 0xEFC JUMP JUMPDEST DUP3 DUP1 ADD PUSH1 0x1 ADD DUP6 SSTORE DUP3 ISZERO PUSH2 0xEFC JUMPI SWAP2 DUP3 ADD JUMPDEST DUP3 DUP2 GT ISZERO PUSH2 0xEFB JUMPI DUP3 MLOAD DUP3 SSTORE SWAP2 PUSH1 0x20 ADD SWAP2 SWAP1 PUSH1 0x1 ADD SWAP1 PUSH2 0xEE0 JUMP JUMPDEST JUMPDEST POP SWAP1 POP PUSH2 0xF09 SWAP2 SWAP1 PUSH2 0xF0D JUMP JUMPDEST POP SWAP1 JUMP JUMPDEST JUMPDEST DUP1 DUP3 GT ISZERO PUSH2 0xF26 JUMPI PUSH1 0x0 DUP2 PUSH1 0x0 SWAP1 SSTORE POP PUSH1 0x1 ADD PUSH2 0xF0E JUMP JUMPDEST POP SWAP1 JUMP JUMPDEST PUSH1 0x0 PUSH2 0xF3D PUSH2 0xF38 DUP5 PUSH2 0x16A1 JUMP JUMPDEST PUSH2 0x167C JUMP JUMPDEST SWAP1 POP DUP3 DUP2 MSTORE PUSH1 0x20 DUP2 ADD DUP5 DUP5 DUP5 ADD GT ISZERO PUSH2 0xF59 JUMPI PUSH2 0xF58 PUSH2 0x1AF3 JUMP JUMPDEST JUMPDEST PUSH2 0xF64 DUP5 DUP3 DUP6 PUSH2 0x1913 JUMP JUMPDEST POP SWAP4 SWAP3 POP POP POP JUMP JUMPDEST PUSH1 0x0 PUSH2 0xF7F PUSH2 0xF7A DUP5 PUSH2 0x16D2 JUMP JUMPDEST PUSH2 0x167C JUMP JUMPDEST SWAP1 POP DUP3 DUP2 MSTORE PUSH1 0x20 DUP2 ADD DUP5 DUP5 DUP5 ADD GT ISZERO PUSH2 0xF9B JUMPI PUSH2 0xF9A PUSH2 0x1AF3 JUMP JUMPDEST JUMPDEST PUSH2 0xFA6 DUP5 DUP3 DUP6 PUSH2 0x1913 JUMP JUMPDEST POP SWAP4 SWAP3 POP POP POP JUMP JUMPDEST PUSH1 0x0 DUP2 CALLDATALOAD SWAP1 POP PUSH2 0xFBD DUP2 PUSH2 0x1C3F JUMP JUMPDEST SWAP3 SWAP2 POP POP JUMP JUMPDEST PUSH1 0x0 DUP2 CALLDATALOAD SWAP1 POP PUSH2 0xFD2 DUP2 PUSH2 0x1C56 JUMP JUMPDEST SWAP3 SWAP2 POP POP JUMP JUMPDEST PUSH1 0x0 DUP2 MLOAD SWAP1 POP PUSH2 0xFE7 DUP2 PUSH2 0x1C56 JUMP JUMPDEST SWAP3 SWAP2 POP POP JUMP JUMPDEST PUSH1 0x0 DUP3 PUSH1 0x1F DUP4 ADD SLT PUSH2 0x1002 JUMPI PUSH2 0x1001 PUSH2 0x1AEE JUMP JUMPDEST JUMPDEST DUP2 CALLDATALOAD PUSH2 0x1012 DUP5 DUP3 PUSH1 0x20 DUP7 ADD PUSH2 0xF2A JUMP JUMPDEST SWAP2 POP POP SWAP3 SWAP2 POP POP JUMP JUMPDEST PUSH1 0x0 DUP3 PUSH1 0x1F DUP4 ADD SLT PUSH2 0x1030 JUMPI PUSH2 0x102F PUSH2 0x1AEE JUMP JUMPDEST JUMPDEST DUP2 CALLDATALOAD PUSH2 0x1040 DUP5 DUP3 PUSH1 0x20 DUP7 ADD PUSH2 0xF6C JUMP JUMPDEST SWAP2 POP POP SWAP3 SWAP2 POP POP JUMP JUMPDEST PUSH1 0x0 DUP2 CALLDATALOAD SWAP1 POP PUSH2 0x1058 DUP2 PUSH2 0x1C6D JUMP JUMPDEST SWAP3 SWAP2 POP POP JUMP JUMPDEST PUSH1 0x0 PUSH1 0x20 DUP3 DUP5 SUB SLT ISZERO PUSH2 0x1074 JUMPI PUSH2 0x1073 PUSH2 0x1AFD JUMP JUMPDEST JUMPDEST PUSH1 0x0 PUSH2 0x1082 DUP5 DUP3 DUP6 ADD PUSH2 0xFD8 JUMP JUMPDEST SWAP2 POP POP SWAP3 SWAP2 POP POP JUMP JUMPDEST PUSH1 0x0 DUP1 PUSH1 0x0 DUP1 PUSH1 0x0 DUP1 PUSH1 0x0 DUP1 PUSH2 0x100 DUP10 DUP12 SUB SLT ISZERO PUSH2 0x10AC JUMPI PUSH2 0x10AB PUSH2 0x1AFD JUMP JUMPDEST JUMPDEST PUSH1 0x0 PUSH2 0x10BA DUP12 DUP3 DUP13 ADD PUSH2 0xFC3 JUMP JUMPDEST SWAP9 POP POP PUSH1 0x20 PUSH2 0x10CB DUP12 DUP3 DUP13 ADD PUSH2 0xFC3 JUMP JUMPDEST SWAP8 POP POP PUSH1 0x40 DUP10 ADD CALLDATALOAD PUSH8 0xFFFFFFFFFFFFFFFF DUP2 GT ISZERO PUSH2 0x10EC JUMPI PUSH2 0x10EB PUSH2 0x1AF8 JUMP JUMPDEST JUMPDEST PUSH2 0x10F8 DUP12 DUP3 DUP13 ADD PUSH2 0x101B JUMP JUMPDEST SWAP7 POP POP PUSH1 0x60 PUSH2 0x1109 DUP12 DUP3 DUP13 ADD PUSH2 0x1049 JUMP JUMPDEST SWAP6 POP POP PUSH1 0x80 PUSH2 0x111A DUP12 DUP3 DUP13 ADD PUSH2 0x1049 JUMP JUMPDEST SWAP5 POP POP PUSH1 0xA0 PUSH2 0x112B DUP12 DUP3 DUP13 ADD PUSH2 0x1049 JUMP JUMPDEST SWAP4 POP POP PUSH1 0xC0 PUSH2 0x113C DUP12 DUP3 DUP13 ADD PUSH2 0x1049 JUMP JUMPDEST SWAP3 POP POP PUSH1 0xE0 PUSH2 0x114D DUP12 DUP3 DUP13 ADD PUSH2 0x1049 JUMP JUMPDEST SWAP2 POP POP SWAP3 SWAP6 SWAP9 POP SWAP3 SWAP6 SWAP9 SWAP1 SWAP4 SWAP7 POP JUMP JUMPDEST PUSH1 0x0 DUP1 PUSH1 0x0 DUP1 PUSH1 0x80 DUP6 DUP8 SUB SLT ISZERO PUSH2 0x1177 JUMPI PUSH2 0x1176 PUSH2 0x1AFD JUMP JUMPDEST JUMPDEST PUSH1 0x0 DUP6 ADD CALLDATALOAD PUSH8 0xFFFFFFFFFFFFFFFF DUP2 GT ISZERO PUSH2 0x1195 JUMPI PUSH2 0x1194 PUSH2 0x1AF8 JUMP JUMPDEST JUMPDEST PUSH2 0x11A1 DUP8 DUP3 DUP9 ADD PUSH2 0xFED JUMP JUMPDEST SWAP5 POP POP PUSH1 0x20 DUP6 ADD CALLDATALOAD PUSH8 0xFFFFFFFFFFFFFFFF DUP2 GT ISZERO PUSH2 0x11C2 JUMPI PUSH2 0x11C1 PUSH2 0x1AF8 JUMP JUMPDEST JUMPDEST PUSH2 0x11CE DUP8 DUP3 DUP9 ADD PUSH2 0xFED JUMP JUMPDEST SWAP4 POP POP PUSH1 0x40 PUSH2 0x11DF DUP8 DUP3 DUP9 ADD PUSH2 0x1049 JUMP JUMPDEST SWAP3 POP POP PUSH1 0x60 PUSH2 0x11F0 DUP8 DUP3 DUP9 ADD PUSH2 0xFAE JUMP JUMPDEST SWAP2 POP POP SWAP3 SWAP6 SWAP2 SWAP5 POP SWAP3 POP JUMP JUMPDEST PUSH1 0x0 DUP1 PUSH1 0x0 PUSH1 0x60 DUP5 DUP7 SUB SLT ISZERO PUSH2 0x1215 JUMPI PUSH2 0x1214 PUSH2 0x1AFD JUMP JUMPDEST JUMPDEST PUSH1 0x0 PUSH2 0x1223 DUP7 DUP3 DUP8 ADD PUSH2 0x1049 JUMP JUMPDEST SWAP4 POP POP PUSH1 0x20 PUSH2 0x1234 DUP7 DUP3 DUP8 ADD PUSH2 0x1049 JUMP JUMPDEST SWAP3 POP POP PUSH1 0x40 PUSH2 0x1245 DUP7 DUP3 DUP8 ADD PUSH2 0xFAE JUMP JUMPDEST SWAP2 POP POP SWAP3 POP SWAP3 POP SWAP3 JUMP JUMPDEST PUSH1 0x0 DUP1 PUSH1 0x0 DUP1 PUSH1 0x0 DUP1 PUSH1 0x0 DUP1 PUSH1 0x0 PUSH2 0x120 DUP11 DUP13 SUB SLT ISZERO PUSH2 0x1272 JUMPI PUSH2 0x1271 PUSH2 0x1AFD JUMP JUMPDEST JUMPDEST PUSH1 0x0 PUSH2 0x1280 DUP13 DUP3 DUP14 ADD PUSH2 0x1049 JUMP JUMPDEST SWAP10 POP POP PUSH1 0x20 PUSH2 0x1291 DUP13 DUP3 DUP14 ADD PUSH2 0x1049 JUMP JUMPDEST SWAP9 POP POP PUSH1 0x40 PUSH2 0x12A2 DUP13 DUP3 DUP14 ADD PUSH2 0xFAE JUMP JUMPDEST SWAP8 POP POP PUSH1 0x60 PUSH2 0x12B3 DUP13 DUP3 DUP14 ADD PUSH2 0xFC3 JUMP JUMPDEST SWAP7 POP POP PUSH1 0x80 PUSH2 0x12C4 DUP13 DUP3 DUP14 ADD PUSH2 0xFC3 JUMP JUMPDEST SWAP6 POP POP PUSH1 0xA0 DUP11 ADD CALLDATALOAD PUSH8 0xFFFFFFFFFFFFFFFF DUP2 GT ISZERO PUSH2 0x12E5 JUMPI PUSH2 0x12E4 PUSH2 0x1AF8 JUMP JUMPDEST JUMPDEST PUSH2 0x12F1 DUP13 DUP3 DUP14 ADD PUSH2 0x101B JUMP JUMPDEST SWAP5 POP POP PUSH1 0xC0 PUSH2 0x1302 DUP13 DUP3 DUP14 ADD PUSH2 0x1049 JUMP JUMPDEST SWAP4 POP POP PUSH1 0xE0 PUSH2 0x1313 DUP13 DUP3 DUP14 ADD PUSH2 0x1049 JUMP JUMPDEST SWAP3 POP POP PUSH2 0x100 PUSH2 0x1325 DUP13 DUP3 DUP14 ADD PUSH2 0x1049 JUMP JUMPDEST SWAP2 POP POP SWAP3 SWAP6 SWAP9 POP SWAP3 SWAP6 SWAP9 POP SWAP3 SWAP6 SWAP9 JUMP JUMPDEST PUSH2 0x133E DUP2 PUSH2 0x185A JUMP JUMPDEST DUP3 MSTORE POP POP JUMP JUMPDEST PUSH2 0x134D DUP2 PUSH2 0x186C JUMP JUMPDEST DUP3 MSTORE POP POP JUMP JUMPDEST PUSH2 0x135C DUP2 PUSH2 0x1878 JUMP JUMPDEST DUP3 MSTORE POP POP JUMP JUMPDEST PUSH2 0x1373 PUSH2 0x136E DUP3 PUSH2 0x1878 JUMP JUMPDEST PUSH2 0x19E2 JUMP JUMPDEST DUP3 MSTORE POP POP JUMP JUMPDEST PUSH1 0x0 PUSH2 0x1384 DUP3 PUSH2 0x1713 JUMP JUMPDEST PUSH2 0x138E DUP2 DUP6 PUSH2 0x1729 JUMP JUMPDEST SWAP4 POP PUSH2 0x139E DUP2 DUP6 PUSH1 0x20 DUP7 ADD PUSH2 0x1922 JUMP JUMPDEST DUP1 DUP5 ADD SWAP2 POP POP SWAP3 SWAP2 POP POP JUMP JUMPDEST PUSH1 0x0 PUSH2 0x13B5 DUP3 PUSH2 0x171E JUMP JUMPDEST PUSH2 0x13BF DUP2 DUP6 PUSH2 0x1734 JUMP JUMPDEST SWAP4 POP PUSH2 0x13CF DUP2 DUP6 PUSH1 0x20 DUP7 ADD PUSH2 0x1922 JUMP JUMPDEST PUSH2 0x13D8 DUP2 PUSH2 0x1B02 JUMP JUMPDEST DUP5 ADD SWAP2 POP POP SWAP3 SWAP2 POP POP JUMP JUMPDEST PUSH1 0x0 PUSH2 0x13F0 PUSH1 0xD DUP4 PUSH2 0x1734 JUMP JUMPDEST SWAP2 POP PUSH2 0x13FB DUP3 PUSH2 0x1B20 JUMP JUMPDEST PUSH1 0x20 DUP3 ADD SWAP1 POP SWAP2 SWAP1 POP JUMP JUMPDEST PUSH1 0x0 PUSH2 0x1413 PUSH1 0x11 DUP4 PUSH2 0x1734 JUMP JUMPDEST SWAP2 POP PUSH2 0x141E DUP3 PUSH2 0x1B49 JUMP JUMPDEST PUSH1 0x20 DUP3 ADD SWAP1 POP SWAP2 SWAP1 POP JUMP JUMPDEST PUSH1 0x0 PUSH2 0x1436 PUSH1 0xA DUP4 PUSH2 0x1734 JUMP JUMPDEST SWAP2 POP PUSH2 0x1441 DUP3 PUSH2 0x1B72 JUMP JUMPDEST PUSH1 0x20 DUP3 ADD SWAP1 POP SWAP2 SWAP1 POP JUMP JUMPDEST PUSH1 0x0 PUSH2 0x1459 PUSH1 0x6 DUP4 PUSH2 0x1734 JUMP JUMPDEST SWAP2 POP PUSH2 0x1464 DUP3 PUSH2 0x1B9B JUMP JUMPDEST PUSH1 0x20 DUP3 ADD SWAP1 POP SWAP2 SWAP1 POP JUMP JUMPDEST PUSH1 0x0 PUSH2 0x147C PUSH1 0x39 DUP4 PUSH2 0x1734 JUMP JUMPDEST SWAP2 POP PUSH2 0x1487 DUP3 PUSH2 0x1BC4 JUMP JUMPDEST PUSH1 0x40 DUP3 ADD SWAP1 POP SWAP2 SWAP1 POP JUMP JUMPDEST PUSH1 0x0 PUSH2 0x149F PUSH1 0x0 DUP4 PUSH2 0x1729 JUMP JUMPDEST SWAP2 POP PUSH2 0x14AA DUP3 PUSH2 0x1C13 JUMP JUMPDEST PUSH1 0x0 DUP3 ADD SWAP1 POP SWAP2 SWAP1 POP JUMP JUMPDEST PUSH1 0x0 PUSH2 0x14C2 PUSH1 0x11 DUP4 PUSH2 0x1734 JUMP JUMPDEST SWAP2 POP PUSH2 0x14CD DUP3 PUSH2 0x1C16 JUMP JUMPDEST PUSH1 0x20 DUP3 ADD SWAP1 POP SWAP2 SWAP1 POP JUMP JUMPDEST PUSH2 0x14E1 DUP2 PUSH2 0x18A2 JUMP JUMPDEST DUP3 MSTORE POP POP JUMP JUMPDEST PUSH1 0x0 PUSH2 0x14F3 DUP3 DUP5 PUSH2 0x1362 JUMP JUMPDEST PUSH1 0x20 DUP3 ADD SWAP2 POP DUP2 SWAP1 POP SWAP3 SWAP2 POP POP JUMP JUMPDEST PUSH1 0x0 PUSH2 0x150E DUP3 DUP5 PUSH2 0x1379 JUMP JUMPDEST SWAP2 POP DUP2 SWAP1 POP SWAP3 SWAP2 POP POP JUMP JUMPDEST PUSH1 0x0 PUSH2 0x1524 DUP3 PUSH2 0x1492 JUMP JUMPDEST SWAP2 POP DUP2 SWAP1 POP SWAP2 SWAP1 POP JUMP JUMPDEST PUSH1 0x0 PUSH1 0x20 DUP3 ADD SWAP1 POP PUSH2 0x1543 PUSH1 0x0 DUP4 ADD DUP5 PUSH2 0x1335 JUMP JUMPDEST SWAP3 SWAP2 POP POP JUMP JUMPDEST PUSH1 0x0 PUSH1 0x20 DUP3 ADD SWAP1 POP PUSH2 0x155E PUSH1 0x0 DUP4 ADD DUP5 PUSH2 0x1344 JUMP JUMPDEST SWAP3 SWAP2 POP POP JUMP JUMPDEST PUSH1 0x0 PUSH1 0x20 DUP3 ADD SWAP1 POP PUSH2 0x1579 PUSH1 0x0 DUP4 ADD DUP5 PUSH2 0x1353 JUMP JUMPDEST SWAP3 SWAP2 POP POP JUMP JUMPDEST PUSH1 0x0 PUSH1 0x20 DUP3 ADD SWAP1 POP DUP2 DUP2 SUB PUSH1 0x0 DUP4 ADD MSTORE PUSH2 0x1599 DUP2 DUP5 PUSH2 0x13AA JUMP JUMPDEST SWAP1 POP SWAP3 SWAP2 POP POP JUMP JUMPDEST PUSH1 0x0 PUSH1 0x20 DUP3 ADD SWAP1 POP DUP2 DUP2 SUB PUSH1 0x0 DUP4 ADD MSTORE PUSH2 0x15BA DUP2 PUSH2 0x13E3 JUMP JUMPDEST SWAP1 POP SWAP2 SWAP1 POP JUMP JUMPDEST PUSH1 0x0 PUSH1 0x20 DUP3 ADD SWAP1 POP DUP2 DUP2 SUB PUSH1 0x0 DUP4 ADD MSTORE PUSH2 0x15DA DUP2 PUSH2 0x1406 JUMP JUMPDEST SWAP1 POP SWAP2 SWAP1 POP JUMP JUMPDEST PUSH1 0x0 PUSH1 0x20 DUP3 ADD SWAP1 POP DUP2 DUP2 SUB PUSH1 0x0 DUP4 ADD MSTORE PUSH2 0x15FA DUP2 PUSH2 0x1429 JUMP JUMPDEST SWAP1 POP SWAP2 SWAP1 POP JUMP JUMPDEST PUSH1 0x0 PUSH1 0x20 DUP3 ADD SWAP1 POP DUP2 DUP2 SUB PUSH1 0x0 DUP4 ADD MSTORE PUSH2 0x161A DUP2 PUSH2 0x144C JUMP JUMPDEST SWAP1 POP SWAP2 SWAP1 POP JUMP JUMPDEST PUSH1 0x0 PUSH1 0x20 DUP3 ADD SWAP1 POP DUP2 DUP2 SUB PUSH1 0x0 DUP4 ADD MSTORE PUSH2 0x163A DUP2 PUSH2 0x146F JUMP JUMPDEST SWAP1 POP SWAP2 SWAP1 POP JUMP JUMPDEST PUSH1 0x0 PUSH1 0x20 DUP3 ADD SWAP1 POP DUP2 DUP2 SUB PUSH1 0x0 DUP4 ADD MSTORE PUSH2 0x165A DUP2 PUSH2 0x14B5 JUMP JUMPDEST SWAP1 POP SWAP2 SWAP1 POP JUMP JUMPDEST PUSH1 0x0 PUSH1 0x20 DUP3 ADD SWAP1 POP PUSH2 0x1676 PUSH1 0x0 DUP4 ADD DUP5 PUSH2 0x14D8 JUMP JUMPDEST SWAP3 SWAP2 POP POP JUMP JUMPDEST PUSH1 0x0 PUSH2 0x1686 PUSH2 0x1697 JUMP JUMPDEST SWAP1 POP PUSH2 0x1692 DUP3 DUP3 PUSH2 0x19B1 JUMP JUMPDEST SWAP2 SWAP1 POP JUMP JUMPDEST PUSH1 0x0 PUSH1 0x40 MLOAD SWAP1 POP SWAP1 JUMP JUMPDEST PUSH1 0x0 PUSH8 0xFFFFFFFFFFFFFFFF DUP3 GT ISZERO PUSH2 0x16BC JUMPI PUSH2 0x16BB PUSH2 0x1AAA JUMP JUMPDEST JUMPDEST PUSH2 0x16C5 DUP3 PUSH2 0x1B02 JUMP JUMPDEST SWAP1 POP PUSH1 0x20 DUP2 ADD SWAP1 POP SWAP2 SWAP1 POP JUMP JUMPDEST PUSH1 0x0 PUSH8 0xFFFFFFFFFFFFFFFF DUP3 GT ISZERO PUSH2 0x16ED JUMPI PUSH2 0x16EC PUSH2 0x1AAA JUMP JUMPDEST JUMPDEST PUSH2 0x16F6 DUP3 PUSH2 0x1B02 JUMP JUMPDEST SWAP1 POP PUSH1 0x20 DUP2 ADD SWAP1 POP SWAP2 SWAP1 POP JUMP JUMPDEST PUSH1 0x0 DUP2 SWAP1 POP PUSH1 0x20 DUP3 ADD SWAP1 POP SWAP2 SWAP1 POP JUMP JUMPDEST PUSH1 0x0 DUP2 MLOAD SWAP1 POP SWAP2 SWAP1 POP JUMP JUMPDEST PUSH1 0x0 DUP2 MLOAD SWAP1 POP SWAP2 SWAP1 POP JUMP JUMPDEST PUSH1 0x0 DUP2 SWAP1 POP SWAP3 SWAP2 POP POP JUMP JUMPDEST PUSH1 0x0 DUP3 DUP3 MSTORE PUSH1 0x20 DUP3 ADD SWAP1 POP SWAP3 SWAP2 POP POP JUMP JUMPDEST PUSH1 0x0 PUSH2 0x1750 DUP3 PUSH2 0x18A2 JUMP JUMPDEST SWAP2 POP PUSH2 0x175B DUP4 PUSH2 0x18A2 JUMP JUMPDEST SWAP3 POP DUP3 PUSH32 0xFFFFFFFFFFFFFFFFFFFFFFFFFFFFFFFFFFFFFFFFFFFFFFFFFFFFFFFFFFFFFFFF SUB DUP3 GT ISZERO PUSH2 0x1790 JUMPI PUSH2 0x178F PUSH2 0x1A1D JUMP JUMPDEST JUMPDEST DUP3 DUP3 ADD SWAP1 POP SWAP3 SWAP2 POP POP JUMP JUMPDEST PUSH1 0x0 PUSH2 0x17A6 DUP3 PUSH2 0x18A2 JUMP JUMPDEST SWAP2 POP PUSH2 0x17B1 DUP4 PUSH2 0x18A2 JUMP JUMPDEST SWAP3 POP DUP3 PUSH2 0x17C1 JUMPI PUSH2 0x17C0 PUSH2 0x1A4C JUMP JUMPDEST JUMPDEST DUP3 DUP3 DIV SWAP1 POP SWAP3 SWAP2 POP POP JUMP JUMPDEST PUSH1 0x0 PUSH2 0x17D7 DUP3 PUSH2 0x18A2 JUMP JUMPDEST SWAP2 POP PUSH2 0x17E2 DUP4 PUSH2 0x18A2 JUMP JUMPDEST SWAP3 POP DUP2 PUSH32 0xFFFFFFFFFFFFFFFFFFFFFFFFFFFFFFFFFFFFFFFFFFFFFFFFFFFFFFFFFFFFFFFF DIV DUP4 GT DUP3 ISZERO ISZERO AND ISZERO PUSH2 0x181B JUMPI PUSH2 0x181A PUSH2 0x1A1D JUMP JUMPDEST JUMPDEST DUP3 DUP3 MUL SWAP1 POP SWAP3 SWAP2 POP POP JUMP JUMPDEST PUSH1 0x0 PUSH2 0x1831 DUP3 PUSH2 0x18A2 JUMP JUMPDEST SWAP2 POP PUSH2 0x183C DUP4 PUSH2 0x18A2 JUMP JUMPDEST SWAP3 POP DUP3 DUP3 LT ISZERO PUSH2 0x184F JUMPI PUSH2 0x184E PUSH2 0x1A1D JUMP JUMPDEST JUMPDEST DUP3 DUP3 SUB SWAP1 POP SWAP3 SWAP2 POP POP JUMP JUMPDEST PUSH1 0x0 PUSH2 0x1865 DUP3 PUSH2 0x1882 JUMP JUMPDEST SWAP1 POP SWAP2 SWAP1 POP JUMP JUMPDEST PUSH1 0x0 DUP2 ISZERO ISZERO SWAP1 POP SWAP2 SWAP1 POP JUMP JUMPDEST PUSH1 0x0 DUP2 SWAP1 POP SWAP2 SWAP1 POP JUMP JUMPDEST PUSH1 0x0 PUSH20 0xFFFFFFFFFFFFFFFFFFFFFFFFFFFFFFFFFFFFFFFF DUP3 AND SWAP1 POP SWAP2 SWAP1 POP JUMP JUMPDEST PUSH1 0x0 DUP2 SWAP1 POP SWAP2 SWAP1 POP JUMP JUMPDEST PUSH1 0x0 PUSH2 0x18B7 DUP3 PUSH2 0x1713 JUMP JUMPDEST DUP3 PUSH2 0x18C1 DUP5 PUSH2 0x1703 JUMP JUMPDEST SWAP1 POP PUSH2 0x18CC DUP2 PUSH2 0x1AD9 JUMP JUMPDEST SWAP3 POP PUSH1 0x20 DUP3 LT ISZERO PUSH2 0x190C JUMPI PUSH2 0x1907 PUSH32 0xFFFFFFFFFFFFFFFFFFFFFFFFFFFFFFFFFFFFFFFFFFFFFFFFFFFFFFFFFFFFFFFF DUP4 PUSH1 0x20 SUB PUSH1 0x8 MUL PUSH2 0x1B13 JUMP JUMPDEST DUP4 AND SWAP3 POP JUMPDEST POP POP SWAP2 SWAP1 POP JUMP JUMPDEST DUP3 DUP2 DUP4 CALLDATACOPY PUSH1 0x0 DUP4 DUP4 ADD MSTORE POP POP POP JUMP JUMPDEST PUSH1 0x0 JUMPDEST DUP4 DUP2 LT ISZERO PUSH2 0x1940 JUMPI DUP1 DUP3 ADD MLOAD DUP2 DUP5 ADD MSTORE PUSH1 0x20 DUP2 ADD SWAP1 POP PUSH2 0x1925 JUMP JUMPDEST DUP4 DUP2 GT ISZERO PUSH2 0x194F JUMPI PUSH1 0x0 DUP5 DUP5 ADD MSTORE JUMPDEST POP POP POP POP JUMP JUMPDEST PUSH1 0x0 PUSH2 0x1960 DUP3 PUSH2 0x18A2 JUMP JUMPDEST SWAP2 POP PUSH1 0x0 DUP3 EQ ISZERO PUSH2 0x1974 JUMPI PUSH2 0x1973 PUSH2 0x1A1D JUMP JUMPDEST JUMPDEST PUSH1 0x1 DUP3 SUB SWAP1 POP SWAP2 SWAP1 POP JUMP JUMPDEST PUSH1 0x0 PUSH1 0x2 DUP3 DIV SWAP1 POP PUSH1 0x1 DUP3 AND DUP1 PUSH2 0x1997 JUMPI PUSH1 0x7F DUP3 AND SWAP2 POP JUMPDEST PUSH1 0x20 DUP3 LT DUP2 EQ ISZERO PUSH2 0x19AB JUMPI PUSH2 0x19AA PUSH2 0x1A7B JUMP JUMPDEST JUMPDEST POP SWAP2 SWAP1 POP JUMP JUMPDEST PUSH2 0x19BA DUP3 PUSH2 0x1B02 JUMP JUMPDEST DUP2 ADD DUP2 DUP2 LT PUSH8 0xFFFFFFFFFFFFFFFF DUP3 GT OR ISZERO PUSH2 0x19D9 JUMPI PUSH2 0x19D8 PUSH2 0x1AAA JUMP JUMPDEST JUMPDEST DUP1 PUSH1 0x40 MSTORE POP POP POP JUMP JUMPDEST PUSH1 0x0 DUP2 SWAP1 POP SWAP2 SWAP1 POP JUMP JUMPDEST PUSH1 0x0 PUSH2 0x19F7 DUP3 PUSH2 0x18A2 JUMP JUMPDEST SWAP2 POP PUSH2 0x1A02 DUP4 PUSH2 0x18A2 JUMP JUMPDEST SWAP3 POP DUP3 PUSH2 0x1A12 JUMPI PUSH2 0x1A11 PUSH2 0x1A4C JUMP JUMPDEST JUMPDEST DUP3 DUP3 MOD SWAP1 POP SWAP3 SWAP2 POP POP JUMP JUMPDEST PUSH32 0x4E487B7100000000000000000000000000000000000000000000000000000000 PUSH1 0x0 MSTORE PUSH1 0x11 PUSH1 0x4 MSTORE PUSH1 0x24 PUSH1 0x0 REVERT JUMPDEST PUSH32 0x4E487B7100000000000000000000000000000000000000000000000000000000 PUSH1 0x0 MSTORE PUSH1 0x12 PUSH1 0x4 MSTORE PUSH1 0x24 PUSH1 0x0 REVERT JUMPDEST PUSH32 0x4E487B7100000000000000000000000000000000000000000000000000000000 PUSH1 0x0 MSTORE PUSH1 0x22 PUSH1 0x4 MSTORE PUSH1 0x24 PUSH1 0x0 REVERT JUMPDEST PUSH32 0x4E487B7100000000000000000000000000000000000000000000000000000000 PUSH1 0x0 MSTORE PUSH1 0x41 PUSH1 0x4 MSTORE PUSH1 0x24 PUSH1 0x0 REVERT JUMPDEST PUSH1 0x0 PUSH2 0x1AE5 DUP3 MLOAD PUSH2 0x1878 JUMP JUMPDEST DUP1 SWAP2 POP POP SWAP2 SWAP1 POP JUMP JUMPDEST PUSH1 0x0 DUP1 REVERT JUMPDEST PUSH1 0x0 DUP1 REVERT JUMPDEST PUSH1 0x0 DUP1 REVERT JUMPDEST PUSH1 0x0 DUP1 REVERT JUMPDEST PUSH1 0x0 PUSH1 0x1F NOT PUSH1 0x1F DUP4 ADD AND SWAP1 POP SWAP2 SWAP1 POP JUMP JUMPDEST PUSH1 0x0 DUP3 DUP3 SHL SWAP1 POP SWAP3 SWAP2 POP POP JUMP JUMPDEST PUSH32 0x62616C616E6365206572726F7200000000000000000000000000000000000000 PUSH1 0x0 DUP3 ADD MSTORE POP JUMP JUMPDEST PUSH32 0x575F6B6320697320696E636F7272656374000000000000000000000000000000 PUSH1 0x0 DUP3 ADD MSTORE POP JUMP JUMPDEST PUSH32 0x54696D65206572726F7200000000000000000000000000000000000000000000 PUSH1 0x0 DUP3 ADD MSTORE POP JUMP JUMPDEST PUSH32 0x6B203C3D206A0000000000000000000000000000000000000000000000000000 PUSH1 0x0 DUP3 ADD MSTORE POP JUMP JUMPDEST PUSH32 0x4F6E6C7920637573746F6D6572206F66207468652064656C6976657279206361 PUSH1 0x0 DUP3 ADD MSTORE PUSH32 0x6E2073657420746865206368616E6E656C20706172616D732E00000000000000 PUSH1 0x20 DUP3 ADD MSTORE POP JUMP JUMPDEST POP JUMP JUMPDEST PUSH32 0x575F6B6D20697320696E636F7272656374000000000000000000000000000000 PUSH1 0x0 DUP3 ADD MSTORE POP JUMP JUMPDEST PUSH2 0x1C48 DUP2 PUSH2 0x185A JUMP JUMPDEST DUP2 EQ PUSH2 0x1C53 JUMPI PUSH1 0x0 DUP1 REVERT JUMPDEST POP JUMP JUMPDEST PUSH2 0x1C5F DUP2 PUSH2 0x1878 JUMP JUMPDEST DUP2 EQ PUSH2 0x1C6A JUMPI PUSH1 0x0 DUP1 REVERT JUMPDEST POP JUMP JUMPDEST PUSH2 0x1C76 DUP2 PUSH2 0x18A2 JUMP JUMPDEST DUP2 EQ PUSH2 0x1C81 JUMPI PUSH1 0x0 DUP1 REVERT JUMPDEST POP JUMP INVALID LOG2 PUSH5 0x6970667358 0x22 SLT KECCAK256 0x4D 0xCB OR 0xBA 0xB0 GASLIMIT DUP7 0xBA 0xC6 MSTORE8 0xE1 SHL 0xE4 PUSH11 0x6040685A34739BEBE0FAF PUSH26 0x5464A073EC9364736F6C63430008070033000000000000000000 "
		},
		"gasEstimates": {
			"creation": {
				"codeDepositCost": "1470800",
				"executionCost": "25801",
				"totalCost": "1496601"
			},
			"external": {
				"": "197",
				"S_id()": "infinite",
				"TD()": "2474",
				"TR()": "2519",
				"T_exp()": "2517",
				"W_jc()": "2474",
				"W_jm()": "2452",
				"c()": "2451",
				"channelClose()": "infinite",
				"customer()": "2582",
				"initialize(uint256,uint256,address)": "infinite",
				"initialize(uint256,uint256,address,bytes32,bytes32,string,uint256,uint256,uint256)": "infinite",
				"isBase()": "2560",
				"j()": "2518",
				"setChannelParams(bytes32,bytes32,string,uint256,uint256,uint256,uint256,uint256)": "infinite",
				"transferDeposit(bytes,bytes,uint256,address)": "infinite",
				"v()": "2496"
			}
		},
		"methodIdentifiers": {
			"S_id()": "24763493",
			"TD()": "9c21a9b8",
			"TR()": "34133df9",
			"T_exp()": "f493e870",
			"W_jc()": "5e650318",
			"W_jm()": "88bf1930",
			"c()": "c3da42b8",
			"channelClose()": "0482ff76",
			"customer()": "2804b2c0",
			"initialize(uint256,uint256,address)": "a6ab36f2",
			"initialize(uint256,uint256,address,bytes32,bytes32,string,uint256,uint256,uint256)": "50b1ad6b",
			"isBase()": "7f80069a",
			"j()": "b582ec5f",
			"setChannelParams(bytes32,bytes32,string,uint256,uint256,uint256,uint256,uint256)": "e8de68cc",
			"transferDeposit(bytes,bytes,uint256,address)": "d8befbb6",
			"v()": "7c2efcba"
		}
	},
	"abi": [
		{
			"inputs": [],
			"stateMutability": "nonpayable",
			"type": "constructor"
		},
		{
			"stateMutability": "payable",
			"type": "fallback"
		},
		{
			"inputs": [],
			"name": "S_id",
			"outputs": [
				{
					"internalType": "string",
					"name": "",
					"type": "string"
				}
			],
			"stateMutability": "view",
			"type": "function"
		},
		{
			"inputs": [],
			"name": "TD",
			"outputs": [
				{
					"internalType": "uint256",
					"name": "",
					"type": "uint256"
				}
			],
			"stateMutability": "view",
			"type": "function"
		},
		{
			"inputs": [],
			"name": "TR",
			"outputs": [
				{
					"internalType": "uint256",
					"name": "",
					"type": "uint256"
				}
			],
			"stateMutability": "view",
			"type": "function"
		},
		{
			"inputs": [],
			"name": "T_exp",
			"outputs": [
				{
					"internalType": "uint256",
					"name": "",
					"type": "uint256"
				}
			],
			"stateMutability": "view",
			"type": "function"
		},
		{
			"inputs": [],
			"name": "W_jc",
			"outputs": [
				{
					"internalType": "bytes32",
					"name": "",
					"type": "bytes32"
				}
			],
			"stateMutability": "view",
			"type": "function"
		},
		{
			"inputs": [],
			"name": "W_jm",
			"outputs": [
				{
					"internalType": "bytes32",
					"name": "",
					"type": "bytes32"
				}
			],
			"stateMutability": "view",
			"type": "function"
		},
		{
			"inputs": [],
			"name": "c",
			"outputs": [
				{
					"internalType": "uint256",
					"name": "",
					"type": "uint256"
				}
			],
			"stateMutability": "view",
			"type": "function"
		},
		{
			"inputs": [],
			"name": "channelClose",
			"outputs": [],
			"stateMutability": "payable",
			"type": "function"
		},
		{
			"inputs": [],
			"name": "customer",
			"outputs": [
				{
					"internalType": "address",
					"name": "",
					"type": "address"
				}
			],
			"stateMutability": "view",
			"type": "function"
		},
		{
			"inputs": [
				{
					"internalType": "uint256",
					"name": "_c",
					"type": "uint256"
				},
				{
					"internalType": "uint256",
					"name": "_v",
					"type": "uint256"
				},
				{
					"internalType": "address",
					"name": "_customer",
					"type": "address"
				},
				{
					"internalType": "bytes32",
					"name": "_W_jm",
					"type": "bytes32"
				},
				{
					"internalType": "bytes32",
					"name": "_W_jc",
					"type": "bytes32"
				},
				{
					"internalType": "string",
					"name": "_S_id",
					"type": "string"
				},
				{
					"internalType": "uint256",
					"name": "_T_exp",
					"type": "uint256"
				},
				{
					"internalType": "uint256",
					"name": "_TD",
					"type": "uint256"
				},
				{
					"internalType": "uint256",
					"name": "_TR",
					"type": "uint256"
				}
			],
			"name": "initialize",
			"outputs": [],
			"stateMutability": "payable",
			"type": "function"
		},
		{
			"inputs": [
				{
					"internalType": "uint256",
					"name": "_c",
					"type": "uint256"
				},
				{
					"internalType": "uint256",
					"name": "_v",
					"type": "uint256"
				},
				{
					"internalType": "address",
					"name": "_customer",
					"type": "address"
				}
			],
			"name": "initialize",
			"outputs": [],
			"stateMutability": "payable",
			"type": "function"
		},
		{
			"inputs": [],
			"name": "isBase",
			"outputs": [
				{
					"internalType": "bool",
					"name": "",
					"type": "bool"
				}
			],
			"stateMutability": "view",
			"type": "function"
		},
		{
			"inputs": [],
			"name": "j",
			"outputs": [
				{
					"internalType": "uint256",
					"name": "",
					"type": "uint256"
				}
			],
			"stateMutability": "view",
			"type": "function"
		},
		{
			"inputs": [
				{
					"internalType": "bytes32",
					"name": "_W_jm",
					"type": "bytes32"
				},
				{
					"internalType": "bytes32",
					"name": "_W_jc",
					"type": "bytes32"
				},
				{
					"internalType": "string",
					"name": "_S_id",
					"type": "string"
				},
				{
					"internalType": "uint256",
					"name": "_c",
					"type": "uint256"
				},
				{
					"internalType": "uint256",
					"name": "_v",
					"type": "uint256"
				},
				{
					"internalType": "uint256",
					"name": "_T_exp",
					"type": "uint256"
				},
				{
					"internalType": "uint256",
					"name": "_TD",
					"type": "uint256"
				},
				{
					"internalType": "uint256",
					"name": "_TR",
					"type": "uint256"
				}
			],
			"name": "setChannelParams",
			"outputs": [],
			"stateMutability": "nonpayable",
			"type": "function"
		},
		{
			"inputs": [
				{
					"internalType": "bytes",
					"name": "_W_km",
					"type": "bytes"
				},
				{
					"internalType": "bytes",
					"name": "_W_kc",
					"type": "bytes"
				},
				{
					"internalType": "uint256",
					"name": "k",
					"type": "uint256"
				},
				{
					"internalType": "address",
					"name": "newChannelAddress",
					"type": "address"
				}
			],
			"name": "transferDeposit",
			"outputs": [],
			"stateMutability": "nonpayable",
			"type": "function"
		},
		{
			"inputs": [],
			"name": "v",
			"outputs": [
				{
					"internalType": "uint256",
					"name": "",
					"type": "uint256"
				}
			],
			"stateMutability": "view",
			"type": "function"
		},
		{
			"stateMutability": "payable",
			"type": "receive"
		}
	]
}