{
	"data": {
		"bytecode": {
			"linkReferences": {},
			"object": "60806040526040516200186f3803806200186f833981810160405281019062000029919062000244565b80600160006101000a81548173ffffffffffffffffffffffffffffffffffffffff021916908373ffffffffffffffffffffffffffffffffffffffff160217905550600080819055508860028190555087600381905550866004908051906020019062000097929190620000d1565b50856005819055508460068190555042600a819055508360078190555082600881905550816009819055505050505050505050506200055c565b828054620000df906200041f565b90600052602060002090601f0160209004810192826200010357600085556200014f565b82601f106200011e57805160ff19168380011785556200014f565b828001600101855582156200014f579182015b828111156200014e57825182559160200191906001019062000131565b5b5090506200015e919062000162565b5090565b5b808211156200017d57600081600090555060010162000163565b5090565b60006200019862000192846200036b565b62000342565b905082815260208101848484011115620001b757620001b6620004ee565b5b620001c4848285620003e9565b509392505050565b600081519050620001dd816200050e565b92915050565b600081519050620001f48162000528565b92915050565b600082601f830112620002125762000211620004e9565b5b81516200022484826020860162000181565b91505092915050565b6000815190506200023e8162000542565b92915050565b60008060008060008060008060006101208a8c0312156200026a5762000269620004f8565b5b60006200027a8c828d01620001e3565b99505060206200028d8c828d01620001e3565b98505060408a015167ffffffffffffffff811115620002b157620002b0620004f3565b5b620002bf8c828d01620001fa565b9750506060620002d28c828d016200022d565b9650506080620002e58c828d016200022d565b95505060a0620002f88c828d016200022d565b94505060c06200030b8c828d016200022d565b93505060e06200031e8c828d016200022d565b925050610100620003328c828d01620001cc565b9150509295985092959850929598565b60006200034e62000361565b90506200035c828262000455565b919050565b6000604051905090565b600067ffffffffffffffff821115620003895762000388620004ba565b5b6200039482620004fd565b9050602081019050919050565b6000620003ae82620003bf565b9050919050565b6000819050919050565b600073ffffffffffffffffffffffffffffffffffffffff82169050919050565b6000819050919050565b60005b8381101562000409578082015181840152602081019050620003ec565b8381111562000419576000848401525b50505050565b600060028204905060018216806200043857607f821691505b602082108114156200044f576200044e6200048b565b5b50919050565b6200046082620004fd565b810181811067ffffffffffffffff82111715620004825762000481620004ba565b5b80604052505050565b7f4e487b7100000000000000000000000000000000000000000000000000000000600052602260045260246000fd5b7f4e487b7100000000000000000000000000000000000000000000000000000000600052604160045260246000fd5b600080fd5b600080fd5b600080fd5b600080fd5b6000601f19601f8301169050919050565b6200051981620003a1565b81146200052557600080fd5b50565b6200053381620003b5565b81146200053f57600080fd5b50565b6200054d81620003df565b81146200055957600080fd5b50565b611303806200056c6000396000f3fe6080604052600436106100e15760003560e01c806388bf19301161007f578063be9a655511610059578063be9a655514610285578063c3da42b8146102b0578063d8befbb6146102db578063f493e87014610304576100ef565b806388bf1930146102045780639c21a9b81461022f578063b582ec5f1461025a576100ef565b80635e650318116100bb5780635e650318146101585780637c2efcba146101835780638182a11f146101ae57806381a4a5f9146101d9576100ef565b80630482ff76146100f8578063247634931461010257806334133df91461012d576100ef565b366100ef5747600581905550005b47600581905550005b61010061032f565b005b34801561010e57600080fd5b506101176103f3565b6040516101249190610c4e565b60405180910390f35b34801561013957600080fd5b50610142610481565b60405161014f9190610d10565b60405180910390f35b34801561016457600080fd5b5061016d610487565b60405161017a9190610c33565b60405180910390f35b34801561018f57600080fd5b5061019861048d565b6040516101a59190610d10565b60405180910390f35b3480156101ba57600080fd5b506101c3610493565b6040516101d09190610d10565b60405180910390f35b3480156101e557600080fd5b506101ee61049b565b6040516101fb9190610c18565b60405180910390f35b34801561021057600080fd5b506102196104c1565b6040516102269190610c33565b60405180910390f35b34801561023b57600080fd5b506102446104c7565b6040516102519190610d10565b60405180910390f35b34801561026657600080fd5b5061026f6104cd565b60405161027c9190610d10565b60405180910390f35b34801561029157600080fd5b5061029a6104d3565b6040516102a79190610d10565b60405180910390f35b3480156102bc57600080fd5b506102c56104d9565b6040516102d29190610d10565b60405180910390f35b3480156102e757600080fd5b5061030260048036038101906102fd91906109b2565b6104df565b005b34801561031057600080fd5b506103196108d0565b6040516103269190610d10565b60405180910390f35b600160009054906101000a900473ffffffffffffffffffffffffffffffffffffffff1673ffffffffffffffffffffffffffffffffffffffff163373ffffffffffffffffffffffffffffffffffffffff16146103bf576040517f08c379a00000000000000000000000000000000000000000000000000000000081526004016103b690610c70565b60405180910390fd5b426008546007546103d09190610dc3565b106103da57600080fd5b3373ffffffffffffffffffffffffffffffffffffffff16ff5b6004805461040090610ff1565b80601f016020809104026020016040519081016040528092919081815260200182805461042c90610ff1565b80156104795780601f1061044e57610100808354040283529160200191610479565b820191906000526020600020905b81548152906001019060200180831161045c57829003601f168201915b505050505081565b60095481565b60035481565b60065481565b600042905090565b600160009054906101000a900473ffffffffffffffffffffffffffffffffffffffff1681565b60025481565b60085481565b60005481565b600a5481565b60055481565b6008546007546104ef9190610dc3565b4210610530576040517f08c379a000000000000000000000000000000000000000000000000000000000815260040161052790610cb0565b60405180910390fd5b6000548211610574576040517f08c379a000000000000000000000000000000000000000000000000000000000815260040161056b90610cd0565b60405180910390fd5b6000808561058190610f1e565b905060008561058f90610f1e565b905060008054866105a09190610ea4565b90505b600081146106a0576002836040516020016105be9190610bd1565b6040516020818303038152906040526040516105da9190610bec565b602060405180830381855afa1580156105f7573d6000803e3d6000fd5b5050506040513d601f19601f8201168201806040525081019061061a9190610985565b925060028260405160200161062f9190610bd1565b60405160208183030381529060405260405161064b9190610bec565b602060405180830381855afa158015610668573d6000803e3d6000fd5b5050506040513d601f19601f8201168201806040525081019061068b9190610985565b9150808061069890610fc7565b9150506105a3565b82600254146106e4576040517f08c379a00000000000000000000000000000000000000000000000000000000081526004016106db90610cf0565b60405180910390fd5b8160035414610728576040517f08c379a000000000000000000000000000000000000000000000000000000000815260040161071f90610c90565b60405180910390fd5b6000600287610737919061105e565b141561075e5760026000548761074d9190610ea4565b6107579190610e19565b9350610787565b60026001600054886107709190610ea4565b61077a9190610ea4565b6107849190610e19565b93505b600073ffffffffffffffffffffffffffffffffffffffff168573ffffffffffffffffffffffffffffffffffffffff1614610836578473ffffffffffffffffffffffffffffffffffffffff16600654856107e09190610e4a565b6040516107ec90610c03565b60006040518083038185875af1925050503d8060008114610829576040519150601f19603f3d011682016040523d82523d6000602084013e61082e565b606091505b50505061088b565b3373ffffffffffffffffffffffffffffffffffffffff166108fc6006548661085e9190610e4a565b9081150290604051600060405180830381858888f19350505050158015610889573d6000803e3d6000fd5b505b836005546108999190610ea4565b60058190555085600081905550876108b090610f1e565b600281905550866108c090610f1e565b6003819055505050505050505050565b60075481565b60006108e96108e484610d50565b610d2b565b90508281526020810184848401111561090557610904611165565b5b610910848285610f85565b509392505050565b60008135905061092781611288565b92915050565b60008151905061093c8161129f565b92915050565b600082601f83011261095757610956611160565b5b81356109678482602086016108d6565b91505092915050565b60008135905061097f816112b6565b92915050565b60006020828403121561099b5761099a61116f565b5b60006109a98482850161092d565b91505092915050565b600080600080608085870312156109cc576109cb61116f565b5b600085013567ffffffffffffffff8111156109ea576109e961116a565b5b6109f687828801610942565b945050602085013567ffffffffffffffff811115610a1757610a1661116a565b5b610a2387828801610942565b9350506040610a3487828801610970565b9250506060610a4587828801610918565b91505092959194509250565b610a5a81610ed8565b82525050565b610a6981610eea565b82525050565b610a80610a7b82610eea565b611054565b82525050565b6000610a9182610d91565b610a9b8185610da7565b9350610aab818560208601610f94565b80840191505092915050565b6000610ac282610d9c565b610acc8185610db2565b9350610adc818560208601610f94565b610ae581611174565b840191505092915050565b6000610afd603983610db2565b9150610b0882611192565b604082019050919050565b6000610b20601183610db2565b9150610b2b826111e1565b602082019050919050565b6000610b43600a83610db2565b9150610b4e8261120a565b602082019050919050565b6000610b66600683610db2565b9150610b7182611233565b602082019050919050565b6000610b89600083610da7565b9150610b948261125c565b600082019050919050565b6000610bac601183610db2565b9150610bb78261125f565b602082019050919050565b610bcb81610f14565b82525050565b6000610bdd8284610a6f565b60208201915081905092915050565b6000610bf88284610a86565b915081905092915050565b6000610c0e82610b7c565b9150819050919050565b6000602082019050610c2d6000830184610a51565b92915050565b6000602082019050610c486000830184610a60565b92915050565b60006020820190508181036000830152610c688184610ab7565b905092915050565b60006020820190508181036000830152610c8981610af0565b9050919050565b60006020820190508181036000830152610ca981610b13565b9050919050565b60006020820190508181036000830152610cc981610b36565b9050919050565b60006020820190508181036000830152610ce981610b59565b9050919050565b60006020820190508181036000830152610d0981610b9f565b9050919050565b6000602082019050610d256000830184610bc2565b92915050565b6000610d35610d46565b9050610d418282611023565b919050565b6000604051905090565b600067ffffffffffffffff821115610d6b57610d6a61111c565b5b610d7482611174565b9050602081019050919050565b6000819050602082019050919050565b600081519050919050565b600081519050919050565b600081905092915050565b600082825260208201905092915050565b6000610dce82610f14565b9150610dd983610f14565b9250827fffffffffffffffffffffffffffffffffffffffffffffffffffffffffffffffff03821115610e0e57610e0d61108f565b5b828201905092915050565b6000610e2482610f14565b9150610e2f83610f14565b925082610e3f57610e3e6110be565b5b828204905092915050565b6000610e5582610f14565b9150610e6083610f14565b9250817fffffffffffffffffffffffffffffffffffffffffffffffffffffffffffffffff0483118215151615610e9957610e9861108f565b5b828202905092915050565b6000610eaf82610f14565b9150610eba83610f14565b925082821015610ecd57610ecc61108f565b5b828203905092915050565b6000610ee382610ef4565b9050919050565b6000819050919050565b600073ffffffffffffffffffffffffffffffffffffffff82169050919050565b6000819050919050565b6000610f2982610d91565b82610f3384610d81565b9050610f3e8161114b565b92506020821015610f7e57610f797fffffffffffffffffffffffffffffffffffffffffffffffffffffffffffffffff83602003600802611185565b831692505b5050919050565b82818337600083830152505050565b60005b83811015610fb2578082015181840152602081019050610f97565b83811115610fc1576000848401525b50505050565b6000610fd282610f14565b91506000821415610fe657610fe561108f565b5b600182039050919050565b6000600282049050600182168061100957607f821691505b6020821081141561101d5761101c6110ed565b5b50919050565b61102c82611174565b810181811067ffffffffffffffff8211171561104b5761104a61111c565b5b80604052505050565b6000819050919050565b600061106982610f14565b915061107483610f14565b925082611084576110836110be565b5b828206905092915050565b7f4e487b7100000000000000000000000000000000000000000000000000000000600052601160045260246000fd5b7f4e487b7100000000000000000000000000000000000000000000000000000000600052601260045260246000fd5b7f4e487b7100000000000000000000000000000000000000000000000000000000600052602260045260246000fd5b7f4e487b7100000000000000000000000000000000000000000000000000000000600052604160045260246000fd5b60006111578251610eea565b80915050919050565b600080fd5b600080fd5b600080fd5b600080fd5b6000601f19601f8301169050919050565b600082821b905092915050565b7f4f6e6c79206d65726368616e74206f66207468652064656c697665727920636160008201527f6e2073657420746865206368616e6e656c20706172616d732e00000000000000602082015250565b7f575f6b6320697320696e636f7272656374000000000000000000000000000000600082015250565b7f54696d65206572726f7200000000000000000000000000000000000000000000600082015250565b7f6b203c3d206a0000000000000000000000000000000000000000000000000000600082015250565b50565b7f575f6b6d20697320696e636f7272656374000000000000000000000000000000600082015250565b61129181610ed8565b811461129c57600080fd5b50565b6112a881610eea565b81146112b357600080fd5b50565b6112bf81610f14565b81146112ca57600080fd5b5056fea264697066735822122046380febd1feef3fb3c83e9bca15404b54cd511c232136d65a9df155abffcb1264736f6c63430008070033",
			"opcodes": "PUSH1 0x80 PUSH1 0x40 MSTORE PUSH1 0x40 MLOAD PUSH3 0x186F CODESIZE SUB DUP1 PUSH3 0x186F DUP4 CODECOPY DUP2 DUP2 ADD PUSH1 0x40 MSTORE DUP2 ADD SWAP1 PUSH3 0x29 SWAP2 SWAP1 PUSH3 0x244 JUMP JUMPDEST DUP1 PUSH1 0x1 PUSH1 0x0 PUSH2 0x100 EXP DUP2 SLOAD DUP2 PUSH20 0xFFFFFFFFFFFFFFFFFFFFFFFFFFFFFFFFFFFFFFFF MUL NOT AND SWAP1 DUP4 PUSH20 0xFFFFFFFFFFFFFFFFFFFFFFFFFFFFFFFFFFFFFFFF AND MUL OR SWAP1 SSTORE POP PUSH1 0x0 DUP1 DUP2 SWAP1 SSTORE POP DUP9 PUSH1 0x2 DUP2 SWAP1 SSTORE POP DUP8 PUSH1 0x3 DUP2 SWAP1 SSTORE POP DUP7 PUSH1 0x4 SWAP1 DUP1 MLOAD SWAP1 PUSH1 0x20 ADD SWAP1 PUSH3 0x97 SWAP3 SWAP2 SWAP1 PUSH3 0xD1 JUMP JUMPDEST POP DUP6 PUSH1 0x5 DUP2 SWAP1 SSTORE POP DUP5 PUSH1 0x6 DUP2 SWAP1 SSTORE POP TIMESTAMP PUSH1 0xA DUP2 SWAP1 SSTORE POP DUP4 PUSH1 0x7 DUP2 SWAP1 SSTORE POP DUP3 PUSH1 0x8 DUP2 SWAP1 SSTORE POP DUP2 PUSH1 0x9 DUP2 SWAP1 SSTORE POP POP POP POP POP POP POP POP POP POP PUSH3 0x55C JUMP JUMPDEST DUP3 DUP1 SLOAD PUSH3 0xDF SWAP1 PUSH3 0x41F JUMP JUMPDEST SWAP1 PUSH1 0x0 MSTORE PUSH1 0x20 PUSH1 0x0 KECCAK256 SWAP1 PUSH1 0x1F ADD PUSH1 0x20 SWAP1 DIV DUP2 ADD SWAP3 DUP3 PUSH3 0x103 JUMPI PUSH1 0x0 DUP6 SSTORE PUSH3 0x14F JUMP JUMPDEST DUP3 PUSH1 0x1F LT PUSH3 0x11E JUMPI DUP1 MLOAD PUSH1 0xFF NOT AND DUP4 DUP1 ADD OR DUP6 SSTORE PUSH3 0x14F JUMP JUMPDEST DUP3 DUP1 ADD PUSH1 0x1 ADD DUP6 SSTORE DUP3 ISZERO PUSH3 0x14F JUMPI SWAP2 DUP3 ADD JUMPDEST DUP3 DUP2 GT ISZERO PUSH3 0x14E JUMPI DUP3 MLOAD DUP3 SSTORE SWAP2 PUSH1 0x20 ADD SWAP2 SWAP1 PUSH1 0x1 ADD SWAP1 PUSH3 0x131 JUMP JUMPDEST JUMPDEST POP SWAP1 POP PUSH3 0x15E SWAP2 SWAP1 PUSH3 0x162 JUMP JUMPDEST POP SWAP1 JUMP JUMPDEST JUMPDEST DUP1 DUP3 GT ISZERO PUSH3 0x17D JUMPI PUSH1 0x0 DUP2 PUSH1 0x0 SWAP1 SSTORE POP PUSH1 0x1 ADD PUSH3 0x163 JUMP JUMPDEST POP SWAP1 JUMP JUMPDEST PUSH1 0x0 PUSH3 0x198 PUSH3 0x192 DUP5 PUSH3 0x36B JUMP JUMPDEST PUSH3 0x342 JUMP JUMPDEST SWAP1 POP DUP3 DUP2 MSTORE PUSH1 0x20 DUP2 ADD DUP5 DUP5 DUP5 ADD GT ISZERO PUSH3 0x1B7 JUMPI PUSH3 0x1B6 PUSH3 0x4EE JUMP JUMPDEST JUMPDEST PUSH3 0x1C4 DUP5 DUP3 DUP6 PUSH3 0x3E9 JUMP JUMPDEST POP SWAP4 SWAP3 POP POP POP JUMP JUMPDEST PUSH1 0x0 DUP2 MLOAD SWAP1 POP PUSH3 0x1DD DUP2 PUSH3 0x50E JUMP JUMPDEST SWAP3 SWAP2 POP POP JUMP JUMPDEST PUSH1 0x0 DUP2 MLOAD SWAP1 POP PUSH3 0x1F4 DUP2 PUSH3 0x528 JUMP JUMPDEST SWAP3 SWAP2 POP POP JUMP JUMPDEST PUSH1 0x0 DUP3 PUSH1 0x1F DUP4 ADD SLT PUSH3 0x212 JUMPI PUSH3 0x211 PUSH3 0x4E9 JUMP JUMPDEST JUMPDEST DUP2 MLOAD PUSH3 0x224 DUP5 DUP3 PUSH1 0x20 DUP7 ADD PUSH3 0x181 JUMP JUMPDEST SWAP2 POP POP SWAP3 SWAP2 POP POP JUMP JUMPDEST PUSH1 0x0 DUP2 MLOAD SWAP1 POP PUSH3 0x23E DUP2 PUSH3 0x542 JUMP JUMPDEST SWAP3 SWAP2 POP POP JUMP JUMPDEST PUSH1 0x0 DUP1 PUSH1 0x0 DUP1 PUSH1 0x0 DUP1 PUSH1 0x0 DUP1 PUSH1 0x0 PUSH2 0x120 DUP11 DUP13 SUB SLT ISZERO PUSH3 0x26A JUMPI PUSH3 0x269 PUSH3 0x4F8 JUMP JUMPDEST JUMPDEST PUSH1 0x0 PUSH3 0x27A DUP13 DUP3 DUP14 ADD PUSH3 0x1E3 JUMP JUMPDEST SWAP10 POP POP PUSH1 0x20 PUSH3 0x28D DUP13 DUP3 DUP14 ADD PUSH3 0x1E3 JUMP JUMPDEST SWAP9 POP POP PUSH1 0x40 DUP11 ADD MLOAD PUSH8 0xFFFFFFFFFFFFFFFF DUP2 GT ISZERO PUSH3 0x2B1 JUMPI PUSH3 0x2B0 PUSH3 0x4F3 JUMP JUMPDEST JUMPDEST PUSH3 0x2BF DUP13 DUP3 DUP14 ADD PUSH3 0x1FA JUMP JUMPDEST SWAP8 POP POP PUSH1 0x60 PUSH3 0x2D2 DUP13 DUP3 DUP14 ADD PUSH3 0x22D JUMP JUMPDEST SWAP7 POP POP PUSH1 0x80 PUSH3 0x2E5 DUP13 DUP3 DUP14 ADD PUSH3 0x22D JUMP JUMPDEST SWAP6 POP POP PUSH1 0xA0 PUSH3 0x2F8 DUP13 DUP3 DUP14 ADD PUSH3 0x22D JUMP JUMPDEST SWAP5 POP POP PUSH1 0xC0 PUSH3 0x30B DUP13 DUP3 DUP14 ADD PUSH3 0x22D JUMP JUMPDEST SWAP4 POP POP PUSH1 0xE0 PUSH3 0x31E DUP13 DUP3 DUP14 ADD PUSH3 0x22D JUMP JUMPDEST SWAP3 POP POP PUSH2 0x100 PUSH3 0x332 DUP13 DUP3 DUP14 ADD PUSH3 0x1CC JUMP JUMPDEST SWAP2 POP POP SWAP3 SWAP6 SWAP9 POP SWAP3 SWAP6 SWAP9 POP SWAP3 SWAP6 SWAP9 JUMP JUMPDEST PUSH1 0x0 PUSH3 0x34E PUSH3 0x361 JUMP JUMPDEST SWAP1 POP PUSH3 0x35C DUP3 DUP3 PUSH3 0x455 JUMP JUMPDEST SWAP2 SWAP1 POP JUMP JUMPDEST PUSH1 0x0 PUSH1 0x40 MLOAD SWAP1 POP SWAP1 JUMP JUMPDEST PUSH1 0x0 PUSH8 0xFFFFFFFFFFFFFFFF DUP3 GT ISZERO PUSH3 0x389 JUMPI PUSH3 0x388 PUSH3 0x4BA JUMP JUMPDEST JUMPDEST PUSH3 0x394 DUP3 PUSH3 0x4FD JUMP JUMPDEST SWAP1 POP PUSH1 0x20 DUP2 ADD SWAP1 POP SWAP2 SWAP1 POP JUMP JUMPDEST PUSH1 0x0 PUSH3 0x3AE DUP3 PUSH3 0x3BF JUMP JUMPDEST SWAP1 POP SWAP2 SWAP1 POP JUMP JUMPDEST PUSH1 0x0 DUP2 SWAP1 POP SWAP2 SWAP1 POP JUMP JUMPDEST PUSH1 0x0 PUSH20 0xFFFFFFFFFFFFFFFFFFFFFFFFFFFFFFFFFFFFFFFF DUP3 AND SWAP1 POP SWAP2 SWAP1 POP JUMP JUMPDEST PUSH1 0x0 DUP2 SWAP1 POP SWAP2 SWAP1 POP JUMP JUMPDEST PUSH1 0x0 JUMPDEST DUP4 DUP2 LT ISZERO PUSH3 0x409 JUMPI DUP1 DUP3 ADD MLOAD DUP2 DUP5 ADD MSTORE PUSH1 0x20 DUP2 ADD SWAP1 POP PUSH3 0x3EC JUMP JUMPDEST DUP4 DUP2 GT ISZERO PUSH3 0x419 JUMPI PUSH1 0x0 DUP5 DUP5 ADD MSTORE JUMPDEST POP POP POP POP JUMP JUMPDEST PUSH1 0x0 PUSH1 0x2 DUP3 DIV SWAP1 POP PUSH1 0x1 DUP3 AND DUP1 PUSH3 0x438 JUMPI PUSH1 0x7F DUP3 AND SWAP2 POP JUMPDEST PUSH1 0x20 DUP3 LT DUP2 EQ ISZERO PUSH3 0x44F JUMPI PUSH3 0x44E PUSH3 0x48B JUMP JUMPDEST JUMPDEST POP SWAP2 SWAP1 POP JUMP JUMPDEST PUSH3 0x460 DUP3 PUSH3 0x4FD JUMP JUMPDEST DUP2 ADD DUP2 DUP2 LT PUSH8 0xFFFFFFFFFFFFFFFF DUP3 GT OR ISZERO PUSH3 0x482 JUMPI PUSH3 0x481 PUSH3 0x4BA JUMP JUMPDEST JUMPDEST DUP1 PUSH1 0x40 MSTORE POP POP POP JUMP JUMPDEST PUSH32 0x4E487B7100000000000000000000000000000000000000000000000000000000 PUSH1 0x0 MSTORE PUSH1 0x22 PUSH1 0x4 MSTORE PUSH1 0x24 PUSH1 0x0 REVERT JUMPDEST PUSH32 0x4E487B7100000000000000000000000000000000000000000000000000000000 PUSH1 0x0 MSTORE PUSH1 0x41 PUSH1 0x4 MSTORE PUSH1 0x24 PUSH1 0x0 REVERT JUMPDEST PUSH1 0x0 DUP1 REVERT JUMPDEST PUSH1 0x0 DUP1 REVERT JUMPDEST PUSH1 0x0 DUP1 REVERT JUMPDEST PUSH1 0x0 DUP1 REVERT JUMPDEST PUSH1 0x0 PUSH1 0x1F NOT PUSH1 0x1F DUP4 ADD AND SWAP1 POP SWAP2 SWAP1 POP JUMP JUMPDEST PUSH3 0x519 DUP2 PUSH3 0x3A1 JUMP JUMPDEST DUP2 EQ PUSH3 0x525 JUMPI PUSH1 0x0 DUP1 REVERT JUMPDEST POP JUMP JUMPDEST PUSH3 0x533 DUP2 PUSH3 0x3B5 JUMP JUMPDEST DUP2 EQ PUSH3 0x53F JUMPI PUSH1 0x0 DUP1 REVERT JUMPDEST POP JUMP JUMPDEST PUSH3 0x54D DUP2 PUSH3 0x3DF JUMP JUMPDEST DUP2 EQ PUSH3 0x559 JUMPI PUSH1 0x0 DUP1 REVERT JUMPDEST POP JUMP JUMPDEST PUSH2 0x1303 DUP1 PUSH3 0x56C PUSH1 0x0 CODECOPY PUSH1 0x0 RETURN INVALID PUSH1 0x80 PUSH1 0x40 MSTORE PUSH1 0x4 CALLDATASIZE LT PUSH2 0xE1 JUMPI PUSH1 0x0 CALLDATALOAD PUSH1 0xE0 SHR DUP1 PUSH4 0x88BF1930 GT PUSH2 0x7F JUMPI DUP1 PUSH4 0xBE9A6555 GT PUSH2 0x59 JUMPI DUP1 PUSH4 0xBE9A6555 EQ PUSH2 0x285 JUMPI DUP1 PUSH4 0xC3DA42B8 EQ PUSH2 0x2B0 JUMPI DUP1 PUSH4 0xD8BEFBB6 EQ PUSH2 0x2DB JUMPI DUP1 PUSH4 0xF493E870 EQ PUSH2 0x304 JUMPI PUSH2 0xEF JUMP JUMPDEST DUP1 PUSH4 0x88BF1930 EQ PUSH2 0x204 JUMPI DUP1 PUSH4 0x9C21A9B8 EQ PUSH2 0x22F JUMPI DUP1 PUSH4 0xB582EC5F EQ PUSH2 0x25A JUMPI PUSH2 0xEF JUMP JUMPDEST DUP1 PUSH4 0x5E650318 GT PUSH2 0xBB JUMPI DUP1 PUSH4 0x5E650318 EQ PUSH2 0x158 JUMPI DUP1 PUSH4 0x7C2EFCBA EQ PUSH2 0x183 JUMPI DUP1 PUSH4 0x8182A11F EQ PUSH2 0x1AE JUMPI DUP1 PUSH4 0x81A4A5F9 EQ PUSH2 0x1D9 JUMPI PUSH2 0xEF JUMP JUMPDEST DUP1 PUSH4 0x482FF76 EQ PUSH2 0xF8 JUMPI DUP1 PUSH4 0x24763493 EQ PUSH2 0x102 JUMPI DUP1 PUSH4 0x34133DF9 EQ PUSH2 0x12D JUMPI PUSH2 0xEF JUMP JUMPDEST CALLDATASIZE PUSH2 0xEF JUMPI SELFBALANCE PUSH1 0x5 DUP2 SWAP1 SSTORE POP STOP JUMPDEST SELFBALANCE PUSH1 0x5 DUP2 SWAP1 SSTORE POP STOP JUMPDEST PUSH2 0x100 PUSH2 0x32F JUMP JUMPDEST STOP JUMPDEST CALLVALUE DUP1 ISZERO PUSH2 0x10E JUMPI PUSH1 0x0 DUP1 REVERT JUMPDEST POP PUSH2 0x117 PUSH2 0x3F3 JUMP JUMPDEST PUSH1 0x40 MLOAD PUSH2 0x124 SWAP2 SWAP1 PUSH2 0xC4E JUMP JUMPDEST PUSH1 0x40 MLOAD DUP1 SWAP2 SUB SWAP1 RETURN JUMPDEST CALLVALUE DUP1 ISZERO PUSH2 0x139 JUMPI PUSH1 0x0 DUP1 REVERT JUMPDEST POP PUSH2 0x142 PUSH2 0x481 JUMP JUMPDEST PUSH1 0x40 MLOAD PUSH2 0x14F SWAP2 SWAP1 PUSH2 0xD10 JUMP JUMPDEST PUSH1 0x40 MLOAD DUP1 SWAP2 SUB SWAP1 RETURN JUMPDEST CALLVALUE DUP1 ISZERO PUSH2 0x164 JUMPI PUSH1 0x0 DUP1 REVERT JUMPDEST POP PUSH2 0x16D PUSH2 0x487 JUMP JUMPDEST PUSH1 0x40 MLOAD PUSH2 0x17A SWAP2 SWAP1 PUSH2 0xC33 JUMP JUMPDEST PUSH1 0x40 MLOAD DUP1 SWAP2 SUB SWAP1 RETURN JUMPDEST CALLVALUE DUP1 ISZERO PUSH2 0x18F JUMPI PUSH1 0x0 DUP1 REVERT JUMPDEST POP PUSH2 0x198 PUSH2 0x48D JUMP JUMPDEST PUSH1 0x40 MLOAD PUSH2 0x1A5 SWAP2 SWAP1 PUSH2 0xD10 JUMP JUMPDEST PUSH1 0x40 MLOAD DUP1 SWAP2 SUB SWAP1 RETURN JUMPDEST CALLVALUE DUP1 ISZERO PUSH2 0x1BA JUMPI PUSH1 0x0 DUP1 REVERT JUMPDEST POP PUSH2 0x1C3 PUSH2 0x493 JUMP JUMPDEST PUSH1 0x40 MLOAD PUSH2 0x1D0 SWAP2 SWAP1 PUSH2 0xD10 JUMP JUMPDEST PUSH1 0x40 MLOAD DUP1 SWAP2 SUB SWAP1 RETURN JUMPDEST CALLVALUE DUP1 ISZERO PUSH2 0x1E5 JUMPI PUSH1 0x0 DUP1 REVERT JUMPDEST POP PUSH2 0x1EE PUSH2 0x49B JUMP JUMPDEST PUSH1 0x40 MLOAD PUSH2 0x1FB SWAP2 SWAP1 PUSH2 0xC18 JUMP JUMPDEST PUSH1 0x40 MLOAD DUP1 SWAP2 SUB SWAP1 RETURN JUMPDEST CALLVALUE DUP1 ISZERO PUSH2 0x210 JUMPI PUSH1 0x0 DUP1 REVERT JUMPDEST POP PUSH2 0x219 PUSH2 0x4C1 JUMP JUMPDEST PUSH1 0x40 MLOAD PUSH2 0x226 SWAP2 SWAP1 PUSH2 0xC33 JUMP JUMPDEST PUSH1 0x40 MLOAD DUP1 SWAP2 SUB SWAP1 RETURN JUMPDEST CALLVALUE DUP1 ISZERO PUSH2 0x23B JUMPI PUSH1 0x0 DUP1 REVERT JUMPDEST POP PUSH2 0x244 PUSH2 0x4C7 JUMP JUMPDEST PUSH1 0x40 MLOAD PUSH2 0x251 SWAP2 SWAP1 PUSH2 0xD10 JUMP JUMPDEST PUSH1 0x40 MLOAD DUP1 SWAP2 SUB SWAP1 RETURN JUMPDEST CALLVALUE DUP1 ISZERO PUSH2 0x266 JUMPI PUSH1 0x0 DUP1 REVERT JUMPDEST POP PUSH2 0x26F PUSH2 0x4CD JUMP JUMPDEST PUSH1 0x40 MLOAD PUSH2 0x27C SWAP2 SWAP1 PUSH2 0xD10 JUMP JUMPDEST PUSH1 0x40 MLOAD DUP1 SWAP2 SUB SWAP1 RETURN JUMPDEST CALLVALUE DUP1 ISZERO PUSH2 0x291 JUMPI PUSH1 0x0 DUP1 REVERT JUMPDEST POP PUSH2 0x29A PUSH2 0x4D3 JUMP JUMPDEST PUSH1 0x40 MLOAD PUSH2 0x2A7 SWAP2 SWAP1 PUSH2 0xD10 JUMP JUMPDEST PUSH1 0x40 MLOAD DUP1 SWAP2 SUB SWAP1 RETURN JUMPDEST CALLVALUE DUP1 ISZERO PUSH2 0x2BC JUMPI PUSH1 0x0 DUP1 REVERT JUMPDEST POP PUSH2 0x2C5 PUSH2 0x4D9 JUMP JUMPDEST PUSH1 0x40 MLOAD PUSH2 0x2D2 SWAP2 SWAP1 PUSH2 0xD10 JUMP JUMPDEST PUSH1 0x40 MLOAD DUP1 SWAP2 SUB SWAP1 RETURN JUMPDEST CALLVALUE DUP1 ISZERO PUSH2 0x2E7 JUMPI PUSH1 0x0 DUP1 REVERT JUMPDEST POP PUSH2 0x302 PUSH1 0x4 DUP1 CALLDATASIZE SUB DUP2 ADD SWAP1 PUSH2 0x2FD SWAP2 SWAP1 PUSH2 0x9B2 JUMP JUMPDEST PUSH2 0x4DF JUMP JUMPDEST STOP JUMPDEST CALLVALUE DUP1 ISZERO PUSH2 0x310 JUMPI PUSH1 0x0 DUP1 REVERT JUMPDEST POP PUSH2 0x319 PUSH2 0x8D0 JUMP JUMPDEST PUSH1 0x40 MLOAD PUSH2 0x326 SWAP2 SWAP1 PUSH2 0xD10 JUMP JUMPDEST PUSH1 0x40 MLOAD DUP1 SWAP2 SUB SWAP1 RETURN JUMPDEST PUSH1 0x1 PUSH1 0x0 SWAP1 SLOAD SWAP1 PUSH2 0x100 EXP SWAP1 DIV PUSH20 0xFFFFFFFFFFFFFFFFFFFFFFFFFFFFFFFFFFFFFFFF AND PUSH20 0xFFFFFFFFFFFFFFFFFFFFFFFFFFFFFFFFFFFFFFFF AND CALLER PUSH20 0xFFFFFFFFFFFFFFFFFFFFFFFFFFFFFFFFFFFFFFFF AND EQ PUSH2 0x3BF JUMPI PUSH1 0x40 MLOAD PUSH32 0x8C379A000000000000000000000000000000000000000000000000000000000 DUP2 MSTORE PUSH1 0x4 ADD PUSH2 0x3B6 SWAP1 PUSH2 0xC70 JUMP JUMPDEST PUSH1 0x40 MLOAD DUP1 SWAP2 SUB SWAP1 REVERT JUMPDEST TIMESTAMP PUSH1 0x8 SLOAD PUSH1 0x7 SLOAD PUSH2 0x3D0 SWAP2 SWAP1 PUSH2 0xDC3 JUMP JUMPDEST LT PUSH2 0x3DA JUMPI PUSH1 0x0 DUP1 REVERT JUMPDEST CALLER PUSH20 0xFFFFFFFFFFFFFFFFFFFFFFFFFFFFFFFFFFFFFFFF AND SELFDESTRUCT JUMPDEST PUSH1 0x4 DUP1 SLOAD PUSH2 0x400 SWAP1 PUSH2 0xFF1 JUMP JUMPDEST DUP1 PUSH1 0x1F ADD PUSH1 0x20 DUP1 SWAP2 DIV MUL PUSH1 0x20 ADD PUSH1 0x40 MLOAD SWAP1 DUP2 ADD PUSH1 0x40 MSTORE DUP1 SWAP3 SWAP2 SWAP1 DUP2 DUP2 MSTORE PUSH1 0x20 ADD DUP3 DUP1 SLOAD PUSH2 0x42C SWAP1 PUSH2 0xFF1 JUMP JUMPDEST DUP1 ISZERO PUSH2 0x479 JUMPI DUP1 PUSH1 0x1F LT PUSH2 0x44E JUMPI PUSH2 0x100 DUP1 DUP4 SLOAD DIV MUL DUP4 MSTORE SWAP2 PUSH1 0x20 ADD SWAP2 PUSH2 0x479 JUMP JUMPDEST DUP3 ADD SWAP2 SWAP1 PUSH1 0x0 MSTORE PUSH1 0x20 PUSH1 0x0 KECCAK256 SWAP1 JUMPDEST DUP2 SLOAD DUP2 MSTORE SWAP1 PUSH1 0x1 ADD SWAP1 PUSH1 0x20 ADD DUP1 DUP4 GT PUSH2 0x45C JUMPI DUP3 SWAP1 SUB PUSH1 0x1F AND DUP3 ADD SWAP2 JUMPDEST POP POP POP POP POP DUP2 JUMP JUMPDEST PUSH1 0x9 SLOAD DUP2 JUMP JUMPDEST PUSH1 0x3 SLOAD DUP2 JUMP JUMPDEST PUSH1 0x6 SLOAD DUP2 JUMP JUMPDEST PUSH1 0x0 TIMESTAMP SWAP1 POP SWAP1 JUMP JUMPDEST PUSH1 0x1 PUSH1 0x0 SWAP1 SLOAD SWAP1 PUSH2 0x100 EXP SWAP1 DIV PUSH20 0xFFFFFFFFFFFFFFFFFFFFFFFFFFFFFFFFFFFFFFFF AND DUP2 JUMP JUMPDEST PUSH1 0x2 SLOAD DUP2 JUMP JUMPDEST PUSH1 0x8 SLOAD DUP2 JUMP JUMPDEST PUSH1 0x0 SLOAD DUP2 JUMP JUMPDEST PUSH1 0xA SLOAD DUP2 JUMP JUMPDEST PUSH1 0x5 SLOAD DUP2 JUMP JUMPDEST PUSH1 0x8 SLOAD PUSH1 0x7 SLOAD PUSH2 0x4EF SWAP2 SWAP1 PUSH2 0xDC3 JUMP JUMPDEST TIMESTAMP LT PUSH2 0x530 JUMPI PUSH1 0x40 MLOAD PUSH32 0x8C379A000000000000000000000000000000000000000000000000000000000 DUP2 MSTORE PUSH1 0x4 ADD PUSH2 0x527 SWAP1 PUSH2 0xCB0 JUMP JUMPDEST PUSH1 0x40 MLOAD DUP1 SWAP2 SUB SWAP1 REVERT JUMPDEST PUSH1 0x0 SLOAD DUP3 GT PUSH2 0x574 JUMPI PUSH1 0x40 MLOAD PUSH32 0x8C379A000000000000000000000000000000000000000000000000000000000 DUP2 MSTORE PUSH1 0x4 ADD PUSH2 0x56B SWAP1 PUSH2 0xCD0 JUMP JUMPDEST PUSH1 0x40 MLOAD DUP1 SWAP2 SUB SWAP1 REVERT JUMPDEST PUSH1 0x0 DUP1 DUP6 PUSH2 0x581 SWAP1 PUSH2 0xF1E JUMP JUMPDEST SWAP1 POP PUSH1 0x0 DUP6 PUSH2 0x58F SWAP1 PUSH2 0xF1E JUMP JUMPDEST SWAP1 POP PUSH1 0x0 DUP1 SLOAD DUP7 PUSH2 0x5A0 SWAP2 SWAP1 PUSH2 0xEA4 JUMP JUMPDEST SWAP1 POP JUMPDEST PUSH1 0x0 DUP2 EQ PUSH2 0x6A0 JUMPI PUSH1 0x2 DUP4 PUSH1 0x40 MLOAD PUSH1 0x20 ADD PUSH2 0x5BE SWAP2 SWAP1 PUSH2 0xBD1 JUMP JUMPDEST PUSH1 0x40 MLOAD PUSH1 0x20 DUP2 DUP4 SUB SUB DUP2 MSTORE SWAP1 PUSH1 0x40 MSTORE PUSH1 0x40 MLOAD PUSH2 0x5DA SWAP2 SWAP1 PUSH2 0xBEC JUMP JUMPDEST PUSH1 0x20 PUSH1 0x40 MLOAD DUP1 DUP4 SUB DUP2 DUP6 GAS STATICCALL ISZERO DUP1 ISZERO PUSH2 0x5F7 JUMPI RETURNDATASIZE PUSH1 0x0 DUP1 RETURNDATACOPY RETURNDATASIZE PUSH1 0x0 REVERT JUMPDEST POP POP POP PUSH1 0x40 MLOAD RETURNDATASIZE PUSH1 0x1F NOT PUSH1 0x1F DUP3 ADD AND DUP3 ADD DUP1 PUSH1 0x40 MSTORE POP DUP2 ADD SWAP1 PUSH2 0x61A SWAP2 SWAP1 PUSH2 0x985 JUMP JUMPDEST SWAP3 POP PUSH1 0x2 DUP3 PUSH1 0x40 MLOAD PUSH1 0x20 ADD PUSH2 0x62F SWAP2 SWAP1 PUSH2 0xBD1 JUMP JUMPDEST PUSH1 0x40 MLOAD PUSH1 0x20 DUP2 DUP4 SUB SUB DUP2 MSTORE SWAP1 PUSH1 0x40 MSTORE PUSH1 0x40 MLOAD PUSH2 0x64B SWAP2 SWAP1 PUSH2 0xBEC JUMP JUMPDEST PUSH1 0x20 PUSH1 0x40 MLOAD DUP1 DUP4 SUB DUP2 DUP6 GAS STATICCALL ISZERO DUP1 ISZERO PUSH2 0x668 JUMPI RETURNDATASIZE PUSH1 0x0 DUP1 RETURNDATACOPY RETURNDATASIZE PUSH1 0x0 REVERT JUMPDEST POP POP POP PUSH1 0x40 MLOAD RETURNDATASIZE PUSH1 0x1F NOT PUSH1 0x1F DUP3 ADD AND DUP3 ADD DUP1 PUSH1 0x40 MSTORE POP DUP2 ADD SWAP1 PUSH2 0x68B SWAP2 SWAP1 PUSH2 0x985 JUMP JUMPDEST SWAP2 POP DUP1 DUP1 PUSH2 0x698 SWAP1 PUSH2 0xFC7 JUMP JUMPDEST SWAP2 POP POP PUSH2 0x5A3 JUMP JUMPDEST DUP3 PUSH1 0x2 SLOAD EQ PUSH2 0x6E4 JUMPI PUSH1 0x40 MLOAD PUSH32 0x8C379A000000000000000000000000000000000000000000000000000000000 DUP2 MSTORE PUSH1 0x4 ADD PUSH2 0x6DB SWAP1 PUSH2 0xCF0 JUMP JUMPDEST PUSH1 0x40 MLOAD DUP1 SWAP2 SUB SWAP1 REVERT JUMPDEST DUP2 PUSH1 0x3 SLOAD EQ PUSH2 0x728 JUMPI PUSH1 0x40 MLOAD PUSH32 0x8C379A000000000000000000000000000000000000000000000000000000000 DUP2 MSTORE PUSH1 0x4 ADD PUSH2 0x71F SWAP1 PUSH2 0xC90 JUMP JUMPDEST PUSH1 0x40 MLOAD DUP1 SWAP2 SUB SWAP1 REVERT JUMPDEST PUSH1 0x0 PUSH1 0x2 DUP8 PUSH2 0x737 SWAP2 SWAP1 PUSH2 0x105E JUMP JUMPDEST EQ ISZERO PUSH2 0x75E JUMPI PUSH1 0x2 PUSH1 0x0 SLOAD DUP8 PUSH2 0x74D SWAP2 SWAP1 PUSH2 0xEA4 JUMP JUMPDEST PUSH2 0x757 SWAP2 SWAP1 PUSH2 0xE19 JUMP JUMPDEST SWAP4 POP PUSH2 0x787 JUMP JUMPDEST PUSH1 0x2 PUSH1 0x1 PUSH1 0x0 SLOAD DUP9 PUSH2 0x770 SWAP2 SWAP1 PUSH2 0xEA4 JUMP JUMPDEST PUSH2 0x77A SWAP2 SWAP1 PUSH2 0xEA4 JUMP JUMPDEST PUSH2 0x784 SWAP2 SWAP1 PUSH2 0xE19 JUMP JUMPDEST SWAP4 POP JUMPDEST PUSH1 0x0 PUSH20 0xFFFFFFFFFFFFFFFFFFFFFFFFFFFFFFFFFFFFFFFF AND DUP6 PUSH20 0xFFFFFFFFFFFFFFFFFFFFFFFFFFFFFFFFFFFFFFFF AND EQ PUSH2 0x836 JUMPI DUP5 PUSH20 0xFFFFFFFFFFFFFFFFFFFFFFFFFFFFFFFFFFFFFFFF AND PUSH1 0x6 SLOAD DUP6 PUSH2 0x7E0 SWAP2 SWAP1 PUSH2 0xE4A JUMP JUMPDEST PUSH1 0x40 MLOAD PUSH2 0x7EC SWAP1 PUSH2 0xC03 JUMP JUMPDEST PUSH1 0x0 PUSH1 0x40 MLOAD DUP1 DUP4 SUB DUP2 DUP6 DUP8 GAS CALL SWAP3 POP POP POP RETURNDATASIZE DUP1 PUSH1 0x0 DUP2 EQ PUSH2 0x829 JUMPI PUSH1 0x40 MLOAD SWAP2 POP PUSH1 0x1F NOT PUSH1 0x3F RETURNDATASIZE ADD AND DUP3 ADD PUSH1 0x40 MSTORE RETURNDATASIZE DUP3 MSTORE RETURNDATASIZE PUSH1 0x0 PUSH1 0x20 DUP5 ADD RETURNDATACOPY PUSH2 0x82E JUMP JUMPDEST PUSH1 0x60 SWAP2 POP JUMPDEST POP POP POP PUSH2 0x88B JUMP JUMPDEST CALLER PUSH20 0xFFFFFFFFFFFFFFFFFFFFFFFFFFFFFFFFFFFFFFFF AND PUSH2 0x8FC PUSH1 0x6 SLOAD DUP7 PUSH2 0x85E SWAP2 SWAP1 PUSH2 0xE4A JUMP JUMPDEST SWAP1 DUP2 ISZERO MUL SWAP1 PUSH1 0x40 MLOAD PUSH1 0x0 PUSH1 0x40 MLOAD DUP1 DUP4 SUB DUP2 DUP6 DUP9 DUP9 CALL SWAP4 POP POP POP POP ISZERO DUP1 ISZERO PUSH2 0x889 JUMPI RETURNDATASIZE PUSH1 0x0 DUP1 RETURNDATACOPY RETURNDATASIZE PUSH1 0x0 REVERT JUMPDEST POP JUMPDEST DUP4 PUSH1 0x5 SLOAD PUSH2 0x899 SWAP2 SWAP1 PUSH2 0xEA4 JUMP JUMPDEST PUSH1 0x5 DUP2 SWAP1 SSTORE POP DUP6 PUSH1 0x0 DUP2 SWAP1 SSTORE POP DUP8 PUSH2 0x8B0 SWAP1 PUSH2 0xF1E JUMP JUMPDEST PUSH1 0x2 DUP2 SWAP1 SSTORE POP DUP7 PUSH2 0x8C0 SWAP1 PUSH2 0xF1E JUMP JUMPDEST PUSH1 0x3 DUP2 SWAP1 SSTORE POP POP POP POP POP POP POP POP POP JUMP JUMPDEST PUSH1 0x7 SLOAD DUP2 JUMP JUMPDEST PUSH1 0x0 PUSH2 0x8E9 PUSH2 0x8E4 DUP5 PUSH2 0xD50 JUMP JUMPDEST PUSH2 0xD2B JUMP JUMPDEST SWAP1 POP DUP3 DUP2 MSTORE PUSH1 0x20 DUP2 ADD DUP5 DUP5 DUP5 ADD GT ISZERO PUSH2 0x905 JUMPI PUSH2 0x904 PUSH2 0x1165 JUMP JUMPDEST JUMPDEST PUSH2 0x910 DUP5 DUP3 DUP6 PUSH2 0xF85 JUMP JUMPDEST POP SWAP4 SWAP3 POP POP POP JUMP JUMPDEST PUSH1 0x0 DUP2 CALLDATALOAD SWAP1 POP PUSH2 0x927 DUP2 PUSH2 0x1288 JUMP JUMPDEST SWAP3 SWAP2 POP POP JUMP JUMPDEST PUSH1 0x0 DUP2 MLOAD SWAP1 POP PUSH2 0x93C DUP2 PUSH2 0x129F JUMP JUMPDEST SWAP3 SWAP2 POP POP JUMP JUMPDEST PUSH1 0x0 DUP3 PUSH1 0x1F DUP4 ADD SLT PUSH2 0x957 JUMPI PUSH2 0x956 PUSH2 0x1160 JUMP JUMPDEST JUMPDEST DUP2 CALLDATALOAD PUSH2 0x967 DUP5 DUP3 PUSH1 0x20 DUP7 ADD PUSH2 0x8D6 JUMP JUMPDEST SWAP2 POP POP SWAP3 SWAP2 POP POP JUMP JUMPDEST PUSH1 0x0 DUP2 CALLDATALOAD SWAP1 POP PUSH2 0x97F DUP2 PUSH2 0x12B6 JUMP JUMPDEST SWAP3 SWAP2 POP POP JUMP JUMPDEST PUSH1 0x0 PUSH1 0x20 DUP3 DUP5 SUB SLT ISZERO PUSH2 0x99B JUMPI PUSH2 0x99A PUSH2 0x116F JUMP JUMPDEST JUMPDEST PUSH1 0x0 PUSH2 0x9A9 DUP5 DUP3 DUP6 ADD PUSH2 0x92D JUMP JUMPDEST SWAP2 POP POP SWAP3 SWAP2 POP POP JUMP JUMPDEST PUSH1 0x0 DUP1 PUSH1 0x0 DUP1 PUSH1 0x80 DUP6 DUP8 SUB SLT ISZERO PUSH2 0x9CC JUMPI PUSH2 0x9CB PUSH2 0x116F JUMP JUMPDEST JUMPDEST PUSH1 0x0 DUP6 ADD CALLDATALOAD PUSH8 0xFFFFFFFFFFFFFFFF DUP2 GT ISZERO PUSH2 0x9EA JUMPI PUSH2 0x9E9 PUSH2 0x116A JUMP JUMPDEST JUMPDEST PUSH2 0x9F6 DUP8 DUP3 DUP9 ADD PUSH2 0x942 JUMP JUMPDEST SWAP5 POP POP PUSH1 0x20 DUP6 ADD CALLDATALOAD PUSH8 0xFFFFFFFFFFFFFFFF DUP2 GT ISZERO PUSH2 0xA17 JUMPI PUSH2 0xA16 PUSH2 0x116A JUMP JUMPDEST JUMPDEST PUSH2 0xA23 DUP8 DUP3 DUP9 ADD PUSH2 0x942 JUMP JUMPDEST SWAP4 POP POP PUSH1 0x40 PUSH2 0xA34 DUP8 DUP3 DUP9 ADD PUSH2 0x970 JUMP JUMPDEST SWAP3 POP POP PUSH1 0x60 PUSH2 0xA45 DUP8 DUP3 DUP9 ADD PUSH2 0x918 JUMP JUMPDEST SWAP2 POP POP SWAP3 SWAP6 SWAP2 SWAP5 POP SWAP3 POP JUMP JUMPDEST PUSH2 0xA5A DUP2 PUSH2 0xED8 JUMP JUMPDEST DUP3 MSTORE POP POP JUMP JUMPDEST PUSH2 0xA69 DUP2 PUSH2 0xEEA JUMP JUMPDEST DUP3 MSTORE POP POP JUMP JUMPDEST PUSH2 0xA80 PUSH2 0xA7B DUP3 PUSH2 0xEEA JUMP JUMPDEST PUSH2 0x1054 JUMP JUMPDEST DUP3 MSTORE POP POP JUMP JUMPDEST PUSH1 0x0 PUSH2 0xA91 DUP3 PUSH2 0xD91 JUMP JUMPDEST PUSH2 0xA9B DUP2 DUP6 PUSH2 0xDA7 JUMP JUMPDEST SWAP4 POP PUSH2 0xAAB DUP2 DUP6 PUSH1 0x20 DUP7 ADD PUSH2 0xF94 JUMP JUMPDEST DUP1 DUP5 ADD SWAP2 POP POP SWAP3 SWAP2 POP POP JUMP JUMPDEST PUSH1 0x0 PUSH2 0xAC2 DUP3 PUSH2 0xD9C JUMP JUMPDEST PUSH2 0xACC DUP2 DUP6 PUSH2 0xDB2 JUMP JUMPDEST SWAP4 POP PUSH2 0xADC DUP2 DUP6 PUSH1 0x20 DUP7 ADD PUSH2 0xF94 JUMP JUMPDEST PUSH2 0xAE5 DUP2 PUSH2 0x1174 JUMP JUMPDEST DUP5 ADD SWAP2 POP POP SWAP3 SWAP2 POP POP JUMP JUMPDEST PUSH1 0x0 PUSH2 0xAFD PUSH1 0x39 DUP4 PUSH2 0xDB2 JUMP JUMPDEST SWAP2 POP PUSH2 0xB08 DUP3 PUSH2 0x1192 JUMP JUMPDEST PUSH1 0x40 DUP3 ADD SWAP1 POP SWAP2 SWAP1 POP JUMP JUMPDEST PUSH1 0x0 PUSH2 0xB20 PUSH1 0x11 DUP4 PUSH2 0xDB2 JUMP JUMPDEST SWAP2 POP PUSH2 0xB2B DUP3 PUSH2 0x11E1 JUMP JUMPDEST PUSH1 0x20 DUP3 ADD SWAP1 POP SWAP2 SWAP1 POP JUMP JUMPDEST PUSH1 0x0 PUSH2 0xB43 PUSH1 0xA DUP4 PUSH2 0xDB2 JUMP JUMPDEST SWAP2 POP PUSH2 0xB4E DUP3 PUSH2 0x120A JUMP JUMPDEST PUSH1 0x20 DUP3 ADD SWAP1 POP SWAP2 SWAP1 POP JUMP JUMPDEST PUSH1 0x0 PUSH2 0xB66 PUSH1 0x6 DUP4 PUSH2 0xDB2 JUMP JUMPDEST SWAP2 POP PUSH2 0xB71 DUP3 PUSH2 0x1233 JUMP JUMPDEST PUSH1 0x20 DUP3 ADD SWAP1 POP SWAP2 SWAP1 POP JUMP JUMPDEST PUSH1 0x0 PUSH2 0xB89 PUSH1 0x0 DUP4 PUSH2 0xDA7 JUMP JUMPDEST SWAP2 POP PUSH2 0xB94 DUP3 PUSH2 0x125C JUMP JUMPDEST PUSH1 0x0 DUP3 ADD SWAP1 POP SWAP2 SWAP1 POP JUMP JUMPDEST PUSH1 0x0 PUSH2 0xBAC PUSH1 0x11 DUP4 PUSH2 0xDB2 JUMP JUMPDEST SWAP2 POP PUSH2 0xBB7 DUP3 PUSH2 0x125F JUMP JUMPDEST PUSH1 0x20 DUP3 ADD SWAP1 POP SWAP2 SWAP1 POP JUMP JUMPDEST PUSH2 0xBCB DUP2 PUSH2 0xF14 JUMP JUMPDEST DUP3 MSTORE POP POP JUMP JUMPDEST PUSH1 0x0 PUSH2 0xBDD DUP3 DUP5 PUSH2 0xA6F JUMP JUMPDEST PUSH1 0x20 DUP3 ADD SWAP2 POP DUP2 SWAP1 POP SWAP3 SWAP2 POP POP JUMP JUMPDEST PUSH1 0x0 PUSH2 0xBF8 DUP3 DUP5 PUSH2 0xA86 JUMP JUMPDEST SWAP2 POP DUP2 SWAP1 POP SWAP3 SWAP2 POP POP JUMP JUMPDEST PUSH1 0x0 PUSH2 0xC0E DUP3 PUSH2 0xB7C JUMP JUMPDEST SWAP2 POP DUP2 SWAP1 POP SWAP2 SWAP1 POP JUMP JUMPDEST PUSH1 0x0 PUSH1 0x20 DUP3 ADD SWAP1 POP PUSH2 0xC2D PUSH1 0x0 DUP4 ADD DUP5 PUSH2 0xA51 JUMP JUMPDEST SWAP3 SWAP2 POP POP JUMP JUMPDEST PUSH1 0x0 PUSH1 0x20 DUP3 ADD SWAP1 POP PUSH2 0xC48 PUSH1 0x0 DUP4 ADD DUP5 PUSH2 0xA60 JUMP JUMPDEST SWAP3 SWAP2 POP POP JUMP JUMPDEST PUSH1 0x0 PUSH1 0x20 DUP3 ADD SWAP1 POP DUP2 DUP2 SUB PUSH1 0x0 DUP4 ADD MSTORE PUSH2 0xC68 DUP2 DUP5 PUSH2 0xAB7 JUMP JUMPDEST SWAP1 POP SWAP3 SWAP2 POP POP JUMP JUMPDEST PUSH1 0x0 PUSH1 0x20 DUP3 ADD SWAP1 POP DUP2 DUP2 SUB PUSH1 0x0 DUP4 ADD MSTORE PUSH2 0xC89 DUP2 PUSH2 0xAF0 JUMP JUMPDEST SWAP1 POP SWAP2 SWAP1 POP JUMP JUMPDEST PUSH1 0x0 PUSH1 0x20 DUP3 ADD SWAP1 POP DUP2 DUP2 SUB PUSH1 0x0 DUP4 ADD MSTORE PUSH2 0xCA9 DUP2 PUSH2 0xB13 JUMP JUMPDEST SWAP1 POP SWAP2 SWAP1 POP JUMP JUMPDEST PUSH1 0x0 PUSH1 0x20 DUP3 ADD SWAP1 POP DUP2 DUP2 SUB PUSH1 0x0 DUP4 ADD MSTORE PUSH2 0xCC9 DUP2 PUSH2 0xB36 JUMP JUMPDEST SWAP1 POP SWAP2 SWAP1 POP JUMP JUMPDEST PUSH1 0x0 PUSH1 0x20 DUP3 ADD SWAP1 POP DUP2 DUP2 SUB PUSH1 0x0 DUP4 ADD MSTORE PUSH2 0xCE9 DUP2 PUSH2 0xB59 JUMP JUMPDEST SWAP1 POP SWAP2 SWAP1 POP JUMP JUMPDEST PUSH1 0x0 PUSH1 0x20 DUP3 ADD SWAP1 POP DUP2 DUP2 SUB PUSH1 0x0 DUP4 ADD MSTORE PUSH2 0xD09 DUP2 PUSH2 0xB9F JUMP JUMPDEST SWAP1 POP SWAP2 SWAP1 POP JUMP JUMPDEST PUSH1 0x0 PUSH1 0x20 DUP3 ADD SWAP1 POP PUSH2 0xD25 PUSH1 0x0 DUP4 ADD DUP5 PUSH2 0xBC2 JUMP JUMPDEST SWAP3 SWAP2 POP POP JUMP JUMPDEST PUSH1 0x0 PUSH2 0xD35 PUSH2 0xD46 JUMP JUMPDEST SWAP1 POP PUSH2 0xD41 DUP3 DUP3 PUSH2 0x1023 JUMP JUMPDEST SWAP2 SWAP1 POP JUMP JUMPDEST PUSH1 0x0 PUSH1 0x40 MLOAD SWAP1 POP SWAP1 JUMP JUMPDEST PUSH1 0x0 PUSH8 0xFFFFFFFFFFFFFFFF DUP3 GT ISZERO PUSH2 0xD6B JUMPI PUSH2 0xD6A PUSH2 0x111C JUMP JUMPDEST JUMPDEST PUSH2 0xD74 DUP3 PUSH2 0x1174 JUMP JUMPDEST SWAP1 POP PUSH1 0x20 DUP2 ADD SWAP1 POP SWAP2 SWAP1 POP JUMP JUMPDEST PUSH1 0x0 DUP2 SWAP1 POP PUSH1 0x20 DUP3 ADD SWAP1 POP SWAP2 SWAP1 POP JUMP JUMPDEST PUSH1 0x0 DUP2 MLOAD SWAP1 POP SWAP2 SWAP1 POP JUMP JUMPDEST PUSH1 0x0 DUP2 MLOAD SWAP1 POP SWAP2 SWAP1 POP JUMP JUMPDEST PUSH1 0x0 DUP2 SWAP1 POP SWAP3 SWAP2 POP POP JUMP JUMPDEST PUSH1 0x0 DUP3 DUP3 MSTORE PUSH1 0x20 DUP3 ADD SWAP1 POP SWAP3 SWAP2 POP POP JUMP JUMPDEST PUSH1 0x0 PUSH2 0xDCE DUP3 PUSH2 0xF14 JUMP JUMPDEST SWAP2 POP PUSH2 0xDD9 DUP4 PUSH2 0xF14 JUMP JUMPDEST SWAP3 POP DUP3 PUSH32 0xFFFFFFFFFFFFFFFFFFFFFFFFFFFFFFFFFFFFFFFFFFFFFFFFFFFFFFFFFFFFFFFF SUB DUP3 GT ISZERO PUSH2 0xE0E JUMPI PUSH2 0xE0D PUSH2 0x108F JUMP JUMPDEST JUMPDEST DUP3 DUP3 ADD SWAP1 POP SWAP3 SWAP2 POP POP JUMP JUMPDEST PUSH1 0x0 PUSH2 0xE24 DUP3 PUSH2 0xF14 JUMP JUMPDEST SWAP2 POP PUSH2 0xE2F DUP4 PUSH2 0xF14 JUMP JUMPDEST SWAP3 POP DUP3 PUSH2 0xE3F JUMPI PUSH2 0xE3E PUSH2 0x10BE JUMP JUMPDEST JUMPDEST DUP3 DUP3 DIV SWAP1 POP SWAP3 SWAP2 POP POP JUMP JUMPDEST PUSH1 0x0 PUSH2 0xE55 DUP3 PUSH2 0xF14 JUMP JUMPDEST SWAP2 POP PUSH2 0xE60 DUP4 PUSH2 0xF14 JUMP JUMPDEST SWAP3 POP DUP2 PUSH32 0xFFFFFFFFFFFFFFFFFFFFFFFFFFFFFFFFFFFFFFFFFFFFFFFFFFFFFFFFFFFFFFFF DIV DUP4 GT DUP3 ISZERO ISZERO AND ISZERO PUSH2 0xE99 JUMPI PUSH2 0xE98 PUSH2 0x108F JUMP JUMPDEST JUMPDEST DUP3 DUP3 MUL SWAP1 POP SWAP3 SWAP2 POP POP JUMP JUMPDEST PUSH1 0x0 PUSH2 0xEAF DUP3 PUSH2 0xF14 JUMP JUMPDEST SWAP2 POP PUSH2 0xEBA DUP4 PUSH2 0xF14 JUMP JUMPDEST SWAP3 POP DUP3 DUP3 LT ISZERO PUSH2 0xECD JUMPI PUSH2 0xECC PUSH2 0x108F JUMP JUMPDEST JUMPDEST DUP3 DUP3 SUB SWAP1 POP SWAP3 SWAP2 POP POP JUMP JUMPDEST PUSH1 0x0 PUSH2 0xEE3 DUP3 PUSH2 0xEF4 JUMP JUMPDEST SWAP1 POP SWAP2 SWAP1 POP JUMP JUMPDEST PUSH1 0x0 DUP2 SWAP1 POP SWAP2 SWAP1 POP JUMP JUMPDEST PUSH1 0x0 PUSH20 0xFFFFFFFFFFFFFFFFFFFFFFFFFFFFFFFFFFFFFFFF DUP3 AND SWAP1 POP SWAP2 SWAP1 POP JUMP JUMPDEST PUSH1 0x0 DUP2 SWAP1 POP SWAP2 SWAP1 POP JUMP JUMPDEST PUSH1 0x0 PUSH2 0xF29 DUP3 PUSH2 0xD91 JUMP JUMPDEST DUP3 PUSH2 0xF33 DUP5 PUSH2 0xD81 JUMP JUMPDEST SWAP1 POP PUSH2 0xF3E DUP2 PUSH2 0x114B JUMP JUMPDEST SWAP3 POP PUSH1 0x20 DUP3 LT ISZERO PUSH2 0xF7E JUMPI PUSH2 0xF79 PUSH32 0xFFFFFFFFFFFFFFFFFFFFFFFFFFFFFFFFFFFFFFFFFFFFFFFFFFFFFFFFFFFFFFFF DUP4 PUSH1 0x20 SUB PUSH1 0x8 MUL PUSH2 0x1185 JUMP JUMPDEST DUP4 AND SWAP3 POP JUMPDEST POP POP SWAP2 SWAP1 POP JUMP JUMPDEST DUP3 DUP2 DUP4 CALLDATACOPY PUSH1 0x0 DUP4 DUP4 ADD MSTORE POP POP POP JUMP JUMPDEST PUSH1 0x0 JUMPDEST DUP4 DUP2 LT ISZERO PUSH2 0xFB2 JUMPI DUP1 DUP3 ADD MLOAD DUP2 DUP5 ADD MSTORE PUSH1 0x20 DUP2 ADD SWAP1 POP PUSH2 0xF97 JUMP JUMPDEST DUP4 DUP2 GT ISZERO PUSH2 0xFC1 JUMPI PUSH1 0x0 DUP5 DUP5 ADD MSTORE JUMPDEST POP POP POP POP JUMP JUMPDEST PUSH1 0x0 PUSH2 0xFD2 DUP3 PUSH2 0xF14 JUMP JUMPDEST SWAP2 POP PUSH1 0x0 DUP3 EQ ISZERO PUSH2 0xFE6 JUMPI PUSH2 0xFE5 PUSH2 0x108F JUMP JUMPDEST JUMPDEST PUSH1 0x1 DUP3 SUB SWAP1 POP SWAP2 SWAP1 POP JUMP JUMPDEST PUSH1 0x0 PUSH1 0x2 DUP3 DIV SWAP1 POP PUSH1 0x1 DUP3 AND DUP1 PUSH2 0x1009 JUMPI PUSH1 0x7F DUP3 AND SWAP2 POP JUMPDEST PUSH1 0x20 DUP3 LT DUP2 EQ ISZERO PUSH2 0x101D JUMPI PUSH2 0x101C PUSH2 0x10ED JUMP JUMPDEST JUMPDEST POP SWAP2 SWAP1 POP JUMP JUMPDEST PUSH2 0x102C DUP3 PUSH2 0x1174 JUMP JUMPDEST DUP2 ADD DUP2 DUP2 LT PUSH8 0xFFFFFFFFFFFFFFFF DUP3 GT OR ISZERO PUSH2 0x104B JUMPI PUSH2 0x104A PUSH2 0x111C JUMP JUMPDEST JUMPDEST DUP1 PUSH1 0x40 MSTORE POP POP POP JUMP JUMPDEST PUSH1 0x0 DUP2 SWAP1 POP SWAP2 SWAP1 POP JUMP JUMPDEST PUSH1 0x0 PUSH2 0x1069 DUP3 PUSH2 0xF14 JUMP JUMPDEST SWAP2 POP PUSH2 0x1074 DUP4 PUSH2 0xF14 JUMP JUMPDEST SWAP3 POP DUP3 PUSH2 0x1084 JUMPI PUSH2 0x1083 PUSH2 0x10BE JUMP JUMPDEST JUMPDEST DUP3 DUP3 MOD SWAP1 POP SWAP3 SWAP2 POP POP JUMP JUMPDEST PUSH32 0x4E487B7100000000000000000000000000000000000000000000000000000000 PUSH1 0x0 MSTORE PUSH1 0x11 PUSH1 0x4 MSTORE PUSH1 0x24 PUSH1 0x0 REVERT JUMPDEST PUSH32 0x4E487B7100000000000000000000000000000000000000000000000000000000 PUSH1 0x0 MSTORE PUSH1 0x12 PUSH1 0x4 MSTORE PUSH1 0x24 PUSH1 0x0 REVERT JUMPDEST PUSH32 0x4E487B7100000000000000000000000000000000000000000000000000000000 PUSH1 0x0 MSTORE PUSH1 0x22 PUSH1 0x4 MSTORE PUSH1 0x24 PUSH1 0x0 REVERT JUMPDEST PUSH32 0x4E487B7100000000000000000000000000000000000000000000000000000000 PUSH1 0x0 MSTORE PUSH1 0x41 PUSH1 0x4 MSTORE PUSH1 0x24 PUSH1 0x0 REVERT JUMPDEST PUSH1 0x0 PUSH2 0x1157 DUP3 MLOAD PUSH2 0xEEA JUMP JUMPDEST DUP1 SWAP2 POP POP SWAP2 SWAP1 POP JUMP JUMPDEST PUSH1 0x0 DUP1 REVERT JUMPDEST PUSH1 0x0 DUP1 REVERT JUMPDEST PUSH1 0x0 DUP1 REVERT JUMPDEST PUSH1 0x0 DUP1 REVERT JUMPDEST PUSH1 0x0 PUSH1 0x1F NOT PUSH1 0x1F DUP4 ADD AND SWAP1 POP SWAP2 SWAP1 POP JUMP JUMPDEST PUSH1 0x0 DUP3 DUP3 SHL SWAP1 POP SWAP3 SWAP2 POP POP JUMP JUMPDEST PUSH32 0x4F6E6C79206D65726368616E74206F66207468652064656C6976657279206361 PUSH1 0x0 DUP3 ADD MSTORE PUSH32 0x6E2073657420746865206368616E6E656C20706172616D732E00000000000000 PUSH1 0x20 DUP3 ADD MSTORE POP JUMP JUMPDEST PUSH32 0x575F6B6320697320696E636F7272656374000000000000000000000000000000 PUSH1 0x0 DUP3 ADD MSTORE POP JUMP JUMPDEST PUSH32 0x54696D65206572726F7200000000000000000000000000000000000000000000 PUSH1 0x0 DUP3 ADD MSTORE POP JUMP JUMPDEST PUSH32 0x6B203C3D206A0000000000000000000000000000000000000000000000000000 PUSH1 0x0 DUP3 ADD MSTORE POP JUMP JUMPDEST POP JUMP JUMPDEST PUSH32 0x575F6B6D20697320696E636F7272656374000000000000000000000000000000 PUSH1 0x0 DUP3 ADD MSTORE POP JUMP JUMPDEST PUSH2 0x1291 DUP2 PUSH2 0xED8 JUMP JUMPDEST DUP2 EQ PUSH2 0x129C JUMPI PUSH1 0x0 DUP1 REVERT JUMPDEST POP JUMP JUMPDEST PUSH2 0x12A8 DUP2 PUSH2 0xEEA JUMP JUMPDEST DUP2 EQ PUSH2 0x12B3 JUMPI PUSH1 0x0 DUP1 REVERT JUMPDEST POP JUMP JUMPDEST PUSH2 0x12BF DUP2 PUSH2 0xF14 JUMP JUMPDEST DUP2 EQ PUSH2 0x12CA JUMPI PUSH1 0x0 DUP1 REVERT JUMPDEST POP JUMP INVALID LOG2 PUSH5 0x6970667358 0x22 SLT KECCAK256 CHAINID CODESIZE 0xF 0xEB 0xD1 INVALID 0xEF EXTCODEHASH 0xB3 0xC8 RETURNDATACOPY SWAP12 0xCA ISZERO BLOCKHASH 0x4B SLOAD 0xCD MLOAD SHR 0x23 0x21 CALLDATASIZE 0xD6 GAS SWAP14 CALL SSTORE 0xAB SELFDESTRUCT 0xCB SLT PUSH5 0x736F6C6343 STOP ADDMOD SMOD STOP CALLER "
		},
		"gasEstimates": {
			"creation": {
				"codeDepositCost": "973400",
				"executionCost": "infinite",
				"totalCost": "infinite"
			},
			"external": {
				"": "22291",
				"S_id()": "infinite",
				"TD()": "2474",
				"TR()": "2497",
				"T_exp()": "2517",
				"W_jc()": "2452",
				"W_jm()": "2452",
				"blocktimestamp()": "403",
				"c()": "2473",
				"channelClose()": "infinite",
				"costumer()": "2603",
				"j()": "2496",
				"start()": "2451",
				"transferDeposit(bytes,bytes,uint256,address)": "infinite",
				"v()": "2474"
			}
		},
		"methodIdentifiers": {
			"S_id()": "24763493",
			"TD()": "9c21a9b8",
			"TR()": "34133df9",
			"T_exp()": "f493e870",
			"W_jc()": "5e650318",
			"W_jm()": "88bf1930",
			"blocktimestamp()": "8182a11f",
			"c()": "c3da42b8",
			"channelClose()": "0482ff76",
			"costumer()": "81a4a5f9",
			"j()": "b582ec5f",
			"start()": "be9a6555",
			"transferDeposit(bytes,bytes,uint256,address)": "d8befbb6",
			"v()": "7c2efcba"
		}
	},
	"abi": [
		{
			"inputs": [
				{
					"internalType": "bytes32",
					"name": "_W_jm",
					"type": "bytes32"
				},
				{
					"internalType": "bytes32",
					"name": "_W_jc",
					"type": "bytes32"
				},
				{
					"internalType": "string",
					"name": "_S_id",
					"type": "string"
				},
				{
					"internalType": "uint256",
					"name": "_c",
					"type": "uint256"
				},
				{
					"internalType": "uint256",
					"name": "_v",
					"type": "uint256"
				},
				{
					"internalType": "uint256",
					"name": "_T_exp",
					"type": "uint256"
				},
				{
					"internalType": "uint256",
					"name": "_TD",
					"type": "uint256"
				},
				{
					"internalType": "uint256",
					"name": "_TR",
					"type": "uint256"
				},
				{
					"internalType": "address",
					"name": "_costumer",
					"type": "address"
				}
			],
			"stateMutability": "payable",
			"type": "constructor"
		},
		{
			"stateMutability": "payable",
			"type": "fallback"
		},
		{
			"inputs": [],
			"name": "S_id",
			"outputs": [
				{
					"internalType": "string",
					"name": "",
					"type": "string"
				}
			],
			"stateMutability": "view",
			"type": "function"
		},
		{
			"inputs": [],
			"name": "TD",
			"outputs": [
				{
					"internalType": "uint256",
					"name": "",
					"type": "uint256"
				}
			],
			"stateMutability": "view",
			"type": "function"
		},
		{
			"inputs": [],
			"name": "TR",
			"outputs": [
				{
					"internalType": "uint256",
					"name": "",
					"type": "uint256"
				}
			],
			"stateMutability": "view",
			"type": "function"
		},
		{
			"inputs": [],
			"name": "T_exp",
			"outputs": [
				{
					"internalType": "uint256",
					"name": "",
					"type": "uint256"
				}
			],
			"stateMutability": "view",
			"type": "function"
		},
		{
			"inputs": [],
			"name": "W_jc",
			"outputs": [
				{
					"internalType": "bytes32",
					"name": "",
					"type": "bytes32"
				}
			],
			"stateMutability": "view",
			"type": "function"
		},
		{
			"inputs": [],
			"name": "W_jm",
			"outputs": [
				{
					"internalType": "bytes32",
					"name": "",
					"type": "bytes32"
				}
			],
			"stateMutability": "view",
			"type": "function"
		},
		{
			"inputs": [],
			"name": "blocktimestamp",
			"outputs": [
				{
					"internalType": "uint256",
					"name": "",
					"type": "uint256"
				}
			],
			"stateMutability": "nonpayable",
			"type": "function"
		},
		{
			"inputs": [],
			"name": "c",
			"outputs": [
				{
					"internalType": "uint256",
					"name": "",
					"type": "uint256"
				}
			],
			"stateMutability": "view",
			"type": "function"
		},
		{
			"inputs": [],
			"name": "channelClose",
			"outputs": [],
			"stateMutability": "payable",
			"type": "function"
		},
		{
			"inputs": [],
			"name": "costumer",
			"outputs": [
				{
					"internalType": "address",
					"name": "",
					"type": "address"
				}
			],
			"stateMutability": "view",
			"type": "function"
		},
		{
			"inputs": [],
			"name": "j",
			"outputs": [
				{
					"internalType": "uint256",
					"name": "",
					"type": "uint256"
				}
			],
			"stateMutability": "view",
			"type": "function"
		},
		{
			"inputs": [],
			"name": "start",
			"outputs": [
				{
					"internalType": "uint256",
					"name": "",
					"type": "uint256"
				}
			],
			"stateMutability": "view",
			"type": "function"
		},
		{
			"inputs": [
				{
					"internalType": "bytes",
					"name": "_W_km",
					"type": "bytes"
				},
				{
					"internalType": "bytes",
					"name": "_W_kc",
					"type": "bytes"
				},
				{
					"internalType": "uint256",
					"name": "k",
					"type": "uint256"
				},
				{
					"internalType": "address",
					"name": "newChannelAddress",
					"type": "address"
				}
			],
			"name": "transferDeposit",
			"outputs": [],
			"stateMutability": "nonpayable",
			"type": "function"
		},
		{
			"inputs": [],
			"name": "v",
			"outputs": [
				{
					"internalType": "uint256",
					"name": "",
					"type": "uint256"
				}
			],
			"stateMutability": "view",
			"type": "function"
		},
		{
			"stateMutability": "payable",
			"type": "receive"
		}
	]
}