{
	"data": {
		"bytecode": {
			"linkReferences": {},
			"object": "6080604052604051620018ad380380620018ad8339818101604052810190620000299190620000d3565b80600160006101000a81548173ffffffffffffffffffffffffffffffffffffffff021916908373ffffffffffffffffffffffffffffffffffffffff1602179055508260058190555081600681905550600034146200009c5781836200008f91906200012f565b34146200009b57600080fd5b5b50505062000236565b600081519050620000b68162000202565b92915050565b600081519050620000cd816200021c565b92915050565b600080600060608486031215620000ef57620000ee620001fd565b5b6000620000ff86828701620000bc565b93505060206200011286828701620000bc565b92505060406200012586828701620000a5565b9150509250925092565b60006200013c82620001c4565b91506200014983620001c4565b9250817fffffffffffffffffffffffffffffffffffffffffffffffffffffffffffffffff0483118215151615620001855762000184620001ce565b5b828202905092915050565b60006200019d82620001a4565b9050919050565b600073ffffffffffffffffffffffffffffffffffffffff82169050919050565b6000819050919050565b7f4e487b7100000000000000000000000000000000000000000000000000000000600052601160045260246000fd5b600080fd5b6200020d8162000190565b81146200021957600080fd5b50565b6200022781620001c4565b81146200023357600080fd5b50565b61166780620002466000396000f3fe6080604052600436106100ec5760003560e01c806388bf19301161008a578063c3da42b811610059578063c3da42b8146102bb578063d8befbb6146102e6578063e8de68cc1461030f578063f493e8701461032b576100fa565b806388bf19301461020f5780639c21a9b81461023a578063b582ec5f14610265578063be9a655514610290576100fa565b806334133df9116100c657806334133df9146101635780635e6503181461018e5780637c2efcba146101b95780638182a11f146101e4576100fa565b80630482ff7614610103578063247634931461010d5780632804b2c014610138576100fa565b366100fa5747600581905550005b47600581905550005b61010b610356565b005b34801561011957600080fd5b5061012261041a565b60405161012f9190610f81565b60405180910390f35b34801561014457600080fd5b5061014d6104a8565b60405161015a9190610f4b565b60405180910390f35b34801561016f57600080fd5b506101786104ce565b6040516101859190611043565b60405180910390f35b34801561019a57600080fd5b506101a36104d4565b6040516101b09190610f66565b60405180910390f35b3480156101c557600080fd5b506101ce6104da565b6040516101db9190611043565b60405180910390f35b3480156101f057600080fd5b506101f96104e0565b6040516102069190611043565b60405180910390f35b34801561021b57600080fd5b506102246104e8565b6040516102319190610f66565b60405180910390f35b34801561024657600080fd5b5061024f6104ee565b60405161025c9190611043565b60405180910390f35b34801561027157600080fd5b5061027a6104f4565b6040516102879190611043565b60405180910390f35b34801561029c57600080fd5b506102a56104fa565b6040516102b29190611043565b60405180910390f35b3480156102c757600080fd5b506102d0610500565b6040516102dd9190611043565b60405180910390f35b3480156102f257600080fd5b5061030d60048036038101906103089190610ce5565b610506565b005b61032960048036038101906103249190610c13565b6108f7565b005b34801561033757600080fd5b50610340610a09565b60405161034d9190611043565b60405180910390f35b600160009054906101000a900473ffffffffffffffffffffffffffffffffffffffff1673ffffffffffffffffffffffffffffffffffffffff163373ffffffffffffffffffffffffffffffffffffffff16146103e6576040517f08c379a00000000000000000000000000000000000000000000000000000000081526004016103dd90611003565b60405180910390fd5b426008546007546103f79190611127565b1061040157600080fd5b3373ffffffffffffffffffffffffffffffffffffffff16ff5b6004805461042790611355565b80601f016020809104026020016040519081016040528092919081815260200182805461045390611355565b80156104a05780601f10610475576101008083540402835291602001916104a0565b820191906000526020600020905b81548152906001019060200180831161048357829003601f168201915b505050505081565b600160009054906101000a900473ffffffffffffffffffffffffffffffffffffffff1681565b60095481565b60035481565b60065481565b600042905090565b60025481565b60085481565b60005481565b600a5481565b60055481565b6008546007546105169190611127565b4210610557576040517f08c379a000000000000000000000000000000000000000000000000000000000815260040161054e90610fc3565b60405180910390fd5b600054821161059b576040517f08c379a000000000000000000000000000000000000000000000000000000000815260040161059290610fe3565b60405180910390fd5b600080856105a890611282565b90506000856105b690611282565b905060008054866105c79190611208565b90505b600081146106c7576002836040516020016105e59190610f04565b6040516020818303038152906040526040516106019190610f1f565b602060405180830381855afa15801561061e573d6000803e3d6000fd5b5050506040513d601f19601f820116820180604052508101906106419190610be6565b92506002826040516020016106569190610f04565b6040516020818303038152906040526040516106729190610f1f565b602060405180830381855afa15801561068f573d6000803e3d6000fd5b5050506040513d601f19601f820116820180604052508101906106b29190610be6565b915080806106bf9061132b565b9150506105ca565b826002541461070b576040517f08c379a000000000000000000000000000000000000000000000000000000000815260040161070290611023565b60405180910390fd5b816003541461074f576040517f08c379a000000000000000000000000000000000000000000000000000000000815260040161074690610fa3565b60405180910390fd5b600060028761075e91906113c2565b1415610785576002600054876107749190611208565b61077e919061117d565b93506107ae565b60026001600054886107979190611208565b6107a19190611208565b6107ab919061117d565b93505b600073ffffffffffffffffffffffffffffffffffffffff168573ffffffffffffffffffffffffffffffffffffffff161461085d578473ffffffffffffffffffffffffffffffffffffffff166006548561080791906111ae565b60405161081390610f36565b60006040518083038185875af1925050503d8060008114610850576040519150601f19603f3d011682016040523d82523d6000602084013e610855565b606091505b5050506108b2565b3373ffffffffffffffffffffffffffffffffffffffff166108fc6006548661088591906111ae565b9081150290604051600060405180830381858888f193505050501580156108b0573d6000803e3d6000fd5b505b836005546108c09190611208565b60058190555085600081905550876108d790611282565b600281905550866108e790611282565b6003819055505050505050505050565b600160009054906101000a900473ffffffffffffffffffffffffffffffffffffffff1673ffffffffffffffffffffffffffffffffffffffff163373ffffffffffffffffffffffffffffffffffffffff1614610987576040517f08c379a000000000000000000000000000000000000000000000000000000000815260040161097e90611003565b60405180910390fd5b838561099391906111ae565b344761099f9190611127565b146109a957600080fd5b60008081905550876002819055508660038190555085600490805190602001906109d4929190610a0f565b50846005819055508360068190555042600a819055508260078190555081600881905550806009819055505050505050505050565b60075481565b828054610a1b90611355565b90600052602060002090601f016020900481019282610a3d5760008555610a84565b82601f10610a5657805160ff1916838001178555610a84565b82800160010185558215610a84579182015b82811115610a83578251825591602001919060010190610a68565b5b509050610a919190610a95565b5090565b5b80821115610aae576000816000905550600101610a96565b5090565b6000610ac5610ac084611083565b61105e565b905082815260208101848484011115610ae157610ae06114c9565b5b610aec8482856112e9565b509392505050565b6000610b07610b02846110b4565b61105e565b905082815260208101848484011115610b2357610b226114c9565b5b610b2e8482856112e9565b509392505050565b600081359050610b45816115ec565b92915050565b600081359050610b5a81611603565b92915050565b600081519050610b6f81611603565b92915050565b600082601f830112610b8a57610b896114c4565b5b8135610b9a848260208601610ab2565b91505092915050565b600082601f830112610bb857610bb76114c4565b5b8135610bc8848260208601610af4565b91505092915050565b600081359050610be08161161a565b92915050565b600060208284031215610bfc57610bfb6114d3565b5b6000610c0a84828501610b60565b91505092915050565b600080600080600080600080610100898b031215610c3457610c336114d3565b5b6000610c428b828c01610b4b565b9850506020610c538b828c01610b4b565b975050604089013567ffffffffffffffff811115610c7457610c736114ce565b5b610c808b828c01610ba3565b9650506060610c918b828c01610bd1565b9550506080610ca28b828c01610bd1565b94505060a0610cb38b828c01610bd1565b93505060c0610cc48b828c01610bd1565b92505060e0610cd58b828c01610bd1565b9150509295985092959890939650565b60008060008060808587031215610cff57610cfe6114d3565b5b600085013567ffffffffffffffff811115610d1d57610d1c6114ce565b5b610d2987828801610b75565b945050602085013567ffffffffffffffff811115610d4a57610d496114ce565b5b610d5687828801610b75565b9350506040610d6787828801610bd1565b9250506060610d7887828801610b36565b91505092959194509250565b610d8d8161123c565b82525050565b610d9c8161124e565b82525050565b610db3610dae8261124e565b6113b8565b82525050565b6000610dc4826110f5565b610dce818561110b565b9350610dde8185602086016112f8565b80840191505092915050565b6000610df582611100565b610dff8185611116565b9350610e0f8185602086016112f8565b610e18816114d8565b840191505092915050565b6000610e30601183611116565b9150610e3b826114f6565b602082019050919050565b6000610e53600a83611116565b9150610e5e8261151f565b602082019050919050565b6000610e76600683611116565b9150610e8182611548565b602082019050919050565b6000610e99603983611116565b9150610ea482611571565b604082019050919050565b6000610ebc60008361110b565b9150610ec7826115c0565b600082019050919050565b6000610edf601183611116565b9150610eea826115c3565b602082019050919050565b610efe81611278565b82525050565b6000610f108284610da2565b60208201915081905092915050565b6000610f2b8284610db9565b915081905092915050565b6000610f4182610eaf565b9150819050919050565b6000602082019050610f606000830184610d84565b92915050565b6000602082019050610f7b6000830184610d93565b92915050565b60006020820190508181036000830152610f9b8184610dea565b905092915050565b60006020820190508181036000830152610fbc81610e23565b9050919050565b60006020820190508181036000830152610fdc81610e46565b9050919050565b60006020820190508181036000830152610ffc81610e69565b9050919050565b6000602082019050818103600083015261101c81610e8c565b9050919050565b6000602082019050818103600083015261103c81610ed2565b9050919050565b60006020820190506110586000830184610ef5565b92915050565b6000611068611079565b90506110748282611387565b919050565b6000604051905090565b600067ffffffffffffffff82111561109e5761109d611480565b5b6110a7826114d8565b9050602081019050919050565b600067ffffffffffffffff8211156110cf576110ce611480565b5b6110d8826114d8565b9050602081019050919050565b6000819050602082019050919050565b600081519050919050565b600081519050919050565b600081905092915050565b600082825260208201905092915050565b600061113282611278565b915061113d83611278565b9250827fffffffffffffffffffffffffffffffffffffffffffffffffffffffffffffffff03821115611172576111716113f3565b5b828201905092915050565b600061118882611278565b915061119383611278565b9250826111a3576111a2611422565b5b828204905092915050565b60006111b982611278565b91506111c483611278565b9250817fffffffffffffffffffffffffffffffffffffffffffffffffffffffffffffffff04831182151516156111fd576111fc6113f3565b5b828202905092915050565b600061121382611278565b915061121e83611278565b925082821015611231576112306113f3565b5b828203905092915050565b600061124782611258565b9050919050565b6000819050919050565b600073ffffffffffffffffffffffffffffffffffffffff82169050919050565b6000819050919050565b600061128d826110f5565b82611297846110e5565b90506112a2816114af565b925060208210156112e2576112dd7fffffffffffffffffffffffffffffffffffffffffffffffffffffffffffffffff836020036008026114e9565b831692505b5050919050565b82818337600083830152505050565b60005b838110156113165780820151818401526020810190506112fb565b83811115611325576000848401525b50505050565b600061133682611278565b9150600082141561134a576113496113f3565b5b600182039050919050565b6000600282049050600182168061136d57607f821691505b6020821081141561138157611380611451565b5b50919050565b611390826114d8565b810181811067ffffffffffffffff821117156113af576113ae611480565b5b80604052505050565b6000819050919050565b60006113cd82611278565b91506113d883611278565b9250826113e8576113e7611422565b5b828206905092915050565b7f4e487b7100000000000000000000000000000000000000000000000000000000600052601160045260246000fd5b7f4e487b7100000000000000000000000000000000000000000000000000000000600052601260045260246000fd5b7f4e487b7100000000000000000000000000000000000000000000000000000000600052602260045260246000fd5b7f4e487b7100000000000000000000000000000000000000000000000000000000600052604160045260246000fd5b60006114bb825161124e565b80915050919050565b600080fd5b600080fd5b600080fd5b600080fd5b6000601f19601f8301169050919050565b600082821b905092915050565b7f575f6b6320697320696e636f7272656374000000000000000000000000000000600082015250565b7f54696d65206572726f7200000000000000000000000000000000000000000000600082015250565b7f6b203c3d206a0000000000000000000000000000000000000000000000000000600082015250565b7f4f6e6c7920637573746f6d6572206f66207468652064656c697665727920636160008201527f6e2073657420746865206368616e6e656c20706172616d732e00000000000000602082015250565b50565b7f575f6b6d20697320696e636f7272656374000000000000000000000000000000600082015250565b6115f58161123c565b811461160057600080fd5b50565b61160c8161124e565b811461161757600080fd5b50565b61162381611278565b811461162e57600080fd5b5056fea26469706673582212207b4fd150294eb9bf53551a0cda5da6f0340c537f95a43eedf11da1acbd26a4aa64736f6c63430008070033",
			"opcodes": "PUSH1 0x80 PUSH1 0x40 MSTORE PUSH1 0x40 MLOAD PUSH3 0x18AD CODESIZE SUB DUP1 PUSH3 0x18AD DUP4 CODECOPY DUP2 DUP2 ADD PUSH1 0x40 MSTORE DUP2 ADD SWAP1 PUSH3 0x29 SWAP2 SWAP1 PUSH3 0xD3 JUMP JUMPDEST DUP1 PUSH1 0x1 PUSH1 0x0 PUSH2 0x100 EXP DUP2 SLOAD DUP2 PUSH20 0xFFFFFFFFFFFFFFFFFFFFFFFFFFFFFFFFFFFFFFFF MUL NOT AND SWAP1 DUP4 PUSH20 0xFFFFFFFFFFFFFFFFFFFFFFFFFFFFFFFFFFFFFFFF AND MUL OR SWAP1 SSTORE POP DUP3 PUSH1 0x5 DUP2 SWAP1 SSTORE POP DUP2 PUSH1 0x6 DUP2 SWAP1 SSTORE POP PUSH1 0x0 CALLVALUE EQ PUSH3 0x9C JUMPI DUP2 DUP4 PUSH3 0x8F SWAP2 SWAP1 PUSH3 0x12F JUMP JUMPDEST CALLVALUE EQ PUSH3 0x9B JUMPI PUSH1 0x0 DUP1 REVERT JUMPDEST JUMPDEST POP POP POP PUSH3 0x236 JUMP JUMPDEST PUSH1 0x0 DUP2 MLOAD SWAP1 POP PUSH3 0xB6 DUP2 PUSH3 0x202 JUMP JUMPDEST SWAP3 SWAP2 POP POP JUMP JUMPDEST PUSH1 0x0 DUP2 MLOAD SWAP1 POP PUSH3 0xCD DUP2 PUSH3 0x21C JUMP JUMPDEST SWAP3 SWAP2 POP POP JUMP JUMPDEST PUSH1 0x0 DUP1 PUSH1 0x0 PUSH1 0x60 DUP5 DUP7 SUB SLT ISZERO PUSH3 0xEF JUMPI PUSH3 0xEE PUSH3 0x1FD JUMP JUMPDEST JUMPDEST PUSH1 0x0 PUSH3 0xFF DUP7 DUP3 DUP8 ADD PUSH3 0xBC JUMP JUMPDEST SWAP4 POP POP PUSH1 0x20 PUSH3 0x112 DUP7 DUP3 DUP8 ADD PUSH3 0xBC JUMP JUMPDEST SWAP3 POP POP PUSH1 0x40 PUSH3 0x125 DUP7 DUP3 DUP8 ADD PUSH3 0xA5 JUMP JUMPDEST SWAP2 POP POP SWAP3 POP SWAP3 POP SWAP3 JUMP JUMPDEST PUSH1 0x0 PUSH3 0x13C DUP3 PUSH3 0x1C4 JUMP JUMPDEST SWAP2 POP PUSH3 0x149 DUP4 PUSH3 0x1C4 JUMP JUMPDEST SWAP3 POP DUP2 PUSH32 0xFFFFFFFFFFFFFFFFFFFFFFFFFFFFFFFFFFFFFFFFFFFFFFFFFFFFFFFFFFFFFFFF DIV DUP4 GT DUP3 ISZERO ISZERO AND ISZERO PUSH3 0x185 JUMPI PUSH3 0x184 PUSH3 0x1CE JUMP JUMPDEST JUMPDEST DUP3 DUP3 MUL SWAP1 POP SWAP3 SWAP2 POP POP JUMP JUMPDEST PUSH1 0x0 PUSH3 0x19D DUP3 PUSH3 0x1A4 JUMP JUMPDEST SWAP1 POP SWAP2 SWAP1 POP JUMP JUMPDEST PUSH1 0x0 PUSH20 0xFFFFFFFFFFFFFFFFFFFFFFFFFFFFFFFFFFFFFFFF DUP3 AND SWAP1 POP SWAP2 SWAP1 POP JUMP JUMPDEST PUSH1 0x0 DUP2 SWAP1 POP SWAP2 SWAP1 POP JUMP JUMPDEST PUSH32 0x4E487B7100000000000000000000000000000000000000000000000000000000 PUSH1 0x0 MSTORE PUSH1 0x11 PUSH1 0x4 MSTORE PUSH1 0x24 PUSH1 0x0 REVERT JUMPDEST PUSH1 0x0 DUP1 REVERT JUMPDEST PUSH3 0x20D DUP2 PUSH3 0x190 JUMP JUMPDEST DUP2 EQ PUSH3 0x219 JUMPI PUSH1 0x0 DUP1 REVERT JUMPDEST POP JUMP JUMPDEST PUSH3 0x227 DUP2 PUSH3 0x1C4 JUMP JUMPDEST DUP2 EQ PUSH3 0x233 JUMPI PUSH1 0x0 DUP1 REVERT JUMPDEST POP JUMP JUMPDEST PUSH2 0x1667 DUP1 PUSH3 0x246 PUSH1 0x0 CODECOPY PUSH1 0x0 RETURN INVALID PUSH1 0x80 PUSH1 0x40 MSTORE PUSH1 0x4 CALLDATASIZE LT PUSH2 0xEC JUMPI PUSH1 0x0 CALLDATALOAD PUSH1 0xE0 SHR DUP1 PUSH4 0x88BF1930 GT PUSH2 0x8A JUMPI DUP1 PUSH4 0xC3DA42B8 GT PUSH2 0x59 JUMPI DUP1 PUSH4 0xC3DA42B8 EQ PUSH2 0x2BB JUMPI DUP1 PUSH4 0xD8BEFBB6 EQ PUSH2 0x2E6 JUMPI DUP1 PUSH4 0xE8DE68CC EQ PUSH2 0x30F JUMPI DUP1 PUSH4 0xF493E870 EQ PUSH2 0x32B JUMPI PUSH2 0xFA JUMP JUMPDEST DUP1 PUSH4 0x88BF1930 EQ PUSH2 0x20F JUMPI DUP1 PUSH4 0x9C21A9B8 EQ PUSH2 0x23A JUMPI DUP1 PUSH4 0xB582EC5F EQ PUSH2 0x265 JUMPI DUP1 PUSH4 0xBE9A6555 EQ PUSH2 0x290 JUMPI PUSH2 0xFA JUMP JUMPDEST DUP1 PUSH4 0x34133DF9 GT PUSH2 0xC6 JUMPI DUP1 PUSH4 0x34133DF9 EQ PUSH2 0x163 JUMPI DUP1 PUSH4 0x5E650318 EQ PUSH2 0x18E JUMPI DUP1 PUSH4 0x7C2EFCBA EQ PUSH2 0x1B9 JUMPI DUP1 PUSH4 0x8182A11F EQ PUSH2 0x1E4 JUMPI PUSH2 0xFA JUMP JUMPDEST DUP1 PUSH4 0x482FF76 EQ PUSH2 0x103 JUMPI DUP1 PUSH4 0x24763493 EQ PUSH2 0x10D JUMPI DUP1 PUSH4 0x2804B2C0 EQ PUSH2 0x138 JUMPI PUSH2 0xFA JUMP JUMPDEST CALLDATASIZE PUSH2 0xFA JUMPI SELFBALANCE PUSH1 0x5 DUP2 SWAP1 SSTORE POP STOP JUMPDEST SELFBALANCE PUSH1 0x5 DUP2 SWAP1 SSTORE POP STOP JUMPDEST PUSH2 0x10B PUSH2 0x356 JUMP JUMPDEST STOP JUMPDEST CALLVALUE DUP1 ISZERO PUSH2 0x119 JUMPI PUSH1 0x0 DUP1 REVERT JUMPDEST POP PUSH2 0x122 PUSH2 0x41A JUMP JUMPDEST PUSH1 0x40 MLOAD PUSH2 0x12F SWAP2 SWAP1 PUSH2 0xF81 JUMP JUMPDEST PUSH1 0x40 MLOAD DUP1 SWAP2 SUB SWAP1 RETURN JUMPDEST CALLVALUE DUP1 ISZERO PUSH2 0x144 JUMPI PUSH1 0x0 DUP1 REVERT JUMPDEST POP PUSH2 0x14D PUSH2 0x4A8 JUMP JUMPDEST PUSH1 0x40 MLOAD PUSH2 0x15A SWAP2 SWAP1 PUSH2 0xF4B JUMP JUMPDEST PUSH1 0x40 MLOAD DUP1 SWAP2 SUB SWAP1 RETURN JUMPDEST CALLVALUE DUP1 ISZERO PUSH2 0x16F JUMPI PUSH1 0x0 DUP1 REVERT JUMPDEST POP PUSH2 0x178 PUSH2 0x4CE JUMP JUMPDEST PUSH1 0x40 MLOAD PUSH2 0x185 SWAP2 SWAP1 PUSH2 0x1043 JUMP JUMPDEST PUSH1 0x40 MLOAD DUP1 SWAP2 SUB SWAP1 RETURN JUMPDEST CALLVALUE DUP1 ISZERO PUSH2 0x19A JUMPI PUSH1 0x0 DUP1 REVERT JUMPDEST POP PUSH2 0x1A3 PUSH2 0x4D4 JUMP JUMPDEST PUSH1 0x40 MLOAD PUSH2 0x1B0 SWAP2 SWAP1 PUSH2 0xF66 JUMP JUMPDEST PUSH1 0x40 MLOAD DUP1 SWAP2 SUB SWAP1 RETURN JUMPDEST CALLVALUE DUP1 ISZERO PUSH2 0x1C5 JUMPI PUSH1 0x0 DUP1 REVERT JUMPDEST POP PUSH2 0x1CE PUSH2 0x4DA JUMP JUMPDEST PUSH1 0x40 MLOAD PUSH2 0x1DB SWAP2 SWAP1 PUSH2 0x1043 JUMP JUMPDEST PUSH1 0x40 MLOAD DUP1 SWAP2 SUB SWAP1 RETURN JUMPDEST CALLVALUE DUP1 ISZERO PUSH2 0x1F0 JUMPI PUSH1 0x0 DUP1 REVERT JUMPDEST POP PUSH2 0x1F9 PUSH2 0x4E0 JUMP JUMPDEST PUSH1 0x40 MLOAD PUSH2 0x206 SWAP2 SWAP1 PUSH2 0x1043 JUMP JUMPDEST PUSH1 0x40 MLOAD DUP1 SWAP2 SUB SWAP1 RETURN JUMPDEST CALLVALUE DUP1 ISZERO PUSH2 0x21B JUMPI PUSH1 0x0 DUP1 REVERT JUMPDEST POP PUSH2 0x224 PUSH2 0x4E8 JUMP JUMPDEST PUSH1 0x40 MLOAD PUSH2 0x231 SWAP2 SWAP1 PUSH2 0xF66 JUMP JUMPDEST PUSH1 0x40 MLOAD DUP1 SWAP2 SUB SWAP1 RETURN JUMPDEST CALLVALUE DUP1 ISZERO PUSH2 0x246 JUMPI PUSH1 0x0 DUP1 REVERT JUMPDEST POP PUSH2 0x24F PUSH2 0x4EE JUMP JUMPDEST PUSH1 0x40 MLOAD PUSH2 0x25C SWAP2 SWAP1 PUSH2 0x1043 JUMP JUMPDEST PUSH1 0x40 MLOAD DUP1 SWAP2 SUB SWAP1 RETURN JUMPDEST CALLVALUE DUP1 ISZERO PUSH2 0x271 JUMPI PUSH1 0x0 DUP1 REVERT JUMPDEST POP PUSH2 0x27A PUSH2 0x4F4 JUMP JUMPDEST PUSH1 0x40 MLOAD PUSH2 0x287 SWAP2 SWAP1 PUSH2 0x1043 JUMP JUMPDEST PUSH1 0x40 MLOAD DUP1 SWAP2 SUB SWAP1 RETURN JUMPDEST CALLVALUE DUP1 ISZERO PUSH2 0x29C JUMPI PUSH1 0x0 DUP1 REVERT JUMPDEST POP PUSH2 0x2A5 PUSH2 0x4FA JUMP JUMPDEST PUSH1 0x40 MLOAD PUSH2 0x2B2 SWAP2 SWAP1 PUSH2 0x1043 JUMP JUMPDEST PUSH1 0x40 MLOAD DUP1 SWAP2 SUB SWAP1 RETURN JUMPDEST CALLVALUE DUP1 ISZERO PUSH2 0x2C7 JUMPI PUSH1 0x0 DUP1 REVERT JUMPDEST POP PUSH2 0x2D0 PUSH2 0x500 JUMP JUMPDEST PUSH1 0x40 MLOAD PUSH2 0x2DD SWAP2 SWAP1 PUSH2 0x1043 JUMP JUMPDEST PUSH1 0x40 MLOAD DUP1 SWAP2 SUB SWAP1 RETURN JUMPDEST CALLVALUE DUP1 ISZERO PUSH2 0x2F2 JUMPI PUSH1 0x0 DUP1 REVERT JUMPDEST POP PUSH2 0x30D PUSH1 0x4 DUP1 CALLDATASIZE SUB DUP2 ADD SWAP1 PUSH2 0x308 SWAP2 SWAP1 PUSH2 0xCE5 JUMP JUMPDEST PUSH2 0x506 JUMP JUMPDEST STOP JUMPDEST PUSH2 0x329 PUSH1 0x4 DUP1 CALLDATASIZE SUB DUP2 ADD SWAP1 PUSH2 0x324 SWAP2 SWAP1 PUSH2 0xC13 JUMP JUMPDEST PUSH2 0x8F7 JUMP JUMPDEST STOP JUMPDEST CALLVALUE DUP1 ISZERO PUSH2 0x337 JUMPI PUSH1 0x0 DUP1 REVERT JUMPDEST POP PUSH2 0x340 PUSH2 0xA09 JUMP JUMPDEST PUSH1 0x40 MLOAD PUSH2 0x34D SWAP2 SWAP1 PUSH2 0x1043 JUMP JUMPDEST PUSH1 0x40 MLOAD DUP1 SWAP2 SUB SWAP1 RETURN JUMPDEST PUSH1 0x1 PUSH1 0x0 SWAP1 SLOAD SWAP1 PUSH2 0x100 EXP SWAP1 DIV PUSH20 0xFFFFFFFFFFFFFFFFFFFFFFFFFFFFFFFFFFFFFFFF AND PUSH20 0xFFFFFFFFFFFFFFFFFFFFFFFFFFFFFFFFFFFFFFFF AND CALLER PUSH20 0xFFFFFFFFFFFFFFFFFFFFFFFFFFFFFFFFFFFFFFFF AND EQ PUSH2 0x3E6 JUMPI PUSH1 0x40 MLOAD PUSH32 0x8C379A000000000000000000000000000000000000000000000000000000000 DUP2 MSTORE PUSH1 0x4 ADD PUSH2 0x3DD SWAP1 PUSH2 0x1003 JUMP JUMPDEST PUSH1 0x40 MLOAD DUP1 SWAP2 SUB SWAP1 REVERT JUMPDEST TIMESTAMP PUSH1 0x8 SLOAD PUSH1 0x7 SLOAD PUSH2 0x3F7 SWAP2 SWAP1 PUSH2 0x1127 JUMP JUMPDEST LT PUSH2 0x401 JUMPI PUSH1 0x0 DUP1 REVERT JUMPDEST CALLER PUSH20 0xFFFFFFFFFFFFFFFFFFFFFFFFFFFFFFFFFFFFFFFF AND SELFDESTRUCT JUMPDEST PUSH1 0x4 DUP1 SLOAD PUSH2 0x427 SWAP1 PUSH2 0x1355 JUMP JUMPDEST DUP1 PUSH1 0x1F ADD PUSH1 0x20 DUP1 SWAP2 DIV MUL PUSH1 0x20 ADD PUSH1 0x40 MLOAD SWAP1 DUP2 ADD PUSH1 0x40 MSTORE DUP1 SWAP3 SWAP2 SWAP1 DUP2 DUP2 MSTORE PUSH1 0x20 ADD DUP3 DUP1 SLOAD PUSH2 0x453 SWAP1 PUSH2 0x1355 JUMP JUMPDEST DUP1 ISZERO PUSH2 0x4A0 JUMPI DUP1 PUSH1 0x1F LT PUSH2 0x475 JUMPI PUSH2 0x100 DUP1 DUP4 SLOAD DIV MUL DUP4 MSTORE SWAP2 PUSH1 0x20 ADD SWAP2 PUSH2 0x4A0 JUMP JUMPDEST DUP3 ADD SWAP2 SWAP1 PUSH1 0x0 MSTORE PUSH1 0x20 PUSH1 0x0 KECCAK256 SWAP1 JUMPDEST DUP2 SLOAD DUP2 MSTORE SWAP1 PUSH1 0x1 ADD SWAP1 PUSH1 0x20 ADD DUP1 DUP4 GT PUSH2 0x483 JUMPI DUP3 SWAP1 SUB PUSH1 0x1F AND DUP3 ADD SWAP2 JUMPDEST POP POP POP POP POP DUP2 JUMP JUMPDEST PUSH1 0x1 PUSH1 0x0 SWAP1 SLOAD SWAP1 PUSH2 0x100 EXP SWAP1 DIV PUSH20 0xFFFFFFFFFFFFFFFFFFFFFFFFFFFFFFFFFFFFFFFF AND DUP2 JUMP JUMPDEST PUSH1 0x9 SLOAD DUP2 JUMP JUMPDEST PUSH1 0x3 SLOAD DUP2 JUMP JUMPDEST PUSH1 0x6 SLOAD DUP2 JUMP JUMPDEST PUSH1 0x0 TIMESTAMP SWAP1 POP SWAP1 JUMP JUMPDEST PUSH1 0x2 SLOAD DUP2 JUMP JUMPDEST PUSH1 0x8 SLOAD DUP2 JUMP JUMPDEST PUSH1 0x0 SLOAD DUP2 JUMP JUMPDEST PUSH1 0xA SLOAD DUP2 JUMP JUMPDEST PUSH1 0x5 SLOAD DUP2 JUMP JUMPDEST PUSH1 0x8 SLOAD PUSH1 0x7 SLOAD PUSH2 0x516 SWAP2 SWAP1 PUSH2 0x1127 JUMP JUMPDEST TIMESTAMP LT PUSH2 0x557 JUMPI PUSH1 0x40 MLOAD PUSH32 0x8C379A000000000000000000000000000000000000000000000000000000000 DUP2 MSTORE PUSH1 0x4 ADD PUSH2 0x54E SWAP1 PUSH2 0xFC3 JUMP JUMPDEST PUSH1 0x40 MLOAD DUP1 SWAP2 SUB SWAP1 REVERT JUMPDEST PUSH1 0x0 SLOAD DUP3 GT PUSH2 0x59B JUMPI PUSH1 0x40 MLOAD PUSH32 0x8C379A000000000000000000000000000000000000000000000000000000000 DUP2 MSTORE PUSH1 0x4 ADD PUSH2 0x592 SWAP1 PUSH2 0xFE3 JUMP JUMPDEST PUSH1 0x40 MLOAD DUP1 SWAP2 SUB SWAP1 REVERT JUMPDEST PUSH1 0x0 DUP1 DUP6 PUSH2 0x5A8 SWAP1 PUSH2 0x1282 JUMP JUMPDEST SWAP1 POP PUSH1 0x0 DUP6 PUSH2 0x5B6 SWAP1 PUSH2 0x1282 JUMP JUMPDEST SWAP1 POP PUSH1 0x0 DUP1 SLOAD DUP7 PUSH2 0x5C7 SWAP2 SWAP1 PUSH2 0x1208 JUMP JUMPDEST SWAP1 POP JUMPDEST PUSH1 0x0 DUP2 EQ PUSH2 0x6C7 JUMPI PUSH1 0x2 DUP4 PUSH1 0x40 MLOAD PUSH1 0x20 ADD PUSH2 0x5E5 SWAP2 SWAP1 PUSH2 0xF04 JUMP JUMPDEST PUSH1 0x40 MLOAD PUSH1 0x20 DUP2 DUP4 SUB SUB DUP2 MSTORE SWAP1 PUSH1 0x40 MSTORE PUSH1 0x40 MLOAD PUSH2 0x601 SWAP2 SWAP1 PUSH2 0xF1F JUMP JUMPDEST PUSH1 0x20 PUSH1 0x40 MLOAD DUP1 DUP4 SUB DUP2 DUP6 GAS STATICCALL ISZERO DUP1 ISZERO PUSH2 0x61E JUMPI RETURNDATASIZE PUSH1 0x0 DUP1 RETURNDATACOPY RETURNDATASIZE PUSH1 0x0 REVERT JUMPDEST POP POP POP PUSH1 0x40 MLOAD RETURNDATASIZE PUSH1 0x1F NOT PUSH1 0x1F DUP3 ADD AND DUP3 ADD DUP1 PUSH1 0x40 MSTORE POP DUP2 ADD SWAP1 PUSH2 0x641 SWAP2 SWAP1 PUSH2 0xBE6 JUMP JUMPDEST SWAP3 POP PUSH1 0x2 DUP3 PUSH1 0x40 MLOAD PUSH1 0x20 ADD PUSH2 0x656 SWAP2 SWAP1 PUSH2 0xF04 JUMP JUMPDEST PUSH1 0x40 MLOAD PUSH1 0x20 DUP2 DUP4 SUB SUB DUP2 MSTORE SWAP1 PUSH1 0x40 MSTORE PUSH1 0x40 MLOAD PUSH2 0x672 SWAP2 SWAP1 PUSH2 0xF1F JUMP JUMPDEST PUSH1 0x20 PUSH1 0x40 MLOAD DUP1 DUP4 SUB DUP2 DUP6 GAS STATICCALL ISZERO DUP1 ISZERO PUSH2 0x68F JUMPI RETURNDATASIZE PUSH1 0x0 DUP1 RETURNDATACOPY RETURNDATASIZE PUSH1 0x0 REVERT JUMPDEST POP POP POP PUSH1 0x40 MLOAD RETURNDATASIZE PUSH1 0x1F NOT PUSH1 0x1F DUP3 ADD AND DUP3 ADD DUP1 PUSH1 0x40 MSTORE POP DUP2 ADD SWAP1 PUSH2 0x6B2 SWAP2 SWAP1 PUSH2 0xBE6 JUMP JUMPDEST SWAP2 POP DUP1 DUP1 PUSH2 0x6BF SWAP1 PUSH2 0x132B JUMP JUMPDEST SWAP2 POP POP PUSH2 0x5CA JUMP JUMPDEST DUP3 PUSH1 0x2 SLOAD EQ PUSH2 0x70B JUMPI PUSH1 0x40 MLOAD PUSH32 0x8C379A000000000000000000000000000000000000000000000000000000000 DUP2 MSTORE PUSH1 0x4 ADD PUSH2 0x702 SWAP1 PUSH2 0x1023 JUMP JUMPDEST PUSH1 0x40 MLOAD DUP1 SWAP2 SUB SWAP1 REVERT JUMPDEST DUP2 PUSH1 0x3 SLOAD EQ PUSH2 0x74F JUMPI PUSH1 0x40 MLOAD PUSH32 0x8C379A000000000000000000000000000000000000000000000000000000000 DUP2 MSTORE PUSH1 0x4 ADD PUSH2 0x746 SWAP1 PUSH2 0xFA3 JUMP JUMPDEST PUSH1 0x40 MLOAD DUP1 SWAP2 SUB SWAP1 REVERT JUMPDEST PUSH1 0x0 PUSH1 0x2 DUP8 PUSH2 0x75E SWAP2 SWAP1 PUSH2 0x13C2 JUMP JUMPDEST EQ ISZERO PUSH2 0x785 JUMPI PUSH1 0x2 PUSH1 0x0 SLOAD DUP8 PUSH2 0x774 SWAP2 SWAP1 PUSH2 0x1208 JUMP JUMPDEST PUSH2 0x77E SWAP2 SWAP1 PUSH2 0x117D JUMP JUMPDEST SWAP4 POP PUSH2 0x7AE JUMP JUMPDEST PUSH1 0x2 PUSH1 0x1 PUSH1 0x0 SLOAD DUP9 PUSH2 0x797 SWAP2 SWAP1 PUSH2 0x1208 JUMP JUMPDEST PUSH2 0x7A1 SWAP2 SWAP1 PUSH2 0x1208 JUMP JUMPDEST PUSH2 0x7AB SWAP2 SWAP1 PUSH2 0x117D JUMP JUMPDEST SWAP4 POP JUMPDEST PUSH1 0x0 PUSH20 0xFFFFFFFFFFFFFFFFFFFFFFFFFFFFFFFFFFFFFFFF AND DUP6 PUSH20 0xFFFFFFFFFFFFFFFFFFFFFFFFFFFFFFFFFFFFFFFF AND EQ PUSH2 0x85D JUMPI DUP5 PUSH20 0xFFFFFFFFFFFFFFFFFFFFFFFFFFFFFFFFFFFFFFFF AND PUSH1 0x6 SLOAD DUP6 PUSH2 0x807 SWAP2 SWAP1 PUSH2 0x11AE JUMP JUMPDEST PUSH1 0x40 MLOAD PUSH2 0x813 SWAP1 PUSH2 0xF36 JUMP JUMPDEST PUSH1 0x0 PUSH1 0x40 MLOAD DUP1 DUP4 SUB DUP2 DUP6 DUP8 GAS CALL SWAP3 POP POP POP RETURNDATASIZE DUP1 PUSH1 0x0 DUP2 EQ PUSH2 0x850 JUMPI PUSH1 0x40 MLOAD SWAP2 POP PUSH1 0x1F NOT PUSH1 0x3F RETURNDATASIZE ADD AND DUP3 ADD PUSH1 0x40 MSTORE RETURNDATASIZE DUP3 MSTORE RETURNDATASIZE PUSH1 0x0 PUSH1 0x20 DUP5 ADD RETURNDATACOPY PUSH2 0x855 JUMP JUMPDEST PUSH1 0x60 SWAP2 POP JUMPDEST POP POP POP PUSH2 0x8B2 JUMP JUMPDEST CALLER PUSH20 0xFFFFFFFFFFFFFFFFFFFFFFFFFFFFFFFFFFFFFFFF AND PUSH2 0x8FC PUSH1 0x6 SLOAD DUP7 PUSH2 0x885 SWAP2 SWAP1 PUSH2 0x11AE JUMP JUMPDEST SWAP1 DUP2 ISZERO MUL SWAP1 PUSH1 0x40 MLOAD PUSH1 0x0 PUSH1 0x40 MLOAD DUP1 DUP4 SUB DUP2 DUP6 DUP9 DUP9 CALL SWAP4 POP POP POP POP ISZERO DUP1 ISZERO PUSH2 0x8B0 JUMPI RETURNDATASIZE PUSH1 0x0 DUP1 RETURNDATACOPY RETURNDATASIZE PUSH1 0x0 REVERT JUMPDEST POP JUMPDEST DUP4 PUSH1 0x5 SLOAD PUSH2 0x8C0 SWAP2 SWAP1 PUSH2 0x1208 JUMP JUMPDEST PUSH1 0x5 DUP2 SWAP1 SSTORE POP DUP6 PUSH1 0x0 DUP2 SWAP1 SSTORE POP DUP8 PUSH2 0x8D7 SWAP1 PUSH2 0x1282 JUMP JUMPDEST PUSH1 0x2 DUP2 SWAP1 SSTORE POP DUP7 PUSH2 0x8E7 SWAP1 PUSH2 0x1282 JUMP JUMPDEST PUSH1 0x3 DUP2 SWAP1 SSTORE POP POP POP POP POP POP POP POP POP JUMP JUMPDEST PUSH1 0x1 PUSH1 0x0 SWAP1 SLOAD SWAP1 PUSH2 0x100 EXP SWAP1 DIV PUSH20 0xFFFFFFFFFFFFFFFFFFFFFFFFFFFFFFFFFFFFFFFF AND PUSH20 0xFFFFFFFFFFFFFFFFFFFFFFFFFFFFFFFFFFFFFFFF AND CALLER PUSH20 0xFFFFFFFFFFFFFFFFFFFFFFFFFFFFFFFFFFFFFFFF AND EQ PUSH2 0x987 JUMPI PUSH1 0x40 MLOAD PUSH32 0x8C379A000000000000000000000000000000000000000000000000000000000 DUP2 MSTORE PUSH1 0x4 ADD PUSH2 0x97E SWAP1 PUSH2 0x1003 JUMP JUMPDEST PUSH1 0x40 MLOAD DUP1 SWAP2 SUB SWAP1 REVERT JUMPDEST DUP4 DUP6 PUSH2 0x993 SWAP2 SWAP1 PUSH2 0x11AE JUMP JUMPDEST CALLVALUE SELFBALANCE PUSH2 0x99F SWAP2 SWAP1 PUSH2 0x1127 JUMP JUMPDEST EQ PUSH2 0x9A9 JUMPI PUSH1 0x0 DUP1 REVERT JUMPDEST PUSH1 0x0 DUP1 DUP2 SWAP1 SSTORE POP DUP8 PUSH1 0x2 DUP2 SWAP1 SSTORE POP DUP7 PUSH1 0x3 DUP2 SWAP1 SSTORE POP DUP6 PUSH1 0x4 SWAP1 DUP1 MLOAD SWAP1 PUSH1 0x20 ADD SWAP1 PUSH2 0x9D4 SWAP3 SWAP2 SWAP1 PUSH2 0xA0F JUMP JUMPDEST POP DUP5 PUSH1 0x5 DUP2 SWAP1 SSTORE POP DUP4 PUSH1 0x6 DUP2 SWAP1 SSTORE POP TIMESTAMP PUSH1 0xA DUP2 SWAP1 SSTORE POP DUP3 PUSH1 0x7 DUP2 SWAP1 SSTORE POP DUP2 PUSH1 0x8 DUP2 SWAP1 SSTORE POP DUP1 PUSH1 0x9 DUP2 SWAP1 SSTORE POP POP POP POP POP POP POP POP POP JUMP JUMPDEST PUSH1 0x7 SLOAD DUP2 JUMP JUMPDEST DUP3 DUP1 SLOAD PUSH2 0xA1B SWAP1 PUSH2 0x1355 JUMP JUMPDEST SWAP1 PUSH1 0x0 MSTORE PUSH1 0x20 PUSH1 0x0 KECCAK256 SWAP1 PUSH1 0x1F ADD PUSH1 0x20 SWAP1 DIV DUP2 ADD SWAP3 DUP3 PUSH2 0xA3D JUMPI PUSH1 0x0 DUP6 SSTORE PUSH2 0xA84 JUMP JUMPDEST DUP3 PUSH1 0x1F LT PUSH2 0xA56 JUMPI DUP1 MLOAD PUSH1 0xFF NOT AND DUP4 DUP1 ADD OR DUP6 SSTORE PUSH2 0xA84 JUMP JUMPDEST DUP3 DUP1 ADD PUSH1 0x1 ADD DUP6 SSTORE DUP3 ISZERO PUSH2 0xA84 JUMPI SWAP2 DUP3 ADD JUMPDEST DUP3 DUP2 GT ISZERO PUSH2 0xA83 JUMPI DUP3 MLOAD DUP3 SSTORE SWAP2 PUSH1 0x20 ADD SWAP2 SWAP1 PUSH1 0x1 ADD SWAP1 PUSH2 0xA68 JUMP JUMPDEST JUMPDEST POP SWAP1 POP PUSH2 0xA91 SWAP2 SWAP1 PUSH2 0xA95 JUMP JUMPDEST POP SWAP1 JUMP JUMPDEST JUMPDEST DUP1 DUP3 GT ISZERO PUSH2 0xAAE JUMPI PUSH1 0x0 DUP2 PUSH1 0x0 SWAP1 SSTORE POP PUSH1 0x1 ADD PUSH2 0xA96 JUMP JUMPDEST POP SWAP1 JUMP JUMPDEST PUSH1 0x0 PUSH2 0xAC5 PUSH2 0xAC0 DUP5 PUSH2 0x1083 JUMP JUMPDEST PUSH2 0x105E JUMP JUMPDEST SWAP1 POP DUP3 DUP2 MSTORE PUSH1 0x20 DUP2 ADD DUP5 DUP5 DUP5 ADD GT ISZERO PUSH2 0xAE1 JUMPI PUSH2 0xAE0 PUSH2 0x14C9 JUMP JUMPDEST JUMPDEST PUSH2 0xAEC DUP5 DUP3 DUP6 PUSH2 0x12E9 JUMP JUMPDEST POP SWAP4 SWAP3 POP POP POP JUMP JUMPDEST PUSH1 0x0 PUSH2 0xB07 PUSH2 0xB02 DUP5 PUSH2 0x10B4 JUMP JUMPDEST PUSH2 0x105E JUMP JUMPDEST SWAP1 POP DUP3 DUP2 MSTORE PUSH1 0x20 DUP2 ADD DUP5 DUP5 DUP5 ADD GT ISZERO PUSH2 0xB23 JUMPI PUSH2 0xB22 PUSH2 0x14C9 JUMP JUMPDEST JUMPDEST PUSH2 0xB2E DUP5 DUP3 DUP6 PUSH2 0x12E9 JUMP JUMPDEST POP SWAP4 SWAP3 POP POP POP JUMP JUMPDEST PUSH1 0x0 DUP2 CALLDATALOAD SWAP1 POP PUSH2 0xB45 DUP2 PUSH2 0x15EC JUMP JUMPDEST SWAP3 SWAP2 POP POP JUMP JUMPDEST PUSH1 0x0 DUP2 CALLDATALOAD SWAP1 POP PUSH2 0xB5A DUP2 PUSH2 0x1603 JUMP JUMPDEST SWAP3 SWAP2 POP POP JUMP JUMPDEST PUSH1 0x0 DUP2 MLOAD SWAP1 POP PUSH2 0xB6F DUP2 PUSH2 0x1603 JUMP JUMPDEST SWAP3 SWAP2 POP POP JUMP JUMPDEST PUSH1 0x0 DUP3 PUSH1 0x1F DUP4 ADD SLT PUSH2 0xB8A JUMPI PUSH2 0xB89 PUSH2 0x14C4 JUMP JUMPDEST JUMPDEST DUP2 CALLDATALOAD PUSH2 0xB9A DUP5 DUP3 PUSH1 0x20 DUP7 ADD PUSH2 0xAB2 JUMP JUMPDEST SWAP2 POP POP SWAP3 SWAP2 POP POP JUMP JUMPDEST PUSH1 0x0 DUP3 PUSH1 0x1F DUP4 ADD SLT PUSH2 0xBB8 JUMPI PUSH2 0xBB7 PUSH2 0x14C4 JUMP JUMPDEST JUMPDEST DUP2 CALLDATALOAD PUSH2 0xBC8 DUP5 DUP3 PUSH1 0x20 DUP7 ADD PUSH2 0xAF4 JUMP JUMPDEST SWAP2 POP POP SWAP3 SWAP2 POP POP JUMP JUMPDEST PUSH1 0x0 DUP2 CALLDATALOAD SWAP1 POP PUSH2 0xBE0 DUP2 PUSH2 0x161A JUMP JUMPDEST SWAP3 SWAP2 POP POP JUMP JUMPDEST PUSH1 0x0 PUSH1 0x20 DUP3 DUP5 SUB SLT ISZERO PUSH2 0xBFC JUMPI PUSH2 0xBFB PUSH2 0x14D3 JUMP JUMPDEST JUMPDEST PUSH1 0x0 PUSH2 0xC0A DUP5 DUP3 DUP6 ADD PUSH2 0xB60 JUMP JUMPDEST SWAP2 POP POP SWAP3 SWAP2 POP POP JUMP JUMPDEST PUSH1 0x0 DUP1 PUSH1 0x0 DUP1 PUSH1 0x0 DUP1 PUSH1 0x0 DUP1 PUSH2 0x100 DUP10 DUP12 SUB SLT ISZERO PUSH2 0xC34 JUMPI PUSH2 0xC33 PUSH2 0x14D3 JUMP JUMPDEST JUMPDEST PUSH1 0x0 PUSH2 0xC42 DUP12 DUP3 DUP13 ADD PUSH2 0xB4B JUMP JUMPDEST SWAP9 POP POP PUSH1 0x20 PUSH2 0xC53 DUP12 DUP3 DUP13 ADD PUSH2 0xB4B JUMP JUMPDEST SWAP8 POP POP PUSH1 0x40 DUP10 ADD CALLDATALOAD PUSH8 0xFFFFFFFFFFFFFFFF DUP2 GT ISZERO PUSH2 0xC74 JUMPI PUSH2 0xC73 PUSH2 0x14CE JUMP JUMPDEST JUMPDEST PUSH2 0xC80 DUP12 DUP3 DUP13 ADD PUSH2 0xBA3 JUMP JUMPDEST SWAP7 POP POP PUSH1 0x60 PUSH2 0xC91 DUP12 DUP3 DUP13 ADD PUSH2 0xBD1 JUMP JUMPDEST SWAP6 POP POP PUSH1 0x80 PUSH2 0xCA2 DUP12 DUP3 DUP13 ADD PUSH2 0xBD1 JUMP JUMPDEST SWAP5 POP POP PUSH1 0xA0 PUSH2 0xCB3 DUP12 DUP3 DUP13 ADD PUSH2 0xBD1 JUMP JUMPDEST SWAP4 POP POP PUSH1 0xC0 PUSH2 0xCC4 DUP12 DUP3 DUP13 ADD PUSH2 0xBD1 JUMP JUMPDEST SWAP3 POP POP PUSH1 0xE0 PUSH2 0xCD5 DUP12 DUP3 DUP13 ADD PUSH2 0xBD1 JUMP JUMPDEST SWAP2 POP POP SWAP3 SWAP6 SWAP9 POP SWAP3 SWAP6 SWAP9 SWAP1 SWAP4 SWAP7 POP JUMP JUMPDEST PUSH1 0x0 DUP1 PUSH1 0x0 DUP1 PUSH1 0x80 DUP6 DUP8 SUB SLT ISZERO PUSH2 0xCFF JUMPI PUSH2 0xCFE PUSH2 0x14D3 JUMP JUMPDEST JUMPDEST PUSH1 0x0 DUP6 ADD CALLDATALOAD PUSH8 0xFFFFFFFFFFFFFFFF DUP2 GT ISZERO PUSH2 0xD1D JUMPI PUSH2 0xD1C PUSH2 0x14CE JUMP JUMPDEST JUMPDEST PUSH2 0xD29 DUP8 DUP3 DUP9 ADD PUSH2 0xB75 JUMP JUMPDEST SWAP5 POP POP PUSH1 0x20 DUP6 ADD CALLDATALOAD PUSH8 0xFFFFFFFFFFFFFFFF DUP2 GT ISZERO PUSH2 0xD4A JUMPI PUSH2 0xD49 PUSH2 0x14CE JUMP JUMPDEST JUMPDEST PUSH2 0xD56 DUP8 DUP3 DUP9 ADD PUSH2 0xB75 JUMP JUMPDEST SWAP4 POP POP PUSH1 0x40 PUSH2 0xD67 DUP8 DUP3 DUP9 ADD PUSH2 0xBD1 JUMP JUMPDEST SWAP3 POP POP PUSH1 0x60 PUSH2 0xD78 DUP8 DUP3 DUP9 ADD PUSH2 0xB36 JUMP JUMPDEST SWAP2 POP POP SWAP3 SWAP6 SWAP2 SWAP5 POP SWAP3 POP JUMP JUMPDEST PUSH2 0xD8D DUP2 PUSH2 0x123C JUMP JUMPDEST DUP3 MSTORE POP POP JUMP JUMPDEST PUSH2 0xD9C DUP2 PUSH2 0x124E JUMP JUMPDEST DUP3 MSTORE POP POP JUMP JUMPDEST PUSH2 0xDB3 PUSH2 0xDAE DUP3 PUSH2 0x124E JUMP JUMPDEST PUSH2 0x13B8 JUMP JUMPDEST DUP3 MSTORE POP POP JUMP JUMPDEST PUSH1 0x0 PUSH2 0xDC4 DUP3 PUSH2 0x10F5 JUMP JUMPDEST PUSH2 0xDCE DUP2 DUP6 PUSH2 0x110B JUMP JUMPDEST SWAP4 POP PUSH2 0xDDE DUP2 DUP6 PUSH1 0x20 DUP7 ADD PUSH2 0x12F8 JUMP JUMPDEST DUP1 DUP5 ADD SWAP2 POP POP SWAP3 SWAP2 POP POP JUMP JUMPDEST PUSH1 0x0 PUSH2 0xDF5 DUP3 PUSH2 0x1100 JUMP JUMPDEST PUSH2 0xDFF DUP2 DUP6 PUSH2 0x1116 JUMP JUMPDEST SWAP4 POP PUSH2 0xE0F DUP2 DUP6 PUSH1 0x20 DUP7 ADD PUSH2 0x12F8 JUMP JUMPDEST PUSH2 0xE18 DUP2 PUSH2 0x14D8 JUMP JUMPDEST DUP5 ADD SWAP2 POP POP SWAP3 SWAP2 POP POP JUMP JUMPDEST PUSH1 0x0 PUSH2 0xE30 PUSH1 0x11 DUP4 PUSH2 0x1116 JUMP JUMPDEST SWAP2 POP PUSH2 0xE3B DUP3 PUSH2 0x14F6 JUMP JUMPDEST PUSH1 0x20 DUP3 ADD SWAP1 POP SWAP2 SWAP1 POP JUMP JUMPDEST PUSH1 0x0 PUSH2 0xE53 PUSH1 0xA DUP4 PUSH2 0x1116 JUMP JUMPDEST SWAP2 POP PUSH2 0xE5E DUP3 PUSH2 0x151F JUMP JUMPDEST PUSH1 0x20 DUP3 ADD SWAP1 POP SWAP2 SWAP1 POP JUMP JUMPDEST PUSH1 0x0 PUSH2 0xE76 PUSH1 0x6 DUP4 PUSH2 0x1116 JUMP JUMPDEST SWAP2 POP PUSH2 0xE81 DUP3 PUSH2 0x1548 JUMP JUMPDEST PUSH1 0x20 DUP3 ADD SWAP1 POP SWAP2 SWAP1 POP JUMP JUMPDEST PUSH1 0x0 PUSH2 0xE99 PUSH1 0x39 DUP4 PUSH2 0x1116 JUMP JUMPDEST SWAP2 POP PUSH2 0xEA4 DUP3 PUSH2 0x1571 JUMP JUMPDEST PUSH1 0x40 DUP3 ADD SWAP1 POP SWAP2 SWAP1 POP JUMP JUMPDEST PUSH1 0x0 PUSH2 0xEBC PUSH1 0x0 DUP4 PUSH2 0x110B JUMP JUMPDEST SWAP2 POP PUSH2 0xEC7 DUP3 PUSH2 0x15C0 JUMP JUMPDEST PUSH1 0x0 DUP3 ADD SWAP1 POP SWAP2 SWAP1 POP JUMP JUMPDEST PUSH1 0x0 PUSH2 0xEDF PUSH1 0x11 DUP4 PUSH2 0x1116 JUMP JUMPDEST SWAP2 POP PUSH2 0xEEA DUP3 PUSH2 0x15C3 JUMP JUMPDEST PUSH1 0x20 DUP3 ADD SWAP1 POP SWAP2 SWAP1 POP JUMP JUMPDEST PUSH2 0xEFE DUP2 PUSH2 0x1278 JUMP JUMPDEST DUP3 MSTORE POP POP JUMP JUMPDEST PUSH1 0x0 PUSH2 0xF10 DUP3 DUP5 PUSH2 0xDA2 JUMP JUMPDEST PUSH1 0x20 DUP3 ADD SWAP2 POP DUP2 SWAP1 POP SWAP3 SWAP2 POP POP JUMP JUMPDEST PUSH1 0x0 PUSH2 0xF2B DUP3 DUP5 PUSH2 0xDB9 JUMP JUMPDEST SWAP2 POP DUP2 SWAP1 POP SWAP3 SWAP2 POP POP JUMP JUMPDEST PUSH1 0x0 PUSH2 0xF41 DUP3 PUSH2 0xEAF JUMP JUMPDEST SWAP2 POP DUP2 SWAP1 POP SWAP2 SWAP1 POP JUMP JUMPDEST PUSH1 0x0 PUSH1 0x20 DUP3 ADD SWAP1 POP PUSH2 0xF60 PUSH1 0x0 DUP4 ADD DUP5 PUSH2 0xD84 JUMP JUMPDEST SWAP3 SWAP2 POP POP JUMP JUMPDEST PUSH1 0x0 PUSH1 0x20 DUP3 ADD SWAP1 POP PUSH2 0xF7B PUSH1 0x0 DUP4 ADD DUP5 PUSH2 0xD93 JUMP JUMPDEST SWAP3 SWAP2 POP POP JUMP JUMPDEST PUSH1 0x0 PUSH1 0x20 DUP3 ADD SWAP1 POP DUP2 DUP2 SUB PUSH1 0x0 DUP4 ADD MSTORE PUSH2 0xF9B DUP2 DUP5 PUSH2 0xDEA JUMP JUMPDEST SWAP1 POP SWAP3 SWAP2 POP POP JUMP JUMPDEST PUSH1 0x0 PUSH1 0x20 DUP3 ADD SWAP1 POP DUP2 DUP2 SUB PUSH1 0x0 DUP4 ADD MSTORE PUSH2 0xFBC DUP2 PUSH2 0xE23 JUMP JUMPDEST SWAP1 POP SWAP2 SWAP1 POP JUMP JUMPDEST PUSH1 0x0 PUSH1 0x20 DUP3 ADD SWAP1 POP DUP2 DUP2 SUB PUSH1 0x0 DUP4 ADD MSTORE PUSH2 0xFDC DUP2 PUSH2 0xE46 JUMP JUMPDEST SWAP1 POP SWAP2 SWAP1 POP JUMP JUMPDEST PUSH1 0x0 PUSH1 0x20 DUP3 ADD SWAP1 POP DUP2 DUP2 SUB PUSH1 0x0 DUP4 ADD MSTORE PUSH2 0xFFC DUP2 PUSH2 0xE69 JUMP JUMPDEST SWAP1 POP SWAP2 SWAP1 POP JUMP JUMPDEST PUSH1 0x0 PUSH1 0x20 DUP3 ADD SWAP1 POP DUP2 DUP2 SUB PUSH1 0x0 DUP4 ADD MSTORE PUSH2 0x101C DUP2 PUSH2 0xE8C JUMP JUMPDEST SWAP1 POP SWAP2 SWAP1 POP JUMP JUMPDEST PUSH1 0x0 PUSH1 0x20 DUP3 ADD SWAP1 POP DUP2 DUP2 SUB PUSH1 0x0 DUP4 ADD MSTORE PUSH2 0x103C DUP2 PUSH2 0xED2 JUMP JUMPDEST SWAP1 POP SWAP2 SWAP1 POP JUMP JUMPDEST PUSH1 0x0 PUSH1 0x20 DUP3 ADD SWAP1 POP PUSH2 0x1058 PUSH1 0x0 DUP4 ADD DUP5 PUSH2 0xEF5 JUMP JUMPDEST SWAP3 SWAP2 POP POP JUMP JUMPDEST PUSH1 0x0 PUSH2 0x1068 PUSH2 0x1079 JUMP JUMPDEST SWAP1 POP PUSH2 0x1074 DUP3 DUP3 PUSH2 0x1387 JUMP JUMPDEST SWAP2 SWAP1 POP JUMP JUMPDEST PUSH1 0x0 PUSH1 0x40 MLOAD SWAP1 POP SWAP1 JUMP JUMPDEST PUSH1 0x0 PUSH8 0xFFFFFFFFFFFFFFFF DUP3 GT ISZERO PUSH2 0x109E JUMPI PUSH2 0x109D PUSH2 0x1480 JUMP JUMPDEST JUMPDEST PUSH2 0x10A7 DUP3 PUSH2 0x14D8 JUMP JUMPDEST SWAP1 POP PUSH1 0x20 DUP2 ADD SWAP1 POP SWAP2 SWAP1 POP JUMP JUMPDEST PUSH1 0x0 PUSH8 0xFFFFFFFFFFFFFFFF DUP3 GT ISZERO PUSH2 0x10CF JUMPI PUSH2 0x10CE PUSH2 0x1480 JUMP JUMPDEST JUMPDEST PUSH2 0x10D8 DUP3 PUSH2 0x14D8 JUMP JUMPDEST SWAP1 POP PUSH1 0x20 DUP2 ADD SWAP1 POP SWAP2 SWAP1 POP JUMP JUMPDEST PUSH1 0x0 DUP2 SWAP1 POP PUSH1 0x20 DUP3 ADD SWAP1 POP SWAP2 SWAP1 POP JUMP JUMPDEST PUSH1 0x0 DUP2 MLOAD SWAP1 POP SWAP2 SWAP1 POP JUMP JUMPDEST PUSH1 0x0 DUP2 MLOAD SWAP1 POP SWAP2 SWAP1 POP JUMP JUMPDEST PUSH1 0x0 DUP2 SWAP1 POP SWAP3 SWAP2 POP POP JUMP JUMPDEST PUSH1 0x0 DUP3 DUP3 MSTORE PUSH1 0x20 DUP3 ADD SWAP1 POP SWAP3 SWAP2 POP POP JUMP JUMPDEST PUSH1 0x0 PUSH2 0x1132 DUP3 PUSH2 0x1278 JUMP JUMPDEST SWAP2 POP PUSH2 0x113D DUP4 PUSH2 0x1278 JUMP JUMPDEST SWAP3 POP DUP3 PUSH32 0xFFFFFFFFFFFFFFFFFFFFFFFFFFFFFFFFFFFFFFFFFFFFFFFFFFFFFFFFFFFFFFFF SUB DUP3 GT ISZERO PUSH2 0x1172 JUMPI PUSH2 0x1171 PUSH2 0x13F3 JUMP JUMPDEST JUMPDEST DUP3 DUP3 ADD SWAP1 POP SWAP3 SWAP2 POP POP JUMP JUMPDEST PUSH1 0x0 PUSH2 0x1188 DUP3 PUSH2 0x1278 JUMP JUMPDEST SWAP2 POP PUSH2 0x1193 DUP4 PUSH2 0x1278 JUMP JUMPDEST SWAP3 POP DUP3 PUSH2 0x11A3 JUMPI PUSH2 0x11A2 PUSH2 0x1422 JUMP JUMPDEST JUMPDEST DUP3 DUP3 DIV SWAP1 POP SWAP3 SWAP2 POP POP JUMP JUMPDEST PUSH1 0x0 PUSH2 0x11B9 DUP3 PUSH2 0x1278 JUMP JUMPDEST SWAP2 POP PUSH2 0x11C4 DUP4 PUSH2 0x1278 JUMP JUMPDEST SWAP3 POP DUP2 PUSH32 0xFFFFFFFFFFFFFFFFFFFFFFFFFFFFFFFFFFFFFFFFFFFFFFFFFFFFFFFFFFFFFFFF DIV DUP4 GT DUP3 ISZERO ISZERO AND ISZERO PUSH2 0x11FD JUMPI PUSH2 0x11FC PUSH2 0x13F3 JUMP JUMPDEST JUMPDEST DUP3 DUP3 MUL SWAP1 POP SWAP3 SWAP2 POP POP JUMP JUMPDEST PUSH1 0x0 PUSH2 0x1213 DUP3 PUSH2 0x1278 JUMP JUMPDEST SWAP2 POP PUSH2 0x121E DUP4 PUSH2 0x1278 JUMP JUMPDEST SWAP3 POP DUP3 DUP3 LT ISZERO PUSH2 0x1231 JUMPI PUSH2 0x1230 PUSH2 0x13F3 JUMP JUMPDEST JUMPDEST DUP3 DUP3 SUB SWAP1 POP SWAP3 SWAP2 POP POP JUMP JUMPDEST PUSH1 0x0 PUSH2 0x1247 DUP3 PUSH2 0x1258 JUMP JUMPDEST SWAP1 POP SWAP2 SWAP1 POP JUMP JUMPDEST PUSH1 0x0 DUP2 SWAP1 POP SWAP2 SWAP1 POP JUMP JUMPDEST PUSH1 0x0 PUSH20 0xFFFFFFFFFFFFFFFFFFFFFFFFFFFFFFFFFFFFFFFF DUP3 AND SWAP1 POP SWAP2 SWAP1 POP JUMP JUMPDEST PUSH1 0x0 DUP2 SWAP1 POP SWAP2 SWAP1 POP JUMP JUMPDEST PUSH1 0x0 PUSH2 0x128D DUP3 PUSH2 0x10F5 JUMP JUMPDEST DUP3 PUSH2 0x1297 DUP5 PUSH2 0x10E5 JUMP JUMPDEST SWAP1 POP PUSH2 0x12A2 DUP2 PUSH2 0x14AF JUMP JUMPDEST SWAP3 POP PUSH1 0x20 DUP3 LT ISZERO PUSH2 0x12E2 JUMPI PUSH2 0x12DD PUSH32 0xFFFFFFFFFFFFFFFFFFFFFFFFFFFFFFFFFFFFFFFFFFFFFFFFFFFFFFFFFFFFFFFF DUP4 PUSH1 0x20 SUB PUSH1 0x8 MUL PUSH2 0x14E9 JUMP JUMPDEST DUP4 AND SWAP3 POP JUMPDEST POP POP SWAP2 SWAP1 POP JUMP JUMPDEST DUP3 DUP2 DUP4 CALLDATACOPY PUSH1 0x0 DUP4 DUP4 ADD MSTORE POP POP POP JUMP JUMPDEST PUSH1 0x0 JUMPDEST DUP4 DUP2 LT ISZERO PUSH2 0x1316 JUMPI DUP1 DUP3 ADD MLOAD DUP2 DUP5 ADD MSTORE PUSH1 0x20 DUP2 ADD SWAP1 POP PUSH2 0x12FB JUMP JUMPDEST DUP4 DUP2 GT ISZERO PUSH2 0x1325 JUMPI PUSH1 0x0 DUP5 DUP5 ADD MSTORE JUMPDEST POP POP POP POP JUMP JUMPDEST PUSH1 0x0 PUSH2 0x1336 DUP3 PUSH2 0x1278 JUMP JUMPDEST SWAP2 POP PUSH1 0x0 DUP3 EQ ISZERO PUSH2 0x134A JUMPI PUSH2 0x1349 PUSH2 0x13F3 JUMP JUMPDEST JUMPDEST PUSH1 0x1 DUP3 SUB SWAP1 POP SWAP2 SWAP1 POP JUMP JUMPDEST PUSH1 0x0 PUSH1 0x2 DUP3 DIV SWAP1 POP PUSH1 0x1 DUP3 AND DUP1 PUSH2 0x136D JUMPI PUSH1 0x7F DUP3 AND SWAP2 POP JUMPDEST PUSH1 0x20 DUP3 LT DUP2 EQ ISZERO PUSH2 0x1381 JUMPI PUSH2 0x1380 PUSH2 0x1451 JUMP JUMPDEST JUMPDEST POP SWAP2 SWAP1 POP JUMP JUMPDEST PUSH2 0x1390 DUP3 PUSH2 0x14D8 JUMP JUMPDEST DUP2 ADD DUP2 DUP2 LT PUSH8 0xFFFFFFFFFFFFFFFF DUP3 GT OR ISZERO PUSH2 0x13AF JUMPI PUSH2 0x13AE PUSH2 0x1480 JUMP JUMPDEST JUMPDEST DUP1 PUSH1 0x40 MSTORE POP POP POP JUMP JUMPDEST PUSH1 0x0 DUP2 SWAP1 POP SWAP2 SWAP1 POP JUMP JUMPDEST PUSH1 0x0 PUSH2 0x13CD DUP3 PUSH2 0x1278 JUMP JUMPDEST SWAP2 POP PUSH2 0x13D8 DUP4 PUSH2 0x1278 JUMP JUMPDEST SWAP3 POP DUP3 PUSH2 0x13E8 JUMPI PUSH2 0x13E7 PUSH2 0x1422 JUMP JUMPDEST JUMPDEST DUP3 DUP3 MOD SWAP1 POP SWAP3 SWAP2 POP POP JUMP JUMPDEST PUSH32 0x4E487B7100000000000000000000000000000000000000000000000000000000 PUSH1 0x0 MSTORE PUSH1 0x11 PUSH1 0x4 MSTORE PUSH1 0x24 PUSH1 0x0 REVERT JUMPDEST PUSH32 0x4E487B7100000000000000000000000000000000000000000000000000000000 PUSH1 0x0 MSTORE PUSH1 0x12 PUSH1 0x4 MSTORE PUSH1 0x24 PUSH1 0x0 REVERT JUMPDEST PUSH32 0x4E487B7100000000000000000000000000000000000000000000000000000000 PUSH1 0x0 MSTORE PUSH1 0x22 PUSH1 0x4 MSTORE PUSH1 0x24 PUSH1 0x0 REVERT JUMPDEST PUSH32 0x4E487B7100000000000000000000000000000000000000000000000000000000 PUSH1 0x0 MSTORE PUSH1 0x41 PUSH1 0x4 MSTORE PUSH1 0x24 PUSH1 0x0 REVERT JUMPDEST PUSH1 0x0 PUSH2 0x14BB DUP3 MLOAD PUSH2 0x124E JUMP JUMPDEST DUP1 SWAP2 POP POP SWAP2 SWAP1 POP JUMP JUMPDEST PUSH1 0x0 DUP1 REVERT JUMPDEST PUSH1 0x0 DUP1 REVERT JUMPDEST PUSH1 0x0 DUP1 REVERT JUMPDEST PUSH1 0x0 DUP1 REVERT JUMPDEST PUSH1 0x0 PUSH1 0x1F NOT PUSH1 0x1F DUP4 ADD AND SWAP1 POP SWAP2 SWAP1 POP JUMP JUMPDEST PUSH1 0x0 DUP3 DUP3 SHL SWAP1 POP SWAP3 SWAP2 POP POP JUMP JUMPDEST PUSH32 0x575F6B6320697320696E636F7272656374000000000000000000000000000000 PUSH1 0x0 DUP3 ADD MSTORE POP JUMP JUMPDEST PUSH32 0x54696D65206572726F7200000000000000000000000000000000000000000000 PUSH1 0x0 DUP3 ADD MSTORE POP JUMP JUMPDEST PUSH32 0x6B203C3D206A0000000000000000000000000000000000000000000000000000 PUSH1 0x0 DUP3 ADD MSTORE POP JUMP JUMPDEST PUSH32 0x4F6E6C7920637573746F6D6572206F66207468652064656C6976657279206361 PUSH1 0x0 DUP3 ADD MSTORE PUSH32 0x6E2073657420746865206368616E6E656C20706172616D732E00000000000000 PUSH1 0x20 DUP3 ADD MSTORE POP JUMP JUMPDEST POP JUMP JUMPDEST PUSH32 0x575F6B6D20697320696E636F7272656374000000000000000000000000000000 PUSH1 0x0 DUP3 ADD MSTORE POP JUMP JUMPDEST PUSH2 0x15F5 DUP2 PUSH2 0x123C JUMP JUMPDEST DUP2 EQ PUSH2 0x1600 JUMPI PUSH1 0x0 DUP1 REVERT JUMPDEST POP JUMP JUMPDEST PUSH2 0x160C DUP2 PUSH2 0x124E JUMP JUMPDEST DUP2 EQ PUSH2 0x1617 JUMPI PUSH1 0x0 DUP1 REVERT JUMPDEST POP JUMP JUMPDEST PUSH2 0x1623 DUP2 PUSH2 0x1278 JUMP JUMPDEST DUP2 EQ PUSH2 0x162E JUMPI PUSH1 0x0 DUP1 REVERT JUMPDEST POP JUMP INVALID LOG2 PUSH5 0x6970667358 0x22 SLT KECCAK256 PUSH28 0x4FD150294EB9BF53551A0CDA5DA6F0340C537F95A43EEDF11DA1ACBD 0x26 LOG4 0xAA PUSH5 0x736F6C6343 STOP ADDMOD SMOD STOP CALLER "
		},
		"gasEstimates": {
			"creation": {
				"codeDepositCost": "1147000",
				"executionCost": "infinite",
				"totalCost": "infinite"
			},
			"external": {
				"": "22291",
				"S_id()": "infinite",
				"TD()": "2474",
				"TR()": "2452",
				"T_exp()": "2517",
				"W_jc()": "2474",
				"W_jm()": "2452",
				"blocktimestamp()": "425",
				"c()": "2451",
				"channelClose()": "infinite",
				"customer()": "2582",
				"j()": "2496",
				"setChannelParams(bytes32,bytes32,string,uint256,uint256,uint256,uint256,uint256)": "infinite",
				"start()": "2518",
				"transferDeposit(bytes,bytes,uint256,address)": "infinite",
				"v()": "2496"
			}
		},
		"methodIdentifiers": {
			"S_id()": "24763493",
			"TD()": "9c21a9b8",
			"TR()": "34133df9",
			"T_exp()": "f493e870",
			"W_jc()": "5e650318",
			"W_jm()": "88bf1930",
			"blocktimestamp()": "8182a11f",
			"c()": "c3da42b8",
			"channelClose()": "0482ff76",
			"customer()": "2804b2c0",
			"j()": "b582ec5f",
			"setChannelParams(bytes32,bytes32,string,uint256,uint256,uint256,uint256,uint256)": "e8de68cc",
			"start()": "be9a6555",
			"transferDeposit(bytes,bytes,uint256,address)": "d8befbb6",
			"v()": "7c2efcba"
		}
	},
	"abi": [
		{
			"inputs": [
				{
					"internalType": "uint256",
					"name": "_c",
					"type": "uint256"
				},
				{
					"internalType": "uint256",
					"name": "_v",
					"type": "uint256"
				},
				{
					"internalType": "address",
					"name": "_customer",
					"type": "address"
				}
			],
			"stateMutability": "payable",
			"type": "constructor"
		},
		{
			"stateMutability": "payable",
			"type": "fallback"
		},
		{
			"inputs": [],
			"name": "S_id",
			"outputs": [
				{
					"internalType": "string",
					"name": "",
					"type": "string"
				}
			],
			"stateMutability": "view",
			"type": "function"
		},
		{
			"inputs": [],
			"name": "TD",
			"outputs": [
				{
					"internalType": "uint256",
					"name": "",
					"type": "uint256"
				}
			],
			"stateMutability": "view",
			"type": "function"
		},
		{
			"inputs": [],
			"name": "TR",
			"outputs": [
				{
					"internalType": "uint256",
					"name": "",
					"type": "uint256"
				}
			],
			"stateMutability": "view",
			"type": "function"
		},
		{
			"inputs": [],
			"name": "T_exp",
			"outputs": [
				{
					"internalType": "uint256",
					"name": "",
					"type": "uint256"
				}
			],
			"stateMutability": "view",
			"type": "function"
		},
		{
			"inputs": [],
			"name": "W_jc",
			"outputs": [
				{
					"internalType": "bytes32",
					"name": "",
					"type": "bytes32"
				}
			],
			"stateMutability": "view",
			"type": "function"
		},
		{
			"inputs": [],
			"name": "W_jm",
			"outputs": [
				{
					"internalType": "bytes32",
					"name": "",
					"type": "bytes32"
				}
			],
			"stateMutability": "view",
			"type": "function"
		},
		{
			"inputs": [],
			"name": "blocktimestamp",
			"outputs": [
				{
					"internalType": "uint256",
					"name": "",
					"type": "uint256"
				}
			],
			"stateMutability": "nonpayable",
			"type": "function"
		},
		{
			"inputs": [],
			"name": "c",
			"outputs": [
				{
					"internalType": "uint256",
					"name": "",
					"type": "uint256"
				}
			],
			"stateMutability": "view",
			"type": "function"
		},
		{
			"inputs": [],
			"name": "channelClose",
			"outputs": [],
			"stateMutability": "payable",
			"type": "function"
		},
		{
			"inputs": [],
			"name": "customer",
			"outputs": [
				{
					"internalType": "address",
					"name": "",
					"type": "address"
				}
			],
			"stateMutability": "view",
			"type": "function"
		},
		{
			"inputs": [],
			"name": "j",
			"outputs": [
				{
					"internalType": "uint256",
					"name": "",
					"type": "uint256"
				}
			],
			"stateMutability": "view",
			"type": "function"
		},
		{
			"inputs": [
				{
					"internalType": "bytes32",
					"name": "_W_jm",
					"type": "bytes32"
				},
				{
					"internalType": "bytes32",
					"name": "_W_jc",
					"type": "bytes32"
				},
				{
					"internalType": "string",
					"name": "_S_id",
					"type": "string"
				},
				{
					"internalType": "uint256",
					"name": "_c",
					"type": "uint256"
				},
				{
					"internalType": "uint256",
					"name": "_v",
					"type": "uint256"
				},
				{
					"internalType": "uint256",
					"name": "_T_exp",
					"type": "uint256"
				},
				{
					"internalType": "uint256",
					"name": "_TD",
					"type": "uint256"
				},
				{
					"internalType": "uint256",
					"name": "_TR",
					"type": "uint256"
				}
			],
			"name": "setChannelParams",
			"outputs": [],
			"stateMutability": "payable",
			"type": "function"
		},
		{
			"inputs": [],
			"name": "start",
			"outputs": [
				{
					"internalType": "uint256",
					"name": "",
					"type": "uint256"
				}
			],
			"stateMutability": "view",
			"type": "function"
		},
		{
			"inputs": [
				{
					"internalType": "bytes",
					"name": "_W_km",
					"type": "bytes"
				},
				{
					"internalType": "bytes",
					"name": "_W_kc",
					"type": "bytes"
				},
				{
					"internalType": "uint256",
					"name": "k",
					"type": "uint256"
				},
				{
					"internalType": "address",
					"name": "newChannelAddress",
					"type": "address"
				}
			],
			"name": "transferDeposit",
			"outputs": [],
			"stateMutability": "nonpayable",
			"type": "function"
		},
		{
			"inputs": [],
			"name": "v",
			"outputs": [
				{
					"internalType": "uint256",
					"name": "",
					"type": "uint256"
				}
			],
			"stateMutability": "view",
			"type": "function"
		},
		{
			"stateMutability": "payable",
			"type": "receive"
		}
	]
}