{
  "_format": "hh-sol-artifact-1",
  "contractName": "channel",
  "sourceName": "contracts/channel.sol",
  "abi": [
    {
      "inputs": [
        {
          "internalType": "uint256",
          "name": "_c",
          "type": "uint256"
        },
        {
          "internalType": "uint256",
          "name": "_v",
          "type": "uint256"
        },
        {
          "internalType": "address",
          "name": "_customer",
          "type": "address"
        }
      ],
      "stateMutability": "payable",
      "type": "constructor"
    },
    {
      "stateMutability": "payable",
      "type": "fallback"
    },
    {
      "inputs": [],
      "name": "S_id",
      "outputs": [
        {
          "internalType": "string",
          "name": "",
          "type": "string"
        }
      ],
      "stateMutability": "view",
      "type": "function"
    },
    {
      "inputs": [],
      "name": "TD",
      "outputs": [
        {
          "internalType": "uint256",
          "name": "",
          "type": "uint256"
        }
      ],
      "stateMutability": "view",
      "type": "function"
    },
    {
      "inputs": [],
      "name": "TR",
      "outputs": [
        {
          "internalType": "uint256",
          "name": "",
          "type": "uint256"
        }
      ],
      "stateMutability": "view",
      "type": "function"
    },
    {
      "inputs": [],
      "name": "T_exp",
      "outputs": [
        {
          "internalType": "uint256",
          "name": "",
          "type": "uint256"
        }
      ],
      "stateMutability": "view",
      "type": "function"
    },
    {
      "inputs": [],
      "name": "W_jc",
      "outputs": [
        {
          "internalType": "bytes32",
          "name": "",
          "type": "bytes32"
        }
      ],
      "stateMutability": "view",
      "type": "function"
    },
    {
      "inputs": [],
      "name": "W_jm",
      "outputs": [
        {
          "internalType": "bytes32",
          "name": "",
          "type": "bytes32"
        }
      ],
      "stateMutability": "view",
      "type": "function"
    },
    {
      "inputs": [],
      "name": "c",
      "outputs": [
        {
          "internalType": "uint256",
          "name": "",
          "type": "uint256"
        }
      ],
      "stateMutability": "view",
      "type": "function"
    },
    {
      "inputs": [],
      "name": "channelClose",
      "outputs": [],
      "stateMutability": "payable",
      "type": "function"
    },
    {
      "inputs": [],
      "name": "customer",
      "outputs": [
        {
          "internalType": "address",
          "name": "",
          "type": "address"
        }
      ],
      "stateMutability": "view",
      "type": "function"
    },
    {
      "inputs": [],
      "name": "j",
      "outputs": [
        {
          "internalType": "uint256",
          "name": "",
          "type": "uint256"
        }
      ],
      "stateMutability": "view",
      "type": "function"
    },
    {
      "inputs": [
        {
          "internalType": "bytes32",
          "name": "_W_jm",
          "type": "bytes32"
        },
        {
          "internalType": "bytes32",
          "name": "_W_jc",
          "type": "bytes32"
        },
        {
          "internalType": "string",
          "name": "_S_id",
          "type": "string"
        },
        {
          "internalType": "uint256",
          "name": "_c",
          "type": "uint256"
        },
        {
          "internalType": "uint256",
          "name": "_v",
          "type": "uint256"
        },
        {
          "internalType": "uint256",
          "name": "_T_exp",
          "type": "uint256"
        },
        {
          "internalType": "uint256",
          "name": "_TD",
          "type": "uint256"
        },
        {
          "internalType": "uint256",
          "name": "_TR",
          "type": "uint256"
        }
      ],
      "name": "setChannelParams",
      "outputs": [],
      "stateMutability": "nonpayable",
      "type": "function"
    },
    {
      "inputs": [
        {
          "internalType": "bytes",
          "name": "_W_km",
          "type": "bytes"
        },
        {
          "internalType": "bytes",
          "name": "_W_kc",
          "type": "bytes"
        },
        {
          "internalType": "uint256",
          "name": "k",
          "type": "uint256"
        },
        {
          "internalType": "address",
          "name": "newChannelAddress",
          "type": "address"
        }
      ],
      "name": "transferDeposit",
      "outputs": [],
      "stateMutability": "nonpayable",
      "type": "function"
    },
    {
      "inputs": [],
      "name": "v",
      "outputs": [
        {
          "internalType": "uint256",
          "name": "",
          "type": "uint256"
        }
      ],
      "stateMutability": "view",
      "type": "function"
    },
    {
      "stateMutability": "payable",
      "type": "receive"
    }
  ],
  "bytecode": "0x6080604052604051610e7c380380610e7c833981016040819052610022916100a1565b600180546001600160a01b0319166001600160a01b0383161790556005839055600682905534156100995761005782846100e7565b34146100995760405162461bcd60e51b815260206004820152600d60248201526c3130b630b731b29032b93937b960991b604482015260640160405180910390fd5b505050610114565b6000806000606084860312156100b657600080fd5b83516020850151604086015191945092506001600160a01b03811681146100dc57600080fd5b809150509250925092565b600081600019048311821515161561010f57634e487b7160e01b600052601160045260246000fd5b500290565b610d59806101236000396000f3fe6080604052600436106100a35760003560e01c80630482ff76146100ac57806324763493146100b45780632804b2c0146100df57806334133df9146101175780635e6503181461013b5780637c2efcba1461015157806388bf1930146101675780639c21a9b81461017d578063b582ec5f14610193578063c3da42b8146101a9578063d8befbb6146101bf578063e8de68cc146101df578063f493e870146101ff57005b366100aa57005b005b6100aa610215565b3480156100c057600080fd5b506100c9610279565b6040516100d69190610b18565b60405180910390f35b3480156100eb57600080fd5b506001546100ff906001600160a01b031681565b6040516001600160a01b0390911681526020016100d6565b34801561012357600080fd5b5061012d60095481565b6040519081526020016100d6565b34801561014757600080fd5b5061012d60035481565b34801561015d57600080fd5b5061012d60065481565b34801561017357600080fd5b5061012d60025481565b34801561018957600080fd5b5061012d60085481565b34801561019f57600080fd5b5061012d60005481565b3480156101b557600080fd5b5061012d60055481565b3480156101cb57600080fd5b506100aa6101da366004610a71565b610307565b3480156101eb57600080fd5b506100aa6101fa3660046109e0565b610799565b34801561020b57600080fd5b5061012d60075481565b6001546001600160a01b031633146102485760405162461bcd60e51b815260040161023f90610b6f565b60405180910390fd5b426008546007546102599190610bc8565b106102765760405162461bcd60e51b815260040161023f90610b4b565b33ff5b6004805461028690610c98565b80601f01602080910402602001604051908101604052809291908181526020018280546102b290610c98565b80156102ff5780601f106102d4576101008083540402835291602001916102ff565b820191906000526020600020905b8154815290600101906020018083116102e257829003601f168201915b505050505081565b6008546007546103179190610bc8565b42106103355760405162461bcd60e51b815260040161023f90610b4b565b600054821161036f5760405162461bcd60e51b815260206004820152600660248201526535901e1e903560d11b604482015260640161023f565b60008061037b86610c2a565b9050600061038886610c2a565b905060008054866103999190610c13565b90505b8015610496576002836040516020016103b791815260200190565b60408051601f19818403018152908290526103d191610afc565b602060405180830381855afa1580156103ee573d6000803e3d6000fd5b5050506040513d601f19601f8201168201806040525081019061041191906109c7565b925060028260405160200161042891815260200190565b60408051601f198184030181529082905261044291610afc565b602060405180830381855afa15801561045f573d6000803e3d6000fd5b5050506040513d601f19601f8201168201806040525081019061048291906109c7565b91508061048e81610c81565b91505061039c565b82600254146104db5760405162461bcd60e51b815260206004820152601160248201527015d7dadb481a5cc81a5b98dbdc9c9958dd607a1b604482015260640161023f565b81600354146105205760405162461bcd60e51b815260206004820152601160248201527015d7dad8c81a5cc81a5b98dbdc9c9958dd607a1b604482015260640161023f565b61052b600287610ccd565b61056d5760026000548761053f9190610c13565b6105499190610be0565b6000879055935061055988610c2a565b60025561056587610c2a565b6003556106e2565b600260016000548861057f9190610c13565b6105899190610c13565b6105939190610be0565b93506105a0600187610c13565b60009081556105ae89610c2a565b905060006105bb89610c2a565b905060008054896105cc9190610c13565b90505b80156106c9576002836040516020016105ea91815260200190565b60408051601f198184030181529082905261060491610afc565b602060405180830381855afa158015610621573d6000803e3d6000fd5b5050506040513d601f19601f8201168201806040525081019061064491906109c7565b925060028260405160200161065b91815260200190565b60408051601f198184030181529082905261067591610afc565b602060405180830381855afa158015610692573d6000803e3d6000fd5b5050506040513d601f19601f820116820180604052508101906106b591906109c7565b9150806106c181610c81565b9150506105cf565b6106d460018a610c13565b600055506002919091556003555b6001600160a01b0385161561075257846001600160a01b0316600654856107099190610bf4565b604051600081818185875af1925050503d8060008114610745576040519150601f19603f3d011682016040523d82523d6000602084013e61074a565b606091505b50505061078f565b60065433906108fc906107659087610bf4565b6040518115909202916000818181858888f1935050505015801561078d573d6000803e3d6000fd5b505b5050505050505050565b6001546001600160a01b031633146107c35760405162461bcd60e51b815260040161023f90610b6f565b6107cd8486610bf4565b47146107d857600080fd5b6007541580156107e85750600854155b80156107f45750600954155b801561080e57504260085460075461080c9190610bc8565b105b8061084d5750426008546007546108259190610bc8565b10801561084d57506009546008546007546108409190610bc8565b61084a9190610bc8565b42105b61085657600080fd5b60008055600288905560038790558551610877906004906020890190610892565b50600594909455600692909255600755600855600955505050565b82805461089e90610c98565b90600052602060002090601f0160209004810192826108c05760008555610906565b82601f106108d957805160ff1916838001178555610906565b82800160010185558215610906579182015b828111156109065782518255916020019190600101906108eb565b50610912929150610916565b5090565b5b808211156109125760008155600101610917565b60006001600160401b038084111561094557610945610d0d565b604051601f8501601f19908116603f0116810190828211818310171561096d5761096d610d0d565b8160405280935085815286868601111561098657600080fd5b858560208301376000602087830101525050509392505050565b600082601f8301126109b157600080fd5b6109c08383356020850161092b565b9392505050565b6000602082840312156109d957600080fd5b5051919050565b600080600080600080600080610100898b0312156109fd57600080fd5b883597506020890135965060408901356001600160401b03811115610a2157600080fd5b8901601f81018b13610a3257600080fd5b610a418b82356020840161092b565b989b979a5097986060810135985060808101359760a0820135975060c0820135965060e090910135945092505050565b60008060008060808587031215610a8757600080fd5b84356001600160401b0380821115610a9e57600080fd5b610aaa888389016109a0565b95506020870135915080821115610ac057600080fd5b50610acd878288016109a0565b9350506040850135915060608501356001600160a01b0381168114610af157600080fd5b939692955090935050565b60008251610b0e818460208701610c51565b9190910192915050565b6020815260008251806020840152610b37816040850160208701610c51565b601f01601f19169190910160400192915050565b6020808252600a90820152692a34b6b29032b93937b960b11b604082015260600190565b60208082526039908201527f4f6e6c7920637573746f6d6572206f66207468652064656c6976657279206361604082015278371039b2ba103a34329031b430b73732b6103830b930b6b99760391b606082015260800190565b60008219821115610bdb57610bdb610ce1565b500190565b600082610bef57610bef610cf7565b500490565b6000816000190483118215151615610c0e57610c0e610ce1565b500290565b600082821015610c2557610c25610ce1565b500390565b80516020808301519190811015610c4b576000198160200360031b1b821691505b50919050565b60005b83811015610c6c578181015183820152602001610c54565b83811115610c7b576000848401525b50505050565b600081610c9057610c90610ce1565b506000190190565b600181811c90821680610cac57607f821691505b60208210811415610c4b57634e487b7160e01b600052602260045260246000fd5b600082610cdc57610cdc610cf7565b500690565b634e487b7160e01b600052601160045260246000fd5b634e487b7160e01b600052601260045260246000fd5b634e487b7160e01b600052604160045260246000fdfea2646970667358221220c498315e6ea16ddab05f29ecf23b43e0cf72c9845f4d25890bc0c5f1fae8eee364736f6c63430008070033",
  "linkReferences": {},
  "deployedLinkReferences": {}
}