{
  "_format": "hh-sol-artifact-1",
  "contractName": "channel",
  "sourceName": "contracts/channel.sol",
  "abi": [
    {
      "inputs": [
        {
          "internalType": "uint256",
          "name": "_c",
          "type": "uint256"
        },
        {
          "internalType": "uint256",
          "name": "_v",
          "type": "uint256"
        },
        {
          "internalType": "address",
          "name": "_customer",
          "type": "address"
        }
      ],
      "stateMutability": "payable",
      "type": "constructor"
    },
    {
      "stateMutability": "payable",
      "type": "fallback"
    },
    {
      "inputs": [],
      "name": "S_id",
      "outputs": [
        {
          "internalType": "string",
          "name": "",
          "type": "string"
        }
      ],
      "stateMutability": "view",
      "type": "function"
    },
    {
      "inputs": [],
      "name": "TD",
      "outputs": [
        {
          "internalType": "uint256",
          "name": "",
          "type": "uint256"
        }
      ],
      "stateMutability": "view",
      "type": "function"
    },
    {
      "inputs": [],
      "name": "TR",
      "outputs": [
        {
          "internalType": "uint256",
          "name": "",
          "type": "uint256"
        }
      ],
      "stateMutability": "view",
      "type": "function"
    },
    {
      "inputs": [],
      "name": "T_exp",
      "outputs": [
        {
          "internalType": "uint256",
          "name": "",
          "type": "uint256"
        }
      ],
      "stateMutability": "view",
      "type": "function"
    },
    {
      "inputs": [],
      "name": "W_jc",
      "outputs": [
        {
          "internalType": "bytes32",
          "name": "",
          "type": "bytes32"
        }
      ],
      "stateMutability": "view",
      "type": "function"
    },
    {
      "inputs": [],
      "name": "W_jm",
      "outputs": [
        {
          "internalType": "bytes32",
          "name": "",
          "type": "bytes32"
        }
      ],
      "stateMutability": "view",
      "type": "function"
    },
    {
      "inputs": [],
      "name": "c",
      "outputs": [
        {
          "internalType": "uint256",
          "name": "",
          "type": "uint256"
        }
      ],
      "stateMutability": "view",
      "type": "function"
    },
    {
      "inputs": [],
      "name": "channelClose",
      "outputs": [],
      "stateMutability": "payable",
      "type": "function"
    },
    {
      "inputs": [],
      "name": "customer",
      "outputs": [
        {
          "internalType": "address",
          "name": "",
          "type": "address"
        }
      ],
      "stateMutability": "view",
      "type": "function"
    },
    {
      "inputs": [],
      "name": "j",
      "outputs": [
        {
          "internalType": "uint256",
          "name": "",
          "type": "uint256"
        }
      ],
      "stateMutability": "view",
      "type": "function"
    },
    {
      "inputs": [
        {
          "internalType": "bytes32",
          "name": "_W_jm",
          "type": "bytes32"
        },
        {
          "internalType": "bytes32",
          "name": "_W_jc",
          "type": "bytes32"
        },
        {
          "internalType": "string",
          "name": "_S_id",
          "type": "string"
        },
        {
          "internalType": "uint256",
          "name": "_c",
          "type": "uint256"
        },
        {
          "internalType": "uint256",
          "name": "_v",
          "type": "uint256"
        },
        {
          "internalType": "uint256",
          "name": "_T_exp",
          "type": "uint256"
        },
        {
          "internalType": "uint256",
          "name": "_TD",
          "type": "uint256"
        },
        {
          "internalType": "uint256",
          "name": "_TR",
          "type": "uint256"
        }
      ],
      "name": "setChannelParams",
      "outputs": [],
      "stateMutability": "nonpayable",
      "type": "function"
    },
    {
      "inputs": [
        {
          "internalType": "bytes",
          "name": "_W_km",
          "type": "bytes"
        },
        {
          "internalType": "bytes",
          "name": "_W_kc",
          "type": "bytes"
        },
        {
          "internalType": "uint256",
          "name": "k",
          "type": "uint256"
        },
        {
          "internalType": "address",
          "name": "newChannelAddress",
          "type": "address"
        }
      ],
      "name": "transferDeposit",
      "outputs": [],
      "stateMutability": "nonpayable",
      "type": "function"
    },
    {
      "inputs": [],
      "name": "v",
      "outputs": [
        {
          "internalType": "uint256",
          "name": "",
          "type": "uint256"
        }
      ],
      "stateMutability": "view",
      "type": "function"
    },
    {
      "stateMutability": "payable",
      "type": "receive"
    }
  ],
  "bytecode": "0x6080604052604051610d7c380380610d7c833981016040819052610022916100a1565b600180546001600160a01b0319166001600160a01b0383161790556005839055600682905534156100995761005782846100e7565b34146100995760405162461bcd60e51b815260206004820152600d60248201526c3130b630b731b29032b93937b960991b604482015260640160405180910390fd5b505050610114565b6000806000606084860312156100b657600080fd5b83516020850151604086015191945092506001600160a01b03811681146100dc57600080fd5b809150509250925092565b600081600019048311821515161561010f57634e487b7160e01b600052601160045260246000fd5b500290565b610c59806101236000396000f3fe6080604052600436106100a35760003560e01c80630482ff76146100ac57806324763493146100b45780632804b2c0146100df57806334133df9146101175780635e6503181461013b5780637c2efcba1461015157806388bf1930146101675780639c21a9b81461017d578063b582ec5f14610193578063c3da42b8146101a9578063d8befbb6146101bf578063e8de68cc146101df578063f493e870146101ff57005b366100aa57005b005b6100aa610215565b3480156100c057600080fd5b506100c9610266565b6040516100d69190610a3c565b60405180910390f35b3480156100eb57600080fd5b506001546100ff906001600160a01b031681565b6040516001600160a01b0390911681526020016100d6565b34801561012357600080fd5b5061012d60095481565b6040519081526020016100d6565b34801561014757600080fd5b5061012d60035481565b34801561015d57600080fd5b5061012d60065481565b34801561017357600080fd5b5061012d60025481565b34801561018957600080fd5b5061012d60085481565b34801561019f57600080fd5b5061012d60005481565b3480156101b557600080fd5b5061012d60055481565b3480156101cb57600080fd5b506100aa6101da366004610995565b6102f4565b3480156101eb57600080fd5b506100aa6101fa366004610904565b6106bd565b34801561020b57600080fd5b5061012d60075481565b6001546001600160a01b031633146102485760405162461bcd60e51b815260040161023f90610a6f565b60405180910390fd5b426008546007546102599190610ac8565b1061026357600080fd5b33ff5b6004805461027390610b98565b80601f016020809104026020016040519081016040528092919081815260200182805461029f90610b98565b80156102ec5780601f106102c1576101008083540402835291602001916102ec565b820191906000526020600020905b8154815290600101906020018083116102cf57829003601f168201915b505050505081565b6008546007546103049190610ac8565b4210801561031957506001600160a01b038116155b8061036c5750426008546007546103309190610ac8565b108015610358575060095460085460075461034b9190610ac8565b6103559190610ac8565b42105b801561036c57506001600160a01b03811615155b6103a55760405162461bcd60e51b815260206004820152600a6024820152692a34b6b29032b93937b960b11b604482015260640161023f565b60005482116103df5760405162461bcd60e51b815260206004820152600660248201526535901e1e903560d11b604482015260640161023f565b6000806103eb86610b2a565b905060006103f886610b2a565b905060008054866104099190610b13565b90505b80156105065760028360405160200161042791815260200190565b60408051601f198184030181529082905261044191610a20565b602060405180830381855afa15801561045e573d6000803e3d6000fd5b5050506040513d601f19601f8201168201806040525081019061048191906108eb565b925060028260405160200161049891815260200190565b60408051601f19818403018152908290526104b291610a20565b602060405180830381855afa1580156104cf573d6000803e3d6000fd5b5050506040513d601f19601f820116820180604052508101906104f291906108eb565b9150806104fe81610b81565b91505061040c565b826002541461054b5760405162461bcd60e51b815260206004820152601160248201527015d7dadb481a5cc81a5b98dbdc9c9958dd607a1b604482015260640161023f565b81600354146105905760405162461bcd60e51b815260206004820152601160248201527015d7dad8c81a5cc81a5b98dbdc9c9958dd607a1b604482015260640161023f565b61059b600287610bcd565b6105c0576002600054876105af9190610b13565b6105b99190610ae0565b93506105e9565b60026001600054886105d29190610b13565b6105dc9190610b13565b6105e69190610ae0565b93505b6001600160a01b0385161561065957846001600160a01b0316600654856106109190610af4565b604051600081818185875af1925050503d806000811461064c576040519150601f19603f3d011682016040523d82523d6000602084013e610651565b606091505b505050610696565b60065433906108fc9061066c9087610af4565b6040518115909202916000818181858888f19350505050158015610694573d6000803e3d6000fd5b505b60008690556106a488610b2a565b6002556106b087610b2a565b6003555050505050505050565b6001546001600160a01b031633146106e75760405162461bcd60e51b815260040161023f90610a6f565b6106f18486610af4565b47146106fc57600080fd5b60075415801561070c5750600854155b80156107185750600954155b80156107325750426008546007546107309190610ac8565b105b806107715750426008546007546107499190610ac8565b10801561077157506009546008546007546107649190610ac8565b61076e9190610ac8565b42105b61077a57600080fd5b6000805560028890556003879055855161079b9060049060208901906107b6565b50600594909455600692909255600755600855600955505050565b8280546107c290610b98565b90600052602060002090601f0160209004810192826107e4576000855561082a565b82601f106107fd57805160ff191683800117855561082a565b8280016001018555821561082a579182015b8281111561082a57825182559160200191906001019061080f565b5061083692915061083a565b5090565b5b80821115610836576000815560010161083b565b60006001600160401b038084111561086957610869610c0d565b604051601f8501601f19908116603f0116810190828211818310171561089157610891610c0d565b816040528093508581528686860111156108aa57600080fd5b858560208301376000602087830101525050509392505050565b600082601f8301126108d557600080fd5b6108e48383356020850161084f565b9392505050565b6000602082840312156108fd57600080fd5b5051919050565b600080600080600080600080610100898b03121561092157600080fd5b883597506020890135965060408901356001600160401b0381111561094557600080fd5b8901601f81018b1361095657600080fd5b6109658b82356020840161084f565b989b979a5097986060810135985060808101359760a0820135975060c0820135965060e090910135945092505050565b600080600080608085870312156109ab57600080fd5b84356001600160401b03808211156109c257600080fd5b6109ce888389016108c4565b955060208701359150808211156109e457600080fd5b506109f1878288016108c4565b9350506040850135915060608501356001600160a01b0381168114610a1557600080fd5b939692955090935050565b60008251610a32818460208701610b51565b9190910192915050565b6020815260008251806020840152610a5b816040850160208701610b51565b601f01601f19169190910160400192915050565b60208082526039908201527f4f6e6c7920637573746f6d6572206f66207468652064656c6976657279206361604082015278371039b2ba103a34329031b430b73732b6103830b930b6b99760391b606082015260800190565b60008219821115610adb57610adb610be1565b500190565b600082610aef57610aef610bf7565b500490565b6000816000190483118215151615610b0e57610b0e610be1565b500290565b600082821015610b2557610b25610be1565b500390565b80516020808301519190811015610b4b576000198160200360031b1b821691505b50919050565b60005b83811015610b6c578181015183820152602001610b54565b83811115610b7b576000848401525b50505050565b600081610b9057610b90610be1565b506000190190565b600181811c90821680610bac57607f821691505b60208210811415610b4b57634e487b7160e01b600052602260045260246000fd5b600082610bdc57610bdc610bf7565b500690565b634e487b7160e01b600052601160045260246000fd5b634e487b7160e01b600052601260045260246000fd5b634e487b7160e01b600052604160045260246000fdfea2646970667358221220b2e26d62d1a5b408914cb276f6429077fb208f8e0e0b75a94c41522c3020be3564736f6c63430008070033",
  "linkReferences": {},
  "deployedLinkReferences": {}
}