{
  "_format": "hh-sol-artifact-1",
  "contractName": "factoryChannel",
  "sourceName": "contracts/channel.sol",
  "abi": [
    {
      "inputs": [
        {
          "internalType": "uint256",
          "name": "",
          "type": "uint256"
        }
      ],
      "name": "channels",
      "outputs": [
        {
          "internalType": "address",
          "name": "",
          "type": "address"
        }
      ],
      "stateMutability": "view",
      "type": "function"
    },
    {
      "inputs": [
        {
          "internalType": "uint256",
          "name": "_c",
          "type": "uint256"
        },
        {
          "internalType": "uint256",
          "name": "_v",
          "type": "uint256"
        }
      ],
      "name": "createChannel",
      "outputs": [
        {
          "internalType": "address",
          "name": "",
          "type": "address"
        }
      ],
      "stateMutability": "payable",
      "type": "function"
    },
    {
      "inputs": [
        {
          "internalType": "uint256",
          "name": "index",
          "type": "uint256"
        }
      ],
      "name": "getChannels",
      "outputs": [
        {
          "internalType": "address",
          "name": "",
          "type": "address"
        }
      ],
      "stateMutability": "view",
      "type": "function"
    },
    {
      "inputs": [],
      "name": "getChannelsCount",
      "outputs": [
        {
          "internalType": "uint256",
          "name": "count",
          "type": "uint256"
        }
      ],
      "stateMutability": "view",
      "type": "function"
    },
    {
      "inputs": [
        {
          "internalType": "address",
          "name": "_owner",
          "type": "address"
        }
      ],
      "name": "getOwnerChannels",
      "outputs": [
        {
          "internalType": "address[]",
          "name": "",
          "type": "address[]"
        }
      ],
      "stateMutability": "view",
      "type": "function"
    },
    {
      "inputs": [
        {
          "internalType": "address",
          "name": "_owner",
          "type": "address"
        }
      ],
      "name": "getOwnerChannelsCount",
      "outputs": [
        {
          "internalType": "uint256",
          "name": "",
          "type": "uint256"
        }
      ],
      "stateMutability": "view",
      "type": "function"
    },
    {
      "inputs": [
        {
          "internalType": "address",
          "name": "",
          "type": "address"
        },
        {
          "internalType": "uint256",
          "name": "",
          "type": "uint256"
        }
      ],
      "name": "ownerChannels",
      "outputs": [
        {
          "internalType": "address",
          "name": "",
          "type": "address"
        }
      ],
      "stateMutability": "view",
      "type": "function"
    }
  ],
  "bytecode": "0x608060405234801561001057600080fd5b506111b9806100206000396000f3fe6080604052600436106100605760003560e01c8063502512cb14610065578063662f2e9d1461008957806377b6198f146100bf578063b21bef4d146100ea578063e156b0d01461010a578063e5949b5d14610137578063e635977914610157575b600080fd5b34801561007157600080fd5b506001545b6040519081526020015b60405180910390f35b34801561009557600080fd5b506100766100a4366004610369565b6001600160a01b031660009081526020819052604090205490565b6100d26100cd3660046103ce565b610177565b6040516001600160a01b039091168152602001610080565b3480156100f657600080fd5b506100d261010536600461038b565b61023a565b34801561011657600080fd5b5061012a610125366004610369565b610272565b60405161008091906103f0565b34801561014357600080fd5b506100d26101523660046103b5565b6102e6565b34801561016357600080fd5b506100d26101723660046103b5565b610310565b6000803484843360405161018a90610340565b92835260208301919091526001600160a01b031660408201526060016040518091039082f09050801580156101c3573d6000803e3d6000fd5b506001805480820182557fb10e2d527612073b26eecdfd717e6a320cf44b4afac2b0732d9fcbe2b7fa0cf60180546001600160a01b0384166001600160a01b031991821681179092553360009081526020818152604082208054958601815582529020909201805490921617905591505092915050565b6000602052816000526040600020818154811061025657600080fd5b6000918252602090912001546001600160a01b03169150829050565b6001600160a01b038116600090815260208181526040918290208054835181840281018401909452808452606093928301828280156102da57602002820191906000526020600020905b81546001600160a01b031681526001909101906020018083116102bc575b50505050509050919050565b600181815481106102f657600080fd5b6000918252602090912001546001600160a01b0316905081565b6000600182815481106103255761032561043d565b6000918252602090912001546001600160a01b031692915050565b610d308061045483390190565b80356001600160a01b038116811461036457600080fd5b919050565b60006020828403121561037b57600080fd5b6103848261034d565b9392505050565b6000806040838503121561039e57600080fd5b6103a78361034d565b946020939093013593505050565b6000602082840312156103c757600080fd5b5035919050565b600080604083850312156103e157600080fd5b50508035926020909101359150565b6020808252825182820181905260009190848201906040850190845b818110156104315783516001600160a01b03168352928401929184019160010161040c565b50909695505050505050565b634e487b7160e01b600052603260045260246000fdfe6080604052604051610d30380380610d30833981016040819052610022916100a1565b600180546001600160a01b0319166001600160a01b0383161790556005839055600682905534156100995761005782846100e7565b34146100995760405162461bcd60e51b815260206004820152600d60248201526c3130b630b731b29032b93937b960991b604482015260640160405180910390fd5b505050610114565b6000806000606084860312156100b657600080fd5b83516020850151604086015191945092506001600160a01b03811681146100dc57600080fd5b809150509250925092565b600081600019048311821515161561010f57634e487b7160e01b600052601160045260246000fd5b500290565b610c0d806101236000396000f3fe6080604052600436106100a35760003560e01c80630482ff76146100ac57806324763493146100b45780632804b2c0146100df57806334133df9146101175780635e6503181461013b5780637c2efcba1461015157806388bf1930146101675780639c21a9b81461017d578063b582ec5f14610193578063c3da42b8146101a9578063d8befbb6146101bf578063e8de68cc146101df578063f493e870146101ff57005b366100aa57005b005b6100aa610215565b3480156100c057600080fd5b506100c9610279565b6040516100d691906109cc565b60405180910390f35b3480156100eb57600080fd5b506001546100ff906001600160a01b031681565b6040516001600160a01b0390911681526020016100d6565b34801561012357600080fd5b5061012d60095481565b6040519081526020016100d6565b34801561014757600080fd5b5061012d60035481565b34801561015d57600080fd5b5061012d60065481565b34801561017357600080fd5b5061012d60025481565b34801561018957600080fd5b5061012d60085481565b34801561019f57600080fd5b5061012d60005481565b3480156101b557600080fd5b5061012d60055481565b3480156101cb57600080fd5b506100aa6101da366004610925565b610307565b3480156101eb57600080fd5b506100aa6101fa366004610894565b61064d565b34801561020b57600080fd5b5061012d60075481565b6001546001600160a01b031633146102485760405162461bcd60e51b815260040161023f90610a23565b60405180910390fd5b426008546007546102599190610a7c565b106102765760405162461bcd60e51b815260040161023f906109ff565b33ff5b6004805461028690610b4c565b80601f01602080910402602001604051908101604052809291908181526020018280546102b290610b4c565b80156102ff5780601f106102d4576101008083540402835291602001916102ff565b820191906000526020600020905b8154815290600101906020018083116102e257829003601f168201915b505050505081565b6008546007546103179190610a7c565b42106103355760405162461bcd60e51b815260040161023f906109ff565b600054821161036f5760405162461bcd60e51b815260206004820152600660248201526535901e1e903560d11b604482015260640161023f565b60008061037b86610ade565b9050600061038886610ade565b905060008054866103999190610ac7565b90505b8015610496576002836040516020016103b791815260200190565b60408051601f19818403018152908290526103d1916109b0565b602060405180830381855afa1580156103ee573d6000803e3d6000fd5b5050506040513d601f19601f82011682018060405250810190610411919061087b565b925060028260405160200161042891815260200190565b60408051601f1981840301815290829052610442916109b0565b602060405180830381855afa15801561045f573d6000803e3d6000fd5b5050506040513d601f19601f82011682018060405250810190610482919061087b565b91508061048e81610b35565b91505061039c565b82600254146104db5760405162461bcd60e51b815260206004820152601160248201527015d7dadb481a5cc81a5b98dbdc9c9958dd607a1b604482015260640161023f565b81600354146105205760405162461bcd60e51b815260206004820152601160248201527015d7dad8c81a5cc81a5b98dbdc9c9958dd607a1b604482015260640161023f565b61052b600287610b81565b6105505760026000548761053f9190610ac7565b6105499190610a94565b9350610579565b60026001600054886105629190610ac7565b61056c9190610ac7565b6105769190610a94565b93505b6001600160a01b038516156105e957846001600160a01b0316600654856105a09190610aa8565b604051600081818185875af1925050503d80600081146105dc576040519150601f19603f3d011682016040523d82523d6000602084013e6105e1565b606091505b505050610626565b60065433906108fc906105fc9087610aa8565b6040518115909202916000818181858888f19350505050158015610624573d6000803e3d6000fd5b505b600086905561063488610ade565b60025561064087610ade565b6003555050505050505050565b6001546001600160a01b031633146106775760405162461bcd60e51b815260040161023f90610a23565b6106818486610aa8565b471461068c57600080fd5b60075415801561069c5750600854155b80156106a85750600954155b80156106c25750426008546007546106c09190610a7c565b105b806107015750426008546007546106d99190610a7c565b10801561070157506009546008546007546106f49190610a7c565b6106fe9190610a7c565b42105b61070a57600080fd5b6000805560028890556003879055855161072b906004906020890190610746565b50600594909455600692909255600755600855600955505050565b82805461075290610b4c565b90600052602060002090601f01602090048101928261077457600085556107ba565b82601f1061078d57805160ff19168380011785556107ba565b828001600101855582156107ba579182015b828111156107ba57825182559160200191906001019061079f565b506107c69291506107ca565b5090565b5b808211156107c657600081556001016107cb565b60006001600160401b03808411156107f9576107f9610bc1565b604051601f8501601f19908116603f0116810190828211818310171561082157610821610bc1565b8160405280935085815286868601111561083a57600080fd5b858560208301376000602087830101525050509392505050565b600082601f83011261086557600080fd5b610874838335602085016107df565b9392505050565b60006020828403121561088d57600080fd5b5051919050565b600080600080600080600080610100898b0312156108b157600080fd5b883597506020890135965060408901356001600160401b038111156108d557600080fd5b8901601f81018b136108e657600080fd5b6108f58b8235602084016107df565b989b979a5097986060810135985060808101359760a0820135975060c0820135965060e090910135945092505050565b6000806000806080858703121561093b57600080fd5b84356001600160401b038082111561095257600080fd5b61095e88838901610854565b9550602087013591508082111561097457600080fd5b5061098187828801610854565b9350506040850135915060608501356001600160a01b03811681146109a557600080fd5b939692955090935050565b600082516109c2818460208701610b05565b9190910192915050565b60208152600082518060208401526109eb816040850160208701610b05565b601f01601f19169190910160400192915050565b6020808252600a90820152692a34b6b29032b93937b960b11b604082015260600190565b60208082526039908201527f4f6e6c7920637573746f6d6572206f66207468652064656c6976657279206361604082015278371039b2ba103a34329031b430b73732b6103830b930b6b99760391b606082015260800190565b60008219821115610a8f57610a8f610b95565b500190565b600082610aa357610aa3610bab565b500490565b6000816000190483118215151615610ac257610ac2610b95565b500290565b600082821015610ad957610ad9610b95565b500390565b80516020808301519190811015610aff576000198160200360031b1b821691505b50919050565b60005b83811015610b20578181015183820152602001610b08565b83811115610b2f576000848401525b50505050565b600081610b4457610b44610b95565b506000190190565b600181811c90821680610b6057607f821691505b60208210811415610aff57634e487b7160e01b600052602260045260246000fd5b600082610b9057610b90610bab565b500690565b634e487b7160e01b600052601160045260246000fd5b634e487b7160e01b600052601260045260246000fd5b634e487b7160e01b600052604160045260246000fdfea2646970667358221220a3ab2c023a599b6a488412b012ec2f378ec8c10e415801da71d6bc5aa19d939664736f6c63430008070033a2646970667358221220c5beb1afd973b7e1ac02ecbdfb9de31366a325bbb27fb07b6562dd6ba0d3ee6564736f6c63430008070033",
  "linkReferences": {},
  "deployedLinkReferences": {}
}